{
	"data": {
		"bytecode": {
			"linkReferences": {},
			"object": "608060405260078054336001600160a01b0319918216811790925560088054909116909117905534801561003257600080fd5b5060405161155a38038061155a833981016040819052610051916102cd565b600580546001600160a01b039384166001600160a01b03199182161790915560068054929093169116179055601260205269d3c21bcecceda10000007f4270792c5242bb9af31a0ca014789585bac3a2bc36b4e20e1e1163e09d416afc5569b3fe97a2fafd2f4000007fea116540bb6c5b7acceccd1764953a76c4fad8a217efbc5957292a6f6549f6bb55696495cd356e2412e000007f52d0aceea21727f3645b59ed2a8e2414ba98aec7326945136bbb6fbd1d1bee8055693a56e28a8271153000007f9f59f72911ca8f47b3e19df7b8d808aa81d8edc8119614c7c316f6c84bb89c8b55692fa54641bae8aaa000007f5e6dc1ec65c205e4785800fc7cf7266df7ecc1251284c73df73cc438b1f9349855691003a3b3f593e40400007f5fe6cf215b4a13eaa2a7a4f22b2caee36bbae8f63be3ada50ba2209f503bdc7655690a968163f0a57b4000007f1cc964778659cb526f0f4fe148ec03d3f93f444a969aac8d1602a8004b60f6f85569098774738bc8222000007f77a856606c58f2afe74bc4d415a981c84b65392fcf7fefc382ded558bb92f4648190557fe916beb333cde8471a36b6e21a68b3ebdc7e0fe343cee63055523fb231ea11878190557f9717e554f4f1c8f1445175ec6b77439740ea6e0a2d3809501f0e3f3949c19e288190557f31c8277a0ccfffea1189152918c4cd07edee7f47b05bce3a4bae62597e6d602e8190557ff488cbb1c9f248560c55d6af8aff3d1b53d7743aee9b6e9d1423c01242306451556042600052690971c556131295e000007fa6a9599000f4425e443918d34a69c9234ba73b27460468e6463868ac68d263b855610300565b80516001600160a01b03811681146102c857600080fd5b919050565b600080604083850312156102e057600080fd5b6102e9836102b1565b91506102f7602084016102b1565b90509250929050565b61124b8061030f6000396000f3fe608060405234801561001057600080fd5b50600436106101a95760003560e01c80638aca35a0116100f9578063b91f3f9711610097578063e372c90011610071578063e372c900146103a7578063f5ae497a146103af578063f7c618c1146103c2578063fdf5963a146103d557600080fd5b8063b91f3f9714610377578063d12327301461037f578063ddd1b67e1461039f57600080fd5b8063a5b39cfb116100d3578063a5b39cfb14610325578063a87df83214610345578063b5a556d21461034e578063b77cf9c61461035757600080fd5b80638aca35a0146103015780638f90e9021461030a57806392f851c11461031d57600080fd5b806367eeba0c116101665780636e90013d116101405780636e90013d1461029a57806373f273fc146102ad57806375f0a874146102cd578063862a4d47146102f857600080fd5b806367eeba0c1461024257806369a69e291461024b5780636bd3b87c1461025e57600080fd5b806306d2ad40146101ae5780632be11ae2146101e657806340519a53146101f0578063443df8f51461020357806350f0a325146102315780635c9302c914610239575b600080fd5b6101d16101bc3660046110e7565b60046020526000908152604090205460ff1681565b60405190151581526020015b60405180910390f35b6101ee6103de565b005b6101ee6101fe366004611102565b6108a2565b610223610211366004611102565b60126020526000908152604090205481565b6040519081526020016101dd565b610223600781565b610223600e5481565b61022360105481565b6102236102593660046110e7565b610ada565b61028561026c3660046110e7565b6013602052600090815260409020805460019091015482565b604080519283526020830191909152016101dd565b6101ee6102a836600461111b565b610bc3565b6102236102bb3660046110e7565b60026020526000908152604090205481565b6008546102e0906001600160a01b031681565b6040516001600160a01b0390911681526020016101dd565b610223600d5481565b610223600f5481565b6101ee6103183660046110e7565b610c87565b6101ee610cf1565b6102236103333660046110e7565b60016020526000908152604090205481565b610223600c5481565b61022360115481565b6102236103653660046110e7565b60006020819052908152604090205481565b6101ee610e3b565b61022361038d3660046110e7565b60036020526000908152604090205481565b610223611042565b610223605a81565b6005546102e0906001600160a01b031681565b6006546102e0906001600160a01b031681565b610223600a5481565b336000908152602081905260408120546103f8904261115b565b3360009081526003602052604081205491925090610416904261115b565b9050600782101561047f5760405162461bcd60e51b815260206004820152602860248201527f4d7573742077616974206174206c6561737420372064617973206265747765656044820152676e20636c61696d7360c01b60648201526084015b60405180910390fd5b336000908152600160205260409020546104ce5760405162461bcd60e51b815260206004820152601060248201526f4e6f207374616b656420746f6b656e7360801b6044820152606401610476565b6104d6611042565b600d5414610514576104e6611042565b600d55600c601260006104f7611056565b815260200190815260200160002054610510919061116e565b600f555b600e54610524620151804261116e565b1461057557610536620151804261116e565b600e55601e600c60126000610549611056565b815260200190815260200160002054610562919061116e565b61056c919061116e565b60105560006011555b604261057f611056565b11156105ae57690971c556131295e000006012600061059c611056565b81526020810191909152604001600020555b60095433600090815260016020526040812054909161016d916012846105d2611056565b8152602001908152602001600020546105eb9190611190565b6105f5919061116e565b6105ff919061116e565b9050600061062161061160078661116e565b61061c605a8661116e565b611066565b9050600061062f8284611190565b3360009081526002602052604081208290556011546010549293509091610656919061115b565b905060006106648383611066565b60095433600090815260016020526040902054919250906106859083611190565b61068f919061116e565b336000908152600260205260408120805492935083929091906106b390849061115b565b9250508190555080600c60008282546106cc91906111a7565b9250508190555080601160008282546106e591906111a7565b90915550508061072e5760405162461bcd60e51b81526020600482015260146024820152734e6f20636c61696d61626c65207265776172647360601b6044820152606401610476565b600061271061073b611080565b6107459084611190565b61074f919061116e565b905061075b818361115b565b915081156108545760065460405163a9059cbb60e01b8152336004820152602481018490526001600160a01b039091169063a9059cbb906044016020604051808303816000875af11580156107b4573d6000803e3d6000fd5b505050506040513d601f19601f820116820180604052508101906107d891906111ba565b5060065460085460405163a9059cbb60e01b81526001600160a01b0391821660048201526024810184905291169063a9059cbb906044016020604051808303816000875af115801561082e573d6000803e3d6000fd5b505050506040513d601f19601f8201168201806040525081019061085291906111ba565b505b336000818152602081815260409182902042905590518481527fa0703c548e4f3579a5b862677f6e9a97ac2d85326ddb959deb9b37a802253232910160405180910390a25050505050505050565b6005546040516370a0823160e01b81523360048201526000916001600160a01b0316906370a0823190602401602060405180830381865afa1580156108eb573d6000803e3d6000fd5b505050506040513d601f19601f8201168201806040525081019061090f91906111e3565b116109545760405162461bcd60e51b8152602060048201526015602482015274506f6f6c656420416d6f756e74206973205a65726f60581b6044820152606401610476565b6005546040516323b872dd60e01b8152336004820152306024820152604481018390526001600160a01b03909116906323b872dd906064016020604051808303816000875af11580156109ab573d6000803e3d6000fd5b505050506040513d601f19601f820116820180604052508101906109cf91906111ba565b610a165760405162461bcd60e51b81526020600482015260186024820152771314081d1bdad95b881d1c985b9cd9995c8819985a5b195960421b6044820152606401610476565b6000610a23605a426111a7565b3360008181526003602090815260408083204290558051808201825287815280830186815294845260139092528220905181559151600190920191909155600980549293508492909190610a789084906111a7565b90915550503360009081526001602052604081208054849290610a9c9084906111a7565b909155505060405182815233907fe1954443838ef603b0d4c78380e8ce8fa0cbd3126aafb585e9072cf90185fa589060200160405180910390a25050565b336000908152602081905260408120548190610af6904261115b565b3360009081526003602052604081205491925090610b14904261115b565b90506007821080610b255750605a81105b15610b34575060009392505050565b6000610b4f610b4460078561116e565b61061c605a8561116e565b6009546001600160a01b0387166000908152600160205260408120549293509161016d601284610b7d611056565b815260200190815260200160002054610b96919061116e565b610ba09190611190565b610baa919061116e565b90506000610bb88383611190565b979650505050505050565b6007546001600160a01b03163314610c0b5760405162461bcd60e51b815260206004820152600b60248201526a1b9bdd08105b1b1bddd95960aa1b6044820152606401610476565b60075460405163a9059cbb60e01b81526001600160a01b039182166004820152602481018390529083169063a9059cbb906044016020604051808303816000875af1158015610c5e573d6000803e3d6000fd5b505050506040513d601f19601f82011682018060405250810190610c8291906111ba565b505050565b6007546001600160a01b03163314610ccf5760405162461bcd60e51b815260206004820152600b60248201526a1b9bdd08105b1b1bddd95960aa1b6044820152606401610476565b600580546001600160a01b0319166001600160a01b0392909216919091179055565b6006546040516370a0823160e01b81523360048201526000916001600160a01b0316906370a0823190602401602060405180830381865afa158015610d3a573d6000803e3d6000fd5b505050506040513d601f19601f82011682018060405250810190610d5e91906111e3565b11610d9b5760405162461bcd60e51b815260206004820152600d60248201526c5a65726f20486f6c64696e677360981b6044820152606401610476565b3360009081526004602052604090205460ff1615610e0a5760405162461bcd60e51b815260206004820152602660248201527f596f75206861766520616c7265616479206170706c69656420666f72207265646044820152653ab1ba34b7b760d11b6064820152608401610476565b600a8054906000610e1a836111fc565b9091555050336000908152600460205260409020805460ff19166001179055565b33600090815260036020526040902054610e5790605a906111a7565b421015610ea65760405162461bcd60e51b815260206004820152601c60248201527f43616e6e6f7420756e6c6f636b206265666f72652039302064617973000000006044820152606401610476565b3360009081526013602052604090205480610ef65760405162461bcd60e51b815260206004820152601060248201526f4e6f206c6f636b656420746f6b656e7360801b6044820152606401610476565b60055460405163a9059cbb60e01b8152336004820152602481018390526001600160a01b039091169063a9059cbb906044016020604051808303816000875af1158015610f47573d6000803e3d6000fd5b505050506040513d601f19601f82011682018060405250810190610f6b91906111ba565b610fb25760405162461bcd60e51b81526020600482015260186024820152771314081d1bdad95b881d1c985b9cd9995c8819985a5b195960421b6044820152606401610476565b8060096000828254610fc4919061115b565b90915550503360009081526001602052604081208054839290610fe890849061115b565b90915550503360008181526013602052604080822082815560010191909155517f580ec6003f06a23971f7ccdb029ae688764884d7361687066e352d1ff6024473906110379084815260200190565b60405180910390a250565b600061105162278d004261116e565b905090565b60006110516301e133804261116e565b60008183106110755781611077565b825b90505b92915050565b60006001600a5410611096576032600b556110c4565b6002600a54106110aa576019600b556110c4565b6003600a54106110be57600c600b556110c4565b6064600b555b50600b5490565b80356001600160a01b03811681146110e257600080fd5b919050565b6000602082840312156110f957600080fd5b611077826110cb565b60006020828403121561111457600080fd5b5035919050565b6000806040838503121561112e57600080fd5b611137836110cb565b946020939093013593505050565b634e487b7160e01b600052601160045260246000fd5b8181038181111561107a5761107a611145565b60008261118b57634e487b7160e01b600052601260045260246000fd5b500490565b808202811582820484141761107a5761107a611145565b8082018082111561107a5761107a611145565b6000602082840312156111cc57600080fd5b815180151581146111dc57600080fd5b9392505050565b6000602082840312156111f557600080fd5b5051919050565b60006001820161120e5761120e611145565b506001019056fea26469706673582212204a1659f81d2176e117d90b240af8efac8b9d431ed264d2ef24d3e94f3af3f55a64736f6c63430008190033",
			"opcodes": "PUSH1 0x80 PUSH1 0x40 MSTORE PUSH1 0x7 DUP1 SLOAD CALLER PUSH1 0x1 PUSH1 0x1 PUSH1 0xA0 SHL SUB NOT SWAP2 DUP3 AND DUP2 OR SWAP1 SWAP3 SSTORE PUSH1 0x8 DUP1 SLOAD SWAP1 SWAP2 AND SWAP1 SWAP2 OR SWAP1 SSTORE CALLVALUE DUP1 ISZERO PUSH2 0x32 JUMPI PUSH1 0x0 DUP1 REVERT JUMPDEST POP PUSH1 0x40 MLOAD PUSH2 0x155A CODESIZE SUB DUP1 PUSH2 0x155A DUP4 CODECOPY DUP2 ADD PUSH1 0x40 DUP2 SWAP1 MSTORE PUSH2 0x51 SWAP2 PUSH2 0x2CD JUMP JUMPDEST PUSH1 0x5 DUP1 SLOAD PUSH1 0x1 PUSH1 0x1 PUSH1 0xA0 SHL SUB SWAP4 DUP5 AND PUSH1 0x1 PUSH1 0x1 PUSH1 0xA0 SHL SUB NOT SWAP2 DUP3 AND OR SWAP1 SWAP2 SSTORE PUSH1 0x6 DUP1 SLOAD SWAP3 SWAP1 SWAP4 AND SWAP2 AND OR SWAP1 SSTORE PUSH1 0x12 PUSH1 0x20 MSTORE PUSH10 0xD3C21BCECCEDA1000000 PUSH32 0x4270792C5242BB9AF31A0CA014789585BAC3A2BC36B4E20E1E1163E09D416AFC SSTORE PUSH10 0xB3FE97A2FAFD2F400000 PUSH32 0xEA116540BB6C5B7ACCECCD1764953A76C4FAD8A217EFBC5957292A6F6549F6BB SSTORE PUSH10 0x6495CD356E2412E00000 PUSH32 0x52D0ACEEA21727F3645B59ED2A8E2414BA98AEC7326945136BBB6FBD1D1BEE80 SSTORE PUSH10 0x3A56E28A827115300000 PUSH32 0x9F59F72911CA8F47B3E19DF7B8D808AA81D8EDC8119614C7C316F6C84BB89C8B SSTORE PUSH10 0x2FA54641BAE8AAA00000 PUSH32 0x5E6DC1EC65C205E4785800FC7CF7266DF7ECC1251284C73DF73CC438B1F93498 SSTORE PUSH10 0x1003A3B3F593E4040000 PUSH32 0x5FE6CF215B4A13EAA2A7A4F22B2CAEE36BBAE8F63BE3ADA50BA2209F503BDC76 SSTORE PUSH10 0xA968163F0A57B400000 PUSH32 0x1CC964778659CB526F0F4FE148EC03D3F93F444A969AAC8D1602A8004B60F6F8 SSTORE PUSH10 0x98774738BC822200000 PUSH32 0x77A856606C58F2AFE74BC4D415A981C84B65392FCF7FEFC382DED558BB92F464 DUP2 SWAP1 SSTORE PUSH32 0xE916BEB333CDE8471A36B6E21A68B3EBDC7E0FE343CEE63055523FB231EA1187 DUP2 SWAP1 SSTORE PUSH32 0x9717E554F4F1C8F1445175EC6B77439740EA6E0A2D3809501F0E3F3949C19E28 DUP2 SWAP1 SSTORE PUSH32 0x31C8277A0CCFFFEA1189152918C4CD07EDEE7F47B05BCE3A4BAE62597E6D602E DUP2 SWAP1 SSTORE PUSH32 0xF488CBB1C9F248560C55D6AF8AFF3D1B53D7743AEE9B6E9D1423C01242306451 SSTORE PUSH1 0x42 PUSH1 0x0 MSTORE PUSH10 0x971C556131295E00000 PUSH32 0xA6A9599000F4425E443918D34A69C9234BA73B27460468E6463868AC68D263B8 SSTORE PUSH2 0x300 JUMP JUMPDEST DUP1 MLOAD PUSH1 0x1 PUSH1 0x1 PUSH1 0xA0 SHL SUB DUP2 AND DUP2 EQ PUSH2 0x2C8 JUMPI PUSH1 0x0 DUP1 REVERT JUMPDEST SWAP2 SWAP1 POP JUMP JUMPDEST PUSH1 0x0 DUP1 PUSH1 0x40 DUP4 DUP6 SUB SLT ISZERO PUSH2 0x2E0 JUMPI PUSH1 0x0 DUP1 REVERT JUMPDEST PUSH2 0x2E9 DUP4 PUSH2 0x2B1 JUMP JUMPDEST SWAP2 POP PUSH2 0x2F7 PUSH1 0x20 DUP5 ADD PUSH2 0x2B1 JUMP JUMPDEST SWAP1 POP SWAP3 POP SWAP3 SWAP1 POP JUMP JUMPDEST PUSH2 0x124B DUP1 PUSH2 0x30F PUSH1 0x0 CODECOPY PUSH1 0x0 RETURN INVALID PUSH1 0x80 PUSH1 0x40 MSTORE CALLVALUE DUP1 ISZERO PUSH2 0x10 JUMPI PUSH1 0x0 DUP1 REVERT JUMPDEST POP PUSH1 0x4 CALLDATASIZE LT PUSH2 0x1A9 JUMPI PUSH1 0x0 CALLDATALOAD PUSH1 0xE0 SHR DUP1 PUSH4 0x8ACA35A0 GT PUSH2 0xF9 JUMPI DUP1 PUSH4 0xB91F3F97 GT PUSH2 0x97 JUMPI DUP1 PUSH4 0xE372C900 GT PUSH2 0x71 JUMPI DUP1 PUSH4 0xE372C900 EQ PUSH2 0x3A7 JUMPI DUP1 PUSH4 0xF5AE497A EQ PUSH2 0x3AF JUMPI DUP1 PUSH4 0xF7C618C1 EQ PUSH2 0x3C2 JUMPI DUP1 PUSH4 0xFDF5963A EQ PUSH2 0x3D5 JUMPI PUSH1 0x0 DUP1 REVERT JUMPDEST DUP1 PUSH4 0xB91F3F97 EQ PUSH2 0x377 JUMPI DUP1 PUSH4 0xD1232730 EQ PUSH2 0x37F JUMPI DUP1 PUSH4 0xDDD1B67E EQ PUSH2 0x39F JUMPI PUSH1 0x0 DUP1 REVERT JUMPDEST DUP1 PUSH4 0xA5B39CFB GT PUSH2 0xD3 JUMPI DUP1 PUSH4 0xA5B39CFB EQ PUSH2 0x325 JUMPI DUP1 PUSH4 0xA87DF832 EQ PUSH2 0x345 JUMPI DUP1 PUSH4 0xB5A556D2 EQ PUSH2 0x34E JUMPI DUP1 PUSH4 0xB77CF9C6 EQ PUSH2 0x357 JUMPI PUSH1 0x0 DUP1 REVERT JUMPDEST DUP1 PUSH4 0x8ACA35A0 EQ PUSH2 0x301 JUMPI DUP1 PUSH4 0x8F90E902 EQ PUSH2 0x30A JUMPI DUP1 PUSH4 0x92F851C1 EQ PUSH2 0x31D JUMPI PUSH1 0x0 DUP1 REVERT JUMPDEST DUP1 PUSH4 0x67EEBA0C GT PUSH2 0x166 JUMPI DUP1 PUSH4 0x6E90013D GT PUSH2 0x140 JUMPI DUP1 PUSH4 0x6E90013D EQ PUSH2 0x29A JUMPI DUP1 PUSH4 0x73F273FC EQ PUSH2 0x2AD JUMPI DUP1 PUSH4 0x75F0A874 EQ PUSH2 0x2CD JUMPI DUP1 PUSH4 0x862A4D47 EQ PUSH2 0x2F8 JUMPI PUSH1 0x0 DUP1 REVERT JUMPDEST DUP1 PUSH4 0x67EEBA0C EQ PUSH2 0x242 JUMPI DUP1 PUSH4 0x69A69E29 EQ PUSH2 0x24B JUMPI DUP1 PUSH4 0x6BD3B87C EQ PUSH2 0x25E JUMPI PUSH1 0x0 DUP1 REVERT JUMPDEST DUP1 PUSH4 0x6D2AD40 EQ PUSH2 0x1AE JUMPI DUP1 PUSH4 0x2BE11AE2 EQ PUSH2 0x1E6 JUMPI DUP1 PUSH4 0x40519A53 EQ PUSH2 0x1F0 JUMPI DUP1 PUSH4 0x443DF8F5 EQ PUSH2 0x203 JUMPI DUP1 PUSH4 0x50F0A325 EQ PUSH2 0x231 JUMPI DUP1 PUSH4 0x5C9302C9 EQ PUSH2 0x239 JUMPI JUMPDEST PUSH1 0x0 DUP1 REVERT JUMPDEST PUSH2 0x1D1 PUSH2 0x1BC CALLDATASIZE PUSH1 0x4 PUSH2 0x10E7 JUMP JUMPDEST PUSH1 0x4 PUSH1 0x20 MSTORE PUSH1 0x0 SWAP1 DUP2 MSTORE PUSH1 0x40 SWAP1 KECCAK256 SLOAD PUSH1 0xFF AND DUP2 JUMP JUMPDEST PUSH1 0x40 MLOAD SWAP1 ISZERO ISZERO DUP2 MSTORE PUSH1 0x20 ADD JUMPDEST PUSH1 0x40 MLOAD DUP1 SWAP2 SUB SWAP1 RETURN JUMPDEST PUSH2 0x1EE PUSH2 0x3DE JUMP JUMPDEST STOP JUMPDEST PUSH2 0x1EE PUSH2 0x1FE CALLDATASIZE PUSH1 0x4 PUSH2 0x1102 JUMP JUMPDEST PUSH2 0x8A2 JUMP JUMPDEST PUSH2 0x223 PUSH2 0x211 CALLDATASIZE PUSH1 0x4 PUSH2 0x1102 JUMP JUMPDEST PUSH1 0x12 PUSH1 0x20 MSTORE PUSH1 0x0 SWAP1 DUP2 MSTORE PUSH1 0x40 SWAP1 KECCAK256 SLOAD DUP2 JUMP JUMPDEST PUSH1 0x40 MLOAD SWAP1 DUP2 MSTORE PUSH1 0x20 ADD PUSH2 0x1DD JUMP JUMPDEST PUSH2 0x223 PUSH1 0x7 DUP2 JUMP JUMPDEST PUSH2 0x223 PUSH1 0xE SLOAD DUP2 JUMP JUMPDEST PUSH2 0x223 PUSH1 0x10 SLOAD DUP2 JUMP JUMPDEST PUSH2 0x223 PUSH2 0x259 CALLDATASIZE PUSH1 0x4 PUSH2 0x10E7 JUMP JUMPDEST PUSH2 0xADA JUMP JUMPDEST PUSH2 0x285 PUSH2 0x26C CALLDATASIZE PUSH1 0x4 PUSH2 0x10E7 JUMP JUMPDEST PUSH1 0x13 PUSH1 0x20 MSTORE PUSH1 0x0 SWAP1 DUP2 MSTORE PUSH1 0x40 SWAP1 KECCAK256 DUP1 SLOAD PUSH1 0x1 SWAP1 SWAP2 ADD SLOAD DUP3 JUMP JUMPDEST PUSH1 0x40 DUP1 MLOAD SWAP3 DUP4 MSTORE PUSH1 0x20 DUP4 ADD SWAP2 SWAP1 SWAP2 MSTORE ADD PUSH2 0x1DD JUMP JUMPDEST PUSH2 0x1EE PUSH2 0x2A8 CALLDATASIZE PUSH1 0x4 PUSH2 0x111B JUMP JUMPDEST PUSH2 0xBC3 JUMP JUMPDEST PUSH2 0x223 PUSH2 0x2BB CALLDATASIZE PUSH1 0x4 PUSH2 0x10E7 JUMP JUMPDEST PUSH1 0x2 PUSH1 0x20 MSTORE PUSH1 0x0 SWAP1 DUP2 MSTORE PUSH1 0x40 SWAP1 KECCAK256 SLOAD DUP2 JUMP JUMPDEST PUSH1 0x8 SLOAD PUSH2 0x2E0 SWAP1 PUSH1 0x1 PUSH1 0x1 PUSH1 0xA0 SHL SUB AND DUP2 JUMP JUMPDEST PUSH1 0x40 MLOAD PUSH1 0x1 PUSH1 0x1 PUSH1 0xA0 SHL SUB SWAP1 SWAP2 AND DUP2 MSTORE PUSH1 0x20 ADD PUSH2 0x1DD JUMP JUMPDEST PUSH2 0x223 PUSH1 0xD SLOAD DUP2 JUMP JUMPDEST PUSH2 0x223 PUSH1 0xF SLOAD DUP2 JUMP JUMPDEST PUSH2 0x1EE PUSH2 0x318 CALLDATASIZE PUSH1 0x4 PUSH2 0x10E7 JUMP JUMPDEST PUSH2 0xC87 JUMP JUMPDEST PUSH2 0x1EE PUSH2 0xCF1 JUMP JUMPDEST PUSH2 0x223 PUSH2 0x333 CALLDATASIZE PUSH1 0x4 PUSH2 0x10E7 JUMP JUMPDEST PUSH1 0x1 PUSH1 0x20 MSTORE PUSH1 0x0 SWAP1 DUP2 MSTORE PUSH1 0x40 SWAP1 KECCAK256 SLOAD DUP2 JUMP JUMPDEST PUSH2 0x223 PUSH1 0xC SLOAD DUP2 JUMP JUMPDEST PUSH2 0x223 PUSH1 0x11 SLOAD DUP2 JUMP JUMPDEST PUSH2 0x223 PUSH2 0x365 CALLDATASIZE PUSH1 0x4 PUSH2 0x10E7 JUMP JUMPDEST PUSH1 0x0 PUSH1 0x20 DUP2 SWAP1 MSTORE SWAP1 DUP2 MSTORE PUSH1 0x40 SWAP1 KECCAK256 SLOAD DUP2 JUMP JUMPDEST PUSH2 0x1EE PUSH2 0xE3B JUMP JUMPDEST PUSH2 0x223 PUSH2 0x38D CALLDATASIZE PUSH1 0x4 PUSH2 0x10E7 JUMP JUMPDEST PUSH1 0x3 PUSH1 0x20 MSTORE PUSH1 0x0 SWAP1 DUP2 MSTORE PUSH1 0x40 SWAP1 KECCAK256 SLOAD DUP2 JUMP JUMPDEST PUSH2 0x223 PUSH2 0x1042 JUMP JUMPDEST PUSH2 0x223 PUSH1 0x5A DUP2 JUMP JUMPDEST PUSH1 0x5 SLOAD PUSH2 0x2E0 SWAP1 PUSH1 0x1 PUSH1 0x1 PUSH1 0xA0 SHL SUB AND DUP2 JUMP JUMPDEST PUSH1 0x6 SLOAD PUSH2 0x2E0 SWAP1 PUSH1 0x1 PUSH1 0x1 PUSH1 0xA0 SHL SUB AND DUP2 JUMP JUMPDEST PUSH2 0x223 PUSH1 0xA SLOAD DUP2 JUMP JUMPDEST CALLER PUSH1 0x0 SWAP1 DUP2 MSTORE PUSH1 0x20 DUP2 SWAP1 MSTORE PUSH1 0x40 DUP2 KECCAK256 SLOAD PUSH2 0x3F8 SWAP1 TIMESTAMP PUSH2 0x115B JUMP JUMPDEST CALLER PUSH1 0x0 SWAP1 DUP2 MSTORE PUSH1 0x3 PUSH1 0x20 MSTORE PUSH1 0x40 DUP2 KECCAK256 SLOAD SWAP2 SWAP3 POP SWAP1 PUSH2 0x416 SWAP1 TIMESTAMP PUSH2 0x115B JUMP JUMPDEST SWAP1 POP PUSH1 0x7 DUP3 LT ISZERO PUSH2 0x47F JUMPI PUSH1 0x40 MLOAD PUSH3 0x461BCD PUSH1 0xE5 SHL DUP2 MSTORE PUSH1 0x20 PUSH1 0x4 DUP3 ADD MSTORE PUSH1 0x28 PUSH1 0x24 DUP3 ADD MSTORE PUSH32 0x4D7573742077616974206174206C656173742037206461797320626574776565 PUSH1 0x44 DUP3 ADD MSTORE PUSH8 0x6E20636C61696D73 PUSH1 0xC0 SHL PUSH1 0x64 DUP3 ADD MSTORE PUSH1 0x84 ADD JUMPDEST PUSH1 0x40 MLOAD DUP1 SWAP2 SUB SWAP1 REVERT JUMPDEST CALLER PUSH1 0x0 SWAP1 DUP2 MSTORE PUSH1 0x1 PUSH1 0x20 MSTORE PUSH1 0x40 SWAP1 KECCAK256 SLOAD PUSH2 0x4CE JUMPI PUSH1 0x40 MLOAD PUSH3 0x461BCD PUSH1 0xE5 SHL DUP2 MSTORE PUSH1 0x20 PUSH1 0x4 DUP3 ADD MSTORE PUSH1 0x10 PUSH1 0x24 DUP3 ADD MSTORE PUSH16 0x4E6F207374616B656420746F6B656E73 PUSH1 0x80 SHL PUSH1 0x44 DUP3 ADD MSTORE PUSH1 0x64 ADD PUSH2 0x476 JUMP JUMPDEST PUSH2 0x4D6 PUSH2 0x1042 JUMP JUMPDEST PUSH1 0xD SLOAD EQ PUSH2 0x514 JUMPI PUSH2 0x4E6 PUSH2 0x1042 JUMP JUMPDEST PUSH1 0xD SSTORE PUSH1 0xC PUSH1 0x12 PUSH1 0x0 PUSH2 0x4F7 PUSH2 0x1056 JUMP JUMPDEST DUP2 MSTORE PUSH1 0x20 ADD SWAP1 DUP2 MSTORE PUSH1 0x20 ADD PUSH1 0x0 KECCAK256 SLOAD PUSH2 0x510 SWAP2 SWAP1 PUSH2 0x116E JUMP JUMPDEST PUSH1 0xF SSTORE JUMPDEST PUSH1 0xE SLOAD PUSH2 0x524 PUSH3 0x15180 TIMESTAMP PUSH2 0x116E JUMP JUMPDEST EQ PUSH2 0x575 JUMPI PUSH2 0x536 PUSH3 0x15180 TIMESTAMP PUSH2 0x116E JUMP JUMPDEST PUSH1 0xE SSTORE PUSH1 0x1E PUSH1 0xC PUSH1 0x12 PUSH1 0x0 PUSH2 0x549 PUSH2 0x1056 JUMP JUMPDEST DUP2 MSTORE PUSH1 0x20 ADD SWAP1 DUP2 MSTORE PUSH1 0x20 ADD PUSH1 0x0 KECCAK256 SLOAD PUSH2 0x562 SWAP2 SWAP1 PUSH2 0x116E JUMP JUMPDEST PUSH2 0x56C SWAP2 SWAP1 PUSH2 0x116E JUMP JUMPDEST PUSH1 0x10 SSTORE PUSH1 0x0 PUSH1 0x11 SSTORE JUMPDEST PUSH1 0x42 PUSH2 0x57F PUSH2 0x1056 JUMP JUMPDEST GT ISZERO PUSH2 0x5AE JUMPI PUSH10 0x971C556131295E00000 PUSH1 0x12 PUSH1 0x0 PUSH2 0x59C PUSH2 0x1056 JUMP JUMPDEST DUP2 MSTORE PUSH1 0x20 DUP2 ADD SWAP2 SWAP1 SWAP2 MSTORE PUSH1 0x40 ADD PUSH1 0x0 KECCAK256 SSTORE JUMPDEST PUSH1 0x9 SLOAD CALLER PUSH1 0x0 SWAP1 DUP2 MSTORE PUSH1 0x1 PUSH1 0x20 MSTORE PUSH1 0x40 DUP2 KECCAK256 SLOAD SWAP1 SWAP2 PUSH2 0x16D SWAP2 PUSH1 0x12 DUP5 PUSH2 0x5D2 PUSH2 0x1056 JUMP JUMPDEST DUP2 MSTORE PUSH1 0x20 ADD SWAP1 DUP2 MSTORE PUSH1 0x20 ADD PUSH1 0x0 KECCAK256 SLOAD PUSH2 0x5EB SWAP2 SWAP1 PUSH2 0x1190 JUMP JUMPDEST PUSH2 0x5F5 SWAP2 SWAP1 PUSH2 0x116E JUMP JUMPDEST PUSH2 0x5FF SWAP2 SWAP1 PUSH2 0x116E JUMP JUMPDEST SWAP1 POP PUSH1 0x0 PUSH2 0x621 PUSH2 0x611 PUSH1 0x7 DUP7 PUSH2 0x116E JUMP JUMPDEST PUSH2 0x61C PUSH1 0x5A DUP7 PUSH2 0x116E JUMP JUMPDEST PUSH2 0x1066 JUMP JUMPDEST SWAP1 POP PUSH1 0x0 PUSH2 0x62F DUP3 DUP5 PUSH2 0x1190 JUMP JUMPDEST CALLER PUSH1 0x0 SWAP1 DUP2 MSTORE PUSH1 0x2 PUSH1 0x20 MSTORE PUSH1 0x40 DUP2 KECCAK256 DUP3 SWAP1 SSTORE PUSH1 0x11 SLOAD PUSH1 0x10 SLOAD SWAP3 SWAP4 POP SWAP1 SWAP2 PUSH2 0x656 SWAP2 SWAP1 PUSH2 0x115B JUMP JUMPDEST SWAP1 POP PUSH1 0x0 PUSH2 0x664 DUP4 DUP4 PUSH2 0x1066 JUMP JUMPDEST PUSH1 0x9 SLOAD CALLER PUSH1 0x0 SWAP1 DUP2 MSTORE PUSH1 0x1 PUSH1 0x20 MSTORE PUSH1 0x40 SWAP1 KECCAK256 SLOAD SWAP2 SWAP3 POP SWAP1 PUSH2 0x685 SWAP1 DUP4 PUSH2 0x1190 JUMP JUMPDEST PUSH2 0x68F SWAP2 SWAP1 PUSH2 0x116E JUMP JUMPDEST CALLER PUSH1 0x0 SWAP1 DUP2 MSTORE PUSH1 0x2 PUSH1 0x20 MSTORE PUSH1 0x40 DUP2 KECCAK256 DUP1 SLOAD SWAP3 SWAP4 POP DUP4 SWAP3 SWAP1 SWAP2 SWAP1 PUSH2 0x6B3 SWAP1 DUP5 SWAP1 PUSH2 0x115B JUMP JUMPDEST SWAP3 POP POP DUP2 SWAP1 SSTORE POP DUP1 PUSH1 0xC PUSH1 0x0 DUP3 DUP3 SLOAD PUSH2 0x6CC SWAP2 SWAP1 PUSH2 0x11A7 JUMP JUMPDEST SWAP3 POP POP DUP2 SWAP1 SSTORE POP DUP1 PUSH1 0x11 PUSH1 0x0 DUP3 DUP3 SLOAD PUSH2 0x6E5 SWAP2 SWAP1 PUSH2 0x11A7 JUMP JUMPDEST SWAP1 SWAP2 SSTORE POP POP DUP1 PUSH2 0x72E JUMPI PUSH1 0x40 MLOAD PUSH3 0x461BCD PUSH1 0xE5 SHL DUP2 MSTORE PUSH1 0x20 PUSH1 0x4 DUP3 ADD MSTORE PUSH1 0x14 PUSH1 0x24 DUP3 ADD MSTORE PUSH20 0x4E6F20636C61696D61626C652072657761726473 PUSH1 0x60 SHL PUSH1 0x44 DUP3 ADD MSTORE PUSH1 0x64 ADD PUSH2 0x476 JUMP JUMPDEST PUSH1 0x0 PUSH2 0x2710 PUSH2 0x73B PUSH2 0x1080 JUMP JUMPDEST PUSH2 0x745 SWAP1 DUP5 PUSH2 0x1190 JUMP JUMPDEST PUSH2 0x74F SWAP2 SWAP1 PUSH2 0x116E JUMP JUMPDEST SWAP1 POP PUSH2 0x75B DUP2 DUP4 PUSH2 0x115B JUMP JUMPDEST SWAP2 POP DUP2 ISZERO PUSH2 0x854 JUMPI PUSH1 0x6 SLOAD PUSH1 0x40 MLOAD PUSH4 0xA9059CBB PUSH1 0xE0 SHL DUP2 MSTORE CALLER PUSH1 0x4 DUP3 ADD MSTORE PUSH1 0x24 DUP2 ADD DUP5 SWAP1 MSTORE PUSH1 0x1 PUSH1 0x1 PUSH1 0xA0 SHL SUB SWAP1 SWAP2 AND SWAP1 PUSH4 0xA9059CBB SWAP1 PUSH1 0x44 ADD PUSH1 0x20 PUSH1 0x40 MLOAD DUP1 DUP4 SUB DUP2 PUSH1 0x0 DUP8 GAS CALL ISZERO DUP1 ISZERO PUSH2 0x7B4 JUMPI RETURNDATASIZE PUSH1 0x0 DUP1 RETURNDATACOPY RETURNDATASIZE PUSH1 0x0 REVERT JUMPDEST POP POP POP POP PUSH1 0x40 MLOAD RETURNDATASIZE PUSH1 0x1F NOT PUSH1 0x1F DUP3 ADD AND DUP3 ADD DUP1 PUSH1 0x40 MSTORE POP DUP2 ADD SWAP1 PUSH2 0x7D8 SWAP2 SWAP1 PUSH2 0x11BA JUMP JUMPDEST POP PUSH1 0x6 SLOAD PUSH1 0x8 SLOAD PUSH1 0x40 MLOAD PUSH4 0xA9059CBB PUSH1 0xE0 SHL DUP2 MSTORE PUSH1 0x1 PUSH1 0x1 PUSH1 0xA0 SHL SUB SWAP2 DUP3 AND PUSH1 0x4 DUP3 ADD MSTORE PUSH1 0x24 DUP2 ADD DUP5 SWAP1 MSTORE SWAP2 AND SWAP1 PUSH4 0xA9059CBB SWAP1 PUSH1 0x44 ADD PUSH1 0x20 PUSH1 0x40 MLOAD DUP1 DUP4 SUB DUP2 PUSH1 0x0 DUP8 GAS CALL ISZERO DUP1 ISZERO PUSH2 0x82E JUMPI RETURNDATASIZE PUSH1 0x0 DUP1 RETURNDATACOPY RETURNDATASIZE PUSH1 0x0 REVERT JUMPDEST POP POP POP POP PUSH1 0x40 MLOAD RETURNDATASIZE PUSH1 0x1F NOT PUSH1 0x1F DUP3 ADD AND DUP3 ADD DUP1 PUSH1 0x40 MSTORE POP DUP2 ADD SWAP1 PUSH2 0x852 SWAP2 SWAP1 PUSH2 0x11BA JUMP JUMPDEST POP JUMPDEST CALLER PUSH1 0x0 DUP2 DUP2 MSTORE PUSH1 0x20 DUP2 DUP2 MSTORE PUSH1 0x40 SWAP2 DUP3 SWAP1 KECCAK256 TIMESTAMP SWAP1 SSTORE SWAP1 MLOAD DUP5 DUP2 MSTORE PUSH32 0xA0703C548E4F3579A5B862677F6E9A97AC2D85326DDB959DEB9B37A802253232 SWAP2 ADD PUSH1 0x40 MLOAD DUP1 SWAP2 SUB SWAP1 LOG2 POP POP POP POP POP POP POP POP JUMP JUMPDEST PUSH1 0x5 SLOAD PUSH1 0x40 MLOAD PUSH4 0x70A08231 PUSH1 0xE0 SHL DUP2 MSTORE CALLER PUSH1 0x4 DUP3 ADD MSTORE PUSH1 0x0 SWAP2 PUSH1 0x1 PUSH1 0x1 PUSH1 0xA0 SHL SUB AND SWAP1 PUSH4 0x70A08231 SWAP1 PUSH1 0x24 ADD PUSH1 0x20 PUSH1 0x40 MLOAD DUP1 DUP4 SUB DUP2 DUP7 GAS STATICCALL ISZERO DUP1 ISZERO PUSH2 0x8EB JUMPI RETURNDATASIZE PUSH1 0x0 DUP1 RETURNDATACOPY RETURNDATASIZE PUSH1 0x0 REVERT JUMPDEST POP POP POP POP PUSH1 0x40 MLOAD RETURNDATASIZE PUSH1 0x1F NOT PUSH1 0x1F DUP3 ADD AND DUP3 ADD DUP1 PUSH1 0x40 MSTORE POP DUP2 ADD SWAP1 PUSH2 0x90F SWAP2 SWAP1 PUSH2 0x11E3 JUMP JUMPDEST GT PUSH2 0x954 JUMPI PUSH1 0x40 MLOAD PUSH3 0x461BCD PUSH1 0xE5 SHL DUP2 MSTORE PUSH1 0x20 PUSH1 0x4 DUP3 ADD MSTORE PUSH1 0x15 PUSH1 0x24 DUP3 ADD MSTORE PUSH21 0x506F6F6C656420416D6F756E74206973205A65726F PUSH1 0x58 SHL PUSH1 0x44 DUP3 ADD MSTORE PUSH1 0x64 ADD PUSH2 0x476 JUMP JUMPDEST PUSH1 0x5 SLOAD PUSH1 0x40 MLOAD PUSH4 0x23B872DD PUSH1 0xE0 SHL DUP2 MSTORE CALLER PUSH1 0x4 DUP3 ADD MSTORE ADDRESS PUSH1 0x24 DUP3 ADD MSTORE PUSH1 0x44 DUP2 ADD DUP4 SWAP1 MSTORE PUSH1 0x1 PUSH1 0x1 PUSH1 0xA0 SHL SUB SWAP1 SWAP2 AND SWAP1 PUSH4 0x23B872DD SWAP1 PUSH1 0x64 ADD PUSH1 0x20 PUSH1 0x40 MLOAD DUP1 DUP4 SUB DUP2 PUSH1 0x0 DUP8 GAS CALL ISZERO DUP1 ISZERO PUSH2 0x9AB JUMPI RETURNDATASIZE PUSH1 0x0 DUP1 RETURNDATACOPY RETURNDATASIZE PUSH1 0x0 REVERT JUMPDEST POP POP POP POP PUSH1 0x40 MLOAD RETURNDATASIZE PUSH1 0x1F NOT PUSH1 0x1F DUP3 ADD AND DUP3 ADD DUP1 PUSH1 0x40 MSTORE POP DUP2 ADD SWAP1 PUSH2 0x9CF SWAP2 SWAP1 PUSH2 0x11BA JUMP JUMPDEST PUSH2 0xA16 JUMPI PUSH1 0x40 MLOAD PUSH3 0x461BCD PUSH1 0xE5 SHL DUP2 MSTORE PUSH1 0x20 PUSH1 0x4 DUP3 ADD MSTORE PUSH1 0x18 PUSH1 0x24 DUP3 ADD MSTORE PUSH24 0x1314081D1BDAD95B881D1C985B9CD9995C8819985A5B1959 PUSH1 0x42 SHL PUSH1 0x44 DUP3 ADD MSTORE PUSH1 0x64 ADD PUSH2 0x476 JUMP JUMPDEST PUSH1 0x0 PUSH2 0xA23 PUSH1 0x5A TIMESTAMP PUSH2 0x11A7 JUMP JUMPDEST CALLER PUSH1 0x0 DUP2 DUP2 MSTORE PUSH1 0x3 PUSH1 0x20 SWAP1 DUP2 MSTORE PUSH1 0x40 DUP1 DUP4 KECCAK256 TIMESTAMP SWAP1 SSTORE DUP1 MLOAD DUP1 DUP3 ADD DUP3 MSTORE DUP8 DUP2 MSTORE DUP1 DUP4 ADD DUP7 DUP2 MSTORE SWAP5 DUP5 MSTORE PUSH1 0x13 SWAP1 SWAP3 MSTORE DUP3 KECCAK256 SWAP1 MLOAD DUP2 SSTORE SWAP2 MLOAD PUSH1 0x1 SWAP1 SWAP3 ADD SWAP2 SWAP1 SWAP2 SSTORE PUSH1 0x9 DUP1 SLOAD SWAP3 SWAP4 POP DUP5 SWAP3 SWAP1 SWAP2 SWAP1 PUSH2 0xA78 SWAP1 DUP5 SWAP1 PUSH2 0x11A7 JUMP JUMPDEST SWAP1 SWAP2 SSTORE POP POP CALLER PUSH1 0x0 SWAP1 DUP2 MSTORE PUSH1 0x1 PUSH1 0x20 MSTORE PUSH1 0x40 DUP2 KECCAK256 DUP1 SLOAD DUP5 SWAP3 SWAP1 PUSH2 0xA9C SWAP1 DUP5 SWAP1 PUSH2 0x11A7 JUMP JUMPDEST SWAP1 SWAP2 SSTORE POP POP PUSH1 0x40 MLOAD DUP3 DUP2 MSTORE CALLER SWAP1 PUSH32 0xE1954443838EF603B0D4C78380E8CE8FA0CBD3126AAFB585E9072CF90185FA58 SWAP1 PUSH1 0x20 ADD PUSH1 0x40 MLOAD DUP1 SWAP2 SUB SWAP1 LOG2 POP POP JUMP JUMPDEST CALLER PUSH1 0x0 SWAP1 DUP2 MSTORE PUSH1 0x20 DUP2 SWAP1 MSTORE PUSH1 0x40 DUP2 KECCAK256 SLOAD DUP2 SWAP1 PUSH2 0xAF6 SWAP1 TIMESTAMP PUSH2 0x115B JUMP JUMPDEST CALLER PUSH1 0x0 SWAP1 DUP2 MSTORE PUSH1 0x3 PUSH1 0x20 MSTORE PUSH1 0x40 DUP2 KECCAK256 SLOAD SWAP2 SWAP3 POP SWAP1 PUSH2 0xB14 SWAP1 TIMESTAMP PUSH2 0x115B JUMP JUMPDEST SWAP1 POP PUSH1 0x7 DUP3 LT DUP1 PUSH2 0xB25 JUMPI POP PUSH1 0x5A DUP2 LT JUMPDEST ISZERO PUSH2 0xB34 JUMPI POP PUSH1 0x0 SWAP4 SWAP3 POP POP POP JUMP JUMPDEST PUSH1 0x0 PUSH2 0xB4F PUSH2 0xB44 PUSH1 0x7 DUP6 PUSH2 0x116E JUMP JUMPDEST PUSH2 0x61C PUSH1 0x5A DUP6 PUSH2 0x116E JUMP JUMPDEST PUSH1 0x9 SLOAD PUSH1 0x1 PUSH1 0x1 PUSH1 0xA0 SHL SUB DUP8 AND PUSH1 0x0 SWAP1 DUP2 MSTORE PUSH1 0x1 PUSH1 0x20 MSTORE PUSH1 0x40 DUP2 KECCAK256 SLOAD SWAP3 SWAP4 POP SWAP2 PUSH2 0x16D PUSH1 0x12 DUP5 PUSH2 0xB7D PUSH2 0x1056 JUMP JUMPDEST DUP2 MSTORE PUSH1 0x20 ADD SWAP1 DUP2 MSTORE PUSH1 0x20 ADD PUSH1 0x0 KECCAK256 SLOAD PUSH2 0xB96 SWAP2 SWAP1 PUSH2 0x116E JUMP JUMPDEST PUSH2 0xBA0 SWAP2 SWAP1 PUSH2 0x1190 JUMP JUMPDEST PUSH2 0xBAA SWAP2 SWAP1 PUSH2 0x116E JUMP JUMPDEST SWAP1 POP PUSH1 0x0 PUSH2 0xBB8 DUP4 DUP4 PUSH2 0x1190 JUMP JUMPDEST SWAP8 SWAP7 POP POP POP POP POP POP POP JUMP JUMPDEST PUSH1 0x7 SLOAD PUSH1 0x1 PUSH1 0x1 PUSH1 0xA0 SHL SUB AND CALLER EQ PUSH2 0xC0B JUMPI PUSH1 0x40 MLOAD PUSH3 0x461BCD PUSH1 0xE5 SHL DUP2 MSTORE PUSH1 0x20 PUSH1 0x4 DUP3 ADD MSTORE PUSH1 0xB PUSH1 0x24 DUP3 ADD MSTORE PUSH11 0x1B9BDD08105B1B1BDDD959 PUSH1 0xAA SHL PUSH1 0x44 DUP3 ADD MSTORE PUSH1 0x64 ADD PUSH2 0x476 JUMP JUMPDEST PUSH1 0x7 SLOAD PUSH1 0x40 MLOAD PUSH4 0xA9059CBB PUSH1 0xE0 SHL DUP2 MSTORE PUSH1 0x1 PUSH1 0x1 PUSH1 0xA0 SHL SUB SWAP2 DUP3 AND PUSH1 0x4 DUP3 ADD MSTORE PUSH1 0x24 DUP2 ADD DUP4 SWAP1 MSTORE SWAP1 DUP4 AND SWAP1 PUSH4 0xA9059CBB SWAP1 PUSH1 0x44 ADD PUSH1 0x20 PUSH1 0x40 MLOAD DUP1 DUP4 SUB DUP2 PUSH1 0x0 DUP8 GAS CALL ISZERO DUP1 ISZERO PUSH2 0xC5E JUMPI RETURNDATASIZE PUSH1 0x0 DUP1 RETURNDATACOPY RETURNDATASIZE PUSH1 0x0 REVERT JUMPDEST POP POP POP POP PUSH1 0x40 MLOAD RETURNDATASIZE PUSH1 0x1F NOT PUSH1 0x1F DUP3 ADD AND DUP3 ADD DUP1 PUSH1 0x40 MSTORE POP DUP2 ADD SWAP1 PUSH2 0xC82 SWAP2 SWAP1 PUSH2 0x11BA JUMP JUMPDEST POP POP POP JUMP JUMPDEST PUSH1 0x7 SLOAD PUSH1 0x1 PUSH1 0x1 PUSH1 0xA0 SHL SUB AND CALLER EQ PUSH2 0xCCF JUMPI PUSH1 0x40 MLOAD PUSH3 0x461BCD PUSH1 0xE5 SHL DUP2 MSTORE PUSH1 0x20 PUSH1 0x4 DUP3 ADD MSTORE PUSH1 0xB PUSH1 0x24 DUP3 ADD MSTORE PUSH11 0x1B9BDD08105B1B1BDDD959 PUSH1 0xAA SHL PUSH1 0x44 DUP3 ADD MSTORE PUSH1 0x64 ADD PUSH2 0x476 JUMP JUMPDEST PUSH1 0x5 DUP1 SLOAD PUSH1 0x1 PUSH1 0x1 PUSH1 0xA0 SHL SUB NOT AND PUSH1 0x1 PUSH1 0x1 PUSH1 0xA0 SHL SUB SWAP3 SWAP1 SWAP3 AND SWAP2 SWAP1 SWAP2 OR SWAP1 SSTORE JUMP JUMPDEST PUSH1 0x6 SLOAD PUSH1 0x40 MLOAD PUSH4 0x70A08231 PUSH1 0xE0 SHL DUP2 MSTORE CALLER PUSH1 0x4 DUP3 ADD MSTORE PUSH1 0x0 SWAP2 PUSH1 0x1 PUSH1 0x1 PUSH1 0xA0 SHL SUB AND SWAP1 PUSH4 0x70A08231 SWAP1 PUSH1 0x24 ADD PUSH1 0x20 PUSH1 0x40 MLOAD DUP1 DUP4 SUB DUP2 DUP7 GAS STATICCALL ISZERO DUP1 ISZERO PUSH2 0xD3A JUMPI RETURNDATASIZE PUSH1 0x0 DUP1 RETURNDATACOPY RETURNDATASIZE PUSH1 0x0 REVERT JUMPDEST POP POP POP POP PUSH1 0x40 MLOAD RETURNDATASIZE PUSH1 0x1F NOT PUSH1 0x1F DUP3 ADD AND DUP3 ADD DUP1 PUSH1 0x40 MSTORE POP DUP2 ADD SWAP1 PUSH2 0xD5E SWAP2 SWAP1 PUSH2 0x11E3 JUMP JUMPDEST GT PUSH2 0xD9B JUMPI PUSH1 0x40 MLOAD PUSH3 0x461BCD PUSH1 0xE5 SHL DUP2 MSTORE PUSH1 0x20 PUSH1 0x4 DUP3 ADD MSTORE PUSH1 0xD PUSH1 0x24 DUP3 ADD MSTORE PUSH13 0x5A65726F20486F6C64696E6773 PUSH1 0x98 SHL PUSH1 0x44 DUP3 ADD MSTORE PUSH1 0x64 ADD PUSH2 0x476 JUMP JUMPDEST CALLER PUSH1 0x0 SWAP1 DUP2 MSTORE PUSH1 0x4 PUSH1 0x20 MSTORE PUSH1 0x40 SWAP1 KECCAK256 SLOAD PUSH1 0xFF AND ISZERO PUSH2 0xE0A JUMPI PUSH1 0x40 MLOAD PUSH3 0x461BCD PUSH1 0xE5 SHL DUP2 MSTORE PUSH1 0x20 PUSH1 0x4 DUP3 ADD MSTORE PUSH1 0x26 PUSH1 0x24 DUP3 ADD MSTORE PUSH32 0x596F75206861766520616C7265616479206170706C69656420666F7220726564 PUSH1 0x44 DUP3 ADD MSTORE PUSH6 0x3AB1BA34B7B7 PUSH1 0xD1 SHL PUSH1 0x64 DUP3 ADD MSTORE PUSH1 0x84 ADD PUSH2 0x476 JUMP JUMPDEST PUSH1 0xA DUP1 SLOAD SWAP1 PUSH1 0x0 PUSH2 0xE1A DUP4 PUSH2 0x11FC JUMP JUMPDEST SWAP1 SWAP2 SSTORE POP POP CALLER PUSH1 0x0 SWAP1 DUP2 MSTORE PUSH1 0x4 PUSH1 0x20 MSTORE PUSH1 0x40 SWAP1 KECCAK256 DUP1 SLOAD PUSH1 0xFF NOT AND PUSH1 0x1 OR SWAP1 SSTORE JUMP JUMPDEST CALLER PUSH1 0x0 SWAP1 DUP2 MSTORE PUSH1 0x3 PUSH1 0x20 MSTORE PUSH1 0x40 SWAP1 KECCAK256 SLOAD PUSH2 0xE57 SWAP1 PUSH1 0x5A SWAP1 PUSH2 0x11A7 JUMP JUMPDEST TIMESTAMP LT ISZERO PUSH2 0xEA6 JUMPI PUSH1 0x40 MLOAD PUSH3 0x461BCD PUSH1 0xE5 SHL DUP2 MSTORE PUSH1 0x20 PUSH1 0x4 DUP3 ADD MSTORE PUSH1 0x1C PUSH1 0x24 DUP3 ADD MSTORE PUSH32 0x43616E6E6F7420756E6C6F636B206265666F7265203930206461797300000000 PUSH1 0x44 DUP3 ADD MSTORE PUSH1 0x64 ADD PUSH2 0x476 JUMP JUMPDEST CALLER PUSH1 0x0 SWAP1 DUP2 MSTORE PUSH1 0x13 PUSH1 0x20 MSTORE PUSH1 0x40 SWAP1 KECCAK256 SLOAD DUP1 PUSH2 0xEF6 JUMPI PUSH1 0x40 MLOAD PUSH3 0x461BCD PUSH1 0xE5 SHL DUP2 MSTORE PUSH1 0x20 PUSH1 0x4 DUP3 ADD MSTORE PUSH1 0x10 PUSH1 0x24 DUP3 ADD MSTORE PUSH16 0x4E6F206C6F636B656420746F6B656E73 PUSH1 0x80 SHL PUSH1 0x44 DUP3 ADD MSTORE PUSH1 0x64 ADD PUSH2 0x476 JUMP JUMPDEST PUSH1 0x5 SLOAD PUSH1 0x40 MLOAD PUSH4 0xA9059CBB PUSH1 0xE0 SHL DUP2 MSTORE CALLER PUSH1 0x4 DUP3 ADD MSTORE PUSH1 0x24 DUP2 ADD DUP4 SWAP1 MSTORE PUSH1 0x1 PUSH1 0x1 PUSH1 0xA0 SHL SUB SWAP1 SWAP2 AND SWAP1 PUSH4 0xA9059CBB SWAP1 PUSH1 0x44 ADD PUSH1 0x20 PUSH1 0x40 MLOAD DUP1 DUP4 SUB DUP2 PUSH1 0x0 DUP8 GAS CALL ISZERO DUP1 ISZERO PUSH2 0xF47 JUMPI RETURNDATASIZE PUSH1 0x0 DUP1 RETURNDATACOPY RETURNDATASIZE PUSH1 0x0 REVERT JUMPDEST POP POP POP POP PUSH1 0x40 MLOAD RETURNDATASIZE PUSH1 0x1F NOT PUSH1 0x1F DUP3 ADD AND DUP3 ADD DUP1 PUSH1 0x40 MSTORE POP DUP2 ADD SWAP1 PUSH2 0xF6B SWAP2 SWAP1 PUSH2 0x11BA JUMP JUMPDEST PUSH2 0xFB2 JUMPI PUSH1 0x40 MLOAD PUSH3 0x461BCD PUSH1 0xE5 SHL DUP2 MSTORE PUSH1 0x20 PUSH1 0x4 DUP3 ADD MSTORE PUSH1 0x18 PUSH1 0x24 DUP3 ADD MSTORE PUSH24 0x1314081D1BDAD95B881D1C985B9CD9995C8819985A5B1959 PUSH1 0x42 SHL PUSH1 0x44 DUP3 ADD MSTORE PUSH1 0x64 ADD PUSH2 0x476 JUMP JUMPDEST DUP1 PUSH1 0x9 PUSH1 0x0 DUP3 DUP3 SLOAD PUSH2 0xFC4 SWAP2 SWAP1 PUSH2 0x115B JUMP JUMPDEST SWAP1 SWAP2 SSTORE POP POP CALLER PUSH1 0x0 SWAP1 DUP2 MSTORE PUSH1 0x1 PUSH1 0x20 MSTORE PUSH1 0x40 DUP2 KECCAK256 DUP1 SLOAD DUP4 SWAP3 SWAP1 PUSH2 0xFE8 SWAP1 DUP5 SWAP1 PUSH2 0x115B JUMP JUMPDEST SWAP1 SWAP2 SSTORE POP POP CALLER PUSH1 0x0 DUP2 DUP2 MSTORE PUSH1 0x13 PUSH1 0x20 MSTORE PUSH1 0x40 DUP1 DUP3 KECCAK256 DUP3 DUP2 SSTORE PUSH1 0x1 ADD SWAP2 SWAP1 SWAP2 SSTORE MLOAD PUSH32 0x580EC6003F06A23971F7CCDB029AE688764884D7361687066E352D1FF6024473 SWAP1 PUSH2 0x1037 SWAP1 DUP5 DUP2 MSTORE PUSH1 0x20 ADD SWAP1 JUMP JUMPDEST PUSH1 0x40 MLOAD DUP1 SWAP2 SUB SWAP1 LOG2 POP JUMP JUMPDEST PUSH1 0x0 PUSH2 0x1051 PUSH3 0x278D00 TIMESTAMP PUSH2 0x116E JUMP JUMPDEST SWAP1 POP SWAP1 JUMP JUMPDEST PUSH1 0x0 PUSH2 0x1051 PUSH4 0x1E13380 TIMESTAMP PUSH2 0x116E JUMP JUMPDEST PUSH1 0x0 DUP2 DUP4 LT PUSH2 0x1075 JUMPI DUP2 PUSH2 0x1077 JUMP JUMPDEST DUP3 JUMPDEST SWAP1 POP JUMPDEST SWAP3 SWAP2 POP POP JUMP JUMPDEST PUSH1 0x0 PUSH1 0x1 PUSH1 0xA SLOAD LT PUSH2 0x1096 JUMPI PUSH1 0x32 PUSH1 0xB SSTORE PUSH2 0x10C4 JUMP JUMPDEST PUSH1 0x2 PUSH1 0xA SLOAD LT PUSH2 0x10AA JUMPI PUSH1 0x19 PUSH1 0xB SSTORE PUSH2 0x10C4 JUMP JUMPDEST PUSH1 0x3 PUSH1 0xA SLOAD LT PUSH2 0x10BE JUMPI PUSH1 0xC PUSH1 0xB SSTORE PUSH2 0x10C4 JUMP JUMPDEST PUSH1 0x64 PUSH1 0xB SSTORE JUMPDEST POP PUSH1 0xB SLOAD SWAP1 JUMP JUMPDEST DUP1 CALLDATALOAD PUSH1 0x1 PUSH1 0x1 PUSH1 0xA0 SHL SUB DUP2 AND DUP2 EQ PUSH2 0x10E2 JUMPI PUSH1 0x0 DUP1 REVERT JUMPDEST SWAP2 SWAP1 POP JUMP JUMPDEST PUSH1 0x0 PUSH1 0x20 DUP3 DUP5 SUB SLT ISZERO PUSH2 0x10F9 JUMPI PUSH1 0x0 DUP1 REVERT JUMPDEST PUSH2 0x1077 DUP3 PUSH2 0x10CB JUMP JUMPDEST PUSH1 0x0 PUSH1 0x20 DUP3 DUP5 SUB SLT ISZERO PUSH2 0x1114 JUMPI PUSH1 0x0 DUP1 REVERT JUMPDEST POP CALLDATALOAD SWAP2 SWAP1 POP JUMP JUMPDEST PUSH1 0x0 DUP1 PUSH1 0x40 DUP4 DUP6 SUB SLT ISZERO PUSH2 0x112E JUMPI PUSH1 0x0 DUP1 REVERT JUMPDEST PUSH2 0x1137 DUP4 PUSH2 0x10CB JUMP JUMPDEST SWAP5 PUSH1 0x20 SWAP4 SWAP1 SWAP4 ADD CALLDATALOAD SWAP4 POP POP POP JUMP JUMPDEST PUSH4 0x4E487B71 PUSH1 0xE0 SHL PUSH1 0x0 MSTORE PUSH1 0x11 PUSH1 0x4 MSTORE PUSH1 0x24 PUSH1 0x0 REVERT JUMPDEST DUP2 DUP2 SUB DUP2 DUP2 GT ISZERO PUSH2 0x107A JUMPI PUSH2 0x107A PUSH2 0x1145 JUMP JUMPDEST PUSH1 0x0 DUP3 PUSH2 0x118B JUMPI PUSH4 0x4E487B71 PUSH1 0xE0 SHL PUSH1 0x0 MSTORE PUSH1 0x12 PUSH1 0x4 MSTORE PUSH1 0x24 PUSH1 0x0 REVERT JUMPDEST POP DIV SWAP1 JUMP JUMPDEST DUP1 DUP3 MUL DUP2 ISZERO DUP3 DUP3 DIV DUP5 EQ OR PUSH2 0x107A JUMPI PUSH2 0x107A PUSH2 0x1145 JUMP JUMPDEST DUP1 DUP3 ADD DUP1 DUP3 GT ISZERO PUSH2 0x107A JUMPI PUSH2 0x107A PUSH2 0x1145 JUMP JUMPDEST PUSH1 0x0 PUSH1 0x20 DUP3 DUP5 SUB SLT ISZERO PUSH2 0x11CC JUMPI PUSH1 0x0 DUP1 REVERT JUMPDEST DUP2 MLOAD DUP1 ISZERO ISZERO DUP2 EQ PUSH2 0x11DC JUMPI PUSH1 0x0 DUP1 REVERT JUMPDEST SWAP4 SWAP3 POP POP POP JUMP JUMPDEST PUSH1 0x0 PUSH1 0x20 DUP3 DUP5 SUB SLT ISZERO PUSH2 0x11F5 JUMPI PUSH1 0x0 DUP1 REVERT JUMPDEST POP MLOAD SWAP2 SWAP1 POP JUMP JUMPDEST PUSH1 0x0 PUSH1 0x1 DUP3 ADD PUSH2 0x120E JUMPI PUSH2 0x120E PUSH2 0x1145 JUMP JUMPDEST POP PUSH1 0x1 ADD SWAP1 JUMP INVALID LOG2 PUSH5 0x6970667358 0x22 SLT KECCAK256 BLOBBASEFEE AND MSIZE 0xF8 SAR 0x21 PUSH23 0xE117D90B240AF8EFAC8B9D431ED264D2EF24D3E94F3AF3 CREATE2 GAS PUSH5 0x736F6C6343 STOP ADDMOD NOT STOP CALLER "
		},
		"gasEstimates": {
			"creation": {
				"codeDepositCost": "936600",
				"executionCost": "infinite",
				"totalCost": "infinite"
			},
			"external": {
				"MINIMUM_CLAIM_INTERVAL()": "307",
				"NINETY_DAYS()": "239",
				"accumulatedRewards(address)": "1290",
				"alreadyVoted(address)": "1248",
				"annualRewards(uint256)": "1228",
				"applicants()": "1105",
				"currentDay()": "1129",
				"currentMonth()": "1106",
				"dailyLimit()": "1041",
				"getCurrentMonth()": "360",
				"getUnclaimedRewards(address)": "infinite",
				"harvestRewards()": "infinite",
				"lastClaimTime(address)": "1337",
				"lockInfo(address)": "2152",
				"lockLP(uint256)": "infinite",
				"lpTokenAddress()": "1103",
				"marketingWallet()": "1126",
				"monthlyRewardLimit()": "1041",
				"reduceCommission()": "infinite",
				"rewardToken()": "1125",
				"rewardsDistributedToday()": "1084",
				"setUniswapPool(address)": "22083",
				"stakedTokens(address)": "1268",
				"stakingStartTime(address)": "1290",
				"totalDistributedRewards()": "1062",
				"unlockLP()": "infinite",
				"withdrawExcess(address,uint256)": "infinite"
			},
			"internal": {
				"marketingFee()": "23306",
				"min(uint256,uint256)": "65",
				"yearNow()": "79"
			}
		},
		"methodIdentifiers": {
			"MINIMUM_CLAIM_INTERVAL()": "50f0a325",
			"NINETY_DAYS()": "e372c900",
			"accumulatedRewards(address)": "73f273fc",
			"alreadyVoted(address)": "06d2ad40",
			"annualRewards(uint256)": "443df8f5",
			"applicants()": "fdf5963a",
			"currentDay()": "5c9302c9",
			"currentMonth()": "862a4d47",
			"dailyLimit()": "67eeba0c",
			"getCurrentMonth()": "ddd1b67e",
			"getUnclaimedRewards(address)": "69a69e29",
			"harvestRewards()": "2be11ae2",
			"lastClaimTime(address)": "b77cf9c6",
			"lockInfo(address)": "6bd3b87c",
			"lockLP(uint256)": "40519a53",
			"lpTokenAddress()": "f5ae497a",
			"marketingWallet()": "75f0a874",
			"monthlyRewardLimit()": "8aca35a0",
			"reduceCommission()": "92f851c1",
			"rewardToken()": "f7c618c1",
			"rewardsDistributedToday()": "b5a556d2",
			"setUniswapPool(address)": "8f90e902",
			"stakedTokens(address)": "a5b39cfb",
			"stakingStartTime(address)": "d1232730",
			"totalDistributedRewards()": "a87df832",
			"unlockLP()": "b91f3f97",
			"withdrawExcess(address,uint256)": "6e90013d"
		}
	},
	"abi": [
		{
			"inputs": [
				{
					"internalType": "address",
					"name": "_uniswapPool",
					"type": "address"
				},
				{
					"internalType": "address",
					"name": "_rewardToken",
					"type": "address"
				}
			],
			"stateMutability": "nonpayable",
			"type": "constructor"
		},
		{
			"anonymous": false,
			"inputs": [
				{
					"indexed": true,
					"internalType": "address",
					"name": "user",
					"type": "address"
				},
				{
					"indexed": false,
					"internalType": "uint256",
					"name": "amount",
					"type": "uint256"
				}
			],
			"name": "LockedLP",
			"type": "event"
		},
		{
			"anonymous": false,
			"inputs": [
				{
					"indexed": true,
					"internalType": "address",
					"name": "user",
					"type": "address"
				},
				{
					"indexed": false,
					"internalType": "uint256",
					"name": "amount",
					"type": "uint256"
				}
			],
			"name": "RewardHarvested",
			"type": "event"
		},
		{
			"anonymous": false,
			"inputs": [
				{
					"indexed": true,
					"internalType": "address",
					"name": "user",
					"type": "address"
				},
				{
					"indexed": false,
					"internalType": "uint256",
					"name": "amount",
					"type": "uint256"
				}
			],
			"name": "UnlockedLP",
			"type": "event"
		},
		{
			"inputs": [],
			"name": "MINIMUM_CLAIM_INTERVAL",
			"outputs": [
				{
					"internalType": "uint256",
					"name": "",
					"type": "uint256"
				}
			],
			"stateMutability": "view",
			"type": "function"
		},
		{
			"inputs": [],
			"name": "NINETY_DAYS",
			"outputs": [
				{
					"internalType": "uint256",
					"name": "",
					"type": "uint256"
				}
			],
			"stateMutability": "view",
			"type": "function"
		},
		{
			"inputs": [
				{
					"internalType": "address",
					"name": "",
					"type": "address"
				}
			],
			"name": "accumulatedRewards",
			"outputs": [
				{
					"internalType": "uint256",
					"name": "",
					"type": "uint256"
				}
			],
			"stateMutability": "view",
			"type": "function"
		},
		{
			"inputs": [
				{
					"internalType": "address",
					"name": "",
					"type": "address"
				}
			],
			"name": "alreadyVoted",
			"outputs": [
				{
					"internalType": "bool",
					"name": "",
					"type": "bool"
				}
			],
			"stateMutability": "view",
			"type": "function"
		},
		{
			"inputs": [
				{
					"internalType": "uint256",
					"name": "",
					"type": "uint256"
				}
			],
			"name": "annualRewards",
			"outputs": [
				{
					"internalType": "uint256",
					"name": "",
					"type": "uint256"
				}
			],
			"stateMutability": "view",
			"type": "function"
		},
		{
			"inputs": [],
			"name": "applicants",
			"outputs": [
				{
					"internalType": "uint256",
					"name": "",
					"type": "uint256"
				}
			],
			"stateMutability": "view",
			"type": "function"
		},
		{
			"inputs": [],
			"name": "currentDay",
			"outputs": [
				{
					"internalType": "uint256",
					"name": "",
					"type": "uint256"
				}
			],
			"stateMutability": "view",
			"type": "function"
		},
		{
			"inputs": [],
			"name": "currentMonth",
			"outputs": [
				{
					"internalType": "uint256",
					"name": "",
					"type": "uint256"
				}
			],
			"stateMutability": "view",
			"type": "function"
		},
		{
			"inputs": [],
			"name": "dailyLimit",
			"outputs": [
				{
					"internalType": "uint256",
					"name": "",
					"type": "uint256"
				}
			],
			"stateMutability": "view",
			"type": "function"
		},
		{
			"inputs": [],
			"name": "getCurrentMonth",
			"outputs": [
				{
					"internalType": "uint256",
					"name": "",
					"type": "uint256"
				}
			],
			"stateMutability": "view",
			"type": "function"
		},
		{
			"inputs": [
				{
					"internalType": "address",
					"name": "user",
					"type": "address"
				}
			],
			"name": "getUnclaimedRewards",
			"outputs": [
				{
					"internalType": "uint256",
					"name": "",
					"type": "uint256"
				}
			],
			"stateMutability": "view",
			"type": "function"
		},
		{
			"inputs": [],
			"name": "harvestRewards",
			"outputs": [],
			"stateMutability": "nonpayable",
			"type": "function"
		},
		{
			"inputs": [
				{
					"internalType": "address",
					"name": "",
					"type": "address"
				}
			],
			"name": "lastClaimTime",
			"outputs": [
				{
					"internalType": "uint256",
					"name": "",
					"type": "uint256"
				}
			],
			"stateMutability": "view",
			"type": "function"
		},
		{
			"inputs": [
				{
					"internalType": "address",
					"name": "",
					"type": "address"
				}
			],
			"name": "lockInfo",
			"outputs": [
				{
					"internalType": "uint256",
					"name": "amount",
					"type": "uint256"
				},
				{
					"internalType": "uint256",
					"name": "lockTime",
					"type": "uint256"
				}
			],
			"stateMutability": "view",
			"type": "function"
		},
		{
			"inputs": [
				{
					"internalType": "uint256",
					"name": "amount",
					"type": "uint256"
				}
			],
			"name": "lockLP",
			"outputs": [],
			"stateMutability": "nonpayable",
			"type": "function"
		},
		{
			"inputs": [],
			"name": "lpTokenAddress",
			"outputs": [
				{
					"internalType": "address",
					"name": "",
					"type": "address"
				}
			],
			"stateMutability": "view",
			"type": "function"
		},
		{
			"inputs": [],
			"name": "marketingWallet",
			"outputs": [
				{
					"internalType": "address",
					"name": "",
					"type": "address"
				}
			],
			"stateMutability": "view",
			"type": "function"
		},
		{
			"inputs": [],
			"name": "monthlyRewardLimit",
			"outputs": [
				{
					"internalType": "uint256",
					"name": "",
					"type": "uint256"
				}
			],
			"stateMutability": "view",
			"type": "function"
		},
		{
			"inputs": [],
			"name": "reduceCommission",
			"outputs": [],
			"stateMutability": "nonpayable",
			"type": "function"
		},
		{
			"inputs": [],
			"name": "rewardToken",
			"outputs": [
				{
					"internalType": "contract IERC20",
					"name": "",
					"type": "address"
				}
			],
			"stateMutability": "view",
			"type": "function"
		},
		{
			"inputs": [],
			"name": "rewardsDistributedToday",
			"outputs": [
				{
					"internalType": "uint256",
					"name": "",
					"type": "uint256"
				}
			],
			"stateMutability": "view",
			"type": "function"
		},
		{
			"inputs": [
				{
					"internalType": "address",
					"name": "_uniswapPool",
					"type": "address"
				}
			],
			"name": "setUniswapPool",
			"outputs": [],
			"stateMutability": "nonpayable",
			"type": "function"
		},
		{
			"inputs": [
				{
					"internalType": "address",
					"name": "",
					"type": "address"
				}
			],
			"name": "stakedTokens",
			"outputs": [
				{
					"internalType": "uint256",
					"name": "",
					"type": "uint256"
				}
			],
			"stateMutability": "view",
			"type": "function"
		},
		{
			"inputs": [
				{
					"internalType": "address",
					"name": "",
					"type": "address"
				}
			],
			"name": "stakingStartTime",
			"outputs": [
				{
					"internalType": "uint256",
					"name": "",
					"type": "uint256"
				}
			],
			"stateMutability": "view",
			"type": "function"
		},
		{
			"inputs": [],
			"name": "totalDistributedRewards",
			"outputs": [
				{
					"internalType": "uint256",
					"name": "",
					"type": "uint256"
				}
			],
			"stateMutability": "view",
			"type": "function"
		},
		{
			"inputs": [],
			"name": "unlockLP",
			"outputs": [],
			"stateMutability": "nonpayable",
			"type": "function"
		},
		{
			"inputs": [
				{
					"internalType": "address",
					"name": "token",
					"type": "address"
				},
				{
					"internalType": "uint256",
					"name": "amount",
					"type": "uint256"
				}
			],
			"name": "withdrawExcess",
			"outputs": [],
			"stateMutability": "nonpayable",
			"type": "function"
		}
	]
}