{
	"contracts/Staking.sol": {
		"StakingContract": {
			"abi": [
				{
					"inputs": [
						{
							"internalType": "address",
							"name": "_token",
							"type": "address"
						}
					],
					"stateMutability": "nonpayable",
					"type": "constructor"
				},
				{
					"anonymous": false,
					"inputs": [
						{
							"indexed": true,
							"internalType": "address",
							"name": "staker",
							"type": "address"
						},
						{
							"indexed": false,
							"internalType": "uint256",
							"name": "amount",
							"type": "uint256"
						},
						{
							"indexed": false,
							"internalType": "uint256",
							"name": "claimTime",
							"type": "uint256"
						}
					],
					"name": "RewardClaimed",
					"type": "event"
				},
				{
					"anonymous": false,
					"inputs": [
						{
							"indexed": false,
							"internalType": "uint256[]",
							"name": "newRates",
							"type": "uint256[]"
						}
					],
					"name": "RewardRatesChanged",
					"type": "event"
				},
				{
					"anonymous": false,
					"inputs": [
						{
							"indexed": true,
							"internalType": "address",
							"name": "staker",
							"type": "address"
						},
						{
							"indexed": false,
							"internalType": "uint256",
							"name": "amount",
							"type": "uint256"
						},
						{
							"indexed": false,
							"internalType": "uint256",
							"name": "startTime",
							"type": "uint256"
						},
						{
							"indexed": false,
							"internalType": "uint256",
							"name": "durationIndex",
							"type": "uint256"
						}
					],
					"name": "Staked",
					"type": "event"
				},
				{
					"anonymous": false,
					"inputs": [
						{
							"indexed": true,
							"internalType": "address",
							"name": "staker",
							"type": "address"
						},
						{
							"indexed": false,
							"internalType": "uint256",
							"name": "amount",
							"type": "uint256"
						},
						{
							"indexed": false,
							"internalType": "uint256",
							"name": "endTime",
							"type": "uint256"
						},
						{
							"indexed": false,
							"internalType": "uint256",
							"name": "reward",
							"type": "uint256"
						}
					],
					"name": "Unstaked",
					"type": "event"
				},
				{
					"anonymous": false,
					"inputs": [
						{
							"indexed": true,
							"internalType": "address",
							"name": "staker",
							"type": "address"
						},
						{
							"indexed": false,
							"internalType": "uint256",
							"name": "amount",
							"type": "uint256"
						},
						{
							"indexed": false,
							"internalType": "uint256",
							"name": "endTime",
							"type": "uint256"
						}
					],
					"name": "instantUnstaked",
					"type": "event"
				},
				{
					"inputs": [
						{
							"internalType": "uint256[]",
							"name": "_newRates",
							"type": "uint256[]"
						}
					],
					"name": "changeRewardRates",
					"outputs": [],
					"stateMutability": "nonpayable",
					"type": "function"
				},
				{
					"inputs": [],
					"name": "claimReward",
					"outputs": [],
					"stateMutability": "nonpayable",
					"type": "function"
				},
				{
					"inputs": [
						{
							"internalType": "address",
							"name": "_staker",
							"type": "address"
						}
					],
					"name": "getLastStakedClaimedTime",
					"outputs": [
						{
							"internalType": "uint256",
							"name": "time",
							"type": "uint256"
						}
					],
					"stateMutability": "view",
					"type": "function"
				},
				{
					"inputs": [
						{
							"internalType": "address",
							"name": "_staker",
							"type": "address"
						}
					],
					"name": "getLastStakedStartTime",
					"outputs": [
						{
							"internalType": "uint256",
							"name": "time",
							"type": "uint256"
						}
					],
					"stateMutability": "view",
					"type": "function"
				},
				{
					"inputs": [
						{
							"internalType": "address",
							"name": "_staker",
							"type": "address"
						}
					],
					"name": "getPendingRewards",
					"outputs": [
						{
							"internalType": "uint256",
							"name": "",
							"type": "uint256"
						}
					],
					"stateMutability": "view",
					"type": "function"
				},
				{
					"inputs": [
						{
							"internalType": "address",
							"name": "_staker",
							"type": "address"
						}
					],
					"name": "getRemainingTime",
					"outputs": [
						{
							"internalType": "uint256",
							"name": "time",
							"type": "uint256"
						}
					],
					"stateMutability": "view",
					"type": "function"
				},
				{
					"inputs": [
						{
							"internalType": "address",
							"name": "_staker",
							"type": "address"
						}
					],
					"name": "getStakedAmount",
					"outputs": [
						{
							"internalType": "uint256",
							"name": "amount",
							"type": "uint256"
						}
					],
					"stateMutability": "view",
					"type": "function"
				},
				{
					"inputs": [],
					"name": "instantUnstake",
					"outputs": [],
					"stateMutability": "nonpayable",
					"type": "function"
				},
				{
					"inputs": [],
					"name": "isPaused",
					"outputs": [
						{
							"internalType": "bool",
							"name": "",
							"type": "bool"
						}
					],
					"stateMutability": "view",
					"type": "function"
				},
				{
					"inputs": [],
					"name": "owner",
					"outputs": [
						{
							"internalType": "address",
							"name": "",
							"type": "address"
						}
					],
					"stateMutability": "view",
					"type": "function"
				},
				{
					"inputs": [
						{
							"internalType": "bool",
							"name": "_isPaused",
							"type": "bool"
						}
					],
					"name": "pauseStaking",
					"outputs": [],
					"stateMutability": "nonpayable",
					"type": "function"
				},
				{
					"inputs": [],
					"name": "rewardBase",
					"outputs": [
						{
							"internalType": "uint256",
							"name": "",
							"type": "uint256"
						}
					],
					"stateMutability": "view",
					"type": "function"
				},
				{
					"inputs": [
						{
							"internalType": "uint256",
							"name": "",
							"type": "uint256"
						}
					],
					"name": "rewardRates",
					"outputs": [
						{
							"internalType": "uint256",
							"name": "",
							"type": "uint256"
						}
					],
					"stateMutability": "view",
					"type": "function"
				},
				{
					"inputs": [
						{
							"internalType": "uint256",
							"name": "_amount",
							"type": "uint256"
						},
						{
							"internalType": "uint256",
							"name": "_durationIndex",
							"type": "uint256"
						}
					],
					"name": "stake",
					"outputs": [],
					"stateMutability": "nonpayable",
					"type": "function"
				},
				{
					"inputs": [
						{
							"internalType": "uint256",
							"name": "",
							"type": "uint256"
						}
					],
					"name": "stakeDurations",
					"outputs": [
						{
							"internalType": "uint256",
							"name": "",
							"type": "uint256"
						}
					],
					"stateMutability": "view",
					"type": "function"
				},
				{
					"inputs": [],
					"name": "token",
					"outputs": [
						{
							"internalType": "contract IBEP20",
							"name": "",
							"type": "address"
						}
					],
					"stateMutability": "view",
					"type": "function"
				},
				{
					"inputs": [
						{
							"internalType": "contract IBEP20",
							"name": "VRL",
							"type": "address"
						}
					],
					"name": "transferStuckBEP20",
					"outputs": [],
					"stateMutability": "nonpayable",
					"type": "function"
				},
				{
					"inputs": [],
					"name": "transferStuckBNB",
					"outputs": [],
					"stateMutability": "nonpayable",
					"type": "function"
				},
				{
					"inputs": [],
					"name": "unstake",
					"outputs": [],
					"stateMutability": "nonpayable",
					"type": "function"
				}
			],
			"devdoc": {
				"kind": "dev",
				"methods": {},
				"version": 1
			},
			"evm": {
				"assembly": "    /* \"contracts/Staking.sol\":879:907  bool public isPaused = false */\n  0x01\n  dup1\n  sload\n  not(shl(0xa0, 0xff))\n  and\n  swap1\n  sstore\n    /* \"contracts/Staking.sol\":941:945  1000 */\n  0x03e8\n    /* \"contracts/Staking.sol\":913:945  uint256 public rewardBase = 1000 */\n  0x02\n  sstore\n    /* \"contracts/Staking.sol\":879:907  bool public isPaused = false */\n  0x0100\n    /* \"contracts/Staking.sol\":796:8583  contract StakingContract {... */\n  0x40\n    /* \"contracts/Staking.sol\":1053:1105  uint256[] public stakeDurations = [30, 90, 180, 365] */\n  mstore\n    /* \"contracts/Staking.sol\":1088:1090  30 */\n  0x1e\n    /* \"contracts/Staking.sol\":796:8583  contract StakingContract {... */\n  0x80\n    /* \"contracts/Staking.sol\":1053:1105  uint256[] public stakeDurations = [30, 90, 180, 365] */\n  swap1\n  dup2\n  mstore\n    /* \"contracts/Staking.sol\":1092:1094  90 */\n  0x5a\n    /* \"contracts/Staking.sol\":1053:1105  uint256[] public stakeDurations = [30, 90, 180, 365] */\n  0xa0\n  mstore\n    /* \"contracts/Staking.sol\":1096:1099  180 */\n  0xb4\n    /* \"contracts/Staking.sol\":1053:1105  uint256[] public stakeDurations = [30, 90, 180, 365] */\n  0xc0\n  mstore\n    /* \"contracts/Staking.sol\":1101:1104  365 */\n  0x016d\n    /* \"contracts/Staking.sol\":1053:1105  uint256[] public stakeDurations = [30, 90, 180, 365] */\n  0xe0\n  mstore\n  tag_1\n  swap1\n  0x03\n  swap1\n  0x04\n  tag_2\n  jump\t// in\ntag_1:\n  pop\n    /* \"contracts/Staking.sol\":1111:1159  uint256[] public rewardRates = [50, 66, 83, 125] */\n  0x40\n  dup1\n  mload\n  0x80\n  dup2\n  add\n  dup3\n  mstore\n    /* \"contracts/Staking.sol\":1143:1145  50 */\n  0x32\n    /* \"contracts/Staking.sol\":1111:1159  uint256[] public rewardRates = [50, 66, 83, 125] */\n  dup2\n  mstore\n    /* \"contracts/Staking.sol\":1147:1149  66 */\n  0x42\n    /* \"contracts/Staking.sol\":1111:1159  uint256[] public rewardRates = [50, 66, 83, 125] */\n  0x20\n  dup3\n  add\n  mstore\n    /* \"contracts/Staking.sol\":1151:1153  83 */\n  0x53\n    /* \"contracts/Staking.sol\":1111:1159  uint256[] public rewardRates = [50, 66, 83, 125] */\n  swap2\n  dup2\n  add\n  swap2\n  swap1\n  swap2\n  mstore\n    /* \"contracts/Staking.sol\":1155:1158  125 */\n  0x7d\n    /* \"contracts/Staking.sol\":1111:1159  uint256[] public rewardRates = [50, 66, 83, 125] */\n  0x60\n  dup3\n  add\n  mstore\n  tag_3\n  swap1\n  0x04\n  swap1\n  dup2\n  tag_4\n  jump\t// in\ntag_3:\n  pop\n    /* \"contracts/Staking.sol\":2107:2202  constructor(address _token) {... */\n  callvalue\n  dup1\n  iszero\n  tag_5\n  jumpi\n  0x00\n  dup1\n  revert\ntag_5:\n  pop\n  mload(0x40)\n  sub(codesize, bytecodeSize)\n  dup1\n  bytecodeSize\n  dup4\n  codecopy\n  dup2\n  add\n  0x40\n  dup2\n  swap1\n  mstore\n  tag_6\n  swap2\n  tag_7\n  jump\t// in\ntag_6:\n    /* \"contracts/Staking.sol\":2145:2150  owner */\n  0x00\n    /* \"contracts/Staking.sol\":2145:2163  owner = msg.sender */\n  dup1\n  sload\n    /* \"contracts/Staking.sol\":2153:2163  msg.sender */\n  caller\n  not(sub(shl(0xa0, 0x01), 0x01))\n    /* \"contracts/Staking.sol\":2145:2163  owner = msg.sender */\n  swap2\n  dup3\n  and\n  or\n  swap1\n  swap2\n  sstore\n  0x01\n    /* \"contracts/Staking.sol\":2173:2195  token = IBEP20(_token) */\n  dup1\n  sload\n  swap1\n  swap2\n  and\n  sub(shl(0xa0, 0x01), 0x01)\n  swap3\n  swap1\n  swap3\n  and\n  swap2\n  swap1\n  swap2\n  or\n  swap1\n  sstore\n    /* \"contracts/Staking.sol\":796:8583  contract StakingContract {... */\n  jump(tag_22)\ntag_2:\n  dup3\n  dup1\n  sload\n  dup3\n  dup3\n  sstore\n  swap1\n  0x00\n  mstore\n  keccak256(0x00, 0x20)\n  swap1\n  dup2\n  add\n  swap3\n  dup3\n  iszero\n  tag_13\n  jumpi\n  swap2\n  0x20\n  mul\n  dup3\n  add\ntag_12:\n  dup3\n  dup2\n  gt\n  iszero\n  tag_13\n  jumpi\n  dup3\n  mload\n  dup3\n  swap1\n  0xffff\n  and\n  swap1\n  sstore\n  swap2\n  0x20\n  add\n  swap2\n  swap1\n  0x01\n  add\n  swap1\n  jump(tag_12)\ntag_13:\n  pop\n  tag_14\n  swap3\n  swap2\n  pop\n  tag_15\n  jump\t// in\ntag_14:\n  pop\n  swap1\n  jump\t// out\ntag_4:\n  dup3\n  dup1\n  sload\n  dup3\n  dup3\n  sstore\n  swap1\n  0x00\n  mstore\n  keccak256(0x00, 0x20)\n  swap1\n  dup2\n  add\n  swap3\n  dup3\n  iszero\n  tag_13\n  jumpi\n  swap2\n  0x20\n  mul\n  dup3\n  add\ntag_17:\n  dup3\n  dup2\n  gt\n  iszero\n  tag_13\n  jumpi\n  dup3\n  mload\n  dup3\n  swap1\n  0xff\n  and\n  swap1\n  sstore\n  swap2\n  0x20\n  add\n  swap2\n  swap1\n  0x01\n  add\n  swap1\n  jump(tag_17)\ntag_15:\ntag_20:\n  dup1\n  dup3\n  gt\n  iszero\n  tag_14\n  jumpi\n  0x00\n  dup2\n  sstore\n  0x01\n  add\n  jump(tag_20)\n    /* \"#utility.yul\":14:304   */\ntag_7:\n    /* \"#utility.yul\":84:90   */\n  0x00\n    /* \"#utility.yul\":137:139   */\n  0x20\n    /* \"#utility.yul\":125:134   */\n  dup3\n    /* \"#utility.yul\":116:123   */\n  dup5\n    /* \"#utility.yul\":112:135   */\n  sub\n    /* \"#utility.yul\":108:140   */\n  slt\n    /* \"#utility.yul\":105:157   */\n  iszero\n  tag_24\n  jumpi\n    /* \"#utility.yul\":153:154   */\n  0x00\n    /* \"#utility.yul\":150:151   */\n  dup1\n    /* \"#utility.yul\":143:155   */\n  revert\n    /* \"#utility.yul\":105:157   */\ntag_24:\n    /* \"#utility.yul\":179:195   */\n  dup2\n  mload\n  sub(shl(0xa0, 0x01), 0x01)\n    /* \"#utility.yul\":224:255   */\n  dup2\n  and\n    /* \"#utility.yul\":214:256   */\n  dup2\n  eq\n    /* \"#utility.yul\":204:274   */\n  tag_25\n  jumpi\n    /* \"#utility.yul\":270:271   */\n  0x00\n    /* \"#utility.yul\":267:268   */\n  dup1\n    /* \"#utility.yul\":260:272   */\n  revert\n    /* \"#utility.yul\":204:274   */\ntag_25:\n    /* \"#utility.yul\":293:298   */\n  swap4\n    /* \"#utility.yul\":14:304   */\n  swap3\n  pop\n  pop\n  pop\n  jump\t// out\ntag_22:\n    /* \"contracts/Staking.sol\":796:8583  contract StakingContract {... */\n  dataSize(sub_0)\n  dup1\n  dataOffset(sub_0)\n  0x00\n  codecopy\n  0x00\n  return\nstop\n\nsub_0: assembly {\n        /* \"contracts/Staking.sol\":796:8583  contract StakingContract {... */\n      mstore(0x40, 0x80)\n      callvalue\n      dup1\n      iszero\n      tag_1\n      jumpi\n      0x00\n      dup1\n      revert\n    tag_1:\n      pop\n      jumpi(tag_2, lt(calldatasize, 0x04))\n      shr(0xe0, calldataload(0x00))\n      dup1\n      0x7b0472f0\n      gt\n      tag_22\n      jumpi\n      dup1\n      0xc55a7bce\n      gt\n      tag_23\n      jumpi\n      dup1\n      0xc55a7bce\n      eq\n      tag_17\n      jumpi\n      dup1\n      0xde3e3eff\n      eq\n      tag_18\n      jumpi\n      dup1\n      0xf2caeb1e\n      eq\n      tag_19\n      jumpi\n      dup1\n      0xf6ed2017\n      eq\n      tag_20\n      jumpi\n      dup1\n      0xfc0c546a\n      eq\n      tag_21\n      jumpi\n      0x00\n      dup1\n      revert\n    tag_23:\n      dup1\n      0x7b0472f0\n      eq\n      tag_12\n      jumpi\n      dup1\n      0x8da5cb5b\n      eq\n      tag_13\n      jumpi\n      dup1\n      0x9bcf5c24\n      eq\n      tag_14\n      jumpi\n      dup1\n      0xb187bd26\n      eq\n      tag_15\n      jumpi\n      dup1\n      0xb88a802f\n      eq\n      tag_16\n      jumpi\n      0x00\n      dup1\n      revert\n    tag_22:\n      dup1\n      0x4da6a556\n      gt\n      tag_24\n      jumpi\n      dup1\n      0x4da6a556\n      eq\n      tag_7\n      jumpi\n      dup1\n      0x562dead2\n      eq\n      tag_8\n      jumpi\n      dup1\n      0x5769848c\n      eq\n      tag_9\n      jumpi\n      dup1\n      0x5a288322\n      eq\n      tag_10\n      jumpi\n      dup1\n      0x63624436\n      eq\n      tag_11\n      jumpi\n      0x00\n      dup1\n      revert\n    tag_24:\n      dup1\n      0x0dfec300\n      eq\n      tag_3\n      jumpi\n      dup1\n      0x0e85117a\n      eq\n      tag_4\n      jumpi\n      dup1\n      0x2def6620\n      eq\n      tag_5\n      jumpi\n      dup1\n      0x4289e4cd\n      eq\n      tag_6\n      jumpi\n    tag_2:\n      0x00\n      dup1\n      revert\n        /* \"contracts/Staking.sol\":8338:8465  function transferStuckBEP20(IBEP20 VRL) external onlyOwner {... */\n    tag_3:\n      tag_25\n      tag_26\n      calldatasize\n      0x04\n      tag_27\n      jump\t// in\n    tag_26:\n      tag_28\n      jump\t// in\n    tag_25:\n      stop\n        /* \"contracts/Staking.sol\":7110:8048  function getRemainingTime(address _staker)... */\n    tag_4:\n      tag_29\n      tag_30\n      calldatasize\n      0x04\n      tag_27\n      jump\t// in\n    tag_30:\n      tag_32\n      jump\t// in\n    tag_29:\n      mload(0x40)\n        /* \"#utility.yul\":837:862   */\n      swap1\n      dup2\n      mstore\n        /* \"#utility.yul\":825:827   */\n      0x20\n        /* \"#utility.yul\":810:828   */\n      add\n        /* \"contracts/Staking.sol\":7110:8048  function getRemainingTime(address _staker)... */\n    tag_33:\n      mload(0x40)\n      dup1\n      swap2\n      sub\n      swap1\n      return\n        /* \"contracts/Staking.sol\":3901:4862  function unstake() external {... */\n    tag_5:\n      tag_25\n      tag_36\n      jump\t// in\n        /* \"contracts/Staking.sol\":8471:8581  function transferStuckBNB() external onlyOwner {... */\n    tag_6:\n      tag_25\n      tag_38\n      jump\t// in\n        /* \"contracts/Staking.sol\":6269:6536  function getStakedAmount(address _staker)... */\n    tag_7:\n      tag_29\n      tag_40\n      calldatasize\n      0x04\n      tag_27\n      jump\t// in\n    tag_40:\n      tag_41\n      jump\t// in\n        /* \"contracts/Staking.sol\":913:945  uint256 public rewardBase = 1000 */\n    tag_8:\n      tag_29\n      sload(0x02)\n      dup2\n      jump\n        /* \"contracts/Staking.sol\":3055:3149  function pauseStaking(bool _isPaused) external onlyOwner {... */\n    tag_9:\n      tag_25\n      tag_47\n      calldatasize\n      0x04\n      tag_48\n      jump\t// in\n    tag_47:\n      tag_49\n      jump\t// in\n        /* \"contracts/Staking.sol\":6542:6817  function getLastStakedStartTime(address _staker)... */\n    tag_10:\n      tag_29\n      tag_51\n      calldatasize\n      0x04\n      tag_27\n      jump\t// in\n    tag_51:\n      tag_52\n      jump\t// in\n        /* \"contracts/Staking.sol\":3155:3895  function instantUnstake() external {... */\n    tag_11:\n      tag_25\n      tag_55\n      jump\t// in\n        /* \"contracts/Staking.sol\":2208:3049  function stake(uint256 _amount, uint256 _durationIndex) external {... */\n    tag_12:\n      tag_25\n      tag_57\n      calldatasize\n      0x04\n      tag_58\n      jump\t// in\n    tag_57:\n      tag_59\n      jump\t// in\n        /* \"contracts/Staking.sol\":827:847  address public owner */\n    tag_13:\n      sload(0x00)\n      tag_60\n      swap1\n      sub(shl(0xa0, 0x01), 0x01)\n      and\n      dup2\n      jump\n    tag_60:\n      mload(0x40)\n      sub(shl(0xa0, 0x01), 0x01)\n        /* \"#utility.yul\":1659:1691   */\n      swap1\n      swap2\n      and\n        /* \"#utility.yul\":1641:1692   */\n      dup2\n      mstore\n        /* \"#utility.yul\":1629:1631   */\n      0x20\n        /* \"#utility.yul\":1614:1632   */\n      add\n        /* \"contracts/Staking.sol\":827:847  address public owner */\n      tag_33\n        /* \"#utility.yul\":1495:1698   */\n      jump\n        /* \"contracts/Staking.sol\":6823:7104  function getLastStakedClaimedTime(address _staker)... */\n    tag_14:\n      tag_29\n      tag_65\n      calldatasize\n      0x04\n      tag_27\n      jump\t// in\n    tag_65:\n      tag_66\n      jump\t// in\n        /* \"contracts/Staking.sol\":879:907  bool public isPaused = false */\n    tag_15:\n      sload(0x01)\n      tag_68\n      swap1\n      shl(0xa0, 0x01)\n      swap1\n      div\n      0xff\n      and\n      dup2\n      jump\n    tag_68:\n      mload(0x40)\n        /* \"#utility.yul\":1868:1882   */\n      swap1\n      iszero\n        /* \"#utility.yul\":1861:1883   */\n      iszero\n        /* \"#utility.yul\":1843:1884   */\n      dup2\n      mstore\n        /* \"#utility.yul\":1831:1833   */\n      0x20\n        /* \"#utility.yul\":1816:1834   */\n      add\n        /* \"contracts/Staking.sol\":879:907  bool public isPaused = false */\n      tag_33\n        /* \"#utility.yul\":1703:1890   */\n      jump\n        /* \"contracts/Staking.sol\":4868:5770  function claimReward() external {... */\n    tag_16:\n      tag_25\n      tag_73\n      jump\t// in\n        /* \"contracts/Staking.sol\":8054:8332  function changeRewardRates(uint256[] memory _newRates) external onlyOwner {... */\n    tag_17:\n      tag_25\n      tag_75\n      calldatasize\n      0x04\n      tag_76\n      jump\t// in\n    tag_75:\n      tag_77\n      jump\t// in\n        /* \"contracts/Staking.sol\":1053:1105  uint256[] public stakeDurations = [30, 90, 180, 365] */\n    tag_18:\n      tag_29\n      tag_79\n      calldatasize\n      0x04\n      tag_80\n      jump\t// in\n    tag_79:\n      tag_81\n      jump\t// in\n        /* \"contracts/Staking.sol\":1111:1159  uint256[] public rewardRates = [50, 66, 83, 125] */\n    tag_19:\n      tag_29\n      tag_84\n      calldatasize\n      0x04\n      tag_80\n      jump\t// in\n    tag_84:\n      tag_85\n      jump\t// in\n        /* \"contracts/Staking.sol\":5776:6263  function getPendingRewards(address _staker)... */\n    tag_20:\n      tag_29\n      tag_88\n      calldatasize\n      0x04\n      tag_27\n      jump\t// in\n    tag_88:\n      tag_89\n      jump\t// in\n        /* \"contracts/Staking.sol\":854:873  IBEP20 public token */\n    tag_21:\n      sload(0x01)\n      tag_60\n      swap1\n      sub(shl(0xa0, 0x01), 0x01)\n      and\n      dup2\n      jump\n        /* \"contracts/Staking.sol\":8338:8465  function transferStuckBEP20(IBEP20 VRL) external onlyOwner {... */\n    tag_28:\n        /* \"contracts/Staking.sol\":2060:2065  owner */\n      and(sub(shl(0xa0, 0x01), 0x01), sload(0x00))\n        /* \"contracts/Staking.sol\":2046:2056  msg.sender */\n      caller\n        /* \"contracts/Staking.sol\":2046:2065  msg.sender == owner */\n      eq\n        /* \"contracts/Staking.sol\":2038:2083  require(msg.sender == owner, \"Not the owner\") */\n      tag_96\n      jumpi\n      mload(0x40)\n      shl(0xe5, 0x461bcd)\n      dup2\n      mstore\n      0x04\n      add\n      tag_97\n      swap1\n      tag_98\n      jump\t// in\n    tag_97:\n      mload(0x40)\n      dup1\n      swap2\n      sub\n      swap1\n      revert\n    tag_96:\n        /* \"contracts/Staking.sol\":8407:8412  token */\n      sload(0x01)\n      0x00\n        /* \"contracts/Staking.sol\":8422:8427  owner */\n      sload\n        /* \"contracts/Staking.sol\":8429:8457  VRL.balanceOf(address(this)) */\n      mload(0x40)\n      shl(0xe0, 0x70a08231)\n      dup2\n      mstore\n        /* \"contracts/Staking.sol\":8451:8455  this */\n      address\n        /* \"contracts/Staking.sol\":8429:8457  VRL.balanceOf(address(this)) */\n      0x04\n      dup3\n      add\n        /* \"#utility.yul\":1641:1692   */\n      mstore\n      sub(shl(0xa0, 0x01), 0x01)\n        /* \"contracts/Staking.sol\":8407:8412  token */\n      swap3\n      dup4\n      and\n      swap3\n        /* \"contracts/Staking.sol\":8407:8421  token.transfer */\n      0xa9059cbb\n      swap3\n        /* \"contracts/Staking.sol\":8422:8427  owner */\n      dup2\n      and\n      swap2\n        /* \"contracts/Staking.sol\":8429:8442  VRL.balanceOf */\n      swap1\n      dup6\n      and\n      swap1\n      0x70a08231\n      swap1\n        /* \"#utility.yul\":1614:1632   */\n      0x24\n      add\n        /* \"contracts/Staking.sol\":8429:8457  VRL.balanceOf(address(this)) */\n      0x20\n      mload(0x40)\n      dup1\n      dup4\n      sub\n      dup2\n      dup7\n      gas\n      staticcall\n      iszero\n      dup1\n      iszero\n      tag_102\n      jumpi\n      returndatasize\n      0x00\n      dup1\n      returndatacopy\n      revert(0x00, returndatasize)\n    tag_102:\n      pop\n      pop\n      pop\n      pop\n      mload(0x40)\n      returndatasize\n      not(0x1f)\n      0x1f\n      dup3\n      add\n      and\n      dup3\n      add\n      dup1\n      0x40\n      mstore\n      pop\n      dup2\n      add\n      swap1\n      tag_103\n      swap2\n      swap1\n      tag_104\n      jump\t// in\n    tag_103:\n        /* \"contracts/Staking.sol\":8407:8458  token.transfer(owner, VRL.balanceOf(address(this))) */\n      mload(0x40)\n      not(sub(shl(0xe0, 0x01), 0x01))\n      0xe0\n      dup6\n      swap1\n      shl\n      and\n      dup2\n      mstore\n      sub(shl(0xa0, 0x01), 0x01)\n        /* \"#utility.yul\":4276:4308   */\n      swap1\n      swap3\n      and\n        /* \"contracts/Staking.sol\":8407:8458  token.transfer(owner, VRL.balanceOf(address(this))) */\n      0x04\n      dup4\n      add\n        /* \"#utility.yul\":4258:4309   */\n      mstore\n        /* \"#utility.yul\":4325:4343   */\n      0x24\n      dup3\n      add\n        /* \"#utility.yul\":4318:4352   */\n      mstore\n        /* \"#utility.yul\":4231:4249   */\n      0x44\n      add\n        /* \"contracts/Staking.sol\":8407:8458  token.transfer(owner, VRL.balanceOf(address(this))) */\n      0x20\n      mload(0x40)\n      dup1\n      dup4\n      sub\n      dup2\n      0x00\n      dup8\n      gas\n      call\n      iszero\n      dup1\n      iszero\n      tag_108\n      jumpi\n      returndatasize\n      0x00\n      dup1\n      returndatacopy\n      revert(0x00, returndatasize)\n    tag_108:\n      pop\n      pop\n      pop\n      pop\n      mload(0x40)\n      returndatasize\n      not(0x1f)\n      0x1f\n      dup3\n      add\n      and\n      dup3\n      add\n      dup1\n      0x40\n      mstore\n      pop\n      dup2\n      add\n      swap1\n      tag_109\n      swap2\n      swap1\n      tag_110\n      jump\t// in\n    tag_109:\n      pop\n        /* \"contracts/Staking.sol\":8338:8465  function transferStuckBEP20(IBEP20 VRL) external onlyOwner {... */\n      pop\n      jump\t// out\n        /* \"contracts/Staking.sol\":7110:8048  function getRemainingTime(address _staker)... */\n    tag_32:\n      sub(shl(0xa0, 0x01), 0x01)\n        /* \"contracts/Staking.sol\":7251:7267  stakers[_staker] */\n      dup2\n      and\n        /* \"contracts/Staking.sol\":7200:7212  uint256 time */\n      0x00\n        /* \"contracts/Staking.sol\":7251:7267  stakers[_staker] */\n      swap1\n      dup2\n      mstore\n        /* \"contracts/Staking.sol\":7251:7258  stakers */\n      0x05\n        /* \"contracts/Staking.sol\":7251:7267  stakers[_staker] */\n      0x20\n      mstore\n      0x40\n      dup2\n      keccak256\n        /* \"contracts/Staking.sol\":7285:7298  staker.amount */\n      dup1\n      sload\n        /* \"contracts/Staking.sol\":7277:7339  require(staker.amount > 0, \"No staked amount for the address\") */\n      tag_112\n      jumpi\n      mload(0x40)\n      shl(0xe5, 0x461bcd)\n      dup2\n      mstore\n      0x04\n      add\n      tag_97\n      swap1\n      tag_114\n      jump\t// in\n    tag_112:\n        /* \"contracts/Staking.sol\":7350:7369  uint256 elapsedTime */\n      0x00\n        /* \"contracts/Staking.sol\":7473:7479  staker */\n      dup2\n        /* \"contracts/Staking.sol\":7473:7489  staker.startTime */\n      0x01\n      add\n      sload\n        /* \"contracts/Staking.sol\":7455:7470  block.timestamp */\n      timestamp\n        /* \"contracts/Staking.sol\":7455:7489  block.timestamp > staker.startTime */\n      gt\n        /* \"contracts/Staking.sol\":7451:7564  if (block.timestamp > staker.startTime) {... */\n      iszero\n      tag_115\n      jumpi\n        /* \"contracts/Staking.sol\":7537:7553  staker.startTime */\n      0x01\n      dup3\n      add\n      sload\n        /* \"contracts/Staking.sol\":7519:7553  block.timestamp - staker.startTime */\n      tag_116\n      swap1\n        /* \"contracts/Staking.sol\":7519:7534  block.timestamp */\n      timestamp\n        /* \"contracts/Staking.sol\":7519:7553  block.timestamp - staker.startTime */\n      tag_117\n      jump\t// in\n    tag_116:\n        /* \"contracts/Staking.sol\":7505:7553  elapsedTime = block.timestamp - staker.startTime */\n      swap1\n      pop\n        /* \"contracts/Staking.sol\":7451:7564  if (block.timestamp > staker.startTime) {... */\n    tag_115:\n        /* \"contracts/Staking.sol\":7636:7658  uint256 lockedDuration */\n      0x00\n        /* \"contracts/Staking.sol\":7661:7675  stakeDurations */\n      0x03\n        /* \"contracts/Staking.sol\":7676:7682  staker */\n      dup4\n        /* \"contracts/Staking.sol\":7676:7696  staker.durationIndex */\n      0x03\n      add\n      sload\n        /* \"contracts/Staking.sol\":7661:7697  stakeDurations[staker.durationIndex] */\n      dup2\n      sload\n      dup2\n      lt\n      tag_119\n      jumpi\n      tag_119\n      tag_120\n      jump\t// in\n    tag_119:\n      swap1\n      0x00\n      mstore\n      keccak256(0x00, 0x20)\n      add\n      sload\n        /* \"contracts/Staking.sol\":7636:7697  uint256 lockedDuration = stakeDurations[staker.durationIndex] */\n      swap1\n      pop\n        /* \"contracts/Staking.sol\":7707:7728  uint256 remainingTime */\n      0x00\n        /* \"contracts/Staking.sol\":7760:7774  lockedDuration */\n      dup2\n        /* \"contracts/Staking.sol\":7746:7757  elapsedTime */\n      dup4\n        /* \"contracts/Staking.sol\":7746:7774  elapsedTime < lockedDuration */\n      lt\n        /* \"contracts/Staking.sol\":7742:7845  if (elapsedTime < lockedDuration) {... */\n      iszero\n      tag_122\n      jumpi\n        /* \"contracts/Staking.sol\":7806:7834  lockedDuration - elapsedTime */\n      tag_123\n        /* \"contracts/Staking.sol\":7823:7834  elapsedTime */\n      dup4\n        /* \"contracts/Staking.sol\":7806:7820  lockedDuration */\n      dup4\n        /* \"contracts/Staking.sol\":7806:7834  lockedDuration - elapsedTime */\n      tag_117\n      jump\t// in\n    tag_123:\n        /* \"contracts/Staking.sol\":7790:7834  remainingTime = lockedDuration - elapsedTime */\n      swap1\n      pop\n        /* \"contracts/Staking.sol\":7742:7845  if (elapsedTime < lockedDuration) {... */\n    tag_122:\n        /* \"contracts/Staking.sol\":7943:7970  uint256 rewardAvailableTime */\n      0x00\n        /* \"contracts/Staking.sol\":7973:8004  block.timestamp + remainingTime */\n      tag_124\n        /* \"contracts/Staking.sol\":7991:8004  remainingTime */\n      dup3\n        /* \"contracts/Staking.sol\":7973:7988  block.timestamp */\n      timestamp\n        /* \"contracts/Staking.sol\":7973:8004  block.timestamp + remainingTime */\n      tag_125\n      jump\t// in\n    tag_124:\n        /* \"contracts/Staking.sol\":7943:8004  uint256 rewardAvailableTime = block.timestamp + remainingTime */\n      swap8\n        /* \"contracts/Staking.sol\":7110:8048  function getRemainingTime(address _staker)... */\n      swap7\n      pop\n      pop\n      pop\n      pop\n      pop\n      pop\n      pop\n      jump\t// out\n        /* \"contracts/Staking.sol\":3901:4862  function unstake() external {... */\n    tag_36:\n        /* \"contracts/Staking.sol\":3970:3980  msg.sender */\n      caller\n        /* \"contracts/Staking.sol\":3939:3959  Stake storage staker */\n      0x00\n        /* \"contracts/Staking.sol\":3962:3981  stakers[msg.sender] */\n      swap1\n      dup2\n      mstore\n        /* \"contracts/Staking.sol\":3962:3969  stakers */\n      0x05\n        /* \"contracts/Staking.sol\":3962:3981  stakers[msg.sender] */\n      0x20\n      mstore\n      0x40\n      swap1\n      keccak256\n        /* \"contracts/Staking.sol\":4000:4013  staker.amount */\n      dup1\n      sload\n        /* \"contracts/Staking.sol\":3992:4049  require(staker.amount > 0, \"No staked amount to unstake\") */\n      tag_127\n      jumpi\n      mload(0x40)\n      shl(0xe5, 0x461bcd)\n      dup2\n      mstore\n        /* \"#utility.yul\":5703:5705   */\n      0x20\n        /* \"contracts/Staking.sol\":3992:4049  require(staker.amount > 0, \"No staked amount to unstake\") */\n      0x04\n      dup3\n      add\n        /* \"#utility.yul\":5685:5706   */\n      mstore\n        /* \"#utility.yul\":5742:5744   */\n      0x1b\n        /* \"#utility.yul\":5722:5740   */\n      0x24\n      dup3\n      add\n        /* \"#utility.yul\":5715:5745   */\n      mstore\n        /* \"#utility.yul\":5781:5810   */\n      0x4e6f207374616b656420616d6f756e7420746f20756e7374616b650000000000\n        /* \"#utility.yul\":5761:5779   */\n      0x44\n      dup3\n      add\n        /* \"#utility.yul\":5754:5811   */\n      mstore\n        /* \"#utility.yul\":5828:5846   */\n      0x64\n      add\n        /* \"contracts/Staking.sol\":3992:4049  require(staker.amount > 0, \"No staked amount to unstake\") */\n      tag_97\n        /* \"#utility.yul\":5501:5852   */\n      jump\n        /* \"contracts/Staking.sol\":3992:4049  require(staker.amount > 0, \"No staked amount to unstake\") */\n    tag_127:\n        /* \"contracts/Staking.sol\":4134:4148  stakeDurations */\n      0x03\n        /* \"contracts/Staking.sol\":4149:4155  staker */\n      dup2\n        /* \"contracts/Staking.sol\":4149:4169  staker.durationIndex */\n      0x03\n      add\n      sload\n        /* \"contracts/Staking.sol\":4134:4170  stakeDurations[staker.durationIndex] */\n      dup2\n      sload\n      dup2\n      lt\n      tag_131\n      jumpi\n      tag_131\n      tag_120\n      jump\t// in\n    tag_131:\n      swap1\n      0x00\n      mstore\n      keccak256(0x00, 0x20)\n      add\n      sload\n        /* \"contracts/Staking.sol\":4115:4121  staker */\n      dup2\n        /* \"contracts/Staking.sol\":4115:4131  staker.startTime */\n      0x01\n      add\n      sload\n        /* \"contracts/Staking.sol\":4115:4170  staker.startTime + stakeDurations[staker.durationIndex] */\n      tag_133\n      swap2\n      swap1\n      tag_125\n      jump\t// in\n    tag_133:\n        /* \"contracts/Staking.sol\":4080:4095  block.timestamp */\n      timestamp\n        /* \"contracts/Staking.sol\":4080:4170  block.timestamp >=... */\n      lt\n      iszero\n        /* \"contracts/Staking.sol\":4059:4224  require(... */\n      tag_134\n      jumpi\n      mload(0x40)\n      shl(0xe5, 0x461bcd)\n      dup2\n      mstore\n        /* \"#utility.yul\":6059:6061   */\n      0x20\n        /* \"contracts/Staking.sol\":4059:4224  require(... */\n      0x04\n      dup3\n      add\n        /* \"#utility.yul\":6041:6062   */\n      mstore\n        /* \"#utility.yul\":6098:6100   */\n      0x1c\n        /* \"#utility.yul\":6078:6096   */\n      0x24\n      dup3\n      add\n        /* \"#utility.yul\":6071:6101   */\n      mstore\n        /* \"#utility.yul\":6137:6167   */\n      0x4d696e696d756d207374616b6520706572696f64206e6f74206d657400000000\n        /* \"#utility.yul\":6117:6135   */\n      0x44\n      dup3\n      add\n        /* \"#utility.yul\":6110:6168   */\n      mstore\n        /* \"#utility.yul\":6185:6203   */\n      0x64\n      add\n        /* \"contracts/Staking.sol\":4059:4224  require(... */\n      tag_97\n        /* \"#utility.yul\":5857:6209   */\n      jump\n        /* \"contracts/Staking.sol\":4059:4224  require(... */\n    tag_134:\n        /* \"contracts/Staking.sol\":4289:4302  staker.amount */\n      dup1\n      sload\n        /* \"contracts/Staking.sol\":4256:4261  token */\n      sload(0x01)\n        /* \"contracts/Staking.sol\":4256:4286  token.balanceOf(address(this)) */\n      mload(0x40)\n      shl(0xe0, 0x70a08231)\n      dup2\n      mstore\n        /* \"contracts/Staking.sol\":4280:4284  this */\n      address\n        /* \"contracts/Staking.sol\":4256:4286  token.balanceOf(address(this)) */\n      0x04\n      dup3\n      add\n        /* \"#utility.yul\":1641:1692   */\n      mstore\n      sub(shl(0xa0, 0x01), 0x01)\n        /* \"contracts/Staking.sol\":4256:4261  token */\n      swap1\n      swap2\n      and\n      swap1\n        /* \"contracts/Staking.sol\":4256:4271  token.balanceOf */\n      0x70a08231\n      swap1\n        /* \"#utility.yul\":1614:1632   */\n      0x24\n      add\n        /* \"contracts/Staking.sol\":4256:4286  token.balanceOf(address(this)) */\n      0x20\n      mload(0x40)\n      dup1\n      dup4\n      sub\n      dup2\n      dup7\n      gas\n      staticcall\n      iszero\n      dup1\n      iszero\n      tag_139\n      jumpi\n      returndatasize\n      0x00\n      dup1\n      returndatacopy\n      revert(0x00, returndatasize)\n    tag_139:\n      pop\n      pop\n      pop\n      pop\n      mload(0x40)\n      returndatasize\n      not(0x1f)\n      0x1f\n      dup3\n      add\n      and\n      dup3\n      add\n      dup1\n      0x40\n      mstore\n      pop\n      dup2\n      add\n      swap1\n      tag_140\n      swap2\n      swap1\n      tag_104\n      jump\t// in\n    tag_140:\n        /* \"contracts/Staking.sol\":4256:4302  token.balanceOf(address(this)) > staker.amount */\n      gt\n        /* \"contracts/Staking.sol\":4235:4368  require(... */\n      tag_141\n      jumpi\n      mload(0x40)\n      shl(0xe5, 0x461bcd)\n      dup2\n      mstore\n      0x04\n      add\n      tag_97\n      swap1\n      tag_143\n      jump\t// in\n    tag_141:\n        /* \"contracts/Staking.sol\":4379:4402  uint256 stakingDuration */\n      0x00\n        /* \"contracts/Staking.sol\":4423:4429  staker */\n      dup2\n        /* \"contracts/Staking.sol\":4423:4439  staker.startTime */\n      0x01\n      add\n      sload\n        /* \"contracts/Staking.sol\":4405:4420  block.timestamp */\n      timestamp\n        /* \"contracts/Staking.sol\":4405:4439  block.timestamp - staker.startTime */\n      tag_144\n      swap2\n      swap1\n      tag_117\n      jump\t// in\n    tag_144:\n        /* \"contracts/Staking.sol\":4379:4439  uint256 stakingDuration = block.timestamp - staker.startTime */\n      swap1\n      pop\n        /* \"contracts/Staking.sol\":4449:4463  uint256 reward */\n      0x00\n        /* \"contracts/Staking.sol\":4573:4583  rewardBase */\n      sload(0x02)\n        /* \"contracts/Staking.sol\":4563:4570  30 days */\n      0x278d00\n        /* \"contracts/Staking.sol\":4563:4583  30 days * rewardBase */\n      tag_145\n      swap2\n      swap1\n      tag_146\n      jump\t// in\n    tag_145:\n        /* \"contracts/Staking.sol\":4543:4558  stakingDuration */\n      dup3\n        /* \"contracts/Staking.sol\":4495:4506  rewardRates */\n      0x04\n        /* \"contracts/Staking.sol\":4507:4513  staker */\n      dup6\n        /* \"contracts/Staking.sol\":4507:4527  staker.durationIndex */\n      0x03\n      add\n      sload\n        /* \"contracts/Staking.sol\":4495:4528  rewardRates[staker.durationIndex] */\n      dup2\n      sload\n      dup2\n      lt\n      tag_148\n      jumpi\n      tag_148\n      tag_120\n      jump\t// in\n    tag_148:\n      swap1\n      0x00\n      mstore\n      keccak256(0x00, 0x20)\n      add\n      sload\n        /* \"contracts/Staking.sol\":4467:4473  staker */\n      dup6\n        /* \"contracts/Staking.sol\":4467:4480  staker.amount */\n      0x00\n      add\n      sload\n        /* \"contracts/Staking.sol\":4467:4528  staker.amount *... */\n      tag_150\n      swap2\n      swap1\n      tag_146\n      jump\t// in\n    tag_150:\n        /* \"contracts/Staking.sol\":4467:4558  staker.amount *... */\n      tag_151\n      swap2\n      swap1\n      tag_146\n      jump\t// in\n    tag_151:\n        /* \"contracts/Staking.sol\":4466:4584  (staker.amount *... */\n      tag_152\n      swap2\n      swap1\n      tag_153\n      jump\t// in\n    tag_152:\n        /* \"contracts/Staking.sol\":4616:4621  token */\n      sload(0x01)\n        /* \"contracts/Staking.sol\":4643:4656  staker.amount */\n      dup5\n      sload\n        /* \"contracts/Staking.sol\":4449:4584  uint256 reward = (staker.amount *... */\n      swap2\n      swap3\n      pop\n      sub(shl(0xa0, 0x01), 0x01)\n        /* \"contracts/Staking.sol\":4616:4621  token */\n      and\n      swap1\n        /* \"contracts/Staking.sol\":4616:4630  token.transfer */\n      0xa9059cbb\n      swap1\n        /* \"contracts/Staking.sol\":4631:4641  msg.sender */\n      caller\n      swap1\n        /* \"contracts/Staking.sol\":4643:4665  staker.amount + reward */\n      tag_154\n      swap1\n        /* \"contracts/Staking.sol\":4449:4584  uint256 reward = (staker.amount *... */\n      dup6\n      swap1\n        /* \"contracts/Staking.sol\":4643:4665  staker.amount + reward */\n      tag_125\n      jump\t// in\n    tag_154:\n        /* \"contracts/Staking.sol\":4616:4666  token.transfer(msg.sender, staker.amount + reward) */\n      mload(0x40)\n      not(sub(shl(0xe0, 0x01), 0x01))\n      0xe0\n      dup6\n      swap1\n      shl\n      and\n      dup2\n      mstore\n      sub(shl(0xa0, 0x01), 0x01)\n        /* \"#utility.yul\":4276:4308   */\n      swap1\n      swap3\n      and\n        /* \"contracts/Staking.sol\":4616:4666  token.transfer(msg.sender, staker.amount + reward) */\n      0x04\n      dup4\n      add\n        /* \"#utility.yul\":4258:4309   */\n      mstore\n        /* \"#utility.yul\":4325:4343   */\n      0x24\n      dup3\n      add\n        /* \"#utility.yul\":4318:4352   */\n      mstore\n        /* \"#utility.yul\":4231:4249   */\n      0x44\n      add\n        /* \"contracts/Staking.sol\":4616:4666  token.transfer(msg.sender, staker.amount + reward) */\n      0x20\n      mload(0x40)\n      dup1\n      dup4\n      sub\n      dup2\n      0x00\n      dup8\n      gas\n      call\n      iszero\n      dup1\n      iszero\n      tag_157\n      jumpi\n      returndatasize\n      0x00\n      dup1\n      returndatacopy\n      revert(0x00, returndatasize)\n    tag_157:\n      pop\n      pop\n      pop\n      pop\n      mload(0x40)\n      returndatasize\n      not(0x1f)\n      0x1f\n      dup3\n      add\n      and\n      dup3\n      add\n      dup1\n      0x40\n      mstore\n      pop\n      dup2\n      add\n      swap1\n      tag_158\n      swap2\n      swap1\n      tag_110\n      jump\t// in\n    tag_158:\n        /* \"contracts/Staking.sol\":4595:4713  require(... */\n      tag_159\n      jumpi\n      mload(0x40)\n      shl(0xe5, 0x461bcd)\n      dup2\n      mstore\n      0x04\n      add\n      tag_97\n      swap1\n      tag_161\n      jump\t// in\n    tag_159:\n        /* \"contracts/Staking.sol\":4750:4763  staker.amount */\n      dup3\n      sload\n        /* \"contracts/Staking.sol\":4729:4789  Unstaked(msg.sender, staker.amount, block.timestamp, reward) */\n      0x40\n      dup1\n      mload\n        /* \"#utility.yul\":7570:7595   */\n      swap2\n      dup3\n      mstore\n        /* \"contracts/Staking.sol\":4765:4780  block.timestamp */\n      timestamp\n        /* \"#utility.yul\":7626:7628   */\n      0x20\n        /* \"#utility.yul\":7611:7629   */\n      dup4\n      add\n        /* \"#utility.yul\":7604:7638   */\n      mstore\n        /* \"#utility.yul\":7654:7672   */\n      dup2\n      add\n        /* \"#utility.yul\":7647:7681   */\n      dup3\n      swap1\n      mstore\n        /* \"contracts/Staking.sol\":4738:4748  msg.sender */\n      caller\n      swap1\n        /* \"contracts/Staking.sol\":4729:4789  Unstaked(msg.sender, staker.amount, block.timestamp, reward) */\n      0x204fccf0d92ed8d48f204adb39b2e81e92bad0dedb93f5716ca9478cfb57de00\n      swap1\n        /* \"#utility.yul\":7558:7560   */\n      0x60\n        /* \"#utility.yul\":7543:7561   */\n      add\n        /* \"contracts/Staking.sol\":4729:4789  Unstaked(msg.sender, staker.amount, block.timestamp, reward) */\n      mload(0x40)\n      dup1\n      swap2\n      sub\n      swap1\n      log2\n      pop\n      pop\n        /* \"contracts/Staking.sol\":4844:4854  msg.sender */\n      caller\n        /* \"contracts/Staking.sol\":4836:4855  stakers[msg.sender] */\n      0x00\n      swap1\n      dup2\n      mstore\n        /* \"contracts/Staking.sol\":4836:4843  stakers */\n      0x05\n        /* \"contracts/Staking.sol\":4836:4855  stakers[msg.sender] */\n      0x20\n      mstore\n      0x40\n      dup2\n      keccak256\n        /* \"contracts/Staking.sol\":4829:4855  delete stakers[msg.sender] */\n      dup2\n      dup2\n      sstore\n      0x01\n      dup2\n      add\n      dup3\n      swap1\n      sstore\n      0x02\n      dup2\n      add\n      dup3\n      swap1\n      sstore\n      0x03\n      add\n      sstore\n      pop\n        /* \"contracts/Staking.sol\":3901:4862  function unstake() external {... */\n      jump\t// out\n        /* \"contracts/Staking.sol\":8471:8581  function transferStuckBNB() external onlyOwner {... */\n    tag_38:\n        /* \"contracts/Staking.sol\":2060:2065  owner */\n      and(sub(shl(0xa0, 0x01), 0x01), sload(0x00))\n        /* \"contracts/Staking.sol\":2046:2056  msg.sender */\n      caller\n        /* \"contracts/Staking.sol\":2046:2065  msg.sender == owner */\n      eq\n        /* \"contracts/Staking.sol\":2038:2083  require(msg.sender == owner, \"Not the owner\") */\n      tag_165\n      jumpi\n      mload(0x40)\n      shl(0xe5, 0x461bcd)\n      dup2\n      mstore\n      0x04\n      add\n      tag_97\n      swap1\n      tag_98\n      jump\t// in\n    tag_165:\n        /* \"contracts/Staking.sol\":8536:8541  owner */\n      0x00\n      dup1\n      sload\n        /* \"contracts/Staking.sol\":8528:8574  payable(owner).transfer(address(this).balance) */\n      mload(0x40)\n      sub(shl(0xa0, 0x01), 0x01)\n        /* \"contracts/Staking.sol\":8536:8541  owner */\n      swap1\n      swap2\n      and\n      swap2\n        /* \"contracts/Staking.sol\":8552:8573  address(this).balance */\n      selfbalance\n        /* \"contracts/Staking.sol\":8528:8574  payable(owner).transfer(address(this).balance) */\n      dup1\n      iszero\n      0x08fc\n      mul\n      swap3\n        /* \"contracts/Staking.sol\":8552:8573  address(this).balance */\n      swap1\n      swap2\n        /* \"contracts/Staking.sol\":8528:8574  payable(owner).transfer(address(this).balance) */\n      dup2\n        /* \"contracts/Staking.sol\":8536:8541  owner */\n      dup2\n        /* \"contracts/Staking.sol\":8528:8574  payable(owner).transfer(address(this).balance) */\n      dup2\n        /* \"contracts/Staking.sol\":8552:8573  address(this).balance */\n      dup6\n        /* \"contracts/Staking.sol\":8536:8541  owner */\n      dup9\n        /* \"contracts/Staking.sol\":8528:8574  payable(owner).transfer(address(this).balance) */\n      dup9\n      call\n      swap4\n      pop\n      pop\n      pop\n      pop\n      iszero\n      dup1\n      iszero\n      tag_169\n      jumpi\n      returndatasize\n      0x00\n      dup1\n      returndatacopy\n      revert(0x00, returndatasize)\n    tag_169:\n      pop\n        /* \"contracts/Staking.sol\":8471:8581  function transferStuckBNB() external onlyOwner {... */\n      jump\t// out\n        /* \"contracts/Staking.sol\":6269:6536  function getStakedAmount(address _staker)... */\n    tag_41:\n      sub(shl(0xa0, 0x01), 0x01)\n        /* \"contracts/Staking.sol\":6411:6427  stakers[_staker] */\n      dup2\n      and\n        /* \"contracts/Staking.sol\":6358:6372  uint256 amount */\n      0x00\n        /* \"contracts/Staking.sol\":6411:6427  stakers[_staker] */\n      swap1\n      dup2\n      mstore\n        /* \"contracts/Staking.sol\":6411:6418  stakers */\n      0x05\n        /* \"contracts/Staking.sol\":6411:6427  stakers[_staker] */\n      0x20\n      mstore\n      0x40\n      dup2\n      keccak256\n        /* \"contracts/Staking.sol\":6445:6458  staker.amount */\n      dup1\n      sload\n        /* \"contracts/Staking.sol\":6437:6499  require(staker.amount > 0, \"No staked amount for the address\") */\n      tag_171\n      jumpi\n      mload(0x40)\n      shl(0xe5, 0x461bcd)\n      dup2\n      mstore\n      0x04\n      add\n      tag_97\n      swap1\n      tag_114\n      jump\t// in\n    tag_171:\n        /* \"contracts/Staking.sol\":6516:6529  staker.amount */\n      sload\n      swap3\n        /* \"contracts/Staking.sol\":6269:6536  function getStakedAmount(address _staker)... */\n      swap2\n      pop\n      pop\n      jump\t// out\n        /* \"contracts/Staking.sol\":3055:3149  function pauseStaking(bool _isPaused) external onlyOwner {... */\n    tag_49:\n        /* \"contracts/Staking.sol\":2060:2065  owner */\n      and(sub(shl(0xa0, 0x01), 0x01), sload(0x00))\n        /* \"contracts/Staking.sol\":2046:2056  msg.sender */\n      caller\n        /* \"contracts/Staking.sol\":2046:2065  msg.sender == owner */\n      eq\n        /* \"contracts/Staking.sol\":2038:2083  require(msg.sender == owner, \"Not the owner\") */\n      tag_174\n      jumpi\n      mload(0x40)\n      shl(0xe5, 0x461bcd)\n      dup2\n      mstore\n      0x04\n      add\n      tag_97\n      swap1\n      tag_98\n      jump\t// in\n    tag_174:\n        /* \"contracts/Staking.sol\":3122:3130  isPaused */\n      0x01\n        /* \"contracts/Staking.sol\":3122:3142  isPaused = _isPaused */\n      dup1\n      sload\n      swap2\n      iszero\n      iszero\n      shl(0xa0, 0x01)\n      mul\n      not(shl(0xa0, 0xff))\n      swap1\n      swap3\n      and\n      swap2\n      swap1\n      swap2\n      or\n      swap1\n      sstore\n        /* \"contracts/Staking.sol\":3055:3149  function pauseStaking(bool _isPaused) external onlyOwner {... */\n      jump\t// out\n        /* \"contracts/Staking.sol\":6542:6817  function getLastStakedStartTime(address _staker)... */\n    tag_52:\n      sub(shl(0xa0, 0x01), 0x01)\n        /* \"contracts/Staking.sol\":6689:6705  stakers[_staker] */\n      dup2\n      and\n        /* \"contracts/Staking.sol\":6638:6650  uint256 time */\n      0x00\n        /* \"contracts/Staking.sol\":6689:6705  stakers[_staker] */\n      swap1\n      dup2\n      mstore\n        /* \"contracts/Staking.sol\":6689:6696  stakers */\n      0x05\n        /* \"contracts/Staking.sol\":6689:6705  stakers[_staker] */\n      0x20\n      mstore\n      0x40\n      dup2\n      keccak256\n        /* \"contracts/Staking.sol\":6723:6736  staker.amount */\n      dup1\n      sload\n        /* \"contracts/Staking.sol\":6715:6777  require(staker.amount > 0, \"No staked amount for the address\") */\n      tag_178\n      jumpi\n      mload(0x40)\n      shl(0xe5, 0x461bcd)\n      dup2\n      mstore\n      0x04\n      add\n      tag_97\n      swap1\n      tag_114\n      jump\t// in\n    tag_178:\n        /* \"contracts/Staking.sol\":6794:6810  staker.startTime */\n      0x01\n      add\n      sload\n      swap3\n        /* \"contracts/Staking.sol\":6542:6817  function getLastStakedStartTime(address _staker)... */\n      swap2\n      pop\n      pop\n      jump\t// out\n        /* \"contracts/Staking.sol\":3155:3895  function instantUnstake() external {... */\n    tag_55:\n        /* \"contracts/Staking.sol\":3231:3241  msg.sender */\n      caller\n        /* \"contracts/Staking.sol\":3200:3220  Stake storage staker */\n      0x00\n        /* \"contracts/Staking.sol\":3223:3242  stakers[msg.sender] */\n      swap1\n      dup2\n      mstore\n        /* \"contracts/Staking.sol\":3223:3230  stakers */\n      0x05\n        /* \"contracts/Staking.sol\":3223:3242  stakers[msg.sender] */\n      0x20\n      mstore\n      0x40\n      swap1\n      keccak256\n        /* \"contracts/Staking.sol\":3261:3274  staker.amount */\n      dup1\n      sload\n        /* \"contracts/Staking.sol\":3253:3310  require(staker.amount > 0, \"No staked amount to unstake\") */\n      tag_181\n      jumpi\n      mload(0x40)\n      shl(0xe5, 0x461bcd)\n      dup2\n      mstore\n        /* \"#utility.yul\":5703:5705   */\n      0x20\n        /* \"contracts/Staking.sol\":3253:3310  require(staker.amount > 0, \"No staked amount to unstake\") */\n      0x04\n      dup3\n      add\n        /* \"#utility.yul\":5685:5706   */\n      mstore\n        /* \"#utility.yul\":5742:5744   */\n      0x1b\n        /* \"#utility.yul\":5722:5740   */\n      0x24\n      dup3\n      add\n        /* \"#utility.yul\":5715:5745   */\n      mstore\n        /* \"#utility.yul\":5781:5810   */\n      0x4e6f207374616b656420616d6f756e7420746f20756e7374616b650000000000\n        /* \"#utility.yul\":5761:5779   */\n      0x44\n      dup3\n      add\n        /* \"#utility.yul\":5754:5811   */\n      mstore\n        /* \"#utility.yul\":5828:5846   */\n      0x64\n      add\n        /* \"contracts/Staking.sol\":3253:3310  require(staker.amount > 0, \"No staked amount to unstake\") */\n      tag_97\n        /* \"#utility.yul\":5501:5852   */\n      jump\n        /* \"contracts/Staking.sol\":3253:3310  require(staker.amount > 0, \"No staked amount to unstake\") */\n    tag_181:\n        /* \"contracts/Staking.sol\":3395:3409  stakeDurations */\n      0x03\n        /* \"contracts/Staking.sol\":3410:3416  staker */\n      dup2\n        /* \"contracts/Staking.sol\":3410:3430  staker.durationIndex */\n      0x03\n      add\n      sload\n        /* \"contracts/Staking.sol\":3395:3431  stakeDurations[staker.durationIndex] */\n      dup2\n      sload\n      dup2\n      lt\n      tag_184\n      jumpi\n      tag_184\n      tag_120\n      jump\t// in\n    tag_184:\n      swap1\n      0x00\n      mstore\n      keccak256(0x00, 0x20)\n      add\n      sload\n        /* \"contracts/Staking.sol\":3376:3382  staker */\n      dup2\n        /* \"contracts/Staking.sol\":3376:3392  staker.startTime */\n      0x01\n      add\n      sload\n        /* \"contracts/Staking.sol\":3376:3431  staker.startTime + stakeDurations[staker.durationIndex] */\n      tag_186\n      swap2\n      swap1\n      tag_125\n      jump\t// in\n    tag_186:\n        /* \"contracts/Staking.sol\":3341:3356  block.timestamp */\n      timestamp\n        /* \"contracts/Staking.sol\":3341:3431  block.timestamp <=... */\n      gt\n      iszero\n        /* \"contracts/Staking.sol\":3320:3484  require(... */\n      tag_187\n      jumpi\n      mload(0x40)\n      shl(0xe5, 0x461bcd)\n      dup2\n      mstore\n        /* \"#utility.yul\":7894:7896   */\n      0x20\n        /* \"contracts/Staking.sol\":3320:3484  require(... */\n      0x04\n      dup3\n      add\n        /* \"#utility.yul\":7876:7897   */\n      mstore\n        /* \"#utility.yul\":7933:7935   */\n      0x1b\n        /* \"#utility.yul\":7913:7931   */\n      0x24\n      dup3\n      add\n        /* \"#utility.yul\":7906:7936   */\n      mstore\n        /* \"#utility.yul\":7972:8001   */\n      0x596f7520616c7265616479206861766520612072657761726421210000000000\n        /* \"#utility.yul\":7952:7970   */\n      0x44\n      dup3\n      add\n        /* \"#utility.yul\":7945:8002   */\n      mstore\n        /* \"#utility.yul\":8019:8037   */\n      0x64\n      add\n        /* \"contracts/Staking.sol\":3320:3484  require(... */\n      tag_97\n        /* \"#utility.yul\":7692:8043   */\n      jump\n        /* \"contracts/Staking.sol\":3320:3484  require(... */\n    tag_187:\n        /* \"contracts/Staking.sol\":3549:3562  staker.amount */\n      dup1\n      sload\n        /* \"contracts/Staking.sol\":3516:3521  token */\n      sload(0x01)\n        /* \"contracts/Staking.sol\":3516:3546  token.balanceOf(address(this)) */\n      mload(0x40)\n      shl(0xe0, 0x70a08231)\n      dup2\n      mstore\n        /* \"contracts/Staking.sol\":3540:3544  this */\n      address\n        /* \"contracts/Staking.sol\":3516:3546  token.balanceOf(address(this)) */\n      0x04\n      dup3\n      add\n        /* \"#utility.yul\":1641:1692   */\n      mstore\n      sub(shl(0xa0, 0x01), 0x01)\n        /* \"contracts/Staking.sol\":3516:3521  token */\n      swap1\n      swap2\n      and\n      swap1\n        /* \"contracts/Staking.sol\":3516:3531  token.balanceOf */\n      0x70a08231\n      swap1\n        /* \"#utility.yul\":1614:1632   */\n      0x24\n      add\n        /* \"contracts/Staking.sol\":3516:3546  token.balanceOf(address(this)) */\n      0x20\n      mload(0x40)\n      dup1\n      dup4\n      sub\n      dup2\n      dup7\n      gas\n      staticcall\n      iszero\n      dup1\n      iszero\n      tag_192\n      jumpi\n      returndatasize\n      0x00\n      dup1\n      returndatacopy\n      revert(0x00, returndatasize)\n    tag_192:\n      pop\n      pop\n      pop\n      pop\n      mload(0x40)\n      returndatasize\n      not(0x1f)\n      0x1f\n      dup3\n      add\n      and\n      dup3\n      add\n      dup1\n      0x40\n      mstore\n      pop\n      dup2\n      add\n      swap1\n      tag_193\n      swap2\n      swap1\n      tag_104\n      jump\t// in\n    tag_193:\n        /* \"contracts/Staking.sol\":3516:3562  token.balanceOf(address(this)) > staker.amount */\n      gt\n        /* \"contracts/Staking.sol\":3495:3628  require(... */\n      tag_194\n      jumpi\n      mload(0x40)\n      shl(0xe5, 0x461bcd)\n      dup2\n      mstore\n      0x04\n      add\n      tag_97\n      swap1\n      tag_143\n      jump\t// in\n    tag_194:\n        /* \"contracts/Staking.sol\":3659:3664  token */\n      sload(0x01)\n        /* \"contracts/Staking.sol\":3686:3699  staker.amount */\n      dup2\n      sload\n        /* \"contracts/Staking.sol\":3659:3700  token.transfer(msg.sender, staker.amount) */\n      mload(0x40)\n      shl(0xe0, 0xa9059cbb)\n      dup2\n      mstore\n        /* \"contracts/Staking.sol\":3674:3684  msg.sender */\n      caller\n        /* \"contracts/Staking.sol\":3659:3700  token.transfer(msg.sender, staker.amount) */\n      0x04\n      dup3\n      add\n        /* \"#utility.yul\":4258:4309   */\n      mstore\n        /* \"#utility.yul\":4325:4343   */\n      0x24\n      dup2\n      add\n        /* \"#utility.yul\":4318:4352   */\n      swap2\n      swap1\n      swap2\n      mstore\n      sub(shl(0xa0, 0x01), 0x01)\n        /* \"contracts/Staking.sol\":3659:3664  token */\n      swap1\n      swap2\n      and\n      swap1\n        /* \"contracts/Staking.sol\":3659:3673  token.transfer */\n      0xa9059cbb\n      swap1\n        /* \"#utility.yul\":4231:4249   */\n      0x44\n      add\n        /* \"contracts/Staking.sol\":3659:3700  token.transfer(msg.sender, staker.amount) */\n      0x20\n      mload(0x40)\n      dup1\n      dup4\n      sub\n      dup2\n      0x00\n      dup8\n      gas\n      call\n      iszero\n      dup1\n      iszero\n      tag_198\n      jumpi\n      returndatasize\n      0x00\n      dup1\n      returndatacopy\n      revert(0x00, returndatasize)\n    tag_198:\n      pop\n      pop\n      pop\n      pop\n      mload(0x40)\n      returndatasize\n      not(0x1f)\n      0x1f\n      dup3\n      add\n      and\n      dup3\n      add\n      dup1\n      0x40\n      mstore\n      pop\n      dup2\n      add\n      swap1\n      tag_199\n      swap2\n      swap1\n      tag_110\n      jump\t// in\n    tag_199:\n        /* \"contracts/Staking.sol\":3638:3747  require(... */\n      tag_200\n      jumpi\n      mload(0x40)\n      shl(0xe5, 0x461bcd)\n      dup2\n      mstore\n      0x04\n      add\n      tag_97\n      swap1\n      tag_161\n      jump\t// in\n    tag_200:\n        /* \"contracts/Staking.sol\":3791:3804  staker.amount */\n      dup1\n      sload\n        /* \"contracts/Staking.sol\":3763:3822  instantUnstaked(msg.sender, staker.amount, block.timestamp) */\n      0x40\n      dup1\n      mload\n        /* \"#utility.yul\":8222:8247   */\n      swap2\n      dup3\n      mstore\n        /* \"contracts/Staking.sol\":3806:3821  block.timestamp */\n      timestamp\n        /* \"#utility.yul\":8278:8280   */\n      0x20\n        /* \"#utility.yul\":8263:8281   */\n      dup4\n      add\n        /* \"#utility.yul\":8256:8290   */\n      mstore\n        /* \"contracts/Staking.sol\":3779:3789  msg.sender */\n      caller\n      swap2\n        /* \"contracts/Staking.sol\":3763:3822  instantUnstaked(msg.sender, staker.amount, block.timestamp) */\n      0xe6ab0e0153d89c40616cb28f32194043cb0f5b7d3b343e9a54b5d45340513f76\n      swap2\n        /* \"#utility.yul\":8195:8213   */\n      add\n        /* \"contracts/Staking.sol\":3763:3822  instantUnstaked(msg.sender, staker.amount, block.timestamp) */\n      mload(0x40)\n      dup1\n      swap2\n      sub\n      swap1\n      log2\n      pop\n        /* \"contracts/Staking.sol\":3877:3887  msg.sender */\n      caller\n        /* \"contracts/Staking.sol\":3869:3888  stakers[msg.sender] */\n      0x00\n      swap1\n      dup2\n      mstore\n        /* \"contracts/Staking.sol\":3869:3876  stakers */\n      0x05\n        /* \"contracts/Staking.sol\":3869:3888  stakers[msg.sender] */\n      0x20\n      mstore\n      0x40\n      dup2\n      keccak256\n        /* \"contracts/Staking.sol\":3862:3888  delete stakers[msg.sender] */\n      dup2\n      dup2\n      sstore\n      0x01\n      dup2\n      add\n      dup3\n      swap1\n      sstore\n      0x02\n      dup2\n      add\n      dup3\n      swap1\n      sstore\n      0x03\n      add\n      sstore\n        /* \"contracts/Staking.sol\":3155:3895  function instantUnstake() external {... */\n      jump\t// out\n        /* \"contracts/Staking.sol\":2208:3049  function stake(uint256 _amount, uint256 _durationIndex) external {... */\n    tag_59:\n        /* \"contracts/Staking.sol\":2301:2302  0 */\n      0x00\n        /* \"contracts/Staking.sol\":2291:2298  _amount */\n      dup3\n        /* \"contracts/Staking.sol\":2291:2302  _amount > 0 */\n      gt\n        /* \"contracts/Staking.sol\":2283:2336  require(_amount > 0, \"Amount must be greater than 0\") */\n      tag_205\n      jumpi\n      mload(0x40)\n      shl(0xe5, 0x461bcd)\n      dup2\n      mstore\n        /* \"#utility.yul\":8503:8505   */\n      0x20\n        /* \"contracts/Staking.sol\":2283:2336  require(_amount > 0, \"Amount must be greater than 0\") */\n      0x04\n      dup3\n      add\n        /* \"#utility.yul\":8485:8506   */\n      mstore\n        /* \"#utility.yul\":8542:8544   */\n      0x1d\n        /* \"#utility.yul\":8522:8540   */\n      0x24\n      dup3\n      add\n        /* \"#utility.yul\":8515:8545   */\n      mstore\n        /* \"#utility.yul\":8581:8612   */\n      0x416d6f756e74206d7573742062652067726561746572207468616e2030000000\n        /* \"#utility.yul\":8561:8579   */\n      0x44\n      dup3\n      add\n        /* \"#utility.yul\":8554:8613   */\n      mstore\n        /* \"#utility.yul\":8630:8648   */\n      0x64\n      add\n        /* \"contracts/Staking.sol\":2283:2336  require(_amount > 0, \"Amount must be greater than 0\") */\n      tag_97\n        /* \"#utility.yul\":8301:8654   */\n      jump\n        /* \"contracts/Staking.sol\":2283:2336  require(_amount > 0, \"Amount must be greater than 0\") */\n    tag_205:\n        /* \"contracts/Staking.sol\":2384:2398  stakeDurations */\n      0x03\n        /* \"contracts/Staking.sol\":2384:2405  stakeDurations.length */\n      sload\n        /* \"contracts/Staking.sol\":2367:2405  _durationIndex < stakeDurations.length */\n      dup2\n      lt\n        /* \"contracts/Staking.sol\":2346:2453  require(... */\n      tag_208\n      jumpi\n      mload(0x40)\n      shl(0xe5, 0x461bcd)\n      dup2\n      mstore\n        /* \"#utility.yul\":8861:8863   */\n      0x20\n        /* \"contracts/Staking.sol\":2346:2453  require(... */\n      0x04\n      dup3\n      add\n        /* \"#utility.yul\":8843:8864   */\n      mstore\n        /* \"#utility.yul\":8900:8902   */\n      0x16\n        /* \"#utility.yul\":8880:8898   */\n      0x24\n      dup3\n      add\n        /* \"#utility.yul\":8873:8903   */\n      mstore\n      shl(0x53, 0x092dcecc2d8d2c840c8eae4c2e8d2dedc40d2dcc8caf)\n        /* \"#utility.yul\":8919:8937   */\n      0x44\n      dup3\n      add\n        /* \"#utility.yul\":8912:8964   */\n      mstore\n        /* \"#utility.yul\":8981:8999   */\n      0x64\n      add\n        /* \"contracts/Staking.sol\":2346:2453  require(... */\n      tag_97\n        /* \"#utility.yul\":8659:9005   */\n      jump\n        /* \"contracts/Staking.sol\":2346:2453  require(... */\n    tag_208:\n        /* \"contracts/Staking.sol\":2494:2504  msg.sender */\n      caller\n        /* \"contracts/Staking.sol\":2463:2483  Stake storage staker */\n      0x00\n        /* \"contracts/Staking.sol\":2486:2505  stakers[msg.sender] */\n      swap1\n      dup2\n      mstore\n        /* \"contracts/Staking.sol\":2486:2493  stakers */\n      0x05\n        /* \"contracts/Staking.sol\":2486:2505  stakers[msg.sender] */\n      0x20\n      mstore\n      0x40\n      swap1\n      keccak256\n        /* \"contracts/Staking.sol\":2524:2537  staker.amount */\n      dup1\n      sload\n        /* \"contracts/Staking.sol\":2524:2542  staker.amount == 0 */\n      iszero\n        /* \"contracts/Staking.sol\":2516:2576  require(staker.amount == 0, \"You have already staked VRL!!\") */\n      tag_211\n      jumpi\n      mload(0x40)\n      shl(0xe5, 0x461bcd)\n      dup2\n      mstore\n        /* \"#utility.yul\":9212:9214   */\n      0x20\n        /* \"contracts/Staking.sol\":2516:2576  require(staker.amount == 0, \"You have already staked VRL!!\") */\n      0x04\n      dup3\n      add\n        /* \"#utility.yul\":9194:9215   */\n      mstore\n        /* \"#utility.yul\":9251:9253   */\n      0x1d\n        /* \"#utility.yul\":9231:9249   */\n      0x24\n      dup3\n      add\n        /* \"#utility.yul\":9224:9254   */\n      mstore\n        /* \"#utility.yul\":9290:9321   */\n      0x596f75206861766520616c7265616479207374616b65642056524c2121000000\n        /* \"#utility.yul\":9270:9288   */\n      0x44\n      dup3\n      add\n        /* \"#utility.yul\":9263:9322   */\n      mstore\n        /* \"#utility.yul\":9339:9357   */\n      0x64\n      add\n        /* \"contracts/Staking.sol\":2516:2576  require(staker.amount == 0, \"You have already staked VRL!!\") */\n      tag_97\n        /* \"#utility.yul\":9010:9363   */\n      jump\n        /* \"contracts/Staking.sol\":2516:2576  require(staker.amount == 0, \"You have already staked VRL!!\") */\n    tag_211:\n        /* \"contracts/Staking.sol\":2608:2613  token */\n      sload(0x01)\n        /* \"contracts/Staking.sol\":2608:2662  token.transferFrom(msg.sender, address(this), _amount) */\n      mload(0x40)\n      shl(0xe0, 0x23b872dd)\n      dup2\n      mstore\n        /* \"contracts/Staking.sol\":2627:2637  msg.sender */\n      caller\n        /* \"contracts/Staking.sol\":2608:2662  token.transferFrom(msg.sender, address(this), _amount) */\n      0x04\n      dup3\n      add\n        /* \"#utility.yul\":9608:9642   */\n      mstore\n        /* \"contracts/Staking.sol\":2647:2651  this */\n      address\n        /* \"#utility.yul\":9658:9676   */\n      0x24\n      dup3\n      add\n        /* \"#utility.yul\":9651:9694   */\n      mstore\n        /* \"#utility.yul\":9710:9728   */\n      0x44\n      dup2\n      add\n        /* \"#utility.yul\":9703:9737   */\n      dup6\n      swap1\n      mstore\n      sub(shl(0xa0, 0x01), 0x01)\n        /* \"contracts/Staking.sol\":2608:2613  token */\n      swap1\n      swap2\n      and\n      swap1\n        /* \"contracts/Staking.sol\":2608:2626  token.transferFrom */\n      0x23b872dd\n      swap1\n        /* \"#utility.yul\":9543:9561   */\n      0x64\n      add\n        /* \"contracts/Staking.sol\":2608:2662  token.transferFrom(msg.sender, address(this), _amount) */\n      0x20\n      mload(0x40)\n      dup1\n      dup4\n      sub\n      dup2\n      0x00\n      dup8\n      gas\n      call\n      iszero\n      dup1\n      iszero\n      tag_217\n      jumpi\n      returndatasize\n      0x00\n      dup1\n      returndatacopy\n      revert(0x00, returndatasize)\n    tag_217:\n      pop\n      pop\n      pop\n      pop\n      mload(0x40)\n      returndatasize\n      not(0x1f)\n      0x1f\n      dup3\n      add\n      and\n      dup3\n      add\n      dup1\n      0x40\n      mstore\n      pop\n      dup2\n      add\n      swap1\n      tag_218\n      swap2\n      swap1\n      tag_110\n      jump\t// in\n    tag_218:\n        /* \"contracts/Staking.sol\":2587:2709  require(... */\n      tag_219\n      jumpi\n      mload(0x40)\n      shl(0xe5, 0x461bcd)\n      dup2\n      mstore\n      0x04\n      add\n      tag_97\n      swap1\n      tag_161\n      jump\t// in\n    tag_219:\n        /* \"contracts/Staking.sol\":2728:2736  isPaused */\n      sload(0x01)\n      shl(0xa0, 0x01)\n      swap1\n      div\n      0xff\n      and\n        /* \"contracts/Staking.sol\":2727:2736  !isPaused */\n      iszero\n        /* \"contracts/Staking.sol\":2719:2760  require(!isPaused, \"Staking is paused!!\") */\n      tag_221\n      jumpi\n      mload(0x40)\n      shl(0xe5, 0x461bcd)\n      dup2\n      mstore\n        /* \"#utility.yul\":9950:9952   */\n      0x20\n        /* \"contracts/Staking.sol\":2719:2760  require(!isPaused, \"Staking is paused!!\") */\n      0x04\n      dup3\n      add\n        /* \"#utility.yul\":9932:9953   */\n      mstore\n        /* \"#utility.yul\":9989:9991   */\n      0x13\n        /* \"#utility.yul\":9969:9987   */\n      0x24\n      dup3\n      add\n        /* \"#utility.yul\":9962:9992   */\n      mstore\n      shl(0x68, 0x5374616b696e67206973207061757365642121)\n        /* \"#utility.yul\":10008:10026   */\n      0x44\n      dup3\n      add\n        /* \"#utility.yul\":10001:10050   */\n      mstore\n        /* \"#utility.yul\":10067:10085   */\n      0x64\n      add\n        /* \"contracts/Staking.sol\":2719:2760  require(!isPaused, \"Staking is paused!!\") */\n      tag_97\n        /* \"#utility.yul\":9748:10091   */\n      jump\n        /* \"contracts/Staking.sol\":2719:2760  require(!isPaused, \"Staking is paused!!\") */\n    tag_221:\n        /* \"contracts/Staking.sol\":2793:2966  Stake({... */\n      0x40\n      dup1\n      mload\n      0x80\n      dup2\n      add\n      dup3\n      mstore\n      dup5\n      dup2\n      mstore\n        /* \"contracts/Staking.sol\":2853:2868  block.timestamp */\n      timestamp\n        /* \"contracts/Staking.sol\":2793:2966  Stake({... */\n      0x20\n      dup1\n      dup4\n      add\n      dup3\n      dup2\n      mstore\n      dup4\n      dup6\n      add\n      dup4\n      dup2\n      mstore\n      0x60\n      dup1\n      dup7\n      add\n      dup10\n      dup2\n      mstore\n        /* \"contracts/Staking.sol\":2779:2789  msg.sender */\n      caller\n      0x00\n        /* \"contracts/Staking.sol\":2771:2790  stakers[msg.sender] */\n      dup2\n      dup2\n      mstore\n        /* \"contracts/Staking.sol\":2771:2778  stakers */\n      0x05\n        /* \"contracts/Staking.sol\":2771:2790  stakers[msg.sender] */\n      dup8\n      mstore\n      dup10\n      swap1\n      keccak256\n        /* \"contracts/Staking.sol\":2771:2966  stakers[msg.sender] = Stake({... */\n      swap8\n      mload\n      dup9\n      sstore\n      swap4\n      mload\n      0x01\n      dup9\n      add\n      sstore\n      swap2\n      mload\n      0x02\n      dup8\n      add\n      sstore\n      swap1\n      mload\n      0x03\n      swap1\n      swap6\n      add\n      swap5\n      swap1\n      swap5\n      sstore\n        /* \"contracts/Staking.sol\":2982:3042  Staked(msg.sender, _amount, block.timestamp, _durationIndex) */\n      dup5\n      mload\n        /* \"#utility.yul\":7570:7595   */\n      dup9\n      dup2\n      mstore\n        /* \"#utility.yul\":7611:7629   */\n      swap2\n      dup3\n      add\n        /* \"#utility.yul\":7604:7638   */\n      swap3\n      swap1\n      swap3\n      mstore\n        /* \"#utility.yul\":7654:7672   */\n      swap3\n      dup4\n      add\n        /* \"#utility.yul\":7647:7681   */\n      dup6\n      swap1\n      mstore\n        /* \"contracts/Staking.sol\":2779:2789  msg.sender */\n      swap2\n        /* \"contracts/Staking.sol\":2982:3042  Staked(msg.sender, _amount, block.timestamp, _durationIndex) */\n      0xb4caaf29adda3eefee3ad552a8e85058589bf834c7466cae4ee58787f70589ed\n      swap2\n        /* \"#utility.yul\":7543:7561   */\n      add\n        /* \"contracts/Staking.sol\":2982:3042  Staked(msg.sender, _amount, block.timestamp, _durationIndex) */\n    tag_224:\n      mload(0x40)\n      dup1\n      swap2\n      sub\n      swap1\n      log2\n        /* \"contracts/Staking.sol\":2273:3049  {... */\n      pop\n        /* \"contracts/Staking.sol\":2208:3049  function stake(uint256 _amount, uint256 _durationIndex) external {... */\n      pop\n      pop\n      jump\t// out\n        /* \"contracts/Staking.sol\":6823:7104  function getLastStakedClaimedTime(address _staker)... */\n    tag_66:\n      sub(shl(0xa0, 0x01), 0x01)\n        /* \"contracts/Staking.sol\":6972:6988  stakers[_staker] */\n      dup2\n      and\n        /* \"contracts/Staking.sol\":6921:6933  uint256 time */\n      0x00\n        /* \"contracts/Staking.sol\":6972:6988  stakers[_staker] */\n      swap1\n      dup2\n      mstore\n        /* \"contracts/Staking.sol\":6972:6979  stakers */\n      0x05\n        /* \"contracts/Staking.sol\":6972:6988  stakers[_staker] */\n      0x20\n      mstore\n      0x40\n      dup2\n      keccak256\n        /* \"contracts/Staking.sol\":7006:7019  staker.amount */\n      dup1\n      sload\n        /* \"contracts/Staking.sol\":6998:7060  require(staker.amount > 0, \"No staked amount for the address\") */\n      tag_226\n      jumpi\n      mload(0x40)\n      shl(0xe5, 0x461bcd)\n      dup2\n      mstore\n      0x04\n      add\n      tag_97\n      swap1\n      tag_114\n      jump\t// in\n    tag_226:\n        /* \"contracts/Staking.sol\":7077:7097  staker.lastClaimTime */\n      0x02\n      add\n      sload\n      swap3\n        /* \"contracts/Staking.sol\":6823:7104  function getLastStakedClaimedTime(address _staker)... */\n      swap2\n      pop\n      pop\n      jump\t// out\n        /* \"contracts/Staking.sol\":4868:5770  function claimReward() external {... */\n    tag_73:\n        /* \"contracts/Staking.sol\":4941:4951  msg.sender */\n      caller\n        /* \"contracts/Staking.sol\":4910:4930  Stake storage staker */\n      0x00\n        /* \"contracts/Staking.sol\":4933:4952  stakers[msg.sender] */\n      swap1\n      dup2\n      mstore\n        /* \"contracts/Staking.sol\":4933:4940  stakers */\n      0x05\n        /* \"contracts/Staking.sol\":4933:4952  stakers[msg.sender] */\n      0x20\n      mstore\n      0x40\n      swap1\n      keccak256\n        /* \"contracts/Staking.sol\":4971:4984  staker.amount */\n      dup1\n      sload\n        /* \"contracts/Staking.sol\":4963:5026  require(staker.amount > 0, \"No staked amount to claim rewards\") */\n      tag_229\n      jumpi\n      mload(0x40)\n      shl(0xe5, 0x461bcd)\n      dup2\n      mstore\n        /* \"#utility.yul\":10298:10300   */\n      0x20\n        /* \"contracts/Staking.sol\":4963:5026  require(staker.amount > 0, \"No staked amount to claim rewards\") */\n      0x04\n      dup3\n      add\n        /* \"#utility.yul\":10280:10301   */\n      mstore\n        /* \"#utility.yul\":10337:10339   */\n      0x21\n        /* \"#utility.yul\":10317:10335   */\n      0x24\n      dup3\n      add\n        /* \"#utility.yul\":10310:10340   */\n      mstore\n        /* \"#utility.yul\":10376:10410   */\n      0x4e6f207374616b656420616d6f756e7420746f20636c61696d20726577617264\n        /* \"#utility.yul\":10356:10374   */\n      0x44\n      dup3\n      add\n        /* \"#utility.yul\":10349:10411   */\n      mstore\n      shl(0xf8, 0x73)\n        /* \"#utility.yul\":10427:10445   */\n      0x64\n      dup3\n      add\n        /* \"#utility.yul\":10420:10451   */\n      mstore\n        /* \"#utility.yul\":10468:10487   */\n      0x84\n      add\n        /* \"contracts/Staking.sol\":4963:5026  require(staker.amount > 0, \"No staked amount to claim rewards\") */\n      tag_97\n        /* \"#utility.yul\":10096:10493   */\n      jump\n        /* \"contracts/Staking.sol\":4963:5026  require(staker.amount > 0, \"No staked amount to claim rewards\") */\n    tag_229:\n        /* \"contracts/Staking.sol\":5115:5129  stakeDurations */\n      0x03\n        /* \"contracts/Staking.sol\":5130:5136  staker */\n      dup2\n        /* \"contracts/Staking.sol\":5130:5150  staker.durationIndex */\n      0x03\n      add\n      sload\n        /* \"contracts/Staking.sol\":5115:5151  stakeDurations[staker.durationIndex] */\n      dup2\n      sload\n      dup2\n      lt\n      tag_233\n      jumpi\n      tag_233\n      tag_120\n      jump\t// in\n    tag_233:\n      swap1\n      0x00\n      mstore\n      keccak256(0x00, 0x20)\n      add\n      sload\n        /* \"contracts/Staking.sol\":5092:5098  staker */\n      dup2\n        /* \"contracts/Staking.sol\":5092:5112  staker.lastClaimTime */\n      0x02\n      add\n      sload\n        /* \"contracts/Staking.sol\":5092:5151  staker.lastClaimTime + stakeDurations[staker.durationIndex] */\n      tag_235\n      swap2\n      swap1\n      tag_125\n      jump\t// in\n    tag_235:\n        /* \"contracts/Staking.sol\":5057:5072  block.timestamp */\n      timestamp\n        /* \"contracts/Staking.sol\":5057:5151  block.timestamp >=... */\n      lt\n      iszero\n        /* \"contracts/Staking.sol\":5036:5205  require(... */\n      tag_236\n      jumpi\n      mload(0x40)\n      shl(0xe5, 0x461bcd)\n      dup2\n      mstore\n        /* \"#utility.yul\":10700:10702   */\n      0x20\n        /* \"contracts/Staking.sol\":5036:5205  require(... */\n      0x04\n      dup3\n      add\n        /* \"#utility.yul\":10682:10703   */\n      mstore\n        /* \"#utility.yul\":10739:10741   */\n      0x1c\n        /* \"#utility.yul\":10719:10737   */\n      0x24\n      dup3\n      add\n        /* \"#utility.yul\":10712:10742   */\n      mstore\n        /* \"#utility.yul\":10778:10808   */\n      0x4d696e696d756d20636c61696d20706572696f64206e6f74206d657400000000\n        /* \"#utility.yul\":10758:10776   */\n      0x44\n      dup3\n      add\n        /* \"#utility.yul\":10751:10809   */\n      mstore\n        /* \"#utility.yul\":10826:10844   */\n      0x64\n      add\n        /* \"contracts/Staking.sol\":5036:5205  require(... */\n      tag_97\n        /* \"#utility.yul\":10498:10850   */\n      jump\n        /* \"contracts/Staking.sol\":5036:5205  require(... */\n    tag_236:\n        /* \"contracts/Staking.sol\":5270:5283  staker.amount */\n      dup1\n      sload\n        /* \"contracts/Staking.sol\":5237:5242  token */\n      sload(0x01)\n        /* \"contracts/Staking.sol\":5237:5267  token.balanceOf(address(this)) */\n      mload(0x40)\n      shl(0xe0, 0x70a08231)\n      dup2\n      mstore\n        /* \"contracts/Staking.sol\":5261:5265  this */\n      address\n        /* \"contracts/Staking.sol\":5237:5267  token.balanceOf(address(this)) */\n      0x04\n      dup3\n      add\n        /* \"#utility.yul\":1641:1692   */\n      mstore\n      sub(shl(0xa0, 0x01), 0x01)\n        /* \"contracts/Staking.sol\":5237:5242  token */\n      swap1\n      swap2\n      and\n      swap1\n        /* \"contracts/Staking.sol\":5237:5252  token.balanceOf */\n      0x70a08231\n      swap1\n        /* \"#utility.yul\":1614:1632   */\n      0x24\n      add\n        /* \"contracts/Staking.sol\":5237:5267  token.balanceOf(address(this)) */\n      0x20\n      mload(0x40)\n      dup1\n      dup4\n      sub\n      dup2\n      dup7\n      gas\n      staticcall\n      iszero\n      dup1\n      iszero\n      tag_241\n      jumpi\n      returndatasize\n      0x00\n      dup1\n      returndatacopy\n      revert(0x00, returndatasize)\n    tag_241:\n      pop\n      pop\n      pop\n      pop\n      mload(0x40)\n      returndatasize\n      not(0x1f)\n      0x1f\n      dup3\n      add\n      and\n      dup3\n      add\n      dup1\n      0x40\n      mstore\n      pop\n      dup2\n      add\n      swap1\n      tag_242\n      swap2\n      swap1\n      tag_104\n      jump\t// in\n    tag_242:\n        /* \"contracts/Staking.sol\":5237:5283  token.balanceOf(address(this)) > staker.amount */\n      gt\n        /* \"contracts/Staking.sol\":5216:5349  require(... */\n      tag_243\n      jumpi\n      mload(0x40)\n      shl(0xe5, 0x461bcd)\n      dup2\n      mstore\n      0x04\n      add\n      tag_97\n      swap1\n      tag_143\n      jump\t// in\n    tag_243:\n        /* \"contracts/Staking.sol\":5360:5383  uint256 stakingDuration */\n      0x00\n        /* \"contracts/Staking.sol\":5404:5410  staker */\n      dup2\n        /* \"contracts/Staking.sol\":5404:5424  staker.lastClaimTime */\n      0x02\n      add\n      sload\n        /* \"contracts/Staking.sol\":5386:5401  block.timestamp */\n      timestamp\n        /* \"contracts/Staking.sol\":5386:5424  block.timestamp - staker.lastClaimTime */\n      tag_245\n      swap2\n      swap1\n      tag_117\n      jump\t// in\n    tag_245:\n        /* \"contracts/Staking.sol\":5360:5424  uint256 stakingDuration = block.timestamp - staker.lastClaimTime */\n      swap1\n      pop\n        /* \"contracts/Staking.sol\":5434:5448  uint256 reward */\n      0x00\n        /* \"contracts/Staking.sol\":5558:5568  rewardBase */\n      sload(0x02)\n        /* \"contracts/Staking.sol\":5548:5555  30 days */\n      0x278d00\n        /* \"contracts/Staking.sol\":5548:5568  30 days * rewardBase */\n      tag_246\n      swap2\n      swap1\n      tag_146\n      jump\t// in\n    tag_246:\n        /* \"contracts/Staking.sol\":5528:5543  stakingDuration */\n      dup3\n        /* \"contracts/Staking.sol\":5480:5491  rewardRates */\n      0x04\n        /* \"contracts/Staking.sol\":5492:5498  staker */\n      dup6\n        /* \"contracts/Staking.sol\":5492:5512  staker.durationIndex */\n      0x03\n      add\n      sload\n        /* \"contracts/Staking.sol\":5480:5513  rewardRates[staker.durationIndex] */\n      dup2\n      sload\n      dup2\n      lt\n      tag_248\n      jumpi\n      tag_248\n      tag_120\n      jump\t// in\n    tag_248:\n      swap1\n      0x00\n      mstore\n      keccak256(0x00, 0x20)\n      add\n      sload\n        /* \"contracts/Staking.sol\":5452:5458  staker */\n      dup6\n        /* \"contracts/Staking.sol\":5452:5465  staker.amount */\n      0x00\n      add\n      sload\n        /* \"contracts/Staking.sol\":5452:5513  staker.amount *... */\n      tag_250\n      swap2\n      swap1\n      tag_146\n      jump\t// in\n    tag_250:\n        /* \"contracts/Staking.sol\":5452:5543  staker.amount *... */\n      tag_251\n      swap2\n      swap1\n      tag_146\n      jump\t// in\n    tag_251:\n        /* \"contracts/Staking.sol\":5451:5569  (staker.amount *... */\n      tag_252\n      swap2\n      swap1\n      tag_153\n      jump\t// in\n    tag_252:\n        /* \"contracts/Staking.sol\":5588:5593  token */\n      sload(0x01)\n        /* \"contracts/Staking.sol\":5588:5622  token.transfer(msg.sender, reward) */\n      mload(0x40)\n      shl(0xe0, 0xa9059cbb)\n      dup2\n      mstore\n        /* \"contracts/Staking.sol\":5603:5613  msg.sender */\n      caller\n        /* \"contracts/Staking.sol\":5588:5622  token.transfer(msg.sender, reward) */\n      0x04\n      dup3\n      add\n        /* \"#utility.yul\":4258:4309   */\n      mstore\n        /* \"#utility.yul\":4325:4343   */\n      0x24\n      dup2\n      add\n        /* \"#utility.yul\":4318:4352   */\n      dup4\n      swap1\n      mstore\n        /* \"contracts/Staking.sol\":5434:5569  uint256 reward = (staker.amount *... */\n      swap2\n      swap3\n      pop\n      sub(shl(0xa0, 0x01), 0x01)\n        /* \"contracts/Staking.sol\":5588:5593  token */\n      and\n      swap1\n        /* \"contracts/Staking.sol\":5588:5602  token.transfer */\n      0xa9059cbb\n      swap1\n        /* \"#utility.yul\":4231:4249   */\n      0x44\n      add\n        /* \"contracts/Staking.sol\":5588:5622  token.transfer(msg.sender, reward) */\n      0x20\n      mload(0x40)\n      dup1\n      dup4\n      sub\n      dup2\n      0x00\n      dup8\n      gas\n      call\n      iszero\n      dup1\n      iszero\n      tag_255\n      jumpi\n      returndatasize\n      0x00\n      dup1\n      returndatacopy\n      revert(0x00, returndatasize)\n    tag_255:\n      pop\n      pop\n      pop\n      pop\n      mload(0x40)\n      returndatasize\n      not(0x1f)\n      0x1f\n      dup3\n      add\n      and\n      dup3\n      add\n      dup1\n      0x40\n      mstore\n      pop\n      dup2\n      add\n      swap1\n      tag_256\n      swap2\n      swap1\n      tag_110\n      jump\t// in\n    tag_256:\n        /* \"contracts/Staking.sol\":5580:5648  require(token.transfer(msg.sender, reward), \"Token transfer failed\") */\n      tag_257\n      jumpi\n      mload(0x40)\n      shl(0xe5, 0x461bcd)\n      dup2\n      mstore\n      0x04\n      add\n      tag_97\n      swap1\n      tag_161\n      jump\t// in\n    tag_257:\n        /* \"contracts/Staking.sol\":5682:5697  block.timestamp */\n      timestamp\n        /* \"contracts/Staking.sol\":5659:5679  staker.lastClaimTime */\n      0x02\n      dup5\n      add\n        /* \"contracts/Staking.sol\":5659:5697  staker.lastClaimTime = block.timestamp */\n      dup2\n      swap1\n      sstore\n        /* \"contracts/Staking.sol\":5713:5763  RewardClaimed(msg.sender, reward, block.timestamp) */\n      mload(0x40)\n        /* \"contracts/Staking.sol\":5727:5737  msg.sender */\n      caller\n      swap2\n        /* \"contracts/Staking.sol\":5713:5763  RewardClaimed(msg.sender, reward, block.timestamp) */\n      0xf01da32686223933d8a18a391060918c7f11a3648639edd87ae013e2e2731743\n      swap2\n      tag_224\n      swap2\n        /* \"contracts/Staking.sol\":5739:5745  reward */\n      dup6\n        /* \"#utility.yul\":8222:8247   */\n      dup3\n      mstore\n        /* \"#utility.yul\":8278:8280   */\n      0x20\n        /* \"#utility.yul\":8263:8281   */\n      dup3\n      add\n        /* \"#utility.yul\":8256:8290   */\n      mstore\n        /* \"#utility.yul\":8210:8212   */\n      0x40\n        /* \"#utility.yul\":8195:8213   */\n      add\n      swap1\n        /* \"#utility.yul\":8048:8296   */\n      jump\n        /* \"contracts/Staking.sol\":8054:8332  function changeRewardRates(uint256[] memory _newRates) external onlyOwner {... */\n    tag_77:\n        /* \"contracts/Staking.sol\":2060:2065  owner */\n      and(sub(shl(0xa0, 0x01), 0x01), sload(0x00))\n        /* \"contracts/Staking.sol\":2046:2056  msg.sender */\n      caller\n        /* \"contracts/Staking.sol\":2046:2065  msg.sender == owner */\n      eq\n        /* \"contracts/Staking.sol\":2038:2083  require(msg.sender == owner, \"Not the owner\") */\n      tag_261\n      jumpi\n      mload(0x40)\n      shl(0xe5, 0x461bcd)\n      dup2\n      mstore\n      0x04\n      add\n      tag_97\n      swap1\n      tag_98\n      jump\t// in\n    tag_261:\n        /* \"contracts/Staking.sol\":8179:8193  stakeDurations */\n      0x03\n        /* \"contracts/Staking.sol\":8179:8200  stakeDurations.length */\n      sload\n        /* \"contracts/Staking.sol\":8159:8175  _newRates.length */\n      dup2\n      mload\n        /* \"contracts/Staking.sol\":8159:8200  _newRates.length == stakeDurations.length */\n      eq\n        /* \"contracts/Staking.sol\":8138:8246  require(... */\n      tag_264\n      jumpi\n      mload(0x40)\n      shl(0xe5, 0x461bcd)\n      dup2\n      mstore\n        /* \"#utility.yul\":11057:11059   */\n      0x20\n        /* \"contracts/Staking.sol\":8138:8246  require(... */\n      0x04\n      dup3\n      add\n        /* \"#utility.yul\":11039:11060   */\n      mstore\n        /* \"#utility.yul\":11096:11098   */\n      0x14\n        /* \"#utility.yul\":11076:11094   */\n      0x24\n      dup3\n      add\n        /* \"#utility.yul\":11069:11099   */\n      mstore\n      shl(0x63, 0x092dcecc2d8d2c840e4c2e8cae640d8cadccee8d)\n        /* \"#utility.yul\":11115:11133   */\n      0x44\n      dup3\n      add\n        /* \"#utility.yul\":11108:11158   */\n      mstore\n        /* \"#utility.yul\":11175:11193   */\n      0x64\n      add\n        /* \"contracts/Staking.sol\":8138:8246  require(... */\n      tag_97\n        /* \"#utility.yul\":10855:11199   */\n      jump\n        /* \"contracts/Staking.sol\":8138:8246  require(... */\n    tag_264:\n        /* \"contracts/Staking.sol\":8257:8280  rewardRates = _newRates */\n      dup1\n      mload\n      tag_267\n      swap1\n        /* \"contracts/Staking.sol\":8257:8268  rewardRates */\n      0x04\n      swap1\n        /* \"contracts/Staking.sol\":8257:8280  rewardRates = _newRates */\n      0x20\n      dup5\n      add\n      swap1\n      tag_268\n      jump\t// in\n    tag_267:\n      pop\n        /* \"contracts/Staking.sol\":8296:8325  RewardRatesChanged(_newRates) */\n      0x1ec0e4ae421d51e732aa1ca2ee2239ffe79054ffe6aedb45b6a92e0d237ab814\n        /* \"contracts/Staking.sol\":8315:8324  _newRates */\n      dup2\n        /* \"contracts/Staking.sol\":8296:8325  RewardRatesChanged(_newRates) */\n      mload(0x40)\n      tag_269\n      swap2\n      swap1\n      tag_270\n      jump\t// in\n    tag_269:\n      mload(0x40)\n      dup1\n      swap2\n      sub\n      swap1\n      log1\n        /* \"contracts/Staking.sol\":8054:8332  function changeRewardRates(uint256[] memory _newRates) external onlyOwner {... */\n      pop\n      jump\t// out\n        /* \"contracts/Staking.sol\":1053:1105  uint256[] public stakeDurations = [30, 90, 180, 365] */\n    tag_81:\n      0x03\n      dup2\n      dup2\n      sload\n      dup2\n      lt\n      tag_271\n      jumpi\n      0x00\n      dup1\n      revert\n    tag_271:\n      0x00\n      swap2\n      dup3\n      mstore\n      0x20\n      swap1\n      swap2\n      keccak256\n      add\n      sload\n      swap1\n      pop\n      dup2\n      jump\t// out\n        /* \"contracts/Staking.sol\":1111:1159  uint256[] public rewardRates = [50, 66, 83, 125] */\n    tag_85:\n      0x04\n      dup2\n      dup2\n      sload\n      dup2\n      lt\n      tag_271\n      jumpi\n      0x00\n      dup1\n      revert\n        /* \"contracts/Staking.sol\":5776:6263  function getPendingRewards(address _staker)... */\n    tag_89:\n      sub(shl(0xa0, 0x01), 0x01)\n        /* \"contracts/Staking.sol\":5913:5929  stakers[_staker] */\n      dup2\n      and\n        /* \"contracts/Staking.sol\":5867:5874  uint256 */\n      0x00\n        /* \"contracts/Staking.sol\":5913:5929  stakers[_staker] */\n      swap1\n      dup2\n      mstore\n        /* \"contracts/Staking.sol\":5913:5920  stakers */\n      0x05\n        /* \"contracts/Staking.sol\":5913:5929  stakers[_staker] */\n      0x20\n      mstore\n      0x40\n      dup2\n      keccak256\n        /* \"contracts/Staking.sol\":5944:5957  staker.amount */\n      dup1\n      sload\n        /* \"contracts/Staking.sol\":5944:5962  staker.amount == 0 */\n      dup3\n      sub\n        /* \"contracts/Staking.sol\":5940:5997  if (staker.amount == 0) {... */\n      tag_276\n      jumpi\n      pop\n        /* \"contracts/Staking.sol\":5985:5986  0 */\n      0x00\n      swap3\n        /* \"contracts/Staking.sol\":5776:6263  function getPendingRewards(address _staker)... */\n      swap2\n      pop\n      pop\n      jump\t// out\n        /* \"contracts/Staking.sol\":5940:5997  if (staker.amount == 0) {... */\n    tag_276:\n        /* \"contracts/Staking.sol\":6007:6030  uint256 stakingDuration */\n      0x00\n        /* \"contracts/Staking.sol\":6051:6057  staker */\n      dup2\n        /* \"contracts/Staking.sol\":6051:6071  staker.lastClaimTime */\n      0x02\n      add\n      sload\n        /* \"contracts/Staking.sol\":6033:6048  block.timestamp */\n      timestamp\n        /* \"contracts/Staking.sol\":6033:6071  block.timestamp - staker.lastClaimTime */\n      tag_277\n      swap2\n      swap1\n      tag_117\n      jump\t// in\n    tag_277:\n        /* \"contracts/Staking.sol\":6007:6071  uint256 stakingDuration = block.timestamp - staker.lastClaimTime */\n      swap1\n      pop\n        /* \"contracts/Staking.sol\":6081:6103  uint256 pendingRewards */\n      0x00\n        /* \"contracts/Staking.sol\":6213:6223  rewardBase */\n      sload(0x02)\n        /* \"contracts/Staking.sol\":6203:6210  30 days */\n      0x278d00\n        /* \"contracts/Staking.sol\":6203:6223  30 days * rewardBase */\n      tag_278\n      swap2\n      swap1\n      tag_146\n      jump\t// in\n    tag_278:\n        /* \"contracts/Staking.sol\":6183:6198  stakingDuration */\n      dup3\n        /* \"contracts/Staking.sol\":6135:6146  rewardRates */\n      0x04\n        /* \"contracts/Staking.sol\":6147:6153  staker */\n      dup6\n        /* \"contracts/Staking.sol\":6147:6167  staker.durationIndex */\n      0x03\n      add\n      sload\n        /* \"contracts/Staking.sol\":6135:6168  rewardRates[staker.durationIndex] */\n      dup2\n      sload\n      dup2\n      lt\n      tag_280\n      jumpi\n      tag_280\n      tag_120\n      jump\t// in\n    tag_280:\n      swap1\n      0x00\n      mstore\n      keccak256(0x00, 0x20)\n      add\n      sload\n        /* \"contracts/Staking.sol\":6107:6113  staker */\n      dup6\n        /* \"contracts/Staking.sol\":6107:6120  staker.amount */\n      0x00\n      add\n      sload\n        /* \"contracts/Staking.sol\":6107:6168  staker.amount *... */\n      tag_282\n      swap2\n      swap1\n      tag_146\n      jump\t// in\n    tag_282:\n        /* \"contracts/Staking.sol\":6107:6198  staker.amount *... */\n      tag_283\n      swap2\n      swap1\n      tag_146\n      jump\t// in\n    tag_283:\n        /* \"contracts/Staking.sol\":6106:6224  (staker.amount *... */\n      tag_284\n      swap2\n      swap1\n      tag_153\n      jump\t// in\n    tag_284:\n        /* \"contracts/Staking.sol\":6081:6224  uint256 pendingRewards = (staker.amount *... */\n      swap6\n        /* \"contracts/Staking.sol\":5776:6263  function getPendingRewards(address _staker)... */\n      swap5\n      pop\n      pop\n      pop\n      pop\n      pop\n      jump\t// out\n    tag_268:\n      dup3\n      dup1\n      sload\n      dup3\n      dup3\n      sstore\n      swap1\n      0x00\n      mstore\n      keccak256(0x00, 0x20)\n      swap1\n      dup2\n      add\n      swap3\n      dup3\n      iszero\n      tag_287\n      jumpi\n      swap2\n      0x20\n      mul\n      dup3\n      add\n    tag_286:\n      dup3\n      dup2\n      gt\n      iszero\n      tag_287\n      jumpi\n      dup3\n      mload\n      dup3\n      sstore\n      swap2\n      0x20\n      add\n      swap2\n      swap1\n      0x01\n      add\n      swap1\n      jump(tag_286)\n    tag_287:\n      pop\n      tag_288\n      swap3\n      swap2\n      pop\n      tag_289\n      jump\t// in\n    tag_288:\n      pop\n      swap1\n      jump\t// out\n    tag_289:\n    tag_290:\n      dup1\n      dup3\n      gt\n      iszero\n      tag_288\n      jumpi\n      0x00\n      dup2\n      sstore\n      0x01\n      add\n      jump(tag_290)\n        /* \"#utility.yul\":14:153   */\n    tag_292:\n      sub(shl(0xa0, 0x01), 0x01)\n        /* \"#utility.yul\":97:128   */\n      dup2\n      and\n        /* \"#utility.yul\":87:129   */\n      dup2\n      eq\n        /* \"#utility.yul\":77:147   */\n      tag_169\n      jumpi\n        /* \"#utility.yul\":143:144   */\n      0x00\n        /* \"#utility.yul\":140:141   */\n      dup1\n        /* \"#utility.yul\":133:145   */\n      revert\n        /* \"#utility.yul\":158:426   */\n    tag_27:\n        /* \"#utility.yul\":230:236   */\n      0x00\n        /* \"#utility.yul\":283:285   */\n      0x20\n        /* \"#utility.yul\":271:280   */\n      dup3\n        /* \"#utility.yul\":262:269   */\n      dup5\n        /* \"#utility.yul\":258:281   */\n      sub\n        /* \"#utility.yul\":254:286   */\n      slt\n        /* \"#utility.yul\":251:303   */\n      iszero\n      tag_300\n      jumpi\n        /* \"#utility.yul\":299:300   */\n      0x00\n        /* \"#utility.yul\":296:297   */\n      dup1\n        /* \"#utility.yul\":289:301   */\n      revert\n        /* \"#utility.yul\":251:303   */\n    tag_300:\n        /* \"#utility.yul\":338:347   */\n      dup2\n        /* \"#utility.yul\":325:348   */\n      calldataload\n        /* \"#utility.yul\":357:396   */\n      tag_301\n        /* \"#utility.yul\":390:395   */\n      dup2\n        /* \"#utility.yul\":357:396   */\n      tag_292\n      jump\t// in\n    tag_301:\n        /* \"#utility.yul\":415:420   */\n      swap4\n        /* \"#utility.yul\":158:426   */\n      swap3\n      pop\n      pop\n      pop\n      jump\t// out\n        /* \"#utility.yul\":873:991   */\n    tag_293:\n        /* \"#utility.yul\":959:964   */\n      dup1\n        /* \"#utility.yul\":952:965   */\n      iszero\n        /* \"#utility.yul\":945:966   */\n      iszero\n        /* \"#utility.yul\":938:943   */\n      dup2\n        /* \"#utility.yul\":935:967   */\n      eq\n        /* \"#utility.yul\":925:985   */\n      tag_169\n      jumpi\n        /* \"#utility.yul\":981:982   */\n      0x00\n        /* \"#utility.yul\":978:979   */\n      dup1\n        /* \"#utility.yul\":971:983   */\n      revert\n        /* \"#utility.yul\":996:1237   */\n    tag_48:\n        /* \"#utility.yul\":1052:1058   */\n      0x00\n        /* \"#utility.yul\":1105:1107   */\n      0x20\n        /* \"#utility.yul\":1093:1102   */\n      dup3\n        /* \"#utility.yul\":1084:1091   */\n      dup5\n        /* \"#utility.yul\":1080:1103   */\n      sub\n        /* \"#utility.yul\":1076:1108   */\n      slt\n        /* \"#utility.yul\":1073:1125   */\n      iszero\n      tag_309\n      jumpi\n        /* \"#utility.yul\":1121:1122   */\n      0x00\n        /* \"#utility.yul\":1118:1119   */\n      dup1\n        /* \"#utility.yul\":1111:1123   */\n      revert\n        /* \"#utility.yul\":1073:1125   */\n    tag_309:\n        /* \"#utility.yul\":1160:1169   */\n      dup2\n        /* \"#utility.yul\":1147:1170   */\n      calldataload\n        /* \"#utility.yul\":1179:1207   */\n      tag_301\n        /* \"#utility.yul\":1201:1206   */\n      dup2\n        /* \"#utility.yul\":1179:1207   */\n      tag_293\n      jump\t// in\n        /* \"#utility.yul\":1242:1490   */\n    tag_58:\n        /* \"#utility.yul\":1310:1316   */\n      0x00\n        /* \"#utility.yul\":1318:1324   */\n      dup1\n        /* \"#utility.yul\":1371:1373   */\n      0x40\n        /* \"#utility.yul\":1359:1368   */\n      dup4\n        /* \"#utility.yul\":1350:1357   */\n      dup6\n        /* \"#utility.yul\":1346:1369   */\n      sub\n        /* \"#utility.yul\":1342:1374   */\n      slt\n        /* \"#utility.yul\":1339:1391   */\n      iszero\n      tag_312\n      jumpi\n        /* \"#utility.yul\":1387:1388   */\n      0x00\n        /* \"#utility.yul\":1384:1385   */\n      dup1\n        /* \"#utility.yul\":1377:1389   */\n      revert\n        /* \"#utility.yul\":1339:1391   */\n    tag_312:\n      pop\n      pop\n        /* \"#utility.yul\":1410:1433   */\n      dup1\n      calldataload\n      swap3\n        /* \"#utility.yul\":1480:1482   */\n      0x20\n        /* \"#utility.yul\":1465:1483   */\n      swap1\n      swap2\n      add\n        /* \"#utility.yul\":1452:1484   */\n      calldataload\n      swap2\n      pop\n        /* \"#utility.yul\":1242:1490   */\n      jump\t// out\n        /* \"#utility.yul\":1895:2022   */\n    tag_294:\n        /* \"#utility.yul\":1956:1966   */\n      0x4e487b71\n        /* \"#utility.yul\":1951:1954   */\n      0xe0\n        /* \"#utility.yul\":1947:1967   */\n      shl\n        /* \"#utility.yul\":1944:1945   */\n      0x00\n        /* \"#utility.yul\":1937:1968   */\n      mstore\n        /* \"#utility.yul\":1987:1991   */\n      0x41\n        /* \"#utility.yul\":1984:1985   */\n      0x04\n        /* \"#utility.yul\":1977:1992   */\n      mstore\n        /* \"#utility.yul\":2011:2015   */\n      0x24\n        /* \"#utility.yul\":2008:2009   */\n      0x00\n        /* \"#utility.yul\":2001:2016   */\n      revert\n        /* \"#utility.yul\":2027:3142   */\n    tag_76:\n        /* \"#utility.yul\":2111:2117   */\n      0x00\n        /* \"#utility.yul\":2142:2144   */\n      0x20\n        /* \"#utility.yul\":2185:2187   */\n      dup1\n        /* \"#utility.yul\":2173:2182   */\n      dup4\n        /* \"#utility.yul\":2164:2171   */\n      dup6\n        /* \"#utility.yul\":2160:2183   */\n      sub\n        /* \"#utility.yul\":2156:2188   */\n      slt\n        /* \"#utility.yul\":2153:2205   */\n      iszero\n      tag_317\n      jumpi\n        /* \"#utility.yul\":2201:2202   */\n      0x00\n        /* \"#utility.yul\":2198:2199   */\n      dup1\n        /* \"#utility.yul\":2191:2203   */\n      revert\n        /* \"#utility.yul\":2153:2205   */\n    tag_317:\n        /* \"#utility.yul\":2241:2250   */\n      dup3\n        /* \"#utility.yul\":2228:2251   */\n      calldataload\n        /* \"#utility.yul\":2270:2288   */\n      0xffffffffffffffff\n        /* \"#utility.yul\":2311:2313   */\n      dup1\n        /* \"#utility.yul\":2303:2309   */\n      dup3\n        /* \"#utility.yul\":2300:2314   */\n      gt\n        /* \"#utility.yul\":2297:2331   */\n      iszero\n      tag_318\n      jumpi\n        /* \"#utility.yul\":2327:2328   */\n      0x00\n        /* \"#utility.yul\":2324:2325   */\n      dup1\n        /* \"#utility.yul\":2317:2329   */\n      revert\n        /* \"#utility.yul\":2297:2331   */\n    tag_318:\n        /* \"#utility.yul\":2365:2371   */\n      dup2\n        /* \"#utility.yul\":2354:2363   */\n      dup6\n        /* \"#utility.yul\":2350:2372   */\n      add\n        /* \"#utility.yul\":2340:2372   */\n      swap2\n      pop\n        /* \"#utility.yul\":2410:2417   */\n      dup6\n        /* \"#utility.yul\":2403:2407   */\n      0x1f\n        /* \"#utility.yul\":2399:2401   */\n      dup4\n        /* \"#utility.yul\":2395:2408   */\n      add\n        /* \"#utility.yul\":2391:2418   */\n      slt\n        /* \"#utility.yul\":2381:2436   */\n      tag_319\n      jumpi\n        /* \"#utility.yul\":2432:2433   */\n      0x00\n        /* \"#utility.yul\":2429:2430   */\n      dup1\n        /* \"#utility.yul\":2422:2434   */\n      revert\n        /* \"#utility.yul\":2381:2436   */\n    tag_319:\n        /* \"#utility.yul\":2468:2470   */\n      dup2\n        /* \"#utility.yul\":2455:2471   */\n      calldataload\n        /* \"#utility.yul\":2490:2492   */\n      dup2\n        /* \"#utility.yul\":2486:2488   */\n      dup2\n        /* \"#utility.yul\":2483:2493   */\n      gt\n        /* \"#utility.yul\":2480:2516   */\n      iszero\n      tag_321\n      jumpi\n        /* \"#utility.yul\":2496:2514   */\n      tag_321\n      tag_294\n      jump\t// in\n    tag_321:\n        /* \"#utility.yul\":2542:2544   */\n      dup1\n        /* \"#utility.yul\":2539:2540   */\n      0x05\n        /* \"#utility.yul\":2535:2545   */\n      shl\n        /* \"#utility.yul\":2574:2576   */\n      0x40\n        /* \"#utility.yul\":2568:2577   */\n      mload\n        /* \"#utility.yul\":2637:2639   */\n      0x1f\n        /* \"#utility.yul\":2633:2640   */\n      not\n        /* \"#utility.yul\":2628:2630   */\n      0x3f\n        /* \"#utility.yul\":2624:2626   */\n      dup4\n        /* \"#utility.yul\":2620:2631   */\n      add\n        /* \"#utility.yul\":2616:2641   */\n      and\n        /* \"#utility.yul\":2608:2614   */\n      dup2\n        /* \"#utility.yul\":2604:2642   */\n      add\n        /* \"#utility.yul\":2692:2698   */\n      dup2\n        /* \"#utility.yul\":2680:2690   */\n      dup2\n        /* \"#utility.yul\":2677:2699   */\n      lt\n        /* \"#utility.yul\":2672:2674   */\n      dup6\n        /* \"#utility.yul\":2660:2670   */\n      dup3\n        /* \"#utility.yul\":2657:2675   */\n      gt\n        /* \"#utility.yul\":2654:2700   */\n      or\n        /* \"#utility.yul\":2651:2723   */\n      iszero\n      tag_323\n      jumpi\n        /* \"#utility.yul\":2703:2721   */\n      tag_323\n      tag_294\n      jump\t// in\n    tag_323:\n        /* \"#utility.yul\":2739:2741   */\n      0x40\n        /* \"#utility.yul\":2732:2754   */\n      mstore\n        /* \"#utility.yul\":2789:2807   */\n      swap2\n      dup3\n      mstore\n        /* \"#utility.yul\":2823:2838   */\n      dup5\n      dup3\n      add\n      swap3\n      pop\n        /* \"#utility.yul\":2865:2876   */\n      dup4\n      dup2\n      add\n        /* \"#utility.yul\":2861:2881   */\n      dup6\n      add\n      swap2\n        /* \"#utility.yul\":2893:2912   */\n      dup9\n      dup4\n      gt\n        /* \"#utility.yul\":2890:2929   */\n      iszero\n      tag_324\n      jumpi\n        /* \"#utility.yul\":2925:2926   */\n      0x00\n        /* \"#utility.yul\":2922:2923   */\n      dup1\n        /* \"#utility.yul\":2915:2927   */\n      revert\n        /* \"#utility.yul\":2890:2929   */\n    tag_324:\n        /* \"#utility.yul\":2949:2960   */\n      swap4\n      dup6\n      add\n      swap4\n        /* \"#utility.yul\":2969:3111   */\n    tag_325:\n        /* \"#utility.yul\":2985:2991   */\n      dup3\n        /* \"#utility.yul\":2980:2983   */\n      dup6\n        /* \"#utility.yul\":2977:2992   */\n      lt\n        /* \"#utility.yul\":2969:3111   */\n      iszero\n      tag_327\n      jumpi\n        /* \"#utility.yul\":3051:3068   */\n      dup5\n      calldataload\n        /* \"#utility.yul\":3039:3069   */\n      dup5\n      mstore\n        /* \"#utility.yul\":3002:3014   */\n      swap4\n      dup6\n      add\n      swap4\n        /* \"#utility.yul\":3089:3101   */\n      swap3\n      dup6\n      add\n      swap3\n        /* \"#utility.yul\":2969:3111   */\n      jump(tag_325)\n    tag_327:\n        /* \"#utility.yul\":3130:3136   */\n      swap9\n        /* \"#utility.yul\":2027:3142   */\n      swap8\n      pop\n      pop\n      pop\n      pop\n      pop\n      pop\n      pop\n      pop\n      jump\t// out\n        /* \"#utility.yul\":3147:3327   */\n    tag_80:\n        /* \"#utility.yul\":3206:3212   */\n      0x00\n        /* \"#utility.yul\":3259:3261   */\n      0x20\n        /* \"#utility.yul\":3247:3256   */\n      dup3\n        /* \"#utility.yul\":3238:3245   */\n      dup5\n        /* \"#utility.yul\":3234:3257   */\n      sub\n        /* \"#utility.yul\":3230:3262   */\n      slt\n        /* \"#utility.yul\":3227:3279   */\n      iszero\n      tag_329\n      jumpi\n        /* \"#utility.yul\":3275:3276   */\n      0x00\n        /* \"#utility.yul\":3272:3273   */\n      dup1\n        /* \"#utility.yul\":3265:3277   */\n      revert\n        /* \"#utility.yul\":3227:3279   */\n    tag_329:\n      pop\n        /* \"#utility.yul\":3298:3321   */\n      calldataload\n      swap2\n        /* \"#utility.yul\":3147:3327   */\n      swap1\n      pop\n      jump\t// out\n        /* \"#utility.yul\":3553:3890   */\n    tag_98:\n        /* \"#utility.yul\":3755:3757   */\n      0x20\n        /* \"#utility.yul\":3737:3758   */\n      dup1\n      dup3\n      mstore\n        /* \"#utility.yul\":3794:3796   */\n      0x0d\n        /* \"#utility.yul\":3774:3792   */\n      swap1\n      dup3\n      add\n        /* \"#utility.yul\":3767:3797   */\n      mstore\n      shl(0x99, 0x2737ba103a34329037bbb732b9)\n        /* \"#utility.yul\":3828:3830   */\n      0x40\n        /* \"#utility.yul\":3813:3831   */\n      dup3\n      add\n        /* \"#utility.yul\":3806:3849   */\n      mstore\n        /* \"#utility.yul\":3881:3883   */\n      0x60\n        /* \"#utility.yul\":3866:3884   */\n      add\n      swap1\n        /* \"#utility.yul\":3553:3890   */\n      jump\t// out\n        /* \"#utility.yul\":3895:4079   */\n    tag_104:\n        /* \"#utility.yul\":3965:3971   */\n      0x00\n        /* \"#utility.yul\":4018:4020   */\n      0x20\n        /* \"#utility.yul\":4006:4015   */\n      dup3\n        /* \"#utility.yul\":3997:4004   */\n      dup5\n        /* \"#utility.yul\":3993:4016   */\n      sub\n        /* \"#utility.yul\":3989:4021   */\n      slt\n        /* \"#utility.yul\":3986:4038   */\n      iszero\n      tag_333\n      jumpi\n        /* \"#utility.yul\":4034:4035   */\n      0x00\n        /* \"#utility.yul\":4031:4032   */\n      dup1\n        /* \"#utility.yul\":4024:4036   */\n      revert\n        /* \"#utility.yul\":3986:4038   */\n    tag_333:\n      pop\n        /* \"#utility.yul\":4057:4073   */\n      mload\n      swap2\n        /* \"#utility.yul\":3895:4079   */\n      swap1\n      pop\n      jump\t// out\n        /* \"#utility.yul\":4363:4608   */\n    tag_110:\n        /* \"#utility.yul\":4430:4436   */\n      0x00\n        /* \"#utility.yul\":4483:4485   */\n      0x20\n        /* \"#utility.yul\":4471:4480   */\n      dup3\n        /* \"#utility.yul\":4462:4469   */\n      dup5\n        /* \"#utility.yul\":4458:4481   */\n      sub\n        /* \"#utility.yul\":4454:4486   */\n      slt\n        /* \"#utility.yul\":4451:4503   */\n      iszero\n      tag_336\n      jumpi\n        /* \"#utility.yul\":4499:4500   */\n      0x00\n        /* \"#utility.yul\":4496:4497   */\n      dup1\n        /* \"#utility.yul\":4489:4501   */\n      revert\n        /* \"#utility.yul\":4451:4503   */\n    tag_336:\n        /* \"#utility.yul\":4531:4540   */\n      dup2\n        /* \"#utility.yul\":4525:4541   */\n      mload\n        /* \"#utility.yul\":4550:4578   */\n      tag_301\n        /* \"#utility.yul\":4572:4577   */\n      dup2\n        /* \"#utility.yul\":4550:4578   */\n      tag_293\n      jump\t// in\n        /* \"#utility.yul\":4613:4969   */\n    tag_114:\n        /* \"#utility.yul\":4815:4817   */\n      0x20\n        /* \"#utility.yul\":4797:4818   */\n      dup1\n      dup3\n      mstore\n        /* \"#utility.yul\":4834:4852   */\n      dup2\n      dup2\n      add\n        /* \"#utility.yul\":4827:4857   */\n      mstore\n        /* \"#utility.yul\":4893:4927   */\n      0x4e6f207374616b656420616d6f756e7420666f72207468652061646472657373\n        /* \"#utility.yul\":4888:4890   */\n      0x40\n        /* \"#utility.yul\":4873:4891   */\n      dup3\n      add\n        /* \"#utility.yul\":4866:4928   */\n      mstore\n        /* \"#utility.yul\":4960:4962   */\n      0x60\n        /* \"#utility.yul\":4945:4963   */\n      add\n      swap1\n        /* \"#utility.yul\":4613:4969   */\n      jump\t// out\n        /* \"#utility.yul\":4974:5101   */\n    tag_295:\n        /* \"#utility.yul\":5035:5045   */\n      0x4e487b71\n        /* \"#utility.yul\":5030:5033   */\n      0xe0\n        /* \"#utility.yul\":5026:5046   */\n      shl\n        /* \"#utility.yul\":5023:5024   */\n      0x00\n        /* \"#utility.yul\":5016:5047   */\n      mstore\n        /* \"#utility.yul\":5066:5070   */\n      0x11\n        /* \"#utility.yul\":5063:5064   */\n      0x04\n        /* \"#utility.yul\":5056:5071   */\n      mstore\n        /* \"#utility.yul\":5090:5094   */\n      0x24\n        /* \"#utility.yul\":5087:5088   */\n      0x00\n        /* \"#utility.yul\":5080:5095   */\n      revert\n        /* \"#utility.yul\":5106:5234   */\n    tag_117:\n        /* \"#utility.yul\":5173:5182   */\n      dup2\n      dup2\n      sub\n        /* \"#utility.yul\":5194:5205   */\n      dup2\n      dup2\n      gt\n        /* \"#utility.yul\":5191:5228   */\n      iszero\n      tag_342\n      jumpi\n        /* \"#utility.yul\":5208:5226   */\n      tag_342\n      tag_295\n      jump\t// in\n    tag_342:\n        /* \"#utility.yul\":5106:5234   */\n      swap3\n      swap2\n      pop\n      pop\n      jump\t// out\n        /* \"#utility.yul\":5239:5366   */\n    tag_120:\n        /* \"#utility.yul\":5300:5310   */\n      0x4e487b71\n        /* \"#utility.yul\":5295:5298   */\n      0xe0\n        /* \"#utility.yul\":5291:5311   */\n      shl\n        /* \"#utility.yul\":5288:5289   */\n      0x00\n        /* \"#utility.yul\":5281:5312   */\n      mstore\n        /* \"#utility.yul\":5331:5335   */\n      0x32\n        /* \"#utility.yul\":5328:5329   */\n      0x04\n        /* \"#utility.yul\":5321:5336   */\n      mstore\n        /* \"#utility.yul\":5355:5359   */\n      0x24\n        /* \"#utility.yul\":5352:5353   */\n      0x00\n        /* \"#utility.yul\":5345:5360   */\n      revert\n        /* \"#utility.yul\":5371:5496   */\n    tag_125:\n        /* \"#utility.yul\":5436:5445   */\n      dup1\n      dup3\n      add\n        /* \"#utility.yul\":5457:5467   */\n      dup1\n      dup3\n      gt\n        /* \"#utility.yul\":5454:5490   */\n      iszero\n      tag_342\n      jumpi\n        /* \"#utility.yul\":5470:5488   */\n      tag_342\n      tag_295\n      jump\t// in\n        /* \"#utility.yul\":6214:6618   */\n    tag_143:\n        /* \"#utility.yul\":6416:6418   */\n      0x20\n        /* \"#utility.yul\":6398:6419   */\n      dup1\n      dup3\n      mstore\n        /* \"#utility.yul\":6455:6457   */\n      0x28\n        /* \"#utility.yul\":6435:6453   */\n      swap1\n      dup3\n      add\n        /* \"#utility.yul\":6428:6458   */\n      mstore\n        /* \"#utility.yul\":6494:6528   */\n      0x496e73756666696369656e742062616c616e636520696e207374616b696e6720\n        /* \"#utility.yul\":6489:6491   */\n      0x40\n        /* \"#utility.yul\":6474:6492   */\n      dup3\n      add\n        /* \"#utility.yul\":6467:6529   */\n      mstore\n      shl(0xc2, 0x18dbdb9d1c9858dd)\n        /* \"#utility.yul\":6560:6562   */\n      0x60\n        /* \"#utility.yul\":6545:6563   */\n      dup3\n      add\n        /* \"#utility.yul\":6538:6576   */\n      mstore\n        /* \"#utility.yul\":6608:6611   */\n      0x80\n        /* \"#utility.yul\":6593:6612   */\n      add\n      swap1\n        /* \"#utility.yul\":6214:6618   */\n      jump\t// out\n        /* \"#utility.yul\":6623:6791   */\n    tag_146:\n        /* \"#utility.yul\":6696:6705   */\n      dup1\n      dup3\n      mul\n        /* \"#utility.yul\":6727:6736   */\n      dup2\n      iszero\n        /* \"#utility.yul\":6744:6759   */\n      dup3\n      dup3\n      div\n        /* \"#utility.yul\":6738:6760   */\n      dup5\n      eq\n        /* \"#utility.yul\":6724:6761   */\n      or\n        /* \"#utility.yul\":6714:6785   */\n      tag_342\n      jumpi\n        /* \"#utility.yul\":6765:6783   */\n      tag_342\n      tag_295\n      jump\t// in\n        /* \"#utility.yul\":6796:7013   */\n    tag_153:\n        /* \"#utility.yul\":6836:6837   */\n      0x00\n        /* \"#utility.yul\":6862:6863   */\n      dup3\n        /* \"#utility.yul\":6852:6984   */\n      tag_354\n      jumpi\n        /* \"#utility.yul\":6906:6916   */\n      0x4e487b71\n        /* \"#utility.yul\":6901:6904   */\n      0xe0\n        /* \"#utility.yul\":6897:6917   */\n      shl\n        /* \"#utility.yul\":6894:6895   */\n      0x00\n        /* \"#utility.yul\":6887:6918   */\n      mstore\n        /* \"#utility.yul\":6941:6945   */\n      0x12\n        /* \"#utility.yul\":6938:6939   */\n      0x04\n        /* \"#utility.yul\":6931:6946   */\n      mstore\n        /* \"#utility.yul\":6969:6973   */\n      0x24\n        /* \"#utility.yul\":6966:6967   */\n      0x00\n        /* \"#utility.yul\":6959:6974   */\n      revert\n        /* \"#utility.yul\":6852:6984   */\n    tag_354:\n      pop\n        /* \"#utility.yul\":6998:7007   */\n      div\n      swap1\n        /* \"#utility.yul\":6796:7013   */\n      jump\t// out\n        /* \"#utility.yul\":7018:7363   */\n    tag_161:\n        /* \"#utility.yul\":7220:7222   */\n      0x20\n        /* \"#utility.yul\":7202:7223   */\n      dup1\n      dup3\n      mstore\n        /* \"#utility.yul\":7259:7261   */\n      0x15\n        /* \"#utility.yul\":7239:7257   */\n      swap1\n      dup3\n      add\n        /* \"#utility.yul\":7232:7262   */\n      mstore\n      shl(0x5a, 0x151bdad95b881d1c985b9cd9995c8819985a5b1959)\n        /* \"#utility.yul\":7293:7295   */\n      0x40\n        /* \"#utility.yul\":7278:7296   */\n      dup3\n      add\n        /* \"#utility.yul\":7271:7322   */\n      mstore\n        /* \"#utility.yul\":7354:7356   */\n      0x60\n        /* \"#utility.yul\":7339:7357   */\n      add\n      swap1\n        /* \"#utility.yul\":7018:7363   */\n      jump\t// out\n        /* \"#utility.yul\":11204:11836   */\n    tag_270:\n        /* \"#utility.yul\":11375:11377   */\n      0x20\n        /* \"#utility.yul\":11427:11448   */\n      dup1\n      dup3\n      mstore\n        /* \"#utility.yul\":11497:11510   */\n      dup3\n      mload\n        /* \"#utility.yul\":11400:11418   */\n      dup3\n      dup3\n      add\n        /* \"#utility.yul\":11519:11541   */\n      dup2\n      swap1\n      mstore\n        /* \"#utility.yul\":11346:11350   */\n      0x00\n      swap2\n        /* \"#utility.yul\":11375:11377   */\n      swap1\n        /* \"#utility.yul\":11598:11613   */\n      dup5\n      dup3\n      add\n      swap1\n        /* \"#utility.yul\":11572:11574   */\n      0x40\n        /* \"#utility.yul\":11557:11575   */\n      dup6\n      add\n      swap1\n        /* \"#utility.yul\":11346:11350   */\n      dup5\n        /* \"#utility.yul\":11641:11810   */\n    tag_368:\n        /* \"#utility.yul\":11655:11661   */\n      dup2\n        /* \"#utility.yul\":11652:11653   */\n      dup2\n        /* \"#utility.yul\":11649:11662   */\n      lt\n        /* \"#utility.yul\":11641:11810   */\n      iszero\n      tag_370\n      jumpi\n        /* \"#utility.yul\":11716:11729   */\n      dup4\n      mload\n        /* \"#utility.yul\":11704:11730   */\n      dup4\n      mstore\n        /* \"#utility.yul\":11785:11800   */\n      swap3\n      dup5\n      add\n      swap3\n        /* \"#utility.yul\":11750:11762   */\n      swap2\n      dup5\n      add\n      swap2\n        /* \"#utility.yul\":11677:11678   */\n      0x01\n        /* \"#utility.yul\":11670:11679   */\n      add\n        /* \"#utility.yul\":11641:11810   */\n      jump(tag_368)\n    tag_370:\n      pop\n        /* \"#utility.yul\":11827:11830   */\n      swap1\n      swap7\n        /* \"#utility.yul\":11204:11836   */\n      swap6\n      pop\n      pop\n      pop\n      pop\n      pop\n      pop\n      jump\t// out\n\n    auxdata: 0xa2646970667358221220afc4460c9371e3781e184d1d88c23e77027ba1efe1e6641df19f907f61c5479064736f6c63430008180033\n}\n",
				"bytecode": {
					"linkReferences": {},
					"object": "6001805460ff60a01b191690556103e8600255610100604052601e6080908152605a60a05260b460c05261016d60e0526200003f906003906004620000d7565b50604080516080810182526032815260426020820152605391810191909152607d60608201526200007490600490816200012b565b5034801562000081575f80fd5b506040516200170738038062001707833981016040819052620000a49162000182565b5f8054336001600160a01b031991821617909155600180549091166001600160a01b0392909216919091179055620001b1565b828054828255905f5260205f2090810192821562000119579160200282015b8281111562000119578251829061ffff16905591602001919060010190620000f6565b50620001279291506200016c565b5090565b828054828255905f5260205f2090810192821562000119579160200282015b8281111562000119578251829060ff169055916020019190600101906200014a565b5b8082111562000127575f81556001016200016d565b5f6020828403121562000193575f80fd5b81516001600160a01b0381168114620001aa575f80fd5b9392505050565b61154880620001bf5f395ff3fe608060405234801561000f575f80fd5b506004361061011c575f3560e01c80637b0472f0116100a9578063c55a7bce1161006e578063c55a7bce14610231578063de3e3eff14610244578063f2caeb1e14610257578063f6ed20171461026a578063fc0c546a1461027d575f80fd5b80637b0472f0146101b55780638da5cb5b146101c85780639bcf5c24146101f2578063b187bd2614610205578063b88a802f14610229575f80fd5b80634da6a556116100ef5780634da6a5561461016b578063562dead21461017e5780635769848c146101875780635a2883221461019a57806363624436146101ad575f80fd5b80630dfec300146101205780630e85117a146101355780632def66201461015b5780634289e4cd14610163575b5f80fd5b61013361012e3660046111f2565b610290565b005b6101486101433660046111f2565b6103ab565b6040519081526020015b60405180910390f35b61013361044e565b610133610731565b6101486101793660046111f2565b610794565b61014860025481565b610133610195366004611221565b6107d0565b6101486101a83660046111f2565b610817565b610133610856565b6101336101c336600461123c565b610aac565b5f546101da906001600160a01b031681565b6040516001600160a01b039091168152602001610152565b6101486102003660046111f2565b610d17565b60015461021990600160a01b900460ff1681565b6040519015158152602001610152565b610133610d56565b61013361023f366004611270565b610ffb565b610148610252366004611329565b6110bb565b610148610265366004611329565b6110da565b6101486102783660046111f2565b6110e9565b6001546101da906001600160a01b031681565b5f546001600160a01b031633146102c25760405162461bcd60e51b81526004016102b990611340565b60405180910390fd5b6001545f546040516370a0823160e01b81523060048201526001600160a01b039283169263a9059cbb92811691908516906370a0823190602401602060405180830381865afa158015610317573d5f803e3d5ffd5b505050506040513d601f19601f8201168201806040525081019061033b9190611367565b6040516001600160e01b031960e085901b1681526001600160a01b03909216600483015260248201526044016020604051808303815f875af1158015610383573d5f803e3d5ffd5b505050506040513d601f19601f820116820180604052508101906103a7919061137e565b5050565b6001600160a01b0381165f90815260056020526040812080546103e05760405162461bcd60e51b81526004016102b990611399565b5f81600101544211156103ff5760018201546103fc90426113e2565b90505b5f6003836003015481548110610417576104176113fb565b905f5260205f20015490505f818310156104385761043583836113e2565b90505b5f610443824261140f565b979650505050505050565b335f90815260056020526040902080546104aa5760405162461bcd60e51b815260206004820152601b60248201527f4e6f207374616b656420616d6f756e7420746f20756e7374616b65000000000060448201526064016102b9565b60038160030154815481106104c1576104c16113fb565b905f5260205f20015481600101546104d9919061140f565b4210156105285760405162461bcd60e51b815260206004820152601c60248201527f4d696e696d756d207374616b6520706572696f64206e6f74206d65740000000060448201526064016102b9565b80546001546040516370a0823160e01b81523060048201526001600160a01b03909116906370a0823190602401602060405180830381865afa158015610570573d5f803e3d5ffd5b505050506040513d601f19601f820116820180604052508101906105949190611367565b116105b15760405162461bcd60e51b81526004016102b990611422565b5f8160010154426105c291906113e2565b90505f60025462278d006105d6919061146a565b8260048560030154815481106105ee576105ee6113fb565b905f5260205f200154855f0154610605919061146a565b61060f919061146a565b6106199190611481565b60015484549192506001600160a01b03169063a9059cbb90339061063e90859061140f565b6040516001600160e01b031960e085901b1681526001600160a01b03909216600483015260248201526044016020604051808303815f875af1158015610686573d5f803e3d5ffd5b505050506040513d601f19601f820116820180604052508101906106aa919061137e565b6106c65760405162461bcd60e51b81526004016102b9906114a0565b825460408051918252426020830152810182905233907f204fccf0d92ed8d48f204adb39b2e81e92bad0dedb93f5716ca9478cfb57de009060600160405180910390a25050335f90815260056020526040812081815560018101829055600281018290556003015550565b5f546001600160a01b0316331461075a5760405162461bcd60e51b81526004016102b990611340565b5f80546040516001600160a01b03909116914780156108fc02929091818181858888f19350505050158015610791573d5f803e3d5ffd5b50565b6001600160a01b0381165f90815260056020526040812080546107c95760405162461bcd60e51b81526004016102b990611399565b5492915050565b5f546001600160a01b031633146107f95760405162461bcd60e51b81526004016102b990611340565b60018054911515600160a01b0260ff60a01b19909216919091179055565b6001600160a01b0381165f908152600560205260408120805461084c5760405162461bcd60e51b81526004016102b990611399565b6001015492915050565b335f90815260056020526040902080546108b25760405162461bcd60e51b815260206004820152601b60248201527f4e6f207374616b656420616d6f756e7420746f20756e7374616b65000000000060448201526064016102b9565b60038160030154815481106108c9576108c96113fb565b905f5260205f20015481600101546108e1919061140f565b4211156109305760405162461bcd60e51b815260206004820152601b60248201527f596f7520616c726561647920686176652061207265776172642121000000000060448201526064016102b9565b80546001546040516370a0823160e01b81523060048201526001600160a01b03909116906370a0823190602401602060405180830381865afa158015610978573d5f803e3d5ffd5b505050506040513d601f19601f8201168201806040525081019061099c9190611367565b116109b95760405162461bcd60e51b81526004016102b990611422565b600154815460405163a9059cbb60e01b815233600482015260248101919091526001600160a01b039091169063a9059cbb906044016020604051808303815f875af1158015610a0a573d5f803e3d5ffd5b505050506040513d601f19601f82011682018060405250810190610a2e919061137e565b610a4a5760405162461bcd60e51b81526004016102b9906114a0565b80546040805191825242602083015233917fe6ab0e0153d89c40616cb28f32194043cb0f5b7d3b343e9a54b5d45340513f76910160405180910390a250335f908152600560205260408120818155600181018290556002810182905560030155565b5f8211610afb5760405162461bcd60e51b815260206004820152601d60248201527f416d6f756e74206d7573742062652067726561746572207468616e203000000060448201526064016102b9565b6003548110610b455760405162461bcd60e51b8152602060048201526016602482015275092dcecc2d8d2c840c8eae4c2e8d2dedc40d2dcc8caf60531b60448201526064016102b9565b335f908152600560205260409020805415610ba25760405162461bcd60e51b815260206004820152601d60248201527f596f75206861766520616c7265616479207374616b65642056524c212100000060448201526064016102b9565b6001546040516323b872dd60e01b8152336004820152306024820152604481018590526001600160a01b03909116906323b872dd906064016020604051808303815f875af1158015610bf6573d5f803e3d5ffd5b505050506040513d601f19601f82011682018060405250810190610c1a919061137e565b610c365760405162461bcd60e51b81526004016102b9906114a0565b600154600160a01b900460ff1615610c865760405162461bcd60e51b81526020600482015260136024820152725374616b696e6720697320706175736564212160681b60448201526064016102b9565b604080516080810182528481524260208083018281528385018381526060808601898152335f818152600587528990209751885593516001880155915160028701559051600390950194909455845188815291820192909252928301859052917fb4caaf29adda3eefee3ad552a8e85058589bf834c7466cae4ee58787f70589ed91015b60405180910390a2505050565b6001600160a01b0381165f9081526005602052604081208054610d4c5760405162461bcd60e51b81526004016102b990611399565b6002015492915050565b335f9081526005602052604090208054610dbc5760405162461bcd60e51b815260206004820152602160248201527f4e6f207374616b656420616d6f756e7420746f20636c61696d207265776172646044820152607360f81b60648201526084016102b9565b6003816003015481548110610dd357610dd36113fb565b905f5260205f2001548160020154610deb919061140f565b421015610e3a5760405162461bcd60e51b815260206004820152601c60248201527f4d696e696d756d20636c61696d20706572696f64206e6f74206d65740000000060448201526064016102b9565b80546001546040516370a0823160e01b81523060048201526001600160a01b03909116906370a0823190602401602060405180830381865afa158015610e82573d5f803e3d5ffd5b505050506040513d601f19601f82011682018060405250810190610ea69190611367565b11610ec35760405162461bcd60e51b81526004016102b990611422565b5f816002015442610ed491906113e2565b90505f60025462278d00610ee8919061146a565b826004856003015481548110610f0057610f006113fb565b905f5260205f200154855f0154610f17919061146a565b610f21919061146a565b610f2b9190611481565b60015460405163a9059cbb60e01b8152336004820152602481018390529192506001600160a01b03169063a9059cbb906044016020604051808303815f875af1158015610f7a573d5f803e3d5ffd5b505050506040513d601f19601f82011682018060405250810190610f9e919061137e565b610fba5760405162461bcd60e51b81526004016102b9906114a0565b426002840181905560405133917ff01da32686223933d8a18a391060918c7f11a3648639edd87ae013e2e273174391610d0a91858252602082015260400190565b5f546001600160a01b031633146110245760405162461bcd60e51b81526004016102b990611340565b60035481511461106d5760405162461bcd60e51b8152602060048201526014602482015273092dcecc2d8d2c840e4c2e8cae640d8cadccee8d60631b60448201526064016102b9565b8051611080906004906020840190611181565b507f1ec0e4ae421d51e732aa1ca2ee2239ffe79054ffe6aedb45b6a92e0d237ab814816040516110b091906114cf565b60405180910390a150565b600381815481106110ca575f80fd5b5f91825260209091200154905081565b600481815481106110ca575f80fd5b6001600160a01b0381165f9081526005602052604081208054820361111057505f92915050565b5f81600201544261112191906113e2565b90505f60025462278d00611135919061146a565b82600485600301548154811061114d5761114d6113fb565b905f5260205f200154855f0154611164919061146a565b61116e919061146a565b6111789190611481565b95945050505050565b828054828255905f5260205f209081019282156111ba579160200282015b828111156111ba57825182559160200191906001019061119f565b506111c69291506111ca565b5090565b5b808211156111c6575f81556001016111cb565b6001600160a01b0381168114610791575f80fd5b5f60208284031215611202575f80fd5b813561120d816111de565b9392505050565b8015158114610791575f80fd5b5f60208284031215611231575f80fd5b813561120d81611214565b5f806040838503121561124d575f80fd5b50508035926020909101359150565b634e487b7160e01b5f52604160045260245ffd5b5f6020808385031215611281575f80fd5b823567ffffffffffffffff80821115611298575f80fd5b818501915085601f8301126112ab575f80fd5b8135818111156112bd576112bd61125c565b8060051b604051601f19603f830116810181811085821117156112e2576112e261125c565b6040529182528482019250838101850191888311156112ff575f80fd5b938501935b8285101561131d57843584529385019392850192611304565b98975050505050505050565b5f60208284031215611339575f80fd5b5035919050565b6020808252600d908201526c2737ba103a34329037bbb732b960991b604082015260600190565b5f60208284031215611377575f80fd5b5051919050565b5f6020828403121561138e575f80fd5b815161120d81611214565b6020808252818101527f4e6f207374616b656420616d6f756e7420666f72207468652061646472657373604082015260600190565b634e487b7160e01b5f52601160045260245ffd5b818103818111156113f5576113f56113ce565b92915050565b634e487b7160e01b5f52603260045260245ffd5b808201808211156113f5576113f56113ce565b60208082526028908201527f496e73756666696369656e742062616c616e636520696e207374616b696e672060408201526718dbdb9d1c9858dd60c21b606082015260800190565b80820281158282048414176113f5576113f56113ce565b5f8261149b57634e487b7160e01b5f52601260045260245ffd5b500490565b602080825260159082015274151bdad95b881d1c985b9cd9995c8819985a5b1959605a1b604082015260600190565b602080825282518282018190525f9190848201906040850190845b81811015611506578351835292840192918401916001016114ea565b5090969550505050505056fea2646970667358221220afc4460c9371e3781e184d1d88c23e77027ba1efe1e6641df19f907f61c5479064736f6c63430008180033",
					"opcodes": "PUSH1 0x1 DUP1 SLOAD PUSH1 0xFF PUSH1 0xA0 SHL NOT AND SWAP1 SSTORE PUSH2 0x3E8 PUSH1 0x2 SSTORE PUSH2 0x100 PUSH1 0x40 MSTORE PUSH1 0x1E PUSH1 0x80 SWAP1 DUP2 MSTORE PUSH1 0x5A PUSH1 0xA0 MSTORE PUSH1 0xB4 PUSH1 0xC0 MSTORE PUSH2 0x16D PUSH1 0xE0 MSTORE PUSH3 0x3F SWAP1 PUSH1 0x3 SWAP1 PUSH1 0x4 PUSH3 0xD7 JUMP JUMPDEST POP PUSH1 0x40 DUP1 MLOAD PUSH1 0x80 DUP2 ADD DUP3 MSTORE PUSH1 0x32 DUP2 MSTORE PUSH1 0x42 PUSH1 0x20 DUP3 ADD MSTORE PUSH1 0x53 SWAP2 DUP2 ADD SWAP2 SWAP1 SWAP2 MSTORE PUSH1 0x7D PUSH1 0x60 DUP3 ADD MSTORE PUSH3 0x74 SWAP1 PUSH1 0x4 SWAP1 DUP2 PUSH3 0x12B JUMP JUMPDEST POP CALLVALUE DUP1 ISZERO PUSH3 0x81 JUMPI PUSH0 DUP1 REVERT JUMPDEST POP PUSH1 0x40 MLOAD PUSH3 0x1707 CODESIZE SUB DUP1 PUSH3 0x1707 DUP4 CODECOPY DUP2 ADD PUSH1 0x40 DUP2 SWAP1 MSTORE PUSH3 0xA4 SWAP2 PUSH3 0x182 JUMP JUMPDEST PUSH0 DUP1 SLOAD CALLER PUSH1 0x1 PUSH1 0x1 PUSH1 0xA0 SHL SUB NOT SWAP2 DUP3 AND OR SWAP1 SWAP2 SSTORE PUSH1 0x1 DUP1 SLOAD SWAP1 SWAP2 AND PUSH1 0x1 PUSH1 0x1 PUSH1 0xA0 SHL SUB SWAP3 SWAP1 SWAP3 AND SWAP2 SWAP1 SWAP2 OR SWAP1 SSTORE PUSH3 0x1B1 JUMP JUMPDEST DUP3 DUP1 SLOAD DUP3 DUP3 SSTORE SWAP1 PUSH0 MSTORE PUSH1 0x20 PUSH0 KECCAK256 SWAP1 DUP2 ADD SWAP3 DUP3 ISZERO PUSH3 0x119 JUMPI SWAP2 PUSH1 0x20 MUL DUP3 ADD JUMPDEST DUP3 DUP2 GT ISZERO PUSH3 0x119 JUMPI DUP3 MLOAD DUP3 SWAP1 PUSH2 0xFFFF AND SWAP1 SSTORE SWAP2 PUSH1 0x20 ADD SWAP2 SWAP1 PUSH1 0x1 ADD SWAP1 PUSH3 0xF6 JUMP JUMPDEST POP PUSH3 0x127 SWAP3 SWAP2 POP PUSH3 0x16C JUMP JUMPDEST POP SWAP1 JUMP JUMPDEST DUP3 DUP1 SLOAD DUP3 DUP3 SSTORE SWAP1 PUSH0 MSTORE PUSH1 0x20 PUSH0 KECCAK256 SWAP1 DUP2 ADD SWAP3 DUP3 ISZERO PUSH3 0x119 JUMPI SWAP2 PUSH1 0x20 MUL DUP3 ADD JUMPDEST DUP3 DUP2 GT ISZERO PUSH3 0x119 JUMPI DUP3 MLOAD DUP3 SWAP1 PUSH1 0xFF AND SWAP1 SSTORE SWAP2 PUSH1 0x20 ADD SWAP2 SWAP1 PUSH1 0x1 ADD SWAP1 PUSH3 0x14A JUMP JUMPDEST JUMPDEST DUP1 DUP3 GT ISZERO PUSH3 0x127 JUMPI PUSH0 DUP2 SSTORE PUSH1 0x1 ADD PUSH3 0x16D JUMP JUMPDEST PUSH0 PUSH1 0x20 DUP3 DUP5 SUB SLT ISZERO PUSH3 0x193 JUMPI PUSH0 DUP1 REVERT JUMPDEST DUP2 MLOAD PUSH1 0x1 PUSH1 0x1 PUSH1 0xA0 SHL SUB DUP2 AND DUP2 EQ PUSH3 0x1AA JUMPI PUSH0 DUP1 REVERT JUMPDEST SWAP4 SWAP3 POP POP POP JUMP JUMPDEST PUSH2 0x1548 DUP1 PUSH3 0x1BF PUSH0 CODECOPY PUSH0 RETURN INVALID PUSH1 0x80 PUSH1 0x40 MSTORE CALLVALUE DUP1 ISZERO PUSH2 0xF JUMPI PUSH0 DUP1 REVERT JUMPDEST POP PUSH1 0x4 CALLDATASIZE LT PUSH2 0x11C JUMPI PUSH0 CALLDATALOAD PUSH1 0xE0 SHR DUP1 PUSH4 0x7B0472F0 GT PUSH2 0xA9 JUMPI DUP1 PUSH4 0xC55A7BCE GT PUSH2 0x6E JUMPI DUP1 PUSH4 0xC55A7BCE EQ PUSH2 0x231 JUMPI DUP1 PUSH4 0xDE3E3EFF EQ PUSH2 0x244 JUMPI DUP1 PUSH4 0xF2CAEB1E EQ PUSH2 0x257 JUMPI DUP1 PUSH4 0xF6ED2017 EQ PUSH2 0x26A JUMPI DUP1 PUSH4 0xFC0C546A EQ PUSH2 0x27D JUMPI PUSH0 DUP1 REVERT JUMPDEST DUP1 PUSH4 0x7B0472F0 EQ PUSH2 0x1B5 JUMPI DUP1 PUSH4 0x8DA5CB5B EQ PUSH2 0x1C8 JUMPI DUP1 PUSH4 0x9BCF5C24 EQ PUSH2 0x1F2 JUMPI DUP1 PUSH4 0xB187BD26 EQ PUSH2 0x205 JUMPI DUP1 PUSH4 0xB88A802F EQ PUSH2 0x229 JUMPI PUSH0 DUP1 REVERT JUMPDEST DUP1 PUSH4 0x4DA6A556 GT PUSH2 0xEF JUMPI DUP1 PUSH4 0x4DA6A556 EQ PUSH2 0x16B JUMPI DUP1 PUSH4 0x562DEAD2 EQ PUSH2 0x17E JUMPI DUP1 PUSH4 0x5769848C EQ PUSH2 0x187 JUMPI DUP1 PUSH4 0x5A288322 EQ PUSH2 0x19A JUMPI DUP1 PUSH4 0x63624436 EQ PUSH2 0x1AD JUMPI PUSH0 DUP1 REVERT JUMPDEST DUP1 PUSH4 0xDFEC300 EQ PUSH2 0x120 JUMPI DUP1 PUSH4 0xE85117A EQ PUSH2 0x135 JUMPI DUP1 PUSH4 0x2DEF6620 EQ PUSH2 0x15B JUMPI DUP1 PUSH4 0x4289E4CD EQ PUSH2 0x163 JUMPI JUMPDEST PUSH0 DUP1 REVERT JUMPDEST PUSH2 0x133 PUSH2 0x12E CALLDATASIZE PUSH1 0x4 PUSH2 0x11F2 JUMP JUMPDEST PUSH2 0x290 JUMP JUMPDEST STOP JUMPDEST PUSH2 0x148 PUSH2 0x143 CALLDATASIZE PUSH1 0x4 PUSH2 0x11F2 JUMP JUMPDEST PUSH2 0x3AB JUMP JUMPDEST PUSH1 0x40 MLOAD SWAP1 DUP2 MSTORE PUSH1 0x20 ADD JUMPDEST PUSH1 0x40 MLOAD DUP1 SWAP2 SUB SWAP1 RETURN JUMPDEST PUSH2 0x133 PUSH2 0x44E JUMP JUMPDEST PUSH2 0x133 PUSH2 0x731 JUMP JUMPDEST PUSH2 0x148 PUSH2 0x179 CALLDATASIZE PUSH1 0x4 PUSH2 0x11F2 JUMP JUMPDEST PUSH2 0x794 JUMP JUMPDEST PUSH2 0x148 PUSH1 0x2 SLOAD DUP2 JUMP JUMPDEST PUSH2 0x133 PUSH2 0x195 CALLDATASIZE PUSH1 0x4 PUSH2 0x1221 JUMP JUMPDEST PUSH2 0x7D0 JUMP JUMPDEST PUSH2 0x148 PUSH2 0x1A8 CALLDATASIZE PUSH1 0x4 PUSH2 0x11F2 JUMP JUMPDEST PUSH2 0x817 JUMP JUMPDEST PUSH2 0x133 PUSH2 0x856 JUMP JUMPDEST PUSH2 0x133 PUSH2 0x1C3 CALLDATASIZE PUSH1 0x4 PUSH2 0x123C JUMP JUMPDEST PUSH2 0xAAC JUMP JUMPDEST PUSH0 SLOAD PUSH2 0x1DA SWAP1 PUSH1 0x1 PUSH1 0x1 PUSH1 0xA0 SHL SUB AND DUP2 JUMP JUMPDEST PUSH1 0x40 MLOAD PUSH1 0x1 PUSH1 0x1 PUSH1 0xA0 SHL SUB SWAP1 SWAP2 AND DUP2 MSTORE PUSH1 0x20 ADD PUSH2 0x152 JUMP JUMPDEST PUSH2 0x148 PUSH2 0x200 CALLDATASIZE PUSH1 0x4 PUSH2 0x11F2 JUMP JUMPDEST PUSH2 0xD17 JUMP JUMPDEST PUSH1 0x1 SLOAD PUSH2 0x219 SWAP1 PUSH1 0x1 PUSH1 0xA0 SHL SWAP1 DIV PUSH1 0xFF AND DUP2 JUMP JUMPDEST PUSH1 0x40 MLOAD SWAP1 ISZERO ISZERO DUP2 MSTORE PUSH1 0x20 ADD PUSH2 0x152 JUMP JUMPDEST PUSH2 0x133 PUSH2 0xD56 JUMP JUMPDEST PUSH2 0x133 PUSH2 0x23F CALLDATASIZE PUSH1 0x4 PUSH2 0x1270 JUMP JUMPDEST PUSH2 0xFFB JUMP JUMPDEST PUSH2 0x148 PUSH2 0x252 CALLDATASIZE PUSH1 0x4 PUSH2 0x1329 JUMP JUMPDEST PUSH2 0x10BB JUMP JUMPDEST PUSH2 0x148 PUSH2 0x265 CALLDATASIZE PUSH1 0x4 PUSH2 0x1329 JUMP JUMPDEST PUSH2 0x10DA JUMP JUMPDEST PUSH2 0x148 PUSH2 0x278 CALLDATASIZE PUSH1 0x4 PUSH2 0x11F2 JUMP JUMPDEST PUSH2 0x10E9 JUMP JUMPDEST PUSH1 0x1 SLOAD PUSH2 0x1DA SWAP1 PUSH1 0x1 PUSH1 0x1 PUSH1 0xA0 SHL SUB AND DUP2 JUMP JUMPDEST PUSH0 SLOAD PUSH1 0x1 PUSH1 0x1 PUSH1 0xA0 SHL SUB AND CALLER EQ PUSH2 0x2C2 JUMPI PUSH1 0x40 MLOAD PUSH3 0x461BCD PUSH1 0xE5 SHL DUP2 MSTORE PUSH1 0x4 ADD PUSH2 0x2B9 SWAP1 PUSH2 0x1340 JUMP JUMPDEST PUSH1 0x40 MLOAD DUP1 SWAP2 SUB SWAP1 REVERT JUMPDEST PUSH1 0x1 SLOAD PUSH0 SLOAD PUSH1 0x40 MLOAD PUSH4 0x70A08231 PUSH1 0xE0 SHL DUP2 MSTORE ADDRESS PUSH1 0x4 DUP3 ADD MSTORE PUSH1 0x1 PUSH1 0x1 PUSH1 0xA0 SHL SUB SWAP3 DUP4 AND SWAP3 PUSH4 0xA9059CBB SWAP3 DUP2 AND SWAP2 SWAP1 DUP6 AND SWAP1 PUSH4 0x70A08231 SWAP1 PUSH1 0x24 ADD PUSH1 0x20 PUSH1 0x40 MLOAD DUP1 DUP4 SUB DUP2 DUP7 GAS STATICCALL ISZERO DUP1 ISZERO PUSH2 0x317 JUMPI RETURNDATASIZE PUSH0 DUP1 RETURNDATACOPY RETURNDATASIZE PUSH0 REVERT JUMPDEST POP POP POP POP PUSH1 0x40 MLOAD RETURNDATASIZE PUSH1 0x1F NOT PUSH1 0x1F DUP3 ADD AND DUP3 ADD DUP1 PUSH1 0x40 MSTORE POP DUP2 ADD SWAP1 PUSH2 0x33B SWAP2 SWAP1 PUSH2 0x1367 JUMP JUMPDEST PUSH1 0x40 MLOAD PUSH1 0x1 PUSH1 0x1 PUSH1 0xE0 SHL SUB NOT PUSH1 0xE0 DUP6 SWAP1 SHL AND DUP2 MSTORE PUSH1 0x1 PUSH1 0x1 PUSH1 0xA0 SHL SUB SWAP1 SWAP3 AND PUSH1 0x4 DUP4 ADD MSTORE PUSH1 0x24 DUP3 ADD MSTORE PUSH1 0x44 ADD PUSH1 0x20 PUSH1 0x40 MLOAD DUP1 DUP4 SUB DUP2 PUSH0 DUP8 GAS CALL ISZERO DUP1 ISZERO PUSH2 0x383 JUMPI RETURNDATASIZE PUSH0 DUP1 RETURNDATACOPY RETURNDATASIZE PUSH0 REVERT JUMPDEST POP POP POP POP PUSH1 0x40 MLOAD RETURNDATASIZE PUSH1 0x1F NOT PUSH1 0x1F DUP3 ADD AND DUP3 ADD DUP1 PUSH1 0x40 MSTORE POP DUP2 ADD SWAP1 PUSH2 0x3A7 SWAP2 SWAP1 PUSH2 0x137E JUMP JUMPDEST POP POP JUMP JUMPDEST PUSH1 0x1 PUSH1 0x1 PUSH1 0xA0 SHL SUB DUP2 AND PUSH0 SWAP1 DUP2 MSTORE PUSH1 0x5 PUSH1 0x20 MSTORE PUSH1 0x40 DUP2 KECCAK256 DUP1 SLOAD PUSH2 0x3E0 JUMPI PUSH1 0x40 MLOAD PUSH3 0x461BCD PUSH1 0xE5 SHL DUP2 MSTORE PUSH1 0x4 ADD PUSH2 0x2B9 SWAP1 PUSH2 0x1399 JUMP JUMPDEST PUSH0 DUP2 PUSH1 0x1 ADD SLOAD TIMESTAMP GT ISZERO PUSH2 0x3FF JUMPI PUSH1 0x1 DUP3 ADD SLOAD PUSH2 0x3FC SWAP1 TIMESTAMP PUSH2 0x13E2 JUMP JUMPDEST SWAP1 POP JUMPDEST PUSH0 PUSH1 0x3 DUP4 PUSH1 0x3 ADD SLOAD DUP2 SLOAD DUP2 LT PUSH2 0x417 JUMPI PUSH2 0x417 PUSH2 0x13FB JUMP JUMPDEST SWAP1 PUSH0 MSTORE PUSH1 0x20 PUSH0 KECCAK256 ADD SLOAD SWAP1 POP PUSH0 DUP2 DUP4 LT ISZERO PUSH2 0x438 JUMPI PUSH2 0x435 DUP4 DUP4 PUSH2 0x13E2 JUMP JUMPDEST SWAP1 POP JUMPDEST PUSH0 PUSH2 0x443 DUP3 TIMESTAMP PUSH2 0x140F JUMP JUMPDEST SWAP8 SWAP7 POP POP POP POP POP POP POP JUMP JUMPDEST CALLER PUSH0 SWAP1 DUP2 MSTORE PUSH1 0x5 PUSH1 0x20 MSTORE PUSH1 0x40 SWAP1 KECCAK256 DUP1 SLOAD PUSH2 0x4AA JUMPI PUSH1 0x40 MLOAD PUSH3 0x461BCD PUSH1 0xE5 SHL DUP2 MSTORE PUSH1 0x20 PUSH1 0x4 DUP3 ADD MSTORE PUSH1 0x1B PUSH1 0x24 DUP3 ADD MSTORE PUSH32 0x4E6F207374616B656420616D6F756E7420746F20756E7374616B650000000000 PUSH1 0x44 DUP3 ADD MSTORE PUSH1 0x64 ADD PUSH2 0x2B9 JUMP JUMPDEST PUSH1 0x3 DUP2 PUSH1 0x3 ADD SLOAD DUP2 SLOAD DUP2 LT PUSH2 0x4C1 JUMPI PUSH2 0x4C1 PUSH2 0x13FB JUMP JUMPDEST SWAP1 PUSH0 MSTORE PUSH1 0x20 PUSH0 KECCAK256 ADD SLOAD DUP2 PUSH1 0x1 ADD SLOAD PUSH2 0x4D9 SWAP2 SWAP1 PUSH2 0x140F JUMP JUMPDEST TIMESTAMP LT ISZERO PUSH2 0x528 JUMPI PUSH1 0x40 MLOAD PUSH3 0x461BCD PUSH1 0xE5 SHL DUP2 MSTORE PUSH1 0x20 PUSH1 0x4 DUP3 ADD MSTORE PUSH1 0x1C PUSH1 0x24 DUP3 ADD MSTORE PUSH32 0x4D696E696D756D207374616B6520706572696F64206E6F74206D657400000000 PUSH1 0x44 DUP3 ADD MSTORE PUSH1 0x64 ADD PUSH2 0x2B9 JUMP JUMPDEST DUP1 SLOAD PUSH1 0x1 SLOAD PUSH1 0x40 MLOAD PUSH4 0x70A08231 PUSH1 0xE0 SHL DUP2 MSTORE ADDRESS PUSH1 0x4 DUP3 ADD MSTORE PUSH1 0x1 PUSH1 0x1 PUSH1 0xA0 SHL SUB SWAP1 SWAP2 AND SWAP1 PUSH4 0x70A08231 SWAP1 PUSH1 0x24 ADD PUSH1 0x20 PUSH1 0x40 MLOAD DUP1 DUP4 SUB DUP2 DUP7 GAS STATICCALL ISZERO DUP1 ISZERO PUSH2 0x570 JUMPI RETURNDATASIZE PUSH0 DUP1 RETURNDATACOPY RETURNDATASIZE PUSH0 REVERT JUMPDEST POP POP POP POP PUSH1 0x40 MLOAD RETURNDATASIZE PUSH1 0x1F NOT PUSH1 0x1F DUP3 ADD AND DUP3 ADD DUP1 PUSH1 0x40 MSTORE POP DUP2 ADD SWAP1 PUSH2 0x594 SWAP2 SWAP1 PUSH2 0x1367 JUMP JUMPDEST GT PUSH2 0x5B1 JUMPI PUSH1 0x40 MLOAD PUSH3 0x461BCD PUSH1 0xE5 SHL DUP2 MSTORE PUSH1 0x4 ADD PUSH2 0x2B9 SWAP1 PUSH2 0x1422 JUMP JUMPDEST PUSH0 DUP2 PUSH1 0x1 ADD SLOAD TIMESTAMP PUSH2 0x5C2 SWAP2 SWAP1 PUSH2 0x13E2 JUMP JUMPDEST SWAP1 POP PUSH0 PUSH1 0x2 SLOAD PUSH3 0x278D00 PUSH2 0x5D6 SWAP2 SWAP1 PUSH2 0x146A JUMP JUMPDEST DUP3 PUSH1 0x4 DUP6 PUSH1 0x3 ADD SLOAD DUP2 SLOAD DUP2 LT PUSH2 0x5EE JUMPI PUSH2 0x5EE PUSH2 0x13FB JUMP JUMPDEST SWAP1 PUSH0 MSTORE PUSH1 0x20 PUSH0 KECCAK256 ADD SLOAD DUP6 PUSH0 ADD SLOAD PUSH2 0x605 SWAP2 SWAP1 PUSH2 0x146A JUMP JUMPDEST PUSH2 0x60F SWAP2 SWAP1 PUSH2 0x146A JUMP JUMPDEST PUSH2 0x619 SWAP2 SWAP1 PUSH2 0x1481 JUMP JUMPDEST PUSH1 0x1 SLOAD DUP5 SLOAD SWAP2 SWAP3 POP PUSH1 0x1 PUSH1 0x1 PUSH1 0xA0 SHL SUB AND SWAP1 PUSH4 0xA9059CBB SWAP1 CALLER SWAP1 PUSH2 0x63E SWAP1 DUP6 SWAP1 PUSH2 0x140F JUMP JUMPDEST PUSH1 0x40 MLOAD PUSH1 0x1 PUSH1 0x1 PUSH1 0xE0 SHL SUB NOT PUSH1 0xE0 DUP6 SWAP1 SHL AND DUP2 MSTORE PUSH1 0x1 PUSH1 0x1 PUSH1 0xA0 SHL SUB SWAP1 SWAP3 AND PUSH1 0x4 DUP4 ADD MSTORE PUSH1 0x24 DUP3 ADD MSTORE PUSH1 0x44 ADD PUSH1 0x20 PUSH1 0x40 MLOAD DUP1 DUP4 SUB DUP2 PUSH0 DUP8 GAS CALL ISZERO DUP1 ISZERO PUSH2 0x686 JUMPI RETURNDATASIZE PUSH0 DUP1 RETURNDATACOPY RETURNDATASIZE PUSH0 REVERT JUMPDEST POP POP POP POP PUSH1 0x40 MLOAD RETURNDATASIZE PUSH1 0x1F NOT PUSH1 0x1F DUP3 ADD AND DUP3 ADD DUP1 PUSH1 0x40 MSTORE POP DUP2 ADD SWAP1 PUSH2 0x6AA SWAP2 SWAP1 PUSH2 0x137E JUMP JUMPDEST PUSH2 0x6C6 JUMPI PUSH1 0x40 MLOAD PUSH3 0x461BCD PUSH1 0xE5 SHL DUP2 MSTORE PUSH1 0x4 ADD PUSH2 0x2B9 SWAP1 PUSH2 0x14A0 JUMP JUMPDEST DUP3 SLOAD PUSH1 0x40 DUP1 MLOAD SWAP2 DUP3 MSTORE TIMESTAMP PUSH1 0x20 DUP4 ADD MSTORE DUP2 ADD DUP3 SWAP1 MSTORE CALLER SWAP1 PUSH32 0x204FCCF0D92ED8D48F204ADB39B2E81E92BAD0DEDB93F5716CA9478CFB57DE00 SWAP1 PUSH1 0x60 ADD PUSH1 0x40 MLOAD DUP1 SWAP2 SUB SWAP1 LOG2 POP POP CALLER PUSH0 SWAP1 DUP2 MSTORE PUSH1 0x5 PUSH1 0x20 MSTORE PUSH1 0x40 DUP2 KECCAK256 DUP2 DUP2 SSTORE PUSH1 0x1 DUP2 ADD DUP3 SWAP1 SSTORE PUSH1 0x2 DUP2 ADD DUP3 SWAP1 SSTORE PUSH1 0x3 ADD SSTORE POP JUMP JUMPDEST PUSH0 SLOAD PUSH1 0x1 PUSH1 0x1 PUSH1 0xA0 SHL SUB AND CALLER EQ PUSH2 0x75A JUMPI PUSH1 0x40 MLOAD PUSH3 0x461BCD PUSH1 0xE5 SHL DUP2 MSTORE PUSH1 0x4 ADD PUSH2 0x2B9 SWAP1 PUSH2 0x1340 JUMP JUMPDEST PUSH0 DUP1 SLOAD PUSH1 0x40 MLOAD PUSH1 0x1 PUSH1 0x1 PUSH1 0xA0 SHL SUB SWAP1 SWAP2 AND SWAP2 SELFBALANCE DUP1 ISZERO PUSH2 0x8FC MUL SWAP3 SWAP1 SWAP2 DUP2 DUP2 DUP2 DUP6 DUP9 DUP9 CALL SWAP4 POP POP POP POP ISZERO DUP1 ISZERO PUSH2 0x791 JUMPI RETURNDATASIZE PUSH0 DUP1 RETURNDATACOPY RETURNDATASIZE PUSH0 REVERT JUMPDEST POP JUMP JUMPDEST PUSH1 0x1 PUSH1 0x1 PUSH1 0xA0 SHL SUB DUP2 AND PUSH0 SWAP1 DUP2 MSTORE PUSH1 0x5 PUSH1 0x20 MSTORE PUSH1 0x40 DUP2 KECCAK256 DUP1 SLOAD PUSH2 0x7C9 JUMPI PUSH1 0x40 MLOAD PUSH3 0x461BCD PUSH1 0xE5 SHL DUP2 MSTORE PUSH1 0x4 ADD PUSH2 0x2B9 SWAP1 PUSH2 0x1399 JUMP JUMPDEST SLOAD SWAP3 SWAP2 POP POP JUMP JUMPDEST PUSH0 SLOAD PUSH1 0x1 PUSH1 0x1 PUSH1 0xA0 SHL SUB AND CALLER EQ PUSH2 0x7F9 JUMPI PUSH1 0x40 MLOAD PUSH3 0x461BCD PUSH1 0xE5 SHL DUP2 MSTORE PUSH1 0x4 ADD PUSH2 0x2B9 SWAP1 PUSH2 0x1340 JUMP JUMPDEST PUSH1 0x1 DUP1 SLOAD SWAP2 ISZERO ISZERO PUSH1 0x1 PUSH1 0xA0 SHL MUL PUSH1 0xFF PUSH1 0xA0 SHL NOT SWAP1 SWAP3 AND SWAP2 SWAP1 SWAP2 OR SWAP1 SSTORE JUMP JUMPDEST PUSH1 0x1 PUSH1 0x1 PUSH1 0xA0 SHL SUB DUP2 AND PUSH0 SWAP1 DUP2 MSTORE PUSH1 0x5 PUSH1 0x20 MSTORE PUSH1 0x40 DUP2 KECCAK256 DUP1 SLOAD PUSH2 0x84C JUMPI PUSH1 0x40 MLOAD PUSH3 0x461BCD PUSH1 0xE5 SHL DUP2 MSTORE PUSH1 0x4 ADD PUSH2 0x2B9 SWAP1 PUSH2 0x1399 JUMP JUMPDEST PUSH1 0x1 ADD SLOAD SWAP3 SWAP2 POP POP JUMP JUMPDEST CALLER PUSH0 SWAP1 DUP2 MSTORE PUSH1 0x5 PUSH1 0x20 MSTORE PUSH1 0x40 SWAP1 KECCAK256 DUP1 SLOAD PUSH2 0x8B2 JUMPI PUSH1 0x40 MLOAD PUSH3 0x461BCD PUSH1 0xE5 SHL DUP2 MSTORE PUSH1 0x20 PUSH1 0x4 DUP3 ADD MSTORE PUSH1 0x1B PUSH1 0x24 DUP3 ADD MSTORE PUSH32 0x4E6F207374616B656420616D6F756E7420746F20756E7374616B650000000000 PUSH1 0x44 DUP3 ADD MSTORE PUSH1 0x64 ADD PUSH2 0x2B9 JUMP JUMPDEST PUSH1 0x3 DUP2 PUSH1 0x3 ADD SLOAD DUP2 SLOAD DUP2 LT PUSH2 0x8C9 JUMPI PUSH2 0x8C9 PUSH2 0x13FB JUMP JUMPDEST SWAP1 PUSH0 MSTORE PUSH1 0x20 PUSH0 KECCAK256 ADD SLOAD DUP2 PUSH1 0x1 ADD SLOAD PUSH2 0x8E1 SWAP2 SWAP1 PUSH2 0x140F JUMP JUMPDEST TIMESTAMP GT ISZERO PUSH2 0x930 JUMPI PUSH1 0x40 MLOAD PUSH3 0x461BCD PUSH1 0xE5 SHL DUP2 MSTORE PUSH1 0x20 PUSH1 0x4 DUP3 ADD MSTORE PUSH1 0x1B PUSH1 0x24 DUP3 ADD MSTORE PUSH32 0x596F7520616C7265616479206861766520612072657761726421210000000000 PUSH1 0x44 DUP3 ADD MSTORE PUSH1 0x64 ADD PUSH2 0x2B9 JUMP JUMPDEST DUP1 SLOAD PUSH1 0x1 SLOAD PUSH1 0x40 MLOAD PUSH4 0x70A08231 PUSH1 0xE0 SHL DUP2 MSTORE ADDRESS PUSH1 0x4 DUP3 ADD MSTORE PUSH1 0x1 PUSH1 0x1 PUSH1 0xA0 SHL SUB SWAP1 SWAP2 AND SWAP1 PUSH4 0x70A08231 SWAP1 PUSH1 0x24 ADD PUSH1 0x20 PUSH1 0x40 MLOAD DUP1 DUP4 SUB DUP2 DUP7 GAS STATICCALL ISZERO DUP1 ISZERO PUSH2 0x978 JUMPI RETURNDATASIZE PUSH0 DUP1 RETURNDATACOPY RETURNDATASIZE PUSH0 REVERT JUMPDEST POP POP POP POP PUSH1 0x40 MLOAD RETURNDATASIZE PUSH1 0x1F NOT PUSH1 0x1F DUP3 ADD AND DUP3 ADD DUP1 PUSH1 0x40 MSTORE POP DUP2 ADD SWAP1 PUSH2 0x99C SWAP2 SWAP1 PUSH2 0x1367 JUMP JUMPDEST GT PUSH2 0x9B9 JUMPI PUSH1 0x40 MLOAD PUSH3 0x461BCD PUSH1 0xE5 SHL DUP2 MSTORE PUSH1 0x4 ADD PUSH2 0x2B9 SWAP1 PUSH2 0x1422 JUMP JUMPDEST PUSH1 0x1 SLOAD DUP2 SLOAD PUSH1 0x40 MLOAD PUSH4 0xA9059CBB PUSH1 0xE0 SHL DUP2 MSTORE CALLER PUSH1 0x4 DUP3 ADD MSTORE PUSH1 0x24 DUP2 ADD SWAP2 SWAP1 SWAP2 MSTORE PUSH1 0x1 PUSH1 0x1 PUSH1 0xA0 SHL SUB SWAP1 SWAP2 AND SWAP1 PUSH4 0xA9059CBB SWAP1 PUSH1 0x44 ADD PUSH1 0x20 PUSH1 0x40 MLOAD DUP1 DUP4 SUB DUP2 PUSH0 DUP8 GAS CALL ISZERO DUP1 ISZERO PUSH2 0xA0A JUMPI RETURNDATASIZE PUSH0 DUP1 RETURNDATACOPY RETURNDATASIZE PUSH0 REVERT JUMPDEST POP POP POP POP PUSH1 0x40 MLOAD RETURNDATASIZE PUSH1 0x1F NOT PUSH1 0x1F DUP3 ADD AND DUP3 ADD DUP1 PUSH1 0x40 MSTORE POP DUP2 ADD SWAP1 PUSH2 0xA2E SWAP2 SWAP1 PUSH2 0x137E JUMP JUMPDEST PUSH2 0xA4A JUMPI PUSH1 0x40 MLOAD PUSH3 0x461BCD PUSH1 0xE5 SHL DUP2 MSTORE PUSH1 0x4 ADD PUSH2 0x2B9 SWAP1 PUSH2 0x14A0 JUMP JUMPDEST DUP1 SLOAD PUSH1 0x40 DUP1 MLOAD SWAP2 DUP3 MSTORE TIMESTAMP PUSH1 0x20 DUP4 ADD MSTORE CALLER SWAP2 PUSH32 0xE6AB0E0153D89C40616CB28F32194043CB0F5B7D3B343E9A54B5D45340513F76 SWAP2 ADD PUSH1 0x40 MLOAD DUP1 SWAP2 SUB SWAP1 LOG2 POP CALLER PUSH0 SWAP1 DUP2 MSTORE PUSH1 0x5 PUSH1 0x20 MSTORE PUSH1 0x40 DUP2 KECCAK256 DUP2 DUP2 SSTORE PUSH1 0x1 DUP2 ADD DUP3 SWAP1 SSTORE PUSH1 0x2 DUP2 ADD DUP3 SWAP1 SSTORE PUSH1 0x3 ADD SSTORE JUMP JUMPDEST PUSH0 DUP3 GT PUSH2 0xAFB JUMPI PUSH1 0x40 MLOAD PUSH3 0x461BCD PUSH1 0xE5 SHL DUP2 MSTORE PUSH1 0x20 PUSH1 0x4 DUP3 ADD MSTORE PUSH1 0x1D PUSH1 0x24 DUP3 ADD MSTORE PUSH32 0x416D6F756E74206D7573742062652067726561746572207468616E2030000000 PUSH1 0x44 DUP3 ADD MSTORE PUSH1 0x64 ADD PUSH2 0x2B9 JUMP JUMPDEST PUSH1 0x3 SLOAD DUP2 LT PUSH2 0xB45 JUMPI PUSH1 0x40 MLOAD PUSH3 0x461BCD PUSH1 0xE5 SHL DUP2 MSTORE PUSH1 0x20 PUSH1 0x4 DUP3 ADD MSTORE PUSH1 0x16 PUSH1 0x24 DUP3 ADD MSTORE PUSH22 0x92DCECC2D8D2C840C8EAE4C2E8D2DEDC40D2DCC8CAF PUSH1 0x53 SHL PUSH1 0x44 DUP3 ADD MSTORE PUSH1 0x64 ADD PUSH2 0x2B9 JUMP JUMPDEST CALLER PUSH0 SWAP1 DUP2 MSTORE PUSH1 0x5 PUSH1 0x20 MSTORE PUSH1 0x40 SWAP1 KECCAK256 DUP1 SLOAD ISZERO PUSH2 0xBA2 JUMPI PUSH1 0x40 MLOAD PUSH3 0x461BCD PUSH1 0xE5 SHL DUP2 MSTORE PUSH1 0x20 PUSH1 0x4 DUP3 ADD MSTORE PUSH1 0x1D PUSH1 0x24 DUP3 ADD MSTORE PUSH32 0x596F75206861766520616C7265616479207374616B65642056524C2121000000 PUSH1 0x44 DUP3 ADD MSTORE PUSH1 0x64 ADD PUSH2 0x2B9 JUMP JUMPDEST PUSH1 0x1 SLOAD PUSH1 0x40 MLOAD PUSH4 0x23B872DD PUSH1 0xE0 SHL DUP2 MSTORE CALLER PUSH1 0x4 DUP3 ADD MSTORE ADDRESS PUSH1 0x24 DUP3 ADD MSTORE PUSH1 0x44 DUP2 ADD DUP6 SWAP1 MSTORE PUSH1 0x1 PUSH1 0x1 PUSH1 0xA0 SHL SUB SWAP1 SWAP2 AND SWAP1 PUSH4 0x23B872DD SWAP1 PUSH1 0x64 ADD PUSH1 0x20 PUSH1 0x40 MLOAD DUP1 DUP4 SUB DUP2 PUSH0 DUP8 GAS CALL ISZERO DUP1 ISZERO PUSH2 0xBF6 JUMPI RETURNDATASIZE PUSH0 DUP1 RETURNDATACOPY RETURNDATASIZE PUSH0 REVERT JUMPDEST POP POP POP POP PUSH1 0x40 MLOAD RETURNDATASIZE PUSH1 0x1F NOT PUSH1 0x1F DUP3 ADD AND DUP3 ADD DUP1 PUSH1 0x40 MSTORE POP DUP2 ADD SWAP1 PUSH2 0xC1A SWAP2 SWAP1 PUSH2 0x137E JUMP JUMPDEST PUSH2 0xC36 JUMPI PUSH1 0x40 MLOAD PUSH3 0x461BCD PUSH1 0xE5 SHL DUP2 MSTORE PUSH1 0x4 ADD PUSH2 0x2B9 SWAP1 PUSH2 0x14A0 JUMP JUMPDEST PUSH1 0x1 SLOAD PUSH1 0x1 PUSH1 0xA0 SHL SWAP1 DIV PUSH1 0xFF AND ISZERO PUSH2 0xC86 JUMPI PUSH1 0x40 MLOAD PUSH3 0x461BCD PUSH1 0xE5 SHL DUP2 MSTORE PUSH1 0x20 PUSH1 0x4 DUP3 ADD MSTORE PUSH1 0x13 PUSH1 0x24 DUP3 ADD MSTORE PUSH19 0x5374616B696E67206973207061757365642121 PUSH1 0x68 SHL PUSH1 0x44 DUP3 ADD MSTORE PUSH1 0x64 ADD PUSH2 0x2B9 JUMP JUMPDEST PUSH1 0x40 DUP1 MLOAD PUSH1 0x80 DUP2 ADD DUP3 MSTORE DUP5 DUP2 MSTORE TIMESTAMP PUSH1 0x20 DUP1 DUP4 ADD DUP3 DUP2 MSTORE DUP4 DUP6 ADD DUP4 DUP2 MSTORE PUSH1 0x60 DUP1 DUP7 ADD DUP10 DUP2 MSTORE CALLER PUSH0 DUP2 DUP2 MSTORE PUSH1 0x5 DUP8 MSTORE DUP10 SWAP1 KECCAK256 SWAP8 MLOAD DUP9 SSTORE SWAP4 MLOAD PUSH1 0x1 DUP9 ADD SSTORE SWAP2 MLOAD PUSH1 0x2 DUP8 ADD SSTORE SWAP1 MLOAD PUSH1 0x3 SWAP1 SWAP6 ADD SWAP5 SWAP1 SWAP5 SSTORE DUP5 MLOAD DUP9 DUP2 MSTORE SWAP2 DUP3 ADD SWAP3 SWAP1 SWAP3 MSTORE SWAP3 DUP4 ADD DUP6 SWAP1 MSTORE SWAP2 PUSH32 0xB4CAAF29ADDA3EEFEE3AD552A8E85058589BF834C7466CAE4EE58787F70589ED SWAP2 ADD JUMPDEST PUSH1 0x40 MLOAD DUP1 SWAP2 SUB SWAP1 LOG2 POP POP POP JUMP JUMPDEST PUSH1 0x1 PUSH1 0x1 PUSH1 0xA0 SHL SUB DUP2 AND PUSH0 SWAP1 DUP2 MSTORE PUSH1 0x5 PUSH1 0x20 MSTORE PUSH1 0x40 DUP2 KECCAK256 DUP1 SLOAD PUSH2 0xD4C JUMPI PUSH1 0x40 MLOAD PUSH3 0x461BCD PUSH1 0xE5 SHL DUP2 MSTORE PUSH1 0x4 ADD PUSH2 0x2B9 SWAP1 PUSH2 0x1399 JUMP JUMPDEST PUSH1 0x2 ADD SLOAD SWAP3 SWAP2 POP POP JUMP JUMPDEST CALLER PUSH0 SWAP1 DUP2 MSTORE PUSH1 0x5 PUSH1 0x20 MSTORE PUSH1 0x40 SWAP1 KECCAK256 DUP1 SLOAD PUSH2 0xDBC JUMPI PUSH1 0x40 MLOAD PUSH3 0x461BCD PUSH1 0xE5 SHL DUP2 MSTORE PUSH1 0x20 PUSH1 0x4 DUP3 ADD MSTORE PUSH1 0x21 PUSH1 0x24 DUP3 ADD MSTORE PUSH32 0x4E6F207374616B656420616D6F756E7420746F20636C61696D20726577617264 PUSH1 0x44 DUP3 ADD MSTORE PUSH1 0x73 PUSH1 0xF8 SHL PUSH1 0x64 DUP3 ADD MSTORE PUSH1 0x84 ADD PUSH2 0x2B9 JUMP JUMPDEST PUSH1 0x3 DUP2 PUSH1 0x3 ADD SLOAD DUP2 SLOAD DUP2 LT PUSH2 0xDD3 JUMPI PUSH2 0xDD3 PUSH2 0x13FB JUMP JUMPDEST SWAP1 PUSH0 MSTORE PUSH1 0x20 PUSH0 KECCAK256 ADD SLOAD DUP2 PUSH1 0x2 ADD SLOAD PUSH2 0xDEB SWAP2 SWAP1 PUSH2 0x140F JUMP JUMPDEST TIMESTAMP LT ISZERO PUSH2 0xE3A JUMPI PUSH1 0x40 MLOAD PUSH3 0x461BCD PUSH1 0xE5 SHL DUP2 MSTORE PUSH1 0x20 PUSH1 0x4 DUP3 ADD MSTORE PUSH1 0x1C PUSH1 0x24 DUP3 ADD MSTORE PUSH32 0x4D696E696D756D20636C61696D20706572696F64206E6F74206D657400000000 PUSH1 0x44 DUP3 ADD MSTORE PUSH1 0x64 ADD PUSH2 0x2B9 JUMP JUMPDEST DUP1 SLOAD PUSH1 0x1 SLOAD PUSH1 0x40 MLOAD PUSH4 0x70A08231 PUSH1 0xE0 SHL DUP2 MSTORE ADDRESS PUSH1 0x4 DUP3 ADD MSTORE PUSH1 0x1 PUSH1 0x1 PUSH1 0xA0 SHL SUB SWAP1 SWAP2 AND SWAP1 PUSH4 0x70A08231 SWAP1 PUSH1 0x24 ADD PUSH1 0x20 PUSH1 0x40 MLOAD DUP1 DUP4 SUB DUP2 DUP7 GAS STATICCALL ISZERO DUP1 ISZERO PUSH2 0xE82 JUMPI RETURNDATASIZE PUSH0 DUP1 RETURNDATACOPY RETURNDATASIZE PUSH0 REVERT JUMPDEST POP POP POP POP PUSH1 0x40 MLOAD RETURNDATASIZE PUSH1 0x1F NOT PUSH1 0x1F DUP3 ADD AND DUP3 ADD DUP1 PUSH1 0x40 MSTORE POP DUP2 ADD SWAP1 PUSH2 0xEA6 SWAP2 SWAP1 PUSH2 0x1367 JUMP JUMPDEST GT PUSH2 0xEC3 JUMPI PUSH1 0x40 MLOAD PUSH3 0x461BCD PUSH1 0xE5 SHL DUP2 MSTORE PUSH1 0x4 ADD PUSH2 0x2B9 SWAP1 PUSH2 0x1422 JUMP JUMPDEST PUSH0 DUP2 PUSH1 0x2 ADD SLOAD TIMESTAMP PUSH2 0xED4 SWAP2 SWAP1 PUSH2 0x13E2 JUMP JUMPDEST SWAP1 POP PUSH0 PUSH1 0x2 SLOAD PUSH3 0x278D00 PUSH2 0xEE8 SWAP2 SWAP1 PUSH2 0x146A JUMP JUMPDEST DUP3 PUSH1 0x4 DUP6 PUSH1 0x3 ADD SLOAD DUP2 SLOAD DUP2 LT PUSH2 0xF00 JUMPI PUSH2 0xF00 PUSH2 0x13FB JUMP JUMPDEST SWAP1 PUSH0 MSTORE PUSH1 0x20 PUSH0 KECCAK256 ADD SLOAD DUP6 PUSH0 ADD SLOAD PUSH2 0xF17 SWAP2 SWAP1 PUSH2 0x146A JUMP JUMPDEST PUSH2 0xF21 SWAP2 SWAP1 PUSH2 0x146A JUMP JUMPDEST PUSH2 0xF2B SWAP2 SWAP1 PUSH2 0x1481 JUMP JUMPDEST PUSH1 0x1 SLOAD PUSH1 0x40 MLOAD PUSH4 0xA9059CBB PUSH1 0xE0 SHL DUP2 MSTORE CALLER PUSH1 0x4 DUP3 ADD MSTORE PUSH1 0x24 DUP2 ADD DUP4 SWAP1 MSTORE SWAP2 SWAP3 POP PUSH1 0x1 PUSH1 0x1 PUSH1 0xA0 SHL SUB AND SWAP1 PUSH4 0xA9059CBB SWAP1 PUSH1 0x44 ADD PUSH1 0x20 PUSH1 0x40 MLOAD DUP1 DUP4 SUB DUP2 PUSH0 DUP8 GAS CALL ISZERO DUP1 ISZERO PUSH2 0xF7A JUMPI RETURNDATASIZE PUSH0 DUP1 RETURNDATACOPY RETURNDATASIZE PUSH0 REVERT JUMPDEST POP POP POP POP PUSH1 0x40 MLOAD RETURNDATASIZE PUSH1 0x1F NOT PUSH1 0x1F DUP3 ADD AND DUP3 ADD DUP1 PUSH1 0x40 MSTORE POP DUP2 ADD SWAP1 PUSH2 0xF9E SWAP2 SWAP1 PUSH2 0x137E JUMP JUMPDEST PUSH2 0xFBA JUMPI PUSH1 0x40 MLOAD PUSH3 0x461BCD PUSH1 0xE5 SHL DUP2 MSTORE PUSH1 0x4 ADD PUSH2 0x2B9 SWAP1 PUSH2 0x14A0 JUMP JUMPDEST TIMESTAMP PUSH1 0x2 DUP5 ADD DUP2 SWAP1 SSTORE PUSH1 0x40 MLOAD CALLER SWAP2 PUSH32 0xF01DA32686223933D8A18A391060918C7F11A3648639EDD87AE013E2E2731743 SWAP2 PUSH2 0xD0A SWAP2 DUP6 DUP3 MSTORE PUSH1 0x20 DUP3 ADD MSTORE PUSH1 0x40 ADD SWAP1 JUMP JUMPDEST PUSH0 SLOAD PUSH1 0x1 PUSH1 0x1 PUSH1 0xA0 SHL SUB AND CALLER EQ PUSH2 0x1024 JUMPI PUSH1 0x40 MLOAD PUSH3 0x461BCD PUSH1 0xE5 SHL DUP2 MSTORE PUSH1 0x4 ADD PUSH2 0x2B9 SWAP1 PUSH2 0x1340 JUMP JUMPDEST PUSH1 0x3 SLOAD DUP2 MLOAD EQ PUSH2 0x106D JUMPI PUSH1 0x40 MLOAD PUSH3 0x461BCD PUSH1 0xE5 SHL DUP2 MSTORE PUSH1 0x20 PUSH1 0x4 DUP3 ADD MSTORE PUSH1 0x14 PUSH1 0x24 DUP3 ADD MSTORE PUSH20 0x92DCECC2D8D2C840E4C2E8CAE640D8CADCCEE8D PUSH1 0x63 SHL PUSH1 0x44 DUP3 ADD MSTORE PUSH1 0x64 ADD PUSH2 0x2B9 JUMP JUMPDEST DUP1 MLOAD PUSH2 0x1080 SWAP1 PUSH1 0x4 SWAP1 PUSH1 0x20 DUP5 ADD SWAP1 PUSH2 0x1181 JUMP JUMPDEST POP PUSH32 0x1EC0E4AE421D51E732AA1CA2EE2239FFE79054FFE6AEDB45B6A92E0D237AB814 DUP2 PUSH1 0x40 MLOAD PUSH2 0x10B0 SWAP2 SWAP1 PUSH2 0x14CF JUMP JUMPDEST PUSH1 0x40 MLOAD DUP1 SWAP2 SUB SWAP1 LOG1 POP JUMP JUMPDEST PUSH1 0x3 DUP2 DUP2 SLOAD DUP2 LT PUSH2 0x10CA JUMPI PUSH0 DUP1 REVERT JUMPDEST PUSH0 SWAP2 DUP3 MSTORE PUSH1 0x20 SWAP1 SWAP2 KECCAK256 ADD SLOAD SWAP1 POP DUP2 JUMP JUMPDEST PUSH1 0x4 DUP2 DUP2 SLOAD DUP2 LT PUSH2 0x10CA JUMPI PUSH0 DUP1 REVERT JUMPDEST PUSH1 0x1 PUSH1 0x1 PUSH1 0xA0 SHL SUB DUP2 AND PUSH0 SWAP1 DUP2 MSTORE PUSH1 0x5 PUSH1 0x20 MSTORE PUSH1 0x40 DUP2 KECCAK256 DUP1 SLOAD DUP3 SUB PUSH2 0x1110 JUMPI POP PUSH0 SWAP3 SWAP2 POP POP JUMP JUMPDEST PUSH0 DUP2 PUSH1 0x2 ADD SLOAD TIMESTAMP PUSH2 0x1121 SWAP2 SWAP1 PUSH2 0x13E2 JUMP JUMPDEST SWAP1 POP PUSH0 PUSH1 0x2 SLOAD PUSH3 0x278D00 PUSH2 0x1135 SWAP2 SWAP1 PUSH2 0x146A JUMP JUMPDEST DUP3 PUSH1 0x4 DUP6 PUSH1 0x3 ADD SLOAD DUP2 SLOAD DUP2 LT PUSH2 0x114D JUMPI PUSH2 0x114D PUSH2 0x13FB JUMP JUMPDEST SWAP1 PUSH0 MSTORE PUSH1 0x20 PUSH0 KECCAK256 ADD SLOAD DUP6 PUSH0 ADD SLOAD PUSH2 0x1164 SWAP2 SWAP1 PUSH2 0x146A JUMP JUMPDEST PUSH2 0x116E SWAP2 SWAP1 PUSH2 0x146A JUMP JUMPDEST PUSH2 0x1178 SWAP2 SWAP1 PUSH2 0x1481 JUMP JUMPDEST SWAP6 SWAP5 POP POP POP POP POP JUMP JUMPDEST DUP3 DUP1 SLOAD DUP3 DUP3 SSTORE SWAP1 PUSH0 MSTORE PUSH1 0x20 PUSH0 KECCAK256 SWAP1 DUP2 ADD SWAP3 DUP3 ISZERO PUSH2 0x11BA JUMPI SWAP2 PUSH1 0x20 MUL DUP3 ADD JUMPDEST DUP3 DUP2 GT ISZERO PUSH2 0x11BA JUMPI DUP3 MLOAD DUP3 SSTORE SWAP2 PUSH1 0x20 ADD SWAP2 SWAP1 PUSH1 0x1 ADD SWAP1 PUSH2 0x119F JUMP JUMPDEST POP PUSH2 0x11C6 SWAP3 SWAP2 POP PUSH2 0x11CA JUMP JUMPDEST POP SWAP1 JUMP JUMPDEST JUMPDEST DUP1 DUP3 GT ISZERO PUSH2 0x11C6 JUMPI PUSH0 DUP2 SSTORE PUSH1 0x1 ADD PUSH2 0x11CB JUMP JUMPDEST PUSH1 0x1 PUSH1 0x1 PUSH1 0xA0 SHL SUB DUP2 AND DUP2 EQ PUSH2 0x791 JUMPI PUSH0 DUP1 REVERT JUMPDEST PUSH0 PUSH1 0x20 DUP3 DUP5 SUB SLT ISZERO PUSH2 0x1202 JUMPI PUSH0 DUP1 REVERT JUMPDEST DUP2 CALLDATALOAD PUSH2 0x120D DUP2 PUSH2 0x11DE JUMP JUMPDEST SWAP4 SWAP3 POP POP POP JUMP JUMPDEST DUP1 ISZERO ISZERO DUP2 EQ PUSH2 0x791 JUMPI PUSH0 DUP1 REVERT JUMPDEST PUSH0 PUSH1 0x20 DUP3 DUP5 SUB SLT ISZERO PUSH2 0x1231 JUMPI PUSH0 DUP1 REVERT JUMPDEST DUP2 CALLDATALOAD PUSH2 0x120D DUP2 PUSH2 0x1214 JUMP JUMPDEST PUSH0 DUP1 PUSH1 0x40 DUP4 DUP6 SUB SLT ISZERO PUSH2 0x124D JUMPI PUSH0 DUP1 REVERT JUMPDEST POP POP DUP1 CALLDATALOAD SWAP3 PUSH1 0x20 SWAP1 SWAP2 ADD CALLDATALOAD SWAP2 POP JUMP JUMPDEST PUSH4 0x4E487B71 PUSH1 0xE0 SHL PUSH0 MSTORE PUSH1 0x41 PUSH1 0x4 MSTORE PUSH1 0x24 PUSH0 REVERT JUMPDEST PUSH0 PUSH1 0x20 DUP1 DUP4 DUP6 SUB SLT ISZERO PUSH2 0x1281 JUMPI PUSH0 DUP1 REVERT JUMPDEST DUP3 CALLDATALOAD PUSH8 0xFFFFFFFFFFFFFFFF DUP1 DUP3 GT ISZERO PUSH2 0x1298 JUMPI PUSH0 DUP1 REVERT JUMPDEST DUP2 DUP6 ADD SWAP2 POP DUP6 PUSH1 0x1F DUP4 ADD SLT PUSH2 0x12AB JUMPI PUSH0 DUP1 REVERT JUMPDEST DUP2 CALLDATALOAD DUP2 DUP2 GT ISZERO PUSH2 0x12BD JUMPI PUSH2 0x12BD PUSH2 0x125C JUMP JUMPDEST DUP1 PUSH1 0x5 SHL PUSH1 0x40 MLOAD PUSH1 0x1F NOT PUSH1 0x3F DUP4 ADD AND DUP2 ADD DUP2 DUP2 LT DUP6 DUP3 GT OR ISZERO PUSH2 0x12E2 JUMPI PUSH2 0x12E2 PUSH2 0x125C JUMP JUMPDEST PUSH1 0x40 MSTORE SWAP2 DUP3 MSTORE DUP5 DUP3 ADD SWAP3 POP DUP4 DUP2 ADD DUP6 ADD SWAP2 DUP9 DUP4 GT ISZERO PUSH2 0x12FF JUMPI PUSH0 DUP1 REVERT JUMPDEST SWAP4 DUP6 ADD SWAP4 JUMPDEST DUP3 DUP6 LT ISZERO PUSH2 0x131D JUMPI DUP5 CALLDATALOAD DUP5 MSTORE SWAP4 DUP6 ADD SWAP4 SWAP3 DUP6 ADD SWAP3 PUSH2 0x1304 JUMP JUMPDEST SWAP9 SWAP8 POP POP POP POP POP POP POP POP JUMP JUMPDEST PUSH0 PUSH1 0x20 DUP3 DUP5 SUB SLT ISZERO PUSH2 0x1339 JUMPI PUSH0 DUP1 REVERT JUMPDEST POP CALLDATALOAD SWAP2 SWAP1 POP JUMP JUMPDEST PUSH1 0x20 DUP1 DUP3 MSTORE PUSH1 0xD SWAP1 DUP3 ADD MSTORE PUSH13 0x2737BA103A34329037BBB732B9 PUSH1 0x99 SHL PUSH1 0x40 DUP3 ADD MSTORE PUSH1 0x60 ADD SWAP1 JUMP JUMPDEST PUSH0 PUSH1 0x20 DUP3 DUP5 SUB SLT ISZERO PUSH2 0x1377 JUMPI PUSH0 DUP1 REVERT JUMPDEST POP MLOAD SWAP2 SWAP1 POP JUMP JUMPDEST PUSH0 PUSH1 0x20 DUP3 DUP5 SUB SLT ISZERO PUSH2 0x138E JUMPI PUSH0 DUP1 REVERT JUMPDEST DUP2 MLOAD PUSH2 0x120D DUP2 PUSH2 0x1214 JUMP JUMPDEST PUSH1 0x20 DUP1 DUP3 MSTORE DUP2 DUP2 ADD MSTORE PUSH32 0x4E6F207374616B656420616D6F756E7420666F72207468652061646472657373 PUSH1 0x40 DUP3 ADD MSTORE PUSH1 0x60 ADD SWAP1 JUMP JUMPDEST PUSH4 0x4E487B71 PUSH1 0xE0 SHL PUSH0 MSTORE PUSH1 0x11 PUSH1 0x4 MSTORE PUSH1 0x24 PUSH0 REVERT JUMPDEST DUP2 DUP2 SUB DUP2 DUP2 GT ISZERO PUSH2 0x13F5 JUMPI PUSH2 0x13F5 PUSH2 0x13CE JUMP JUMPDEST SWAP3 SWAP2 POP POP JUMP JUMPDEST PUSH4 0x4E487B71 PUSH1 0xE0 SHL PUSH0 MSTORE PUSH1 0x32 PUSH1 0x4 MSTORE PUSH1 0x24 PUSH0 REVERT JUMPDEST DUP1 DUP3 ADD DUP1 DUP3 GT ISZERO PUSH2 0x13F5 JUMPI PUSH2 0x13F5 PUSH2 0x13CE JUMP JUMPDEST PUSH1 0x20 DUP1 DUP3 MSTORE PUSH1 0x28 SWAP1 DUP3 ADD MSTORE PUSH32 0x496E73756666696369656E742062616C616E636520696E207374616B696E6720 PUSH1 0x40 DUP3 ADD MSTORE PUSH8 0x18DBDB9D1C9858DD PUSH1 0xC2 SHL PUSH1 0x60 DUP3 ADD MSTORE PUSH1 0x80 ADD SWAP1 JUMP JUMPDEST DUP1 DUP3 MUL DUP2 ISZERO DUP3 DUP3 DIV DUP5 EQ OR PUSH2 0x13F5 JUMPI PUSH2 0x13F5 PUSH2 0x13CE JUMP JUMPDEST PUSH0 DUP3 PUSH2 0x149B JUMPI PUSH4 0x4E487B71 PUSH1 0xE0 SHL PUSH0 MSTORE PUSH1 0x12 PUSH1 0x4 MSTORE PUSH1 0x24 PUSH0 REVERT JUMPDEST POP DIV SWAP1 JUMP JUMPDEST PUSH1 0x20 DUP1 DUP3 MSTORE PUSH1 0x15 SWAP1 DUP3 ADD MSTORE PUSH21 0x151BDAD95B881D1C985B9CD9995C8819985A5B1959 PUSH1 0x5A SHL PUSH1 0x40 DUP3 ADD MSTORE PUSH1 0x60 ADD SWAP1 JUMP JUMPDEST PUSH1 0x20 DUP1 DUP3 MSTORE DUP3 MLOAD DUP3 DUP3 ADD DUP2 SWAP1 MSTORE PUSH0 SWAP2 SWAP1 DUP5 DUP3 ADD SWAP1 PUSH1 0x40 DUP6 ADD SWAP1 DUP5 JUMPDEST DUP2 DUP2 LT ISZERO PUSH2 0x1506 JUMPI DUP4 MLOAD DUP4 MSTORE SWAP3 DUP5 ADD SWAP3 SWAP2 DUP5 ADD SWAP2 PUSH1 0x1 ADD PUSH2 0x14EA JUMP JUMPDEST POP SWAP1 SWAP7 SWAP6 POP POP POP POP POP POP JUMP INVALID LOG2 PUSH5 0x6970667358 0x22 SLT KECCAK256 0xAF 0xC4 CHAINID 0xC SWAP4 PUSH18 0xE3781E184D1D88C23E77027BA1EFE1E6641D CALL SWAP16 SWAP1 PUSH32 0x61C5479064736F6C634300081800330000000000000000000000000000000000 "
				},
				"gasEstimates": {
					"creation": {
						"codeDepositCost": "1089600",
						"executionCost": "infinite",
						"totalCost": "infinite"
					},
					"external": {
						"changeRewardRates(uint256[])": "infinite",
						"claimReward()": "infinite",
						"getLastStakedClaimedTime(address)": "4729",
						"getLastStakedStartTime(address)": "4751",
						"getPendingRewards(address)": "infinite",
						"getRemainingTime(address)": "infinite",
						"getStakedAmount(address)": "4679",
						"instantUnstake()": "infinite",
						"isPaused()": "2415",
						"owner()": "2380",
						"pauseStaking(bool)": "26753",
						"rewardBase()": "2328",
						"rewardRates(uint256)": "4627",
						"stake(uint256,uint256)": "infinite",
						"stakeDurations(uint256)": "4605",
						"token()": "2446",
						"transferStuckBEP20(address)": "infinite",
						"transferStuckBNB()": "infinite",
						"unstake()": "infinite"
					}
				},
				"methodIdentifiers": {
					"changeRewardRates(uint256[])": "c55a7bce",
					"claimReward()": "b88a802f",
					"getLastStakedClaimedTime(address)": "9bcf5c24",
					"getLastStakedStartTime(address)": "5a288322",
					"getPendingRewards(address)": "f6ed2017",
					"getRemainingTime(address)": "0e85117a",
					"getStakedAmount(address)": "4da6a556",
					"instantUnstake()": "63624436",
					"isPaused()": "b187bd26",
					"owner()": "8da5cb5b",
					"pauseStaking(bool)": "5769848c",
					"rewardBase()": "562dead2",
					"rewardRates(uint256)": "f2caeb1e",
					"stake(uint256,uint256)": "7b0472f0",
					"stakeDurations(uint256)": "de3e3eff",
					"token()": "fc0c546a",
					"transferStuckBEP20(address)": "0dfec300",
					"transferStuckBNB()": "4289e4cd",
					"unstake()": "2def6620"
				}
			},
			"storageLayout": {
				"storage": [
					{
						"astId": 70,
						"contract": "contracts/Staking.sol:StakingContract",
						"label": "owner",
						"offset": 0,
						"slot": "0",
						"type": "t_address"
					},
					{
						"astId": 73,
						"contract": "contracts/Staking.sol:StakingContract",
						"label": "token",
						"offset": 0,
						"slot": "1",
						"type": "t_contract(IBEP20)68"
					},
					{
						"astId": 76,
						"contract": "contracts/Staking.sol:StakingContract",
						"label": "isPaused",
						"offset": 20,
						"slot": "1",
						"type": "t_bool"
					},
					{
						"astId": 79,
						"contract": "contracts/Staking.sol:StakingContract",
						"label": "rewardBase",
						"offset": 0,
						"slot": "2",
						"type": "t_uint256"
					},
					{
						"astId": 87,
						"contract": "contracts/Staking.sol:StakingContract",
						"label": "stakeDurations",
						"offset": 0,
						"slot": "3",
						"type": "t_array(t_uint256)dyn_storage"
					},
					{
						"astId": 95,
						"contract": "contracts/Staking.sol:StakingContract",
						"label": "rewardRates",
						"offset": 0,
						"slot": "4",
						"type": "t_array(t_uint256)dyn_storage"
					},
					{
						"astId": 109,
						"contract": "contracts/Staking.sol:StakingContract",
						"label": "stakers",
						"offset": 0,
						"slot": "5",
						"type": "t_mapping(t_address,t_struct(Stake)104_storage)"
					}
				],
				"types": {
					"t_address": {
						"encoding": "inplace",
						"label": "address",
						"numberOfBytes": "20"
					},
					"t_array(t_uint256)dyn_storage": {
						"base": "t_uint256",
						"encoding": "dynamic_array",
						"label": "uint256[]",
						"numberOfBytes": "32"
					},
					"t_bool": {
						"encoding": "inplace",
						"label": "bool",
						"numberOfBytes": "1"
					},
					"t_contract(IBEP20)68": {
						"encoding": "inplace",
						"label": "contract IBEP20",
						"numberOfBytes": "20"
					},
					"t_mapping(t_address,t_struct(Stake)104_storage)": {
						"encoding": "mapping",
						"key": "t_address",
						"label": "mapping(address => struct StakingContract.Stake)",
						"numberOfBytes": "32",
						"value": "t_struct(Stake)104_storage"
					},
					"t_struct(Stake)104_storage": {
						"encoding": "inplace",
						"label": "struct StakingContract.Stake",
						"members": [
							{
								"astId": 97,
								"contract": "contracts/Staking.sol:StakingContract",
								"label": "amount",
								"offset": 0,
								"slot": "0",
								"type": "t_uint256"
							},
							{
								"astId": 99,
								"contract": "contracts/Staking.sol:StakingContract",
								"label": "startTime",
								"offset": 0,
								"slot": "1",
								"type": "t_uint256"
							},
							{
								"astId": 101,
								"contract": "contracts/Staking.sol:StakingContract",
								"label": "lastClaimTime",
								"offset": 0,
								"slot": "2",
								"type": "t_uint256"
							},
							{
								"astId": 103,
								"contract": "contracts/Staking.sol:StakingContract",
								"label": "durationIndex",
								"offset": 0,
								"slot": "3",
								"type": "t_uint256"
							}
						],
						"numberOfBytes": "128"
					},
					"t_uint256": {
						"encoding": "inplace",
						"label": "uint256",
						"numberOfBytes": "32"
					}
				}
			},
			"userdoc": {
				"kind": "user",
				"methods": {},
				"version": 1
			}
		}
	}
}