{
	"contracts/SOlar.sol": {
		"STS": {
			"abi": [
				{
					"inputs": [],
					"stateMutability": "nonpayable",
					"type": "constructor"
				},
				{
					"anonymous": false,
					"inputs": [
						{
							"indexed": true,
							"internalType": "address",
							"name": "owner",
							"type": "address"
						},
						{
							"indexed": true,
							"internalType": "address",
							"name": "spender",
							"type": "address"
						},
						{
							"indexed": false,
							"internalType": "uint256",
							"name": "value",
							"type": "uint256"
						}
					],
					"name": "Approval",
					"type": "event"
				},
				{
					"anonymous": false,
					"inputs": [
						{
							"indexed": false,
							"internalType": "uint256",
							"name": "minTokensBeforeSwap",
							"type": "uint256"
						}
					],
					"name": "MinTokensBeforeSwapUpdated",
					"type": "event"
				},
				{
					"anonymous": false,
					"inputs": [
						{
							"indexed": true,
							"internalType": "address",
							"name": "previousOwner",
							"type": "address"
						},
						{
							"indexed": true,
							"internalType": "address",
							"name": "newOwner",
							"type": "address"
						}
					],
					"name": "OwnershipTransferred",
					"type": "event"
				},
				{
					"anonymous": false,
					"inputs": [
						{
							"indexed": false,
							"internalType": "bool",
							"name": "enabled",
							"type": "bool"
						}
					],
					"name": "SwapEnabledUpdated",
					"type": "event"
				},
				{
					"anonymous": false,
					"inputs": [
						{
							"indexed": true,
							"internalType": "address",
							"name": "from",
							"type": "address"
						},
						{
							"indexed": true,
							"internalType": "address",
							"name": "to",
							"type": "address"
						},
						{
							"indexed": false,
							"internalType": "uint256",
							"name": "value",
							"type": "uint256"
						}
					],
					"name": "Transfer",
					"type": "event"
				},
				{
					"inputs": [
						{
							"internalType": "uint256",
							"name": "maxTxAmount",
							"type": "uint256"
						}
					],
					"name": "_setMaxTxAmount",
					"outputs": [],
					"stateMutability": "nonpayable",
					"type": "function"
				},
				{
					"inputs": [
						{
							"internalType": "uint256",
							"name": "_taxFee",
							"type": "uint256"
						}
					],
					"name": "_setTaxFee",
					"outputs": [],
					"stateMutability": "nonpayable",
					"type": "function"
				},
				{
					"inputs": [
						{
							"internalType": "address",
							"name": "owner",
							"type": "address"
						},
						{
							"internalType": "address",
							"name": "spender",
							"type": "address"
						}
					],
					"name": "allowance",
					"outputs": [
						{
							"internalType": "uint256",
							"name": "",
							"type": "uint256"
						}
					],
					"stateMutability": "view",
					"type": "function"
				},
				{
					"inputs": [
						{
							"internalType": "address",
							"name": "spender",
							"type": "address"
						},
						{
							"internalType": "uint256",
							"name": "amount",
							"type": "uint256"
						}
					],
					"name": "approve",
					"outputs": [
						{
							"internalType": "bool",
							"name": "",
							"type": "bool"
						}
					],
					"stateMutability": "nonpayable",
					"type": "function"
				},
				{
					"inputs": [
						{
							"internalType": "address",
							"name": "account",
							"type": "address"
						}
					],
					"name": "balanceOf",
					"outputs": [
						{
							"internalType": "uint256",
							"name": "",
							"type": "uint256"
						}
					],
					"stateMutability": "view",
					"type": "function"
				},
				{
					"inputs": [],
					"name": "buybackAddress",
					"outputs": [
						{
							"internalType": "address payable",
							"name": "",
							"type": "address"
						}
					],
					"stateMutability": "view",
					"type": "function"
				},
				{
					"inputs": [],
					"name": "buybackFee",
					"outputs": [
						{
							"internalType": "uint256",
							"name": "",
							"type": "uint256"
						}
					],
					"stateMutability": "view",
					"type": "function"
				},
				{
					"inputs": [
						{
							"internalType": "uint256",
							"name": "amount",
							"type": "uint256"
						}
					],
					"name": "changeNumOfTokensToExchange",
					"outputs": [],
					"stateMutability": "nonpayable",
					"type": "function"
				},
				{
					"inputs": [
						{
							"internalType": "address",
							"name": "pair",
							"type": "address"
						}
					],
					"name": "changeUniswapPair",
					"outputs": [],
					"stateMutability": "nonpayable",
					"type": "function"
				},
				{
					"inputs": [],
					"name": "charityAddress",
					"outputs": [
						{
							"internalType": "address payable",
							"name": "",
							"type": "address"
						}
					],
					"stateMutability": "view",
					"type": "function"
				},
				{
					"inputs": [],
					"name": "charityFee",
					"outputs": [
						{
							"internalType": "uint256",
							"name": "",
							"type": "uint256"
						}
					],
					"stateMutability": "view",
					"type": "function"
				},
				{
					"inputs": [],
					"name": "decimals",
					"outputs": [
						{
							"internalType": "uint8",
							"name": "",
							"type": "uint8"
						}
					],
					"stateMutability": "view",
					"type": "function"
				},
				{
					"inputs": [
						{
							"internalType": "address",
							"name": "spender",
							"type": "address"
						},
						{
							"internalType": "uint256",
							"name": "subtractedValue",
							"type": "uint256"
						}
					],
					"name": "decreaseAllowance",
					"outputs": [
						{
							"internalType": "bool",
							"name": "",
							"type": "bool"
						}
					],
					"stateMutability": "nonpayable",
					"type": "function"
				},
				{
					"inputs": [
						{
							"internalType": "uint256",
							"name": "tAmount",
							"type": "uint256"
						}
					],
					"name": "deliver",
					"outputs": [],
					"stateMutability": "nonpayable",
					"type": "function"
				},
				{
					"inputs": [],
					"name": "developmentAddress",
					"outputs": [
						{
							"internalType": "address payable",
							"name": "",
							"type": "address"
						}
					],
					"stateMutability": "view",
					"type": "function"
				},
				{
					"inputs": [],
					"name": "developmentFee",
					"outputs": [
						{
							"internalType": "uint256",
							"name": "",
							"type": "uint256"
						}
					],
					"stateMutability": "view",
					"type": "function"
				},
				{
					"inputs": [],
					"name": "enableTrading",
					"outputs": [],
					"stateMutability": "nonpayable",
					"type": "function"
				},
				{
					"inputs": [
						{
							"internalType": "address",
							"name": "account",
							"type": "address"
						}
					],
					"name": "excludeAccount",
					"outputs": [],
					"stateMutability": "nonpayable",
					"type": "function"
				},
				{
					"inputs": [],
					"name": "geUnlockTime",
					"outputs": [
						{
							"internalType": "uint256",
							"name": "",
							"type": "uint256"
						}
					],
					"stateMutability": "view",
					"type": "function"
				},
				{
					"inputs": [
						{
							"internalType": "address",
							"name": "account",
							"type": "address"
						}
					],
					"name": "includeAccount",
					"outputs": [],
					"stateMutability": "nonpayable",
					"type": "function"
				},
				{
					"inputs": [
						{
							"internalType": "address",
							"name": "spender",
							"type": "address"
						},
						{
							"internalType": "uint256",
							"name": "addedValue",
							"type": "uint256"
						}
					],
					"name": "increaseAllowance",
					"outputs": [
						{
							"internalType": "bool",
							"name": "",
							"type": "bool"
						}
					],
					"stateMutability": "nonpayable",
					"type": "function"
				},
				{
					"inputs": [
						{
							"internalType": "address",
							"name": "account",
							"type": "address"
						}
					],
					"name": "isExcluded",
					"outputs": [
						{
							"internalType": "bool",
							"name": "",
							"type": "bool"
						}
					],
					"stateMutability": "view",
					"type": "function"
				},
				{
					"inputs": [
						{
							"internalType": "address",
							"name": "account",
							"type": "address"
						}
					],
					"name": "isExcludedFromFee",
					"outputs": [
						{
							"internalType": "bool",
							"name": "",
							"type": "bool"
						}
					],
					"stateMutability": "view",
					"type": "function"
				},
				{
					"inputs": [
						{
							"internalType": "uint256",
							"name": "time",
							"type": "uint256"
						}
					],
					"name": "lock",
					"outputs": [],
					"stateMutability": "nonpayable",
					"type": "function"
				},
				{
					"inputs": [],
					"name": "manualSwap",
					"outputs": [],
					"stateMutability": "nonpayable",
					"type": "function"
				},
				{
					"inputs": [],
					"name": "marketingAddress",
					"outputs": [
						{
							"internalType": "address payable",
							"name": "",
							"type": "address"
						}
					],
					"stateMutability": "view",
					"type": "function"
				},
				{
					"inputs": [],
					"name": "marketingFee",
					"outputs": [
						{
							"internalType": "uint256",
							"name": "",
							"type": "uint256"
						}
					],
					"stateMutability": "view",
					"type": "function"
				},
				{
					"inputs": [],
					"name": "name",
					"outputs": [
						{
							"internalType": "string",
							"name": "",
							"type": "string"
						}
					],
					"stateMutability": "view",
					"type": "function"
				},
				{
					"inputs": [],
					"name": "owner",
					"outputs": [
						{
							"internalType": "address",
							"name": "",
							"type": "address"
						}
					],
					"stateMutability": "view",
					"type": "function"
				},
				{
					"inputs": [
						{
							"internalType": "uint256",
							"name": "tAmount",
							"type": "uint256"
						},
						{
							"internalType": "bool",
							"name": "deductTransferFee",
							"type": "bool"
						}
					],
					"name": "reflectionFromToken",
					"outputs": [
						{
							"internalType": "uint256",
							"name": "",
							"type": "uint256"
						}
					],
					"stateMutability": "view",
					"type": "function"
				},
				{
					"inputs": [],
					"name": "renounceOwnership",
					"outputs": [],
					"stateMutability": "nonpayable",
					"type": "function"
				},
				{
					"inputs": [
						{
							"internalType": "address",
							"name": "account",
							"type": "address"
						},
						{
							"internalType": "bool",
							"name": "excluded",
							"type": "bool"
						}
					],
					"name": "setExcludeFromFee",
					"outputs": [],
					"stateMutability": "nonpayable",
					"type": "function"
				},
				{
					"inputs": [
						{
							"internalType": "uint256",
							"name": "updatedCharityFee",
							"type": "uint256"
						},
						{
							"internalType": "uint256",
							"name": "updatedMarketingFee",
							"type": "uint256"
						},
						{
							"internalType": "uint256",
							"name": "updatedDevelopmentFee",
							"type": "uint256"
						},
						{
							"internalType": "uint256",
							"name": "updatedBuybackFee",
							"type": "uint256"
						}
					],
					"name": "setFeePercent",
					"outputs": [],
					"stateMutability": "nonpayable",
					"type": "function"
				},
				{
					"inputs": [
						{
							"internalType": "bool",
							"name": "enabled",
							"type": "bool"
						}
					],
					"name": "setSwapEnabled",
					"outputs": [],
					"stateMutability": "nonpayable",
					"type": "function"
				},
				{
					"inputs": [],
					"name": "swapEnabled",
					"outputs": [
						{
							"internalType": "bool",
							"name": "",
							"type": "bool"
						}
					],
					"stateMutability": "view",
					"type": "function"
				},
				{
					"inputs": [],
					"name": "symbol",
					"outputs": [
						{
							"internalType": "string",
							"name": "",
							"type": "string"
						}
					],
					"stateMutability": "view",
					"type": "function"
				},
				{
					"inputs": [],
					"name": "taxFee",
					"outputs": [
						{
							"internalType": "uint256",
							"name": "",
							"type": "uint256"
						}
					],
					"stateMutability": "view",
					"type": "function"
				},
				{
					"inputs": [
						{
							"internalType": "uint256",
							"name": "rAmount",
							"type": "uint256"
						}
					],
					"name": "tokenFromReflection",
					"outputs": [
						{
							"internalType": "uint256",
							"name": "",
							"type": "uint256"
						}
					],
					"stateMutability": "view",
					"type": "function"
				},
				{
					"inputs": [],
					"name": "totalFees",
					"outputs": [
						{
							"internalType": "uint256",
							"name": "",
							"type": "uint256"
						}
					],
					"stateMutability": "view",
					"type": "function"
				},
				{
					"inputs": [],
					"name": "totalSupply",
					"outputs": [
						{
							"internalType": "uint256",
							"name": "",
							"type": "uint256"
						}
					],
					"stateMutability": "view",
					"type": "function"
				},
				{
					"inputs": [],
					"name": "tradingEnabled",
					"outputs": [
						{
							"internalType": "bool",
							"name": "",
							"type": "bool"
						}
					],
					"stateMutability": "view",
					"type": "function"
				},
				{
					"inputs": [
						{
							"internalType": "address",
							"name": "recipient",
							"type": "address"
						},
						{
							"internalType": "uint256",
							"name": "amount",
							"type": "uint256"
						}
					],
					"name": "transfer",
					"outputs": [
						{
							"internalType": "bool",
							"name": "",
							"type": "bool"
						}
					],
					"stateMutability": "nonpayable",
					"type": "function"
				},
				{
					"inputs": [
						{
							"internalType": "address",
							"name": "sender",
							"type": "address"
						},
						{
							"internalType": "address",
							"name": "recipient",
							"type": "address"
						},
						{
							"internalType": "uint256",
							"name": "amount",
							"type": "uint256"
						}
					],
					"name": "transferFrom",
					"outputs": [
						{
							"internalType": "bool",
							"name": "",
							"type": "bool"
						}
					],
					"stateMutability": "nonpayable",
					"type": "function"
				},
				{
					"inputs": [
						{
							"internalType": "address",
							"name": "newOwner",
							"type": "address"
						}
					],
					"name": "transferOwnership",
					"outputs": [],
					"stateMutability": "nonpayable",
					"type": "function"
				},
				{
					"inputs": [],
					"name": "uniswapV2Pair",
					"outputs": [
						{
							"internalType": "address",
							"name": "",
							"type": "address"
						}
					],
					"stateMutability": "view",
					"type": "function"
				},
				{
					"inputs": [],
					"name": "uniswapV2Router",
					"outputs": [
						{
							"internalType": "contract IUniswapV2Router02",
							"name": "",
							"type": "address"
						}
					],
					"stateMutability": "view",
					"type": "function"
				},
				{
					"inputs": [],
					"name": "unlock",
					"outputs": [],
					"stateMutability": "nonpayable",
					"type": "function"
				},
				{
					"stateMutability": "payable",
					"type": "receive"
				}
			],
			"devdoc": {
				"events": {
					"Approval(address,address,uint256)": {
						"details": "Emitted when the allowance of a `spender` for an `owner` is set by a call to {approve}. `value` is the new allowance."
					},
					"Transfer(address,address,uint256)": {
						"details": "Emitted when `value` tokens are moved from one account (`from`) to another (`to`). Note that `value` may be zero."
					}
				},
				"kind": "dev",
				"methods": {
					"allowance(address,address)": {
						"details": "Returns the remaining number of tokens that `spender` will be allowed to spend on behalf of `owner` through {transferFrom}. This is zero by default. This value changes when {approve} or {transferFrom} are called."
					},
					"approve(address,uint256)": {
						"details": "Sets `amount` as the allowance of `spender` over the caller's tokens. Returns a boolean value indicating whether the operation succeeded. IMPORTANT: Beware that changing an allowance with this method brings the risk that someone may use both the old and the new allowance by unfortunate transaction ordering. One possible solution to mitigate this race condition is to first reduce the spender's allowance to 0 and set the desired value afterwards: https://github.com/ethereum/EIPs/issues/20#issuecomment-263524729 Emits an {Approval} event."
					},
					"balanceOf(address)": {
						"details": "Returns the amount of tokens owned by `account`."
					},
					"owner()": {
						"details": "Returns the address of the current owner."
					},
					"renounceOwnership()": {
						"details": "Leaves the contract without owner. It will not be possible to call `onlyOwner` functions anymore. Can only be called by the current owner. NOTE: Renouncing ownership will leave the contract without an owner, thereby removing any functionality that is only available to the owner."
					},
					"totalSupply()": {
						"details": "Returns the amount of tokens in existence."
					},
					"transfer(address,uint256)": {
						"details": "Moves `amount` tokens from the caller's account to `recipient`. Returns a boolean value indicating whether the operation succeeded. Emits a {Transfer} event."
					},
					"transferFrom(address,address,uint256)": {
						"details": "Moves `amount` tokens from `sender` to `recipient` using the allowance mechanism. `amount` is then deducted from the caller's allowance. Returns a boolean value indicating whether the operation succeeded. Emits a {Transfer} event."
					},
					"transferOwnership(address)": {
						"details": "Transfers ownership of the contract to a new account (`newOwner`). Can only be called by the current owner."
					}
				},
				"version": 1
			},
			"evm": {
				"assembly": "    /* \"contracts/SOlar.sol\":26547:47260  contract STS is Context, IERC20, Ownable {... */\n  mstore(0x40, 0x80)\n    /* \"contracts/SOlar.sol\":27110:27128  1000000000 * 10**9 */\n  0x0de0b6b3a7640000\n    /* \"contracts/SOlar.sol\":27084:27128  uint256 private _tTotal = 1000000000 * 10**9 */\n  0x09\n  dup2\n  swap1\n  sstore\n    /* \"contracts/SOlar.sol\":27173:27186  MAX % _tTotal */\n  tag_1\n  swap1\n  not(0x00)\n  tag_2\n  jump\t// in\ntag_1:\n    /* \"contracts/SOlar.sol\":27166:27187  MAX - (MAX % _tTotal) */\n  tag_3\n  swap1\n  not(0x00)\n  tag_4\n  jump\t// in\ntag_3:\n    /* \"contracts/SOlar.sol\":27139:27188  uint256 private _rTotal = (MAX - (MAX % _tTotal)) */\n  0x0a\n  sstore\n    /* \"contracts/SOlar.sol\":27238:27280  string private _name = 'Stellar Sun Token' */\n  0x40\n  dup1\n  mload\n  dup1\n  dup3\n  add\n  swap1\n  swap2\n  mstore\n  0x11\n  dup2\n  mstore\n  shl(0x79, 0x29ba32b63630b91029bab7102a37b5b2b7)\n  0x20\n  dup3\n  add\n  mstore\n  0x0c\n  swap1\n  tag_5\n  swap1\n  dup3\n  tag_6\n  jump\t// in\ntag_5:\n  pop\n    /* \"contracts/SOlar.sol\":27291:27321  string private _symbol = 'STS' */\n  0x40\n  dup1\n  mload\n  dup1\n  dup3\n  add\n  swap1\n  swap2\n  mstore\n  0x03\n  dup2\n  mstore\n  shl(0xe8, 0x535453)\n  0x20\n  dup3\n  add\n  mstore\n  0x0d\n  swap1\n  tag_7\n  swap1\n  dup3\n  tag_6\n  jump\t// in\ntag_7:\n  pop\n    /* \"contracts/SOlar.sol\":27332:27359  uint8 private _decimals = 9 */\n  0x0e\n  dup1\n  sload\n  not(0xffff)\n    /* \"contracts/SOlar.sol\":27372:27406  bool public tradingEnabled = false */\n  and\n    /* \"contracts/SOlar.sol\":27358:27359  9 */\n  0x09\n    /* \"contracts/SOlar.sol\":27372:27406  bool public tradingEnabled = false */\n  or\n  swap1\n  sstore\n    /* \"contracts/SOlar.sol\":27458:27459  2 */\n  0x02\n    /* \"contracts/SOlar.sol\":27434:27459  uint256 public taxFee = 2 */\n  0x0f\n  sstore\n    /* \"contracts/SOlar.sol\":27332:27359  uint8 private _decimals = 9 */\n  0x01\n    /* \"contracts/SOlar.sol\":27471:27500  uint256 public charityFee = 1 */\n  0x10\n  dup2\n  swap1\n  sstore\n    /* \"contracts/SOlar.sol\":27511:27542  uint256 public marketingFee = 1 */\n  0x11\n  dup2\n  swap1\n  sstore\n    /* \"contracts/SOlar.sol\":27553:27586  uint256 public developmentFee = 1 */\n  0x12\n  dup2\n  swap1\n  sstore\n    /* \"contracts/SOlar.sol\":27597:27626  uint256 public buybackFee = 1 */\n  0x13\n  dup2\n  swap1\n  sstore\n    /* \"contracts/SOlar.sol\":27332:27359  uint8 private _decimals = 9 */\n  dup1\n    /* \"contracts/SOlar.sol\":27656:27681  charityFee + marketingFee */\n  tag_8\n    /* \"contracts/SOlar.sol\":27332:27359  uint8 private _decimals = 9 */\n  dup2\n  dup1\n    /* \"contracts/SOlar.sol\":27656:27681  charityFee + marketingFee */\n  tag_9\n  jump\t// in\ntag_8:\n    /* \"contracts/SOlar.sol\":27656:27698  charityFee + marketingFee + developmentFee */\n  tag_10\n  swap2\n  swap1\n  tag_9\n  jump\t// in\ntag_10:\n    /* \"contracts/SOlar.sol\":27656:27711  charityFee + marketingFee + developmentFee + buybackFee */\n  tag_11\n  swap2\n  swap1\n  tag_9\n  jump\t// in\ntag_11:\n    /* \"contracts/SOlar.sol\":27637:27711  uint256 totalFee = charityFee + marketingFee + developmentFee + buybackFee */\n  0x14\n  sstore\n    /* \"contracts/SOlar.sol\":27759:27765  taxFee */\n  sload(0x0f)\n    /* \"contracts/SOlar.sol\":27725:27765  uint256 private _previousTaxFee = taxFee */\n  0x15\n  sstore\n    /* \"contracts/SOlar.sol\":27814:27824  charityFee */\n  sload(0x10)\n    /* \"contracts/SOlar.sol\":27776:27824  uint256 private _previousCharityFee = charityFee */\n  0x16\n  sstore\n    /* \"contracts/SOlar.sol\":27876:27888  marketingFee */\n  sload(0x11)\n    /* \"contracts/SOlar.sol\":27836:27888  uint256 private _previousMarketingFee = marketingFee */\n  0x17\n  sstore\n    /* \"contracts/SOlar.sol\":27942:27956  developmentFee */\n  sload(0x12)\n    /* \"contracts/SOlar.sol\":27900:27956  uint256 private _previousDevelopmentFee = developmentFee */\n  0x18\n  sstore\n    /* \"contracts/SOlar.sol\":28006:28016  buybackFee */\n  sload(0x13)\n    /* \"contracts/SOlar.sol\":27968:28016  uint256 private _previousBuybackFee = buybackFee */\n  0x19\n  sstore\n    /* \"contracts/SOlar.sol\":28040:28131  address payable public charityAddress = payable(0x506df9716a793D02f89aD32Dc858bBB6F26268aa) */\n  0x1a\n  dup1\n  sload\n  not(sub(shl(0xa0, 0x01), 0x01))\n  swap1\n  dup2\n  and\n    /* \"contracts/SOlar.sol\":28088:28130  0x506df9716a793D02f89aD32Dc858bBB6F26268aa */\n  0x506df9716a793d02f89ad32dc858bbb6f26268aa\n    /* \"contracts/SOlar.sol\":28040:28131  address payable public charityAddress = payable(0x506df9716a793D02f89aD32Dc858bBB6F26268aa) */\n  or\n  swap1\n  swap2\n  sstore\n    /* \"contracts/SOlar.sol\":28142:28235  address payable public marketingAddress = payable(0x8714C3ADBb728B8AD25Cb0C044f57cb8b51bC155) */\n  0x1b\n  dup1\n  sload\n  dup3\n  and\n    /* \"contracts/SOlar.sol\":28192:28234  0x8714C3ADBb728B8AD25Cb0C044f57cb8b51bC155 */\n  0x8714c3adbb728b8ad25cb0c044f57cb8b51bc155\n    /* \"contracts/SOlar.sol\":28142:28235  address payable public marketingAddress = payable(0x8714C3ADBb728B8AD25Cb0C044f57cb8b51bC155) */\n  or\n  swap1\n  sstore\n    /* \"contracts/SOlar.sol\":28246:28341  address payable public developmentAddress = payable(0x9DfCeBe1459C00eA0CB6c5cEF541552Dd09dd551) */\n  0x1c\n  dup1\n  sload\n  dup3\n  and\n    /* \"contracts/SOlar.sol\":28298:28340  0x9DfCeBe1459C00eA0CB6c5cEF541552Dd09dd551 */\n  0x9dfcebe1459c00ea0cb6c5cef541552dd09dd551\n    /* \"contracts/SOlar.sol\":28246:28341  address payable public developmentAddress = payable(0x9DfCeBe1459C00eA0CB6c5cEF541552Dd09dd551) */\n  or\n  swap1\n  sstore\n    /* \"contracts/SOlar.sol\":28352:28443  address payable public buybackAddress = payable(0x16D80CbC2eA681419d40f243Dae7Dde8C4BC16bB) */\n  0x1d\n  dup1\n  sload\n  swap1\n  swap2\n  and\n    /* \"contracts/SOlar.sol\":28400:28442  0x16D80CbC2eA681419d40f243Dae7Dde8C4BC16bB */\n  0x16d80cbc2ea681419d40f243dae7dde8c4bc16bb\n    /* \"contracts/SOlar.sol\":28352:28443  address payable public buybackAddress = payable(0x16D80CbC2eA681419d40f243Dae7Dde8C4BC16bB) */\n  or\n  swap1\n  sstore\n    /* \"contracts/SOlar.sol\":28549:28568  bool inSwap = false */\n  0x1f\n  dup1\n  sload\n  not(shl(0xa0, 0xffff))\n    /* \"contracts/SOlar.sol\":28579:28609  bool public swapEnabled = true */\n  and\n  shl(0xa8, 0x01)\n  or\n  swap1\n  sstore\n    /* \"contracts/SOlar.sol\":28653:28663  10000000e9 */\n  0x2386f26fc10000\n    /* \"contracts/SOlar.sol\":28622:28663  uint256 private _maxTxAmount = 10000000e9 */\n  0x20\n  sstore\n    /* \"contracts/SOlar.sol\":28785:28798  50000 * 10**9 */\n  0x2d79883d2000\n    /* \"contracts/SOlar.sol\":28744:28798  uint256 private _numOfTokensToExchange = 50000 * 10**9 */\n  0x21\n  sstore\n    /* \"contracts/SOlar.sol\":29052:30042  constructor () {... */\n  callvalue\n  dup1\n  iszero\n  tag_12\n  jumpi\n  0x00\n  dup1\n  revert\ntag_12:\n  pop\n    /* \"contracts/SOlar.sol\":15421:15438  address msgSender */\n  0x00\n    /* \"contracts/SOlar.sol\":15468:15486  _owner = msgSender */\n  dup1\n  sload\n  not(sub(shl(0xa0, 0x01), 0x01))\n  and\n    /* \"contracts/SOlar.sol\":213:223  msg.sender */\n  caller\n    /* \"contracts/SOlar.sol\":15468:15486  _owner = msgSender */\n  swap1\n  dup2\n  or\n  dup3\n  sstore\n    /* \"contracts/SOlar.sol\":15506:15549  OwnershipTransferred(address(0), msgSender) */\n  mload(0x40)\n    /* \"contracts/SOlar.sol\":213:223  msg.sender */\n  swap1\n  swap2\n  dup3\n  swap2\n    /* \"contracts/SOlar.sol\":15506:15549  OwnershipTransferred(address(0), msgSender) */\n  0x8be0079c531659141344cd1fd0a4f28419497f9722a3daafe3b4186f6b6457e0\n  swap1\n    /* \"contracts/SOlar.sol\":15421:15438  address msgSender */\n  dup3\n  swap1\n    /* \"contracts/SOlar.sol\":15506:15549  OwnershipTransferred(address(0), msgSender) */\n  log3\n  pop\n    /* \"contracts/SOlar.sol\":29106:29113  _rTotal */\n  sload(0x0a)\n    /* \"contracts/SOlar.sol\":213:223  msg.sender */\n  caller\n    /* \"contracts/SOlar.sol\":29082:29103  _rOwned[_msgSender()] */\n  0x00\n  swap1\n  dup2\n  mstore\n    /* \"contracts/SOlar.sol\":29082:29089  _rOwned */\n  0x03\n    /* \"contracts/SOlar.sol\":29082:29103  _rOwned[_msgSender()] */\n  0x20\n  swap1\n  dup2\n  mstore\n  0x40\n  swap2\n  dup3\n  swap1\n  keccak256\n    /* \"contracts/SOlar.sol\":29082:29113  _rOwned[_msgSender()] = _rTotal */\n  swap3\n  swap1\n  swap3\n  sstore\n    /* \"contracts/SOlar.sol\":29370:29396  _uniswapV2Router.factory() */\n  dup1\n  mload\n  shl(0xe0, 0xc45a0155)\n  dup2\n  mstore\n  swap1\n  mload\n    /* \"contracts/SOlar.sol\":29187:29229  0xD99D1c33F9fC3444f8101754aBC46c52416550D1 */\n  0xd99d1c33f9fc3444f8101754abc46c52416550d1\n  swap3\n  dup4\n  swap3\n    /* \"contracts/SOlar.sol\":29370:29394  _uniswapV2Router.factory */\n  0xc45a0155\n  swap3\n    /* \"contracts/SOlar.sol\":29370:29396  _uniswapV2Router.factory() */\n  0x04\n  dup1\n  dup4\n  add\n  swap4\n    /* \"contracts/SOlar.sol\":29082:29103  _rOwned[_msgSender()] */\n  swap3\n    /* \"contracts/SOlar.sol\":29370:29396  _uniswapV2Router.factory() */\n  dup3\n  swap1\n  sub\n  add\n  dup2\n    /* \"contracts/SOlar.sol\":29187:29229  0xD99D1c33F9fC3444f8101754aBC46c52416550D1 */\n  dup7\n    /* \"contracts/SOlar.sol\":29370:29396  _uniswapV2Router.factory() */\n  gas\n  staticcall\n  iszero\n  dup1\n  iszero\n  tag_21\n  jumpi\n  returndatasize\n  0x00\n  dup1\n  returndatacopy\n  revert(0x00, returndatasize)\ntag_21:\n  pop\n  pop\n  pop\n  pop\n  mload(0x40)\n  returndatasize\n  not(0x1f)\n  0x1f\n  dup3\n  add\n  and\n  dup3\n  add\n  dup1\n  0x40\n  mstore\n  pop\n  dup2\n  add\n  swap1\n  tag_22\n  swap2\n  swap1\n  tag_23\n  jump\t// in\ntag_22:\n  sub(shl(0xa0, 0x01), 0x01)\n    /* \"contracts/SOlar.sol\":29352:29426  IUniswapV2Factory(_uniswapV2Router.factory())... */\n  and\n  0xc9c65396\n    /* \"contracts/SOlar.sol\":29435:29439  this */\n  address\n    /* \"contracts/SOlar.sol\":29442:29458  _uniswapV2Router */\n  dup4\n  sub(shl(0xa0, 0x01), 0x01)\n    /* \"contracts/SOlar.sol\":29442:29463  _uniswapV2Router.WETH */\n  and\n  0xad5c4648\n    /* \"contracts/SOlar.sol\":29442:29465  _uniswapV2Router.WETH() */\n  mload(0x40)\n  dup2\n  0xffffffff\n  and\n  0xe0\n  shl\n  dup2\n  mstore\n  0x04\n  add\n  0x20\n  mload(0x40)\n  dup1\n  dup4\n  sub\n  dup2\n  dup7\n  gas\n  staticcall\n  iszero\n  dup1\n  iszero\n  tag_25\n  jumpi\n  returndatasize\n  0x00\n  dup1\n  returndatacopy\n  revert(0x00, returndatasize)\ntag_25:\n  pop\n  pop\n  pop\n  pop\n  mload(0x40)\n  returndatasize\n  not(0x1f)\n  0x1f\n  dup3\n  add\n  and\n  dup3\n  add\n  dup1\n  0x40\n  mstore\n  pop\n  dup2\n  add\n  swap1\n  tag_26\n  swap2\n  swap1\n  tag_23\n  jump\t// in\ntag_26:\n    /* \"contracts/SOlar.sol\":29352:29466  IUniswapV2Factory(_uniswapV2Router.factory())... */\n  mload(0x40)\n  not(sub(shl(0xe0, 0x01), 0x01))\n  0xe0\n  dup6\n  swap1\n  shl\n  and\n  dup2\n  mstore\n  sub(shl(0xa0, 0x01), 0x01)\n    /* \"#utility.yul\":3835:3850   */\n  swap3\n  dup4\n  and\n    /* \"contracts/SOlar.sol\":29352:29466  IUniswapV2Factory(_uniswapV2Router.factory())... */\n  0x04\n  dup3\n  add\n    /* \"#utility.yul\":3817:3851   */\n  mstore\n    /* \"#utility.yul\":3887:3902   */\n  swap2\n  and\n    /* \"#utility.yul\":3867:3885   */\n  0x24\n  dup3\n  add\n    /* \"#utility.yul\":3860:3903   */\n  mstore\n    /* \"#utility.yul\":3752:3770   */\n  0x44\n  add\n    /* \"contracts/SOlar.sol\":29352:29466  IUniswapV2Factory(_uniswapV2Router.factory())... */\n  0x20\n  mload(0x40)\n  dup1\n  dup4\n  sub\n  dup2\n  0x00\n  dup8\n  gas\n  call\n  iszero\n  dup1\n  iszero\n  tag_30\n  jumpi\n  returndatasize\n  0x00\n  dup1\n  returndatacopy\n  revert(0x00, returndatasize)\ntag_30:\n  pop\n  pop\n  pop\n  pop\n  mload(0x40)\n  returndatasize\n  not(0x1f)\n  0x1f\n  dup3\n  add\n  and\n  dup3\n  add\n  dup1\n  0x40\n  mstore\n  pop\n  dup2\n  add\n  swap1\n  tag_31\n  swap2\n  swap1\n  tag_23\n  jump\t// in\ntag_31:\n    /* \"contracts/SOlar.sol\":29336:29349  uniswapV2Pair */\n  0x1f\n    /* \"contracts/SOlar.sol\":29336:29466  uniswapV2Pair = IUniswapV2Factory(_uniswapV2Router.factory())... */\n  dup1\n  sload\n  not(sub(shl(0xa0, 0x01), 0x01))\n  swap1\n  dup2\n  and\n  sub(shl(0xa0, 0x01), 0x01)\n  swap4\n  dup5\n  and\n  or\n  swap1\n  swap2\n  sstore\n    /* \"contracts/SOlar.sol\":29538:29553  uniswapV2Router */\n  0x1e\n    /* \"contracts/SOlar.sol\":29538:29572  uniswapV2Router = _uniswapV2Router */\n  dup1\n  sload\n  swap1\n  swap2\n  and\n  swap2\n  dup4\n  and\n  swap2\n  swap1\n  swap2\n  or\n  swap1\n  sstore\n  0x01\n    /* \"contracts/SOlar.sol\":29646:29664  _isExcludedFromFee */\n  0x06\n  0x00\n    /* \"contracts/SOlar.sol\":29665:29672  owner() */\n  tag_32\n    /* \"contracts/SOlar.sol\":15694:15701  address */\n  0x00\n    /* \"contracts/SOlar.sol\":15725:15731  _owner */\n  sload\n  sub(shl(0xa0, 0x01), 0x01)\n  and\n  swap1\n    /* \"contracts/SOlar.sol\":15656:15743  function owner() public view returns (address) {... */\n  jump\n    /* \"contracts/SOlar.sol\":29665:29672  owner() */\ntag_32:\n  sub(shl(0xa0, 0x01), 0x01)\n    /* \"contracts/SOlar.sol\":29646:29673  _isExcludedFromFee[owner()] */\n  swap1\n  dup2\n  and\n  dup3\n  mstore\n  0x20\n  dup1\n  dup4\n  add\n  swap4\n  swap1\n  swap4\n  mstore\n  0x40\n  swap2\n  dup3\n  add\n  0x00\n  swap1\n  dup2\n  keccak256\n    /* \"contracts/SOlar.sol\":29646:29680  _isExcludedFromFee[owner()] = true */\n  dup1\n  sload\n  swap6\n  iszero\n  iszero\n  not(0xff)\n  swap7\n  dup8\n  and\n  or\n  swap1\n  sstore\n    /* \"contracts/SOlar.sol\":29722:29726  this */\n  address\n    /* \"contracts/SOlar.sol\":29695:29728  _isExcludedFromFee[address(this)] */\n  dup2\n  mstore\n    /* \"contracts/SOlar.sol\":29695:29713  _isExcludedFromFee */\n  0x06\n    /* \"contracts/SOlar.sol\":29695:29728  _isExcludedFromFee[address(this)] */\n  swap1\n  swap4\n  mstore\n  dup2\n  dup4\n  keccak256\n    /* \"contracts/SOlar.sol\":29695:29735  _isExcludedFromFee[address(this)] = true */\n  dup1\n  sload\n  dup6\n  and\n    /* \"contracts/SOlar.sol\":29646:29680  _isExcludedFromFee[owner()] = true */\n  0x01\n    /* \"contracts/SOlar.sol\":29695:29735  _isExcludedFromFee[address(this)] = true */\n  swap1\n  dup2\n  or\n  swap1\n  swap2\n  sstore\n    /* \"contracts/SOlar.sol\":29769:29785  marketingAddress */\n  sload(0x1b)\n  dup3\n  and\n    /* \"contracts/SOlar.sol\":29750:29786  _isExcludedFromFee[marketingAddress] */\n  dup5\n  mstore\n  dup3\n  dup5\n  keccak256\n    /* \"contracts/SOlar.sol\":29750:29793  _isExcludedFromFee[marketingAddress] = true */\n  dup1\n  sload\n  dup7\n  and\n  dup3\n  or\n  swap1\n  sstore\n    /* \"contracts/SOlar.sol\":29827:29841  charityAddress */\n  sload(0x1a)\n  dup3\n  and\n    /* \"contracts/SOlar.sol\":29808:29842  _isExcludedFromFee[charityAddress] */\n  dup5\n  mstore\n  dup3\n  dup5\n  keccak256\n    /* \"contracts/SOlar.sol\":29808:29849  _isExcludedFromFee[charityAddress] = true */\n  dup1\n  sload\n  dup7\n  and\n  dup3\n  or\n  swap1\n  sstore\n    /* \"contracts/SOlar.sol\":29883:29901  developmentAddress */\n  sload(0x1c)\n  dup3\n  and\n    /* \"contracts/SOlar.sol\":29864:29902  _isExcludedFromFee[developmentAddress] */\n  dup5\n  mstore\n  dup3\n  dup5\n  keccak256\n    /* \"contracts/SOlar.sol\":29864:29909  _isExcludedFromFee[developmentAddress] = true */\n  dup1\n  sload\n  dup7\n  and\n  dup3\n  or\n  swap1\n  sstore\n    /* \"contracts/SOlar.sol\":29943:29957  buybackAddress */\n  sload(0x1d)\n  swap1\n  swap2\n  and\n    /* \"contracts/SOlar.sol\":29924:29958  _isExcludedFromFee[buybackAddress] */\n  dup4\n  mstore\n  swap2\n  keccak256\n    /* \"contracts/SOlar.sol\":29924:29965  _isExcludedFromFee[buybackAddress] = true */\n  dup1\n  sload\n  swap1\n  swap3\n  and\n  or\n  swap1\n  sstore\n    /* \"contracts/SOlar.sol\":30008:30020  _msgSender() */\n  tag_34\n    /* \"contracts/SOlar.sol\":213:223  msg.sender */\n  caller\n  swap1\n    /* \"contracts/SOlar.sol\":113:236  function _msgSender() internal view virtual returns (address payable) {... */\n  jump\n    /* \"contracts/SOlar.sol\":30008:30020  _msgSender() */\ntag_34:\n  sub(shl(0xa0, 0x01), 0x01)\n    /* \"contracts/SOlar.sol\":29987:30030  Transfer(address(0), _msgSender(), _tTotal) */\n  and\n    /* \"contracts/SOlar.sol\":30004:30005  0 */\n  0x00\n  sub(shl(0xa0, 0x01), 0x01)\n    /* \"contracts/SOlar.sol\":29987:30030  Transfer(address(0), _msgSender(), _tTotal) */\n  and\n  0xddf252ad1be2c89b69c2b068fc378daa952ba7f163c4a11628f55a4df523b3ef\n    /* \"contracts/SOlar.sol\":30022:30029  _tTotal */\n  sload(0x09)\n    /* \"contracts/SOlar.sol\":29987:30030  Transfer(address(0), _msgSender(), _tTotal) */\n  mload(0x40)\n  tag_35\n  swap2\n    /* \"#utility.yul\":4060:4085   */\n  dup2\n  mstore\n    /* \"#utility.yul\":4048:4050   */\n  0x20\n    /* \"#utility.yul\":4033:4051   */\n  add\n  swap1\n    /* \"#utility.yul\":3914:4091   */\n  jump\n    /* \"contracts/SOlar.sol\":29987:30030  Transfer(address(0), _msgSender(), _tTotal) */\ntag_35:\n  mload(0x40)\n  dup1\n  swap2\n  sub\n  swap1\n  log3\n    /* \"contracts/SOlar.sol\":29067:30042  {... */\n  pop\n    /* \"contracts/SOlar.sol\":26547:47260  contract STS is Context, IERC20, Ownable {... */\n  jump(tag_46)\n    /* \"#utility.yul\":14:223   */\ntag_2:\n    /* \"#utility.yul\":46:47   */\n  0x00\n    /* \"#utility.yul\":72:73   */\n  dup3\n    /* \"#utility.yul\":62:194   */\n  tag_48\n  jumpi\n    /* \"#utility.yul\":116:126   */\n  0x4e487b71\n    /* \"#utility.yul\":111:114   */\n  0xe0\n    /* \"#utility.yul\":107:127   */\n  shl\n    /* \"#utility.yul\":104:105   */\n  0x00\n    /* \"#utility.yul\":97:128   */\n  mstore\n    /* \"#utility.yul\":151:155   */\n  0x12\n    /* \"#utility.yul\":148:149   */\n  0x04\n    /* \"#utility.yul\":141:156   */\n  mstore\n    /* \"#utility.yul\":179:183   */\n  0x24\n    /* \"#utility.yul\":176:177   */\n  0x00\n    /* \"#utility.yul\":169:184   */\n  revert\n    /* \"#utility.yul\":62:194   */\ntag_48:\n  pop\n    /* \"#utility.yul\":208:217   */\n  mod\n  swap1\n    /* \"#utility.yul\":14:223   */\n  jump\t// out\n    /* \"#utility.yul\":228:355   */\ntag_40:\n    /* \"#utility.yul\":289:299   */\n  0x4e487b71\n    /* \"#utility.yul\":284:287   */\n  0xe0\n    /* \"#utility.yul\":280:300   */\n  shl\n    /* \"#utility.yul\":277:278   */\n  0x00\n    /* \"#utility.yul\":270:301   */\n  mstore\n    /* \"#utility.yul\":320:324   */\n  0x11\n    /* \"#utility.yul\":317:318   */\n  0x04\n    /* \"#utility.yul\":310:325   */\n  mstore\n    /* \"#utility.yul\":344:348   */\n  0x24\n    /* \"#utility.yul\":341:342   */\n  0x00\n    /* \"#utility.yul\":334:349   */\n  revert\n    /* \"#utility.yul\":360:488   */\ntag_4:\n    /* \"#utility.yul\":427:436   */\n  dup2\n  dup2\n  sub\n    /* \"#utility.yul\":448:459   */\n  dup2\n  dup2\n  gt\n    /* \"#utility.yul\":445:482   */\n  iszero\n  tag_52\n  jumpi\n    /* \"#utility.yul\":462:480   */\n  tag_52\n  tag_40\n  jump\t// in\ntag_52:\n    /* \"#utility.yul\":360:488   */\n  swap3\n  swap2\n  pop\n  pop\n  jump\t// out\n    /* \"#utility.yul\":493:620   */\ntag_41:\n    /* \"#utility.yul\":554:564   */\n  0x4e487b71\n    /* \"#utility.yul\":549:552   */\n  0xe0\n    /* \"#utility.yul\":545:565   */\n  shl\n    /* \"#utility.yul\":542:543   */\n  0x00\n    /* \"#utility.yul\":535:566   */\n  mstore\n    /* \"#utility.yul\":585:589   */\n  0x41\n    /* \"#utility.yul\":582:583   */\n  0x04\n    /* \"#utility.yul\":575:590   */\n  mstore\n    /* \"#utility.yul\":609:613   */\n  0x24\n    /* \"#utility.yul\":606:607   */\n  0x00\n    /* \"#utility.yul\":599:614   */\n  revert\n    /* \"#utility.yul\":625:1005   */\ntag_42:\n    /* \"#utility.yul\":704:705   */\n  0x01\n    /* \"#utility.yul\":700:712   */\n  dup2\n  dup2\n  shr\n  swap1\n    /* \"#utility.yul\":747:759   */\n  dup3\n  and\n  dup1\n    /* \"#utility.yul\":768:829   */\n  tag_55\n  jumpi\n    /* \"#utility.yul\":822:826   */\n  0x7f\n    /* \"#utility.yul\":814:820   */\n  dup3\n    /* \"#utility.yul\":810:827   */\n  and\n    /* \"#utility.yul\":800:827   */\n  swap2\n  pop\n    /* \"#utility.yul\":768:829   */\ntag_55:\n    /* \"#utility.yul\":875:877   */\n  0x20\n    /* \"#utility.yul\":867:873   */\n  dup3\n    /* \"#utility.yul\":864:878   */\n  lt\n    /* \"#utility.yul\":844:862   */\n  dup2\n    /* \"#utility.yul\":841:879   */\n  sub\n    /* \"#utility.yul\":838:999   */\n  tag_56\n  jumpi\n    /* \"#utility.yul\":921:931   */\n  0x4e487b71\n    /* \"#utility.yul\":916:919   */\n  0xe0\n    /* \"#utility.yul\":912:932   */\n  shl\n    /* \"#utility.yul\":909:910   */\n  0x00\n    /* \"#utility.yul\":902:933   */\n  mstore\n    /* \"#utility.yul\":956:960   */\n  0x22\n    /* \"#utility.yul\":953:954   */\n  0x04\n    /* \"#utility.yul\":946:961   */\n  mstore\n    /* \"#utility.yul\":984:988   */\n  0x24\n    /* \"#utility.yul\":981:982   */\n  0x00\n    /* \"#utility.yul\":974:989   */\n  revert\n    /* \"#utility.yul\":838:999   */\ntag_56:\n  pop\n    /* \"#utility.yul\":625:1005   */\n  swap2\n  swap1\n  pop\n  jump\t// out\n    /* \"#utility.yul\":1136:1654   */\ntag_44:\n    /* \"#utility.yul\":1238:1240   */\n  0x1f\n    /* \"#utility.yul\":1233:1236   */\n  dup3\n    /* \"#utility.yul\":1230:1241   */\n  gt\n    /* \"#utility.yul\":1227:1648   */\n  iszero\n  tag_59\n  jumpi\n    /* \"#utility.yul\":1274:1279   */\n  dup1\n    /* \"#utility.yul\":1271:1272   */\n  0x00\n    /* \"#utility.yul\":1264:1280   */\n  mstore\n    /* \"#utility.yul\":1318:1322   */\n  0x20\n    /* \"#utility.yul\":1315:1316   */\n  0x00\n    /* \"#utility.yul\":1305:1323   */\n  keccak256\n    /* \"#utility.yul\":1388:1390   */\n  0x1f\n    /* \"#utility.yul\":1376:1386   */\n  dup5\n    /* \"#utility.yul\":1372:1391   */\n  add\n    /* \"#utility.yul\":1369:1370   */\n  0x05\n    /* \"#utility.yul\":1365:1392   */\n  shr\n    /* \"#utility.yul\":1359:1363   */\n  dup2\n    /* \"#utility.yul\":1355:1393   */\n  add\n    /* \"#utility.yul\":1424:1428   */\n  0x20\n    /* \"#utility.yul\":1412:1422   */\n  dup6\n    /* \"#utility.yul\":1409:1429   */\n  lt\n    /* \"#utility.yul\":1406:1453   */\n  iszero\n  tag_60\n  jumpi\n  pop\n    /* \"#utility.yul\":1447:1451   */\n  dup1\n    /* \"#utility.yul\":1406:1453   */\ntag_60:\n    /* \"#utility.yul\":1502:1504   */\n  0x1f\n    /* \"#utility.yul\":1497:1500   */\n  dup5\n    /* \"#utility.yul\":1493:1505   */\n  add\n    /* \"#utility.yul\":1490:1491   */\n  0x05\n    /* \"#utility.yul\":1486:1506   */\n  shr\n    /* \"#utility.yul\":1480:1484   */\n  dup3\n    /* \"#utility.yul\":1476:1507   */\n  add\n    /* \"#utility.yul\":1466:1507   */\n  swap2\n  pop\n    /* \"#utility.yul\":1557:1638   */\ntag_61:\n    /* \"#utility.yul\":1575:1577   */\n  dup2\n    /* \"#utility.yul\":1568:1573   */\n  dup2\n    /* \"#utility.yul\":1565:1578   */\n  lt\n    /* \"#utility.yul\":1557:1638   */\n  iszero\n  tag_63\n  jumpi\n    /* \"#utility.yul\":1634:1635   */\n  0x00\n    /* \"#utility.yul\":1620:1636   */\n  dup2\n  sstore\n    /* \"#utility.yul\":1601:1602   */\n  0x01\n    /* \"#utility.yul\":1590:1603   */\n  add\n    /* \"#utility.yul\":1557:1638   */\n  jump(tag_61)\ntag_63:\n    /* \"#utility.yul\":1561:1564   */\n  pop\n  pop\n    /* \"#utility.yul\":1227:1648   */\ntag_59:\n    /* \"#utility.yul\":1136:1654   */\n  pop\n  pop\n  pop\n  jump\t// out\n    /* \"#utility.yul\":1830:3175   */\ntag_6:\n    /* \"#utility.yul\":1950:1960   */\n  dup2\n  mload\n  sub(shl(0x40, 0x01), 0x01)\n    /* \"#utility.yul\":1972:2002   */\n  dup2\n  gt\n    /* \"#utility.yul\":1969:2025   */\n  iszero\n  tag_67\n  jumpi\n    /* \"#utility.yul\":2005:2023   */\n  tag_67\n  tag_41\n  jump\t// in\ntag_67:\n    /* \"#utility.yul\":2034:2131   */\n  tag_68\n    /* \"#utility.yul\":2124:2130   */\n  dup2\n    /* \"#utility.yul\":2084:2122   */\n  tag_69\n    /* \"#utility.yul\":2116:2120   */\n  dup5\n    /* \"#utility.yul\":2110:2121   */\n  sload\n    /* \"#utility.yul\":2084:2122   */\n  tag_42\n  jump\t// in\ntag_69:\n    /* \"#utility.yul\":2078:2082   */\n  dup5\n    /* \"#utility.yul\":2034:2131   */\n  tag_44\n  jump\t// in\ntag_68:\n    /* \"#utility.yul\":2186:2190   */\n  0x20\n  dup1\n    /* \"#utility.yul\":2243:2245   */\n  0x1f\n    /* \"#utility.yul\":2232:2246   */\n  dup4\n  gt\n    /* \"#utility.yul\":2260:2261   */\n  0x01\n    /* \"#utility.yul\":2255:2918   */\n  dup2\n  eq\n  tag_71\n  jumpi\n    /* \"#utility.yul\":2962:2963   */\n  0x00\n    /* \"#utility.yul\":2979:2985   */\n  dup5\n    /* \"#utility.yul\":2976:3065   */\n  iszero\n  tag_72\n  jumpi\n  pop\n    /* \"#utility.yul\":3031:3050   */\n  dup6\n  dup4\n  add\n    /* \"#utility.yul\":3025:3051   */\n  mload\n    /* \"#utility.yul\":2976:3065   */\ntag_72:\n  not(0x00)\n    /* \"#utility.yul\":1787:1788   */\n  0x03\n    /* \"#utility.yul\":1783:1794   */\n  dup7\n  swap1\n  shl\n    /* \"#utility.yul\":1779:1803   */\n  shr\n    /* \"#utility.yul\":1775:1804   */\n  not\n    /* \"#utility.yul\":1765:1805   */\n  and\n    /* \"#utility.yul\":1811:1812   */\n  0x01\n    /* \"#utility.yul\":1807:1818   */\n  dup6\n  swap1\n  shl\n    /* \"#utility.yul\":1762:1819   */\n  or\n    /* \"#utility.yul\":3078:3159   */\n  dup6\n  sstore\n    /* \"#utility.yul\":2225:3169   */\n  jump(tag_70)\n    /* \"#utility.yul\":2255:2918   */\ntag_71:\n    /* \"#utility.yul\":1083:1084   */\n  0x00\n    /* \"#utility.yul\":1076:1090   */\n  dup6\n  dup2\n  mstore\n    /* \"#utility.yul\":1120:1124   */\n  0x20\n    /* \"#utility.yul\":1107:1125   */\n  dup2\n  keccak256\n  not(0x1f)\n    /* \"#utility.yul\":2291:2311   */\n  dup7\n  and\n  swap2\n    /* \"#utility.yul\":2409:2645   */\ntag_75:\n    /* \"#utility.yul\":2423:2430   */\n  dup3\n    /* \"#utility.yul\":2420:2421   */\n  dup2\n    /* \"#utility.yul\":2417:2431   */\n  lt\n    /* \"#utility.yul\":2409:2645   */\n  iszero\n  tag_77\n  jumpi\n    /* \"#utility.yul\":2512:2531   */\n  dup9\n  dup7\n  add\n    /* \"#utility.yul\":2506:2532   */\n  mload\n    /* \"#utility.yul\":2491:2533   */\n  dup3\n  sstore\n    /* \"#utility.yul\":2604:2631   */\n  swap5\n  dup5\n  add\n  swap5\n    /* \"#utility.yul\":2572:2573   */\n  0x01\n    /* \"#utility.yul\":2560:2574   */\n  swap1\n  swap2\n  add\n  swap1\n    /* \"#utility.yul\":2439:2458   */\n  dup5\n  add\n    /* \"#utility.yul\":2409:2645   */\n  jump(tag_75)\ntag_77:\n    /* \"#utility.yul\":2413:2416   */\n  pop\n    /* \"#utility.yul\":2673:2679   */\n  dup6\n    /* \"#utility.yul\":2664:2671   */\n  dup3\n    /* \"#utility.yul\":2661:2680   */\n  lt\n    /* \"#utility.yul\":2658:2859   */\n  iszero\n  tag_78\n  jumpi\n    /* \"#utility.yul\":2734:2753   */\n  dup8\n  dup6\n  add\n    /* \"#utility.yul\":2728:2754   */\n  mload\n  not(0x00)\n    /* \"#utility.yul\":2817:2818   */\n  0x03\n    /* \"#utility.yul\":2813:2827   */\n  dup9\n  swap1\n  shl\n    /* \"#utility.yul\":2829:2832   */\n  0xf8\n    /* \"#utility.yul\":2809:2833   */\n  and\n    /* \"#utility.yul\":2805:2842   */\n  shr\n    /* \"#utility.yul\":2801:2843   */\n  not\n    /* \"#utility.yul\":2786:2844   */\n  and\n    /* \"#utility.yul\":2771:2845   */\n  dup2\n  sstore\n    /* \"#utility.yul\":2658:2859   */\ntag_78:\n  pop\n  pop\n    /* \"#utility.yul\":2905:2906   */\n  0x01\n    /* \"#utility.yul\":2896:2902   */\n  dup5\n    /* \"#utility.yul\":2893:2894   */\n  0x01\n    /* \"#utility.yul\":2889:2903   */\n  shl\n    /* \"#utility.yul\":2885:2907   */\n  add\n    /* \"#utility.yul\":2879:2883   */\n  dup6\n    /* \"#utility.yul\":2872:2908   */\n  sstore\n    /* \"#utility.yul\":2225:3169   */\ntag_70:\n  pop\n  pop\n  pop\n  pop\n    /* \"#utility.yul\":1830:3175   */\n  pop\n  pop\n  jump\t// out\n    /* \"#utility.yul\":3180:3305   */\ntag_9:\n    /* \"#utility.yul\":3245:3254   */\n  dup1\n  dup3\n  add\n    /* \"#utility.yul\":3266:3276   */\n  dup1\n  dup3\n  gt\n    /* \"#utility.yul\":3263:3299   */\n  iszero\n  tag_52\n  jumpi\n    /* \"#utility.yul\":3279:3297   */\n  tag_52\n  tag_40\n  jump\t// in\n    /* \"#utility.yul\":3310:3600   */\ntag_23:\n    /* \"#utility.yul\":3380:3386   */\n  0x00\n    /* \"#utility.yul\":3433:3435   */\n  0x20\n    /* \"#utility.yul\":3421:3430   */\n  dup3\n    /* \"#utility.yul\":3412:3419   */\n  dup5\n    /* \"#utility.yul\":3408:3431   */\n  sub\n    /* \"#utility.yul\":3404:3436   */\n  slt\n    /* \"#utility.yul\":3401:3453   */\n  iszero\n  tag_83\n  jumpi\n    /* \"#utility.yul\":3449:3450   */\n  0x00\n    /* \"#utility.yul\":3446:3447   */\n  dup1\n    /* \"#utility.yul\":3439:3451   */\n  revert\n    /* \"#utility.yul\":3401:3453   */\ntag_83:\n    /* \"#utility.yul\":3475:3491   */\n  dup2\n  mload\n  sub(shl(0xa0, 0x01), 0x01)\n    /* \"#utility.yul\":3520:3551   */\n  dup2\n  and\n    /* \"#utility.yul\":3510:3552   */\n  dup2\n  eq\n    /* \"#utility.yul\":3500:3570   */\n  tag_84\n  jumpi\n    /* \"#utility.yul\":3566:3567   */\n  0x00\n    /* \"#utility.yul\":3563:3564   */\n  dup1\n    /* \"#utility.yul\":3556:3568   */\n  revert\n    /* \"#utility.yul\":3500:3570   */\ntag_84:\n    /* \"#utility.yul\":3589:3594   */\n  swap4\n    /* \"#utility.yul\":3310:3600   */\n  swap3\n  pop\n  pop\n  pop\n  jump\t// out\n    /* \"#utility.yul\":3914:4091   */\ntag_46:\n    /* \"contracts/SOlar.sol\":26547:47260  contract STS is Context, IERC20, Ownable {... */\n  dataSize(sub_0)\n  dup1\n  dataOffset(sub_0)\n  0x00\n  codecopy\n  0x00\n  return\nstop\n\nsub_0: assembly {\n        /* \"contracts/SOlar.sol\":26547:47260  contract STS is Context, IERC20, Ownable {... */\n      mstore(0x40, 0x80)\n      jumpi(tag_1, lt(calldatasize, 0x04))\n      shr(0xe0, calldataload(0x00))\n      dup1\n      0x78fe1b13\n      gt\n      tag_50\n      jumpi\n      dup1\n      0xb6c52324\n      gt\n      tag_51\n      jumpi\n      dup1\n      0xe01af92c\n      gt\n      tag_52\n      jumpi\n      dup1\n      0xe01af92c\n      eq\n      tag_44\n      jumpi\n      dup1\n      0xe339d520\n      eq\n      tag_45\n      jumpi\n      dup1\n      0xecfca899\n      eq\n      tag_46\n      jumpi\n      dup1\n      0xf2cc0c18\n      eq\n      tag_47\n      jumpi\n      dup1\n      0xf2fde38b\n      eq\n      tag_48\n      jumpi\n      dup1\n      0xf84354f1\n      eq\n      tag_49\n      jumpi\n      0x00\n      dup1\n      revert\n    tag_52:\n      dup1\n      0xb6c52324\n      eq\n      tag_38\n      jumpi\n      dup1\n      0xcba0e996\n      eq\n      tag_39\n      jumpi\n      dup1\n      0xcc2fbd66\n      eq\n      tag_40\n      jumpi\n      dup1\n      0xd38ab97d\n      eq\n      tag_41\n      jumpi\n      dup1\n      0xdd467064\n      eq\n      tag_42\n      jumpi\n      dup1\n      0xdd62ed3e\n      eq\n      tag_43\n      jumpi\n      0x00\n      dup1\n      revert\n    tag_51:\n      dup1\n      0xa5ece941\n      gt\n      tag_53\n      jumpi\n      dup1\n      0xa5ece941\n      eq\n      tag_32\n      jumpi\n      dup1\n      0xa5f3d003\n      eq\n      tag_33\n      jumpi\n      dup1\n      0xa69df4b5\n      eq\n      tag_34\n      jumpi\n      dup1\n      0xa9059cbb\n      eq\n      tag_35\n      jumpi\n      dup1\n      0xaf9549e0\n      eq\n      tag_36\n      jumpi\n      dup1\n      0xafcf2fc4\n      eq\n      tag_37\n      jumpi\n      0x00\n      dup1\n      revert\n    tag_53:\n      dup1\n      0x78fe1b13\n      eq\n      tag_26\n      jumpi\n      dup1\n      0x8a8c523c\n      eq\n      tag_27\n      jumpi\n      dup1\n      0x8da5cb5b\n      eq\n      tag_28\n      jumpi\n      dup1\n      0x95d89b41\n      eq\n      tag_29\n      jumpi\n      dup1\n      0xa071dcf4\n      eq\n      tag_30\n      jumpi\n      dup1\n      0xa457c2d7\n      eq\n      tag_31\n      jumpi\n      0x00\n      dup1\n      revert\n    tag_50:\n      dup1\n      0x3bd5d173\n      gt\n      tag_54\n      jumpi\n      dup1\n      0x5880b873\n      gt\n      tag_55\n      jumpi\n      dup1\n      0x5880b873\n      eq\n      tag_20\n      jumpi\n      dup1\n      0x638b1b14\n      eq\n      tag_21\n      jumpi\n      dup1\n      0x6b67c4df\n      eq\n      tag_22\n      jumpi\n      dup1\n      0x6ddd1713\n      eq\n      tag_23\n      jumpi\n      dup1\n      0x70a08231\n      eq\n      tag_24\n      jumpi\n      dup1\n      0x715018a6\n      eq\n      tag_25\n      jumpi\n      0x00\n      dup1\n      revert\n    tag_55:\n      dup1\n      0x3bd5d173\n      eq\n      tag_14\n      jumpi\n      dup1\n      0x4549b039\n      eq\n      tag_15\n      jumpi\n      dup1\n      0x49bd5a5e\n      eq\n      tag_16\n      jumpi\n      dup1\n      0x4ada218b\n      eq\n      tag_17\n      jumpi\n      dup1\n      0x51bc3c85\n      eq\n      tag_18\n      jumpi\n      dup1\n      0x5342acb4\n      eq\n      tag_19\n      jumpi\n      0x00\n      dup1\n      revert\n    tag_54:\n      dup1\n      0x1bbae6e0\n      gt\n      tag_56\n      jumpi\n      dup1\n      0x1bbae6e0\n      eq\n      tag_8\n      jumpi\n      dup1\n      0x23b872dd\n      eq\n      tag_9\n      jumpi\n      dup1\n      0x2d838119\n      eq\n      tag_10\n      jumpi\n      dup1\n      0x313ce567\n      eq\n      tag_11\n      jumpi\n      dup1\n      0x39509351\n      eq\n      tag_12\n      jumpi\n      dup1\n      0x3b2d081c\n      eq\n      tag_13\n      jumpi\n      0x00\n      dup1\n      revert\n    tag_56:\n      dup1\n      0x06fdde03\n      eq\n      tag_3\n      jumpi\n      dup1\n      0x095ea7b3\n      eq\n      tag_4\n      jumpi\n      dup1\n      0x13114a9d\n      eq\n      tag_5\n      jumpi\n      dup1\n      0x1694505e\n      eq\n      tag_6\n      jumpi\n      dup1\n      0x18160ddd\n      eq\n      tag_7\n      jumpi\n      0x00\n      dup1\n      revert\n    tag_1:\n      jumpi(tag_2, calldatasize)\n      stop\n    tag_2:\n      0x00\n      dup1\n      revert\n        /* \"contracts/SOlar.sol\":30054:30145  function name() public view returns (string memory) {... */\n    tag_3:\n      callvalue\n      dup1\n      iszero\n      tag_59\n      jumpi\n      0x00\n      dup1\n      revert\n    tag_59:\n      pop\n      tag_60\n      tag_61\n      jump\t// in\n    tag_60:\n      mload(0x40)\n      tag_62\n      swap2\n      swap1\n      tag_63\n      jump\t// in\n    tag_62:\n      mload(0x40)\n      dup1\n      swap2\n      sub\n      swap1\n      return\n        /* \"contracts/SOlar.sol\":31058:31231  function approve(address spender, uint256 amount) public override returns (bool) {... */\n    tag_4:\n      callvalue\n      dup1\n      iszero\n      tag_64\n      jumpi\n      0x00\n      dup1\n      revert\n    tag_64:\n      pop\n      tag_65\n      tag_66\n      calldatasize\n      0x04\n      tag_67\n      jump\t// in\n    tag_66:\n      tag_68\n      jump\t// in\n    tag_65:\n      mload(0x40)\n        /* \"#utility.yul\":1188:1202   */\n      swap1\n      iszero\n        /* \"#utility.yul\":1181:1203   */\n      iszero\n        /* \"#utility.yul\":1163:1204   */\n      dup2\n      mstore\n        /* \"#utility.yul\":1151:1153   */\n      0x20\n        /* \"#utility.yul\":1136:1154   */\n      add\n        /* \"contracts/SOlar.sol\":31058:31231  function approve(address spender, uint256 amount) public override returns (bool) {... */\n      tag_62\n        /* \"#utility.yul\":1023:1210   */\n      jump\n        /* \"contracts/SOlar.sol\":32534:32629  function totalFees() public view returns (uint256) {... */\n    tag_5:\n      callvalue\n      dup1\n      iszero\n      tag_71\n      jumpi\n      0x00\n      dup1\n      revert\n    tag_71:\n      pop\n        /* \"contracts/SOlar.sol\":32607:32617  _tFeeTotal */\n      sload(0x0b)\n        /* \"contracts/SOlar.sol\":32534:32629  function totalFees() public view returns (uint256) {... */\n    tag_72:\n      mload(0x40)\n        /* \"#utility.yul\":1361:1386   */\n      swap1\n      dup2\n      mstore\n        /* \"#utility.yul\":1349:1351   */\n      0x20\n        /* \"#utility.yul\":1334:1352   */\n      add\n        /* \"contracts/SOlar.sol\":32534:32629  function totalFees() public view returns (uint256) {... */\n      tag_62\n        /* \"#utility.yul\":1215:1392   */\n      jump\n        /* \"contracts/SOlar.sol\":28456:28497  IUniswapV2Router02 public uniswapV2Router */\n    tag_6:\n      callvalue\n      dup1\n      iszero\n      tag_76\n      jumpi\n      0x00\n      dup1\n      revert\n    tag_76:\n      pop\n      sload(0x1e)\n      tag_77\n      swap1\n      sub(shl(0xa0, 0x01), 0x01)\n      and\n      dup2\n      jump\n    tag_77:\n      mload(0x40)\n      sub(shl(0xa0, 0x01), 0x01)\n        /* \"#utility.yul\":1588:1620   */\n      swap1\n      swap2\n      and\n        /* \"#utility.yul\":1570:1621   */\n      dup2\n      mstore\n        /* \"#utility.yul\":1558:1560   */\n      0x20\n        /* \"#utility.yul\":1543:1561   */\n      add\n        /* \"contracts/SOlar.sol\":28456:28497  IUniswapV2Router02 public uniswapV2Router */\n      tag_62\n        /* \"#utility.yul\":1397:1627   */\n      jump\n        /* \"contracts/SOlar.sol\":30367:30470  function totalSupply() public view override returns (uint256) {... */\n    tag_7:\n      callvalue\n      dup1\n      iszero\n      tag_81\n      jumpi\n      0x00\n      dup1\n      revert\n    tag_81:\n      pop\n        /* \"contracts/SOlar.sol\":30451:30458  _tTotal */\n      sload(0x09)\n        /* \"contracts/SOlar.sol\":30367:30470  function totalSupply() public view override returns (uint256) {... */\n      jump(tag_72)\n        /* \"contracts/SOlar.sol\":47036:47253  function _setMaxTxAmount(uint256 maxTxAmount) external onlyOwner() {... */\n    tag_8:\n      callvalue\n      dup1\n      iszero\n      tag_85\n      jumpi\n      0x00\n      dup1\n      revert\n    tag_85:\n      pop\n      tag_86\n      tag_87\n      calldatasize\n      0x04\n      tag_88\n      jump\t// in\n    tag_87:\n      tag_89\n      jump\t// in\n    tag_86:\n      stop\n        /* \"contracts/SOlar.sol\":31243:31572  function transferFrom(address sender, address recipient, uint256 amount) public override returns (bool) {... */\n    tag_9:\n      callvalue\n      dup1\n      iszero\n      tag_90\n      jumpi\n      0x00\n      dup1\n      revert\n    tag_90:\n      pop\n      tag_65\n      tag_92\n      calldatasize\n      0x04\n      tag_93\n      jump\t// in\n    tag_92:\n      tag_94\n      jump\t// in\n        /* \"contracts/SOlar.sol\":33542:33811  function tokenFromReflection(uint256 rAmount) public view returns(uint256) {... */\n    tag_10:\n      callvalue\n      dup1\n      iszero\n      tag_96\n      jumpi\n      0x00\n      dup1\n      revert\n    tag_96:\n      pop\n      tag_72\n      tag_98\n      calldatasize\n      0x04\n      tag_88\n      jump\t// in\n    tag_98:\n      tag_99\n      jump\t// in\n        /* \"contracts/SOlar.sol\":30264:30355  function decimals() public view returns (uint8) {... */\n    tag_11:\n      callvalue\n      dup1\n      iszero\n      tag_101\n      jumpi\n      0x00\n      dup1\n      revert\n    tag_101:\n      pop\n        /* \"contracts/SOlar.sol\":30334:30343  _decimals */\n      sload(0x0e)\n        /* \"contracts/SOlar.sol\":30264:30355  function decimals() public view returns (uint8) {... */\n      mload(0x40)\n        /* \"contracts/SOlar.sol\":30334:30343  _decimals */\n      0xff\n      swap1\n      swap2\n      and\n        /* \"#utility.yul\":2420:2456   */\n      dup2\n      mstore\n        /* \"#utility.yul\":2408:2410   */\n      0x20\n        /* \"#utility.yul\":2393:2411   */\n      add\n        /* \"contracts/SOlar.sol\":30264:30355  function decimals() public view returns (uint8) {... */\n      tag_62\n        /* \"#utility.yul\":2278:2462   */\n      jump\n        /* \"contracts/SOlar.sol\":31584:31814  function increaseAllowance(address spender, uint256 addedValue) public virtual returns (bool) {... */\n    tag_12:\n      callvalue\n      dup1\n      iszero\n      tag_106\n      jumpi\n      0x00\n      dup1\n      revert\n    tag_106:\n      pop\n      tag_65\n      tag_108\n      calldatasize\n      0x04\n      tag_67\n      jump\t// in\n    tag_108:\n      tag_109\n      jump\t// in\n        /* \"contracts/SOlar.sol\":27597:27626  uint256 public buybackFee = 1 */\n    tag_13:\n      callvalue\n      dup1\n      iszero\n      tag_111\n      jumpi\n      0x00\n      dup1\n      revert\n    tag_111:\n      pop\n      tag_72\n      sload(0x13)\n      dup2\n      jump\n        /* \"contracts/SOlar.sol\":32641:33046  function deliver(uint256 tAmount) public {... */\n    tag_14:\n      callvalue\n      dup1\n      iszero\n      tag_115\n      jumpi\n      0x00\n      dup1\n      revert\n    tag_115:\n      pop\n      tag_86\n      tag_117\n      calldatasize\n      0x04\n      tag_88\n      jump\t// in\n    tag_117:\n      tag_118\n      jump\t// in\n        /* \"contracts/SOlar.sol\":33058:33530  function reflectionFromToken(uint256 tAmount, bool deductTransferFee) public view returns(uint256) {... */\n    tag_15:\n      callvalue\n      dup1\n      iszero\n      tag_119\n      jumpi\n      0x00\n      dup1\n      revert\n    tag_119:\n      pop\n      tag_72\n      tag_121\n      calldatasize\n      0x04\n      tag_122\n      jump\t// in\n    tag_121:\n      tag_123\n      jump\t// in\n        /* \"contracts/SOlar.sol\":28508:28536  address public uniswapV2Pair */\n    tag_16:\n      callvalue\n      dup1\n      iszero\n      tag_125\n      jumpi\n      0x00\n      dup1\n      revert\n    tag_125:\n      pop\n      sload(0x1f)\n      tag_77\n      swap1\n      sub(shl(0xa0, 0x01), 0x01)\n      and\n      dup2\n      jump\n        /* \"contracts/SOlar.sol\":27372:27406  bool public tradingEnabled = false */\n    tag_17:\n      callvalue\n      dup1\n      iszero\n      tag_130\n      jumpi\n      0x00\n      dup1\n      revert\n    tag_130:\n      pop\n      sload(0x0e)\n      tag_65\n      swap1\n      0x0100\n      swap1\n      div\n      0xff\n      and\n      dup2\n      jump\n        /* \"contracts/SOlar.sol\":39982:40150  function manualSwap() external onlyOwner() {... */\n    tag_18:\n      callvalue\n      dup1\n      iszero\n      tag_134\n      jumpi\n      0x00\n      dup1\n      revert\n    tag_134:\n      pop\n      tag_86\n      tag_136\n      jump\t// in\n        /* \"contracts/SOlar.sol\":35730:35861  function isExcludedFromFee(address account) public view returns(bool) {... */\n    tag_19:\n      callvalue\n      dup1\n      iszero\n      tag_137\n      jumpi\n      0x00\n      dup1\n      revert\n    tag_137:\n      pop\n      tag_65\n      tag_139\n      calldatasize\n      0x04\n      tag_140\n      jump\t// in\n    tag_139:\n      sub(shl(0xa0, 0x01), 0x01)\n        /* \"contracts/SOlar.sol\":35822:35849  _isExcludedFromFee[account] */\n      and\n        /* \"contracts/SOlar.sol\":35794:35798  bool */\n      0x00\n        /* \"contracts/SOlar.sol\":35822:35849  _isExcludedFromFee[account] */\n      swap1\n      dup2\n      mstore\n        /* \"contracts/SOlar.sol\":35822:35840  _isExcludedFromFee */\n      0x06\n        /* \"contracts/SOlar.sol\":35822:35849  _isExcludedFromFee[account] */\n      0x20\n      mstore\n      0x40\n      swap1\n      keccak256\n      sload\n      0xff\n      and\n      swap1\n        /* \"contracts/SOlar.sol\":35730:35861  function isExcludedFromFee(address account) public view returns(bool) {... */\n      jump\n        /* \"contracts/SOlar.sol\":46407:46508  function _setTaxFee(uint256 _taxFee) external onlyOwner() {... */\n    tag_20:\n      callvalue\n      dup1\n      iszero\n      tag_143\n      jumpi\n      0x00\n      dup1\n      revert\n    tag_143:\n      pop\n      tag_86\n      tag_145\n      calldatasize\n      0x04\n      tag_88\n      jump\t// in\n    tag_145:\n      tag_146\n      jump\t// in\n        /* \"contracts/SOlar.sol\":28246:28341  address payable public developmentAddress = payable(0x9DfCeBe1459C00eA0CB6c5cEF541552Dd09dd551) */\n    tag_21:\n      callvalue\n      dup1\n      iszero\n      tag_147\n      jumpi\n      0x00\n      dup1\n      revert\n    tag_147:\n      pop\n      sload(0x1c)\n      tag_77\n      swap1\n      sub(shl(0xa0, 0x01), 0x01)\n      and\n      dup2\n      jump\n        /* \"contracts/SOlar.sol\":27511:27542  uint256 public marketingFee = 1 */\n    tag_22:\n      callvalue\n      dup1\n      iszero\n      tag_152\n      jumpi\n      0x00\n      dup1\n      revert\n    tag_152:\n      pop\n      tag_72\n      sload(0x11)\n      dup2\n      jump\n        /* \"contracts/SOlar.sol\":28579:28609  bool public swapEnabled = true */\n    tag_23:\n      callvalue\n      dup1\n      iszero\n      tag_156\n      jumpi\n      0x00\n      dup1\n      revert\n    tag_156:\n      pop\n      sload(0x1f)\n      tag_65\n      swap1\n      shl(0xa8, 0x01)\n      swap1\n      div\n      0xff\n      and\n      dup2\n      jump\n        /* \"contracts/SOlar.sol\":30482:30692  function balanceOf(address account) public view override returns (uint256) {... */\n    tag_24:\n      callvalue\n      dup1\n      iszero\n      tag_160\n      jumpi\n      0x00\n      dup1\n      revert\n    tag_160:\n      pop\n      tag_72\n      tag_162\n      calldatasize\n      0x04\n      tag_140\n      jump\t// in\n    tag_162:\n      tag_163\n      jump\t// in\n        /* \"contracts/SOlar.sol\":16358:16518  function renounceOwnership() public virtual onlyOwner {... */\n    tag_25:\n      callvalue\n      dup1\n      iszero\n      tag_165\n      jumpi\n      0x00\n      dup1\n      revert\n    tag_165:\n      pop\n      tag_86\n      tag_167\n      jump\t// in\n        /* \"contracts/SOlar.sol\":32406:32522  function changeUniswapPair(address pair) external onlyOwner... */\n    tag_26:\n      callvalue\n      dup1\n      iszero\n      tag_168\n      jumpi\n      0x00\n      dup1\n      revert\n    tag_168:\n      pop\n      tag_86\n      tag_170\n      calldatasize\n      0x04\n      tag_140\n      jump\t// in\n    tag_170:\n      tag_171\n      jump\t// in\n        /* \"contracts/SOlar.sol\":36242:36344  function enableTrading() onlyOwner external ... */\n    tag_27:\n      callvalue\n      dup1\n      iszero\n      tag_172\n      jumpi\n      0x00\n      dup1\n      revert\n    tag_172:\n      pop\n      tag_86\n      tag_174\n      jump\t// in\n        /* \"contracts/SOlar.sol\":15656:15743  function owner() public view returns (address) {... */\n    tag_28:\n      callvalue\n      dup1\n      iszero\n      tag_175\n      jumpi\n      0x00\n      dup1\n      revert\n    tag_175:\n      pop\n        /* \"contracts/SOlar.sol\":15694:15701  address */\n      0x00\n        /* \"contracts/SOlar.sol\":15725:15731  _owner */\n      sload\n      sub(shl(0xa0, 0x01), 0x01)\n      and\n        /* \"contracts/SOlar.sol\":15656:15743  function owner() public view returns (address) {... */\n      jump(tag_77)\n        /* \"contracts/SOlar.sol\":30157:30252  function symbol() public view returns (string memory) {... */\n    tag_29:\n      callvalue\n      dup1\n      iszero\n      tag_179\n      jumpi\n      0x00\n      dup1\n      revert\n    tag_179:\n      pop\n      tag_60\n      tag_181\n      jump\t// in\n        /* \"contracts/SOlar.sol\":27434:27459  uint256 public taxFee = 2 */\n    tag_30:\n      callvalue\n      dup1\n      iszero\n      tag_183\n      jumpi\n      0x00\n      dup1\n      revert\n    tag_183:\n      pop\n      tag_72\n      sload(0x0f)\n      dup2\n      jump\n        /* \"contracts/SOlar.sol\":31826:32107  function decreaseAllowance(address spender, uint256 subtractedValue) public virtual returns (bool) {... */\n    tag_31:\n      callvalue\n      dup1\n      iszero\n      tag_187\n      jumpi\n      0x00\n      dup1\n      revert\n    tag_187:\n      pop\n      tag_65\n      tag_189\n      calldatasize\n      0x04\n      tag_67\n      jump\t// in\n    tag_189:\n      tag_190\n      jump\t// in\n        /* \"contracts/SOlar.sol\":28142:28235  address payable public marketingAddress = payable(0x8714C3ADBb728B8AD25Cb0C044f57cb8b51bC155) */\n    tag_32:\n      callvalue\n      dup1\n      iszero\n      tag_192\n      jumpi\n      0x00\n      dup1\n      revert\n    tag_192:\n      pop\n      sload(0x1b)\n      tag_77\n      swap1\n      sub(shl(0xa0, 0x01), 0x01)\n      and\n      dup2\n      jump\n        /* \"contracts/SOlar.sol\":27553:27586  uint256 public developmentFee = 1 */\n    tag_33:\n      callvalue\n      dup1\n      iszero\n      tag_196\n      jumpi\n      0x00\n      dup1\n      revert\n    tag_196:\n      pop\n      tag_72\n      sload(0x12)\n      dup2\n      jump\n        /* \"contracts/SOlar.sol\":17477:17802  function unlock() public virtual {... */\n    tag_34:\n      callvalue\n      dup1\n      iszero\n      tag_200\n      jumpi\n      0x00\n      dup1\n      revert\n    tag_200:\n      pop\n      tag_86\n      tag_202\n      jump\t// in\n        /* \"contracts/SOlar.sol\":30704:30883  function transfer(address recipient, uint256 amount) public override returns (bool) {... */\n    tag_35:\n      callvalue\n      dup1\n      iszero\n      tag_203\n      jumpi\n      0x00\n      dup1\n      revert\n    tag_203:\n      pop\n      tag_65\n      tag_205\n      calldatasize\n      0x04\n      tag_67\n      jump\t// in\n    tag_205:\n      tag_206\n      jump\t// in\n        /* \"contracts/SOlar.sol\":32249:32394  function setExcludeFromFee(address account, bool excluded) external onlyOwner() {... */\n    tag_36:\n      callvalue\n      dup1\n      iszero\n      tag_208\n      jumpi\n      0x00\n      dup1\n      revert\n    tag_208:\n      pop\n      tag_86\n      tag_210\n      calldatasize\n      0x04\n      tag_211\n      jump\t// in\n    tag_210:\n      tag_212\n      jump\t// in\n        /* \"contracts/SOlar.sol\":28040:28131  address payable public charityAddress = payable(0x506df9716a793D02f89aD32Dc858bBB6F26268aa) */\n    tag_37:\n      callvalue\n      dup1\n      iszero\n      tag_213\n      jumpi\n      0x00\n      dup1\n      revert\n    tag_213:\n      pop\n      sload(0x1a)\n      tag_77\n      swap1\n      sub(shl(0xa0, 0x01), 0x01)\n      and\n      dup2\n      jump\n        /* \"contracts/SOlar.sol\":16962:17059  function geUnlockTime() public view returns (uint256) {... */\n    tag_38:\n      callvalue\n      dup1\n      iszero\n      tag_217\n      jumpi\n      0x00\n      dup1\n      revert\n    tag_217:\n      pop\n        /* \"contracts/SOlar.sol\":17038:17047  _lockTime */\n      sload(0x02)\n        /* \"contracts/SOlar.sol\":16962:17059  function geUnlockTime() public view returns (uint256) {... */\n      jump(tag_72)\n        /* \"contracts/SOlar.sol\":32119:32237  function isExcluded(address account) public view returns (bool) {... */\n    tag_39:\n      callvalue\n      dup1\n      iszero\n      tag_221\n      jumpi\n      0x00\n      dup1\n      revert\n    tag_221:\n      pop\n      tag_65\n      tag_223\n      calldatasize\n      0x04\n      tag_140\n      jump\t// in\n    tag_223:\n      sub(shl(0xa0, 0x01), 0x01)\n        /* \"contracts/SOlar.sol\":32205:32225  _isExcluded[account] */\n      and\n        /* \"contracts/SOlar.sol\":32177:32181  bool */\n      0x00\n        /* \"contracts/SOlar.sol\":32205:32225  _isExcluded[account] */\n      swap1\n      dup2\n      mstore\n        /* \"contracts/SOlar.sol\":32205:32216  _isExcluded */\n      0x07\n        /* \"contracts/SOlar.sol\":32205:32225  _isExcluded[account] */\n      0x20\n      mstore\n      0x40\n      swap1\n      keccak256\n      sload\n      0xff\n      and\n      swap1\n        /* \"contracts/SOlar.sol\":32119:32237  function isExcluded(address account) public view returns (bool) {... */\n      jump\n        /* \"contracts/SOlar.sol\":28352:28443  address payable public buybackAddress = payable(0x16D80CbC2eA681419d40f243Dae7Dde8C4BC16bB) */\n    tag_40:\n      callvalue\n      dup1\n      iszero\n      tag_226\n      jumpi\n      0x00\n      dup1\n      revert\n    tag_226:\n      pop\n      sload(0x1d)\n      tag_77\n      swap1\n      sub(shl(0xa0, 0x01), 0x01)\n      and\n      dup2\n      jump\n        /* \"contracts/SOlar.sol\":46520:47016  function setFeePercent(uint256 updatedCharityFee, uint256 updatedMarketingFee, uint256 updatedDevelopmentFee, uint256 updatedBuybackFee) external onlyOwner {... */\n    tag_41:\n      callvalue\n      dup1\n      iszero\n      tag_230\n      jumpi\n      0x00\n      dup1\n      revert\n    tag_230:\n      pop\n      tag_86\n      tag_232\n      calldatasize\n      0x04\n      tag_233\n      jump\t// in\n    tag_232:\n      tag_234\n      jump\t// in\n        /* \"contracts/SOlar.sol\":17143:17389  function lock(uint256 time) public virtual onlyOwner {... */\n    tag_42:\n      callvalue\n      dup1\n      iszero\n      tag_235\n      jumpi\n      0x00\n      dup1\n      revert\n    tag_235:\n      pop\n      tag_86\n      tag_237\n      calldatasize\n      0x04\n      tag_88\n      jump\t// in\n    tag_237:\n      tag_238\n      jump\t// in\n        /* \"contracts/SOlar.sol\":30895:31046  function allowance(address owner, address spender) public view override returns (uint256) {... */\n    tag_43:\n      callvalue\n      dup1\n      iszero\n      tag_239\n      jumpi\n      0x00\n      dup1\n      revert\n    tag_239:\n      pop\n      tag_72\n      tag_241\n      calldatasize\n      0x04\n      tag_242\n      jump\t// in\n    tag_241:\n      sub(shl(0xa0, 0x01), 0x01)\n        /* \"contracts/SOlar.sol\":31007:31025  _allowances[owner] */\n      swap2\n      dup3\n      and\n        /* \"contracts/SOlar.sol\":30976:30983  uint256 */\n      0x00\n        /* \"contracts/SOlar.sol\":31007:31025  _allowances[owner] */\n      swap1\n      dup2\n      mstore\n        /* \"contracts/SOlar.sol\":31007:31018  _allowances */\n      0x05\n        /* \"contracts/SOlar.sol\":31007:31025  _allowances[owner] */\n      0x20\n      swap1\n      dup2\n      mstore\n      0x40\n      dup1\n      dup4\n      keccak256\n        /* \"contracts/SOlar.sol\":31007:31034  _allowances[owner][spender] */\n      swap4\n      swap1\n      swap5\n      and\n      dup3\n      mstore\n      swap2\n      swap1\n      swap2\n      mstore\n      keccak256\n      sload\n      swap1\n        /* \"contracts/SOlar.sol\":30895:31046  function allowance(address owner, address spender) public view override returns (uint256) {... */\n      jump\n        /* \"contracts/SOlar.sol\":40170:40276  function setSwapEnabled(bool enabled) external onlyOwner(){... */\n    tag_44:\n      callvalue\n      dup1\n      iszero\n      tag_245\n      jumpi\n      0x00\n      dup1\n      revert\n    tag_245:\n      pop\n      tag_86\n      tag_247\n      calldatasize\n      0x04\n      tag_248\n      jump\t// in\n    tag_247:\n      tag_249\n      jump\t// in\n        /* \"contracts/SOlar.sol\":38696:38833  function changeNumOfTokensToExchange(uint256 amount) public onlyOwner... */\n    tag_45:\n      callvalue\n      dup1\n      iszero\n      tag_250\n      jumpi\n      0x00\n      dup1\n      revert\n    tag_250:\n      pop\n      tag_86\n      tag_252\n      calldatasize\n      0x04\n      tag_88\n      jump\t// in\n    tag_252:\n      tag_253\n      jump\t// in\n        /* \"contracts/SOlar.sol\":27471:27500  uint256 public charityFee = 1 */\n    tag_46:\n      callvalue\n      dup1\n      iszero\n      tag_254\n      jumpi\n      0x00\n      dup1\n      revert\n    tag_254:\n      pop\n      tag_72\n      sload(0x10)\n      dup2\n      jump\n        /* \"contracts/SOlar.sol\":33823:34298  function excludeAccount(address account) external onlyOwner() {... */\n    tag_47:\n      callvalue\n      dup1\n      iszero\n      tag_258\n      jumpi\n      0x00\n      dup1\n      revert\n    tag_258:\n      pop\n      tag_86\n      tag_260\n      calldatasize\n      0x04\n      tag_140\n      jump\t// in\n    tag_260:\n      tag_261\n      jump\t// in\n        /* \"contracts/SOlar.sol\":16690:16950  function transferOwnership(address newOwner) public virtual onlyOwner {... */\n    tag_48:\n      callvalue\n      dup1\n      iszero\n      tag_262\n      jumpi\n      0x00\n      dup1\n      revert\n    tag_262:\n      pop\n      tag_86\n      tag_264\n      calldatasize\n      0x04\n      tag_140\n      jump\t// in\n    tag_264:\n      tag_265\n      jump\t// in\n        /* \"contracts/SOlar.sol\":34310:34832  function includeAccount(address account) external onlyOwner() {... */\n    tag_49:\n      callvalue\n      dup1\n      iszero\n      tag_266\n      jumpi\n      0x00\n      dup1\n      revert\n    tag_266:\n      pop\n      tag_86\n      tag_268\n      calldatasize\n      0x04\n      tag_140\n      jump\t// in\n    tag_268:\n      tag_269\n      jump\t// in\n        /* \"contracts/SOlar.sol\":30054:30145  function name() public view returns (string memory) {... */\n    tag_61:\n        /* \"contracts/SOlar.sol\":30091:30104  string memory */\n      0x60\n        /* \"contracts/SOlar.sol\":30128:30133  _name */\n      0x0c\n        /* \"contracts/SOlar.sol\":30121:30133  return _name */\n      dup1\n      sload\n      tag_271\n      swap1\n      tag_272\n      jump\t// in\n    tag_271:\n      dup1\n      0x1f\n      add\n      0x20\n      dup1\n      swap2\n      div\n      mul\n      0x20\n      add\n      mload(0x40)\n      swap1\n      dup2\n      add\n      0x40\n      mstore\n      dup1\n      swap3\n      swap2\n      swap1\n      dup2\n      dup2\n      mstore\n      0x20\n      add\n      dup3\n      dup1\n      sload\n      tag_273\n      swap1\n      tag_272\n      jump\t// in\n    tag_273:\n      dup1\n      iszero\n      tag_274\n      jumpi\n      dup1\n      0x1f\n      lt\n      tag_275\n      jumpi\n      0x0100\n      dup1\n      dup4\n      sload\n      div\n      mul\n      dup4\n      mstore\n      swap2\n      0x20\n      add\n      swap2\n      jump(tag_274)\n    tag_275:\n      dup3\n      add\n      swap2\n      swap1\n      0x00\n      mstore\n      keccak256(0x00, 0x20)\n      swap1\n    tag_276:\n      dup2\n      sload\n      dup2\n      mstore\n      swap1\n      0x01\n      add\n      swap1\n      0x20\n      add\n      dup1\n      dup4\n      gt\n      tag_276\n      jumpi\n      dup3\n      swap1\n      sub\n      0x1f\n      and\n      dup3\n      add\n      swap2\n    tag_274:\n      pop\n      pop\n      pop\n      pop\n      pop\n      swap1\n      pop\n        /* \"contracts/SOlar.sol\":30054:30145  function name() public view returns (string memory) {... */\n      swap1\n      jump\t// out\n        /* \"contracts/SOlar.sol\":31058:31231  function approve(address spender, uint256 amount) public override returns (bool) {... */\n    tag_68:\n        /* \"contracts/SOlar.sol\":31133:31137  bool */\n      0x00\n        /* \"contracts/SOlar.sol\":31154:31193  _approve(_msgSender(), spender, amount) */\n      tag_278\n        /* \"contracts/SOlar.sol\":213:223  msg.sender */\n      caller\n        /* \"contracts/SOlar.sol\":31177:31184  spender */\n      dup5\n        /* \"contracts/SOlar.sol\":31186:31192  amount */\n      dup5\n        /* \"contracts/SOlar.sol\":31154:31162  _approve */\n      tag_281\n        /* \"contracts/SOlar.sol\":31154:31193  _approve(_msgSender(), spender, amount) */\n      jump\t// in\n    tag_278:\n      pop\n        /* \"contracts/SOlar.sol\":31215:31219  true */\n      0x01\n        /* \"contracts/SOlar.sol\":31058:31231  function approve(address spender, uint256 amount) public override returns (bool) {... */\n    tag_277:\n      swap3\n      swap2\n      pop\n      pop\n      jump\t// out\n        /* \"contracts/SOlar.sol\":47036:47253  function _setMaxTxAmount(uint256 maxTxAmount) external onlyOwner() {... */\n    tag_89:\n        /* \"contracts/SOlar.sol\":15894:15900  _owner */\n      and(sub(shl(0xa0, 0x01), 0x01), sload(0x00))\n        /* \"contracts/SOlar.sol\":213:223  msg.sender */\n      caller\n        /* \"contracts/SOlar.sol\":15894:15916  _owner == _msgSender() */\n      eq\n        /* \"contracts/SOlar.sol\":15886:15953  require(_owner == _msgSender(), \"Ownable: caller is not the owner\") */\n      tag_286\n      jumpi\n      mload(0x40)\n      shl(0xe5, 0x461bcd)\n      dup2\n      mstore\n      0x04\n      add\n      tag_287\n      swap1\n      tag_288\n      jump\t// in\n    tag_287:\n      mload(0x40)\n      dup1\n      swap2\n      sub\n      swap1\n      revert\n    tag_286:\n        /* \"contracts/SOlar.sol\":47141:47151  10000000e9 */\n      0x2386f26fc10000\n        /* \"contracts/SOlar.sol\":47126:47137  maxTxAmount */\n      dup2\n        /* \"contracts/SOlar.sol\":47126:47151  maxTxAmount >= 10000000e9 */\n      lt\n      iszero\n        /* \"contracts/SOlar.sol\":47118:47200  require(maxTxAmount >= 10000000e9 , 'maxTxAmount should be greater than 10000000') */\n      tag_290\n      jumpi\n      mload(0x40)\n      shl(0xe5, 0x461bcd)\n      dup2\n      mstore\n        /* \"#utility.yul\":5805:5807   */\n      0x20\n        /* \"contracts/SOlar.sol\":47118:47200  require(maxTxAmount >= 10000000e9 , 'maxTxAmount should be greater than 10000000') */\n      0x04\n      dup3\n      add\n        /* \"#utility.yul\":5787:5808   */\n      mstore\n        /* \"#utility.yul\":5844:5846   */\n      0x2b\n        /* \"#utility.yul\":5824:5842   */\n      0x24\n      dup3\n      add\n        /* \"#utility.yul\":5817:5847   */\n      mstore\n        /* \"#utility.yul\":5883:5917   */\n      0x6d61785478416d6f756e742073686f756c642062652067726561746572207468\n        /* \"#utility.yul\":5863:5881   */\n      0x44\n      dup3\n      add\n        /* \"#utility.yul\":5856:5918   */\n      mstore\n      shl(0xac, 0x0616e20313030303030303)\n        /* \"#utility.yul\":5934:5952   */\n      0x64\n      dup3\n      add\n        /* \"#utility.yul\":5927:5968   */\n      mstore\n        /* \"#utility.yul\":5985:6004   */\n      0x84\n      add\n        /* \"contracts/SOlar.sol\":47118:47200  require(maxTxAmount >= 10000000e9 , 'maxTxAmount should be greater than 10000000') */\n      tag_287\n        /* \"#utility.yul\":5603:6010   */\n      jump\n        /* \"contracts/SOlar.sol\":47118:47200  require(maxTxAmount >= 10000000e9 , 'maxTxAmount should be greater than 10000000') */\n    tag_290:\n        /* \"contracts/SOlar.sol\":47215:47227  _maxTxAmount */\n      0x20\n        /* \"contracts/SOlar.sol\":47215:47241  _maxTxAmount = maxTxAmount */\n      sstore\n        /* \"contracts/SOlar.sol\":47036:47253  function _setMaxTxAmount(uint256 maxTxAmount) external onlyOwner() {... */\n      jump\t// out\n        /* \"contracts/SOlar.sol\":31243:31572  function transferFrom(address sender, address recipient, uint256 amount) public override returns (bool) {... */\n    tag_94:\n        /* \"contracts/SOlar.sol\":31341:31345  bool */\n      0x00\n        /* \"contracts/SOlar.sol\":31362:31398  _transfer(sender, recipient, amount) */\n      tag_294\n        /* \"contracts/SOlar.sol\":31372:31378  sender */\n      dup5\n        /* \"contracts/SOlar.sol\":31380:31389  recipient */\n      dup5\n        /* \"contracts/SOlar.sol\":31391:31397  amount */\n      dup5\n        /* \"contracts/SOlar.sol\":31362:31371  _transfer */\n      tag_295\n        /* \"contracts/SOlar.sol\":31362:31398  _transfer(sender, recipient, amount) */\n      jump\t// in\n    tag_294:\n        /* \"contracts/SOlar.sol\":31413:31534  _approve(sender, _msgSender(), _allowances[sender][_msgSender()].sub(amount, \"ERC20: transfer amount exceeds allowance\")) */\n      tag_296\n        /* \"contracts/SOlar.sol\":31422:31428  sender */\n      dup5\n        /* \"contracts/SOlar.sol\":213:223  msg.sender */\n      caller\n        /* \"contracts/SOlar.sol\":31444:31533  _allowances[sender][_msgSender()].sub(amount, \"ERC20: transfer amount exceeds allowance\") */\n      tag_298\n        /* \"contracts/SOlar.sol\":31482:31488  amount */\n      dup6\n        /* \"contracts/SOlar.sol\":31444:31533  _allowances[sender][_msgSender()].sub(amount, \"ERC20: transfer amount exceeds allowance\") */\n      mload(0x40)\n      dup1\n      0x60\n      add\n      0x40\n      mstore\n      dup1\n      0x28\n      dup2\n      mstore\n      0x20\n      add\n      data_974d1b4421da69cc60b481194f0dad36a5bb4e23da810da7a7fb30cdba178330\n      0x28\n      swap2\n      codecopy\n      sub(shl(0xa0, 0x01), 0x01)\n        /* \"contracts/SOlar.sol\":31444:31463  _allowances[sender] */\n      dup11\n      and\n      0x00\n      swap1\n      dup2\n      mstore\n        /* \"contracts/SOlar.sol\":31444:31455  _allowances */\n      0x05\n        /* \"contracts/SOlar.sol\":31444:31463  _allowances[sender] */\n      0x20\n      swap1\n      dup2\n      mstore\n      0x40\n      dup1\n      dup4\n      keccak256\n        /* \"contracts/SOlar.sol\":213:223  msg.sender */\n      caller\n        /* \"contracts/SOlar.sol\":31444:31477  _allowances[sender][_msgSender()] */\n      dup5\n      mstore\n      swap1\n      swap2\n      mstore\n      swap1\n      keccak256\n      sload\n      swap2\n      swap1\n        /* \"contracts/SOlar.sol\":31444:31481  _allowances[sender][_msgSender()].sub */\n      tag_300\n        /* \"contracts/SOlar.sol\":31444:31533  _allowances[sender][_msgSender()].sub(amount, \"ERC20: transfer amount exceeds allowance\") */\n      jump\t// in\n    tag_298:\n        /* \"contracts/SOlar.sol\":31413:31421  _approve */\n      tag_281\n        /* \"contracts/SOlar.sol\":31413:31534  _approve(sender, _msgSender(), _allowances[sender][_msgSender()].sub(amount, \"ERC20: transfer amount exceeds allowance\")) */\n      jump\t// in\n    tag_296:\n      pop\n        /* \"contracts/SOlar.sol\":31556:31560  true */\n      0x01\n        /* \"contracts/SOlar.sol\":31243:31572  function transferFrom(address sender, address recipient, uint256 amount) public override returns (bool) {... */\n      swap4\n      swap3\n      pop\n      pop\n      pop\n      jump\t// out\n        /* \"contracts/SOlar.sol\":33542:33811  function tokenFromReflection(uint256 rAmount) public view returns(uint256) {... */\n    tag_99:\n        /* \"contracts/SOlar.sol\":33608:33615  uint256 */\n      0x00\n        /* \"contracts/SOlar.sol\":33651:33658  _rTotal */\n      sload(0x0a)\n        /* \"contracts/SOlar.sol\":33640:33647  rAmount */\n      dup3\n        /* \"contracts/SOlar.sol\":33640:33658  rAmount <= _rTotal */\n      gt\n      iszero\n        /* \"contracts/SOlar.sol\":33632:33705  require(rAmount <= _rTotal, \"Amount must be less than total reflections\") */\n      tag_302\n      jumpi\n      mload(0x40)\n      shl(0xe5, 0x461bcd)\n      dup2\n      mstore\n        /* \"#utility.yul\":6217:6219   */\n      0x20\n        /* \"contracts/SOlar.sol\":33632:33705  require(rAmount <= _rTotal, \"Amount must be less than total reflections\") */\n      0x04\n      dup3\n      add\n        /* \"#utility.yul\":6199:6220   */\n      mstore\n        /* \"#utility.yul\":6256:6258   */\n      0x2a\n        /* \"#utility.yul\":6236:6254   */\n      0x24\n      dup3\n      add\n        /* \"#utility.yul\":6229:6259   */\n      mstore\n        /* \"#utility.yul\":6295:6329   */\n      0x416d6f756e74206d757374206265206c657373207468616e20746f74616c2072\n        /* \"#utility.yul\":6275:6293   */\n      0x44\n      dup3\n      add\n        /* \"#utility.yul\":6268:6330   */\n      mstore\n      shl(0xb0, 0x65666c656374696f6e73)\n        /* \"#utility.yul\":6346:6364   */\n      0x64\n      dup3\n      add\n        /* \"#utility.yul\":6339:6379   */\n      mstore\n        /* \"#utility.yul\":6396:6415   */\n      0x84\n      add\n        /* \"contracts/SOlar.sol\":33632:33705  require(rAmount <= _rTotal, \"Amount must be less than total reflections\") */\n      tag_287\n        /* \"#utility.yul\":6015:6421   */\n      jump\n        /* \"contracts/SOlar.sol\":33632:33705  require(rAmount <= _rTotal, \"Amount must be less than total reflections\") */\n    tag_302:\n        /* \"contracts/SOlar.sol\":33720:33739  uint256 currentRate */\n      0x00\n        /* \"contracts/SOlar.sol\":33743:33753  _getRate() */\n      tag_305\n        /* \"contracts/SOlar.sol\":33743:33751  _getRate */\n      tag_306\n        /* \"contracts/SOlar.sol\":33743:33753  _getRate() */\n      jump\t// in\n    tag_305:\n        /* \"contracts/SOlar.sol\":33720:33753  uint256 currentRate =  _getRate() */\n      swap1\n      pop\n        /* \"contracts/SOlar.sol\":33775:33799  rAmount.div(currentRate) */\n      tag_307\n        /* \"contracts/SOlar.sol\":33775:33782  rAmount */\n      dup4\n        /* \"contracts/SOlar.sol\":33720:33753  uint256 currentRate =  _getRate() */\n      dup3\n        /* \"contracts/SOlar.sol\":33775:33786  rAmount.div */\n      tag_308\n        /* \"contracts/SOlar.sol\":33775:33799  rAmount.div(currentRate) */\n      jump\t// in\n    tag_307:\n        /* \"contracts/SOlar.sol\":33768:33799  return rAmount.div(currentRate) */\n      swap4\n        /* \"contracts/SOlar.sol\":33542:33811  function tokenFromReflection(uint256 rAmount) public view returns(uint256) {... */\n      swap3\n      pop\n      pop\n      pop\n      jump\t// out\n        /* \"contracts/SOlar.sol\":31584:31814  function increaseAllowance(address spender, uint256 addedValue) public virtual returns (bool) {... */\n    tag_109:\n        /* \"contracts/SOlar.sol\":213:223  msg.sender */\n      caller\n        /* \"contracts/SOlar.sol\":31672:31676  bool */\n      0x00\n        /* \"contracts/SOlar.sol\":31725:31750  _allowances[_msgSender()] */\n      dup2\n      dup2\n      mstore\n        /* \"contracts/SOlar.sol\":31725:31736  _allowances */\n      0x05\n        /* \"contracts/SOlar.sol\":31725:31750  _allowances[_msgSender()] */\n      0x20\n      swap1\n      dup2\n      mstore\n      0x40\n      dup1\n      dup4\n      keccak256\n      sub(shl(0xa0, 0x01), 0x01)\n        /* \"contracts/SOlar.sol\":31725:31759  _allowances[_msgSender()][spender] */\n      dup8\n      and\n      dup5\n      mstore\n      swap1\n      swap2\n      mstore\n      dup2\n      keccak256\n      sload\n        /* \"contracts/SOlar.sol\":31672:31676  bool */\n      swap1\n      swap2\n        /* \"contracts/SOlar.sol\":31693:31776  _approve(_msgSender(), spender, _allowances[_msgSender()][spender].add(addedValue)) */\n      tag_278\n      swap2\n        /* \"contracts/SOlar.sol\":31716:31723  spender */\n      dup6\n      swap1\n        /* \"contracts/SOlar.sol\":31725:31775  _allowances[_msgSender()][spender].add(addedValue) */\n      tag_298\n      swap1\n        /* \"contracts/SOlar.sol\":31764:31774  addedValue */\n      dup7\n        /* \"contracts/SOlar.sol\":31725:31763  _allowances[_msgSender()][spender].add */\n      tag_315\n        /* \"contracts/SOlar.sol\":31725:31775  _allowances[_msgSender()][spender].add(addedValue) */\n      jump\t// in\n        /* \"contracts/SOlar.sol\":32641:33046  function deliver(uint256 tAmount) public {... */\n    tag_118:\n        /* \"contracts/SOlar.sol\":213:223  msg.sender */\n      caller\n        /* \"contracts/SOlar.sol\":32697:32711  address sender */\n      0x00\n        /* \"contracts/SOlar.sol\":32750:32769  _isExcluded[sender] */\n      dup2\n      dup2\n      mstore\n        /* \"contracts/SOlar.sol\":32750:32761  _isExcluded */\n      0x07\n        /* \"contracts/SOlar.sol\":32750:32769  _isExcluded[sender] */\n      0x20\n      mstore\n      0x40\n      swap1\n      keccak256\n      sload\n      0xff\n      and\n        /* \"contracts/SOlar.sol\":32749:32769  !_isExcluded[sender] */\n      iszero\n        /* \"contracts/SOlar.sol\":32741:32818  require(!_isExcluded[sender], \"Excluded addresses cannot call this function\") */\n      tag_318\n      jumpi\n      mload(0x40)\n      shl(0xe5, 0x461bcd)\n      dup2\n      mstore\n        /* \"#utility.yul\":6628:6630   */\n      0x20\n        /* \"contracts/SOlar.sol\":32741:32818  require(!_isExcluded[sender], \"Excluded addresses cannot call this function\") */\n      0x04\n      dup3\n      add\n        /* \"#utility.yul\":6610:6631   */\n      mstore\n        /* \"#utility.yul\":6667:6669   */\n      0x2c\n        /* \"#utility.yul\":6647:6665   */\n      0x24\n      dup3\n      add\n        /* \"#utility.yul\":6640:6670   */\n      mstore\n        /* \"#utility.yul\":6706:6740   */\n      0x4578636c75646564206164647265737365732063616e6e6f742063616c6c2074\n        /* \"#utility.yul\":6686:6704   */\n      0x44\n      dup3\n      add\n        /* \"#utility.yul\":6679:6741   */\n      mstore\n      shl(0xa1, 0x3434b990333ab731ba34b7b7)\n        /* \"#utility.yul\":6757:6775   */\n      0x64\n      dup3\n      add\n        /* \"#utility.yul\":6750:6792   */\n      mstore\n        /* \"#utility.yul\":6809:6828   */\n      0x84\n      add\n        /* \"contracts/SOlar.sol\":32741:32818  require(!_isExcluded[sender], \"Excluded addresses cannot call this function\") */\n      tag_287\n        /* \"#utility.yul\":6426:6834   */\n      jump\n        /* \"contracts/SOlar.sol\":32741:32818  require(!_isExcluded[sender], \"Excluded addresses cannot call this function\") */\n    tag_318:\n        /* \"contracts/SOlar.sol\":32834:32849  uint256 rAmount */\n      0x00\n        /* \"contracts/SOlar.sol\":32858:32877  _getValues(tAmount) */\n      tag_321\n        /* \"contracts/SOlar.sol\":32869:32876  tAmount */\n      dup4\n        /* \"contracts/SOlar.sol\":32858:32868  _getValues */\n      tag_322\n        /* \"contracts/SOlar.sol\":32858:32877  _getValues(tAmount) */\n      jump\t// in\n    tag_321:\n      pop\n      pop\n      pop\n      pop\n      sub(shl(0xa0, 0x01), 0x01)\n        /* \"contracts/SOlar.sol\":32910:32925  _rOwned[sender] */\n      dup5\n      and\n      0x00\n      swap1\n      dup2\n      mstore\n        /* \"contracts/SOlar.sol\":32910:32917  _rOwned */\n      0x03\n        /* \"contracts/SOlar.sol\":32910:32925  _rOwned[sender] */\n      0x20\n      mstore\n      0x40\n      swap1\n      keccak256\n      sload\n        /* \"contracts/SOlar.sol\":32833:32877  (uint256 rAmount,,,,,) = _getValues(tAmount) */\n      swap2\n      swap3\n      pop\n        /* \"contracts/SOlar.sol\":32910:32938  _rOwned[sender].sub(rAmount) */\n      tag_323\n      swap2\n        /* \"contracts/SOlar.sol\":32910:32925  _rOwned[sender] */\n      swap1\n      pop\n        /* \"contracts/SOlar.sol\":32833:32877  (uint256 rAmount,,,,,) = _getValues(tAmount) */\n      dup3\n        /* \"contracts/SOlar.sol\":32910:32929  _rOwned[sender].sub */\n      tag_324\n        /* \"contracts/SOlar.sol\":32910:32938  _rOwned[sender].sub(rAmount) */\n      jump\t// in\n    tag_323:\n      sub(shl(0xa0, 0x01), 0x01)\n        /* \"contracts/SOlar.sol\":32892:32907  _rOwned[sender] */\n      dup4\n      and\n      0x00\n      swap1\n      dup2\n      mstore\n        /* \"contracts/SOlar.sol\":32892:32899  _rOwned */\n      0x03\n        /* \"contracts/SOlar.sol\":32892:32907  _rOwned[sender] */\n      0x20\n      mstore\n      0x40\n      swap1\n      keccak256\n        /* \"contracts/SOlar.sol\":32892:32938  _rOwned[sender] = _rOwned[sender].sub(rAmount) */\n      sstore\n        /* \"contracts/SOlar.sol\":32963:32970  _rTotal */\n      sload(0x0a)\n        /* \"contracts/SOlar.sol\":32963:32983  _rTotal.sub(rAmount) */\n      tag_325\n      swap1\n        /* \"contracts/SOlar.sol\":32975:32982  rAmount */\n      dup3\n        /* \"contracts/SOlar.sol\":32963:32974  _rTotal.sub */\n      tag_324\n        /* \"contracts/SOlar.sol\":32963:32983  _rTotal.sub(rAmount) */\n      jump\t// in\n    tag_325:\n        /* \"contracts/SOlar.sol\":32953:32960  _rTotal */\n      0x0a\n        /* \"contracts/SOlar.sol\":32953:32983  _rTotal = _rTotal.sub(rAmount) */\n      sstore\n        /* \"contracts/SOlar.sol\":33011:33021  _tFeeTotal */\n      sload(0x0b)\n        /* \"contracts/SOlar.sol\":33011:33034  _tFeeTotal.add(tAmount) */\n      tag_326\n      swap1\n        /* \"contracts/SOlar.sol\":33026:33033  tAmount */\n      dup5\n        /* \"contracts/SOlar.sol\":33011:33025  _tFeeTotal.add */\n      tag_315\n        /* \"contracts/SOlar.sol\":33011:33034  _tFeeTotal.add(tAmount) */\n      jump\t// in\n    tag_326:\n        /* \"contracts/SOlar.sol\":32998:33008  _tFeeTotal */\n      0x0b\n        /* \"contracts/SOlar.sol\":32998:33034  _tFeeTotal = _tFeeTotal.add(tAmount) */\n      sstore\n      pop\n      pop\n      pop\n        /* \"contracts/SOlar.sol\":32641:33046  function deliver(uint256 tAmount) public {... */\n      jump\t// out\n        /* \"contracts/SOlar.sol\":33058:33530  function reflectionFromToken(uint256 tAmount, bool deductTransferFee) public view returns(uint256) {... */\n    tag_123:\n        /* \"contracts/SOlar.sol\":33148:33155  uint256 */\n      0x00\n        /* \"contracts/SOlar.sol\":33191:33198  _tTotal */\n      sload(0x09)\n        /* \"contracts/SOlar.sol\":33180:33187  tAmount */\n      dup4\n        /* \"contracts/SOlar.sol\":33180:33198  tAmount <= _tTotal */\n      gt\n      iszero\n        /* \"contracts/SOlar.sol\":33172:33234  require(tAmount <= _tTotal, \"Amount must be less than supply\") */\n      tag_328\n      jumpi\n      mload(0x40)\n      shl(0xe5, 0x461bcd)\n      dup2\n      mstore\n        /* \"#utility.yul\":7041:7043   */\n      0x20\n        /* \"contracts/SOlar.sol\":33172:33234  require(tAmount <= _tTotal, \"Amount must be less than supply\") */\n      0x04\n      dup3\n      add\n        /* \"#utility.yul\":7023:7044   */\n      mstore\n        /* \"#utility.yul\":7080:7082   */\n      0x1f\n        /* \"#utility.yul\":7060:7078   */\n      0x24\n      dup3\n      add\n        /* \"#utility.yul\":7053:7083   */\n      mstore\n        /* \"#utility.yul\":7119:7152   */\n      0x416d6f756e74206d757374206265206c657373207468616e20737570706c7900\n        /* \"#utility.yul\":7099:7117   */\n      0x44\n      dup3\n      add\n        /* \"#utility.yul\":7092:7153   */\n      mstore\n        /* \"#utility.yul\":7170:7188   */\n      0x64\n      add\n        /* \"contracts/SOlar.sol\":33172:33234  require(tAmount <= _tTotal, \"Amount must be less than supply\") */\n      tag_287\n        /* \"#utility.yul\":6839:7194   */\n      jump\n        /* \"contracts/SOlar.sol\":33172:33234  require(tAmount <= _tTotal, \"Amount must be less than supply\") */\n    tag_328:\n        /* \"contracts/SOlar.sol\":33254:33271  deductTransferFee */\n      dup2\n        /* \"contracts/SOlar.sol\":33249:33519  if (!deductTransferFee) {... */\n      tag_331\n      jumpi\n        /* \"contracts/SOlar.sol\":33293:33308  uint256 rAmount */\n      0x00\n        /* \"contracts/SOlar.sol\":33317:33336  _getValues(tAmount) */\n      tag_332\n        /* \"contracts/SOlar.sol\":33328:33335  tAmount */\n      dup5\n        /* \"contracts/SOlar.sol\":33317:33327  _getValues */\n      tag_322\n        /* \"contracts/SOlar.sol\":33317:33336  _getValues(tAmount) */\n      jump\t// in\n    tag_332:\n      pop\n        /* \"contracts/SOlar.sol\":33292:33336  (uint256 rAmount,,,,,) = _getValues(tAmount) */\n      swap4\n      swap6\n      pop\n        /* \"contracts/SOlar.sol\":33355:33369  return rAmount */\n      tag_277\n      swap5\n      pop\n      pop\n      pop\n      pop\n      pop\n      jump\n        /* \"contracts/SOlar.sol\":33249:33519  if (!deductTransferFee) {... */\n    tag_331:\n        /* \"contracts/SOlar.sol\":33412:33435  uint256 rTransferAmount */\n      0x00\n        /* \"contracts/SOlar.sol\":33443:33462  _getValues(tAmount) */\n      tag_334\n        /* \"contracts/SOlar.sol\":33454:33461  tAmount */\n      dup5\n        /* \"contracts/SOlar.sol\":33443:33453  _getValues */\n      tag_322\n        /* \"contracts/SOlar.sol\":33443:33462  _getValues(tAmount) */\n      jump\t// in\n    tag_334:\n      pop\n        /* \"contracts/SOlar.sol\":33410:33462  (,uint256 rTransferAmount,,,,) = _getValues(tAmount) */\n      swap3\n      swap6\n      pop\n        /* \"contracts/SOlar.sol\":33481:33503  return rTransferAmount */\n      tag_277\n      swap5\n      pop\n      pop\n      pop\n      pop\n      pop\n      jump\n        /* \"contracts/SOlar.sol\":39982:40150  function manualSwap() external onlyOwner() {... */\n    tag_136:\n        /* \"contracts/SOlar.sol\":15894:15900  _owner */\n      and(sub(shl(0xa0, 0x01), 0x01), sload(0x00))\n        /* \"contracts/SOlar.sol\":213:223  msg.sender */\n      caller\n        /* \"contracts/SOlar.sol\":15894:15916  _owner == _msgSender() */\n      eq\n        /* \"contracts/SOlar.sol\":15886:15953  require(_owner == _msgSender(), \"Ownable: caller is not the owner\") */\n      tag_337\n      jumpi\n      mload(0x40)\n      shl(0xe5, 0x461bcd)\n      dup2\n      mstore\n      0x04\n      add\n      tag_287\n      swap1\n      tag_288\n      jump\t// in\n    tag_337:\n        /* \"contracts/SOlar.sol\":40040:40063  uint256 contractBalance */\n      0x00\n        /* \"contracts/SOlar.sol\":40066:40090  balanceOf(address(this)) */\n      tag_340\n        /* \"contracts/SOlar.sol\":40084:40088  this */\n      address\n        /* \"contracts/SOlar.sol\":40066:40075  balanceOf */\n      tag_163\n        /* \"contracts/SOlar.sol\":40066:40090  balanceOf(address(this)) */\n      jump\t// in\n    tag_340:\n        /* \"contracts/SOlar.sol\":40040:40090  uint256 contractBalance = balanceOf(address(this)) */\n      swap1\n      pop\n        /* \"contracts/SOlar.sol\":40105:40138  swapTokensForEth(contractBalance) */\n      tag_341\n        /* \"contracts/SOlar.sol\":40122:40137  contractBalance */\n      dup2\n        /* \"contracts/SOlar.sol\":40105:40121  swapTokensForEth */\n      tag_342\n        /* \"contracts/SOlar.sol\":40105:40138  swapTokensForEth(contractBalance) */\n      jump\t// in\n    tag_341:\n        /* \"contracts/SOlar.sol\":40025:40150  {... */\n      pop\n        /* \"contracts/SOlar.sol\":39982:40150  function manualSwap() external onlyOwner() {... */\n      jump\t// out\n        /* \"contracts/SOlar.sol\":46407:46508  function _setTaxFee(uint256 _taxFee) external onlyOwner() {... */\n    tag_146:\n        /* \"contracts/SOlar.sol\":15894:15900  _owner */\n      and(sub(shl(0xa0, 0x01), 0x01), sload(0x00))\n        /* \"contracts/SOlar.sol\":213:223  msg.sender */\n      caller\n        /* \"contracts/SOlar.sol\":15894:15916  _owner == _msgSender() */\n      eq\n        /* \"contracts/SOlar.sol\":15886:15953  require(_owner == _msgSender(), \"Ownable: caller is not the owner\") */\n      tag_346\n      jumpi\n      mload(0x40)\n      shl(0xe5, 0x461bcd)\n      dup2\n      mstore\n      0x04\n      add\n      tag_287\n      swap1\n      tag_288\n      jump\t// in\n    tag_346:\n        /* \"contracts/SOlar.sol\":46480:46486  taxFee */\n      0x0f\n        /* \"contracts/SOlar.sol\":46480:46496  taxFee = _taxFee */\n      sstore\n        /* \"contracts/SOlar.sol\":46407:46508  function _setTaxFee(uint256 _taxFee) external onlyOwner() {... */\n      jump\t// out\n        /* \"contracts/SOlar.sol\":30482:30692  function balanceOf(address account) public view override returns (uint256) {... */\n    tag_163:\n      sub(shl(0xa0, 0x01), 0x01)\n        /* \"contracts/SOlar.sol\":30576:30596  _isExcluded[account] */\n      dup2\n      and\n        /* \"contracts/SOlar.sol\":30548:30555  uint256 */\n      0x00\n        /* \"contracts/SOlar.sol\":30576:30596  _isExcluded[account] */\n      swap1\n      dup2\n      mstore\n        /* \"contracts/SOlar.sol\":30576:30587  _isExcluded */\n      0x07\n        /* \"contracts/SOlar.sol\":30576:30596  _isExcluded[account] */\n      0x20\n      mstore\n      0x40\n      dup2\n      keccak256\n      sload\n      0xff\n      and\n        /* \"contracts/SOlar.sol\":30572:30621  if (_isExcluded[account]) return _tOwned[account] */\n      iszero\n      tag_350\n      jumpi\n      pop\n      sub(shl(0xa0, 0x01), 0x01)\n        /* \"contracts/SOlar.sol\":30605:30621  _tOwned[account] */\n      and\n      0x00\n      swap1\n      dup2\n      mstore\n        /* \"contracts/SOlar.sol\":30605:30612  _tOwned */\n      0x04\n        /* \"contracts/SOlar.sol\":30605:30621  _tOwned[account] */\n      0x20\n      mstore\n      0x40\n      swap1\n      keccak256\n      sload\n      swap1\n        /* \"contracts/SOlar.sol\":30482:30692  function balanceOf(address account) public view override returns (uint256) {... */\n      jump\t// out\n        /* \"contracts/SOlar.sol\":30572:30621  if (_isExcluded[account]) return _tOwned[account] */\n    tag_350:\n      sub(shl(0xa0, 0x01), 0x01)\n        /* \"contracts/SOlar.sol\":30663:30679  _rOwned[account] */\n      dup3\n      and\n      0x00\n      swap1\n      dup2\n      mstore\n        /* \"contracts/SOlar.sol\":30663:30670  _rOwned */\n      0x03\n        /* \"contracts/SOlar.sol\":30663:30679  _rOwned[account] */\n      0x20\n      mstore\n      0x40\n      swap1\n      keccak256\n      sload\n        /* \"contracts/SOlar.sol\":30643:30680  tokenFromReflection(_rOwned[account]) */\n      tag_277\n      swap1\n        /* \"contracts/SOlar.sol\":30643:30662  tokenFromReflection */\n      tag_99\n        /* \"contracts/SOlar.sol\":30643:30680  tokenFromReflection(_rOwned[account]) */\n      jump\t// in\n        /* \"contracts/SOlar.sol\":16358:16518  function renounceOwnership() public virtual onlyOwner {... */\n    tag_167:\n        /* \"contracts/SOlar.sol\":15894:15900  _owner */\n      and(sub(shl(0xa0, 0x01), 0x01), sload(0x00))\n        /* \"contracts/SOlar.sol\":213:223  msg.sender */\n      caller\n        /* \"contracts/SOlar.sol\":15894:15916  _owner == _msgSender() */\n      eq\n        /* \"contracts/SOlar.sol\":15886:15953  require(_owner == _msgSender(), \"Ownable: caller is not the owner\") */\n      tag_354\n      jumpi\n      mload(0x40)\n      shl(0xe5, 0x461bcd)\n      dup2\n      mstore\n      0x04\n      add\n      tag_287\n      swap1\n      tag_288\n      jump\t// in\n    tag_354:\n        /* \"contracts/SOlar.sol\":16469:16470  0 */\n      0x00\n        /* \"contracts/SOlar.sol\":16453:16459  _owner */\n      dup1\n      sload\n        /* \"contracts/SOlar.sol\":16432:16472  OwnershipTransferred(_owner, address(0)) */\n      mload(0x40)\n      sub(shl(0xa0, 0x01), 0x01)\n        /* \"contracts/SOlar.sol\":16453:16459  _owner */\n      swap1\n      swap2\n      and\n      swap1\n      0x00\n      dup1\n      mload\n      0x20\n      data_9c064737b570a74c2bac5d21056d93ac53115214216cd14d4a0fc9b60be81231\n      dup4\n      codecopy\n      dup2\n      mload\n      swap2\n      mstore\n        /* \"contracts/SOlar.sol\":16432:16472  OwnershipTransferred(_owner, address(0)) */\n      swap1\n        /* \"contracts/SOlar.sol\":16469:16470  0 */\n      dup4\n      swap1\n        /* \"contracts/SOlar.sol\":16432:16472  OwnershipTransferred(_owner, address(0)) */\n      log3\n        /* \"contracts/SOlar.sol\":16504:16505  0 */\n      0x00\n        /* \"contracts/SOlar.sol\":16487:16506  _owner = address(0) */\n      dup1\n      sload\n      not(sub(shl(0xa0, 0x01), 0x01))\n      and\n      swap1\n      sstore\n        /* \"contracts/SOlar.sol\":16358:16518  function renounceOwnership() public virtual onlyOwner {... */\n      jump\t// out\n        /* \"contracts/SOlar.sol\":32406:32522  function changeUniswapPair(address pair) external onlyOwner... */\n    tag_171:\n        /* \"contracts/SOlar.sol\":15894:15900  _owner */\n      and(sub(shl(0xa0, 0x01), 0x01), sload(0x00))\n        /* \"contracts/SOlar.sol\":213:223  msg.sender */\n      caller\n        /* \"contracts/SOlar.sol\":15894:15916  _owner == _msgSender() */\n      eq\n        /* \"contracts/SOlar.sol\":15886:15953  require(_owner == _msgSender(), \"Ownable: caller is not the owner\") */\n      tag_359\n      jumpi\n      mload(0x40)\n      shl(0xe5, 0x461bcd)\n      dup2\n      mstore\n      0x04\n      add\n      tag_287\n      swap1\n      tag_288\n      jump\t// in\n    tag_359:\n        /* \"contracts/SOlar.sol\":32490:32503  uniswapV2Pair */\n      0x1f\n        /* \"contracts/SOlar.sol\":32490:32510  uniswapV2Pair = pair */\n      dup1\n      sload\n      not(sub(shl(0xa0, 0x01), 0x01))\n      and\n      sub(shl(0xa0, 0x01), 0x01)\n      swap3\n      swap1\n      swap3\n      and\n      swap2\n      swap1\n      swap2\n      or\n      swap1\n      sstore\n        /* \"contracts/SOlar.sol\":32406:32522  function changeUniswapPair(address pair) external onlyOwner... */\n      jump\t// out\n        /* \"contracts/SOlar.sol\":36242:36344  function enableTrading() onlyOwner external ... */\n    tag_174:\n        /* \"contracts/SOlar.sol\":15894:15900  _owner */\n      and(sub(shl(0xa0, 0x01), 0x01), sload(0x00))\n        /* \"contracts/SOlar.sol\":213:223  msg.sender */\n      caller\n        /* \"contracts/SOlar.sol\":15894:15916  _owner == _msgSender() */\n      eq\n        /* \"contracts/SOlar.sol\":15886:15953  require(_owner == _msgSender(), \"Ownable: caller is not the owner\") */\n      tag_364\n      jumpi\n      mload(0x40)\n      shl(0xe5, 0x461bcd)\n      dup2\n      mstore\n      0x04\n      add\n      tag_287\n      swap1\n      tag_288\n      jump\t// in\n    tag_364:\n        /* \"contracts/SOlar.sol\":36311:36325  tradingEnabled */\n      0x0e\n        /* \"contracts/SOlar.sol\":36311:36332  tradingEnabled = true */\n      dup1\n      sload\n      not(0xff00)\n      and\n      0x0100\n      or\n      swap1\n      sstore\n        /* \"contracts/SOlar.sol\":36242:36344  function enableTrading() onlyOwner external ... */\n      jump\t// out\n        /* \"contracts/SOlar.sol\":30157:30252  function symbol() public view returns (string memory) {... */\n    tag_181:\n        /* \"contracts/SOlar.sol\":30196:30209  string memory */\n      0x60\n        /* \"contracts/SOlar.sol\":30233:30240  _symbol */\n      0x0d\n        /* \"contracts/SOlar.sol\":30226:30240  return _symbol */\n      dup1\n      sload\n      tag_271\n      swap1\n      tag_272\n      jump\t// in\n        /* \"contracts/SOlar.sol\":31826:32107  function decreaseAllowance(address spender, uint256 subtractedValue) public virtual returns (bool) {... */\n    tag_190:\n        /* \"contracts/SOlar.sol\":31919:31923  bool */\n      0x00\n        /* \"contracts/SOlar.sol\":31940:32069  _approve(_msgSender(), spender, _allowances[_msgSender()][spender].sub(subtractedValue, \"ERC20: decreased allowance below zero\")) */\n      tag_278\n        /* \"contracts/SOlar.sol\":213:223  msg.sender */\n      caller\n        /* \"contracts/SOlar.sol\":31963:31970  spender */\n      dup5\n        /* \"contracts/SOlar.sol\":31972:32068  _allowances[_msgSender()][spender].sub(subtractedValue, \"ERC20: decreased allowance below zero\") */\n      tag_298\n        /* \"contracts/SOlar.sol\":32011:32026  subtractedValue */\n      dup6\n        /* \"contracts/SOlar.sol\":31972:32068  _allowances[_msgSender()][spender].sub(subtractedValue, \"ERC20: decreased allowance below zero\") */\n      mload(0x40)\n      dup1\n      0x60\n      add\n      0x40\n      mstore\n      dup1\n      0x25\n      dup2\n      mstore\n      0x20\n      add\n      data_f8b476f7d28209d77d4a4ac1fe36b9f8259aa1bb6bddfa6e89de7e51615cf8a8\n      0x25\n      swap2\n      codecopy\n        /* \"contracts/SOlar.sol\":213:223  msg.sender */\n      caller\n        /* \"contracts/SOlar.sol\":31972:31997  _allowances[_msgSender()] */\n      0x00\n      swap1\n      dup2\n      mstore\n        /* \"contracts/SOlar.sol\":31972:31983  _allowances */\n      0x05\n        /* \"contracts/SOlar.sol\":31972:31997  _allowances[_msgSender()] */\n      0x20\n      swap1\n      dup2\n      mstore\n      0x40\n      dup1\n      dup4\n      keccak256\n      sub(shl(0xa0, 0x01), 0x01)\n        /* \"contracts/SOlar.sol\":31972:32006  _allowances[_msgSender()][spender] */\n      dup14\n      and\n      dup5\n      mstore\n      swap1\n      swap2\n      mstore\n      swap1\n      keccak256\n      sload\n      swap2\n      swap1\n        /* \"contracts/SOlar.sol\":31972:32010  _allowances[_msgSender()][spender].sub */\n      tag_300\n        /* \"contracts/SOlar.sol\":31972:32068  _allowances[_msgSender()][spender].sub(subtractedValue, \"ERC20: decreased allowance below zero\") */\n      jump\t// in\n        /* \"contracts/SOlar.sol\":17477:17802  function unlock() public virtual {... */\n    tag_202:\n        /* \"contracts/SOlar.sol\":17533:17547  _previousOwner */\n      and(sub(shl(0xa0, 0x01), 0x01), sload(0x01))\n        /* \"contracts/SOlar.sol\":17551:17561  msg.sender */\n      caller\n        /* \"contracts/SOlar.sol\":17533:17561  _previousOwner == msg.sender */\n      eq\n        /* \"contracts/SOlar.sol\":17525:17601  require(_previousOwner == msg.sender, \"You don't have permission to unlock\") */\n      tag_380\n      jumpi\n      mload(0x40)\n      shl(0xe5, 0x461bcd)\n      dup2\n      mstore\n        /* \"#utility.yul\":7401:7403   */\n      0x20\n        /* \"contracts/SOlar.sol\":17525:17601  require(_previousOwner == msg.sender, \"You don't have permission to unlock\") */\n      0x04\n      dup3\n      add\n        /* \"#utility.yul\":7383:7404   */\n      mstore\n        /* \"#utility.yul\":7440:7442   */\n      0x23\n        /* \"#utility.yul\":7420:7438   */\n      0x24\n      dup3\n      add\n        /* \"#utility.yul\":7413:7443   */\n      mstore\n        /* \"#utility.yul\":7479:7513   */\n      0x596f7520646f6e27742068617665207065726d697373696f6e20746f20756e6c\n        /* \"#utility.yul\":7459:7477   */\n      0x44\n      dup3\n      add\n        /* \"#utility.yul\":7452:7514   */\n      mstore\n      shl(0xe8, 0x6f636b)\n        /* \"#utility.yul\":7530:7548   */\n      0x64\n      dup3\n      add\n        /* \"#utility.yul\":7523:7556   */\n      mstore\n        /* \"#utility.yul\":7573:7592   */\n      0x84\n      add\n        /* \"contracts/SOlar.sol\":17525:17601  require(_previousOwner == msg.sender, \"You don't have permission to unlock\") */\n      tag_287\n        /* \"#utility.yul\":7199:7598   */\n      jump\n        /* \"contracts/SOlar.sol\":17525:17601  require(_previousOwner == msg.sender, \"You don't have permission to unlock\") */\n    tag_380:\n        /* \"contracts/SOlar.sol\":17642:17651  _lockTime */\n      sload(0x02)\n        /* \"contracts/SOlar.sol\":17624:17639  block.timestamp */\n      timestamp\n        /* \"contracts/SOlar.sol\":17624:17651  block.timestamp > _lockTime */\n      gt\n        /* \"contracts/SOlar.sol\":17616:17688  require(block.timestamp > _lockTime , \"Contract is locked until 7 days\") */\n      tag_383\n      jumpi\n      mload(0x40)\n      shl(0xe5, 0x461bcd)\n      dup2\n      mstore\n        /* \"#utility.yul\":7805:7807   */\n      0x20\n        /* \"contracts/SOlar.sol\":17616:17688  require(block.timestamp > _lockTime , \"Contract is locked until 7 days\") */\n      0x04\n      dup3\n      add\n        /* \"#utility.yul\":7787:7808   */\n      mstore\n        /* \"#utility.yul\":7844:7846   */\n      0x1f\n        /* \"#utility.yul\":7824:7842   */\n      0x24\n      dup3\n      add\n        /* \"#utility.yul\":7817:7847   */\n      mstore\n        /* \"#utility.yul\":7883:7916   */\n      0x436f6e7472616374206973206c6f636b656420756e74696c2037206461797300\n        /* \"#utility.yul\":7863:7881   */\n      0x44\n      dup3\n      add\n        /* \"#utility.yul\":7856:7917   */\n      mstore\n        /* \"#utility.yul\":7934:7952   */\n      0x64\n      add\n        /* \"contracts/SOlar.sol\":17616:17688  require(block.timestamp > _lockTime , \"Contract is locked until 7 days\") */\n      tag_287\n        /* \"#utility.yul\":7603:7958   */\n      jump\n        /* \"contracts/SOlar.sol\":17616:17688  require(block.timestamp > _lockTime , \"Contract is locked until 7 days\") */\n    tag_383:\n        /* \"contracts/SOlar.sol\":17737:17751  _previousOwner */\n      sload(0x01)\n      0x00\n        /* \"contracts/SOlar.sol\":17729:17735  _owner */\n      dup1\n      sload\n        /* \"contracts/SOlar.sol\":17708:17752  OwnershipTransferred(_owner, _previousOwner) */\n      mload(0x40)\n      sub(shl(0xa0, 0x01), 0x01)\n        /* \"contracts/SOlar.sol\":17737:17751  _previousOwner */\n      swap4\n      dup5\n      and\n      swap4\n        /* \"contracts/SOlar.sol\":17729:17735  _owner */\n      swap1\n      swap2\n      and\n      swap2\n      0x00\n      dup1\n      mload\n      0x20\n      data_9c064737b570a74c2bac5d21056d93ac53115214216cd14d4a0fc9b60be81231\n      dup4\n      codecopy\n      dup2\n      mload\n      swap2\n      mstore\n        /* \"contracts/SOlar.sol\":17708:17752  OwnershipTransferred(_owner, _previousOwner) */\n      swap2\n      log3\n        /* \"contracts/SOlar.sol\":17776:17790  _previousOwner */\n      sload(0x01)\n      0x00\n        /* \"contracts/SOlar.sol\":17767:17790  _owner = _previousOwner */\n      dup1\n      sload\n      not(sub(shl(0xa0, 0x01), 0x01))\n      and\n      sub(shl(0xa0, 0x01), 0x01)\n        /* \"contracts/SOlar.sol\":17776:17790  _previousOwner */\n      swap1\n      swap3\n      and\n        /* \"contracts/SOlar.sol\":17767:17790  _owner = _previousOwner */\n      swap2\n      swap1\n      swap2\n      or\n      swap1\n      sstore\n        /* \"contracts/SOlar.sol\":17477:17802  function unlock() public virtual {... */\n      jump\t// out\n        /* \"contracts/SOlar.sol\":30704:30883  function transfer(address recipient, uint256 amount) public override returns (bool) {... */\n    tag_206:\n        /* \"contracts/SOlar.sol\":30782:30786  bool */\n      0x00\n        /* \"contracts/SOlar.sol\":30803:30845  _transfer(_msgSender(), recipient, amount) */\n      tag_278\n        /* \"contracts/SOlar.sol\":213:223  msg.sender */\n      caller\n        /* \"contracts/SOlar.sol\":30827:30836  recipient */\n      dup5\n        /* \"contracts/SOlar.sol\":30838:30844  amount */\n      dup5\n        /* \"contracts/SOlar.sol\":30803:30812  _transfer */\n      tag_295\n        /* \"contracts/SOlar.sol\":30803:30845  _transfer(_msgSender(), recipient, amount) */\n      jump\t// in\n        /* \"contracts/SOlar.sol\":32249:32394  function setExcludeFromFee(address account, bool excluded) external onlyOwner() {... */\n    tag_212:\n        /* \"contracts/SOlar.sol\":15894:15900  _owner */\n      and(sub(shl(0xa0, 0x01), 0x01), sload(0x00))\n        /* \"contracts/SOlar.sol\":213:223  msg.sender */\n      caller\n        /* \"contracts/SOlar.sol\":15894:15916  _owner == _msgSender() */\n      eq\n        /* \"contracts/SOlar.sol\":15886:15953  require(_owner == _msgSender(), \"Ownable: caller is not the owner\") */\n      tag_391\n      jumpi\n      mload(0x40)\n      shl(0xe5, 0x461bcd)\n      dup2\n      mstore\n      0x04\n      add\n      tag_287\n      swap1\n      tag_288\n      jump\t// in\n    tag_391:\n      sub(shl(0xa0, 0x01), 0x01)\n        /* \"contracts/SOlar.sol\":32344:32371  _isExcludedFromFee[account] */\n      swap2\n      swap1\n      swap2\n      and\n      0x00\n      swap1\n      dup2\n      mstore\n        /* \"contracts/SOlar.sol\":32344:32362  _isExcludedFromFee */\n      0x06\n        /* \"contracts/SOlar.sol\":32344:32371  _isExcludedFromFee[account] */\n      0x20\n      mstore\n      0x40\n      swap1\n      keccak256\n        /* \"contracts/SOlar.sol\":32344:32382  _isExcludedFromFee[account] = excluded */\n      dup1\n      sload\n      not(0xff)\n      and\n      swap2\n      iszero\n      iszero\n      swap2\n      swap1\n      swap2\n      or\n      swap1\n      sstore\n        /* \"contracts/SOlar.sol\":32249:32394  function setExcludeFromFee(address account, bool excluded) external onlyOwner() {... */\n      jump\t// out\n        /* \"contracts/SOlar.sol\":46520:47016  function setFeePercent(uint256 updatedCharityFee, uint256 updatedMarketingFee, uint256 updatedDevelopmentFee, uint256 updatedBuybackFee) external onlyOwner {... */\n    tag_234:\n        /* \"contracts/SOlar.sol\":15894:15900  _owner */\n      and(sub(shl(0xa0, 0x01), 0x01), sload(0x00))\n        /* \"contracts/SOlar.sol\":213:223  msg.sender */\n      caller\n        /* \"contracts/SOlar.sol\":15894:15916  _owner == _msgSender() */\n      eq\n        /* \"contracts/SOlar.sol\":15886:15953  require(_owner == _msgSender(), \"Ownable: caller is not the owner\") */\n      tag_398\n      jumpi\n      mload(0x40)\n      shl(0xe5, 0x461bcd)\n      dup2\n      mstore\n      0x04\n      add\n      tag_287\n      swap1\n      tag_288\n      jump\t// in\n    tag_398:\n        /* \"contracts/SOlar.sol\":46696:46706  charityFee */\n      0x10\n        /* \"contracts/SOlar.sol\":46696:46726  charityFee = updatedCharityFee */\n      dup5\n      swap1\n      sstore\n        /* \"contracts/SOlar.sol\":46737:46749  marketingFee */\n      0x11\n        /* \"contracts/SOlar.sol\":46737:46771  marketingFee = updatedMarketingFee */\n      dup4\n      swap1\n      sstore\n        /* \"contracts/SOlar.sol\":46782:46796  developmentFee */\n      0x12\n        /* \"contracts/SOlar.sol\":46782:46820  developmentFee = updatedDevelopmentFee */\n      dup3\n      swap1\n      sstore\n        /* \"contracts/SOlar.sol\":46831:46841  buybackFee */\n      0x13\n        /* \"contracts/SOlar.sol\":46831:46861  buybackFee = updatedBuybackFee */\n      dup2\n      swap1\n      sstore\n        /* \"contracts/SOlar.sol\":46844:46861  updatedBuybackFee */\n      dup1\n        /* \"contracts/SOlar.sol\":46799:46820  updatedDevelopmentFee */\n      dup3\n        /* \"contracts/SOlar.sol\":46884:46909  charityFee + marketingFee */\n      tag_401\n        /* \"contracts/SOlar.sol\":46752:46771  updatedMarketingFee */\n      dup6\n        /* \"contracts/SOlar.sol\":46709:46726  updatedCharityFee */\n      dup8\n        /* \"contracts/SOlar.sol\":46884:46909  charityFee + marketingFee */\n      tag_402\n      jump\t// in\n    tag_401:\n        /* \"contracts/SOlar.sol\":46884:46926  charityFee + marketingFee + developmentFee */\n      tag_403\n      swap2\n      swap1\n      tag_402\n      jump\t// in\n    tag_403:\n        /* \"contracts/SOlar.sol\":46884:46939  charityFee + marketingFee + developmentFee + buybackFee */\n      tag_404\n      swap2\n      swap1\n      tag_402\n      jump\t// in\n    tag_404:\n        /* \"contracts/SOlar.sol\":46872:46880  totalFee */\n      0x14\n        /* \"contracts/SOlar.sol\":46872:46939  totalFee =  charityFee + marketingFee + developmentFee + buybackFee */\n      dup2\n      swap1\n      sstore\n        /* \"contracts/SOlar.sol\":46972:46973  8 */\n      0x08\n      lt\n        /* \"contracts/SOlar.sol\":46960:46973  totalFee <= 8 */\n      iszero\n        /* \"contracts/SOlar.sol\":46952:47008  require(totalFee <= 8, \"Fee is crossing the boundaries\") */\n      tag_405\n      jumpi\n      mload(0x40)\n      shl(0xe5, 0x461bcd)\n      dup2\n      mstore\n        /* \"#utility.yul\":8427:8429   */\n      0x20\n        /* \"contracts/SOlar.sol\":46952:47008  require(totalFee <= 8, \"Fee is crossing the boundaries\") */\n      0x04\n      dup3\n      add\n        /* \"#utility.yul\":8409:8430   */\n      mstore\n        /* \"#utility.yul\":8466:8468   */\n      0x1e\n        /* \"#utility.yul\":8446:8464   */\n      0x24\n      dup3\n      add\n        /* \"#utility.yul\":8439:8469   */\n      mstore\n        /* \"#utility.yul\":8505:8537   */\n      0x4665652069732063726f7373696e672074686520626f756e6461726965730000\n        /* \"#utility.yul\":8485:8503   */\n      0x44\n      dup3\n      add\n        /* \"#utility.yul\":8478:8538   */\n      mstore\n        /* \"#utility.yul\":8555:8573   */\n      0x64\n      add\n        /* \"contracts/SOlar.sol\":46952:47008  require(totalFee <= 8, \"Fee is crossing the boundaries\") */\n      tag_287\n        /* \"#utility.yul\":8225:8579   */\n      jump\n        /* \"contracts/SOlar.sol\":46952:47008  require(totalFee <= 8, \"Fee is crossing the boundaries\") */\n    tag_405:\n        /* \"contracts/SOlar.sol\":46520:47016  function setFeePercent(uint256 updatedCharityFee, uint256 updatedMarketingFee, uint256 updatedDevelopmentFee, uint256 updatedBuybackFee) external onlyOwner {... */\n      pop\n      pop\n      pop\n      pop\n      jump\t// out\n        /* \"contracts/SOlar.sol\":17143:17389  function lock(uint256 time) public virtual onlyOwner {... */\n    tag_238:\n        /* \"contracts/SOlar.sol\":15894:15900  _owner */\n      and(sub(shl(0xa0, 0x01), 0x01), sload(0x00))\n        /* \"contracts/SOlar.sol\":213:223  msg.sender */\n      caller\n        /* \"contracts/SOlar.sol\":15894:15916  _owner == _msgSender() */\n      eq\n        /* \"contracts/SOlar.sol\":15886:15953  require(_owner == _msgSender(), \"Ownable: caller is not the owner\") */\n      tag_410\n      jumpi\n      mload(0x40)\n      shl(0xe5, 0x461bcd)\n      dup2\n      mstore\n      0x04\n      add\n      tag_287\n      swap1\n      tag_288\n      jump\t// in\n    tag_410:\n        /* \"contracts/SOlar.sol\":17228:17234  _owner */\n      0x00\n      dup1\n      sload\n      0x01\n        /* \"contracts/SOlar.sol\":17211:17234  _previousOwner = _owner */\n      dup1\n      sload\n      not(sub(shl(0xa0, 0x01), 0x01))\n      swap1\n      dup2\n      and\n      sub(shl(0xa0, 0x01), 0x01)\n        /* \"contracts/SOlar.sol\":17228:17234  _owner */\n      dup5\n      and\n        /* \"contracts/SOlar.sol\":17211:17234  _previousOwner = _owner */\n      or\n      swap1\n      swap2\n      sstore\n        /* \"contracts/SOlar.sol\":17249:17268  _owner = address(0) */\n      and\n      swap1\n      sstore\n        /* \"contracts/SOlar.sol\":17295:17317  block.timestamp + time */\n      tag_413\n        /* \"contracts/SOlar.sol\":17313:17317  time */\n      dup2\n        /* \"contracts/SOlar.sol\":17295:17310  block.timestamp */\n      timestamp\n        /* \"contracts/SOlar.sol\":17295:17317  block.timestamp + time */\n      tag_402\n      jump\t// in\n    tag_413:\n        /* \"contracts/SOlar.sol\":17283:17292  _lockTime */\n      0x02\n        /* \"contracts/SOlar.sol\":17283:17317  _lockTime = block.timestamp + time */\n      sstore\n        /* \"contracts/SOlar.sol\":17374:17375  0 */\n      0x00\n        /* \"contracts/SOlar.sol\":17358:17364  _owner */\n      dup1\n      sload\n        /* \"contracts/SOlar.sol\":17337:17377  OwnershipTransferred(_owner, address(0)) */\n      mload(0x40)\n      sub(shl(0xa0, 0x01), 0x01)\n        /* \"contracts/SOlar.sol\":17358:17364  _owner */\n      swap1\n      swap2\n      and\n      swap1\n      0x00\n      dup1\n      mload\n      0x20\n      data_9c064737b570a74c2bac5d21056d93ac53115214216cd14d4a0fc9b60be81231\n      dup4\n      codecopy\n      dup2\n      mload\n      swap2\n      mstore\n        /* \"contracts/SOlar.sol\":17337:17377  OwnershipTransferred(_owner, address(0)) */\n      swap1\n        /* \"contracts/SOlar.sol\":17374:17375  0 */\n      dup4\n      swap1\n        /* \"contracts/SOlar.sol\":17337:17377  OwnershipTransferred(_owner, address(0)) */\n      log3\n        /* \"contracts/SOlar.sol\":17143:17389  function lock(uint256 time) public virtual onlyOwner {... */\n      pop\n      jump\t// out\n        /* \"contracts/SOlar.sol\":40170:40276  function setSwapEnabled(bool enabled) external onlyOwner(){... */\n    tag_249:\n        /* \"contracts/SOlar.sol\":15894:15900  _owner */\n      and(sub(shl(0xa0, 0x01), 0x01), sload(0x00))\n        /* \"contracts/SOlar.sol\":213:223  msg.sender */\n      caller\n        /* \"contracts/SOlar.sol\":15894:15916  _owner == _msgSender() */\n      eq\n        /* \"contracts/SOlar.sol\":15886:15953  require(_owner == _msgSender(), \"Ownable: caller is not the owner\") */\n      tag_417\n      jumpi\n      mload(0x40)\n      shl(0xe5, 0x461bcd)\n      dup2\n      mstore\n      0x04\n      add\n      tag_287\n      swap1\n      tag_288\n      jump\t// in\n    tag_417:\n        /* \"contracts/SOlar.sol\":40243:40254  swapEnabled */\n      0x1f\n        /* \"contracts/SOlar.sol\":40243:40264  swapEnabled = enabled */\n      dup1\n      sload\n      swap2\n      iszero\n      iszero\n      shl(0xa8, 0x01)\n      mul\n      not(shl(0xa8, 0xff))\n      swap1\n      swap3\n      and\n      swap2\n      swap1\n      swap2\n      or\n      swap1\n      sstore\n        /* \"contracts/SOlar.sol\":40170:40276  function setSwapEnabled(bool enabled) external onlyOwner(){... */\n      jump\t// out\n        /* \"contracts/SOlar.sol\":38696:38833  function changeNumOfTokensToExchange(uint256 amount) public onlyOwner... */\n    tag_253:\n        /* \"contracts/SOlar.sol\":15894:15900  _owner */\n      and(sub(shl(0xa0, 0x01), 0x01), sload(0x00))\n        /* \"contracts/SOlar.sol\":213:223  msg.sender */\n      caller\n        /* \"contracts/SOlar.sol\":15894:15916  _owner == _msgSender() */\n      eq\n        /* \"contracts/SOlar.sol\":15886:15953  require(_owner == _msgSender(), \"Ownable: caller is not the owner\") */\n      tag_422\n      jumpi\n      mload(0x40)\n      shl(0xe5, 0x461bcd)\n      dup2\n      mstore\n      0x04\n      add\n      tag_287\n      swap1\n      tag_288\n      jump\t// in\n    tag_422:\n        /* \"contracts/SOlar.sol\":38790:38812  _numOfTokensToExchange */\n      0x21\n        /* \"contracts/SOlar.sol\":38790:38821  _numOfTokensToExchange = amount */\n      sstore\n        /* \"contracts/SOlar.sol\":38696:38833  function changeNumOfTokensToExchange(uint256 amount) public onlyOwner... */\n      jump\t// out\n        /* \"contracts/SOlar.sol\":33823:34298  function excludeAccount(address account) external onlyOwner() {... */\n    tag_261:\n        /* \"contracts/SOlar.sol\":15894:15900  _owner */\n      and(sub(shl(0xa0, 0x01), 0x01), sload(0x00))\n        /* \"contracts/SOlar.sol\":213:223  msg.sender */\n      caller\n        /* \"contracts/SOlar.sol\":15894:15916  _owner == _msgSender() */\n      eq\n        /* \"contracts/SOlar.sol\":15886:15953  require(_owner == _msgSender(), \"Ownable: caller is not the owner\") */\n      tag_427\n      jumpi\n      mload(0x40)\n      shl(0xe5, 0x461bcd)\n      dup2\n      mstore\n      0x04\n      add\n      tag_287\n      swap1\n      tag_288\n      jump\t// in\n    tag_427:\n      sub(shl(0xa0, 0x01), 0x01)\n        /* \"contracts/SOlar.sol\":33908:33961  account != 0x7a250d5630B4cF539739dF2C5dAcb4c659F2488D */\n      dup2\n      and\n        /* \"contracts/SOlar.sol\":33919:33961  0x7a250d5630B4cF539739dF2C5dAcb4c659F2488D */\n      0x7a250d5630b4cf539739df2c5dacb4c659f2488d\n        /* \"contracts/SOlar.sol\":33908:33961  account != 0x7a250d5630B4cF539739dF2C5dAcb4c659F2488D */\n      sub\n        /* \"contracts/SOlar.sol\":33900:34000  require(account != 0x7a250d5630B4cF539739dF2C5dAcb4c659F2488D, 'We can not exclude Uniswap router.') */\n      tag_430\n      jumpi\n      mload(0x40)\n      shl(0xe5, 0x461bcd)\n      dup2\n      mstore\n        /* \"#utility.yul\":8786:8788   */\n      0x20\n        /* \"contracts/SOlar.sol\":33900:34000  require(account != 0x7a250d5630B4cF539739dF2C5dAcb4c659F2488D, 'We can not exclude Uniswap router.') */\n      0x04\n      dup3\n      add\n        /* \"#utility.yul\":8768:8789   */\n      mstore\n        /* \"#utility.yul\":8825:8827   */\n      0x22\n        /* \"#utility.yul\":8805:8823   */\n      0x24\n      dup3\n      add\n        /* \"#utility.yul\":8798:8828   */\n      mstore\n        /* \"#utility.yul\":8864:8898   */\n      0x57652063616e206e6f74206578636c75646520556e697377617020726f757465\n        /* \"#utility.yul\":8844:8862   */\n      0x44\n      dup3\n      add\n        /* \"#utility.yul\":8837:8899   */\n      mstore\n      shl(0xf1, 0x3917)\n        /* \"#utility.yul\":8915:8933   */\n      0x64\n      dup3\n      add\n        /* \"#utility.yul\":8908:8940   */\n      mstore\n        /* \"#utility.yul\":8957:8976   */\n      0x84\n      add\n        /* \"contracts/SOlar.sol\":33900:34000  require(account != 0x7a250d5630B4cF539739dF2C5dAcb4c659F2488D, 'We can not exclude Uniswap router.') */\n      tag_287\n        /* \"#utility.yul\":8584:8982   */\n      jump\n        /* \"contracts/SOlar.sol\":33900:34000  require(account != 0x7a250d5630B4cF539739dF2C5dAcb4c659F2488D, 'We can not exclude Uniswap router.') */\n    tag_430:\n      sub(shl(0xa0, 0x01), 0x01)\n        /* \"contracts/SOlar.sol\":34024:34044  _isExcluded[account] */\n      dup2\n      and\n      0x00\n      swap1\n      dup2\n      mstore\n        /* \"contracts/SOlar.sol\":34024:34035  _isExcluded */\n      0x07\n        /* \"contracts/SOlar.sol\":34024:34044  _isExcluded[account] */\n      0x20\n      mstore\n      0x40\n      swap1\n      keccak256\n      sload\n      0xff\n      and\n        /* \"contracts/SOlar.sol\":34023:34044  !_isExcluded[account] */\n      iszero\n        /* \"contracts/SOlar.sol\":34015:34076  require(!_isExcluded[account], \"Account is already excluded\") */\n      tag_433\n      jumpi\n      mload(0x40)\n      shl(0xe5, 0x461bcd)\n      dup2\n      mstore\n        /* \"#utility.yul\":9189:9191   */\n      0x20\n        /* \"contracts/SOlar.sol\":34015:34076  require(!_isExcluded[account], \"Account is already excluded\") */\n      0x04\n      dup3\n      add\n        /* \"#utility.yul\":9171:9192   */\n      mstore\n        /* \"#utility.yul\":9228:9230   */\n      0x1b\n        /* \"#utility.yul\":9208:9226   */\n      0x24\n      dup3\n      add\n        /* \"#utility.yul\":9201:9231   */\n      mstore\n        /* \"#utility.yul\":9267:9296   */\n      0x4163636f756e7420697320616c7265616479206578636c756465640000000000\n        /* \"#utility.yul\":9247:9265   */\n      0x44\n      dup3\n      add\n        /* \"#utility.yul\":9240:9297   */\n      mstore\n        /* \"#utility.yul\":9314:9332   */\n      0x64\n      add\n        /* \"contracts/SOlar.sol\":34015:34076  require(!_isExcluded[account], \"Account is already excluded\") */\n      tag_287\n        /* \"#utility.yul\":8987:9338   */\n      jump\n        /* \"contracts/SOlar.sol\":34015:34076  require(!_isExcluded[account], \"Account is already excluded\") */\n    tag_433:\n      sub(shl(0xa0, 0x01), 0x01)\n        /* \"contracts/SOlar.sol\":34094:34110  _rOwned[account] */\n      dup2\n      and\n        /* \"contracts/SOlar.sol\":34113:34114  0 */\n      0x00\n        /* \"contracts/SOlar.sol\":34094:34110  _rOwned[account] */\n      swap1\n      dup2\n      mstore\n        /* \"contracts/SOlar.sol\":34094:34101  _rOwned */\n      0x03\n        /* \"contracts/SOlar.sol\":34094:34110  _rOwned[account] */\n      0x20\n      mstore\n      0x40\n      swap1\n      keccak256\n      sload\n        /* \"contracts/SOlar.sol\":34094:34114  _rOwned[account] > 0 */\n      iszero\n        /* \"contracts/SOlar.sol\":34091:34207  if(_rOwned[account] > 0) {... */\n      tag_436\n      jumpi\n      sub(shl(0xa0, 0x01), 0x01)\n        /* \"contracts/SOlar.sol\":34174:34190  _rOwned[account] */\n      dup2\n      and\n      0x00\n      swap1\n      dup2\n      mstore\n        /* \"contracts/SOlar.sol\":34174:34181  _rOwned */\n      0x03\n        /* \"contracts/SOlar.sol\":34174:34190  _rOwned[account] */\n      0x20\n      mstore\n      0x40\n      swap1\n      keccak256\n      sload\n        /* \"contracts/SOlar.sol\":34154:34191  tokenFromReflection(_rOwned[account]) */\n      tag_437\n      swap1\n        /* \"contracts/SOlar.sol\":34154:34173  tokenFromReflection */\n      tag_99\n        /* \"contracts/SOlar.sol\":34154:34191  tokenFromReflection(_rOwned[account]) */\n      jump\t// in\n    tag_437:\n      sub(shl(0xa0, 0x01), 0x01)\n        /* \"contracts/SOlar.sol\":34135:34151  _tOwned[account] */\n      dup3\n      and\n      0x00\n      swap1\n      dup2\n      mstore\n        /* \"contracts/SOlar.sol\":34135:34142  _tOwned */\n      0x04\n        /* \"contracts/SOlar.sol\":34135:34151  _tOwned[account] */\n      0x20\n      mstore\n      0x40\n      swap1\n      keccak256\n        /* \"contracts/SOlar.sol\":34135:34191  _tOwned[account] = tokenFromReflection(_rOwned[account]) */\n      sstore\n        /* \"contracts/SOlar.sol\":34091:34207  if(_rOwned[account] > 0) {... */\n    tag_436:\n      sub(shl(0xa0, 0x01), 0x01)\n        /* \"contracts/SOlar.sol\":34221:34241  _isExcluded[account] */\n      and\n      0x00\n      dup2\n      dup2\n      mstore\n        /* \"contracts/SOlar.sol\":34221:34232  _isExcluded */\n      0x07\n        /* \"contracts/SOlar.sol\":34221:34241  _isExcluded[account] */\n      0x20\n      mstore\n      0x40\n      dup2\n      keccak256\n        /* \"contracts/SOlar.sol\":34221:34248  _isExcluded[account] = true */\n      dup1\n      sload\n      not(0xff)\n      and\n        /* \"contracts/SOlar.sol\":34244:34248  true */\n      0x01\n        /* \"contracts/SOlar.sol\":34221:34248  _isExcluded[account] = true */\n      swap1\n      dup2\n      or\n      swap1\n      swap2\n      sstore\n        /* \"contracts/SOlar.sol\":34263:34272  _excluded */\n      0x08\n        /* \"contracts/SOlar.sol\":34263:34286  _excluded.push(account) */\n      dup1\n      sload\n      swap2\n      dup3\n      add\n      dup2\n      sstore\n      swap1\n      swap2\n      mstore\n      0xf3f7a9fe364faab93b216da50a3214154f22a0a2b415b23a84c8169e8b636ee3\n      add\n      dup1\n      sload\n      not(sub(shl(0xa0, 0x01), 0x01))\n      and\n      swap1\n      swap2\n      or\n      swap1\n      sstore\n        /* \"contracts/SOlar.sol\":33823:34298  function excludeAccount(address account) external onlyOwner() {... */\n      jump\t// out\n        /* \"contracts/SOlar.sol\":16690:16950  function transferOwnership(address newOwner) public virtual onlyOwner {... */\n    tag_265:\n        /* \"contracts/SOlar.sol\":15894:15900  _owner */\n      and(sub(shl(0xa0, 0x01), 0x01), sload(0x00))\n        /* \"contracts/SOlar.sol\":213:223  msg.sender */\n      caller\n        /* \"contracts/SOlar.sol\":15894:15916  _owner == _msgSender() */\n      eq\n        /* \"contracts/SOlar.sol\":15886:15953  require(_owner == _msgSender(), \"Ownable: caller is not the owner\") */\n      tag_441\n      jumpi\n      mload(0x40)\n      shl(0xe5, 0x461bcd)\n      dup2\n      mstore\n      0x04\n      add\n      tag_287\n      swap1\n      tag_288\n      jump\t// in\n    tag_441:\n      sub(shl(0xa0, 0x01), 0x01)\n        /* \"contracts/SOlar.sol\":16783:16805  newOwner != address(0) */\n      dup2\n      and\n        /* \"contracts/SOlar.sol\":16775:16848  require(newOwner != address(0), \"Ownable: new owner is the zero address\") */\n      tag_444\n      jumpi\n      mload(0x40)\n      shl(0xe5, 0x461bcd)\n      dup2\n      mstore\n        /* \"#utility.yul\":9545:9547   */\n      0x20\n        /* \"contracts/SOlar.sol\":16775:16848  require(newOwner != address(0), \"Ownable: new owner is the zero address\") */\n      0x04\n      dup3\n      add\n        /* \"#utility.yul\":9527:9548   */\n      mstore\n        /* \"#utility.yul\":9584:9586   */\n      0x26\n        /* \"#utility.yul\":9564:9582   */\n      0x24\n      dup3\n      add\n        /* \"#utility.yul\":9557:9587   */\n      mstore\n        /* \"#utility.yul\":9623:9657   */\n      0x4f776e61626c653a206e6577206f776e657220697320746865207a65726f2061\n        /* \"#utility.yul\":9603:9621   */\n      0x44\n      dup3\n      add\n        /* \"#utility.yul\":9596:9658   */\n      mstore\n      shl(0xd0, 0x646472657373)\n        /* \"#utility.yul\":9674:9692   */\n      0x64\n      dup3\n      add\n        /* \"#utility.yul\":9667:9703   */\n      mstore\n        /* \"#utility.yul\":9720:9739   */\n      0x84\n      add\n        /* \"contracts/SOlar.sol\":16775:16848  require(newOwner != address(0), \"Ownable: new owner is the zero address\") */\n      tag_287\n        /* \"#utility.yul\":9343:9745   */\n      jump\n        /* \"contracts/SOlar.sol\":16775:16848  require(newOwner != address(0), \"Ownable: new owner is the zero address\") */\n    tag_444:\n        /* \"contracts/SOlar.sol\":16889:16895  _owner */\n      0x00\n      dup1\n      sload\n        /* \"contracts/SOlar.sol\":16868:16906  OwnershipTransferred(_owner, newOwner) */\n      mload(0x40)\n      sub(shl(0xa0, 0x01), 0x01)\n      dup1\n      dup6\n      and\n      swap4\n        /* \"contracts/SOlar.sol\":16889:16895  _owner */\n      swap3\n      and\n      swap2\n      0x00\n      dup1\n      mload\n      0x20\n      data_9c064737b570a74c2bac5d21056d93ac53115214216cd14d4a0fc9b60be81231\n      dup4\n      codecopy\n      dup2\n      mload\n      swap2\n      mstore\n        /* \"contracts/SOlar.sol\":16868:16906  OwnershipTransferred(_owner, newOwner) */\n      swap2\n      log3\n        /* \"contracts/SOlar.sol\":16921:16927  _owner */\n      0x00\n        /* \"contracts/SOlar.sol\":16921:16938  _owner = newOwner */\n      dup1\n      sload\n      not(sub(shl(0xa0, 0x01), 0x01))\n      and\n      sub(shl(0xa0, 0x01), 0x01)\n      swap3\n      swap1\n      swap3\n      and\n      swap2\n      swap1\n      swap2\n      or\n      swap1\n      sstore\n        /* \"contracts/SOlar.sol\":16690:16950  function transferOwnership(address newOwner) public virtual onlyOwner {... */\n      jump\t// out\n        /* \"contracts/SOlar.sol\":34310:34832  function includeAccount(address account) external onlyOwner() {... */\n    tag_269:\n        /* \"contracts/SOlar.sol\":15894:15900  _owner */\n      and(sub(shl(0xa0, 0x01), 0x01), sload(0x00))\n        /* \"contracts/SOlar.sol\":213:223  msg.sender */\n      caller\n        /* \"contracts/SOlar.sol\":15894:15916  _owner == _msgSender() */\n      eq\n        /* \"contracts/SOlar.sol\":15886:15953  require(_owner == _msgSender(), \"Ownable: caller is not the owner\") */\n      tag_449\n      jumpi\n      mload(0x40)\n      shl(0xe5, 0x461bcd)\n      dup2\n      mstore\n      0x04\n      add\n      tag_287\n      swap1\n      tag_288\n      jump\t// in\n    tag_449:\n      sub(shl(0xa0, 0x01), 0x01)\n        /* \"contracts/SOlar.sol\":34395:34415  _isExcluded[account] */\n      dup2\n      and\n      0x00\n      swap1\n      dup2\n      mstore\n        /* \"contracts/SOlar.sol\":34395:34406  _isExcluded */\n      0x07\n        /* \"contracts/SOlar.sol\":34395:34415  _isExcluded[account] */\n      0x20\n      mstore\n      0x40\n      swap1\n      keccak256\n      sload\n      0xff\n      and\n        /* \"contracts/SOlar.sol\":34387:34447  require(_isExcluded[account], \"Account is already excluded\") */\n      tag_452\n      jumpi\n      mload(0x40)\n      shl(0xe5, 0x461bcd)\n      dup2\n      mstore\n        /* \"#utility.yul\":9189:9191   */\n      0x20\n        /* \"contracts/SOlar.sol\":34387:34447  require(_isExcluded[account], \"Account is already excluded\") */\n      0x04\n      dup3\n      add\n        /* \"#utility.yul\":9171:9192   */\n      mstore\n        /* \"#utility.yul\":9228:9230   */\n      0x1b\n        /* \"#utility.yul\":9208:9226   */\n      0x24\n      dup3\n      add\n        /* \"#utility.yul\":9201:9231   */\n      mstore\n        /* \"#utility.yul\":9267:9296   */\n      0x4163636f756e7420697320616c7265616479206578636c756465640000000000\n        /* \"#utility.yul\":9247:9265   */\n      0x44\n      dup3\n      add\n        /* \"#utility.yul\":9240:9297   */\n      mstore\n        /* \"#utility.yul\":9314:9332   */\n      0x64\n      add\n        /* \"contracts/SOlar.sol\":34387:34447  require(_isExcluded[account], \"Account is already excluded\") */\n      tag_287\n        /* \"#utility.yul\":8987:9338   */\n      jump\n        /* \"contracts/SOlar.sol\":34387:34447  require(_isExcluded[account], \"Account is already excluded\") */\n    tag_452:\n        /* \"contracts/SOlar.sol\":34467:34476  uint256 i */\n      0x00\n        /* \"contracts/SOlar.sol\":34462:34821  for (uint256 i = 0; i < _excluded.length; i++) {... */\n    tag_454:\n        /* \"contracts/SOlar.sol\":34486:34495  _excluded */\n      0x08\n        /* \"contracts/SOlar.sol\":34486:34502  _excluded.length */\n      sload\n        /* \"contracts/SOlar.sol\":34482:34502  i < _excluded.length */\n      dup2\n      lt\n        /* \"contracts/SOlar.sol\":34462:34821  for (uint256 i = 0; i < _excluded.length; i++) {... */\n      iszero\n      tag_455\n      jumpi\n        /* \"contracts/SOlar.sol\":34548:34555  account */\n      dup2\n      sub(shl(0xa0, 0x01), 0x01)\n        /* \"contracts/SOlar.sol\":34532:34555  _excluded[i] == account */\n      and\n        /* \"contracts/SOlar.sol\":34532:34541  _excluded */\n      0x08\n        /* \"contracts/SOlar.sol\":34542:34543  i */\n      dup3\n        /* \"contracts/SOlar.sol\":34532:34544  _excluded[i] */\n      dup2\n      sload\n      dup2\n      lt\n      tag_458\n      jumpi\n      tag_458\n      tag_459\n      jump\t// in\n    tag_458:\n      0x00\n      swap2\n      dup3\n      mstore\n      0x20\n      swap1\n      swap2\n      keccak256\n      add\n      sload\n      sub(shl(0xa0, 0x01), 0x01)\n      and\n        /* \"contracts/SOlar.sol\":34532:34555  _excluded[i] == account */\n      sub\n        /* \"contracts/SOlar.sol\":34528:34806  if (_excluded[i] == account) {... */\n      tag_461\n      jumpi\n        /* \"contracts/SOlar.sol\":34595:34604  _excluded */\n      0x08\n        /* \"contracts/SOlar.sol\":34605:34621  _excluded.length */\n      dup1\n      sload\n        /* \"contracts/SOlar.sol\":34605:34625  _excluded.length - 1 */\n      tag_462\n      swap1\n        /* \"contracts/SOlar.sol\":34624:34625  1 */\n      0x01\n      swap1\n        /* \"contracts/SOlar.sol\":34605:34625  _excluded.length - 1 */\n      tag_463\n      jump\t// in\n    tag_462:\n        /* \"contracts/SOlar.sol\":34595:34626  _excluded[_excluded.length - 1] */\n      dup2\n      sload\n      dup2\n      lt\n      tag_465\n      jumpi\n      tag_465\n      tag_459\n      jump\t// in\n    tag_465:\n      0x00\n      swap2\n      dup3\n      mstore\n      0x20\n      swap1\n      swap2\n      keccak256\n      add\n      sload\n        /* \"contracts/SOlar.sol\":34580:34589  _excluded */\n      0x08\n        /* \"contracts/SOlar.sol\":34580:34592  _excluded[i] */\n      dup1\n      sload\n      sub(shl(0xa0, 0x01), 0x01)\n        /* \"contracts/SOlar.sol\":34595:34626  _excluded[_excluded.length - 1] */\n      swap1\n      swap3\n      and\n      swap2\n        /* \"contracts/SOlar.sol\":34590:34591  i */\n      dup4\n      swap1\n        /* \"contracts/SOlar.sol\":34580:34592  _excluded[i] */\n      dup2\n      lt\n      tag_468\n      jumpi\n      tag_468\n      tag_459\n      jump\t// in\n    tag_468:\n      0x00\n      swap2\n      dup3\n      mstore\n      0x20\n      dup1\n      dup4\n      keccak256\n      swap2\n      swap1\n      swap2\n      add\n        /* \"contracts/SOlar.sol\":34580:34626  _excluded[i] = _excluded[_excluded.length - 1] */\n      dup1\n      sload\n      not(sub(shl(0xa0, 0x01), 0x01))\n      and\n      sub(shl(0xa0, 0x01), 0x01)\n      swap5\n      dup6\n      and\n      or\n      swap1\n      sstore\n        /* \"contracts/SOlar.sol\":34649:34665  _tOwned[account] */\n      swap2\n      dup5\n      and\n      dup2\n      mstore\n        /* \"contracts/SOlar.sol\":34649:34656  _tOwned */\n      0x04\n        /* \"contracts/SOlar.sol\":34649:34665  _tOwned[account] */\n      dup3\n      mstore\n      0x40\n      dup1\n      dup3\n      keccak256\n        /* \"contracts/SOlar.sol\":34649:34669  _tOwned[account] = 0 */\n      dup3\n      swap1\n      sstore\n        /* \"contracts/SOlar.sol\":34692:34703  _isExcluded */\n      0x07\n        /* \"contracts/SOlar.sol\":34692:34712  _isExcluded[account] */\n      swap1\n      swap3\n      mstore\n      keccak256\n        /* \"contracts/SOlar.sol\":34692:34720  _isExcluded[account] = false */\n      dup1\n      sload\n      not(0xff)\n      and\n      swap1\n      sstore\n        /* \"contracts/SOlar.sol\":34743:34752  _excluded */\n      0x08\n        /* \"contracts/SOlar.sol\":34743:34758  _excluded.pop() */\n      dup1\n      sload\n      dup1\n      tag_471\n      jumpi\n      tag_471\n      tag_472\n      jump\t// in\n    tag_471:\n      0x00\n      dup3\n      dup2\n      mstore\n      0x20\n      swap1\n      keccak256\n      dup2\n      add\n      not(0x00)\n      swap1\n      dup2\n      add\n      dup1\n      sload\n      not(sub(shl(0xa0, 0x01), 0x01))\n      and\n      swap1\n      sstore\n      add\n      swap1\n      sstore\n        /* \"contracts/SOlar.sol\":34462:34821  for (uint256 i = 0; i < _excluded.length; i++) {... */\n      pop\n        /* \"contracts/SOlar.sol\":34310:34832  function includeAccount(address account) external onlyOwner() {... */\n      pop\n      jump\t// out\n        /* \"contracts/SOlar.sol\":34528:34806  if (_excluded[i] == account) {... */\n    tag_461:\n        /* \"contracts/SOlar.sol\":34504:34507  i++ */\n      0x01\n      add\n        /* \"contracts/SOlar.sol\":34462:34821  for (uint256 i = 0; i < _excluded.length; i++) {... */\n      jump(tag_454)\n    tag_455:\n      pop\n        /* \"contracts/SOlar.sol\":34310:34832  function includeAccount(address account) external onlyOwner() {... */\n      pop\n      jump\t// out\n        /* \"contracts/SOlar.sol\":35873:36230  function _approve(address owner, address spender, uint256 amount) private {... */\n    tag_281:\n      sub(shl(0xa0, 0x01), 0x01)\n        /* \"contracts/SOlar.sol\":35970:35989  owner != address(0) */\n      dup4\n      and\n        /* \"contracts/SOlar.sol\":35962:36030  require(owner != address(0), \"ERC20: approve from the zero address\") */\n      tag_476\n      jumpi\n      mload(0x40)\n      shl(0xe5, 0x461bcd)\n      dup2\n      mstore\n        /* \"#utility.yul\":10349:10351   */\n      0x20\n        /* \"contracts/SOlar.sol\":35962:36030  require(owner != address(0), \"ERC20: approve from the zero address\") */\n      0x04\n      dup3\n      add\n        /* \"#utility.yul\":10331:10352   */\n      mstore\n        /* \"#utility.yul\":10388:10390   */\n      0x24\n        /* \"#utility.yul\":10368:10386   */\n      dup1\n      dup3\n      add\n        /* \"#utility.yul\":10361:10391   */\n      mstore\n        /* \"#utility.yul\":10427:10461   */\n      0x45524332303a20617070726f76652066726f6d20746865207a65726f20616464\n        /* \"#utility.yul\":10407:10425   */\n      0x44\n      dup3\n      add\n        /* \"#utility.yul\":10400:10462   */\n      mstore\n      shl(0xe0, 0x72657373)\n        /* \"#utility.yul\":10478:10496   */\n      0x64\n      dup3\n      add\n        /* \"#utility.yul\":10471:10505   */\n      mstore\n        /* \"#utility.yul\":10522:10541   */\n      0x84\n      add\n        /* \"contracts/SOlar.sol\":35962:36030  require(owner != address(0), \"ERC20: approve from the zero address\") */\n      tag_287\n        /* \"#utility.yul\":10147:10547   */\n      jump\n        /* \"contracts/SOlar.sol\":35962:36030  require(owner != address(0), \"ERC20: approve from the zero address\") */\n    tag_476:\n      sub(shl(0xa0, 0x01), 0x01)\n        /* \"contracts/SOlar.sol\":36053:36074  spender != address(0) */\n      dup3\n      and\n        /* \"contracts/SOlar.sol\":36045:36113  require(spender != address(0), \"ERC20: approve to the zero address\") */\n      tag_479\n      jumpi\n      mload(0x40)\n      shl(0xe5, 0x461bcd)\n      dup2\n      mstore\n        /* \"#utility.yul\":10754:10756   */\n      0x20\n        /* \"contracts/SOlar.sol\":36045:36113  require(spender != address(0), \"ERC20: approve to the zero address\") */\n      0x04\n      dup3\n      add\n        /* \"#utility.yul\":10736:10757   */\n      mstore\n        /* \"#utility.yul\":10793:10795   */\n      0x22\n        /* \"#utility.yul\":10773:10791   */\n      0x24\n      dup3\n      add\n        /* \"#utility.yul\":10766:10796   */\n      mstore\n        /* \"#utility.yul\":10832:10866   */\n      0x45524332303a20617070726f766520746f20746865207a65726f206164647265\n        /* \"#utility.yul\":10812:10830   */\n      0x44\n      dup3\n      add\n        /* \"#utility.yul\":10805:10867   */\n      mstore\n      shl(0xf0, 0x7373)\n        /* \"#utility.yul\":10883:10901   */\n      0x64\n      dup3\n      add\n        /* \"#utility.yul\":10876:10908   */\n      mstore\n        /* \"#utility.yul\":10925:10944   */\n      0x84\n      add\n        /* \"contracts/SOlar.sol\":36045:36113  require(spender != address(0), \"ERC20: approve to the zero address\") */\n      tag_287\n        /* \"#utility.yul\":10552:10950   */\n      jump\n        /* \"contracts/SOlar.sol\":36045:36113  require(spender != address(0), \"ERC20: approve to the zero address\") */\n    tag_479:\n      sub(shl(0xa0, 0x01), 0x01)\n        /* \"contracts/SOlar.sol\":36130:36148  _allowances[owner] */\n      dup4\n      dup2\n      and\n      0x00\n      dup2\n      dup2\n      mstore\n        /* \"contracts/SOlar.sol\":36130:36141  _allowances */\n      0x05\n        /* \"contracts/SOlar.sol\":36130:36148  _allowances[owner] */\n      0x20\n      swap1\n      dup2\n      mstore\n      0x40\n      dup1\n      dup4\n      keccak256\n        /* \"contracts/SOlar.sol\":36130:36157  _allowances[owner][spender] */\n      swap5\n      dup8\n      and\n      dup1\n      dup5\n      mstore\n      swap5\n      dup3\n      mstore\n      swap2\n      dup3\n      swap1\n      keccak256\n        /* \"contracts/SOlar.sol\":36130:36166  _allowances[owner][spender] = amount */\n      dup6\n      swap1\n      sstore\n        /* \"contracts/SOlar.sol\":36186:36218  Approval(owner, spender, amount) */\n      swap1\n      mload\n        /* \"#utility.yul\":1361:1386   */\n      dup5\n      dup2\n      mstore\n        /* \"contracts/SOlar.sol\":36186:36218  Approval(owner, spender, amount) */\n      0x8c5be1e5ebec7d5bd14f71427d1e84f3dd0314c0f7b2291e5b200ac8c7c3b925\n      swap2\n        /* \"#utility.yul\":1334:1352   */\n      add\n        /* \"contracts/SOlar.sol\":36186:36218  Approval(owner, spender, amount) */\n      mload(0x40)\n      dup1\n      swap2\n      sub\n      swap1\n      log3\n        /* \"contracts/SOlar.sol\":35873:36230  function _approve(address owner, address spender, uint256 amount) private {... */\n      pop\n      pop\n      pop\n      jump\t// out\n        /* \"contracts/SOlar.sol\":36356:38684  function _transfer(address sender, address recipient, uint256 amount) private {... */\n    tag_295:\n      sub(shl(0xa0, 0x01), 0x01)\n        /* \"contracts/SOlar.sol\":36457:36477  sender != address(0) */\n      dup4\n      and\n        /* \"contracts/SOlar.sol\":36449:36519  require(sender != address(0), \"ERC20: transfer from the zero address\") */\n      tag_484\n      jumpi\n      mload(0x40)\n      shl(0xe5, 0x461bcd)\n      dup2\n      mstore\n        /* \"#utility.yul\":11157:11159   */\n      0x20\n        /* \"contracts/SOlar.sol\":36449:36519  require(sender != address(0), \"ERC20: transfer from the zero address\") */\n      0x04\n      dup3\n      add\n        /* \"#utility.yul\":11139:11160   */\n      mstore\n        /* \"#utility.yul\":11196:11198   */\n      0x25\n        /* \"#utility.yul\":11176:11194   */\n      0x24\n      dup3\n      add\n        /* \"#utility.yul\":11169:11199   */\n      mstore\n        /* \"#utility.yul\":11235:11269   */\n      0x45524332303a207472616e736665722066726f6d20746865207a65726f206164\n        /* \"#utility.yul\":11215:11233   */\n      0x44\n      dup3\n      add\n        /* \"#utility.yul\":11208:11270   */\n      mstore\n      shl(0xd8, 0x6472657373)\n        /* \"#utility.yul\":11286:11304   */\n      0x64\n      dup3\n      add\n        /* \"#utility.yul\":11279:11314   */\n      mstore\n        /* \"#utility.yul\":11331:11350   */\n      0x84\n      add\n        /* \"contracts/SOlar.sol\":36449:36519  require(sender != address(0), \"ERC20: transfer from the zero address\") */\n      tag_287\n        /* \"#utility.yul\":10955:11356   */\n      jump\n        /* \"contracts/SOlar.sol\":36449:36519  require(sender != address(0), \"ERC20: transfer from the zero address\") */\n    tag_484:\n      sub(shl(0xa0, 0x01), 0x01)\n        /* \"contracts/SOlar.sol\":36542:36565  recipient != address(0) */\n      dup3\n      and\n        /* \"contracts/SOlar.sol\":36534:36605  require(recipient != address(0), \"ERC20: transfer to the zero address\") */\n      tag_487\n      jumpi\n      mload(0x40)\n      shl(0xe5, 0x461bcd)\n      dup2\n      mstore\n        /* \"#utility.yul\":11563:11565   */\n      0x20\n        /* \"contracts/SOlar.sol\":36534:36605  require(recipient != address(0), \"ERC20: transfer to the zero address\") */\n      0x04\n      dup3\n      add\n        /* \"#utility.yul\":11545:11566   */\n      mstore\n        /* \"#utility.yul\":11602:11604   */\n      0x23\n        /* \"#utility.yul\":11582:11600   */\n      0x24\n      dup3\n      add\n        /* \"#utility.yul\":11575:11605   */\n      mstore\n        /* \"#utility.yul\":11641:11675   */\n      0x45524332303a207472616e7366657220746f20746865207a65726f2061646472\n        /* \"#utility.yul\":11621:11639   */\n      0x44\n      dup3\n      add\n        /* \"#utility.yul\":11614:11676   */\n      mstore\n      shl(0xe8, 0x657373)\n        /* \"#utility.yul\":11692:11710   */\n      0x64\n      dup3\n      add\n        /* \"#utility.yul\":11685:11718   */\n      mstore\n        /* \"#utility.yul\":11735:11754   */\n      0x84\n      add\n        /* \"contracts/SOlar.sol\":36534:36605  require(recipient != address(0), \"ERC20: transfer to the zero address\") */\n      tag_287\n        /* \"#utility.yul\":11361:11760   */\n      jump\n        /* \"contracts/SOlar.sol\":36534:36605  require(recipient != address(0), \"ERC20: transfer to the zero address\") */\n    tag_487:\n        /* \"contracts/SOlar.sol\":36637:36638  0 */\n      0x00\n        /* \"contracts/SOlar.sol\":36628:36634  amount */\n      dup2\n        /* \"contracts/SOlar.sol\":36628:36638  amount > 0 */\n      gt\n        /* \"contracts/SOlar.sol\":36620:36684  require(amount > 0, \"Transfer amount must be greater than zero\") */\n      tag_490\n      jumpi\n      mload(0x40)\n      shl(0xe5, 0x461bcd)\n      dup2\n      mstore\n        /* \"#utility.yul\":11967:11969   */\n      0x20\n        /* \"contracts/SOlar.sol\":36620:36684  require(amount > 0, \"Transfer amount must be greater than zero\") */\n      0x04\n      dup3\n      add\n        /* \"#utility.yul\":11949:11970   */\n      mstore\n        /* \"#utility.yul\":12006:12008   */\n      0x29\n        /* \"#utility.yul\":11986:12004   */\n      0x24\n      dup3\n      add\n        /* \"#utility.yul\":11979:12009   */\n      mstore\n        /* \"#utility.yul\":12045:12079   */\n      0x5472616e7366657220616d6f756e74206d757374206265206772656174657220\n        /* \"#utility.yul\":12025:12043   */\n      0x44\n      dup3\n      add\n        /* \"#utility.yul\":12018:12080   */\n      mstore\n      shl(0xb8, 0x7468616e207a65726f)\n        /* \"#utility.yul\":12096:12114   */\n      0x64\n      dup3\n      add\n        /* \"#utility.yul\":12089:12128   */\n      mstore\n        /* \"#utility.yul\":12145:12164   */\n      0x84\n      add\n        /* \"contracts/SOlar.sol\":36620:36684  require(amount > 0, \"Transfer amount must be greater than zero\") */\n      tag_287\n        /* \"#utility.yul\":11765:12170   */\n      jump\n        /* \"contracts/SOlar.sol\":36620:36684  require(amount > 0, \"Transfer amount must be greater than zero\") */\n    tag_490:\n        /* \"contracts/SOlar.sol\":15694:15701  address */\n      0x00\n        /* \"contracts/SOlar.sol\":15725:15731  _owner */\n      sload\n      sub(shl(0xa0, 0x01), 0x01)\n        /* \"contracts/SOlar.sol\":36716:36733  sender != owner() */\n      dup5\n      dup2\n      and\n        /* \"contracts/SOlar.sol\":15725:15731  _owner */\n      swap2\n      and\n        /* \"contracts/SOlar.sol\":36716:36733  sender != owner() */\n      eq\n      dup1\n      iszero\n      swap1\n        /* \"contracts/SOlar.sol\":36716:36757  sender != owner() && recipient != owner() */\n      tag_494\n      jumpi\n      pop\n        /* \"contracts/SOlar.sol\":15694:15701  address */\n      0x00\n        /* \"contracts/SOlar.sol\":15725:15731  _owner */\n      sload\n      sub(shl(0xa0, 0x01), 0x01)\n        /* \"contracts/SOlar.sol\":36737:36757  recipient != owner() */\n      dup4\n      dup2\n      and\n        /* \"contracts/SOlar.sol\":15725:15731  _owner */\n      swap2\n      and\n        /* \"contracts/SOlar.sol\":36737:36757  recipient != owner() */\n      eq\n      iszero\n        /* \"contracts/SOlar.sol\":36716:36757  sender != owner() && recipient != owner() */\n    tag_494:\n        /* \"contracts/SOlar.sol\":36713:36851  if(sender != owner() && recipient != owner())... */\n      iszero\n      tag_497\n      jumpi\n        /* \"contracts/SOlar.sol\":36794:36806  _maxTxAmount */\n      sload(0x20)\n        /* \"contracts/SOlar.sol\":36784:36790  amount */\n      dup2\n        /* \"contracts/SOlar.sol\":36784:36806  amount <= _maxTxAmount */\n      gt\n      iszero\n        /* \"contracts/SOlar.sol\":36776:36851  require(amount <= _maxTxAmount, \"Transfer amount exceeds the maxTxAmount.\") */\n      tag_497\n      jumpi\n      mload(0x40)\n      shl(0xe5, 0x461bcd)\n      dup2\n      mstore\n        /* \"#utility.yul\":12377:12379   */\n      0x20\n        /* \"contracts/SOlar.sol\":36776:36851  require(amount <= _maxTxAmount, \"Transfer amount exceeds the maxTxAmount.\") */\n      0x04\n      dup3\n      add\n        /* \"#utility.yul\":12359:12380   */\n      mstore\n        /* \"#utility.yul\":12416:12418   */\n      0x28\n        /* \"#utility.yul\":12396:12414   */\n      0x24\n      dup3\n      add\n        /* \"#utility.yul\":12389:12419   */\n      mstore\n        /* \"#utility.yul\":12455:12489   */\n      0x5472616e7366657220616d6f756e74206578636565647320746865206d617854\n        /* \"#utility.yul\":12435:12453   */\n      0x44\n      dup3\n      add\n        /* \"#utility.yul\":12428:12490   */\n      mstore\n      shl(0xc1, 0x3c20b6b7bab73a17)\n        /* \"#utility.yul\":12506:12524   */\n      0x64\n      dup3\n      add\n        /* \"#utility.yul\":12499:12537   */\n      mstore\n        /* \"#utility.yul\":12554:12573   */\n      0x84\n      add\n        /* \"contracts/SOlar.sol\":36776:36851  require(amount <= _maxTxAmount, \"Transfer amount exceeds the maxTxAmount.\") */\n      tag_287\n        /* \"#utility.yul\":12175:12579   */\n      jump\n        /* \"contracts/SOlar.sol\":36776:36851  require(amount <= _maxTxAmount, \"Transfer amount exceeds the maxTxAmount.\") */\n    tag_497:\n      sub(shl(0xa0, 0x01), 0x01)\n        /* \"contracts/SOlar.sol\":36872:36898  _isExcludedFromFee[sender] */\n      dup4\n      and\n      0x00\n      swap1\n      dup2\n      mstore\n        /* \"contracts/SOlar.sol\":36872:36890  _isExcludedFromFee */\n      0x06\n        /* \"contracts/SOlar.sol\":36872:36898  _isExcludedFromFee[sender] */\n      0x20\n      mstore\n      0x40\n      swap1\n      keccak256\n      sload\n      0xff\n      and\n        /* \"contracts/SOlar.sol\":36868:37001  if(!_isExcludedFromFee[sender])... */\n      tag_501\n      jumpi\n        /* \"contracts/SOlar.sol\":36940:36954  tradingEnabled */\n      sload(0x0e)\n      0x0100\n      swap1\n      div\n      0xff\n      and\n        /* \"contracts/SOlar.sol\":36932:36985  require(tradingEnabled, \"Trading is not enabled yet\") */\n      tag_501\n      jumpi\n      mload(0x40)\n      shl(0xe5, 0x461bcd)\n      dup2\n      mstore\n        /* \"#utility.yul\":12786:12788   */\n      0x20\n        /* \"contracts/SOlar.sol\":36932:36985  require(tradingEnabled, \"Trading is not enabled yet\") */\n      0x04\n      dup3\n      add\n        /* \"#utility.yul\":12768:12789   */\n      mstore\n        /* \"#utility.yul\":12825:12827   */\n      0x1a\n        /* \"#utility.yul\":12805:12823   */\n      0x24\n      dup3\n      add\n        /* \"#utility.yul\":12798:12828   */\n      mstore\n        /* \"#utility.yul\":12864:12892   */\n      0x54726164696e67206973206e6f7420656e61626c656420796574000000000000\n        /* \"#utility.yul\":12844:12862   */\n      0x44\n      dup3\n      add\n        /* \"#utility.yul\":12837:12893   */\n      mstore\n        /* \"#utility.yul\":12910:12928   */\n      0x64\n      add\n        /* \"contracts/SOlar.sol\":36932:36985  require(tradingEnabled, \"Trading is not enabled yet\") */\n      tag_287\n        /* \"#utility.yul\":12584:12934   */\n      jump\n        /* \"contracts/SOlar.sol\":36932:36985  require(tradingEnabled, \"Trading is not enabled yet\") */\n    tag_501:\n        /* \"contracts/SOlar.sol\":37286:37314  uint256 contractTokenBalance */\n      0x00\n        /* \"contracts/SOlar.sol\":37317:37341  balanceOf(address(this)) */\n      tag_504\n        /* \"contracts/SOlar.sol\":37335:37339  this */\n      address\n        /* \"contracts/SOlar.sol\":37317:37326  balanceOf */\n      tag_163\n        /* \"contracts/SOlar.sol\":37317:37341  balanceOf(address(this)) */\n      jump\t// in\n    tag_504:\n        /* \"contracts/SOlar.sol\":37286:37341  uint256 contractTokenBalance = balanceOf(address(this)) */\n      swap1\n      pop\n        /* \"contracts/SOlar.sol\":37397:37409  _maxTxAmount */\n      sload(0x20)\n        /* \"contracts/SOlar.sol\":37373:37393  contractTokenBalance */\n      dup2\n        /* \"contracts/SOlar.sol\":37373:37409  contractTokenBalance >= _maxTxAmount */\n      lt\n        /* \"contracts/SOlar.sol\":37370:37494  if(contractTokenBalance >= _maxTxAmount)... */\n      tag_505\n      jumpi\n      pop\n        /* \"contracts/SOlar.sol\":37466:37478  _maxTxAmount */\n      sload(0x20)\n        /* \"contracts/SOlar.sol\":37370:37494  if(contractTokenBalance >= _maxTxAmount)... */\n    tag_505:\n        /* \"contracts/SOlar.sol\":37573:37595  _numOfTokensToExchange */\n      sload(0x21)\n        /* \"contracts/SOlar.sol\":37615:37621  inSwap */\n      sload(0x1f)\n        /* \"contracts/SOlar.sol\":37549:37595  contractTokenBalance >= _numOfTokensToExchange */\n      swap1\n      dup3\n      lt\n      iszero\n      swap1\n      shl(0xa0, 0x01)\n        /* \"contracts/SOlar.sol\":37615:37621  inSwap */\n      swap1\n      div\n      0xff\n      and\n        /* \"contracts/SOlar.sol\":37614:37621  !inSwap */\n      iszero\n        /* \"contracts/SOlar.sol\":37614:37636  !inSwap && swapEnabled */\n      dup1\n      iszero\n      tag_506\n      jumpi\n      pop\n        /* \"contracts/SOlar.sol\":37625:37636  swapEnabled */\n      sload(0x1f)\n      shl(0xa8, 0x01)\n      swap1\n      div\n      0xff\n      and\n        /* \"contracts/SOlar.sol\":37614:37636  !inSwap && swapEnabled */\n    tag_506:\n        /* \"contracts/SOlar.sol\":37614:37659  !inSwap && swapEnabled && overMinTokenBalance */\n      dup1\n      iszero\n      tag_507\n      jumpi\n      pop\n        /* \"contracts/SOlar.sol\":37640:37659  overMinTokenBalance */\n      dup1\n        /* \"contracts/SOlar.sol\":37614:37659  !inSwap && swapEnabled && overMinTokenBalance */\n    tag_507:\n        /* \"contracts/SOlar.sol\":37614:37686  !inSwap && swapEnabled && overMinTokenBalance && sender != uniswapV2Pair */\n      dup1\n      iszero\n      tag_508\n      jumpi\n      pop\n        /* \"contracts/SOlar.sol\":37673:37686  uniswapV2Pair */\n      sload(0x1f)\n      sub(shl(0xa0, 0x01), 0x01)\n        /* \"contracts/SOlar.sol\":37663:37686  sender != uniswapV2Pair */\n      dup7\n      dup2\n      and\n        /* \"contracts/SOlar.sol\":37673:37686  uniswapV2Pair */\n      swap2\n      and\n        /* \"contracts/SOlar.sol\":37663:37686  sender != uniswapV2Pair */\n      eq\n      iszero\n        /* \"contracts/SOlar.sol\":37614:37686  !inSwap && swapEnabled && overMinTokenBalance && sender != uniswapV2Pair */\n    tag_508:\n        /* \"contracts/SOlar.sol\":37610:38057  if (!inSwap && swapEnabled && overMinTokenBalance && sender != uniswapV2Pair) {... */\n      iszero\n      tag_509\n      jumpi\n        /* \"contracts/SOlar.sol\":37789:37827  swapTokensForEth(contractTokenBalance) */\n      tag_510\n        /* \"contracts/SOlar.sol\":37806:37826  contractTokenBalance */\n      dup3\n        /* \"contracts/SOlar.sol\":37789:37805  swapTokensForEth */\n      tag_342\n        /* \"contracts/SOlar.sol\":37789:37827  swapTokensForEth(contractTokenBalance) */\n      jump\t// in\n    tag_510:\n        /* \"contracts/SOlar.sol\":37893:37914  address(this).balance */\n      selfbalance\n        /* \"contracts/SOlar.sol\":37936:37958  contractETHBalance > 0 */\n      dup1\n      iszero\n        /* \"contracts/SOlar.sol\":37933:38042  if(contractETHBalance > 0) {... */\n      tag_512\n      jumpi\n        /* \"contracts/SOlar.sol\":37983:38022  sendETHToWallets(address(this).balance) */\n      tag_512\n        /* \"contracts/SOlar.sol\":38000:38021  address(this).balance */\n      selfbalance\n        /* \"contracts/SOlar.sol\":37983:37999  sendETHToWallets */\n      tag_513\n        /* \"contracts/SOlar.sol\":37983:38022  sendETHToWallets(address(this).balance) */\n      jump\t// in\n    tag_512:\n        /* \"contracts/SOlar.sol\":37688:38057  {... */\n      pop\n        /* \"contracts/SOlar.sol\":37610:38057  if (!inSwap && swapEnabled && overMinTokenBalance && sender != uniswapV2Pair) {... */\n    tag_509:\n      sub(shl(0xa0, 0x01), 0x01)\n        /* \"contracts/SOlar.sol\":38289:38315  _isExcludedFromFee[sender] */\n      dup6\n      and\n        /* \"contracts/SOlar.sol\":38150:38162  bool takeFee */\n      0x00\n        /* \"contracts/SOlar.sol\":38289:38315  _isExcludedFromFee[sender] */\n      swap1\n      dup2\n      mstore\n        /* \"contracts/SOlar.sol\":38289:38307  _isExcludedFromFee */\n      0x06\n        /* \"contracts/SOlar.sol\":38289:38315  _isExcludedFromFee[sender] */\n      0x20\n      mstore\n      0x40\n      swap1\n      keccak256\n      sload\n        /* \"contracts/SOlar.sol\":38165:38169  true */\n      0x01\n      swap1\n        /* \"contracts/SOlar.sol\":38289:38315  _isExcludedFromFee[sender] */\n      0xff\n      and\n      dup1\n        /* \"contracts/SOlar.sol\":38289:38348  _isExcludedFromFee[sender] || _isExcludedFromFee[recipient] */\n      tag_514\n      jumpi\n      pop\n      sub(shl(0xa0, 0x01), 0x01)\n        /* \"contracts/SOlar.sol\":38319:38348  _isExcludedFromFee[recipient] */\n      dup6\n      and\n      0x00\n      swap1\n      dup2\n      mstore\n        /* \"contracts/SOlar.sol\":38319:38337  _isExcludedFromFee */\n      0x06\n        /* \"contracts/SOlar.sol\":38319:38348  _isExcludedFromFee[recipient] */\n      0x20\n      mstore\n      0x40\n      swap1\n      keccak256\n      sload\n      0xff\n      and\n        /* \"contracts/SOlar.sol\":38289:38348  _isExcludedFromFee[sender] || _isExcludedFromFee[recipient] */\n    tag_514:\n        /* \"contracts/SOlar.sol\":38286:38399  if(_isExcludedFromFee[sender] || _isExcludedFromFee[recipient]){... */\n      iszero\n      tag_515\n      jumpi\n      pop\n        /* \"contracts/SOlar.sol\":38378:38383  false */\n      0x00\n        /* \"contracts/SOlar.sol\":38286:38399  if(_isExcludedFromFee[sender] || _isExcludedFromFee[recipient]){... */\n    tag_515:\n        /* \"contracts/SOlar.sol\":38440:38453  uniswapV2Pair */\n      sload(0x1f)\n      sub(shl(0xa0, 0x01), 0x01)\n        /* \"contracts/SOlar.sol\":38430:38453  sender != uniswapV2Pair */\n      dup8\n      dup2\n      and\n        /* \"contracts/SOlar.sol\":38440:38453  uniswapV2Pair */\n      swap2\n      and\n        /* \"contracts/SOlar.sol\":38430:38453  sender != uniswapV2Pair */\n      eq\n      dup1\n      iszero\n      swap1\n        /* \"contracts/SOlar.sol\":38430:38483  sender != uniswapV2Pair && recipient != uniswapV2Pair */\n      tag_516\n      jumpi\n      pop\n        /* \"contracts/SOlar.sol\":38470:38483  uniswapV2Pair */\n      sload(0x1f)\n      sub(shl(0xa0, 0x01), 0x01)\n        /* \"contracts/SOlar.sol\":38457:38483  recipient != uniswapV2Pair */\n      dup7\n      dup2\n      and\n        /* \"contracts/SOlar.sol\":38470:38483  uniswapV2Pair */\n      swap2\n      and\n        /* \"contracts/SOlar.sol\":38457:38483  recipient != uniswapV2Pair */\n      eq\n      iszero\n        /* \"contracts/SOlar.sol\":38430:38483  sender != uniswapV2Pair && recipient != uniswapV2Pair */\n    tag_516:\n        /* \"contracts/SOlar.sol\":38427:38548  if(sender != uniswapV2Pair && recipient != uniswapV2Pair)... */\n      iszero\n      tag_517\n      jumpi\n      pop\n        /* \"contracts/SOlar.sol\":38527:38532  false */\n      0x00\n        /* \"contracts/SOlar.sol\":38427:38548  if(sender != uniswapV2Pair && recipient != uniswapV2Pair)... */\n    tag_517:\n        /* \"contracts/SOlar.sol\":38625:38672  _tokenTransfer(sender,recipient,amount,takeFee) */\n      tag_518\n        /* \"contracts/SOlar.sol\":38640:38646  sender */\n      dup7\n        /* \"contracts/SOlar.sol\":38647:38656  recipient */\n      dup7\n        /* \"contracts/SOlar.sol\":38657:38663  amount */\n      dup7\n        /* \"contracts/SOlar.sol\":38664:38671  takeFee */\n      dup5\n        /* \"contracts/SOlar.sol\":38625:38639  _tokenTransfer */\n      tag_519\n        /* \"contracts/SOlar.sol\":38625:38672  _tokenTransfer(sender,recipient,amount,takeFee) */\n      jump\t// in\n    tag_518:\n        /* \"contracts/SOlar.sol\":36434:38684  {... */\n      pop\n      pop\n      pop\n        /* \"contracts/SOlar.sol\":36356:38684  function _transfer(address sender, address recipient, uint256 amount) private {... */\n      pop\n      pop\n      pop\n      jump\t// out\n        /* \"contracts/SOlar.sol\":4649:4857  function sub(uint256 a, uint256 b, string memory errorMessage) internal pure returns (uint256) {... */\n    tag_300:\n        /* \"contracts/SOlar.sol\":4735:4742  uint256 */\n      0x00\n        /* \"contracts/SOlar.sol\":4775:4787  errorMessage */\n      dup2\n        /* \"contracts/SOlar.sol\":4767:4773  b <= a */\n      dup5\n      dup5\n      gt\n      iszero\n        /* \"contracts/SOlar.sol\":4759:4788  require(b <= a, errorMessage) */\n      tag_521\n      jumpi\n      mload(0x40)\n      shl(0xe5, 0x461bcd)\n      dup2\n      mstore\n      0x04\n      add\n      tag_287\n      swap2\n      swap1\n      tag_63\n      jump\t// in\n    tag_521:\n      pop\n        /* \"contracts/SOlar.sol\":4803:4812  uint256 c */\n      0x00\n        /* \"contracts/SOlar.sol\":4815:4820  a - b */\n      tag_523\n        /* \"contracts/SOlar.sol\":4819:4820  b */\n      dup5\n        /* \"contracts/SOlar.sol\":4815:4816  a */\n      dup7\n        /* \"contracts/SOlar.sol\":4815:4820  a - b */\n      tag_463\n      jump\t// in\n    tag_523:\n        /* \"contracts/SOlar.sol\":4803:4820  uint256 c = a - b */\n      swap6\n        /* \"contracts/SOlar.sol\":4649:4857  function sub(uint256 a, uint256 b, string memory errorMessage) internal pure returns (uint256) {... */\n      swap5\n      pop\n      pop\n      pop\n      pop\n      pop\n      jump\t// out\n        /* \"contracts/SOlar.sol\":45587:45762  function _getRate() private view returns(uint256) {... */\n    tag_306:\n        /* \"contracts/SOlar.sol\":45628:45635  uint256 */\n      0x00\n        /* \"contracts/SOlar.sol\":45653:45668  uint256 rSupply */\n      dup1\n        /* \"contracts/SOlar.sol\":45670:45685  uint256 tSupply */\n      0x00\n        /* \"contracts/SOlar.sol\":45689:45708  _getCurrentSupply() */\n      tag_525\n        /* \"contracts/SOlar.sol\":45689:45706  _getCurrentSupply */\n      tag_526\n        /* \"contracts/SOlar.sol\":45689:45708  _getCurrentSupply() */\n      jump\t// in\n    tag_525:\n        /* \"contracts/SOlar.sol\":45652:45708  (uint256 rSupply, uint256 tSupply) = _getCurrentSupply() */\n      swap1\n      swap3\n      pop\n      swap1\n      pop\n        /* \"contracts/SOlar.sol\":45730:45750  rSupply.div(tSupply) */\n      tag_527\n        /* \"contracts/SOlar.sol\":45652:45708  (uint256 rSupply, uint256 tSupply) = _getCurrentSupply() */\n      dup3\n      dup3\n        /* \"contracts/SOlar.sol\":45730:45741  rSupply.div */\n      tag_308\n        /* \"contracts/SOlar.sol\":45730:45750  rSupply.div(tSupply) */\n      jump\t// in\n    tag_527:\n        /* \"contracts/SOlar.sol\":45723:45750  return rSupply.div(tSupply) */\n      swap3\n      pop\n      pop\n      pop\n        /* \"contracts/SOlar.sol\":45587:45762  function _getRate() private view returns(uint256) {... */\n      swap1\n      jump\t// out\n        /* \"contracts/SOlar.sol\":6179:6319  function div(uint256 a, uint256 b) internal pure returns (uint256) {... */\n    tag_308:\n        /* \"contracts/SOlar.sol\":6237:6244  uint256 */\n      0x00\n        /* \"contracts/SOlar.sol\":6268:6307  div(a, b, \"SafeMath: division by zero\") */\n      tag_307\n        /* \"contracts/SOlar.sol\":6272:6273  a */\n      dup4\n        /* \"contracts/SOlar.sol\":6275:6276  b */\n      dup4\n        /* \"contracts/SOlar.sol\":6268:6307  div(a, b, \"SafeMath: division by zero\") */\n      mload(0x40)\n      dup1\n      0x40\n      add\n      0x40\n      mstore\n      dup1\n      0x1a\n      dup2\n      mstore\n      0x20\n      add\n      0x536166654d6174683a206469766973696f6e206279207a65726f000000000000\n      dup2\n      mstore\n      pop\n        /* \"contracts/SOlar.sol\":6268:6271  div */\n      tag_530\n        /* \"contracts/SOlar.sol\":6268:6307  div(a, b, \"SafeMath: division by zero\") */\n      jump\t// in\n        /* \"contracts/SOlar.sol\":3652:3849  function add(uint256 a, uint256 b) internal pure returns (uint256) {... */\n    tag_315:\n        /* \"contracts/SOlar.sol\":3710:3717  uint256 */\n      0x00\n      dup1\n        /* \"contracts/SOlar.sol\":3746:3751  a + b */\n      tag_532\n        /* \"contracts/SOlar.sol\":3750:3751  b */\n      dup4\n        /* \"contracts/SOlar.sol\":3746:3747  a */\n      dup6\n        /* \"contracts/SOlar.sol\":3746:3751  a + b */\n      tag_402\n      jump\t// in\n    tag_532:\n        /* \"contracts/SOlar.sol\":3734:3751  uint256 c = a + b */\n      swap1\n      pop\n        /* \"contracts/SOlar.sol\":3779:3780  a */\n      dup4\n        /* \"contracts/SOlar.sol\":3774:3775  c */\n      dup2\n        /* \"contracts/SOlar.sol\":3774:3780  c >= a */\n      lt\n      iszero\n        /* \"contracts/SOlar.sol\":3766:3812  require(c >= a, \"SafeMath: addition overflow\") */\n      tag_307\n      jumpi\n      mload(0x40)\n      shl(0xe5, 0x461bcd)\n      dup2\n      mstore\n        /* \"#utility.yul\":13141:13143   */\n      0x20\n        /* \"contracts/SOlar.sol\":3766:3812  require(c >= a, \"SafeMath: addition overflow\") */\n      0x04\n      dup3\n      add\n        /* \"#utility.yul\":13123:13144   */\n      mstore\n        /* \"#utility.yul\":13180:13182   */\n      0x1b\n        /* \"#utility.yul\":13160:13178   */\n      0x24\n      dup3\n      add\n        /* \"#utility.yul\":13153:13183   */\n      mstore\n        /* \"#utility.yul\":13219:13248   */\n      0x536166654d6174683a206164646974696f6e206f766572666c6f770000000000\n        /* \"#utility.yul\":13199:13217   */\n      0x44\n      dup3\n      add\n        /* \"#utility.yul\":13192:13249   */\n      mstore\n        /* \"#utility.yul\":13266:13284   */\n      0x64\n      add\n        /* \"contracts/SOlar.sol\":3766:3812  require(c >= a, \"SafeMath: addition overflow\") */\n      tag_287\n        /* \"#utility.yul\":12939:13290   */\n      jump\n        /* \"contracts/SOlar.sol\":44320:44808  function _getValues(uint256 tAmount) private view returns (uint256, uint256, uint256, uint256, uint256, uint256) {... */\n    tag_322:\n        /* \"contracts/SOlar.sol\":44379:44386  uint256 */\n      0x00\n        /* \"contracts/SOlar.sol\":44388:44395  uint256 */\n      dup1\n        /* \"contracts/SOlar.sol\":44397:44404  uint256 */\n      0x00\n        /* \"contracts/SOlar.sol\":44406:44413  uint256 */\n      dup1\n        /* \"contracts/SOlar.sol\":44415:44422  uint256 */\n      0x00\n        /* \"contracts/SOlar.sol\":44424:44431  uint256 */\n      dup1\n        /* \"contracts/SOlar.sol\":44449:44472  uint256 tTransferAmount */\n      0x00\n        /* \"contracts/SOlar.sol\":44474:44486  uint256 tFee */\n      dup1\n        /* \"contracts/SOlar.sol\":44488:44505  uint256 tTotalFee */\n      0x00\n        /* \"contracts/SOlar.sol\":44509:44547  _getTValues(tAmount, taxFee, totalFee) */\n      tag_537\n        /* \"contracts/SOlar.sol\":44521:44528  tAmount */\n      dup11\n        /* \"contracts/SOlar.sol\":44530:44536  taxFee */\n      sload(0x0f)\n        /* \"contracts/SOlar.sol\":44538:44546  totalFee */\n      sload(0x14)\n        /* \"contracts/SOlar.sol\":44509:44520  _getTValues */\n      tag_538\n        /* \"contracts/SOlar.sol\":44509:44547  _getTValues(tAmount, taxFee, totalFee) */\n      jump\t// in\n    tag_537:\n        /* \"contracts/SOlar.sol\":44448:44547  (uint256 tTransferAmount, uint256 tFee, uint256 tTotalFee) = _getTValues(tAmount, taxFee, totalFee) */\n      swap3\n      pop\n      swap3\n      pop\n      swap3\n      pop\n        /* \"contracts/SOlar.sol\":44562:44581  uint256 currentRate */\n      0x00\n        /* \"contracts/SOlar.sol\":44585:44595  _getRate() */\n      tag_539\n        /* \"contracts/SOlar.sol\":44585:44593  _getRate */\n      tag_306\n        /* \"contracts/SOlar.sol\":44585:44595  _getRate() */\n      jump\t// in\n    tag_539:\n        /* \"contracts/SOlar.sol\":44562:44595  uint256 currentRate =  _getRate() */\n      swap1\n      pop\n        /* \"contracts/SOlar.sol\":44611:44626  uint256 rAmount */\n      0x00\n        /* \"contracts/SOlar.sol\":44628:44651  uint256 rTransferAmount */\n      dup1\n        /* \"contracts/SOlar.sol\":44653:44665  uint256 rFee */\n      0x00\n        /* \"contracts/SOlar.sol\":44669:44708  _getRValues(tAmount, tFee, currentRate) */\n      tag_540\n        /* \"contracts/SOlar.sol\":44681:44688  tAmount */\n      dup15\n        /* \"contracts/SOlar.sol\":44690:44694  tFee */\n      dup8\n        /* \"contracts/SOlar.sol\":44696:44707  currentRate */\n      dup7\n        /* \"contracts/SOlar.sol\":44669:44680  _getRValues */\n      tag_541\n        /* \"contracts/SOlar.sol\":44669:44708  _getRValues(tAmount, tFee, currentRate) */\n      jump\t// in\n    tag_540:\n        /* \"contracts/SOlar.sol\":44610:44708  (uint256 rAmount, uint256 rTransferAmount, uint256 rFee) = _getRValues(tAmount, tFee, currentRate) */\n      swap2\n      swap15\n      pop\n      swap13\n      pop\n      swap11\n      pop\n        /* \"contracts/SOlar.sol\":44763:44778  tTransferAmount */\n      swap6\n      swap9\n      pop\n        /* \"contracts/SOlar.sol\":44780:44784  tFee */\n      swap4\n      swap7\n      pop\n        /* \"contracts/SOlar.sol\":44786:44795  tTotalFee */\n      swap2\n      swap5\n      pop\n      pop\n      pop\n      pop\n      pop\n        /* \"contracts/SOlar.sol\":44320:44808  function _getValues(uint256 tAmount) private view returns (uint256, uint256, uint256, uint256, uint256, uint256) {... */\n      swap2\n      swap4\n      swap6\n      pop\n      swap2\n      swap4\n      swap6\n      jump\t// out\n        /* \"contracts/SOlar.sol\":4167:4311  function sub(uint256 a, uint256 b) internal pure returns (uint256) {... */\n    tag_324:\n        /* \"contracts/SOlar.sol\":4225:4232  uint256 */\n      0x00\n        /* \"contracts/SOlar.sol\":4256:4299  sub(a, b, \"SafeMath: subtraction overflow\") */\n      tag_307\n        /* \"contracts/SOlar.sol\":4260:4261  a */\n      dup4\n        /* \"contracts/SOlar.sol\":4263:4264  b */\n      dup4\n        /* \"contracts/SOlar.sol\":4256:4299  sub(a, b, \"SafeMath: subtraction overflow\") */\n      mload(0x40)\n      dup1\n      0x40\n      add\n      0x40\n      mstore\n      dup1\n      0x1e\n      dup2\n      mstore\n      0x20\n      add\n      0x536166654d6174683a207375627472616374696f6e206f766572666c6f770000\n      dup2\n      mstore\n      pop\n        /* \"contracts/SOlar.sol\":4256:4259  sub */\n      tag_300\n        /* \"contracts/SOlar.sol\":4256:4299  sub(a, b, \"SafeMath: subtraction overflow\") */\n      jump\t// in\n        /* \"contracts/SOlar.sol\":38845:39501  function swapTokensForEth(uint256 tokenAmount) private lockTheSwap{... */\n    tag_342:\n        /* \"contracts/SOlar.sol\":28970:28976  inSwap */\n      0x1f\n        /* \"contracts/SOlar.sol\":28970:28983  inSwap = true */\n      dup1\n      sload\n      not(shl(0xa0, 0xff))\n      and\n      shl(0xa0, 0x01)\n      or\n      swap1\n      sstore\n        /* \"contracts/SOlar.sol\":39014:39030  new address[](2) */\n      0x40\n      dup1\n      mload\n        /* \"contracts/SOlar.sol\":39028:39029  2 */\n      0x02\n        /* \"contracts/SOlar.sol\":39014:39030  new address[](2) */\n      dup1\n      dup3\n      mstore\n      0x60\n      dup3\n      add\n      dup4\n      mstore\n      0x00\n      swap3\n      0x20\n      dup4\n      add\n      swap1\n      dup1\n      calldatasize\n      dup4\n      calldatacopy\n      add\n      swap1\n      pop\n      pop\n        /* \"contracts/SOlar.sol\":38990:39030  address[] memory path = new address[](2) */\n      swap1\n      pop\n        /* \"contracts/SOlar.sol\":39063:39067  this */\n      address\n        /* \"contracts/SOlar.sol\":39045:39049  path */\n      dup2\n        /* \"contracts/SOlar.sol\":39050:39051  0 */\n      0x00\n        /* \"contracts/SOlar.sol\":39045:39052  path[0] */\n      dup2\n      mload\n      dup2\n      lt\n      tag_551\n      jumpi\n      tag_551\n      tag_459\n      jump\t// in\n    tag_551:\n      sub(shl(0xa0, 0x01), 0x01)\n        /* \"contracts/SOlar.sol\":39045:39068  path[0] = address(this) */\n      swap3\n      dup4\n      and\n        /* \"contracts/SOlar.sol\":39045:39052  path[0] */\n      0x20\n      swap2\n      dup3\n      mul\n      swap3\n      swap1\n      swap3\n      add\n      dup2\n      add\n        /* \"contracts/SOlar.sol\":39045:39068  path[0] = address(this) */\n      swap2\n      swap1\n      swap2\n      mstore\n        /* \"contracts/SOlar.sol\":39093:39108  uniswapV2Router */\n      sload(0x1e)\n        /* \"contracts/SOlar.sol\":39093:39115  uniswapV2Router.WETH() */\n      0x40\n      dup1\n      mload\n      shl(0xe3, 0x15ab88c9)\n      dup2\n      mstore\n      swap1\n      mload\n        /* \"contracts/SOlar.sol\":39093:39108  uniswapV2Router */\n      swap2\n      swap1\n      swap4\n      and\n      swap3\n        /* \"contracts/SOlar.sol\":39093:39113  uniswapV2Router.WETH */\n      0xad5c4648\n      swap3\n        /* \"contracts/SOlar.sol\":39093:39115  uniswapV2Router.WETH() */\n      0x04\n      dup1\n      dup4\n      add\n      swap4\n        /* \"contracts/SOlar.sol\":39045:39052  path[0] */\n      swap2\n      swap3\n        /* \"contracts/SOlar.sol\":39093:39115  uniswapV2Router.WETH() */\n      dup3\n      swap1\n      sub\n      add\n      dup2\n        /* \"contracts/SOlar.sol\":39093:39108  uniswapV2Router */\n      dup7\n        /* \"contracts/SOlar.sol\":39093:39115  uniswapV2Router.WETH() */\n      gas\n      staticcall\n      iszero\n      dup1\n      iszero\n      tag_553\n      jumpi\n      returndatasize\n      0x00\n      dup1\n      returndatacopy\n      revert(0x00, returndatasize)\n    tag_553:\n      pop\n      pop\n      pop\n      pop\n      mload(0x40)\n      returndatasize\n      not(0x1f)\n      0x1f\n      dup3\n      add\n      and\n      dup3\n      add\n      dup1\n      0x40\n      mstore\n      pop\n      dup2\n      add\n      swap1\n      tag_554\n      swap2\n      swap1\n      tag_555\n      jump\t// in\n    tag_554:\n        /* \"contracts/SOlar.sol\":39083:39087  path */\n      dup2\n        /* \"contracts/SOlar.sol\":39088:39089  1 */\n      0x01\n        /* \"contracts/SOlar.sol\":39083:39090  path[1] */\n      dup2\n      mload\n      dup2\n      lt\n      tag_557\n      jumpi\n      tag_557\n      tag_459\n      jump\t// in\n    tag_557:\n      sub(shl(0xa0, 0x01), 0x01)\n        /* \"contracts/SOlar.sol\":39083:39115  path[1] = uniswapV2Router.WETH() */\n      swap3\n      dup4\n      and\n        /* \"contracts/SOlar.sol\":39083:39090  path[1] */\n      0x20\n      swap2\n      dup3\n      mul\n      swap3\n      swap1\n      swap3\n      add\n      add\n        /* \"contracts/SOlar.sol\":39083:39115  path[1] = uniswapV2Router.WETH() */\n      mstore\n        /* \"contracts/SOlar.sol\":39164:39179  uniswapV2Router */\n      sload(0x1e)\n        /* \"contracts/SOlar.sol\":39132:39194  _approve(address(this), address(uniswapV2Router), tokenAmount) */\n      tag_558\n      swap2\n        /* \"contracts/SOlar.sol\":39149:39153  this */\n      address\n      swap2\n        /* \"contracts/SOlar.sol\":39164:39179  uniswapV2Router */\n      and\n        /* \"contracts/SOlar.sol\":39182:39193  tokenAmount */\n      dup5\n        /* \"contracts/SOlar.sol\":39132:39140  _approve */\n      tag_281\n        /* \"contracts/SOlar.sol\":39132:39194  _approve(address(this), address(uniswapV2Router), tokenAmount) */\n      jump\t// in\n    tag_558:\n        /* \"contracts/SOlar.sol\":39241:39256  uniswapV2Router */\n      sload(0x1e)\n        /* \"contracts/SOlar.sol\":39241:39489  uniswapV2Router.swapExactTokensForETHSupportingFeeOnTransferTokens(... */\n      mload(0x40)\n      shl(0xe0, 0x791ac947)\n      dup2\n      mstore\n      sub(shl(0xa0, 0x01), 0x01)\n        /* \"contracts/SOlar.sol\":39241:39256  uniswapV2Router */\n      swap1\n      swap2\n      and\n      swap1\n        /* \"contracts/SOlar.sol\":39241:39307  uniswapV2Router.swapExactTokensForETHSupportingFeeOnTransferTokens */\n      0x791ac947\n      swap1\n        /* \"contracts/SOlar.sol\":39241:39489  uniswapV2Router.swapExactTokensForETHSupportingFeeOnTransferTokens(... */\n      tag_559\n      swap1\n        /* \"contracts/SOlar.sol\":39326:39337  tokenAmount */\n      dup6\n      swap1\n        /* \"contracts/SOlar.sol\":39241:39256  uniswapV2Router */\n      0x00\n      swap1\n        /* \"contracts/SOlar.sol\":39404:39408  path */\n      dup7\n      swap1\n        /* \"contracts/SOlar.sol\":39435:39439  this */\n      address\n      swap1\n        /* \"contracts/SOlar.sol\":39459:39474  block.timestamp */\n      timestamp\n      swap1\n        /* \"contracts/SOlar.sol\":39241:39489  uniswapV2Router.swapExactTokensForETHSupportingFeeOnTransferTokens(... */\n      0x04\n      add\n      tag_560\n      jump\t// in\n    tag_559:\n      0x00\n      mload(0x40)\n      dup1\n      dup4\n      sub\n      dup2\n      0x00\n      dup8\n      dup1\n      extcodesize\n      iszero\n      dup1\n      iszero\n      tag_561\n      jumpi\n      0x00\n      dup1\n      revert\n    tag_561:\n      pop\n      gas\n      call\n      iszero\n      dup1\n      iszero\n      tag_563\n      jumpi\n      returndatasize\n      0x00\n      dup1\n      returndatacopy\n      revert(0x00, returndatasize)\n    tag_563:\n      pop\n      pop\n        /* \"contracts/SOlar.sol\":29014:29020  inSwap */\n      0x1f\n        /* \"contracts/SOlar.sol\":29014:29028  inSwap = false */\n      dup1\n      sload\n      not(shl(0xa0, 0xff))\n      and\n      swap1\n      sstore\n      pop\n      pop\n      pop\n      pop\n        /* \"contracts/SOlar.sol\":38845:39501  function swapTokensForEth(uint256 tokenAmount) private lockTheSwap{... */\n      jump\t// out\n        /* \"contracts/SOlar.sol\":39521:39875  function sendETHToWallets(uint256 amount) private {... */\n    tag_513:\n        /* \"contracts/SOlar.sol\":39586:39612  uint256 amountToDistribute */\n      0x00\n        /* \"contracts/SOlar.sol\":39615:39625  amount / 4 */\n      tag_565\n        /* \"contracts/SOlar.sol\":39624:39625  4 */\n      0x04\n        /* \"contracts/SOlar.sol\":39615:39621  amount */\n      dup4\n        /* \"contracts/SOlar.sol\":39615:39625  amount / 4 */\n      tag_566\n      jump\t// in\n    tag_565:\n        /* \"contracts/SOlar.sol\":39640:39654  charityAddress */\n      sload(0x1a)\n        /* \"contracts/SOlar.sol\":39640:39683  charityAddress.transfer(amountToDistribute) */\n      mload(0x40)\n        /* \"contracts/SOlar.sol\":39586:39625  uint256 amountToDistribute = amount / 4 */\n      swap2\n      swap3\n      pop\n      sub(shl(0xa0, 0x01), 0x01)\n        /* \"contracts/SOlar.sol\":39640:39654  charityAddress */\n      and\n      swap1\n        /* \"contracts/SOlar.sol\":39640:39683  charityAddress.transfer(amountToDistribute) */\n      dup3\n      iszero\n      0x08fc\n      mul\n      swap1\n        /* \"contracts/SOlar.sol\":39586:39625  uint256 amountToDistribute = amount / 4 */\n      dup4\n      swap1\n        /* \"contracts/SOlar.sol\":39640:39654  charityAddress */\n      0x00\n        /* \"contracts/SOlar.sol\":39640:39683  charityAddress.transfer(amountToDistribute) */\n      dup2\n        /* \"contracts/SOlar.sol\":39640:39654  charityAddress */\n      dup2\n        /* \"contracts/SOlar.sol\":39640:39683  charityAddress.transfer(amountToDistribute) */\n      dup2\n        /* \"contracts/SOlar.sol\":39586:39625  uint256 amountToDistribute = amount / 4 */\n      dup6\n        /* \"contracts/SOlar.sol\":39640:39654  charityAddress */\n      dup9\n        /* \"contracts/SOlar.sol\":39640:39683  charityAddress.transfer(amountToDistribute) */\n      dup9\n      call\n      swap4\n      pop\n      pop\n      pop\n      pop\n      iszero\n      dup1\n      iszero\n      tag_568\n      jumpi\n      returndatasize\n      0x00\n      dup1\n      returndatacopy\n      revert(0x00, returndatasize)\n    tag_568:\n      pop\n        /* \"contracts/SOlar.sol\":39698:39714  marketingAddress */\n      sload(0x1b)\n        /* \"contracts/SOlar.sol\":39698:39743  marketingAddress.transfer(amountToDistribute) */\n      mload(0x40)\n      sub(shl(0xa0, 0x01), 0x01)\n        /* \"contracts/SOlar.sol\":39698:39714  marketingAddress */\n      swap1\n      swap2\n      and\n      swap1\n        /* \"contracts/SOlar.sol\":39698:39743  marketingAddress.transfer(amountToDistribute) */\n      dup3\n      iszero\n      0x08fc\n      mul\n      swap1\n        /* \"contracts/SOlar.sol\":39724:39742  amountToDistribute */\n      dup4\n      swap1\n        /* \"contracts/SOlar.sol\":39698:39714  marketingAddress */\n      0x00\n        /* \"contracts/SOlar.sol\":39698:39743  marketingAddress.transfer(amountToDistribute) */\n      dup2\n        /* \"contracts/SOlar.sol\":39698:39714  marketingAddress */\n      dup2\n        /* \"contracts/SOlar.sol\":39698:39743  marketingAddress.transfer(amountToDistribute) */\n      dup2\n        /* \"contracts/SOlar.sol\":39724:39742  amountToDistribute */\n      dup6\n        /* \"contracts/SOlar.sol\":39698:39714  marketingAddress */\n      dup9\n        /* \"contracts/SOlar.sol\":39698:39743  marketingAddress.transfer(amountToDistribute) */\n      dup9\n      call\n      swap4\n      pop\n      pop\n      pop\n      pop\n      iszero\n      dup1\n      iszero\n      tag_570\n      jumpi\n      returndatasize\n      0x00\n      dup1\n      returndatacopy\n      revert(0x00, returndatasize)\n    tag_570:\n      pop\n        /* \"contracts/SOlar.sol\":39758:39776  developmentAddress */\n      sload(0x1c)\n        /* \"contracts/SOlar.sol\":39758:39805  developmentAddress.transfer(amountToDistribute) */\n      mload(0x40)\n      sub(shl(0xa0, 0x01), 0x01)\n        /* \"contracts/SOlar.sol\":39758:39776  developmentAddress */\n      swap1\n      swap2\n      and\n      swap1\n        /* \"contracts/SOlar.sol\":39758:39805  developmentAddress.transfer(amountToDistribute) */\n      dup3\n      iszero\n      0x08fc\n      mul\n      swap1\n        /* \"contracts/SOlar.sol\":39786:39804  amountToDistribute */\n      dup4\n      swap1\n        /* \"contracts/SOlar.sol\":39758:39776  developmentAddress */\n      0x00\n        /* \"contracts/SOlar.sol\":39758:39805  developmentAddress.transfer(amountToDistribute) */\n      dup2\n        /* \"contracts/SOlar.sol\":39758:39776  developmentAddress */\n      dup2\n        /* \"contracts/SOlar.sol\":39758:39805  developmentAddress.transfer(amountToDistribute) */\n      dup2\n        /* \"contracts/SOlar.sol\":39786:39804  amountToDistribute */\n      dup6\n        /* \"contracts/SOlar.sol\":39758:39776  developmentAddress */\n      dup9\n        /* \"contracts/SOlar.sol\":39758:39805  developmentAddress.transfer(amountToDistribute) */\n      dup9\n      call\n      swap4\n      pop\n      pop\n      pop\n      pop\n      iszero\n      dup1\n      iszero\n      tag_572\n      jumpi\n      returndatasize\n      0x00\n      dup1\n      returndatacopy\n      revert(0x00, returndatasize)\n    tag_572:\n      pop\n        /* \"contracts/SOlar.sol\":39820:39834  buybackAddress */\n      sload(0x1d)\n        /* \"contracts/SOlar.sol\":39820:39863  buybackAddress.transfer(amountToDistribute) */\n      mload(0x40)\n      sub(shl(0xa0, 0x01), 0x01)\n        /* \"contracts/SOlar.sol\":39820:39834  buybackAddress */\n      swap1\n      swap2\n      and\n      swap1\n        /* \"contracts/SOlar.sol\":39820:39863  buybackAddress.transfer(amountToDistribute) */\n      dup3\n      iszero\n      0x08fc\n      mul\n      swap1\n        /* \"contracts/SOlar.sol\":39844:39862  amountToDistribute */\n      dup4\n      swap1\n        /* \"contracts/SOlar.sol\":39820:39834  buybackAddress */\n      0x00\n        /* \"contracts/SOlar.sol\":39820:39863  buybackAddress.transfer(amountToDistribute) */\n      dup2\n        /* \"contracts/SOlar.sol\":39820:39834  buybackAddress */\n      dup2\n        /* \"contracts/SOlar.sol\":39820:39863  buybackAddress.transfer(amountToDistribute) */\n      dup2\n        /* \"contracts/SOlar.sol\":39844:39862  amountToDistribute */\n      dup6\n        /* \"contracts/SOlar.sol\":39820:39834  buybackAddress */\n      dup9\n        /* \"contracts/SOlar.sol\":39820:39863  buybackAddress.transfer(amountToDistribute) */\n      dup9\n      call\n      swap4\n      pop\n      pop\n      pop\n      pop\n      iszero\n      dup1\n      iszero\n      tag_574\n      jumpi\n      returndatasize\n      0x00\n      dup1\n      returndatacopy\n      revert(0x00, returndatasize)\n    tag_574:\n      pop\n        /* \"contracts/SOlar.sol\":39571:39875  {... */\n      pop\n        /* \"contracts/SOlar.sol\":39521:39875  function sendETHToWallets(uint256 amount) private {... */\n      pop\n      jump\t// out\n        /* \"contracts/SOlar.sol\":40296:41179  function _tokenTransfer(address sender, address recipient, uint256 amount, bool takeFee) private {... */\n    tag_519:\n        /* \"contracts/SOlar.sol\":40412:40419  takeFee */\n      dup1\n        /* \"contracts/SOlar.sol\":40408:40452  if(!takeFee)... */\n      tag_577\n      jumpi\n        /* \"contracts/SOlar.sol\":40438:40452  removeAllFee() */\n      tag_577\n        /* \"contracts/SOlar.sol\":40438:40450  removeAllFee */\n      tag_578\n        /* \"contracts/SOlar.sol\":40438:40452  removeAllFee() */\n      jump\t// in\n    tag_577:\n      sub(shl(0xa0, 0x01), 0x01)\n        /* \"contracts/SOlar.sol\":40473:40492  _isExcluded[sender] */\n      dup5\n      and\n      0x00\n      swap1\n      dup2\n      mstore\n        /* \"contracts/SOlar.sol\":40473:40484  _isExcluded */\n      0x07\n        /* \"contracts/SOlar.sol\":40473:40492  _isExcluded[sender] */\n      0x20\n      mstore\n      0x40\n      swap1\n      keccak256\n      sload\n      0xff\n      and\n        /* \"contracts/SOlar.sol\":40473:40519  _isExcluded[sender] && !_isExcluded[recipient] */\n      dup1\n      iszero\n      tag_579\n      jumpi\n      pop\n      sub(shl(0xa0, 0x01), 0x01)\n        /* \"contracts/SOlar.sol\":40497:40519  _isExcluded[recipient] */\n      dup4\n      and\n      0x00\n      swap1\n      dup2\n      mstore\n        /* \"contracts/SOlar.sol\":40497:40508  _isExcluded */\n      0x07\n        /* \"contracts/SOlar.sol\":40497:40519  _isExcluded[recipient] */\n      0x20\n      mstore\n      0x40\n      swap1\n      keccak256\n      sload\n      0xff\n      and\n        /* \"contracts/SOlar.sol\":40496:40519  !_isExcluded[recipient] */\n      iszero\n        /* \"contracts/SOlar.sol\":40473:40519  _isExcluded[sender] && !_isExcluded[recipient] */\n    tag_579:\n        /* \"contracts/SOlar.sol\":40469:41106  if (_isExcluded[sender] && !_isExcluded[recipient]) {... */\n      iszero\n      tag_580\n      jumpi\n        /* \"contracts/SOlar.sol\":40540:40588  _transferFromExcluded(sender, recipient, amount) */\n      tag_581\n        /* \"contracts/SOlar.sol\":40562:40568  sender */\n      dup5\n        /* \"contracts/SOlar.sol\":40570:40579  recipient */\n      dup5\n        /* \"contracts/SOlar.sol\":40581:40587  amount */\n      dup5\n        /* \"contracts/SOlar.sol\":40540:40561  _transferFromExcluded */\n      tag_582\n        /* \"contracts/SOlar.sol\":40540:40588  _transferFromExcluded(sender, recipient, amount) */\n      jump\t// in\n    tag_581:\n        /* \"contracts/SOlar.sol\":40469:41106  if (_isExcluded[sender] && !_isExcluded[recipient]) {... */\n      jump(tag_599)\n    tag_580:\n      sub(shl(0xa0, 0x01), 0x01)\n        /* \"contracts/SOlar.sol\":40615:40634  _isExcluded[sender] */\n      dup5\n      and\n      0x00\n      swap1\n      dup2\n      mstore\n        /* \"contracts/SOlar.sol\":40615:40626  _isExcluded */\n      0x07\n        /* \"contracts/SOlar.sol\":40615:40634  _isExcluded[sender] */\n      0x20\n      mstore\n      0x40\n      swap1\n      keccak256\n      sload\n      0xff\n      and\n        /* \"contracts/SOlar.sol\":40614:40634  !_isExcluded[sender] */\n      iszero\n        /* \"contracts/SOlar.sol\":40614:40660  !_isExcluded[sender] && _isExcluded[recipient] */\n      dup1\n      iszero\n      tag_584\n      jumpi\n      pop\n      sub(shl(0xa0, 0x01), 0x01)\n        /* \"contracts/SOlar.sol\":40638:40660  _isExcluded[recipient] */\n      dup4\n      and\n      0x00\n      swap1\n      dup2\n      mstore\n        /* \"contracts/SOlar.sol\":40638:40649  _isExcluded */\n      0x07\n        /* \"contracts/SOlar.sol\":40638:40660  _isExcluded[recipient] */\n      0x20\n      mstore\n      0x40\n      swap1\n      keccak256\n      sload\n      0xff\n      and\n        /* \"contracts/SOlar.sol\":40614:40660  !_isExcluded[sender] && _isExcluded[recipient] */\n    tag_584:\n        /* \"contracts/SOlar.sol\":40610:41106  if (!_isExcluded[sender] && _isExcluded[recipient]) {... */\n      iszero\n      tag_585\n      jumpi\n        /* \"contracts/SOlar.sol\":40681:40727  _transferToExcluded(sender, recipient, amount) */\n      tag_581\n        /* \"contracts/SOlar.sol\":40701:40707  sender */\n      dup5\n        /* \"contracts/SOlar.sol\":40709:40718  recipient */\n      dup5\n        /* \"contracts/SOlar.sol\":40720:40726  amount */\n      dup5\n        /* \"contracts/SOlar.sol\":40681:40700  _transferToExcluded */\n      tag_587\n        /* \"contracts/SOlar.sol\":40681:40727  _transferToExcluded(sender, recipient, amount) */\n      jump\t// in\n        /* \"contracts/SOlar.sol\":40610:41106  if (!_isExcluded[sender] && _isExcluded[recipient]) {... */\n    tag_585:\n      sub(shl(0xa0, 0x01), 0x01)\n        /* \"contracts/SOlar.sol\":40754:40773  _isExcluded[sender] */\n      dup5\n      and\n      0x00\n      swap1\n      dup2\n      mstore\n        /* \"contracts/SOlar.sol\":40754:40765  _isExcluded */\n      0x07\n        /* \"contracts/SOlar.sol\":40754:40773  _isExcluded[sender] */\n      0x20\n      mstore\n      0x40\n      swap1\n      keccak256\n      sload\n      0xff\n      and\n        /* \"contracts/SOlar.sol\":40753:40773  !_isExcluded[sender] */\n      iszero\n        /* \"contracts/SOlar.sol\":40753:40800  !_isExcluded[sender] && !_isExcluded[recipient] */\n      dup1\n      iszero\n      tag_589\n      jumpi\n      pop\n      sub(shl(0xa0, 0x01), 0x01)\n        /* \"contracts/SOlar.sol\":40778:40800  _isExcluded[recipient] */\n      dup4\n      and\n      0x00\n      swap1\n      dup2\n      mstore\n        /* \"contracts/SOlar.sol\":40778:40789  _isExcluded */\n      0x07\n        /* \"contracts/SOlar.sol\":40778:40800  _isExcluded[recipient] */\n      0x20\n      mstore\n      0x40\n      swap1\n      keccak256\n      sload\n      0xff\n      and\n        /* \"contracts/SOlar.sol\":40777:40800  !_isExcluded[recipient] */\n      iszero\n        /* \"contracts/SOlar.sol\":40753:40800  !_isExcluded[sender] && !_isExcluded[recipient] */\n    tag_589:\n        /* \"contracts/SOlar.sol\":40749:41106  if (!_isExcluded[sender] && !_isExcluded[recipient]) {... */\n      iszero\n      tag_590\n      jumpi\n        /* \"contracts/SOlar.sol\":40821:40865  _transferStandard(sender, recipient, amount) */\n      tag_581\n        /* \"contracts/SOlar.sol\":40839:40845  sender */\n      dup5\n        /* \"contracts/SOlar.sol\":40847:40856  recipient */\n      dup5\n        /* \"contracts/SOlar.sol\":40858:40864  amount */\n      dup5\n        /* \"contracts/SOlar.sol\":40821:40838  _transferStandard */\n      tag_592\n        /* \"contracts/SOlar.sol\":40821:40865  _transferStandard(sender, recipient, amount) */\n      jump\t// in\n        /* \"contracts/SOlar.sol\":40749:41106  if (!_isExcluded[sender] && !_isExcluded[recipient]) {... */\n    tag_590:\n      sub(shl(0xa0, 0x01), 0x01)\n        /* \"contracts/SOlar.sol\":40891:40910  _isExcluded[sender] */\n      dup5\n      and\n      0x00\n      swap1\n      dup2\n      mstore\n        /* \"contracts/SOlar.sol\":40891:40902  _isExcluded */\n      0x07\n        /* \"contracts/SOlar.sol\":40891:40910  _isExcluded[sender] */\n      0x20\n      mstore\n      0x40\n      swap1\n      keccak256\n      sload\n      0xff\n      and\n        /* \"contracts/SOlar.sol\":40891:40936  _isExcluded[sender] && _isExcluded[recipient] */\n      dup1\n      iszero\n      tag_594\n      jumpi\n      pop\n      sub(shl(0xa0, 0x01), 0x01)\n        /* \"contracts/SOlar.sol\":40914:40936  _isExcluded[recipient] */\n      dup4\n      and\n      0x00\n      swap1\n      dup2\n      mstore\n        /* \"contracts/SOlar.sol\":40914:40925  _isExcluded */\n      0x07\n        /* \"contracts/SOlar.sol\":40914:40936  _isExcluded[recipient] */\n      0x20\n      mstore\n      0x40\n      swap1\n      keccak256\n      sload\n      0xff\n      and\n        /* \"contracts/SOlar.sol\":40891:40936  _isExcluded[sender] && _isExcluded[recipient] */\n    tag_594:\n        /* \"contracts/SOlar.sol\":40887:41106  if (_isExcluded[sender] && _isExcluded[recipient]) {... */\n      iszero\n      tag_595\n      jumpi\n        /* \"contracts/SOlar.sol\":40957:41005  _transferBothExcluded(sender, recipient, amount) */\n      tag_581\n        /* \"contracts/SOlar.sol\":40979:40985  sender */\n      dup5\n        /* \"contracts/SOlar.sol\":40987:40996  recipient */\n      dup5\n        /* \"contracts/SOlar.sol\":40998:41004  amount */\n      dup5\n        /* \"contracts/SOlar.sol\":40957:40978  _transferBothExcluded */\n      tag_597\n        /* \"contracts/SOlar.sol\":40957:41005  _transferBothExcluded(sender, recipient, amount) */\n      jump\t// in\n        /* \"contracts/SOlar.sol\":40887:41106  if (_isExcluded[sender] && _isExcluded[recipient]) {... */\n    tag_595:\n        /* \"contracts/SOlar.sol\":41046:41090  _transferStandard(sender, recipient, amount) */\n      tag_599\n        /* \"contracts/SOlar.sol\":41064:41070  sender */\n      dup5\n        /* \"contracts/SOlar.sol\":41072:41081  recipient */\n      dup5\n        /* \"contracts/SOlar.sol\":41083:41089  amount */\n      dup5\n        /* \"contracts/SOlar.sol\":41046:41063  _transferStandard */\n      tag_592\n        /* \"contracts/SOlar.sol\":41046:41090  _transferStandard(sender, recipient, amount) */\n      jump\t// in\n    tag_599:\n        /* \"contracts/SOlar.sol\":41126:41133  takeFee */\n      dup1\n        /* \"contracts/SOlar.sol\":41122:41167  if(!takeFee)... */\n      tag_405\n      jumpi\n        /* \"contracts/SOlar.sol\":41152:41167  restoreAllFee() */\n      tag_405\n        /* \"contracts/SOlar.sol\":35495:35510  _previousTaxFee */\n      sload(0x15)\n        /* \"contracts/SOlar.sol\":35486:35492  taxFee */\n      0x0f\n        /* \"contracts/SOlar.sol\":35486:35510  taxFee = _previousTaxFee */\n      dup2\n      swap1\n      sstore\n        /* \"contracts/SOlar.sol\":35538:35557  _previousCharityFee */\n      sload(0x16)\n        /* \"contracts/SOlar.sol\":35525:35535  charityFee */\n      0x10\n        /* \"contracts/SOlar.sol\":35525:35557  charityFee = _previousCharityFee */\n      sstore\n        /* \"contracts/SOlar.sol\":35572:35584  marketingFee */\n      0x11\n        /* \"contracts/SOlar.sol\":35572:35602  marketingFee = _previousTaxFee */\n      sstore\n        /* \"contracts/SOlar.sol\":35438:35714  function restoreAllFee() private {... */\n      jump\n        /* \"contracts/SOlar.sol\":45774:46375  function _getCurrentSupply() private view returns(uint256, uint256) {... */\n    tag_526:\n        /* \"contracts/SOlar.sol\":45875:45882  _rTotal */\n      sload(0x0a)\n        /* \"contracts/SOlar.sol\":45915:45922  _tTotal */\n      sload(0x09)\n        /* \"contracts/SOlar.sol\":45824:45831  uint256 */\n      0x00\n      swap2\n      dup3\n      swap2\n      dup3\n        /* \"contracts/SOlar.sol\":45943:46248  for (uint256 i = 0; i < _excluded.length; i++) {... */\n    tag_604:\n        /* \"contracts/SOlar.sol\":45967:45976  _excluded */\n      0x08\n        /* \"contracts/SOlar.sol\":45967:45983  _excluded.length */\n      sload\n        /* \"contracts/SOlar.sol\":45963:45983  i < _excluded.length */\n      dup2\n      lt\n        /* \"contracts/SOlar.sol\":45943:46248  for (uint256 i = 0; i < _excluded.length; i++) {... */\n      iszero\n      tag_605\n      jumpi\n        /* \"contracts/SOlar.sol\":46037:46044  rSupply */\n      dup3\n        /* \"contracts/SOlar.sol\":46013:46020  _rOwned */\n      0x03\n        /* \"contracts/SOlar.sol\":46013:46034  _rOwned[_excluded[i]] */\n      0x00\n        /* \"contracts/SOlar.sol\":46021:46030  _excluded */\n      0x08\n        /* \"contracts/SOlar.sol\":46031:46032  i */\n      dup5\n        /* \"contracts/SOlar.sol\":46021:46033  _excluded[i] */\n      dup2\n      sload\n      dup2\n      lt\n      tag_608\n      jumpi\n      tag_608\n      tag_459\n      jump\t// in\n    tag_608:\n      0x00\n      swap2\n      dup3\n      mstore\n      0x20\n      dup1\n      dup4\n      keccak256\n      swap1\n      swap2\n      add\n      sload\n      sub(shl(0xa0, 0x01), 0x01)\n      and\n        /* \"contracts/SOlar.sol\":46013:46034  _rOwned[_excluded[i]] */\n      dup4\n      mstore\n      dup3\n      add\n      swap3\n      swap1\n      swap3\n      mstore\n      0x40\n      add\n      swap1\n      keccak256\n      sload\n        /* \"contracts/SOlar.sol\":46013:46044  _rOwned[_excluded[i]] > rSupply */\n      gt\n      dup1\n        /* \"contracts/SOlar.sol\":46013:46079  _rOwned[_excluded[i]] > rSupply || _tOwned[_excluded[i]] > tSupply */\n      tag_610\n      jumpi\n      pop\n        /* \"contracts/SOlar.sol\":46072:46079  tSupply */\n      dup2\n        /* \"contracts/SOlar.sol\":46048:46055  _tOwned */\n      0x04\n        /* \"contracts/SOlar.sol\":46048:46069  _tOwned[_excluded[i]] */\n      0x00\n        /* \"contracts/SOlar.sol\":46056:46065  _excluded */\n      0x08\n        /* \"contracts/SOlar.sol\":46066:46067  i */\n      dup5\n        /* \"contracts/SOlar.sol\":46056:46068  _excluded[i] */\n      dup2\n      sload\n      dup2\n      lt\n      tag_612\n      jumpi\n      tag_612\n      tag_459\n      jump\t// in\n    tag_612:\n      0x00\n      swap2\n      dup3\n      mstore\n      0x20\n      dup1\n      dup4\n      keccak256\n      swap1\n      swap2\n      add\n      sload\n      sub(shl(0xa0, 0x01), 0x01)\n      and\n        /* \"contracts/SOlar.sol\":46048:46069  _tOwned[_excluded[i]] */\n      dup4\n      mstore\n      dup3\n      add\n      swap3\n      swap1\n      swap3\n      mstore\n      0x40\n      add\n      swap1\n      keccak256\n      sload\n        /* \"contracts/SOlar.sol\":46048:46079  _tOwned[_excluded[i]] > tSupply */\n      gt\n        /* \"contracts/SOlar.sol\":46013:46079  _rOwned[_excluded[i]] > rSupply || _tOwned[_excluded[i]] > tSupply */\n    tag_610:\n        /* \"contracts/SOlar.sol\":46009:46106  if (_rOwned[_excluded[i]] > rSupply || _tOwned[_excluded[i]] > tSupply) return (_rTotal, _tTotal) */\n      iszero\n      tag_614\n      jumpi\n        /* \"contracts/SOlar.sol\":46089:46096  _rTotal */\n      sload(0x0a)\n        /* \"contracts/SOlar.sol\":46098:46105  _tTotal */\n      sload(0x09)\n        /* \"contracts/SOlar.sol\":46081:46106  return (_rTotal, _tTotal) */\n      swap5\n      pop\n      swap5\n      pop\n      pop\n      pop\n      pop\n        /* \"contracts/SOlar.sol\":45774:46375  function _getCurrentSupply() private view returns(uint256, uint256) {... */\n      swap1\n      swap2\n      jump\t// out\n        /* \"contracts/SOlar.sol\":46009:46106  if (_rOwned[_excluded[i]] > rSupply || _tOwned[_excluded[i]] > tSupply) return (_rTotal, _tTotal) */\n    tag_614:\n        /* \"contracts/SOlar.sol\":46135:46169  rSupply.sub(_rOwned[_excluded[i]]) */\n      tag_615\n        /* \"contracts/SOlar.sol\":46147:46154  _rOwned */\n      0x03\n        /* \"contracts/SOlar.sol\":46147:46168  _rOwned[_excluded[i]] */\n      0x00\n        /* \"contracts/SOlar.sol\":46155:46164  _excluded */\n      0x08\n        /* \"contracts/SOlar.sol\":46165:46166  i */\n      dup5\n        /* \"contracts/SOlar.sol\":46155:46167  _excluded[i] */\n      dup2\n      sload\n      dup2\n      lt\n      tag_617\n      jumpi\n      tag_617\n      tag_459\n      jump\t// in\n    tag_617:\n      0x00\n      swap2\n      dup3\n      mstore\n      0x20\n      dup1\n      dup4\n      keccak256\n      swap1\n      swap2\n      add\n      sload\n      sub(shl(0xa0, 0x01), 0x01)\n      and\n        /* \"contracts/SOlar.sol\":46147:46168  _rOwned[_excluded[i]] */\n      dup4\n      mstore\n      dup3\n      add\n      swap3\n      swap1\n      swap3\n      mstore\n      0x40\n      add\n      swap1\n      keccak256\n      sload\n        /* \"contracts/SOlar.sol\":46135:46142  rSupply */\n      dup5\n      swap1\n        /* \"contracts/SOlar.sol\":46135:46146  rSupply.sub */\n      tag_324\n        /* \"contracts/SOlar.sol\":46135:46169  rSupply.sub(_rOwned[_excluded[i]]) */\n      jump\t// in\n    tag_615:\n        /* \"contracts/SOlar.sol\":46125:46169  rSupply = rSupply.sub(_rOwned[_excluded[i]]) */\n      swap3\n      pop\n        /* \"contracts/SOlar.sol\":46198:46232  tSupply.sub(_tOwned[_excluded[i]]) */\n      tag_619\n        /* \"contracts/SOlar.sol\":46210:46217  _tOwned */\n      0x04\n        /* \"contracts/SOlar.sol\":46210:46231  _tOwned[_excluded[i]] */\n      0x00\n        /* \"contracts/SOlar.sol\":46218:46227  _excluded */\n      0x08\n        /* \"contracts/SOlar.sol\":46228:46229  i */\n      dup5\n        /* \"contracts/SOlar.sol\":46218:46230  _excluded[i] */\n      dup2\n      sload\n      dup2\n      lt\n      tag_621\n      jumpi\n      tag_621\n      tag_459\n      jump\t// in\n    tag_621:\n      0x00\n      swap2\n      dup3\n      mstore\n      0x20\n      dup1\n      dup4\n      keccak256\n      swap1\n      swap2\n      add\n      sload\n      sub(shl(0xa0, 0x01), 0x01)\n      and\n        /* \"contracts/SOlar.sol\":46210:46231  _tOwned[_excluded[i]] */\n      dup4\n      mstore\n      dup3\n      add\n      swap3\n      swap1\n      swap3\n      mstore\n      0x40\n      add\n      swap1\n      keccak256\n      sload\n        /* \"contracts/SOlar.sol\":46198:46205  tSupply */\n      dup4\n      swap1\n        /* \"contracts/SOlar.sol\":46198:46209  tSupply.sub */\n      tag_324\n        /* \"contracts/SOlar.sol\":46198:46232  tSupply.sub(_tOwned[_excluded[i]]) */\n      jump\t// in\n    tag_619:\n        /* \"contracts/SOlar.sol\":46188:46232  tSupply = tSupply.sub(_tOwned[_excluded[i]]) */\n      swap2\n      pop\n        /* \"contracts/SOlar.sol\":45985:45988  i++ */\n      0x01\n      add\n        /* \"contracts/SOlar.sol\":45943:46248  for (uint256 i = 0; i < _excluded.length; i++) {... */\n      jump(tag_604)\n    tag_605:\n      pop\n        /* \"contracts/SOlar.sol\":46288:46295  _tTotal */\n      sload(0x09)\n        /* \"contracts/SOlar.sol\":46276:46283  _rTotal */\n      sload(0x0a)\n        /* \"contracts/SOlar.sol\":46276:46296  _rTotal.div(_tTotal) */\n      tag_623\n      swap2\n        /* \"contracts/SOlar.sol\":46276:46287  _rTotal.div */\n      tag_308\n        /* \"contracts/SOlar.sol\":46276:46296  _rTotal.div(_tTotal) */\n      jump\t// in\n    tag_623:\n        /* \"contracts/SOlar.sol\":46266:46273  rSupply */\n      dup3\n        /* \"contracts/SOlar.sol\":46266:46296  rSupply < _rTotal.div(_tTotal) */\n      lt\n        /* \"contracts/SOlar.sol\":46262:46323  if (rSupply < _rTotal.div(_tTotal)) return (_rTotal, _tTotal) */\n      iszero\n      tag_624\n      jumpi\n        /* \"contracts/SOlar.sol\":46306:46313  _rTotal */\n      sload(0x0a)\n        /* \"contracts/SOlar.sol\":46315:46322  _tTotal */\n      sload(0x09)\n        /* \"contracts/SOlar.sol\":46298:46323  return (_rTotal, _tTotal) */\n      swap4\n      pop\n      swap4\n      pop\n      pop\n      pop\n        /* \"contracts/SOlar.sol\":45774:46375  function _getCurrentSupply() private view returns(uint256, uint256) {... */\n      swap1\n      swap2\n      jump\t// out\n        /* \"contracts/SOlar.sol\":46262:46323  if (rSupply < _rTotal.div(_tTotal)) return (_rTotal, _tTotal) */\n    tag_624:\n        /* \"contracts/SOlar.sol\":46346:46353  rSupply */\n      swap1\n      swap4\n        /* \"contracts/SOlar.sol\":46355:46362  tSupply */\n      swap1\n      swap3\n      pop\n        /* \"contracts/SOlar.sol\":45774:46375  function _getCurrentSupply() private view returns(uint256, uint256) {... */\n      swap1\n      pop\n      jump\t// out\n        /* \"contracts/SOlar.sol\":6856:7154  function div(uint256 a, uint256 b, string memory errorMessage) internal pure returns (uint256) {... */\n    tag_530:\n        /* \"contracts/SOlar.sol\":6942:6949  uint256 */\n      0x00\n        /* \"contracts/SOlar.sol\":6981:6993  errorMessage */\n      dup2\n        /* \"contracts/SOlar.sol\":6974:6979  b > 0 */\n      dup4\n        /* \"contracts/SOlar.sol\":6966:6994  require(b > 0, errorMessage) */\n      tag_626\n      jumpi\n      mload(0x40)\n      shl(0xe5, 0x461bcd)\n      dup2\n      mstore\n      0x04\n      add\n      tag_287\n      swap2\n      swap1\n      tag_63\n      jump\t// in\n    tag_626:\n      pop\n        /* \"contracts/SOlar.sol\":7009:7018  uint256 c */\n      0x00\n        /* \"contracts/SOlar.sol\":7021:7026  a / b */\n      tag_523\n        /* \"contracts/SOlar.sol\":7025:7026  b */\n      dup5\n        /* \"contracts/SOlar.sol\":7021:7022  a */\n      dup7\n        /* \"contracts/SOlar.sol\":7021:7026  a / b */\n      tag_566\n      jump\t// in\n        /* \"contracts/SOlar.sol\":44820:45209  function _getTValues(uint256 tAmount, uint256 _taxFee, uint256 _totalFee) private pure returns (uint256, uint256, uint256) {... */\n    tag_538:\n        /* \"contracts/SOlar.sol\":44916:44923  uint256 */\n      0x00\n      dup1\n      dup1\n      dup1\n        /* \"contracts/SOlar.sol\":44973:45002  tAmount.mul(_taxFee).div(100) */\n      tag_630\n        /* \"contracts/SOlar.sol\":44998:45001  100 */\n      0x64\n        /* \"contracts/SOlar.sol\":44973:44993  tAmount.mul(_taxFee) */\n      tag_631\n        /* \"contracts/SOlar.sol\":44973:44980  tAmount */\n      dup10\n        /* \"contracts/SOlar.sol\":44985:44992  _taxFee */\n      dup10\n        /* \"contracts/SOlar.sol\":44973:44984  tAmount.mul */\n      tag_632\n        /* \"contracts/SOlar.sol\":44973:44993  tAmount.mul(_taxFee) */\n      jump\t// in\n    tag_631:\n        /* \"contracts/SOlar.sol\":44973:44997  tAmount.mul(_taxFee).div */\n      swap1\n      tag_308\n        /* \"contracts/SOlar.sol\":44973:45002  tAmount.mul(_taxFee).div(100) */\n      jump\t// in\n    tag_630:\n        /* \"contracts/SOlar.sol\":44958:45002  uint256 tFee = tAmount.mul(_taxFee).div(100) */\n      swap1\n      pop\n        /* \"contracts/SOlar.sol\":45017:45034  uint256 tTotalFee */\n      0x00\n        /* \"contracts/SOlar.sol\":45037:45068  tAmount.mul(_totalFee).div(100) */\n      tag_633\n        /* \"contracts/SOlar.sol\":45064:45067  100 */\n      0x64\n        /* \"contracts/SOlar.sol\":45037:45059  tAmount.mul(_totalFee) */\n      tag_631\n        /* \"contracts/SOlar.sol\":45037:45044  tAmount */\n      dup11\n        /* \"contracts/SOlar.sol\":45049:45058  _totalFee */\n      dup10\n        /* \"contracts/SOlar.sol\":45037:45048  tAmount.mul */\n      tag_632\n        /* \"contracts/SOlar.sol\":45037:45059  tAmount.mul(_totalFee) */\n      jump\t// in\n        /* \"contracts/SOlar.sol\":45037:45068  tAmount.mul(_totalFee).div(100) */\n    tag_633:\n        /* \"contracts/SOlar.sol\":45017:45068  uint256 tTotalFee = tAmount.mul(_totalFee).div(100) */\n      swap1\n      pop\n        /* \"contracts/SOlar.sol\":45083:45106  uint256 tTransferAmount */\n      0x00\n        /* \"contracts/SOlar.sol\":45109:45141  tAmount.sub(tFee).sub(tTotalFee) */\n      tag_635\n        /* \"contracts/SOlar.sol\":45017:45068  uint256 tTotalFee = tAmount.mul(_totalFee).div(100) */\n      dup3\n        /* \"contracts/SOlar.sol\":45109:45126  tAmount.sub(tFee) */\n      tag_636\n        /* \"contracts/SOlar.sol\":45109:45116  tAmount */\n      dup12\n        /* \"contracts/SOlar.sol\":45121:45125  tFee */\n      dup7\n        /* \"contracts/SOlar.sol\":45109:45120  tAmount.sub */\n      tag_324\n        /* \"contracts/SOlar.sol\":45109:45126  tAmount.sub(tFee) */\n      jump\t// in\n    tag_636:\n        /* \"contracts/SOlar.sol\":45109:45130  tAmount.sub(tFee).sub */\n      swap1\n      tag_324\n        /* \"contracts/SOlar.sol\":45109:45141  tAmount.sub(tFee).sub(tTotalFee) */\n      jump\t// in\n    tag_635:\n        /* \"contracts/SOlar.sol\":45083:45141  uint256 tTransferAmount = tAmount.sub(tFee).sub(tTotalFee) */\n      swap10\n        /* \"contracts/SOlar.sol\":45181:45185  tFee */\n      swap3\n      swap9\n      pop\n        /* \"contracts/SOlar.sol\":45187:45196  tTotalFee */\n      swap1\n      swap7\n      pop\n        /* \"contracts/SOlar.sol\":44820:45209  function _getTValues(uint256 tAmount, uint256 _taxFee, uint256 _totalFee) private pure returns (uint256, uint256, uint256) {... */\n      swap1\n      swap5\n      pop\n      pop\n      pop\n      pop\n      pop\n      jump\t// out\n        /* \"contracts/SOlar.sol\":45221:45575  function _getRValues(uint256 tAmount, uint256 tFee, uint256 currentRate) private pure returns (uint256, uint256, uint256) {... */\n    tag_541:\n        /* \"contracts/SOlar.sol\":45316:45323  uint256 */\n      0x00\n      dup1\n      dup1\n      dup1\n        /* \"contracts/SOlar.sol\":45376:45400  tAmount.mul(currentRate) */\n      tag_638\n        /* \"contracts/SOlar.sol\":45376:45383  tAmount */\n      dup8\n        /* \"contracts/SOlar.sol\":45388:45399  currentRate */\n      dup7\n        /* \"contracts/SOlar.sol\":45376:45387  tAmount.mul */\n      tag_632\n        /* \"contracts/SOlar.sol\":45376:45400  tAmount.mul(currentRate) */\n      jump\t// in\n    tag_638:\n        /* \"contracts/SOlar.sol\":45358:45400  uint256 rAmount = tAmount.mul(currentRate) */\n      swap1\n      pop\n        /* \"contracts/SOlar.sol\":45415:45427  uint256 rFee */\n      0x00\n        /* \"contracts/SOlar.sol\":45430:45451  tFee.mul(currentRate) */\n      tag_639\n        /* \"contracts/SOlar.sol\":45430:45434  tFee */\n      dup8\n        /* \"contracts/SOlar.sol\":45439:45450  currentRate */\n      dup8\n        /* \"contracts/SOlar.sol\":45430:45438  tFee.mul */\n      tag_632\n        /* \"contracts/SOlar.sol\":45430:45451  tFee.mul(currentRate) */\n      jump\t// in\n    tag_639:\n        /* \"contracts/SOlar.sol\":45415:45451  uint256 rFee = tFee.mul(currentRate) */\n      swap1\n      pop\n        /* \"contracts/SOlar.sol\":45466:45489  uint256 rTransferAmount */\n      0x00\n        /* \"contracts/SOlar.sol\":45492:45509  rAmount.sub(rFee) */\n      tag_640\n        /* \"contracts/SOlar.sol\":45492:45499  rAmount */\n      dup4\n        /* \"contracts/SOlar.sol\":45415:45451  uint256 rFee = tFee.mul(currentRate) */\n      dup4\n        /* \"contracts/SOlar.sol\":45492:45503  rAmount.sub */\n      tag_324\n        /* \"contracts/SOlar.sol\":45492:45509  rAmount.sub(rFee) */\n      jump\t// in\n    tag_640:\n        /* \"contracts/SOlar.sol\":45532:45539  rAmount */\n      swap3\n      swap10\n      swap3\n      swap9\n      pop\n        /* \"contracts/SOlar.sol\":45558:45562  rFee */\n      swap1\n      swap7\n      pop\n        /* \"contracts/SOlar.sol\":45221:45575  function _getRValues(uint256 tAmount, uint256 tFee, uint256 currentRate) private pure returns (uint256, uint256, uint256) {... */\n      swap1\n      swap5\n      pop\n      pop\n      pop\n      pop\n      pop\n      jump\t// out\n        /* \"contracts/SOlar.sol\":34844:35422  function removeAllFee() private {... */\n    tag_578:\n        /* \"contracts/SOlar.sol\":34894:34900  taxFee */\n      sload(0x0f)\n        /* \"contracts/SOlar.sol\":34894:34905  taxFee == 0 */\n      iszero\n        /* \"contracts/SOlar.sol\":34894:34924  taxFee == 0 && charityFee == 0 */\n      dup1\n      iszero\n      tag_642\n      jumpi\n      pop\n        /* \"contracts/SOlar.sol\":34909:34919  charityFee */\n      sload(0x10)\n        /* \"contracts/SOlar.sol\":34909:34924  charityFee == 0 */\n      iszero\n        /* \"contracts/SOlar.sol\":34894:34924  taxFee == 0 && charityFee == 0 */\n    tag_642:\n        /* \"contracts/SOlar.sol\":34894:34947  taxFee == 0 && charityFee == 0 && developmentFee == 0 */\n      dup1\n      iszero\n      tag_643\n      jumpi\n      pop\n        /* \"contracts/SOlar.sol\":34928:34942  developmentFee */\n      sload(0x12)\n        /* \"contracts/SOlar.sol\":34928:34947  developmentFee == 0 */\n      iszero\n        /* \"contracts/SOlar.sol\":34894:34947  taxFee == 0 && charityFee == 0 && developmentFee == 0 */\n    tag_643:\n        /* \"contracts/SOlar.sol\":34894:34968  taxFee == 0 && charityFee == 0 && developmentFee == 0 && marketingFee == 0 */\n      dup1\n      iszero\n      tag_644\n      jumpi\n      pop\n        /* \"contracts/SOlar.sol\":34951:34963  marketingFee */\n      sload(0x11)\n        /* \"contracts/SOlar.sol\":34951:34968  marketingFee == 0 */\n      iszero\n        /* \"contracts/SOlar.sol\":34894:34968  taxFee == 0 && charityFee == 0 && developmentFee == 0 && marketingFee == 0 */\n    tag_644:\n        /* \"contracts/SOlar.sol\":34894:34987  taxFee == 0 && charityFee == 0 && developmentFee == 0 && marketingFee == 0 && buybackFee == 0 */\n      dup1\n      iszero\n      tag_645\n      jumpi\n      pop\n        /* \"contracts/SOlar.sol\":34972:34982  buybackFee */\n      sload(0x13)\n        /* \"contracts/SOlar.sol\":34972:34987  buybackFee == 0 */\n      iszero\n        /* \"contracts/SOlar.sol\":34894:34987  taxFee == 0 && charityFee == 0 && developmentFee == 0 && marketingFee == 0 && buybackFee == 0 */\n    tag_645:\n        /* \"contracts/SOlar.sol\":34891:34996  if(taxFee == 0 && charityFee == 0 && developmentFee == 0 && marketingFee == 0 && buybackFee == 0) return; */\n      iszero\n      tag_646\n      jumpi\n        /* \"contracts/SOlar.sol\":34844:35422  function removeAllFee() private {... */\n      jump\t// out\n        /* \"contracts/SOlar.sol\":34891:34996  if(taxFee == 0 && charityFee == 0 && developmentFee == 0 && marketingFee == 0 && buybackFee == 0) return; */\n    tag_646:\n        /* \"contracts/SOlar.sol\":35042:35048  taxFee */\n      0x0f\n      dup1\n      sload\n        /* \"contracts/SOlar.sol\":35024:35039  _previousTaxFee */\n      0x15\n        /* \"contracts/SOlar.sol\":35024:35048  _previousTaxFee = taxFee */\n      sstore\n        /* \"contracts/SOlar.sol\":35085:35095  charityFee */\n      0x10\n      dup1\n      sload\n        /* \"contracts/SOlar.sol\":35063:35082  _previousCharityFee */\n      0x16\n        /* \"contracts/SOlar.sol\":35063:35095  _previousCharityFee = charityFee */\n      sstore\n        /* \"contracts/SOlar.sol\":35134:35146  marketingFee */\n      0x11\n      dup1\n      sload\n        /* \"contracts/SOlar.sol\":35110:35131  _previousMarketingFee */\n      0x17\n        /* \"contracts/SOlar.sol\":35110:35146  _previousMarketingFee = marketingFee */\n      sstore\n        /* \"contracts/SOlar.sol\":35187:35201  developmentFee */\n      0x12\n      dup1\n      sload\n        /* \"contracts/SOlar.sol\":35161:35184  _previousDevelopmentFee */\n      0x18\n        /* \"contracts/SOlar.sol\":35161:35201  _previousDevelopmentFee = developmentFee */\n      sstore\n        /* \"contracts/SOlar.sol\":35238:35248  buybackFee */\n      0x13\n      dup1\n      sload\n        /* \"contracts/SOlar.sol\":35216:35235  _previousBuybackFee */\n      0x19\n        /* \"contracts/SOlar.sol\":35216:35248  _previousBuybackFee = buybackFee */\n      sstore\n      0x00\n        /* \"contracts/SOlar.sol\":35277:35287  taxFee = 0 */\n      swap5\n      dup6\n      swap1\n      sstore\n        /* \"contracts/SOlar.sol\":35303:35317  charityFee = 0 */\n      swap3\n      dup5\n      swap1\n      sstore\n        /* \"contracts/SOlar.sol\":35332:35348  marketingFee = 0 */\n      swap1\n      dup4\n      swap1\n      sstore\n        /* \"contracts/SOlar.sol\":35363:35381  developmentFee = 0 */\n      dup3\n      swap1\n      sstore\n        /* \"contracts/SOlar.sol\":35396:35410  buybackFee = 0 */\n      sstore\n        /* \"contracts/SOlar.sol\":34844:35422  function removeAllFee() private {... */\n      jump\t// out\n        /* \"contracts/SOlar.sol\":42363:42959  function _transferFromExcluded(address sender, address recipient, uint256 tAmount) private {... */\n    tag_582:\n        /* \"contracts/SOlar.sol\":42470:42485  uint256 rAmount */\n      0x00\n        /* \"contracts/SOlar.sol\":42487:42510  uint256 rTransferAmount */\n      dup1\n        /* \"contracts/SOlar.sol\":42512:42524  uint256 rFee */\n      0x00\n        /* \"contracts/SOlar.sol\":42526:42549  uint256 tTransferAmount */\n      dup1\n        /* \"contracts/SOlar.sol\":42551:42563  uint256 tFee */\n      0x00\n        /* \"contracts/SOlar.sol\":42565:42582  uint256 tTotalFee */\n      dup1\n        /* \"contracts/SOlar.sol\":42586:42605  _getValues(tAmount) */\n      tag_648\n        /* \"contracts/SOlar.sol\":42597:42604  tAmount */\n      dup8\n        /* \"contracts/SOlar.sol\":42586:42596  _getValues */\n      tag_322\n        /* \"contracts/SOlar.sol\":42586:42605  _getValues(tAmount) */\n      jump\t// in\n    tag_648:\n      sub(shl(0xa0, 0x01), 0x01)\n        /* \"contracts/SOlar.sol\":42638:42653  _tOwned[sender] */\n      dup16\n      and\n      0x00\n      swap1\n      dup2\n      mstore\n        /* \"contracts/SOlar.sol\":42638:42645  _tOwned */\n      0x04\n        /* \"contracts/SOlar.sol\":42638:42653  _tOwned[sender] */\n      0x20\n      mstore\n      0x40\n      swap1\n      keccak256\n      sload\n        /* \"contracts/SOlar.sol\":42469:42605  (uint256 rAmount, uint256 rTransferAmount, uint256 rFee, uint256 tTransferAmount, uint256 tFee, uint256 tTotalFee) = _getValues(tAmount) */\n      swap6\n      swap12\n      pop\n      swap4\n      swap10\n      pop\n      swap2\n      swap8\n      pop\n      swap6\n      pop\n      swap4\n      pop\n      swap2\n      pop\n        /* \"contracts/SOlar.sol\":42638:42666  _tOwned[sender].sub(tAmount) */\n      tag_649\n      swap1\n        /* \"contracts/SOlar.sol\":42658:42665  tAmount */\n      dup9\n        /* \"contracts/SOlar.sol\":42638:42657  _tOwned[sender].sub */\n      tag_324\n        /* \"contracts/SOlar.sol\":42638:42666  _tOwned[sender].sub(tAmount) */\n      jump\t// in\n    tag_649:\n      sub(shl(0xa0, 0x01), 0x01)\n        /* \"contracts/SOlar.sol\":42620:42635  _tOwned[sender] */\n      dup11\n      and\n      0x00\n      swap1\n      dup2\n      mstore\n        /* \"contracts/SOlar.sol\":42620:42627  _tOwned */\n      0x04\n        /* \"contracts/SOlar.sol\":42620:42635  _tOwned[sender] */\n      0x20\n      swap1\n      dup2\n      mstore\n      0x40\n      dup1\n      dup4\n      keccak256\n        /* \"contracts/SOlar.sol\":42620:42666  _tOwned[sender] = _tOwned[sender].sub(tAmount) */\n      swap4\n      swap1\n      swap4\n      sstore\n        /* \"contracts/SOlar.sol\":42699:42706  _rOwned */\n      0x03\n        /* \"contracts/SOlar.sol\":42699:42714  _rOwned[sender] */\n      swap1\n      mstore\n      keccak256\n      sload\n        /* \"contracts/SOlar.sol\":42699:42727  _rOwned[sender].sub(rAmount) */\n      tag_650\n      swap1\n        /* \"contracts/SOlar.sol\":42719:42726  rAmount */\n      dup8\n        /* \"contracts/SOlar.sol\":42699:42718  _rOwned[sender].sub */\n      tag_324\n        /* \"contracts/SOlar.sol\":42699:42727  _rOwned[sender].sub(rAmount) */\n      jump\t// in\n    tag_650:\n      sub(shl(0xa0, 0x01), 0x01)\n        /* \"contracts/SOlar.sol\":42681:42696  _rOwned[sender] */\n      dup1\n      dup12\n      and\n      0x00\n      swap1\n      dup2\n      mstore\n        /* \"contracts/SOlar.sol\":42681:42688  _rOwned */\n      0x03\n        /* \"contracts/SOlar.sol\":42681:42696  _rOwned[sender] */\n      0x20\n      mstore\n      0x40\n      dup1\n      dup3\n      keccak256\n        /* \"contracts/SOlar.sol\":42681:42727  _rOwned[sender] = _rOwned[sender].sub(rAmount) */\n      swap4\n      swap1\n      swap4\n      sstore\n        /* \"contracts/SOlar.sol\":42763:42781  _rOwned[recipient] */\n      swap1\n      dup11\n      and\n      dup2\n      mstore\n      keccak256\n      sload\n        /* \"contracts/SOlar.sol\":42763:42802  _rOwned[recipient].add(rTransferAmount) */\n      tag_651\n      swap1\n        /* \"contracts/SOlar.sol\":42786:42801  rTransferAmount */\n      dup7\n        /* \"contracts/SOlar.sol\":42763:42785  _rOwned[recipient].add */\n      tag_315\n        /* \"contracts/SOlar.sol\":42763:42802  _rOwned[recipient].add(rTransferAmount) */\n      jump\t// in\n    tag_651:\n      sub(shl(0xa0, 0x01), 0x01)\n        /* \"contracts/SOlar.sol\":42742:42760  _rOwned[recipient] */\n      dup10\n      and\n      0x00\n      swap1\n      dup2\n      mstore\n        /* \"contracts/SOlar.sol\":42742:42749  _rOwned */\n      0x03\n        /* \"contracts/SOlar.sol\":42742:42760  _rOwned[recipient] */\n      0x20\n      mstore\n      0x40\n      swap1\n      keccak256\n        /* \"contracts/SOlar.sol\":42742:42802  _rOwned[recipient] = _rOwned[recipient].add(rTransferAmount) */\n      sstore\n        /* \"contracts/SOlar.sol\":42818:42842  _takeTotalFee(tTotalFee) */\n      tag_652\n        /* \"contracts/SOlar.sol\":42832:42841  tTotalFee */\n      dup2\n        /* \"contracts/SOlar.sol\":42818:42831  _takeTotalFee */\n      tag_653\n        /* \"contracts/SOlar.sol\":42818:42842  _takeTotalFee(tTotalFee) */\n      jump\t// in\n    tag_652:\n        /* \"contracts/SOlar.sol\":42860:42883  _reflectFee(rFee, tFee) */\n      tag_654\n        /* \"contracts/SOlar.sol\":42872:42876  rFee */\n      dup5\n        /* \"contracts/SOlar.sol\":42878:42882  tFee */\n      dup4\n        /* \"contracts/SOlar.sol\":42860:42871  _reflectFee */\n      tag_655\n        /* \"contracts/SOlar.sol\":42860:42883  _reflectFee(rFee, tFee) */\n      jump\t// in\n    tag_654:\n        /* \"contracts/SOlar.sol\":42920:42929  recipient */\n      dup8\n      sub(shl(0xa0, 0x01), 0x01)\n        /* \"contracts/SOlar.sol\":42903:42947  Transfer(sender, recipient, tTransferAmount) */\n      and\n        /* \"contracts/SOlar.sol\":42912:42918  sender */\n      dup10\n      sub(shl(0xa0, 0x01), 0x01)\n        /* \"contracts/SOlar.sol\":42903:42947  Transfer(sender, recipient, tTransferAmount) */\n      and\n      0xddf252ad1be2c89b69c2b068fc378daa952ba7f163c4a11628f55a4df523b3ef\n        /* \"contracts/SOlar.sol\":42931:42946  tTransferAmount */\n      dup6\n        /* \"contracts/SOlar.sol\":42903:42947  Transfer(sender, recipient, tTransferAmount) */\n      mload(0x40)\n      tag_656\n      swap2\n        /* \"#utility.yul\":1361:1386   */\n      dup2\n      mstore\n        /* \"#utility.yul\":1349:1351   */\n      0x20\n        /* \"#utility.yul\":1334:1352   */\n      add\n      swap1\n        /* \"#utility.yul\":1215:1392   */\n      jump\n        /* \"contracts/SOlar.sol\":42903:42947  Transfer(sender, recipient, tTransferAmount) */\n    tag_656:\n      mload(0x40)\n      dup1\n      swap2\n      sub\n      swap1\n      log3\n        /* \"contracts/SOlar.sol\":42454:42959  {... */\n      pop\n      pop\n      pop\n      pop\n      pop\n      pop\n        /* \"contracts/SOlar.sol\":42363:42959  function _transferFromExcluded(address sender, address recipient, uint256 tAmount) private {... */\n      pop\n      pop\n      pop\n      jump\t// out\n        /* \"contracts/SOlar.sol\":41732:42351  function _transferToExcluded(address sender, address recipient, uint256 tAmount) private {... */\n    tag_587:\n        /* \"contracts/SOlar.sol\":41837:41852  uint256 rAmount */\n      0x00\n        /* \"contracts/SOlar.sol\":41854:41877  uint256 rTransferAmount */\n      dup1\n        /* \"contracts/SOlar.sol\":41879:41891  uint256 rFee */\n      0x00\n        /* \"contracts/SOlar.sol\":41893:41916  uint256 tTransferAmount */\n      dup1\n        /* \"contracts/SOlar.sol\":41918:41930  uint256 tFee */\n      0x00\n        /* \"contracts/SOlar.sol\":41932:41949  uint256 tTotalFee */\n      dup1\n        /* \"contracts/SOlar.sol\":41953:41972  _getValues(tAmount) */\n      tag_658\n        /* \"contracts/SOlar.sol\":41964:41971  tAmount */\n      dup8\n        /* \"contracts/SOlar.sol\":41953:41963  _getValues */\n      tag_322\n        /* \"contracts/SOlar.sol\":41953:41972  _getValues(tAmount) */\n      jump\t// in\n    tag_658:\n      sub(shl(0xa0, 0x01), 0x01)\n        /* \"contracts/SOlar.sol\":42005:42020  _rOwned[sender] */\n      dup16\n      and\n      0x00\n      swap1\n      dup2\n      mstore\n        /* \"contracts/SOlar.sol\":42005:42012  _rOwned */\n      0x03\n        /* \"contracts/SOlar.sol\":42005:42020  _rOwned[sender] */\n      0x20\n      mstore\n      0x40\n      swap1\n      keccak256\n      sload\n        /* \"contracts/SOlar.sol\":41836:41972  (uint256 rAmount, uint256 rTransferAmount, uint256 rFee, uint256 tTransferAmount, uint256 tFee, uint256 tTotalFee) = _getValues(tAmount) */\n      swap6\n      swap12\n      pop\n      swap4\n      swap10\n      pop\n      swap2\n      swap8\n      pop\n      swap6\n      pop\n      swap4\n      pop\n      swap2\n      pop\n        /* \"contracts/SOlar.sol\":42005:42033  _rOwned[sender].sub(rAmount) */\n      tag_659\n      swap1\n        /* \"contracts/SOlar.sol\":41836:41972  (uint256 rAmount, uint256 rTransferAmount, uint256 rFee, uint256 tTransferAmount, uint256 tFee, uint256 tTotalFee) = _getValues(tAmount) */\n      dup8\n        /* \"contracts/SOlar.sol\":42005:42024  _rOwned[sender].sub */\n      tag_324\n        /* \"contracts/SOlar.sol\":42005:42033  _rOwned[sender].sub(rAmount) */\n      jump\t// in\n    tag_659:\n      sub(shl(0xa0, 0x01), 0x01)\n        /* \"contracts/SOlar.sol\":41987:42002  _rOwned[sender] */\n      dup1\n      dup12\n      and\n      0x00\n      swap1\n      dup2\n      mstore\n        /* \"contracts/SOlar.sol\":41987:41994  _rOwned */\n      0x03\n        /* \"contracts/SOlar.sol\":41987:42002  _rOwned[sender] */\n      0x20\n      swap1\n      dup2\n      mstore\n      0x40\n      dup1\n      dup4\n      keccak256\n        /* \"contracts/SOlar.sol\":41987:42033  _rOwned[sender] = _rOwned[sender].sub(rAmount) */\n      swap5\n      swap1\n      swap5\n      sstore\n        /* \"contracts/SOlar.sol\":42069:42087  _tOwned[recipient] */\n      swap2\n      dup12\n      and\n      dup2\n      mstore\n        /* \"contracts/SOlar.sol\":42069:42076  _tOwned */\n      0x04\n        /* \"contracts/SOlar.sol\":42069:42087  _tOwned[recipient] */\n      swap1\n      swap2\n      mstore\n      keccak256\n      sload\n        /* \"contracts/SOlar.sol\":42069:42108  _tOwned[recipient].add(tTransferAmount) */\n      tag_660\n      swap1\n        /* \"contracts/SOlar.sol\":42092:42107  tTransferAmount */\n      dup5\n        /* \"contracts/SOlar.sol\":42069:42091  _tOwned[recipient].add */\n      tag_315\n        /* \"contracts/SOlar.sol\":42069:42108  _tOwned[recipient].add(tTransferAmount) */\n      jump\t// in\n    tag_660:\n      sub(shl(0xa0, 0x01), 0x01)\n        /* \"contracts/SOlar.sol\":42048:42066  _tOwned[recipient] */\n      dup10\n      and\n      0x00\n      swap1\n      dup2\n      mstore\n        /* \"contracts/SOlar.sol\":42048:42055  _tOwned */\n      0x04\n        /* \"contracts/SOlar.sol\":42048:42066  _tOwned[recipient] */\n      0x20\n      swap1\n      dup2\n      mstore\n      0x40\n      dup1\n      dup4\n      keccak256\n        /* \"contracts/SOlar.sol\":42048:42108  _tOwned[recipient] = _tOwned[recipient].add(tTransferAmount) */\n      swap4\n      swap1\n      swap4\n      sstore\n        /* \"contracts/SOlar.sol\":42144:42151  _rOwned */\n      0x03\n        /* \"contracts/SOlar.sol\":42144:42162  _rOwned[recipient] */\n      swap1\n      mstore\n      keccak256\n      sload\n        /* \"contracts/SOlar.sol\":42144:42183  _rOwned[recipient].add(rTransferAmount) */\n      tag_651\n      swap1\n        /* \"contracts/SOlar.sol\":42167:42182  rTransferAmount */\n      dup7\n        /* \"contracts/SOlar.sol\":42144:42166  _rOwned[recipient].add */\n      tag_315\n        /* \"contracts/SOlar.sol\":42144:42183  _rOwned[recipient].add(rTransferAmount) */\n      jump\t// in\n        /* \"contracts/SOlar.sol\":41191:41720  function _transferStandard(address sender, address recipient, uint256 tAmount) private {... */\n    tag_592:\n        /* \"contracts/SOlar.sol\":41294:41309  uint256 rAmount */\n      0x00\n        /* \"contracts/SOlar.sol\":41311:41334  uint256 rTransferAmount */\n      dup1\n        /* \"contracts/SOlar.sol\":41336:41348  uint256 rFee */\n      0x00\n        /* \"contracts/SOlar.sol\":41350:41373  uint256 tTransferAmount */\n      dup1\n        /* \"contracts/SOlar.sol\":41375:41387  uint256 tFee */\n      0x00\n        /* \"contracts/SOlar.sol\":41389:41406  uint256 tTotalFee */\n      dup1\n        /* \"contracts/SOlar.sol\":41410:41429  _getValues(tAmount) */\n      tag_666\n        /* \"contracts/SOlar.sol\":41421:41428  tAmount */\n      dup8\n        /* \"contracts/SOlar.sol\":41410:41420  _getValues */\n      tag_322\n        /* \"contracts/SOlar.sol\":41410:41429  _getValues(tAmount) */\n      jump\t// in\n    tag_666:\n      sub(shl(0xa0, 0x01), 0x01)\n        /* \"contracts/SOlar.sol\":41462:41477  _rOwned[sender] */\n      dup16\n      and\n      0x00\n      swap1\n      dup2\n      mstore\n        /* \"contracts/SOlar.sol\":41462:41469  _rOwned */\n      0x03\n        /* \"contracts/SOlar.sol\":41462:41477  _rOwned[sender] */\n      0x20\n      mstore\n      0x40\n      swap1\n      keccak256\n      sload\n        /* \"contracts/SOlar.sol\":41293:41429  (uint256 rAmount, uint256 rTransferAmount, uint256 rFee, uint256 tTransferAmount, uint256 tFee, uint256 tTotalFee) = _getValues(tAmount) */\n      swap6\n      swap12\n      pop\n      swap4\n      swap10\n      pop\n      swap2\n      swap8\n      pop\n      swap6\n      pop\n      swap4\n      pop\n      swap2\n      pop\n        /* \"contracts/SOlar.sol\":41462:41490  _rOwned[sender].sub(rAmount) */\n      tag_650\n      swap1\n        /* \"contracts/SOlar.sol\":41293:41429  (uint256 rAmount, uint256 rTransferAmount, uint256 rFee, uint256 tTransferAmount, uint256 tFee, uint256 tTotalFee) = _getValues(tAmount) */\n      dup8\n        /* \"contracts/SOlar.sol\":41462:41481  _rOwned[sender].sub */\n      tag_324\n        /* \"contracts/SOlar.sol\":41462:41490  _rOwned[sender].sub(rAmount) */\n      jump\t// in\n        /* \"contracts/SOlar.sol\":42971:43650  function _transferBothExcluded(address sender, address recipient, uint256 tAmount) private {... */\n    tag_597:\n        /* \"contracts/SOlar.sol\":43078:43093  uint256 rAmount */\n      0x00\n        /* \"contracts/SOlar.sol\":43095:43118  uint256 rTransferAmount */\n      dup1\n        /* \"contracts/SOlar.sol\":43120:43132  uint256 rFee */\n      0x00\n        /* \"contracts/SOlar.sol\":43134:43157  uint256 tTransferAmount */\n      dup1\n        /* \"contracts/SOlar.sol\":43159:43171  uint256 tFee */\n      0x00\n        /* \"contracts/SOlar.sol\":43173:43190  uint256 tTotalFee */\n      dup1\n        /* \"contracts/SOlar.sol\":43194:43213  _getValues(tAmount) */\n      tag_673\n        /* \"contracts/SOlar.sol\":43205:43212  tAmount */\n      dup8\n        /* \"contracts/SOlar.sol\":43194:43204  _getValues */\n      tag_322\n        /* \"contracts/SOlar.sol\":43194:43213  _getValues(tAmount) */\n      jump\t// in\n    tag_673:\n      sub(shl(0xa0, 0x01), 0x01)\n        /* \"contracts/SOlar.sol\":43246:43261  _tOwned[sender] */\n      dup16\n      and\n      0x00\n      swap1\n      dup2\n      mstore\n        /* \"contracts/SOlar.sol\":43246:43253  _tOwned */\n      0x04\n        /* \"contracts/SOlar.sol\":43246:43261  _tOwned[sender] */\n      0x20\n      mstore\n      0x40\n      swap1\n      keccak256\n      sload\n        /* \"contracts/SOlar.sol\":43077:43213  (uint256 rAmount, uint256 rTransferAmount, uint256 rFee, uint256 tTransferAmount, uint256 tFee, uint256 tTotalFee) = _getValues(tAmount) */\n      swap6\n      swap12\n      pop\n      swap4\n      swap10\n      pop\n      swap2\n      swap8\n      pop\n      swap6\n      pop\n      swap4\n      pop\n      swap2\n      pop\n        /* \"contracts/SOlar.sol\":43246:43274  _tOwned[sender].sub(tAmount) */\n      tag_674\n      swap1\n        /* \"contracts/SOlar.sol\":43266:43273  tAmount */\n      dup9\n        /* \"contracts/SOlar.sol\":43246:43265  _tOwned[sender].sub */\n      tag_324\n        /* \"contracts/SOlar.sol\":43246:43274  _tOwned[sender].sub(tAmount) */\n      jump\t// in\n    tag_674:\n      sub(shl(0xa0, 0x01), 0x01)\n        /* \"contracts/SOlar.sol\":43228:43243  _tOwned[sender] */\n      dup11\n      and\n      0x00\n      swap1\n      dup2\n      mstore\n        /* \"contracts/SOlar.sol\":43228:43235  _tOwned */\n      0x04\n        /* \"contracts/SOlar.sol\":43228:43243  _tOwned[sender] */\n      0x20\n      swap1\n      dup2\n      mstore\n      0x40\n      dup1\n      dup4\n      keccak256\n        /* \"contracts/SOlar.sol\":43228:43274  _tOwned[sender] = _tOwned[sender].sub(tAmount) */\n      swap4\n      swap1\n      swap4\n      sstore\n        /* \"contracts/SOlar.sol\":43307:43314  _rOwned */\n      0x03\n        /* \"contracts/SOlar.sol\":43307:43322  _rOwned[sender] */\n      swap1\n      mstore\n      keccak256\n      sload\n        /* \"contracts/SOlar.sol\":43307:43335  _rOwned[sender].sub(rAmount) */\n      tag_659\n      swap1\n        /* \"contracts/SOlar.sol\":43327:43334  rAmount */\n      dup8\n        /* \"contracts/SOlar.sol\":43307:43326  _rOwned[sender].sub */\n      tag_324\n        /* \"contracts/SOlar.sol\":43307:43335  _rOwned[sender].sub(rAmount) */\n      jump\t// in\n        /* \"contracts/SOlar.sol\":5151:5662  function mul(uint256 a, uint256 b) internal pure returns (uint256) {... */\n    tag_632:\n        /* \"contracts/SOlar.sol\":5209:5216  uint256 */\n      0x00\n        /* \"contracts/SOlar.sol\":5470:5471  a */\n      dup3\n        /* \"contracts/SOlar.sol\":5475:5476  0 */\n      0x00\n        /* \"contracts/SOlar.sol\":5470:5476  a == 0 */\n      sub\n        /* \"contracts/SOlar.sol\":5466:5521  if (a == 0) {... */\n      tag_683\n      jumpi\n      pop\n        /* \"contracts/SOlar.sol\":5504:5505  0 */\n      0x00\n        /* \"contracts/SOlar.sol\":5497:5505  return 0 */\n      jump(tag_277)\n        /* \"contracts/SOlar.sol\":5466:5521  if (a == 0) {... */\n    tag_683:\n        /* \"contracts/SOlar.sol\":5537:5546  uint256 c */\n      0x00\n        /* \"contracts/SOlar.sol\":5549:5554  a * b */\n      tag_684\n        /* \"contracts/SOlar.sol\":5553:5554  b */\n      dup4\n        /* \"contracts/SOlar.sol\":5549:5550  a */\n      dup6\n        /* \"contracts/SOlar.sol\":5549:5554  a * b */\n      tag_685\n      jump\t// in\n    tag_684:\n        /* \"contracts/SOlar.sol\":5537:5554  uint256 c = a * b */\n      swap1\n      pop\n        /* \"contracts/SOlar.sol\":5586:5587  b */\n      dup3\n        /* \"contracts/SOlar.sol\":5577:5582  c / a */\n      tag_686\n        /* \"contracts/SOlar.sol\":5581:5582  a */\n      dup6\n        /* \"contracts/SOlar.sol\":5537:5554  uint256 c = a * b */\n      dup4\n        /* \"contracts/SOlar.sol\":5577:5582  c / a */\n      tag_566\n      jump\t// in\n    tag_686:\n        /* \"contracts/SOlar.sol\":5577:5587  c / a == b */\n      eq\n        /* \"contracts/SOlar.sol\":5569:5625  require(c / a == b, \"SafeMath: multiplication overflow\") */\n      tag_307\n      jumpi\n      mload(0x40)\n      shl(0xe5, 0x461bcd)\n      dup2\n      mstore\n        /* \"#utility.yul\":15265:15267   */\n      0x20\n        /* \"contracts/SOlar.sol\":5569:5625  require(c / a == b, \"SafeMath: multiplication overflow\") */\n      0x04\n      dup3\n      add\n        /* \"#utility.yul\":15247:15268   */\n      mstore\n        /* \"#utility.yul\":15304:15306   */\n      0x21\n        /* \"#utility.yul\":15284:15302   */\n      0x24\n      dup3\n      add\n        /* \"#utility.yul\":15277:15307   */\n      mstore\n        /* \"#utility.yul\":15343:15377   */\n      0x536166654d6174683a206d756c7469706c69636174696f6e206f766572666c6f\n        /* \"#utility.yul\":15323:15341   */\n      0x44\n      dup3\n      add\n        /* \"#utility.yul\":15316:15378   */\n      mstore\n      shl(0xf8, 0x77)\n        /* \"#utility.yul\":15394:15412   */\n      0x64\n      dup3\n      add\n        /* \"#utility.yul\":15387:15418   */\n      mstore\n        /* \"#utility.yul\":15435:15454   */\n      0x84\n      add\n        /* \"contracts/SOlar.sol\":5569:5625  require(c / a == b, \"SafeMath: multiplication overflow\") */\n      tag_287\n        /* \"#utility.yul\":15063:15460   */\n      jump\n        /* \"contracts/SOlar.sol\":43662:44035  function _takeTotalFee(uint256 tTotalFee) private {... */\n    tag_653:\n        /* \"contracts/SOlar.sol\":43727:43746  uint256 currentRate */\n      0x00\n        /* \"contracts/SOlar.sol\":43750:43760  _getRate() */\n      tag_691\n        /* \"contracts/SOlar.sol\":43750:43758  _getRate */\n      tag_306\n        /* \"contracts/SOlar.sol\":43750:43760  _getRate() */\n      jump\t// in\n    tag_691:\n        /* \"contracts/SOlar.sol\":43727:43760  uint256 currentRate =  _getRate() */\n      swap1\n      pop\n        /* \"contracts/SOlar.sol\":43775:43792  uint256 rTotalFee */\n      0x00\n        /* \"contracts/SOlar.sol\":43795:43821  tTotalFee.mul(currentRate) */\n      tag_692\n        /* \"contracts/SOlar.sol\":43795:43804  tTotalFee */\n      dup4\n        /* \"contracts/SOlar.sol\":43727:43760  uint256 currentRate =  _getRate() */\n      dup4\n        /* \"contracts/SOlar.sol\":43795:43808  tTotalFee.mul */\n      tag_632\n        /* \"contracts/SOlar.sol\":43795:43821  tTotalFee.mul(currentRate) */\n      jump\t// in\n    tag_692:\n        /* \"contracts/SOlar.sol\":43877:43881  this */\n      address\n        /* \"contracts/SOlar.sol\":43861:43883  _rOwned[address(this)] */\n      0x00\n      swap1\n      dup2\n      mstore\n        /* \"contracts/SOlar.sol\":43861:43868  _rOwned */\n      0x03\n        /* \"contracts/SOlar.sol\":43861:43883  _rOwned[address(this)] */\n      0x20\n      mstore\n      0x40\n      swap1\n      keccak256\n      sload\n        /* \"contracts/SOlar.sol\":43775:43821  uint256 rTotalFee = tTotalFee.mul(currentRate) */\n      swap1\n      swap2\n      pop\n        /* \"contracts/SOlar.sol\":43861:43898  _rOwned[address(this)].add(rTotalFee) */\n      tag_693\n      swap1\n        /* \"contracts/SOlar.sol\":43775:43821  uint256 rTotalFee = tTotalFee.mul(currentRate) */\n      dup3\n        /* \"contracts/SOlar.sol\":43861:43887  _rOwned[address(this)].add */\n      tag_315\n        /* \"contracts/SOlar.sol\":43861:43898  _rOwned[address(this)].add(rTotalFee) */\n      jump\t// in\n    tag_693:\n        /* \"contracts/SOlar.sol\":43852:43856  this */\n      address\n        /* \"contracts/SOlar.sol\":43836:43858  _rOwned[address(this)] */\n      0x00\n      swap1\n      dup2\n      mstore\n        /* \"contracts/SOlar.sol\":43836:43843  _rOwned */\n      0x03\n        /* \"contracts/SOlar.sol\":43836:43858  _rOwned[address(this)] */\n      0x20\n      swap1\n      dup2\n      mstore\n      0x40\n      dup1\n      dup4\n      keccak256\n        /* \"contracts/SOlar.sol\":43836:43898  _rOwned[address(this)] = _rOwned[address(this)].add(rTotalFee) */\n      swap4\n      swap1\n      swap4\n      sstore\n        /* \"contracts/SOlar.sol\":43916:43927  _isExcluded */\n      0x07\n        /* \"contracts/SOlar.sol\":43916:43942  _isExcluded[address(this)] */\n      swap1\n      mstore\n      keccak256\n      sload\n      0xff\n      and\n        /* \"contracts/SOlar.sol\":43913:44023  if(_isExcluded[address(this)])... */\n      iszero\n      tag_574\n      jumpi\n        /* \"contracts/SOlar.sol\":44002:44006  this */\n      address\n        /* \"contracts/SOlar.sol\":43986:44008  _tOwned[address(this)] */\n      0x00\n      swap1\n      dup2\n      mstore\n        /* \"contracts/SOlar.sol\":43986:43993  _tOwned */\n      0x04\n        /* \"contracts/SOlar.sol\":43986:44008  _tOwned[address(this)] */\n      0x20\n      mstore\n      0x40\n      swap1\n      keccak256\n      sload\n        /* \"contracts/SOlar.sol\":43986:44023  _tOwned[address(this)].add(tTotalFee) */\n      tag_695\n      swap1\n        /* \"contracts/SOlar.sol\":44013:44022  tTotalFee */\n      dup5\n        /* \"contracts/SOlar.sol\":43986:44012  _tOwned[address(this)].add */\n      tag_315\n        /* \"contracts/SOlar.sol\":43986:44023  _tOwned[address(this)].add(tTotalFee) */\n      jump\t// in\n    tag_695:\n        /* \"contracts/SOlar.sol\":43977:43981  this */\n      address\n        /* \"contracts/SOlar.sol\":43961:43983  _tOwned[address(this)] */\n      0x00\n      swap1\n      dup2\n      mstore\n        /* \"contracts/SOlar.sol\":43961:43968  _tOwned */\n      0x04\n        /* \"contracts/SOlar.sol\":43961:43983  _tOwned[address(this)] */\n      0x20\n      mstore\n      0x40\n      swap1\n      keccak256\n        /* \"contracts/SOlar.sol\":43961:44023  _tOwned[address(this)] = _tOwned[address(this)].add(tTotalFee) */\n      sstore\n        /* \"contracts/SOlar.sol\":43712:44035  {... */\n      pop\n      pop\n        /* \"contracts/SOlar.sol\":43662:44035  function _takeTotalFee(uint256 tTotalFee) private {... */\n      pop\n      jump\t// out\n        /* \"contracts/SOlar.sol\":44047:44206  function _reflectFee(uint256 rFee, uint256 tFee) private {... */\n    tag_655:\n        /* \"contracts/SOlar.sol\":44129:44136  _rTotal */\n      sload(0x0a)\n        /* \"contracts/SOlar.sol\":44129:44146  _rTotal.sub(rFee) */\n      tag_697\n      swap1\n        /* \"contracts/SOlar.sol\":44141:44145  rFee */\n      dup4\n        /* \"contracts/SOlar.sol\":44129:44140  _rTotal.sub */\n      tag_324\n        /* \"contracts/SOlar.sol\":44129:44146  _rTotal.sub(rFee) */\n      jump\t// in\n    tag_697:\n        /* \"contracts/SOlar.sol\":44119:44126  _rTotal */\n      0x0a\n        /* \"contracts/SOlar.sol\":44119:44146  _rTotal = _rTotal.sub(rFee) */\n      sstore\n        /* \"contracts/SOlar.sol\":44174:44184  _tFeeTotal */\n      sload(0x0b)\n        /* \"contracts/SOlar.sol\":44174:44194  _tFeeTotal.add(tFee) */\n      tag_698\n      swap1\n        /* \"contracts/SOlar.sol\":44189:44193  tFee */\n      dup3\n        /* \"contracts/SOlar.sol\":44174:44188  _tFeeTotal.add */\n      tag_315\n        /* \"contracts/SOlar.sol\":44174:44194  _tFeeTotal.add(tFee) */\n      jump\t// in\n    tag_698:\n        /* \"contracts/SOlar.sol\":44161:44171  _tFeeTotal */\n      0x0b\n        /* \"contracts/SOlar.sol\":44161:44194  _tFeeTotal = _tFeeTotal.add(tFee) */\n      sstore\n      pop\n      pop\n        /* \"contracts/SOlar.sol\":44047:44206  function _reflectFee(uint256 rFee, uint256 tFee) private {... */\n      jump\t// out\n        /* \"#utility.yul\":14:562   */\n    tag_63:\n        /* \"#utility.yul\":126:130   */\n      0x00\n        /* \"#utility.yul\":155:157   */\n      0x20\n        /* \"#utility.yul\":184:186   */\n      dup1\n        /* \"#utility.yul\":173:182   */\n      dup4\n        /* \"#utility.yul\":166:187   */\n      mstore\n        /* \"#utility.yul\":216:222   */\n      dup4\n        /* \"#utility.yul\":210:223   */\n      mload\n        /* \"#utility.yul\":259:265   */\n      dup1\n        /* \"#utility.yul\":254:256   */\n      0x20\n        /* \"#utility.yul\":243:252   */\n      dup6\n        /* \"#utility.yul\":239:257   */\n      add\n        /* \"#utility.yul\":232:266   */\n      mstore\n        /* \"#utility.yul\":284:285   */\n      0x00\n        /* \"#utility.yul\":294:434   */\n    tag_704:\n        /* \"#utility.yul\":308:314   */\n      dup2\n        /* \"#utility.yul\":305:306   */\n      dup2\n        /* \"#utility.yul\":302:315   */\n      lt\n        /* \"#utility.yul\":294:434   */\n      iszero\n      tag_706\n      jumpi\n        /* \"#utility.yul\":403:417   */\n      dup6\n      dup2\n      add\n        /* \"#utility.yul\":399:422   */\n      dup4\n      add\n        /* \"#utility.yul\":393:423   */\n      mload\n        /* \"#utility.yul\":369:386   */\n      dup6\n      dup3\n      add\n        /* \"#utility.yul\":388:390   */\n      0x40\n        /* \"#utility.yul\":365:391   */\n      add\n        /* \"#utility.yul\":358:424   */\n      mstore\n        /* \"#utility.yul\":323:333   */\n      dup3\n      add\n        /* \"#utility.yul\":294:434   */\n      jump(tag_704)\n    tag_706:\n        /* \"#utility.yul\":298:301   */\n      pop\n        /* \"#utility.yul\":483:484   */\n      0x00\n        /* \"#utility.yul\":478:480   */\n      0x40\n        /* \"#utility.yul\":469:475   */\n      dup3\n        /* \"#utility.yul\":458:467   */\n      dup7\n        /* \"#utility.yul\":454:476   */\n      add\n        /* \"#utility.yul\":450:481   */\n      add\n        /* \"#utility.yul\":443:485   */\n      mstore\n        /* \"#utility.yul\":553:555   */\n      0x40\n        /* \"#utility.yul\":546:548   */\n      0x1f\n        /* \"#utility.yul\":542:549   */\n      not\n        /* \"#utility.yul\":537:539   */\n      0x1f\n        /* \"#utility.yul\":529:535   */\n      dup4\n        /* \"#utility.yul\":525:540   */\n      add\n        /* \"#utility.yul\":521:550   */\n      and\n        /* \"#utility.yul\":510:519   */\n      dup6\n        /* \"#utility.yul\":506:551   */\n      add\n        /* \"#utility.yul\":502:556   */\n      add\n        /* \"#utility.yul\":494:556   */\n      swap3\n      pop\n      pop\n      pop\n        /* \"#utility.yul\":14:562   */\n      swap3\n      swap2\n      pop\n      pop\n      jump\t// out\n        /* \"#utility.yul\":567:698   */\n    tag_699:\n      sub(shl(0xa0, 0x01), 0x01)\n        /* \"#utility.yul\":642:673   */\n      dup2\n      and\n        /* \"#utility.yul\":632:674   */\n      dup2\n      eq\n        /* \"#utility.yul\":622:692   */\n      tag_341\n      jumpi\n        /* \"#utility.yul\":688:689   */\n      0x00\n        /* \"#utility.yul\":685:686   */\n      dup1\n        /* \"#utility.yul\":678:690   */\n      revert\n        /* \"#utility.yul\":703:1018   */\n    tag_67:\n        /* \"#utility.yul\":771:777   */\n      0x00\n        /* \"#utility.yul\":779:785   */\n      dup1\n        /* \"#utility.yul\":832:834   */\n      0x40\n        /* \"#utility.yul\":820:829   */\n      dup4\n        /* \"#utility.yul\":811:818   */\n      dup6\n        /* \"#utility.yul\":807:830   */\n      sub\n        /* \"#utility.yul\":803:835   */\n      slt\n        /* \"#utility.yul\":800:852   */\n      iszero\n      tag_710\n      jumpi\n        /* \"#utility.yul\":848:849   */\n      0x00\n        /* \"#utility.yul\":845:846   */\n      dup1\n        /* \"#utility.yul\":838:850   */\n      revert\n        /* \"#utility.yul\":800:852   */\n    tag_710:\n        /* \"#utility.yul\":887:896   */\n      dup3\n        /* \"#utility.yul\":874:897   */\n      calldataload\n        /* \"#utility.yul\":906:937   */\n      tag_711\n        /* \"#utility.yul\":931:936   */\n      dup2\n        /* \"#utility.yul\":906:937   */\n      tag_699\n      jump\t// in\n    tag_711:\n        /* \"#utility.yul\":956:961   */\n      swap5\n        /* \"#utility.yul\":1008:1010   */\n      0x20\n        /* \"#utility.yul\":993:1011   */\n      swap4\n      swap1\n      swap4\n      add\n        /* \"#utility.yul\":980:1012   */\n      calldataload\n      swap4\n      pop\n      pop\n      pop\n        /* \"#utility.yul\":703:1018   */\n      jump\t// out\n        /* \"#utility.yul\":1632:1812   */\n    tag_88:\n        /* \"#utility.yul\":1691:1697   */\n      0x00\n        /* \"#utility.yul\":1744:1746   */\n      0x20\n        /* \"#utility.yul\":1732:1741   */\n      dup3\n        /* \"#utility.yul\":1723:1730   */\n      dup5\n        /* \"#utility.yul\":1719:1742   */\n      sub\n        /* \"#utility.yul\":1715:1747   */\n      slt\n        /* \"#utility.yul\":1712:1764   */\n      iszero\n      tag_716\n      jumpi\n        /* \"#utility.yul\":1760:1761   */\n      0x00\n        /* \"#utility.yul\":1757:1758   */\n      dup1\n        /* \"#utility.yul\":1750:1762   */\n      revert\n        /* \"#utility.yul\":1712:1764   */\n    tag_716:\n      pop\n        /* \"#utility.yul\":1783:1806   */\n      calldataload\n      swap2\n        /* \"#utility.yul\":1632:1812   */\n      swap1\n      pop\n      jump\t// out\n        /* \"#utility.yul\":1817:2273   */\n    tag_93:\n        /* \"#utility.yul\":1894:1900   */\n      0x00\n        /* \"#utility.yul\":1902:1908   */\n      dup1\n        /* \"#utility.yul\":1910:1916   */\n      0x00\n        /* \"#utility.yul\":1963:1965   */\n      0x60\n        /* \"#utility.yul\":1951:1960   */\n      dup5\n        /* \"#utility.yul\":1942:1949   */\n      dup7\n        /* \"#utility.yul\":1938:1961   */\n      sub\n        /* \"#utility.yul\":1934:1966   */\n      slt\n        /* \"#utility.yul\":1931:1983   */\n      iszero\n      tag_718\n      jumpi\n        /* \"#utility.yul\":1979:1980   */\n      0x00\n        /* \"#utility.yul\":1976:1977   */\n      dup1\n        /* \"#utility.yul\":1969:1981   */\n      revert\n        /* \"#utility.yul\":1931:1983   */\n    tag_718:\n        /* \"#utility.yul\":2018:2027   */\n      dup4\n        /* \"#utility.yul\":2005:2028   */\n      calldataload\n        /* \"#utility.yul\":2037:2068   */\n      tag_719\n        /* \"#utility.yul\":2062:2067   */\n      dup2\n        /* \"#utility.yul\":2037:2068   */\n      tag_699\n      jump\t// in\n    tag_719:\n        /* \"#utility.yul\":2087:2092   */\n      swap3\n      pop\n        /* \"#utility.yul\":2144:2146   */\n      0x20\n        /* \"#utility.yul\":2129:2147   */\n      dup5\n      add\n        /* \"#utility.yul\":2116:2148   */\n      calldataload\n        /* \"#utility.yul\":2157:2190   */\n      tag_720\n        /* \"#utility.yul\":2116:2148   */\n      dup2\n        /* \"#utility.yul\":2157:2190   */\n      tag_699\n      jump\t// in\n    tag_720:\n        /* \"#utility.yul\":1817:2273   */\n      swap3\n      swap6\n        /* \"#utility.yul\":2209:2216   */\n      swap3\n      swap5\n      pop\n      pop\n      pop\n        /* \"#utility.yul\":2263:2265   */\n      0x40\n        /* \"#utility.yul\":2248:2266   */\n      swap2\n      swap1\n      swap2\n      add\n        /* \"#utility.yul\":2235:2267   */\n      calldataload\n      swap1\n        /* \"#utility.yul\":1817:2273   */\n      jump\t// out\n        /* \"#utility.yul\":2467:2627   */\n    tag_700:\n        /* \"#utility.yul\":2532:2552   */\n      dup1\n      calldataload\n        /* \"#utility.yul\":2588:2601   */\n      dup1\n      iszero\n        /* \"#utility.yul\":2581:2602   */\n      iszero\n        /* \"#utility.yul\":2571:2603   */\n      dup2\n      eq\n        /* \"#utility.yul\":2561:2621   */\n      tag_723\n      jumpi\n        /* \"#utility.yul\":2617:2618   */\n      0x00\n        /* \"#utility.yul\":2614:2615   */\n      dup1\n        /* \"#utility.yul\":2607:2619   */\n      revert\n        /* \"#utility.yul\":2561:2621   */\n    tag_723:\n        /* \"#utility.yul\":2467:2627   */\n      swap2\n      swap1\n      pop\n      jump\t// out\n        /* \"#utility.yul\":2632:2880   */\n    tag_122:\n        /* \"#utility.yul\":2697:2703   */\n      0x00\n        /* \"#utility.yul\":2705:2711   */\n      dup1\n        /* \"#utility.yul\":2758:2760   */\n      0x40\n        /* \"#utility.yul\":2746:2755   */\n      dup4\n        /* \"#utility.yul\":2737:2744   */\n      dup6\n        /* \"#utility.yul\":2733:2756   */\n      sub\n        /* \"#utility.yul\":2729:2761   */\n      slt\n        /* \"#utility.yul\":2726:2778   */\n      iszero\n      tag_725\n      jumpi\n        /* \"#utility.yul\":2774:2775   */\n      0x00\n        /* \"#utility.yul\":2771:2772   */\n      dup1\n        /* \"#utility.yul\":2764:2776   */\n      revert\n        /* \"#utility.yul\":2726:2778   */\n    tag_725:\n        /* \"#utility.yul\":2810:2819   */\n      dup3\n        /* \"#utility.yul\":2797:2820   */\n      calldataload\n        /* \"#utility.yul\":2787:2820   */\n      swap2\n      pop\n        /* \"#utility.yul\":2839:2874   */\n      tag_726\n        /* \"#utility.yul\":2870:2872   */\n      0x20\n        /* \"#utility.yul\":2859:2868   */\n      dup5\n        /* \"#utility.yul\":2855:2873   */\n      add\n        /* \"#utility.yul\":2839:2874   */\n      tag_700\n      jump\t// in\n    tag_726:\n        /* \"#utility.yul\":2829:2874   */\n      swap1\n      pop\n        /* \"#utility.yul\":2632:2880   */\n      swap3\n      pop\n      swap3\n      swap1\n      pop\n      jump\t// out\n        /* \"#utility.yul\":3093:3340   */\n    tag_140:\n        /* \"#utility.yul\":3152:3158   */\n      0x00\n        /* \"#utility.yul\":3205:3207   */\n      0x20\n        /* \"#utility.yul\":3193:3202   */\n      dup3\n        /* \"#utility.yul\":3184:3191   */\n      dup5\n        /* \"#utility.yul\":3180:3203   */\n      sub\n        /* \"#utility.yul\":3176:3208   */\n      slt\n        /* \"#utility.yul\":3173:3225   */\n      iszero\n      tag_729\n      jumpi\n        /* \"#utility.yul\":3221:3222   */\n      0x00\n        /* \"#utility.yul\":3218:3219   */\n      dup1\n        /* \"#utility.yul\":3211:3223   */\n      revert\n        /* \"#utility.yul\":3173:3225   */\n    tag_729:\n        /* \"#utility.yul\":3260:3269   */\n      dup2\n        /* \"#utility.yul\":3247:3270   */\n      calldataload\n        /* \"#utility.yul\":3279:3310   */\n      tag_307\n        /* \"#utility.yul\":3304:3309   */\n      dup2\n        /* \"#utility.yul\":3279:3310   */\n      tag_699\n      jump\t// in\n        /* \"#utility.yul\":3569:3884   */\n    tag_211:\n        /* \"#utility.yul\":3634:3640   */\n      0x00\n        /* \"#utility.yul\":3642:3648   */\n      dup1\n        /* \"#utility.yul\":3695:3697   */\n      0x40\n        /* \"#utility.yul\":3683:3692   */\n      dup4\n        /* \"#utility.yul\":3674:3681   */\n      dup6\n        /* \"#utility.yul\":3670:3693   */\n      sub\n        /* \"#utility.yul\":3666:3698   */\n      slt\n        /* \"#utility.yul\":3663:3715   */\n      iszero\n      tag_733\n      jumpi\n        /* \"#utility.yul\":3711:3712   */\n      0x00\n        /* \"#utility.yul\":3708:3709   */\n      dup1\n        /* \"#utility.yul\":3701:3713   */\n      revert\n        /* \"#utility.yul\":3663:3715   */\n    tag_733:\n        /* \"#utility.yul\":3750:3759   */\n      dup3\n        /* \"#utility.yul\":3737:3760   */\n      calldataload\n        /* \"#utility.yul\":3769:3800   */\n      tag_734\n        /* \"#utility.yul\":3794:3799   */\n      dup2\n        /* \"#utility.yul\":3769:3800   */\n      tag_699\n      jump\t// in\n    tag_734:\n        /* \"#utility.yul\":3819:3824   */\n      swap2\n      pop\n        /* \"#utility.yul\":3843:3878   */\n      tag_726\n        /* \"#utility.yul\":3874:3876   */\n      0x20\n        /* \"#utility.yul\":3859:3877   */\n      dup5\n      add\n        /* \"#utility.yul\":3843:3878   */\n      tag_700\n      jump\t// in\n        /* \"#utility.yul\":3889:4274   */\n    tag_233:\n        /* \"#utility.yul\":3975:3981   */\n      0x00\n        /* \"#utility.yul\":3983:3989   */\n      dup1\n        /* \"#utility.yul\":3991:3997   */\n      0x00\n        /* \"#utility.yul\":3999:4005   */\n      dup1\n        /* \"#utility.yul\":4052:4055   */\n      0x80\n        /* \"#utility.yul\":4040:4049   */\n      dup6\n        /* \"#utility.yul\":4031:4038   */\n      dup8\n        /* \"#utility.yul\":4027:4050   */\n      sub\n        /* \"#utility.yul\":4023:4056   */\n      slt\n        /* \"#utility.yul\":4020:4073   */\n      iszero\n      tag_737\n      jumpi\n        /* \"#utility.yul\":4069:4070   */\n      0x00\n        /* \"#utility.yul\":4066:4067   */\n      dup1\n        /* \"#utility.yul\":4059:4071   */\n      revert\n        /* \"#utility.yul\":4020:4073   */\n    tag_737:\n      pop\n      pop\n        /* \"#utility.yul\":4092:4115   */\n      dup3\n      calldataload\n      swap5\n        /* \"#utility.yul\":4162:4164   */\n      0x20\n        /* \"#utility.yul\":4147:4165   */\n      dup5\n      add\n        /* \"#utility.yul\":4134:4166   */\n      calldataload\n      swap5\n      pop\n        /* \"#utility.yul\":4213:4215   */\n      0x40\n        /* \"#utility.yul\":4198:4216   */\n      dup5\n      add\n        /* \"#utility.yul\":4185:4217   */\n      calldataload\n      swap4\n        /* \"#utility.yul\":4264:4266   */\n      0x60\n        /* \"#utility.yul\":4249:4267   */\n      add\n        /* \"#utility.yul\":4236:4268   */\n      calldataload\n      swap3\n      pop\n        /* \"#utility.yul\":3889:4274   */\n      swap1\n      pop\n      jump\t// out\n        /* \"#utility.yul\":4279:4667   */\n    tag_242:\n        /* \"#utility.yul\":4347:4353   */\n      0x00\n        /* \"#utility.yul\":4355:4361   */\n      dup1\n        /* \"#utility.yul\":4408:4410   */\n      0x40\n        /* \"#utility.yul\":4396:4405   */\n      dup4\n        /* \"#utility.yul\":4387:4394   */\n      dup6\n        /* \"#utility.yul\":4383:4406   */\n      sub\n        /* \"#utility.yul\":4379:4411   */\n      slt\n        /* \"#utility.yul\":4376:4428   */\n      iszero\n      tag_739\n      jumpi\n        /* \"#utility.yul\":4424:4425   */\n      0x00\n        /* \"#utility.yul\":4421:4422   */\n      dup1\n        /* \"#utility.yul\":4414:4426   */\n      revert\n        /* \"#utility.yul\":4376:4428   */\n    tag_739:\n        /* \"#utility.yul\":4463:4472   */\n      dup3\n        /* \"#utility.yul\":4450:4473   */\n      calldataload\n        /* \"#utility.yul\":4482:4513   */\n      tag_740\n        /* \"#utility.yul\":4507:4512   */\n      dup2\n        /* \"#utility.yul\":4482:4513   */\n      tag_699\n      jump\t// in\n    tag_740:\n        /* \"#utility.yul\":4532:4537   */\n      swap2\n      pop\n        /* \"#utility.yul\":4589:4591   */\n      0x20\n        /* \"#utility.yul\":4574:4592   */\n      dup4\n      add\n        /* \"#utility.yul\":4561:4593   */\n      calldataload\n        /* \"#utility.yul\":4602:4635   */\n      tag_741\n        /* \"#utility.yul\":4561:4593   */\n      dup2\n        /* \"#utility.yul\":4602:4635   */\n      tag_699\n      jump\t// in\n    tag_741:\n        /* \"#utility.yul\":4654:4661   */\n      dup1\n        /* \"#utility.yul\":4644:4661   */\n      swap2\n      pop\n      pop\n        /* \"#utility.yul\":4279:4667   */\n      swap3\n      pop\n      swap3\n      swap1\n      pop\n      jump\t// out\n        /* \"#utility.yul\":4672:4852   */\n    tag_248:\n        /* \"#utility.yul\":4728:4734   */\n      0x00\n        /* \"#utility.yul\":4781:4783   */\n      0x20\n        /* \"#utility.yul\":4769:4778   */\n      dup3\n        /* \"#utility.yul\":4760:4767   */\n      dup5\n        /* \"#utility.yul\":4756:4779   */\n      sub\n        /* \"#utility.yul\":4752:4784   */\n      slt\n        /* \"#utility.yul\":4749:4801   */\n      iszero\n      tag_743\n      jumpi\n        /* \"#utility.yul\":4797:4798   */\n      0x00\n        /* \"#utility.yul\":4794:4795   */\n      dup1\n        /* \"#utility.yul\":4787:4799   */\n      revert\n        /* \"#utility.yul\":4749:4801   */\n    tag_743:\n        /* \"#utility.yul\":4820:4846   */\n      tag_307\n        /* \"#utility.yul\":4836:4845   */\n      dup3\n        /* \"#utility.yul\":4820:4846   */\n      tag_700\n      jump\t// in\n        /* \"#utility.yul\":4857:5237   */\n    tag_272:\n        /* \"#utility.yul\":4936:4937   */\n      0x01\n        /* \"#utility.yul\":4932:4944   */\n      dup2\n      dup2\n      shr\n      swap1\n        /* \"#utility.yul\":4979:4991   */\n      dup3\n      and\n      dup1\n        /* \"#utility.yul\":5000:5061   */\n      tag_746\n      jumpi\n        /* \"#utility.yul\":5054:5058   */\n      0x7f\n        /* \"#utility.yul\":5046:5052   */\n      dup3\n        /* \"#utility.yul\":5042:5059   */\n      and\n        /* \"#utility.yul\":5032:5059   */\n      swap2\n      pop\n        /* \"#utility.yul\":5000:5061   */\n    tag_746:\n        /* \"#utility.yul\":5107:5109   */\n      0x20\n        /* \"#utility.yul\":5099:5105   */\n      dup3\n        /* \"#utility.yul\":5096:5110   */\n      lt\n        /* \"#utility.yul\":5076:5094   */\n      dup2\n        /* \"#utility.yul\":5073:5111   */\n      sub\n        /* \"#utility.yul\":5070:5231   */\n      tag_747\n      jumpi\n        /* \"#utility.yul\":5153:5163   */\n      0x4e487b71\n        /* \"#utility.yul\":5148:5151   */\n      0xe0\n        /* \"#utility.yul\":5144:5164   */\n      shl\n        /* \"#utility.yul\":5141:5142   */\n      0x00\n        /* \"#utility.yul\":5134:5165   */\n      mstore\n        /* \"#utility.yul\":5188:5192   */\n      0x22\n        /* \"#utility.yul\":5185:5186   */\n      0x04\n        /* \"#utility.yul\":5178:5193   */\n      mstore\n        /* \"#utility.yul\":5216:5220   */\n      0x24\n        /* \"#utility.yul\":5213:5214   */\n      0x00\n        /* \"#utility.yul\":5206:5221   */\n      revert\n        /* \"#utility.yul\":5070:5231   */\n    tag_747:\n      pop\n        /* \"#utility.yul\":4857:5237   */\n      swap2\n      swap1\n      pop\n      jump\t// out\n        /* \"#utility.yul\":5242:5598   */\n    tag_288:\n        /* \"#utility.yul\":5444:5446   */\n      0x20\n        /* \"#utility.yul\":5426:5447   */\n      dup1\n      dup3\n      mstore\n        /* \"#utility.yul\":5463:5481   */\n      dup2\n      dup2\n      add\n        /* \"#utility.yul\":5456:5486   */\n      mstore\n        /* \"#utility.yul\":5522:5556   */\n      0x4f776e61626c653a2063616c6c6572206973206e6f7420746865206f776e6572\n        /* \"#utility.yul\":5517:5519   */\n      0x40\n        /* \"#utility.yul\":5502:5520   */\n      dup3\n      add\n        /* \"#utility.yul\":5495:5557   */\n      mstore\n        /* \"#utility.yul\":5589:5591   */\n      0x60\n        /* \"#utility.yul\":5574:5592   */\n      add\n      swap1\n        /* \"#utility.yul\":5242:5598   */\n      jump\t// out\n        /* \"#utility.yul\":7963:8090   */\n    tag_701:\n        /* \"#utility.yul\":8024:8034   */\n      0x4e487b71\n        /* \"#utility.yul\":8019:8022   */\n      0xe0\n        /* \"#utility.yul\":8015:8035   */\n      shl\n        /* \"#utility.yul\":8012:8013   */\n      0x00\n        /* \"#utility.yul\":8005:8036   */\n      mstore\n        /* \"#utility.yul\":8055:8059   */\n      0x11\n        /* \"#utility.yul\":8052:8053   */\n      0x04\n        /* \"#utility.yul\":8045:8060   */\n      mstore\n        /* \"#utility.yul\":8079:8083   */\n      0x24\n        /* \"#utility.yul\":8076:8077   */\n      0x00\n        /* \"#utility.yul\":8069:8084   */\n      revert\n        /* \"#utility.yul\":8095:8220   */\n    tag_402:\n        /* \"#utility.yul\":8160:8169   */\n      dup1\n      dup3\n      add\n        /* \"#utility.yul\":8181:8191   */\n      dup1\n      dup3\n      gt\n        /* \"#utility.yul\":8178:8214   */\n      iszero\n      tag_277\n      jumpi\n        /* \"#utility.yul\":8194:8212   */\n      tag_277\n      tag_701\n      jump\t// in\n        /* \"#utility.yul\":9750:9877   */\n    tag_459:\n        /* \"#utility.yul\":9811:9821   */\n      0x4e487b71\n        /* \"#utility.yul\":9806:9809   */\n      0xe0\n        /* \"#utility.yul\":9802:9822   */\n      shl\n        /* \"#utility.yul\":9799:9800   */\n      0x00\n        /* \"#utility.yul\":9792:9823   */\n      mstore\n        /* \"#utility.yul\":9842:9846   */\n      0x32\n        /* \"#utility.yul\":9839:9840   */\n      0x04\n        /* \"#utility.yul\":9832:9847   */\n      mstore\n        /* \"#utility.yul\":9866:9870   */\n      0x24\n        /* \"#utility.yul\":9863:9864   */\n      0x00\n        /* \"#utility.yul\":9856:9871   */\n      revert\n        /* \"#utility.yul\":9882:10010   */\n    tag_463:\n        /* \"#utility.yul\":9949:9958   */\n      dup2\n      dup2\n      sub\n        /* \"#utility.yul\":9970:9981   */\n      dup2\n      dup2\n      gt\n        /* \"#utility.yul\":9967:10004   */\n      iszero\n      tag_277\n      jumpi\n        /* \"#utility.yul\":9984:10002   */\n      tag_277\n      tag_701\n      jump\t// in\n        /* \"#utility.yul\":10015:10142   */\n    tag_472:\n        /* \"#utility.yul\":10076:10086   */\n      0x4e487b71\n        /* \"#utility.yul\":10071:10074   */\n      0xe0\n        /* \"#utility.yul\":10067:10087   */\n      shl\n        /* \"#utility.yul\":10064:10065   */\n      0x00\n        /* \"#utility.yul\":10057:10088   */\n      mstore\n        /* \"#utility.yul\":10107:10111   */\n      0x31\n        /* \"#utility.yul\":10104:10105   */\n      0x04\n        /* \"#utility.yul\":10097:10112   */\n      mstore\n        /* \"#utility.yul\":10131:10135   */\n      0x24\n        /* \"#utility.yul\":10128:10129   */\n      0x00\n        /* \"#utility.yul\":10121:10136   */\n      revert\n        /* \"#utility.yul\":13427:13678   */\n    tag_555:\n        /* \"#utility.yul\":13497:13503   */\n      0x00\n        /* \"#utility.yul\":13550:13552   */\n      0x20\n        /* \"#utility.yul\":13538:13547   */\n      dup3\n        /* \"#utility.yul\":13529:13536   */\n      dup5\n        /* \"#utility.yul\":13525:13548   */\n      sub\n        /* \"#utility.yul\":13521:13553   */\n      slt\n        /* \"#utility.yul\":13518:13570   */\n      iszero\n      tag_778\n      jumpi\n        /* \"#utility.yul\":13566:13567   */\n      0x00\n        /* \"#utility.yul\":13563:13564   */\n      dup1\n        /* \"#utility.yul\":13556:13568   */\n      revert\n        /* \"#utility.yul\":13518:13570   */\n    tag_778:\n        /* \"#utility.yul\":13598:13607   */\n      dup2\n        /* \"#utility.yul\":13592:13608   */\n      mload\n        /* \"#utility.yul\":13617:13648   */\n      tag_307\n        /* \"#utility.yul\":13642:13647   */\n      dup2\n        /* \"#utility.yul\":13617:13648   */\n      tag_699\n      jump\t// in\n        /* \"#utility.yul\":13683:14663   */\n    tag_560:\n        /* \"#utility.yul\":13945:13949   */\n      0x00\n        /* \"#utility.yul\":13993:13996   */\n      0xa0\n        /* \"#utility.yul\":13982:13991   */\n      dup3\n        /* \"#utility.yul\":13978:13997   */\n      add\n        /* \"#utility.yul\":14024:14030   */\n      dup8\n        /* \"#utility.yul\":14013:14022   */\n      dup4\n        /* \"#utility.yul\":14006:14031   */\n      mstore\n        /* \"#utility.yul\":14050:14052   */\n      0x20\n        /* \"#utility.yul\":14088:14094   */\n      dup8\n        /* \"#utility.yul\":14083:14085   */\n      0x20\n        /* \"#utility.yul\":14072:14081   */\n      dup6\n        /* \"#utility.yul\":14068:14086   */\n      add\n        /* \"#utility.yul\":14061:14095   */\n      mstore\n        /* \"#utility.yul\":14131:14134   */\n      0xa0\n        /* \"#utility.yul\":14126:14128   */\n      0x40\n        /* \"#utility.yul\":14115:14124   */\n      dup6\n        /* \"#utility.yul\":14111:14129   */\n      add\n        /* \"#utility.yul\":14104:14135   */\n      mstore\n        /* \"#utility.yul\":14155:14161   */\n      dup2\n        /* \"#utility.yul\":14190:14196   */\n      dup8\n        /* \"#utility.yul\":14184:14197   */\n      mload\n        /* \"#utility.yul\":14221:14227   */\n      dup1\n        /* \"#utility.yul\":14213:14219   */\n      dup5\n        /* \"#utility.yul\":14206:14228   */\n      mstore\n        /* \"#utility.yul\":14259:14262   */\n      0xc0\n        /* \"#utility.yul\":14248:14257   */\n      dup7\n        /* \"#utility.yul\":14244:14263   */\n      add\n        /* \"#utility.yul\":14237:14263   */\n      swap2\n      pop\n        /* \"#utility.yul\":14298:14300   */\n      0x20\n        /* \"#utility.yul\":14290:14296   */\n      dup10\n        /* \"#utility.yul\":14286:14301   */\n      add\n        /* \"#utility.yul\":14272:14301   */\n      swap4\n      pop\n        /* \"#utility.yul\":14319:14320   */\n      0x00\n        /* \"#utility.yul\":14329:14524   */\n    tag_781:\n        /* \"#utility.yul\":14343:14349   */\n      dup2\n        /* \"#utility.yul\":14340:14341   */\n      dup2\n        /* \"#utility.yul\":14337:14350   */\n      lt\n        /* \"#utility.yul\":14329:14524   */\n      iszero\n      tag_783\n      jumpi\n        /* \"#utility.yul\":14408:14421   */\n      dup5\n      mload\n      sub(shl(0xa0, 0x01), 0x01)\n        /* \"#utility.yul\":14404:14443   */\n      and\n        /* \"#utility.yul\":14392:14444   */\n      dup4\n      mstore\n        /* \"#utility.yul\":14499:14514   */\n      swap4\n      dup4\n      add\n      swap4\n        /* \"#utility.yul\":14464:14476   */\n      swap2\n      dup4\n      add\n      swap2\n        /* \"#utility.yul\":14440:14441   */\n      0x01\n        /* \"#utility.yul\":14358:14367   */\n      add\n        /* \"#utility.yul\":14329:14524   */\n      jump(tag_781)\n    tag_783:\n      pop\n      pop\n      sub(shl(0xa0, 0x01), 0x01)\n        /* \"#utility.yul\":14580:14612   */\n      swap7\n      swap1\n      swap7\n      and\n        /* \"#utility.yul\":14575:14577   */\n      0x60\n        /* \"#utility.yul\":14560:14578   */\n      dup6\n      add\n        /* \"#utility.yul\":14553:14613   */\n      mstore\n      pop\n      pop\n      pop\n        /* \"#utility.yul\":14644:14647   */\n      0x80\n        /* \"#utility.yul\":14629:14648   */\n      add\n        /* \"#utility.yul\":14622:14657   */\n      mstore\n        /* \"#utility.yul\":14541:14544   */\n      swap4\n        /* \"#utility.yul\":13683:14663   */\n      swap3\n      pop\n      pop\n      pop\n      jump\t// out\n        /* \"#utility.yul\":14668:14885   */\n    tag_566:\n        /* \"#utility.yul\":14708:14709   */\n      0x00\n        /* \"#utility.yul\":14734:14735   */\n      dup3\n        /* \"#utility.yul\":14724:14856   */\n      tag_785\n      jumpi\n        /* \"#utility.yul\":14778:14788   */\n      0x4e487b71\n        /* \"#utility.yul\":14773:14776   */\n      0xe0\n        /* \"#utility.yul\":14769:14789   */\n      shl\n        /* \"#utility.yul\":14766:14767   */\n      0x00\n        /* \"#utility.yul\":14759:14790   */\n      mstore\n        /* \"#utility.yul\":14813:14817   */\n      0x12\n        /* \"#utility.yul\":14810:14811   */\n      0x04\n        /* \"#utility.yul\":14803:14818   */\n      mstore\n        /* \"#utility.yul\":14841:14845   */\n      0x24\n        /* \"#utility.yul\":14838:14839   */\n      0x00\n        /* \"#utility.yul\":14831:14846   */\n      revert\n        /* \"#utility.yul\":14724:14856   */\n    tag_785:\n      pop\n        /* \"#utility.yul\":14870:14879   */\n      div\n      swap1\n        /* \"#utility.yul\":14668:14885   */\n      jump\t// out\n        /* \"#utility.yul\":14890:15058   */\n    tag_685:\n        /* \"#utility.yul\":14963:14972   */\n      dup1\n      dup3\n      mul\n        /* \"#utility.yul\":14994:15003   */\n      dup2\n      iszero\n        /* \"#utility.yul\":15011:15026   */\n      dup3\n      dup3\n      div\n        /* \"#utility.yul\":15005:15027   */\n      dup5\n      eq\n        /* \"#utility.yul\":14991:15028   */\n      or\n        /* \"#utility.yul\":14981:15052   */\n      tag_277\n      jumpi\n        /* \"#utility.yul\":15032:15050   */\n      tag_277\n      tag_701\n      jump\t// in\n    stop\n    data_974d1b4421da69cc60b481194f0dad36a5bb4e23da810da7a7fb30cdba178330 45524332303a207472616e7366657220616d6f756e74206578636565647320616c6c6f77616e6365\n    data_9c064737b570a74c2bac5d21056d93ac53115214216cd14d4a0fc9b60be81231 8be0079c531659141344cd1fd0a4f28419497f9722a3daafe3b4186f6b6457e0\n    data_f8b476f7d28209d77d4a4ac1fe36b9f8259aa1bb6bddfa6e89de7e51615cf8a8 45524332303a2064656372656173656420616c6c6f77616e63652062656c6f77207a65726f\n\n    auxdata: 0xa264697066735822122006d8a974acf18ef06ceacc42ab0ce4b1d5635e4091add2a1a605ac5b1b2fed3764736f6c63430008180033\n}\n",
				"bytecode": {
					"linkReferences": {},
					"object": "6080604052670de0b6b3a764000060098190556200001f905f1962000497565b6200002c905f19620004cb565b600a5560408051808201909152601181527029ba32b63630b91029bab7102a37b5b2b760791b6020820152600c9062000066908262000585565b5060408051808201909152600381526253545360e81b6020820152600d9062000090908262000585565b50600e805461ffff191660091790556002600f556001601081905560118190556012819055601381905580620000c7818062000651565b620000d3919062000651565b620000df919062000651565b601455600f54601555601054601655601154601755601254601855601354601955601a80546001600160a01b031990811673506df9716a793d02f89ad32dc858bbb6f26268aa17909155601b80548216738714c3adbb728b8ad25cb0c044f57cb8b51bc155179055601c80548216739dfcebe1459c00ea0cb6c5cef541552dd09dd551179055601d80549091167316d80cbc2ea681419d40f243dae7dde8c4bc16bb179055601f805461ffff60a01b1916600160a81b179055662386f26fc10000602055652d79883d2000602155348015620001b9575f80fd5b505f80546001600160a01b031916339081178255604051909182917f8be0079c531659141344cd1fd0a4f28419497f9722a3daafe3b4186f6b6457e0908290a350600a54335f9081526003602090815260409182902092909255805163c45a015560e01b8152905173d99d1c33f9fc3444f8101754abc46c52416550d192839263c45a015592600480830193928290030181865afa1580156200025e573d5f803e3d5ffd5b505050506040513d601f19601f8201168201806040525081019062000284919062000667565b6001600160a01b031663c9c6539630836001600160a01b031663ad5c46486040518163ffffffff1660e01b8152600401602060405180830381865afa158015620002d0573d5f803e3d5ffd5b505050506040513d601f19601f82011682018060405250810190620002f6919062000667565b6040516001600160e01b031960e085901b1681526001600160a01b039283166004820152911660248201526044016020604051808303815f875af115801562000341573d5f803e3d5ffd5b505050506040513d601f19601f8201168201806040525081019062000367919062000667565b601f80546001600160a01b03199081166001600160a01b0393841617909155601e8054909116918316919091179055600160065f620003ad5f546001600160a01b031690565b6001600160a01b03908116825260208083019390935260409182015f908120805495151560ff199687161790553081526006909352818320805485166001908117909155601b54821684528284208054861682179055601a54821684528284208054861682179055601c54821684528284208054861682179055601d54909116835291208054909216179055620004413390565b6001600160a01b03165f6001600160a01b03167fddf252ad1be2c89b69c2b068fc378daa952ba7f163c4a11628f55a4df523b3ef6009546040516200048891815260200190565b60405180910390a35062000696565b5f82620004b257634e487b7160e01b5f52601260045260245ffd5b500690565b634e487b7160e01b5f52601160045260245ffd5b81810381811115620004e157620004e1620004b7565b92915050565b634e487b7160e01b5f52604160045260245ffd5b600181811c908216806200051057607f821691505b6020821081036200052f57634e487b7160e01b5f52602260045260245ffd5b50919050565b601f8211156200058057805f5260205f20601f840160051c810160208510156200055c5750805b601f840160051c820191505b818110156200057d575f815560010162000568565b50505b505050565b81516001600160401b03811115620005a157620005a1620004e7565b620005b981620005b28454620004fb565b8462000535565b602080601f831160018114620005ef575f8415620005d75750858301515b5f19600386901b1c1916600185901b17855562000649565b5f85815260208120601f198616915b828110156200061f57888601518255948401946001909101908401620005fe565b50858210156200063d57878501515f19600388901b60f8161c191681555b505060018460011b0185555b505050505050565b80820180821115620004e157620004e1620004b7565b5f6020828403121562000678575f80fd5b81516001600160a01b03811681146200068f575f80fd5b9392505050565b61298080620006a45f395ff3fe608060405260043610610283575f3560e01c806378fe1b1311610155578063b6c52324116100be578063e01af92c11610078578063e01af92c14610798578063e339d520146107b7578063ecfca899146107d6578063f2cc0c18146107eb578063f2fde38b1461080a578063f84354f114610829575f80fd5b8063b6c52324146106ac578063cba0e996146106c0578063cc2fbd66146106f7578063d38ab97d14610716578063dd46706414610735578063dd62ed3e14610754575f80fd5b8063a5ece9411161010f578063a5ece94114610607578063a5f3d00314610626578063a69df4b51461063b578063a9059cbb1461064f578063af9549e01461066e578063afcf2fc41461068d575f80fd5b806378fe1b13146105705780638a8c523c1461058f5780638da5cb5b146105a357806395d89b41146105bf578063a071dcf4146105d3578063a457c2d7146105e8575f80fd5b80633bd5d173116101f75780635880b873116101b15780635880b873146104ca578063638b1b14146104e95780636b67c4df146105085780636ddd17131461051d57806370a082311461053d578063715018a61461055c575f80fd5b80633bd5d173146104045780634549b0391461042357806349bd5a5e146104425780634ada218b1461046157806351bc3c851461047f5780635342acb414610493575f80fd5b80631bbae6e0116102485780631bbae6e01461035057806323b872dd146103715780632d83811914610390578063313ce567146103af57806339509351146103d05780633b2d081c146103ef575f80fd5b806306fdde031461028e578063095ea7b3146102b857806313114a9d146102e75780631694505e1461030557806318160ddd1461033c575f80fd5b3661028a57005b5f80fd5b348015610299575f80fd5b506102a2610848565b6040516102af919061256b565b60405180910390f35b3480156102c3575f80fd5b506102d76102d23660046125cb565b6108d8565b60405190151581526020016102af565b3480156102f2575f80fd5b50600b545b6040519081526020016102af565b348015610310575f80fd5b50601e54610324906001600160a01b031681565b6040516001600160a01b0390911681526020016102af565b348015610347575f80fd5b506009546102f7565b34801561035b575f80fd5b5061036f61036a3660046125f5565b6108ee565b005b34801561037c575f80fd5b506102d761038b36600461260c565b610990565b34801561039b575f80fd5b506102f76103aa3660046125f5565b6109f7565b3480156103ba575f80fd5b50600e5460405160ff90911681526020016102af565b3480156103db575f80fd5b506102d76103ea3660046125cb565b610a79565b3480156103fa575f80fd5b506102f760135481565b34801561040f575f80fd5b5061036f61041e3660046125f5565b610aae565b34801561042e575f80fd5b506102f761043d36600461265e565b610b94565b34801561044d575f80fd5b50601f54610324906001600160a01b031681565b34801561046c575f80fd5b50600e546102d790610100900460ff1681565b34801561048a575f80fd5b5061036f610c1e565b34801561049e575f80fd5b506102d76104ad366004612688565b6001600160a01b03165f9081526006602052604090205460ff1690565b3480156104d5575f80fd5b5061036f6104e43660046125f5565b610c5f565b3480156104f4575f80fd5b50601c54610324906001600160a01b031681565b348015610513575f80fd5b506102f760115481565b348015610528575f80fd5b50601f546102d790600160a81b900460ff1681565b348015610548575f80fd5b506102f7610557366004612688565b610c8d565b348015610567575f80fd5b5061036f610ce9565b34801561057b575f80fd5b5061036f61058a366004612688565b610d47565b34801561059a575f80fd5b5061036f610d92565b3480156105ae575f80fd5b505f546001600160a01b0316610324565b3480156105ca575f80fd5b506102a2610dcc565b3480156105de575f80fd5b506102f7600f5481565b3480156105f3575f80fd5b506102d76106023660046125cb565b610ddb565b348015610612575f80fd5b50601b54610324906001600160a01b031681565b348015610631575f80fd5b506102f760125481565b348015610646575f80fd5b5061036f610e28565b34801561065a575f80fd5b506102d76106693660046125cb565b610f2b565b348015610679575f80fd5b5061036f6106883660046126a3565b610f37565b348015610698575f80fd5b50601a54610324906001600160a01b031681565b3480156106b7575f80fd5b506002546102f7565b3480156106cb575f80fd5b506102d76106da366004612688565b6001600160a01b03165f9081526007602052604090205460ff1690565b348015610702575f80fd5b50601d54610324906001600160a01b031681565b348015610721575f80fd5b5061036f6107303660046126cd565b610f8a565b348015610740575f80fd5b5061036f61074f3660046125f5565b611042565b34801561075f575f80fd5b506102f761076e3660046126fc565b6001600160a01b039182165f90815260056020908152604080832093909416825291909152205490565b3480156107a3575f80fd5b5061036f6107b2366004612733565b6110c3565b3480156107c2575f80fd5b5061036f6107d13660046125f5565b61110a565b3480156107e1575f80fd5b506102f760105481565b3480156107f6575f80fd5b5061036f610805366004612688565b611138565b348015610815575f80fd5b5061036f610824366004612688565b6112fc565b348015610834575f80fd5b5061036f610843366004612688565b6113d0565b6060600c80546108579061274c565b80601f01602080910402602001604051908101604052809291908181526020018280546108839061274c565b80156108ce5780601f106108a5576101008083540402835291602001916108ce565b820191905f5260205f20905b8154815290600101906020018083116108b157829003601f168201915b5050505050905090565b5f6108e4338484611574565b5060015b92915050565b5f546001600160a01b031633146109205760405162461bcd60e51b815260040161091790612784565b60405180910390fd5b662386f26fc1000081101561098b5760405162461bcd60e51b815260206004820152602b60248201527f6d61785478416d6f756e742073686f756c64206265206772656174657220746860448201526a0616e2031303030303030360ac1b6064820152608401610917565b602055565b5f61099c848484611697565b6109ed84336109e8856040518060600160405280602881526020016128de602891396001600160a01b038a165f90815260056020908152604080832033845290915290205491906119de565b611574565b5060019392505050565b5f600a54821115610a5d5760405162461bcd60e51b815260206004820152602a60248201527f416d6f756e74206d757374206265206c657373207468616e20746f74616c207260448201526965666c656374696f6e7360b01b6064820152608401610917565b5f610a66611a16565b9050610a728382611a37565b9392505050565b335f8181526005602090815260408083206001600160a01b038716845290915281205490916108e49185906109e89086611a78565b335f8181526007602052604090205460ff1615610b225760405162461bcd60e51b815260206004820152602c60248201527f4578636c75646564206164647265737365732063616e6e6f742063616c6c207460448201526b3434b990333ab731ba34b7b760a11b6064820152608401610917565b5f610b2c83611ad6565b505050506001600160a01b0384165f90815260036020526040902054919250610b5791905082611b2a565b6001600160a01b0383165f90815260036020526040902055600a54610b7c9082611b2a565b600a55600b54610b8c9084611a78565b600b55505050565b5f600954831115610be75760405162461bcd60e51b815260206004820152601f60248201527f416d6f756e74206d757374206265206c657373207468616e20737570706c79006044820152606401610917565b81610c05575f610bf684611ad6565b509395506108e8945050505050565b5f610c0f84611ad6565b509295506108e8945050505050565b5f546001600160a01b03163314610c475760405162461bcd60e51b815260040161091790612784565b5f610c5130610c8d565b9050610c5c81611b6b565b50565b5f546001600160a01b03163314610c885760405162461bcd60e51b815260040161091790612784565b600f55565b6001600160a01b0381165f9081526007602052604081205460ff1615610cc857506001600160a01b03165f9081526004602052604090205490565b6001600160a01b0382165f908152600360205260409020546108e8906109f7565b5f546001600160a01b03163314610d125760405162461bcd60e51b815260040161091790612784565b5f80546040516001600160a01b03909116905f80516020612906833981519152908390a35f80546001600160a01b0319169055565b5f546001600160a01b03163314610d705760405162461bcd60e51b815260040161091790612784565b601f80546001600160a01b0319166001600160a01b0392909216919091179055565b5f546001600160a01b03163314610dbb5760405162461bcd60e51b815260040161091790612784565b600e805461ff001916610100179055565b6060600d80546108579061274c565b5f6108e433846109e88560405180606001604052806025815260200161292660259139335f9081526005602090815260408083206001600160a01b038d16845290915290205491906119de565b6001546001600160a01b03163314610e8e5760405162461bcd60e51b815260206004820152602360248201527f596f7520646f6e27742068617665207065726d697373696f6e20746f20756e6c6044820152626f636b60e81b6064820152608401610917565b6002544211610edf5760405162461bcd60e51b815260206004820152601f60248201527f436f6e7472616374206973206c6f636b656420756e74696c20372064617973006044820152606401610917565b6001545f80546040516001600160a01b0393841693909116915f8051602061290683398151915291a36001545f80546001600160a01b0319166001600160a01b03909216919091179055565b5f6108e4338484611697565b5f546001600160a01b03163314610f605760405162461bcd60e51b815260040161091790612784565b6001600160a01b03919091165f908152600660205260409020805460ff1916911515919091179055565b5f546001600160a01b03163314610fb35760405162461bcd60e51b815260040161091790612784565b60108490556011839055601282905560138190558082610fd385876127cd565b610fdd91906127cd565b610fe791906127cd565b60148190556008101561103c5760405162461bcd60e51b815260206004820152601e60248201527f4665652069732063726f7373696e672074686520626f756e64617269657300006044820152606401610917565b50505050565b5f546001600160a01b0316331461106b5760405162461bcd60e51b815260040161091790612784565b5f8054600180546001600160a01b03199081166001600160a01b0384161790915516905561109981426127cd565b6002555f80546040516001600160a01b03909116905f80516020612906833981519152908390a350565b5f546001600160a01b031633146110ec5760405162461bcd60e51b815260040161091790612784565b601f8054911515600160a81b0260ff60a81b19909216919091179055565b5f546001600160a01b031633146111335760405162461bcd60e51b815260040161091790612784565b602155565b5f546001600160a01b031633146111615760405162461bcd60e51b815260040161091790612784565b6001600160a01b038116737a250d5630b4cf539739df2c5dacb4c659f2488d036111d85760405162461bcd60e51b815260206004820152602260248201527f57652063616e206e6f74206578636c75646520556e697377617020726f757465604482015261391760f11b6064820152608401610917565b6001600160a01b0381165f9081526007602052604090205460ff16156112405760405162461bcd60e51b815260206004820152601b60248201527f4163636f756e7420697320616c7265616479206578636c7564656400000000006044820152606401610917565b6001600160a01b0381165f9081526003602052604090205415611297576001600160a01b0381165f9081526003602052604090205461127e906109f7565b6001600160a01b0382165f908152600460205260409020555b6001600160a01b03165f818152600760205260408120805460ff191660019081179091556008805491820181559091527ff3f7a9fe364faab93b216da50a3214154f22a0a2b415b23a84c8169e8b636ee30180546001600160a01b0319169091179055565b5f546001600160a01b031633146113255760405162461bcd60e51b815260040161091790612784565b6001600160a01b03811661138a5760405162461bcd60e51b815260206004820152602660248201527f4f776e61626c653a206e6577206f776e657220697320746865207a65726f206160448201526564647265737360d01b6064820152608401610917565b5f80546040516001600160a01b03808516939216915f8051602061290683398151915291a35f80546001600160a01b0319166001600160a01b0392909216919091179055565b5f546001600160a01b031633146113f95760405162461bcd60e51b815260040161091790612784565b6001600160a01b0381165f9081526007602052604090205460ff166114605760405162461bcd60e51b815260206004820152601b60248201527f4163636f756e7420697320616c7265616479206578636c7564656400000000006044820152606401610917565b5f5b60085481101561157057816001600160a01b031660088281548110611489576114896127e0565b5f918252602090912001546001600160a01b03160361156857600880546114b2906001906127f4565b815481106114c2576114c26127e0565b5f91825260209091200154600880546001600160a01b0390921691839081106114ed576114ed6127e0565b5f91825260208083209190910180546001600160a01b0319166001600160a01b039485161790559184168152600482526040808220829055600790925220805460ff19169055600880548061154457611544612807565b5f8281526020902081015f1990810180546001600160a01b03191690550190555050565b600101611462565b5050565b6001600160a01b0383166115d65760405162461bcd60e51b8152602060048201526024808201527f45524332303a20617070726f76652066726f6d20746865207a65726f206164646044820152637265737360e01b6064820152608401610917565b6001600160a01b0382166116375760405162461bcd60e51b815260206004820152602260248201527f45524332303a20617070726f766520746f20746865207a65726f206164647265604482015261737360f01b6064820152608401610917565b6001600160a01b038381165f8181526005602090815260408083209487168084529482529182902085905590518481527f8c5be1e5ebec7d5bd14f71427d1e84f3dd0314c0f7b2291e5b200ac8c7c3b925910160405180910390a3505050565b6001600160a01b0383166116fb5760405162461bcd60e51b815260206004820152602560248201527f45524332303a207472616e736665722066726f6d20746865207a65726f206164604482015264647265737360d81b6064820152608401610917565b6001600160a01b03821661175d5760405162461bcd60e51b815260206004820152602360248201527f45524332303a207472616e7366657220746f20746865207a65726f206164647260448201526265737360e81b6064820152608401610917565b5f81116117be5760405162461bcd60e51b815260206004820152602960248201527f5472616e7366657220616d6f756e74206d7573742062652067726561746572206044820152687468616e207a65726f60b81b6064820152608401610917565b5f546001600160a01b038481169116148015906117e857505f546001600160a01b03838116911614155b15611850576020548111156118505760405162461bcd60e51b815260206004820152602860248201527f5472616e7366657220616d6f756e74206578636565647320746865206d6178546044820152673c20b6b7bab73a1760c11b6064820152608401610917565b6001600160a01b0383165f9081526006602052604090205460ff166118c657600e54610100900460ff166118c65760405162461bcd60e51b815260206004820152601a60248201527f54726164696e67206973206e6f7420656e61626c6564207965740000000000006044820152606401610917565b5f6118d030610c8d565b905060205481106118e057506020545b602154601f549082101590600160a01b900460ff1615801561190b5750601f54600160a81b900460ff165b80156119145750805b801561192e5750601f546001600160a01b03868116911614155b1561194e5761193c82611b6b565b47801561194c5761194c47611cdb565b505b6001600160a01b0385165f9081526006602052604090205460019060ff168061198e57506001600160a01b0385165f9081526006602052604090205460ff165b1561199657505f5b601f546001600160a01b038781169116148015906119c25750601f546001600160a01b03868116911614155b156119ca57505f5b6119d686868684611dcc565b505050505050565b5f8184841115611a015760405162461bcd60e51b8152600401610917919061256b565b505f611a0d84866127f4565b95945050505050565b5f805f611a21611f40565b9092509050611a308282611a37565b9250505090565b5f610a7283836040518060400160405280601a81526020017f536166654d6174683a206469766973696f6e206279207a65726f0000000000008152506120af565b5f80611a8483856127cd565b905083811015610a725760405162461bcd60e51b815260206004820152601b60248201527f536166654d6174683a206164646974696f6e206f766572666c6f7700000000006044820152606401610917565b5f805f805f805f805f611aee8a600f546014546120db565b9250925092505f611afd611a16565b90505f805f611b0d8e878661212d565b919e509c509a509598509396509194505050505091939550919395565b5f610a7283836040518060400160405280601e81526020017f536166654d6174683a207375627472616374696f6e206f766572666c6f7700008152506119de565b601f805460ff60a01b1916600160a01b1790556040805160028082526060820183525f9260208301908036833701905050905030815f81518110611bb157611bb16127e0565b6001600160a01b03928316602091820292909201810191909152601e54604080516315ab88c960e31b81529051919093169263ad5c46489260048083019391928290030181865afa158015611c08573d5f803e3d5ffd5b505050506040513d601f19601f82011682018060405250810190611c2c919061281b565b81600181518110611c3f57611c3f6127e0565b6001600160a01b039283166020918202929092010152601e54611c659130911684611574565b601e5460405163791ac94760e01b81526001600160a01b039091169063791ac94790611c9d9085905f90869030904290600401612836565b5f604051808303815f87803b158015611cb4575f80fd5b505af1158015611cc6573d5f803e3d5ffd5b5050601f805460ff60a01b1916905550505050565b5f611ce76004836128a7565b601a546040519192506001600160a01b03169082156108fc029083905f818181858888f19350505050158015611d1f573d5f803e3d5ffd5b50601b546040516001600160a01b039091169082156108fc029083905f818181858888f19350505050158015611d57573d5f803e3d5ffd5b50601c546040516001600160a01b039091169082156108fc029083905f818181858888f19350505050158015611d8f573d5f803e3d5ffd5b50601d546040516001600160a01b039091169082156108fc029083905f818181858888f19350505050158015611dc7573d5f803e3d5ffd5b505050565b80611dd957611dd9612166565b6001600160a01b0384165f9081526007602052604090205460ff168015611e1857506001600160a01b0383165f9081526007602052604090205460ff16155b15611e2d57611e288484846121d7565b611f25565b6001600160a01b0384165f9081526007602052604090205460ff16158015611e6c57506001600160a01b0383165f9081526007602052604090205460ff165b15611e7c57611e288484846122f6565b6001600160a01b0384165f9081526007602052604090205460ff16158015611ebc57506001600160a01b0383165f9081526007602052604090205460ff16155b15611ecc57611e28848484612399565b6001600160a01b0384165f9081526007602052604090205460ff168015611f0a57506001600160a01b0383165f9081526007602052604090205460ff165b15611f1a57611e288484846123d9565b611f25848484612399565b8061103c5761103c601554600f819055601654601055601155565b600a546009545f918291825b60085481101561207f578260035f60088481548110611f6d57611f6d6127e0565b5f9182526020808320909101546001600160a01b031683528201929092526040019020541180611fd557508160045f60088481548110611faf57611faf6127e0565b5f9182526020808320909101546001600160a01b03168352820192909252604001902054115b15611feb57600a54600954945094505050509091565b61202f60035f60088481548110612004576120046127e0565b5f9182526020808320909101546001600160a01b031683528201929092526040019020548490611b2a565b925061207560045f6008848154811061204a5761204a6127e0565b5f9182526020808320909101546001600160a01b031683528201929092526040019020548390611b2a565b9150600101611f4c565b50600954600a5461208f91611a37565b8210156120a657600a546009549350935050509091565b90939092509050565b5f81836120cf5760405162461bcd60e51b8152600401610917919061256b565b505f611a0d84866128a7565b5f8080806120f460646120ee8989612447565b90611a37565b90505f61210660646120ee8a89612447565b90505f61211d826121178b86611b2a565b90611b2a565b9992985090965090945050505050565b5f80808061213b8786612447565b90505f6121488787612447565b90505f6121558383611b2a565b929992985090965090945050505050565b600f541580156121765750601054155b80156121825750601254155b801561218e5750601154155b801561219a5750601354155b156121a157565b600f8054601555601080546016556011805460175560128054601855601380546019555f94859055928490559083905582905555565b5f805f805f806121e687611ad6565b6001600160a01b038f165f90815260046020526040902054959b509399509197509550935091506122179088611b2a565b6001600160a01b038a165f908152600460209081526040808320939093556003905220546122459087611b2a565b6001600160a01b03808b165f9081526003602052604080822093909355908a16815220546122739086611a78565b6001600160a01b0389165f90815260036020526040902055612294816124c5565b61229e8483612547565b876001600160a01b0316896001600160a01b03167fddf252ad1be2c89b69c2b068fc378daa952ba7f163c4a11628f55a4df523b3ef856040516122e391815260200190565b60405180910390a3505050505050505050565b5f805f805f8061230587611ad6565b6001600160a01b038f165f90815260036020526040902054959b509399509197509550935091506123369087611b2a565b6001600160a01b03808b165f90815260036020908152604080832094909455918b1681526004909152205461236b9084611a78565b6001600160a01b0389165f908152600460209081526040808320939093556003905220546122739086611a78565b5f805f805f806123a887611ad6565b6001600160a01b038f165f90815260036020526040902054959b509399509197509550935091506122459087611b2a565b5f805f805f806123e887611ad6565b6001600160a01b038f165f90815260046020526040902054959b509399509197509550935091506124199088611b2a565b6001600160a01b038a165f908152600460209081526040808320939093556003905220546123369087611b2a565b5f825f0361245657505f6108e8565b5f61246183856128c6565b90508261246e85836128a7565b14610a725760405162461bcd60e51b815260206004820152602160248201527f536166654d6174683a206d756c7469706c69636174696f6e206f766572666c6f6044820152607760f81b6064820152608401610917565b5f6124ce611a16565b90505f6124db8383612447565b305f908152600360205260409020549091506124f79082611a78565b305f9081526003602090815260408083209390935560079052205460ff1615611dc757305f908152600460205260409020546125339084611a78565b305f90815260046020526040902055505050565b600a546125549083611b2a565b600a55600b546125649082611a78565b600b555050565b5f602080835283518060208501525f5b818110156125975785810183015185820160400152820161257b565b505f604082860101526040601f19601f8301168501019250505092915050565b6001600160a01b0381168114610c5c575f80fd5b5f80604083850312156125dc575f80fd5b82356125e7816125b7565b946020939093013593505050565b5f60208284031215612605575f80fd5b5035919050565b5f805f6060848603121561261e575f80fd5b8335612629816125b7565b92506020840135612639816125b7565b929592945050506040919091013590565b80358015158114612659575f80fd5b919050565b5f806040838503121561266f575f80fd5b8235915061267f6020840161264a565b90509250929050565b5f60208284031215612698575f80fd5b8135610a72816125b7565b5f80604083850312156126b4575f80fd5b82356126bf816125b7565b915061267f6020840161264a565b5f805f80608085870312156126e0575f80fd5b5050823594602084013594506040840135936060013592509050565b5f806040838503121561270d575f80fd5b8235612718816125b7565b91506020830135612728816125b7565b809150509250929050565b5f60208284031215612743575f80fd5b610a728261264a565b600181811c9082168061276057607f821691505b60208210810361277e57634e487b7160e01b5f52602260045260245ffd5b50919050565b6020808252818101527f4f776e61626c653a2063616c6c6572206973206e6f7420746865206f776e6572604082015260600190565b634e487b7160e01b5f52601160045260245ffd5b808201808211156108e8576108e86127b9565b634e487b7160e01b5f52603260045260245ffd5b818103818111156108e8576108e86127b9565b634e487b7160e01b5f52603160045260245ffd5b5f6020828403121561282b575f80fd5b8151610a72816125b7565b5f60a08201878352602087602085015260a0604085015281875180845260c0860191506020890193505f5b818110156128865784516001600160a01b031683529383019391830191600101612861565b50506001600160a01b03969096166060850152505050608001529392505050565b5f826128c157634e487b7160e01b5f52601260045260245ffd5b500490565b80820281158282048414176108e8576108e86127b956fe45524332303a207472616e7366657220616d6f756e74206578636565647320616c6c6f77616e63658be0079c531659141344cd1fd0a4f28419497f9722a3daafe3b4186f6b6457e045524332303a2064656372656173656420616c6c6f77616e63652062656c6f77207a65726fa264697066735822122006d8a974acf18ef06ceacc42ab0ce4b1d5635e4091add2a1a605ac5b1b2fed3764736f6c63430008180033",
					"opcodes": "PUSH1 0x80 PUSH1 0x40 MSTORE PUSH8 0xDE0B6B3A7640000 PUSH1 0x9 DUP2 SWAP1 SSTORE PUSH3 0x1F SWAP1 PUSH0 NOT PUSH3 0x497 JUMP JUMPDEST PUSH3 0x2C SWAP1 PUSH0 NOT PUSH3 0x4CB JUMP JUMPDEST PUSH1 0xA SSTORE PUSH1 0x40 DUP1 MLOAD DUP1 DUP3 ADD SWAP1 SWAP2 MSTORE PUSH1 0x11 DUP2 MSTORE PUSH17 0x29BA32B63630B91029BAB7102A37B5B2B7 PUSH1 0x79 SHL PUSH1 0x20 DUP3 ADD MSTORE PUSH1 0xC SWAP1 PUSH3 0x66 SWAP1 DUP3 PUSH3 0x585 JUMP JUMPDEST POP PUSH1 0x40 DUP1 MLOAD DUP1 DUP3 ADD SWAP1 SWAP2 MSTORE PUSH1 0x3 DUP2 MSTORE PUSH3 0x535453 PUSH1 0xE8 SHL PUSH1 0x20 DUP3 ADD MSTORE PUSH1 0xD SWAP1 PUSH3 0x90 SWAP1 DUP3 PUSH3 0x585 JUMP JUMPDEST POP PUSH1 0xE DUP1 SLOAD PUSH2 0xFFFF NOT AND PUSH1 0x9 OR SWAP1 SSTORE PUSH1 0x2 PUSH1 0xF SSTORE PUSH1 0x1 PUSH1 0x10 DUP2 SWAP1 SSTORE PUSH1 0x11 DUP2 SWAP1 SSTORE PUSH1 0x12 DUP2 SWAP1 SSTORE PUSH1 0x13 DUP2 SWAP1 SSTORE DUP1 PUSH3 0xC7 DUP2 DUP1 PUSH3 0x651 JUMP JUMPDEST PUSH3 0xD3 SWAP2 SWAP1 PUSH3 0x651 JUMP JUMPDEST PUSH3 0xDF SWAP2 SWAP1 PUSH3 0x651 JUMP JUMPDEST PUSH1 0x14 SSTORE PUSH1 0xF SLOAD PUSH1 0x15 SSTORE PUSH1 0x10 SLOAD PUSH1 0x16 SSTORE PUSH1 0x11 SLOAD PUSH1 0x17 SSTORE PUSH1 0x12 SLOAD PUSH1 0x18 SSTORE PUSH1 0x13 SLOAD PUSH1 0x19 SSTORE PUSH1 0x1A DUP1 SLOAD PUSH1 0x1 PUSH1 0x1 PUSH1 0xA0 SHL SUB NOT SWAP1 DUP2 AND PUSH20 0x506DF9716A793D02F89AD32DC858BBB6F26268AA OR SWAP1 SWAP2 SSTORE PUSH1 0x1B DUP1 SLOAD DUP3 AND PUSH20 0x8714C3ADBB728B8AD25CB0C044F57CB8B51BC155 OR SWAP1 SSTORE PUSH1 0x1C DUP1 SLOAD DUP3 AND PUSH20 0x9DFCEBE1459C00EA0CB6C5CEF541552DD09DD551 OR SWAP1 SSTORE PUSH1 0x1D DUP1 SLOAD SWAP1 SWAP2 AND PUSH20 0x16D80CBC2EA681419D40F243DAE7DDE8C4BC16BB OR SWAP1 SSTORE PUSH1 0x1F DUP1 SLOAD PUSH2 0xFFFF PUSH1 0xA0 SHL NOT AND PUSH1 0x1 PUSH1 0xA8 SHL OR SWAP1 SSTORE PUSH7 0x2386F26FC10000 PUSH1 0x20 SSTORE PUSH6 0x2D79883D2000 PUSH1 0x21 SSTORE CALLVALUE DUP1 ISZERO PUSH3 0x1B9 JUMPI PUSH0 DUP1 REVERT JUMPDEST POP PUSH0 DUP1 SLOAD PUSH1 0x1 PUSH1 0x1 PUSH1 0xA0 SHL SUB NOT AND CALLER SWAP1 DUP2 OR DUP3 SSTORE PUSH1 0x40 MLOAD SWAP1 SWAP2 DUP3 SWAP2 PUSH32 0x8BE0079C531659141344CD1FD0A4F28419497F9722A3DAAFE3B4186F6B6457E0 SWAP1 DUP3 SWAP1 LOG3 POP PUSH1 0xA SLOAD CALLER PUSH0 SWAP1 DUP2 MSTORE PUSH1 0x3 PUSH1 0x20 SWAP1 DUP2 MSTORE PUSH1 0x40 SWAP2 DUP3 SWAP1 KECCAK256 SWAP3 SWAP1 SWAP3 SSTORE DUP1 MLOAD PUSH4 0xC45A0155 PUSH1 0xE0 SHL DUP2 MSTORE SWAP1 MLOAD PUSH20 0xD99D1C33F9FC3444F8101754ABC46C52416550D1 SWAP3 DUP4 SWAP3 PUSH4 0xC45A0155 SWAP3 PUSH1 0x4 DUP1 DUP4 ADD SWAP4 SWAP3 DUP3 SWAP1 SUB ADD DUP2 DUP7 GAS STATICCALL ISZERO DUP1 ISZERO PUSH3 0x25E JUMPI RETURNDATASIZE PUSH0 DUP1 RETURNDATACOPY RETURNDATASIZE PUSH0 REVERT JUMPDEST POP POP POP POP PUSH1 0x40 MLOAD RETURNDATASIZE PUSH1 0x1F NOT PUSH1 0x1F DUP3 ADD AND DUP3 ADD DUP1 PUSH1 0x40 MSTORE POP DUP2 ADD SWAP1 PUSH3 0x284 SWAP2 SWAP1 PUSH3 0x667 JUMP JUMPDEST PUSH1 0x1 PUSH1 0x1 PUSH1 0xA0 SHL SUB AND PUSH4 0xC9C65396 ADDRESS DUP4 PUSH1 0x1 PUSH1 0x1 PUSH1 0xA0 SHL SUB AND PUSH4 0xAD5C4648 PUSH1 0x40 MLOAD DUP2 PUSH4 0xFFFFFFFF AND PUSH1 0xE0 SHL DUP2 MSTORE PUSH1 0x4 ADD PUSH1 0x20 PUSH1 0x40 MLOAD DUP1 DUP4 SUB DUP2 DUP7 GAS STATICCALL ISZERO DUP1 ISZERO PUSH3 0x2D0 JUMPI RETURNDATASIZE PUSH0 DUP1 RETURNDATACOPY RETURNDATASIZE PUSH0 REVERT JUMPDEST POP POP POP POP PUSH1 0x40 MLOAD RETURNDATASIZE PUSH1 0x1F NOT PUSH1 0x1F DUP3 ADD AND DUP3 ADD DUP1 PUSH1 0x40 MSTORE POP DUP2 ADD SWAP1 PUSH3 0x2F6 SWAP2 SWAP1 PUSH3 0x667 JUMP JUMPDEST PUSH1 0x40 MLOAD PUSH1 0x1 PUSH1 0x1 PUSH1 0xE0 SHL SUB NOT PUSH1 0xE0 DUP6 SWAP1 SHL AND DUP2 MSTORE PUSH1 0x1 PUSH1 0x1 PUSH1 0xA0 SHL SUB SWAP3 DUP4 AND PUSH1 0x4 DUP3 ADD MSTORE SWAP2 AND PUSH1 0x24 DUP3 ADD MSTORE PUSH1 0x44 ADD PUSH1 0x20 PUSH1 0x40 MLOAD DUP1 DUP4 SUB DUP2 PUSH0 DUP8 GAS CALL ISZERO DUP1 ISZERO PUSH3 0x341 JUMPI RETURNDATASIZE PUSH0 DUP1 RETURNDATACOPY RETURNDATASIZE PUSH0 REVERT JUMPDEST POP POP POP POP PUSH1 0x40 MLOAD RETURNDATASIZE PUSH1 0x1F NOT PUSH1 0x1F DUP3 ADD AND DUP3 ADD DUP1 PUSH1 0x40 MSTORE POP DUP2 ADD SWAP1 PUSH3 0x367 SWAP2 SWAP1 PUSH3 0x667 JUMP JUMPDEST PUSH1 0x1F DUP1 SLOAD PUSH1 0x1 PUSH1 0x1 PUSH1 0xA0 SHL SUB NOT SWAP1 DUP2 AND PUSH1 0x1 PUSH1 0x1 PUSH1 0xA0 SHL SUB SWAP4 DUP5 AND OR SWAP1 SWAP2 SSTORE PUSH1 0x1E DUP1 SLOAD SWAP1 SWAP2 AND SWAP2 DUP4 AND SWAP2 SWAP1 SWAP2 OR SWAP1 SSTORE PUSH1 0x1 PUSH1 0x6 PUSH0 PUSH3 0x3AD PUSH0 SLOAD PUSH1 0x1 PUSH1 0x1 PUSH1 0xA0 SHL SUB AND SWAP1 JUMP JUMPDEST PUSH1 0x1 PUSH1 0x1 PUSH1 0xA0 SHL SUB SWAP1 DUP2 AND DUP3 MSTORE PUSH1 0x20 DUP1 DUP4 ADD SWAP4 SWAP1 SWAP4 MSTORE PUSH1 0x40 SWAP2 DUP3 ADD PUSH0 SWAP1 DUP2 KECCAK256 DUP1 SLOAD SWAP6 ISZERO ISZERO PUSH1 0xFF NOT SWAP7 DUP8 AND OR SWAP1 SSTORE ADDRESS DUP2 MSTORE PUSH1 0x6 SWAP1 SWAP4 MSTORE DUP2 DUP4 KECCAK256 DUP1 SLOAD DUP6 AND PUSH1 0x1 SWAP1 DUP2 OR SWAP1 SWAP2 SSTORE PUSH1 0x1B SLOAD DUP3 AND DUP5 MSTORE DUP3 DUP5 KECCAK256 DUP1 SLOAD DUP7 AND DUP3 OR SWAP1 SSTORE PUSH1 0x1A SLOAD DUP3 AND DUP5 MSTORE DUP3 DUP5 KECCAK256 DUP1 SLOAD DUP7 AND DUP3 OR SWAP1 SSTORE PUSH1 0x1C SLOAD DUP3 AND DUP5 MSTORE DUP3 DUP5 KECCAK256 DUP1 SLOAD DUP7 AND DUP3 OR SWAP1 SSTORE PUSH1 0x1D SLOAD SWAP1 SWAP2 AND DUP4 MSTORE SWAP2 KECCAK256 DUP1 SLOAD SWAP1 SWAP3 AND OR SWAP1 SSTORE PUSH3 0x441 CALLER SWAP1 JUMP JUMPDEST PUSH1 0x1 PUSH1 0x1 PUSH1 0xA0 SHL SUB AND PUSH0 PUSH1 0x1 PUSH1 0x1 PUSH1 0xA0 SHL SUB AND PUSH32 0xDDF252AD1BE2C89B69C2B068FC378DAA952BA7F163C4A11628F55A4DF523B3EF PUSH1 0x9 SLOAD PUSH1 0x40 MLOAD PUSH3 0x488 SWAP2 DUP2 MSTORE PUSH1 0x20 ADD SWAP1 JUMP JUMPDEST PUSH1 0x40 MLOAD DUP1 SWAP2 SUB SWAP1 LOG3 POP PUSH3 0x696 JUMP JUMPDEST PUSH0 DUP3 PUSH3 0x4B2 JUMPI PUSH4 0x4E487B71 PUSH1 0xE0 SHL PUSH0 MSTORE PUSH1 0x12 PUSH1 0x4 MSTORE PUSH1 0x24 PUSH0 REVERT JUMPDEST POP MOD SWAP1 JUMP JUMPDEST PUSH4 0x4E487B71 PUSH1 0xE0 SHL PUSH0 MSTORE PUSH1 0x11 PUSH1 0x4 MSTORE PUSH1 0x24 PUSH0 REVERT JUMPDEST DUP2 DUP2 SUB DUP2 DUP2 GT ISZERO PUSH3 0x4E1 JUMPI PUSH3 0x4E1 PUSH3 0x4B7 JUMP JUMPDEST SWAP3 SWAP2 POP POP JUMP JUMPDEST PUSH4 0x4E487B71 PUSH1 0xE0 SHL PUSH0 MSTORE PUSH1 0x41 PUSH1 0x4 MSTORE PUSH1 0x24 PUSH0 REVERT JUMPDEST PUSH1 0x1 DUP2 DUP2 SHR SWAP1 DUP3 AND DUP1 PUSH3 0x510 JUMPI PUSH1 0x7F DUP3 AND SWAP2 POP JUMPDEST PUSH1 0x20 DUP3 LT DUP2 SUB PUSH3 0x52F JUMPI PUSH4 0x4E487B71 PUSH1 0xE0 SHL PUSH0 MSTORE PUSH1 0x22 PUSH1 0x4 MSTORE PUSH1 0x24 PUSH0 REVERT JUMPDEST POP SWAP2 SWAP1 POP JUMP JUMPDEST PUSH1 0x1F DUP3 GT ISZERO PUSH3 0x580 JUMPI DUP1 PUSH0 MSTORE PUSH1 0x20 PUSH0 KECCAK256 PUSH1 0x1F DUP5 ADD PUSH1 0x5 SHR DUP2 ADD PUSH1 0x20 DUP6 LT ISZERO PUSH3 0x55C JUMPI POP DUP1 JUMPDEST PUSH1 0x1F DUP5 ADD PUSH1 0x5 SHR DUP3 ADD SWAP2 POP JUMPDEST DUP2 DUP2 LT ISZERO PUSH3 0x57D JUMPI PUSH0 DUP2 SSTORE PUSH1 0x1 ADD PUSH3 0x568 JUMP JUMPDEST POP POP JUMPDEST POP POP POP JUMP JUMPDEST DUP2 MLOAD PUSH1 0x1 PUSH1 0x1 PUSH1 0x40 SHL SUB DUP2 GT ISZERO PUSH3 0x5A1 JUMPI PUSH3 0x5A1 PUSH3 0x4E7 JUMP JUMPDEST PUSH3 0x5B9 DUP2 PUSH3 0x5B2 DUP5 SLOAD PUSH3 0x4FB JUMP JUMPDEST DUP5 PUSH3 0x535 JUMP JUMPDEST PUSH1 0x20 DUP1 PUSH1 0x1F DUP4 GT PUSH1 0x1 DUP2 EQ PUSH3 0x5EF JUMPI PUSH0 DUP5 ISZERO PUSH3 0x5D7 JUMPI POP DUP6 DUP4 ADD MLOAD JUMPDEST PUSH0 NOT PUSH1 0x3 DUP7 SWAP1 SHL SHR NOT AND PUSH1 0x1 DUP6 SWAP1 SHL OR DUP6 SSTORE PUSH3 0x649 JUMP JUMPDEST PUSH0 DUP6 DUP2 MSTORE PUSH1 0x20 DUP2 KECCAK256 PUSH1 0x1F NOT DUP7 AND SWAP2 JUMPDEST DUP3 DUP2 LT ISZERO PUSH3 0x61F JUMPI DUP9 DUP7 ADD MLOAD DUP3 SSTORE SWAP5 DUP5 ADD SWAP5 PUSH1 0x1 SWAP1 SWAP2 ADD SWAP1 DUP5 ADD PUSH3 0x5FE JUMP JUMPDEST POP DUP6 DUP3 LT ISZERO PUSH3 0x63D JUMPI DUP8 DUP6 ADD MLOAD PUSH0 NOT PUSH1 0x3 DUP9 SWAP1 SHL PUSH1 0xF8 AND SHR NOT AND DUP2 SSTORE JUMPDEST POP POP PUSH1 0x1 DUP5 PUSH1 0x1 SHL ADD DUP6 SSTORE JUMPDEST POP POP POP POP POP POP JUMP JUMPDEST DUP1 DUP3 ADD DUP1 DUP3 GT ISZERO PUSH3 0x4E1 JUMPI PUSH3 0x4E1 PUSH3 0x4B7 JUMP JUMPDEST PUSH0 PUSH1 0x20 DUP3 DUP5 SUB SLT ISZERO PUSH3 0x678 JUMPI PUSH0 DUP1 REVERT JUMPDEST DUP2 MLOAD PUSH1 0x1 PUSH1 0x1 PUSH1 0xA0 SHL SUB DUP2 AND DUP2 EQ PUSH3 0x68F JUMPI PUSH0 DUP1 REVERT JUMPDEST SWAP4 SWAP3 POP POP POP JUMP JUMPDEST PUSH2 0x2980 DUP1 PUSH3 0x6A4 PUSH0 CODECOPY PUSH0 RETURN INVALID PUSH1 0x80 PUSH1 0x40 MSTORE PUSH1 0x4 CALLDATASIZE LT PUSH2 0x283 JUMPI PUSH0 CALLDATALOAD PUSH1 0xE0 SHR DUP1 PUSH4 0x78FE1B13 GT PUSH2 0x155 JUMPI DUP1 PUSH4 0xB6C52324 GT PUSH2 0xBE JUMPI DUP1 PUSH4 0xE01AF92C GT PUSH2 0x78 JUMPI DUP1 PUSH4 0xE01AF92C EQ PUSH2 0x798 JUMPI DUP1 PUSH4 0xE339D520 EQ PUSH2 0x7B7 JUMPI DUP1 PUSH4 0xECFCA899 EQ PUSH2 0x7D6 JUMPI DUP1 PUSH4 0xF2CC0C18 EQ PUSH2 0x7EB JUMPI DUP1 PUSH4 0xF2FDE38B EQ PUSH2 0x80A JUMPI DUP1 PUSH4 0xF84354F1 EQ PUSH2 0x829 JUMPI PUSH0 DUP1 REVERT JUMPDEST DUP1 PUSH4 0xB6C52324 EQ PUSH2 0x6AC JUMPI DUP1 PUSH4 0xCBA0E996 EQ PUSH2 0x6C0 JUMPI DUP1 PUSH4 0xCC2FBD66 EQ PUSH2 0x6F7 JUMPI DUP1 PUSH4 0xD38AB97D EQ PUSH2 0x716 JUMPI DUP1 PUSH4 0xDD467064 EQ PUSH2 0x735 JUMPI DUP1 PUSH4 0xDD62ED3E EQ PUSH2 0x754 JUMPI PUSH0 DUP1 REVERT JUMPDEST DUP1 PUSH4 0xA5ECE941 GT PUSH2 0x10F JUMPI DUP1 PUSH4 0xA5ECE941 EQ PUSH2 0x607 JUMPI DUP1 PUSH4 0xA5F3D003 EQ PUSH2 0x626 JUMPI DUP1 PUSH4 0xA69DF4B5 EQ PUSH2 0x63B JUMPI DUP1 PUSH4 0xA9059CBB EQ PUSH2 0x64F JUMPI DUP1 PUSH4 0xAF9549E0 EQ PUSH2 0x66E JUMPI DUP1 PUSH4 0xAFCF2FC4 EQ PUSH2 0x68D JUMPI PUSH0 DUP1 REVERT JUMPDEST DUP1 PUSH4 0x78FE1B13 EQ PUSH2 0x570 JUMPI DUP1 PUSH4 0x8A8C523C EQ PUSH2 0x58F JUMPI DUP1 PUSH4 0x8DA5CB5B EQ PUSH2 0x5A3 JUMPI DUP1 PUSH4 0x95D89B41 EQ PUSH2 0x5BF JUMPI DUP1 PUSH4 0xA071DCF4 EQ PUSH2 0x5D3 JUMPI DUP1 PUSH4 0xA457C2D7 EQ PUSH2 0x5E8 JUMPI PUSH0 DUP1 REVERT JUMPDEST DUP1 PUSH4 0x3BD5D173 GT PUSH2 0x1F7 JUMPI DUP1 PUSH4 0x5880B873 GT PUSH2 0x1B1 JUMPI DUP1 PUSH4 0x5880B873 EQ PUSH2 0x4CA JUMPI DUP1 PUSH4 0x638B1B14 EQ PUSH2 0x4E9 JUMPI DUP1 PUSH4 0x6B67C4DF EQ PUSH2 0x508 JUMPI DUP1 PUSH4 0x6DDD1713 EQ PUSH2 0x51D JUMPI DUP1 PUSH4 0x70A08231 EQ PUSH2 0x53D JUMPI DUP1 PUSH4 0x715018A6 EQ PUSH2 0x55C JUMPI PUSH0 DUP1 REVERT JUMPDEST DUP1 PUSH4 0x3BD5D173 EQ PUSH2 0x404 JUMPI DUP1 PUSH4 0x4549B039 EQ PUSH2 0x423 JUMPI DUP1 PUSH4 0x49BD5A5E EQ PUSH2 0x442 JUMPI DUP1 PUSH4 0x4ADA218B EQ PUSH2 0x461 JUMPI DUP1 PUSH4 0x51BC3C85 EQ PUSH2 0x47F JUMPI DUP1 PUSH4 0x5342ACB4 EQ PUSH2 0x493 JUMPI PUSH0 DUP1 REVERT JUMPDEST DUP1 PUSH4 0x1BBAE6E0 GT PUSH2 0x248 JUMPI DUP1 PUSH4 0x1BBAE6E0 EQ PUSH2 0x350 JUMPI DUP1 PUSH4 0x23B872DD EQ PUSH2 0x371 JUMPI DUP1 PUSH4 0x2D838119 EQ PUSH2 0x390 JUMPI DUP1 PUSH4 0x313CE567 EQ PUSH2 0x3AF JUMPI DUP1 PUSH4 0x39509351 EQ PUSH2 0x3D0 JUMPI DUP1 PUSH4 0x3B2D081C EQ PUSH2 0x3EF JUMPI PUSH0 DUP1 REVERT JUMPDEST DUP1 PUSH4 0x6FDDE03 EQ PUSH2 0x28E JUMPI DUP1 PUSH4 0x95EA7B3 EQ PUSH2 0x2B8 JUMPI DUP1 PUSH4 0x13114A9D EQ PUSH2 0x2E7 JUMPI DUP1 PUSH4 0x1694505E EQ PUSH2 0x305 JUMPI DUP1 PUSH4 0x18160DDD EQ PUSH2 0x33C JUMPI PUSH0 DUP1 REVERT JUMPDEST CALLDATASIZE PUSH2 0x28A JUMPI STOP JUMPDEST PUSH0 DUP1 REVERT JUMPDEST CALLVALUE DUP1 ISZERO PUSH2 0x299 JUMPI PUSH0 DUP1 REVERT JUMPDEST POP PUSH2 0x2A2 PUSH2 0x848 JUMP JUMPDEST PUSH1 0x40 MLOAD PUSH2 0x2AF SWAP2 SWAP1 PUSH2 0x256B JUMP JUMPDEST PUSH1 0x40 MLOAD DUP1 SWAP2 SUB SWAP1 RETURN JUMPDEST CALLVALUE DUP1 ISZERO PUSH2 0x2C3 JUMPI PUSH0 DUP1 REVERT JUMPDEST POP PUSH2 0x2D7 PUSH2 0x2D2 CALLDATASIZE PUSH1 0x4 PUSH2 0x25CB JUMP JUMPDEST PUSH2 0x8D8 JUMP JUMPDEST PUSH1 0x40 MLOAD SWAP1 ISZERO ISZERO DUP2 MSTORE PUSH1 0x20 ADD PUSH2 0x2AF JUMP JUMPDEST CALLVALUE DUP1 ISZERO PUSH2 0x2F2 JUMPI PUSH0 DUP1 REVERT JUMPDEST POP PUSH1 0xB SLOAD JUMPDEST PUSH1 0x40 MLOAD SWAP1 DUP2 MSTORE PUSH1 0x20 ADD PUSH2 0x2AF JUMP JUMPDEST CALLVALUE DUP1 ISZERO PUSH2 0x310 JUMPI PUSH0 DUP1 REVERT JUMPDEST POP PUSH1 0x1E SLOAD PUSH2 0x324 SWAP1 PUSH1 0x1 PUSH1 0x1 PUSH1 0xA0 SHL SUB AND DUP2 JUMP JUMPDEST PUSH1 0x40 MLOAD PUSH1 0x1 PUSH1 0x1 PUSH1 0xA0 SHL SUB SWAP1 SWAP2 AND DUP2 MSTORE PUSH1 0x20 ADD PUSH2 0x2AF JUMP JUMPDEST CALLVALUE DUP1 ISZERO PUSH2 0x347 JUMPI PUSH0 DUP1 REVERT JUMPDEST POP PUSH1 0x9 SLOAD PUSH2 0x2F7 JUMP JUMPDEST CALLVALUE DUP1 ISZERO PUSH2 0x35B JUMPI PUSH0 DUP1 REVERT JUMPDEST POP PUSH2 0x36F PUSH2 0x36A CALLDATASIZE PUSH1 0x4 PUSH2 0x25F5 JUMP JUMPDEST PUSH2 0x8EE JUMP JUMPDEST STOP JUMPDEST CALLVALUE DUP1 ISZERO PUSH2 0x37C JUMPI PUSH0 DUP1 REVERT JUMPDEST POP PUSH2 0x2D7 PUSH2 0x38B CALLDATASIZE PUSH1 0x4 PUSH2 0x260C JUMP JUMPDEST PUSH2 0x990 JUMP JUMPDEST CALLVALUE DUP1 ISZERO PUSH2 0x39B JUMPI PUSH0 DUP1 REVERT JUMPDEST POP PUSH2 0x2F7 PUSH2 0x3AA CALLDATASIZE PUSH1 0x4 PUSH2 0x25F5 JUMP JUMPDEST PUSH2 0x9F7 JUMP JUMPDEST CALLVALUE DUP1 ISZERO PUSH2 0x3BA JUMPI PUSH0 DUP1 REVERT JUMPDEST POP PUSH1 0xE SLOAD PUSH1 0x40 MLOAD PUSH1 0xFF SWAP1 SWAP2 AND DUP2 MSTORE PUSH1 0x20 ADD PUSH2 0x2AF JUMP JUMPDEST CALLVALUE DUP1 ISZERO PUSH2 0x3DB JUMPI PUSH0 DUP1 REVERT JUMPDEST POP PUSH2 0x2D7 PUSH2 0x3EA CALLDATASIZE PUSH1 0x4 PUSH2 0x25CB JUMP JUMPDEST PUSH2 0xA79 JUMP JUMPDEST CALLVALUE DUP1 ISZERO PUSH2 0x3FA JUMPI PUSH0 DUP1 REVERT JUMPDEST POP PUSH2 0x2F7 PUSH1 0x13 SLOAD DUP2 JUMP JUMPDEST CALLVALUE DUP1 ISZERO PUSH2 0x40F JUMPI PUSH0 DUP1 REVERT JUMPDEST POP PUSH2 0x36F PUSH2 0x41E CALLDATASIZE PUSH1 0x4 PUSH2 0x25F5 JUMP JUMPDEST PUSH2 0xAAE JUMP JUMPDEST CALLVALUE DUP1 ISZERO PUSH2 0x42E JUMPI PUSH0 DUP1 REVERT JUMPDEST POP PUSH2 0x2F7 PUSH2 0x43D CALLDATASIZE PUSH1 0x4 PUSH2 0x265E JUMP JUMPDEST PUSH2 0xB94 JUMP JUMPDEST CALLVALUE DUP1 ISZERO PUSH2 0x44D JUMPI PUSH0 DUP1 REVERT JUMPDEST POP PUSH1 0x1F SLOAD PUSH2 0x324 SWAP1 PUSH1 0x1 PUSH1 0x1 PUSH1 0xA0 SHL SUB AND DUP2 JUMP JUMPDEST CALLVALUE DUP1 ISZERO PUSH2 0x46C JUMPI PUSH0 DUP1 REVERT JUMPDEST POP PUSH1 0xE SLOAD PUSH2 0x2D7 SWAP1 PUSH2 0x100 SWAP1 DIV PUSH1 0xFF AND DUP2 JUMP JUMPDEST CALLVALUE DUP1 ISZERO PUSH2 0x48A JUMPI PUSH0 DUP1 REVERT JUMPDEST POP PUSH2 0x36F PUSH2 0xC1E JUMP JUMPDEST CALLVALUE DUP1 ISZERO PUSH2 0x49E JUMPI PUSH0 DUP1 REVERT JUMPDEST POP PUSH2 0x2D7 PUSH2 0x4AD CALLDATASIZE PUSH1 0x4 PUSH2 0x2688 JUMP JUMPDEST PUSH1 0x1 PUSH1 0x1 PUSH1 0xA0 SHL SUB AND PUSH0 SWAP1 DUP2 MSTORE PUSH1 0x6 PUSH1 0x20 MSTORE PUSH1 0x40 SWAP1 KECCAK256 SLOAD PUSH1 0xFF AND SWAP1 JUMP JUMPDEST CALLVALUE DUP1 ISZERO PUSH2 0x4D5 JUMPI PUSH0 DUP1 REVERT JUMPDEST POP PUSH2 0x36F PUSH2 0x4E4 CALLDATASIZE PUSH1 0x4 PUSH2 0x25F5 JUMP JUMPDEST PUSH2 0xC5F JUMP JUMPDEST CALLVALUE DUP1 ISZERO PUSH2 0x4F4 JUMPI PUSH0 DUP1 REVERT JUMPDEST POP PUSH1 0x1C SLOAD PUSH2 0x324 SWAP1 PUSH1 0x1 PUSH1 0x1 PUSH1 0xA0 SHL SUB AND DUP2 JUMP JUMPDEST CALLVALUE DUP1 ISZERO PUSH2 0x513 JUMPI PUSH0 DUP1 REVERT JUMPDEST POP PUSH2 0x2F7 PUSH1 0x11 SLOAD DUP2 JUMP JUMPDEST CALLVALUE DUP1 ISZERO PUSH2 0x528 JUMPI PUSH0 DUP1 REVERT JUMPDEST POP PUSH1 0x1F SLOAD PUSH2 0x2D7 SWAP1 PUSH1 0x1 PUSH1 0xA8 SHL SWAP1 DIV PUSH1 0xFF AND DUP2 JUMP JUMPDEST CALLVALUE DUP1 ISZERO PUSH2 0x548 JUMPI PUSH0 DUP1 REVERT JUMPDEST POP PUSH2 0x2F7 PUSH2 0x557 CALLDATASIZE PUSH1 0x4 PUSH2 0x2688 JUMP JUMPDEST PUSH2 0xC8D JUMP JUMPDEST CALLVALUE DUP1 ISZERO PUSH2 0x567 JUMPI PUSH0 DUP1 REVERT JUMPDEST POP PUSH2 0x36F PUSH2 0xCE9 JUMP JUMPDEST CALLVALUE DUP1 ISZERO PUSH2 0x57B JUMPI PUSH0 DUP1 REVERT JUMPDEST POP PUSH2 0x36F PUSH2 0x58A CALLDATASIZE PUSH1 0x4 PUSH2 0x2688 JUMP JUMPDEST PUSH2 0xD47 JUMP JUMPDEST CALLVALUE DUP1 ISZERO PUSH2 0x59A JUMPI PUSH0 DUP1 REVERT JUMPDEST POP PUSH2 0x36F PUSH2 0xD92 JUMP JUMPDEST CALLVALUE DUP1 ISZERO PUSH2 0x5AE JUMPI PUSH0 DUP1 REVERT JUMPDEST POP PUSH0 SLOAD PUSH1 0x1 PUSH1 0x1 PUSH1 0xA0 SHL SUB AND PUSH2 0x324 JUMP JUMPDEST CALLVALUE DUP1 ISZERO PUSH2 0x5CA JUMPI PUSH0 DUP1 REVERT JUMPDEST POP PUSH2 0x2A2 PUSH2 0xDCC JUMP JUMPDEST CALLVALUE DUP1 ISZERO PUSH2 0x5DE JUMPI PUSH0 DUP1 REVERT JUMPDEST POP PUSH2 0x2F7 PUSH1 0xF SLOAD DUP2 JUMP JUMPDEST CALLVALUE DUP1 ISZERO PUSH2 0x5F3 JUMPI PUSH0 DUP1 REVERT JUMPDEST POP PUSH2 0x2D7 PUSH2 0x602 CALLDATASIZE PUSH1 0x4 PUSH2 0x25CB JUMP JUMPDEST PUSH2 0xDDB JUMP JUMPDEST CALLVALUE DUP1 ISZERO PUSH2 0x612 JUMPI PUSH0 DUP1 REVERT JUMPDEST POP PUSH1 0x1B SLOAD PUSH2 0x324 SWAP1 PUSH1 0x1 PUSH1 0x1 PUSH1 0xA0 SHL SUB AND DUP2 JUMP JUMPDEST CALLVALUE DUP1 ISZERO PUSH2 0x631 JUMPI PUSH0 DUP1 REVERT JUMPDEST POP PUSH2 0x2F7 PUSH1 0x12 SLOAD DUP2 JUMP JUMPDEST CALLVALUE DUP1 ISZERO PUSH2 0x646 JUMPI PUSH0 DUP1 REVERT JUMPDEST POP PUSH2 0x36F PUSH2 0xE28 JUMP JUMPDEST CALLVALUE DUP1 ISZERO PUSH2 0x65A JUMPI PUSH0 DUP1 REVERT JUMPDEST POP PUSH2 0x2D7 PUSH2 0x669 CALLDATASIZE PUSH1 0x4 PUSH2 0x25CB JUMP JUMPDEST PUSH2 0xF2B JUMP JUMPDEST CALLVALUE DUP1 ISZERO PUSH2 0x679 JUMPI PUSH0 DUP1 REVERT JUMPDEST POP PUSH2 0x36F PUSH2 0x688 CALLDATASIZE PUSH1 0x4 PUSH2 0x26A3 JUMP JUMPDEST PUSH2 0xF37 JUMP JUMPDEST CALLVALUE DUP1 ISZERO PUSH2 0x698 JUMPI PUSH0 DUP1 REVERT JUMPDEST POP PUSH1 0x1A SLOAD PUSH2 0x324 SWAP1 PUSH1 0x1 PUSH1 0x1 PUSH1 0xA0 SHL SUB AND DUP2 JUMP JUMPDEST CALLVALUE DUP1 ISZERO PUSH2 0x6B7 JUMPI PUSH0 DUP1 REVERT JUMPDEST POP PUSH1 0x2 SLOAD PUSH2 0x2F7 JUMP JUMPDEST CALLVALUE DUP1 ISZERO PUSH2 0x6CB JUMPI PUSH0 DUP1 REVERT JUMPDEST POP PUSH2 0x2D7 PUSH2 0x6DA CALLDATASIZE PUSH1 0x4 PUSH2 0x2688 JUMP JUMPDEST PUSH1 0x1 PUSH1 0x1 PUSH1 0xA0 SHL SUB AND PUSH0 SWAP1 DUP2 MSTORE PUSH1 0x7 PUSH1 0x20 MSTORE PUSH1 0x40 SWAP1 KECCAK256 SLOAD PUSH1 0xFF AND SWAP1 JUMP JUMPDEST CALLVALUE DUP1 ISZERO PUSH2 0x702 JUMPI PUSH0 DUP1 REVERT JUMPDEST POP PUSH1 0x1D SLOAD PUSH2 0x324 SWAP1 PUSH1 0x1 PUSH1 0x1 PUSH1 0xA0 SHL SUB AND DUP2 JUMP JUMPDEST CALLVALUE DUP1 ISZERO PUSH2 0x721 JUMPI PUSH0 DUP1 REVERT JUMPDEST POP PUSH2 0x36F PUSH2 0x730 CALLDATASIZE PUSH1 0x4 PUSH2 0x26CD JUMP JUMPDEST PUSH2 0xF8A JUMP JUMPDEST CALLVALUE DUP1 ISZERO PUSH2 0x740 JUMPI PUSH0 DUP1 REVERT JUMPDEST POP PUSH2 0x36F PUSH2 0x74F CALLDATASIZE PUSH1 0x4 PUSH2 0x25F5 JUMP JUMPDEST PUSH2 0x1042 JUMP JUMPDEST CALLVALUE DUP1 ISZERO PUSH2 0x75F JUMPI PUSH0 DUP1 REVERT JUMPDEST POP PUSH2 0x2F7 PUSH2 0x76E CALLDATASIZE PUSH1 0x4 PUSH2 0x26FC JUMP JUMPDEST PUSH1 0x1 PUSH1 0x1 PUSH1 0xA0 SHL SUB SWAP2 DUP3 AND PUSH0 SWAP1 DUP2 MSTORE PUSH1 0x5 PUSH1 0x20 SWAP1 DUP2 MSTORE PUSH1 0x40 DUP1 DUP4 KECCAK256 SWAP4 SWAP1 SWAP5 AND DUP3 MSTORE SWAP2 SWAP1 SWAP2 MSTORE KECCAK256 SLOAD SWAP1 JUMP JUMPDEST CALLVALUE DUP1 ISZERO PUSH2 0x7A3 JUMPI PUSH0 DUP1 REVERT JUMPDEST POP PUSH2 0x36F PUSH2 0x7B2 CALLDATASIZE PUSH1 0x4 PUSH2 0x2733 JUMP JUMPDEST PUSH2 0x10C3 JUMP JUMPDEST CALLVALUE DUP1 ISZERO PUSH2 0x7C2 JUMPI PUSH0 DUP1 REVERT JUMPDEST POP PUSH2 0x36F PUSH2 0x7D1 CALLDATASIZE PUSH1 0x4 PUSH2 0x25F5 JUMP JUMPDEST PUSH2 0x110A JUMP JUMPDEST CALLVALUE DUP1 ISZERO PUSH2 0x7E1 JUMPI PUSH0 DUP1 REVERT JUMPDEST POP PUSH2 0x2F7 PUSH1 0x10 SLOAD DUP2 JUMP JUMPDEST CALLVALUE DUP1 ISZERO PUSH2 0x7F6 JUMPI PUSH0 DUP1 REVERT JUMPDEST POP PUSH2 0x36F PUSH2 0x805 CALLDATASIZE PUSH1 0x4 PUSH2 0x2688 JUMP JUMPDEST PUSH2 0x1138 JUMP JUMPDEST CALLVALUE DUP1 ISZERO PUSH2 0x815 JUMPI PUSH0 DUP1 REVERT JUMPDEST POP PUSH2 0x36F PUSH2 0x824 CALLDATASIZE PUSH1 0x4 PUSH2 0x2688 JUMP JUMPDEST PUSH2 0x12FC JUMP JUMPDEST CALLVALUE DUP1 ISZERO PUSH2 0x834 JUMPI PUSH0 DUP1 REVERT JUMPDEST POP PUSH2 0x36F PUSH2 0x843 CALLDATASIZE PUSH1 0x4 PUSH2 0x2688 JUMP JUMPDEST PUSH2 0x13D0 JUMP JUMPDEST PUSH1 0x60 PUSH1 0xC DUP1 SLOAD PUSH2 0x857 SWAP1 PUSH2 0x274C JUMP JUMPDEST DUP1 PUSH1 0x1F ADD PUSH1 0x20 DUP1 SWAP2 DIV MUL PUSH1 0x20 ADD PUSH1 0x40 MLOAD SWAP1 DUP2 ADD PUSH1 0x40 MSTORE DUP1 SWAP3 SWAP2 SWAP1 DUP2 DUP2 MSTORE PUSH1 0x20 ADD DUP3 DUP1 SLOAD PUSH2 0x883 SWAP1 PUSH2 0x274C JUMP JUMPDEST DUP1 ISZERO PUSH2 0x8CE JUMPI DUP1 PUSH1 0x1F LT PUSH2 0x8A5 JUMPI PUSH2 0x100 DUP1 DUP4 SLOAD DIV MUL DUP4 MSTORE SWAP2 PUSH1 0x20 ADD SWAP2 PUSH2 0x8CE JUMP JUMPDEST DUP3 ADD SWAP2 SWAP1 PUSH0 MSTORE PUSH1 0x20 PUSH0 KECCAK256 SWAP1 JUMPDEST DUP2 SLOAD DUP2 MSTORE SWAP1 PUSH1 0x1 ADD SWAP1 PUSH1 0x20 ADD DUP1 DUP4 GT PUSH2 0x8B1 JUMPI DUP3 SWAP1 SUB PUSH1 0x1F AND DUP3 ADD SWAP2 JUMPDEST POP POP POP POP POP SWAP1 POP SWAP1 JUMP JUMPDEST PUSH0 PUSH2 0x8E4 CALLER DUP5 DUP5 PUSH2 0x1574 JUMP JUMPDEST POP PUSH1 0x1 JUMPDEST SWAP3 SWAP2 POP POP JUMP JUMPDEST PUSH0 SLOAD PUSH1 0x1 PUSH1 0x1 PUSH1 0xA0 SHL SUB AND CALLER EQ PUSH2 0x920 JUMPI PUSH1 0x40 MLOAD PUSH3 0x461BCD PUSH1 0xE5 SHL DUP2 MSTORE PUSH1 0x4 ADD PUSH2 0x917 SWAP1 PUSH2 0x2784 JUMP JUMPDEST PUSH1 0x40 MLOAD DUP1 SWAP2 SUB SWAP1 REVERT JUMPDEST PUSH7 0x2386F26FC10000 DUP2 LT ISZERO PUSH2 0x98B JUMPI PUSH1 0x40 MLOAD PUSH3 0x461BCD PUSH1 0xE5 SHL DUP2 MSTORE PUSH1 0x20 PUSH1 0x4 DUP3 ADD MSTORE PUSH1 0x2B PUSH1 0x24 DUP3 ADD MSTORE PUSH32 0x6D61785478416D6F756E742073686F756C642062652067726561746572207468 PUSH1 0x44 DUP3 ADD MSTORE PUSH11 0x616E20313030303030303 PUSH1 0xAC SHL PUSH1 0x64 DUP3 ADD MSTORE PUSH1 0x84 ADD PUSH2 0x917 JUMP JUMPDEST PUSH1 0x20 SSTORE JUMP JUMPDEST PUSH0 PUSH2 0x99C DUP5 DUP5 DUP5 PUSH2 0x1697 JUMP JUMPDEST PUSH2 0x9ED DUP5 CALLER PUSH2 0x9E8 DUP6 PUSH1 0x40 MLOAD DUP1 PUSH1 0x60 ADD PUSH1 0x40 MSTORE DUP1 PUSH1 0x28 DUP2 MSTORE PUSH1 0x20 ADD PUSH2 0x28DE PUSH1 0x28 SWAP2 CODECOPY PUSH1 0x1 PUSH1 0x1 PUSH1 0xA0 SHL SUB DUP11 AND PUSH0 SWAP1 DUP2 MSTORE PUSH1 0x5 PUSH1 0x20 SWAP1 DUP2 MSTORE PUSH1 0x40 DUP1 DUP4 KECCAK256 CALLER DUP5 MSTORE SWAP1 SWAP2 MSTORE SWAP1 KECCAK256 SLOAD SWAP2 SWAP1 PUSH2 0x19DE JUMP JUMPDEST PUSH2 0x1574 JUMP JUMPDEST POP PUSH1 0x1 SWAP4 SWAP3 POP POP POP JUMP JUMPDEST PUSH0 PUSH1 0xA SLOAD DUP3 GT ISZERO PUSH2 0xA5D JUMPI PUSH1 0x40 MLOAD PUSH3 0x461BCD PUSH1 0xE5 SHL DUP2 MSTORE PUSH1 0x20 PUSH1 0x4 DUP3 ADD MSTORE PUSH1 0x2A PUSH1 0x24 DUP3 ADD MSTORE PUSH32 0x416D6F756E74206D757374206265206C657373207468616E20746F74616C2072 PUSH1 0x44 DUP3 ADD MSTORE PUSH10 0x65666C656374696F6E73 PUSH1 0xB0 SHL PUSH1 0x64 DUP3 ADD MSTORE PUSH1 0x84 ADD PUSH2 0x917 JUMP JUMPDEST PUSH0 PUSH2 0xA66 PUSH2 0x1A16 JUMP JUMPDEST SWAP1 POP PUSH2 0xA72 DUP4 DUP3 PUSH2 0x1A37 JUMP JUMPDEST SWAP4 SWAP3 POP POP POP JUMP JUMPDEST CALLER PUSH0 DUP2 DUP2 MSTORE PUSH1 0x5 PUSH1 0x20 SWAP1 DUP2 MSTORE PUSH1 0x40 DUP1 DUP4 KECCAK256 PUSH1 0x1 PUSH1 0x1 PUSH1 0xA0 SHL SUB DUP8 AND DUP5 MSTORE SWAP1 SWAP2 MSTORE DUP2 KECCAK256 SLOAD SWAP1 SWAP2 PUSH2 0x8E4 SWAP2 DUP6 SWAP1 PUSH2 0x9E8 SWAP1 DUP7 PUSH2 0x1A78 JUMP JUMPDEST CALLER PUSH0 DUP2 DUP2 MSTORE PUSH1 0x7 PUSH1 0x20 MSTORE PUSH1 0x40 SWAP1 KECCAK256 SLOAD PUSH1 0xFF AND ISZERO PUSH2 0xB22 JUMPI PUSH1 0x40 MLOAD PUSH3 0x461BCD PUSH1 0xE5 SHL DUP2 MSTORE PUSH1 0x20 PUSH1 0x4 DUP3 ADD MSTORE PUSH1 0x2C PUSH1 0x24 DUP3 ADD MSTORE PUSH32 0x4578636C75646564206164647265737365732063616E6E6F742063616C6C2074 PUSH1 0x44 DUP3 ADD MSTORE PUSH12 0x3434B990333AB731BA34B7B7 PUSH1 0xA1 SHL PUSH1 0x64 DUP3 ADD MSTORE PUSH1 0x84 ADD PUSH2 0x917 JUMP JUMPDEST PUSH0 PUSH2 0xB2C DUP4 PUSH2 0x1AD6 JUMP JUMPDEST POP POP POP POP PUSH1 0x1 PUSH1 0x1 PUSH1 0xA0 SHL SUB DUP5 AND PUSH0 SWAP1 DUP2 MSTORE PUSH1 0x3 PUSH1 0x20 MSTORE PUSH1 0x40 SWAP1 KECCAK256 SLOAD SWAP2 SWAP3 POP PUSH2 0xB57 SWAP2 SWAP1 POP DUP3 PUSH2 0x1B2A JUMP JUMPDEST PUSH1 0x1 PUSH1 0x1 PUSH1 0xA0 SHL SUB DUP4 AND PUSH0 SWAP1 DUP2 MSTORE PUSH1 0x3 PUSH1 0x20 MSTORE PUSH1 0x40 SWAP1 KECCAK256 SSTORE PUSH1 0xA SLOAD PUSH2 0xB7C SWAP1 DUP3 PUSH2 0x1B2A JUMP JUMPDEST PUSH1 0xA SSTORE PUSH1 0xB SLOAD PUSH2 0xB8C SWAP1 DUP5 PUSH2 0x1A78 JUMP JUMPDEST PUSH1 0xB SSTORE POP POP POP JUMP JUMPDEST PUSH0 PUSH1 0x9 SLOAD DUP4 GT ISZERO PUSH2 0xBE7 JUMPI PUSH1 0x40 MLOAD PUSH3 0x461BCD PUSH1 0xE5 SHL DUP2 MSTORE PUSH1 0x20 PUSH1 0x4 DUP3 ADD MSTORE PUSH1 0x1F PUSH1 0x24 DUP3 ADD MSTORE PUSH32 0x416D6F756E74206D757374206265206C657373207468616E20737570706C7900 PUSH1 0x44 DUP3 ADD MSTORE PUSH1 0x64 ADD PUSH2 0x917 JUMP JUMPDEST DUP2 PUSH2 0xC05 JUMPI PUSH0 PUSH2 0xBF6 DUP5 PUSH2 0x1AD6 JUMP JUMPDEST POP SWAP4 SWAP6 POP PUSH2 0x8E8 SWAP5 POP POP POP POP POP JUMP JUMPDEST PUSH0 PUSH2 0xC0F DUP5 PUSH2 0x1AD6 JUMP JUMPDEST POP SWAP3 SWAP6 POP PUSH2 0x8E8 SWAP5 POP POP POP POP POP JUMP JUMPDEST PUSH0 SLOAD PUSH1 0x1 PUSH1 0x1 PUSH1 0xA0 SHL SUB AND CALLER EQ PUSH2 0xC47 JUMPI PUSH1 0x40 MLOAD PUSH3 0x461BCD PUSH1 0xE5 SHL DUP2 MSTORE PUSH1 0x4 ADD PUSH2 0x917 SWAP1 PUSH2 0x2784 JUMP JUMPDEST PUSH0 PUSH2 0xC51 ADDRESS PUSH2 0xC8D JUMP JUMPDEST SWAP1 POP PUSH2 0xC5C DUP2 PUSH2 0x1B6B JUMP JUMPDEST POP JUMP JUMPDEST PUSH0 SLOAD PUSH1 0x1 PUSH1 0x1 PUSH1 0xA0 SHL SUB AND CALLER EQ PUSH2 0xC88 JUMPI PUSH1 0x40 MLOAD PUSH3 0x461BCD PUSH1 0xE5 SHL DUP2 MSTORE PUSH1 0x4 ADD PUSH2 0x917 SWAP1 PUSH2 0x2784 JUMP JUMPDEST PUSH1 0xF SSTORE JUMP JUMPDEST PUSH1 0x1 PUSH1 0x1 PUSH1 0xA0 SHL SUB DUP2 AND PUSH0 SWAP1 DUP2 MSTORE PUSH1 0x7 PUSH1 0x20 MSTORE PUSH1 0x40 DUP2 KECCAK256 SLOAD PUSH1 0xFF AND ISZERO PUSH2 0xCC8 JUMPI POP PUSH1 0x1 PUSH1 0x1 PUSH1 0xA0 SHL SUB AND PUSH0 SWAP1 DUP2 MSTORE PUSH1 0x4 PUSH1 0x20 MSTORE PUSH1 0x40 SWAP1 KECCAK256 SLOAD SWAP1 JUMP JUMPDEST PUSH1 0x1 PUSH1 0x1 PUSH1 0xA0 SHL SUB DUP3 AND PUSH0 SWAP1 DUP2 MSTORE PUSH1 0x3 PUSH1 0x20 MSTORE PUSH1 0x40 SWAP1 KECCAK256 SLOAD PUSH2 0x8E8 SWAP1 PUSH2 0x9F7 JUMP JUMPDEST PUSH0 SLOAD PUSH1 0x1 PUSH1 0x1 PUSH1 0xA0 SHL SUB AND CALLER EQ PUSH2 0xD12 JUMPI PUSH1 0x40 MLOAD PUSH3 0x461BCD PUSH1 0xE5 SHL DUP2 MSTORE PUSH1 0x4 ADD PUSH2 0x917 SWAP1 PUSH2 0x2784 JUMP JUMPDEST PUSH0 DUP1 SLOAD PUSH1 0x40 MLOAD PUSH1 0x1 PUSH1 0x1 PUSH1 0xA0 SHL SUB SWAP1 SWAP2 AND SWAP1 PUSH0 DUP1 MLOAD PUSH1 0x20 PUSH2 0x2906 DUP4 CODECOPY DUP2 MLOAD SWAP2 MSTORE SWAP1 DUP4 SWAP1 LOG3 PUSH0 DUP1 SLOAD PUSH1 0x1 PUSH1 0x1 PUSH1 0xA0 SHL SUB NOT AND SWAP1 SSTORE JUMP JUMPDEST PUSH0 SLOAD PUSH1 0x1 PUSH1 0x1 PUSH1 0xA0 SHL SUB AND CALLER EQ PUSH2 0xD70 JUMPI PUSH1 0x40 MLOAD PUSH3 0x461BCD PUSH1 0xE5 SHL DUP2 MSTORE PUSH1 0x4 ADD PUSH2 0x917 SWAP1 PUSH2 0x2784 JUMP JUMPDEST PUSH1 0x1F DUP1 SLOAD PUSH1 0x1 PUSH1 0x1 PUSH1 0xA0 SHL SUB NOT AND PUSH1 0x1 PUSH1 0x1 PUSH1 0xA0 SHL SUB SWAP3 SWAP1 SWAP3 AND SWAP2 SWAP1 SWAP2 OR SWAP1 SSTORE JUMP JUMPDEST PUSH0 SLOAD PUSH1 0x1 PUSH1 0x1 PUSH1 0xA0 SHL SUB AND CALLER EQ PUSH2 0xDBB JUMPI PUSH1 0x40 MLOAD PUSH3 0x461BCD PUSH1 0xE5 SHL DUP2 MSTORE PUSH1 0x4 ADD PUSH2 0x917 SWAP1 PUSH2 0x2784 JUMP JUMPDEST PUSH1 0xE DUP1 SLOAD PUSH2 0xFF00 NOT AND PUSH2 0x100 OR SWAP1 SSTORE JUMP JUMPDEST PUSH1 0x60 PUSH1 0xD DUP1 SLOAD PUSH2 0x857 SWAP1 PUSH2 0x274C JUMP JUMPDEST PUSH0 PUSH2 0x8E4 CALLER DUP5 PUSH2 0x9E8 DUP6 PUSH1 0x40 MLOAD DUP1 PUSH1 0x60 ADD PUSH1 0x40 MSTORE DUP1 PUSH1 0x25 DUP2 MSTORE PUSH1 0x20 ADD PUSH2 0x2926 PUSH1 0x25 SWAP2 CODECOPY CALLER PUSH0 SWAP1 DUP2 MSTORE PUSH1 0x5 PUSH1 0x20 SWAP1 DUP2 MSTORE PUSH1 0x40 DUP1 DUP4 KECCAK256 PUSH1 0x1 PUSH1 0x1 PUSH1 0xA0 SHL SUB DUP14 AND DUP5 MSTORE SWAP1 SWAP2 MSTORE SWAP1 KECCAK256 SLOAD SWAP2 SWAP1 PUSH2 0x19DE JUMP JUMPDEST PUSH1 0x1 SLOAD PUSH1 0x1 PUSH1 0x1 PUSH1 0xA0 SHL SUB AND CALLER EQ PUSH2 0xE8E JUMPI PUSH1 0x40 MLOAD PUSH3 0x461BCD PUSH1 0xE5 SHL DUP2 MSTORE PUSH1 0x20 PUSH1 0x4 DUP3 ADD MSTORE PUSH1 0x23 PUSH1 0x24 DUP3 ADD MSTORE PUSH32 0x596F7520646F6E27742068617665207065726D697373696F6E20746F20756E6C PUSH1 0x44 DUP3 ADD MSTORE PUSH3 0x6F636B PUSH1 0xE8 SHL PUSH1 0x64 DUP3 ADD MSTORE PUSH1 0x84 ADD PUSH2 0x917 JUMP JUMPDEST PUSH1 0x2 SLOAD TIMESTAMP GT PUSH2 0xEDF JUMPI PUSH1 0x40 MLOAD PUSH3 0x461BCD PUSH1 0xE5 SHL DUP2 MSTORE PUSH1 0x20 PUSH1 0x4 DUP3 ADD MSTORE PUSH1 0x1F PUSH1 0x24 DUP3 ADD MSTORE PUSH32 0x436F6E7472616374206973206C6F636B656420756E74696C2037206461797300 PUSH1 0x44 DUP3 ADD MSTORE PUSH1 0x64 ADD PUSH2 0x917 JUMP JUMPDEST PUSH1 0x1 SLOAD PUSH0 DUP1 SLOAD PUSH1 0x40 MLOAD PUSH1 0x1 PUSH1 0x1 PUSH1 0xA0 SHL SUB SWAP4 DUP5 AND SWAP4 SWAP1 SWAP2 AND SWAP2 PUSH0 DUP1 MLOAD PUSH1 0x20 PUSH2 0x2906 DUP4 CODECOPY DUP2 MLOAD SWAP2 MSTORE SWAP2 LOG3 PUSH1 0x1 SLOAD PUSH0 DUP1 SLOAD PUSH1 0x1 PUSH1 0x1 PUSH1 0xA0 SHL SUB NOT AND PUSH1 0x1 PUSH1 0x1 PUSH1 0xA0 SHL SUB SWAP1 SWAP3 AND SWAP2 SWAP1 SWAP2 OR SWAP1 SSTORE JUMP JUMPDEST PUSH0 PUSH2 0x8E4 CALLER DUP5 DUP5 PUSH2 0x1697 JUMP JUMPDEST PUSH0 SLOAD PUSH1 0x1 PUSH1 0x1 PUSH1 0xA0 SHL SUB AND CALLER EQ PUSH2 0xF60 JUMPI PUSH1 0x40 MLOAD PUSH3 0x461BCD PUSH1 0xE5 SHL DUP2 MSTORE PUSH1 0x4 ADD PUSH2 0x917 SWAP1 PUSH2 0x2784 JUMP JUMPDEST PUSH1 0x1 PUSH1 0x1 PUSH1 0xA0 SHL SUB SWAP2 SWAP1 SWAP2 AND PUSH0 SWAP1 DUP2 MSTORE PUSH1 0x6 PUSH1 0x20 MSTORE PUSH1 0x40 SWAP1 KECCAK256 DUP1 SLOAD PUSH1 0xFF NOT AND SWAP2 ISZERO ISZERO SWAP2 SWAP1 SWAP2 OR SWAP1 SSTORE JUMP JUMPDEST PUSH0 SLOAD PUSH1 0x1 PUSH1 0x1 PUSH1 0xA0 SHL SUB AND CALLER EQ PUSH2 0xFB3 JUMPI PUSH1 0x40 MLOAD PUSH3 0x461BCD PUSH1 0xE5 SHL DUP2 MSTORE PUSH1 0x4 ADD PUSH2 0x917 SWAP1 PUSH2 0x2784 JUMP JUMPDEST PUSH1 0x10 DUP5 SWAP1 SSTORE PUSH1 0x11 DUP4 SWAP1 SSTORE PUSH1 0x12 DUP3 SWAP1 SSTORE PUSH1 0x13 DUP2 SWAP1 SSTORE DUP1 DUP3 PUSH2 0xFD3 DUP6 DUP8 PUSH2 0x27CD JUMP JUMPDEST PUSH2 0xFDD SWAP2 SWAP1 PUSH2 0x27CD JUMP JUMPDEST PUSH2 0xFE7 SWAP2 SWAP1 PUSH2 0x27CD JUMP JUMPDEST PUSH1 0x14 DUP2 SWAP1 SSTORE PUSH1 0x8 LT ISZERO PUSH2 0x103C JUMPI PUSH1 0x40 MLOAD PUSH3 0x461BCD PUSH1 0xE5 SHL DUP2 MSTORE PUSH1 0x20 PUSH1 0x4 DUP3 ADD MSTORE PUSH1 0x1E PUSH1 0x24 DUP3 ADD MSTORE PUSH32 0x4665652069732063726F7373696E672074686520626F756E6461726965730000 PUSH1 0x44 DUP3 ADD MSTORE PUSH1 0x64 ADD PUSH2 0x917 JUMP JUMPDEST POP POP POP POP JUMP JUMPDEST PUSH0 SLOAD PUSH1 0x1 PUSH1 0x1 PUSH1 0xA0 SHL SUB AND CALLER EQ PUSH2 0x106B JUMPI PUSH1 0x40 MLOAD PUSH3 0x461BCD PUSH1 0xE5 SHL DUP2 MSTORE PUSH1 0x4 ADD PUSH2 0x917 SWAP1 PUSH2 0x2784 JUMP JUMPDEST PUSH0 DUP1 SLOAD PUSH1 0x1 DUP1 SLOAD PUSH1 0x1 PUSH1 0x1 PUSH1 0xA0 SHL SUB NOT SWAP1 DUP2 AND PUSH1 0x1 PUSH1 0x1 PUSH1 0xA0 SHL SUB DUP5 AND OR SWAP1 SWAP2 SSTORE AND SWAP1 SSTORE PUSH2 0x1099 DUP2 TIMESTAMP PUSH2 0x27CD JUMP JUMPDEST PUSH1 0x2 SSTORE PUSH0 DUP1 SLOAD PUSH1 0x40 MLOAD PUSH1 0x1 PUSH1 0x1 PUSH1 0xA0 SHL SUB SWAP1 SWAP2 AND SWAP1 PUSH0 DUP1 MLOAD PUSH1 0x20 PUSH2 0x2906 DUP4 CODECOPY DUP2 MLOAD SWAP2 MSTORE SWAP1 DUP4 SWAP1 LOG3 POP JUMP JUMPDEST PUSH0 SLOAD PUSH1 0x1 PUSH1 0x1 PUSH1 0xA0 SHL SUB AND CALLER EQ PUSH2 0x10EC JUMPI PUSH1 0x40 MLOAD PUSH3 0x461BCD PUSH1 0xE5 SHL DUP2 MSTORE PUSH1 0x4 ADD PUSH2 0x917 SWAP1 PUSH2 0x2784 JUMP JUMPDEST PUSH1 0x1F DUP1 SLOAD SWAP2 ISZERO ISZERO PUSH1 0x1 PUSH1 0xA8 SHL MUL PUSH1 0xFF PUSH1 0xA8 SHL NOT SWAP1 SWAP3 AND SWAP2 SWAP1 SWAP2 OR SWAP1 SSTORE JUMP JUMPDEST PUSH0 SLOAD PUSH1 0x1 PUSH1 0x1 PUSH1 0xA0 SHL SUB AND CALLER EQ PUSH2 0x1133 JUMPI PUSH1 0x40 MLOAD PUSH3 0x461BCD PUSH1 0xE5 SHL DUP2 MSTORE PUSH1 0x4 ADD PUSH2 0x917 SWAP1 PUSH2 0x2784 JUMP JUMPDEST PUSH1 0x21 SSTORE JUMP JUMPDEST PUSH0 SLOAD PUSH1 0x1 PUSH1 0x1 PUSH1 0xA0 SHL SUB AND CALLER EQ PUSH2 0x1161 JUMPI PUSH1 0x40 MLOAD PUSH3 0x461BCD PUSH1 0xE5 SHL DUP2 MSTORE PUSH1 0x4 ADD PUSH2 0x917 SWAP1 PUSH2 0x2784 JUMP JUMPDEST PUSH1 0x1 PUSH1 0x1 PUSH1 0xA0 SHL SUB DUP2 AND PUSH20 0x7A250D5630B4CF539739DF2C5DACB4C659F2488D SUB PUSH2 0x11D8 JUMPI PUSH1 0x40 MLOAD PUSH3 0x461BCD PUSH1 0xE5 SHL DUP2 MSTORE PUSH1 0x20 PUSH1 0x4 DUP3 ADD MSTORE PUSH1 0x22 PUSH1 0x24 DUP3 ADD MSTORE PUSH32 0x57652063616E206E6F74206578636C75646520556E697377617020726F757465 PUSH1 0x44 DUP3 ADD MSTORE PUSH2 0x3917 PUSH1 0xF1 SHL PUSH1 0x64 DUP3 ADD MSTORE PUSH1 0x84 ADD PUSH2 0x917 JUMP JUMPDEST PUSH1 0x1 PUSH1 0x1 PUSH1 0xA0 SHL SUB DUP2 AND PUSH0 SWAP1 DUP2 MSTORE PUSH1 0x7 PUSH1 0x20 MSTORE PUSH1 0x40 SWAP1 KECCAK256 SLOAD PUSH1 0xFF AND ISZERO PUSH2 0x1240 JUMPI PUSH1 0x40 MLOAD PUSH3 0x461BCD PUSH1 0xE5 SHL DUP2 MSTORE PUSH1 0x20 PUSH1 0x4 DUP3 ADD MSTORE PUSH1 0x1B PUSH1 0x24 DUP3 ADD MSTORE PUSH32 0x4163636F756E7420697320616C7265616479206578636C756465640000000000 PUSH1 0x44 DUP3 ADD MSTORE PUSH1 0x64 ADD PUSH2 0x917 JUMP JUMPDEST PUSH1 0x1 PUSH1 0x1 PUSH1 0xA0 SHL SUB DUP2 AND PUSH0 SWAP1 DUP2 MSTORE PUSH1 0x3 PUSH1 0x20 MSTORE PUSH1 0x40 SWAP1 KECCAK256 SLOAD ISZERO PUSH2 0x1297 JUMPI PUSH1 0x1 PUSH1 0x1 PUSH1 0xA0 SHL SUB DUP2 AND PUSH0 SWAP1 DUP2 MSTORE PUSH1 0x3 PUSH1 0x20 MSTORE PUSH1 0x40 SWAP1 KECCAK256 SLOAD PUSH2 0x127E SWAP1 PUSH2 0x9F7 JUMP JUMPDEST PUSH1 0x1 PUSH1 0x1 PUSH1 0xA0 SHL SUB DUP3 AND PUSH0 SWAP1 DUP2 MSTORE PUSH1 0x4 PUSH1 0x20 MSTORE PUSH1 0x40 SWAP1 KECCAK256 SSTORE JUMPDEST PUSH1 0x1 PUSH1 0x1 PUSH1 0xA0 SHL SUB AND PUSH0 DUP2 DUP2 MSTORE PUSH1 0x7 PUSH1 0x20 MSTORE PUSH1 0x40 DUP2 KECCAK256 DUP1 SLOAD PUSH1 0xFF NOT AND PUSH1 0x1 SWAP1 DUP2 OR SWAP1 SWAP2 SSTORE PUSH1 0x8 DUP1 SLOAD SWAP2 DUP3 ADD DUP2 SSTORE SWAP1 SWAP2 MSTORE PUSH32 0xF3F7A9FE364FAAB93B216DA50A3214154F22A0A2B415B23A84C8169E8B636EE3 ADD DUP1 SLOAD PUSH1 0x1 PUSH1 0x1 PUSH1 0xA0 SHL SUB NOT AND SWAP1 SWAP2 OR SWAP1 SSTORE JUMP JUMPDEST PUSH0 SLOAD PUSH1 0x1 PUSH1 0x1 PUSH1 0xA0 SHL SUB AND CALLER EQ PUSH2 0x1325 JUMPI PUSH1 0x40 MLOAD PUSH3 0x461BCD PUSH1 0xE5 SHL DUP2 MSTORE PUSH1 0x4 ADD PUSH2 0x917 SWAP1 PUSH2 0x2784 JUMP JUMPDEST PUSH1 0x1 PUSH1 0x1 PUSH1 0xA0 SHL SUB DUP2 AND PUSH2 0x138A JUMPI PUSH1 0x40 MLOAD PUSH3 0x461BCD PUSH1 0xE5 SHL DUP2 MSTORE PUSH1 0x20 PUSH1 0x4 DUP3 ADD MSTORE PUSH1 0x26 PUSH1 0x24 DUP3 ADD MSTORE PUSH32 0x4F776E61626C653A206E6577206F776E657220697320746865207A65726F2061 PUSH1 0x44 DUP3 ADD MSTORE PUSH6 0x646472657373 PUSH1 0xD0 SHL PUSH1 0x64 DUP3 ADD MSTORE PUSH1 0x84 ADD PUSH2 0x917 JUMP JUMPDEST PUSH0 DUP1 SLOAD PUSH1 0x40 MLOAD PUSH1 0x1 PUSH1 0x1 PUSH1 0xA0 SHL SUB DUP1 DUP6 AND SWAP4 SWAP3 AND SWAP2 PUSH0 DUP1 MLOAD PUSH1 0x20 PUSH2 0x2906 DUP4 CODECOPY DUP2 MLOAD SWAP2 MSTORE SWAP2 LOG3 PUSH0 DUP1 SLOAD PUSH1 0x1 PUSH1 0x1 PUSH1 0xA0 SHL SUB NOT AND PUSH1 0x1 PUSH1 0x1 PUSH1 0xA0 SHL SUB SWAP3 SWAP1 SWAP3 AND SWAP2 SWAP1 SWAP2 OR SWAP1 SSTORE JUMP JUMPDEST PUSH0 SLOAD PUSH1 0x1 PUSH1 0x1 PUSH1 0xA0 SHL SUB AND CALLER EQ PUSH2 0x13F9 JUMPI PUSH1 0x40 MLOAD PUSH3 0x461BCD PUSH1 0xE5 SHL DUP2 MSTORE PUSH1 0x4 ADD PUSH2 0x917 SWAP1 PUSH2 0x2784 JUMP JUMPDEST PUSH1 0x1 PUSH1 0x1 PUSH1 0xA0 SHL SUB DUP2 AND PUSH0 SWAP1 DUP2 MSTORE PUSH1 0x7 PUSH1 0x20 MSTORE PUSH1 0x40 SWAP1 KECCAK256 SLOAD PUSH1 0xFF AND PUSH2 0x1460 JUMPI PUSH1 0x40 MLOAD PUSH3 0x461BCD PUSH1 0xE5 SHL DUP2 MSTORE PUSH1 0x20 PUSH1 0x4 DUP3 ADD MSTORE PUSH1 0x1B PUSH1 0x24 DUP3 ADD MSTORE PUSH32 0x4163636F756E7420697320616C7265616479206578636C756465640000000000 PUSH1 0x44 DUP3 ADD MSTORE PUSH1 0x64 ADD PUSH2 0x917 JUMP JUMPDEST PUSH0 JUMPDEST PUSH1 0x8 SLOAD DUP2 LT ISZERO PUSH2 0x1570 JUMPI DUP2 PUSH1 0x1 PUSH1 0x1 PUSH1 0xA0 SHL SUB AND PUSH1 0x8 DUP3 DUP2 SLOAD DUP2 LT PUSH2 0x1489 JUMPI PUSH2 0x1489 PUSH2 0x27E0 JUMP JUMPDEST PUSH0 SWAP2 DUP3 MSTORE PUSH1 0x20 SWAP1 SWAP2 KECCAK256 ADD SLOAD PUSH1 0x1 PUSH1 0x1 PUSH1 0xA0 SHL SUB AND SUB PUSH2 0x1568 JUMPI PUSH1 0x8 DUP1 SLOAD PUSH2 0x14B2 SWAP1 PUSH1 0x1 SWAP1 PUSH2 0x27F4 JUMP JUMPDEST DUP2 SLOAD DUP2 LT PUSH2 0x14C2 JUMPI PUSH2 0x14C2 PUSH2 0x27E0 JUMP JUMPDEST PUSH0 SWAP2 DUP3 MSTORE PUSH1 0x20 SWAP1 SWAP2 KECCAK256 ADD SLOAD PUSH1 0x8 DUP1 SLOAD PUSH1 0x1 PUSH1 0x1 PUSH1 0xA0 SHL SUB SWAP1 SWAP3 AND SWAP2 DUP4 SWAP1 DUP2 LT PUSH2 0x14ED JUMPI PUSH2 0x14ED PUSH2 0x27E0 JUMP JUMPDEST PUSH0 SWAP2 DUP3 MSTORE PUSH1 0x20 DUP1 DUP4 KECCAK256 SWAP2 SWAP1 SWAP2 ADD DUP1 SLOAD PUSH1 0x1 PUSH1 0x1 PUSH1 0xA0 SHL SUB NOT AND PUSH1 0x1 PUSH1 0x1 PUSH1 0xA0 SHL SUB SWAP5 DUP6 AND OR SWAP1 SSTORE SWAP2 DUP5 AND DUP2 MSTORE PUSH1 0x4 DUP3 MSTORE PUSH1 0x40 DUP1 DUP3 KECCAK256 DUP3 SWAP1 SSTORE PUSH1 0x7 SWAP1 SWAP3 MSTORE KECCAK256 DUP1 SLOAD PUSH1 0xFF NOT AND SWAP1 SSTORE PUSH1 0x8 DUP1 SLOAD DUP1 PUSH2 0x1544 JUMPI PUSH2 0x1544 PUSH2 0x2807 JUMP JUMPDEST PUSH0 DUP3 DUP2 MSTORE PUSH1 0x20 SWAP1 KECCAK256 DUP2 ADD PUSH0 NOT SWAP1 DUP2 ADD DUP1 SLOAD PUSH1 0x1 PUSH1 0x1 PUSH1 0xA0 SHL SUB NOT AND SWAP1 SSTORE ADD SWAP1 SSTORE POP POP JUMP JUMPDEST PUSH1 0x1 ADD PUSH2 0x1462 JUMP JUMPDEST POP POP JUMP JUMPDEST PUSH1 0x1 PUSH1 0x1 PUSH1 0xA0 SHL SUB DUP4 AND PUSH2 0x15D6 JUMPI PUSH1 0x40 MLOAD PUSH3 0x461BCD PUSH1 0xE5 SHL DUP2 MSTORE PUSH1 0x20 PUSH1 0x4 DUP3 ADD MSTORE PUSH1 0x24 DUP1 DUP3 ADD MSTORE PUSH32 0x45524332303A20617070726F76652066726F6D20746865207A65726F20616464 PUSH1 0x44 DUP3 ADD MSTORE PUSH4 0x72657373 PUSH1 0xE0 SHL PUSH1 0x64 DUP3 ADD MSTORE PUSH1 0x84 ADD PUSH2 0x917 JUMP JUMPDEST PUSH1 0x1 PUSH1 0x1 PUSH1 0xA0 SHL SUB DUP3 AND PUSH2 0x1637 JUMPI PUSH1 0x40 MLOAD PUSH3 0x461BCD PUSH1 0xE5 SHL DUP2 MSTORE PUSH1 0x20 PUSH1 0x4 DUP3 ADD MSTORE PUSH1 0x22 PUSH1 0x24 DUP3 ADD MSTORE PUSH32 0x45524332303A20617070726F766520746F20746865207A65726F206164647265 PUSH1 0x44 DUP3 ADD MSTORE PUSH2 0x7373 PUSH1 0xF0 SHL PUSH1 0x64 DUP3 ADD MSTORE PUSH1 0x84 ADD PUSH2 0x917 JUMP JUMPDEST PUSH1 0x1 PUSH1 0x1 PUSH1 0xA0 SHL SUB DUP4 DUP2 AND PUSH0 DUP2 DUP2 MSTORE PUSH1 0x5 PUSH1 0x20 SWAP1 DUP2 MSTORE PUSH1 0x40 DUP1 DUP4 KECCAK256 SWAP5 DUP8 AND DUP1 DUP5 MSTORE SWAP5 DUP3 MSTORE SWAP2 DUP3 SWAP1 KECCAK256 DUP6 SWAP1 SSTORE SWAP1 MLOAD DUP5 DUP2 MSTORE PUSH32 0x8C5BE1E5EBEC7D5BD14F71427D1E84F3DD0314C0F7B2291E5B200AC8C7C3B925 SWAP2 ADD PUSH1 0x40 MLOAD DUP1 SWAP2 SUB SWAP1 LOG3 POP POP POP JUMP JUMPDEST PUSH1 0x1 PUSH1 0x1 PUSH1 0xA0 SHL SUB DUP4 AND PUSH2 0x16FB JUMPI PUSH1 0x40 MLOAD PUSH3 0x461BCD PUSH1 0xE5 SHL DUP2 MSTORE PUSH1 0x20 PUSH1 0x4 DUP3 ADD MSTORE PUSH1 0x25 PUSH1 0x24 DUP3 ADD MSTORE PUSH32 0x45524332303A207472616E736665722066726F6D20746865207A65726F206164 PUSH1 0x44 DUP3 ADD MSTORE PUSH5 0x6472657373 PUSH1 0xD8 SHL PUSH1 0x64 DUP3 ADD MSTORE PUSH1 0x84 ADD PUSH2 0x917 JUMP JUMPDEST PUSH1 0x1 PUSH1 0x1 PUSH1 0xA0 SHL SUB DUP3 AND PUSH2 0x175D JUMPI PUSH1 0x40 MLOAD PUSH3 0x461BCD PUSH1 0xE5 SHL DUP2 MSTORE PUSH1 0x20 PUSH1 0x4 DUP3 ADD MSTORE PUSH1 0x23 PUSH1 0x24 DUP3 ADD MSTORE PUSH32 0x45524332303A207472616E7366657220746F20746865207A65726F2061646472 PUSH1 0x44 DUP3 ADD MSTORE PUSH3 0x657373 PUSH1 0xE8 SHL PUSH1 0x64 DUP3 ADD MSTORE PUSH1 0x84 ADD PUSH2 0x917 JUMP JUMPDEST PUSH0 DUP2 GT PUSH2 0x17BE JUMPI PUSH1 0x40 MLOAD PUSH3 0x461BCD PUSH1 0xE5 SHL DUP2 MSTORE PUSH1 0x20 PUSH1 0x4 DUP3 ADD MSTORE PUSH1 0x29 PUSH1 0x24 DUP3 ADD MSTORE PUSH32 0x5472616E7366657220616D6F756E74206D757374206265206772656174657220 PUSH1 0x44 DUP3 ADD MSTORE PUSH9 0x7468616E207A65726F PUSH1 0xB8 SHL PUSH1 0x64 DUP3 ADD MSTORE PUSH1 0x84 ADD PUSH2 0x917 JUMP JUMPDEST PUSH0 SLOAD PUSH1 0x1 PUSH1 0x1 PUSH1 0xA0 SHL SUB DUP5 DUP2 AND SWAP2 AND EQ DUP1 ISZERO SWAP1 PUSH2 0x17E8 JUMPI POP PUSH0 SLOAD PUSH1 0x1 PUSH1 0x1 PUSH1 0xA0 SHL SUB DUP4 DUP2 AND SWAP2 AND EQ ISZERO JUMPDEST ISZERO PUSH2 0x1850 JUMPI PUSH1 0x20 SLOAD DUP2 GT ISZERO PUSH2 0x1850 JUMPI PUSH1 0x40 MLOAD PUSH3 0x461BCD PUSH1 0xE5 SHL DUP2 MSTORE PUSH1 0x20 PUSH1 0x4 DUP3 ADD MSTORE PUSH1 0x28 PUSH1 0x24 DUP3 ADD MSTORE PUSH32 0x5472616E7366657220616D6F756E74206578636565647320746865206D617854 PUSH1 0x44 DUP3 ADD MSTORE PUSH8 0x3C20B6B7BAB73A17 PUSH1 0xC1 SHL PUSH1 0x64 DUP3 ADD MSTORE PUSH1 0x84 ADD PUSH2 0x917 JUMP JUMPDEST PUSH1 0x1 PUSH1 0x1 PUSH1 0xA0 SHL SUB DUP4 AND PUSH0 SWAP1 DUP2 MSTORE PUSH1 0x6 PUSH1 0x20 MSTORE PUSH1 0x40 SWAP1 KECCAK256 SLOAD PUSH1 0xFF AND PUSH2 0x18C6 JUMPI PUSH1 0xE SLOAD PUSH2 0x100 SWAP1 DIV PUSH1 0xFF AND PUSH2 0x18C6 JUMPI PUSH1 0x40 MLOAD PUSH3 0x461BCD PUSH1 0xE5 SHL DUP2 MSTORE PUSH1 0x20 PUSH1 0x4 DUP3 ADD MSTORE PUSH1 0x1A PUSH1 0x24 DUP3 ADD MSTORE PUSH32 0x54726164696E67206973206E6F7420656E61626C656420796574000000000000 PUSH1 0x44 DUP3 ADD MSTORE PUSH1 0x64 ADD PUSH2 0x917 JUMP JUMPDEST PUSH0 PUSH2 0x18D0 ADDRESS PUSH2 0xC8D JUMP JUMPDEST SWAP1 POP PUSH1 0x20 SLOAD DUP2 LT PUSH2 0x18E0 JUMPI POP PUSH1 0x20 SLOAD JUMPDEST PUSH1 0x21 SLOAD PUSH1 0x1F SLOAD SWAP1 DUP3 LT ISZERO SWAP1 PUSH1 0x1 PUSH1 0xA0 SHL SWAP1 DIV PUSH1 0xFF AND ISZERO DUP1 ISZERO PUSH2 0x190B JUMPI POP PUSH1 0x1F SLOAD PUSH1 0x1 PUSH1 0xA8 SHL SWAP1 DIV PUSH1 0xFF AND JUMPDEST DUP1 ISZERO PUSH2 0x1914 JUMPI POP DUP1 JUMPDEST DUP1 ISZERO PUSH2 0x192E JUMPI POP PUSH1 0x1F SLOAD PUSH1 0x1 PUSH1 0x1 PUSH1 0xA0 SHL SUB DUP7 DUP2 AND SWAP2 AND EQ ISZERO JUMPDEST ISZERO PUSH2 0x194E JUMPI PUSH2 0x193C DUP3 PUSH2 0x1B6B JUMP JUMPDEST SELFBALANCE DUP1 ISZERO PUSH2 0x194C JUMPI PUSH2 0x194C SELFBALANCE PUSH2 0x1CDB JUMP JUMPDEST POP JUMPDEST PUSH1 0x1 PUSH1 0x1 PUSH1 0xA0 SHL SUB DUP6 AND PUSH0 SWAP1 DUP2 MSTORE PUSH1 0x6 PUSH1 0x20 MSTORE PUSH1 0x40 SWAP1 KECCAK256 SLOAD PUSH1 0x1 SWAP1 PUSH1 0xFF AND DUP1 PUSH2 0x198E JUMPI POP PUSH1 0x1 PUSH1 0x1 PUSH1 0xA0 SHL SUB DUP6 AND PUSH0 SWAP1 DUP2 MSTORE PUSH1 0x6 PUSH1 0x20 MSTORE PUSH1 0x40 SWAP1 KECCAK256 SLOAD PUSH1 0xFF AND JUMPDEST ISZERO PUSH2 0x1996 JUMPI POP PUSH0 JUMPDEST PUSH1 0x1F SLOAD PUSH1 0x1 PUSH1 0x1 PUSH1 0xA0 SHL SUB DUP8 DUP2 AND SWAP2 AND EQ DUP1 ISZERO SWAP1 PUSH2 0x19C2 JUMPI POP PUSH1 0x1F SLOAD PUSH1 0x1 PUSH1 0x1 PUSH1 0xA0 SHL SUB DUP7 DUP2 AND SWAP2 AND EQ ISZERO JUMPDEST ISZERO PUSH2 0x19CA JUMPI POP PUSH0 JUMPDEST PUSH2 0x19D6 DUP7 DUP7 DUP7 DUP5 PUSH2 0x1DCC JUMP JUMPDEST POP POP POP POP POP POP JUMP JUMPDEST PUSH0 DUP2 DUP5 DUP5 GT ISZERO PUSH2 0x1A01 JUMPI PUSH1 0x40 MLOAD PUSH3 0x461BCD PUSH1 0xE5 SHL DUP2 MSTORE PUSH1 0x4 ADD PUSH2 0x917 SWAP2 SWAP1 PUSH2 0x256B JUMP JUMPDEST POP PUSH0 PUSH2 0x1A0D DUP5 DUP7 PUSH2 0x27F4 JUMP JUMPDEST SWAP6 SWAP5 POP POP POP POP POP JUMP JUMPDEST PUSH0 DUP1 PUSH0 PUSH2 0x1A21 PUSH2 0x1F40 JUMP JUMPDEST SWAP1 SWAP3 POP SWAP1 POP PUSH2 0x1A30 DUP3 DUP3 PUSH2 0x1A37 JUMP JUMPDEST SWAP3 POP POP POP SWAP1 JUMP JUMPDEST PUSH0 PUSH2 0xA72 DUP4 DUP4 PUSH1 0x40 MLOAD DUP1 PUSH1 0x40 ADD PUSH1 0x40 MSTORE DUP1 PUSH1 0x1A DUP2 MSTORE PUSH1 0x20 ADD PUSH32 0x536166654D6174683A206469766973696F6E206279207A65726F000000000000 DUP2 MSTORE POP PUSH2 0x20AF JUMP JUMPDEST PUSH0 DUP1 PUSH2 0x1A84 DUP4 DUP6 PUSH2 0x27CD JUMP JUMPDEST SWAP1 POP DUP4 DUP2 LT ISZERO PUSH2 0xA72 JUMPI PUSH1 0x40 MLOAD PUSH3 0x461BCD PUSH1 0xE5 SHL DUP2 MSTORE PUSH1 0x20 PUSH1 0x4 DUP3 ADD MSTORE PUSH1 0x1B PUSH1 0x24 DUP3 ADD MSTORE PUSH32 0x536166654D6174683A206164646974696F6E206F766572666C6F770000000000 PUSH1 0x44 DUP3 ADD MSTORE PUSH1 0x64 ADD PUSH2 0x917 JUMP JUMPDEST PUSH0 DUP1 PUSH0 DUP1 PUSH0 DUP1 PUSH0 DUP1 PUSH0 PUSH2 0x1AEE DUP11 PUSH1 0xF SLOAD PUSH1 0x14 SLOAD PUSH2 0x20DB JUMP JUMPDEST SWAP3 POP SWAP3 POP SWAP3 POP PUSH0 PUSH2 0x1AFD PUSH2 0x1A16 JUMP JUMPDEST SWAP1 POP PUSH0 DUP1 PUSH0 PUSH2 0x1B0D DUP15 DUP8 DUP7 PUSH2 0x212D JUMP JUMPDEST SWAP2 SWAP15 POP SWAP13 POP SWAP11 POP SWAP6 SWAP9 POP SWAP4 SWAP7 POP SWAP2 SWAP5 POP POP POP POP POP SWAP2 SWAP4 SWAP6 POP SWAP2 SWAP4 SWAP6 JUMP JUMPDEST PUSH0 PUSH2 0xA72 DUP4 DUP4 PUSH1 0x40 MLOAD DUP1 PUSH1 0x40 ADD PUSH1 0x40 MSTORE DUP1 PUSH1 0x1E DUP2 MSTORE PUSH1 0x20 ADD PUSH32 0x536166654D6174683A207375627472616374696F6E206F766572666C6F770000 DUP2 MSTORE POP PUSH2 0x19DE JUMP JUMPDEST PUSH1 0x1F DUP1 SLOAD PUSH1 0xFF PUSH1 0xA0 SHL NOT AND PUSH1 0x1 PUSH1 0xA0 SHL OR SWAP1 SSTORE PUSH1 0x40 DUP1 MLOAD PUSH1 0x2 DUP1 DUP3 MSTORE PUSH1 0x60 DUP3 ADD DUP4 MSTORE PUSH0 SWAP3 PUSH1 0x20 DUP4 ADD SWAP1 DUP1 CALLDATASIZE DUP4 CALLDATACOPY ADD SWAP1 POP POP SWAP1 POP ADDRESS DUP2 PUSH0 DUP2 MLOAD DUP2 LT PUSH2 0x1BB1 JUMPI PUSH2 0x1BB1 PUSH2 0x27E0 JUMP JUMPDEST PUSH1 0x1 PUSH1 0x1 PUSH1 0xA0 SHL SUB SWAP3 DUP4 AND PUSH1 0x20 SWAP2 DUP3 MUL SWAP3 SWAP1 SWAP3 ADD DUP2 ADD SWAP2 SWAP1 SWAP2 MSTORE PUSH1 0x1E SLOAD PUSH1 0x40 DUP1 MLOAD PUSH4 0x15AB88C9 PUSH1 0xE3 SHL DUP2 MSTORE SWAP1 MLOAD SWAP2 SWAP1 SWAP4 AND SWAP3 PUSH4 0xAD5C4648 SWAP3 PUSH1 0x4 DUP1 DUP4 ADD SWAP4 SWAP2 SWAP3 DUP3 SWAP1 SUB ADD DUP2 DUP7 GAS STATICCALL ISZERO DUP1 ISZERO PUSH2 0x1C08 JUMPI RETURNDATASIZE PUSH0 DUP1 RETURNDATACOPY RETURNDATASIZE PUSH0 REVERT JUMPDEST POP POP POP POP PUSH1 0x40 MLOAD RETURNDATASIZE PUSH1 0x1F NOT PUSH1 0x1F DUP3 ADD AND DUP3 ADD DUP1 PUSH1 0x40 MSTORE POP DUP2 ADD SWAP1 PUSH2 0x1C2C SWAP2 SWAP1 PUSH2 0x281B JUMP JUMPDEST DUP2 PUSH1 0x1 DUP2 MLOAD DUP2 LT PUSH2 0x1C3F JUMPI PUSH2 0x1C3F PUSH2 0x27E0 JUMP JUMPDEST PUSH1 0x1 PUSH1 0x1 PUSH1 0xA0 SHL SUB SWAP3 DUP4 AND PUSH1 0x20 SWAP2 DUP3 MUL SWAP3 SWAP1 SWAP3 ADD ADD MSTORE PUSH1 0x1E SLOAD PUSH2 0x1C65 SWAP2 ADDRESS SWAP2 AND DUP5 PUSH2 0x1574 JUMP JUMPDEST PUSH1 0x1E SLOAD PUSH1 0x40 MLOAD PUSH4 0x791AC947 PUSH1 0xE0 SHL DUP2 MSTORE PUSH1 0x1 PUSH1 0x1 PUSH1 0xA0 SHL SUB SWAP1 SWAP2 AND SWAP1 PUSH4 0x791AC947 SWAP1 PUSH2 0x1C9D SWAP1 DUP6 SWAP1 PUSH0 SWAP1 DUP7 SWAP1 ADDRESS SWAP1 TIMESTAMP SWAP1 PUSH1 0x4 ADD PUSH2 0x2836 JUMP JUMPDEST PUSH0 PUSH1 0x40 MLOAD DUP1 DUP4 SUB DUP2 PUSH0 DUP8 DUP1 EXTCODESIZE ISZERO DUP1 ISZERO PUSH2 0x1CB4 JUMPI PUSH0 DUP1 REVERT JUMPDEST POP GAS CALL ISZERO DUP1 ISZERO PUSH2 0x1CC6 JUMPI RETURNDATASIZE PUSH0 DUP1 RETURNDATACOPY RETURNDATASIZE PUSH0 REVERT JUMPDEST POP POP PUSH1 0x1F DUP1 SLOAD PUSH1 0xFF PUSH1 0xA0 SHL NOT AND SWAP1 SSTORE POP POP POP POP JUMP JUMPDEST PUSH0 PUSH2 0x1CE7 PUSH1 0x4 DUP4 PUSH2 0x28A7 JUMP JUMPDEST PUSH1 0x1A SLOAD PUSH1 0x40 MLOAD SWAP2 SWAP3 POP PUSH1 0x1 PUSH1 0x1 PUSH1 0xA0 SHL SUB AND SWAP1 DUP3 ISZERO PUSH2 0x8FC MUL SWAP1 DUP4 SWAP1 PUSH0 DUP2 DUP2 DUP2 DUP6 DUP9 DUP9 CALL SWAP4 POP POP POP POP ISZERO DUP1 ISZERO PUSH2 0x1D1F JUMPI RETURNDATASIZE PUSH0 DUP1 RETURNDATACOPY RETURNDATASIZE PUSH0 REVERT JUMPDEST POP PUSH1 0x1B SLOAD PUSH1 0x40 MLOAD PUSH1 0x1 PUSH1 0x1 PUSH1 0xA0 SHL SUB SWAP1 SWAP2 AND SWAP1 DUP3 ISZERO PUSH2 0x8FC MUL SWAP1 DUP4 SWAP1 PUSH0 DUP2 DUP2 DUP2 DUP6 DUP9 DUP9 CALL SWAP4 POP POP POP POP ISZERO DUP1 ISZERO PUSH2 0x1D57 JUMPI RETURNDATASIZE PUSH0 DUP1 RETURNDATACOPY RETURNDATASIZE PUSH0 REVERT JUMPDEST POP PUSH1 0x1C SLOAD PUSH1 0x40 MLOAD PUSH1 0x1 PUSH1 0x1 PUSH1 0xA0 SHL SUB SWAP1 SWAP2 AND SWAP1 DUP3 ISZERO PUSH2 0x8FC MUL SWAP1 DUP4 SWAP1 PUSH0 DUP2 DUP2 DUP2 DUP6 DUP9 DUP9 CALL SWAP4 POP POP POP POP ISZERO DUP1 ISZERO PUSH2 0x1D8F JUMPI RETURNDATASIZE PUSH0 DUP1 RETURNDATACOPY RETURNDATASIZE PUSH0 REVERT JUMPDEST POP PUSH1 0x1D SLOAD PUSH1 0x40 MLOAD PUSH1 0x1 PUSH1 0x1 PUSH1 0xA0 SHL SUB SWAP1 SWAP2 AND SWAP1 DUP3 ISZERO PUSH2 0x8FC MUL SWAP1 DUP4 SWAP1 PUSH0 DUP2 DUP2 DUP2 DUP6 DUP9 DUP9 CALL SWAP4 POP POP POP POP ISZERO DUP1 ISZERO PUSH2 0x1DC7 JUMPI RETURNDATASIZE PUSH0 DUP1 RETURNDATACOPY RETURNDATASIZE PUSH0 REVERT JUMPDEST POP POP POP JUMP JUMPDEST DUP1 PUSH2 0x1DD9 JUMPI PUSH2 0x1DD9 PUSH2 0x2166 JUMP JUMPDEST PUSH1 0x1 PUSH1 0x1 PUSH1 0xA0 SHL SUB DUP5 AND PUSH0 SWAP1 DUP2 MSTORE PUSH1 0x7 PUSH1 0x20 MSTORE PUSH1 0x40 SWAP1 KECCAK256 SLOAD PUSH1 0xFF AND DUP1 ISZERO PUSH2 0x1E18 JUMPI POP PUSH1 0x1 PUSH1 0x1 PUSH1 0xA0 SHL SUB DUP4 AND PUSH0 SWAP1 DUP2 MSTORE PUSH1 0x7 PUSH1 0x20 MSTORE PUSH1 0x40 SWAP1 KECCAK256 SLOAD PUSH1 0xFF AND ISZERO JUMPDEST ISZERO PUSH2 0x1E2D JUMPI PUSH2 0x1E28 DUP5 DUP5 DUP5 PUSH2 0x21D7 JUMP JUMPDEST PUSH2 0x1F25 JUMP JUMPDEST PUSH1 0x1 PUSH1 0x1 PUSH1 0xA0 SHL SUB DUP5 AND PUSH0 SWAP1 DUP2 MSTORE PUSH1 0x7 PUSH1 0x20 MSTORE PUSH1 0x40 SWAP1 KECCAK256 SLOAD PUSH1 0xFF AND ISZERO DUP1 ISZERO PUSH2 0x1E6C JUMPI POP PUSH1 0x1 PUSH1 0x1 PUSH1 0xA0 SHL SUB DUP4 AND PUSH0 SWAP1 DUP2 MSTORE PUSH1 0x7 PUSH1 0x20 MSTORE PUSH1 0x40 SWAP1 KECCAK256 SLOAD PUSH1 0xFF AND JUMPDEST ISZERO PUSH2 0x1E7C JUMPI PUSH2 0x1E28 DUP5 DUP5 DUP5 PUSH2 0x22F6 JUMP JUMPDEST PUSH1 0x1 PUSH1 0x1 PUSH1 0xA0 SHL SUB DUP5 AND PUSH0 SWAP1 DUP2 MSTORE PUSH1 0x7 PUSH1 0x20 MSTORE PUSH1 0x40 SWAP1 KECCAK256 SLOAD PUSH1 0xFF AND ISZERO DUP1 ISZERO PUSH2 0x1EBC JUMPI POP PUSH1 0x1 PUSH1 0x1 PUSH1 0xA0 SHL SUB DUP4 AND PUSH0 SWAP1 DUP2 MSTORE PUSH1 0x7 PUSH1 0x20 MSTORE PUSH1 0x40 SWAP1 KECCAK256 SLOAD PUSH1 0xFF AND ISZERO JUMPDEST ISZERO PUSH2 0x1ECC JUMPI PUSH2 0x1E28 DUP5 DUP5 DUP5 PUSH2 0x2399 JUMP JUMPDEST PUSH1 0x1 PUSH1 0x1 PUSH1 0xA0 SHL SUB DUP5 AND PUSH0 SWAP1 DUP2 MSTORE PUSH1 0x7 PUSH1 0x20 MSTORE PUSH1 0x40 SWAP1 KECCAK256 SLOAD PUSH1 0xFF AND DUP1 ISZERO PUSH2 0x1F0A JUMPI POP PUSH1 0x1 PUSH1 0x1 PUSH1 0xA0 SHL SUB DUP4 AND PUSH0 SWAP1 DUP2 MSTORE PUSH1 0x7 PUSH1 0x20 MSTORE PUSH1 0x40 SWAP1 KECCAK256 SLOAD PUSH1 0xFF AND JUMPDEST ISZERO PUSH2 0x1F1A JUMPI PUSH2 0x1E28 DUP5 DUP5 DUP5 PUSH2 0x23D9 JUMP JUMPDEST PUSH2 0x1F25 DUP5 DUP5 DUP5 PUSH2 0x2399 JUMP JUMPDEST DUP1 PUSH2 0x103C JUMPI PUSH2 0x103C PUSH1 0x15 SLOAD PUSH1 0xF DUP2 SWAP1 SSTORE PUSH1 0x16 SLOAD PUSH1 0x10 SSTORE PUSH1 0x11 SSTORE JUMP JUMPDEST PUSH1 0xA SLOAD PUSH1 0x9 SLOAD PUSH0 SWAP2 DUP3 SWAP2 DUP3 JUMPDEST PUSH1 0x8 SLOAD DUP2 LT ISZERO PUSH2 0x207F JUMPI DUP3 PUSH1 0x3 PUSH0 PUSH1 0x8 DUP5 DUP2 SLOAD DUP2 LT PUSH2 0x1F6D JUMPI PUSH2 0x1F6D PUSH2 0x27E0 JUMP JUMPDEST PUSH0 SWAP2 DUP3 MSTORE PUSH1 0x20 DUP1 DUP4 KECCAK256 SWAP1 SWAP2 ADD SLOAD PUSH1 0x1 PUSH1 0x1 PUSH1 0xA0 SHL SUB AND DUP4 MSTORE DUP3 ADD SWAP3 SWAP1 SWAP3 MSTORE PUSH1 0x40 ADD SWAP1 KECCAK256 SLOAD GT DUP1 PUSH2 0x1FD5 JUMPI POP DUP2 PUSH1 0x4 PUSH0 PUSH1 0x8 DUP5 DUP2 SLOAD DUP2 LT PUSH2 0x1FAF JUMPI PUSH2 0x1FAF PUSH2 0x27E0 JUMP JUMPDEST PUSH0 SWAP2 DUP3 MSTORE PUSH1 0x20 DUP1 DUP4 KECCAK256 SWAP1 SWAP2 ADD SLOAD PUSH1 0x1 PUSH1 0x1 PUSH1 0xA0 SHL SUB AND DUP4 MSTORE DUP3 ADD SWAP3 SWAP1 SWAP3 MSTORE PUSH1 0x40 ADD SWAP1 KECCAK256 SLOAD GT JUMPDEST ISZERO PUSH2 0x1FEB JUMPI PUSH1 0xA SLOAD PUSH1 0x9 SLOAD SWAP5 POP SWAP5 POP POP POP POP SWAP1 SWAP2 JUMP JUMPDEST PUSH2 0x202F PUSH1 0x3 PUSH0 PUSH1 0x8 DUP5 DUP2 SLOAD DUP2 LT PUSH2 0x2004 JUMPI PUSH2 0x2004 PUSH2 0x27E0 JUMP JUMPDEST PUSH0 SWAP2 DUP3 MSTORE PUSH1 0x20 DUP1 DUP4 KECCAK256 SWAP1 SWAP2 ADD SLOAD PUSH1 0x1 PUSH1 0x1 PUSH1 0xA0 SHL SUB AND DUP4 MSTORE DUP3 ADD SWAP3 SWAP1 SWAP3 MSTORE PUSH1 0x40 ADD SWAP1 KECCAK256 SLOAD DUP5 SWAP1 PUSH2 0x1B2A JUMP JUMPDEST SWAP3 POP PUSH2 0x2075 PUSH1 0x4 PUSH0 PUSH1 0x8 DUP5 DUP2 SLOAD DUP2 LT PUSH2 0x204A JUMPI PUSH2 0x204A PUSH2 0x27E0 JUMP JUMPDEST PUSH0 SWAP2 DUP3 MSTORE PUSH1 0x20 DUP1 DUP4 KECCAK256 SWAP1 SWAP2 ADD SLOAD PUSH1 0x1 PUSH1 0x1 PUSH1 0xA0 SHL SUB AND DUP4 MSTORE DUP3 ADD SWAP3 SWAP1 SWAP3 MSTORE PUSH1 0x40 ADD SWAP1 KECCAK256 SLOAD DUP4 SWAP1 PUSH2 0x1B2A JUMP JUMPDEST SWAP2 POP PUSH1 0x1 ADD PUSH2 0x1F4C JUMP JUMPDEST POP PUSH1 0x9 SLOAD PUSH1 0xA SLOAD PUSH2 0x208F SWAP2 PUSH2 0x1A37 JUMP JUMPDEST DUP3 LT ISZERO PUSH2 0x20A6 JUMPI PUSH1 0xA SLOAD PUSH1 0x9 SLOAD SWAP4 POP SWAP4 POP POP POP SWAP1 SWAP2 JUMP JUMPDEST SWAP1 SWAP4 SWAP1 SWAP3 POP SWAP1 POP JUMP JUMPDEST PUSH0 DUP2 DUP4 PUSH2 0x20CF JUMPI PUSH1 0x40 MLOAD PUSH3 0x461BCD PUSH1 0xE5 SHL DUP2 MSTORE PUSH1 0x4 ADD PUSH2 0x917 SWAP2 SWAP1 PUSH2 0x256B JUMP JUMPDEST POP PUSH0 PUSH2 0x1A0D DUP5 DUP7 PUSH2 0x28A7 JUMP JUMPDEST PUSH0 DUP1 DUP1 DUP1 PUSH2 0x20F4 PUSH1 0x64 PUSH2 0x20EE DUP10 DUP10 PUSH2 0x2447 JUMP JUMPDEST SWAP1 PUSH2 0x1A37 JUMP JUMPDEST SWAP1 POP PUSH0 PUSH2 0x2106 PUSH1 0x64 PUSH2 0x20EE DUP11 DUP10 PUSH2 0x2447 JUMP JUMPDEST SWAP1 POP PUSH0 PUSH2 0x211D DUP3 PUSH2 0x2117 DUP12 DUP7 PUSH2 0x1B2A JUMP JUMPDEST SWAP1 PUSH2 0x1B2A JUMP JUMPDEST SWAP10 SWAP3 SWAP9 POP SWAP1 SWAP7 POP SWAP1 SWAP5 POP POP POP POP POP JUMP JUMPDEST PUSH0 DUP1 DUP1 DUP1 PUSH2 0x213B DUP8 DUP7 PUSH2 0x2447 JUMP JUMPDEST SWAP1 POP PUSH0 PUSH2 0x2148 DUP8 DUP8 PUSH2 0x2447 JUMP JUMPDEST SWAP1 POP PUSH0 PUSH2 0x2155 DUP4 DUP4 PUSH2 0x1B2A JUMP JUMPDEST SWAP3 SWAP10 SWAP3 SWAP9 POP SWAP1 SWAP7 POP SWAP1 SWAP5 POP POP POP POP POP JUMP JUMPDEST PUSH1 0xF SLOAD ISZERO DUP1 ISZERO PUSH2 0x2176 JUMPI POP PUSH1 0x10 SLOAD ISZERO JUMPDEST DUP1 ISZERO PUSH2 0x2182 JUMPI POP PUSH1 0x12 SLOAD ISZERO JUMPDEST DUP1 ISZERO PUSH2 0x218E JUMPI POP PUSH1 0x11 SLOAD ISZERO JUMPDEST DUP1 ISZERO PUSH2 0x219A JUMPI POP PUSH1 0x13 SLOAD ISZERO JUMPDEST ISZERO PUSH2 0x21A1 JUMPI JUMP JUMPDEST PUSH1 0xF DUP1 SLOAD PUSH1 0x15 SSTORE PUSH1 0x10 DUP1 SLOAD PUSH1 0x16 SSTORE PUSH1 0x11 DUP1 SLOAD PUSH1 0x17 SSTORE PUSH1 0x12 DUP1 SLOAD PUSH1 0x18 SSTORE PUSH1 0x13 DUP1 SLOAD PUSH1 0x19 SSTORE PUSH0 SWAP5 DUP6 SWAP1 SSTORE SWAP3 DUP5 SWAP1 SSTORE SWAP1 DUP4 SWAP1 SSTORE DUP3 SWAP1 SSTORE SSTORE JUMP JUMPDEST PUSH0 DUP1 PUSH0 DUP1 PUSH0 DUP1 PUSH2 0x21E6 DUP8 PUSH2 0x1AD6 JUMP JUMPDEST PUSH1 0x1 PUSH1 0x1 PUSH1 0xA0 SHL SUB DUP16 AND PUSH0 SWAP1 DUP2 MSTORE PUSH1 0x4 PUSH1 0x20 MSTORE PUSH1 0x40 SWAP1 KECCAK256 SLOAD SWAP6 SWAP12 POP SWAP4 SWAP10 POP SWAP2 SWAP8 POP SWAP6 POP SWAP4 POP SWAP2 POP PUSH2 0x2217 SWAP1 DUP9 PUSH2 0x1B2A JUMP JUMPDEST PUSH1 0x1 PUSH1 0x1 PUSH1 0xA0 SHL SUB DUP11 AND PUSH0 SWAP1 DUP2 MSTORE PUSH1 0x4 PUSH1 0x20 SWAP1 DUP2 MSTORE PUSH1 0x40 DUP1 DUP4 KECCAK256 SWAP4 SWAP1 SWAP4 SSTORE PUSH1 0x3 SWAP1 MSTORE KECCAK256 SLOAD PUSH2 0x2245 SWAP1 DUP8 PUSH2 0x1B2A JUMP JUMPDEST PUSH1 0x1 PUSH1 0x1 PUSH1 0xA0 SHL SUB DUP1 DUP12 AND PUSH0 SWAP1 DUP2 MSTORE PUSH1 0x3 PUSH1 0x20 MSTORE PUSH1 0x40 DUP1 DUP3 KECCAK256 SWAP4 SWAP1 SWAP4 SSTORE SWAP1 DUP11 AND DUP2 MSTORE KECCAK256 SLOAD PUSH2 0x2273 SWAP1 DUP7 PUSH2 0x1A78 JUMP JUMPDEST PUSH1 0x1 PUSH1 0x1 PUSH1 0xA0 SHL SUB DUP10 AND PUSH0 SWAP1 DUP2 MSTORE PUSH1 0x3 PUSH1 0x20 MSTORE PUSH1 0x40 SWAP1 KECCAK256 SSTORE PUSH2 0x2294 DUP2 PUSH2 0x24C5 JUMP JUMPDEST PUSH2 0x229E DUP5 DUP4 PUSH2 0x2547 JUMP JUMPDEST DUP8 PUSH1 0x1 PUSH1 0x1 PUSH1 0xA0 SHL SUB AND DUP10 PUSH1 0x1 PUSH1 0x1 PUSH1 0xA0 SHL SUB AND PUSH32 0xDDF252AD1BE2C89B69C2B068FC378DAA952BA7F163C4A11628F55A4DF523B3EF DUP6 PUSH1 0x40 MLOAD PUSH2 0x22E3 SWAP2 DUP2 MSTORE PUSH1 0x20 ADD SWAP1 JUMP JUMPDEST PUSH1 0x40 MLOAD DUP1 SWAP2 SUB SWAP1 LOG3 POP POP POP POP POP POP POP POP POP JUMP JUMPDEST PUSH0 DUP1 PUSH0 DUP1 PUSH0 DUP1 PUSH2 0x2305 DUP8 PUSH2 0x1AD6 JUMP JUMPDEST PUSH1 0x1 PUSH1 0x1 PUSH1 0xA0 SHL SUB DUP16 AND PUSH0 SWAP1 DUP2 MSTORE PUSH1 0x3 PUSH1 0x20 MSTORE PUSH1 0x40 SWAP1 KECCAK256 SLOAD SWAP6 SWAP12 POP SWAP4 SWAP10 POP SWAP2 SWAP8 POP SWAP6 POP SWAP4 POP SWAP2 POP PUSH2 0x2336 SWAP1 DUP8 PUSH2 0x1B2A JUMP JUMPDEST PUSH1 0x1 PUSH1 0x1 PUSH1 0xA0 SHL SUB DUP1 DUP12 AND PUSH0 SWAP1 DUP2 MSTORE PUSH1 0x3 PUSH1 0x20 SWAP1 DUP2 MSTORE PUSH1 0x40 DUP1 DUP4 KECCAK256 SWAP5 SWAP1 SWAP5 SSTORE SWAP2 DUP12 AND DUP2 MSTORE PUSH1 0x4 SWAP1 SWAP2 MSTORE KECCAK256 SLOAD PUSH2 0x236B SWAP1 DUP5 PUSH2 0x1A78 JUMP JUMPDEST PUSH1 0x1 PUSH1 0x1 PUSH1 0xA0 SHL SUB DUP10 AND PUSH0 SWAP1 DUP2 MSTORE PUSH1 0x4 PUSH1 0x20 SWAP1 DUP2 MSTORE PUSH1 0x40 DUP1 DUP4 KECCAK256 SWAP4 SWAP1 SWAP4 SSTORE PUSH1 0x3 SWAP1 MSTORE KECCAK256 SLOAD PUSH2 0x2273 SWAP1 DUP7 PUSH2 0x1A78 JUMP JUMPDEST PUSH0 DUP1 PUSH0 DUP1 PUSH0 DUP1 PUSH2 0x23A8 DUP8 PUSH2 0x1AD6 JUMP JUMPDEST PUSH1 0x1 PUSH1 0x1 PUSH1 0xA0 SHL SUB DUP16 AND PUSH0 SWAP1 DUP2 MSTORE PUSH1 0x3 PUSH1 0x20 MSTORE PUSH1 0x40 SWAP1 KECCAK256 SLOAD SWAP6 SWAP12 POP SWAP4 SWAP10 POP SWAP2 SWAP8 POP SWAP6 POP SWAP4 POP SWAP2 POP PUSH2 0x2245 SWAP1 DUP8 PUSH2 0x1B2A JUMP JUMPDEST PUSH0 DUP1 PUSH0 DUP1 PUSH0 DUP1 PUSH2 0x23E8 DUP8 PUSH2 0x1AD6 JUMP JUMPDEST PUSH1 0x1 PUSH1 0x1 PUSH1 0xA0 SHL SUB DUP16 AND PUSH0 SWAP1 DUP2 MSTORE PUSH1 0x4 PUSH1 0x20 MSTORE PUSH1 0x40 SWAP1 KECCAK256 SLOAD SWAP6 SWAP12 POP SWAP4 SWAP10 POP SWAP2 SWAP8 POP SWAP6 POP SWAP4 POP SWAP2 POP PUSH2 0x2419 SWAP1 DUP9 PUSH2 0x1B2A JUMP JUMPDEST PUSH1 0x1 PUSH1 0x1 PUSH1 0xA0 SHL SUB DUP11 AND PUSH0 SWAP1 DUP2 MSTORE PUSH1 0x4 PUSH1 0x20 SWAP1 DUP2 MSTORE PUSH1 0x40 DUP1 DUP4 KECCAK256 SWAP4 SWAP1 SWAP4 SSTORE PUSH1 0x3 SWAP1 MSTORE KECCAK256 SLOAD PUSH2 0x2336 SWAP1 DUP8 PUSH2 0x1B2A JUMP JUMPDEST PUSH0 DUP3 PUSH0 SUB PUSH2 0x2456 JUMPI POP PUSH0 PUSH2 0x8E8 JUMP JUMPDEST PUSH0 PUSH2 0x2461 DUP4 DUP6 PUSH2 0x28C6 JUMP JUMPDEST SWAP1 POP DUP3 PUSH2 0x246E DUP6 DUP4 PUSH2 0x28A7 JUMP JUMPDEST EQ PUSH2 0xA72 JUMPI PUSH1 0x40 MLOAD PUSH3 0x461BCD PUSH1 0xE5 SHL DUP2 MSTORE PUSH1 0x20 PUSH1 0x4 DUP3 ADD MSTORE PUSH1 0x21 PUSH1 0x24 DUP3 ADD MSTORE PUSH32 0x536166654D6174683A206D756C7469706C69636174696F6E206F766572666C6F PUSH1 0x44 DUP3 ADD MSTORE PUSH1 0x77 PUSH1 0xF8 SHL PUSH1 0x64 DUP3 ADD MSTORE PUSH1 0x84 ADD PUSH2 0x917 JUMP JUMPDEST PUSH0 PUSH2 0x24CE PUSH2 0x1A16 JUMP JUMPDEST SWAP1 POP PUSH0 PUSH2 0x24DB DUP4 DUP4 PUSH2 0x2447 JUMP JUMPDEST ADDRESS PUSH0 SWAP1 DUP2 MSTORE PUSH1 0x3 PUSH1 0x20 MSTORE PUSH1 0x40 SWAP1 KECCAK256 SLOAD SWAP1 SWAP2 POP PUSH2 0x24F7 SWAP1 DUP3 PUSH2 0x1A78 JUMP JUMPDEST ADDRESS PUSH0 SWAP1 DUP2 MSTORE PUSH1 0x3 PUSH1 0x20 SWAP1 DUP2 MSTORE PUSH1 0x40 DUP1 DUP4 KECCAK256 SWAP4 SWAP1 SWAP4 SSTORE PUSH1 0x7 SWAP1 MSTORE KECCAK256 SLOAD PUSH1 0xFF AND ISZERO PUSH2 0x1DC7 JUMPI ADDRESS PUSH0 SWAP1 DUP2 MSTORE PUSH1 0x4 PUSH1 0x20 MSTORE PUSH1 0x40 SWAP1 KECCAK256 SLOAD PUSH2 0x2533 SWAP1 DUP5 PUSH2 0x1A78 JUMP JUMPDEST ADDRESS PUSH0 SWAP1 DUP2 MSTORE PUSH1 0x4 PUSH1 0x20 MSTORE PUSH1 0x40 SWAP1 KECCAK256 SSTORE POP POP POP JUMP JUMPDEST PUSH1 0xA SLOAD PUSH2 0x2554 SWAP1 DUP4 PUSH2 0x1B2A JUMP JUMPDEST PUSH1 0xA SSTORE PUSH1 0xB SLOAD PUSH2 0x2564 SWAP1 DUP3 PUSH2 0x1A78 JUMP JUMPDEST PUSH1 0xB SSTORE POP POP JUMP JUMPDEST PUSH0 PUSH1 0x20 DUP1 DUP4 MSTORE DUP4 MLOAD DUP1 PUSH1 0x20 DUP6 ADD MSTORE PUSH0 JUMPDEST DUP2 DUP2 LT ISZERO PUSH2 0x2597 JUMPI DUP6 DUP2 ADD DUP4 ADD MLOAD DUP6 DUP3 ADD PUSH1 0x40 ADD MSTORE DUP3 ADD PUSH2 0x257B JUMP JUMPDEST POP PUSH0 PUSH1 0x40 DUP3 DUP7 ADD ADD MSTORE PUSH1 0x40 PUSH1 0x1F NOT PUSH1 0x1F DUP4 ADD AND DUP6 ADD ADD SWAP3 POP POP POP SWAP3 SWAP2 POP POP JUMP JUMPDEST PUSH1 0x1 PUSH1 0x1 PUSH1 0xA0 SHL SUB DUP2 AND DUP2 EQ PUSH2 0xC5C JUMPI PUSH0 DUP1 REVERT JUMPDEST PUSH0 DUP1 PUSH1 0x40 DUP4 DUP6 SUB SLT ISZERO PUSH2 0x25DC JUMPI PUSH0 DUP1 REVERT JUMPDEST DUP3 CALLDATALOAD PUSH2 0x25E7 DUP2 PUSH2 0x25B7 JUMP JUMPDEST SWAP5 PUSH1 0x20 SWAP4 SWAP1 SWAP4 ADD CALLDATALOAD SWAP4 POP POP POP JUMP JUMPDEST PUSH0 PUSH1 0x20 DUP3 DUP5 SUB SLT ISZERO PUSH2 0x2605 JUMPI PUSH0 DUP1 REVERT JUMPDEST POP CALLDATALOAD SWAP2 SWAP1 POP JUMP JUMPDEST PUSH0 DUP1 PUSH0 PUSH1 0x60 DUP5 DUP7 SUB SLT ISZERO PUSH2 0x261E JUMPI PUSH0 DUP1 REVERT JUMPDEST DUP4 CALLDATALOAD PUSH2 0x2629 DUP2 PUSH2 0x25B7 JUMP JUMPDEST SWAP3 POP PUSH1 0x20 DUP5 ADD CALLDATALOAD PUSH2 0x2639 DUP2 PUSH2 0x25B7 JUMP JUMPDEST SWAP3 SWAP6 SWAP3 SWAP5 POP POP POP PUSH1 0x40 SWAP2 SWAP1 SWAP2 ADD CALLDATALOAD SWAP1 JUMP JUMPDEST DUP1 CALLDATALOAD DUP1 ISZERO ISZERO DUP2 EQ PUSH2 0x2659 JUMPI PUSH0 DUP1 REVERT JUMPDEST SWAP2 SWAP1 POP JUMP JUMPDEST PUSH0 DUP1 PUSH1 0x40 DUP4 DUP6 SUB SLT ISZERO PUSH2 0x266F JUMPI PUSH0 DUP1 REVERT JUMPDEST DUP3 CALLDATALOAD SWAP2 POP PUSH2 0x267F PUSH1 0x20 DUP5 ADD PUSH2 0x264A JUMP JUMPDEST SWAP1 POP SWAP3 POP SWAP3 SWAP1 POP JUMP JUMPDEST PUSH0 PUSH1 0x20 DUP3 DUP5 SUB SLT ISZERO PUSH2 0x2698 JUMPI PUSH0 DUP1 REVERT JUMPDEST DUP2 CALLDATALOAD PUSH2 0xA72 DUP2 PUSH2 0x25B7 JUMP JUMPDEST PUSH0 DUP1 PUSH1 0x40 DUP4 DUP6 SUB SLT ISZERO PUSH2 0x26B4 JUMPI PUSH0 DUP1 REVERT JUMPDEST DUP3 CALLDATALOAD PUSH2 0x26BF DUP2 PUSH2 0x25B7 JUMP JUMPDEST SWAP2 POP PUSH2 0x267F PUSH1 0x20 DUP5 ADD PUSH2 0x264A JUMP JUMPDEST PUSH0 DUP1 PUSH0 DUP1 PUSH1 0x80 DUP6 DUP8 SUB SLT ISZERO PUSH2 0x26E0 JUMPI PUSH0 DUP1 REVERT JUMPDEST POP POP DUP3 CALLDATALOAD SWAP5 PUSH1 0x20 DUP5 ADD CALLDATALOAD SWAP5 POP PUSH1 0x40 DUP5 ADD CALLDATALOAD SWAP4 PUSH1 0x60 ADD CALLDATALOAD SWAP3 POP SWAP1 POP JUMP JUMPDEST PUSH0 DUP1 PUSH1 0x40 DUP4 DUP6 SUB SLT ISZERO PUSH2 0x270D JUMPI PUSH0 DUP1 REVERT JUMPDEST DUP3 CALLDATALOAD PUSH2 0x2718 DUP2 PUSH2 0x25B7 JUMP JUMPDEST SWAP2 POP PUSH1 0x20 DUP4 ADD CALLDATALOAD PUSH2 0x2728 DUP2 PUSH2 0x25B7 JUMP JUMPDEST DUP1 SWAP2 POP POP SWAP3 POP SWAP3 SWAP1 POP JUMP JUMPDEST PUSH0 PUSH1 0x20 DUP3 DUP5 SUB SLT ISZERO PUSH2 0x2743 JUMPI PUSH0 DUP1 REVERT JUMPDEST PUSH2 0xA72 DUP3 PUSH2 0x264A JUMP JUMPDEST PUSH1 0x1 DUP2 DUP2 SHR SWAP1 DUP3 AND DUP1 PUSH2 0x2760 JUMPI PUSH1 0x7F DUP3 AND SWAP2 POP JUMPDEST PUSH1 0x20 DUP3 LT DUP2 SUB PUSH2 0x277E JUMPI PUSH4 0x4E487B71 PUSH1 0xE0 SHL PUSH0 MSTORE PUSH1 0x22 PUSH1 0x4 MSTORE PUSH1 0x24 PUSH0 REVERT JUMPDEST POP SWAP2 SWAP1 POP JUMP JUMPDEST PUSH1 0x20 DUP1 DUP3 MSTORE DUP2 DUP2 ADD MSTORE PUSH32 0x4F776E61626C653A2063616C6C6572206973206E6F7420746865206F776E6572 PUSH1 0x40 DUP3 ADD MSTORE PUSH1 0x60 ADD SWAP1 JUMP JUMPDEST PUSH4 0x4E487B71 PUSH1 0xE0 SHL PUSH0 MSTORE PUSH1 0x11 PUSH1 0x4 MSTORE PUSH1 0x24 PUSH0 REVERT JUMPDEST DUP1 DUP3 ADD DUP1 DUP3 GT ISZERO PUSH2 0x8E8 JUMPI PUSH2 0x8E8 PUSH2 0x27B9 JUMP JUMPDEST PUSH4 0x4E487B71 PUSH1 0xE0 SHL PUSH0 MSTORE PUSH1 0x32 PUSH1 0x4 MSTORE PUSH1 0x24 PUSH0 REVERT JUMPDEST DUP2 DUP2 SUB DUP2 DUP2 GT ISZERO PUSH2 0x8E8 JUMPI PUSH2 0x8E8 PUSH2 0x27B9 JUMP JUMPDEST PUSH4 0x4E487B71 PUSH1 0xE0 SHL PUSH0 MSTORE PUSH1 0x31 PUSH1 0x4 MSTORE PUSH1 0x24 PUSH0 REVERT JUMPDEST PUSH0 PUSH1 0x20 DUP3 DUP5 SUB SLT ISZERO PUSH2 0x282B JUMPI PUSH0 DUP1 REVERT JUMPDEST DUP2 MLOAD PUSH2 0xA72 DUP2 PUSH2 0x25B7 JUMP JUMPDEST PUSH0 PUSH1 0xA0 DUP3 ADD DUP8 DUP4 MSTORE PUSH1 0x20 DUP8 PUSH1 0x20 DUP6 ADD MSTORE PUSH1 0xA0 PUSH1 0x40 DUP6 ADD MSTORE DUP2 DUP8 MLOAD DUP1 DUP5 MSTORE PUSH1 0xC0 DUP7 ADD SWAP2 POP PUSH1 0x20 DUP10 ADD SWAP4 POP PUSH0 JUMPDEST DUP2 DUP2 LT ISZERO PUSH2 0x2886 JUMPI DUP5 MLOAD PUSH1 0x1 PUSH1 0x1 PUSH1 0xA0 SHL SUB AND DUP4 MSTORE SWAP4 DUP4 ADD SWAP4 SWAP2 DUP4 ADD SWAP2 PUSH1 0x1 ADD PUSH2 0x2861 JUMP JUMPDEST POP POP PUSH1 0x1 PUSH1 0x1 PUSH1 0xA0 SHL SUB SWAP7 SWAP1 SWAP7 AND PUSH1 0x60 DUP6 ADD MSTORE POP POP POP PUSH1 0x80 ADD MSTORE SWAP4 SWAP3 POP POP POP JUMP JUMPDEST PUSH0 DUP3 PUSH2 0x28C1 JUMPI PUSH4 0x4E487B71 PUSH1 0xE0 SHL PUSH0 MSTORE PUSH1 0x12 PUSH1 0x4 MSTORE PUSH1 0x24 PUSH0 REVERT JUMPDEST POP DIV SWAP1 JUMP JUMPDEST DUP1 DUP3 MUL DUP2 ISZERO DUP3 DUP3 DIV DUP5 EQ OR PUSH2 0x8E8 JUMPI PUSH2 0x8E8 PUSH2 0x27B9 JUMP INVALID GASLIMIT MSTORE NUMBER ORIGIN ADDRESS GASPRICE KECCAK256 PUSH21 0x72616E7366657220616D6F756E7420657863656564 PUSH20 0x20616C6C6F77616E63658BE0079C531659141344 0xCD 0x1F 0xD0 LOG4 CALLCODE DUP5 NOT BLOBHASH PUSH32 0x9722A3DAAFE3B4186F6B6457E045524332303A2064656372656173656420616C PUSH13 0x6F77616E63652062656C6F7720 PUSH27 0x65726FA264697066735822122006D8A974ACF18EF06CEACC42AB0C 0xE4 0xB1 0xD5 PUSH4 0x5E4091AD 0xD2 LOG1 0xA6 SDIV 0xAC JUMPDEST SHL 0x2F 0xED CALLDATACOPY PUSH5 0x736F6C6343 STOP ADDMOD XOR STOP CALLER "
				},
				"gasEstimates": {
					"creation": {
						"codeDepositCost": "2124800",
						"executionCost": "infinite",
						"totalCost": "infinite"
					},
					"external": {
						"_setMaxTxAmount(uint256)": "24533",
						"_setTaxFee(uint256)": "24506",
						"allowance(address,address)": "infinite",
						"approve(address,uint256)": "24656",
						"balanceOf(address)": "infinite",
						"buybackAddress()": "2425",
						"buybackFee()": "2450",
						"changeNumOfTokensToExchange(uint256)": "24527",
						"changeUniswapPair(address)": "26748",
						"charityAddress()": "2491",
						"charityFee()": "2382",
						"decimals()": "2400",
						"decreaseAllowance(address,uint256)": "infinite",
						"deliver(uint256)": "infinite",
						"developmentAddress()": "2403",
						"developmentFee()": "2361",
						"enableTrading()": "26574",
						"excludeAccount(address)": "infinite",
						"geUnlockTime()": "2336",
						"includeAccount(address)": "infinite",
						"increaseAllowance(address,uint256)": "infinite",
						"isExcluded(address)": "2607",
						"isExcludedFromFee(address)": "2696",
						"lock(uint256)": "76826",
						"manualSwap()": "infinite",
						"marketingAddress()": "2381",
						"marketingFee()": "2383",
						"name()": "infinite",
						"owner()": "2419",
						"reflectionFromToken(uint256,bool)": "infinite",
						"renounceOwnership()": "30348",
						"setExcludeFromFee(address,bool)": "26987",
						"setFeePercent(uint256,uint256,uint256,uint256)": "infinite",
						"setSwapEnabled(bool)": "26736",
						"swapEnabled()": "2437",
						"symbol()": "infinite",
						"taxFee()": "2428",
						"tokenFromReflection(uint256)": "infinite",
						"totalFees()": "2371",
						"totalSupply()": "2426",
						"tradingEnabled()": "2432",
						"transfer(address,uint256)": "infinite",
						"transferFrom(address,address,uint256)": "infinite",
						"transferOwnership(address)": "30553",
						"uniswapV2Pair()": "2426",
						"uniswapV2Router()": "2449",
						"unlock()": "36653"
					},
					"internal": {
						"_approve(address,address,uint256)": "infinite",
						"_getCurrentSupply()": "infinite",
						"_getRValues(uint256,uint256,uint256)": "infinite",
						"_getRate()": "infinite",
						"_getTValues(uint256,uint256,uint256)": "infinite",
						"_getValues(uint256)": "infinite",
						"_reflectFee(uint256,uint256)": "infinite",
						"_takeTotalFee(uint256)": "infinite",
						"_tokenTransfer(address,address,uint256,bool)": "infinite",
						"_transfer(address,address,uint256)": "infinite",
						"_transferBothExcluded(address,address,uint256)": "infinite",
						"_transferFromExcluded(address,address,uint256)": "infinite",
						"_transferStandard(address,address,uint256)": "infinite",
						"_transferToExcluded(address,address,uint256)": "infinite",
						"removeAllFee()": "156724",
						"restoreAllFee()": "infinite",
						"sendETHToWallets(uint256)": "infinite",
						"swapTokensForEth(uint256)": "infinite"
					}
				},
				"methodIdentifiers": {
					"_setMaxTxAmount(uint256)": "1bbae6e0",
					"_setTaxFee(uint256)": "5880b873",
					"allowance(address,address)": "dd62ed3e",
					"approve(address,uint256)": "095ea7b3",
					"balanceOf(address)": "70a08231",
					"buybackAddress()": "cc2fbd66",
					"buybackFee()": "3b2d081c",
					"changeNumOfTokensToExchange(uint256)": "e339d520",
					"changeUniswapPair(address)": "78fe1b13",
					"charityAddress()": "afcf2fc4",
					"charityFee()": "ecfca899",
					"decimals()": "313ce567",
					"decreaseAllowance(address,uint256)": "a457c2d7",
					"deliver(uint256)": "3bd5d173",
					"developmentAddress()": "638b1b14",
					"developmentFee()": "a5f3d003",
					"enableTrading()": "8a8c523c",
					"excludeAccount(address)": "f2cc0c18",
					"geUnlockTime()": "b6c52324",
					"includeAccount(address)": "f84354f1",
					"increaseAllowance(address,uint256)": "39509351",
					"isExcluded(address)": "cba0e996",
					"isExcludedFromFee(address)": "5342acb4",
					"lock(uint256)": "dd467064",
					"manualSwap()": "51bc3c85",
					"marketingAddress()": "a5ece941",
					"marketingFee()": "6b67c4df",
					"name()": "06fdde03",
					"owner()": "8da5cb5b",
					"reflectionFromToken(uint256,bool)": "4549b039",
					"renounceOwnership()": "715018a6",
					"setExcludeFromFee(address,bool)": "af9549e0",
					"setFeePercent(uint256,uint256,uint256,uint256)": "d38ab97d",
					"setSwapEnabled(bool)": "e01af92c",
					"swapEnabled()": "6ddd1713",
					"symbol()": "95d89b41",
					"taxFee()": "a071dcf4",
					"tokenFromReflection(uint256)": "2d838119",
					"totalFees()": "13114a9d",
					"totalSupply()": "18160ddd",
					"tradingEnabled()": "4ada218b",
					"transfer(address,uint256)": "a9059cbb",
					"transferFrom(address,address,uint256)": "23b872dd",
					"transferOwnership(address)": "f2fde38b",
					"uniswapV2Pair()": "49bd5a5e",
					"uniswapV2Router()": "1694505e",
					"unlock()": "a69df4b5"
				}
			},
			"storageLayout": {
				"storage": [
					{
						"astId": 498,
						"contract": "contracts/SOlar.sol:STS",
						"label": "_owner",
						"offset": 0,
						"slot": "0",
						"type": "t_address"
					},
					{
						"astId": 500,
						"contract": "contracts/SOlar.sol:STS",
						"label": "_previousOwner",
						"offset": 0,
						"slot": "1",
						"type": "t_address"
					},
					{
						"astId": 502,
						"contract": "contracts/SOlar.sol:STS",
						"label": "_lockTime",
						"offset": 0,
						"slot": "2",
						"type": "t_uint256"
					},
					{
						"astId": 1382,
						"contract": "contracts/SOlar.sol:STS",
						"label": "_rOwned",
						"offset": 0,
						"slot": "3",
						"type": "t_mapping(t_address,t_uint256)"
					},
					{
						"astId": 1386,
						"contract": "contracts/SOlar.sol:STS",
						"label": "_tOwned",
						"offset": 0,
						"slot": "4",
						"type": "t_mapping(t_address,t_uint256)"
					},
					{
						"astId": 1392,
						"contract": "contracts/SOlar.sol:STS",
						"label": "_allowances",
						"offset": 0,
						"slot": "5",
						"type": "t_mapping(t_address,t_mapping(t_address,t_uint256))"
					},
					{
						"astId": 1396,
						"contract": "contracts/SOlar.sol:STS",
						"label": "_isExcludedFromFee",
						"offset": 0,
						"slot": "6",
						"type": "t_mapping(t_address,t_bool)"
					},
					{
						"astId": 1400,
						"contract": "contracts/SOlar.sol:STS",
						"label": "_isExcluded",
						"offset": 0,
						"slot": "7",
						"type": "t_mapping(t_address,t_bool)"
					},
					{
						"astId": 1403,
						"contract": "contracts/SOlar.sol:STS",
						"label": "_excluded",
						"offset": 0,
						"slot": "8",
						"type": "t_array(t_address)dyn_storage"
					},
					{
						"astId": 1417,
						"contract": "contracts/SOlar.sol:STS",
						"label": "_tTotal",
						"offset": 0,
						"slot": "9",
						"type": "t_uint256"
					},
					{
						"astId": 1426,
						"contract": "contracts/SOlar.sol:STS",
						"label": "_rTotal",
						"offset": 0,
						"slot": "10",
						"type": "t_uint256"
					},
					{
						"astId": 1428,
						"contract": "contracts/SOlar.sol:STS",
						"label": "_tFeeTotal",
						"offset": 0,
						"slot": "11",
						"type": "t_uint256"
					},
					{
						"astId": 1431,
						"contract": "contracts/SOlar.sol:STS",
						"label": "_name",
						"offset": 0,
						"slot": "12",
						"type": "t_string_storage"
					},
					{
						"astId": 1434,
						"contract": "contracts/SOlar.sol:STS",
						"label": "_symbol",
						"offset": 0,
						"slot": "13",
						"type": "t_string_storage"
					},
					{
						"astId": 1437,
						"contract": "contracts/SOlar.sol:STS",
						"label": "_decimals",
						"offset": 0,
						"slot": "14",
						"type": "t_uint8"
					},
					{
						"astId": 1440,
						"contract": "contracts/SOlar.sol:STS",
						"label": "tradingEnabled",
						"offset": 1,
						"slot": "14",
						"type": "t_bool"
					},
					{
						"astId": 1443,
						"contract": "contracts/SOlar.sol:STS",
						"label": "taxFee",
						"offset": 0,
						"slot": "15",
						"type": "t_uint256"
					},
					{
						"astId": 1446,
						"contract": "contracts/SOlar.sol:STS",
						"label": "charityFee",
						"offset": 0,
						"slot": "16",
						"type": "t_uint256"
					},
					{
						"astId": 1449,
						"contract": "contracts/SOlar.sol:STS",
						"label": "marketingFee",
						"offset": 0,
						"slot": "17",
						"type": "t_uint256"
					},
					{
						"astId": 1452,
						"contract": "contracts/SOlar.sol:STS",
						"label": "developmentFee",
						"offset": 0,
						"slot": "18",
						"type": "t_uint256"
					},
					{
						"astId": 1455,
						"contract": "contracts/SOlar.sol:STS",
						"label": "buybackFee",
						"offset": 0,
						"slot": "19",
						"type": "t_uint256"
					},
					{
						"astId": 1464,
						"contract": "contracts/SOlar.sol:STS",
						"label": "totalFee",
						"offset": 0,
						"slot": "20",
						"type": "t_uint256"
					},
					{
						"astId": 1467,
						"contract": "contracts/SOlar.sol:STS",
						"label": "_previousTaxFee",
						"offset": 0,
						"slot": "21",
						"type": "t_uint256"
					},
					{
						"astId": 1470,
						"contract": "contracts/SOlar.sol:STS",
						"label": "_previousCharityFee",
						"offset": 0,
						"slot": "22",
						"type": "t_uint256"
					},
					{
						"astId": 1473,
						"contract": "contracts/SOlar.sol:STS",
						"label": "_previousMarketingFee",
						"offset": 0,
						"slot": "23",
						"type": "t_uint256"
					},
					{
						"astId": 1476,
						"contract": "contracts/SOlar.sol:STS",
						"label": "_previousDevelopmentFee",
						"offset": 0,
						"slot": "24",
						"type": "t_uint256"
					},
					{
						"astId": 1479,
						"contract": "contracts/SOlar.sol:STS",
						"label": "_previousBuybackFee",
						"offset": 0,
						"slot": "25",
						"type": "t_uint256"
					},
					{
						"astId": 1485,
						"contract": "contracts/SOlar.sol:STS",
						"label": "charityAddress",
						"offset": 0,
						"slot": "26",
						"type": "t_address_payable"
					},
					{
						"astId": 1491,
						"contract": "contracts/SOlar.sol:STS",
						"label": "marketingAddress",
						"offset": 0,
						"slot": "27",
						"type": "t_address_payable"
					},
					{
						"astId": 1497,
						"contract": "contracts/SOlar.sol:STS",
						"label": "developmentAddress",
						"offset": 0,
						"slot": "28",
						"type": "t_address_payable"
					},
					{
						"astId": 1503,
						"contract": "contracts/SOlar.sol:STS",
						"label": "buybackAddress",
						"offset": 0,
						"slot": "29",
						"type": "t_address_payable"
					},
					{
						"astId": 1506,
						"contract": "contracts/SOlar.sol:STS",
						"label": "uniswapV2Router",
						"offset": 0,
						"slot": "30",
						"type": "t_contract(IUniswapV2Router02)1366"
					},
					{
						"astId": 1508,
						"contract": "contracts/SOlar.sol:STS",
						"label": "uniswapV2Pair",
						"offset": 0,
						"slot": "31",
						"type": "t_address"
					},
					{
						"astId": 1511,
						"contract": "contracts/SOlar.sol:STS",
						"label": "inSwap",
						"offset": 20,
						"slot": "31",
						"type": "t_bool"
					},
					{
						"astId": 1514,
						"contract": "contracts/SOlar.sol:STS",
						"label": "swapEnabled",
						"offset": 21,
						"slot": "31",
						"type": "t_bool"
					},
					{
						"astId": 1517,
						"contract": "contracts/SOlar.sol:STS",
						"label": "_maxTxAmount",
						"offset": 0,
						"slot": "32",
						"type": "t_uint256"
					},
					{
						"astId": 1524,
						"contract": "contracts/SOlar.sol:STS",
						"label": "_numOfTokensToExchange",
						"offset": 0,
						"slot": "33",
						"type": "t_uint256"
					}
				],
				"types": {
					"t_address": {
						"encoding": "inplace",
						"label": "address",
						"numberOfBytes": "20"
					},
					"t_address_payable": {
						"encoding": "inplace",
						"label": "address payable",
						"numberOfBytes": "20"
					},
					"t_array(t_address)dyn_storage": {
						"base": "t_address",
						"encoding": "dynamic_array",
						"label": "address[]",
						"numberOfBytes": "32"
					},
					"t_bool": {
						"encoding": "inplace",
						"label": "bool",
						"numberOfBytes": "1"
					},
					"t_contract(IUniswapV2Router02)1366": {
						"encoding": "inplace",
						"label": "contract IUniswapV2Router02",
						"numberOfBytes": "20"
					},
					"t_mapping(t_address,t_bool)": {
						"encoding": "mapping",
						"key": "t_address",
						"label": "mapping(address => bool)",
						"numberOfBytes": "32",
						"value": "t_bool"
					},
					"t_mapping(t_address,t_mapping(t_address,t_uint256))": {
						"encoding": "mapping",
						"key": "t_address",
						"label": "mapping(address => mapping(address => uint256))",
						"numberOfBytes": "32",
						"value": "t_mapping(t_address,t_uint256)"
					},
					"t_mapping(t_address,t_uint256)": {
						"encoding": "mapping",
						"key": "t_address",
						"label": "mapping(address => uint256)",
						"numberOfBytes": "32",
						"value": "t_uint256"
					},
					"t_string_storage": {
						"encoding": "bytes",
						"label": "string",
						"numberOfBytes": "32"
					},
					"t_uint256": {
						"encoding": "inplace",
						"label": "uint256",
						"numberOfBytes": "32"
					},
					"t_uint8": {
						"encoding": "inplace",
						"label": "uint8",
						"numberOfBytes": "1"
					}
				}
			},
			"userdoc": {
				"kind": "user",
				"methods": {},
				"version": 1
			}
		}
	}
}