{
	"contracts/SOlar.sol": {
		"Ownable": {
			"abi": [
				{
					"inputs": [],
					"stateMutability": "nonpayable",
					"type": "constructor"
				},
				{
					"anonymous": false,
					"inputs": [
						{
							"indexed": true,
							"internalType": "address",
							"name": "previousOwner",
							"type": "address"
						},
						{
							"indexed": true,
							"internalType": "address",
							"name": "newOwner",
							"type": "address"
						}
					],
					"name": "OwnershipTransferred",
					"type": "event"
				},
				{
					"inputs": [],
					"name": "geUnlockTime",
					"outputs": [
						{
							"internalType": "uint256",
							"name": "",
							"type": "uint256"
						}
					],
					"stateMutability": "view",
					"type": "function"
				},
				{
					"inputs": [
						{
							"internalType": "uint256",
							"name": "time",
							"type": "uint256"
						}
					],
					"name": "lock",
					"outputs": [],
					"stateMutability": "nonpayable",
					"type": "function"
				},
				{
					"inputs": [],
					"name": "owner",
					"outputs": [
						{
							"internalType": "address",
							"name": "",
							"type": "address"
						}
					],
					"stateMutability": "view",
					"type": "function"
				},
				{
					"inputs": [],
					"name": "renounceOwnership",
					"outputs": [],
					"stateMutability": "nonpayable",
					"type": "function"
				},
				{
					"inputs": [
						{
							"internalType": "address",
							"name": "newOwner",
							"type": "address"
						}
					],
					"name": "transferOwnership",
					"outputs": [],
					"stateMutability": "nonpayable",
					"type": "function"
				},
				{
					"inputs": [],
					"name": "unlock",
					"outputs": [],
					"stateMutability": "nonpayable",
					"type": "function"
				}
			],
			"devdoc": {
				"kind": "dev",
				"methods": {
					"constructor": {
						"details": "Initializes the contract setting the deployer as the initial owner."
					},
					"owner()": {
						"details": "Returns the address of the current owner."
					},
					"renounceOwnership()": {
						"details": "Leaves the contract without owner. It will not be possible to call `onlyOwner` functions anymore. Can only be called by the current owner. NOTE: Renouncing ownership will leave the contract without an owner, thereby removing any functionality that is only available to the owner."
					},
					"transferOwnership(address)": {
						"details": "Transfers ownership of the contract to a new account (`newOwner`). Can only be called by the current owner."
					}
				},
				"version": 1
			},
			"evm": {
				"assembly": "    /* \"contracts/SOlar.sol\":15035:17809  contract Ownable is Context {... */\n  mstore(0x40, 0x80)\n    /* \"contracts/SOlar.sol\":15391:15561  constructor () {... */\n  callvalue\n  dup1\n  iszero\n  tag_1\n  jumpi\n  0x00\n  dup1\n  revert\ntag_1:\n  pop\n    /* \"contracts/SOlar.sol\":15421:15438  address msgSender */\n  0x00\n    /* \"contracts/SOlar.sol\":15468:15486  _owner = msgSender */\n  dup1\n  sload\n  not(sub(shl(0xa0, 0x01), 0x01))\n  and\n    /* \"contracts/SOlar.sol\":213:223  msg.sender */\n  caller\n    /* \"contracts/SOlar.sol\":15468:15486  _owner = msgSender */\n  swap1\n  dup2\n  or\n  dup3\n  sstore\n    /* \"contracts/SOlar.sol\":15506:15549  OwnershipTransferred(address(0), msgSender) */\n  mload(0x40)\n    /* \"contracts/SOlar.sol\":213:223  msg.sender */\n  swap1\n  swap2\n  dup3\n  swap2\n    /* \"contracts/SOlar.sol\":15506:15549  OwnershipTransferred(address(0), msgSender) */\n  0x8be0079c531659141344cd1fd0a4f28419497f9722a3daafe3b4186f6b6457e0\n  swap1\n    /* \"contracts/SOlar.sol\":15421:15438  address msgSender */\n  dup3\n  swap1\n    /* \"contracts/SOlar.sol\":15506:15549  OwnershipTransferred(address(0), msgSender) */\n  log3\n    /* \"contracts/SOlar.sol\":15406:15561  {... */\n  pop\n    /* \"contracts/SOlar.sol\":15035:17809  contract Ownable is Context {... */\n  dataSize(sub_0)\n  dup1\n  dataOffset(sub_0)\n  0x00\n  codecopy\n  0x00\n  return\nstop\n\nsub_0: assembly {\n        /* \"contracts/SOlar.sol\":15035:17809  contract Ownable is Context {... */\n      mstore(0x40, 0x80)\n      callvalue\n      dup1\n      iszero\n      tag_1\n      jumpi\n      0x00\n      dup1\n      revert\n    tag_1:\n      pop\n      jumpi(tag_2, lt(calldatasize, 0x04))\n      shr(0xe0, calldataload(0x00))\n      dup1\n      0x715018a6\n      eq\n      tag_3\n      jumpi\n      dup1\n      0x8da5cb5b\n      eq\n      tag_4\n      jumpi\n      dup1\n      0xa69df4b5\n      eq\n      tag_5\n      jumpi\n      dup1\n      0xb6c52324\n      eq\n      tag_6\n      jumpi\n      dup1\n      0xdd467064\n      eq\n      tag_7\n      jumpi\n      dup1\n      0xf2fde38b\n      eq\n      tag_8\n      jumpi\n    tag_2:\n      0x00\n      dup1\n      revert\n        /* \"contracts/SOlar.sol\":16358:16518  function renounceOwnership() public virtual onlyOwner {... */\n    tag_3:\n      tag_9\n      tag_10\n      jump\t// in\n    tag_9:\n      stop\n        /* \"contracts/SOlar.sol\":15656:15743  function owner() public view returns (address) {... */\n    tag_4:\n        /* \"contracts/SOlar.sol\":15694:15701  address */\n      0x00\n        /* \"contracts/SOlar.sol\":15725:15731  _owner */\n      sload\n        /* \"contracts/SOlar.sol\":15656:15743  function owner() public view returns (address) {... */\n      mload(0x40)\n      sub(shl(0xa0, 0x01), 0x01)\n        /* \"contracts/SOlar.sol\":15725:15731  _owner */\n      swap1\n      swap2\n      and\n        /* \"#utility.yul\":160:211   */\n      dup2\n      mstore\n        /* \"#utility.yul\":148:150   */\n      0x20\n        /* \"#utility.yul\":133:151   */\n      add\n        /* \"contracts/SOlar.sol\":15656:15743  function owner() public view returns (address) {... */\n    tag_13:\n      mload(0x40)\n      dup1\n      swap2\n      sub\n      swap1\n      return\n        /* \"contracts/SOlar.sol\":17477:17802  function unlock() public virtual {... */\n    tag_5:\n      tag_9\n      tag_16\n      jump\t// in\n        /* \"contracts/SOlar.sol\":16962:17059  function geUnlockTime() public view returns (uint256) {... */\n    tag_6:\n        /* \"contracts/SOlar.sol\":17038:17047  _lockTime */\n      sload(0x02)\n        /* \"contracts/SOlar.sol\":16962:17059  function geUnlockTime() public view returns (uint256) {... */\n      mload(0x40)\n        /* \"#utility.yul\":368:393   */\n      swap1\n      dup2\n      mstore\n        /* \"#utility.yul\":356:358   */\n      0x20\n        /* \"#utility.yul\":341:359   */\n      add\n        /* \"contracts/SOlar.sol\":16962:17059  function geUnlockTime() public view returns (uint256) {... */\n      tag_13\n        /* \"#utility.yul\":222:399   */\n      jump\n        /* \"contracts/SOlar.sol\":17143:17389  function lock(uint256 time) public virtual onlyOwner {... */\n    tag_7:\n      tag_9\n      tag_22\n      calldatasize\n      0x04\n      tag_23\n      jump\t// in\n    tag_22:\n      tag_24\n      jump\t// in\n        /* \"contracts/SOlar.sol\":16690:16950  function transferOwnership(address newOwner) public virtual onlyOwner {... */\n    tag_8:\n      tag_9\n      tag_26\n      calldatasize\n      0x04\n      tag_27\n      jump\t// in\n    tag_26:\n      tag_28\n      jump\t// in\n        /* \"contracts/SOlar.sol\":16358:16518  function renounceOwnership() public virtual onlyOwner {... */\n    tag_10:\n        /* \"contracts/SOlar.sol\":15894:15900  _owner */\n      and(sub(shl(0xa0, 0x01), 0x01), sload(0x00))\n        /* \"contracts/SOlar.sol\":213:223  msg.sender */\n      caller\n        /* \"contracts/SOlar.sol\":15894:15916  _owner == _msgSender() */\n      eq\n        /* \"contracts/SOlar.sol\":15886:15953  require(_owner == _msgSender(), \"Ownable: caller is not the owner\") */\n      tag_32\n      jumpi\n      mload(0x40)\n      shl(0xe5, 0x461bcd)\n      dup2\n      mstore\n      0x04\n      add\n      tag_33\n      swap1\n      tag_34\n      jump\t// in\n    tag_33:\n      mload(0x40)\n      dup1\n      swap2\n      sub\n      swap1\n      revert\n    tag_32:\n        /* \"contracts/SOlar.sol\":16469:16470  0 */\n      0x00\n        /* \"contracts/SOlar.sol\":16453:16459  _owner */\n      dup1\n      sload\n        /* \"contracts/SOlar.sol\":16432:16472  OwnershipTransferred(_owner, address(0)) */\n      mload(0x40)\n      sub(shl(0xa0, 0x01), 0x01)\n        /* \"contracts/SOlar.sol\":16453:16459  _owner */\n      swap1\n      swap2\n      and\n      swap1\n      0x00\n      dup1\n      mload\n      0x20\n      data_9c064737b570a74c2bac5d21056d93ac53115214216cd14d4a0fc9b60be81231\n      dup4\n      codecopy\n      dup2\n      mload\n      swap2\n      mstore\n        /* \"contracts/SOlar.sol\":16432:16472  OwnershipTransferred(_owner, address(0)) */\n      swap1\n        /* \"contracts/SOlar.sol\":16469:16470  0 */\n      dup4\n      swap1\n        /* \"contracts/SOlar.sol\":16432:16472  OwnershipTransferred(_owner, address(0)) */\n      log3\n        /* \"contracts/SOlar.sol\":16504:16505  0 */\n      0x00\n        /* \"contracts/SOlar.sol\":16487:16506  _owner = address(0) */\n      dup1\n      sload\n      not(sub(shl(0xa0, 0x01), 0x01))\n      and\n      swap1\n      sstore\n        /* \"contracts/SOlar.sol\":16358:16518  function renounceOwnership() public virtual onlyOwner {... */\n      jump\t// out\n        /* \"contracts/SOlar.sol\":17477:17802  function unlock() public virtual {... */\n    tag_16:\n        /* \"contracts/SOlar.sol\":17533:17547  _previousOwner */\n      and(sub(shl(0xa0, 0x01), 0x01), sload(0x01))\n        /* \"contracts/SOlar.sol\":17551:17561  msg.sender */\n      caller\n        /* \"contracts/SOlar.sol\":17533:17561  _previousOwner == msg.sender */\n      eq\n        /* \"contracts/SOlar.sol\":17525:17601  require(_previousOwner == msg.sender, \"You don't have permission to unlock\") */\n      tag_38\n      jumpi\n      mload(0x40)\n      shl(0xe5, 0x461bcd)\n      dup2\n      mstore\n        /* \"#utility.yul\":1443:1445   */\n      0x20\n        /* \"contracts/SOlar.sol\":17525:17601  require(_previousOwner == msg.sender, \"You don't have permission to unlock\") */\n      0x04\n      dup3\n      add\n        /* \"#utility.yul\":1425:1446   */\n      mstore\n        /* \"#utility.yul\":1482:1484   */\n      0x23\n        /* \"#utility.yul\":1462:1480   */\n      0x24\n      dup3\n      add\n        /* \"#utility.yul\":1455:1485   */\n      mstore\n        /* \"#utility.yul\":1521:1555   */\n      0x596f7520646f6e27742068617665207065726d697373696f6e20746f20756e6c\n        /* \"#utility.yul\":1501:1519   */\n      0x44\n      dup3\n      add\n        /* \"#utility.yul\":1494:1556   */\n      mstore\n      shl(0xe8, 0x6f636b)\n        /* \"#utility.yul\":1572:1590   */\n      0x64\n      dup3\n      add\n        /* \"#utility.yul\":1565:1598   */\n      mstore\n        /* \"#utility.yul\":1615:1634   */\n      0x84\n      add\n        /* \"contracts/SOlar.sol\":17525:17601  require(_previousOwner == msg.sender, \"You don't have permission to unlock\") */\n      tag_33\n        /* \"#utility.yul\":1241:1640   */\n      jump\n        /* \"contracts/SOlar.sol\":17525:17601  require(_previousOwner == msg.sender, \"You don't have permission to unlock\") */\n    tag_38:\n        /* \"contracts/SOlar.sol\":17642:17651  _lockTime */\n      sload(0x02)\n        /* \"contracts/SOlar.sol\":17624:17639  block.timestamp */\n      timestamp\n        /* \"contracts/SOlar.sol\":17624:17651  block.timestamp > _lockTime */\n      gt\n        /* \"contracts/SOlar.sol\":17616:17688  require(block.timestamp > _lockTime , \"Contract is locked until 7 days\") */\n      tag_41\n      jumpi\n      mload(0x40)\n      shl(0xe5, 0x461bcd)\n      dup2\n      mstore\n        /* \"#utility.yul\":1847:1849   */\n      0x20\n        /* \"contracts/SOlar.sol\":17616:17688  require(block.timestamp > _lockTime , \"Contract is locked until 7 days\") */\n      0x04\n      dup3\n      add\n        /* \"#utility.yul\":1829:1850   */\n      mstore\n        /* \"#utility.yul\":1886:1888   */\n      0x1f\n        /* \"#utility.yul\":1866:1884   */\n      0x24\n      dup3\n      add\n        /* \"#utility.yul\":1859:1889   */\n      mstore\n        /* \"#utility.yul\":1925:1958   */\n      0x436f6e7472616374206973206c6f636b656420756e74696c2037206461797300\n        /* \"#utility.yul\":1905:1923   */\n      0x44\n      dup3\n      add\n        /* \"#utility.yul\":1898:1959   */\n      mstore\n        /* \"#utility.yul\":1976:1994   */\n      0x64\n      add\n        /* \"contracts/SOlar.sol\":17616:17688  require(block.timestamp > _lockTime , \"Contract is locked until 7 days\") */\n      tag_33\n        /* \"#utility.yul\":1645:2000   */\n      jump\n        /* \"contracts/SOlar.sol\":17616:17688  require(block.timestamp > _lockTime , \"Contract is locked until 7 days\") */\n    tag_41:\n        /* \"contracts/SOlar.sol\":17737:17751  _previousOwner */\n      sload(0x01)\n      0x00\n        /* \"contracts/SOlar.sol\":17729:17735  _owner */\n      dup1\n      sload\n        /* \"contracts/SOlar.sol\":17708:17752  OwnershipTransferred(_owner, _previousOwner) */\n      mload(0x40)\n      sub(shl(0xa0, 0x01), 0x01)\n        /* \"contracts/SOlar.sol\":17737:17751  _previousOwner */\n      swap4\n      dup5\n      and\n      swap4\n        /* \"contracts/SOlar.sol\":17729:17735  _owner */\n      swap1\n      swap2\n      and\n      swap2\n      0x00\n      dup1\n      mload\n      0x20\n      data_9c064737b570a74c2bac5d21056d93ac53115214216cd14d4a0fc9b60be81231\n      dup4\n      codecopy\n      dup2\n      mload\n      swap2\n      mstore\n        /* \"contracts/SOlar.sol\":17708:17752  OwnershipTransferred(_owner, _previousOwner) */\n      swap2\n      log3\n        /* \"contracts/SOlar.sol\":17776:17790  _previousOwner */\n      sload(0x01)\n      0x00\n        /* \"contracts/SOlar.sol\":17767:17790  _owner = _previousOwner */\n      dup1\n      sload\n      not(sub(shl(0xa0, 0x01), 0x01))\n      and\n      sub(shl(0xa0, 0x01), 0x01)\n        /* \"contracts/SOlar.sol\":17776:17790  _previousOwner */\n      swap1\n      swap3\n      and\n        /* \"contracts/SOlar.sol\":17767:17790  _owner = _previousOwner */\n      swap2\n      swap1\n      swap2\n      or\n      swap1\n      sstore\n        /* \"contracts/SOlar.sol\":17477:17802  function unlock() public virtual {... */\n      jump\t// out\n        /* \"contracts/SOlar.sol\":17143:17389  function lock(uint256 time) public virtual onlyOwner {... */\n    tag_24:\n        /* \"contracts/SOlar.sol\":15894:15900  _owner */\n      and(sub(shl(0xa0, 0x01), 0x01), sload(0x00))\n        /* \"contracts/SOlar.sol\":213:223  msg.sender */\n      caller\n        /* \"contracts/SOlar.sol\":15894:15916  _owner == _msgSender() */\n      eq\n        /* \"contracts/SOlar.sol\":15886:15953  require(_owner == _msgSender(), \"Ownable: caller is not the owner\") */\n      tag_47\n      jumpi\n      mload(0x40)\n      shl(0xe5, 0x461bcd)\n      dup2\n      mstore\n      0x04\n      add\n      tag_33\n      swap1\n      tag_34\n      jump\t// in\n    tag_47:\n        /* \"contracts/SOlar.sol\":17228:17234  _owner */\n      0x00\n      dup1\n      sload\n      0x01\n        /* \"contracts/SOlar.sol\":17211:17234  _previousOwner = _owner */\n      dup1\n      sload\n      not(sub(shl(0xa0, 0x01), 0x01))\n      swap1\n      dup2\n      and\n      sub(shl(0xa0, 0x01), 0x01)\n        /* \"contracts/SOlar.sol\":17228:17234  _owner */\n      dup5\n      and\n        /* \"contracts/SOlar.sol\":17211:17234  _previousOwner = _owner */\n      or\n      swap1\n      swap2\n      sstore\n        /* \"contracts/SOlar.sol\":17249:17268  _owner = address(0) */\n      and\n      swap1\n      sstore\n        /* \"contracts/SOlar.sol\":17295:17317  block.timestamp + time */\n      tag_50\n        /* \"contracts/SOlar.sol\":17313:17317  time */\n      dup2\n        /* \"contracts/SOlar.sol\":17295:17310  block.timestamp */\n      timestamp\n        /* \"contracts/SOlar.sol\":17295:17317  block.timestamp + time */\n      tag_51\n      jump\t// in\n    tag_50:\n        /* \"contracts/SOlar.sol\":17283:17292  _lockTime */\n      0x02\n        /* \"contracts/SOlar.sol\":17283:17317  _lockTime = block.timestamp + time */\n      sstore\n        /* \"contracts/SOlar.sol\":17374:17375  0 */\n      0x00\n        /* \"contracts/SOlar.sol\":17358:17364  _owner */\n      dup1\n      sload\n        /* \"contracts/SOlar.sol\":17337:17377  OwnershipTransferred(_owner, address(0)) */\n      mload(0x40)\n      sub(shl(0xa0, 0x01), 0x01)\n        /* \"contracts/SOlar.sol\":17358:17364  _owner */\n      swap1\n      swap2\n      and\n      swap1\n      0x00\n      dup1\n      mload\n      0x20\n      data_9c064737b570a74c2bac5d21056d93ac53115214216cd14d4a0fc9b60be81231\n      dup4\n      codecopy\n      dup2\n      mload\n      swap2\n      mstore\n        /* \"contracts/SOlar.sol\":17337:17377  OwnershipTransferred(_owner, address(0)) */\n      swap1\n        /* \"contracts/SOlar.sol\":17374:17375  0 */\n      dup4\n      swap1\n        /* \"contracts/SOlar.sol\":17337:17377  OwnershipTransferred(_owner, address(0)) */\n      log3\n        /* \"contracts/SOlar.sol\":17143:17389  function lock(uint256 time) public virtual onlyOwner {... */\n      pop\n      jump\t// out\n        /* \"contracts/SOlar.sol\":16690:16950  function transferOwnership(address newOwner) public virtual onlyOwner {... */\n    tag_28:\n        /* \"contracts/SOlar.sol\":15894:15900  _owner */\n      and(sub(shl(0xa0, 0x01), 0x01), sload(0x00))\n        /* \"contracts/SOlar.sol\":213:223  msg.sender */\n      caller\n        /* \"contracts/SOlar.sol\":15894:15916  _owner == _msgSender() */\n      eq\n        /* \"contracts/SOlar.sol\":15886:15953  require(_owner == _msgSender(), \"Ownable: caller is not the owner\") */\n      tag_54\n      jumpi\n      mload(0x40)\n      shl(0xe5, 0x461bcd)\n      dup2\n      mstore\n      0x04\n      add\n      tag_33\n      swap1\n      tag_34\n      jump\t// in\n    tag_54:\n      sub(shl(0xa0, 0x01), 0x01)\n        /* \"contracts/SOlar.sol\":16783:16805  newOwner != address(0) */\n      dup2\n      and\n        /* \"contracts/SOlar.sol\":16775:16848  require(newOwner != address(0), \"Ownable: new owner is the zero address\") */\n      tag_57\n      jumpi\n      mload(0x40)\n      shl(0xe5, 0x461bcd)\n      dup2\n      mstore\n        /* \"#utility.yul\":2434:2436   */\n      0x20\n        /* \"contracts/SOlar.sol\":16775:16848  require(newOwner != address(0), \"Ownable: new owner is the zero address\") */\n      0x04\n      dup3\n      add\n        /* \"#utility.yul\":2416:2437   */\n      mstore\n        /* \"#utility.yul\":2473:2475   */\n      0x26\n        /* \"#utility.yul\":2453:2471   */\n      0x24\n      dup3\n      add\n        /* \"#utility.yul\":2446:2476   */\n      mstore\n        /* \"#utility.yul\":2512:2546   */\n      0x4f776e61626c653a206e6577206f776e657220697320746865207a65726f2061\n        /* \"#utility.yul\":2492:2510   */\n      0x44\n      dup3\n      add\n        /* \"#utility.yul\":2485:2547   */\n      mstore\n      shl(0xd0, 0x646472657373)\n        /* \"#utility.yul\":2563:2581   */\n      0x64\n      dup3\n      add\n        /* \"#utility.yul\":2556:2592   */\n      mstore\n        /* \"#utility.yul\":2609:2628   */\n      0x84\n      add\n        /* \"contracts/SOlar.sol\":16775:16848  require(newOwner != address(0), \"Ownable: new owner is the zero address\") */\n      tag_33\n        /* \"#utility.yul\":2232:2634   */\n      jump\n        /* \"contracts/SOlar.sol\":16775:16848  require(newOwner != address(0), \"Ownable: new owner is the zero address\") */\n    tag_57:\n        /* \"contracts/SOlar.sol\":16889:16895  _owner */\n      0x00\n      dup1\n      sload\n        /* \"contracts/SOlar.sol\":16868:16906  OwnershipTransferred(_owner, newOwner) */\n      mload(0x40)\n      sub(shl(0xa0, 0x01), 0x01)\n      dup1\n      dup6\n      and\n      swap4\n        /* \"contracts/SOlar.sol\":16889:16895  _owner */\n      swap3\n      and\n      swap2\n      0x00\n      dup1\n      mload\n      0x20\n      data_9c064737b570a74c2bac5d21056d93ac53115214216cd14d4a0fc9b60be81231\n      dup4\n      codecopy\n      dup2\n      mload\n      swap2\n      mstore\n        /* \"contracts/SOlar.sol\":16868:16906  OwnershipTransferred(_owner, newOwner) */\n      swap2\n      log3\n        /* \"contracts/SOlar.sol\":16921:16927  _owner */\n      0x00\n        /* \"contracts/SOlar.sol\":16921:16938  _owner = newOwner */\n      dup1\n      sload\n      not(sub(shl(0xa0, 0x01), 0x01))\n      and\n      sub(shl(0xa0, 0x01), 0x01)\n      swap3\n      swap1\n      swap3\n      and\n      swap2\n      swap1\n      swap2\n      or\n      swap1\n      sstore\n        /* \"contracts/SOlar.sol\":16690:16950  function transferOwnership(address newOwner) public virtual onlyOwner {... */\n      jump\t// out\n        /* \"#utility.yul\":404:584   */\n    tag_23:\n        /* \"#utility.yul\":463:469   */\n      0x00\n        /* \"#utility.yul\":516:518   */\n      0x20\n        /* \"#utility.yul\":504:513   */\n      dup3\n        /* \"#utility.yul\":495:502   */\n      dup5\n        /* \"#utility.yul\":491:514   */\n      sub\n        /* \"#utility.yul\":487:519   */\n      slt\n        /* \"#utility.yul\":484:536   */\n      iszero\n      tag_65\n      jumpi\n        /* \"#utility.yul\":532:533   */\n      0x00\n        /* \"#utility.yul\":529:530   */\n      dup1\n        /* \"#utility.yul\":522:534   */\n      revert\n        /* \"#utility.yul\":484:536   */\n    tag_65:\n      pop\n        /* \"#utility.yul\":555:578   */\n      calldataload\n      swap2\n        /* \"#utility.yul\":404:584   */\n      swap1\n      pop\n      jump\t// out\n        /* \"#utility.yul\":589:875   */\n    tag_27:\n        /* \"#utility.yul\":648:654   */\n      0x00\n        /* \"#utility.yul\":701:703   */\n      0x20\n        /* \"#utility.yul\":689:698   */\n      dup3\n        /* \"#utility.yul\":680:687   */\n      dup5\n        /* \"#utility.yul\":676:699   */\n      sub\n        /* \"#utility.yul\":672:704   */\n      slt\n        /* \"#utility.yul\":669:721   */\n      iszero\n      tag_67\n      jumpi\n        /* \"#utility.yul\":717:718   */\n      0x00\n        /* \"#utility.yul\":714:715   */\n      dup1\n        /* \"#utility.yul\":707:719   */\n      revert\n        /* \"#utility.yul\":669:721   */\n    tag_67:\n        /* \"#utility.yul\":743:766   */\n      dup2\n      calldataload\n      sub(shl(0xa0, 0x01), 0x01)\n        /* \"#utility.yul\":795:826   */\n      dup2\n      and\n        /* \"#utility.yul\":785:827   */\n      dup2\n      eq\n        /* \"#utility.yul\":775:845   */\n      tag_68\n      jumpi\n        /* \"#utility.yul\":841:842   */\n      0x00\n        /* \"#utility.yul\":838:839   */\n      dup1\n        /* \"#utility.yul\":831:843   */\n      revert\n        /* \"#utility.yul\":775:845   */\n    tag_68:\n        /* \"#utility.yul\":864:869   */\n      swap4\n        /* \"#utility.yul\":589:875   */\n      swap3\n      pop\n      pop\n      pop\n      jump\t// out\n        /* \"#utility.yul\":880:1236   */\n    tag_34:\n        /* \"#utility.yul\":1082:1084   */\n      0x20\n        /* \"#utility.yul\":1064:1085   */\n      dup1\n      dup3\n      mstore\n        /* \"#utility.yul\":1101:1119   */\n      dup2\n      dup2\n      add\n        /* \"#utility.yul\":1094:1124   */\n      mstore\n        /* \"#utility.yul\":1160:1194   */\n      0x4f776e61626c653a2063616c6c6572206973206e6f7420746865206f776e6572\n        /* \"#utility.yul\":1155:1157   */\n      0x40\n        /* \"#utility.yul\":1140:1158   */\n      dup3\n      add\n        /* \"#utility.yul\":1133:1195   */\n      mstore\n        /* \"#utility.yul\":1227:1229   */\n      0x60\n        /* \"#utility.yul\":1212:1230   */\n      add\n      swap1\n        /* \"#utility.yul\":880:1236   */\n      jump\t// out\n        /* \"#utility.yul\":2005:2227   */\n    tag_51:\n        /* \"#utility.yul\":2070:2079   */\n      dup1\n      dup3\n      add\n        /* \"#utility.yul\":2091:2101   */\n      dup1\n      dup3\n      gt\n        /* \"#utility.yul\":2088:2221   */\n      iszero\n      tag_73\n      jumpi\n        /* \"#utility.yul\":2143:2153   */\n      0x4e487b71\n        /* \"#utility.yul\":2138:2141   */\n      0xe0\n        /* \"#utility.yul\":2134:2154   */\n      shl\n        /* \"#utility.yul\":2131:2132   */\n      0x00\n        /* \"#utility.yul\":2124:2155   */\n      mstore\n        /* \"#utility.yul\":2178:2182   */\n      0x11\n        /* \"#utility.yul\":2175:2176   */\n      0x04\n        /* \"#utility.yul\":2168:2183   */\n      mstore\n        /* \"#utility.yul\":2206:2210   */\n      0x24\n        /* \"#utility.yul\":2203:2204   */\n      0x00\n        /* \"#utility.yul\":2196:2211   */\n      revert\n        /* \"#utility.yul\":2088:2221   */\n    tag_73:\n        /* \"#utility.yul\":2005:2227   */\n      swap3\n      swap2\n      pop\n      pop\n      jump\t// out\n    stop\n    data_9c064737b570a74c2bac5d21056d93ac53115214216cd14d4a0fc9b60be81231 8be0079c531659141344cd1fd0a4f28419497f9722a3daafe3b4186f6b6457e0\n\n    auxdata: 0xa26469706673582212205fb7fe464be8b843a67b7168b660dbe6cf16647517f62a0b63ec8b51eb95985e64736f6c63430008180033\n}\n",
				"bytecode": {
					"linkReferences": {},
					"object": "608060405234801561000f575f80fd5b505f80546001600160a01b031916339081178255604051909182917f8be0079c531659141344cd1fd0a4f28419497f9722a3daafe3b4186f6b6457e0908290a35061047f8061005d5f395ff3fe608060405234801561000f575f80fd5b5060043610610060575f3560e01c8063715018a6146100645780638da5cb5b1461006e578063a69df4b51461008d578063b6c5232414610095578063dd467064146100a6578063f2fde38b146100b9575b5f80fd5b61006c6100cc565b005b5f546040516001600160a01b0390911681526020015b60405180910390f35b61006c610133565b600254604051908152602001610084565b61006c6100b436600461038b565b610236565b61006c6100c73660046103a2565b6102b7565b5f546001600160a01b031633146100fe5760405162461bcd60e51b81526004016100f5906103cf565b60405180910390fd5b5f80546040516001600160a01b03909116905f8051602061042a833981519152908390a35f80546001600160a01b0319169055565b6001546001600160a01b031633146101995760405162461bcd60e51b815260206004820152602360248201527f596f7520646f6e27742068617665207065726d697373696f6e20746f20756e6c6044820152626f636b60e81b60648201526084016100f5565b60025442116101ea5760405162461bcd60e51b815260206004820152601f60248201527f436f6e7472616374206973206c6f636b656420756e74696c203720646179730060448201526064016100f5565b6001545f80546040516001600160a01b0393841693909116915f8051602061042a83398151915291a36001545f80546001600160a01b0319166001600160a01b03909216919091179055565b5f546001600160a01b0316331461025f5760405162461bcd60e51b81526004016100f5906103cf565b5f8054600180546001600160a01b03199081166001600160a01b0384161790915516905561028d8142610404565b6002555f80546040516001600160a01b03909116905f8051602061042a833981519152908390a350565b5f546001600160a01b031633146102e05760405162461bcd60e51b81526004016100f5906103cf565b6001600160a01b0381166103455760405162461bcd60e51b815260206004820152602660248201527f4f776e61626c653a206e6577206f776e657220697320746865207a65726f206160448201526564647265737360d01b60648201526084016100f5565b5f80546040516001600160a01b03808516939216915f8051602061042a83398151915291a35f80546001600160a01b0319166001600160a01b0392909216919091179055565b5f6020828403121561039b575f80fd5b5035919050565b5f602082840312156103b2575f80fd5b81356001600160a01b03811681146103c8575f80fd5b9392505050565b6020808252818101527f4f776e61626c653a2063616c6c6572206973206e6f7420746865206f776e6572604082015260600190565b8082018082111561042357634e487b7160e01b5f52601160045260245ffd5b9291505056fe8be0079c531659141344cd1fd0a4f28419497f9722a3daafe3b4186f6b6457e0a26469706673582212205fb7fe464be8b843a67b7168b660dbe6cf16647517f62a0b63ec8b51eb95985e64736f6c63430008180033",
					"opcodes": "PUSH1 0x80 PUSH1 0x40 MSTORE CALLVALUE DUP1 ISZERO PUSH2 0xF JUMPI PUSH0 DUP1 REVERT JUMPDEST POP PUSH0 DUP1 SLOAD PUSH1 0x1 PUSH1 0x1 PUSH1 0xA0 SHL SUB NOT AND CALLER SWAP1 DUP2 OR DUP3 SSTORE PUSH1 0x40 MLOAD SWAP1 SWAP2 DUP3 SWAP2 PUSH32 0x8BE0079C531659141344CD1FD0A4F28419497F9722A3DAAFE3B4186F6B6457E0 SWAP1 DUP3 SWAP1 LOG3 POP PUSH2 0x47F DUP1 PUSH2 0x5D PUSH0 CODECOPY PUSH0 RETURN INVALID PUSH1 0x80 PUSH1 0x40 MSTORE CALLVALUE DUP1 ISZERO PUSH2 0xF JUMPI PUSH0 DUP1 REVERT JUMPDEST POP PUSH1 0x4 CALLDATASIZE LT PUSH2 0x60 JUMPI PUSH0 CALLDATALOAD PUSH1 0xE0 SHR DUP1 PUSH4 0x715018A6 EQ PUSH2 0x64 JUMPI DUP1 PUSH4 0x8DA5CB5B EQ PUSH2 0x6E JUMPI DUP1 PUSH4 0xA69DF4B5 EQ PUSH2 0x8D JUMPI DUP1 PUSH4 0xB6C52324 EQ PUSH2 0x95 JUMPI DUP1 PUSH4 0xDD467064 EQ PUSH2 0xA6 JUMPI DUP1 PUSH4 0xF2FDE38B EQ PUSH2 0xB9 JUMPI JUMPDEST PUSH0 DUP1 REVERT JUMPDEST PUSH2 0x6C PUSH2 0xCC JUMP JUMPDEST STOP JUMPDEST PUSH0 SLOAD PUSH1 0x40 MLOAD PUSH1 0x1 PUSH1 0x1 PUSH1 0xA0 SHL SUB SWAP1 SWAP2 AND DUP2 MSTORE PUSH1 0x20 ADD JUMPDEST PUSH1 0x40 MLOAD DUP1 SWAP2 SUB SWAP1 RETURN JUMPDEST PUSH2 0x6C PUSH2 0x133 JUMP JUMPDEST PUSH1 0x2 SLOAD PUSH1 0x40 MLOAD SWAP1 DUP2 MSTORE PUSH1 0x20 ADD PUSH2 0x84 JUMP JUMPDEST PUSH2 0x6C PUSH2 0xB4 CALLDATASIZE PUSH1 0x4 PUSH2 0x38B JUMP JUMPDEST PUSH2 0x236 JUMP JUMPDEST PUSH2 0x6C PUSH2 0xC7 CALLDATASIZE PUSH1 0x4 PUSH2 0x3A2 JUMP JUMPDEST PUSH2 0x2B7 JUMP JUMPDEST PUSH0 SLOAD PUSH1 0x1 PUSH1 0x1 PUSH1 0xA0 SHL SUB AND CALLER EQ PUSH2 0xFE JUMPI PUSH1 0x40 MLOAD PUSH3 0x461BCD PUSH1 0xE5 SHL DUP2 MSTORE PUSH1 0x4 ADD PUSH2 0xF5 SWAP1 PUSH2 0x3CF JUMP JUMPDEST PUSH1 0x40 MLOAD DUP1 SWAP2 SUB SWAP1 REVERT JUMPDEST PUSH0 DUP1 SLOAD PUSH1 0x40 MLOAD PUSH1 0x1 PUSH1 0x1 PUSH1 0xA0 SHL SUB SWAP1 SWAP2 AND SWAP1 PUSH0 DUP1 MLOAD PUSH1 0x20 PUSH2 0x42A DUP4 CODECOPY DUP2 MLOAD SWAP2 MSTORE SWAP1 DUP4 SWAP1 LOG3 PUSH0 DUP1 SLOAD PUSH1 0x1 PUSH1 0x1 PUSH1 0xA0 SHL SUB NOT AND SWAP1 SSTORE JUMP JUMPDEST PUSH1 0x1 SLOAD PUSH1 0x1 PUSH1 0x1 PUSH1 0xA0 SHL SUB AND CALLER EQ PUSH2 0x199 JUMPI PUSH1 0x40 MLOAD PUSH3 0x461BCD PUSH1 0xE5 SHL DUP2 MSTORE PUSH1 0x20 PUSH1 0x4 DUP3 ADD MSTORE PUSH1 0x23 PUSH1 0x24 DUP3 ADD MSTORE PUSH32 0x596F7520646F6E27742068617665207065726D697373696F6E20746F20756E6C PUSH1 0x44 DUP3 ADD MSTORE PUSH3 0x6F636B PUSH1 0xE8 SHL PUSH1 0x64 DUP3 ADD MSTORE PUSH1 0x84 ADD PUSH2 0xF5 JUMP JUMPDEST PUSH1 0x2 SLOAD TIMESTAMP GT PUSH2 0x1EA JUMPI PUSH1 0x40 MLOAD PUSH3 0x461BCD PUSH1 0xE5 SHL DUP2 MSTORE PUSH1 0x20 PUSH1 0x4 DUP3 ADD MSTORE PUSH1 0x1F PUSH1 0x24 DUP3 ADD MSTORE PUSH32 0x436F6E7472616374206973206C6F636B656420756E74696C2037206461797300 PUSH1 0x44 DUP3 ADD MSTORE PUSH1 0x64 ADD PUSH2 0xF5 JUMP JUMPDEST PUSH1 0x1 SLOAD PUSH0 DUP1 SLOAD PUSH1 0x40 MLOAD PUSH1 0x1 PUSH1 0x1 PUSH1 0xA0 SHL SUB SWAP4 DUP5 AND SWAP4 SWAP1 SWAP2 AND SWAP2 PUSH0 DUP1 MLOAD PUSH1 0x20 PUSH2 0x42A DUP4 CODECOPY DUP2 MLOAD SWAP2 MSTORE SWAP2 LOG3 PUSH1 0x1 SLOAD PUSH0 DUP1 SLOAD PUSH1 0x1 PUSH1 0x1 PUSH1 0xA0 SHL SUB NOT AND PUSH1 0x1 PUSH1 0x1 PUSH1 0xA0 SHL SUB SWAP1 SWAP3 AND SWAP2 SWAP1 SWAP2 OR SWAP1 SSTORE JUMP JUMPDEST PUSH0 SLOAD PUSH1 0x1 PUSH1 0x1 PUSH1 0xA0 SHL SUB AND CALLER EQ PUSH2 0x25F JUMPI PUSH1 0x40 MLOAD PUSH3 0x461BCD PUSH1 0xE5 SHL DUP2 MSTORE PUSH1 0x4 ADD PUSH2 0xF5 SWAP1 PUSH2 0x3CF JUMP JUMPDEST PUSH0 DUP1 SLOAD PUSH1 0x1 DUP1 SLOAD PUSH1 0x1 PUSH1 0x1 PUSH1 0xA0 SHL SUB NOT SWAP1 DUP2 AND PUSH1 0x1 PUSH1 0x1 PUSH1 0xA0 SHL SUB DUP5 AND OR SWAP1 SWAP2 SSTORE AND SWAP1 SSTORE PUSH2 0x28D DUP2 TIMESTAMP PUSH2 0x404 JUMP JUMPDEST PUSH1 0x2 SSTORE PUSH0 DUP1 SLOAD PUSH1 0x40 MLOAD PUSH1 0x1 PUSH1 0x1 PUSH1 0xA0 SHL SUB SWAP1 SWAP2 AND SWAP1 PUSH0 DUP1 MLOAD PUSH1 0x20 PUSH2 0x42A DUP4 CODECOPY DUP2 MLOAD SWAP2 MSTORE SWAP1 DUP4 SWAP1 LOG3 POP JUMP JUMPDEST PUSH0 SLOAD PUSH1 0x1 PUSH1 0x1 PUSH1 0xA0 SHL SUB AND CALLER EQ PUSH2 0x2E0 JUMPI PUSH1 0x40 MLOAD PUSH3 0x461BCD PUSH1 0xE5 SHL DUP2 MSTORE PUSH1 0x4 ADD PUSH2 0xF5 SWAP1 PUSH2 0x3CF JUMP JUMPDEST PUSH1 0x1 PUSH1 0x1 PUSH1 0xA0 SHL SUB DUP2 AND PUSH2 0x345 JUMPI PUSH1 0x40 MLOAD PUSH3 0x461BCD PUSH1 0xE5 SHL DUP2 MSTORE PUSH1 0x20 PUSH1 0x4 DUP3 ADD MSTORE PUSH1 0x26 PUSH1 0x24 DUP3 ADD MSTORE PUSH32 0x4F776E61626C653A206E6577206F776E657220697320746865207A65726F2061 PUSH1 0x44 DUP3 ADD MSTORE PUSH6 0x646472657373 PUSH1 0xD0 SHL PUSH1 0x64 DUP3 ADD MSTORE PUSH1 0x84 ADD PUSH2 0xF5 JUMP JUMPDEST PUSH0 DUP1 SLOAD PUSH1 0x40 MLOAD PUSH1 0x1 PUSH1 0x1 PUSH1 0xA0 SHL SUB DUP1 DUP6 AND SWAP4 SWAP3 AND SWAP2 PUSH0 DUP1 MLOAD PUSH1 0x20 PUSH2 0x42A DUP4 CODECOPY DUP2 MLOAD SWAP2 MSTORE SWAP2 LOG3 PUSH0 DUP1 SLOAD PUSH1 0x1 PUSH1 0x1 PUSH1 0xA0 SHL SUB NOT AND PUSH1 0x1 PUSH1 0x1 PUSH1 0xA0 SHL SUB SWAP3 SWAP1 SWAP3 AND SWAP2 SWAP1 SWAP2 OR SWAP1 SSTORE JUMP JUMPDEST PUSH0 PUSH1 0x20 DUP3 DUP5 SUB SLT ISZERO PUSH2 0x39B JUMPI PUSH0 DUP1 REVERT JUMPDEST POP CALLDATALOAD SWAP2 SWAP1 POP JUMP JUMPDEST PUSH0 PUSH1 0x20 DUP3 DUP5 SUB SLT ISZERO PUSH2 0x3B2 JUMPI PUSH0 DUP1 REVERT JUMPDEST DUP2 CALLDATALOAD PUSH1 0x1 PUSH1 0x1 PUSH1 0xA0 SHL SUB DUP2 AND DUP2 EQ PUSH2 0x3C8 JUMPI PUSH0 DUP1 REVERT JUMPDEST SWAP4 SWAP3 POP POP POP JUMP JUMPDEST PUSH1 0x20 DUP1 DUP3 MSTORE DUP2 DUP2 ADD MSTORE PUSH32 0x4F776E61626C653A2063616C6C6572206973206E6F7420746865206F776E6572 PUSH1 0x40 DUP3 ADD MSTORE PUSH1 0x60 ADD SWAP1 JUMP JUMPDEST DUP1 DUP3 ADD DUP1 DUP3 GT ISZERO PUSH2 0x423 JUMPI PUSH4 0x4E487B71 PUSH1 0xE0 SHL PUSH0 MSTORE PUSH1 0x11 PUSH1 0x4 MSTORE PUSH1 0x24 PUSH0 REVERT JUMPDEST SWAP3 SWAP2 POP POP JUMP INVALID DUP12 0xE0 SMOD SWAP13 MSTORE8 AND MSIZE EQ SGT PREVRANDAO 0xCD 0x1F 0xD0 LOG4 CALLCODE DUP5 NOT BLOBHASH PUSH32 0x9722A3DAAFE3B4186F6B6457E0A26469706673582212205FB7FE464BE8B843A6 PUSH28 0x7168B660DBE6CF16647517F62A0B63EC8B51EB95985E64736F6C6343 STOP ADDMOD XOR STOP CALLER "
				},
				"gasEstimates": {
					"creation": {
						"codeDepositCost": "230200",
						"executionCost": "26039",
						"totalCost": "256239"
					},
					"external": {
						"geUnlockTime()": "2323",
						"lock(uint256)": "76759",
						"owner()": "2288",
						"renounceOwnership()": "30171",
						"transferOwnership(address)": "30480",
						"unlock()": "36586"
					}
				},
				"methodIdentifiers": {
					"geUnlockTime()": "b6c52324",
					"lock(uint256)": "dd467064",
					"owner()": "8da5cb5b",
					"renounceOwnership()": "715018a6",
					"transferOwnership(address)": "f2fde38b",
					"unlock()": "a69df4b5"
				}
			},
			"storageLayout": {
				"storage": [
					{
						"astId": 498,
						"contract": "contracts/SOlar.sol:Ownable",
						"label": "_owner",
						"offset": 0,
						"slot": "0",
						"type": "t_address"
					},
					{
						"astId": 500,
						"contract": "contracts/SOlar.sol:Ownable",
						"label": "_previousOwner",
						"offset": 0,
						"slot": "1",
						"type": "t_address"
					},
					{
						"astId": 502,
						"contract": "contracts/SOlar.sol:Ownable",
						"label": "_lockTime",
						"offset": 0,
						"slot": "2",
						"type": "t_uint256"
					}
				],
				"types": {
					"t_address": {
						"encoding": "inplace",
						"label": "address",
						"numberOfBytes": "20"
					},
					"t_uint256": {
						"encoding": "inplace",
						"label": "uint256",
						"numberOfBytes": "32"
					}
				}
			},
			"userdoc": {
				"kind": "user",
				"methods": {},
				"version": 1
			}
		}
	}
}