{
	"contracts/mineableCoin.sol": {
		"_BNbitcoinToken": {
			"abi": [
				{
					"inputs": [],
					"stateMutability": "nonpayable",
					"type": "constructor"
				},
				{
					"anonymous": false,
					"inputs": [
						{
							"indexed": true,
							"internalType": "address",
							"name": "tokenOwner",
							"type": "address"
						},
						{
							"indexed": true,
							"internalType": "address",
							"name": "spender",
							"type": "address"
						},
						{
							"indexed": false,
							"internalType": "uint256",
							"name": "tokens",
							"type": "uint256"
						}
					],
					"name": "Approval",
					"type": "event"
				},
				{
					"anonymous": false,
					"inputs": [
						{
							"indexed": true,
							"internalType": "address",
							"name": "from",
							"type": "address"
						},
						{
							"indexed": false,
							"internalType": "uint256",
							"name": "reward_amount",
							"type": "uint256"
						},
						{
							"indexed": false,
							"internalType": "uint256",
							"name": "epochCount",
							"type": "uint256"
						},
						{
							"indexed": false,
							"internalType": "bytes32",
							"name": "newChallengeNumber",
							"type": "bytes32"
						}
					],
					"name": "Mint",
					"type": "event"
				},
				{
					"anonymous": false,
					"inputs": [
						{
							"indexed": true,
							"internalType": "address",
							"name": "_from",
							"type": "address"
						},
						{
							"indexed": true,
							"internalType": "address",
							"name": "_to",
							"type": "address"
						}
					],
					"name": "OwnershipTransferred",
					"type": "event"
				},
				{
					"anonymous": false,
					"inputs": [
						{
							"indexed": true,
							"internalType": "address",
							"name": "from",
							"type": "address"
						},
						{
							"indexed": true,
							"internalType": "address",
							"name": "to",
							"type": "address"
						},
						{
							"indexed": false,
							"internalType": "uint256",
							"name": "tokens",
							"type": "uint256"
						}
					],
					"name": "Transfer",
					"type": "event"
				},
				{
					"inputs": [],
					"name": "_BLOCKS_PER_READJUSTMENT",
					"outputs": [
						{
							"internalType": "uint256",
							"name": "",
							"type": "uint256"
						}
					],
					"stateMutability": "view",
					"type": "function"
				},
				{
					"inputs": [],
					"name": "_MAXIMUM_TARGET",
					"outputs": [
						{
							"internalType": "uint256",
							"name": "",
							"type": "uint256"
						}
					],
					"stateMutability": "view",
					"type": "function"
				},
				{
					"inputs": [],
					"name": "_MINIMUM_TARGET",
					"outputs": [
						{
							"internalType": "uint256",
							"name": "",
							"type": "uint256"
						}
					],
					"stateMutability": "view",
					"type": "function"
				},
				{
					"inputs": [],
					"name": "_totalSupply",
					"outputs": [
						{
							"internalType": "uint256",
							"name": "",
							"type": "uint256"
						}
					],
					"stateMutability": "view",
					"type": "function"
				},
				{
					"inputs": [],
					"name": "acceptOwnership",
					"outputs": [],
					"stateMutability": "nonpayable",
					"type": "function"
				},
				{
					"inputs": [
						{
							"internalType": "address",
							"name": "tokenOwner",
							"type": "address"
						},
						{
							"internalType": "address",
							"name": "spender",
							"type": "address"
						}
					],
					"name": "allowance",
					"outputs": [
						{
							"internalType": "uint256",
							"name": "remaining",
							"type": "uint256"
						}
					],
					"stateMutability": "view",
					"type": "function"
				},
				{
					"inputs": [
						{
							"internalType": "address",
							"name": "spender",
							"type": "address"
						},
						{
							"internalType": "uint256",
							"name": "tokens",
							"type": "uint256"
						}
					],
					"name": "approve",
					"outputs": [
						{
							"internalType": "bool",
							"name": "success",
							"type": "bool"
						}
					],
					"stateMutability": "nonpayable",
					"type": "function"
				},
				{
					"inputs": [
						{
							"internalType": "address",
							"name": "spender",
							"type": "address"
						},
						{
							"internalType": "uint256",
							"name": "tokens",
							"type": "uint256"
						},
						{
							"internalType": "bytes",
							"name": "data",
							"type": "bytes"
						}
					],
					"name": "approveAndCall",
					"outputs": [
						{
							"internalType": "bool",
							"name": "success",
							"type": "bool"
						}
					],
					"stateMutability": "nonpayable",
					"type": "function"
				},
				{
					"inputs": [
						{
							"internalType": "address",
							"name": "tokenOwner",
							"type": "address"
						}
					],
					"name": "balanceOf",
					"outputs": [
						{
							"internalType": "uint256",
							"name": "balance",
							"type": "uint256"
						}
					],
					"stateMutability": "view",
					"type": "function"
				},
				{
					"inputs": [],
					"name": "challengeNumber",
					"outputs": [
						{
							"internalType": "bytes32",
							"name": "",
							"type": "bytes32"
						}
					],
					"stateMutability": "view",
					"type": "function"
				},
				{
					"inputs": [
						{
							"internalType": "uint256",
							"name": "nonce",
							"type": "uint256"
						},
						{
							"internalType": "bytes32",
							"name": "challenge_digest",
							"type": "bytes32"
						},
						{
							"internalType": "bytes32",
							"name": "challenge_number",
							"type": "bytes32"
						},
						{
							"internalType": "uint256",
							"name": "testTarget",
							"type": "uint256"
						}
					],
					"name": "checkMintSolution",
					"outputs": [
						{
							"internalType": "bool",
							"name": "success",
							"type": "bool"
						}
					],
					"stateMutability": "view",
					"type": "function"
				},
				{
					"inputs": [],
					"name": "decimals",
					"outputs": [
						{
							"internalType": "uint8",
							"name": "",
							"type": "uint8"
						}
					],
					"stateMutability": "view",
					"type": "function"
				},
				{
					"inputs": [],
					"name": "epochCount",
					"outputs": [
						{
							"internalType": "uint256",
							"name": "",
							"type": "uint256"
						}
					],
					"stateMutability": "view",
					"type": "function"
				},
				{
					"inputs": [],
					"name": "getChallengeNumber",
					"outputs": [
						{
							"internalType": "bytes32",
							"name": "",
							"type": "bytes32"
						}
					],
					"stateMutability": "view",
					"type": "function"
				},
				{
					"inputs": [],
					"name": "getMiningDifficulty",
					"outputs": [
						{
							"internalType": "uint256",
							"name": "",
							"type": "uint256"
						}
					],
					"stateMutability": "view",
					"type": "function"
				},
				{
					"inputs": [],
					"name": "getMiningReward",
					"outputs": [
						{
							"internalType": "uint256",
							"name": "",
							"type": "uint256"
						}
					],
					"stateMutability": "view",
					"type": "function"
				},
				{
					"inputs": [],
					"name": "getMiningTarget",
					"outputs": [
						{
							"internalType": "uint256",
							"name": "",
							"type": "uint256"
						}
					],
					"stateMutability": "view",
					"type": "function"
				},
				{
					"inputs": [
						{
							"internalType": "uint256",
							"name": "nonce",
							"type": "uint256"
						},
						{
							"internalType": "bytes32",
							"name": "challenge_number",
							"type": "bytes32"
						}
					],
					"name": "getMintDigest",
					"outputs": [
						{
							"internalType": "bytes32",
							"name": "digesttest",
							"type": "bytes32"
						}
					],
					"stateMutability": "view",
					"type": "function"
				},
				{
					"inputs": [],
					"name": "getOwner",
					"outputs": [
						{
							"internalType": "address",
							"name": "",
							"type": "address"
						}
					],
					"stateMutability": "view",
					"type": "function"
				},
				{
					"inputs": [],
					"name": "lastRewardAmount",
					"outputs": [
						{
							"internalType": "uint256",
							"name": "",
							"type": "uint256"
						}
					],
					"stateMutability": "view",
					"type": "function"
				},
				{
					"inputs": [],
					"name": "lastRewardBscBlockNumber",
					"outputs": [
						{
							"internalType": "uint256",
							"name": "",
							"type": "uint256"
						}
					],
					"stateMutability": "view",
					"type": "function"
				},
				{
					"inputs": [],
					"name": "lastRewardTo",
					"outputs": [
						{
							"internalType": "address",
							"name": "",
							"type": "address"
						}
					],
					"stateMutability": "view",
					"type": "function"
				},
				{
					"inputs": [],
					"name": "latestDifficultyPeriodStarted",
					"outputs": [
						{
							"internalType": "uint256",
							"name": "",
							"type": "uint256"
						}
					],
					"stateMutability": "view",
					"type": "function"
				},
				{
					"inputs": [],
					"name": "maxSupplyForEra",
					"outputs": [
						{
							"internalType": "uint256",
							"name": "",
							"type": "uint256"
						}
					],
					"stateMutability": "view",
					"type": "function"
				},
				{
					"inputs": [],
					"name": "miningTarget",
					"outputs": [
						{
							"internalType": "uint256",
							"name": "",
							"type": "uint256"
						}
					],
					"stateMutability": "view",
					"type": "function"
				},
				{
					"inputs": [
						{
							"internalType": "uint256",
							"name": "nonce",
							"type": "uint256"
						},
						{
							"internalType": "bytes32",
							"name": "challenge_digest",
							"type": "bytes32"
						}
					],
					"name": "mint",
					"outputs": [
						{
							"internalType": "bool",
							"name": "success",
							"type": "bool"
						}
					],
					"stateMutability": "nonpayable",
					"type": "function"
				},
				{
					"inputs": [],
					"name": "name",
					"outputs": [
						{
							"internalType": "string",
							"name": "",
							"type": "string"
						}
					],
					"stateMutability": "view",
					"type": "function"
				},
				{
					"inputs": [],
					"name": "newOwner",
					"outputs": [
						{
							"internalType": "address",
							"name": "",
							"type": "address"
						}
					],
					"stateMutability": "view",
					"type": "function"
				},
				{
					"inputs": [],
					"name": "owner",
					"outputs": [
						{
							"internalType": "address",
							"name": "",
							"type": "address"
						}
					],
					"stateMutability": "view",
					"type": "function"
				},
				{
					"inputs": [],
					"name": "rewardEra",
					"outputs": [
						{
							"internalType": "uint256",
							"name": "",
							"type": "uint256"
						}
					],
					"stateMutability": "view",
					"type": "function"
				},
				{
					"inputs": [],
					"name": "symbol",
					"outputs": [
						{
							"internalType": "string",
							"name": "",
							"type": "string"
						}
					],
					"stateMutability": "view",
					"type": "function"
				},
				{
					"inputs": [],
					"name": "tokensMinted",
					"outputs": [
						{
							"internalType": "uint256",
							"name": "",
							"type": "uint256"
						}
					],
					"stateMutability": "view",
					"type": "function"
				},
				{
					"inputs": [],
					"name": "totalSupply",
					"outputs": [
						{
							"internalType": "uint256",
							"name": "",
							"type": "uint256"
						}
					],
					"stateMutability": "view",
					"type": "function"
				},
				{
					"inputs": [
						{
							"internalType": "address",
							"name": "to",
							"type": "address"
						},
						{
							"internalType": "uint256",
							"name": "tokens",
							"type": "uint256"
						}
					],
					"name": "transfer",
					"outputs": [
						{
							"internalType": "bool",
							"name": "success",
							"type": "bool"
						}
					],
					"stateMutability": "nonpayable",
					"type": "function"
				},
				{
					"inputs": [
						{
							"internalType": "address",
							"name": "tokenAddress",
							"type": "address"
						},
						{
							"internalType": "uint256",
							"name": "tokens",
							"type": "uint256"
						}
					],
					"name": "transferAnyBEP20Token",
					"outputs": [
						{
							"internalType": "bool",
							"name": "success",
							"type": "bool"
						}
					],
					"stateMutability": "nonpayable",
					"type": "function"
				},
				{
					"inputs": [
						{
							"internalType": "address",
							"name": "from",
							"type": "address"
						},
						{
							"internalType": "address",
							"name": "to",
							"type": "address"
						},
						{
							"internalType": "uint256",
							"name": "tokens",
							"type": "uint256"
						}
					],
					"name": "transferFrom",
					"outputs": [
						{
							"internalType": "bool",
							"name": "success",
							"type": "bool"
						}
					],
					"stateMutability": "nonpayable",
					"type": "function"
				},
				{
					"inputs": [
						{
							"internalType": "address",
							"name": "_newOwner",
							"type": "address"
						}
					],
					"name": "transferOwnership",
					"outputs": [],
					"stateMutability": "nonpayable",
					"type": "function"
				}
			],
			"devdoc": {
				"kind": "dev",
				"methods": {},
				"version": 1
			},
			"evm": {
				"assembly": "    /* \"contracts/mineableCoin.sol\":3014:13338  contract _BNbitcoinToken is BEP20Interface, Owned {... */\n  mstore(0x40, 0x80)\n    /* \"contracts/mineableCoin.sol\":3416:3420  2016 */\n  0x07e0\n    /* \"contracts/mineableCoin.sol\":3377:3420  uint public _BLOCKS_PER_READJUSTMENT = 2016 */\n  0x08\n  sstore\n    /* \"contracts/mineableCoin.sol\":3485:3490  2**16 */\n  0x010000\n    /* \"contracts/mineableCoin.sol\":3454:3490  uint public  _MINIMUM_TARGET = 2**16 */\n  0x09\n  sstore\n  shl(0xe0, 0x01)\n    /* \"contracts/mineableCoin.sol\":3570:3607  uint public  _MAXIMUM_TARGET = 2**224 */\n  0x0a\n  sstore\n    /* \"contracts/mineableCoin.sol\":3925:3944  bool locked = false */\n  0x12\n  dup1\n  sload\n  not(0xff)\n  and\n  swap1\n  sstore\n    /* \"contracts/mineableCoin.sol\":4444:4950  constructor() onlyOwner{... */\n  callvalue\n  dup1\n  iszero\n  tag_1\n  jumpi\n  0x00\n  dup1\n  revert\ntag_1:\n  pop\n    /* \"contracts/mineableCoin.sol\":2355:2360  owner */\n  0x00\n    /* \"contracts/mineableCoin.sol\":2355:2373  owner = msg.sender */\n  dup1\n  sload\n  not(sub(shl(0xa0, 0x01), 0x01))\n  and\n    /* \"contracts/mineableCoin.sol\":2363:2373  msg.sender */\n  caller\n    /* \"contracts/mineableCoin.sol\":2355:2373  owner = msg.sender */\n  or\n  swap1\n  sstore\n    /* \"contracts/mineableCoin.sol\":4484:4500  symbol = \"BNBTC\" */\n  0x40\n  dup1\n  mload\n  dup1\n  dup3\n  add\n  swap1\n  swap2\n  mstore\n  0x05\n  dup2\n  mstore\n  shl(0xd8, 0x424e425443)\n  0x20\n  dup3\n  add\n  mstore\n    /* \"contracts/mineableCoin.sol\":4484:4490  symbol */\n  0x02\n  swap1\n    /* \"contracts/mineableCoin.sol\":4484:4500  symbol = \"BNBTC\" */\n  tag_8\n  swap1\n    /* \"contracts/mineableCoin.sol\":4484:4490  symbol */\n  dup3\n    /* \"contracts/mineableCoin.sol\":4484:4500  symbol = \"BNBTC\" */\n  tag_9\n  jump\t// in\ntag_8:\n  pop\n    /* \"contracts/mineableCoin.sol\":4513:4562  name = \"BNbitcoin Token - minable bitcoin on BSC\" */\n  mload(0x40)\n  dup1\n  0x60\n  add\n  0x40\n  mstore\n  dup1\n  0x28\n  dup2\n  mstore\n  0x20\n  add\n  data_3fcecf9c2ca6e0ecd423bfc6b30dd60681d5f01a28ab12497c137ec63d84ff2e\n  0x28\n  swap2\n  codecopy\n    /* \"contracts/mineableCoin.sol\":4513:4517  name */\n  0x03\n  swap1\n    /* \"contracts/mineableCoin.sol\":4513:4562  name = \"BNbitcoin Token - minable bitcoin on BSC\" */\n  tag_10\n  swap1\n    /* \"contracts/mineableCoin.sol\":4513:4517  name */\n  dup3\n    /* \"contracts/mineableCoin.sol\":4513:4562  name = \"BNbitcoin Token - minable bitcoin on BSC\" */\n  tag_9\n  jump\t// in\ntag_10:\n  pop\n    /* \"contracts/mineableCoin.sol\":4575:4583  decimals */\n  0x04\n    /* \"contracts/mineableCoin.sol\":4575:4587  decimals = 8 */\n  dup1\n  sload\n  not(0xff)\n  and\n    /* \"contracts/mineableCoin.sol\":4586:4587  8 */\n  0x08\n    /* \"contracts/mineableCoin.sol\":4575:4587  decimals = 8 */\n  swap1\n  dup2\n  or\n  swap1\n  swap2\n  sstore\n    /* \"contracts/mineableCoin.sol\":4626:4644  10**uint(decimals) */\n  tag_11\n  swap1\n    /* \"contracts/mineableCoin.sol\":4626:4628  10 */\n  0x0a\n    /* \"contracts/mineableCoin.sol\":4626:4644  10**uint(decimals) */\n  tag_12\n  jump\t// in\ntag_11:\n    /* \"contracts/mineableCoin.sol\":4615:4644  21000000 * 10**uint(decimals) */\n  tag_13\n  swap1\n    /* \"contracts/mineableCoin.sol\":4615:4623  21000000 */\n  0x01406f40\n    /* \"contracts/mineableCoin.sol\":4615:4644  21000000 * 10**uint(decimals) */\n  tag_14\n  jump\t// in\ntag_13:\n    /* \"contracts/mineableCoin.sol\":4600:4612  _totalSupply */\n  0x05\n    /* \"contracts/mineableCoin.sol\":4600:4644  _totalSupply = 21000000 * 10**uint(decimals) */\n  sstore\n    /* \"contracts/mineableCoin.sol\":4660:4666  locked */\n  and(0xff, sload(0x12))\n    /* \"contracts/mineableCoin.sol\":4657:4676  if(locked) revert() */\n  iszero\n  tag_15\n  jumpi\n    /* \"contracts/mineableCoin.sol\":4668:4676  revert() */\n  0x00\n  dup1\n  revert\n    /* \"contracts/mineableCoin.sol\":4657:4676  if(locked) revert() */\ntag_15:\n    /* \"contracts/mineableCoin.sol\":4687:4693  locked */\n  0x12\n    /* \"contracts/mineableCoin.sol\":4687:4700  locked = true */\n  dup1\n  sload\n  not(0xff)\n  and\n    /* \"contracts/mineableCoin.sol\":4696:4700  true */\n  0x01\n    /* \"contracts/mineableCoin.sol\":4687:4700  locked = true */\n  or\n  swap1\n  sstore\n    /* \"contracts/mineableCoin.sol\":4687:4693  locked */\n  0x00\n    /* \"contracts/mineableCoin.sol\":4713:4725  tokensMinted */\n  0x14\n    /* \"contracts/mineableCoin.sol\":4713:4729  tokensMinted = 0 */\n  dup2\n  swap1\n  sstore\n    /* \"contracts/mineableCoin.sol\":4742:4751  rewardEra */\n  0x0d\n    /* \"contracts/mineableCoin.sol\":4742:4755  rewardEra = 0 */\n  sstore\n  0x05\n    /* \"contracts/mineableCoin.sol\":4784:4796  _totalSupply */\n  sload\n    /* \"contracts/mineableCoin.sol\":4784:4803  _totalSupply.div(2) */\n  tag_16\n  swap1\n    /* \"contracts/mineableCoin.sol\":4801:4802  2 */\n  0x02\n    /* \"contracts/mineableCoin.sol\":4784:4800  _totalSupply.div */\n  tag_17\n    /* \"contracts/mineableCoin.sol\":4784:4803  _totalSupply.div(2) */\n  jump\t// in\ntag_16:\n    /* \"contracts/mineableCoin.sol\":4766:4781  maxSupplyForEra */\n  0x0e\n    /* \"contracts/mineableCoin.sol\":4766:4803  maxSupplyForEra = _totalSupply.div(2) */\n  sstore\n    /* \"contracts/mineableCoin.sol\":4831:4846  _MAXIMUM_TARGET */\n  sload(0x0a)\n    /* \"contracts/mineableCoin.sol\":4816:4828  miningTarget */\n  0x0b\n    /* \"contracts/mineableCoin.sol\":4816:4846  miningTarget = _MAXIMUM_TARGET */\n  sstore\n    /* \"contracts/mineableCoin.sol\":4891:4903  block.number */\n  number\n    /* \"contracts/mineableCoin.sol\":4859:4888  latestDifficultyPeriodStarted */\n  0x06\n    /* \"contracts/mineableCoin.sol\":4859:4903  latestDifficultyPeriodStarted = block.number */\n  sstore\n    /* \"contracts/mineableCoin.sol\":4916:4938  _startNewMiningEpoch() */\n  tag_18\n    /* \"contracts/mineableCoin.sol\":4916:4936  _startNewMiningEpoch */\n  tag_19\n    /* \"contracts/mineableCoin.sol\":4916:4938  _startNewMiningEpoch() */\n  jump\t// in\ntag_18:\n    /* \"contracts/mineableCoin.sol\":3014:13338  contract _BNbitcoinToken is BEP20Interface, Owned {... */\n  jump(tag_97)\n    /* \"contracts/mineableCoin.sol\":486:605  function div(uint a, uint b) internal pure returns (uint c) {... */\ntag_17:\n    /* \"contracts/mineableCoin.sol\":538:544  uint c */\n  0x00\n    /* \"contracts/mineableCoin.sol\":571:572  0 */\n  dup1\n    /* \"contracts/mineableCoin.sol\":567:568  b */\n  dup3\n    /* \"contracts/mineableCoin.sol\":567:572  b > 0 */\n  gt\n    /* \"contracts/mineableCoin.sol\":559:573  require(b > 0) */\n  tag_22\n  jumpi\n  0x00\n  dup1\n  revert\ntag_22:\n    /* \"contracts/mineableCoin.sol\":590:595  a / b */\n  tag_23\n    /* \"contracts/mineableCoin.sol\":594:595  b */\n  dup3\n    /* \"contracts/mineableCoin.sol\":590:591  a */\n  dup5\n    /* \"contracts/mineableCoin.sol\":590:595  a / b */\n  tag_24\n  jump\t// in\ntag_23:\n    /* \"contracts/mineableCoin.sol\":586:595  c = a / b */\n  swap4\n    /* \"contracts/mineableCoin.sol\":486:605  function div(uint a, uint b) internal pure returns (uint c) {... */\n  swap3\n  pop\n  pop\n  pop\n  jump\t// out\n    /* \"contracts/mineableCoin.sol\":6639:7812  function _startNewMiningEpoch() internal {... */\ntag_19:\n    /* \"contracts/mineableCoin.sol\":7012:7027  maxSupplyForEra */\n  sload(0x0e)\n    /* \"contracts/mineableCoin.sol\":6974:7009  tokensMinted.add(getMiningReward()) */\n  tag_26\n    /* \"contracts/mineableCoin.sol\":6991:7008  getMiningReward() */\n  tag_27\n    /* \"contracts/mineableCoin.sol\":6991:7006  getMiningReward */\n  tag_28\n    /* \"contracts/mineableCoin.sol\":6991:7008  getMiningReward() */\n  jump\t// in\ntag_27:\n    /* \"contracts/mineableCoin.sol\":6974:6986  tokensMinted */\n  sload(0x14)\n  swap1\n    /* \"contracts/mineableCoin.sol\":6974:6990  tokensMinted.add */\n  tag_29\n    /* \"contracts/mineableCoin.sol\":6974:7009  tokensMinted.add(getMiningReward()) */\n  jump\t// in\ntag_26:\n    /* \"contracts/mineableCoin.sol\":6974:7027  tokensMinted.add(getMiningReward()) > maxSupplyForEra */\n  gt\n    /* \"contracts/mineableCoin.sol\":6974:7045  tokensMinted.add(getMiningReward()) > maxSupplyForEra && rewardEra < 39 */\n  dup1\n  iszero\n  tag_30\n  jumpi\n  pop\n    /* \"contracts/mineableCoin.sol\":7043:7045  39 */\n  0x27\n    /* \"contracts/mineableCoin.sol\":7031:7040  rewardEra */\n  sload(0x0d)\n    /* \"contracts/mineableCoin.sol\":7031:7045  rewardEra < 39 */\n  lt\n    /* \"contracts/mineableCoin.sol\":6974:7045  tokensMinted.add(getMiningReward()) > maxSupplyForEra && rewardEra < 39 */\ntag_30:\n    /* \"contracts/mineableCoin.sol\":6970:7100  if( tokensMinted.add(getMiningReward()) > maxSupplyForEra && rewardEra < 39)... */\n  iszero\n  tag_31\n  jumpi\n    /* \"contracts/mineableCoin.sol\":7077:7086  rewardEra */\n  sload(0x0d)\n    /* \"contracts/mineableCoin.sol\":7077:7090  rewardEra + 1 */\n  tag_32\n  swap1\n    /* \"contracts/mineableCoin.sol\":7089:7090  1 */\n  0x01\n    /* \"contracts/mineableCoin.sol\":7077:7090  rewardEra + 1 */\n  tag_33\n  jump\t// in\ntag_32:\n    /* \"contracts/mineableCoin.sol\":7065:7074  rewardEra */\n  0x0d\n    /* \"contracts/mineableCoin.sol\":7065:7090  rewardEra = rewardEra + 1 */\n  sstore\n    /* \"contracts/mineableCoin.sol\":6970:7100  if( tokensMinted.add(getMiningReward()) > maxSupplyForEra && rewardEra < 39)... */\ntag_31:\n    /* \"contracts/mineableCoin.sol\":7280:7317  _totalSupply.div( 2**(rewardEra + 1)) */\n  tag_34\n    /* \"contracts/mineableCoin.sol\":7302:7311  rewardEra */\n  sload(0x0d)\n    /* \"contracts/mineableCoin.sol\":7314:7315  1 */\n  0x01\n    /* \"contracts/mineableCoin.sol\":7302:7315  rewardEra + 1 */\n  tag_35\n  swap2\n  swap1\n  tag_33\n  jump\t// in\ntag_35:\n    /* \"contracts/mineableCoin.sol\":7298:7316  2**(rewardEra + 1) */\n  tag_36\n  swap1\n    /* \"contracts/mineableCoin.sol\":7298:7299  2 */\n  0x02\n    /* \"contracts/mineableCoin.sol\":7298:7316  2**(rewardEra + 1) */\n  tag_12\n  jump\t// in\ntag_36:\n    /* \"contracts/mineableCoin.sol\":7280:7292  _totalSupply */\n  sload(0x05)\n  swap1\n    /* \"contracts/mineableCoin.sol\":7280:7296  _totalSupply.div */\n  tag_17\n    /* \"contracts/mineableCoin.sol\":7280:7317  _totalSupply.div( 2**(rewardEra + 1)) */\n  jump\t// in\ntag_34:\n    /* \"contracts/mineableCoin.sol\":7265:7277  _totalSupply */\n  sload(0x05)\n    /* \"contracts/mineableCoin.sol\":7265:7317  _totalSupply - _totalSupply.div( 2**(rewardEra + 1)) */\n  tag_37\n  swap2\n  swap1\n  tag_38\n  jump\t// in\ntag_37:\n    /* \"contracts/mineableCoin.sol\":7247:7262  maxSupplyForEra */\n  0x0e\n    /* \"contracts/mineableCoin.sol\":7247:7317  maxSupplyForEra = _totalSupply - _totalSupply.div( 2**(rewardEra + 1)) */\n  sstore\n    /* \"contracts/mineableCoin.sol\":7341:7351  epochCount */\n  sload(0x07)\n    /* \"contracts/mineableCoin.sol\":7341:7358  epochCount.add(1) */\n  tag_39\n  swap1\n    /* \"contracts/mineableCoin.sol\":7356:7357  1 */\n  0x01\n    /* \"contracts/mineableCoin.sol\":7341:7355  epochCount.add */\n  tag_29\n    /* \"contracts/mineableCoin.sol\":7341:7358  epochCount.add(1) */\n  jump\t// in\ntag_39:\n    /* \"contracts/mineableCoin.sol\":7328:7338  epochCount */\n  0x07\n    /* \"contracts/mineableCoin.sol\":7328:7358  epochCount = epochCount.add(1) */\n  dup2\n  swap1\n  sstore\n    /* \"contracts/mineableCoin.sol\":7460:7484  _BLOCKS_PER_READJUSTMENT */\n  sload(0x08)\n    /* \"contracts/mineableCoin.sol\":7447:7484  epochCount % _BLOCKS_PER_READJUSTMENT */\n  tag_40\n  swap2\n  tag_41\n  jump\t// in\ntag_40:\n    /* \"contracts/mineableCoin.sol\":7488:7489  0 */\n  0x00\n    /* \"contracts/mineableCoin.sol\":7447:7489  epochCount % _BLOCKS_PER_READJUSTMENT == 0 */\n  sub\n    /* \"contracts/mineableCoin.sol\":7444:7540  if(epochCount % _BLOCKS_PER_READJUSTMENT == 0)... */\n  tag_43\n  jumpi\n    /* \"contracts/mineableCoin.sol\":7509:7530  _reAdjustDifficulty() */\n  tag_43\n    /* \"contracts/mineableCoin.sol\":7509:7528  _reAdjustDifficulty */\n  tag_44\n    /* \"contracts/mineableCoin.sol\":7509:7530  _reAdjustDifficulty() */\n  jump\t// in\ntag_43:\n    /* \"contracts/mineableCoin.sol\":7775:7791  block.number - 1 */\n  tag_45\n    /* \"contracts/mineableCoin.sol\":7790:7791  1 */\n  0x01\n    /* \"contracts/mineableCoin.sol\":7775:7787  block.number */\n  number\n    /* \"contracts/mineableCoin.sol\":7775:7791  block.number - 1 */\n  tag_38\n  jump\t// in\ntag_45:\n    /* \"contracts/mineableCoin.sol\":7765:7792  blockhash(block.number - 1) */\n  blockhash\n    /* \"contracts/mineableCoin.sol\":7747:7762  challengeNumber */\n  0x0c\n    /* \"contracts/mineableCoin.sol\":7747:7792  challengeNumber = blockhash(block.number - 1) */\n  sstore\n    /* \"contracts/mineableCoin.sol\":6639:7812  function _startNewMiningEpoch() internal {... */\n  jump\t// out\n    /* \"contracts/mineableCoin.sol\":10476:10736  function getMiningReward() public view returns (uint) {... */\ntag_28:\n    /* \"contracts/mineableCoin.sol\":10524:10528  uint */\n  0x00\n    /* \"contracts/mineableCoin.sol\":10679:10725  (50 * 10**uint(decimals) ).div( 2**rewardEra ) */\n  tag_47\n    /* \"contracts/mineableCoin.sol\":10714:10723  rewardEra */\n  sload(0x0d)\n    /* \"contracts/mineableCoin.sol\":10711:10712  2 */\n  0x02\n    /* \"contracts/mineableCoin.sol\":10711:10723  2**rewardEra */\n  tag_48\n  swap2\n  swap1\n  tag_12\n  jump\t// in\ntag_48:\n    /* \"contracts/mineableCoin.sol\":10694:10702  decimals */\n  sload(0x04)\n    /* \"contracts/mineableCoin.sol\":10685:10703  10**uint(decimals) */\n  tag_49\n  swap1\n    /* \"contracts/mineableCoin.sol\":10694:10702  decimals */\n  0xff\n  and\n    /* \"contracts/mineableCoin.sol\":10685:10687  10 */\n  0x0a\n    /* \"contracts/mineableCoin.sol\":10685:10703  10**uint(decimals) */\n  tag_12\n  jump\t// in\ntag_49:\n    /* \"contracts/mineableCoin.sol\":10680:10703  50 * 10**uint(decimals) */\n  tag_50\n  swap1\n    /* \"contracts/mineableCoin.sol\":10680:10682  50 */\n  0x32\n    /* \"contracts/mineableCoin.sol\":10680:10703  50 * 10**uint(decimals) */\n  tag_14\n  jump\t// in\ntag_50:\n    /* \"contracts/mineableCoin.sol\":10679:10709  (50 * 10**uint(decimals) ).div */\n  swap1\n  tag_17\n    /* \"contracts/mineableCoin.sol\":10679:10725  (50 * 10**uint(decimals) ).div( 2**rewardEra ) */\n  jump\t// in\ntag_47:\n    /* \"contracts/mineableCoin.sol\":10672:10725  return (50 * 10**uint(decimals) ).div( 2**rewardEra ) */\n  swap1\n  pop\n    /* \"contracts/mineableCoin.sol\":10476:10736  function getMiningReward() public view returns (uint) {... */\n  swap1\n  jump\t// out\n    /* \"contracts/mineableCoin.sol\":88:208  function add(uint a, uint b) internal pure returns (uint c) {... */\ntag_29:\n    /* \"contracts/mineableCoin.sol\":140:146  uint c */\n  0x00\n    /* \"contracts/mineableCoin.sol\":165:170  a + b */\n  tag_52\n    /* \"contracts/mineableCoin.sol\":169:170  b */\n  dup3\n    /* \"contracts/mineableCoin.sol\":165:166  a */\n  dup5\n    /* \"contracts/mineableCoin.sol\":165:170  a + b */\n  tag_33\n  jump\t// in\ntag_52:\n    /* \"contracts/mineableCoin.sol\":161:170  c = a + b */\n  swap1\n  pop\n    /* \"contracts/mineableCoin.sol\":196:197  a */\n  dup3\n    /* \"contracts/mineableCoin.sol\":191:192  c */\n  dup2\n    /* \"contracts/mineableCoin.sol\":191:197  c >= a */\n  lt\n  iszero\n    /* \"contracts/mineableCoin.sol\":183:198  require(c >= a) */\n  tag_53\n  jumpi\n  0x00\n  dup1\n  revert\ntag_53:\n    /* \"contracts/mineableCoin.sol\":88:208  function add(uint a, uint b) internal pure returns (uint c) {... */\n  swap3\n  swap2\n  pop\n  pop\n  jump\t// out\n    /* \"contracts/mineableCoin.sol\":7969:9857  function _reAdjustDifficulty() internal {... */\ntag_44:\n    /* \"contracts/mineableCoin.sol\":8022:8061  uint bscBlocksSinceLastDifficultyPeriod */\n  0x00\n    /* \"contracts/mineableCoin.sol\":8079:8108  latestDifficultyPeriodStarted */\n  sload(0x06)\n    /* \"contracts/mineableCoin.sol\":8064:8076  block.number */\n  number\n    /* \"contracts/mineableCoin.sol\":8064:8108  block.number - latestDifficultyPeriodStarted */\n  tag_55\n  swap2\n  swap1\n  tag_38\n  jump\t// in\ntag_55:\n    /* \"contracts/mineableCoin.sol\":8313:8337  _BLOCKS_PER_READJUSTMENT */\n  sload(0x08)\n    /* \"contracts/mineableCoin.sol\":8022:8108  uint bscBlocksSinceLastDifficultyPeriod = block.number - latestDifficultyPeriodStarted */\n  swap1\n  swap2\n  pop\n    /* \"contracts/mineableCoin.sol\":8294:8310  uint epochsMined */\n  0x00\n    /* \"contracts/mineableCoin.sol\":8386:8403  epochsMined * 200 */\n  tag_56\n    /* \"contracts/mineableCoin.sol\":8313:8337  _BLOCKS_PER_READJUSTMENT */\n  dup3\n    /* \"contracts/mineableCoin.sol\":8400:8403  200 */\n  0xc8\n    /* \"contracts/mineableCoin.sol\":8386:8403  epochsMined * 200 */\n  tag_14\n  jump\t// in\ntag_56:\n    /* \"contracts/mineableCoin.sol\":8350:8403  uint targetBscBlocksPerDiffPeriod = epochsMined * 200 */\n  swap1\n  pop\n    /* \"contracts/mineableCoin.sol\":8581:8609  targetBscBlocksPerDiffPeriod */\n  dup1\n    /* \"contracts/mineableCoin.sol\":8544:8578  bscBlocksSinceLastDifficultyPeriod */\n  dup4\n    /* \"contracts/mineableCoin.sol\":8544:8609  bscBlocksSinceLastDifficultyPeriod < targetBscBlocksPerDiffPeriod */\n  lt\n    /* \"contracts/mineableCoin.sol\":8540:9538  if( bscBlocksSinceLastDifficultyPeriod < targetBscBlocksPerDiffPeriod )... */\n  iszero\n  tag_57\n  jumpi\n    /* \"contracts/mineableCoin.sol\":8634:8655  uint excess_block_pct */\n  0x00\n    /* \"contracts/mineableCoin.sol\":8658:8739  (targetBscBlocksPerDiffPeriod.mul(100)).div( bscBlocksSinceLastDifficultyPeriod ) */\n  tag_58\n    /* \"contracts/mineableCoin.sol\":8703:8737  bscBlocksSinceLastDifficultyPeriod */\n  dup5\n    /* \"contracts/mineableCoin.sol\":8659:8696  targetBscBlocksPerDiffPeriod.mul(100) */\n  tag_50\n    /* \"contracts/mineableCoin.sol\":8659:8687  targetBscBlocksPerDiffPeriod */\n  dup5\n    /* \"contracts/mineableCoin.sol\":8692:8695  100 */\n  0x64\n    /* \"contracts/mineableCoin.sol\":8659:8691  targetBscBlocksPerDiffPeriod.mul */\n  tag_60\n    /* \"contracts/mineableCoin.sol\":8659:8696  targetBscBlocksPerDiffPeriod.mul(100) */\n  jump\t// in\n    /* \"contracts/mineableCoin.sol\":8658:8739  (targetBscBlocksPerDiffPeriod.mul(100)).div( bscBlocksSinceLastDifficultyPeriod ) */\ntag_58:\n    /* \"contracts/mineableCoin.sol\":8634:8739  uint excess_block_pct = (targetBscBlocksPerDiffPeriod.mul(100)).div( bscBlocksSinceLastDifficultyPeriod ) */\n  swap1\n  pop\n    /* \"contracts/mineableCoin.sol\":8754:8781  uint excess_block_pct_extra */\n  0x00\n    /* \"contracts/mineableCoin.sol\":8784:8829  excess_block_pct.sub(100).limitLessThan(1000) */\n  tag_61\n    /* \"contracts/mineableCoin.sol\":8824:8828  1000 */\n  0x03e8\n    /* \"contracts/mineableCoin.sol\":8784:8809  excess_block_pct.sub(100) */\n  tag_62\n    /* \"contracts/mineableCoin.sol\":8634:8739  uint excess_block_pct = (targetBscBlocksPerDiffPeriod.mul(100)).div( bscBlocksSinceLastDifficultyPeriod ) */\n  dup5\n    /* \"contracts/mineableCoin.sol\":8805:8808  100 */\n  0x64\n    /* \"contracts/mineableCoin.sol\":8784:8804  excess_block_pct.sub */\n  tag_63\n    /* \"contracts/mineableCoin.sol\":8784:8809  excess_block_pct.sub(100) */\n  jump\t// in\ntag_62:\n    /* \"contracts/mineableCoin.sol\":8784:8823  excess_block_pct.sub(100).limitLessThan */\n  swap1\n  tag_64\n    /* \"contracts/mineableCoin.sol\":8784:8829  excess_block_pct.sub(100).limitLessThan(1000) */\n  jump\t// in\ntag_61:\n    /* \"contracts/mineableCoin.sol\":8754:8829  uint excess_block_pct_extra = excess_block_pct.sub(100).limitLessThan(1000) */\n  swap1\n  pop\n    /* \"contracts/mineableCoin.sol\":9036:9104  miningTarget.sub(miningTarget.div(2000).mul(excess_block_pct_extra)) */\n  tag_65\n    /* \"contracts/mineableCoin.sol\":9053:9103  miningTarget.div(2000).mul(excess_block_pct_extra) */\n  tag_66\n    /* \"contracts/mineableCoin.sol\":9080:9102  excess_block_pct_extra */\n  dup3\n    /* \"contracts/mineableCoin.sol\":9053:9075  miningTarget.div(2000) */\n  tag_67\n    /* \"contracts/mineableCoin.sol\":9070:9074  2000 */\n  0x07d0\n    /* \"contracts/mineableCoin.sol\":9053:9065  miningTarget */\n  sload(0x0b)\n    /* \"contracts/mineableCoin.sol\":9053:9069  miningTarget.div */\n  shl(0x20, tag_17)\n  swap1\n    /* \"contracts/mineableCoin.sol\":9053:9075  miningTarget.div(2000) */\n  swap2\n  swap1\n  0x20\n  shr\n  jump\t// in\ntag_67:\n    /* \"contracts/mineableCoin.sol\":9053:9079  miningTarget.div(2000).mul */\n  swap1\n  tag_60\n    /* \"contracts/mineableCoin.sol\":9053:9103  miningTarget.div(2000).mul(excess_block_pct_extra) */\n  jump\t// in\ntag_66:\n    /* \"contracts/mineableCoin.sol\":9036:9048  miningTarget */\n  sload(0x0b)\n  swap1\n    /* \"contracts/mineableCoin.sol\":9036:9052  miningTarget.sub */\n  tag_63\n    /* \"contracts/mineableCoin.sol\":9036:9104  miningTarget.sub(miningTarget.div(2000).mul(excess_block_pct_extra)) */\n  jump\t// in\ntag_65:\n    /* \"contracts/mineableCoin.sol\":9021:9033  miningTarget */\n  0x0b\n    /* \"contracts/mineableCoin.sol\":9021:9104  miningTarget = miningTarget.sub(miningTarget.div(2000).mul(excess_block_pct_extra)) */\n  sstore\n  pop\n    /* \"contracts/mineableCoin.sol\":8540:9538  if( bscBlocksSinceLastDifficultyPeriod < targetBscBlocksPerDiffPeriod )... */\n  tag_68\n  swap1\n  pop\n  jump\ntag_57:\n    /* \"contracts/mineableCoin.sol\":9151:9174  uint shortage_block_pct */\n  0x00\n    /* \"contracts/mineableCoin.sol\":9177:9258  (bscBlocksSinceLastDifficultyPeriod.mul(100)).div( targetBscBlocksPerDiffPeriod ) */\n  tag_69\n    /* \"contracts/mineableCoin.sol\":9228:9256  targetBscBlocksPerDiffPeriod */\n  dup3\n    /* \"contracts/mineableCoin.sol\":9178:9221  bscBlocksSinceLastDifficultyPeriod.mul(100) */\n  tag_50\n    /* \"contracts/mineableCoin.sol\":9178:9212  bscBlocksSinceLastDifficultyPeriod */\n  dup7\n    /* \"contracts/mineableCoin.sol\":9217:9220  100 */\n  0x64\n    /* \"contracts/mineableCoin.sol\":9178:9216  bscBlocksSinceLastDifficultyPeriod.mul */\n  tag_60\n    /* \"contracts/mineableCoin.sol\":9178:9221  bscBlocksSinceLastDifficultyPeriod.mul(100) */\n  jump\t// in\n    /* \"contracts/mineableCoin.sol\":9177:9258  (bscBlocksSinceLastDifficultyPeriod.mul(100)).div( targetBscBlocksPerDiffPeriod ) */\ntag_69:\n    /* \"contracts/mineableCoin.sol\":9151:9258  uint shortage_block_pct = (bscBlocksSinceLastDifficultyPeriod.mul(100)).div( targetBscBlocksPerDiffPeriod ) */\n  swap1\n  pop\n    /* \"contracts/mineableCoin.sol\":9273:9302  uint shortage_block_pct_extra */\n  0x00\n    /* \"contracts/mineableCoin.sol\":9305:9352  shortage_block_pct.sub(100).limitLessThan(1000) */\n  tag_71\n    /* \"contracts/mineableCoin.sol\":9347:9351  1000 */\n  0x03e8\n    /* \"contracts/mineableCoin.sol\":9305:9332  shortage_block_pct.sub(100) */\n  tag_62\n    /* \"contracts/mineableCoin.sol\":9151:9258  uint shortage_block_pct = (bscBlocksSinceLastDifficultyPeriod.mul(100)).div( targetBscBlocksPerDiffPeriod ) */\n  dup5\n    /* \"contracts/mineableCoin.sol\":9328:9331  100 */\n  0x64\n    /* \"contracts/mineableCoin.sol\":9305:9327  shortage_block_pct.sub */\n  tag_63\n    /* \"contracts/mineableCoin.sol\":9305:9332  shortage_block_pct.sub(100) */\n  jump\t// in\n    /* \"contracts/mineableCoin.sol\":9305:9352  shortage_block_pct.sub(100).limitLessThan(1000) */\ntag_71:\n    /* \"contracts/mineableCoin.sol\":9273:9352  uint shortage_block_pct_extra = shortage_block_pct.sub(100).limitLessThan(1000) */\n  swap1\n  pop\n    /* \"contracts/mineableCoin.sol\":9438:9508  miningTarget.add(miningTarget.div(2000).mul(shortage_block_pct_extra)) */\n  tag_73\n    /* \"contracts/mineableCoin.sol\":9455:9507  miningTarget.div(2000).mul(shortage_block_pct_extra) */\n  tag_74\n    /* \"contracts/mineableCoin.sol\":9482:9506  shortage_block_pct_extra */\n  dup3\n    /* \"contracts/mineableCoin.sol\":9455:9477  miningTarget.div(2000) */\n  tag_67\n    /* \"contracts/mineableCoin.sol\":9472:9476  2000 */\n  0x07d0\n    /* \"contracts/mineableCoin.sol\":9455:9467  miningTarget */\n  sload(0x0b)\n    /* \"contracts/mineableCoin.sol\":9455:9471  miningTarget.div */\n  shl(0x20, tag_17)\n  swap1\n    /* \"contracts/mineableCoin.sol\":9455:9477  miningTarget.div(2000) */\n  swap2\n  swap1\n  0x20\n  shr\n  jump\t// in\n    /* \"contracts/mineableCoin.sol\":9455:9507  miningTarget.div(2000).mul(shortage_block_pct_extra) */\ntag_74:\n    /* \"contracts/mineableCoin.sol\":9438:9450  miningTarget */\n  sload(0x0b)\n  swap1\n    /* \"contracts/mineableCoin.sol\":9438:9454  miningTarget.add */\n  tag_29\n    /* \"contracts/mineableCoin.sol\":9438:9508  miningTarget.add(miningTarget.div(2000).mul(shortage_block_pct_extra)) */\n  jump\t// in\ntag_73:\n    /* \"contracts/mineableCoin.sol\":9423:9435  miningTarget */\n  0x0b\n    /* \"contracts/mineableCoin.sol\":9423:9508  miningTarget = miningTarget.add(miningTarget.div(2000).mul(shortage_block_pct_extra)) */\n  sstore\n  pop\n  pop\n    /* \"contracts/mineableCoin.sol\":8540:9538  if( bscBlocksSinceLastDifficultyPeriod < targetBscBlocksPerDiffPeriod )... */\ntag_68:\n    /* \"contracts/mineableCoin.sol\":9586:9598  block.number */\n  number\n    /* \"contracts/mineableCoin.sol\":9554:9583  latestDifficultyPeriodStarted */\n  0x06\n    /* \"contracts/mineableCoin.sol\":9554:9598  latestDifficultyPeriodStarted = block.number */\n  sstore\n    /* \"contracts/mineableCoin.sol\":9629:9644  _MINIMUM_TARGET */\n  sload(0x09)\n    /* \"contracts/mineableCoin.sol\":9614:9626  miningTarget */\n  sload(0x0b)\n    /* \"contracts/mineableCoin.sol\":9614:9644  miningTarget < _MINIMUM_TARGET */\n  lt\n    /* \"contracts/mineableCoin.sol\":9611:9727  if(miningTarget < _MINIMUM_TARGET) //very difficult... */\n  iszero\n  tag_76\n  jumpi\n    /* \"contracts/mineableCoin.sol\":9700:9715  _MINIMUM_TARGET */\n  sload(0x09)\n    /* \"contracts/mineableCoin.sol\":9685:9697  miningTarget */\n  0x0b\n    /* \"contracts/mineableCoin.sol\":9685:9715  miningTarget = _MINIMUM_TARGET */\n  sstore\n    /* \"contracts/mineableCoin.sol\":9611:9727  if(miningTarget < _MINIMUM_TARGET) //very difficult... */\ntag_76:\n    /* \"contracts/mineableCoin.sol\":9757:9772  _MAXIMUM_TARGET */\n  sload(0x0a)\n    /* \"contracts/mineableCoin.sol\":9742:9754  miningTarget */\n  sload(0x0b)\n    /* \"contracts/mineableCoin.sol\":9742:9772  miningTarget > _MAXIMUM_TARGET */\n  gt\n    /* \"contracts/mineableCoin.sol\":9739:9850  if(miningTarget > _MAXIMUM_TARGET) //very easy... */\n  iszero\n  tag_77\n  jumpi\n    /* \"contracts/mineableCoin.sol\":9823:9838  _MAXIMUM_TARGET */\n  sload(0x0a)\n    /* \"contracts/mineableCoin.sol\":9808:9820  miningTarget */\n  0x0b\n    /* \"contracts/mineableCoin.sol\":9808:9838  miningTarget = _MAXIMUM_TARGET */\n  sstore\n    /* \"contracts/mineableCoin.sol\":9739:9850  if(miningTarget > _MAXIMUM_TARGET) //very easy... */\ntag_77:\n    /* \"contracts/mineableCoin.sol\":8009:9857  {... */\n  pop\n  pop\n  pop\n    /* \"contracts/mineableCoin.sol\":7969:9857  function _reAdjustDifficulty() internal {... */\n  jump\t// out\n    /* \"contracts/mineableCoin.sol\":344:478  function mul(uint a, uint b) internal pure returns (uint c) {... */\ntag_60:\n    /* \"contracts/mineableCoin.sol\":396:402  uint c */\n  0x00\n    /* \"contracts/mineableCoin.sol\":421:426  a * b */\n  tag_79\n    /* \"contracts/mineableCoin.sol\":425:426  b */\n  dup3\n    /* \"contracts/mineableCoin.sol\":421:422  a */\n  dup5\n    /* \"contracts/mineableCoin.sol\":421:426  a * b */\n  tag_14\n  jump\t// in\ntag_79:\n    /* \"contracts/mineableCoin.sol\":417:426  c = a * b */\n  swap1\n  pop\n    /* \"contracts/mineableCoin.sol\":447:453  a == 0 */\n  dup3\n  iszero\n  dup1\n    /* \"contracts/mineableCoin.sol\":447:467  a == 0 || c / a == b */\n  tag_80\n  jumpi\n  pop\n    /* \"contracts/mineableCoin.sol\":466:467  b */\n  dup2\n    /* \"contracts/mineableCoin.sol\":457:462  c / a */\n  tag_81\n    /* \"contracts/mineableCoin.sol\":461:462  a */\n  dup5\n    /* \"contracts/mineableCoin.sol\":457:458  c */\n  dup4\n    /* \"contracts/mineableCoin.sol\":457:462  c / a */\n  tag_24\n  jump\t// in\ntag_81:\n    /* \"contracts/mineableCoin.sol\":457:467  c / a == b */\n  eq\n    /* \"contracts/mineableCoin.sol\":447:467  a == 0 || c / a == b */\ntag_80:\n    /* \"contracts/mineableCoin.sol\":439:468  require(a == 0 || c / a == b) */\n  tag_53\n  jumpi\n  0x00\n  dup1\n  revert\n    /* \"contracts/mineableCoin.sol\":216:336  function sub(uint a, uint b) internal pure returns (uint c) {... */\ntag_63:\n    /* \"contracts/mineableCoin.sol\":268:274  uint c */\n  0x00\n    /* \"contracts/mineableCoin.sol\":302:303  a */\n  dup3\n    /* \"contracts/mineableCoin.sol\":297:298  b */\n  dup3\n    /* \"contracts/mineableCoin.sol\":297:303  b <= a */\n  gt\n  iszero\n    /* \"contracts/mineableCoin.sol\":289:304  require(b <= a) */\n  tag_84\n  jumpi\n  0x00\n  dup1\n  revert\ntag_84:\n    /* \"contracts/mineableCoin.sol\":321:326  a - b */\n  tag_23\n    /* \"contracts/mineableCoin.sol\":325:326  b */\n  dup3\n    /* \"contracts/mineableCoin.sol\":321:322  a */\n  dup5\n    /* \"contracts/mineableCoin.sol\":321:326  a - b */\n  tag_38\n  jump\t// in\n    /* \"contracts/mineableCoin.sol\":703:835  function limitLessThan(uint a, uint b) internal pure returns (uint c) {... */\ntag_64:\n    /* \"contracts/mineableCoin.sol\":765:771  uint c */\n  0x00\n    /* \"contracts/mineableCoin.sol\":793:794  b */\n  dup2\n    /* \"contracts/mineableCoin.sol\":789:790  a */\n  dup4\n    /* \"contracts/mineableCoin.sol\":789:794  a > b */\n  gt\n    /* \"contracts/mineableCoin.sol\":786:804  if(a > b) return b */\n  iszero\n  tag_87\n  jumpi\n  pop\n    /* \"contracts/mineableCoin.sol\":803:804  b */\n  dup1\n    /* \"contracts/mineableCoin.sol\":796:804  return b */\n  jump(tag_53)\n    /* \"contracts/mineableCoin.sol\":786:804  if(a > b) return b */\ntag_87:\n  pop\n    /* \"contracts/mineableCoin.sol\":824:825  a */\n  swap1\n  swap2\n    /* \"contracts/mineableCoin.sol\":703:835  function limitLessThan(uint a, uint b) internal pure returns (uint c) {... */\n  swap1\n  pop\n  jump\t// out\n    /* \"#utility.yul\":14:141   */\ntag_88:\n    /* \"#utility.yul\":75:85   */\n  0x4e487b71\n    /* \"#utility.yul\":70:73   */\n  0xe0\n    /* \"#utility.yul\":66:86   */\n  shl\n    /* \"#utility.yul\":63:64   */\n  0x00\n    /* \"#utility.yul\":56:87   */\n  mstore\n    /* \"#utility.yul\":106:110   */\n  0x41\n    /* \"#utility.yul\":103:104   */\n  0x04\n    /* \"#utility.yul\":96:111   */\n  mstore\n    /* \"#utility.yul\":130:134   */\n  0x24\n    /* \"#utility.yul\":127:128   */\n  0x00\n    /* \"#utility.yul\":120:135   */\n  revert\n    /* \"#utility.yul\":146:526   */\ntag_89:\n    /* \"#utility.yul\":225:226   */\n  0x01\n    /* \"#utility.yul\":221:233   */\n  dup2\n  dup2\n  shr\n  swap1\n    /* \"#utility.yul\":268:280   */\n  dup3\n  and\n  dup1\n    /* \"#utility.yul\":289:350   */\n  tag_100\n  jumpi\n    /* \"#utility.yul\":343:347   */\n  0x7f\n    /* \"#utility.yul\":335:341   */\n  dup3\n    /* \"#utility.yul\":331:348   */\n  and\n    /* \"#utility.yul\":321:348   */\n  swap2\n  pop\n    /* \"#utility.yul\":289:350   */\ntag_100:\n    /* \"#utility.yul\":396:398   */\n  0x20\n    /* \"#utility.yul\":388:394   */\n  dup3\n    /* \"#utility.yul\":385:399   */\n  lt\n    /* \"#utility.yul\":365:383   */\n  dup2\n    /* \"#utility.yul\":362:400   */\n  sub\n    /* \"#utility.yul\":359:520   */\n  tag_101\n  jumpi\n    /* \"#utility.yul\":442:452   */\n  0x4e487b71\n    /* \"#utility.yul\":437:440   */\n  0xe0\n    /* \"#utility.yul\":433:453   */\n  shl\n    /* \"#utility.yul\":430:431   */\n  0x00\n    /* \"#utility.yul\":423:454   */\n  mstore\n    /* \"#utility.yul\":477:481   */\n  0x22\n    /* \"#utility.yul\":474:475   */\n  0x04\n    /* \"#utility.yul\":467:482   */\n  mstore\n    /* \"#utility.yul\":505:509   */\n  0x24\n    /* \"#utility.yul\":502:503   */\n  0x00\n    /* \"#utility.yul\":495:510   */\n  revert\n    /* \"#utility.yul\":359:520   */\ntag_101:\n  pop\n    /* \"#utility.yul\":146:526   */\n  swap2\n  swap1\n  pop\n  jump\t// out\n    /* \"#utility.yul\":657:1175   */\ntag_91:\n    /* \"#utility.yul\":759:761   */\n  0x1f\n    /* \"#utility.yul\":754:757   */\n  dup3\n    /* \"#utility.yul\":751:762   */\n  gt\n    /* \"#utility.yul\":748:1169   */\n  iszero\n  tag_77\n  jumpi\n    /* \"#utility.yul\":795:800   */\n  dup1\n    /* \"#utility.yul\":792:793   */\n  0x00\n    /* \"#utility.yul\":785:801   */\n  mstore\n    /* \"#utility.yul\":839:843   */\n  0x20\n    /* \"#utility.yul\":836:837   */\n  0x00\n    /* \"#utility.yul\":826:844   */\n  keccak256\n    /* \"#utility.yul\":909:911   */\n  0x1f\n    /* \"#utility.yul\":897:907   */\n  dup5\n    /* \"#utility.yul\":893:912   */\n  add\n    /* \"#utility.yul\":890:891   */\n  0x05\n    /* \"#utility.yul\":886:913   */\n  shr\n    /* \"#utility.yul\":880:884   */\n  dup2\n    /* \"#utility.yul\":876:914   */\n  add\n    /* \"#utility.yul\":945:949   */\n  0x20\n    /* \"#utility.yul\":933:943   */\n  dup6\n    /* \"#utility.yul\":930:950   */\n  lt\n    /* \"#utility.yul\":927:974   */\n  iszero\n  tag_105\n  jumpi\n  pop\n    /* \"#utility.yul\":968:972   */\n  dup1\n    /* \"#utility.yul\":927:974   */\ntag_105:\n    /* \"#utility.yul\":1023:1025   */\n  0x1f\n    /* \"#utility.yul\":1018:1021   */\n  dup5\n    /* \"#utility.yul\":1014:1026   */\n  add\n    /* \"#utility.yul\":1011:1012   */\n  0x05\n    /* \"#utility.yul\":1007:1027   */\n  shr\n    /* \"#utility.yul\":1001:1005   */\n  dup3\n    /* \"#utility.yul\":997:1028   */\n  add\n    /* \"#utility.yul\":987:1028   */\n  swap2\n  pop\n    /* \"#utility.yul\":1078:1159   */\ntag_106:\n    /* \"#utility.yul\":1096:1098   */\n  dup2\n    /* \"#utility.yul\":1089:1094   */\n  dup2\n    /* \"#utility.yul\":1086:1099   */\n  lt\n    /* \"#utility.yul\":1078:1159   */\n  iszero\n  tag_108\n  jumpi\n    /* \"#utility.yul\":1155:1156   */\n  0x00\n    /* \"#utility.yul\":1141:1157   */\n  dup2\n  sstore\n    /* \"#utility.yul\":1122:1123   */\n  0x01\n    /* \"#utility.yul\":1111:1124   */\n  add\n    /* \"#utility.yul\":1078:1159   */\n  jump(tag_106)\ntag_108:\n    /* \"#utility.yul\":1082:1085   */\n  pop\n  pop\n    /* \"#utility.yul\":657:1175   */\n  pop\n  pop\n  pop\n  jump\t// out\n    /* \"#utility.yul\":1351:2696   */\ntag_9:\n    /* \"#utility.yul\":1471:1481   */\n  dup2\n  mload\n  sub(shl(0x40, 0x01), 0x01)\n    /* \"#utility.yul\":1493:1523   */\n  dup2\n  gt\n    /* \"#utility.yul\":1490:1546   */\n  iszero\n  tag_112\n  jumpi\n    /* \"#utility.yul\":1526:1544   */\n  tag_112\n  tag_88\n  jump\t// in\ntag_112:\n    /* \"#utility.yul\":1555:1652   */\n  tag_113\n    /* \"#utility.yul\":1645:1651   */\n  dup2\n    /* \"#utility.yul\":1605:1643   */\n  tag_114\n    /* \"#utility.yul\":1637:1641   */\n  dup5\n    /* \"#utility.yul\":1631:1642   */\n  sload\n    /* \"#utility.yul\":1605:1643   */\n  tag_89\n  jump\t// in\ntag_114:\n    /* \"#utility.yul\":1599:1603   */\n  dup5\n    /* \"#utility.yul\":1555:1652   */\n  tag_91\n  jump\t// in\ntag_113:\n    /* \"#utility.yul\":1707:1711   */\n  0x20\n  dup1\n    /* \"#utility.yul\":1764:1766   */\n  0x1f\n    /* \"#utility.yul\":1753:1767   */\n  dup4\n  gt\n    /* \"#utility.yul\":1781:1782   */\n  0x01\n    /* \"#utility.yul\":1776:2439   */\n  dup2\n  eq\n  tag_116\n  jumpi\n    /* \"#utility.yul\":2483:2484   */\n  0x00\n    /* \"#utility.yul\":2500:2506   */\n  dup5\n    /* \"#utility.yul\":2497:2586   */\n  iszero\n  tag_117\n  jumpi\n  pop\n    /* \"#utility.yul\":2552:2571   */\n  dup6\n  dup4\n  add\n    /* \"#utility.yul\":2546:2572   */\n  mload\n    /* \"#utility.yul\":2497:2586   */\ntag_117:\n  not(0x00)\n    /* \"#utility.yul\":1308:1309   */\n  0x03\n    /* \"#utility.yul\":1304:1315   */\n  dup7\n  swap1\n  shl\n    /* \"#utility.yul\":1300:1324   */\n  shr\n    /* \"#utility.yul\":1296:1325   */\n  not\n    /* \"#utility.yul\":1286:1326   */\n  and\n    /* \"#utility.yul\":1332:1333   */\n  0x01\n    /* \"#utility.yul\":1328:1339   */\n  dup6\n  swap1\n  shl\n    /* \"#utility.yul\":1283:1340   */\n  or\n    /* \"#utility.yul\":2599:2680   */\n  dup6\n  sstore\n    /* \"#utility.yul\":1746:2690   */\n  jump(tag_115)\n    /* \"#utility.yul\":1776:2439   */\ntag_116:\n    /* \"#utility.yul\":604:605   */\n  0x00\n    /* \"#utility.yul\":597:611   */\n  dup6\n  dup2\n  mstore\n    /* \"#utility.yul\":641:645   */\n  0x20\n    /* \"#utility.yul\":628:646   */\n  dup2\n  keccak256\n  not(0x1f)\n    /* \"#utility.yul\":1812:1832   */\n  dup7\n  and\n  swap2\n    /* \"#utility.yul\":1930:2166   */\ntag_120:\n    /* \"#utility.yul\":1944:1951   */\n  dup3\n    /* \"#utility.yul\":1941:1942   */\n  dup2\n    /* \"#utility.yul\":1938:1952   */\n  lt\n    /* \"#utility.yul\":1930:2166   */\n  iszero\n  tag_122\n  jumpi\n    /* \"#utility.yul\":2033:2052   */\n  dup9\n  dup7\n  add\n    /* \"#utility.yul\":2027:2053   */\n  mload\n    /* \"#utility.yul\":2012:2054   */\n  dup3\n  sstore\n    /* \"#utility.yul\":2125:2152   */\n  swap5\n  dup5\n  add\n  swap5\n    /* \"#utility.yul\":2093:2094   */\n  0x01\n    /* \"#utility.yul\":2081:2095   */\n  swap1\n  swap2\n  add\n  swap1\n    /* \"#utility.yul\":1960:1979   */\n  dup5\n  add\n    /* \"#utility.yul\":1930:2166   */\n  jump(tag_120)\ntag_122:\n    /* \"#utility.yul\":1934:1937   */\n  pop\n    /* \"#utility.yul\":2194:2200   */\n  dup6\n    /* \"#utility.yul\":2185:2192   */\n  dup3\n    /* \"#utility.yul\":2182:2201   */\n  lt\n    /* \"#utility.yul\":2179:2380   */\n  iszero\n  tag_123\n  jumpi\n    /* \"#utility.yul\":2255:2274   */\n  dup8\n  dup6\n  add\n    /* \"#utility.yul\":2249:2275   */\n  mload\n  not(0x00)\n    /* \"#utility.yul\":2338:2339   */\n  0x03\n    /* \"#utility.yul\":2334:2348   */\n  dup9\n  swap1\n  shl\n    /* \"#utility.yul\":2350:2353   */\n  0xf8\n    /* \"#utility.yul\":2330:2354   */\n  and\n    /* \"#utility.yul\":2326:2363   */\n  shr\n    /* \"#utility.yul\":2322:2364   */\n  not\n    /* \"#utility.yul\":2307:2365   */\n  and\n    /* \"#utility.yul\":2292:2366   */\n  dup2\n  sstore\n    /* \"#utility.yul\":2179:2380   */\ntag_123:\n  pop\n  pop\n    /* \"#utility.yul\":2426:2427   */\n  0x01\n    /* \"#utility.yul\":2417:2423   */\n  dup5\n    /* \"#utility.yul\":2414:2415   */\n  0x01\n    /* \"#utility.yul\":2410:2424   */\n  shl\n    /* \"#utility.yul\":2406:2428   */\n  add\n    /* \"#utility.yul\":2400:2404   */\n  dup6\n    /* \"#utility.yul\":2393:2429   */\n  sstore\n    /* \"#utility.yul\":1746:2690   */\ntag_115:\n  pop\n  pop\n  pop\n  pop\n    /* \"#utility.yul\":1351:2696   */\n  pop\n  pop\n  jump\t// out\n    /* \"#utility.yul\":2701:2828   */\ntag_93:\n    /* \"#utility.yul\":2762:2772   */\n  0x4e487b71\n    /* \"#utility.yul\":2757:2760   */\n  0xe0\n    /* \"#utility.yul\":2753:2773   */\n  shl\n    /* \"#utility.yul\":2750:2751   */\n  0x00\n    /* \"#utility.yul\":2743:2774   */\n  mstore\n    /* \"#utility.yul\":2793:2797   */\n  0x11\n    /* \"#utility.yul\":2790:2791   */\n  0x04\n    /* \"#utility.yul\":2783:2798   */\n  mstore\n    /* \"#utility.yul\":2817:2821   */\n  0x24\n    /* \"#utility.yul\":2814:2815   */\n  0x00\n    /* \"#utility.yul\":2807:2822   */\n  revert\n    /* \"#utility.yul\":2833:3249   */\ntag_94:\n    /* \"#utility.yul\":2922:2923   */\n  0x01\n    /* \"#utility.yul\":2959:2964   */\n  dup2\n    /* \"#utility.yul\":2922:2923   */\n  dup2\n    /* \"#utility.yul\":2973:3243   */\ntag_126:\n    /* \"#utility.yul\":2994:3001   */\n  dup1\n    /* \"#utility.yul\":2984:2992   */\n  dup6\n    /* \"#utility.yul\":2981:3002   */\n  gt\n    /* \"#utility.yul\":2973:3243   */\n  iszero\n  tag_128\n  jumpi\n    /* \"#utility.yul\":3053:3057   */\n  dup2\n    /* \"#utility.yul\":3049:3050   */\n  0x00\n    /* \"#utility.yul\":3045:3051   */\n  not\n    /* \"#utility.yul\":3041:3058   */\n  div\n    /* \"#utility.yul\":3035:3039   */\n  dup3\n    /* \"#utility.yul\":3032:3059   */\n  gt\n    /* \"#utility.yul\":3029:3082   */\n  iszero\n  tag_130\n  jumpi\n    /* \"#utility.yul\":3062:3080   */\n  tag_130\n  tag_93\n  jump\t// in\ntag_130:\n    /* \"#utility.yul\":3112:3119   */\n  dup1\n    /* \"#utility.yul\":3102:3110   */\n  dup6\n    /* \"#utility.yul\":3098:3120   */\n  and\n    /* \"#utility.yul\":3095:3150   */\n  iszero\n  tag_131\n  jumpi\n    /* \"#utility.yul\":3132:3148   */\n  swap2\n  dup2\n  mul\n  swap2\n    /* \"#utility.yul\":3095:3150   */\ntag_131:\n    /* \"#utility.yul\":3211:3233   */\n  swap4\n  dup5\n  shr\n  swap4\n    /* \"#utility.yul\":3171:3186   */\n  swap1\n  dup1\n  mul\n  swap1\n    /* \"#utility.yul\":2973:3243   */\n  jump(tag_126)\ntag_128:\n    /* \"#utility.yul\":2977:2980   */\n  pop\n    /* \"#utility.yul\":2833:3249   */\n  swap3\n  pop\n  swap3\n  swap1\n  pop\n  jump\t// out\n    /* \"#utility.yul\":3254:4060   */\ntag_95:\n    /* \"#utility.yul\":3303:3308   */\n  0x00\n    /* \"#utility.yul\":3333:3341   */\n  dup3\n    /* \"#utility.yul\":3323:3403   */\n  tag_133\n  jumpi\n  pop\n    /* \"#utility.yul\":3374:3375   */\n  0x01\n    /* \"#utility.yul\":3388:3393   */\n  jump(tag_53)\n    /* \"#utility.yul\":3323:3403   */\ntag_133:\n    /* \"#utility.yul\":3422:3426   */\n  dup2\n    /* \"#utility.yul\":3412:3488   */\n  tag_134\n  jumpi\n  pop\n    /* \"#utility.yul\":3459:3460   */\n  0x00\n    /* \"#utility.yul\":3473:3478   */\n  jump(tag_53)\n    /* \"#utility.yul\":3412:3488   */\ntag_134:\n    /* \"#utility.yul\":3504:3508   */\n  dup2\n    /* \"#utility.yul\":3522:3523   */\n  0x01\n    /* \"#utility.yul\":3517:3576   */\n  dup2\n  eq\n  tag_136\n  jumpi\n    /* \"#utility.yul\":3590:3591   */\n  0x02\n    /* \"#utility.yul\":3585:3715   */\n  dup2\n  eq\n  tag_137\n  jumpi\n    /* \"#utility.yul\":3497:3715   */\n  jump(tag_135)\n    /* \"#utility.yul\":3517:3576   */\ntag_136:\n    /* \"#utility.yul\":3547:3548   */\n  0x01\n    /* \"#utility.yul\":3538:3548   */\n  swap2\n  pop\n    /* \"#utility.yul\":3561:3566   */\n  pop\n  jump(tag_53)\n    /* \"#utility.yul\":3585:3715   */\ntag_137:\n    /* \"#utility.yul\":3622:3625   */\n  0xff\n    /* \"#utility.yul\":3612:3620   */\n  dup5\n    /* \"#utility.yul\":3609:3626   */\n  gt\n    /* \"#utility.yul\":3606:3649   */\n  iszero\n  tag_139\n  jumpi\n    /* \"#utility.yul\":3629:3647   */\n  tag_139\n  tag_93\n  jump\t// in\ntag_139:\n  pop\n  pop\n    /* \"#utility.yul\":3685:3686   */\n  0x01\n    /* \"#utility.yul\":3671:3687   */\n  dup3\n  shl\n    /* \"#utility.yul\":3700:3705   */\n  jump(tag_53)\n    /* \"#utility.yul\":3497:3715   */\ntag_135:\n  pop\n    /* \"#utility.yul\":3799:3801   */\n  0x20\n    /* \"#utility.yul\":3789:3797   */\n  dup4\n    /* \"#utility.yul\":3786:3802   */\n  lt\n    /* \"#utility.yul\":3780:3783   */\n  0x0133\n    /* \"#utility.yul\":3774:3778   */\n  dup4\n    /* \"#utility.yul\":3771:3784   */\n  lt\n    /* \"#utility.yul\":3767:3803   */\n  and\n    /* \"#utility.yul\":3761:3763   */\n  0x4e\n    /* \"#utility.yul\":3751:3759   */\n  dup5\n    /* \"#utility.yul\":3748:3764   */\n  lt\n    /* \"#utility.yul\":3743:3745   */\n  0x0b\n    /* \"#utility.yul\":3737:3741   */\n  dup5\n    /* \"#utility.yul\":3734:3746   */\n  lt\n    /* \"#utility.yul\":3730:3765   */\n  and\n    /* \"#utility.yul\":3727:3804   */\n  or\n    /* \"#utility.yul\":3724:3883   */\n  iszero\n  tag_140\n  jumpi\n  pop\n    /* \"#utility.yul\":3836:3855   */\n  dup2\n  dup2\n  exp\n    /* \"#utility.yul\":3868:3873   */\n  jump(tag_53)\n    /* \"#utility.yul\":3724:3883   */\ntag_140:\n    /* \"#utility.yul\":3915:3949   */\n  tag_141\n    /* \"#utility.yul\":3940:3948   */\n  dup4\n    /* \"#utility.yul\":3934:3938   */\n  dup4\n    /* \"#utility.yul\":3915:3949   */\n  tag_94\n  jump\t// in\ntag_141:\n    /* \"#utility.yul\":3985:3991   */\n  dup1\n    /* \"#utility.yul\":3981:3982   */\n  0x00\n    /* \"#utility.yul\":3977:3983   */\n  not\n    /* \"#utility.yul\":3973:3992   */\n  div\n    /* \"#utility.yul\":3964:3971   */\n  dup3\n    /* \"#utility.yul\":3961:3993   */\n  gt\n    /* \"#utility.yul\":3958:4016   */\n  iszero\n  tag_143\n  jumpi\n    /* \"#utility.yul\":3996:4014   */\n  tag_143\n  tag_93\n  jump\t// in\ntag_143:\n    /* \"#utility.yul\":4034:4054   */\n  mul\n  swap4\n    /* \"#utility.yul\":3254:4060   */\n  swap3\n  pop\n  pop\n  pop\n  jump\t// out\n    /* \"#utility.yul\":4065:4196   */\ntag_12:\n    /* \"#utility.yul\":4125:4130   */\n  0x00\n    /* \"#utility.yul\":4154:4190   */\n  tag_23\n    /* \"#utility.yul\":4181:4189   */\n  dup4\n    /* \"#utility.yul\":4175:4179   */\n  dup4\n    /* \"#utility.yul\":4154:4190   */\n  tag_95\n  jump\t// in\n    /* \"#utility.yul\":4201:4369   */\ntag_14:\n    /* \"#utility.yul\":4274:4283   */\n  dup1\n  dup3\n  mul\n    /* \"#utility.yul\":4305:4314   */\n  dup2\n  iszero\n    /* \"#utility.yul\":4322:4337   */\n  dup3\n  dup3\n  div\n    /* \"#utility.yul\":4316:4338   */\n  dup5\n  eq\n    /* \"#utility.yul\":4302:4339   */\n  or\n    /* \"#utility.yul\":4292:4363   */\n  tag_53\n  jumpi\n    /* \"#utility.yul\":4343:4361   */\n  tag_53\n  tag_93\n  jump\t// in\n    /* \"#utility.yul\":4374:4501   */\ntag_96:\n    /* \"#utility.yul\":4435:4445   */\n  0x4e487b71\n    /* \"#utility.yul\":4430:4433   */\n  0xe0\n    /* \"#utility.yul\":4426:4446   */\n  shl\n    /* \"#utility.yul\":4423:4424   */\n  0x00\n    /* \"#utility.yul\":4416:4447   */\n  mstore\n    /* \"#utility.yul\":4466:4470   */\n  0x12\n    /* \"#utility.yul\":4463:4464   */\n  0x04\n    /* \"#utility.yul\":4456:4471   */\n  mstore\n    /* \"#utility.yul\":4490:4494   */\n  0x24\n    /* \"#utility.yul\":4487:4488   */\n  0x00\n    /* \"#utility.yul\":4480:4495   */\n  revert\n    /* \"#utility.yul\":4506:4626   */\ntag_24:\n    /* \"#utility.yul\":4546:4547   */\n  0x00\n    /* \"#utility.yul\":4572:4573   */\n  dup3\n    /* \"#utility.yul\":4562:4597   */\n  tag_152\n  jumpi\n    /* \"#utility.yul\":4577:4595   */\n  tag_152\n  tag_96\n  jump\t// in\ntag_152:\n  pop\n    /* \"#utility.yul\":4611:4620   */\n  div\n  swap1\n    /* \"#utility.yul\":4506:4626   */\n  jump\t// out\n    /* \"#utility.yul\":4631:4756   */\ntag_33:\n    /* \"#utility.yul\":4696:4705   */\n  dup1\n  dup3\n  add\n    /* \"#utility.yul\":4717:4727   */\n  dup1\n  dup3\n  gt\n    /* \"#utility.yul\":4714:4750   */\n  iszero\n  tag_53\n  jumpi\n    /* \"#utility.yul\":4730:4748   */\n  tag_53\n  tag_93\n  jump\t// in\n    /* \"#utility.yul\":4761:4889   */\ntag_38:\n    /* \"#utility.yul\":4828:4837   */\n  dup2\n  dup2\n  sub\n    /* \"#utility.yul\":4849:4860   */\n  dup2\n  dup2\n  gt\n    /* \"#utility.yul\":4846:4883   */\n  iszero\n  tag_53\n  jumpi\n    /* \"#utility.yul\":4863:4881   */\n  tag_53\n  tag_93\n  jump\t// in\n    /* \"#utility.yul\":4894:5006   */\ntag_41:\n    /* \"#utility.yul\":4926:4927   */\n  0x00\n    /* \"#utility.yul\":4952:4953   */\n  dup3\n    /* \"#utility.yul\":4942:4977   */\n  tag_161\n  jumpi\n    /* \"#utility.yul\":4957:4975   */\n  tag_161\n  tag_96\n  jump\t// in\ntag_161:\n  pop\n    /* \"#utility.yul\":4991:5000   */\n  mod\n  swap1\n    /* \"#utility.yul\":4894:5006   */\n  jump\t// out\ntag_97:\n    /* \"contracts/mineableCoin.sol\":3014:13338  contract _BNbitcoinToken is BEP20Interface, Owned {... */\n  dataSize(sub_0)\n  dup1\n  dataOffset(sub_0)\n  0x00\n  codecopy\n  0x00\n  return\nstop\ndata_3fcecf9c2ca6e0ecd423bfc6b30dd60681d5f01a28ab12497c137ec63d84ff2e 424e626974636f696e20546f6b656e202d206d696e61626c6520626974636f696e206f6e20425343\n\nsub_0: assembly {\n        /* \"contracts/mineableCoin.sol\":3014:13338  contract _BNbitcoinToken is BEP20Interface, Owned {... */\n      mstore(0x40, 0x80)\n      callvalue\n      dup1\n      iszero\n      tag_1\n      jumpi\n      0x00\n      dup1\n      revert\n    tag_1:\n      pop\n      jumpi(tag_2, lt(calldatasize, 0x04))\n      shr(0xe0, calldataload(0x00))\n      dup1\n      0x79ba5097\n      gt\n      tag_40\n      jumpi\n      dup1\n      0x9e37273b\n      gt\n      tag_41\n      jumpi\n      dup1\n      0xcb9ae707\n      gt\n      tag_42\n      jumpi\n      dup1\n      0xcb9ae707\n      eq\n      tag_35\n      jumpi\n      dup1\n      0xd4ee1d90\n      eq\n      tag_36\n      jumpi\n      dup1\n      0xdc6e9cf9\n      eq\n      tag_37\n      jumpi\n      dup1\n      0xdd62ed3e\n      eq\n      tag_38\n      jumpi\n      dup1\n      0xf2fde38b\n      eq\n      tag_39\n      jumpi\n      0x00\n      dup1\n      revert\n    tag_42:\n      dup1\n      0x9e37273b\n      eq\n      tag_30\n      jumpi\n      dup1\n      0xa9059cbb\n      eq\n      tag_31\n      jumpi\n      dup1\n      0xb5ade81b\n      eq\n      tag_32\n      jumpi\n      dup1\n      0xbafedcaa\n      eq\n      tag_33\n      jumpi\n      dup1\n      0xcae9ca51\n      eq\n      tag_34\n      jumpi\n      0x00\n      dup1\n      revert\n    tag_41:\n      dup1\n      0x893d20e8\n      gt\n      tag_43\n      jumpi\n      dup1\n      0x893d20e8\n      eq\n      tag_25\n      jumpi\n      dup1\n      0x8a769d35\n      eq\n      tag_26\n      jumpi\n      dup1\n      0x8ae0368b\n      eq\n      tag_27\n      jumpi\n      dup1\n      0x8da5cb5b\n      eq\n      tag_28\n      jumpi\n      dup1\n      0x95d89b41\n      eq\n      tag_29\n      jumpi\n      0x00\n      dup1\n      revert\n    tag_43:\n      dup1\n      0x79ba5097\n      eq\n      tag_21\n      jumpi\n      dup1\n      0x81269a56\n      eq\n      tag_22\n      jumpi\n      dup1\n      0x829965cc\n      eq\n      tag_23\n      jumpi\n      dup1\n      0x87a2a9d6\n      eq\n      tag_24\n      jumpi\n      0x00\n      dup1\n      revert\n    tag_40:\n      dup1\n      0x32e99708\n      gt\n      tag_44\n      jumpi\n      dup1\n      0x4fa972e1\n      gt\n      tag_45\n      jumpi\n      dup1\n      0x4fa972e1\n      eq\n      tag_16\n      jumpi\n      dup1\n      0x660e67a5\n      eq\n      tag_17\n      jumpi\n      dup1\n      0x6de9f32b\n      eq\n      tag_18\n      jumpi\n      dup1\n      0x6fd396d6\n      eq\n      tag_19\n      jumpi\n      dup1\n      0x70a08231\n      eq\n      tag_20\n      jumpi\n      0x00\n      dup1\n      revert\n    tag_45:\n      dup1\n      0x32e99708\n      eq\n      tag_12\n      jumpi\n      dup1\n      0x3eaaf86b\n      eq\n      tag_13\n      jumpi\n      dup1\n      0x490203a7\n      eq\n      tag_14\n      jumpi\n      dup1\n      0x4ef37628\n      eq\n      tag_15\n      jumpi\n      0x00\n      dup1\n      revert\n    tag_44:\n      dup1\n      0x18160ddd\n      gt\n      tag_46\n      jumpi\n      dup1\n      0x18160ddd\n      eq\n      tag_7\n      jumpi\n      dup1\n      0x23b872dd\n      eq\n      tag_8\n      jumpi\n      dup1\n      0x2979f8e3\n      eq\n      tag_9\n      jumpi\n      dup1\n      0x2d38bf7a\n      eq\n      tag_10\n      jumpi\n      dup1\n      0x313ce567\n      eq\n      tag_11\n      jumpi\n      0x00\n      dup1\n      revert\n    tag_46:\n      dup1\n      0x06fdde03\n      eq\n      tag_3\n      jumpi\n      dup1\n      0x095ea7b3\n      eq\n      tag_4\n      jumpi\n      dup1\n      0x17da485f\n      eq\n      tag_5\n      jumpi\n      dup1\n      0x1801fbe5\n      eq\n      tag_6\n      jumpi\n    tag_2:\n      0x00\n      dup1\n      revert\n        /* \"contracts/mineableCoin.sol\":3170:3188  string public name */\n    tag_3:\n      tag_47\n      tag_48\n      jump\t// in\n    tag_47:\n      mload(0x40)\n      tag_49\n      swap2\n      swap1\n      tag_50\n      jump\t// in\n    tag_49:\n      mload(0x40)\n      dup1\n      swap2\n      sub\n      swap1\n      return\n        /* \"contracts/mineableCoin.sol\":12009:12234  function approve(address spender, uint tokens) public override returns (bool success) {... */\n    tag_4:\n      tag_51\n      tag_52\n      calldatasize\n      0x04\n      tag_53\n      jump\t// in\n    tag_52:\n      tag_54\n      jump\t// in\n    tag_51:\n      mload(0x40)\n        /* \"#utility.yul\":1269:1283   */\n      swap1\n      iszero\n        /* \"#utility.yul\":1262:1284   */\n      iszero\n        /* \"#utility.yul\":1244:1285   */\n      dup2\n      mstore\n        /* \"#utility.yul\":1232:1234   */\n      0x20\n        /* \"#utility.yul\":1217:1235   */\n      add\n        /* \"contracts/mineableCoin.sol\":12009:12234  function approve(address spender, uint tokens) public override returns (bool success) {... */\n      tag_49\n        /* \"#utility.yul\":1104:1291   */\n      jump\n        /* \"contracts/mineableCoin.sol\":10141:10258  function getMiningDifficulty() public view returns (uint) {... */\n    tag_5:\n      tag_57\n      tag_58\n      jump\t// in\n    tag_57:\n      mload(0x40)\n        /* \"#utility.yul\":1442:1467   */\n      swap1\n      dup2\n      mstore\n        /* \"#utility.yul\":1430:1432   */\n      0x20\n        /* \"#utility.yul\":1415:1433   */\n      add\n        /* \"contracts/mineableCoin.sol\":10141:10258  function getMiningDifficulty() public view returns (uint) {... */\n      tag_49\n        /* \"#utility.yul\":1296:1473   */\n      jump\n        /* \"contracts/mineableCoin.sol\":4968:6596  function mint(uint256 nonce, bytes32 challenge_digest) public returns (bool success) {... */\n    tag_6:\n      tag_51\n      tag_62\n      calldatasize\n      0x04\n      tag_63\n      jump\t// in\n    tag_62:\n      tag_64\n      jump\t// in\n        /* \"contracts/mineableCoin.sol\":11431:11556  function totalSupply() public view override returns (uint) {... */\n    tag_7:\n      tag_57\n      tag_67\n      jump\t// in\n        /* \"contracts/mineableCoin.sol\":12244:12608  function transferFrom(address from, address to, uint tokens) public override returns (bool success) {... */\n    tag_8:\n      tag_51\n      tag_70\n      calldatasize\n      0x04\n      tag_71\n      jump\t// in\n    tag_70:\n      tag_72\n      jump\t// in\n        /* \"contracts/mineableCoin.sol\":3880:3916  uint public lastRewardBscBlockNumber */\n    tag_9:\n      tag_57\n      sload(0x11)\n      dup2\n      jump\n        /* \"contracts/mineableCoin.sol\":3745:3766  uint public rewardEra */\n    tag_10:\n      tag_57\n      sload(0x0d)\n      dup2\n      jump\n        /* \"contracts/mineableCoin.sol\":3197:3218  uint8 public decimals */\n    tag_11:\n      sload(0x04)\n      tag_80\n      swap1\n      0xff\n      and\n      dup2\n      jump\n    tag_80:\n      mload(0x40)\n        /* \"#utility.yul\":2236:2240   */\n      0xff\n        /* \"#utility.yul\":2224:2241   */\n      swap1\n      swap2\n      and\n        /* \"#utility.yul\":2206:2242   */\n      dup2\n      mstore\n        /* \"#utility.yul\":2194:2196   */\n      0x20\n        /* \"#utility.yul\":2179:2197   */\n      add\n        /* \"contracts/mineableCoin.sol\":3197:3218  uint8 public decimals */\n      tag_49\n        /* \"#utility.yul\":2064:2248   */\n      jump\n        /* \"contracts/mineableCoin.sol\":10266:10356  function getMiningTarget() public view returns (uint) {... */\n    tag_12:\n        /* \"contracts/mineableCoin.sol\":10337:10349  miningTarget */\n      sload(0x0b)\n        /* \"contracts/mineableCoin.sol\":10266:10356  function getMiningTarget() public view returns (uint) {... */\n      jump(tag_57)\n        /* \"contracts/mineableCoin.sol\":3227:3251  uint public _totalSupply */\n    tag_13:\n      tag_57\n      sload(0x05)\n      dup2\n      jump\n        /* \"contracts/mineableCoin.sol\":10476:10736  function getMiningReward() public view returns (uint) {... */\n    tag_14:\n      tag_57\n      tag_91\n      jump\t// in\n        /* \"contracts/mineableCoin.sol\":9948:10049  function getChallengeNumber() public view returns (bytes32) {... */\n    tag_15:\n        /* \"contracts/mineableCoin.sol\":10026:10041  challengeNumber */\n      sload(0x0c)\n        /* \"contracts/mineableCoin.sol\":9948:10049  function getChallengeNumber() public view returns (bytes32) {... */\n      jump(tag_57)\n        /* \"contracts/mineableCoin.sol\":3773:3800  uint public maxSupplyForEra */\n    tag_16:\n      tag_57\n      sload(0x0e)\n      dup2\n      jump\n        /* \"contracts/mineableCoin.sol\":13145:13333  function transferAnyBEP20Token(address tokenAddress, uint tokens) public onlyOwner returns (bool success) {... */\n    tag_17:\n      tag_51\n      tag_101\n      calldatasize\n      0x04\n      tag_53\n      jump\t// in\n    tag_101:\n      tag_102\n      jump\t// in\n        /* \"contracts/mineableCoin.sol\":4010:4034  uint public tokensMinted */\n    tag_18:\n      tag_57\n      sload(0x14)\n      dup2\n      jump\n        /* \"contracts/mineableCoin.sol\":3811:3838  address public lastRewardTo */\n    tag_19:\n      sload(0x0f)\n      tag_107\n      swap1\n      sub(shl(0xa0, 0x01), 0x01)\n      and\n      dup2\n      jump\n    tag_107:\n      mload(0x40)\n      sub(shl(0xa0, 0x01), 0x01)\n        /* \"#utility.yul\":2599:2631   */\n      swap1\n      swap2\n      and\n        /* \"#utility.yul\":2581:2632   */\n      dup2\n      mstore\n        /* \"#utility.yul\":2569:2571   */\n      0x20\n        /* \"#utility.yul\":2554:2572   */\n      add\n        /* \"contracts/mineableCoin.sol\":3811:3838  address public lastRewardTo */\n      tag_49\n        /* \"#utility.yul\":2435:2638   */\n      jump\n        /* \"contracts/mineableCoin.sol\":11566:11699  function balanceOf(address tokenOwner) public view override returns (uint balance) {... */\n    tag_20:\n      tag_57\n      tag_112\n      calldatasize\n      0x04\n      tag_113\n      jump\t// in\n    tag_112:\n      sub(shl(0xa0, 0x01), 0x01)\n        /* \"contracts/mineableCoin.sol\":11669:11689  balances[tokenOwner] */\n      and\n        /* \"contracts/mineableCoin.sol\":11635:11647  uint balance */\n      0x00\n        /* \"contracts/mineableCoin.sol\":11669:11689  balances[tokenOwner] */\n      swap1\n      dup2\n      mstore\n        /* \"contracts/mineableCoin.sol\":11669:11677  balances */\n      0x15\n        /* \"contracts/mineableCoin.sol\":11669:11689  balances[tokenOwner] */\n      0x20\n      mstore\n      0x40\n      swap1\n      keccak256\n      sload\n      swap1\n        /* \"contracts/mineableCoin.sol\":11566:11699  function balanceOf(address tokenOwner) public view override returns (uint balance) {... */\n      jump\n        /* \"contracts/mineableCoin.sol\":2599:2805  function acceptOwnership() public {... */\n    tag_21:\n      tag_116\n      tag_117\n      jump\t// in\n    tag_116:\n      stop\n        /* \"contracts/mineableCoin.sol\":11061:11421  function checkMintSolution(uint256 nonce, bytes32 challenge_digest, bytes32 challenge_number, uint testTarget) public view returns (bool success) {... */\n    tag_22:\n      tag_51\n      tag_119\n      calldatasize\n      0x04\n      tag_120\n      jump\t// in\n    tag_119:\n      tag_121\n      jump\t// in\n        /* \"contracts/mineableCoin.sol\":3318:3340  uint public epochCount */\n    tag_23:\n      tag_57\n      sload(0x07)\n      dup2\n      jump\n        /* \"contracts/mineableCoin.sol\":3570:3607  uint public  _MAXIMUM_TARGET = 2**224 */\n    tag_24:\n      tag_57\n      sload(0x0a)\n      dup2\n      jump\n        /* \"contracts/mineableCoin.sol\":2817:2920  function getOwner() external view returns (address) {... */\n    tag_25:\n        /* \"contracts/mineableCoin.sol\":2860:2867  address */\n      0x00\n        /* \"contracts/mineableCoin.sol\":2897:2902  owner */\n      sload\n      sub(shl(0xa0, 0x01), 0x01)\n      and\n        /* \"contracts/mineableCoin.sol\":2817:2920  function getOwner() external view returns (address) {... */\n      jump(tag_107)\n        /* \"contracts/mineableCoin.sol\":3618:3642  uint public miningTarget */\n    tag_26:\n      tag_57\n      sload(0x0b)\n      dup2\n      jump\n        /* \"contracts/mineableCoin.sol\":3651:3681  bytes32 public challengeNumber */\n    tag_27:\n      tag_57\n      sload(0x0c)\n      dup2\n      jump\n        /* \"contracts/mineableCoin.sol\":2185:2205  address public owner */\n    tag_28:\n      sload(0x00)\n      tag_107\n      swap1\n      sub(shl(0xa0, 0x01), 0x01)\n      and\n      dup2\n      jump\n        /* \"contracts/mineableCoin.sol\":3141:3161  string public symbol */\n    tag_29:\n      tag_47\n      tag_142\n      jump\t// in\n        /* \"contracts/mineableCoin.sol\":10778:11013  function getMintDigest(uint256 nonce, bytes32 challenge_number) public view returns (bytes32 digesttest) {... */\n    tag_30:\n      tag_57\n      tag_145\n      calldatasize\n      0x04\n      tag_63\n      jump\t// in\n    tag_145:\n      tag_146\n      jump\t// in\n        /* \"contracts/mineableCoin.sol\":11711:11997  function transfer(address to, uint tokens) public override returns (bool success) {... */\n    tag_31:\n      tag_51\n      tag_149\n      calldatasize\n      0x04\n      tag_53\n      jump\t// in\n    tag_149:\n      tag_150\n      jump\t// in\n        /* \"contracts/mineableCoin.sol\":3377:3420  uint public _BLOCKS_PER_READJUSTMENT = 2016 */\n    tag_32:\n      tag_57\n      sload(0x08)\n      dup2\n      jump\n        /* \"contracts/mineableCoin.sol\":3845:3873  uint public lastRewardAmount */\n    tag_33:\n      tag_57\n      sload(0x10)\n      dup2\n      jump\n        /* \"contracts/mineableCoin.sol\":12792:13135  function approveAndCall(address spender, uint tokens, bytes memory data) public returns (bool success) {... */\n    tag_34:\n      tag_51\n      tag_159\n      calldatasize\n      0x04\n      tag_160\n      jump\t// in\n    tag_159:\n      tag_161\n      jump\t// in\n        /* \"contracts/mineableCoin.sol\":3264:3305  uint public latestDifficultyPeriodStarted */\n    tag_35:\n      tag_57\n      sload(0x06)\n      dup2\n      jump\n        /* \"contracts/mineableCoin.sol\":2214:2237  address public newOwner */\n    tag_36:\n      sload(0x01)\n      tag_107\n      swap1\n      sub(shl(0xa0, 0x01), 0x01)\n      and\n      dup2\n      jump\n        /* \"contracts/mineableCoin.sol\":3454:3490  uint public  _MINIMUM_TARGET = 2**16 */\n    tag_37:\n      tag_57\n      sload(0x09)\n      dup2\n      jump\n        /* \"contracts/mineableCoin.sol\":12620:12780  function allowance(address tokenOwner, address spender) public view override returns (uint remaining) {... */\n    tag_38:\n      tag_57\n      tag_173\n      calldatasize\n      0x04\n      tag_174\n      jump\t// in\n    tag_173:\n      sub(shl(0xa0, 0x01), 0x01)\n        /* \"contracts/mineableCoin.sol\":12742:12761  allowed[tokenOwner] */\n      swap2\n      dup3\n      and\n        /* \"contracts/mineableCoin.sol\":12706:12720  uint remaining */\n      0x00\n        /* \"contracts/mineableCoin.sol\":12742:12761  allowed[tokenOwner] */\n      swap1\n      dup2\n      mstore\n        /* \"contracts/mineableCoin.sol\":12742:12749  allowed */\n      0x16\n        /* \"contracts/mineableCoin.sol\":12742:12761  allowed[tokenOwner] */\n      0x20\n      swap1\n      dup2\n      mstore\n      0x40\n      dup1\n      dup4\n      keccak256\n        /* \"contracts/mineableCoin.sol\":12742:12770  allowed[tokenOwner][spender] */\n      swap4\n      swap1\n      swap5\n      and\n      dup3\n      mstore\n      swap2\n      swap1\n      swap2\n      mstore\n      keccak256\n      sload\n      swap1\n        /* \"contracts/mineableCoin.sol\":12620:12780  function allowance(address tokenOwner, address spender) public view override returns (uint remaining) {... */\n      jump\n        /* \"contracts/mineableCoin.sol\":2485:2591  function transferOwnership(address _newOwner) public onlyOwner {... */\n    tag_39:\n      tag_116\n      tag_178\n      calldatasize\n      0x04\n      tag_113\n      jump\t// in\n    tag_178:\n      tag_179\n      jump\t// in\n        /* \"contracts/mineableCoin.sol\":3170:3188  string public name */\n    tag_48:\n      0x03\n      dup1\n      sload\n      tag_180\n      swap1\n      tag_181\n      jump\t// in\n    tag_180:\n      dup1\n      0x1f\n      add\n      0x20\n      dup1\n      swap2\n      div\n      mul\n      0x20\n      add\n      mload(0x40)\n      swap1\n      dup2\n      add\n      0x40\n      mstore\n      dup1\n      swap3\n      swap2\n      swap1\n      dup2\n      dup2\n      mstore\n      0x20\n      add\n      dup3\n      dup1\n      sload\n      tag_182\n      swap1\n      tag_181\n      jump\t// in\n    tag_182:\n      dup1\n      iszero\n      tag_183\n      jumpi\n      dup1\n      0x1f\n      lt\n      tag_184\n      jumpi\n      0x0100\n      dup1\n      dup4\n      sload\n      div\n      mul\n      dup4\n      mstore\n      swap2\n      0x20\n      add\n      swap2\n      jump(tag_183)\n    tag_184:\n      dup3\n      add\n      swap2\n      swap1\n      0x00\n      mstore\n      keccak256(0x00, 0x20)\n      swap1\n    tag_185:\n      dup2\n      sload\n      dup2\n      mstore\n      swap1\n      0x01\n      add\n      swap1\n      0x20\n      add\n      dup1\n      dup4\n      gt\n      tag_185\n      jumpi\n      dup3\n      swap1\n      sub\n      0x1f\n      and\n      dup3\n      add\n      swap2\n    tag_183:\n      pop\n      pop\n      pop\n      pop\n      pop\n      dup2\n      jump\t// out\n        /* \"contracts/mineableCoin.sol\":12009:12234  function approve(address spender, uint tokens) public override returns (bool success) {... */\n    tag_54:\n        /* \"contracts/mineableCoin.sol\":12116:12126  msg.sender */\n      caller\n        /* \"contracts/mineableCoin.sol\":12081:12093  bool success */\n      0x00\n        /* \"contracts/mineableCoin.sol\":12108:12127  allowed[msg.sender] */\n      dup2\n      dup2\n      mstore\n        /* \"contracts/mineableCoin.sol\":12108:12115  allowed */\n      0x16\n        /* \"contracts/mineableCoin.sol\":12108:12127  allowed[msg.sender] */\n      0x20\n      swap1\n      dup2\n      mstore\n      0x40\n      dup1\n      dup4\n      keccak256\n      sub(shl(0xa0, 0x01), 0x01)\n        /* \"contracts/mineableCoin.sol\":12108:12136  allowed[msg.sender][spender] */\n      dup8\n      and\n      dup1\n      dup6\n      mstore\n      swap3\n      mstore\n      dup1\n      dup4\n      keccak256\n        /* \"contracts/mineableCoin.sol\":12108:12145  allowed[msg.sender][spender] = tokens */\n      dup6\n      swap1\n      sstore\n        /* \"contracts/mineableCoin.sol\":12163:12200  Approval(msg.sender, spender, tokens) */\n      mload\n        /* \"contracts/mineableCoin.sol\":12081:12093  bool success */\n      swap2\n      swap3\n        /* \"contracts/mineableCoin.sol\":12108:12136  allowed[msg.sender][spender] */\n      swap1\n      swap2\n        /* \"contracts/mineableCoin.sol\":12163:12200  Approval(msg.sender, spender, tokens) */\n      0x8c5be1e5ebec7d5bd14f71427d1e84f3dd0314c0f7b2291e5b200ac8c7c3b925\n      swap1\n      tag_187\n      swap1\n        /* \"contracts/mineableCoin.sol\":12139:12145  tokens */\n      dup7\n        /* \"#utility.yul\":1442:1467   */\n      dup2\n      mstore\n        /* \"#utility.yul\":1430:1432   */\n      0x20\n        /* \"#utility.yul\":1415:1433   */\n      add\n      swap1\n        /* \"#utility.yul\":1296:1473   */\n      jump\n        /* \"contracts/mineableCoin.sol\":12163:12200  Approval(msg.sender, spender, tokens) */\n    tag_187:\n      mload(0x40)\n      dup1\n      swap2\n      sub\n      swap1\n      log3\n      pop\n        /* \"contracts/mineableCoin.sol\":12220:12224  true */\n      0x01\n        /* \"contracts/mineableCoin.sol\":12009:12234  function approve(address spender, uint tokens) public override returns (bool success) {... */\n    tag_186:\n      swap3\n      swap2\n      pop\n      pop\n      jump\t// out\n        /* \"contracts/mineableCoin.sol\":10141:10258  function getMiningDifficulty() public view returns (uint) {... */\n    tag_58:\n        /* \"contracts/mineableCoin.sol\":10193:10197  uint */\n      0x00\n        /* \"contracts/mineableCoin.sol\":10217:10250  _MAXIMUM_TARGET.div(miningTarget) */\n      tag_189\n        /* \"contracts/mineableCoin.sol\":10237:10249  miningTarget */\n      sload(0x0b)\n        /* \"contracts/mineableCoin.sol\":10217:10232  _MAXIMUM_TARGET */\n      sload(0x0a)\n        /* \"contracts/mineableCoin.sol\":10217:10236  _MAXIMUM_TARGET.div */\n      tag_190\n      swap1\n        /* \"contracts/mineableCoin.sol\":10217:10250  _MAXIMUM_TARGET.div(miningTarget) */\n      swap2\n      swap1\n      0xffffffff\n      and\n      jump\t// in\n    tag_189:\n        /* \"contracts/mineableCoin.sol\":10210:10250  return _MAXIMUM_TARGET.div(miningTarget) */\n      swap1\n      pop\n        /* \"contracts/mineableCoin.sol\":10141:10258  function getMiningDifficulty() public view returns (uint) {... */\n      swap1\n      jump\t// out\n        /* \"contracts/mineableCoin.sol\":4968:6596  function mint(uint256 nonce, bytes32 challenge_digest) public returns (bool success) {... */\n    tag_64:\n        /* \"contracts/mineableCoin.sol\":5039:5051  bool success */\n      0x00\n        /* \"contracts/mineableCoin.sol\":5223:5237  bytes32 digest */\n      dup1\n        /* \"contracts/mineableCoin.sol\":5268:5283  challengeNumber */\n      sload(0x0c)\n        /* \"contracts/mineableCoin.sol\":5285:5295  msg.sender */\n      caller\n        /* \"contracts/mineableCoin.sol\":5297:5302  nonce */\n      dup6\n        /* \"contracts/mineableCoin.sol\":5251:5304  abi.encodePacked(challengeNumber, msg.sender, nonce ) */\n      add(0x20, mload(0x40))\n      tag_192\n      swap4\n      swap3\n      swap2\n      swap1\n      tag_193\n      jump\t// in\n    tag_192:\n      mload(0x40)\n      0x20\n      dup2\n      dup4\n      sub\n      sub\n      dup2\n      mstore\n      swap1\n      0x40\n      mstore\n        /* \"contracts/mineableCoin.sol\":5241:5305  keccak256(abi.encodePacked(challengeNumber, msg.sender, nonce )) */\n      dup1\n      mload\n      swap1\n      0x20\n      add\n      keccak256\n        /* \"contracts/mineableCoin.sol\":5223:5305  bytes32 digest =  keccak256(abi.encodePacked(challengeNumber, msg.sender, nonce )) */\n      swap1\n      pop\n        /* \"contracts/mineableCoin.sol\":5400:5416  challenge_digest */\n      dup3\n        /* \"contracts/mineableCoin.sol\":5390:5396  digest */\n      dup2\n        /* \"contracts/mineableCoin.sol\":5390:5416  digest == challenge_digest */\n      eq\n        /* \"contracts/mineableCoin.sol\":5382:5439  require(digest == challenge_digest, \" Unmatched digest!\") */\n      tag_194\n      jumpi\n      mload(0x40)\n      shl(0xe5, 0x461bcd)\n      dup2\n      mstore\n        /* \"#utility.yul\":5640:5642   */\n      0x20\n        /* \"contracts/mineableCoin.sol\":5382:5439  require(digest == challenge_digest, \" Unmatched digest!\") */\n      0x04\n      dup3\n      add\n        /* \"#utility.yul\":5622:5643   */\n      mstore\n        /* \"#utility.yul\":5679:5681   */\n      0x12\n        /* \"#utility.yul\":5659:5677   */\n      0x24\n      dup3\n      add\n        /* \"#utility.yul\":5652:5682   */\n      mstore\n      shl(0x70, 0x20556e6d6174636865642064696765737421)\n        /* \"#utility.yul\":5698:5716   */\n      0x44\n      dup3\n      add\n        /* \"#utility.yul\":5691:5739   */\n      mstore\n        /* \"#utility.yul\":5756:5774   */\n      0x64\n      add\n        /* \"contracts/mineableCoin.sol\":5382:5439  require(digest == challenge_digest, \" Unmatched digest!\") */\n    tag_195:\n      mload(0x40)\n      dup1\n      swap2\n      sub\n      swap1\n      revert\n    tag_194:\n        /* \"contracts/mineableCoin.sol\":5540:5552  miningTarget */\n      sload(0x0b)\n        /* \"contracts/mineableCoin.sol\":5522:5552  uint256(digest) > miningTarget */\n      dup2\n      gt\n        /* \"contracts/mineableCoin.sol\":5514:5601  require(uint256(digest) > miningTarget, \"Digest should be less than the mining target\") */\n      tag_197\n      jumpi\n      mload(0x40)\n      shl(0xe5, 0x461bcd)\n      dup2\n      mstore\n        /* \"#utility.yul\":5987:5989   */\n      0x20\n        /* \"contracts/mineableCoin.sol\":5514:5601  require(uint256(digest) > miningTarget, \"Digest should be less than the mining target\") */\n      0x04\n      dup3\n      add\n        /* \"#utility.yul\":5969:5990   */\n      mstore\n        /* \"#utility.yul\":6026:6028   */\n      0x2c\n        /* \"#utility.yul\":6006:6024   */\n      0x24\n      dup3\n      add\n        /* \"#utility.yul\":5999:6029   */\n      mstore\n        /* \"#utility.yul\":6065:6099   */\n      0x4469676573742073686f756c64206265206c657373207468616e20746865206d\n        /* \"#utility.yul\":6045:6063   */\n      0x44\n      dup3\n      add\n        /* \"#utility.yul\":6038:6100   */\n      mstore\n      shl(0xa2, 0x1a5b9a5b99c81d185c99d95d)\n        /* \"#utility.yul\":6116:6134   */\n      0x64\n      dup3\n      add\n        /* \"#utility.yul\":6109:6151   */\n      mstore\n        /* \"#utility.yul\":6168:6187   */\n      0x84\n      add\n        /* \"contracts/mineableCoin.sol\":5514:5601  require(uint256(digest) > miningTarget, \"Digest should be less than the mining target\") */\n      tag_195\n        /* \"#utility.yul\":5785:6193   */\n      jump\n        /* \"contracts/mineableCoin.sol\":5514:5601  require(uint256(digest) > miningTarget, \"Digest should be less than the mining target\") */\n    tag_197:\n        /* \"contracts/mineableCoin.sol\":5717:5732  challengeNumber */\n      sload(0x0c)\n        /* \"contracts/mineableCoin.sol\":5677:5693  bytes32 solution */\n      0x00\n        /* \"contracts/mineableCoin.sol\":5696:5733  solutionForChallenge[challengeNumber] */\n      swap1\n      dup2\n      mstore\n        /* \"contracts/mineableCoin.sol\":5696:5716  solutionForChallenge */\n      0x13\n        /* \"contracts/mineableCoin.sol\":5696:5733  solutionForChallenge[challengeNumber] */\n      0x20\n      mstore\n      0x40\n      swap1\n      keccak256\n      dup1\n      sload\n        /* \"contracts/mineableCoin.sol\":5749:5795  solutionForChallenge[challengeNumber] = digest */\n      swap1\n      dup3\n      swap1\n      sstore\n        /* \"contracts/mineableCoin.sol\":5814:5829  solution != 0x0 */\n      dup1\n      iszero\n        /* \"contracts/mineableCoin.sol\":5811:5839  if(solution != 0x0) revert() */\n      tag_200\n      jumpi\n        /* \"contracts/mineableCoin.sol\":5831:5839  revert() */\n      0x00\n      dup1\n      revert\n        /* \"contracts/mineableCoin.sol\":5811:5839  if(solution != 0x0) revert() */\n    tag_200:\n        /* \"contracts/mineableCoin.sol\":5905:5923  uint reward_amount */\n      0x00\n        /* \"contracts/mineableCoin.sol\":5926:5943  getMiningReward() */\n      tag_201\n        /* \"contracts/mineableCoin.sol\":5926:5941  getMiningReward */\n      tag_91\n        /* \"contracts/mineableCoin.sol\":5926:5943  getMiningReward() */\n      jump\t// in\n    tag_201:\n        /* \"contracts/mineableCoin.sol\":5992:6002  msg.sender */\n      caller\n        /* \"contracts/mineableCoin.sol\":5983:6003  balances[msg.sender] */\n      0x00\n      swap1\n      dup2\n      mstore\n        /* \"contracts/mineableCoin.sol\":5983:5991  balances */\n      0x15\n        /* \"contracts/mineableCoin.sol\":5983:6003  balances[msg.sender] */\n      0x20\n      mstore\n      0x40\n      swap1\n      keccak256\n      sload\n        /* \"contracts/mineableCoin.sol\":5905:5943  uint reward_amount = getMiningReward() */\n      swap1\n      swap2\n      pop\n        /* \"contracts/mineableCoin.sol\":5983:6022  balances[msg.sender].add(reward_amount) */\n      tag_202\n      swap1\n        /* \"contracts/mineableCoin.sol\":5905:5943  uint reward_amount = getMiningReward() */\n      dup3\n        /* \"contracts/mineableCoin.sol\":5983:6007  balances[msg.sender].add */\n      tag_203\n        /* \"contracts/mineableCoin.sol\":5983:6022  balances[msg.sender].add(reward_amount) */\n      jump\t// in\n    tag_202:\n        /* \"contracts/mineableCoin.sol\":5969:5979  msg.sender */\n      caller\n        /* \"contracts/mineableCoin.sol\":5960:5980  balances[msg.sender] */\n      0x00\n      swap1\n      dup2\n      mstore\n        /* \"contracts/mineableCoin.sol\":5960:5968  balances */\n      0x15\n        /* \"contracts/mineableCoin.sol\":5960:5980  balances[msg.sender] */\n      0x20\n      mstore\n      0x40\n      swap1\n      keccak256\n        /* \"contracts/mineableCoin.sol\":5960:6022  balances[msg.sender] = balances[msg.sender].add(reward_amount) */\n      sstore\n        /* \"contracts/mineableCoin.sol\":6054:6066  tokensMinted */\n      sload(0x14)\n        /* \"contracts/mineableCoin.sol\":6054:6085  tokensMinted.add(reward_amount) */\n      tag_204\n      swap1\n        /* \"contracts/mineableCoin.sol\":6071:6084  reward_amount */\n      dup3\n        /* \"contracts/mineableCoin.sol\":6054:6070  tokensMinted.add */\n      tag_203\n        /* \"contracts/mineableCoin.sol\":6054:6085  tokensMinted.add(reward_amount) */\n      jump\t// in\n    tag_204:\n        /* \"contracts/mineableCoin.sol\":6039:6051  tokensMinted */\n      0x14\n        /* \"contracts/mineableCoin.sol\":6039:6085  tokensMinted = tokensMinted.add(reward_amount) */\n      dup2\n      swap1\n      sstore\n        /* \"contracts/mineableCoin.sol\":6182:6197  maxSupplyForEra */\n      sload(0x0e)\n      lt\n        /* \"contracts/mineableCoin.sol\":6166:6197  tokensMinted <= maxSupplyForEra */\n      iszero\n        /* \"contracts/mineableCoin.sol\":6158:6240  require(tokensMinted <= maxSupplyForEra, \"Limit for the current era has reached!\") */\n      tag_205\n      jumpi\n      mload(0x40)\n      shl(0xe5, 0x461bcd)\n      dup2\n      mstore\n        /* \"#utility.yul\":6400:6402   */\n      0x20\n        /* \"contracts/mineableCoin.sol\":6158:6240  require(tokensMinted <= maxSupplyForEra, \"Limit for the current era has reached!\") */\n      0x04\n      dup3\n      add\n        /* \"#utility.yul\":6382:6403   */\n      mstore\n        /* \"#utility.yul\":6439:6441   */\n      0x26\n        /* \"#utility.yul\":6419:6437   */\n      0x24\n      dup3\n      add\n        /* \"#utility.yul\":6412:6442   */\n      mstore\n        /* \"#utility.yul\":6478:6512   */\n      0x4c696d697420666f72207468652063757272656e742065726120686173207265\n        /* \"#utility.yul\":6458:6476   */\n      0x44\n      dup3\n      add\n        /* \"#utility.yul\":6451:6513   */\n      mstore\n      shl(0xd0, 0x616368656421)\n        /* \"#utility.yul\":6529:6547   */\n      0x64\n      dup3\n      add\n        /* \"#utility.yul\":6522:6558   */\n      mstore\n        /* \"#utility.yul\":6575:6594   */\n      0x84\n      add\n        /* \"contracts/mineableCoin.sol\":6158:6240  require(tokensMinted <= maxSupplyForEra, \"Limit for the current era has reached!\") */\n      tag_195\n        /* \"#utility.yul\":6198:6600   */\n      jump\n        /* \"contracts/mineableCoin.sol\":6158:6240  require(tokensMinted <= maxSupplyForEra, \"Limit for the current era has reached!\") */\n    tag_205:\n        /* \"contracts/mineableCoin.sol\":6302:6314  lastRewardTo */\n      0x0f\n        /* \"contracts/mineableCoin.sol\":6302:6327  lastRewardTo = msg.sender */\n      dup1\n      sload\n      not(sub(shl(0xa0, 0x01), 0x01))\n      and\n        /* \"contracts/mineableCoin.sol\":6317:6327  msg.sender */\n      caller\n        /* \"contracts/mineableCoin.sol\":6302:6327  lastRewardTo = msg.sender */\n      or\n      swap1\n      sstore\n        /* \"contracts/mineableCoin.sol\":6342:6358  lastRewardAmount */\n      0x10\n        /* \"contracts/mineableCoin.sol\":6342:6374  lastRewardAmount = reward_amount */\n      dup2\n      swap1\n      sstore\n        /* \"contracts/mineableCoin.sol\":6416:6428  block.number */\n      number\n        /* \"contracts/mineableCoin.sol\":6389:6413  lastRewardBscBlockNumber */\n      0x11\n        /* \"contracts/mineableCoin.sol\":6389:6428  lastRewardBscBlockNumber = block.number */\n      sstore\n        /* \"contracts/mineableCoin.sol\":6448:6470  _startNewMiningEpoch() */\n      tag_208\n        /* \"contracts/mineableCoin.sol\":6448:6468  _startNewMiningEpoch */\n      tag_209\n        /* \"contracts/mineableCoin.sol\":6448:6470  _startNewMiningEpoch() */\n      jump\t// in\n    tag_208:\n        /* \"contracts/mineableCoin.sol\":6526:6536  epochCount */\n      sload(0x07)\n        /* \"contracts/mineableCoin.sol\":6538:6553  challengeNumber */\n      sload(0x0c)\n        /* \"contracts/mineableCoin.sol\":6494:6555  Mint(msg.sender, reward_amount, epochCount, challengeNumber ) */\n      0x40\n      dup1\n      mload\n        /* \"#utility.yul\":6807:6832   */\n      dup5\n      dup2\n      mstore\n        /* \"#utility.yul\":6863:6865   */\n      0x20\n        /* \"#utility.yul\":6848:6866   */\n      dup2\n      add\n        /* \"#utility.yul\":6841:6875   */\n      swap4\n      swap1\n      swap4\n      mstore\n        /* \"#utility.yul\":6891:6909   */\n      dup3\n      add\n        /* \"#utility.yul\":6884:6918   */\n      mstore\n        /* \"contracts/mineableCoin.sol\":6499:6509  msg.sender */\n      caller\n      swap1\n        /* \"contracts/mineableCoin.sol\":6494:6555  Mint(msg.sender, reward_amount, epochCount, challengeNumber ) */\n      0xcf6fbb9dcea7d07263ab4f5c3a92f53af33dffc421d9d121e1c74b307e68189d\n      swap1\n        /* \"#utility.yul\":6795:6797   */\n      0x60\n        /* \"#utility.yul\":6780:6798   */\n      add\n        /* \"contracts/mineableCoin.sol\":6494:6555  Mint(msg.sender, reward_amount, epochCount, challengeNumber ) */\n      mload(0x40)\n      dup1\n      swap2\n      sub\n      swap1\n      log2\n      pop\n        /* \"contracts/mineableCoin.sol\":6578:6582  true */\n      0x01\n      swap6\n        /* \"contracts/mineableCoin.sol\":4968:6596  function mint(uint256 nonce, bytes32 challenge_digest) public returns (bool success) {... */\n      swap5\n      pop\n      pop\n      pop\n      pop\n      pop\n      jump\t// out\n        /* \"contracts/mineableCoin.sol\":11431:11556  function totalSupply() public view override returns (uint) {... */\n    tag_67:\n        /* \"contracts/mineableCoin.sol\":11484:11488  uint */\n      0x00\n        /* \"contracts/mineableCoin.sol\":11526:11546  balances[address(0)] */\n      dup1\n      dup1\n      mstore\n        /* \"contracts/mineableCoin.sol\":11526:11534  balances */\n      0x15\n        /* \"contracts/mineableCoin.sol\":11526:11546  balances[address(0)] */\n      0x20\n      mstore\n      sload(0xa31547ce6245cdb9ecea19cf8c7eb9f5974025bb4075011409251ae855b30aed)\n        /* \"contracts/mineableCoin.sol\":11510:11522  _totalSupply */\n      sload(0x05)\n        /* \"contracts/mineableCoin.sol\":11510:11546  _totalSupply  - balances[address(0)] */\n      tag_189\n      swap2\n        /* \"contracts/mineableCoin.sol\":11526:11546  balances[address(0)] */\n      swap1\n        /* \"contracts/mineableCoin.sol\":11510:11546  _totalSupply  - balances[address(0)] */\n      tag_214\n      jump\t// in\n        /* \"contracts/mineableCoin.sol\":12244:12608  function transferFrom(address from, address to, uint tokens) public override returns (bool success) {... */\n    tag_72:\n      sub(shl(0xa0, 0x01), 0x01)\n        /* \"contracts/mineableCoin.sol\":12374:12388  balances[from] */\n      dup4\n      and\n        /* \"contracts/mineableCoin.sol\":12330:12342  bool success */\n      0x00\n        /* \"contracts/mineableCoin.sol\":12374:12388  balances[from] */\n      swap1\n      dup2\n      mstore\n        /* \"contracts/mineableCoin.sol\":12374:12382  balances */\n      0x15\n        /* \"contracts/mineableCoin.sol\":12374:12388  balances[from] */\n      0x20\n      mstore\n      0x40\n      dup2\n      keccak256\n      sload\n        /* \"contracts/mineableCoin.sol\":12374:12400  balances[from].sub(tokens) */\n      tag_216\n      swap1\n        /* \"contracts/mineableCoin.sol\":12393:12399  tokens */\n      dup4\n        /* \"contracts/mineableCoin.sol\":12374:12392  balances[from].sub */\n      tag_217\n        /* \"contracts/mineableCoin.sol\":12374:12400  balances[from].sub(tokens) */\n      jump\t// in\n    tag_216:\n      sub(shl(0xa0, 0x01), 0x01)\n        /* \"contracts/mineableCoin.sol\":12357:12371  balances[from] */\n      dup6\n      and\n      0x00\n      swap1\n      dup2\n      mstore\n        /* \"contracts/mineableCoin.sol\":12357:12365  balances */\n      0x15\n        /* \"contracts/mineableCoin.sol\":12357:12371  balances[from] */\n      0x20\n      swap1\n      dup2\n      mstore\n      0x40\n      dup1\n      dup4\n      keccak256\n        /* \"contracts/mineableCoin.sol\":12357:12400  balances[from] = balances[from].sub(tokens) */\n      swap4\n      swap1\n      swap4\n      sstore\n        /* \"contracts/mineableCoin.sol\":12441:12448  allowed */\n      0x16\n        /* \"contracts/mineableCoin.sol\":12441:12454  allowed[from] */\n      dup2\n      mstore\n      dup3\n      dup3\n      keccak256\n        /* \"contracts/mineableCoin.sol\":12455:12465  msg.sender */\n      caller\n        /* \"contracts/mineableCoin.sol\":12441:12466  allowed[from][msg.sender] */\n      dup4\n      mstore\n      swap1\n      mstore\n      keccak256\n      sload\n        /* \"contracts/mineableCoin.sol\":12441:12478  allowed[from][msg.sender].sub(tokens) */\n      tag_218\n      swap1\n        /* \"contracts/mineableCoin.sol\":12471:12477  tokens */\n      dup4\n        /* \"contracts/mineableCoin.sol\":12441:12470  allowed[from][msg.sender].sub */\n      tag_217\n        /* \"contracts/mineableCoin.sol\":12441:12478  allowed[from][msg.sender].sub(tokens) */\n      jump\t// in\n    tag_218:\n      sub(shl(0xa0, 0x01), 0x01)\n        /* \"contracts/mineableCoin.sol\":12413:12426  allowed[from] */\n      dup1\n      dup7\n      and\n      0x00\n      swap1\n      dup2\n      mstore\n        /* \"contracts/mineableCoin.sol\":12413:12420  allowed */\n      0x16\n        /* \"contracts/mineableCoin.sol\":12413:12426  allowed[from] */\n      0x20\n      swap1\n      dup2\n      mstore\n      0x40\n      dup1\n      dup4\n      keccak256\n        /* \"contracts/mineableCoin.sol\":12427:12437  msg.sender */\n      caller\n        /* \"contracts/mineableCoin.sol\":12413:12438  allowed[from][msg.sender] */\n      dup5\n      mstore\n      dup3\n      mstore\n      dup1\n      dup4\n      keccak256\n        /* \"contracts/mineableCoin.sol\":12413:12478  allowed[from][msg.sender] = allowed[from][msg.sender].sub(tokens) */\n      swap5\n      swap1\n      swap5\n      sstore\n        /* \"contracts/mineableCoin.sol\":12506:12518  balances[to] */\n      swap2\n      dup7\n      and\n      dup2\n      mstore\n        /* \"contracts/mineableCoin.sol\":12506:12514  balances */\n      0x15\n        /* \"contracts/mineableCoin.sol\":12506:12518  balances[to] */\n      swap1\n      swap2\n      mstore\n      keccak256\n      sload\n        /* \"contracts/mineableCoin.sol\":12506:12530  balances[to].add(tokens) */\n      tag_219\n      swap1\n        /* \"contracts/mineableCoin.sol\":12523:12529  tokens */\n      dup4\n        /* \"contracts/mineableCoin.sol\":12506:12522  balances[to].add */\n      tag_203\n        /* \"contracts/mineableCoin.sol\":12506:12530  balances[to].add(tokens) */\n      jump\t// in\n    tag_219:\n      sub(shl(0xa0, 0x01), 0x01)\n        /* \"contracts/mineableCoin.sol\":12491:12503  balances[to] */\n      dup1\n      dup6\n      and\n      0x00\n      dup2\n      dup2\n      mstore\n        /* \"contracts/mineableCoin.sol\":12491:12499  balances */\n      0x15\n        /* \"contracts/mineableCoin.sol\":12491:12503  balances[to] */\n      0x20\n      mstore\n      0x40\n      swap1\n      dup2\n      swap1\n      keccak256\n        /* \"contracts/mineableCoin.sol\":12491:12530  balances[to] = balances[to].add(tokens) */\n      swap4\n      swap1\n      swap4\n      sstore\n        /* \"contracts/mineableCoin.sol\":12548:12574  Transfer(from, to, tokens) */\n      swap2\n      mload\n      swap1\n      dup7\n      and\n      swap1\n      0xddf252ad1be2c89b69c2b068fc378daa952ba7f163c4a11628f55a4df523b3ef\n      swap1\n      tag_220\n      swap1\n        /* \"contracts/mineableCoin.sol\":12567:12573  tokens */\n      dup7\n        /* \"#utility.yul\":1442:1467   */\n      dup2\n      mstore\n        /* \"#utility.yul\":1430:1432   */\n      0x20\n        /* \"#utility.yul\":1415:1433   */\n      add\n      swap1\n        /* \"#utility.yul\":1296:1473   */\n      jump\n        /* \"contracts/mineableCoin.sol\":12548:12574  Transfer(from, to, tokens) */\n    tag_220:\n      mload(0x40)\n      dup1\n      swap2\n      sub\n      swap1\n      log3\n      pop\n        /* \"contracts/mineableCoin.sol\":12594:12598  true */\n      0x01\n        /* \"contracts/mineableCoin.sol\":12244:12608  function transferFrom(address from, address to, uint tokens) public override returns (bool success) {... */\n      swap4\n      swap3\n      pop\n      pop\n      pop\n      jump\t// out\n        /* \"contracts/mineableCoin.sol\":10476:10736  function getMiningReward() public view returns (uint) {... */\n    tag_91:\n        /* \"contracts/mineableCoin.sol\":10524:10528  uint */\n      0x00\n        /* \"contracts/mineableCoin.sol\":10679:10725  (50 * 10**uint(decimals) ).div( 2**rewardEra ) */\n      tag_189\n        /* \"contracts/mineableCoin.sol\":10714:10723  rewardEra */\n      sload(0x0d)\n        /* \"contracts/mineableCoin.sol\":10711:10712  2 */\n      0x02\n        /* \"contracts/mineableCoin.sol\":10711:10723  2**rewardEra */\n      tag_224\n      swap2\n      swap1\n      tag_225\n      jump\t// in\n    tag_224:\n        /* \"contracts/mineableCoin.sol\":10694:10702  decimals */\n      sload(0x04)\n        /* \"contracts/mineableCoin.sol\":10685:10703  10**uint(decimals) */\n      tag_226\n      swap1\n        /* \"contracts/mineableCoin.sol\":10694:10702  decimals */\n      0xff\n      and\n        /* \"contracts/mineableCoin.sol\":10685:10687  10 */\n      0x0a\n        /* \"contracts/mineableCoin.sol\":10685:10703  10**uint(decimals) */\n      tag_225\n      jump\t// in\n    tag_226:\n        /* \"contracts/mineableCoin.sol\":10680:10703  50 * 10**uint(decimals) */\n      tag_227\n      swap1\n        /* \"contracts/mineableCoin.sol\":10680:10682  50 */\n      0x32\n        /* \"contracts/mineableCoin.sol\":10680:10703  50 * 10**uint(decimals) */\n      tag_228\n      jump\t// in\n    tag_227:\n        /* \"contracts/mineableCoin.sol\":10679:10709  (50 * 10**uint(decimals) ).div */\n      swap1\n      tag_190\n        /* \"contracts/mineableCoin.sol\":10679:10725  (50 * 10**uint(decimals) ).div( 2**rewardEra ) */\n      jump\t// in\n        /* \"contracts/mineableCoin.sol\":13145:13333  function transferAnyBEP20Token(address tokenAddress, uint tokens) public onlyOwner returns (bool success) {... */\n    tag_102:\n        /* \"contracts/mineableCoin.sol\":13237:13249  bool success */\n      0x00\n        /* \"contracts/mineableCoin.sol\":2447:2452  owner */\n      dup1\n      sload\n      sub(shl(0xa0, 0x01), 0x01)\n      and\n        /* \"contracts/mineableCoin.sol\":2433:2443  msg.sender */\n      caller\n        /* \"contracts/mineableCoin.sol\":2433:2452  msg.sender == owner */\n      eq\n        /* \"contracts/mineableCoin.sol\":2425:2453  require(msg.sender == owner) */\n      tag_231\n      jumpi\n      0x00\n      dup1\n      revert\n    tag_231:\n        /* \"contracts/mineableCoin.sol\":13309:13314  owner */\n      sload(0x00)\n        /* \"contracts/mineableCoin.sol\":13271:13323  BEP20Interface(tokenAddress).transfer(owner, tokens) */\n      mload(0x40)\n      shl(0xe0, 0xa9059cbb)\n      dup2\n      mstore\n      sub(shl(0xa0, 0x01), 0x01)\n        /* \"contracts/mineableCoin.sol\":13309:13314  owner */\n      swap2\n      dup3\n      and\n        /* \"contracts/mineableCoin.sol\":13271:13323  BEP20Interface(tokenAddress).transfer(owner, tokens) */\n      0x04\n      dup3\n      add\n        /* \"#utility.yul\":8909:8960   */\n      mstore\n        /* \"#utility.yul\":8976:8994   */\n      0x24\n      dup2\n      add\n        /* \"#utility.yul\":8969:9003   */\n      dup5\n      swap1\n      mstore\n        /* \"contracts/mineableCoin.sol\":13271:13308  BEP20Interface(tokenAddress).transfer */\n      swap1\n      dup5\n      and\n      swap1\n      0xa9059cbb\n      swap1\n        /* \"#utility.yul\":8882:8900   */\n      0x44\n      add\n        /* \"contracts/mineableCoin.sol\":13271:13323  BEP20Interface(tokenAddress).transfer(owner, tokens) */\n      0x20\n      mload(0x40)\n      dup1\n      dup4\n      sub\n      dup2\n      0x00\n      dup8\n      gas\n      call\n      iszero\n      dup1\n      iszero\n      tag_236\n      jumpi\n      returndatasize\n      0x00\n      dup1\n      returndatacopy\n      revert(0x00, returndatasize)\n    tag_236:\n      pop\n      pop\n      pop\n      pop\n      mload(0x40)\n      returndatasize\n      not(0x1f)\n      0x1f\n      dup3\n      add\n      and\n      dup3\n      add\n      dup1\n      0x40\n      mstore\n      pop\n      dup2\n      add\n      swap1\n      tag_237\n      swap2\n      swap1\n      tag_238\n      jump\t// in\n    tag_237:\n        /* \"contracts/mineableCoin.sol\":13264:13323  return BEP20Interface(tokenAddress).transfer(owner, tokens) */\n      swap4\n        /* \"contracts/mineableCoin.sol\":13145:13333  function transferAnyBEP20Token(address tokenAddress, uint tokens) public onlyOwner returns (bool success) {... */\n      swap3\n      pop\n      pop\n      pop\n      jump\t// out\n        /* \"contracts/mineableCoin.sol\":2599:2805  function acceptOwnership() public {... */\n    tag_117:\n        /* \"contracts/mineableCoin.sol\":2668:2676  newOwner */\n      and(sub(shl(0xa0, 0x01), 0x01), sload(0x01))\n        /* \"contracts/mineableCoin.sol\":2654:2664  msg.sender */\n      caller\n        /* \"contracts/mineableCoin.sol\":2654:2676  msg.sender == newOwner */\n      eq\n        /* \"contracts/mineableCoin.sol\":2646:2677  require(msg.sender == newOwner) */\n      tag_241\n      jumpi\n      0x00\n      dup1\n      revert\n    tag_241:\n        /* \"contracts/mineableCoin.sol\":2723:2731  newOwner */\n      sload(0x01)\n      0x00\n        /* \"contracts/mineableCoin.sol\":2716:2721  owner */\n      dup1\n      sload\n        /* \"contracts/mineableCoin.sol\":2695:2732  OwnershipTransferred(owner, newOwner) */\n      mload(0x40)\n      sub(shl(0xa0, 0x01), 0x01)\n        /* \"contracts/mineableCoin.sol\":2723:2731  newOwner */\n      swap4\n      dup5\n      and\n      swap4\n        /* \"contracts/mineableCoin.sol\":2716:2721  owner */\n      swap1\n      swap2\n      and\n      swap2\n        /* \"contracts/mineableCoin.sol\":2695:2732  OwnershipTransferred(owner, newOwner) */\n      0x8be0079c531659141344cd1fd0a4f28419497f9722a3daafe3b4186f6b6457e0\n      swap2\n      log3\n        /* \"contracts/mineableCoin.sol\":2753:2761  newOwner */\n      0x01\n      dup1\n      sload\n      0x00\n        /* \"contracts/mineableCoin.sol\":2745:2761  owner = newOwner */\n      dup1\n      sload\n      not(sub(shl(0xa0, 0x01), 0x01))\n      swap1\n      dup2\n      and\n      sub(shl(0xa0, 0x01), 0x01)\n        /* \"contracts/mineableCoin.sol\":2753:2761  newOwner */\n      dup5\n      and\n        /* \"contracts/mineableCoin.sol\":2745:2761  owner = newOwner */\n      or\n      swap1\n      swap2\n      sstore\n        /* \"contracts/mineableCoin.sol\":2774:2795  newOwner = address(0) */\n      and\n      swap1\n      sstore\n        /* \"contracts/mineableCoin.sol\":2599:2805  function acceptOwnership() public {... */\n      jump\t// out\n        /* \"contracts/mineableCoin.sol\":11061:11421  function checkMintSolution(uint256 nonce, bytes32 challenge_digest, bytes32 challenge_number, uint testTarget) public view returns (bool success) {... */\n    tag_121:\n        /* \"contracts/mineableCoin.sol\":11193:11205  bool success */\n      0x00\n        /* \"contracts/mineableCoin.sol\":11222:11236  bytes32 digest */\n      dup1\n        /* \"contracts/mineableCoin.sol\":11266:11282  challenge_number */\n      dup4\n        /* \"contracts/mineableCoin.sol\":11283:11293  msg.sender */\n      caller\n        /* \"contracts/mineableCoin.sol\":11294:11299  nonce */\n      dup8\n        /* \"contracts/mineableCoin.sol\":11249:11300  abi.encodePacked(challenge_number,msg.sender,nonce) */\n      add(0x20, mload(0x40))\n      tag_243\n      swap4\n      swap3\n      swap2\n      swap1\n      tag_193\n      jump\t// in\n    tag_243:\n      mload(0x40)\n      0x20\n      dup2\n      dup4\n      sub\n      sub\n      dup2\n      mstore\n      swap1\n      0x40\n      mstore\n        /* \"contracts/mineableCoin.sol\":11239:11301  keccak256(abi.encodePacked(challenge_number,msg.sender,nonce)) */\n      dup1\n      mload\n      swap1\n      0x20\n      add\n      keccak256\n        /* \"contracts/mineableCoin.sol\":11222:11301  bytes32 digest = keccak256(abi.encodePacked(challenge_number,msg.sender,nonce)) */\n      swap1\n      pop\n        /* \"contracts/mineableCoin.sol\":11337:11347  testTarget */\n      dup3\n        /* \"contracts/mineableCoin.sol\":11327:11333  digest */\n      dup2\n        /* \"contracts/mineableCoin.sol\":11319:11334  uint256(digest) */\n      0x00\n      shr\n        /* \"contracts/mineableCoin.sol\":11319:11347  uint256(digest) > testTarget */\n      gt\n        /* \"contracts/mineableCoin.sol\":11316:11357  if(uint256(digest) > testTarget) revert() */\n      iszero\n      tag_244\n      jumpi\n        /* \"contracts/mineableCoin.sol\":11349:11357  revert() */\n      0x00\n      dup1\n      revert\n        /* \"contracts/mineableCoin.sol\":11316:11357  if(uint256(digest) > testTarget) revert() */\n    tag_244:\n        /* \"contracts/mineableCoin.sol\":11380:11406  digest == challenge_digest */\n      swap1\n      swap4\n      eq\n      swap5\n        /* \"contracts/mineableCoin.sol\":11061:11421  function checkMintSolution(uint256 nonce, bytes32 challenge_digest, bytes32 challenge_number, uint testTarget) public view returns (bool success) {... */\n      swap4\n      pop\n      pop\n      pop\n      pop\n      jump\t// out\n        /* \"contracts/mineableCoin.sol\":3141:3161  string public symbol */\n    tag_142:\n      0x02\n      dup1\n      sload\n      tag_180\n      swap1\n      tag_181\n      jump\t// in\n        /* \"contracts/mineableCoin.sol\":10778:11013  function getMintDigest(uint256 nonce, bytes32 challenge_number) public view returns (bytes32 digesttest) {... */\n    tag_146:\n        /* \"contracts/mineableCoin.sol\":10863:10881  bytes32 digesttest */\n      0x00\n        /* \"contracts/mineableCoin.sol\":10896:10910  bytes32 digest */\n      dup1\n        /* \"contracts/mineableCoin.sol\":10940:10956  challenge_number */\n      dup3\n        /* \"contracts/mineableCoin.sol\":10957:10967  msg.sender */\n      caller\n        /* \"contracts/mineableCoin.sol\":10968:10973  nonce */\n      dup6\n        /* \"contracts/mineableCoin.sol\":10923:10974  abi.encodePacked(challenge_number,msg.sender,nonce) */\n      add(0x20, mload(0x40))\n      tag_252\n      swap4\n      swap3\n      swap2\n      swap1\n      tag_193\n      jump\t// in\n    tag_252:\n      0x40\n      dup1\n      mload\n      dup1\n      dup4\n      sub\n      not(0x1f)\n      add\n      dup2\n      mstore\n      swap2\n      swap1\n      mstore\n        /* \"contracts/mineableCoin.sol\":10913:10975  keccak256(abi.encodePacked(challenge_number,msg.sender,nonce)) */\n      dup1\n      mload\n        /* \"contracts/mineableCoin.sol\":10923:10974  abi.encodePacked(challenge_number,msg.sender,nonce) */\n      0x20\n        /* \"contracts/mineableCoin.sol\":10913:10975  keccak256(abi.encodePacked(challenge_number,msg.sender,nonce)) */\n      swap1\n      swap2\n      add\n      keccak256\n      swap5\n        /* \"contracts/mineableCoin.sol\":10778:11013  function getMintDigest(uint256 nonce, bytes32 challenge_number) public view returns (bytes32 digesttest) {... */\n      swap4\n      pop\n      pop\n      pop\n      pop\n      jump\t// out\n        /* \"contracts/mineableCoin.sol\":11711:11997  function transfer(address to, uint tokens) public override returns (bool success) {... */\n    tag_150:\n        /* \"contracts/mineableCoin.sol\":11838:11848  msg.sender */\n      caller\n        /* \"contracts/mineableCoin.sol\":11779:11791  bool success */\n      0x00\n        /* \"contracts/mineableCoin.sol\":11829:11849  balances[msg.sender] */\n      swap1\n      dup2\n      mstore\n        /* \"contracts/mineableCoin.sol\":11829:11837  balances */\n      0x15\n        /* \"contracts/mineableCoin.sol\":11829:11849  balances[msg.sender] */\n      0x20\n      mstore\n      0x40\n      dup2\n      keccak256\n      sload\n        /* \"contracts/mineableCoin.sol\":11829:11861  balances[msg.sender].sub(tokens) */\n      tag_254\n      swap1\n        /* \"contracts/mineableCoin.sol\":11854:11860  tokens */\n      dup4\n        /* \"contracts/mineableCoin.sol\":11829:11853  balances[msg.sender].sub */\n      tag_217\n        /* \"contracts/mineableCoin.sol\":11829:11861  balances[msg.sender].sub(tokens) */\n      jump\t// in\n    tag_254:\n        /* \"contracts/mineableCoin.sol\":11815:11825  msg.sender */\n      caller\n        /* \"contracts/mineableCoin.sol\":11806:11826  balances[msg.sender] */\n      0x00\n      swap1\n      dup2\n      mstore\n        /* \"contracts/mineableCoin.sol\":11806:11814  balances */\n      0x15\n        /* \"contracts/mineableCoin.sol\":11806:11826  balances[msg.sender] */\n      0x20\n      mstore\n      0x40\n      dup1\n      dup3\n      keccak256\n        /* \"contracts/mineableCoin.sol\":11806:11861  balances[msg.sender] = balances[msg.sender].sub(tokens) */\n      swap3\n      swap1\n      swap3\n      sstore\n      sub(shl(0xa0, 0x01), 0x01)\n        /* \"contracts/mineableCoin.sol\":11889:11901  balances[to] */\n      dup6\n      and\n      dup2\n      mstore\n      keccak256\n      sload\n        /* \"contracts/mineableCoin.sol\":11889:11913  balances[to].add(tokens) */\n      tag_255\n      swap1\n        /* \"contracts/mineableCoin.sol\":11906:11912  tokens */\n      dup4\n        /* \"contracts/mineableCoin.sol\":11889:11905  balances[to].add */\n      tag_203\n        /* \"contracts/mineableCoin.sol\":11889:11913  balances[to].add(tokens) */\n      jump\t// in\n    tag_255:\n      sub(shl(0xa0, 0x01), 0x01)\n        /* \"contracts/mineableCoin.sol\":11874:11886  balances[to] */\n      dup5\n      and\n      0x00\n      dup2\n      dup2\n      mstore\n        /* \"contracts/mineableCoin.sol\":11874:11882  balances */\n      0x15\n        /* \"contracts/mineableCoin.sol\":11874:11886  balances[to] */\n      0x20\n      mstore\n      0x40\n      swap1\n      dup2\n      swap1\n      keccak256\n        /* \"contracts/mineableCoin.sol\":11874:11913  balances[to] = balances[to].add(tokens) */\n      swap3\n      swap1\n      swap3\n      sstore\n        /* \"contracts/mineableCoin.sol\":11931:11963  Transfer(msg.sender, to, tokens) */\n      swap1\n      mload\n        /* \"contracts/mineableCoin.sol\":11940:11950  msg.sender */\n      caller\n      swap1\n        /* \"contracts/mineableCoin.sol\":11931:11963  Transfer(msg.sender, to, tokens) */\n      0xddf252ad1be2c89b69c2b068fc378daa952ba7f163c4a11628f55a4df523b3ef\n      swap1\n      tag_187\n      swap1\n        /* \"contracts/mineableCoin.sol\":11956:11962  tokens */\n      dup7\n        /* \"#utility.yul\":1442:1467   */\n      dup2\n      mstore\n        /* \"#utility.yul\":1430:1432   */\n      0x20\n        /* \"#utility.yul\":1415:1433   */\n      add\n      swap1\n        /* \"#utility.yul\":1296:1473   */\n      jump\n        /* \"contracts/mineableCoin.sol\":12792:13135  function approveAndCall(address spender, uint tokens, bytes memory data) public returns (bool success) {... */\n    tag_161:\n        /* \"contracts/mineableCoin.sol\":12916:12926  msg.sender */\n      caller\n        /* \"contracts/mineableCoin.sol\":12881:12893  bool success */\n      0x00\n        /* \"contracts/mineableCoin.sol\":12908:12927  allowed[msg.sender] */\n      dup2\n      dup2\n      mstore\n        /* \"contracts/mineableCoin.sol\":12908:12915  allowed */\n      0x16\n        /* \"contracts/mineableCoin.sol\":12908:12927  allowed[msg.sender] */\n      0x20\n      swap1\n      dup2\n      mstore\n      0x40\n      dup1\n      dup4\n      keccak256\n      sub(shl(0xa0, 0x01), 0x01)\n        /* \"contracts/mineableCoin.sol\":12908:12936  allowed[msg.sender][spender] */\n      dup9\n      and\n      dup1\n      dup6\n      mstore\n      swap3\n      mstore\n      dup1\n      dup4\n      keccak256\n        /* \"contracts/mineableCoin.sol\":12908:12945  allowed[msg.sender][spender] = tokens */\n      dup7\n      swap1\n      sstore\n        /* \"contracts/mineableCoin.sol\":12963:13000  Approval(msg.sender, spender, tokens) */\n      mload\n        /* \"contracts/mineableCoin.sol\":12881:12893  bool success */\n      swap2\n      swap3\n        /* \"contracts/mineableCoin.sol\":12908:12936  allowed[msg.sender][spender] */\n      swap1\n      swap2\n        /* \"contracts/mineableCoin.sol\":12963:13000  Approval(msg.sender, spender, tokens) */\n      0x8c5be1e5ebec7d5bd14f71427d1e84f3dd0314c0f7b2291e5b200ac8c7c3b925\n      swap1\n      tag_258\n      swap1\n        /* \"contracts/mineableCoin.sol\":12939:12945  tokens */\n      dup8\n        /* \"#utility.yul\":1442:1467   */\n      dup2\n      mstore\n        /* \"#utility.yul\":1430:1432   */\n      0x20\n        /* \"#utility.yul\":1415:1433   */\n      add\n      swap1\n        /* \"#utility.yul\":1296:1473   */\n      jump\n        /* \"contracts/mineableCoin.sol\":12963:13000  Approval(msg.sender, spender, tokens) */\n    tag_258:\n      mload(0x40)\n      dup1\n      swap2\n      sub\n      swap1\n      log3\n        /* \"contracts/mineableCoin.sol\":13013:13101  ApproveAndCallFallBack(spender).receiveApproval(msg.sender, tokens, address(this), data) */\n      mload(0x40)\n      shl(0xe0, 0x8f4ffcb1)\n      dup2\n      mstore\n      sub(shl(0xa0, 0x01), 0x01)\n        /* \"contracts/mineableCoin.sol\":13013:13060  ApproveAndCallFallBack(spender).receiveApproval */\n      dup6\n      and\n      swap1\n      0x8f4ffcb1\n      swap1\n        /* \"contracts/mineableCoin.sol\":13013:13101  ApproveAndCallFallBack(spender).receiveApproval(msg.sender, tokens, address(this), data) */\n      tag_259\n      swap1\n        /* \"contracts/mineableCoin.sol\":13061:13071  msg.sender */\n      caller\n      swap1\n        /* \"contracts/mineableCoin.sol\":13073:13079  tokens */\n      dup8\n      swap1\n        /* \"contracts/mineableCoin.sol\":13089:13093  this */\n      address\n      swap1\n        /* \"contracts/mineableCoin.sol\":13096:13100  data */\n      dup9\n      swap1\n        /* \"contracts/mineableCoin.sol\":13013:13101  ApproveAndCallFallBack(spender).receiveApproval(msg.sender, tokens, address(this), data) */\n      0x04\n      add\n      tag_260\n      jump\t// in\n    tag_259:\n      0x00\n      mload(0x40)\n      dup1\n      dup4\n      sub\n      dup2\n      0x00\n      dup8\n      dup1\n      extcodesize\n      iszero\n      dup1\n      iszero\n      tag_261\n      jumpi\n      0x00\n      dup1\n      revert\n    tag_261:\n      pop\n      gas\n      call\n      iszero\n      dup1\n      iszero\n      tag_263\n      jumpi\n      returndatasize\n      0x00\n      dup1\n      returndatacopy\n      revert(0x00, returndatasize)\n    tag_263:\n      pop\n        /* \"contracts/mineableCoin.sol\":13121:13125  true */\n      0x01\n      swap8\n        /* \"contracts/mineableCoin.sol\":12792:13135  function approveAndCall(address spender, uint tokens, bytes memory data) public returns (bool success) {... */\n      swap7\n      pop\n      pop\n      pop\n      pop\n      pop\n      pop\n      pop\n      jump\t// out\n        /* \"contracts/mineableCoin.sol\":2485:2591  function transferOwnership(address _newOwner) public onlyOwner {... */\n    tag_179:\n        /* \"contracts/mineableCoin.sol\":2447:2452  owner */\n      and(sub(shl(0xa0, 0x01), 0x01), sload(0x00))\n        /* \"contracts/mineableCoin.sol\":2433:2443  msg.sender */\n      caller\n        /* \"contracts/mineableCoin.sol\":2433:2452  msg.sender == owner */\n      eq\n        /* \"contracts/mineableCoin.sol\":2425:2453  require(msg.sender == owner) */\n      tag_266\n      jumpi\n      0x00\n      dup1\n      revert\n    tag_266:\n        /* \"contracts/mineableCoin.sol\":2561:2569  newOwner */\n      0x01\n        /* \"contracts/mineableCoin.sol\":2561:2581  newOwner = _newOwner */\n      dup1\n      sload\n      not(sub(shl(0xa0, 0x01), 0x01))\n      and\n      sub(shl(0xa0, 0x01), 0x01)\n      swap3\n      swap1\n      swap3\n      and\n      swap2\n      swap1\n      swap2\n      or\n      swap1\n      sstore\n        /* \"contracts/mineableCoin.sol\":2485:2591  function transferOwnership(address _newOwner) public onlyOwner {... */\n      jump\t// out\n        /* \"contracts/mineableCoin.sol\":486:605  function div(uint a, uint b) internal pure returns (uint c) {... */\n    tag_190:\n        /* \"contracts/mineableCoin.sol\":538:544  uint c */\n      0x00\n        /* \"contracts/mineableCoin.sol\":571:572  0 */\n      dup1\n        /* \"contracts/mineableCoin.sol\":567:568  b */\n      dup3\n        /* \"contracts/mineableCoin.sol\":567:572  b > 0 */\n      gt\n        /* \"contracts/mineableCoin.sol\":559:573  require(b > 0) */\n      tag_269\n      jumpi\n      0x00\n      dup1\n      revert\n    tag_269:\n        /* \"contracts/mineableCoin.sol\":590:595  a / b */\n      tag_237\n        /* \"contracts/mineableCoin.sol\":594:595  b */\n      dup3\n        /* \"contracts/mineableCoin.sol\":590:591  a */\n      dup5\n        /* \"contracts/mineableCoin.sol\":590:595  a / b */\n      tag_271\n      jump\t// in\n        /* \"contracts/mineableCoin.sol\":88:208  function add(uint a, uint b) internal pure returns (uint c) {... */\n    tag_203:\n        /* \"contracts/mineableCoin.sol\":140:146  uint c */\n      0x00\n        /* \"contracts/mineableCoin.sol\":165:170  a + b */\n      tag_273\n        /* \"contracts/mineableCoin.sol\":169:170  b */\n      dup3\n        /* \"contracts/mineableCoin.sol\":165:166  a */\n      dup5\n        /* \"contracts/mineableCoin.sol\":165:170  a + b */\n      tag_274\n      jump\t// in\n    tag_273:\n        /* \"contracts/mineableCoin.sol\":161:170  c = a + b */\n      swap1\n      pop\n        /* \"contracts/mineableCoin.sol\":196:197  a */\n      dup3\n        /* \"contracts/mineableCoin.sol\":191:192  c */\n      dup2\n        /* \"contracts/mineableCoin.sol\":191:197  c >= a */\n      lt\n      iszero\n        /* \"contracts/mineableCoin.sol\":183:198  require(c >= a) */\n      tag_186\n      jumpi\n      0x00\n      dup1\n      revert\n        /* \"contracts/mineableCoin.sol\":6639:7812  function _startNewMiningEpoch() internal {... */\n    tag_209:\n        /* \"contracts/mineableCoin.sol\":7012:7027  maxSupplyForEra */\n      sload(0x0e)\n        /* \"contracts/mineableCoin.sol\":6974:7009  tokensMinted.add(getMiningReward()) */\n      tag_277\n        /* \"contracts/mineableCoin.sol\":6991:7008  getMiningReward() */\n      tag_278\n        /* \"contracts/mineableCoin.sol\":6991:7006  getMiningReward */\n      tag_91\n        /* \"contracts/mineableCoin.sol\":6991:7008  getMiningReward() */\n      jump\t// in\n    tag_278:\n        /* \"contracts/mineableCoin.sol\":6974:6986  tokensMinted */\n      sload(0x14)\n      swap1\n        /* \"contracts/mineableCoin.sol\":6974:6990  tokensMinted.add */\n      tag_203\n        /* \"contracts/mineableCoin.sol\":6974:7009  tokensMinted.add(getMiningReward()) */\n      jump\t// in\n    tag_277:\n        /* \"contracts/mineableCoin.sol\":6974:7027  tokensMinted.add(getMiningReward()) > maxSupplyForEra */\n      gt\n        /* \"contracts/mineableCoin.sol\":6974:7045  tokensMinted.add(getMiningReward()) > maxSupplyForEra && rewardEra < 39 */\n      dup1\n      iszero\n      tag_279\n      jumpi\n      pop\n        /* \"contracts/mineableCoin.sol\":7043:7045  39 */\n      0x27\n        /* \"contracts/mineableCoin.sol\":7031:7040  rewardEra */\n      sload(0x0d)\n        /* \"contracts/mineableCoin.sol\":7031:7045  rewardEra < 39 */\n      lt\n        /* \"contracts/mineableCoin.sol\":6974:7045  tokensMinted.add(getMiningReward()) > maxSupplyForEra && rewardEra < 39 */\n    tag_279:\n        /* \"contracts/mineableCoin.sol\":6970:7100  if( tokensMinted.add(getMiningReward()) > maxSupplyForEra && rewardEra < 39)... */\n      iszero\n      tag_280\n      jumpi\n        /* \"contracts/mineableCoin.sol\":7077:7086  rewardEra */\n      sload(0x0d)\n        /* \"contracts/mineableCoin.sol\":7077:7090  rewardEra + 1 */\n      tag_281\n      swap1\n        /* \"contracts/mineableCoin.sol\":7089:7090  1 */\n      0x01\n        /* \"contracts/mineableCoin.sol\":7077:7090  rewardEra + 1 */\n      tag_274\n      jump\t// in\n    tag_281:\n        /* \"contracts/mineableCoin.sol\":7065:7074  rewardEra */\n      0x0d\n        /* \"contracts/mineableCoin.sol\":7065:7090  rewardEra = rewardEra + 1 */\n      sstore\n        /* \"contracts/mineableCoin.sol\":6970:7100  if( tokensMinted.add(getMiningReward()) > maxSupplyForEra && rewardEra < 39)... */\n    tag_280:\n        /* \"contracts/mineableCoin.sol\":7280:7317  _totalSupply.div( 2**(rewardEra + 1)) */\n      tag_282\n        /* \"contracts/mineableCoin.sol\":7302:7311  rewardEra */\n      sload(0x0d)\n        /* \"contracts/mineableCoin.sol\":7314:7315  1 */\n      0x01\n        /* \"contracts/mineableCoin.sol\":7302:7315  rewardEra + 1 */\n      tag_283\n      swap2\n      swap1\n      tag_274\n      jump\t// in\n    tag_283:\n        /* \"contracts/mineableCoin.sol\":7298:7316  2**(rewardEra + 1) */\n      tag_284\n      swap1\n        /* \"contracts/mineableCoin.sol\":7298:7299  2 */\n      0x02\n        /* \"contracts/mineableCoin.sol\":7298:7316  2**(rewardEra + 1) */\n      tag_225\n      jump\t// in\n    tag_284:\n        /* \"contracts/mineableCoin.sol\":7280:7292  _totalSupply */\n      sload(0x05)\n      swap1\n        /* \"contracts/mineableCoin.sol\":7280:7296  _totalSupply.div */\n      tag_190\n        /* \"contracts/mineableCoin.sol\":7280:7317  _totalSupply.div( 2**(rewardEra + 1)) */\n      jump\t// in\n    tag_282:\n        /* \"contracts/mineableCoin.sol\":7265:7277  _totalSupply */\n      sload(0x05)\n        /* \"contracts/mineableCoin.sol\":7265:7317  _totalSupply - _totalSupply.div( 2**(rewardEra + 1)) */\n      tag_285\n      swap2\n      swap1\n      tag_214\n      jump\t// in\n    tag_285:\n        /* \"contracts/mineableCoin.sol\":7247:7262  maxSupplyForEra */\n      0x0e\n        /* \"contracts/mineableCoin.sol\":7247:7317  maxSupplyForEra = _totalSupply - _totalSupply.div( 2**(rewardEra + 1)) */\n      sstore\n        /* \"contracts/mineableCoin.sol\":7341:7351  epochCount */\n      sload(0x07)\n        /* \"contracts/mineableCoin.sol\":7341:7358  epochCount.add(1) */\n      tag_286\n      swap1\n        /* \"contracts/mineableCoin.sol\":7356:7357  1 */\n      0x01\n        /* \"contracts/mineableCoin.sol\":7341:7355  epochCount.add */\n      tag_203\n        /* \"contracts/mineableCoin.sol\":7341:7358  epochCount.add(1) */\n      jump\t// in\n    tag_286:\n        /* \"contracts/mineableCoin.sol\":7328:7338  epochCount */\n      0x07\n        /* \"contracts/mineableCoin.sol\":7328:7358  epochCount = epochCount.add(1) */\n      dup2\n      swap1\n      sstore\n        /* \"contracts/mineableCoin.sol\":7460:7484  _BLOCKS_PER_READJUSTMENT */\n      sload(0x08)\n        /* \"contracts/mineableCoin.sol\":7447:7484  epochCount % _BLOCKS_PER_READJUSTMENT */\n      tag_287\n      swap2\n      tag_288\n      jump\t// in\n    tag_287:\n        /* \"contracts/mineableCoin.sol\":7488:7489  0 */\n      0x00\n        /* \"contracts/mineableCoin.sol\":7447:7489  epochCount % _BLOCKS_PER_READJUSTMENT == 0 */\n      sub\n        /* \"contracts/mineableCoin.sol\":7444:7540  if(epochCount % _BLOCKS_PER_READJUSTMENT == 0)... */\n      tag_290\n      jumpi\n        /* \"contracts/mineableCoin.sol\":7509:7530  _reAdjustDifficulty() */\n      tag_290\n        /* \"contracts/mineableCoin.sol\":7509:7528  _reAdjustDifficulty */\n      tag_291\n        /* \"contracts/mineableCoin.sol\":7509:7530  _reAdjustDifficulty() */\n      jump\t// in\n    tag_290:\n        /* \"contracts/mineableCoin.sol\":7775:7791  block.number - 1 */\n      tag_292\n        /* \"contracts/mineableCoin.sol\":7790:7791  1 */\n      0x01\n        /* \"contracts/mineableCoin.sol\":7775:7787  block.number */\n      number\n        /* \"contracts/mineableCoin.sol\":7775:7791  block.number - 1 */\n      tag_214\n      jump\t// in\n    tag_292:\n        /* \"contracts/mineableCoin.sol\":7765:7792  blockhash(block.number - 1) */\n      blockhash\n        /* \"contracts/mineableCoin.sol\":7747:7762  challengeNumber */\n      0x0c\n        /* \"contracts/mineableCoin.sol\":7747:7792  challengeNumber = blockhash(block.number - 1) */\n      sstore\n        /* \"contracts/mineableCoin.sol\":6639:7812  function _startNewMiningEpoch() internal {... */\n      jump\t// out\n        /* \"contracts/mineableCoin.sol\":216:336  function sub(uint a, uint b) internal pure returns (uint c) {... */\n    tag_217:\n        /* \"contracts/mineableCoin.sol\":268:274  uint c */\n      0x00\n        /* \"contracts/mineableCoin.sol\":302:303  a */\n      dup3\n        /* \"contracts/mineableCoin.sol\":297:298  b */\n      dup3\n        /* \"contracts/mineableCoin.sol\":297:303  b <= a */\n      gt\n      iszero\n        /* \"contracts/mineableCoin.sol\":289:304  require(b <= a) */\n      tag_294\n      jumpi\n      0x00\n      dup1\n      revert\n    tag_294:\n        /* \"contracts/mineableCoin.sol\":321:326  a - b */\n      tag_237\n        /* \"contracts/mineableCoin.sol\":325:326  b */\n      dup3\n        /* \"contracts/mineableCoin.sol\":321:322  a */\n      dup5\n        /* \"contracts/mineableCoin.sol\":321:326  a - b */\n      tag_214\n      jump\t// in\n        /* \"contracts/mineableCoin.sol\":7969:9857  function _reAdjustDifficulty() internal {... */\n    tag_291:\n        /* \"contracts/mineableCoin.sol\":8022:8061  uint bscBlocksSinceLastDifficultyPeriod */\n      0x00\n        /* \"contracts/mineableCoin.sol\":8079:8108  latestDifficultyPeriodStarted */\n      sload(0x06)\n        /* \"contracts/mineableCoin.sol\":8064:8076  block.number */\n      number\n        /* \"contracts/mineableCoin.sol\":8064:8108  block.number - latestDifficultyPeriodStarted */\n      tag_297\n      swap2\n      swap1\n      tag_214\n      jump\t// in\n    tag_297:\n        /* \"contracts/mineableCoin.sol\":8313:8337  _BLOCKS_PER_READJUSTMENT */\n      sload(0x08)\n        /* \"contracts/mineableCoin.sol\":8022:8108  uint bscBlocksSinceLastDifficultyPeriod = block.number - latestDifficultyPeriodStarted */\n      swap1\n      swap2\n      pop\n        /* \"contracts/mineableCoin.sol\":8294:8310  uint epochsMined */\n      0x00\n        /* \"contracts/mineableCoin.sol\":8386:8403  epochsMined * 200 */\n      tag_298\n        /* \"contracts/mineableCoin.sol\":8313:8337  _BLOCKS_PER_READJUSTMENT */\n      dup3\n        /* \"contracts/mineableCoin.sol\":8400:8403  200 */\n      0xc8\n        /* \"contracts/mineableCoin.sol\":8386:8403  epochsMined * 200 */\n      tag_228\n      jump\t// in\n    tag_298:\n        /* \"contracts/mineableCoin.sol\":8350:8403  uint targetBscBlocksPerDiffPeriod = epochsMined * 200 */\n      swap1\n      pop\n        /* \"contracts/mineableCoin.sol\":8581:8609  targetBscBlocksPerDiffPeriod */\n      dup1\n        /* \"contracts/mineableCoin.sol\":8544:8578  bscBlocksSinceLastDifficultyPeriod */\n      dup4\n        /* \"contracts/mineableCoin.sol\":8544:8609  bscBlocksSinceLastDifficultyPeriod < targetBscBlocksPerDiffPeriod */\n      lt\n        /* \"contracts/mineableCoin.sol\":8540:9538  if( bscBlocksSinceLastDifficultyPeriod < targetBscBlocksPerDiffPeriod )... */\n      iszero\n      tag_299\n      jumpi\n        /* \"contracts/mineableCoin.sol\":8634:8655  uint excess_block_pct */\n      0x00\n        /* \"contracts/mineableCoin.sol\":8658:8739  (targetBscBlocksPerDiffPeriod.mul(100)).div( bscBlocksSinceLastDifficultyPeriod ) */\n      tag_300\n        /* \"contracts/mineableCoin.sol\":8703:8737  bscBlocksSinceLastDifficultyPeriod */\n      dup5\n        /* \"contracts/mineableCoin.sol\":8659:8696  targetBscBlocksPerDiffPeriod.mul(100) */\n      tag_227\n        /* \"contracts/mineableCoin.sol\":8659:8687  targetBscBlocksPerDiffPeriod */\n      dup5\n        /* \"contracts/mineableCoin.sol\":8692:8695  100 */\n      0x64\n        /* \"contracts/mineableCoin.sol\":8659:8691  targetBscBlocksPerDiffPeriod.mul */\n      tag_302\n        /* \"contracts/mineableCoin.sol\":8659:8696  targetBscBlocksPerDiffPeriod.mul(100) */\n      jump\t// in\n        /* \"contracts/mineableCoin.sol\":8658:8739  (targetBscBlocksPerDiffPeriod.mul(100)).div( bscBlocksSinceLastDifficultyPeriod ) */\n    tag_300:\n        /* \"contracts/mineableCoin.sol\":8634:8739  uint excess_block_pct = (targetBscBlocksPerDiffPeriod.mul(100)).div( bscBlocksSinceLastDifficultyPeriod ) */\n      swap1\n      pop\n        /* \"contracts/mineableCoin.sol\":8754:8781  uint excess_block_pct_extra */\n      0x00\n        /* \"contracts/mineableCoin.sol\":8784:8829  excess_block_pct.sub(100).limitLessThan(1000) */\n      tag_303\n        /* \"contracts/mineableCoin.sol\":8824:8828  1000 */\n      0x03e8\n        /* \"contracts/mineableCoin.sol\":8784:8809  excess_block_pct.sub(100) */\n      tag_304\n        /* \"contracts/mineableCoin.sol\":8634:8739  uint excess_block_pct = (targetBscBlocksPerDiffPeriod.mul(100)).div( bscBlocksSinceLastDifficultyPeriod ) */\n      dup5\n        /* \"contracts/mineableCoin.sol\":8805:8808  100 */\n      0x64\n        /* \"contracts/mineableCoin.sol\":8784:8804  excess_block_pct.sub */\n      tag_217\n        /* \"contracts/mineableCoin.sol\":8784:8809  excess_block_pct.sub(100) */\n      jump\t// in\n    tag_304:\n        /* \"contracts/mineableCoin.sol\":8784:8823  excess_block_pct.sub(100).limitLessThan */\n      swap1\n      tag_305\n        /* \"contracts/mineableCoin.sol\":8784:8829  excess_block_pct.sub(100).limitLessThan(1000) */\n      jump\t// in\n    tag_303:\n        /* \"contracts/mineableCoin.sol\":8754:8829  uint excess_block_pct_extra = excess_block_pct.sub(100).limitLessThan(1000) */\n      swap1\n      pop\n        /* \"contracts/mineableCoin.sol\":9036:9104  miningTarget.sub(miningTarget.div(2000).mul(excess_block_pct_extra)) */\n      tag_306\n        /* \"contracts/mineableCoin.sol\":9053:9103  miningTarget.div(2000).mul(excess_block_pct_extra) */\n      tag_307\n        /* \"contracts/mineableCoin.sol\":9080:9102  excess_block_pct_extra */\n      dup3\n        /* \"contracts/mineableCoin.sol\":9053:9075  miningTarget.div(2000) */\n      tag_308\n        /* \"contracts/mineableCoin.sol\":9070:9074  2000 */\n      0x07d0\n        /* \"contracts/mineableCoin.sol\":9053:9065  miningTarget */\n      sload(0x0b)\n        /* \"contracts/mineableCoin.sol\":9053:9069  miningTarget.div */\n      tag_190\n      swap1\n        /* \"contracts/mineableCoin.sol\":9053:9075  miningTarget.div(2000) */\n      swap2\n      swap1\n      0xffffffff\n      and\n      jump\t// in\n    tag_308:\n        /* \"contracts/mineableCoin.sol\":9053:9079  miningTarget.div(2000).mul */\n      swap1\n      tag_302\n        /* \"contracts/mineableCoin.sol\":9053:9103  miningTarget.div(2000).mul(excess_block_pct_extra) */\n      jump\t// in\n    tag_307:\n        /* \"contracts/mineableCoin.sol\":9036:9048  miningTarget */\n      sload(0x0b)\n      swap1\n        /* \"contracts/mineableCoin.sol\":9036:9052  miningTarget.sub */\n      tag_217\n        /* \"contracts/mineableCoin.sol\":9036:9104  miningTarget.sub(miningTarget.div(2000).mul(excess_block_pct_extra)) */\n      jump\t// in\n    tag_306:\n        /* \"contracts/mineableCoin.sol\":9021:9033  miningTarget */\n      0x0b\n        /* \"contracts/mineableCoin.sol\":9021:9104  miningTarget = miningTarget.sub(miningTarget.div(2000).mul(excess_block_pct_extra)) */\n      sstore\n      pop\n        /* \"contracts/mineableCoin.sol\":8540:9538  if( bscBlocksSinceLastDifficultyPeriod < targetBscBlocksPerDiffPeriod )... */\n      tag_309\n      swap1\n      pop\n      jump\n    tag_299:\n        /* \"contracts/mineableCoin.sol\":9151:9174  uint shortage_block_pct */\n      0x00\n        /* \"contracts/mineableCoin.sol\":9177:9258  (bscBlocksSinceLastDifficultyPeriod.mul(100)).div( targetBscBlocksPerDiffPeriod ) */\n      tag_310\n        /* \"contracts/mineableCoin.sol\":9228:9256  targetBscBlocksPerDiffPeriod */\n      dup3\n        /* \"contracts/mineableCoin.sol\":9178:9221  bscBlocksSinceLastDifficultyPeriod.mul(100) */\n      tag_227\n        /* \"contracts/mineableCoin.sol\":9178:9212  bscBlocksSinceLastDifficultyPeriod */\n      dup7\n        /* \"contracts/mineableCoin.sol\":9217:9220  100 */\n      0x64\n        /* \"contracts/mineableCoin.sol\":9178:9216  bscBlocksSinceLastDifficultyPeriod.mul */\n      tag_302\n        /* \"contracts/mineableCoin.sol\":9178:9221  bscBlocksSinceLastDifficultyPeriod.mul(100) */\n      jump\t// in\n        /* \"contracts/mineableCoin.sol\":9177:9258  (bscBlocksSinceLastDifficultyPeriod.mul(100)).div( targetBscBlocksPerDiffPeriod ) */\n    tag_310:\n        /* \"contracts/mineableCoin.sol\":9151:9258  uint shortage_block_pct = (bscBlocksSinceLastDifficultyPeriod.mul(100)).div( targetBscBlocksPerDiffPeriod ) */\n      swap1\n      pop\n        /* \"contracts/mineableCoin.sol\":9273:9302  uint shortage_block_pct_extra */\n      0x00\n        /* \"contracts/mineableCoin.sol\":9305:9352  shortage_block_pct.sub(100).limitLessThan(1000) */\n      tag_312\n        /* \"contracts/mineableCoin.sol\":9347:9351  1000 */\n      0x03e8\n        /* \"contracts/mineableCoin.sol\":9305:9332  shortage_block_pct.sub(100) */\n      tag_304\n        /* \"contracts/mineableCoin.sol\":9151:9258  uint shortage_block_pct = (bscBlocksSinceLastDifficultyPeriod.mul(100)).div( targetBscBlocksPerDiffPeriod ) */\n      dup5\n        /* \"contracts/mineableCoin.sol\":9328:9331  100 */\n      0x64\n        /* \"contracts/mineableCoin.sol\":9305:9327  shortage_block_pct.sub */\n      tag_217\n        /* \"contracts/mineableCoin.sol\":9305:9332  shortage_block_pct.sub(100) */\n      jump\t// in\n        /* \"contracts/mineableCoin.sol\":9305:9352  shortage_block_pct.sub(100).limitLessThan(1000) */\n    tag_312:\n        /* \"contracts/mineableCoin.sol\":9273:9352  uint shortage_block_pct_extra = shortage_block_pct.sub(100).limitLessThan(1000) */\n      swap1\n      pop\n        /* \"contracts/mineableCoin.sol\":9438:9508  miningTarget.add(miningTarget.div(2000).mul(shortage_block_pct_extra)) */\n      tag_314\n        /* \"contracts/mineableCoin.sol\":9455:9507  miningTarget.div(2000).mul(shortage_block_pct_extra) */\n      tag_315\n        /* \"contracts/mineableCoin.sol\":9482:9506  shortage_block_pct_extra */\n      dup3\n        /* \"contracts/mineableCoin.sol\":9455:9477  miningTarget.div(2000) */\n      tag_308\n        /* \"contracts/mineableCoin.sol\":9472:9476  2000 */\n      0x07d0\n        /* \"contracts/mineableCoin.sol\":9455:9467  miningTarget */\n      sload(0x0b)\n        /* \"contracts/mineableCoin.sol\":9455:9471  miningTarget.div */\n      tag_190\n      swap1\n        /* \"contracts/mineableCoin.sol\":9455:9477  miningTarget.div(2000) */\n      swap2\n      swap1\n      0xffffffff\n      and\n      jump\t// in\n        /* \"contracts/mineableCoin.sol\":9455:9507  miningTarget.div(2000).mul(shortage_block_pct_extra) */\n    tag_315:\n        /* \"contracts/mineableCoin.sol\":9438:9450  miningTarget */\n      sload(0x0b)\n      swap1\n        /* \"contracts/mineableCoin.sol\":9438:9454  miningTarget.add */\n      tag_203\n        /* \"contracts/mineableCoin.sol\":9438:9508  miningTarget.add(miningTarget.div(2000).mul(shortage_block_pct_extra)) */\n      jump\t// in\n    tag_314:\n        /* \"contracts/mineableCoin.sol\":9423:9435  miningTarget */\n      0x0b\n        /* \"contracts/mineableCoin.sol\":9423:9508  miningTarget = miningTarget.add(miningTarget.div(2000).mul(shortage_block_pct_extra)) */\n      sstore\n      pop\n      pop\n        /* \"contracts/mineableCoin.sol\":8540:9538  if( bscBlocksSinceLastDifficultyPeriod < targetBscBlocksPerDiffPeriod )... */\n    tag_309:\n        /* \"contracts/mineableCoin.sol\":9586:9598  block.number */\n      number\n        /* \"contracts/mineableCoin.sol\":9554:9583  latestDifficultyPeriodStarted */\n      0x06\n        /* \"contracts/mineableCoin.sol\":9554:9598  latestDifficultyPeriodStarted = block.number */\n      sstore\n        /* \"contracts/mineableCoin.sol\":9629:9644  _MINIMUM_TARGET */\n      sload(0x09)\n        /* \"contracts/mineableCoin.sol\":9614:9626  miningTarget */\n      sload(0x0b)\n        /* \"contracts/mineableCoin.sol\":9614:9644  miningTarget < _MINIMUM_TARGET */\n      lt\n        /* \"contracts/mineableCoin.sol\":9611:9727  if(miningTarget < _MINIMUM_TARGET) //very difficult... */\n      iszero\n      tag_317\n      jumpi\n        /* \"contracts/mineableCoin.sol\":9700:9715  _MINIMUM_TARGET */\n      sload(0x09)\n        /* \"contracts/mineableCoin.sol\":9685:9697  miningTarget */\n      0x0b\n        /* \"contracts/mineableCoin.sol\":9685:9715  miningTarget = _MINIMUM_TARGET */\n      sstore\n        /* \"contracts/mineableCoin.sol\":9611:9727  if(miningTarget < _MINIMUM_TARGET) //very difficult... */\n    tag_317:\n        /* \"contracts/mineableCoin.sol\":9757:9772  _MAXIMUM_TARGET */\n      sload(0x0a)\n        /* \"contracts/mineableCoin.sol\":9742:9754  miningTarget */\n      sload(0x0b)\n        /* \"contracts/mineableCoin.sol\":9742:9772  miningTarget > _MAXIMUM_TARGET */\n      gt\n        /* \"contracts/mineableCoin.sol\":9739:9850  if(miningTarget > _MAXIMUM_TARGET) //very easy... */\n      iszero\n      tag_318\n      jumpi\n        /* \"contracts/mineableCoin.sol\":9823:9838  _MAXIMUM_TARGET */\n      sload(0x0a)\n        /* \"contracts/mineableCoin.sol\":9808:9820  miningTarget */\n      0x0b\n        /* \"contracts/mineableCoin.sol\":9808:9838  miningTarget = _MAXIMUM_TARGET */\n      sstore\n        /* \"contracts/mineableCoin.sol\":9739:9850  if(miningTarget > _MAXIMUM_TARGET) //very easy... */\n    tag_318:\n        /* \"contracts/mineableCoin.sol\":8009:9857  {... */\n      pop\n      pop\n      pop\n        /* \"contracts/mineableCoin.sol\":7969:9857  function _reAdjustDifficulty() internal {... */\n      jump\t// out\n        /* \"contracts/mineableCoin.sol\":344:478  function mul(uint a, uint b) internal pure returns (uint c) {... */\n    tag_302:\n        /* \"contracts/mineableCoin.sol\":396:402  uint c */\n      0x00\n        /* \"contracts/mineableCoin.sol\":421:426  a * b */\n      tag_320\n        /* \"contracts/mineableCoin.sol\":425:426  b */\n      dup3\n        /* \"contracts/mineableCoin.sol\":421:422  a */\n      dup5\n        /* \"contracts/mineableCoin.sol\":421:426  a * b */\n      tag_228\n      jump\t// in\n    tag_320:\n        /* \"contracts/mineableCoin.sol\":417:426  c = a * b */\n      swap1\n      pop\n        /* \"contracts/mineableCoin.sol\":447:453  a == 0 */\n      dup3\n      iszero\n      dup1\n        /* \"contracts/mineableCoin.sol\":447:467  a == 0 || c / a == b */\n      tag_321\n      jumpi\n      pop\n        /* \"contracts/mineableCoin.sol\":466:467  b */\n      dup2\n        /* \"contracts/mineableCoin.sol\":457:462  c / a */\n      tag_322\n        /* \"contracts/mineableCoin.sol\":461:462  a */\n      dup5\n        /* \"contracts/mineableCoin.sol\":457:458  c */\n      dup4\n        /* \"contracts/mineableCoin.sol\":457:462  c / a */\n      tag_271\n      jump\t// in\n    tag_322:\n        /* \"contracts/mineableCoin.sol\":457:467  c / a == b */\n      eq\n        /* \"contracts/mineableCoin.sol\":447:467  a == 0 || c / a == b */\n    tag_321:\n        /* \"contracts/mineableCoin.sol\":439:468  require(a == 0 || c / a == b) */\n      tag_186\n      jumpi\n      0x00\n      dup1\n      revert\n        /* \"contracts/mineableCoin.sol\":703:835  function limitLessThan(uint a, uint b) internal pure returns (uint c) {... */\n    tag_305:\n        /* \"contracts/mineableCoin.sol\":765:771  uint c */\n      0x00\n        /* \"contracts/mineableCoin.sol\":793:794  b */\n      dup2\n        /* \"contracts/mineableCoin.sol\":789:790  a */\n      dup4\n        /* \"contracts/mineableCoin.sol\":789:794  a > b */\n      gt\n        /* \"contracts/mineableCoin.sol\":786:804  if(a > b) return b */\n      iszero\n      tag_325\n      jumpi\n      pop\n        /* \"contracts/mineableCoin.sol\":803:804  b */\n      dup1\n        /* \"contracts/mineableCoin.sol\":796:804  return b */\n      jump(tag_186)\n        /* \"contracts/mineableCoin.sol\":786:804  if(a > b) return b */\n    tag_325:\n      pop\n        /* \"contracts/mineableCoin.sol\":824:825  a */\n      swap1\n      swap2\n        /* \"contracts/mineableCoin.sol\":703:835  function limitLessThan(uint a, uint b) internal pure returns (uint c) {... */\n      swap1\n      pop\n      jump\t// out\n        /* \"#utility.yul\":14:437   */\n    tag_326:\n        /* \"#utility.yul\":56:59   */\n      0x00\n        /* \"#utility.yul\":94:99   */\n      dup2\n        /* \"#utility.yul\":88:100   */\n      mload\n        /* \"#utility.yul\":121:127   */\n      dup1\n        /* \"#utility.yul\":116:119   */\n      dup5\n        /* \"#utility.yul\":109:128   */\n      mstore\n        /* \"#utility.yul\":146:147   */\n      0x00\n        /* \"#utility.yul\":156:318   */\n    tag_335:\n        /* \"#utility.yul\":170:176   */\n      dup2\n        /* \"#utility.yul\":167:168   */\n      dup2\n        /* \"#utility.yul\":164:177   */\n      lt\n        /* \"#utility.yul\":156:318   */\n      iszero\n      tag_337\n      jumpi\n        /* \"#utility.yul\":232:236   */\n      0x20\n        /* \"#utility.yul\":288:301   */\n      dup2\n      dup6\n      add\n        /* \"#utility.yul\":284:306   */\n      dup2\n      add\n        /* \"#utility.yul\":278:307   */\n      mload\n        /* \"#utility.yul\":260:271   */\n      dup7\n      dup4\n      add\n        /* \"#utility.yul\":256:276   */\n      dup3\n      add\n        /* \"#utility.yul\":249:308   */\n      mstore\n        /* \"#utility.yul\":185:197   */\n      add\n        /* \"#utility.yul\":156:318   */\n      jump(tag_335)\n    tag_337:\n        /* \"#utility.yul\":160:163   */\n      pop\n        /* \"#utility.yul\":363:364   */\n      0x00\n        /* \"#utility.yul\":356:360   */\n      0x20\n        /* \"#utility.yul\":347:353   */\n      dup3\n        /* \"#utility.yul\":342:345   */\n      dup7\n        /* \"#utility.yul\":338:354   */\n      add\n        /* \"#utility.yul\":334:361   */\n      add\n        /* \"#utility.yul\":327:365   */\n      mstore\n        /* \"#utility.yul\":426:430   */\n      0x20\n        /* \"#utility.yul\":419:421   */\n      0x1f\n        /* \"#utility.yul\":415:422   */\n      not\n        /* \"#utility.yul\":410:412   */\n      0x1f\n        /* \"#utility.yul\":402:408   */\n      dup4\n        /* \"#utility.yul\":398:413   */\n      add\n        /* \"#utility.yul\":394:423   */\n      and\n        /* \"#utility.yul\":389:392   */\n      dup6\n        /* \"#utility.yul\":385:424   */\n      add\n        /* \"#utility.yul\":381:431   */\n      add\n        /* \"#utility.yul\":374:431   */\n      swap2\n      pop\n      pop\n        /* \"#utility.yul\":14:437   */\n      swap3\n      swap2\n      pop\n      pop\n      jump\t// out\n        /* \"#utility.yul\":442:662   */\n    tag_50:\n        /* \"#utility.yul\":591:593   */\n      0x20\n        /* \"#utility.yul\":580:589   */\n      dup2\n        /* \"#utility.yul\":573:594   */\n      mstore\n        /* \"#utility.yul\":554:558   */\n      0x00\n        /* \"#utility.yul\":611:656   */\n      tag_237\n        /* \"#utility.yul\":652:654   */\n      0x20\n        /* \"#utility.yul\":641:650   */\n      dup4\n        /* \"#utility.yul\":637:655   */\n      add\n        /* \"#utility.yul\":629:635   */\n      dup5\n        /* \"#utility.yul\":611:656   */\n      tag_326\n      jump\t// in\n        /* \"#utility.yul\":667:840   */\n    tag_327:\n        /* \"#utility.yul\":735:755   */\n      dup1\n      calldataload\n      sub(shl(0xa0, 0x01), 0x01)\n        /* \"#utility.yul\":784:815   */\n      dup2\n      and\n        /* \"#utility.yul\":774:816   */\n      dup2\n      eq\n        /* \"#utility.yul\":764:834   */\n      tag_341\n      jumpi\n        /* \"#utility.yul\":830:831   */\n      0x00\n        /* \"#utility.yul\":827:828   */\n      dup1\n        /* \"#utility.yul\":820:832   */\n      revert\n        /* \"#utility.yul\":764:834   */\n    tag_341:\n        /* \"#utility.yul\":667:840   */\n      swap2\n      swap1\n      pop\n      jump\t// out\n        /* \"#utility.yul\":845:1099   */\n    tag_53:\n        /* \"#utility.yul\":913:919   */\n      0x00\n        /* \"#utility.yul\":921:927   */\n      dup1\n        /* \"#utility.yul\":974:976   */\n      0x40\n        /* \"#utility.yul\":962:971   */\n      dup4\n        /* \"#utility.yul\":953:960   */\n      dup6\n        /* \"#utility.yul\":949:972   */\n      sub\n        /* \"#utility.yul\":945:977   */\n      slt\n        /* \"#utility.yul\":942:994   */\n      iszero\n      tag_343\n      jumpi\n        /* \"#utility.yul\":990:991   */\n      0x00\n        /* \"#utility.yul\":987:988   */\n      dup1\n        /* \"#utility.yul\":980:992   */\n      revert\n        /* \"#utility.yul\":942:994   */\n    tag_343:\n        /* \"#utility.yul\":1013:1042   */\n      tag_344\n        /* \"#utility.yul\":1032:1041   */\n      dup4\n        /* \"#utility.yul\":1013:1042   */\n      tag_327\n      jump\t// in\n    tag_344:\n        /* \"#utility.yul\":1003:1042   */\n      swap5\n        /* \"#utility.yul\":1089:1091   */\n      0x20\n        /* \"#utility.yul\":1074:1092   */\n      swap4\n      swap1\n      swap4\n      add\n        /* \"#utility.yul\":1061:1093   */\n      calldataload\n      swap4\n      pop\n      pop\n      pop\n        /* \"#utility.yul\":845:1099   */\n      jump\t// out\n        /* \"#utility.yul\":1478:1726   */\n    tag_63:\n        /* \"#utility.yul\":1546:1552   */\n      0x00\n        /* \"#utility.yul\":1554:1560   */\n      dup1\n        /* \"#utility.yul\":1607:1609   */\n      0x40\n        /* \"#utility.yul\":1595:1604   */\n      dup4\n        /* \"#utility.yul\":1586:1593   */\n      dup6\n        /* \"#utility.yul\":1582:1605   */\n      sub\n        /* \"#utility.yul\":1578:1610   */\n      slt\n        /* \"#utility.yul\":1575:1627   */\n      iszero\n      tag_348\n      jumpi\n        /* \"#utility.yul\":1623:1624   */\n      0x00\n        /* \"#utility.yul\":1620:1621   */\n      dup1\n        /* \"#utility.yul\":1613:1625   */\n      revert\n        /* \"#utility.yul\":1575:1627   */\n    tag_348:\n      pop\n      pop\n        /* \"#utility.yul\":1646:1669   */\n      dup1\n      calldataload\n      swap3\n        /* \"#utility.yul\":1716:1718   */\n      0x20\n        /* \"#utility.yul\":1701:1719   */\n      swap1\n      swap2\n      add\n        /* \"#utility.yul\":1688:1720   */\n      calldataload\n      swap2\n      pop\n        /* \"#utility.yul\":1478:1726   */\n      jump\t// out\n        /* \"#utility.yul\":1731:2059   */\n    tag_71:\n        /* \"#utility.yul\":1808:1814   */\n      0x00\n        /* \"#utility.yul\":1816:1822   */\n      dup1\n        /* \"#utility.yul\":1824:1830   */\n      0x00\n        /* \"#utility.yul\":1877:1879   */\n      0x60\n        /* \"#utility.yul\":1865:1874   */\n      dup5\n        /* \"#utility.yul\":1856:1863   */\n      dup7\n        /* \"#utility.yul\":1852:1875   */\n      sub\n        /* \"#utility.yul\":1848:1880   */\n      slt\n        /* \"#utility.yul\":1845:1897   */\n      iszero\n      tag_350\n      jumpi\n        /* \"#utility.yul\":1893:1894   */\n      0x00\n        /* \"#utility.yul\":1890:1891   */\n      dup1\n        /* \"#utility.yul\":1883:1895   */\n      revert\n        /* \"#utility.yul\":1845:1897   */\n    tag_350:\n        /* \"#utility.yul\":1916:1945   */\n      tag_351\n        /* \"#utility.yul\":1935:1944   */\n      dup5\n        /* \"#utility.yul\":1916:1945   */\n      tag_327\n      jump\t// in\n    tag_351:\n        /* \"#utility.yul\":1906:1945   */\n      swap3\n      pop\n        /* \"#utility.yul\":1964:2002   */\n      tag_352\n        /* \"#utility.yul\":1998:2000   */\n      0x20\n        /* \"#utility.yul\":1987:1996   */\n      dup6\n        /* \"#utility.yul\":1983:2001   */\n      add\n        /* \"#utility.yul\":1964:2002   */\n      tag_327\n      jump\t// in\n    tag_352:\n        /* \"#utility.yul\":1954:2002   */\n      swap2\n      pop\n        /* \"#utility.yul\":2049:2051   */\n      0x40\n        /* \"#utility.yul\":2038:2047   */\n      dup5\n        /* \"#utility.yul\":2034:2052   */\n      add\n        /* \"#utility.yul\":2021:2053   */\n      calldataload\n        /* \"#utility.yul\":2011:2053   */\n      swap1\n      pop\n        /* \"#utility.yul\":1731:2059   */\n      swap3\n      pop\n      swap3\n      pop\n      swap3\n      jump\t// out\n        /* \"#utility.yul\":2643:2829   */\n    tag_113:\n        /* \"#utility.yul\":2702:2708   */\n      0x00\n        /* \"#utility.yul\":2755:2757   */\n      0x20\n        /* \"#utility.yul\":2743:2752   */\n      dup3\n        /* \"#utility.yul\":2734:2741   */\n      dup5\n        /* \"#utility.yul\":2730:2753   */\n      sub\n        /* \"#utility.yul\":2726:2758   */\n      slt\n        /* \"#utility.yul\":2723:2775   */\n      iszero\n      tag_357\n      jumpi\n        /* \"#utility.yul\":2771:2772   */\n      0x00\n        /* \"#utility.yul\":2768:2769   */\n      dup1\n        /* \"#utility.yul\":2761:2773   */\n      revert\n        /* \"#utility.yul\":2723:2775   */\n    tag_357:\n        /* \"#utility.yul\":2794:2823   */\n      tag_237\n        /* \"#utility.yul\":2813:2822   */\n      dup3\n        /* \"#utility.yul\":2794:2823   */\n      tag_327\n      jump\t// in\n        /* \"#utility.yul\":2834:3219   */\n    tag_120:\n        /* \"#utility.yul\":2920:2926   */\n      0x00\n        /* \"#utility.yul\":2928:2934   */\n      dup1\n        /* \"#utility.yul\":2936:2942   */\n      0x00\n        /* \"#utility.yul\":2944:2950   */\n      dup1\n        /* \"#utility.yul\":2997:3000   */\n      0x80\n        /* \"#utility.yul\":2985:2994   */\n      dup6\n        /* \"#utility.yul\":2976:2983   */\n      dup8\n        /* \"#utility.yul\":2972:2995   */\n      sub\n        /* \"#utility.yul\":2968:3001   */\n      slt\n        /* \"#utility.yul\":2965:3018   */\n      iszero\n      tag_360\n      jumpi\n        /* \"#utility.yul\":3014:3015   */\n      0x00\n        /* \"#utility.yul\":3011:3012   */\n      dup1\n        /* \"#utility.yul\":3004:3016   */\n      revert\n        /* \"#utility.yul\":2965:3018   */\n    tag_360:\n      pop\n      pop\n        /* \"#utility.yul\":3037:3060   */\n      dup3\n      calldataload\n      swap5\n        /* \"#utility.yul\":3107:3109   */\n      0x20\n        /* \"#utility.yul\":3092:3110   */\n      dup5\n      add\n        /* \"#utility.yul\":3079:3111   */\n      calldataload\n      swap5\n      pop\n        /* \"#utility.yul\":3158:3160   */\n      0x40\n        /* \"#utility.yul\":3143:3161   */\n      dup5\n      add\n        /* \"#utility.yul\":3130:3162   */\n      calldataload\n      swap4\n        /* \"#utility.yul\":3209:3211   */\n      0x60\n        /* \"#utility.yul\":3194:3212   */\n      add\n        /* \"#utility.yul\":3181:3213   */\n      calldataload\n      swap3\n      pop\n        /* \"#utility.yul\":2834:3219   */\n      swap1\n      pop\n      jump\t// out\n        /* \"#utility.yul\":3224:3351   */\n    tag_328:\n        /* \"#utility.yul\":3285:3295   */\n      0x4e487b71\n        /* \"#utility.yul\":3280:3283   */\n      0xe0\n        /* \"#utility.yul\":3276:3296   */\n      shl\n        /* \"#utility.yul\":3273:3274   */\n      0x00\n        /* \"#utility.yul\":3266:3297   */\n      mstore\n        /* \"#utility.yul\":3316:3320   */\n      0x41\n        /* \"#utility.yul\":3313:3314   */\n      0x04\n        /* \"#utility.yul\":3306:3321   */\n      mstore\n        /* \"#utility.yul\":3340:3344   */\n      0x24\n        /* \"#utility.yul\":3337:3338   */\n      0x00\n        /* \"#utility.yul\":3330:3345   */\n      revert\n        /* \"#utility.yul\":3356:4419   */\n    tag_160:\n        /* \"#utility.yul\":3442:3448   */\n      0x00\n        /* \"#utility.yul\":3450:3456   */\n      dup1\n        /* \"#utility.yul\":3458:3464   */\n      0x00\n        /* \"#utility.yul\":3511:3513   */\n      0x60\n        /* \"#utility.yul\":3499:3508   */\n      dup5\n        /* \"#utility.yul\":3490:3497   */\n      dup7\n        /* \"#utility.yul\":3486:3509   */\n      sub\n        /* \"#utility.yul\":3482:3514   */\n      slt\n        /* \"#utility.yul\":3479:3531   */\n      iszero\n      tag_363\n      jumpi\n        /* \"#utility.yul\":3527:3528   */\n      0x00\n        /* \"#utility.yul\":3524:3525   */\n      dup1\n        /* \"#utility.yul\":3517:3529   */\n      revert\n        /* \"#utility.yul\":3479:3531   */\n    tag_363:\n        /* \"#utility.yul\":3550:3579   */\n      tag_364\n        /* \"#utility.yul\":3569:3578   */\n      dup5\n        /* \"#utility.yul\":3550:3579   */\n      tag_327\n      jump\t// in\n    tag_364:\n        /* \"#utility.yul\":3540:3579   */\n      swap3\n      pop\n        /* \"#utility.yul\":3626:3628   */\n      0x20\n        /* \"#utility.yul\":3615:3624   */\n      dup5\n        /* \"#utility.yul\":3611:3629   */\n      add\n        /* \"#utility.yul\":3598:3630   */\n      calldataload\n        /* \"#utility.yul\":3588:3630   */\n      swap2\n      pop\n        /* \"#utility.yul\":3681:3683   */\n      0x40\n        /* \"#utility.yul\":3670:3679   */\n      dup5\n        /* \"#utility.yul\":3666:3684   */\n      add\n        /* \"#utility.yul\":3653:3685   */\n      calldataload\n        /* \"#utility.yul\":3704:3722   */\n      0xffffffffffffffff\n        /* \"#utility.yul\":3745:3747   */\n      dup1\n        /* \"#utility.yul\":3737:3743   */\n      dup3\n        /* \"#utility.yul\":3734:3748   */\n      gt\n        /* \"#utility.yul\":3731:3765   */\n      iszero\n      tag_365\n      jumpi\n        /* \"#utility.yul\":3761:3762   */\n      0x00\n        /* \"#utility.yul\":3758:3759   */\n      dup1\n        /* \"#utility.yul\":3751:3763   */\n      revert\n        /* \"#utility.yul\":3731:3765   */\n    tag_365:\n        /* \"#utility.yul\":3799:3805   */\n      dup2\n        /* \"#utility.yul\":3788:3797   */\n      dup7\n        /* \"#utility.yul\":3784:3806   */\n      add\n        /* \"#utility.yul\":3774:3806   */\n      swap2\n      pop\n        /* \"#utility.yul\":3844:3851   */\n      dup7\n        /* \"#utility.yul\":3837:3841   */\n      0x1f\n        /* \"#utility.yul\":3833:3835   */\n      dup4\n        /* \"#utility.yul\":3829:3842   */\n      add\n        /* \"#utility.yul\":3825:3852   */\n      slt\n        /* \"#utility.yul\":3815:3870   */\n      tag_366\n      jumpi\n        /* \"#utility.yul\":3866:3867   */\n      0x00\n        /* \"#utility.yul\":3863:3864   */\n      dup1\n        /* \"#utility.yul\":3856:3868   */\n      revert\n        /* \"#utility.yul\":3815:3870   */\n    tag_366:\n        /* \"#utility.yul\":3902:3904   */\n      dup2\n        /* \"#utility.yul\":3889:3905   */\n      calldataload\n        /* \"#utility.yul\":3924:3926   */\n      dup2\n        /* \"#utility.yul\":3920:3922   */\n      dup2\n        /* \"#utility.yul\":3917:3927   */\n      gt\n        /* \"#utility.yul\":3914:3950   */\n      iszero\n      tag_368\n      jumpi\n        /* \"#utility.yul\":3930:3948   */\n      tag_368\n      tag_328\n      jump\t// in\n    tag_368:\n        /* \"#utility.yul\":4005:4007   */\n      0x40\n        /* \"#utility.yul\":3999:4008   */\n      mload\n        /* \"#utility.yul\":3973:3975   */\n      0x1f\n        /* \"#utility.yul\":4059:4072   */\n      dup3\n      add\n      not(0x1f)\n        /* \"#utility.yul\":4055:4077   */\n      swap1\n      dup2\n      and\n        /* \"#utility.yul\":4079:4081   */\n      0x3f\n        /* \"#utility.yul\":4051:4082   */\n      add\n        /* \"#utility.yul\":4047:4087   */\n      and\n        /* \"#utility.yul\":4035:4088   */\n      dup2\n      add\n      swap1\n        /* \"#utility.yul\":4103:4121   */\n      dup4\n      dup3\n      gt\n        /* \"#utility.yul\":4123:4145   */\n      dup2\n      dup4\n      lt\n        /* \"#utility.yul\":4100:4146   */\n      or\n        /* \"#utility.yul\":4097:4169   */\n      iszero\n      tag_370\n      jumpi\n        /* \"#utility.yul\":4149:4167   */\n      tag_370\n      tag_328\n      jump\t// in\n    tag_370:\n        /* \"#utility.yul\":4189:4199   */\n      dup2\n        /* \"#utility.yul\":4185:4187   */\n      0x40\n        /* \"#utility.yul\":4178:4200   */\n      mstore\n        /* \"#utility.yul\":4224:4226   */\n      dup3\n        /* \"#utility.yul\":4216:4222   */\n      dup2\n        /* \"#utility.yul\":4209:4227   */\n      mstore\n        /* \"#utility.yul\":4264:4271   */\n      dup10\n        /* \"#utility.yul\":4259:4261   */\n      0x20\n        /* \"#utility.yul\":4254:4256   */\n      dup5\n        /* \"#utility.yul\":4250:4252   */\n      dup8\n        /* \"#utility.yul\":4246:4257   */\n      add\n        /* \"#utility.yul\":4242:4262   */\n      add\n        /* \"#utility.yul\":4239:4272   */\n      gt\n        /* \"#utility.yul\":4236:4289   */\n      iszero\n      tag_371\n      jumpi\n        /* \"#utility.yul\":4285:4286   */\n      0x00\n        /* \"#utility.yul\":4282:4283   */\n      dup1\n        /* \"#utility.yul\":4275:4287   */\n      revert\n        /* \"#utility.yul\":4236:4289   */\n    tag_371:\n        /* \"#utility.yul\":4341:4343   */\n      dup3\n        /* \"#utility.yul\":4336:4338   */\n      0x20\n        /* \"#utility.yul\":4332:4334   */\n      dup7\n        /* \"#utility.yul\":4328:4339   */\n      add\n        /* \"#utility.yul\":4323:4325   */\n      0x20\n        /* \"#utility.yul\":4315:4321   */\n      dup4\n        /* \"#utility.yul\":4311:4326   */\n      add\n        /* \"#utility.yul\":4298:4344   */\n      calldatacopy\n        /* \"#utility.yul\":4386:4387   */\n      0x00\n        /* \"#utility.yul\":4381:4383   */\n      0x20\n        /* \"#utility.yul\":4376:4378   */\n      dup5\n        /* \"#utility.yul\":4368:4374   */\n      dup4\n        /* \"#utility.yul\":4364:4379   */\n      add\n        /* \"#utility.yul\":4360:4384   */\n      add\n        /* \"#utility.yul\":4353:4388   */\n      mstore\n        /* \"#utility.yul\":4407:4413   */\n      dup1\n        /* \"#utility.yul\":4397:4413   */\n      swap6\n      pop\n      pop\n      pop\n      pop\n      pop\n      pop\n        /* \"#utility.yul\":3356:4419   */\n      swap3\n      pop\n      swap3\n      pop\n      swap3\n      jump\t// out\n        /* \"#utility.yul\":4424:4684   */\n    tag_174:\n        /* \"#utility.yul\":4492:4498   */\n      0x00\n        /* \"#utility.yul\":4500:4506   */\n      dup1\n        /* \"#utility.yul\":4553:4555   */\n      0x40\n        /* \"#utility.yul\":4541:4550   */\n      dup4\n        /* \"#utility.yul\":4532:4539   */\n      dup6\n        /* \"#utility.yul\":4528:4551   */\n      sub\n        /* \"#utility.yul\":4524:4556   */\n      slt\n        /* \"#utility.yul\":4521:4573   */\n      iszero\n      tag_373\n      jumpi\n        /* \"#utility.yul\":4569:4570   */\n      0x00\n        /* \"#utility.yul\":4566:4567   */\n      dup1\n        /* \"#utility.yul\":4559:4571   */\n      revert\n        /* \"#utility.yul\":4521:4573   */\n    tag_373:\n        /* \"#utility.yul\":4592:4621   */\n      tag_374\n        /* \"#utility.yul\":4611:4620   */\n      dup4\n        /* \"#utility.yul\":4592:4621   */\n      tag_327\n      jump\t// in\n    tag_374:\n        /* \"#utility.yul\":4582:4621   */\n      swap2\n      pop\n        /* \"#utility.yul\":4640:4678   */\n      tag_375\n        /* \"#utility.yul\":4674:4676   */\n      0x20\n        /* \"#utility.yul\":4663:4672   */\n      dup5\n        /* \"#utility.yul\":4659:4677   */\n      add\n        /* \"#utility.yul\":4640:4678   */\n      tag_327\n      jump\t// in\n    tag_375:\n        /* \"#utility.yul\":4630:4678   */\n      swap1\n      pop\n        /* \"#utility.yul\":4424:4684   */\n      swap3\n      pop\n      swap3\n      swap1\n      pop\n      jump\t// out\n        /* \"#utility.yul\":4689:5069   */\n    tag_181:\n        /* \"#utility.yul\":4768:4769   */\n      0x01\n        /* \"#utility.yul\":4764:4776   */\n      dup2\n      dup2\n      shr\n      swap1\n        /* \"#utility.yul\":4811:4823   */\n      dup3\n      and\n      dup1\n        /* \"#utility.yul\":4832:4893   */\n      tag_377\n      jumpi\n        /* \"#utility.yul\":4886:4890   */\n      0x7f\n        /* \"#utility.yul\":4878:4884   */\n      dup3\n        /* \"#utility.yul\":4874:4891   */\n      and\n        /* \"#utility.yul\":4864:4891   */\n      swap2\n      pop\n        /* \"#utility.yul\":4832:4893   */\n    tag_377:\n        /* \"#utility.yul\":4939:4941   */\n      0x20\n        /* \"#utility.yul\":4931:4937   */\n      dup3\n        /* \"#utility.yul\":4928:4942   */\n      lt\n        /* \"#utility.yul\":4908:4926   */\n      dup2\n        /* \"#utility.yul\":4905:4943   */\n      sub\n        /* \"#utility.yul\":4902:5063   */\n      tag_378\n      jumpi\n        /* \"#utility.yul\":4985:4995   */\n      0x4e487b71\n        /* \"#utility.yul\":4980:4983   */\n      0xe0\n        /* \"#utility.yul\":4976:4996   */\n      shl\n        /* \"#utility.yul\":4973:4974   */\n      0x00\n        /* \"#utility.yul\":4966:4997   */\n      mstore\n        /* \"#utility.yul\":5020:5024   */\n      0x22\n        /* \"#utility.yul\":5017:5018   */\n      0x04\n        /* \"#utility.yul\":5010:5025   */\n      mstore\n        /* \"#utility.yul\":5048:5052   */\n      0x24\n        /* \"#utility.yul\":5045:5046   */\n      0x00\n        /* \"#utility.yul\":5038:5053   */\n      revert\n        /* \"#utility.yul\":4902:5063   */\n    tag_378:\n      pop\n        /* \"#utility.yul\":4689:5069   */\n      swap2\n      swap1\n      pop\n      jump\t// out\n        /* \"#utility.yul\":5074:5433   */\n    tag_193:\n        /* \"#utility.yul\":5259:5278   */\n      swap3\n      dup4\n      mstore\n        /* \"#utility.yul\":5316:5318   */\n      0x60\n        /* \"#utility.yul\":5312:5327   */\n      swap2\n      swap1\n      swap2\n      shl\n      not(0xffffffffffffffffffffffff)\n        /* \"#utility.yul\":5308:5361   */\n      and\n        /* \"#utility.yul\":5303:5305   */\n      0x20\n        /* \"#utility.yul\":5294:5306   */\n      dup4\n      add\n        /* \"#utility.yul\":5287:5362   */\n      mstore\n        /* \"#utility.yul\":5387:5389   */\n      0x34\n        /* \"#utility.yul\":5378:5390   */\n      dup3\n      add\n        /* \"#utility.yul\":5371:5399   */\n      mstore\n        /* \"#utility.yul\":5424:5426   */\n      0x54\n        /* \"#utility.yul\":5415:5427   */\n      add\n      swap1\n        /* \"#utility.yul\":5074:5433   */\n      jump\t// out\n        /* \"#utility.yul\":6929:7056   */\n    tag_329:\n        /* \"#utility.yul\":6990:7000   */\n      0x4e487b71\n        /* \"#utility.yul\":6985:6988   */\n      0xe0\n        /* \"#utility.yul\":6981:7001   */\n      shl\n        /* \"#utility.yul\":6978:6979   */\n      0x00\n        /* \"#utility.yul\":6971:7002   */\n      mstore\n        /* \"#utility.yul\":7021:7025   */\n      0x11\n        /* \"#utility.yul\":7018:7019   */\n      0x04\n        /* \"#utility.yul\":7011:7026   */\n      mstore\n        /* \"#utility.yul\":7045:7049   */\n      0x24\n        /* \"#utility.yul\":7042:7043   */\n      0x00\n        /* \"#utility.yul\":7035:7050   */\n      revert\n        /* \"#utility.yul\":7061:7189   */\n    tag_214:\n        /* \"#utility.yul\":7128:7137   */\n      dup2\n      dup2\n      sub\n        /* \"#utility.yul\":7149:7160   */\n      dup2\n      dup2\n      gt\n        /* \"#utility.yul\":7146:7183   */\n      iszero\n      tag_186\n      jumpi\n        /* \"#utility.yul\":7163:7181   */\n      tag_186\n      tag_329\n      jump\t// in\n        /* \"#utility.yul\":7194:7610   */\n    tag_330:\n        /* \"#utility.yul\":7283:7284   */\n      0x01\n        /* \"#utility.yul\":7320:7325   */\n      dup2\n        /* \"#utility.yul\":7283:7284   */\n      dup2\n        /* \"#utility.yul\":7334:7604   */\n    tag_389:\n        /* \"#utility.yul\":7355:7362   */\n      dup1\n        /* \"#utility.yul\":7345:7353   */\n      dup6\n        /* \"#utility.yul\":7342:7363   */\n      gt\n        /* \"#utility.yul\":7334:7604   */\n      iszero\n      tag_391\n      jumpi\n        /* \"#utility.yul\":7414:7418   */\n      dup2\n        /* \"#utility.yul\":7410:7411   */\n      0x00\n        /* \"#utility.yul\":7406:7412   */\n      not\n        /* \"#utility.yul\":7402:7419   */\n      div\n        /* \"#utility.yul\":7396:7400   */\n      dup3\n        /* \"#utility.yul\":7393:7420   */\n      gt\n        /* \"#utility.yul\":7390:7443   */\n      iszero\n      tag_393\n      jumpi\n        /* \"#utility.yul\":7423:7441   */\n      tag_393\n      tag_329\n      jump\t// in\n    tag_393:\n        /* \"#utility.yul\":7473:7480   */\n      dup1\n        /* \"#utility.yul\":7463:7471   */\n      dup6\n        /* \"#utility.yul\":7459:7481   */\n      and\n        /* \"#utility.yul\":7456:7511   */\n      iszero\n      tag_394\n      jumpi\n        /* \"#utility.yul\":7493:7509   */\n      swap2\n      dup2\n      mul\n      swap2\n        /* \"#utility.yul\":7456:7511   */\n    tag_394:\n        /* \"#utility.yul\":7572:7594   */\n      swap4\n      dup5\n      shr\n      swap4\n        /* \"#utility.yul\":7532:7547   */\n      swap1\n      dup1\n      mul\n      swap1\n        /* \"#utility.yul\":7334:7604   */\n      jump(tag_389)\n    tag_391:\n        /* \"#utility.yul\":7338:7341   */\n      pop\n        /* \"#utility.yul\":7194:7610   */\n      swap3\n      pop\n      swap3\n      swap1\n      pop\n      jump\t// out\n        /* \"#utility.yul\":7615:8421   */\n    tag_331:\n        /* \"#utility.yul\":7664:7669   */\n      0x00\n        /* \"#utility.yul\":7694:7702   */\n      dup3\n        /* \"#utility.yul\":7684:7764   */\n      tag_396\n      jumpi\n      pop\n        /* \"#utility.yul\":7735:7736   */\n      0x01\n        /* \"#utility.yul\":7749:7754   */\n      jump(tag_186)\n        /* \"#utility.yul\":7684:7764   */\n    tag_396:\n        /* \"#utility.yul\":7783:7787   */\n      dup2\n        /* \"#utility.yul\":7773:7849   */\n      tag_397\n      jumpi\n      pop\n        /* \"#utility.yul\":7820:7821   */\n      0x00\n        /* \"#utility.yul\":7834:7839   */\n      jump(tag_186)\n        /* \"#utility.yul\":7773:7849   */\n    tag_397:\n        /* \"#utility.yul\":7865:7869   */\n      dup2\n        /* \"#utility.yul\":7883:7884   */\n      0x01\n        /* \"#utility.yul\":7878:7937   */\n      dup2\n      eq\n      tag_399\n      jumpi\n        /* \"#utility.yul\":7951:7952   */\n      0x02\n        /* \"#utility.yul\":7946:8076   */\n      dup2\n      eq\n      tag_400\n      jumpi\n        /* \"#utility.yul\":7858:8076   */\n      jump(tag_398)\n        /* \"#utility.yul\":7878:7937   */\n    tag_399:\n        /* \"#utility.yul\":7908:7909   */\n      0x01\n        /* \"#utility.yul\":7899:7909   */\n      swap2\n      pop\n        /* \"#utility.yul\":7922:7927   */\n      pop\n      jump(tag_186)\n        /* \"#utility.yul\":7946:8076   */\n    tag_400:\n        /* \"#utility.yul\":7983:7986   */\n      0xff\n        /* \"#utility.yul\":7973:7981   */\n      dup5\n        /* \"#utility.yul\":7970:7987   */\n      gt\n        /* \"#utility.yul\":7967:8010   */\n      iszero\n      tag_402\n      jumpi\n        /* \"#utility.yul\":7990:8008   */\n      tag_402\n      tag_329\n      jump\t// in\n    tag_402:\n      pop\n      pop\n        /* \"#utility.yul\":8046:8047   */\n      0x01\n        /* \"#utility.yul\":8032:8048   */\n      dup3\n      shl\n        /* \"#utility.yul\":8061:8066   */\n      jump(tag_186)\n        /* \"#utility.yul\":7858:8076   */\n    tag_398:\n      pop\n        /* \"#utility.yul\":8160:8162   */\n      0x20\n        /* \"#utility.yul\":8150:8158   */\n      dup4\n        /* \"#utility.yul\":8147:8163   */\n      lt\n        /* \"#utility.yul\":8141:8144   */\n      0x0133\n        /* \"#utility.yul\":8135:8139   */\n      dup4\n        /* \"#utility.yul\":8132:8145   */\n      lt\n        /* \"#utility.yul\":8128:8164   */\n      and\n        /* \"#utility.yul\":8122:8124   */\n      0x4e\n        /* \"#utility.yul\":8112:8120   */\n      dup5\n        /* \"#utility.yul\":8109:8125   */\n      lt\n        /* \"#utility.yul\":8104:8106   */\n      0x0b\n        /* \"#utility.yul\":8098:8102   */\n      dup5\n        /* \"#utility.yul\":8095:8107   */\n      lt\n        /* \"#utility.yul\":8091:8126   */\n      and\n        /* \"#utility.yul\":8088:8165   */\n      or\n        /* \"#utility.yul\":8085:8244   */\n      iszero\n      tag_403\n      jumpi\n      pop\n        /* \"#utility.yul\":8197:8216   */\n      dup2\n      dup2\n      exp\n        /* \"#utility.yul\":8229:8234   */\n      jump(tag_186)\n        /* \"#utility.yul\":8085:8244   */\n    tag_403:\n        /* \"#utility.yul\":8276:8310   */\n      tag_404\n        /* \"#utility.yul\":8301:8309   */\n      dup4\n        /* \"#utility.yul\":8295:8299   */\n      dup4\n        /* \"#utility.yul\":8276:8310   */\n      tag_330\n      jump\t// in\n    tag_404:\n        /* \"#utility.yul\":8346:8352   */\n      dup1\n        /* \"#utility.yul\":8342:8343   */\n      0x00\n        /* \"#utility.yul\":8338:8344   */\n      not\n        /* \"#utility.yul\":8334:8353   */\n      div\n        /* \"#utility.yul\":8325:8332   */\n      dup3\n        /* \"#utility.yul\":8322:8354   */\n      gt\n        /* \"#utility.yul\":8319:8377   */\n      iszero\n      tag_406\n      jumpi\n        /* \"#utility.yul\":8357:8375   */\n      tag_406\n      tag_329\n      jump\t// in\n    tag_406:\n        /* \"#utility.yul\":8395:8415   */\n      mul\n      swap4\n        /* \"#utility.yul\":7615:8421   */\n      swap3\n      pop\n      pop\n      pop\n      jump\t// out\n        /* \"#utility.yul\":8426:8557   */\n    tag_225:\n        /* \"#utility.yul\":8486:8491   */\n      0x00\n        /* \"#utility.yul\":8515:8551   */\n      tag_237\n        /* \"#utility.yul\":8542:8550   */\n      dup4\n        /* \"#utility.yul\":8536:8540   */\n      dup4\n        /* \"#utility.yul\":8515:8551   */\n      tag_331\n      jump\t// in\n        /* \"#utility.yul\":8562:8730   */\n    tag_228:\n        /* \"#utility.yul\":8635:8644   */\n      dup1\n      dup3\n      mul\n        /* \"#utility.yul\":8666:8675   */\n      dup2\n      iszero\n        /* \"#utility.yul\":8683:8698   */\n      dup3\n      dup3\n      div\n        /* \"#utility.yul\":8677:8699   */\n      dup5\n      eq\n        /* \"#utility.yul\":8663:8700   */\n      or\n        /* \"#utility.yul\":8653:8724   */\n      tag_186\n      jumpi\n        /* \"#utility.yul\":8704:8722   */\n      tag_186\n      tag_329\n      jump\t// in\n        /* \"#utility.yul\":9014:9291   */\n    tag_238:\n        /* \"#utility.yul\":9081:9087   */\n      0x00\n        /* \"#utility.yul\":9134:9136   */\n      0x20\n        /* \"#utility.yul\":9122:9131   */\n      dup3\n        /* \"#utility.yul\":9113:9120   */\n      dup5\n        /* \"#utility.yul\":9109:9132   */\n      sub\n        /* \"#utility.yul\":9105:9137   */\n      slt\n        /* \"#utility.yul\":9102:9154   */\n      iszero\n      tag_414\n      jumpi\n        /* \"#utility.yul\":9150:9151   */\n      0x00\n        /* \"#utility.yul\":9147:9148   */\n      dup1\n        /* \"#utility.yul\":9140:9152   */\n      revert\n        /* \"#utility.yul\":9102:9154   */\n    tag_414:\n        /* \"#utility.yul\":9182:9191   */\n      dup2\n        /* \"#utility.yul\":9176:9192   */\n      mload\n        /* \"#utility.yul\":9235:9240   */\n      dup1\n        /* \"#utility.yul\":9228:9241   */\n      iszero\n        /* \"#utility.yul\":9221:9242   */\n      iszero\n        /* \"#utility.yul\":9214:9219   */\n      dup2\n        /* \"#utility.yul\":9211:9243   */\n      eq\n        /* \"#utility.yul\":9201:9261   */\n      tag_237\n      jumpi\n        /* \"#utility.yul\":9257:9258   */\n      0x00\n        /* \"#utility.yul\":9254:9255   */\n      dup1\n        /* \"#utility.yul\":9247:9259   */\n      revert\n        /* \"#utility.yul\":9296:9785   */\n    tag_260:\n      sub(shl(0xa0, 0x01), 0x01)\n        /* \"#utility.yul\":9565:9580   */\n      dup6\n      dup2\n      and\n        /* \"#utility.yul\":9547:9581   */\n      dup3\n      mstore\n        /* \"#utility.yul\":9612:9614   */\n      0x20\n        /* \"#utility.yul\":9597:9615   */\n      dup3\n      add\n        /* \"#utility.yul\":9590:9624   */\n      dup6\n      swap1\n      mstore\n        /* \"#utility.yul\":9660:9675   */\n      dup4\n      and\n        /* \"#utility.yul\":9655:9657   */\n      0x40\n        /* \"#utility.yul\":9640:9658   */\n      dup3\n      add\n        /* \"#utility.yul\":9633:9676   */\n      mstore\n        /* \"#utility.yul\":9712:9715   */\n      0x80\n        /* \"#utility.yul\":9707:9709   */\n      0x60\n        /* \"#utility.yul\":9692:9710   */\n      dup3\n      add\n        /* \"#utility.yul\":9685:9716   */\n      dup2\n      swap1\n      mstore\n        /* \"#utility.yul\":9490:9494   */\n      0x00\n      swap1\n        /* \"#utility.yul\":9733:9779   */\n      tag_417\n      swap1\n        /* \"#utility.yul\":9759:9778   */\n      dup4\n      add\n        /* \"#utility.yul\":9751:9757   */\n      dup5\n        /* \"#utility.yul\":9733:9779   */\n      tag_326\n      jump\t// in\n    tag_417:\n        /* \"#utility.yul\":9725:9779   */\n      swap7\n        /* \"#utility.yul\":9296:9785   */\n      swap6\n      pop\n      pop\n      pop\n      pop\n      pop\n      pop\n      jump\t// out\n        /* \"#utility.yul\":9790:9917   */\n    tag_332:\n        /* \"#utility.yul\":9851:9861   */\n      0x4e487b71\n        /* \"#utility.yul\":9846:9849   */\n      0xe0\n        /* \"#utility.yul\":9842:9862   */\n      shl\n        /* \"#utility.yul\":9839:9840   */\n      0x00\n        /* \"#utility.yul\":9832:9863   */\n      mstore\n        /* \"#utility.yul\":9882:9886   */\n      0x12\n        /* \"#utility.yul\":9879:9880   */\n      0x04\n        /* \"#utility.yul\":9872:9887   */\n      mstore\n        /* \"#utility.yul\":9906:9910   */\n      0x24\n        /* \"#utility.yul\":9903:9904   */\n      0x00\n        /* \"#utility.yul\":9896:9911   */\n      revert\n        /* \"#utility.yul\":9922:10042   */\n    tag_271:\n        /* \"#utility.yul\":9962:9963   */\n      0x00\n        /* \"#utility.yul\":9988:9989   */\n      dup3\n        /* \"#utility.yul\":9978:10013   */\n      tag_421\n      jumpi\n        /* \"#utility.yul\":9993:10011   */\n      tag_421\n      tag_332\n      jump\t// in\n    tag_421:\n      pop\n        /* \"#utility.yul\":10027:10036   */\n      div\n      swap1\n        /* \"#utility.yul\":9922:10042   */\n      jump\t// out\n        /* \"#utility.yul\":10047:10172   */\n    tag_274:\n        /* \"#utility.yul\":10112:10121   */\n      dup1\n      dup3\n      add\n        /* \"#utility.yul\":10133:10143   */\n      dup1\n      dup3\n      gt\n        /* \"#utility.yul\":10130:10166   */\n      iszero\n      tag_186\n      jumpi\n        /* \"#utility.yul\":10146:10164   */\n      tag_186\n      tag_329\n      jump\t// in\n        /* \"#utility.yul\":10177:10289   */\n    tag_288:\n        /* \"#utility.yul\":10209:10210   */\n      0x00\n        /* \"#utility.yul\":10235:10236   */\n      dup3\n        /* \"#utility.yul\":10225:10260   */\n      tag_427\n      jumpi\n        /* \"#utility.yul\":10240:10258   */\n      tag_427\n      tag_332\n      jump\t// in\n    tag_427:\n      pop\n        /* \"#utility.yul\":10274:10283   */\n      mod\n      swap1\n        /* \"#utility.yul\":10177:10289   */\n      jump\t// out\n\n    auxdata: 0xa2646970667358221220f9b59d954dcea01f47c5fa2e130de15c286fce8987c4ff3bde8cda815296c0c464736f6c63430008180033\n}\n",
				"bytecode": {
					"linkReferences": {},
					"object": "60806040526107e060085562010000600955600160e01b600a556012805460ff191690553480156200002f575f80fd5b505f80546001600160a01b03191633179055604080518082019091526005815264424e42544360d81b60208201526002906200006c908262000499565b5060405180606001604052806028815260200162001a5e6028913960039062000096908262000499565b506004805460ff19166008908117909155620000b490600a62000672565b620000c4906301406f406200067f565b60055560125460ff1615620000d7575f80fd5b6012805460ff191660011790555f6014819055600d55600554620000fd9060026200011a565b600e55600a54600b5543600655620001146200013a565b62000705565b5f80821162000127575f80fd5b620001338284620006ad565b9392505050565b600e54620001556200014b62000204565b6014549062000246565b1180156200016557506027600d54105b156200017f57600d546200017b906001620006c3565b600d555b620001ab600d546001620001949190620006c3565b620001a190600262000672565b600554906200011a565b600554620001ba9190620006d9565b600e55600754620001cd90600162000246565b6007819055600854620001e091620006ef565b5f03620001f157620001f162000268565b620001fe600143620006d9565b40600c55565b5f62000241600d5460026200021a919062000672565b6004546200022d9060ff16600a62000672565b6200023a9060326200067f565b906200011a565b905090565b5f620002538284620006c3565b90508281101562000262575f80fd5b92915050565b5f60065443620002799190620006d9565b6008549091505f6200028d8260c86200067f565b9050808310156200030a575f620002ab846200023a84606462000399565b90505f620002c96103e8620002c2846064620003c9565b90620003e3565b9050620002fe620002f482620002ed6107d0600b546200011a60201b90919060201c565b9062000399565b600b5490620003c9565b600b5550620003689050565b5f6200031d826200023a86606462000399565b90505f620003346103e8620002c2846064620003c9565b9050620003626200035882620002ed6107d0600b546200011a60201b90919060201c565b600b549062000246565b600b5550505b43600655600954600b5410156200038057600954600b555b600a54600b5411156200039457600a54600b555b505050565b5f620003a682846200067f565b9050821580620003c0575081620003be8483620006ad565b145b62000262575f80fd5b5f82821115620003d7575f80fd5b620001338284620006d9565b5f81831115620003f557508062000262565b5090919050565b634e487b7160e01b5f52604160045260245ffd5b600181811c908216806200042557607f821691505b6020821081036200044457634e487b7160e01b5f52602260045260245ffd5b50919050565b601f8211156200039457805f5260205f20601f840160051c81016020851015620004715750805b601f840160051c820191505b8181101562000492575f81556001016200047d565b5050505050565b81516001600160401b03811115620004b557620004b5620003fc565b620004cd81620004c6845462000410565b846200044a565b602080601f83116001811462000503575f8415620004eb5750858301515b5f19600386901b1c1916600185901b1785556200055d565b5f85815260208120601f198616915b82811015620005335788860151825594840194600190910190840162000512565b50858210156200055157878501515f19600388901b60f8161c191681555b505060018460011b0185555b505050505050565b634e487b7160e01b5f52601160045260245ffd5b600181815b80851115620005b957815f19048211156200059d576200059d62000565565b80851615620005ab57918102915b93841c93908002906200057e565b509250929050565b5f82620005d15750600162000262565b81620005df57505f62000262565b8160018114620005f85760028114620006035762000623565b600191505062000262565b60ff84111562000617576200061762000565565b50506001821b62000262565b5060208310610133831016604e8410600b841016171562000648575081810a62000262565b62000654838362000579565b805f19048211156200066a576200066a62000565565b029392505050565b5f620001338383620005c1565b808202811582820484141762000262576200026262000565565b634e487b7160e01b5f52601260045260245ffd5b5f82620006be57620006be62000699565b500490565b8082018082111562000262576200026262000565565b8181038181111562000262576200026262000565565b5f8262000700576200070062000699565b500690565b61134b80620007135f395ff3fe608060405234801561000f575f80fd5b506004361061021e575f3560e01c806379ba50971161012a5780639e37273b116100b4578063cb9ae70711610079578063cb9ae70714610427578063d4ee1d9014610430578063dc6e9cf914610443578063dd62ed3e1461044c578063f2fde38b14610484575f80fd5b80639e37273b146103dc578063a9059cbb146103ef578063b5ade81b14610402578063bafedcaa1461040b578063cae9ca5114610414575f80fd5b8063893d20e8116100fa578063893d20e8146103a05780638a769d35146103b05780638ae0368b146103b95780638da5cb5b146103c257806395d89b41146103d4575f80fd5b806379ba50971461037157806381269a561461037b578063829965cc1461038e57806387a2a9d614610397575f80fd5b806332e99708116101ab5780634fa972e11161017b5780634fa972e1146102f9578063660e67a5146103025780636de9f32b146103155780636fd396d61461031e57806370a0823114610349575f80fd5b806332e99708146102d85780633eaaf86b146102e0578063490203a7146102e95780634ef37628146102f1575f80fd5b806318160ddd116101f157806318160ddd1461028c57806323b872dd146102945780632979f8e3146102a75780632d38bf7a146102b0578063313ce567146102b9575f80fd5b806306fdde0314610222578063095ea7b31461024057806317da485f146102635780631801fbe514610279575b5f80fd5b61022a610497565b6040516102379190610ee5565b60405180910390f35b61025361024e366004610f12565b610523565b6040519015158152602001610237565b61026b61058f565b604051908152602001610237565b610253610287366004610f3a565b6105ac565b61026b6107c8565b6102536102a2366004610f5a565b610800565b61026b60115481565b61026b600d5481565b6004546102c69060ff1681565b60405160ff9091168152602001610237565b600b5461026b565b61026b60055481565b61026b6108fa565b600c5461026b565b61026b600e5481565b610253610310366004610f12565b61092f565b61026b60145481565b600f54610331906001600160a01b031681565b6040516001600160a01b039091168152602001610237565b61026b610357366004610f93565b6001600160a01b03165f9081526015602052604090205490565b6103796109bf565b005b610253610389366004610fac565b610a37565b61026b60075481565b61026b600a5481565b5f546001600160a01b0316610331565b61026b600b5481565b61026b600c5481565b5f54610331906001600160a01b031681565b61022a610a7f565b61026b6103ea366004610f3a565b610a8c565b6102536103fd366004610f12565b610ac3565b61026b60085481565b61026b60105481565b610253610422366004610fef565b610b57565b61026b60065481565b600154610331906001600160a01b031681565b61026b60095481565b61026b61045a3660046110b3565b6001600160a01b039182165f90815260166020908152604080832093909416825291909152205490565b610379610492366004610f93565b610c22565b600380546104a4906110e4565b80601f01602080910402602001604051908101604052809291908181526020018280546104d0906110e4565b801561051b5780601f106104f25761010080835404028352916020019161051b565b820191905f5260205f20905b8154815290600101906020018083116104fe57829003601f168201915b505050505081565b335f8181526016602090815260408083206001600160a01b038716808552925280832085905551919290917f8c5be1e5ebec7d5bd14f71427d1e84f3dd0314c0f7b2291e5b200ac8c7c3b9259061057d9086815260200190565b60405180910390a35060015b92915050565b5f6105a7600b54600a54610c5990919063ffffffff16565b905090565b5f80600c5433856040516020016105c59392919061111c565b6040516020818303038152906040528051906020012090508281146106265760405162461bcd60e51b815260206004820152601260248201527120556e6d617463686564206469676573742160701b60448201526064015b60405180910390fd5b600b54811161068c5760405162461bcd60e51b815260206004820152602c60248201527f4469676573742073686f756c64206265206c657373207468616e20746865206d60448201526b1a5b9a5b99c81d185c99d95d60a21b606482015260840161061d565b600c545f90815260136020526040902080549082905580156106ac575f80fd5b5f6106b56108fa565b335f908152601560205260409020549091506106d19082610c6f565b335f908152601560205260409020556014546106ed9082610c6f565b6014819055600e5410156107525760405162461bcd60e51b815260206004820152602660248201527f4c696d697420666f72207468652063757272656e74206572612068617320726560448201526561636865642160d01b606482015260840161061d565b600f80546001600160a01b03191633179055601081905543601155610775610c88565b600754600c5460408051848152602081019390935282015233907fcf6fbb9dcea7d07263ab4f5c3a92f53af33dffc421d9d121e1c74b307e68189d9060600160405180910390a250600195945050505050565b5f80805260156020527fa31547ce6245cdb9ecea19cf8c7eb9f5974025bb4075011409251ae855b30aed546005546105a79190611158565b6001600160a01b0383165f908152601560205260408120546108229083610d39565b6001600160a01b0385165f9081526015602090815260408083209390935560168152828220338352905220546108589083610d39565b6001600160a01b038086165f9081526016602090815260408083203384528252808320949094559186168152601590915220546108959083610c6f565b6001600160a01b038085165f8181526015602052604090819020939093559151908616907fddf252ad1be2c89b69c2b068fc378daa952ba7f163c4a11628f55a4df523b3ef906108e89086815260200190565b60405180910390a35060019392505050565b5f6105a7600d54600261090d919061124b565b60045461091e9060ff16600a61124b565b610929906032611256565b90610c59565b5f80546001600160a01b03163314610945575f80fd5b5f5460405163a9059cbb60e01b81526001600160a01b039182166004820152602481018490529084169063a9059cbb906044016020604051808303815f875af1158015610994573d5f803e3d5ffd5b505050506040513d601f19601f820116820180604052508101906109b8919061126d565b9392505050565b6001546001600160a01b031633146109d5575f80fd5b6001545f80546040516001600160a01b0393841693909116917f8be0079c531659141344cd1fd0a4f28419497f9722a3daafe3b4186f6b6457e091a3600180545f80546001600160a01b03199081166001600160a01b03841617909155169055565b5f80833387604051602001610a4e9392919061111c565b60405160208183030381529060405280519060200120905082815f1c1115610a74575f80fd5b909314949350505050565b600280546104a4906110e4565b5f80823385604051602001610aa39392919061111c565b60408051808303601f190181529190528051602090910120949350505050565b335f90815260156020526040812054610adc9083610d39565b335f90815260156020526040808220929092556001600160a01b03851681522054610b079083610c6f565b6001600160a01b0384165f818152601560205260409081902092909255905133907fddf252ad1be2c89b69c2b068fc378daa952ba7f163c4a11628f55a4df523b3ef9061057d9086815260200190565b335f8181526016602090815260408083206001600160a01b038816808552925280832086905551919290917f8c5be1e5ebec7d5bd14f71427d1e84f3dd0314c0f7b2291e5b200ac8c7c3b92590610bb19087815260200190565b60405180910390a3604051638f4ffcb160e01b81526001600160a01b03851690638f4ffcb190610beb90339087903090889060040161128c565b5f604051808303815f87803b158015610c02575f80fd5b505af1158015610c14573d5f803e3d5ffd5b506001979650505050505050565b5f546001600160a01b03163314610c37575f80fd5b600180546001600160a01b0319166001600160a01b0392909216919091179055565b5f808211610c65575f80fd5b6109b882846112dc565b5f610c7a82846112ef565b905082811015610589575f80fd5b600e54610c9f610c966108fa565b60145490610c6f565b118015610cae57506027600d54105b15610cc557600d54610cc19060016112ef565b600d555b610ceb600d546001610cd791906112ef565b610ce290600261124b565b60055490610c59565b600554610cf89190611158565b600e55600754610d09906001610c6f565b6007819055600854610d1a91611302565b5f03610d2857610d28610d50565b610d33600143611158565b40600c55565b5f82821115610d46575f80fd5b6109b88284611158565b5f60065443610d5f9190611158565b6008549091505f610d718260c8611256565b905080831015610ddf575f610d8b84610929846064610e61565b90505f610da56103e8610d9f846064610d39565b90610e8b565b9050610dd4610dcb82610dc56107d0600b54610c5990919063ffffffff16565b90610e61565b600b5490610d39565b600b5550610e329050565b5f610def82610929866064610e61565b90505f610e036103e8610d9f846064610d39565b9050610e2c610e2382610dc56107d0600b54610c5990919063ffffffff16565b600b5490610c6f565b600b5550505b43600655600954600b541015610e4957600954600b555b600a54600b541115610e5c57600a54600b555b505050565b5f610e6c8284611256565b9050821580610e83575081610e8184836112dc565b145b610589575f80fd5b5f81831115610e9b575080610589565b5090919050565b5f81518084525f5b81811015610ec657602081850181015186830182015201610eaa565b505f602082860101526020601f19601f83011685010191505092915050565b602081525f6109b86020830184610ea2565b80356001600160a01b0381168114610f0d575f80fd5b919050565b5f8060408385031215610f23575f80fd5b610f2c83610ef7565b946020939093013593505050565b5f8060408385031215610f4b575f80fd5b50508035926020909101359150565b5f805f60608486031215610f6c575f80fd5b610f7584610ef7565b9250610f8360208501610ef7565b9150604084013590509250925092565b5f60208284031215610fa3575f80fd5b6109b882610ef7565b5f805f8060808587031215610fbf575f80fd5b5050823594602084013594506040840135936060013592509050565b634e487b7160e01b5f52604160045260245ffd5b5f805f60608486031215611001575f80fd5b61100a84610ef7565b925060208401359150604084013567ffffffffffffffff8082111561102d575f80fd5b818601915086601f830112611040575f80fd5b81358181111561105257611052610fdb565b604051601f8201601f19908116603f0116810190838211818310171561107a5761107a610fdb565b81604052828152896020848701011115611092575f80fd5b826020860160208301375f6020848301015280955050505050509250925092565b5f80604083850312156110c4575f80fd5b6110cd83610ef7565b91506110db60208401610ef7565b90509250929050565b600181811c908216806110f857607f821691505b60208210810361111657634e487b7160e01b5f52602260045260245ffd5b50919050565b92835260609190911b6bffffffffffffffffffffffff19166020830152603482015260540190565b634e487b7160e01b5f52601160045260245ffd5b8181038181111561058957610589611144565b600181815b808511156111a557815f190482111561118b5761118b611144565b8085161561119857918102915b93841c9390800290611170565b509250929050565b5f826111bb57506001610589565b816111c757505f610589565b81600181146111dd57600281146111e757611203565b6001915050610589565b60ff8411156111f8576111f8611144565b50506001821b610589565b5060208310610133831016604e8410600b8410161715611226575081810a610589565b611230838361116b565b805f190482111561124357611243611144565b029392505050565b5f6109b883836111ad565b808202811582820484141761058957610589611144565b5f6020828403121561127d575f80fd5b815180151581146109b8575f80fd5b6001600160a01b03858116825260208201859052831660408201526080606082018190525f906112be90830184610ea2565b9695505050505050565b634e487b7160e01b5f52601260045260245ffd5b5f826112ea576112ea6112c8565b500490565b8082018082111561058957610589611144565b5f82611310576113106112c8565b50069056fea2646970667358221220f9b59d954dcea01f47c5fa2e130de15c286fce8987c4ff3bde8cda815296c0c464736f6c63430008180033424e626974636f696e20546f6b656e202d206d696e61626c6520626974636f696e206f6e20425343",
					"opcodes": "PUSH1 0x80 PUSH1 0x40 MSTORE PUSH2 0x7E0 PUSH1 0x8 SSTORE PUSH3 0x10000 PUSH1 0x9 SSTORE PUSH1 0x1 PUSH1 0xE0 SHL PUSH1 0xA SSTORE PUSH1 0x12 DUP1 SLOAD PUSH1 0xFF NOT AND SWAP1 SSTORE CALLVALUE DUP1 ISZERO PUSH3 0x2F JUMPI PUSH0 DUP1 REVERT JUMPDEST POP PUSH0 DUP1 SLOAD PUSH1 0x1 PUSH1 0x1 PUSH1 0xA0 SHL SUB NOT AND CALLER OR SWAP1 SSTORE PUSH1 0x40 DUP1 MLOAD DUP1 DUP3 ADD SWAP1 SWAP2 MSTORE PUSH1 0x5 DUP2 MSTORE PUSH5 0x424E425443 PUSH1 0xD8 SHL PUSH1 0x20 DUP3 ADD MSTORE PUSH1 0x2 SWAP1 PUSH3 0x6C SWAP1 DUP3 PUSH3 0x499 JUMP JUMPDEST POP PUSH1 0x40 MLOAD DUP1 PUSH1 0x60 ADD PUSH1 0x40 MSTORE DUP1 PUSH1 0x28 DUP2 MSTORE PUSH1 0x20 ADD PUSH3 0x1A5E PUSH1 0x28 SWAP2 CODECOPY PUSH1 0x3 SWAP1 PUSH3 0x96 SWAP1 DUP3 PUSH3 0x499 JUMP JUMPDEST POP PUSH1 0x4 DUP1 SLOAD PUSH1 0xFF NOT AND PUSH1 0x8 SWAP1 DUP2 OR SWAP1 SWAP2 SSTORE PUSH3 0xB4 SWAP1 PUSH1 0xA PUSH3 0x672 JUMP JUMPDEST PUSH3 0xC4 SWAP1 PUSH4 0x1406F40 PUSH3 0x67F JUMP JUMPDEST PUSH1 0x5 SSTORE PUSH1 0x12 SLOAD PUSH1 0xFF AND ISZERO PUSH3 0xD7 JUMPI PUSH0 DUP1 REVERT JUMPDEST PUSH1 0x12 DUP1 SLOAD PUSH1 0xFF NOT AND PUSH1 0x1 OR SWAP1 SSTORE PUSH0 PUSH1 0x14 DUP2 SWAP1 SSTORE PUSH1 0xD SSTORE PUSH1 0x5 SLOAD PUSH3 0xFD SWAP1 PUSH1 0x2 PUSH3 0x11A JUMP JUMPDEST PUSH1 0xE SSTORE PUSH1 0xA SLOAD PUSH1 0xB SSTORE NUMBER PUSH1 0x6 SSTORE PUSH3 0x114 PUSH3 0x13A JUMP JUMPDEST PUSH3 0x705 JUMP JUMPDEST PUSH0 DUP1 DUP3 GT PUSH3 0x127 JUMPI PUSH0 DUP1 REVERT JUMPDEST PUSH3 0x133 DUP3 DUP5 PUSH3 0x6AD JUMP JUMPDEST SWAP4 SWAP3 POP POP POP JUMP JUMPDEST PUSH1 0xE SLOAD PUSH3 0x155 PUSH3 0x14B PUSH3 0x204 JUMP JUMPDEST PUSH1 0x14 SLOAD SWAP1 PUSH3 0x246 JUMP JUMPDEST GT DUP1 ISZERO PUSH3 0x165 JUMPI POP PUSH1 0x27 PUSH1 0xD SLOAD LT JUMPDEST ISZERO PUSH3 0x17F JUMPI PUSH1 0xD SLOAD PUSH3 0x17B SWAP1 PUSH1 0x1 PUSH3 0x6C3 JUMP JUMPDEST PUSH1 0xD SSTORE JUMPDEST PUSH3 0x1AB PUSH1 0xD SLOAD PUSH1 0x1 PUSH3 0x194 SWAP2 SWAP1 PUSH3 0x6C3 JUMP JUMPDEST PUSH3 0x1A1 SWAP1 PUSH1 0x2 PUSH3 0x672 JUMP JUMPDEST PUSH1 0x5 SLOAD SWAP1 PUSH3 0x11A JUMP JUMPDEST PUSH1 0x5 SLOAD PUSH3 0x1BA SWAP2 SWAP1 PUSH3 0x6D9 JUMP JUMPDEST PUSH1 0xE SSTORE PUSH1 0x7 SLOAD PUSH3 0x1CD SWAP1 PUSH1 0x1 PUSH3 0x246 JUMP JUMPDEST PUSH1 0x7 DUP2 SWAP1 SSTORE PUSH1 0x8 SLOAD PUSH3 0x1E0 SWAP2 PUSH3 0x6EF JUMP JUMPDEST PUSH0 SUB PUSH3 0x1F1 JUMPI PUSH3 0x1F1 PUSH3 0x268 JUMP JUMPDEST PUSH3 0x1FE PUSH1 0x1 NUMBER PUSH3 0x6D9 JUMP JUMPDEST BLOCKHASH PUSH1 0xC SSTORE JUMP JUMPDEST PUSH0 PUSH3 0x241 PUSH1 0xD SLOAD PUSH1 0x2 PUSH3 0x21A SWAP2 SWAP1 PUSH3 0x672 JUMP JUMPDEST PUSH1 0x4 SLOAD PUSH3 0x22D SWAP1 PUSH1 0xFF AND PUSH1 0xA PUSH3 0x672 JUMP JUMPDEST PUSH3 0x23A SWAP1 PUSH1 0x32 PUSH3 0x67F JUMP JUMPDEST SWAP1 PUSH3 0x11A JUMP JUMPDEST SWAP1 POP SWAP1 JUMP JUMPDEST PUSH0 PUSH3 0x253 DUP3 DUP5 PUSH3 0x6C3 JUMP JUMPDEST SWAP1 POP DUP3 DUP2 LT ISZERO PUSH3 0x262 JUMPI PUSH0 DUP1 REVERT JUMPDEST SWAP3 SWAP2 POP POP JUMP JUMPDEST PUSH0 PUSH1 0x6 SLOAD NUMBER PUSH3 0x279 SWAP2 SWAP1 PUSH3 0x6D9 JUMP JUMPDEST PUSH1 0x8 SLOAD SWAP1 SWAP2 POP PUSH0 PUSH3 0x28D DUP3 PUSH1 0xC8 PUSH3 0x67F JUMP JUMPDEST SWAP1 POP DUP1 DUP4 LT ISZERO PUSH3 0x30A JUMPI PUSH0 PUSH3 0x2AB DUP5 PUSH3 0x23A DUP5 PUSH1 0x64 PUSH3 0x399 JUMP JUMPDEST SWAP1 POP PUSH0 PUSH3 0x2C9 PUSH2 0x3E8 PUSH3 0x2C2 DUP5 PUSH1 0x64 PUSH3 0x3C9 JUMP JUMPDEST SWAP1 PUSH3 0x3E3 JUMP JUMPDEST SWAP1 POP PUSH3 0x2FE PUSH3 0x2F4 DUP3 PUSH3 0x2ED PUSH2 0x7D0 PUSH1 0xB SLOAD PUSH3 0x11A PUSH1 0x20 SHL SWAP1 SWAP2 SWAP1 PUSH1 0x20 SHR JUMP JUMPDEST SWAP1 PUSH3 0x399 JUMP JUMPDEST PUSH1 0xB SLOAD SWAP1 PUSH3 0x3C9 JUMP JUMPDEST PUSH1 0xB SSTORE POP PUSH3 0x368 SWAP1 POP JUMP JUMPDEST PUSH0 PUSH3 0x31D DUP3 PUSH3 0x23A DUP7 PUSH1 0x64 PUSH3 0x399 JUMP JUMPDEST SWAP1 POP PUSH0 PUSH3 0x334 PUSH2 0x3E8 PUSH3 0x2C2 DUP5 PUSH1 0x64 PUSH3 0x3C9 JUMP JUMPDEST SWAP1 POP PUSH3 0x362 PUSH3 0x358 DUP3 PUSH3 0x2ED PUSH2 0x7D0 PUSH1 0xB SLOAD PUSH3 0x11A PUSH1 0x20 SHL SWAP1 SWAP2 SWAP1 PUSH1 0x20 SHR JUMP JUMPDEST PUSH1 0xB SLOAD SWAP1 PUSH3 0x246 JUMP JUMPDEST PUSH1 0xB SSTORE POP POP JUMPDEST NUMBER PUSH1 0x6 SSTORE PUSH1 0x9 SLOAD PUSH1 0xB SLOAD LT ISZERO PUSH3 0x380 JUMPI PUSH1 0x9 SLOAD PUSH1 0xB SSTORE JUMPDEST PUSH1 0xA SLOAD PUSH1 0xB SLOAD GT ISZERO PUSH3 0x394 JUMPI PUSH1 0xA SLOAD PUSH1 0xB SSTORE JUMPDEST POP POP POP JUMP JUMPDEST PUSH0 PUSH3 0x3A6 DUP3 DUP5 PUSH3 0x67F JUMP JUMPDEST SWAP1 POP DUP3 ISZERO DUP1 PUSH3 0x3C0 JUMPI POP DUP2 PUSH3 0x3BE DUP5 DUP4 PUSH3 0x6AD JUMP JUMPDEST EQ JUMPDEST PUSH3 0x262 JUMPI PUSH0 DUP1 REVERT JUMPDEST PUSH0 DUP3 DUP3 GT ISZERO PUSH3 0x3D7 JUMPI PUSH0 DUP1 REVERT JUMPDEST PUSH3 0x133 DUP3 DUP5 PUSH3 0x6D9 JUMP JUMPDEST PUSH0 DUP2 DUP4 GT ISZERO PUSH3 0x3F5 JUMPI POP DUP1 PUSH3 0x262 JUMP JUMPDEST POP SWAP1 SWAP2 SWAP1 POP JUMP JUMPDEST PUSH4 0x4E487B71 PUSH1 0xE0 SHL PUSH0 MSTORE PUSH1 0x41 PUSH1 0x4 MSTORE PUSH1 0x24 PUSH0 REVERT JUMPDEST PUSH1 0x1 DUP2 DUP2 SHR SWAP1 DUP3 AND DUP1 PUSH3 0x425 JUMPI PUSH1 0x7F DUP3 AND SWAP2 POP JUMPDEST PUSH1 0x20 DUP3 LT DUP2 SUB PUSH3 0x444 JUMPI PUSH4 0x4E487B71 PUSH1 0xE0 SHL PUSH0 MSTORE PUSH1 0x22 PUSH1 0x4 MSTORE PUSH1 0x24 PUSH0 REVERT JUMPDEST POP SWAP2 SWAP1 POP JUMP JUMPDEST PUSH1 0x1F DUP3 GT ISZERO PUSH3 0x394 JUMPI DUP1 PUSH0 MSTORE PUSH1 0x20 PUSH0 KECCAK256 PUSH1 0x1F DUP5 ADD PUSH1 0x5 SHR DUP2 ADD PUSH1 0x20 DUP6 LT ISZERO PUSH3 0x471 JUMPI POP DUP1 JUMPDEST PUSH1 0x1F DUP5 ADD PUSH1 0x5 SHR DUP3 ADD SWAP2 POP JUMPDEST DUP2 DUP2 LT ISZERO PUSH3 0x492 JUMPI PUSH0 DUP2 SSTORE PUSH1 0x1 ADD PUSH3 0x47D JUMP JUMPDEST POP POP POP POP POP JUMP JUMPDEST DUP2 MLOAD PUSH1 0x1 PUSH1 0x1 PUSH1 0x40 SHL SUB DUP2 GT ISZERO PUSH3 0x4B5 JUMPI PUSH3 0x4B5 PUSH3 0x3FC JUMP JUMPDEST PUSH3 0x4CD DUP2 PUSH3 0x4C6 DUP5 SLOAD PUSH3 0x410 JUMP JUMPDEST DUP5 PUSH3 0x44A JUMP JUMPDEST PUSH1 0x20 DUP1 PUSH1 0x1F DUP4 GT PUSH1 0x1 DUP2 EQ PUSH3 0x503 JUMPI PUSH0 DUP5 ISZERO PUSH3 0x4EB JUMPI POP DUP6 DUP4 ADD MLOAD JUMPDEST PUSH0 NOT PUSH1 0x3 DUP7 SWAP1 SHL SHR NOT AND PUSH1 0x1 DUP6 SWAP1 SHL OR DUP6 SSTORE PUSH3 0x55D JUMP JUMPDEST PUSH0 DUP6 DUP2 MSTORE PUSH1 0x20 DUP2 KECCAK256 PUSH1 0x1F NOT DUP7 AND SWAP2 JUMPDEST DUP3 DUP2 LT ISZERO PUSH3 0x533 JUMPI DUP9 DUP7 ADD MLOAD DUP3 SSTORE SWAP5 DUP5 ADD SWAP5 PUSH1 0x1 SWAP1 SWAP2 ADD SWAP1 DUP5 ADD PUSH3 0x512 JUMP JUMPDEST POP DUP6 DUP3 LT ISZERO PUSH3 0x551 JUMPI DUP8 DUP6 ADD MLOAD PUSH0 NOT PUSH1 0x3 DUP9 SWAP1 SHL PUSH1 0xF8 AND SHR NOT AND DUP2 SSTORE JUMPDEST POP POP PUSH1 0x1 DUP5 PUSH1 0x1 SHL ADD DUP6 SSTORE JUMPDEST POP POP POP POP POP POP JUMP JUMPDEST PUSH4 0x4E487B71 PUSH1 0xE0 SHL PUSH0 MSTORE PUSH1 0x11 PUSH1 0x4 MSTORE PUSH1 0x24 PUSH0 REVERT JUMPDEST PUSH1 0x1 DUP2 DUP2 JUMPDEST DUP1 DUP6 GT ISZERO PUSH3 0x5B9 JUMPI DUP2 PUSH0 NOT DIV DUP3 GT ISZERO PUSH3 0x59D JUMPI PUSH3 0x59D PUSH3 0x565 JUMP JUMPDEST DUP1 DUP6 AND ISZERO PUSH3 0x5AB JUMPI SWAP2 DUP2 MUL SWAP2 JUMPDEST SWAP4 DUP5 SHR SWAP4 SWAP1 DUP1 MUL SWAP1 PUSH3 0x57E JUMP JUMPDEST POP SWAP3 POP SWAP3 SWAP1 POP JUMP JUMPDEST PUSH0 DUP3 PUSH3 0x5D1 JUMPI POP PUSH1 0x1 PUSH3 0x262 JUMP JUMPDEST DUP2 PUSH3 0x5DF JUMPI POP PUSH0 PUSH3 0x262 JUMP JUMPDEST DUP2 PUSH1 0x1 DUP2 EQ PUSH3 0x5F8 JUMPI PUSH1 0x2 DUP2 EQ PUSH3 0x603 JUMPI PUSH3 0x623 JUMP JUMPDEST PUSH1 0x1 SWAP2 POP POP PUSH3 0x262 JUMP JUMPDEST PUSH1 0xFF DUP5 GT ISZERO PUSH3 0x617 JUMPI PUSH3 0x617 PUSH3 0x565 JUMP JUMPDEST POP POP PUSH1 0x1 DUP3 SHL PUSH3 0x262 JUMP JUMPDEST POP PUSH1 0x20 DUP4 LT PUSH2 0x133 DUP4 LT AND PUSH1 0x4E DUP5 LT PUSH1 0xB DUP5 LT AND OR ISZERO PUSH3 0x648 JUMPI POP DUP2 DUP2 EXP PUSH3 0x262 JUMP JUMPDEST PUSH3 0x654 DUP4 DUP4 PUSH3 0x579 JUMP JUMPDEST DUP1 PUSH0 NOT DIV DUP3 GT ISZERO PUSH3 0x66A JUMPI PUSH3 0x66A PUSH3 0x565 JUMP JUMPDEST MUL SWAP4 SWAP3 POP POP POP JUMP JUMPDEST PUSH0 PUSH3 0x133 DUP4 DUP4 PUSH3 0x5C1 JUMP JUMPDEST DUP1 DUP3 MUL DUP2 ISZERO DUP3 DUP3 DIV DUP5 EQ OR PUSH3 0x262 JUMPI PUSH3 0x262 PUSH3 0x565 JUMP JUMPDEST PUSH4 0x4E487B71 PUSH1 0xE0 SHL PUSH0 MSTORE PUSH1 0x12 PUSH1 0x4 MSTORE PUSH1 0x24 PUSH0 REVERT JUMPDEST PUSH0 DUP3 PUSH3 0x6BE JUMPI PUSH3 0x6BE PUSH3 0x699 JUMP JUMPDEST POP DIV SWAP1 JUMP JUMPDEST DUP1 DUP3 ADD DUP1 DUP3 GT ISZERO PUSH3 0x262 JUMPI PUSH3 0x262 PUSH3 0x565 JUMP JUMPDEST DUP2 DUP2 SUB DUP2 DUP2 GT ISZERO PUSH3 0x262 JUMPI PUSH3 0x262 PUSH3 0x565 JUMP JUMPDEST PUSH0 DUP3 PUSH3 0x700 JUMPI PUSH3 0x700 PUSH3 0x699 JUMP JUMPDEST POP MOD SWAP1 JUMP JUMPDEST PUSH2 0x134B DUP1 PUSH3 0x713 PUSH0 CODECOPY PUSH0 RETURN INVALID PUSH1 0x80 PUSH1 0x40 MSTORE CALLVALUE DUP1 ISZERO PUSH2 0xF JUMPI PUSH0 DUP1 REVERT JUMPDEST POP PUSH1 0x4 CALLDATASIZE LT PUSH2 0x21E JUMPI PUSH0 CALLDATALOAD PUSH1 0xE0 SHR DUP1 PUSH4 0x79BA5097 GT PUSH2 0x12A JUMPI DUP1 PUSH4 0x9E37273B GT PUSH2 0xB4 JUMPI DUP1 PUSH4 0xCB9AE707 GT PUSH2 0x79 JUMPI DUP1 PUSH4 0xCB9AE707 EQ PUSH2 0x427 JUMPI DUP1 PUSH4 0xD4EE1D90 EQ PUSH2 0x430 JUMPI DUP1 PUSH4 0xDC6E9CF9 EQ PUSH2 0x443 JUMPI DUP1 PUSH4 0xDD62ED3E EQ PUSH2 0x44C JUMPI DUP1 PUSH4 0xF2FDE38B EQ PUSH2 0x484 JUMPI PUSH0 DUP1 REVERT JUMPDEST DUP1 PUSH4 0x9E37273B EQ PUSH2 0x3DC JUMPI DUP1 PUSH4 0xA9059CBB EQ PUSH2 0x3EF JUMPI DUP1 PUSH4 0xB5ADE81B EQ PUSH2 0x402 JUMPI DUP1 PUSH4 0xBAFEDCAA EQ PUSH2 0x40B JUMPI DUP1 PUSH4 0xCAE9CA51 EQ PUSH2 0x414 JUMPI PUSH0 DUP1 REVERT JUMPDEST DUP1 PUSH4 0x893D20E8 GT PUSH2 0xFA JUMPI DUP1 PUSH4 0x893D20E8 EQ PUSH2 0x3A0 JUMPI DUP1 PUSH4 0x8A769D35 EQ PUSH2 0x3B0 JUMPI DUP1 PUSH4 0x8AE0368B EQ PUSH2 0x3B9 JUMPI DUP1 PUSH4 0x8DA5CB5B EQ PUSH2 0x3C2 JUMPI DUP1 PUSH4 0x95D89B41 EQ PUSH2 0x3D4 JUMPI PUSH0 DUP1 REVERT JUMPDEST DUP1 PUSH4 0x79BA5097 EQ PUSH2 0x371 JUMPI DUP1 PUSH4 0x81269A56 EQ PUSH2 0x37B JUMPI DUP1 PUSH4 0x829965CC EQ PUSH2 0x38E JUMPI DUP1 PUSH4 0x87A2A9D6 EQ PUSH2 0x397 JUMPI PUSH0 DUP1 REVERT JUMPDEST DUP1 PUSH4 0x32E99708 GT PUSH2 0x1AB JUMPI DUP1 PUSH4 0x4FA972E1 GT PUSH2 0x17B JUMPI DUP1 PUSH4 0x4FA972E1 EQ PUSH2 0x2F9 JUMPI DUP1 PUSH4 0x660E67A5 EQ PUSH2 0x302 JUMPI DUP1 PUSH4 0x6DE9F32B EQ PUSH2 0x315 JUMPI DUP1 PUSH4 0x6FD396D6 EQ PUSH2 0x31E JUMPI DUP1 PUSH4 0x70A08231 EQ PUSH2 0x349 JUMPI PUSH0 DUP1 REVERT JUMPDEST DUP1 PUSH4 0x32E99708 EQ PUSH2 0x2D8 JUMPI DUP1 PUSH4 0x3EAAF86B EQ PUSH2 0x2E0 JUMPI DUP1 PUSH4 0x490203A7 EQ PUSH2 0x2E9 JUMPI DUP1 PUSH4 0x4EF37628 EQ PUSH2 0x2F1 JUMPI PUSH0 DUP1 REVERT JUMPDEST DUP1 PUSH4 0x18160DDD GT PUSH2 0x1F1 JUMPI DUP1 PUSH4 0x18160DDD EQ PUSH2 0x28C JUMPI DUP1 PUSH4 0x23B872DD EQ PUSH2 0x294 JUMPI DUP1 PUSH4 0x2979F8E3 EQ PUSH2 0x2A7 JUMPI DUP1 PUSH4 0x2D38BF7A EQ PUSH2 0x2B0 JUMPI DUP1 PUSH4 0x313CE567 EQ PUSH2 0x2B9 JUMPI PUSH0 DUP1 REVERT JUMPDEST DUP1 PUSH4 0x6FDDE03 EQ PUSH2 0x222 JUMPI DUP1 PUSH4 0x95EA7B3 EQ PUSH2 0x240 JUMPI DUP1 PUSH4 0x17DA485F EQ PUSH2 0x263 JUMPI DUP1 PUSH4 0x1801FBE5 EQ PUSH2 0x279 JUMPI JUMPDEST PUSH0 DUP1 REVERT JUMPDEST PUSH2 0x22A PUSH2 0x497 JUMP JUMPDEST PUSH1 0x40 MLOAD PUSH2 0x237 SWAP2 SWAP1 PUSH2 0xEE5 JUMP JUMPDEST PUSH1 0x40 MLOAD DUP1 SWAP2 SUB SWAP1 RETURN JUMPDEST PUSH2 0x253 PUSH2 0x24E CALLDATASIZE PUSH1 0x4 PUSH2 0xF12 JUMP JUMPDEST PUSH2 0x523 JUMP JUMPDEST PUSH1 0x40 MLOAD SWAP1 ISZERO ISZERO DUP2 MSTORE PUSH1 0x20 ADD PUSH2 0x237 JUMP JUMPDEST PUSH2 0x26B PUSH2 0x58F JUMP JUMPDEST PUSH1 0x40 MLOAD SWAP1 DUP2 MSTORE PUSH1 0x20 ADD PUSH2 0x237 JUMP JUMPDEST PUSH2 0x253 PUSH2 0x287 CALLDATASIZE PUSH1 0x4 PUSH2 0xF3A JUMP JUMPDEST PUSH2 0x5AC JUMP JUMPDEST PUSH2 0x26B PUSH2 0x7C8 JUMP JUMPDEST PUSH2 0x253 PUSH2 0x2A2 CALLDATASIZE PUSH1 0x4 PUSH2 0xF5A JUMP JUMPDEST PUSH2 0x800 JUMP JUMPDEST PUSH2 0x26B PUSH1 0x11 SLOAD DUP2 JUMP JUMPDEST PUSH2 0x26B PUSH1 0xD SLOAD DUP2 JUMP JUMPDEST PUSH1 0x4 SLOAD PUSH2 0x2C6 SWAP1 PUSH1 0xFF AND DUP2 JUMP JUMPDEST PUSH1 0x40 MLOAD PUSH1 0xFF SWAP1 SWAP2 AND DUP2 MSTORE PUSH1 0x20 ADD PUSH2 0x237 JUMP JUMPDEST PUSH1 0xB SLOAD PUSH2 0x26B JUMP JUMPDEST PUSH2 0x26B PUSH1 0x5 SLOAD DUP2 JUMP JUMPDEST PUSH2 0x26B PUSH2 0x8FA JUMP JUMPDEST PUSH1 0xC SLOAD PUSH2 0x26B JUMP JUMPDEST PUSH2 0x26B PUSH1 0xE SLOAD DUP2 JUMP JUMPDEST PUSH2 0x253 PUSH2 0x310 CALLDATASIZE PUSH1 0x4 PUSH2 0xF12 JUMP JUMPDEST PUSH2 0x92F JUMP JUMPDEST PUSH2 0x26B PUSH1 0x14 SLOAD DUP2 JUMP JUMPDEST PUSH1 0xF SLOAD PUSH2 0x331 SWAP1 PUSH1 0x1 PUSH1 0x1 PUSH1 0xA0 SHL SUB AND DUP2 JUMP JUMPDEST PUSH1 0x40 MLOAD PUSH1 0x1 PUSH1 0x1 PUSH1 0xA0 SHL SUB SWAP1 SWAP2 AND DUP2 MSTORE PUSH1 0x20 ADD PUSH2 0x237 JUMP JUMPDEST PUSH2 0x26B PUSH2 0x357 CALLDATASIZE PUSH1 0x4 PUSH2 0xF93 JUMP JUMPDEST PUSH1 0x1 PUSH1 0x1 PUSH1 0xA0 SHL SUB AND PUSH0 SWAP1 DUP2 MSTORE PUSH1 0x15 PUSH1 0x20 MSTORE PUSH1 0x40 SWAP1 KECCAK256 SLOAD SWAP1 JUMP JUMPDEST PUSH2 0x379 PUSH2 0x9BF JUMP JUMPDEST STOP JUMPDEST PUSH2 0x253 PUSH2 0x389 CALLDATASIZE PUSH1 0x4 PUSH2 0xFAC JUMP JUMPDEST PUSH2 0xA37 JUMP JUMPDEST PUSH2 0x26B PUSH1 0x7 SLOAD DUP2 JUMP JUMPDEST PUSH2 0x26B PUSH1 0xA SLOAD DUP2 JUMP JUMPDEST PUSH0 SLOAD PUSH1 0x1 PUSH1 0x1 PUSH1 0xA0 SHL SUB AND PUSH2 0x331 JUMP JUMPDEST PUSH2 0x26B PUSH1 0xB SLOAD DUP2 JUMP JUMPDEST PUSH2 0x26B PUSH1 0xC SLOAD DUP2 JUMP JUMPDEST PUSH0 SLOAD PUSH2 0x331 SWAP1 PUSH1 0x1 PUSH1 0x1 PUSH1 0xA0 SHL SUB AND DUP2 JUMP JUMPDEST PUSH2 0x22A PUSH2 0xA7F JUMP JUMPDEST PUSH2 0x26B PUSH2 0x3EA CALLDATASIZE PUSH1 0x4 PUSH2 0xF3A JUMP JUMPDEST PUSH2 0xA8C JUMP JUMPDEST PUSH2 0x253 PUSH2 0x3FD CALLDATASIZE PUSH1 0x4 PUSH2 0xF12 JUMP JUMPDEST PUSH2 0xAC3 JUMP JUMPDEST PUSH2 0x26B PUSH1 0x8 SLOAD DUP2 JUMP JUMPDEST PUSH2 0x26B PUSH1 0x10 SLOAD DUP2 JUMP JUMPDEST PUSH2 0x253 PUSH2 0x422 CALLDATASIZE PUSH1 0x4 PUSH2 0xFEF JUMP JUMPDEST PUSH2 0xB57 JUMP JUMPDEST PUSH2 0x26B PUSH1 0x6 SLOAD DUP2 JUMP JUMPDEST PUSH1 0x1 SLOAD PUSH2 0x331 SWAP1 PUSH1 0x1 PUSH1 0x1 PUSH1 0xA0 SHL SUB AND DUP2 JUMP JUMPDEST PUSH2 0x26B PUSH1 0x9 SLOAD DUP2 JUMP JUMPDEST PUSH2 0x26B PUSH2 0x45A CALLDATASIZE PUSH1 0x4 PUSH2 0x10B3 JUMP JUMPDEST PUSH1 0x1 PUSH1 0x1 PUSH1 0xA0 SHL SUB SWAP2 DUP3 AND PUSH0 SWAP1 DUP2 MSTORE PUSH1 0x16 PUSH1 0x20 SWAP1 DUP2 MSTORE PUSH1 0x40 DUP1 DUP4 KECCAK256 SWAP4 SWAP1 SWAP5 AND DUP3 MSTORE SWAP2 SWAP1 SWAP2 MSTORE KECCAK256 SLOAD SWAP1 JUMP JUMPDEST PUSH2 0x379 PUSH2 0x492 CALLDATASIZE PUSH1 0x4 PUSH2 0xF93 JUMP JUMPDEST PUSH2 0xC22 JUMP JUMPDEST PUSH1 0x3 DUP1 SLOAD PUSH2 0x4A4 SWAP1 PUSH2 0x10E4 JUMP JUMPDEST DUP1 PUSH1 0x1F ADD PUSH1 0x20 DUP1 SWAP2 DIV MUL PUSH1 0x20 ADD PUSH1 0x40 MLOAD SWAP1 DUP2 ADD PUSH1 0x40 MSTORE DUP1 SWAP3 SWAP2 SWAP1 DUP2 DUP2 MSTORE PUSH1 0x20 ADD DUP3 DUP1 SLOAD PUSH2 0x4D0 SWAP1 PUSH2 0x10E4 JUMP JUMPDEST DUP1 ISZERO PUSH2 0x51B JUMPI DUP1 PUSH1 0x1F LT PUSH2 0x4F2 JUMPI PUSH2 0x100 DUP1 DUP4 SLOAD DIV MUL DUP4 MSTORE SWAP2 PUSH1 0x20 ADD SWAP2 PUSH2 0x51B JUMP JUMPDEST DUP3 ADD SWAP2 SWAP1 PUSH0 MSTORE PUSH1 0x20 PUSH0 KECCAK256 SWAP1 JUMPDEST DUP2 SLOAD DUP2 MSTORE SWAP1 PUSH1 0x1 ADD SWAP1 PUSH1 0x20 ADD DUP1 DUP4 GT PUSH2 0x4FE JUMPI DUP3 SWAP1 SUB PUSH1 0x1F AND DUP3 ADD SWAP2 JUMPDEST POP POP POP POP POP DUP2 JUMP JUMPDEST CALLER PUSH0 DUP2 DUP2 MSTORE PUSH1 0x16 PUSH1 0x20 SWAP1 DUP2 MSTORE PUSH1 0x40 DUP1 DUP4 KECCAK256 PUSH1 0x1 PUSH1 0x1 PUSH1 0xA0 SHL SUB DUP8 AND DUP1 DUP6 MSTORE SWAP3 MSTORE DUP1 DUP4 KECCAK256 DUP6 SWAP1 SSTORE MLOAD SWAP2 SWAP3 SWAP1 SWAP2 PUSH32 0x8C5BE1E5EBEC7D5BD14F71427D1E84F3DD0314C0F7B2291E5B200AC8C7C3B925 SWAP1 PUSH2 0x57D SWAP1 DUP7 DUP2 MSTORE PUSH1 0x20 ADD SWAP1 JUMP JUMPDEST PUSH1 0x40 MLOAD DUP1 SWAP2 SUB SWAP1 LOG3 POP PUSH1 0x1 JUMPDEST SWAP3 SWAP2 POP POP JUMP JUMPDEST PUSH0 PUSH2 0x5A7 PUSH1 0xB SLOAD PUSH1 0xA SLOAD PUSH2 0xC59 SWAP1 SWAP2 SWAP1 PUSH4 0xFFFFFFFF AND JUMP JUMPDEST SWAP1 POP SWAP1 JUMP JUMPDEST PUSH0 DUP1 PUSH1 0xC SLOAD CALLER DUP6 PUSH1 0x40 MLOAD PUSH1 0x20 ADD PUSH2 0x5C5 SWAP4 SWAP3 SWAP2 SWAP1 PUSH2 0x111C JUMP JUMPDEST PUSH1 0x40 MLOAD PUSH1 0x20 DUP2 DUP4 SUB SUB DUP2 MSTORE SWAP1 PUSH1 0x40 MSTORE DUP1 MLOAD SWAP1 PUSH1 0x20 ADD KECCAK256 SWAP1 POP DUP3 DUP2 EQ PUSH2 0x626 JUMPI PUSH1 0x40 MLOAD PUSH3 0x461BCD PUSH1 0xE5 SHL DUP2 MSTORE PUSH1 0x20 PUSH1 0x4 DUP3 ADD MSTORE PUSH1 0x12 PUSH1 0x24 DUP3 ADD MSTORE PUSH18 0x20556E6D6174636865642064696765737421 PUSH1 0x70 SHL PUSH1 0x44 DUP3 ADD MSTORE PUSH1 0x64 ADD JUMPDEST PUSH1 0x40 MLOAD DUP1 SWAP2 SUB SWAP1 REVERT JUMPDEST PUSH1 0xB SLOAD DUP2 GT PUSH2 0x68C JUMPI PUSH1 0x40 MLOAD PUSH3 0x461BCD PUSH1 0xE5 SHL DUP2 MSTORE PUSH1 0x20 PUSH1 0x4 DUP3 ADD MSTORE PUSH1 0x2C PUSH1 0x24 DUP3 ADD MSTORE PUSH32 0x4469676573742073686F756C64206265206C657373207468616E20746865206D PUSH1 0x44 DUP3 ADD MSTORE PUSH12 0x1A5B9A5B99C81D185C99D95D PUSH1 0xA2 SHL PUSH1 0x64 DUP3 ADD MSTORE PUSH1 0x84 ADD PUSH2 0x61D JUMP JUMPDEST PUSH1 0xC SLOAD PUSH0 SWAP1 DUP2 MSTORE PUSH1 0x13 PUSH1 0x20 MSTORE PUSH1 0x40 SWAP1 KECCAK256 DUP1 SLOAD SWAP1 DUP3 SWAP1 SSTORE DUP1 ISZERO PUSH2 0x6AC JUMPI PUSH0 DUP1 REVERT JUMPDEST PUSH0 PUSH2 0x6B5 PUSH2 0x8FA JUMP JUMPDEST CALLER PUSH0 SWAP1 DUP2 MSTORE PUSH1 0x15 PUSH1 0x20 MSTORE PUSH1 0x40 SWAP1 KECCAK256 SLOAD SWAP1 SWAP2 POP PUSH2 0x6D1 SWAP1 DUP3 PUSH2 0xC6F JUMP JUMPDEST CALLER PUSH0 SWAP1 DUP2 MSTORE PUSH1 0x15 PUSH1 0x20 MSTORE PUSH1 0x40 SWAP1 KECCAK256 SSTORE PUSH1 0x14 SLOAD PUSH2 0x6ED SWAP1 DUP3 PUSH2 0xC6F JUMP JUMPDEST PUSH1 0x14 DUP2 SWAP1 SSTORE PUSH1 0xE SLOAD LT ISZERO PUSH2 0x752 JUMPI PUSH1 0x40 MLOAD PUSH3 0x461BCD PUSH1 0xE5 SHL DUP2 MSTORE PUSH1 0x20 PUSH1 0x4 DUP3 ADD MSTORE PUSH1 0x26 PUSH1 0x24 DUP3 ADD MSTORE PUSH32 0x4C696D697420666F72207468652063757272656E742065726120686173207265 PUSH1 0x44 DUP3 ADD MSTORE PUSH6 0x616368656421 PUSH1 0xD0 SHL PUSH1 0x64 DUP3 ADD MSTORE PUSH1 0x84 ADD PUSH2 0x61D JUMP JUMPDEST PUSH1 0xF DUP1 SLOAD PUSH1 0x1 PUSH1 0x1 PUSH1 0xA0 SHL SUB NOT AND CALLER OR SWAP1 SSTORE PUSH1 0x10 DUP2 SWAP1 SSTORE NUMBER PUSH1 0x11 SSTORE PUSH2 0x775 PUSH2 0xC88 JUMP JUMPDEST PUSH1 0x7 SLOAD PUSH1 0xC SLOAD PUSH1 0x40 DUP1 MLOAD DUP5 DUP2 MSTORE PUSH1 0x20 DUP2 ADD SWAP4 SWAP1 SWAP4 MSTORE DUP3 ADD MSTORE CALLER SWAP1 PUSH32 0xCF6FBB9DCEA7D07263AB4F5C3A92F53AF33DFFC421D9D121E1C74B307E68189D SWAP1 PUSH1 0x60 ADD PUSH1 0x40 MLOAD DUP1 SWAP2 SUB SWAP1 LOG2 POP PUSH1 0x1 SWAP6 SWAP5 POP POP POP POP POP JUMP JUMPDEST PUSH0 DUP1 DUP1 MSTORE PUSH1 0x15 PUSH1 0x20 MSTORE PUSH32 0xA31547CE6245CDB9ECEA19CF8C7EB9F5974025BB4075011409251AE855B30AED SLOAD PUSH1 0x5 SLOAD PUSH2 0x5A7 SWAP2 SWAP1 PUSH2 0x1158 JUMP JUMPDEST PUSH1 0x1 PUSH1 0x1 PUSH1 0xA0 SHL SUB DUP4 AND PUSH0 SWAP1 DUP2 MSTORE PUSH1 0x15 PUSH1 0x20 MSTORE PUSH1 0x40 DUP2 KECCAK256 SLOAD PUSH2 0x822 SWAP1 DUP4 PUSH2 0xD39 JUMP JUMPDEST PUSH1 0x1 PUSH1 0x1 PUSH1 0xA0 SHL SUB DUP6 AND PUSH0 SWAP1 DUP2 MSTORE PUSH1 0x15 PUSH1 0x20 SWAP1 DUP2 MSTORE PUSH1 0x40 DUP1 DUP4 KECCAK256 SWAP4 SWAP1 SWAP4 SSTORE PUSH1 0x16 DUP2 MSTORE DUP3 DUP3 KECCAK256 CALLER DUP4 MSTORE SWAP1 MSTORE KECCAK256 SLOAD PUSH2 0x858 SWAP1 DUP4 PUSH2 0xD39 JUMP JUMPDEST PUSH1 0x1 PUSH1 0x1 PUSH1 0xA0 SHL SUB DUP1 DUP7 AND PUSH0 SWAP1 DUP2 MSTORE PUSH1 0x16 PUSH1 0x20 SWAP1 DUP2 MSTORE PUSH1 0x40 DUP1 DUP4 KECCAK256 CALLER DUP5 MSTORE DUP3 MSTORE DUP1 DUP4 KECCAK256 SWAP5 SWAP1 SWAP5 SSTORE SWAP2 DUP7 AND DUP2 MSTORE PUSH1 0x15 SWAP1 SWAP2 MSTORE KECCAK256 SLOAD PUSH2 0x895 SWAP1 DUP4 PUSH2 0xC6F JUMP JUMPDEST PUSH1 0x1 PUSH1 0x1 PUSH1 0xA0 SHL SUB DUP1 DUP6 AND PUSH0 DUP2 DUP2 MSTORE PUSH1 0x15 PUSH1 0x20 MSTORE PUSH1 0x40 SWAP1 DUP2 SWAP1 KECCAK256 SWAP4 SWAP1 SWAP4 SSTORE SWAP2 MLOAD SWAP1 DUP7 AND SWAP1 PUSH32 0xDDF252AD1BE2C89B69C2B068FC378DAA952BA7F163C4A11628F55A4DF523B3EF SWAP1 PUSH2 0x8E8 SWAP1 DUP7 DUP2 MSTORE PUSH1 0x20 ADD SWAP1 JUMP JUMPDEST PUSH1 0x40 MLOAD DUP1 SWAP2 SUB SWAP1 LOG3 POP PUSH1 0x1 SWAP4 SWAP3 POP POP POP JUMP JUMPDEST PUSH0 PUSH2 0x5A7 PUSH1 0xD SLOAD PUSH1 0x2 PUSH2 0x90D SWAP2 SWAP1 PUSH2 0x124B JUMP JUMPDEST PUSH1 0x4 SLOAD PUSH2 0x91E SWAP1 PUSH1 0xFF AND PUSH1 0xA PUSH2 0x124B JUMP JUMPDEST PUSH2 0x929 SWAP1 PUSH1 0x32 PUSH2 0x1256 JUMP JUMPDEST SWAP1 PUSH2 0xC59 JUMP JUMPDEST PUSH0 DUP1 SLOAD PUSH1 0x1 PUSH1 0x1 PUSH1 0xA0 SHL SUB AND CALLER EQ PUSH2 0x945 JUMPI PUSH0 DUP1 REVERT JUMPDEST PUSH0 SLOAD PUSH1 0x40 MLOAD PUSH4 0xA9059CBB PUSH1 0xE0 SHL DUP2 MSTORE PUSH1 0x1 PUSH1 0x1 PUSH1 0xA0 SHL SUB SWAP2 DUP3 AND PUSH1 0x4 DUP3 ADD MSTORE PUSH1 0x24 DUP2 ADD DUP5 SWAP1 MSTORE SWAP1 DUP5 AND SWAP1 PUSH4 0xA9059CBB SWAP1 PUSH1 0x44 ADD PUSH1 0x20 PUSH1 0x40 MLOAD DUP1 DUP4 SUB DUP2 PUSH0 DUP8 GAS CALL ISZERO DUP1 ISZERO PUSH2 0x994 JUMPI RETURNDATASIZE PUSH0 DUP1 RETURNDATACOPY RETURNDATASIZE PUSH0 REVERT JUMPDEST POP POP POP POP PUSH1 0x40 MLOAD RETURNDATASIZE PUSH1 0x1F NOT PUSH1 0x1F DUP3 ADD AND DUP3 ADD DUP1 PUSH1 0x40 MSTORE POP DUP2 ADD SWAP1 PUSH2 0x9B8 SWAP2 SWAP1 PUSH2 0x126D JUMP JUMPDEST SWAP4 SWAP3 POP POP POP JUMP JUMPDEST PUSH1 0x1 SLOAD PUSH1 0x1 PUSH1 0x1 PUSH1 0xA0 SHL SUB AND CALLER EQ PUSH2 0x9D5 JUMPI PUSH0 DUP1 REVERT JUMPDEST PUSH1 0x1 SLOAD PUSH0 DUP1 SLOAD PUSH1 0x40 MLOAD PUSH1 0x1 PUSH1 0x1 PUSH1 0xA0 SHL SUB SWAP4 DUP5 AND SWAP4 SWAP1 SWAP2 AND SWAP2 PUSH32 0x8BE0079C531659141344CD1FD0A4F28419497F9722A3DAAFE3B4186F6B6457E0 SWAP2 LOG3 PUSH1 0x1 DUP1 SLOAD PUSH0 DUP1 SLOAD PUSH1 0x1 PUSH1 0x1 PUSH1 0xA0 SHL SUB NOT SWAP1 DUP2 AND PUSH1 0x1 PUSH1 0x1 PUSH1 0xA0 SHL SUB DUP5 AND OR SWAP1 SWAP2 SSTORE AND SWAP1 SSTORE JUMP JUMPDEST PUSH0 DUP1 DUP4 CALLER DUP8 PUSH1 0x40 MLOAD PUSH1 0x20 ADD PUSH2 0xA4E SWAP4 SWAP3 SWAP2 SWAP1 PUSH2 0x111C JUMP JUMPDEST PUSH1 0x40 MLOAD PUSH1 0x20 DUP2 DUP4 SUB SUB DUP2 MSTORE SWAP1 PUSH1 0x40 MSTORE DUP1 MLOAD SWAP1 PUSH1 0x20 ADD KECCAK256 SWAP1 POP DUP3 DUP2 PUSH0 SHR GT ISZERO PUSH2 0xA74 JUMPI PUSH0 DUP1 REVERT JUMPDEST SWAP1 SWAP4 EQ SWAP5 SWAP4 POP POP POP POP JUMP JUMPDEST PUSH1 0x2 DUP1 SLOAD PUSH2 0x4A4 SWAP1 PUSH2 0x10E4 JUMP JUMPDEST PUSH0 DUP1 DUP3 CALLER DUP6 PUSH1 0x40 MLOAD PUSH1 0x20 ADD PUSH2 0xAA3 SWAP4 SWAP3 SWAP2 SWAP1 PUSH2 0x111C JUMP JUMPDEST PUSH1 0x40 DUP1 MLOAD DUP1 DUP4 SUB PUSH1 0x1F NOT ADD DUP2 MSTORE SWAP2 SWAP1 MSTORE DUP1 MLOAD PUSH1 0x20 SWAP1 SWAP2 ADD KECCAK256 SWAP5 SWAP4 POP POP POP POP JUMP JUMPDEST CALLER PUSH0 SWAP1 DUP2 MSTORE PUSH1 0x15 PUSH1 0x20 MSTORE PUSH1 0x40 DUP2 KECCAK256 SLOAD PUSH2 0xADC SWAP1 DUP4 PUSH2 0xD39 JUMP JUMPDEST CALLER PUSH0 SWAP1 DUP2 MSTORE PUSH1 0x15 PUSH1 0x20 MSTORE PUSH1 0x40 DUP1 DUP3 KECCAK256 SWAP3 SWAP1 SWAP3 SSTORE PUSH1 0x1 PUSH1 0x1 PUSH1 0xA0 SHL SUB DUP6 AND DUP2 MSTORE KECCAK256 SLOAD PUSH2 0xB07 SWAP1 DUP4 PUSH2 0xC6F JUMP JUMPDEST PUSH1 0x1 PUSH1 0x1 PUSH1 0xA0 SHL SUB DUP5 AND PUSH0 DUP2 DUP2 MSTORE PUSH1 0x15 PUSH1 0x20 MSTORE PUSH1 0x40 SWAP1 DUP2 SWAP1 KECCAK256 SWAP3 SWAP1 SWAP3 SSTORE SWAP1 MLOAD CALLER SWAP1 PUSH32 0xDDF252AD1BE2C89B69C2B068FC378DAA952BA7F163C4A11628F55A4DF523B3EF SWAP1 PUSH2 0x57D SWAP1 DUP7 DUP2 MSTORE PUSH1 0x20 ADD SWAP1 JUMP JUMPDEST CALLER PUSH0 DUP2 DUP2 MSTORE PUSH1 0x16 PUSH1 0x20 SWAP1 DUP2 MSTORE PUSH1 0x40 DUP1 DUP4 KECCAK256 PUSH1 0x1 PUSH1 0x1 PUSH1 0xA0 SHL SUB DUP9 AND DUP1 DUP6 MSTORE SWAP3 MSTORE DUP1 DUP4 KECCAK256 DUP7 SWAP1 SSTORE MLOAD SWAP2 SWAP3 SWAP1 SWAP2 PUSH32 0x8C5BE1E5EBEC7D5BD14F71427D1E84F3DD0314C0F7B2291E5B200AC8C7C3B925 SWAP1 PUSH2 0xBB1 SWAP1 DUP8 DUP2 MSTORE PUSH1 0x20 ADD SWAP1 JUMP JUMPDEST PUSH1 0x40 MLOAD DUP1 SWAP2 SUB SWAP1 LOG3 PUSH1 0x40 MLOAD PUSH4 0x8F4FFCB1 PUSH1 0xE0 SHL DUP2 MSTORE PUSH1 0x1 PUSH1 0x1 PUSH1 0xA0 SHL SUB DUP6 AND SWAP1 PUSH4 0x8F4FFCB1 SWAP1 PUSH2 0xBEB SWAP1 CALLER SWAP1 DUP8 SWAP1 ADDRESS SWAP1 DUP9 SWAP1 PUSH1 0x4 ADD PUSH2 0x128C JUMP JUMPDEST PUSH0 PUSH1 0x40 MLOAD DUP1 DUP4 SUB DUP2 PUSH0 DUP8 DUP1 EXTCODESIZE ISZERO DUP1 ISZERO PUSH2 0xC02 JUMPI PUSH0 DUP1 REVERT JUMPDEST POP GAS CALL ISZERO DUP1 ISZERO PUSH2 0xC14 JUMPI RETURNDATASIZE PUSH0 DUP1 RETURNDATACOPY RETURNDATASIZE PUSH0 REVERT JUMPDEST POP PUSH1 0x1 SWAP8 SWAP7 POP POP POP POP POP POP POP JUMP JUMPDEST PUSH0 SLOAD PUSH1 0x1 PUSH1 0x1 PUSH1 0xA0 SHL SUB AND CALLER EQ PUSH2 0xC37 JUMPI PUSH0 DUP1 REVERT JUMPDEST PUSH1 0x1 DUP1 SLOAD PUSH1 0x1 PUSH1 0x1 PUSH1 0xA0 SHL SUB NOT AND PUSH1 0x1 PUSH1 0x1 PUSH1 0xA0 SHL SUB SWAP3 SWAP1 SWAP3 AND SWAP2 SWAP1 SWAP2 OR SWAP1 SSTORE JUMP JUMPDEST PUSH0 DUP1 DUP3 GT PUSH2 0xC65 JUMPI PUSH0 DUP1 REVERT JUMPDEST PUSH2 0x9B8 DUP3 DUP5 PUSH2 0x12DC JUMP JUMPDEST PUSH0 PUSH2 0xC7A DUP3 DUP5 PUSH2 0x12EF JUMP JUMPDEST SWAP1 POP DUP3 DUP2 LT ISZERO PUSH2 0x589 JUMPI PUSH0 DUP1 REVERT JUMPDEST PUSH1 0xE SLOAD PUSH2 0xC9F PUSH2 0xC96 PUSH2 0x8FA JUMP JUMPDEST PUSH1 0x14 SLOAD SWAP1 PUSH2 0xC6F JUMP JUMPDEST GT DUP1 ISZERO PUSH2 0xCAE JUMPI POP PUSH1 0x27 PUSH1 0xD SLOAD LT JUMPDEST ISZERO PUSH2 0xCC5 JUMPI PUSH1 0xD SLOAD PUSH2 0xCC1 SWAP1 PUSH1 0x1 PUSH2 0x12EF JUMP JUMPDEST PUSH1 0xD SSTORE JUMPDEST PUSH2 0xCEB PUSH1 0xD SLOAD PUSH1 0x1 PUSH2 0xCD7 SWAP2 SWAP1 PUSH2 0x12EF JUMP JUMPDEST PUSH2 0xCE2 SWAP1 PUSH1 0x2 PUSH2 0x124B JUMP JUMPDEST PUSH1 0x5 SLOAD SWAP1 PUSH2 0xC59 JUMP JUMPDEST PUSH1 0x5 SLOAD PUSH2 0xCF8 SWAP2 SWAP1 PUSH2 0x1158 JUMP JUMPDEST PUSH1 0xE SSTORE PUSH1 0x7 SLOAD PUSH2 0xD09 SWAP1 PUSH1 0x1 PUSH2 0xC6F JUMP JUMPDEST PUSH1 0x7 DUP2 SWAP1 SSTORE PUSH1 0x8 SLOAD PUSH2 0xD1A SWAP2 PUSH2 0x1302 JUMP JUMPDEST PUSH0 SUB PUSH2 0xD28 JUMPI PUSH2 0xD28 PUSH2 0xD50 JUMP JUMPDEST PUSH2 0xD33 PUSH1 0x1 NUMBER PUSH2 0x1158 JUMP JUMPDEST BLOCKHASH PUSH1 0xC SSTORE JUMP JUMPDEST PUSH0 DUP3 DUP3 GT ISZERO PUSH2 0xD46 JUMPI PUSH0 DUP1 REVERT JUMPDEST PUSH2 0x9B8 DUP3 DUP5 PUSH2 0x1158 JUMP JUMPDEST PUSH0 PUSH1 0x6 SLOAD NUMBER PUSH2 0xD5F SWAP2 SWAP1 PUSH2 0x1158 JUMP JUMPDEST PUSH1 0x8 SLOAD SWAP1 SWAP2 POP PUSH0 PUSH2 0xD71 DUP3 PUSH1 0xC8 PUSH2 0x1256 JUMP JUMPDEST SWAP1 POP DUP1 DUP4 LT ISZERO PUSH2 0xDDF JUMPI PUSH0 PUSH2 0xD8B DUP5 PUSH2 0x929 DUP5 PUSH1 0x64 PUSH2 0xE61 JUMP JUMPDEST SWAP1 POP PUSH0 PUSH2 0xDA5 PUSH2 0x3E8 PUSH2 0xD9F DUP5 PUSH1 0x64 PUSH2 0xD39 JUMP JUMPDEST SWAP1 PUSH2 0xE8B JUMP JUMPDEST SWAP1 POP PUSH2 0xDD4 PUSH2 0xDCB DUP3 PUSH2 0xDC5 PUSH2 0x7D0 PUSH1 0xB SLOAD PUSH2 0xC59 SWAP1 SWAP2 SWAP1 PUSH4 0xFFFFFFFF AND JUMP JUMPDEST SWAP1 PUSH2 0xE61 JUMP JUMPDEST PUSH1 0xB SLOAD SWAP1 PUSH2 0xD39 JUMP JUMPDEST PUSH1 0xB SSTORE POP PUSH2 0xE32 SWAP1 POP JUMP JUMPDEST PUSH0 PUSH2 0xDEF DUP3 PUSH2 0x929 DUP7 PUSH1 0x64 PUSH2 0xE61 JUMP JUMPDEST SWAP1 POP PUSH0 PUSH2 0xE03 PUSH2 0x3E8 PUSH2 0xD9F DUP5 PUSH1 0x64 PUSH2 0xD39 JUMP JUMPDEST SWAP1 POP PUSH2 0xE2C PUSH2 0xE23 DUP3 PUSH2 0xDC5 PUSH2 0x7D0 PUSH1 0xB SLOAD PUSH2 0xC59 SWAP1 SWAP2 SWAP1 PUSH4 0xFFFFFFFF AND JUMP JUMPDEST PUSH1 0xB SLOAD SWAP1 PUSH2 0xC6F JUMP JUMPDEST PUSH1 0xB SSTORE POP POP JUMPDEST NUMBER PUSH1 0x6 SSTORE PUSH1 0x9 SLOAD PUSH1 0xB SLOAD LT ISZERO PUSH2 0xE49 JUMPI PUSH1 0x9 SLOAD PUSH1 0xB SSTORE JUMPDEST PUSH1 0xA SLOAD PUSH1 0xB SLOAD GT ISZERO PUSH2 0xE5C JUMPI PUSH1 0xA SLOAD PUSH1 0xB SSTORE JUMPDEST POP POP POP JUMP JUMPDEST PUSH0 PUSH2 0xE6C DUP3 DUP5 PUSH2 0x1256 JUMP JUMPDEST SWAP1 POP DUP3 ISZERO DUP1 PUSH2 0xE83 JUMPI POP DUP2 PUSH2 0xE81 DUP5 DUP4 PUSH2 0x12DC JUMP JUMPDEST EQ JUMPDEST PUSH2 0x589 JUMPI PUSH0 DUP1 REVERT JUMPDEST PUSH0 DUP2 DUP4 GT ISZERO PUSH2 0xE9B JUMPI POP DUP1 PUSH2 0x589 JUMP JUMPDEST POP SWAP1 SWAP2 SWAP1 POP JUMP JUMPDEST PUSH0 DUP2 MLOAD DUP1 DUP5 MSTORE PUSH0 JUMPDEST DUP2 DUP2 LT ISZERO PUSH2 0xEC6 JUMPI PUSH1 0x20 DUP2 DUP6 ADD DUP2 ADD MLOAD DUP7 DUP4 ADD DUP3 ADD MSTORE ADD PUSH2 0xEAA JUMP JUMPDEST POP PUSH0 PUSH1 0x20 DUP3 DUP7 ADD ADD MSTORE PUSH1 0x20 PUSH1 0x1F NOT PUSH1 0x1F DUP4 ADD AND DUP6 ADD ADD SWAP2 POP POP SWAP3 SWAP2 POP POP JUMP JUMPDEST PUSH1 0x20 DUP2 MSTORE PUSH0 PUSH2 0x9B8 PUSH1 0x20 DUP4 ADD DUP5 PUSH2 0xEA2 JUMP JUMPDEST DUP1 CALLDATALOAD PUSH1 0x1 PUSH1 0x1 PUSH1 0xA0 SHL SUB DUP2 AND DUP2 EQ PUSH2 0xF0D JUMPI PUSH0 DUP1 REVERT JUMPDEST SWAP2 SWAP1 POP JUMP JUMPDEST PUSH0 DUP1 PUSH1 0x40 DUP4 DUP6 SUB SLT ISZERO PUSH2 0xF23 JUMPI PUSH0 DUP1 REVERT JUMPDEST PUSH2 0xF2C DUP4 PUSH2 0xEF7 JUMP JUMPDEST SWAP5 PUSH1 0x20 SWAP4 SWAP1 SWAP4 ADD CALLDATALOAD SWAP4 POP POP POP JUMP JUMPDEST PUSH0 DUP1 PUSH1 0x40 DUP4 DUP6 SUB SLT ISZERO PUSH2 0xF4B JUMPI PUSH0 DUP1 REVERT JUMPDEST POP POP DUP1 CALLDATALOAD SWAP3 PUSH1 0x20 SWAP1 SWAP2 ADD CALLDATALOAD SWAP2 POP JUMP JUMPDEST PUSH0 DUP1 PUSH0 PUSH1 0x60 DUP5 DUP7 SUB SLT ISZERO PUSH2 0xF6C JUMPI PUSH0 DUP1 REVERT JUMPDEST PUSH2 0xF75 DUP5 PUSH2 0xEF7 JUMP JUMPDEST SWAP3 POP PUSH2 0xF83 PUSH1 0x20 DUP6 ADD PUSH2 0xEF7 JUMP JUMPDEST SWAP2 POP PUSH1 0x40 DUP5 ADD CALLDATALOAD SWAP1 POP SWAP3 POP SWAP3 POP SWAP3 JUMP JUMPDEST PUSH0 PUSH1 0x20 DUP3 DUP5 SUB SLT ISZERO PUSH2 0xFA3 JUMPI PUSH0 DUP1 REVERT JUMPDEST PUSH2 0x9B8 DUP3 PUSH2 0xEF7 JUMP JUMPDEST PUSH0 DUP1 PUSH0 DUP1 PUSH1 0x80 DUP6 DUP8 SUB SLT ISZERO PUSH2 0xFBF JUMPI PUSH0 DUP1 REVERT JUMPDEST POP POP DUP3 CALLDATALOAD SWAP5 PUSH1 0x20 DUP5 ADD CALLDATALOAD SWAP5 POP PUSH1 0x40 DUP5 ADD CALLDATALOAD SWAP4 PUSH1 0x60 ADD CALLDATALOAD SWAP3 POP SWAP1 POP JUMP JUMPDEST PUSH4 0x4E487B71 PUSH1 0xE0 SHL PUSH0 MSTORE PUSH1 0x41 PUSH1 0x4 MSTORE PUSH1 0x24 PUSH0 REVERT JUMPDEST PUSH0 DUP1 PUSH0 PUSH1 0x60 DUP5 DUP7 SUB SLT ISZERO PUSH2 0x1001 JUMPI PUSH0 DUP1 REVERT JUMPDEST PUSH2 0x100A DUP5 PUSH2 0xEF7 JUMP JUMPDEST SWAP3 POP PUSH1 0x20 DUP5 ADD CALLDATALOAD SWAP2 POP PUSH1 0x40 DUP5 ADD CALLDATALOAD PUSH8 0xFFFFFFFFFFFFFFFF DUP1 DUP3 GT ISZERO PUSH2 0x102D JUMPI PUSH0 DUP1 REVERT JUMPDEST DUP2 DUP7 ADD SWAP2 POP DUP7 PUSH1 0x1F DUP4 ADD SLT PUSH2 0x1040 JUMPI PUSH0 DUP1 REVERT JUMPDEST DUP2 CALLDATALOAD DUP2 DUP2 GT ISZERO PUSH2 0x1052 JUMPI PUSH2 0x1052 PUSH2 0xFDB JUMP JUMPDEST PUSH1 0x40 MLOAD PUSH1 0x1F DUP3 ADD PUSH1 0x1F NOT SWAP1 DUP2 AND PUSH1 0x3F ADD AND DUP2 ADD SWAP1 DUP4 DUP3 GT DUP2 DUP4 LT OR ISZERO PUSH2 0x107A JUMPI PUSH2 0x107A PUSH2 0xFDB JUMP JUMPDEST DUP2 PUSH1 0x40 MSTORE DUP3 DUP2 MSTORE DUP10 PUSH1 0x20 DUP5 DUP8 ADD ADD GT ISZERO PUSH2 0x1092 JUMPI PUSH0 DUP1 REVERT JUMPDEST DUP3 PUSH1 0x20 DUP7 ADD PUSH1 0x20 DUP4 ADD CALLDATACOPY PUSH0 PUSH1 0x20 DUP5 DUP4 ADD ADD MSTORE DUP1 SWAP6 POP POP POP POP POP POP SWAP3 POP SWAP3 POP SWAP3 JUMP JUMPDEST PUSH0 DUP1 PUSH1 0x40 DUP4 DUP6 SUB SLT ISZERO PUSH2 0x10C4 JUMPI PUSH0 DUP1 REVERT JUMPDEST PUSH2 0x10CD DUP4 PUSH2 0xEF7 JUMP JUMPDEST SWAP2 POP PUSH2 0x10DB PUSH1 0x20 DUP5 ADD PUSH2 0xEF7 JUMP JUMPDEST SWAP1 POP SWAP3 POP SWAP3 SWAP1 POP JUMP JUMPDEST PUSH1 0x1 DUP2 DUP2 SHR SWAP1 DUP3 AND DUP1 PUSH2 0x10F8 JUMPI PUSH1 0x7F DUP3 AND SWAP2 POP JUMPDEST PUSH1 0x20 DUP3 LT DUP2 SUB PUSH2 0x1116 JUMPI PUSH4 0x4E487B71 PUSH1 0xE0 SHL PUSH0 MSTORE PUSH1 0x22 PUSH1 0x4 MSTORE PUSH1 0x24 PUSH0 REVERT JUMPDEST POP SWAP2 SWAP1 POP JUMP JUMPDEST SWAP3 DUP4 MSTORE PUSH1 0x60 SWAP2 SWAP1 SWAP2 SHL PUSH12 0xFFFFFFFFFFFFFFFFFFFFFFFF NOT AND PUSH1 0x20 DUP4 ADD MSTORE PUSH1 0x34 DUP3 ADD MSTORE PUSH1 0x54 ADD SWAP1 JUMP JUMPDEST PUSH4 0x4E487B71 PUSH1 0xE0 SHL PUSH0 MSTORE PUSH1 0x11 PUSH1 0x4 MSTORE PUSH1 0x24 PUSH0 REVERT JUMPDEST DUP2 DUP2 SUB DUP2 DUP2 GT ISZERO PUSH2 0x589 JUMPI PUSH2 0x589 PUSH2 0x1144 JUMP JUMPDEST PUSH1 0x1 DUP2 DUP2 JUMPDEST DUP1 DUP6 GT ISZERO PUSH2 0x11A5 JUMPI DUP2 PUSH0 NOT DIV DUP3 GT ISZERO PUSH2 0x118B JUMPI PUSH2 0x118B PUSH2 0x1144 JUMP JUMPDEST DUP1 DUP6 AND ISZERO PUSH2 0x1198 JUMPI SWAP2 DUP2 MUL SWAP2 JUMPDEST SWAP4 DUP5 SHR SWAP4 SWAP1 DUP1 MUL SWAP1 PUSH2 0x1170 JUMP JUMPDEST POP SWAP3 POP SWAP3 SWAP1 POP JUMP JUMPDEST PUSH0 DUP3 PUSH2 0x11BB JUMPI POP PUSH1 0x1 PUSH2 0x589 JUMP JUMPDEST DUP2 PUSH2 0x11C7 JUMPI POP PUSH0 PUSH2 0x589 JUMP JUMPDEST DUP2 PUSH1 0x1 DUP2 EQ PUSH2 0x11DD JUMPI PUSH1 0x2 DUP2 EQ PUSH2 0x11E7 JUMPI PUSH2 0x1203 JUMP JUMPDEST PUSH1 0x1 SWAP2 POP POP PUSH2 0x589 JUMP JUMPDEST PUSH1 0xFF DUP5 GT ISZERO PUSH2 0x11F8 JUMPI PUSH2 0x11F8 PUSH2 0x1144 JUMP JUMPDEST POP POP PUSH1 0x1 DUP3 SHL PUSH2 0x589 JUMP JUMPDEST POP PUSH1 0x20 DUP4 LT PUSH2 0x133 DUP4 LT AND PUSH1 0x4E DUP5 LT PUSH1 0xB DUP5 LT AND OR ISZERO PUSH2 0x1226 JUMPI POP DUP2 DUP2 EXP PUSH2 0x589 JUMP JUMPDEST PUSH2 0x1230 DUP4 DUP4 PUSH2 0x116B JUMP JUMPDEST DUP1 PUSH0 NOT DIV DUP3 GT ISZERO PUSH2 0x1243 JUMPI PUSH2 0x1243 PUSH2 0x1144 JUMP JUMPDEST MUL SWAP4 SWAP3 POP POP POP JUMP JUMPDEST PUSH0 PUSH2 0x9B8 DUP4 DUP4 PUSH2 0x11AD JUMP JUMPDEST DUP1 DUP3 MUL DUP2 ISZERO DUP3 DUP3 DIV DUP5 EQ OR PUSH2 0x589 JUMPI PUSH2 0x589 PUSH2 0x1144 JUMP JUMPDEST PUSH0 PUSH1 0x20 DUP3 DUP5 SUB SLT ISZERO PUSH2 0x127D JUMPI PUSH0 DUP1 REVERT JUMPDEST DUP2 MLOAD DUP1 ISZERO ISZERO DUP2 EQ PUSH2 0x9B8 JUMPI PUSH0 DUP1 REVERT JUMPDEST PUSH1 0x1 PUSH1 0x1 PUSH1 0xA0 SHL SUB DUP6 DUP2 AND DUP3 MSTORE PUSH1 0x20 DUP3 ADD DUP6 SWAP1 MSTORE DUP4 AND PUSH1 0x40 DUP3 ADD MSTORE PUSH1 0x80 PUSH1 0x60 DUP3 ADD DUP2 SWAP1 MSTORE PUSH0 SWAP1 PUSH2 0x12BE SWAP1 DUP4 ADD DUP5 PUSH2 0xEA2 JUMP JUMPDEST SWAP7 SWAP6 POP POP POP POP POP POP JUMP JUMPDEST PUSH4 0x4E487B71 PUSH1 0xE0 SHL PUSH0 MSTORE PUSH1 0x12 PUSH1 0x4 MSTORE PUSH1 0x24 PUSH0 REVERT JUMPDEST PUSH0 DUP3 PUSH2 0x12EA JUMPI PUSH2 0x12EA PUSH2 0x12C8 JUMP JUMPDEST POP DIV SWAP1 JUMP JUMPDEST DUP1 DUP3 ADD DUP1 DUP3 GT ISZERO PUSH2 0x589 JUMPI PUSH2 0x589 PUSH2 0x1144 JUMP JUMPDEST PUSH0 DUP3 PUSH2 0x1310 JUMPI PUSH2 0x1310 PUSH2 0x12C8 JUMP JUMPDEST POP MOD SWAP1 JUMP INVALID LOG2 PUSH5 0x6970667358 0x22 SLT KECCAK256 0xF9 0xB5 SWAP14 SWAP6 0x4D 0xCE LOG0 0x1F SELFBALANCE 0xC5 STATICCALL 0x2E SGT 0xD 0xE1 TLOAD 0x28 PUSH16 0xCE8987C4FF3BDE8CDA815296C0C46473 PUSH16 0x6C63430008180033424E626974636F69 PUSH15 0x20546F6B656E202D206D696E61626C PUSH6 0x20626974636F PUSH10 0x6E206F6E204253430000 "
				},
				"gasEstimates": {
					"creation": {
						"codeDepositCost": "987800",
						"executionCost": "infinite",
						"totalCost": "infinite"
					},
					"external": {
						"_BLOCKS_PER_READJUSTMENT()": "2383",
						"_MAXIMUM_TARGET()": "2406",
						"_MINIMUM_TARGET()": "2382",
						"_totalSupply()": "2362",
						"acceptOwnership()": "56562",
						"allowance(address,address)": "infinite",
						"approve(address,uint256)": "24566",
						"approveAndCall(address,uint256,bytes)": "infinite",
						"balanceOf(address)": "2667",
						"challengeNumber()": "2383",
						"checkMintSolution(uint256,bytes32,bytes32,uint256)": "706",
						"decimals()": "2446",
						"epochCount()": "2384",
						"getChallengeNumber()": "2403",
						"getMiningDifficulty()": "infinite",
						"getMiningReward()": "infinite",
						"getMiningTarget()": "2337",
						"getMintDigest(uint256,bytes32)": "605",
						"getOwner()": "2374",
						"lastRewardAmount()": "2405",
						"lastRewardBscBlockNumber()": "2384",
						"lastRewardTo()": "2447",
						"latestDifficultyPeriodStarted()": "2338",
						"maxSupplyForEra()": "2339",
						"miningTarget()": "2361",
						"mint(uint256,bytes32)": "infinite",
						"name()": "infinite",
						"newOwner()": "2402",
						"owner()": "2446",
						"rewardEra()": "2406",
						"symbol()": "infinite",
						"tokensMinted()": "2383",
						"totalSupply()": "4555",
						"transfer(address,uint256)": "infinite",
						"transferAnyBEP20Token(address,uint256)": "infinite",
						"transferFrom(address,address,uint256)": "infinite",
						"transferOwnership(address)": "26840"
					},
					"internal": {
						"_reAdjustDifficulty()": "infinite",
						"_startNewMiningEpoch()": "infinite"
					}
				},
				"methodIdentifiers": {
					"_BLOCKS_PER_READJUSTMENT()": "b5ade81b",
					"_MAXIMUM_TARGET()": "87a2a9d6",
					"_MINIMUM_TARGET()": "dc6e9cf9",
					"_totalSupply()": "3eaaf86b",
					"acceptOwnership()": "79ba5097",
					"allowance(address,address)": "dd62ed3e",
					"approve(address,uint256)": "095ea7b3",
					"approveAndCall(address,uint256,bytes)": "cae9ca51",
					"balanceOf(address)": "70a08231",
					"challengeNumber()": "8ae0368b",
					"checkMintSolution(uint256,bytes32,bytes32,uint256)": "81269a56",
					"decimals()": "313ce567",
					"epochCount()": "829965cc",
					"getChallengeNumber()": "4ef37628",
					"getMiningDifficulty()": "17da485f",
					"getMiningReward()": "490203a7",
					"getMiningTarget()": "32e99708",
					"getMintDigest(uint256,bytes32)": "9e37273b",
					"getOwner()": "893d20e8",
					"lastRewardAmount()": "bafedcaa",
					"lastRewardBscBlockNumber()": "2979f8e3",
					"lastRewardTo()": "6fd396d6",
					"latestDifficultyPeriodStarted()": "cb9ae707",
					"maxSupplyForEra()": "4fa972e1",
					"miningTarget()": "8a769d35",
					"mint(uint256,bytes32)": "1801fbe5",
					"name()": "06fdde03",
					"newOwner()": "d4ee1d90",
					"owner()": "8da5cb5b",
					"rewardEra()": "2d38bf7a",
					"symbol()": "95d89b41",
					"tokensMinted()": "6de9f32b",
					"totalSupply()": "18160ddd",
					"transfer(address,uint256)": "a9059cbb",
					"transferAnyBEP20Token(address,uint256)": "660e67a5",
					"transferFrom(address,address,uint256)": "23b872dd",
					"transferOwnership(address)": "f2fde38b"
				}
			},
			"storageLayout": {
				"storage": [
					{
						"astId": 196,
						"contract": "contracts/mineableCoin.sol:_BNbitcoinToken",
						"label": "owner",
						"offset": 0,
						"slot": "0",
						"type": "t_address"
					},
					{
						"astId": 198,
						"contract": "contracts/mineableCoin.sol:_BNbitcoinToken",
						"label": "newOwner",
						"offset": 0,
						"slot": "1",
						"type": "t_address"
					},
					{
						"astId": 284,
						"contract": "contracts/mineableCoin.sol:_BNbitcoinToken",
						"label": "symbol",
						"offset": 0,
						"slot": "2",
						"type": "t_string_storage"
					},
					{
						"astId": 286,
						"contract": "contracts/mineableCoin.sol:_BNbitcoinToken",
						"label": "name",
						"offset": 0,
						"slot": "3",
						"type": "t_string_storage"
					},
					{
						"astId": 288,
						"contract": "contracts/mineableCoin.sol:_BNbitcoinToken",
						"label": "decimals",
						"offset": 0,
						"slot": "4",
						"type": "t_uint8"
					},
					{
						"astId": 290,
						"contract": "contracts/mineableCoin.sol:_BNbitcoinToken",
						"label": "_totalSupply",
						"offset": 0,
						"slot": "5",
						"type": "t_uint256"
					},
					{
						"astId": 292,
						"contract": "contracts/mineableCoin.sol:_BNbitcoinToken",
						"label": "latestDifficultyPeriodStarted",
						"offset": 0,
						"slot": "6",
						"type": "t_uint256"
					},
					{
						"astId": 294,
						"contract": "contracts/mineableCoin.sol:_BNbitcoinToken",
						"label": "epochCount",
						"offset": 0,
						"slot": "7",
						"type": "t_uint256"
					},
					{
						"astId": 297,
						"contract": "contracts/mineableCoin.sol:_BNbitcoinToken",
						"label": "_BLOCKS_PER_READJUSTMENT",
						"offset": 0,
						"slot": "8",
						"type": "t_uint256"
					},
					{
						"astId": 302,
						"contract": "contracts/mineableCoin.sol:_BNbitcoinToken",
						"label": "_MINIMUM_TARGET",
						"offset": 0,
						"slot": "9",
						"type": "t_uint256"
					},
					{
						"astId": 307,
						"contract": "contracts/mineableCoin.sol:_BNbitcoinToken",
						"label": "_MAXIMUM_TARGET",
						"offset": 0,
						"slot": "10",
						"type": "t_uint256"
					},
					{
						"astId": 309,
						"contract": "contracts/mineableCoin.sol:_BNbitcoinToken",
						"label": "miningTarget",
						"offset": 0,
						"slot": "11",
						"type": "t_uint256"
					},
					{
						"astId": 311,
						"contract": "contracts/mineableCoin.sol:_BNbitcoinToken",
						"label": "challengeNumber",
						"offset": 0,
						"slot": "12",
						"type": "t_bytes32"
					},
					{
						"astId": 313,
						"contract": "contracts/mineableCoin.sol:_BNbitcoinToken",
						"label": "rewardEra",
						"offset": 0,
						"slot": "13",
						"type": "t_uint256"
					},
					{
						"astId": 315,
						"contract": "contracts/mineableCoin.sol:_BNbitcoinToken",
						"label": "maxSupplyForEra",
						"offset": 0,
						"slot": "14",
						"type": "t_uint256"
					},
					{
						"astId": 317,
						"contract": "contracts/mineableCoin.sol:_BNbitcoinToken",
						"label": "lastRewardTo",
						"offset": 0,
						"slot": "15",
						"type": "t_address"
					},
					{
						"astId": 319,
						"contract": "contracts/mineableCoin.sol:_BNbitcoinToken",
						"label": "lastRewardAmount",
						"offset": 0,
						"slot": "16",
						"type": "t_uint256"
					},
					{
						"astId": 321,
						"contract": "contracts/mineableCoin.sol:_BNbitcoinToken",
						"label": "lastRewardBscBlockNumber",
						"offset": 0,
						"slot": "17",
						"type": "t_uint256"
					},
					{
						"astId": 324,
						"contract": "contracts/mineableCoin.sol:_BNbitcoinToken",
						"label": "locked",
						"offset": 0,
						"slot": "18",
						"type": "t_bool"
					},
					{
						"astId": 328,
						"contract": "contracts/mineableCoin.sol:_BNbitcoinToken",
						"label": "solutionForChallenge",
						"offset": 0,
						"slot": "19",
						"type": "t_mapping(t_bytes32,t_bytes32)"
					},
					{
						"astId": 330,
						"contract": "contracts/mineableCoin.sol:_BNbitcoinToken",
						"label": "tokensMinted",
						"offset": 0,
						"slot": "20",
						"type": "t_uint256"
					},
					{
						"astId": 334,
						"contract": "contracts/mineableCoin.sol:_BNbitcoinToken",
						"label": "balances",
						"offset": 0,
						"slot": "21",
						"type": "t_mapping(t_address,t_uint256)"
					},
					{
						"astId": 340,
						"contract": "contracts/mineableCoin.sol:_BNbitcoinToken",
						"label": "allowed",
						"offset": 0,
						"slot": "22",
						"type": "t_mapping(t_address,t_mapping(t_address,t_uint256))"
					}
				],
				"types": {
					"t_address": {
						"encoding": "inplace",
						"label": "address",
						"numberOfBytes": "20"
					},
					"t_bool": {
						"encoding": "inplace",
						"label": "bool",
						"numberOfBytes": "1"
					},
					"t_bytes32": {
						"encoding": "inplace",
						"label": "bytes32",
						"numberOfBytes": "32"
					},
					"t_mapping(t_address,t_mapping(t_address,t_uint256))": {
						"encoding": "mapping",
						"key": "t_address",
						"label": "mapping(address => mapping(address => uint256))",
						"numberOfBytes": "32",
						"value": "t_mapping(t_address,t_uint256)"
					},
					"t_mapping(t_address,t_uint256)": {
						"encoding": "mapping",
						"key": "t_address",
						"label": "mapping(address => uint256)",
						"numberOfBytes": "32",
						"value": "t_uint256"
					},
					"t_mapping(t_bytes32,t_bytes32)": {
						"encoding": "mapping",
						"key": "t_bytes32",
						"label": "mapping(bytes32 => bytes32)",
						"numberOfBytes": "32",
						"value": "t_bytes32"
					},
					"t_string_storage": {
						"encoding": "bytes",
						"label": "string",
						"numberOfBytes": "32"
					},
					"t_uint256": {
						"encoding": "inplace",
						"label": "uint256",
						"numberOfBytes": "32"
					},
					"t_uint8": {
						"encoding": "inplace",
						"label": "uint8",
						"numberOfBytes": "1"
					}
				}
			},
			"userdoc": {
				"kind": "user",
				"methods": {},
				"version": 1
			}
		}
	}
}