{
	"contracts/BUDS.sol": {
		"Toppings": {
			"abi": [
				{
					"inputs": [
						{
							"internalType": "contract ERC20",
							"name": "_budsToken",
							"type": "address"
						},
						{
							"internalType": "address",
							"name": "_liquidityPool",
							"type": "address"
						},
						{
							"internalType": "address",
							"name": "_marketingAddress",
							"type": "address"
						}
					],
					"stateMutability": "nonpayable",
					"type": "constructor"
				},
				{
					"anonymous": false,
					"inputs": [
						{
							"indexed": true,
							"internalType": "address",
							"name": "user",
							"type": "address"
						},
						{
							"indexed": false,
							"internalType": "uint256",
							"name": "amount",
							"type": "uint256"
						}
					],
					"name": "Claim",
					"type": "event"
				},
				{
					"anonymous": false,
					"inputs": [],
					"name": "Reset",
					"type": "event"
				},
				{
					"inputs": [
						{
							"internalType": "address",
							"name": "",
							"type": "address"
						}
					],
					"name": "alreadyVoted",
					"outputs": [
						{
							"internalType": "bool",
							"name": "",
							"type": "bool"
						}
					],
					"stateMutability": "view",
					"type": "function"
				},
				{
					"inputs": [],
					"name": "applicants",
					"outputs": [
						{
							"internalType": "uint256",
							"name": "",
							"type": "uint256"
						}
					],
					"stateMutability": "view",
					"type": "function"
				},
				{
					"inputs": [],
					"name": "budsToken",
					"outputs": [
						{
							"internalType": "contract ERC20",
							"name": "",
							"type": "address"
						}
					],
					"stateMutability": "view",
					"type": "function"
				},
				{
					"inputs": [],
					"name": "claim",
					"outputs": [],
					"stateMutability": "nonpayable",
					"type": "function"
				},
				{
					"inputs": [],
					"name": "currentMonthRewardsLeft",
					"outputs": [
						{
							"internalType": "uint256",
							"name": "",
							"type": "uint256"
						}
					],
					"stateMutability": "view",
					"type": "function"
				},
				{
					"inputs": [],
					"name": "getCurrentMonthRewardsLeft",
					"outputs": [
						{
							"internalType": "uint256",
							"name": "",
							"type": "uint256"
						}
					],
					"stateMutability": "view",
					"type": "function"
				},
				{
					"inputs": [],
					"name": "getLastResetTime",
					"outputs": [
						{
							"internalType": "uint256",
							"name": "",
							"type": "uint256"
						}
					],
					"stateMutability": "view",
					"type": "function"
				},
				{
					"inputs": [],
					"name": "initialReward",
					"outputs": [
						{
							"internalType": "uint256",
							"name": "",
							"type": "uint256"
						}
					],
					"stateMutability": "view",
					"type": "function"
				},
				{
					"inputs": [
						{
							"internalType": "address",
							"name": "user",
							"type": "address"
						}
					],
					"name": "isEligible",
					"outputs": [
						{
							"internalType": "bool",
							"name": "",
							"type": "bool"
						}
					],
					"stateMutability": "view",
					"type": "function"
				},
				{
					"inputs": [],
					"name": "isResetTime",
					"outputs": [
						{
							"internalType": "bool",
							"name": "",
							"type": "bool"
						}
					],
					"stateMutability": "view",
					"type": "function"
				},
				{
					"inputs": [],
					"name": "isWithinClaimWindow",
					"outputs": [
						{
							"internalType": "bool",
							"name": "",
							"type": "bool"
						}
					],
					"stateMutability": "view",
					"type": "function"
				},
				{
					"inputs": [
						{
							"internalType": "address",
							"name": "",
							"type": "address"
						}
					],
					"name": "lastClaimTime",
					"outputs": [
						{
							"internalType": "uint256",
							"name": "",
							"type": "uint256"
						}
					],
					"stateMutability": "view",
					"type": "function"
				},
				{
					"inputs": [],
					"name": "lastResetTimestamp",
					"outputs": [
						{
							"internalType": "uint256",
							"name": "",
							"type": "uint256"
						}
					],
					"stateMutability": "view",
					"type": "function"
				},
				{
					"inputs": [],
					"name": "lpTokenAddress",
					"outputs": [
						{
							"internalType": "address",
							"name": "",
							"type": "address"
						}
					],
					"stateMutability": "view",
					"type": "function"
				},
				{
					"inputs": [],
					"name": "marketingAddress",
					"outputs": [
						{
							"internalType": "address",
							"name": "",
							"type": "address"
						}
					],
					"stateMutability": "view",
					"type": "function"
				},
				{
					"inputs": [],
					"name": "minLPValue",
					"outputs": [
						{
							"internalType": "uint256",
							"name": "",
							"type": "uint256"
						}
					],
					"stateMutability": "view",
					"type": "function"
				},
				{
					"inputs": [],
					"name": "numberOfApplicants",
					"outputs": [
						{
							"internalType": "uint256",
							"name": "",
							"type": "uint256"
						}
					],
					"stateMutability": "view",
					"type": "function"
				},
				{
					"inputs": [],
					"name": "reduceCommission",
					"outputs": [],
					"stateMutability": "nonpayable",
					"type": "function"
				},
				{
					"inputs": [],
					"name": "resetInterval",
					"outputs": [
						{
							"internalType": "uint256",
							"name": "",
							"type": "uint256"
						}
					],
					"stateMutability": "view",
					"type": "function"
				},
				{
					"inputs": [],
					"name": "timeSinceLastClaim",
					"outputs": [
						{
							"internalType": "uint256",
							"name": "",
							"type": "uint256"
						}
					],
					"stateMutability": "view",
					"type": "function"
				},
				{
					"inputs": [
						{
							"internalType": "address",
							"name": "token",
							"type": "address"
						},
						{
							"internalType": "uint256",
							"name": "amount",
							"type": "uint256"
						}
					],
					"name": "withdrawExcess",
					"outputs": [],
					"stateMutability": "nonpayable",
					"type": "function"
				}
			],
			"devdoc": {
				"kind": "dev",
				"methods": {},
				"version": 1
			},
			"evm": {
				"assembly": "    /* \"contracts/BUDS.sol\":19199:25350  contract Toppings {... */\n  mstore(0x40, 0xa0)\n    /* \"contracts/BUDS.sol\":19789:19790  0 */\n  0x00\n    /* \"contracts/BUDS.sol\":19768:19790  uint256 claimCount = 0 */\n  0x04\n  sstore\n    /* \"contracts/BUDS.sol\":20079:20105  address owner = msg.sender */\n  0x09\n  dup1\n  sload\n  not(sub(shl(0xa0, 0x01), 0x01))\n  and\n    /* \"contracts/BUDS.sol\":20095:20105  msg.sender */\n  caller\n    /* \"contracts/BUDS.sol\":20079:20105  address owner = msg.sender */\n  or\n  swap1\n  sstore\n    /* \"contracts/BUDS.sol\":20151:20166  block.timestamp */\n  timestamp\n    /* \"contracts/BUDS.sol\":20114:20166  uint256 public lastResetTimestamp =  block.timestamp */\n  0x0a\n  sstore\n    /* \"contracts/BUDS.sol\":20303:20548  constructor(... */\n  callvalue\n  dup1\n  iszero\n  tag_1\n  jumpi\n  0x00\n  dup1\n  revert\ntag_1:\n  pop\n  mload(0x40)\n  sub(codesize, bytecodeSize)\n  dup1\n  bytecodeSize\n  dup4\n  codecopy\n  dup2\n  add\n  0x40\n  dup2\n  swap1\n  mstore\n  tag_2\n  swap2\n  tag_3\n  jump\t// in\ntag_2:\n  sub(shl(0xa0, 0x01), 0x01)\n    /* \"contracts/BUDS.sol\":20429:20451  budsToken = _budsToken */\n  swap3\n  dup4\n  and\n  0x80\n  mstore\n    /* \"contracts/BUDS.sol\":20462:20476  lpTokenAddress */\n  0x00\n    /* \"contracts/BUDS.sol\":20462:20493  lpTokenAddress = _liquidityPool */\n  dup1\n  sload\n  swap3\n  dup5\n  and\n  not(sub(shl(0xa0, 0x01), 0x01))\n  swap4\n  dup5\n  and\n  or\n  swap1\n  sstore\n    /* \"contracts/BUDS.sol\":20504:20520  marketingAddress */\n  0x08\n    /* \"contracts/BUDS.sol\":20504:20540  marketingAddress = _marketingAddress */\n  dup1\n  sload\n  swap2\n  swap1\n  swap4\n  and\n  swap2\n  and\n  or\n  swap1\n  sstore\n    /* \"contracts/BUDS.sol\":19199:25350  contract Toppings {... */\n  jump(tag_8)\n    /* \"#utility.yul\":14:152   */\ntag_7:\n  sub(shl(0xa0, 0x01), 0x01)\n    /* \"#utility.yul\":96:127   */\n  dup2\n  and\n    /* \"#utility.yul\":86:128   */\n  dup2\n  eq\n    /* \"#utility.yul\":76:146   */\n  tag_10\n  jumpi\n    /* \"#utility.yul\":142:143   */\n  0x00\n    /* \"#utility.yul\":139:140   */\n  dup1\n    /* \"#utility.yul\":132:144   */\n  revert\n    /* \"#utility.yul\":76:146   */\ntag_10:\n    /* \"#utility.yul\":14:152   */\n  pop\n  jump\t// out\n    /* \"#utility.yul\":157:710   */\ntag_3:\n    /* \"#utility.yul\":258:264   */\n  0x00\n    /* \"#utility.yul\":266:272   */\n  dup1\n    /* \"#utility.yul\":274:280   */\n  0x00\n    /* \"#utility.yul\":327:329   */\n  0x60\n    /* \"#utility.yul\":315:324   */\n  dup5\n    /* \"#utility.yul\":306:313   */\n  dup7\n    /* \"#utility.yul\":302:325   */\n  sub\n    /* \"#utility.yul\":298:330   */\n  slt\n    /* \"#utility.yul\":295:347   */\n  iszero\n  tag_12\n  jumpi\n    /* \"#utility.yul\":343:344   */\n  0x00\n    /* \"#utility.yul\":340:341   */\n  dup1\n    /* \"#utility.yul\":333:345   */\n  revert\n    /* \"#utility.yul\":295:347   */\ntag_12:\n    /* \"#utility.yul\":375:384   */\n  dup4\n    /* \"#utility.yul\":369:385   */\n  mload\n    /* \"#utility.yul\":394:432   */\n  tag_13\n    /* \"#utility.yul\":426:431   */\n  dup2\n    /* \"#utility.yul\":394:432   */\n  tag_7\n  jump\t// in\ntag_13:\n    /* \"#utility.yul\":501:503   */\n  0x20\n    /* \"#utility.yul\":486:504   */\n  dup6\n  add\n    /* \"#utility.yul\":480:505   */\n  mload\n    /* \"#utility.yul\":451:456   */\n  swap1\n  swap4\n  pop\n    /* \"#utility.yul\":514:554   */\n  tag_14\n    /* \"#utility.yul\":480:505   */\n  dup2\n    /* \"#utility.yul\":514:554   */\n  tag_7\n  jump\t// in\ntag_14:\n    /* \"#utility.yul\":625:627   */\n  0x40\n    /* \"#utility.yul\":610:628   */\n  dup6\n  add\n    /* \"#utility.yul\":604:629   */\n  mload\n    /* \"#utility.yul\":573:580   */\n  swap1\n  swap3\n  pop\n    /* \"#utility.yul\":638:678   */\n  tag_15\n    /* \"#utility.yul\":604:629   */\n  dup2\n    /* \"#utility.yul\":638:678   */\n  tag_7\n  jump\t// in\ntag_15:\n    /* \"#utility.yul\":697:704   */\n  dup1\n    /* \"#utility.yul\":687:704   */\n  swap2\n  pop\n  pop\n    /* \"#utility.yul\":157:710   */\n  swap3\n  pop\n  swap3\n  pop\n  swap3\n  jump\t// out\ntag_8:\n    /* \"contracts/BUDS.sol\":19199:25350  contract Toppings {... */\n  mload(0x80)\n  codecopy(0x00, dataOffset(sub_0), dataSize(sub_0))\n  0x00\n  assignImmutable(\"0x97f259ca8eaf3029ee26cdddbf846b78a4ea961f945fbbda47f0324ecab47158\")\n  return(0x00, dataSize(sub_0))\nstop\n\nsub_0: assembly {\n        /* \"contracts/BUDS.sol\":19199:25350  contract Toppings {... */\n      mstore(0x40, 0x80)\n      callvalue\n      dup1\n      iszero\n      tag_1\n      jumpi\n      0x00\n      dup1\n      revert\n    tag_1:\n      pop\n      jumpi(tag_2, lt(calldatasize, 0x04))\n      shr(0xe0, calldataload(0x00))\n      dup1\n      0x92f851c1\n      gt\n      tag_24\n      jumpi\n      dup1\n      0xb77cf9c6\n      gt\n      tag_25\n      jumpi\n      dup1\n      0xb77cf9c6\n      eq\n      tag_18\n      jumpi\n      dup1\n      0xcad7ca40\n      eq\n      tag_19\n      jumpi\n      dup1\n      0xf5ae497a\n      eq\n      tag_20\n      jumpi\n      dup1\n      0xf7e90d8f\n      eq\n      tag_21\n      jumpi\n      dup1\n      0xfda7aff0\n      eq\n      tag_22\n      jumpi\n      dup1\n      0xfdf5963a\n      eq\n      tag_23\n      jumpi\n      0x00\n      dup1\n      revert\n    tag_25:\n      dup1\n      0x92f851c1\n      eq\n      tag_13\n      jumpi\n      dup1\n      0xa5ece941\n      eq\n      tag_14\n      jumpi\n      dup1\n      0xabee967c\n      eq\n      tag_15\n      jumpi\n      dup1\n      0xb2fd0901\n      eq\n      tag_16\n      jumpi\n      dup1\n      0xb343a0df\n      eq\n      tag_17\n      jumpi\n      0x00\n      dup1\n      revert\n    tag_24:\n      dup1\n      0x4e71d92d\n      gt\n      tag_26\n      jumpi\n      dup1\n      0x4e71d92d\n      eq\n      tag_8\n      jumpi\n      dup1\n      0x66e305fd\n      eq\n      tag_9\n      jumpi\n      dup1\n      0x6e90013d\n      eq\n      tag_10\n      jumpi\n      dup1\n      0x7f581488\n      eq\n      tag_11\n      jumpi\n      dup1\n      0x823cc69d\n      eq\n      tag_12\n      jumpi\n      0x00\n      dup1\n      revert\n    tag_26:\n      dup1\n      0x03e0a1e2\n      eq\n      tag_3\n      jumpi\n      dup1\n      0x06d2ad40\n      eq\n      tag_4\n      jumpi\n      dup1\n      0x09c21f2d\n      eq\n      tag_5\n      jumpi\n      dup1\n      0x39ad74cd\n      eq\n      tag_6\n      jumpi\n      dup1\n      0x4618af42\n      eq\n      tag_7\n      jumpi\n    tag_2:\n      0x00\n      dup1\n      revert\n        /* \"contracts/BUDS.sol\":22698:22827  function timeSinceLastClaim() public view returns (uint256) {... */\n    tag_3:\n      tag_27\n      tag_28\n      jump\t// in\n    tag_27:\n      mload(0x40)\n        /* \"#utility.yul\":160:185   */\n      swap1\n      dup2\n      mstore\n        /* \"#utility.yul\":148:150   */\n      0x20\n        /* \"#utility.yul\":133:151   */\n      add\n        /* \"contracts/BUDS.sol\":22698:22827  function timeSinceLastClaim() public view returns (uint256) {... */\n    tag_29:\n      mload(0x40)\n      dup1\n      swap2\n      sub\n      swap1\n      return\n        /* \"contracts/BUDS.sol\":19901:19945  mapping(address => bool) public alreadyVoted */\n    tag_4:\n      tag_31\n      tag_32\n      calldatasize\n      0x04\n      tag_33\n      jump\t// in\n    tag_32:\n      mstore(0x20, 0x06)\n      0x00\n      swap1\n      dup2\n      mstore\n      0x40\n      swap1\n      keccak256\n      sload\n      0xff\n      and\n      dup2\n      jump\n    tag_31:\n      mload(0x40)\n        /* \"#utility.yul\":730:744   */\n      swap1\n      iszero\n        /* \"#utility.yul\":723:745   */\n      iszero\n        /* \"#utility.yul\":705:746   */\n      dup2\n      mstore\n        /* \"#utility.yul\":693:695   */\n      0x20\n        /* \"#utility.yul\":678:696   */\n      add\n        /* \"contracts/BUDS.sol\":19901:19945  mapping(address => bool) public alreadyVoted */\n      tag_29\n        /* \"#utility.yul\":565:752   */\n      jump\n        /* \"contracts/BUDS.sol\":23990:24119  function isResetTime() public view returns (bool) {... */\n    tag_5:\n      tag_31\n      tag_38\n      jump\t// in\n        /* \"contracts/BUDS.sol\":24127:24271  function getLastResetTime() public view returns (uint256) {... */\n    tag_6:\n        /* \"contracts/BUDS.sol\":24203:24221  lastResetTimestamp */\n      sload(0x0a)\n        /* \"contracts/BUDS.sol\":24127:24271  function getLastResetTime() public view returns (uint256) {... */\n      jump(tag_27)\n        /* \"contracts/BUDS.sol\":20556:20688  function getCurrentMonthRewardsLeft() public view returns(uint256)... */\n    tag_7:\n      tag_27\n      tag_44\n      jump\t// in\n        /* \"contracts/BUDS.sol\":20696:21335  function claim() public {... */\n    tag_8:\n      tag_46\n      tag_47\n      jump\t// in\n    tag_46:\n      stop\n        /* \"contracts/BUDS.sol\":21343:21581  function isEligible(address user) public view returns (bool) {... */\n    tag_9:\n      tag_31\n      tag_49\n      calldatasize\n      0x04\n      tag_33\n      jump\t// in\n    tag_49:\n      tag_50\n      jump\t// in\n        /* \"contracts/BUDS.sol\":24740:24914  function withdrawExcess(address token, uint256 amount) external {... */\n    tag_10:\n      tag_46\n      tag_53\n      calldatasize\n      0x04\n      tag_54\n      jump\t// in\n    tag_53:\n      tag_55\n      jump\t// in\n        /* \"contracts/BUDS.sol\":19251:19283  ERC20 public immutable budsToken */\n    tag_11:\n      tag_56\n      immutable(\"0x97f259ca8eaf3029ee26cdddbf846b78a4ea961f945fbbda47f0324ecab47158\")\n      dup2\n      jump\n    tag_56:\n      mload(0x40)\n      sub(shl(0xa0, 0x01), 0x01)\n        /* \"#utility.yul\":1193:1225   */\n      swap1\n      swap2\n      and\n        /* \"#utility.yul\":1175:1226   */\n      dup2\n      mstore\n        /* \"#utility.yul\":1163:1165   */\n      0x20\n        /* \"#utility.yul\":1148:1166   */\n      add\n        /* \"contracts/BUDS.sol\":19251:19283  ERC20 public immutable budsToken */\n      tag_29\n        /* \"#utility.yul\":1016:1232   */\n      jump\n        /* \"contracts/BUDS.sol\":23778:23982  function isWithinClaimWindow() public view returns (bool) {... */\n    tag_12:\n      tag_31\n      tag_61\n      jump\t// in\n        /* \"contracts/BUDS.sol\":25033:25345  function reduceCommission() public {... */\n    tag_13:\n      tag_46\n      tag_64\n      jump\t// in\n        /* \"contracts/BUDS.sol\":20041:20072  address public marketingAddress */\n    tag_14:\n      sload(0x08)\n      tag_56\n      swap1\n      sub(shl(0xa0, 0x01), 0x01)\n      and\n      dup2\n      jump\n        /* \"contracts/BUDS.sol\":19506:19534  uint256 public initialReward */\n    tag_15:\n      tag_27\n      sload(0x01)\n      dup2\n      jump\n        /* \"contracts/BUDS.sol\":19541:19579  uint256 public currentMonthRewardsLeft */\n    tag_16:\n      tag_27\n      sload(0x02)\n      dup2\n      jump\n        /* \"contracts/BUDS.sol\":20114:20166  uint256 public lastResetTimestamp =  block.timestamp */\n    tag_17:\n      tag_27\n      sload(0x0a)\n      dup2\n      jump\n        /* \"contracts/BUDS.sol\":19845:19894  mapping(address => uint256)  public lastClaimTime */\n    tag_18:\n      tag_27\n      tag_79\n      calldatasize\n      0x04\n      tag_33\n      jump\t// in\n    tag_79:\n      mstore(0x20, 0x05)\n      0x00\n      swap1\n      dup2\n      mstore\n      0x40\n      swap1\n      keccak256\n      sload\n      dup2\n      jump\n        /* \"contracts/BUDS.sol\":24924:25025  function numberOfApplicants() public view returns (uint256)... */\n    tag_19:\n        /* \"contracts/BUDS.sol\":25007:25017  applicants */\n      sload(0x07)\n        /* \"contracts/BUDS.sol\":24924:25025  function numberOfApplicants() public view returns (uint256)... */\n      jump(tag_27)\n        /* \"contracts/BUDS.sol\":19329:19358  address public lpTokenAddress */\n    tag_20:\n      sload(0x00)\n      tag_56\n      swap1\n      sub(shl(0xa0, 0x01), 0x01)\n      and\n      dup2\n      jump\n        /* \"contracts/BUDS.sol\":19408:19455  uint256 public constant minLPValue = 1 * 10**18 */\n    tag_21:\n      tag_27\n        /* \"contracts/BUDS.sol\":19445:19455  1 * 10**18 */\n      0x0de0b6b3a7640000\n        /* \"contracts/BUDS.sol\":19408:19455  uint256 public constant minLPValue = 1 * 10**18 */\n      dup2\n      jump\n        /* \"contracts/BUDS.sol\":19677:19720  uint256 public constant resetInterval = 360 */\n    tag_22:\n      tag_27\n        /* \"contracts/BUDS.sol\":19717:19720  360 */\n      0x0168\n        /* \"contracts/BUDS.sol\":19677:19720  uint256 public constant resetInterval = 360 */\n      dup2\n      jump\n        /* \"contracts/BUDS.sol\":19952:19977  uint256 public applicants */\n    tag_23:\n      tag_27\n      sload(0x07)\n      dup2\n      jump\n        /* \"contracts/BUDS.sol\":22698:22827  function timeSinceLastClaim() public view returns (uint256) {... */\n    tag_28:\n        /* \"contracts/BUDS.sol\":22808:22818  msg.sender */\n      caller\n        /* \"contracts/BUDS.sol\":22749:22756  uint256 */\n      0x00\n        /* \"contracts/BUDS.sol\":22794:22819  lastClaimTime[msg.sender] */\n      swap1\n      dup2\n      mstore\n        /* \"contracts/BUDS.sol\":22794:22807  lastClaimTime */\n      0x05\n        /* \"contracts/BUDS.sol\":22794:22819  lastClaimTime[msg.sender] */\n      0x20\n      mstore\n      0x40\n      dup2\n      keccak256\n      sload\n        /* \"contracts/BUDS.sol\":22776:22819  block.timestamp - lastClaimTime[msg.sender] */\n      tag_98\n      swap1\n        /* \"contracts/BUDS.sol\":22776:22791  block.timestamp */\n      timestamp\n        /* \"contracts/BUDS.sol\":22776:22819  block.timestamp - lastClaimTime[msg.sender] */\n      tag_99\n      jump\t// in\n    tag_98:\n        /* \"contracts/BUDS.sol\":22769:22819  return block.timestamp - lastClaimTime[msg.sender] */\n      swap1\n      pop\n        /* \"contracts/BUDS.sol\":22698:22827  function timeSinceLastClaim() public view returns (uint256) {... */\n      swap1\n      jump\t// out\n        /* \"contracts/BUDS.sol\":23990:24119  function isResetTime() public view returns (bool) {... */\n    tag_38:\n        /* \"contracts/BUDS.sol\":24034:24038  bool */\n      0x00\n        /* \"contracts/BUDS.sol\":19717:19720  360 */\n      0x0168\n        /* \"contracts/BUDS.sol\":24076:24094  getLastResetTime() */\n      tag_101\n        /* \"contracts/BUDS.sol\":24203:24221  lastResetTimestamp */\n      sload(0x0a)\n      swap1\n        /* \"contracts/BUDS.sol\":24127:24271  function getLastResetTime() public view returns (uint256) {... */\n      jump\n        /* \"contracts/BUDS.sol\":24076:24094  getLastResetTime() */\n    tag_101:\n        /* \"contracts/BUDS.sol\":24058:24094  block.timestamp - getLastResetTime() */\n      tag_102\n      swap1\n        /* \"contracts/BUDS.sol\":24058:24073  block.timestamp */\n      timestamp\n        /* \"contracts/BUDS.sol\":24058:24094  block.timestamp - getLastResetTime() */\n      tag_99\n      jump\t// in\n    tag_102:\n        /* \"contracts/BUDS.sol\":24058:24111  block.timestamp - getLastResetTime() >= resetInterval */\n      lt\n      iszero\n        /* \"contracts/BUDS.sol\":24051:24111  return block.timestamp - getLastResetTime() >= resetInterval */\n      swap1\n      pop\n        /* \"contracts/BUDS.sol\":23990:24119  function isResetTime() public view returns (bool) {... */\n      swap1\n      jump\t// out\n        /* \"contracts/BUDS.sol\":20556:20688  function getCurrentMonthRewardsLeft() public view returns(uint256)... */\n    tag_44:\n        /* \"contracts/BUDS.sol\":20646:20680  budsToken.balanceOf(address(this)) */\n      mload(0x40)\n      shl(0xe0, 0x70a08231)\n      dup2\n      mstore\n        /* \"contracts/BUDS.sol\":20674:20678  this */\n      address\n        /* \"contracts/BUDS.sol\":20646:20680  budsToken.balanceOf(address(this)) */\n      0x04\n      dup3\n      add\n        /* \"#utility.yul\":1175:1226   */\n      mstore\n        /* \"contracts/BUDS.sol\":20614:20621  uint256 */\n      0x00\n      swap1\n        /* \"contracts/BUDS.sol\":20646:20655  budsToken */\n      immutable(\"0x97f259ca8eaf3029ee26cdddbf846b78a4ea961f945fbbda47f0324ecab47158\")\n      sub(shl(0xa0, 0x01), 0x01)\n        /* \"contracts/BUDS.sol\":20646:20665  budsToken.balanceOf */\n      and\n      swap1\n      0x70a08231\n      swap1\n        /* \"#utility.yul\":1148:1166   */\n      0x24\n      add\n        /* \"contracts/BUDS.sol\":20646:20680  budsToken.balanceOf(address(this)) */\n      0x20\n      mload(0x40)\n      dup1\n      dup4\n      sub\n      dup2\n      dup7\n      gas\n      staticcall\n      iszero\n      dup1\n      iszero\n      tag_107\n      jumpi\n      returndatasize\n      0x00\n      dup1\n      returndatacopy\n      revert(0x00, returndatasize)\n    tag_107:\n      pop\n      pop\n      pop\n      pop\n      mload(0x40)\n      returndatasize\n      not(0x1f)\n      0x1f\n      dup3\n      add\n      and\n      dup3\n      add\n      dup1\n      0x40\n      mstore\n      pop\n      dup2\n      add\n      swap1\n      tag_98\n      swap2\n      swap1\n      tag_109\n      jump\t// in\n        /* \"contracts/BUDS.sol\":20696:21335  function claim() public {... */\n    tag_47:\n        /* \"contracts/BUDS.sol\":20739:20761  isEligible(msg.sender) */\n      tag_111\n        /* \"contracts/BUDS.sol\":20750:20760  msg.sender */\n      caller\n        /* \"contracts/BUDS.sol\":20739:20749  isEligible */\n      tag_50\n        /* \"contracts/BUDS.sol\":20739:20761  isEligible(msg.sender) */\n      jump\t// in\n    tag_111:\n        /* \"contracts/BUDS.sol\":20731:20787  require(isEligible(msg.sender), \"Not eligible to claim\") */\n      tag_112\n      jumpi\n      mload(0x40)\n      shl(0xe5, 0x461bcd)\n      dup2\n      mstore\n        /* \"#utility.yul\":2101:2103   */\n      0x20\n        /* \"contracts/BUDS.sol\":20731:20787  require(isEligible(msg.sender), \"Not eligible to claim\") */\n      0x04\n      dup3\n      add\n        /* \"#utility.yul\":2083:2104   */\n      mstore\n        /* \"#utility.yul\":2140:2142   */\n      0x15\n        /* \"#utility.yul\":2120:2138   */\n      0x24\n      dup3\n      add\n        /* \"#utility.yul\":2113:2143   */\n      mstore\n      shl(0x58, 0x4e6f7420656c696769626c6520746f20636c61696d)\n        /* \"#utility.yul\":2159:2177   */\n      0x44\n      dup3\n      add\n        /* \"#utility.yul\":2152:2203   */\n      mstore\n        /* \"#utility.yul\":2220:2238   */\n      0x64\n      add\n        /* \"contracts/BUDS.sol\":20731:20787  require(isEligible(msg.sender), \"Not eligible to claim\") */\n    tag_113:\n      mload(0x40)\n      dup1\n      swap2\n      sub\n      swap1\n      revert\n    tag_112:\n        /* \"contracts/BUDS.sol\":20816:20837  isWithinClaimWindow() */\n      tag_115\n        /* \"contracts/BUDS.sol\":20816:20835  isWithinClaimWindow */\n      tag_61\n        /* \"contracts/BUDS.sol\":20816:20837  isWithinClaimWindow() */\n      jump\t// in\n    tag_115:\n        /* \"contracts/BUDS.sol\":20808:20871  require(isWithinClaimWindow(), \"Can only claim after 24 hours\") */\n      tag_116\n      jumpi\n      mload(0x40)\n      shl(0xe5, 0x461bcd)\n      dup2\n      mstore\n        /* \"#utility.yul\":2451:2453   */\n      0x20\n        /* \"contracts/BUDS.sol\":20808:20871  require(isWithinClaimWindow(), \"Can only claim after 24 hours\") */\n      0x04\n      dup3\n      add\n        /* \"#utility.yul\":2433:2454   */\n      mstore\n        /* \"#utility.yul\":2490:2492   */\n      0x1d\n        /* \"#utility.yul\":2470:2488   */\n      0x24\n      dup3\n      add\n        /* \"#utility.yul\":2463:2493   */\n      mstore\n        /* \"#utility.yul\":2529:2560   */\n      0x43616e206f6e6c7920636c61696d20616674657220323420686f757273000000\n        /* \"#utility.yul\":2509:2527   */\n      0x44\n      dup3\n      add\n        /* \"#utility.yul\":2502:2561   */\n      mstore\n        /* \"#utility.yul\":2578:2596   */\n      0x64\n      add\n        /* \"contracts/BUDS.sol\":20808:20871  require(isWithinClaimWindow(), \"Can only claim after 24 hours\") */\n      tag_113\n        /* \"#utility.yul\":2249:2602   */\n      jump\n        /* \"contracts/BUDS.sol\":20808:20871  require(isWithinClaimWindow(), \"Can only claim after 24 hours\") */\n    tag_116:\n        /* \"contracts/BUDS.sol\":20910:20944  budsToken.balanceOf(address(this)) */\n      mload(0x40)\n      shl(0xe0, 0x70a08231)\n      dup2\n      mstore\n        /* \"contracts/BUDS.sol\":20938:20942  this */\n      address\n        /* \"contracts/BUDS.sol\":20910:20944  budsToken.balanceOf(address(this)) */\n      0x04\n      dup3\n      add\n        /* \"#utility.yul\":1175:1226   */\n      mstore\n        /* \"contracts/BUDS.sol\":20910:20919  budsToken */\n      immutable(\"0x97f259ca8eaf3029ee26cdddbf846b78a4ea961f945fbbda47f0324ecab47158\")\n      sub(shl(0xa0, 0x01), 0x01)\n        /* \"contracts/BUDS.sol\":20910:20929  budsToken.balanceOf */\n      and\n      swap1\n      0x70a08231\n      swap1\n        /* \"#utility.yul\":1148:1166   */\n      0x24\n      add\n        /* \"contracts/BUDS.sol\":20910:20944  budsToken.balanceOf(address(this)) */\n      0x20\n      mload(0x40)\n      dup1\n      dup4\n      sub\n      dup2\n      dup7\n      gas\n      staticcall\n      iszero\n      dup1\n      iszero\n      tag_121\n      jumpi\n      returndatasize\n      0x00\n      dup1\n      returndatacopy\n      revert(0x00, returndatasize)\n    tag_121:\n      pop\n      pop\n      pop\n      pop\n      mload(0x40)\n      returndatasize\n      not(0x1f)\n      0x1f\n      dup3\n      add\n      and\n      dup3\n      add\n      dup1\n      0x40\n      mstore\n      pop\n      dup2\n      add\n      swap1\n      tag_122\n      swap2\n      swap1\n      tag_109\n      jump\t// in\n    tag_122:\n        /* \"contracts/BUDS.sol\":20884:20907  currentMonthRewardsLeft */\n      0x02\n        /* \"contracts/BUDS.sol\":20884:20944  currentMonthRewardsLeft = budsToken.balanceOf(address(this)) */\n      sstore\n        /* \"contracts/BUDS.sol\":20955:20969  uint256 reward */\n      0x00\n        /* \"contracts/BUDS.sol\":20972:20989  calculateReward() */\n      tag_123\n        /* \"contracts/BUDS.sol\":20972:20987  calculateReward */\n      tag_124\n        /* \"contracts/BUDS.sol\":20972:20989  calculateReward() */\n      jump\t// in\n    tag_123:\n        /* \"contracts/BUDS.sol\":21014:21024  msg.sender */\n      caller\n        /* \"contracts/BUDS.sol\":21000:21025  lastClaimTime[msg.sender] */\n      0x00\n      swap1\n      dup2\n      mstore\n        /* \"contracts/BUDS.sol\":21000:21013  lastClaimTime */\n      0x05\n        /* \"contracts/BUDS.sol\":21000:21025  lastClaimTime[msg.sender] */\n      0x20\n      mstore\n      0x40\n      dup2\n      keccak256\n        /* \"contracts/BUDS.sol\":21028:21043  block.timestamp */\n      timestamp\n        /* \"contracts/BUDS.sol\":21000:21043  lastClaimTime[msg.sender] = block.timestamp */\n      swap1\n      sstore\n        /* \"contracts/BUDS.sol\":21054:21077  currentMonthRewardsLeft */\n      0x02\n        /* \"contracts/BUDS.sol\":21054:21087  currentMonthRewardsLeft -= reward */\n      dup1\n      sload\n        /* \"contracts/BUDS.sol\":20955:20989  uint256 reward = calculateReward() */\n      swap3\n      swap4\n      pop\n      dup4\n      swap3\n        /* \"contracts/BUDS.sol\":21054:21077  currentMonthRewardsLeft */\n      swap1\n      swap2\n        /* \"contracts/BUDS.sol\":21000:21025  lastClaimTime[msg.sender] */\n      swap1\n        /* \"contracts/BUDS.sol\":21054:21087  currentMonthRewardsLeft -= reward */\n      tag_125\n      swap1\n        /* \"contracts/BUDS.sol\":20955:20989  uint256 reward = calculateReward() */\n      dup5\n      swap1\n        /* \"contracts/BUDS.sol\":21054:21087  currentMonthRewardsLeft -= reward */\n      tag_99\n      jump\t// in\n    tag_125:\n      swap1\n      swap2\n      sstore\n      pop\n      pop\n        /* \"contracts/BUDS.sol\":21136:21182  IERC20(budsToken).transfer(msg.sender, reward) */\n      mload(0x40)\n      shl(0xe0, 0xa9059cbb)\n      dup2\n      mstore\n        /* \"contracts/BUDS.sol\":21163:21173  msg.sender */\n      caller\n        /* \"contracts/BUDS.sol\":21136:21182  IERC20(budsToken).transfer(msg.sender, reward) */\n      0x04\n      dup3\n      add\n        /* \"#utility.yul\":2781:2832   */\n      mstore\n        /* \"#utility.yul\":2848:2866   */\n      0x24\n      dup2\n      add\n        /* \"#utility.yul\":2841:2875   */\n      dup3\n      swap1\n      mstore\n        /* \"contracts/BUDS.sol\":21143:21152  budsToken */\n      immutable(\"0x97f259ca8eaf3029ee26cdddbf846b78a4ea961f945fbbda47f0324ecab47158\")\n      sub(shl(0xa0, 0x01), 0x01)\n        /* \"contracts/BUDS.sol\":21136:21162  IERC20(budsToken).transfer */\n      and\n      swap1\n      0xa9059cbb\n      swap1\n        /* \"#utility.yul\":2754:2772   */\n      0x44\n      add\n        /* \"contracts/BUDS.sol\":21136:21182  IERC20(budsToken).transfer(msg.sender, reward) */\n      0x20\n      mload(0x40)\n      dup1\n      dup4\n      sub\n      dup2\n      0x00\n      dup8\n      gas\n      call\n      iszero\n      dup1\n      iszero\n      tag_129\n      jumpi\n      returndatasize\n      0x00\n      dup1\n      returndatacopy\n      revert(0x00, returndatasize)\n    tag_129:\n      pop\n      pop\n      pop\n      pop\n      mload(0x40)\n      returndatasize\n      not(0x1f)\n      0x1f\n      dup3\n      add\n      and\n      dup3\n      add\n      dup1\n      0x40\n      mstore\n      pop\n      dup2\n      add\n      swap1\n      tag_130\n      swap2\n      swap1\n      tag_131\n      jump\t// in\n    tag_130:\n      pop\n        /* \"contracts/BUDS.sol\":21200:21225  Claim(msg.sender, reward) */\n      mload(0x40)\n        /* \"#utility.yul\":160:185   */\n      dup2\n      dup2\n      mstore\n        /* \"contracts/BUDS.sol\":21206:21216  msg.sender */\n      caller\n      swap1\n        /* \"contracts/BUDS.sol\":21200:21225  Claim(msg.sender, reward) */\n      0x47cee97cb7acd717b3c0aa1435d004cd5b3c8c57d70dbceb4e4458bbd60e39d4\n      swap1\n        /* \"#utility.yul\":148:150   */\n      0x20\n        /* \"#utility.yul\":133:151   */\n      add\n        /* \"contracts/BUDS.sol\":21200:21225  Claim(msg.sender, reward) */\n      mload(0x40)\n      dup1\n      swap2\n      sub\n      swap1\n      log2\n        /* \"contracts/BUDS.sol\":21279:21292  isResetTime() */\n      tag_133\n        /* \"contracts/BUDS.sol\":21279:21290  isResetTime */\n      tag_38\n        /* \"contracts/BUDS.sol\":21279:21292  isResetTime() */\n      jump\t// in\n    tag_133:\n        /* \"contracts/BUDS.sol\":21275:21328  if (isResetTime()) {... */\n      iszero\n      tag_135\n      jumpi\n        /* \"contracts/BUDS.sol\":21309:21316  reset() */\n      tag_135\n        /* \"contracts/BUDS.sol\":21309:21314  reset */\n      tag_136\n        /* \"contracts/BUDS.sol\":21309:21316  reset() */\n      jump\t// in\n    tag_135:\n        /* \"contracts/BUDS.sol\":20720:21335  {... */\n      pop\n        /* \"contracts/BUDS.sol\":20696:21335  function claim() public {... */\n      jump\t// out\n        /* \"contracts/BUDS.sol\":21343:21581  function isEligible(address user) public view returns (bool) {... */\n    tag_50:\n        /* \"contracts/BUDS.sol\":21398:21402  bool */\n      0x00\n        /* \"contracts/BUDS.sol\":21489:21504  uint256 lpValue */\n      dup1\n        /* \"contracts/BUDS.sol\":21507:21534  getUSDValueOfLPTokens(user) */\n      tag_138\n        /* \"contracts/BUDS.sol\":21529:21533  user */\n      dup4\n        /* \"contracts/BUDS.sol\":21507:21528  getUSDValueOfLPTokens */\n      tag_139\n        /* \"contracts/BUDS.sol\":21507:21534  getUSDValueOfLPTokens(user) */\n      jump\t// in\n    tag_138:\n        /* \"contracts/BUDS.sol\":19445:19455  1 * 10**18 */\n      0x0de0b6b3a7640000\n      gt\n        /* \"contracts/BUDS.sol\":21552:21573  lpValue >= minLPValue */\n      iszero\n      swap4\n        /* \"contracts/BUDS.sol\":21343:21581  function isEligible(address user) public view returns (bool) {... */\n      swap3\n      pop\n      pop\n      pop\n      jump\t// out\n        /* \"contracts/BUDS.sol\":24740:24914  function withdrawExcess(address token, uint256 amount) external {... */\n    tag_55:\n        /* \"contracts/BUDS.sol\":24837:24842  owner */\n      and(sub(shl(0xa0, 0x01), 0x01), sload(0x09))\n        /* \"contracts/BUDS.sol\":24823:24833  msg.sender */\n      caller\n        /* \"contracts/BUDS.sol\":24823:24842  msg.sender == owner */\n      eq\n        /* \"contracts/BUDS.sol\":24815:24858  require(msg.sender == owner, \"not Allowed\") */\n      tag_141\n      jumpi\n      mload(0x40)\n      shl(0xe5, 0x461bcd)\n      dup2\n      mstore\n        /* \"#utility.yul\":3370:3372   */\n      0x20\n        /* \"contracts/BUDS.sol\":24815:24858  require(msg.sender == owner, \"not Allowed\") */\n      0x04\n      dup3\n      add\n        /* \"#utility.yul\":3352:3373   */\n      mstore\n        /* \"#utility.yul\":3409:3411   */\n      0x0b\n        /* \"#utility.yul\":3389:3407   */\n      0x24\n      dup3\n      add\n        /* \"#utility.yul\":3382:3412   */\n      mstore\n      shl(0xaa, 0x1b9bdd08105b1b1bddd959)\n        /* \"#utility.yul\":3428:3446   */\n      0x44\n      dup3\n      add\n        /* \"#utility.yul\":3421:3462   */\n      mstore\n        /* \"#utility.yul\":3479:3497   */\n      0x64\n      add\n        /* \"contracts/BUDS.sol\":24815:24858  require(msg.sender == owner, \"not Allowed\") */\n      tag_113\n        /* \"#utility.yul\":3168:3503   */\n      jump\n        /* \"contracts/BUDS.sol\":24815:24858  require(msg.sender == owner, \"not Allowed\") */\n    tag_141:\n        /* \"contracts/BUDS.sol\":24892:24897  owner */\n      sload(0x09)\n        /* \"contracts/BUDS.sol\":24869:24906  IERC20(token).transfer(owner, amount) */\n      mload(0x40)\n      shl(0xe0, 0xa9059cbb)\n      dup2\n      mstore\n      sub(shl(0xa0, 0x01), 0x01)\n        /* \"contracts/BUDS.sol\":24892:24897  owner */\n      swap2\n      dup3\n      and\n        /* \"contracts/BUDS.sol\":24869:24906  IERC20(token).transfer(owner, amount) */\n      0x04\n      dup3\n      add\n        /* \"#utility.yul\":2781:2832   */\n      mstore\n        /* \"#utility.yul\":2848:2866   */\n      0x24\n      dup2\n      add\n        /* \"#utility.yul\":2841:2875   */\n      dup4\n      swap1\n      mstore\n        /* \"contracts/BUDS.sol\":24869:24891  IERC20(token).transfer */\n      swap1\n      dup4\n      and\n      swap1\n      0xa9059cbb\n      swap1\n        /* \"#utility.yul\":2754:2772   */\n      0x44\n      add\n        /* \"contracts/BUDS.sol\":24869:24906  IERC20(token).transfer(owner, amount) */\n      0x20\n      mload(0x40)\n      dup1\n      dup4\n      sub\n      dup2\n      0x00\n      dup8\n      gas\n      call\n      iszero\n      dup1\n      iszero\n      tag_146\n      jumpi\n      returndatasize\n      0x00\n      dup1\n      returndatacopy\n      revert(0x00, returndatasize)\n    tag_146:\n      pop\n      pop\n      pop\n      pop\n      mload(0x40)\n      returndatasize\n      not(0x1f)\n      0x1f\n      dup3\n      add\n      and\n      dup3\n      add\n      dup1\n      0x40\n      mstore\n      pop\n      dup2\n      add\n      swap1\n      tag_147\n      swap2\n      swap1\n      tag_131\n      jump\t// in\n    tag_147:\n      pop\n        /* \"contracts/BUDS.sol\":24740:24914  function withdrawExcess(address token, uint256 amount) external {... */\n      pop\n      pop\n      jump\t// out\n        /* \"contracts/BUDS.sol\":23778:23982  function isWithinClaimWindow() public view returns (bool) {... */\n    tag_61:\n        /* \"contracts/BUDS.sol\":23958:23968  msg.sender */\n      caller\n        /* \"contracts/BUDS.sol\":23830:23834  bool */\n      0x00\n        /* \"contracts/BUDS.sol\":23944:23969  lastClaimTime[msg.sender] */\n      swap1\n      dup2\n      mstore\n        /* \"contracts/BUDS.sol\":23944:23957  lastClaimTime */\n      0x05\n        /* \"contracts/BUDS.sol\":23944:23969  lastClaimTime[msg.sender] */\n      0x20\n      mstore\n      0x40\n      dup2\n      keccak256\n      sload\n        /* \"contracts/BUDS.sol\":23944:23974  lastClaimTime[msg.sender] + 60 */\n      tag_149\n      swap1\n        /* \"contracts/BUDS.sol\":23972:23974  60 */\n      0x3c\n        /* \"contracts/BUDS.sol\":23944:23974  lastClaimTime[msg.sender] + 60 */\n      tag_150\n      jump\t// in\n    tag_149:\n        /* \"contracts/BUDS.sol\":23926:23941  block.timestamp */\n      timestamp\n        /* \"contracts/BUDS.sol\":23926:23974  block.timestamp > lastClaimTime[msg.sender] + 60 */\n      gt\n        /* \"contracts/BUDS.sol\":23919:23974  return block.timestamp > lastClaimTime[msg.sender] + 60 */\n      swap1\n      pop\n        /* \"contracts/BUDS.sol\":23778:23982  function isWithinClaimWindow() public view returns (bool) {... */\n      swap1\n      jump\t// out\n        /* \"contracts/BUDS.sol\":25033:25345  function reduceCommission() public {... */\n    tag_64:\n        /* \"contracts/BUDS.sol\":25087:25126  IERC20(budsToken).balanceOf(msg.sender) */\n      mload(0x40)\n      shl(0xe0, 0x70a08231)\n      dup2\n      mstore\n        /* \"contracts/BUDS.sol\":25115:25125  msg.sender */\n      caller\n        /* \"contracts/BUDS.sol\":25087:25126  IERC20(budsToken).balanceOf(msg.sender) */\n      0x04\n      dup3\n      add\n        /* \"#utility.yul\":1175:1226   */\n      mstore\n        /* \"contracts/BUDS.sol\":25129:25130  0 */\n      0x00\n      swap1\n        /* \"contracts/BUDS.sol\":25094:25103  budsToken */\n      immutable(\"0x97f259ca8eaf3029ee26cdddbf846b78a4ea961f945fbbda47f0324ecab47158\")\n      sub(shl(0xa0, 0x01), 0x01)\n        /* \"contracts/BUDS.sol\":25087:25114  IERC20(budsToken).balanceOf */\n      and\n      swap1\n      0x70a08231\n      swap1\n        /* \"#utility.yul\":1148:1166   */\n      0x24\n      add\n        /* \"contracts/BUDS.sol\":25087:25126  IERC20(budsToken).balanceOf(msg.sender) */\n      0x20\n      mload(0x40)\n      dup1\n      dup4\n      sub\n      dup2\n      dup7\n      gas\n      staticcall\n      iszero\n      dup1\n      iszero\n      tag_154\n      jumpi\n      returndatasize\n      0x00\n      dup1\n      returndatacopy\n      revert(0x00, returndatasize)\n    tag_154:\n      pop\n      pop\n      pop\n      pop\n      mload(0x40)\n      returndatasize\n      not(0x1f)\n      0x1f\n      dup3\n      add\n      and\n      dup3\n      add\n      dup1\n      0x40\n      mstore\n      pop\n      dup2\n      add\n      swap1\n      tag_155\n      swap2\n      swap1\n      tag_109\n      jump\t// in\n    tag_155:\n        /* \"contracts/BUDS.sol\":25087:25130  IERC20(budsToken).balanceOf(msg.sender) > 0 */\n      gt\n        /* \"contracts/BUDS.sol\":25079:25148  require(IERC20(budsToken).balanceOf(msg.sender) > 0, \"Zero Holdings\") */\n      tag_156\n      jumpi\n      mload(0x40)\n      shl(0xe5, 0x461bcd)\n      dup2\n      mstore\n        /* \"#utility.yul\":3840:3842   */\n      0x20\n        /* \"contracts/BUDS.sol\":25079:25148  require(IERC20(budsToken).balanceOf(msg.sender) > 0, \"Zero Holdings\") */\n      0x04\n      dup3\n      add\n        /* \"#utility.yul\":3822:3843   */\n      mstore\n        /* \"#utility.yul\":3879:3881   */\n      0x0d\n        /* \"#utility.yul\":3859:3877   */\n      0x24\n      dup3\n      add\n        /* \"#utility.yul\":3852:3882   */\n      mstore\n      shl(0x98, 0x5a65726f20486f6c64696e6773)\n        /* \"#utility.yul\":3898:3916   */\n      0x44\n      dup3\n      add\n        /* \"#utility.yul\":3891:3934   */\n      mstore\n        /* \"#utility.yul\":3951:3969   */\n      0x64\n      add\n        /* \"contracts/BUDS.sol\":25079:25148  require(IERC20(budsToken).balanceOf(msg.sender) > 0, \"Zero Holdings\") */\n      tag_113\n        /* \"#utility.yul\":3638:3975   */\n      jump\n        /* \"contracts/BUDS.sol\":25079:25148  require(IERC20(budsToken).balanceOf(msg.sender) > 0, \"Zero Holdings\") */\n    tag_156:\n        /* \"contracts/BUDS.sol\":25195:25205  msg.sender */\n      caller\n        /* \"contracts/BUDS.sol\":25182:25206  alreadyVoted[msg.sender] */\n      0x00\n      swap1\n      dup2\n      mstore\n        /* \"contracts/BUDS.sol\":25182:25194  alreadyVoted */\n      0x06\n        /* \"contracts/BUDS.sol\":25182:25206  alreadyVoted[msg.sender] */\n      0x20\n      mstore\n      0x40\n      swap1\n      keccak256\n      sload\n      0xff\n      and\n        /* \"contracts/BUDS.sol\":25181:25206  !alreadyVoted[msg.sender] */\n      iszero\n        /* \"contracts/BUDS.sol\":25159:25272  require(... */\n      tag_159\n      jumpi\n      mload(0x40)\n      shl(0xe5, 0x461bcd)\n      dup2\n      mstore\n        /* \"#utility.yul\":4182:4184   */\n      0x20\n        /* \"contracts/BUDS.sol\":25159:25272  require(... */\n      0x04\n      dup3\n      add\n        /* \"#utility.yul\":4164:4185   */\n      mstore\n        /* \"#utility.yul\":4221:4223   */\n      0x26\n        /* \"#utility.yul\":4201:4219   */\n      0x24\n      dup3\n      add\n        /* \"#utility.yul\":4194:4224   */\n      mstore\n        /* \"#utility.yul\":4260:4294   */\n      0x596f75206861766520616c7265616479206170706c69656420666f7220726564\n        /* \"#utility.yul\":4240:4258   */\n      0x44\n      dup3\n      add\n        /* \"#utility.yul\":4233:4295   */\n      mstore\n      shl(0xd1, 0x3ab1ba34b7b7)\n        /* \"#utility.yul\":4311:4329   */\n      0x64\n      dup3\n      add\n        /* \"#utility.yul\":4304:4340   */\n      mstore\n        /* \"#utility.yul\":4357:4376   */\n      0x84\n      add\n        /* \"contracts/BUDS.sol\":25159:25272  require(... */\n      tag_113\n        /* \"#utility.yul\":3980:4382   */\n      jump\n        /* \"contracts/BUDS.sol\":25159:25272  require(... */\n    tag_159:\n        /* \"contracts/BUDS.sol\":25283:25293  applicants */\n      0x07\n        /* \"contracts/BUDS.sol\":25283:25295  applicants++ */\n      dup1\n      sload\n      swap1\n        /* \"contracts/BUDS.sol\":25283:25293  applicants */\n      0x00\n        /* \"contracts/BUDS.sol\":25283:25295  applicants++ */\n      tag_162\n      dup4\n      tag_163\n      jump\t// in\n    tag_162:\n      swap1\n      swap2\n      sstore\n      pop\n      pop\n        /* \"contracts/BUDS.sol\":25319:25329  msg.sender */\n      caller\n        /* \"contracts/BUDS.sol\":25306:25330  alreadyVoted[msg.sender] */\n      0x00\n      swap1\n      dup2\n      mstore\n        /* \"contracts/BUDS.sol\":25306:25318  alreadyVoted */\n      0x06\n        /* \"contracts/BUDS.sol\":25306:25330  alreadyVoted[msg.sender] */\n      0x20\n      mstore\n      0x40\n      swap1\n      keccak256\n        /* \"contracts/BUDS.sol\":25306:25337  alreadyVoted[msg.sender] = true */\n      dup1\n      sload\n      not(0xff)\n      and\n        /* \"contracts/BUDS.sol\":25333:25337  true */\n      0x01\n        /* \"contracts/BUDS.sol\":25306:25337  alreadyVoted[msg.sender] = true */\n      or\n      swap1\n      sstore\n        /* \"contracts/BUDS.sol\":25033:25345  function reduceCommission() public {... */\n      jump\t// out\n        /* \"contracts/BUDS.sol\":22836:23770  function calculateReward() internal returns (uint256) {... */\n    tag_124:\n        /* \"contracts/BUDS.sol\":22881:22888  uint256 */\n      0x00\n        /* \"contracts/BUDS.sol\":22904:22914  claimCount */\n      sload(0x04)\n        /* \"contracts/BUDS.sol\":22918:22919  0 */\n      0x00\n        /* \"contracts/BUDS.sol\":22904:22919  claimCount == 0 */\n      sub\n        /* \"contracts/BUDS.sol\":22901:23554  if(claimCount == 0){... */\n      tag_177\n      jumpi\n        /* \"contracts/BUDS.sol\":23286:23287  2 */\n      0x02\n        /* \"contracts/BUDS.sol\":23263:23283  numberOfApplicants() */\n      tag_167\n        /* \"contracts/BUDS.sol\":25007:25017  applicants */\n      sload(0x07)\n      swap1\n        /* \"contracts/BUDS.sol\":24924:25025  function numberOfApplicants() public view returns (uint256)... */\n      jump\n        /* \"contracts/BUDS.sol\":23263:23283  numberOfApplicants() */\n    tag_167:\n        /* \"contracts/BUDS.sol\":23263:23287  numberOfApplicants() < 2 */\n      lt\n        /* \"contracts/BUDS.sol\":23260:23544  if(numberOfApplicants() < 2){initialReward = 5000 * 10**18;}... */\n      iszero\n      tag_168\n      jumpi\n        /* \"contracts/BUDS.sol\":23305:23318  5000 * 10**18 */\n      0x010f0cf064dd59200000\n        /* \"contracts/BUDS.sol\":23289:23302  initialReward */\n      0x01\n        /* \"contracts/BUDS.sol\":23289:23318  initialReward = 5000 * 10**18 */\n      sstore\n        /* \"contracts/BUDS.sol\":23260:23544  if(numberOfApplicants() < 2){initialReward = 5000 * 10**18;}... */\n      jump(tag_177)\n    tag_168:\n        /* \"contracts/BUDS.sol\":23361:23362  2 */\n      0x02\n        /* \"contracts/BUDS.sol\":23337:23357  numberOfApplicants() */\n      tag_170\n        /* \"contracts/BUDS.sol\":25007:25017  applicants */\n      sload(0x07)\n      swap1\n        /* \"contracts/BUDS.sol\":24924:25025  function numberOfApplicants() public view returns (uint256)... */\n      jump\n        /* \"contracts/BUDS.sol\":23337:23357  numberOfApplicants() */\n    tag_170:\n        /* \"contracts/BUDS.sol\":23337:23362  numberOfApplicants() >= 2 */\n      lt\n        /* \"contracts/BUDS.sol\":23334:23544  if(numberOfApplicants() >= 2){initialReward = 2500 * 10**18;}... */\n      tag_171\n      jumpi\n        /* \"contracts/BUDS.sol\":23380:23393  2500 * 10**18 */\n      0x878678326eac900000\n        /* \"contracts/BUDS.sol\":23364:23377  initialReward */\n      0x01\n        /* \"contracts/BUDS.sol\":23364:23393  initialReward = 2500 * 10**18 */\n      sstore\n        /* \"contracts/BUDS.sol\":23334:23544  if(numberOfApplicants() >= 2){initialReward = 2500 * 10**18;}... */\n      jump(tag_177)\n    tag_171:\n        /* \"contracts/BUDS.sol\":23436:23437  4 */\n      0x04\n        /* \"contracts/BUDS.sol\":23412:23432  numberOfApplicants() */\n      tag_173\n        /* \"contracts/BUDS.sol\":25007:25017  applicants */\n      sload(0x07)\n      swap1\n        /* \"contracts/BUDS.sol\":24924:25025  function numberOfApplicants() public view returns (uint256)... */\n      jump\n        /* \"contracts/BUDS.sol\":23412:23432  numberOfApplicants() */\n    tag_173:\n        /* \"contracts/BUDS.sol\":23412:23437  numberOfApplicants() >= 4 */\n      lt\n        /* \"contracts/BUDS.sol\":23409:23544  if(numberOfApplicants() >= 4){initialReward = 1250 * 10**18;}... */\n      tag_174\n      jumpi\n        /* \"contracts/BUDS.sol\":23455:23468  1250 * 10**18 */\n      0x43c33c193756480000\n        /* \"contracts/BUDS.sol\":23439:23452  initialReward */\n      0x01\n        /* \"contracts/BUDS.sol\":23439:23468  initialReward = 1250 * 10**18 */\n      sstore\n        /* \"contracts/BUDS.sol\":23409:23544  if(numberOfApplicants() >= 4){initialReward = 1250 * 10**18;}... */\n      jump(tag_177)\n    tag_174:\n        /* \"contracts/BUDS.sol\":23511:23512  6 */\n      0x06\n        /* \"contracts/BUDS.sol\":23487:23507  numberOfApplicants() */\n      tag_176\n        /* \"contracts/BUDS.sol\":25007:25017  applicants */\n      sload(0x07)\n      swap1\n        /* \"contracts/BUDS.sol\":24924:25025  function numberOfApplicants() public view returns (uint256)... */\n      jump\n        /* \"contracts/BUDS.sol\":23487:23507  numberOfApplicants() */\n    tag_176:\n        /* \"contracts/BUDS.sol\":23487:23512  numberOfApplicants() >= 6 */\n      lt\n        /* \"contracts/BUDS.sol\":23484:23544  if(numberOfApplicants() >= 6){initialReward = 750 * 10**18;} */\n      tag_177\n      jumpi\n        /* \"contracts/BUDS.sol\":23530:23542  750 * 10**18 */\n      0x28a857425466f80000\n        /* \"contracts/BUDS.sol\":23514:23527  initialReward */\n      0x01\n        /* \"contracts/BUDS.sol\":23514:23542  initialReward = 750 * 10**18 */\n      sstore\n        /* \"contracts/BUDS.sol\":23484:23544  if(numberOfApplicants() >= 6){initialReward = 750 * 10**18;} */\n    tag_177:\n        /* \"contracts/BUDS.sol\":23573:23592  uint256 claimAmount */\n      0x00\n        /* \"contracts/BUDS.sol\":23638:23641  100 */\n      0x64\n        /* \"contracts/BUDS.sol\":23619:23632  claimDiscount */\n      sload(0x03)\n        /* \"contracts/BUDS.sol\":23613:23616  100 */\n      0x64\n        /* \"contracts/BUDS.sol\":23613:23632  100 - claimDiscount */\n      tag_178\n      swap2\n      swap1\n      tag_99\n      jump\t// in\n    tag_178:\n        /* \"contracts/BUDS.sol\":23596:23609  initialReward */\n      sload(0x01)\n        /* \"contracts/BUDS.sol\":23596:23633  initialReward * (100 - claimDiscount) */\n      tag_179\n      swap2\n      swap1\n      tag_180\n      jump\t// in\n    tag_179:\n        /* \"contracts/BUDS.sol\":23595:23642  (initialReward * (100 - claimDiscount)) / (100) */\n      tag_181\n      swap2\n      swap1\n      tag_182\n      jump\t// in\n    tag_181:\n        /* \"contracts/BUDS.sol\":23653:23666  initialReward */\n      0x01\n        /* \"contracts/BUDS.sol\":23653:23680  initialReward = claimAmount */\n      dup2\n      swap1\n      sstore\n        /* \"contracts/BUDS.sol\":23707:23709  10 */\n      0x0a\n        /* \"contracts/BUDS.sol\":23691:23704  claimDiscount */\n      0x03\n        /* \"contracts/BUDS.sol\":23691:23709  claimDiscount = 10 */\n      sstore\n        /* \"contracts/BUDS.sol\":23721:23731  claimCount */\n      0x04\n        /* \"contracts/BUDS.sol\":23721:23733  claimCount++ */\n      dup1\n      sload\n        /* \"contracts/BUDS.sol\":23573:23642  uint256 claimAmount = (initialReward * (100 - claimDiscount)) / (100) */\n      swap2\n      swap3\n      pop\n      0x00\n        /* \"contracts/BUDS.sol\":23721:23733  claimCount++ */\n      tag_183\n      dup4\n      tag_163\n      jump\t// in\n    tag_183:\n      swap1\n      swap2\n      sstore\n      pop\n        /* \"contracts/BUDS.sol\":23751:23762  claimAmount */\n      swap1\n      swap3\n        /* \"contracts/BUDS.sol\":22836:23770  function calculateReward() internal returns (uint256) {... */\n      swap2\n      pop\n      pop\n      jump\t// out\n        /* \"contracts/BUDS.sol\":24279:24643  function reset() internal {... */\n    tag_136:\n        /* \"contracts/BUDS.sol\":24397:24439  IERC20(budsToken).balanceOf(address(this)) */\n      mload(0x40)\n      shl(0xe0, 0x70a08231)\n      dup2\n      mstore\n        /* \"contracts/BUDS.sol\":24433:24437  this */\n      address\n        /* \"contracts/BUDS.sol\":24397:24439  IERC20(budsToken).balanceOf(address(this)) */\n      0x04\n      dup3\n      add\n        /* \"#utility.yul\":1175:1226   */\n      mstore\n        /* \"contracts/BUDS.sol\":24371:24394  uint256 remainingTokens */\n      0x00\n      swap1\n        /* \"contracts/BUDS.sol\":24404:24413  budsToken */\n      immutable(\"0x97f259ca8eaf3029ee26cdddbf846b78a4ea961f945fbbda47f0324ecab47158\")\n      sub(shl(0xa0, 0x01), 0x01)\n        /* \"contracts/BUDS.sol\":24397:24424  IERC20(budsToken).balanceOf */\n      and\n      swap1\n      0x70a08231\n      swap1\n        /* \"#utility.yul\":1148:1166   */\n      0x24\n      add\n        /* \"contracts/BUDS.sol\":24397:24439  IERC20(budsToken).balanceOf(address(this)) */\n      0x20\n      mload(0x40)\n      dup1\n      dup4\n      sub\n      dup2\n      dup7\n      gas\n      staticcall\n      iszero\n      dup1\n      iszero\n      tag_187\n      jumpi\n      returndatasize\n      0x00\n      dup1\n      returndatacopy\n      revert(0x00, returndatasize)\n    tag_187:\n      pop\n      pop\n      pop\n      pop\n      mload(0x40)\n      returndatasize\n      not(0x1f)\n      0x1f\n      dup3\n      add\n      and\n      dup3\n      add\n      dup1\n      0x40\n      mstore\n      pop\n      dup2\n      add\n      swap1\n      tag_188\n      swap2\n      swap1\n      tag_109\n      jump\t// in\n    tag_188:\n        /* \"contracts/BUDS.sol\":24477:24493  marketingAddress */\n      sload(0x08)\n        /* \"contracts/BUDS.sol\":24450:24511  IERC20(budsToken).transfer(marketingAddress, remainingTokens) */\n      mload(0x40)\n      shl(0xe0, 0xa9059cbb)\n      dup2\n      mstore\n      sub(shl(0xa0, 0x01), 0x01)\n        /* \"contracts/BUDS.sol\":24477:24493  marketingAddress */\n      swap2\n      dup3\n      and\n        /* \"contracts/BUDS.sol\":24450:24511  IERC20(budsToken).transfer(marketingAddress, remainingTokens) */\n      0x04\n      dup3\n      add\n        /* \"#utility.yul\":2781:2832   */\n      mstore\n        /* \"#utility.yul\":2848:2866   */\n      0x24\n      dup2\n      add\n        /* \"#utility.yul\":2841:2875   */\n      dup4\n      swap1\n      mstore\n        /* \"contracts/BUDS.sol\":24371:24439  uint256 remainingTokens = IERC20(budsToken).balanceOf(address(this)) */\n      swap2\n      swap3\n      pop\n        /* \"contracts/BUDS.sol\":24457:24466  budsToken */\n      immutable(\"0x97f259ca8eaf3029ee26cdddbf846b78a4ea961f945fbbda47f0324ecab47158\")\n        /* \"contracts/BUDS.sol\":24450:24476  IERC20(budsToken).transfer */\n      and\n      swap1\n      0xa9059cbb\n      swap1\n        /* \"#utility.yul\":2754:2772   */\n      0x44\n      add\n        /* \"contracts/BUDS.sol\":24450:24511  IERC20(budsToken).transfer(marketingAddress, remainingTokens) */\n      0x20\n      mload(0x40)\n      dup1\n      dup4\n      sub\n      dup2\n      0x00\n      dup8\n      gas\n      call\n      iszero\n      dup1\n      iszero\n      tag_191\n      jumpi\n      returndatasize\n      0x00\n      dup1\n      returndatacopy\n      revert(0x00, returndatasize)\n    tag_191:\n      pop\n      pop\n      pop\n      pop\n      mload(0x40)\n      returndatasize\n      not(0x1f)\n      0x1f\n      dup3\n      add\n      and\n      dup3\n      add\n      dup1\n      0x40\n      mstore\n      pop\n      dup2\n      add\n      swap1\n      tag_192\n      swap2\n      swap1\n      tag_131\n      jump\t// in\n    tag_192:\n      pop\n        /* \"contracts/BUDS.sol\":24543:24558  block.timestamp */\n      timestamp\n        /* \"contracts/BUDS.sol\":24522:24540  lastResetTimestamp */\n      0x0a\n        /* \"contracts/BUDS.sol\":24522:24558  lastResetTimestamp = block.timestamp */\n      sstore\n        /* \"contracts/BUDS.sol\":24585:24586  0 */\n      0x00\n        /* \"contracts/BUDS.sol\":24569:24582  claimDiscount */\n      0x03\n        /* \"contracts/BUDS.sol\":24569:24586  claimDiscount = 0 */\n      dup2\n      swap1\n      sstore\n        /* \"contracts/BUDS.sol\":24597:24607  claimCount */\n      0x04\n        /* \"contracts/BUDS.sol\":24597:24611  claimCount = 0 */\n      dup2\n      swap1\n      sstore\n        /* \"contracts/BUDS.sol\":24627:24634  Reset() */\n      mload(0x40)\n      0x6423db340205c829eeb91151b1c5d1dc6d7a2b8708b1621494e89ba90c87081e\n      swap2\n        /* \"contracts/BUDS.sol\":24585:24586  0 */\n      swap1\n        /* \"contracts/BUDS.sol\":24627:24634  Reset() */\n      log1\n        /* \"contracts/BUDS.sol\":24305:24643  {... */\n      pop\n        /* \"contracts/BUDS.sol\":24279:24643  function reset() internal {... */\n      jump\t// out\n        /* \"contracts/BUDS.sol\":21649:22690  function getUSDValueOfLPTokens(address user)... */\n    tag_139:\n        /* \"contracts/BUDS.sol\":21744:21751  uint256 */\n      0x00\n        /* \"contracts/BUDS.sol\":21777:21791  lpTokenAddress */\n      dup1\n      sload\n      sub(shl(0xa0, 0x01), 0x01)\n      and\n        /* \"contracts/BUDS.sol\":21769:21838  require(lpTokenAddress != address(0), \"Uniswap pool address not set\") */\n      tag_194\n      jumpi\n      mload(0x40)\n      shl(0xe5, 0x461bcd)\n      dup2\n      mstore\n        /* \"#utility.yul\":5124:5126   */\n      0x20\n        /* \"contracts/BUDS.sol\":21769:21838  require(lpTokenAddress != address(0), \"Uniswap pool address not set\") */\n      0x04\n      dup3\n      add\n        /* \"#utility.yul\":5106:5127   */\n      mstore\n        /* \"#utility.yul\":5163:5165   */\n      0x1c\n        /* \"#utility.yul\":5143:5161   */\n      0x24\n      dup3\n      add\n        /* \"#utility.yul\":5136:5166   */\n      mstore\n        /* \"#utility.yul\":5202:5232   */\n      0x556e697377617020706f6f6c2061646472657373206e6f742073657400000000\n        /* \"#utility.yul\":5182:5200   */\n      0x44\n      dup3\n      add\n        /* \"#utility.yul\":5175:5233   */\n      mstore\n        /* \"#utility.yul\":5250:5268   */\n      0x64\n      add\n        /* \"contracts/BUDS.sol\":21769:21838  require(lpTokenAddress != address(0), \"Uniswap pool address not set\") */\n      tag_113\n        /* \"#utility.yul\":4922:5274   */\n      jump\n        /* \"contracts/BUDS.sol\":21769:21838  require(lpTokenAddress != address(0), \"Uniswap pool address not set\") */\n    tag_194:\n        /* \"contracts/BUDS.sol\":21900:21922  uint256 lpTokenBalance */\n      0x00\n        /* \"contracts/BUDS.sol\":21932:21946  lpTokenAddress */\n      dup1\n      sload\n        /* \"contracts/BUDS.sol\":21925:21963  IERC20(lpTokenAddress).balanceOf(user) */\n      mload(0x40)\n      shl(0xe0, 0x70a08231)\n      dup2\n      mstore\n      sub(shl(0xa0, 0x01), 0x01)\n        /* \"#utility.yul\":1193:1225   */\n      dup6\n      dup2\n      and\n        /* \"contracts/BUDS.sol\":21925:21963  IERC20(lpTokenAddress).balanceOf(user) */\n      0x04\n      dup4\n      add\n        /* \"#utility.yul\":1175:1226   */\n      mstore\n        /* \"contracts/BUDS.sol\":21932:21946  lpTokenAddress */\n      swap1\n      swap2\n      and\n      swap1\n        /* \"contracts/BUDS.sol\":21925:21957  IERC20(lpTokenAddress).balanceOf */\n      0x70a08231\n      swap1\n        /* \"#utility.yul\":1148:1166   */\n      0x24\n      add\n        /* \"contracts/BUDS.sol\":21925:21963  IERC20(lpTokenAddress).balanceOf(user) */\n      0x20\n      mload(0x40)\n      dup1\n      dup4\n      sub\n      dup2\n      dup7\n      gas\n      staticcall\n      iszero\n      dup1\n      iszero\n      tag_199\n      jumpi\n      returndatasize\n      0x00\n      dup1\n      returndatacopy\n      revert(0x00, returndatasize)\n    tag_199:\n      pop\n      pop\n      pop\n      pop\n      mload(0x40)\n      returndatasize\n      not(0x1f)\n      0x1f\n      dup3\n      add\n      and\n      dup3\n      add\n      dup1\n      0x40\n      mstore\n      pop\n      dup2\n      add\n      swap1\n      tag_200\n      swap2\n      swap1\n      tag_109\n      jump\t// in\n    tag_200:\n        /* \"contracts/BUDS.sol\":21900:21963  uint256 lpTokenBalance = IERC20(lpTokenAddress).balanceOf(user) */\n      swap1\n      pop\n        /* \"contracts/BUDS.sol\":22047:22068  uint256 totalLPTokens */\n      0x00\n        /* \"contracts/BUDS.sol\":22078:22092  lpTokenAddress */\n      dup1\n      0x00\n      swap1\n      sload\n      swap1\n      0x0100\n      exp\n      swap1\n      div\n      sub(shl(0xa0, 0x01), 0x01)\n      and\n      sub(shl(0xa0, 0x01), 0x01)\n        /* \"contracts/BUDS.sol\":22071:22105  IERC20(lpTokenAddress).totalSupply */\n      and\n      0x18160ddd\n        /* \"contracts/BUDS.sol\":22071:22107  IERC20(lpTokenAddress).totalSupply() */\n      mload(0x40)\n      dup2\n      0xffffffff\n      and\n      0xe0\n      shl\n      dup2\n      mstore\n      0x04\n      add\n      0x20\n      mload(0x40)\n      dup1\n      dup4\n      sub\n      dup2\n      dup7\n      gas\n      staticcall\n      iszero\n      dup1\n      iszero\n      tag_202\n      jumpi\n      returndatasize\n      0x00\n      dup1\n      returndatacopy\n      revert(0x00, returndatasize)\n    tag_202:\n      pop\n      pop\n      pop\n      pop\n      mload(0x40)\n      returndatasize\n      not(0x1f)\n      0x1f\n      dup3\n      add\n      and\n      dup3\n      add\n      dup1\n      0x40\n      mstore\n      pop\n      dup2\n      add\n      swap1\n      tag_203\n      swap2\n      swap1\n      tag_109\n      jump\t// in\n    tag_203:\n        /* \"contracts/BUDS.sol\":22047:22107  uint256 totalLPTokens = IERC20(lpTokenAddress).totalSupply() */\n      swap1\n      pop\n        /* \"contracts/BUDS.sol\":22195:22214  uint256 reserveUSDT */\n      0x00\n        /* \"contracts/BUDS.sol\":22237:22251  lpTokenAddress */\n      dup1\n      0x00\n      swap1\n      sload\n      swap1\n      0x0100\n      exp\n      swap1\n      div\n      sub(shl(0xa0, 0x01), 0x01)\n      and\n      sub(shl(0xa0, 0x01), 0x01)\n        /* \"contracts/BUDS.sol\":22222:22278  IUniswapV2Pair(lpTokenAddress)... */\n      and\n      0x0902f1ac\n        /* \"contracts/BUDS.sol\":22222:22280  IUniswapV2Pair(lpTokenAddress)... */\n      mload(0x40)\n      dup2\n      0xffffffff\n      and\n      0xe0\n      shl\n      dup2\n      mstore\n      0x04\n      add\n      0x60\n      mload(0x40)\n      dup1\n      dup4\n      sub\n      dup2\n      dup7\n      gas\n      staticcall\n      iszero\n      dup1\n      iszero\n      tag_205\n      jumpi\n      returndatasize\n      0x00\n      dup1\n      returndatacopy\n      revert(0x00, returndatasize)\n    tag_205:\n      pop\n      pop\n      pop\n      pop\n      mload(0x40)\n      returndatasize\n      not(0x1f)\n      0x1f\n      dup3\n      add\n      and\n      dup3\n      add\n      dup1\n      0x40\n      mstore\n      pop\n      dup2\n      add\n      swap1\n      tag_206\n      swap2\n      swap1\n      tag_207\n      jump\t// in\n    tag_206:\n      pop\n      pop\n      sub(shl(0x70, 0x01), 0x01)\n        /* \"contracts/BUDS.sol\":22194:22280  (uint256 reserveUSDT, , ) = IUniswapV2Pair(lpTokenAddress)... */\n      and\n      swap1\n      pop\n        /* \"contracts/BUDS.sol\":22448:22465  uint256 userShare */\n      0x00\n        /* \"contracts/BUDS.sol\":22497:22510  totalLPTokens */\n      dup3\n        /* \"contracts/BUDS.sol\":22469:22492  lpTokenBalance * (1e18) */\n      tag_208\n        /* \"contracts/BUDS.sol\":22469:22483  lpTokenBalance */\n      dup6\n        /* \"contracts/BUDS.sol\":22487:22491  1e18 */\n      0x0de0b6b3a7640000\n        /* \"contracts/BUDS.sol\":22469:22492  lpTokenBalance * (1e18) */\n      tag_180\n      jump\t// in\n    tag_208:\n        /* \"contracts/BUDS.sol\":22468:22511  (lpTokenBalance * (1e18)) / (totalLPTokens) */\n      tag_209\n      swap2\n      swap1\n      tag_182\n      jump\t// in\n    tag_209:\n        /* \"contracts/BUDS.sol\":22448:22511  uint256 userShare = (lpTokenBalance * (1e18)) / (totalLPTokens) */\n      swap1\n      pop\n        /* \"contracts/BUDS.sol\":22601:22617  uint256 usdValue */\n      0x00\n        /* \"contracts/BUDS.sol\":22649:22653  1e18 */\n      0x0de0b6b3a7640000\n        /* \"contracts/BUDS.sol\":22621:22644  userShare * reserveUSDT */\n      tag_210\n        /* \"contracts/BUDS.sol\":22633:22644  reserveUSDT */\n      dup5\n        /* \"contracts/BUDS.sol\":22448:22511  uint256 userShare = (lpTokenBalance * (1e18)) / (totalLPTokens) */\n      dup5\n        /* \"contracts/BUDS.sol\":22621:22644  userShare * reserveUSDT */\n      tag_180\n      jump\t// in\n    tag_210:\n        /* \"contracts/BUDS.sol\":22620:22654  (userShare * reserveUSDT) / (1e18) */\n      tag_211\n      swap2\n      swap1\n      tag_182\n      jump\t// in\n    tag_211:\n        /* \"contracts/BUDS.sol\":22601:22654  uint256 usdValue = (userShare * reserveUSDT) / (1e18) */\n      swap8\n        /* \"contracts/BUDS.sol\":21649:22690  function getUSDValueOfLPTokens(address user)... */\n      swap7\n      pop\n      pop\n      pop\n      pop\n      pop\n      pop\n      pop\n      jump\t// out\n        /* \"#utility.yul\":196:369   */\n    tag_212:\n        /* \"#utility.yul\":264:284   */\n      dup1\n      calldataload\n      sub(shl(0xa0, 0x01), 0x01)\n        /* \"#utility.yul\":313:344   */\n      dup2\n      and\n        /* \"#utility.yul\":303:345   */\n      dup2\n      eq\n        /* \"#utility.yul\":293:363   */\n      tag_218\n      jumpi\n        /* \"#utility.yul\":359:360   */\n      0x00\n        /* \"#utility.yul\":356:357   */\n      dup1\n        /* \"#utility.yul\":349:361   */\n      revert\n        /* \"#utility.yul\":293:363   */\n    tag_218:\n        /* \"#utility.yul\":196:369   */\n      swap2\n      swap1\n      pop\n      jump\t// out\n        /* \"#utility.yul\":374:560   */\n    tag_33:\n        /* \"#utility.yul\":433:439   */\n      0x00\n        /* \"#utility.yul\":486:488   */\n      0x20\n        /* \"#utility.yul\":474:483   */\n      dup3\n        /* \"#utility.yul\":465:472   */\n      dup5\n        /* \"#utility.yul\":461:484   */\n      sub\n        /* \"#utility.yul\":457:489   */\n      slt\n        /* \"#utility.yul\":454:506   */\n      iszero\n      tag_220\n      jumpi\n        /* \"#utility.yul\":502:503   */\n      0x00\n        /* \"#utility.yul\":499:500   */\n      dup1\n        /* \"#utility.yul\":492:504   */\n      revert\n        /* \"#utility.yul\":454:506   */\n    tag_220:\n        /* \"#utility.yul\":525:554   */\n      tag_221\n        /* \"#utility.yul\":544:553   */\n      dup3\n        /* \"#utility.yul\":525:554   */\n      tag_212\n      jump\t// in\n    tag_221:\n        /* \"#utility.yul\":515:554   */\n      swap4\n        /* \"#utility.yul\":374:560   */\n      swap3\n      pop\n      pop\n      pop\n      jump\t// out\n        /* \"#utility.yul\":757:1011   */\n    tag_54:\n        /* \"#utility.yul\":825:831   */\n      0x00\n        /* \"#utility.yul\":833:839   */\n      dup1\n        /* \"#utility.yul\":886:888   */\n      0x40\n        /* \"#utility.yul\":874:883   */\n      dup4\n        /* \"#utility.yul\":865:872   */\n      dup6\n        /* \"#utility.yul\":861:884   */\n      sub\n        /* \"#utility.yul\":857:889   */\n      slt\n        /* \"#utility.yul\":854:906   */\n      iszero\n      tag_224\n      jumpi\n        /* \"#utility.yul\":902:903   */\n      0x00\n        /* \"#utility.yul\":899:900   */\n      dup1\n        /* \"#utility.yul\":892:904   */\n      revert\n        /* \"#utility.yul\":854:906   */\n    tag_224:\n        /* \"#utility.yul\":925:954   */\n      tag_225\n        /* \"#utility.yul\":944:953   */\n      dup4\n        /* \"#utility.yul\":925:954   */\n      tag_212\n      jump\t// in\n    tag_225:\n        /* \"#utility.yul\":915:954   */\n      swap5\n        /* \"#utility.yul\":1001:1003   */\n      0x20\n        /* \"#utility.yul\":986:1004   */\n      swap4\n      swap1\n      swap4\n      add\n        /* \"#utility.yul\":973:1005   */\n      calldataload\n      swap4\n      pop\n      pop\n      pop\n        /* \"#utility.yul\":757:1011   */\n      jump\t// out\n        /* \"#utility.yul\":1445:1572   */\n    tag_213:\n        /* \"#utility.yul\":1506:1516   */\n      0x4e487b71\n        /* \"#utility.yul\":1501:1504   */\n      0xe0\n        /* \"#utility.yul\":1497:1517   */\n      shl\n        /* \"#utility.yul\":1494:1495   */\n      0x00\n        /* \"#utility.yul\":1487:1518   */\n      mstore\n        /* \"#utility.yul\":1537:1541   */\n      0x11\n        /* \"#utility.yul\":1534:1535   */\n      0x04\n        /* \"#utility.yul\":1527:1542   */\n      mstore\n        /* \"#utility.yul\":1561:1565   */\n      0x24\n        /* \"#utility.yul\":1558:1559   */\n      0x00\n        /* \"#utility.yul\":1551:1566   */\n      revert\n        /* \"#utility.yul\":1577:1705   */\n    tag_99:\n        /* \"#utility.yul\":1644:1653   */\n      dup2\n      dup2\n      sub\n        /* \"#utility.yul\":1665:1676   */\n      dup2\n      dup2\n      gt\n        /* \"#utility.yul\":1662:1699   */\n      iszero\n      tag_231\n      jumpi\n        /* \"#utility.yul\":1679:1697   */\n      tag_231\n      tag_213\n      jump\t// in\n    tag_231:\n        /* \"#utility.yul\":1577:1705   */\n      swap3\n      swap2\n      pop\n      pop\n      jump\t// out\n        /* \"#utility.yul\":1710:1894   */\n    tag_109:\n        /* \"#utility.yul\":1780:1786   */\n      0x00\n        /* \"#utility.yul\":1833:1835   */\n      0x20\n        /* \"#utility.yul\":1821:1830   */\n      dup3\n        /* \"#utility.yul\":1812:1819   */\n      dup5\n        /* \"#utility.yul\":1808:1831   */\n      sub\n        /* \"#utility.yul\":1804:1836   */\n      slt\n        /* \"#utility.yul\":1801:1853   */\n      iszero\n      tag_233\n      jumpi\n        /* \"#utility.yul\":1849:1850   */\n      0x00\n        /* \"#utility.yul\":1846:1847   */\n      dup1\n        /* \"#utility.yul\":1839:1851   */\n      revert\n        /* \"#utility.yul\":1801:1853   */\n    tag_233:\n      pop\n        /* \"#utility.yul\":1872:1888   */\n      mload\n      swap2\n        /* \"#utility.yul\":1710:1894   */\n      swap1\n      pop\n      jump\t// out\n        /* \"#utility.yul\":2886:3163   */\n    tag_131:\n        /* \"#utility.yul\":2953:2959   */\n      0x00\n        /* \"#utility.yul\":3006:3008   */\n      0x20\n        /* \"#utility.yul\":2994:3003   */\n      dup3\n        /* \"#utility.yul\":2985:2992   */\n      dup5\n        /* \"#utility.yul\":2981:3004   */\n      sub\n        /* \"#utility.yul\":2977:3009   */\n      slt\n        /* \"#utility.yul\":2974:3026   */\n      iszero\n      tag_238\n      jumpi\n        /* \"#utility.yul\":3022:3023   */\n      0x00\n        /* \"#utility.yul\":3019:3020   */\n      dup1\n        /* \"#utility.yul\":3012:3024   */\n      revert\n        /* \"#utility.yul\":2974:3026   */\n    tag_238:\n        /* \"#utility.yul\":3054:3063   */\n      dup2\n        /* \"#utility.yul\":3048:3064   */\n      mload\n        /* \"#utility.yul\":3107:3112   */\n      dup1\n        /* \"#utility.yul\":3100:3113   */\n      iszero\n        /* \"#utility.yul\":3093:3114   */\n      iszero\n        /* \"#utility.yul\":3086:3091   */\n      dup2\n        /* \"#utility.yul\":3083:3115   */\n      eq\n        /* \"#utility.yul\":3073:3133   */\n      tag_221\n      jumpi\n        /* \"#utility.yul\":3129:3130   */\n      0x00\n        /* \"#utility.yul\":3126:3127   */\n      dup1\n        /* \"#utility.yul\":3119:3131   */\n      revert\n        /* \"#utility.yul\":3508:3633   */\n    tag_150:\n        /* \"#utility.yul\":3573:3582   */\n      dup1\n      dup3\n      add\n        /* \"#utility.yul\":3594:3604   */\n      dup1\n      dup3\n      gt\n        /* \"#utility.yul\":3591:3627   */\n      iszero\n      tag_231\n      jumpi\n        /* \"#utility.yul\":3607:3625   */\n      tag_231\n      tag_213\n      jump\t// in\n        /* \"#utility.yul\":4387:4522   */\n    tag_163:\n        /* \"#utility.yul\":4426:4429   */\n      0x00\n        /* \"#utility.yul\":4447:4464   */\n      0x01\n      dup3\n      add\n        /* \"#utility.yul\":4444:4487   */\n      tag_248\n      jumpi\n        /* \"#utility.yul\":4467:4485   */\n      tag_248\n      tag_213\n      jump\t// in\n    tag_248:\n      pop\n        /* \"#utility.yul\":4514:4515   */\n      0x01\n        /* \"#utility.yul\":4503:4516   */\n      add\n      swap1\n        /* \"#utility.yul\":4387:4522   */\n      jump\t// out\n        /* \"#utility.yul\":4527:4695   */\n    tag_180:\n        /* \"#utility.yul\":4600:4609   */\n      dup1\n      dup3\n      mul\n        /* \"#utility.yul\":4631:4640   */\n      dup2\n      iszero\n        /* \"#utility.yul\":4648:4663   */\n      dup3\n      dup3\n      div\n        /* \"#utility.yul\":4642:4664   */\n      dup5\n      eq\n        /* \"#utility.yul\":4628:4665   */\n      or\n        /* \"#utility.yul\":4618:4689   */\n      tag_231\n      jumpi\n        /* \"#utility.yul\":4669:4687   */\n      tag_231\n      tag_213\n      jump\t// in\n        /* \"#utility.yul\":4700:4917   */\n    tag_182:\n        /* \"#utility.yul\":4740:4741   */\n      0x00\n        /* \"#utility.yul\":4766:4767   */\n      dup3\n        /* \"#utility.yul\":4756:4888   */\n      tag_253\n      jumpi\n        /* \"#utility.yul\":4810:4820   */\n      0x4e487b71\n        /* \"#utility.yul\":4805:4808   */\n      0xe0\n        /* \"#utility.yul\":4801:4821   */\n      shl\n        /* \"#utility.yul\":4798:4799   */\n      0x00\n        /* \"#utility.yul\":4791:4822   */\n      mstore\n        /* \"#utility.yul\":4845:4849   */\n      0x12\n        /* \"#utility.yul\":4842:4843   */\n      0x04\n        /* \"#utility.yul\":4835:4850   */\n      mstore\n        /* \"#utility.yul\":4873:4877   */\n      0x24\n        /* \"#utility.yul\":4870:4871   */\n      0x00\n        /* \"#utility.yul\":4863:4878   */\n      revert\n        /* \"#utility.yul\":4756:4888   */\n    tag_253:\n      pop\n        /* \"#utility.yul\":4902:4911   */\n      div\n      swap1\n        /* \"#utility.yul\":4700:4917   */\n      jump\t// out\n        /* \"#utility.yul\":5279:5467   */\n    tag_214:\n        /* \"#utility.yul\":5358:5371   */\n      dup1\n      mload\n      sub(shl(0x70, 0x01), 0x01)\n        /* \"#utility.yul\":5400:5442   */\n      dup2\n      and\n        /* \"#utility.yul\":5390:5443   */\n      dup2\n      eq\n        /* \"#utility.yul\":5380:5461   */\n      tag_218\n      jumpi\n        /* \"#utility.yul\":5457:5458   */\n      0x00\n        /* \"#utility.yul\":5454:5455   */\n      dup1\n        /* \"#utility.yul\":5447:5459   */\n      revert\n        /* \"#utility.yul\":5472:5922   */\n    tag_207:\n        /* \"#utility.yul\":5559:5565   */\n      0x00\n        /* \"#utility.yul\":5567:5573   */\n      dup1\n        /* \"#utility.yul\":5575:5581   */\n      0x00\n        /* \"#utility.yul\":5628:5630   */\n      0x60\n        /* \"#utility.yul\":5616:5625   */\n      dup5\n        /* \"#utility.yul\":5607:5614   */\n      dup7\n        /* \"#utility.yul\":5603:5626   */\n      sub\n        /* \"#utility.yul\":5599:5631   */\n      slt\n        /* \"#utility.yul\":5596:5648   */\n      iszero\n      tag_258\n      jumpi\n        /* \"#utility.yul\":5644:5645   */\n      0x00\n        /* \"#utility.yul\":5641:5642   */\n      dup1\n        /* \"#utility.yul\":5634:5646   */\n      revert\n        /* \"#utility.yul\":5596:5648   */\n    tag_258:\n        /* \"#utility.yul\":5667:5707   */\n      tag_259\n        /* \"#utility.yul\":5697:5706   */\n      dup5\n        /* \"#utility.yul\":5667:5707   */\n      tag_214\n      jump\t// in\n    tag_259:\n        /* \"#utility.yul\":5657:5707   */\n      swap3\n      pop\n        /* \"#utility.yul\":5726:5775   */\n      tag_260\n        /* \"#utility.yul\":5771:5773   */\n      0x20\n        /* \"#utility.yul\":5760:5769   */\n      dup6\n        /* \"#utility.yul\":5756:5774   */\n      add\n        /* \"#utility.yul\":5726:5775   */\n      tag_214\n      jump\t// in\n    tag_260:\n        /* \"#utility.yul\":5716:5775   */\n      swap2\n      pop\n        /* \"#utility.yul\":5818:5820   */\n      0x40\n        /* \"#utility.yul\":5807:5816   */\n      dup5\n        /* \"#utility.yul\":5803:5821   */\n      add\n        /* \"#utility.yul\":5797:5822   */\n      mload\n        /* \"#utility.yul\":5862:5872   */\n      0xffffffff\n        /* \"#utility.yul\":5855:5860   */\n      dup2\n        /* \"#utility.yul\":5851:5873   */\n      and\n        /* \"#utility.yul\":5844:5849   */\n      dup2\n        /* \"#utility.yul\":5841:5874   */\n      eq\n        /* \"#utility.yul\":5831:5892   */\n      tag_261\n      jumpi\n        /* \"#utility.yul\":5888:5889   */\n      0x00\n        /* \"#utility.yul\":5885:5886   */\n      dup1\n        /* \"#utility.yul\":5878:5890   */\n      revert\n        /* \"#utility.yul\":5831:5892   */\n    tag_261:\n        /* \"#utility.yul\":5911:5916   */\n      dup1\n        /* \"#utility.yul\":5901:5916   */\n      swap2\n      pop\n      pop\n        /* \"#utility.yul\":5472:5922   */\n      swap3\n      pop\n      swap3\n      pop\n      swap3\n      jump\t// out\n\n    auxdata: 0xa26469706673582212209b586f21ad703c2cf801eeb9369125393ebdb5e316e7aa3751c444c7c900d8af64736f6c63430008180033\n}\n",
				"bytecode": {
					"linkReferences": {},
					"object": "60a06040525f600455600980546001600160a01b0319163317905542600a55348015610029575f80fd5b50604051610f24380380610f2483398101604081905261004891610094565b6001600160a01b039283166080525f80549284166001600160a01b0319938416179055600880549190931691161790556100de565b6001600160a01b0381168114610091575f80fd5b50565b5f805f606084860312156100a6575f80fd5b83516100b18161007d565b60208501519093506100c28161007d565b60408501519092506100d38161007d565b809150509250925092565b608051610e046101205f395f81816101d0015281816102f501528181610421015281816104e7015281816106bd015281816108fe015261099b0152610e045ff3fe608060405234801561000f575f80fd5b5060043610610132575f3560e01c806392f851c1116100b4578063b77cf9c611610079578063b77cf9c614610248578063cad7ca4014610267578063f5ae497a1461026f578063f7e90d8f14610281578063fda7aff014610290578063fdf5963a14610299575f80fd5b806392f851c114610212578063a5ece9411461021a578063abee967c1461022d578063b2fd090114610236578063b343a0df1461023f575f80fd5b80634e71d92d116100fa5780634e71d92d1461019b57806366e305fd146101a55780636e90013d146101b85780637f581488146101cb578063823cc69d1461020a575f80fd5b806303e0a1e21461013657806306d2ad401461015157806309c21f2d1461018357806339ad74cd1461018b5780634618af4214610193575b5f80fd5b61013e6102a2565b6040519081526020015b60405180910390f35b61017361015f366004610c60565b60066020525f908152604090205460ff1681565b6040519015158152602001610148565b6101736102c0565b600a5461013e565b61013e6102de565b6101a3610366565b005b6101736101b3366004610c60565b6105a7565b6101a36101c6366004610c80565b6105c4565b6101f27f000000000000000000000000000000000000000000000000000000000000000081565b6040516001600160a01b039091168152602001610148565b610173610685565b6101a36106a6565b6008546101f2906001600160a01b031681565b61013e60015481565b61013e60025481565b61013e600a5481565b61013e610256366004610c60565b60056020525f908152604090205481565b60075461013e565b5f546101f2906001600160a01b031681565b61013e670de0b6b3a764000081565b61013e61016881565b61013e60075481565b335f908152600560205260408120546102bb9042610cbc565b905090565b5f6101686102cd600a5490565b6102d79042610cbc565b1015905090565b6040516370a0823160e01b81523060048201525f907f00000000000000000000000000000000000000000000000000000000000000006001600160a01b0316906370a0823190602401602060405180830381865afa158015610342573d5f803e3d5ffd5b505050506040513d601f19601f820116820180604052508101906102bb9190610cd5565b61036f336105a7565b6103b85760405162461bcd60e51b81526020600482015260156024820152744e6f7420656c696769626c6520746f20636c61696d60581b60448201526064015b60405180910390fd5b6103c0610685565b61040c5760405162461bcd60e51b815260206004820152601d60248201527f43616e206f6e6c7920636c61696d20616674657220323420686f75727300000060448201526064016103af565b6040516370a0823160e01b81523060048201527f00000000000000000000000000000000000000000000000000000000000000006001600160a01b0316906370a0823190602401602060405180830381865afa15801561046e573d5f803e3d5ffd5b505050506040513d601f19601f820116820180604052508101906104929190610cd5565b6002555f61049e610808565b335f9081526005602052604081204290556002805492935083929091906104c6908490610cbc565b909155505060405163a9059cbb60e01b8152336004820152602481018290527f00000000000000000000000000000000000000000000000000000000000000006001600160a01b03169063a9059cbb906044016020604051808303815f875af1158015610535573d5f803e3d5ffd5b505050506040513d601f19601f820116820180604052508101906105599190610cec565b5060405181815233907f47cee97cb7acd717b3c0aa1435d004cd5b3c8c57d70dbceb4e4458bbd60e39d49060200160405180910390a26105976102c0565b156105a4576105a46108e7565b50565b5f806105b283610a3f565b670de0b6b3a764000011159392505050565b6009546001600160a01b0316331461060c5760405162461bcd60e51b815260206004820152600b60248201526a1b9bdd08105b1b1bddd95960aa1b60448201526064016103af565b60095460405163a9059cbb60e01b81526001600160a01b039182166004820152602481018390529083169063a9059cbb906044016020604051808303815f875af115801561065c573d5f803e3d5ffd5b505050506040513d601f19601f820116820180604052508101906106809190610cec565b505050565b335f9081526005602052604081205461069f90603c610d0b565b4211905090565b6040516370a0823160e01b81523360048201525f907f00000000000000000000000000000000000000000000000000000000000000006001600160a01b0316906370a0823190602401602060405180830381865afa15801561070a573d5f803e3d5ffd5b505050506040513d601f19601f8201168201806040525081019061072e9190610cd5565b1161076b5760405162461bcd60e51b815260206004820152600d60248201526c5a65726f20486f6c64696e677360981b60448201526064016103af565b335f9081526006602052604090205460ff16156107d95760405162461bcd60e51b815260206004820152602660248201527f596f75206861766520616c7265616479206170706c69656420666f72207265646044820152653ab1ba34b7b760d11b60648201526084016103af565b60078054905f6107e883610d1e565b9091555050335f908152600660205260409020805460ff19166001179055565b5f6004545f0361089857600261081d60075490565b10156108365769010f0cf064dd59200000600155610898565b600261084160075490565b106108585768878678326eac900000600155610898565b600461086360075490565b1061087a576843c33c193756480000600155610898565b600661088560075490565b10610898576828a857425466f800006001555b5f606460035460646108aa9190610cbc565b6001546108b79190610d36565b6108c19190610d4d565b6001819055600a600355600480549192505f6108dc83610d1e565b909155509092915050565b6040516370a0823160e01b81523060048201525f907f00000000000000000000000000000000000000000000000000000000000000006001600160a01b0316906370a0823190602401602060405180830381865afa15801561094b573d5f803e3d5ffd5b505050506040513d601f19601f8201168201806040525081019061096f9190610cd5565b60085460405163a9059cbb60e01b81526001600160a01b039182166004820152602481018390529192507f0000000000000000000000000000000000000000000000000000000000000000169063a9059cbb906044016020604051808303815f875af11580156109e1573d5f803e3d5ffd5b505050506040513d601f19601f82011682018060405250810190610a059190610cec565b5042600a555f600381905560048190556040517f6423db340205c829eeb91151b1c5d1dc6d7a2b8708b1621494e89ba90c87081e9190a150565b5f80546001600160a01b0316610a975760405162461bcd60e51b815260206004820152601c60248201527f556e697377617020706f6f6c2061646472657373206e6f74207365740000000060448201526064016103af565b5f80546040516370a0823160e01b81526001600160a01b038581166004830152909116906370a0823190602401602060405180830381865afa158015610adf573d5f803e3d5ffd5b505050506040513d601f19601f82011682018060405250810190610b039190610cd5565b90505f805f9054906101000a90046001600160a01b03166001600160a01b03166318160ddd6040518163ffffffff1660e01b8152600401602060405180830381865afa158015610b55573d5f803e3d5ffd5b505050506040513d601f19601f82011682018060405250810190610b799190610cd5565b90505f805f9054906101000a90046001600160a01b03166001600160a01b0316630902f1ac6040518163ffffffff1660e01b8152600401606060405180830381865afa158015610bcb573d5f803e3d5ffd5b505050506040513d601f19601f82011682018060405250810190610bef9190610d82565b50506001600160701b031690505f82610c1085670de0b6b3a7640000610d36565b610c1a9190610d4d565b90505f670de0b6b3a7640000610c308484610d36565b610c3a9190610d4d565b979650505050505050565b80356001600160a01b0381168114610c5b575f80fd5b919050565b5f60208284031215610c70575f80fd5b610c7982610c45565b9392505050565b5f8060408385031215610c91575f80fd5b610c9a83610c45565b946020939093013593505050565b634e487b7160e01b5f52601160045260245ffd5b81810381811115610ccf57610ccf610ca8565b92915050565b5f60208284031215610ce5575f80fd5b5051919050565b5f60208284031215610cfc575f80fd5b81518015158114610c79575f80fd5b80820180821115610ccf57610ccf610ca8565b5f60018201610d2f57610d2f610ca8565b5060010190565b8082028115828204841417610ccf57610ccf610ca8565b5f82610d6757634e487b7160e01b5f52601260045260245ffd5b500490565b80516001600160701b0381168114610c5b575f80fd5b5f805f60608486031215610d94575f80fd5b610d9d84610d6c565b9250610dab60208501610d6c565b9150604084015163ffffffff81168114610dc3575f80fd5b80915050925092509256fea26469706673582212209b586f21ad703c2cf801eeb9369125393ebdb5e316e7aa3751c444c7c900d8af64736f6c63430008180033",
					"opcodes": "PUSH1 0xA0 PUSH1 0x40 MSTORE PUSH0 PUSH1 0x4 SSTORE PUSH1 0x9 DUP1 SLOAD PUSH1 0x1 PUSH1 0x1 PUSH1 0xA0 SHL SUB NOT AND CALLER OR SWAP1 SSTORE TIMESTAMP PUSH1 0xA SSTORE CALLVALUE DUP1 ISZERO PUSH2 0x29 JUMPI PUSH0 DUP1 REVERT JUMPDEST POP PUSH1 0x40 MLOAD PUSH2 0xF24 CODESIZE SUB DUP1 PUSH2 0xF24 DUP4 CODECOPY DUP2 ADD PUSH1 0x40 DUP2 SWAP1 MSTORE PUSH2 0x48 SWAP2 PUSH2 0x94 JUMP JUMPDEST PUSH1 0x1 PUSH1 0x1 PUSH1 0xA0 SHL SUB SWAP3 DUP4 AND PUSH1 0x80 MSTORE PUSH0 DUP1 SLOAD SWAP3 DUP5 AND PUSH1 0x1 PUSH1 0x1 PUSH1 0xA0 SHL SUB NOT SWAP4 DUP5 AND OR SWAP1 SSTORE PUSH1 0x8 DUP1 SLOAD SWAP2 SWAP1 SWAP4 AND SWAP2 AND OR SWAP1 SSTORE PUSH2 0xDE JUMP JUMPDEST PUSH1 0x1 PUSH1 0x1 PUSH1 0xA0 SHL SUB DUP2 AND DUP2 EQ PUSH2 0x91 JUMPI PUSH0 DUP1 REVERT JUMPDEST POP JUMP JUMPDEST PUSH0 DUP1 PUSH0 PUSH1 0x60 DUP5 DUP7 SUB SLT ISZERO PUSH2 0xA6 JUMPI PUSH0 DUP1 REVERT JUMPDEST DUP4 MLOAD PUSH2 0xB1 DUP2 PUSH2 0x7D JUMP JUMPDEST PUSH1 0x20 DUP6 ADD MLOAD SWAP1 SWAP4 POP PUSH2 0xC2 DUP2 PUSH2 0x7D JUMP JUMPDEST PUSH1 0x40 DUP6 ADD MLOAD SWAP1 SWAP3 POP PUSH2 0xD3 DUP2 PUSH2 0x7D JUMP JUMPDEST DUP1 SWAP2 POP POP SWAP3 POP SWAP3 POP SWAP3 JUMP JUMPDEST PUSH1 0x80 MLOAD PUSH2 0xE04 PUSH2 0x120 PUSH0 CODECOPY PUSH0 DUP2 DUP2 PUSH2 0x1D0 ADD MSTORE DUP2 DUP2 PUSH2 0x2F5 ADD MSTORE DUP2 DUP2 PUSH2 0x421 ADD MSTORE DUP2 DUP2 PUSH2 0x4E7 ADD MSTORE DUP2 DUP2 PUSH2 0x6BD ADD MSTORE DUP2 DUP2 PUSH2 0x8FE ADD MSTORE PUSH2 0x99B ADD MSTORE PUSH2 0xE04 PUSH0 RETURN INVALID PUSH1 0x80 PUSH1 0x40 MSTORE CALLVALUE DUP1 ISZERO PUSH2 0xF JUMPI PUSH0 DUP1 REVERT JUMPDEST POP PUSH1 0x4 CALLDATASIZE LT PUSH2 0x132 JUMPI PUSH0 CALLDATALOAD PUSH1 0xE0 SHR DUP1 PUSH4 0x92F851C1 GT PUSH2 0xB4 JUMPI DUP1 PUSH4 0xB77CF9C6 GT PUSH2 0x79 JUMPI DUP1 PUSH4 0xB77CF9C6 EQ PUSH2 0x248 JUMPI DUP1 PUSH4 0xCAD7CA40 EQ PUSH2 0x267 JUMPI DUP1 PUSH4 0xF5AE497A EQ PUSH2 0x26F JUMPI DUP1 PUSH4 0xF7E90D8F EQ PUSH2 0x281 JUMPI DUP1 PUSH4 0xFDA7AFF0 EQ PUSH2 0x290 JUMPI DUP1 PUSH4 0xFDF5963A EQ PUSH2 0x299 JUMPI PUSH0 DUP1 REVERT JUMPDEST DUP1 PUSH4 0x92F851C1 EQ PUSH2 0x212 JUMPI DUP1 PUSH4 0xA5ECE941 EQ PUSH2 0x21A JUMPI DUP1 PUSH4 0xABEE967C EQ PUSH2 0x22D JUMPI DUP1 PUSH4 0xB2FD0901 EQ PUSH2 0x236 JUMPI DUP1 PUSH4 0xB343A0DF EQ PUSH2 0x23F JUMPI PUSH0 DUP1 REVERT JUMPDEST DUP1 PUSH4 0x4E71D92D GT PUSH2 0xFA JUMPI DUP1 PUSH4 0x4E71D92D EQ PUSH2 0x19B JUMPI DUP1 PUSH4 0x66E305FD EQ PUSH2 0x1A5 JUMPI DUP1 PUSH4 0x6E90013D EQ PUSH2 0x1B8 JUMPI DUP1 PUSH4 0x7F581488 EQ PUSH2 0x1CB JUMPI DUP1 PUSH4 0x823CC69D EQ PUSH2 0x20A JUMPI PUSH0 DUP1 REVERT JUMPDEST DUP1 PUSH4 0x3E0A1E2 EQ PUSH2 0x136 JUMPI DUP1 PUSH4 0x6D2AD40 EQ PUSH2 0x151 JUMPI DUP1 PUSH4 0x9C21F2D EQ PUSH2 0x183 JUMPI DUP1 PUSH4 0x39AD74CD EQ PUSH2 0x18B JUMPI DUP1 PUSH4 0x4618AF42 EQ PUSH2 0x193 JUMPI JUMPDEST PUSH0 DUP1 REVERT JUMPDEST PUSH2 0x13E PUSH2 0x2A2 JUMP JUMPDEST PUSH1 0x40 MLOAD SWAP1 DUP2 MSTORE PUSH1 0x20 ADD JUMPDEST PUSH1 0x40 MLOAD DUP1 SWAP2 SUB SWAP1 RETURN JUMPDEST PUSH2 0x173 PUSH2 0x15F CALLDATASIZE PUSH1 0x4 PUSH2 0xC60 JUMP JUMPDEST PUSH1 0x6 PUSH1 0x20 MSTORE PUSH0 SWAP1 DUP2 MSTORE PUSH1 0x40 SWAP1 KECCAK256 SLOAD PUSH1 0xFF AND DUP2 JUMP JUMPDEST PUSH1 0x40 MLOAD SWAP1 ISZERO ISZERO DUP2 MSTORE PUSH1 0x20 ADD PUSH2 0x148 JUMP JUMPDEST PUSH2 0x173 PUSH2 0x2C0 JUMP JUMPDEST PUSH1 0xA SLOAD PUSH2 0x13E JUMP JUMPDEST PUSH2 0x13E PUSH2 0x2DE JUMP JUMPDEST PUSH2 0x1A3 PUSH2 0x366 JUMP JUMPDEST STOP JUMPDEST PUSH2 0x173 PUSH2 0x1B3 CALLDATASIZE PUSH1 0x4 PUSH2 0xC60 JUMP JUMPDEST PUSH2 0x5A7 JUMP JUMPDEST PUSH2 0x1A3 PUSH2 0x1C6 CALLDATASIZE PUSH1 0x4 PUSH2 0xC80 JUMP JUMPDEST PUSH2 0x5C4 JUMP JUMPDEST PUSH2 0x1F2 PUSH32 0x0 DUP2 JUMP JUMPDEST PUSH1 0x40 MLOAD PUSH1 0x1 PUSH1 0x1 PUSH1 0xA0 SHL SUB SWAP1 SWAP2 AND DUP2 MSTORE PUSH1 0x20 ADD PUSH2 0x148 JUMP JUMPDEST PUSH2 0x173 PUSH2 0x685 JUMP JUMPDEST PUSH2 0x1A3 PUSH2 0x6A6 JUMP JUMPDEST PUSH1 0x8 SLOAD PUSH2 0x1F2 SWAP1 PUSH1 0x1 PUSH1 0x1 PUSH1 0xA0 SHL SUB AND DUP2 JUMP JUMPDEST PUSH2 0x13E PUSH1 0x1 SLOAD DUP2 JUMP JUMPDEST PUSH2 0x13E PUSH1 0x2 SLOAD DUP2 JUMP JUMPDEST PUSH2 0x13E PUSH1 0xA SLOAD DUP2 JUMP JUMPDEST PUSH2 0x13E PUSH2 0x256 CALLDATASIZE PUSH1 0x4 PUSH2 0xC60 JUMP JUMPDEST PUSH1 0x5 PUSH1 0x20 MSTORE PUSH0 SWAP1 DUP2 MSTORE PUSH1 0x40 SWAP1 KECCAK256 SLOAD DUP2 JUMP JUMPDEST PUSH1 0x7 SLOAD PUSH2 0x13E JUMP JUMPDEST PUSH0 SLOAD PUSH2 0x1F2 SWAP1 PUSH1 0x1 PUSH1 0x1 PUSH1 0xA0 SHL SUB AND DUP2 JUMP JUMPDEST PUSH2 0x13E PUSH8 0xDE0B6B3A7640000 DUP2 JUMP JUMPDEST PUSH2 0x13E PUSH2 0x168 DUP2 JUMP JUMPDEST PUSH2 0x13E PUSH1 0x7 SLOAD DUP2 JUMP JUMPDEST CALLER PUSH0 SWAP1 DUP2 MSTORE PUSH1 0x5 PUSH1 0x20 MSTORE PUSH1 0x40 DUP2 KECCAK256 SLOAD PUSH2 0x2BB SWAP1 TIMESTAMP PUSH2 0xCBC JUMP JUMPDEST SWAP1 POP SWAP1 JUMP JUMPDEST PUSH0 PUSH2 0x168 PUSH2 0x2CD PUSH1 0xA SLOAD SWAP1 JUMP JUMPDEST PUSH2 0x2D7 SWAP1 TIMESTAMP PUSH2 0xCBC JUMP JUMPDEST LT ISZERO SWAP1 POP SWAP1 JUMP JUMPDEST PUSH1 0x40 MLOAD PUSH4 0x70A08231 PUSH1 0xE0 SHL DUP2 MSTORE ADDRESS PUSH1 0x4 DUP3 ADD MSTORE PUSH0 SWAP1 PUSH32 0x0 PUSH1 0x1 PUSH1 0x1 PUSH1 0xA0 SHL SUB AND SWAP1 PUSH4 0x70A08231 SWAP1 PUSH1 0x24 ADD PUSH1 0x20 PUSH1 0x40 MLOAD DUP1 DUP4 SUB DUP2 DUP7 GAS STATICCALL ISZERO DUP1 ISZERO PUSH2 0x342 JUMPI RETURNDATASIZE PUSH0 DUP1 RETURNDATACOPY RETURNDATASIZE PUSH0 REVERT JUMPDEST POP POP POP POP PUSH1 0x40 MLOAD RETURNDATASIZE PUSH1 0x1F NOT PUSH1 0x1F DUP3 ADD AND DUP3 ADD DUP1 PUSH1 0x40 MSTORE POP DUP2 ADD SWAP1 PUSH2 0x2BB SWAP2 SWAP1 PUSH2 0xCD5 JUMP JUMPDEST PUSH2 0x36F CALLER PUSH2 0x5A7 JUMP JUMPDEST PUSH2 0x3B8 JUMPI PUSH1 0x40 MLOAD PUSH3 0x461BCD PUSH1 0xE5 SHL DUP2 MSTORE PUSH1 0x20 PUSH1 0x4 DUP3 ADD MSTORE PUSH1 0x15 PUSH1 0x24 DUP3 ADD MSTORE PUSH21 0x4E6F7420656C696769626C6520746F20636C61696D PUSH1 0x58 SHL PUSH1 0x44 DUP3 ADD MSTORE PUSH1 0x64 ADD JUMPDEST PUSH1 0x40 MLOAD DUP1 SWAP2 SUB SWAP1 REVERT JUMPDEST PUSH2 0x3C0 PUSH2 0x685 JUMP JUMPDEST PUSH2 0x40C JUMPI PUSH1 0x40 MLOAD PUSH3 0x461BCD PUSH1 0xE5 SHL DUP2 MSTORE PUSH1 0x20 PUSH1 0x4 DUP3 ADD MSTORE PUSH1 0x1D PUSH1 0x24 DUP3 ADD MSTORE PUSH32 0x43616E206F6E6C7920636C61696D20616674657220323420686F757273000000 PUSH1 0x44 DUP3 ADD MSTORE PUSH1 0x64 ADD PUSH2 0x3AF JUMP JUMPDEST PUSH1 0x40 MLOAD PUSH4 0x70A08231 PUSH1 0xE0 SHL DUP2 MSTORE ADDRESS PUSH1 0x4 DUP3 ADD MSTORE PUSH32 0x0 PUSH1 0x1 PUSH1 0x1 PUSH1 0xA0 SHL SUB AND SWAP1 PUSH4 0x70A08231 SWAP1 PUSH1 0x24 ADD PUSH1 0x20 PUSH1 0x40 MLOAD DUP1 DUP4 SUB DUP2 DUP7 GAS STATICCALL ISZERO DUP1 ISZERO PUSH2 0x46E JUMPI RETURNDATASIZE PUSH0 DUP1 RETURNDATACOPY RETURNDATASIZE PUSH0 REVERT JUMPDEST POP POP POP POP PUSH1 0x40 MLOAD RETURNDATASIZE PUSH1 0x1F NOT PUSH1 0x1F DUP3 ADD AND DUP3 ADD DUP1 PUSH1 0x40 MSTORE POP DUP2 ADD SWAP1 PUSH2 0x492 SWAP2 SWAP1 PUSH2 0xCD5 JUMP JUMPDEST PUSH1 0x2 SSTORE PUSH0 PUSH2 0x49E PUSH2 0x808 JUMP JUMPDEST CALLER PUSH0 SWAP1 DUP2 MSTORE PUSH1 0x5 PUSH1 0x20 MSTORE PUSH1 0x40 DUP2 KECCAK256 TIMESTAMP SWAP1 SSTORE PUSH1 0x2 DUP1 SLOAD SWAP3 SWAP4 POP DUP4 SWAP3 SWAP1 SWAP2 SWAP1 PUSH2 0x4C6 SWAP1 DUP5 SWAP1 PUSH2 0xCBC JUMP JUMPDEST SWAP1 SWAP2 SSTORE POP POP PUSH1 0x40 MLOAD PUSH4 0xA9059CBB PUSH1 0xE0 SHL DUP2 MSTORE CALLER PUSH1 0x4 DUP3 ADD MSTORE PUSH1 0x24 DUP2 ADD DUP3 SWAP1 MSTORE PUSH32 0x0 PUSH1 0x1 PUSH1 0x1 PUSH1 0xA0 SHL SUB AND SWAP1 PUSH4 0xA9059CBB SWAP1 PUSH1 0x44 ADD PUSH1 0x20 PUSH1 0x40 MLOAD DUP1 DUP4 SUB DUP2 PUSH0 DUP8 GAS CALL ISZERO DUP1 ISZERO PUSH2 0x535 JUMPI RETURNDATASIZE PUSH0 DUP1 RETURNDATACOPY RETURNDATASIZE PUSH0 REVERT JUMPDEST POP POP POP POP PUSH1 0x40 MLOAD RETURNDATASIZE PUSH1 0x1F NOT PUSH1 0x1F DUP3 ADD AND DUP3 ADD DUP1 PUSH1 0x40 MSTORE POP DUP2 ADD SWAP1 PUSH2 0x559 SWAP2 SWAP1 PUSH2 0xCEC JUMP JUMPDEST POP PUSH1 0x40 MLOAD DUP2 DUP2 MSTORE CALLER SWAP1 PUSH32 0x47CEE97CB7ACD717B3C0AA1435D004CD5B3C8C57D70DBCEB4E4458BBD60E39D4 SWAP1 PUSH1 0x20 ADD PUSH1 0x40 MLOAD DUP1 SWAP2 SUB SWAP1 LOG2 PUSH2 0x597 PUSH2 0x2C0 JUMP JUMPDEST ISZERO PUSH2 0x5A4 JUMPI PUSH2 0x5A4 PUSH2 0x8E7 JUMP JUMPDEST POP JUMP JUMPDEST PUSH0 DUP1 PUSH2 0x5B2 DUP4 PUSH2 0xA3F JUMP JUMPDEST PUSH8 0xDE0B6B3A7640000 GT ISZERO SWAP4 SWAP3 POP POP POP JUMP JUMPDEST PUSH1 0x9 SLOAD PUSH1 0x1 PUSH1 0x1 PUSH1 0xA0 SHL SUB AND CALLER EQ PUSH2 0x60C JUMPI PUSH1 0x40 MLOAD PUSH3 0x461BCD PUSH1 0xE5 SHL DUP2 MSTORE PUSH1 0x20 PUSH1 0x4 DUP3 ADD MSTORE PUSH1 0xB PUSH1 0x24 DUP3 ADD MSTORE PUSH11 0x1B9BDD08105B1B1BDDD959 PUSH1 0xAA SHL PUSH1 0x44 DUP3 ADD MSTORE PUSH1 0x64 ADD PUSH2 0x3AF JUMP JUMPDEST PUSH1 0x9 SLOAD PUSH1 0x40 MLOAD PUSH4 0xA9059CBB PUSH1 0xE0 SHL DUP2 MSTORE PUSH1 0x1 PUSH1 0x1 PUSH1 0xA0 SHL SUB SWAP2 DUP3 AND PUSH1 0x4 DUP3 ADD MSTORE PUSH1 0x24 DUP2 ADD DUP4 SWAP1 MSTORE SWAP1 DUP4 AND SWAP1 PUSH4 0xA9059CBB SWAP1 PUSH1 0x44 ADD PUSH1 0x20 PUSH1 0x40 MLOAD DUP1 DUP4 SUB DUP2 PUSH0 DUP8 GAS CALL ISZERO DUP1 ISZERO PUSH2 0x65C JUMPI RETURNDATASIZE PUSH0 DUP1 RETURNDATACOPY RETURNDATASIZE PUSH0 REVERT JUMPDEST POP POP POP POP PUSH1 0x40 MLOAD RETURNDATASIZE PUSH1 0x1F NOT PUSH1 0x1F DUP3 ADD AND DUP3 ADD DUP1 PUSH1 0x40 MSTORE POP DUP2 ADD SWAP1 PUSH2 0x680 SWAP2 SWAP1 PUSH2 0xCEC JUMP JUMPDEST POP POP POP JUMP JUMPDEST CALLER PUSH0 SWAP1 DUP2 MSTORE PUSH1 0x5 PUSH1 0x20 MSTORE PUSH1 0x40 DUP2 KECCAK256 SLOAD PUSH2 0x69F SWAP1 PUSH1 0x3C PUSH2 0xD0B JUMP JUMPDEST TIMESTAMP GT SWAP1 POP SWAP1 JUMP JUMPDEST PUSH1 0x40 MLOAD PUSH4 0x70A08231 PUSH1 0xE0 SHL DUP2 MSTORE CALLER PUSH1 0x4 DUP3 ADD MSTORE PUSH0 SWAP1 PUSH32 0x0 PUSH1 0x1 PUSH1 0x1 PUSH1 0xA0 SHL SUB AND SWAP1 PUSH4 0x70A08231 SWAP1 PUSH1 0x24 ADD PUSH1 0x20 PUSH1 0x40 MLOAD DUP1 DUP4 SUB DUP2 DUP7 GAS STATICCALL ISZERO DUP1 ISZERO PUSH2 0x70A JUMPI RETURNDATASIZE PUSH0 DUP1 RETURNDATACOPY RETURNDATASIZE PUSH0 REVERT JUMPDEST POP POP POP POP PUSH1 0x40 MLOAD RETURNDATASIZE PUSH1 0x1F NOT PUSH1 0x1F DUP3 ADD AND DUP3 ADD DUP1 PUSH1 0x40 MSTORE POP DUP2 ADD SWAP1 PUSH2 0x72E SWAP2 SWAP1 PUSH2 0xCD5 JUMP JUMPDEST GT PUSH2 0x76B JUMPI PUSH1 0x40 MLOAD PUSH3 0x461BCD PUSH1 0xE5 SHL DUP2 MSTORE PUSH1 0x20 PUSH1 0x4 DUP3 ADD MSTORE PUSH1 0xD PUSH1 0x24 DUP3 ADD MSTORE PUSH13 0x5A65726F20486F6C64696E6773 PUSH1 0x98 SHL PUSH1 0x44 DUP3 ADD MSTORE PUSH1 0x64 ADD PUSH2 0x3AF JUMP JUMPDEST CALLER PUSH0 SWAP1 DUP2 MSTORE PUSH1 0x6 PUSH1 0x20 MSTORE PUSH1 0x40 SWAP1 KECCAK256 SLOAD PUSH1 0xFF AND ISZERO PUSH2 0x7D9 JUMPI PUSH1 0x40 MLOAD PUSH3 0x461BCD PUSH1 0xE5 SHL DUP2 MSTORE PUSH1 0x20 PUSH1 0x4 DUP3 ADD MSTORE PUSH1 0x26 PUSH1 0x24 DUP3 ADD MSTORE PUSH32 0x596F75206861766520616C7265616479206170706C69656420666F7220726564 PUSH1 0x44 DUP3 ADD MSTORE PUSH6 0x3AB1BA34B7B7 PUSH1 0xD1 SHL PUSH1 0x64 DUP3 ADD MSTORE PUSH1 0x84 ADD PUSH2 0x3AF JUMP JUMPDEST PUSH1 0x7 DUP1 SLOAD SWAP1 PUSH0 PUSH2 0x7E8 DUP4 PUSH2 0xD1E JUMP JUMPDEST SWAP1 SWAP2 SSTORE POP POP CALLER PUSH0 SWAP1 DUP2 MSTORE PUSH1 0x6 PUSH1 0x20 MSTORE PUSH1 0x40 SWAP1 KECCAK256 DUP1 SLOAD PUSH1 0xFF NOT AND PUSH1 0x1 OR SWAP1 SSTORE JUMP JUMPDEST PUSH0 PUSH1 0x4 SLOAD PUSH0 SUB PUSH2 0x898 JUMPI PUSH1 0x2 PUSH2 0x81D PUSH1 0x7 SLOAD SWAP1 JUMP JUMPDEST LT ISZERO PUSH2 0x836 JUMPI PUSH10 0x10F0CF064DD59200000 PUSH1 0x1 SSTORE PUSH2 0x898 JUMP JUMPDEST PUSH1 0x2 PUSH2 0x841 PUSH1 0x7 SLOAD SWAP1 JUMP JUMPDEST LT PUSH2 0x858 JUMPI PUSH9 0x878678326EAC900000 PUSH1 0x1 SSTORE PUSH2 0x898 JUMP JUMPDEST PUSH1 0x4 PUSH2 0x863 PUSH1 0x7 SLOAD SWAP1 JUMP JUMPDEST LT PUSH2 0x87A JUMPI PUSH9 0x43C33C193756480000 PUSH1 0x1 SSTORE PUSH2 0x898 JUMP JUMPDEST PUSH1 0x6 PUSH2 0x885 PUSH1 0x7 SLOAD SWAP1 JUMP JUMPDEST LT PUSH2 0x898 JUMPI PUSH9 0x28A857425466F80000 PUSH1 0x1 SSTORE JUMPDEST PUSH0 PUSH1 0x64 PUSH1 0x3 SLOAD PUSH1 0x64 PUSH2 0x8AA SWAP2 SWAP1 PUSH2 0xCBC JUMP JUMPDEST PUSH1 0x1 SLOAD PUSH2 0x8B7 SWAP2 SWAP1 PUSH2 0xD36 JUMP JUMPDEST PUSH2 0x8C1 SWAP2 SWAP1 PUSH2 0xD4D JUMP JUMPDEST PUSH1 0x1 DUP2 SWAP1 SSTORE PUSH1 0xA PUSH1 0x3 SSTORE PUSH1 0x4 DUP1 SLOAD SWAP2 SWAP3 POP PUSH0 PUSH2 0x8DC DUP4 PUSH2 0xD1E JUMP JUMPDEST SWAP1 SWAP2 SSTORE POP SWAP1 SWAP3 SWAP2 POP POP JUMP JUMPDEST PUSH1 0x40 MLOAD PUSH4 0x70A08231 PUSH1 0xE0 SHL DUP2 MSTORE ADDRESS PUSH1 0x4 DUP3 ADD MSTORE PUSH0 SWAP1 PUSH32 0x0 PUSH1 0x1 PUSH1 0x1 PUSH1 0xA0 SHL SUB AND SWAP1 PUSH4 0x70A08231 SWAP1 PUSH1 0x24 ADD PUSH1 0x20 PUSH1 0x40 MLOAD DUP1 DUP4 SUB DUP2 DUP7 GAS STATICCALL ISZERO DUP1 ISZERO PUSH2 0x94B JUMPI RETURNDATASIZE PUSH0 DUP1 RETURNDATACOPY RETURNDATASIZE PUSH0 REVERT JUMPDEST POP POP POP POP PUSH1 0x40 MLOAD RETURNDATASIZE PUSH1 0x1F NOT PUSH1 0x1F DUP3 ADD AND DUP3 ADD DUP1 PUSH1 0x40 MSTORE POP DUP2 ADD SWAP1 PUSH2 0x96F SWAP2 SWAP1 PUSH2 0xCD5 JUMP JUMPDEST PUSH1 0x8 SLOAD PUSH1 0x40 MLOAD PUSH4 0xA9059CBB PUSH1 0xE0 SHL DUP2 MSTORE PUSH1 0x1 PUSH1 0x1 PUSH1 0xA0 SHL SUB SWAP2 DUP3 AND PUSH1 0x4 DUP3 ADD MSTORE PUSH1 0x24 DUP2 ADD DUP4 SWAP1 MSTORE SWAP2 SWAP3 POP PUSH32 0x0 AND SWAP1 PUSH4 0xA9059CBB SWAP1 PUSH1 0x44 ADD PUSH1 0x20 PUSH1 0x40 MLOAD DUP1 DUP4 SUB DUP2 PUSH0 DUP8 GAS CALL ISZERO DUP1 ISZERO PUSH2 0x9E1 JUMPI RETURNDATASIZE PUSH0 DUP1 RETURNDATACOPY RETURNDATASIZE PUSH0 REVERT JUMPDEST POP POP POP POP PUSH1 0x40 MLOAD RETURNDATASIZE PUSH1 0x1F NOT PUSH1 0x1F DUP3 ADD AND DUP3 ADD DUP1 PUSH1 0x40 MSTORE POP DUP2 ADD SWAP1 PUSH2 0xA05 SWAP2 SWAP1 PUSH2 0xCEC JUMP JUMPDEST POP TIMESTAMP PUSH1 0xA SSTORE PUSH0 PUSH1 0x3 DUP2 SWAP1 SSTORE PUSH1 0x4 DUP2 SWAP1 SSTORE PUSH1 0x40 MLOAD PUSH32 0x6423DB340205C829EEB91151B1C5D1DC6D7A2B8708B1621494E89BA90C87081E SWAP2 SWAP1 LOG1 POP JUMP JUMPDEST PUSH0 DUP1 SLOAD PUSH1 0x1 PUSH1 0x1 PUSH1 0xA0 SHL SUB AND PUSH2 0xA97 JUMPI PUSH1 0x40 MLOAD PUSH3 0x461BCD PUSH1 0xE5 SHL DUP2 MSTORE PUSH1 0x20 PUSH1 0x4 DUP3 ADD MSTORE PUSH1 0x1C PUSH1 0x24 DUP3 ADD MSTORE PUSH32 0x556E697377617020706F6F6C2061646472657373206E6F742073657400000000 PUSH1 0x44 DUP3 ADD MSTORE PUSH1 0x64 ADD PUSH2 0x3AF JUMP JUMPDEST PUSH0 DUP1 SLOAD PUSH1 0x40 MLOAD PUSH4 0x70A08231 PUSH1 0xE0 SHL DUP2 MSTORE PUSH1 0x1 PUSH1 0x1 PUSH1 0xA0 SHL SUB DUP6 DUP2 AND PUSH1 0x4 DUP4 ADD MSTORE SWAP1 SWAP2 AND SWAP1 PUSH4 0x70A08231 SWAP1 PUSH1 0x24 ADD PUSH1 0x20 PUSH1 0x40 MLOAD DUP1 DUP4 SUB DUP2 DUP7 GAS STATICCALL ISZERO DUP1 ISZERO PUSH2 0xADF JUMPI RETURNDATASIZE PUSH0 DUP1 RETURNDATACOPY RETURNDATASIZE PUSH0 REVERT JUMPDEST POP POP POP POP PUSH1 0x40 MLOAD RETURNDATASIZE PUSH1 0x1F NOT PUSH1 0x1F DUP3 ADD AND DUP3 ADD DUP1 PUSH1 0x40 MSTORE POP DUP2 ADD SWAP1 PUSH2 0xB03 SWAP2 SWAP1 PUSH2 0xCD5 JUMP JUMPDEST SWAP1 POP PUSH0 DUP1 PUSH0 SWAP1 SLOAD SWAP1 PUSH2 0x100 EXP SWAP1 DIV PUSH1 0x1 PUSH1 0x1 PUSH1 0xA0 SHL SUB AND PUSH1 0x1 PUSH1 0x1 PUSH1 0xA0 SHL SUB AND PUSH4 0x18160DDD PUSH1 0x40 MLOAD DUP2 PUSH4 0xFFFFFFFF AND PUSH1 0xE0 SHL DUP2 MSTORE PUSH1 0x4 ADD PUSH1 0x20 PUSH1 0x40 MLOAD DUP1 DUP4 SUB DUP2 DUP7 GAS STATICCALL ISZERO DUP1 ISZERO PUSH2 0xB55 JUMPI RETURNDATASIZE PUSH0 DUP1 RETURNDATACOPY RETURNDATASIZE PUSH0 REVERT JUMPDEST POP POP POP POP PUSH1 0x40 MLOAD RETURNDATASIZE PUSH1 0x1F NOT PUSH1 0x1F DUP3 ADD AND DUP3 ADD DUP1 PUSH1 0x40 MSTORE POP DUP2 ADD SWAP1 PUSH2 0xB79 SWAP2 SWAP1 PUSH2 0xCD5 JUMP JUMPDEST SWAP1 POP PUSH0 DUP1 PUSH0 SWAP1 SLOAD SWAP1 PUSH2 0x100 EXP SWAP1 DIV PUSH1 0x1 PUSH1 0x1 PUSH1 0xA0 SHL SUB AND PUSH1 0x1 PUSH1 0x1 PUSH1 0xA0 SHL SUB AND PUSH4 0x902F1AC PUSH1 0x40 MLOAD DUP2 PUSH4 0xFFFFFFFF AND PUSH1 0xE0 SHL DUP2 MSTORE PUSH1 0x4 ADD PUSH1 0x60 PUSH1 0x40 MLOAD DUP1 DUP4 SUB DUP2 DUP7 GAS STATICCALL ISZERO DUP1 ISZERO PUSH2 0xBCB JUMPI RETURNDATASIZE PUSH0 DUP1 RETURNDATACOPY RETURNDATASIZE PUSH0 REVERT JUMPDEST POP POP POP POP PUSH1 0x40 MLOAD RETURNDATASIZE PUSH1 0x1F NOT PUSH1 0x1F DUP3 ADD AND DUP3 ADD DUP1 PUSH1 0x40 MSTORE POP DUP2 ADD SWAP1 PUSH2 0xBEF SWAP2 SWAP1 PUSH2 0xD82 JUMP JUMPDEST POP POP PUSH1 0x1 PUSH1 0x1 PUSH1 0x70 SHL SUB AND SWAP1 POP PUSH0 DUP3 PUSH2 0xC10 DUP6 PUSH8 0xDE0B6B3A7640000 PUSH2 0xD36 JUMP JUMPDEST PUSH2 0xC1A SWAP2 SWAP1 PUSH2 0xD4D JUMP JUMPDEST SWAP1 POP PUSH0 PUSH8 0xDE0B6B3A7640000 PUSH2 0xC30 DUP5 DUP5 PUSH2 0xD36 JUMP JUMPDEST PUSH2 0xC3A SWAP2 SWAP1 PUSH2 0xD4D JUMP JUMPDEST SWAP8 SWAP7 POP POP POP POP POP POP POP JUMP JUMPDEST DUP1 CALLDATALOAD PUSH1 0x1 PUSH1 0x1 PUSH1 0xA0 SHL SUB DUP2 AND DUP2 EQ PUSH2 0xC5B JUMPI PUSH0 DUP1 REVERT JUMPDEST SWAP2 SWAP1 POP JUMP JUMPDEST PUSH0 PUSH1 0x20 DUP3 DUP5 SUB SLT ISZERO PUSH2 0xC70 JUMPI PUSH0 DUP1 REVERT JUMPDEST PUSH2 0xC79 DUP3 PUSH2 0xC45 JUMP JUMPDEST SWAP4 SWAP3 POP POP POP JUMP JUMPDEST PUSH0 DUP1 PUSH1 0x40 DUP4 DUP6 SUB SLT ISZERO PUSH2 0xC91 JUMPI PUSH0 DUP1 REVERT JUMPDEST PUSH2 0xC9A DUP4 PUSH2 0xC45 JUMP JUMPDEST SWAP5 PUSH1 0x20 SWAP4 SWAP1 SWAP4 ADD CALLDATALOAD SWAP4 POP POP POP JUMP JUMPDEST PUSH4 0x4E487B71 PUSH1 0xE0 SHL PUSH0 MSTORE PUSH1 0x11 PUSH1 0x4 MSTORE PUSH1 0x24 PUSH0 REVERT JUMPDEST DUP2 DUP2 SUB DUP2 DUP2 GT ISZERO PUSH2 0xCCF JUMPI PUSH2 0xCCF PUSH2 0xCA8 JUMP JUMPDEST SWAP3 SWAP2 POP POP JUMP JUMPDEST PUSH0 PUSH1 0x20 DUP3 DUP5 SUB SLT ISZERO PUSH2 0xCE5 JUMPI PUSH0 DUP1 REVERT JUMPDEST POP MLOAD SWAP2 SWAP1 POP JUMP JUMPDEST PUSH0 PUSH1 0x20 DUP3 DUP5 SUB SLT ISZERO PUSH2 0xCFC JUMPI PUSH0 DUP1 REVERT JUMPDEST DUP2 MLOAD DUP1 ISZERO ISZERO DUP2 EQ PUSH2 0xC79 JUMPI PUSH0 DUP1 REVERT JUMPDEST DUP1 DUP3 ADD DUP1 DUP3 GT ISZERO PUSH2 0xCCF JUMPI PUSH2 0xCCF PUSH2 0xCA8 JUMP JUMPDEST PUSH0 PUSH1 0x1 DUP3 ADD PUSH2 0xD2F JUMPI PUSH2 0xD2F PUSH2 0xCA8 JUMP JUMPDEST POP PUSH1 0x1 ADD SWAP1 JUMP JUMPDEST DUP1 DUP3 MUL DUP2 ISZERO DUP3 DUP3 DIV DUP5 EQ OR PUSH2 0xCCF JUMPI PUSH2 0xCCF PUSH2 0xCA8 JUMP JUMPDEST PUSH0 DUP3 PUSH2 0xD67 JUMPI PUSH4 0x4E487B71 PUSH1 0xE0 SHL PUSH0 MSTORE PUSH1 0x12 PUSH1 0x4 MSTORE PUSH1 0x24 PUSH0 REVERT JUMPDEST POP DIV SWAP1 JUMP JUMPDEST DUP1 MLOAD PUSH1 0x1 PUSH1 0x1 PUSH1 0x70 SHL SUB DUP2 AND DUP2 EQ PUSH2 0xC5B JUMPI PUSH0 DUP1 REVERT JUMPDEST PUSH0 DUP1 PUSH0 PUSH1 0x60 DUP5 DUP7 SUB SLT ISZERO PUSH2 0xD94 JUMPI PUSH0 DUP1 REVERT JUMPDEST PUSH2 0xD9D DUP5 PUSH2 0xD6C JUMP JUMPDEST SWAP3 POP PUSH2 0xDAB PUSH1 0x20 DUP6 ADD PUSH2 0xD6C JUMP JUMPDEST SWAP2 POP PUSH1 0x40 DUP5 ADD MLOAD PUSH4 0xFFFFFFFF DUP2 AND DUP2 EQ PUSH2 0xDC3 JUMPI PUSH0 DUP1 REVERT JUMPDEST DUP1 SWAP2 POP POP SWAP3 POP SWAP3 POP SWAP3 JUMP INVALID LOG2 PUSH5 0x6970667358 0x22 SLT KECCAK256 SWAP12 PC PUSH16 0x21AD703C2CF801EEB9369125393EBDB5 0xE3 AND 0xE7 0xAA CALLDATACOPY MLOAD 0xC4 PREVRANDAO 0xC7 0xC9 STOP 0xD8 0xAF PUSH5 0x736F6C6343 STOP ADDMOD XOR STOP CALLER "
				},
				"gasEstimates": {
					"creation": {
						"codeDepositCost": "717600",
						"executionCost": "infinite",
						"totalCost": "infinite"
					},
					"external": {
						"alreadyVoted(address)": "2574",
						"applicants()": "2415",
						"budsToken()": "infinite",
						"claim()": "infinite",
						"currentMonthRewardsLeft()": "2372",
						"getCurrentMonthRewardsLeft()": "infinite",
						"getLastResetTime()": "2370",
						"initialReward()": "2350",
						"isEligible(address)": "infinite",
						"isResetTime()": "2485",
						"isWithinClaimWindow()": "2575",
						"lastClaimTime(address)": "2527",
						"lastResetTimestamp()": "2394",
						"lpTokenAddress()": "2401",
						"marketingAddress()": "2381",
						"minLPValue()": "271",
						"numberOfApplicants()": "2324",
						"reduceCommission()": "infinite",
						"resetInterval()": "293",
						"timeSinceLastClaim()": "2465",
						"withdrawExcess(address,uint256)": "infinite"
					},
					"internal": {
						"calculateReward()": "infinite",
						"getUSDValueOfLPTokens(address)": "infinite",
						"reset()": "infinite"
					}
				},
				"methodIdentifiers": {
					"alreadyVoted(address)": "06d2ad40",
					"applicants()": "fdf5963a",
					"budsToken()": "7f581488",
					"claim()": "4e71d92d",
					"currentMonthRewardsLeft()": "b2fd0901",
					"getCurrentMonthRewardsLeft()": "4618af42",
					"getLastResetTime()": "39ad74cd",
					"initialReward()": "abee967c",
					"isEligible(address)": "66e305fd",
					"isResetTime()": "09c21f2d",
					"isWithinClaimWindow()": "823cc69d",
					"lastClaimTime(address)": "b77cf9c6",
					"lastResetTimestamp()": "b343a0df",
					"lpTokenAddress()": "f5ae497a",
					"marketingAddress()": "a5ece941",
					"minLPValue()": "f7e90d8f",
					"numberOfApplicants()": "cad7ca40",
					"reduceCommission()": "92f851c1",
					"resetInterval()": "fda7aff0",
					"timeSinceLastClaim()": "03e0a1e2",
					"withdrawExcess(address,uint256)": "6e90013d"
				}
			},
			"storageLayout": {
				"storage": [
					{
						"astId": 1756,
						"contract": "contracts/BUDS.sol:Toppings",
						"label": "lpTokenAddress",
						"offset": 0,
						"slot": "0",
						"type": "t_address"
					},
					{
						"astId": 1765,
						"contract": "contracts/BUDS.sol:Toppings",
						"label": "initialReward",
						"offset": 0,
						"slot": "1",
						"type": "t_uint256"
					},
					{
						"astId": 1767,
						"contract": "contracts/BUDS.sol:Toppings",
						"label": "currentMonthRewardsLeft",
						"offset": 0,
						"slot": "2",
						"type": "t_uint256"
					},
					{
						"astId": 1772,
						"contract": "contracts/BUDS.sol:Toppings",
						"label": "claimDiscount",
						"offset": 0,
						"slot": "3",
						"type": "t_uint256"
					},
					{
						"astId": 1775,
						"contract": "contracts/BUDS.sol:Toppings",
						"label": "claimCount",
						"offset": 0,
						"slot": "4",
						"type": "t_uint256"
					},
					{
						"astId": 1779,
						"contract": "contracts/BUDS.sol:Toppings",
						"label": "lastClaimTime",
						"offset": 0,
						"slot": "5",
						"type": "t_mapping(t_address,t_uint256)"
					},
					{
						"astId": 1783,
						"contract": "contracts/BUDS.sol:Toppings",
						"label": "alreadyVoted",
						"offset": 0,
						"slot": "6",
						"type": "t_mapping(t_address,t_bool)"
					},
					{
						"astId": 1785,
						"contract": "contracts/BUDS.sol:Toppings",
						"label": "applicants",
						"offset": 0,
						"slot": "7",
						"type": "t_uint256"
					},
					{
						"astId": 1787,
						"contract": "contracts/BUDS.sol:Toppings",
						"label": "marketingAddress",
						"offset": 0,
						"slot": "8",
						"type": "t_address"
					},
					{
						"astId": 1791,
						"contract": "contracts/BUDS.sol:Toppings",
						"label": "owner",
						"offset": 0,
						"slot": "9",
						"type": "t_address"
					},
					{
						"astId": 1795,
						"contract": "contracts/BUDS.sol:Toppings",
						"label": "lastResetTimestamp",
						"offset": 0,
						"slot": "10",
						"type": "t_uint256"
					}
				],
				"types": {
					"t_address": {
						"encoding": "inplace",
						"label": "address",
						"numberOfBytes": "20"
					},
					"t_bool": {
						"encoding": "inplace",
						"label": "bool",
						"numberOfBytes": "1"
					},
					"t_mapping(t_address,t_bool)": {
						"encoding": "mapping",
						"key": "t_address",
						"label": "mapping(address => bool)",
						"numberOfBytes": "32",
						"value": "t_bool"
					},
					"t_mapping(t_address,t_uint256)": {
						"encoding": "mapping",
						"key": "t_address",
						"label": "mapping(address => uint256)",
						"numberOfBytes": "32",
						"value": "t_uint256"
					},
					"t_uint256": {
						"encoding": "inplace",
						"label": "uint256",
						"numberOfBytes": "32"
					}
				}
			},
			"userdoc": {
				"kind": "user",
				"methods": {},
				"version": 1
			}
		}
	}
}