{
	"contracts/BUDS.sol": {
		"Staking": {
			"abi": [
				{
					"inputs": [
						{
							"internalType": "address",
							"name": "_uniswapPool",
							"type": "address"
						},
						{
							"internalType": "address",
							"name": "_rewardToken",
							"type": "address"
						}
					],
					"stateMutability": "nonpayable",
					"type": "constructor"
				},
				{
					"anonymous": false,
					"inputs": [
						{
							"indexed": true,
							"internalType": "address",
							"name": "user",
							"type": "address"
						},
						{
							"indexed": false,
							"internalType": "uint256",
							"name": "amount",
							"type": "uint256"
						}
					],
					"name": "LockedLP",
					"type": "event"
				},
				{
					"anonymous": false,
					"inputs": [
						{
							"indexed": true,
							"internalType": "address",
							"name": "user",
							"type": "address"
						},
						{
							"indexed": false,
							"internalType": "uint256",
							"name": "amount",
							"type": "uint256"
						}
					],
					"name": "RewardHarvested",
					"type": "event"
				},
				{
					"anonymous": false,
					"inputs": [
						{
							"indexed": true,
							"internalType": "address",
							"name": "user",
							"type": "address"
						},
						{
							"indexed": false,
							"internalType": "uint256",
							"name": "amount",
							"type": "uint256"
						}
					],
					"name": "UnlockedLP",
					"type": "event"
				},
				{
					"inputs": [],
					"name": "MINIMUM_CLAIM_INTERVAL",
					"outputs": [
						{
							"internalType": "uint256",
							"name": "",
							"type": "uint256"
						}
					],
					"stateMutability": "view",
					"type": "function"
				},
				{
					"inputs": [],
					"name": "NINETY_DAYS",
					"outputs": [
						{
							"internalType": "uint256",
							"name": "",
							"type": "uint256"
						}
					],
					"stateMutability": "view",
					"type": "function"
				},
				{
					"inputs": [
						{
							"internalType": "address",
							"name": "",
							"type": "address"
						}
					],
					"name": "accumulatedRewards",
					"outputs": [
						{
							"internalType": "uint256",
							"name": "",
							"type": "uint256"
						}
					],
					"stateMutability": "view",
					"type": "function"
				},
				{
					"inputs": [
						{
							"internalType": "address",
							"name": "",
							"type": "address"
						}
					],
					"name": "alreadyVoted",
					"outputs": [
						{
							"internalType": "bool",
							"name": "",
							"type": "bool"
						}
					],
					"stateMutability": "view",
					"type": "function"
				},
				{
					"inputs": [
						{
							"internalType": "uint256",
							"name": "",
							"type": "uint256"
						}
					],
					"name": "annualRewards",
					"outputs": [
						{
							"internalType": "uint256",
							"name": "",
							"type": "uint256"
						}
					],
					"stateMutability": "view",
					"type": "function"
				},
				{
					"inputs": [],
					"name": "applicants",
					"outputs": [
						{
							"internalType": "uint256",
							"name": "",
							"type": "uint256"
						}
					],
					"stateMutability": "view",
					"type": "function"
				},
				{
					"inputs": [],
					"name": "currentDay",
					"outputs": [
						{
							"internalType": "uint256",
							"name": "",
							"type": "uint256"
						}
					],
					"stateMutability": "view",
					"type": "function"
				},
				{
					"inputs": [],
					"name": "currentMonth",
					"outputs": [
						{
							"internalType": "uint256",
							"name": "",
							"type": "uint256"
						}
					],
					"stateMutability": "view",
					"type": "function"
				},
				{
					"inputs": [],
					"name": "dailyLimit",
					"outputs": [
						{
							"internalType": "uint256",
							"name": "",
							"type": "uint256"
						}
					],
					"stateMutability": "view",
					"type": "function"
				},
				{
					"inputs": [],
					"name": "getCurrentMonth",
					"outputs": [
						{
							"internalType": "uint256",
							"name": "",
							"type": "uint256"
						}
					],
					"stateMutability": "view",
					"type": "function"
				},
				{
					"inputs": [
						{
							"internalType": "address",
							"name": "user",
							"type": "address"
						}
					],
					"name": "getUnclaimedRewards",
					"outputs": [
						{
							"internalType": "uint256",
							"name": "",
							"type": "uint256"
						}
					],
					"stateMutability": "view",
					"type": "function"
				},
				{
					"inputs": [],
					"name": "harvestRewards",
					"outputs": [],
					"stateMutability": "nonpayable",
					"type": "function"
				},
				{
					"inputs": [
						{
							"internalType": "address",
							"name": "",
							"type": "address"
						}
					],
					"name": "lastClaimTime",
					"outputs": [
						{
							"internalType": "uint256",
							"name": "",
							"type": "uint256"
						}
					],
					"stateMutability": "view",
					"type": "function"
				},
				{
					"inputs": [
						{
							"internalType": "address",
							"name": "",
							"type": "address"
						}
					],
					"name": "lockInfo",
					"outputs": [
						{
							"internalType": "uint256",
							"name": "amount",
							"type": "uint256"
						},
						{
							"internalType": "uint256",
							"name": "lockTime",
							"type": "uint256"
						}
					],
					"stateMutability": "view",
					"type": "function"
				},
				{
					"inputs": [
						{
							"internalType": "uint256",
							"name": "amount",
							"type": "uint256"
						}
					],
					"name": "lockLP",
					"outputs": [],
					"stateMutability": "nonpayable",
					"type": "function"
				},
				{
					"inputs": [],
					"name": "lpTokenAddress",
					"outputs": [
						{
							"internalType": "address",
							"name": "",
							"type": "address"
						}
					],
					"stateMutability": "view",
					"type": "function"
				},
				{
					"inputs": [],
					"name": "marketingWallet",
					"outputs": [
						{
							"internalType": "address",
							"name": "",
							"type": "address"
						}
					],
					"stateMutability": "view",
					"type": "function"
				},
				{
					"inputs": [],
					"name": "monthlyRewardLimit",
					"outputs": [
						{
							"internalType": "uint256",
							"name": "",
							"type": "uint256"
						}
					],
					"stateMutability": "view",
					"type": "function"
				},
				{
					"inputs": [],
					"name": "reduceCommission",
					"outputs": [],
					"stateMutability": "nonpayable",
					"type": "function"
				},
				{
					"inputs": [],
					"name": "rewardToken",
					"outputs": [
						{
							"internalType": "contract IERC20",
							"name": "",
							"type": "address"
						}
					],
					"stateMutability": "view",
					"type": "function"
				},
				{
					"inputs": [],
					"name": "rewardsDistributedToday",
					"outputs": [
						{
							"internalType": "uint256",
							"name": "",
							"type": "uint256"
						}
					],
					"stateMutability": "view",
					"type": "function"
				},
				{
					"inputs": [
						{
							"internalType": "address",
							"name": "_uniswapPool",
							"type": "address"
						}
					],
					"name": "setUniswapPool",
					"outputs": [],
					"stateMutability": "nonpayable",
					"type": "function"
				},
				{
					"inputs": [
						{
							"internalType": "address",
							"name": "",
							"type": "address"
						}
					],
					"name": "stakedTokens",
					"outputs": [
						{
							"internalType": "uint256",
							"name": "",
							"type": "uint256"
						}
					],
					"stateMutability": "view",
					"type": "function"
				},
				{
					"inputs": [
						{
							"internalType": "address",
							"name": "",
							"type": "address"
						}
					],
					"name": "stakingStartTime",
					"outputs": [
						{
							"internalType": "uint256",
							"name": "",
							"type": "uint256"
						}
					],
					"stateMutability": "view",
					"type": "function"
				},
				{
					"inputs": [],
					"name": "totalDistributedRewards",
					"outputs": [
						{
							"internalType": "uint256",
							"name": "",
							"type": "uint256"
						}
					],
					"stateMutability": "view",
					"type": "function"
				},
				{
					"inputs": [],
					"name": "unlockLP",
					"outputs": [],
					"stateMutability": "nonpayable",
					"type": "function"
				},
				{
					"inputs": [
						{
							"internalType": "address",
							"name": "token",
							"type": "address"
						},
						{
							"internalType": "uint256",
							"name": "amount",
							"type": "uint256"
						}
					],
					"name": "withdrawExcess",
					"outputs": [],
					"stateMutability": "nonpayable",
					"type": "function"
				}
			],
			"devdoc": {
				"kind": "dev",
				"methods": {},
				"version": 1
			},
			"evm": {
				"assembly": "    /* \"contracts/BUDS.sol\":8580:18966  contract Staking {... */\n  mstore(0x40, 0x80)\n    /* \"contracts/BUDS.sol\":9392:9418  address owner = msg.sender */\n  0x07\n  dup1\n  sload\n    /* \"contracts/BUDS.sol\":9408:9418  msg.sender */\n  caller\n  not(sub(shl(0xa0, 0x01), 0x01))\n    /* \"contracts/BUDS.sol\":9392:9418  address owner = msg.sender */\n  swap2\n  dup3\n  and\n  dup2\n  or\n  swap1\n  swap3\n  sstore\n    /* \"contracts/BUDS.sol\":9425:9463  address public marketingWallet = owner */\n  0x08\n  dup1\n  sload\n  swap1\n  swap2\n  and\n  swap1\n  swap2\n  or\n  swap1\n  sstore\n    /* \"contracts/BUDS.sol\":10431:11273  constructor(address _uniswapPool, address _rewardToken) {... */\n  callvalue\n  dup1\n  iszero\n  tag_1\n  jumpi\n  0x00\n  dup1\n  revert\ntag_1:\n  pop\n  mload(0x40)\n  sub(codesize, bytecodeSize)\n  dup1\n  bytecodeSize\n  dup4\n  codecopy\n  dup2\n  add\n  0x40\n  dup2\n  swap1\n  mstore\n  tag_2\n  swap2\n  tag_3\n  jump\t// in\ntag_2:\n    /* \"contracts/BUDS.sol\":10498:10512  lpTokenAddress */\n  0x05\n    /* \"contracts/BUDS.sol\":10498:10527  lpTokenAddress = _uniswapPool */\n  dup1\n  sload\n  sub(shl(0xa0, 0x01), 0x01)\n  swap4\n  dup5\n  and\n  not(sub(shl(0xa0, 0x01), 0x01))\n  swap2\n  dup3\n  and\n  or\n  swap1\n  swap2\n  sstore\n    /* \"contracts/BUDS.sol\":10538:10549  rewardToken */\n  0x06\n    /* \"contracts/BUDS.sol\":10538:10572  rewardToken = IERC20(_rewardToken) */\n  dup1\n  sload\n  swap3\n  swap1\n  swap4\n  and\n  swap2\n  and\n  or\n  swap1\n  sstore\n    /* \"contracts/BUDS.sol\":10583:10596  annualRewards */\n  0x12\n    /* \"contracts/BUDS.sol\":10583:10600  annualRewards[54] */\n  0x20\n  mstore\n    /* \"contracts/BUDS.sol\":10603:10619  1000000 * 10**18 */\n  0xd3c21bcecceda1000000\n    /* \"contracts/BUDS.sol\":10583:10600  annualRewards[54] */\n  0x4270792c5242bb9af31a0ca014789585bac3a2bc36b4e20e1e1163e09d416afc\n    /* \"contracts/BUDS.sol\":10583:10619  annualRewards[54] = 1000000 * 10**18 */\n  sstore\n    /* \"contracts/BUDS.sol\":10668:10683  850000 * 10**18 */\n  0xb3fe97a2fafd2f400000\n    /* \"contracts/BUDS.sol\":10648:10665  annualRewards[55] */\n  0xea116540bb6c5b7acceccd1764953a76c4fad8a217efbc5957292a6f6549f6bb\n    /* \"contracts/BUDS.sol\":10648:10683  annualRewards[55] = 850000 * 10**18 */\n  sstore\n    /* \"contracts/BUDS.sol\":10721:10736  475000 * 10**18 */\n  0x6495cd356e2412e00000\n    /* \"contracts/BUDS.sol\":10701:10718  annualRewards[56] */\n  0x52d0aceea21727f3645b59ed2a8e2414ba98aec7326945136bbb6fbd1d1bee80\n    /* \"contracts/BUDS.sol\":10701:10736  annualRewards[56] = 475000 * 10**18 */\n  sstore\n    /* \"contracts/BUDS.sol\":10774:10789  275500 * 10**18 */\n  0x3a56e28a827115300000\n    /* \"contracts/BUDS.sol\":10754:10771  annualRewards[57] */\n  0x9f59f72911ca8f47b3e19df7b8d808aa81d8edc8119614c7c316f6c84bb89c8b\n    /* \"contracts/BUDS.sol\":10754:10789  annualRewards[57] = 275500 * 10**18 */\n  sstore\n    /* \"contracts/BUDS.sol\":10827:10842  225000 * 10**18 */\n  0x2fa54641bae8aaa00000\n    /* \"contracts/BUDS.sol\":10807:10824  annualRewards[58] */\n  0x5e6dc1ec65c205e4785800fc7cf7266df7ecc1251284c73df73cc438b1f93498\n    /* \"contracts/BUDS.sol\":10807:10842  annualRewards[58] = 225000 * 10**18 */\n  sstore\n    /* \"contracts/BUDS.sol\":10880:10894  75625 * 10**18 */\n  0x1003a3b3f593e4040000\n    /* \"contracts/BUDS.sol\":10860:10877  annualRewards[59] */\n  0x5fe6cf215b4a13eaa2a7a4f22b2caee36bbae8f63be3ada50ba2209f503bdc76\n    /* \"contracts/BUDS.sol\":10860:10894  annualRewards[59] = 75625 * 10**18 */\n  sstore\n    /* \"contracts/BUDS.sol\":10932:10946  50000 * 10**18 */\n  0x0a968163f0a57b400000\n    /* \"contracts/BUDS.sol\":10912:10929  annualRewards[60] */\n  0x1cc964778659cb526f0f4fe148ec03d3f93f444a969aac8d1602a8004b60f6f8\n    /* \"contracts/BUDS.sol\":10912:10946  annualRewards[60] = 50000 * 10**18 */\n  sstore\n    /* \"contracts/BUDS.sol\":10984:10998  45000 * 10**18 */\n  0x098774738bc822200000\n    /* \"contracts/BUDS.sol\":10964:10981  annualRewards[61] */\n  0x77a856606c58f2afe74bc4d415a981c84b65392fcf7fefc382ded558bb92f464\n    /* \"contracts/BUDS.sol\":10964:10998  annualRewards[61] = 45000 * 10**18 */\n  dup2\n  swap1\n  sstore\n    /* \"contracts/BUDS.sol\":11016:11033  annualRewards[62] */\n  0xe916beb333cde8471a36b6e21a68b3ebdc7e0fe343cee63055523fb231ea1187\n    /* \"contracts/BUDS.sol\":11016:11050  annualRewards[62] = 45000 * 10**18 */\n  dup2\n  swap1\n  sstore\n    /* \"contracts/BUDS.sol\":11068:11085  annualRewards[63] */\n  0x9717e554f4f1c8f1445175ec6b77439740ea6e0a2d3809501f0e3f3949c19e28\n    /* \"contracts/BUDS.sol\":11068:11102  annualRewards[63] = 45000 * 10**18 */\n  dup2\n  swap1\n  sstore\n    /* \"contracts/BUDS.sol\":11120:11137  annualRewards[64] */\n  0x31c8277a0ccfffea1189152918c4cd07edee7f47b05bce3a4bae62597e6d602e\n    /* \"contracts/BUDS.sol\":11120:11154  annualRewards[64] = 45000 * 10**18 */\n  dup2\n  swap1\n  sstore\n    /* \"contracts/BUDS.sol\":11172:11189  annualRewards[65] */\n  0xf488cbb1c9f248560c55d6af8aff3d1b53d7743aee9b6e9d1423c01242306451\n    /* \"contracts/BUDS.sol\":11172:11206  annualRewards[65] = 45000 * 10**18 */\n  sstore\n    /* \"contracts/BUDS.sol\":11238:11240  66 */\n  0x42\n    /* \"contracts/BUDS.sol\":10498:10512  lpTokenAddress */\n  0x00\n    /* \"contracts/BUDS.sol\":11224:11241  annualRewards[66] */\n  mstore\n    /* \"contracts/BUDS.sol\":11244:11258  44600 * 10**18 */\n  0x0971c556131295e00000\n    /* \"contracts/BUDS.sol\":11224:11241  annualRewards[66] */\n  0xa6a9599000f4425e443918d34a69c9234ba73b27460468e6463868ac68d263b8\n    /* \"contracts/BUDS.sol\":11224:11258  annualRewards[66] = 44600 * 10**18 */\n  sstore\n    /* \"contracts/BUDS.sol\":8580:18966  contract Staking {... */\n  jump(tag_8)\n    /* \"#utility.yul\":14:191   */\ntag_7:\n    /* \"#utility.yul\":93:106   */\n  dup1\n  mload\n  sub(shl(0xa0, 0x01), 0x01)\n    /* \"#utility.yul\":135:166   */\n  dup2\n  and\n    /* \"#utility.yul\":125:167   */\n  dup2\n  eq\n    /* \"#utility.yul\":115:185   */\n  tag_10\n  jumpi\n    /* \"#utility.yul\":181:182   */\n  0x00\n    /* \"#utility.yul\":178:179   */\n  dup1\n    /* \"#utility.yul\":171:183   */\n  revert\n    /* \"#utility.yul\":115:185   */\ntag_10:\n    /* \"#utility.yul\":14:191   */\n  swap2\n  swap1\n  pop\n  jump\t// out\n    /* \"#utility.yul\":196:489   */\ntag_3:\n    /* \"#utility.yul\":275:281   */\n  0x00\n    /* \"#utility.yul\":283:289   */\n  dup1\n    /* \"#utility.yul\":336:338   */\n  0x40\n    /* \"#utility.yul\":324:333   */\n  dup4\n    /* \"#utility.yul\":315:322   */\n  dup6\n    /* \"#utility.yul\":311:334   */\n  sub\n    /* \"#utility.yul\":307:339   */\n  slt\n    /* \"#utility.yul\":304:356   */\n  iszero\n  tag_12\n  jumpi\n    /* \"#utility.yul\":352:353   */\n  0x00\n    /* \"#utility.yul\":349:350   */\n  dup1\n    /* \"#utility.yul\":342:354   */\n  revert\n    /* \"#utility.yul\":304:356   */\ntag_12:\n    /* \"#utility.yul\":375:415   */\n  tag_13\n    /* \"#utility.yul\":405:414   */\n  dup4\n    /* \"#utility.yul\":375:415   */\n  tag_7\n  jump\t// in\ntag_13:\n    /* \"#utility.yul\":365:415   */\n  swap2\n  pop\n    /* \"#utility.yul\":434:483   */\n  tag_14\n    /* \"#utility.yul\":479:481   */\n  0x20\n    /* \"#utility.yul\":468:477   */\n  dup5\n    /* \"#utility.yul\":464:482   */\n  add\n    /* \"#utility.yul\":434:483   */\n  tag_7\n  jump\t// in\ntag_14:\n    /* \"#utility.yul\":424:483   */\n  swap1\n  pop\n    /* \"#utility.yul\":196:489   */\n  swap3\n  pop\n  swap3\n  swap1\n  pop\n  jump\t// out\ntag_8:\n    /* \"contracts/BUDS.sol\":8580:18966  contract Staking {... */\n  dataSize(sub_0)\n  dup1\n  dataOffset(sub_0)\n  0x00\n  codecopy\n  0x00\n  return\nstop\n\nsub_0: assembly {\n        /* \"contracts/BUDS.sol\":8580:18966  contract Staking {... */\n      mstore(0x40, 0x80)\n      callvalue\n      dup1\n      iszero\n      tag_1\n      jumpi\n      0x00\n      dup1\n      revert\n    tag_1:\n      pop\n      jumpi(tag_2, lt(calldatasize, 0x04))\n      shr(0xe0, calldataload(0x00))\n      dup1\n      0x8aca35a0\n      gt\n      tag_30\n      jumpi\n      dup1\n      0xb91f3f97\n      gt\n      tag_31\n      jumpi\n      dup1\n      0xe372c900\n      gt\n      tag_32\n      jumpi\n      dup1\n      0xe372c900\n      eq\n      tag_26\n      jumpi\n      dup1\n      0xf5ae497a\n      eq\n      tag_27\n      jumpi\n      dup1\n      0xf7c618c1\n      eq\n      tag_28\n      jumpi\n      dup1\n      0xfdf5963a\n      eq\n      tag_29\n      jumpi\n      0x00\n      dup1\n      revert\n    tag_32:\n      dup1\n      0xb91f3f97\n      eq\n      tag_23\n      jumpi\n      dup1\n      0xd1232730\n      eq\n      tag_24\n      jumpi\n      dup1\n      0xddd1b67e\n      eq\n      tag_25\n      jumpi\n      0x00\n      dup1\n      revert\n    tag_31:\n      dup1\n      0xa5b39cfb\n      gt\n      tag_33\n      jumpi\n      dup1\n      0xa5b39cfb\n      eq\n      tag_19\n      jumpi\n      dup1\n      0xa87df832\n      eq\n      tag_20\n      jumpi\n      dup1\n      0xb5a556d2\n      eq\n      tag_21\n      jumpi\n      dup1\n      0xb77cf9c6\n      eq\n      tag_22\n      jumpi\n      0x00\n      dup1\n      revert\n    tag_33:\n      dup1\n      0x8aca35a0\n      eq\n      tag_16\n      jumpi\n      dup1\n      0x8f90e902\n      eq\n      tag_17\n      jumpi\n      dup1\n      0x92f851c1\n      eq\n      tag_18\n      jumpi\n      0x00\n      dup1\n      revert\n    tag_30:\n      dup1\n      0x67eeba0c\n      gt\n      tag_34\n      jumpi\n      dup1\n      0x6e90013d\n      gt\n      tag_35\n      jumpi\n      dup1\n      0x6e90013d\n      eq\n      tag_12\n      jumpi\n      dup1\n      0x73f273fc\n      eq\n      tag_13\n      jumpi\n      dup1\n      0x75f0a874\n      eq\n      tag_14\n      jumpi\n      dup1\n      0x862a4d47\n      eq\n      tag_15\n      jumpi\n      0x00\n      dup1\n      revert\n    tag_35:\n      dup1\n      0x67eeba0c\n      eq\n      tag_9\n      jumpi\n      dup1\n      0x69a69e29\n      eq\n      tag_10\n      jumpi\n      dup1\n      0x6bd3b87c\n      eq\n      tag_11\n      jumpi\n      0x00\n      dup1\n      revert\n    tag_34:\n      dup1\n      0x06d2ad40\n      eq\n      tag_3\n      jumpi\n      dup1\n      0x2be11ae2\n      eq\n      tag_4\n      jumpi\n      dup1\n      0x40519a53\n      eq\n      tag_5\n      jumpi\n      dup1\n      0x443df8f5\n      eq\n      tag_6\n      jumpi\n      dup1\n      0x50f0a325\n      eq\n      tag_7\n      jumpi\n      dup1\n      0x5c9302c9\n      eq\n      tag_8\n      jumpi\n    tag_2:\n      0x00\n      dup1\n      revert\n        /* \"contracts/BUDS.sol\":8910:8954  mapping(address => bool) public alreadyVoted */\n    tag_3:\n      tag_36\n      tag_37\n      calldatasize\n      0x04\n      tag_38\n      jump\t// in\n    tag_37:\n      mstore(0x20, 0x04)\n      0x00\n      swap1\n      dup2\n      mstore\n      0x40\n      swap1\n      keccak256\n      sload\n      0xff\n      and\n      dup2\n      jump\n    tag_36:\n      mload(0x40)\n        /* \"#utility.yul\":548:562   */\n      swap1\n      iszero\n        /* \"#utility.yul\":541:563   */\n      iszero\n        /* \"#utility.yul\":523:564   */\n      dup2\n      mstore\n        /* \"#utility.yul\":511:513   */\n      0x20\n        /* \"#utility.yul\":496:514   */\n      add\n        /* \"contracts/BUDS.sol\":8910:8954  mapping(address => bool) public alreadyVoted */\n    tag_40:\n      mload(0x40)\n      dup1\n      swap2\n      sub\n      swap1\n      return\n        /* \"contracts/BUDS.sol\":13591:16128  function harvestRewards() public {... */\n    tag_4:\n      tag_42\n      tag_43\n      jump\t// in\n    tag_42:\n      stop\n        /* \"contracts/BUDS.sol\":11281:12098  function lockLP(uint256 amount) public {... */\n    tag_5:\n      tag_42\n      tag_45\n      calldatasize\n      0x04\n      tag_46\n      jump\t// in\n    tag_45:\n      tag_47\n      jump\t// in\n        /* \"contracts/BUDS.sol\":9951:9999  mapping(uint256 => uint256) public annualRewards */\n    tag_6:\n      tag_48\n      tag_49\n      calldatasize\n      0x04\n      tag_46\n      jump\t// in\n    tag_49:\n      mstore(0x20, 0x12)\n      0x00\n      swap1\n      dup2\n      mstore\n      0x40\n      swap1\n      keccak256\n      sload\n      dup2\n      jump\n    tag_48:\n      mload(0x40)\n        /* \"#utility.yul\":906:931   */\n      swap1\n      dup2\n      mstore\n        /* \"#utility.yul\":894:896   */\n      0x20\n        /* \"#utility.yul\":879:897   */\n      add\n        /* \"contracts/BUDS.sol\":9951:9999  mapping(uint256 => uint256) public annualRewards */\n      tag_40\n        /* \"#utility.yul\":760:937   */\n      jump\n        /* \"contracts/BUDS.sol\":9049:9107  uint256 public constant MINIMUM_CLAIM_INTERVAL = 7 seconds */\n    tag_7:\n      tag_48\n        /* \"contracts/BUDS.sol\":9098:9107  7 seconds */\n      0x07\n        /* \"contracts/BUDS.sol\":9049:9107  uint256 public constant MINIMUM_CLAIM_INTERVAL = 7 seconds */\n      dup2\n      jump\n        /* \"contracts/BUDS.sol\":9675:9700  uint256 public currentDay */\n    tag_8:\n      tag_48\n      sload(0x0e)\n      dup2\n      jump\n        /* \"contracts/BUDS.sol\":9747:9772  uint256 public dailyLimit */\n    tag_9:\n      tag_48\n      sload(0x10)\n      dup2\n      jump\n        /* \"contracts/BUDS.sol\":16136:17059  function getUnclaimedRewards(address user) external view returns (uint256) {... */\n    tag_10:\n      tag_48\n      tag_63\n      calldatasize\n      0x04\n      tag_38\n      jump\t// in\n    tag_63:\n      tag_64\n      jump\t// in\n        /* \"contracts/BUDS.sol\":10378:10422  mapping(address => LockInfo) public lockInfo */\n    tag_11:\n      tag_66\n      tag_67\n      calldatasize\n      0x04\n      tag_38\n      jump\t// in\n    tag_67:\n      mstore(0x20, 0x13)\n      0x00\n      swap1\n      dup2\n      mstore\n      0x40\n      swap1\n      keccak256\n      dup1\n      sload\n      0x01\n      swap1\n      swap2\n      add\n      sload\n      dup3\n      jump\n    tag_66:\n      0x40\n      dup1\n      mload\n        /* \"#utility.yul\":1116:1141   */\n      swap3\n      dup4\n      mstore\n        /* \"#utility.yul\":1172:1174   */\n      0x20\n        /* \"#utility.yul\":1157:1175   */\n      dup4\n      add\n        /* \"#utility.yul\":1150:1184   */\n      swap2\n      swap1\n      swap2\n      mstore\n        /* \"#utility.yul\":1089:1107   */\n      add\n        /* \"contracts/BUDS.sol\":10378:10422  mapping(address => LockInfo) public lockInfo */\n      tag_40\n        /* \"#utility.yul\":942:1190   */\n      jump\n        /* \"contracts/BUDS.sol\":17155:17329  function withdrawExcess(address token, uint256 amount) external {... */\n    tag_12:\n      tag_42\n      tag_72\n      calldatasize\n      0x04\n      tag_73\n      jump\t// in\n    tag_72:\n      tag_74\n      jump\t// in\n        /* \"contracts/BUDS.sol\":8737:8790  mapping(address => uint256) public accumulatedRewards */\n    tag_13:\n      tag_48\n      tag_76\n      calldatasize\n      0x04\n      tag_38\n      jump\t// in\n    tag_76:\n      mstore(0x20, 0x02)\n      0x00\n      swap1\n      dup2\n      mstore\n      0x40\n      swap1\n      keccak256\n      sload\n      dup2\n      jump\n        /* \"contracts/BUDS.sol\":9425:9463  address public marketingWallet = owner */\n    tag_14:\n      sload(0x08)\n      tag_79\n      swap1\n      sub(shl(0xa0, 0x01), 0x01)\n      and\n      dup2\n      jump\n    tag_79:\n      mload(0x40)\n      sub(shl(0xa0, 0x01), 0x01)\n        /* \"#utility.yul\":1618:1650   */\n      swap1\n      swap2\n      and\n        /* \"#utility.yul\":1600:1651   */\n      dup2\n      mstore\n        /* \"#utility.yul\":1588:1590   */\n      0x20\n        /* \"#utility.yul\":1573:1591   */\n      add\n        /* \"contracts/BUDS.sol\":9425:9463  address public marketingWallet = owner */\n      tag_40\n        /* \"#utility.yul\":1454:1657   */\n      jump\n        /* \"contracts/BUDS.sol\":9641:9668  uint256 public currentMonth */\n    tag_15:\n      tag_48\n      sload(0x0d)\n      dup2\n      jump\n        /* \"contracts/BUDS.sol\":9707:9740  uint256 public monthlyRewardLimit */\n    tag_16:\n      tag_48\n      sload(0x0f)\n      dup2\n      jump\n        /* \"contracts/BUDS.sol\":17381:17538  function setUniswapPool(address _uniswapPool) external {... */\n    tag_17:\n      tag_42\n      tag_90\n      calldatasize\n      0x04\n      tag_38\n      jump\t// in\n    tag_90:\n      tag_91\n      jump\t// in\n        /* \"contracts/BUDS.sol\":18655:18963  function reduceCommission() external {... */\n    tag_18:\n      tag_42\n      tag_93\n      jump\t// in\n        /* \"contracts/BUDS.sol\":8659:8706  mapping(address => uint256) public stakedTokens */\n    tag_19:\n      tag_48\n      tag_95\n      calldatasize\n      0x04\n      tag_38\n      jump\t// in\n    tag_95:\n      mstore(0x20, 0x01)\n      0x00\n      swap1\n      dup2\n      mstore\n      0x40\n      swap1\n      keccak256\n      sload\n      dup2\n      jump\n        /* \"contracts/BUDS.sol\":9596:9634  uint256 public totalDistributedRewards */\n    tag_20:\n      tag_48\n      sload(0x0c)\n      dup2\n      jump\n        /* \"contracts/BUDS.sol\":9779:9817  uint256 public rewardsDistributedToday */\n    tag_21:\n      tag_48\n      sload(0x11)\n      dup2\n      jump\n        /* \"contracts/BUDS.sol\":8604:8652  mapping(address => uint256) public lastClaimTime */\n    tag_22:\n      tag_48\n      tag_105\n      calldatasize\n      0x04\n      tag_38\n      jump\t// in\n    tag_105:\n      0x00\n      0x20\n      dup2\n      swap1\n      mstore\n      swap1\n      dup2\n      mstore\n      0x40\n      swap1\n      keccak256\n      sload\n      dup2\n      jump\n        /* \"contracts/BUDS.sol\":12106:12780  function unlockLP() public {... */\n    tag_23:\n      tag_42\n      tag_109\n      jump\t// in\n        /* \"contracts/BUDS.sol\":8818:8869  mapping(address => uint256) public stakingStartTime */\n    tag_24:\n      tag_48\n      tag_111\n      calldatasize\n      0x04\n      tag_38\n      jump\t// in\n    tag_111:\n      mstore(0x20, 0x03)\n      0x00\n      swap1\n      dup2\n      mstore\n      0x40\n      swap1\n      keccak256\n      sload\n      dup2\n      jump\n        /* \"contracts/BUDS.sol\":13439:13547  function getCurrentMonth() public view returns (uint256) {... */\n    tag_25:\n      tag_48\n      tag_115\n      jump\t// in\n        /* \"contracts/BUDS.sol\":9212:9260  uint256 public constant NINETY_DAYS = 90 seconds */\n    tag_26:\n      tag_48\n        /* \"contracts/BUDS.sol\":9250:9260  90 seconds */\n      0x5a\n        /* \"contracts/BUDS.sol\":9212:9260  uint256 public constant NINETY_DAYS = 90 seconds */\n      dup2\n      jump\n        /* \"contracts/BUDS.sol\":9291:9320  address public lpTokenAddress */\n    tag_27:\n      sload(0x05)\n      tag_79\n      swap1\n      sub(shl(0xa0, 0x01), 0x01)\n      and\n      dup2\n      jump\n        /* \"contracts/BUDS.sol\":9327:9352  IERC20 public rewardToken */\n    tag_28:\n      sload(0x06)\n      tag_79\n      swap1\n      sub(shl(0xa0, 0x01), 0x01)\n      and\n      dup2\n      jump\n        /* \"contracts/BUDS.sol\":9504:9529  uint256 public applicants */\n    tag_29:\n      tag_48\n      sload(0x0a)\n      dup2\n      jump\n        /* \"contracts/BUDS.sol\":13591:16128  function harvestRewards() public {... */\n    tag_43:\n        /* \"contracts/BUDS.sol\":13709:13719  msg.sender */\n      caller\n        /* \"contracts/BUDS.sol\":13635:13661  uint256 timeSinceLastClaim */\n      0x00\n        /* \"contracts/BUDS.sol\":13695:13720  lastClaimTime[msg.sender] */\n      swap1\n      dup2\n      mstore\n      0x20\n      dup2\n      swap1\n      mstore\n      0x40\n      dup2\n      keccak256\n      sload\n        /* \"contracts/BUDS.sol\":13664:13720  block.timestamp -... */\n      tag_131\n      swap1\n        /* \"contracts/BUDS.sol\":13664:13679  block.timestamp */\n      timestamp\n        /* \"contracts/BUDS.sol\":13664:13720  block.timestamp -... */\n      tag_132\n      jump\t// in\n    tag_131:\n        /* \"contracts/BUDS.sol\":13806:13816  msg.sender */\n      caller\n        /* \"contracts/BUDS.sol\":13731:13755  uint256 timeSinceStaking */\n      0x00\n        /* \"contracts/BUDS.sol\":13789:13817  stakingStartTime[msg.sender] */\n      swap1\n      dup2\n      mstore\n        /* \"contracts/BUDS.sol\":13789:13805  stakingStartTime */\n      0x03\n        /* \"contracts/BUDS.sol\":13789:13817  stakingStartTime[msg.sender] */\n      0x20\n      mstore\n      0x40\n      dup2\n      keccak256\n      sload\n        /* \"contracts/BUDS.sol\":13635:13720  uint256 timeSinceLastClaim = block.timestamp -... */\n      swap2\n      swap3\n      pop\n        /* \"contracts/BUDS.sol\":13731:13755  uint256 timeSinceStaking */\n      swap1\n        /* \"contracts/BUDS.sol\":13758:13817  block.timestamp -... */\n      tag_133\n      swap1\n        /* \"contracts/BUDS.sol\":13758:13773  block.timestamp */\n      timestamp\n        /* \"contracts/BUDS.sol\":13758:13817  block.timestamp -... */\n      tag_132\n      jump\t// in\n    tag_133:\n        /* \"contracts/BUDS.sol\":13731:13817  uint256 timeSinceStaking = block.timestamp -... */\n      swap1\n      pop\n        /* \"contracts/BUDS.sol\":9098:9107  7 seconds */\n      0x07\n        /* \"contracts/BUDS.sol\":13852:13870  timeSinceLastClaim */\n      dup3\n        /* \"contracts/BUDS.sol\":13852:13896  timeSinceLastClaim >= MINIMUM_CLAIM_INTERVAL */\n      lt\n      iszero\n        /* \"contracts/BUDS.sol\":13830:13964  require(... */\n      tag_134\n      jumpi\n      mload(0x40)\n      shl(0xe5, 0x461bcd)\n      dup2\n      mstore\n        /* \"#utility.yul\":2351:2353   */\n      0x20\n        /* \"contracts/BUDS.sol\":13830:13964  require(... */\n      0x04\n      dup3\n      add\n        /* \"#utility.yul\":2333:2354   */\n      mstore\n        /* \"#utility.yul\":2390:2392   */\n      0x28\n        /* \"#utility.yul\":2370:2388   */\n      0x24\n      dup3\n      add\n        /* \"#utility.yul\":2363:2393   */\n      mstore\n        /* \"#utility.yul\":2429:2463   */\n      0x4d7573742077616974206174206c656173742037206461797320626574776565\n        /* \"#utility.yul\":2409:2427   */\n      0x44\n      dup3\n      add\n        /* \"#utility.yul\":2402:2464   */\n      mstore\n      shl(0xc0, 0x6e20636c61696d73)\n        /* \"#utility.yul\":2480:2498   */\n      0x64\n      dup3\n      add\n        /* \"#utility.yul\":2473:2511   */\n      mstore\n        /* \"#utility.yul\":2528:2547   */\n      0x84\n      add\n        /* \"contracts/BUDS.sol\":13830:13964  require(... */\n    tag_135:\n      mload(0x40)\n      dup1\n      swap2\n      sub\n      swap1\n      revert\n    tag_134:\n        /* \"contracts/BUDS.sol\":9250:9260  90 seconds */\n      0x5a\n        /* \"contracts/BUDS.sol\":13997:14013  timeSinceStaking */\n      dup2\n        /* \"contracts/BUDS.sol\":13997:14028  timeSinceStaking >= NINETY_DAYS */\n      lt\n      iszero\n        /* \"contracts/BUDS.sol\":13975:14094  require(... */\n      tag_137\n      jumpi\n      mload(0x40)\n      shl(0xe5, 0x461bcd)\n      dup2\n      mstore\n        /* \"#utility.yul\":2760:2762   */\n      0x20\n        /* \"contracts/BUDS.sol\":13975:14094  require(... */\n      0x04\n      dup3\n      add\n        /* \"#utility.yul\":2742:2763   */\n      mstore\n        /* \"#utility.yul\":2799:2801   */\n      0x26\n        /* \"#utility.yul\":2779:2797   */\n      0x24\n      dup3\n      add\n        /* \"#utility.yul\":2772:2802   */\n      mstore\n        /* \"#utility.yul\":2838:2872   */\n      0x43616e6e6f7420636c61696d206265666f72652039302064617973206f662073\n        /* \"#utility.yul\":2818:2836   */\n      0x44\n      dup3\n      add\n        /* \"#utility.yul\":2811:2873   */\n      mstore\n      shl(0xd0, 0x74616b696e67)\n        /* \"#utility.yul\":2889:2907   */\n      0x64\n      dup3\n      add\n        /* \"#utility.yul\":2882:2918   */\n      mstore\n        /* \"#utility.yul\":2935:2954   */\n      0x84\n      add\n        /* \"contracts/BUDS.sol\":13975:14094  require(... */\n      tag_135\n        /* \"#utility.yul\":2558:2960   */\n      jump\n        /* \"contracts/BUDS.sol\":13975:14094  require(... */\n    tag_137:\n        /* \"contracts/BUDS.sol\":14128:14138  msg.sender */\n      caller\n        /* \"contracts/BUDS.sol\":14142:14143  0 */\n      0x00\n        /* \"contracts/BUDS.sol\":14115:14139  stakedTokens[msg.sender] */\n      swap1\n      dup2\n      mstore\n        /* \"contracts/BUDS.sol\":14115:14127  stakedTokens */\n      0x01\n        /* \"contracts/BUDS.sol\":14115:14139  stakedTokens[msg.sender] */\n      0x20\n      mstore\n      0x40\n      swap1\n      keccak256\n      sload\n        /* \"contracts/BUDS.sol\":14107:14164  require(stakedTokens[msg.sender] > 0, \"No staked tokens\") */\n      tag_140\n      jumpi\n      mload(0x40)\n      shl(0xe5, 0x461bcd)\n      dup2\n      mstore\n        /* \"#utility.yul\":3167:3169   */\n      0x20\n        /* \"contracts/BUDS.sol\":14107:14164  require(stakedTokens[msg.sender] > 0, \"No staked tokens\") */\n      0x04\n      dup3\n      add\n        /* \"#utility.yul\":3149:3170   */\n      mstore\n        /* \"#utility.yul\":3206:3208   */\n      0x10\n        /* \"#utility.yul\":3186:3204   */\n      0x24\n      dup3\n      add\n        /* \"#utility.yul\":3179:3209   */\n      mstore\n      shl(0x80, 0x4e6f207374616b656420746f6b656e73)\n        /* \"#utility.yul\":3225:3243   */\n      0x44\n      dup3\n      add\n        /* \"#utility.yul\":3218:3264   */\n      mstore\n        /* \"#utility.yul\":3281:3299   */\n      0x64\n      add\n        /* \"contracts/BUDS.sol\":14107:14164  require(stakedTokens[msg.sender] > 0, \"No staked tokens\") */\n      tag_135\n        /* \"#utility.yul\":2965:3305   */\n      jump\n        /* \"contracts/BUDS.sol\":14107:14164  require(stakedTokens[msg.sender] > 0, \"No staked tokens\") */\n    tag_140:\n        /* \"contracts/BUDS.sol\":14248:14265  getCurrentMonth() */\n      tag_143\n        /* \"contracts/BUDS.sol\":14248:14263  getCurrentMonth */\n      tag_115\n        /* \"contracts/BUDS.sol\":14248:14265  getCurrentMonth() */\n      jump\t// in\n    tag_143:\n        /* \"contracts/BUDS.sol\":14232:14244  currentMonth */\n      sload(0x0d)\n        /* \"contracts/BUDS.sol\":14232:14265  currentMonth != getCurrentMonth() */\n      eq\n        /* \"contracts/BUDS.sol\":14228:14408  if (currentMonth != getCurrentMonth()) {... */\n      tag_144\n      jumpi\n        /* \"contracts/BUDS.sol\":14297:14314  getCurrentMonth() */\n      tag_145\n        /* \"contracts/BUDS.sol\":14297:14312  getCurrentMonth */\n      tag_115\n        /* \"contracts/BUDS.sol\":14297:14314  getCurrentMonth() */\n      jump\t// in\n    tag_145:\n        /* \"contracts/BUDS.sol\":14282:14294  currentMonth */\n      0x0d\n        /* \"contracts/BUDS.sol\":14282:14314  currentMonth = getCurrentMonth() */\n      sstore\n        /* \"contracts/BUDS.sol\":14378:14380  12 */\n      0x0c\n        /* \"contracts/BUDS.sol\":14351:14364  annualRewards */\n      0x12\n        /* \"contracts/BUDS.sol\":14351:14375  annualRewards[yearNow()] */\n      0x00\n        /* \"contracts/BUDS.sol\":14365:14374  yearNow() */\n      tag_146\n        /* \"contracts/BUDS.sol\":14365:14372  yearNow */\n      tag_147\n        /* \"contracts/BUDS.sol\":14365:14374  yearNow() */\n      jump\t// in\n    tag_146:\n        /* \"contracts/BUDS.sol\":14351:14375  annualRewards[yearNow()] */\n      dup2\n      mstore\n      0x20\n      add\n      swap1\n      dup2\n      mstore\n      0x20\n      add\n      0x00\n      keccak256\n      sload\n        /* \"contracts/BUDS.sol\":14351:14380  annualRewards[yearNow()] / 12 */\n      tag_148\n      swap2\n      swap1\n      tag_149\n      jump\t// in\n    tag_148:\n        /* \"contracts/BUDS.sol\":14329:14347  monthlyRewardLimit */\n      0x0f\n        /* \"contracts/BUDS.sol\":14329:14381  monthlyRewardLimit = (annualRewards[yearNow()] / 12) */\n      sstore\n        /* \"contracts/BUDS.sol\":14228:14408  if (currentMonth != getCurrentMonth()) {... */\n    tag_144:\n        /* \"contracts/BUDS.sol\":14450:14460  currentDay */\n      sload(0x0e)\n        /* \"contracts/BUDS.sol\":14422:14446  block.timestamp / 1 days */\n      tag_150\n        /* \"contracts/BUDS.sol\":14440:14446  1 days */\n      0x015180\n        /* \"contracts/BUDS.sol\":14422:14437  block.timestamp */\n      timestamp\n        /* \"contracts/BUDS.sol\":14422:14446  block.timestamp / 1 days */\n      tag_149\n      jump\t// in\n    tag_150:\n        /* \"contracts/BUDS.sol\":14422:14460  block.timestamp / 1 days != currentDay */\n      eq\n        /* \"contracts/BUDS.sol\":14418:14672  if (block.timestamp / 1 days != currentDay) {... */\n      tag_151\n      jumpi\n        /* \"contracts/BUDS.sol\":14490:14514  block.timestamp / 1 days */\n      tag_152\n        /* \"contracts/BUDS.sol\":14508:14514  1 days */\n      0x015180\n        /* \"contracts/BUDS.sol\":14490:14505  block.timestamp */\n      timestamp\n        /* \"contracts/BUDS.sol\":14490:14514  block.timestamp / 1 days */\n      tag_149\n      jump\t// in\n    tag_152:\n        /* \"contracts/BUDS.sol\":14477:14487  currentDay */\n      0x0e\n        /* \"contracts/BUDS.sol\":14477:14514  currentDay = block.timestamp / 1 days */\n      sstore\n        /* \"contracts/BUDS.sol\":14574:14576  30 */\n      0x1e\n        /* \"contracts/BUDS.sol\":14569:14571  12 */\n      0x0c\n        /* \"contracts/BUDS.sol\":14542:14555  annualRewards */\n      0x12\n        /* \"contracts/BUDS.sol\":14542:14566  annualRewards[yearNow()] */\n      0x00\n        /* \"contracts/BUDS.sol\":14556:14565  yearNow() */\n      tag_153\n        /* \"contracts/BUDS.sol\":14556:14563  yearNow */\n      tag_147\n        /* \"contracts/BUDS.sol\":14556:14565  yearNow() */\n      jump\t// in\n    tag_153:\n        /* \"contracts/BUDS.sol\":14542:14566  annualRewards[yearNow()] */\n      dup2\n      mstore\n      0x20\n      add\n      swap1\n      dup2\n      mstore\n      0x20\n      add\n      0x00\n      keccak256\n      sload\n        /* \"contracts/BUDS.sol\":14542:14571  annualRewards[yearNow()] / 12 */\n      tag_154\n      swap2\n      swap1\n      tag_149\n      jump\t// in\n    tag_154:\n        /* \"contracts/BUDS.sol\":14542:14576  annualRewards[yearNow()] / 12 / 30 */\n      tag_155\n      swap2\n      swap1\n      tag_149\n      jump\t// in\n    tag_155:\n        /* \"contracts/BUDS.sol\":14529:14539  dailyLimit */\n      0x10\n        /* \"contracts/BUDS.sol\":14529:14576  dailyLimit = annualRewards[yearNow()] / 12 / 30 */\n      sstore\n        /* \"contracts/BUDS.sol\":14632:14633  0 */\n      0x00\n        /* \"contracts/BUDS.sol\":14606:14629  rewardsDistributedToday */\n      0x11\n        /* \"contracts/BUDS.sol\":14606:14633  rewardsDistributedToday = 0 */\n      sstore\n        /* \"contracts/BUDS.sol\":14418:14672  if (block.timestamp / 1 days != currentDay) {... */\n    tag_151:\n        /* \"contracts/BUDS.sol\":14700:14702  66 */\n      0x42\n        /* \"contracts/BUDS.sol\":14688:14697  yearNow() */\n      tag_156\n        /* \"contracts/BUDS.sol\":14688:14695  yearNow */\n      tag_147\n        /* \"contracts/BUDS.sol\":14688:14697  yearNow() */\n      jump\t// in\n    tag_156:\n        /* \"contracts/BUDS.sol\":14688:14702  yearNow() > 66 */\n      gt\n        /* \"contracts/BUDS.sol\":14684:14772  if (yearNow() > 66) {... */\n      iszero\n      tag_157\n      jumpi\n        /* \"contracts/BUDS.sol\":14746:14760  44600 * 10**18 */\n      0x0971c556131295e00000\n        /* \"contracts/BUDS.sol\":14719:14732  annualRewards */\n      0x12\n        /* \"contracts/BUDS.sol\":14719:14743  annualRewards[yearNow()] */\n      0x00\n        /* \"contracts/BUDS.sol\":14733:14742  yearNow() */\n      tag_158\n        /* \"contracts/BUDS.sol\":14733:14740  yearNow */\n      tag_147\n        /* \"contracts/BUDS.sol\":14733:14742  yearNow() */\n      jump\t// in\n    tag_158:\n        /* \"contracts/BUDS.sol\":14719:14743  annualRewards[yearNow()] */\n      dup2\n      mstore\n      0x20\n      dup2\n      add\n      swap2\n      swap1\n      swap2\n      mstore\n      0x40\n      add\n      0x00\n      keccak256\n        /* \"contracts/BUDS.sol\":14719:14760  annualRewards[yearNow()] = 44600 * 10**18 */\n      sstore\n        /* \"contracts/BUDS.sol\":14684:14772  if (yearNow() > 66) {... */\n    tag_157:\n        /* \"contracts/BUDS.sol\":14894:14911  totalStakedTokens */\n      sload(0x09)\n        /* \"contracts/BUDS.sol\":14845:14855  msg.sender */\n      caller\n        /* \"contracts/BUDS.sol\":14782:14801  uint256 dailyReward */\n      0x00\n        /* \"contracts/BUDS.sol\":14832:14856  stakedTokens[msg.sender] */\n      swap1\n      dup2\n      mstore\n        /* \"contracts/BUDS.sol\":14832:14844  stakedTokens */\n      0x01\n        /* \"contracts/BUDS.sol\":14832:14856  stakedTokens[msg.sender] */\n      0x20\n      mstore\n      0x40\n      dup2\n      keccak256\n      sload\n        /* \"contracts/BUDS.sol\":14782:14801  uint256 dailyReward */\n      swap1\n      swap2\n        /* \"contracts/BUDS.sol\":14914:14917  365 */\n      0x016d\n      swap2\n        /* \"contracts/BUDS.sol\":14805:14818  annualRewards */\n      0x12\n        /* \"contracts/BUDS.sol\":14782:14801  uint256 dailyReward */\n      dup5\n        /* \"contracts/BUDS.sol\":14819:14828  yearNow() */\n      tag_159\n        /* \"contracts/BUDS.sol\":14819:14826  yearNow */\n      tag_147\n        /* \"contracts/BUDS.sol\":14819:14828  yearNow() */\n      jump\t// in\n    tag_159:\n        /* \"contracts/BUDS.sol\":14805:14829  annualRewards[yearNow()] */\n      dup2\n      mstore\n      0x20\n      add\n      swap1\n      dup2\n      mstore\n      0x20\n      add\n      0x00\n      keccak256\n      sload\n        /* \"contracts/BUDS.sol\":14805:14856  annualRewards[yearNow()] * stakedTokens[msg.sender] */\n      tag_160\n      swap2\n      swap1\n      tag_161\n      jump\t// in\n    tag_160:\n        /* \"contracts/BUDS.sol\":14804:14911  (annualRewards[yearNow()] * stakedTokens[msg.sender]) ... */\n      tag_162\n      swap2\n      swap1\n      tag_149\n      jump\t// in\n    tag_162:\n        /* \"contracts/BUDS.sol\":14804:14917  (annualRewards[yearNow()] * stakedTokens[msg.sender]) ... */\n      tag_163\n      swap2\n      swap1\n      tag_149\n      jump\t// in\n    tag_163:\n        /* \"contracts/BUDS.sol\":14782:14917  uint256 dailyReward = (annualRewards[yearNow()] * stakedTokens[msg.sender]) ... */\n      swap1\n      pop\n        /* \"contracts/BUDS.sol\":14928:14949  uint256 unclaimedDays */\n      0x00\n        /* \"contracts/BUDS.sol\":14952:15069  min(... */\n      tag_164\n        /* \"contracts/BUDS.sol\":14970:15013  timeSinceLastClaim / MINIMUM_CLAIM_INTERVAL */\n      tag_165\n        /* \"contracts/BUDS.sol\":9098:9107  7 seconds */\n      0x07\n        /* \"contracts/BUDS.sol\":14970:14988  timeSinceLastClaim */\n      dup7\n        /* \"contracts/BUDS.sol\":14970:15013  timeSinceLastClaim / MINIMUM_CLAIM_INTERVAL */\n      tag_149\n      jump\t// in\n    tag_165:\n        /* \"contracts/BUDS.sol\":15028:15058  timeSinceStaking / NINETY_DAYS */\n      tag_166\n        /* \"contracts/BUDS.sol\":9250:9260  90 seconds */\n      0x5a\n        /* \"contracts/BUDS.sol\":15028:15044  timeSinceStaking */\n      dup7\n        /* \"contracts/BUDS.sol\":15028:15058  timeSinceStaking / NINETY_DAYS */\n      tag_149\n      jump\t// in\n    tag_166:\n        /* \"contracts/BUDS.sol\":14952:14955  min */\n      tag_167\n        /* \"contracts/BUDS.sol\":14952:15069  min(... */\n      jump\t// in\n    tag_164:\n        /* \"contracts/BUDS.sol\":14928:15069  uint256 unclaimedDays = min(... */\n      swap1\n      pop\n        /* \"contracts/BUDS.sol\":15080:15105  uint256 accumulatedReward */\n      0x00\n        /* \"contracts/BUDS.sol\":15108:15135  dailyReward * unclaimedDays */\n      tag_168\n        /* \"contracts/BUDS.sol\":14928:15069  uint256 unclaimedDays = min(... */\n      dup3\n        /* \"contracts/BUDS.sol\":15108:15119  dailyReward */\n      dup5\n        /* \"contracts/BUDS.sol\":15108:15135  dailyReward * unclaimedDays */\n      tag_161\n      jump\t// in\n    tag_168:\n        /* \"contracts/BUDS.sol\":15165:15175  msg.sender */\n      caller\n        /* \"contracts/BUDS.sol\":15146:15176  accumulatedRewards[msg.sender] */\n      0x00\n      swap1\n      dup2\n      mstore\n        /* \"contracts/BUDS.sol\":15146:15164  accumulatedRewards */\n      0x02\n        /* \"contracts/BUDS.sol\":15146:15176  accumulatedRewards[msg.sender] */\n      0x20\n      mstore\n      0x40\n      dup2\n      keccak256\n        /* \"contracts/BUDS.sol\":15146:15196  accumulatedRewards[msg.sender] = accumulatedReward */\n      dup3\n      swap1\n      sstore\n        /* \"contracts/BUDS.sol\":15250:15273  rewardsDistributedToday */\n      sload(0x11)\n        /* \"contracts/BUDS.sol\":15237:15247  dailyLimit */\n      sload(0x10)\n        /* \"contracts/BUDS.sol\":15080:15135  uint256 accumulatedReward = dailyReward * unclaimedDays */\n      swap3\n      swap4\n      pop\n        /* \"contracts/BUDS.sol\":15146:15176  accumulatedRewards[msg.sender] */\n      swap1\n      swap2\n        /* \"contracts/BUDS.sol\":15237:15273  dailyLimit - rewardsDistributedToday */\n      tag_169\n      swap2\n        /* \"contracts/BUDS.sol\":15250:15273  rewardsDistributedToday */\n      swap1\n        /* \"contracts/BUDS.sol\":15237:15273  dailyLimit - rewardsDistributedToday */\n      tag_132\n      jump\t// in\n    tag_169:\n        /* \"contracts/BUDS.sol\":15207:15273  uint256 remainingDailyLimit = dailyLimit - rewardsDistributedToday */\n      swap1\n      pop\n        /* \"contracts/BUDS.sol\":15284:15307  uint256 claimableAmount */\n      0x00\n        /* \"contracts/BUDS.sol\":15310:15353  min(accumulatedReward, remainingDailyLimit) */\n      tag_170\n        /* \"contracts/BUDS.sol\":15314:15331  accumulatedReward */\n      dup4\n        /* \"contracts/BUDS.sol\":15333:15352  remainingDailyLimit */\n      dup4\n        /* \"contracts/BUDS.sol\":15310:15313  min */\n      tag_167\n        /* \"contracts/BUDS.sol\":15310:15353  min(accumulatedReward, remainingDailyLimit) */\n      jump\t// in\n    tag_170:\n        /* \"contracts/BUDS.sol\":15455:15472  totalStakedTokens */\n      sload(0x09)\n        /* \"contracts/BUDS.sol\":15427:15437  msg.sender */\n      caller\n        /* \"contracts/BUDS.sol\":15414:15438  stakedTokens[msg.sender] */\n      0x00\n      swap1\n      dup2\n      mstore\n        /* \"contracts/BUDS.sol\":15414:15426  stakedTokens */\n      0x01\n        /* \"contracts/BUDS.sol\":15414:15438  stakedTokens[msg.sender] */\n      0x20\n      mstore\n      0x40\n      swap1\n      keccak256\n      sload\n        /* \"contracts/BUDS.sol\":15284:15353  uint256 claimableAmount = min(accumulatedReward, remainingDailyLimit) */\n      swap2\n      swap3\n      pop\n        /* \"contracts/BUDS.sol\":15455:15472  totalStakedTokens */\n      swap1\n        /* \"contracts/BUDS.sol\":15396:15438  claimableAmount * stakedTokens[msg.sender] */\n      tag_171\n      swap1\n        /* \"contracts/BUDS.sol\":15284:15353  uint256 claimableAmount = min(accumulatedReward, remainingDailyLimit) */\n      dup4\n        /* \"contracts/BUDS.sol\":15396:15438  claimableAmount * stakedTokens[msg.sender] */\n      tag_161\n      jump\t// in\n    tag_171:\n        /* \"contracts/BUDS.sol\":15395:15472  (claimableAmount * stakedTokens[msg.sender]) /... */\n      tag_172\n      swap2\n      swap1\n      tag_149\n      jump\t// in\n    tag_172:\n        /* \"contracts/BUDS.sol\":15504:15514  msg.sender */\n      caller\n        /* \"contracts/BUDS.sol\":15485:15515  accumulatedRewards[msg.sender] */\n      0x00\n      swap1\n      dup2\n      mstore\n        /* \"contracts/BUDS.sol\":15485:15503  accumulatedRewards */\n      0x02\n        /* \"contracts/BUDS.sol\":15485:15515  accumulatedRewards[msg.sender] */\n      0x20\n      mstore\n      0x40\n      dup2\n      keccak256\n        /* \"contracts/BUDS.sol\":15485:15534  accumulatedRewards[msg.sender] -= claimableAmount */\n      dup1\n      sload\n        /* \"contracts/BUDS.sol\":15364:15472  claimableAmount =... */\n      swap3\n      swap4\n      pop\n      dup4\n      swap3\n        /* \"contracts/BUDS.sol\":15485:15515  accumulatedRewards[msg.sender] */\n      swap1\n      swap2\n      swap1\n        /* \"contracts/BUDS.sol\":15485:15534  accumulatedRewards[msg.sender] -= claimableAmount */\n      tag_173\n      swap1\n        /* \"contracts/BUDS.sol\":15364:15472  claimableAmount =... */\n      dup5\n      swap1\n        /* \"contracts/BUDS.sol\":15485:15534  accumulatedRewards[msg.sender] -= claimableAmount */\n      tag_132\n      jump\t// in\n    tag_173:\n      swap3\n      pop\n      pop\n      dup2\n      swap1\n      sstore\n      pop\n        /* \"contracts/BUDS.sol\":15572:15587  claimableAmount */\n      dup1\n        /* \"contracts/BUDS.sol\":15545:15568  totalDistributedRewards */\n      0x0c\n      0x00\n        /* \"contracts/BUDS.sol\":15545:15587  totalDistributedRewards += claimableAmount */\n      dup3\n      dup3\n      sload\n      tag_174\n      swap2\n      swap1\n      tag_175\n      jump\t// in\n    tag_174:\n      swap3\n      pop\n      pop\n      dup2\n      swap1\n      sstore\n      pop\n        /* \"contracts/BUDS.sol\":15625:15640  claimableAmount */\n      dup1\n        /* \"contracts/BUDS.sol\":15598:15621  rewardsDistributedToday */\n      0x11\n      0x00\n        /* \"contracts/BUDS.sol\":15598:15640  rewardsDistributedToday += claimableAmount */\n      dup3\n      dup3\n      sload\n      tag_176\n      swap2\n      swap1\n      tag_175\n      jump\t// in\n    tag_176:\n      swap1\n      swap2\n      sstore\n      pop\n      pop\n        /* \"contracts/BUDS.sol\":15661:15680  claimableAmount > 0 */\n      dup1\n        /* \"contracts/BUDS.sol\":15653:15705  require(claimableAmount > 0, \"No claimable rewards\") */\n      tag_177\n      jumpi\n      mload(0x40)\n      shl(0xe5, 0x461bcd)\n      dup2\n      mstore\n        /* \"#utility.yul\":4037:4039   */\n      0x20\n        /* \"contracts/BUDS.sol\":15653:15705  require(claimableAmount > 0, \"No claimable rewards\") */\n      0x04\n      dup3\n      add\n        /* \"#utility.yul\":4019:4040   */\n      mstore\n        /* \"#utility.yul\":4076:4078   */\n      0x14\n        /* \"#utility.yul\":4056:4074   */\n      0x24\n      dup3\n      add\n        /* \"#utility.yul\":4049:4079   */\n      mstore\n      shl(0x60, 0x4e6f20636c61696d61626c652072657761726473)\n        /* \"#utility.yul\":4095:4113   */\n      0x44\n      dup3\n      add\n        /* \"#utility.yul\":4088:4138   */\n      mstore\n        /* \"#utility.yul\":4155:4173   */\n      0x64\n      add\n        /* \"contracts/BUDS.sol\":15653:15705  require(claimableAmount > 0, \"No claimable rewards\") */\n      tag_135\n        /* \"#utility.yul\":3835:4179   */\n      jump\n        /* \"contracts/BUDS.sol\":15653:15705  require(claimableAmount > 0, \"No claimable rewards\") */\n    tag_177:\n        /* \"contracts/BUDS.sol\":15716:15738  uint256 marketingShare */\n      0x00\n        /* \"contracts/BUDS.sol\":15778:15783  10000 */\n      0x2710\n        /* \"contracts/BUDS.sol\":15760:15774  marketingFee() */\n      tag_180\n        /* \"contracts/BUDS.sol\":15760:15772  marketingFee */\n      tag_181\n        /* \"contracts/BUDS.sol\":15760:15774  marketingFee() */\n      jump\t// in\n    tag_180:\n        /* \"contracts/BUDS.sol\":15742:15774  claimableAmount * marketingFee() */\n      tag_182\n      swap1\n        /* \"contracts/BUDS.sol\":15742:15757  claimableAmount */\n      dup5\n        /* \"contracts/BUDS.sol\":15742:15774  claimableAmount * marketingFee() */\n      tag_161\n      jump\t// in\n    tag_182:\n        /* \"contracts/BUDS.sol\":15741:15783  (claimableAmount * marketingFee()) / 10000 */\n      tag_183\n      swap2\n      swap1\n      tag_149\n      jump\t// in\n    tag_183:\n        /* \"contracts/BUDS.sol\":15716:15783  uint256 marketingShare = (claimableAmount * marketingFee()) / 10000 */\n      swap1\n      pop\n        /* \"contracts/BUDS.sol\":15794:15827  claimableAmount -= marketingShare */\n      tag_184\n        /* \"contracts/BUDS.sol\":15716:15783  uint256 marketingShare = (claimableAmount * marketingFee()) / 10000 */\n      dup2\n        /* \"contracts/BUDS.sol\":15794:15827  claimableAmount -= marketingShare */\n      dup4\n      tag_132\n      jump\t// in\n    tag_184:\n      swap2\n      pop\n        /* \"contracts/BUDS.sol\":15842:15861  claimableAmount > 0 */\n      dup2\n      iszero\n        /* \"contracts/BUDS.sol\":15838:16007  if (claimableAmount > 0) {... */\n      tag_185\n      jumpi\n        /* \"contracts/BUDS.sol\":15878:15889  rewardToken */\n      sload(0x06)\n        /* \"contracts/BUDS.sol\":15878:15927  rewardToken.transfer(msg.sender, claimableAmount) */\n      mload(0x40)\n      shl(0xe0, 0xa9059cbb)\n      dup2\n      mstore\n        /* \"contracts/BUDS.sol\":15899:15909  msg.sender */\n      caller\n        /* \"contracts/BUDS.sol\":15878:15927  rewardToken.transfer(msg.sender, claimableAmount) */\n      0x04\n      dup3\n      add\n        /* \"#utility.yul\":4358:4409   */\n      mstore\n        /* \"#utility.yul\":4425:4443   */\n      0x24\n      dup2\n      add\n        /* \"#utility.yul\":4418:4452   */\n      dup5\n      swap1\n      mstore\n      sub(shl(0xa0, 0x01), 0x01)\n        /* \"contracts/BUDS.sol\":15878:15889  rewardToken */\n      swap1\n      swap2\n      and\n      swap1\n        /* \"contracts/BUDS.sol\":15878:15898  rewardToken.transfer */\n      0xa9059cbb\n      swap1\n        /* \"#utility.yul\":4331:4349   */\n      0x44\n      add\n        /* \"contracts/BUDS.sol\":15878:15927  rewardToken.transfer(msg.sender, claimableAmount) */\n      0x20\n      mload(0x40)\n      dup1\n      dup4\n      sub\n      dup2\n      0x00\n      dup8\n      gas\n      call\n      iszero\n      dup1\n      iszero\n      tag_189\n      jumpi\n      returndatasize\n      0x00\n      dup1\n      returndatacopy\n      revert(0x00, returndatasize)\n    tag_189:\n      pop\n      pop\n      pop\n      pop\n      mload(0x40)\n      returndatasize\n      not(0x1f)\n      0x1f\n      dup3\n      add\n      and\n      dup3\n      add\n      dup1\n      0x40\n      mstore\n      pop\n      dup2\n      add\n      swap1\n      tag_190\n      swap2\n      swap1\n      tag_191\n      jump\t// in\n    tag_190:\n      pop\n        /* \"contracts/BUDS.sol\":15942:15953  rewardToken */\n      sload(0x06)\n        /* \"contracts/BUDS.sol\":15963:15978  marketingWallet */\n      sload(0x08)\n        /* \"contracts/BUDS.sol\":15942:15995  rewardToken.transfer(marketingWallet, marketingShare) */\n      mload(0x40)\n      shl(0xe0, 0xa9059cbb)\n      dup2\n      mstore\n      sub(shl(0xa0, 0x01), 0x01)\n        /* \"contracts/BUDS.sol\":15963:15978  marketingWallet */\n      swap2\n      dup3\n      and\n        /* \"contracts/BUDS.sol\":15942:15995  rewardToken.transfer(marketingWallet, marketingShare) */\n      0x04\n      dup3\n      add\n        /* \"#utility.yul\":4358:4409   */\n      mstore\n        /* \"#utility.yul\":4425:4443   */\n      0x24\n      dup2\n      add\n        /* \"#utility.yul\":4418:4452   */\n      dup5\n      swap1\n      mstore\n        /* \"contracts/BUDS.sol\":15942:15953  rewardToken */\n      swap2\n      and\n      swap1\n        /* \"contracts/BUDS.sol\":15942:15962  rewardToken.transfer */\n      0xa9059cbb\n      swap1\n        /* \"#utility.yul\":4331:4349   */\n      0x44\n      add\n        /* \"contracts/BUDS.sol\":15942:15995  rewardToken.transfer(marketingWallet, marketingShare) */\n      0x20\n      mload(0x40)\n      dup1\n      dup4\n      sub\n      dup2\n      0x00\n      dup8\n      gas\n      call\n      iszero\n      dup1\n      iszero\n      tag_194\n      jumpi\n      returndatasize\n      0x00\n      dup1\n      returndatacopy\n      revert(0x00, returndatasize)\n    tag_194:\n      pop\n      pop\n      pop\n      pop\n      mload(0x40)\n      returndatasize\n      not(0x1f)\n      0x1f\n      dup3\n      add\n      and\n      dup3\n      add\n      dup1\n      0x40\n      mstore\n      pop\n      dup2\n      add\n      swap1\n      tag_195\n      swap2\n      swap1\n      tag_191\n      jump\t// in\n    tag_195:\n      pop\n        /* \"contracts/BUDS.sol\":15838:16007  if (claimableAmount > 0) {... */\n    tag_185:\n        /* \"contracts/BUDS.sol\":16031:16041  msg.sender */\n      caller\n        /* \"contracts/BUDS.sol\":16017:16030  lastClaimTime */\n      0x00\n        /* \"contracts/BUDS.sol\":16017:16042  lastClaimTime[msg.sender] */\n      dup2\n      dup2\n      mstore\n      0x20\n      dup2\n      dup2\n      mstore\n      0x40\n      swap2\n      dup3\n      swap1\n      keccak256\n        /* \"contracts/BUDS.sol\":16045:16060  block.timestamp */\n      timestamp\n        /* \"contracts/BUDS.sol\":16017:16060  lastClaimTime[msg.sender] = block.timestamp */\n      swap1\n      sstore\n        /* \"contracts/BUDS.sol\":16076:16120  RewardHarvested(msg.sender, claimableAmount) */\n      swap1\n      mload\n        /* \"#utility.yul\":906:931   */\n      dup5\n      dup2\n      mstore\n        /* \"contracts/BUDS.sol\":16076:16120  RewardHarvested(msg.sender, claimableAmount) */\n      0xa0703c548e4f3579a5b862677f6e9a97ac2d85326ddb959deb9b37a802253232\n      swap2\n        /* \"#utility.yul\":879:897   */\n      add\n        /* \"contracts/BUDS.sol\":16076:16120  RewardHarvested(msg.sender, claimableAmount) */\n      mload(0x40)\n      dup1\n      swap2\n      sub\n      swap1\n      log2\n        /* \"contracts/BUDS.sol\":13624:16128  {... */\n      pop\n      pop\n      pop\n      pop\n      pop\n      pop\n      pop\n      pop\n        /* \"contracts/BUDS.sol\":13591:16128  function harvestRewards() public {... */\n      jump\t// out\n        /* \"contracts/BUDS.sol\":11281:12098  function lockLP(uint256 amount) public {... */\n    tag_47:\n        /* \"contracts/BUDS.sol\":11331:11349  uint256 usdtAmount */\n      0x00\n        /* \"contracts/BUDS.sol\":11352:11385  getUSDValueOfLPTokens(msg.sender) */\n      tag_198\n        /* \"contracts/BUDS.sol\":11374:11384  msg.sender */\n      caller\n        /* \"contracts/BUDS.sol\":11352:11373  getUSDValueOfLPTokens */\n      tag_199\n        /* \"contracts/BUDS.sol\":11352:11385  getUSDValueOfLPTokens(msg.sender) */\n      jump\t// in\n    tag_198:\n        /* \"contracts/BUDS.sol\":11331:11385  uint256 usdtAmount = getUSDValueOfLPTokens(msg.sender) */\n      swap1\n      pop\n        /* \"contracts/BUDS.sol\":11493:11502  1 * 10**6 */\n      0x0f4240\n        /* \"contracts/BUDS.sol\":11479:11489  usdtAmount */\n      dup2\n        /* \"contracts/BUDS.sol\":11479:11502  usdtAmount >= 1 * 10**6 */\n      lt\n      iszero\n        /* \"contracts/BUDS.sol\":11471:11531  require(usdtAmount >= 1 * 10**6, \"insuffient pooled Amount\") */\n      tag_200\n      jumpi\n      mload(0x40)\n      shl(0xe5, 0x461bcd)\n      dup2\n      mstore\n        /* \"#utility.yul\":4947:4949   */\n      0x20\n        /* \"contracts/BUDS.sol\":11471:11531  require(usdtAmount >= 1 * 10**6, \"insuffient pooled Amount\") */\n      0x04\n      dup3\n      add\n        /* \"#utility.yul\":4929:4950   */\n      mstore\n        /* \"#utility.yul\":4986:4988   */\n      0x18\n        /* \"#utility.yul\":4966:4984   */\n      0x24\n      dup3\n      add\n        /* \"#utility.yul\":4959:4989   */\n      mstore\n        /* \"#utility.yul\":5025:5051   */\n      0x696e7375666669656e7420706f6f6c656420416d6f756e740000000000000000\n        /* \"#utility.yul\":5005:5023   */\n      0x44\n      dup3\n      add\n        /* \"#utility.yul\":4998:5052   */\n      mstore\n        /* \"#utility.yul\":5069:5087   */\n      0x64\n      add\n        /* \"contracts/BUDS.sol\":11471:11531  require(usdtAmount >= 1 * 10**6, \"insuffient pooled Amount\") */\n      tag_135\n        /* \"#utility.yul\":4745:5093   */\n      jump\n        /* \"contracts/BUDS.sol\":11471:11531  require(usdtAmount >= 1 * 10**6, \"insuffient pooled Amount\") */\n    tag_200:\n        /* \"contracts/BUDS.sol\":11573:11587  lpTokenAddress */\n      sload(0x05)\n        /* \"contracts/BUDS.sol\":11566:11702  IERC20(lpTokenAddress).transferFrom(... */\n      mload(0x40)\n      shl(0xe0, 0x23b872dd)\n      dup2\n      mstore\n        /* \"contracts/BUDS.sol\":11620:11630  msg.sender */\n      caller\n        /* \"contracts/BUDS.sol\":11566:11702  IERC20(lpTokenAddress).transferFrom(... */\n      0x04\n      dup3\n      add\n        /* \"#utility.yul\":5338:5372   */\n      mstore\n        /* \"contracts/BUDS.sol\":11657:11661  this */\n      address\n        /* \"#utility.yul\":5388:5406   */\n      0x24\n      dup3\n      add\n        /* \"#utility.yul\":5381:5424   */\n      mstore\n        /* \"#utility.yul\":5440:5458   */\n      0x44\n      dup2\n      add\n        /* \"#utility.yul\":5433:5467   */\n      dup5\n      swap1\n      mstore\n      sub(shl(0xa0, 0x01), 0x01)\n        /* \"contracts/BUDS.sol\":11573:11587  lpTokenAddress */\n      swap1\n      swap2\n      and\n      swap1\n        /* \"contracts/BUDS.sol\":11566:11601  IERC20(lpTokenAddress).transferFrom */\n      0x23b872dd\n      swap1\n        /* \"#utility.yul\":5273:5291   */\n      0x64\n      add\n        /* \"contracts/BUDS.sol\":11566:11702  IERC20(lpTokenAddress).transferFrom(... */\n      0x20\n      mload(0x40)\n      dup1\n      dup4\n      sub\n      dup2\n      0x00\n      dup8\n      gas\n      call\n      iszero\n      dup1\n      iszero\n      tag_206\n      jumpi\n      returndatasize\n      0x00\n      dup1\n      returndatacopy\n      revert(0x00, returndatasize)\n    tag_206:\n      pop\n      pop\n      pop\n      pop\n      mload(0x40)\n      returndatasize\n      not(0x1f)\n      0x1f\n      dup3\n      add\n      and\n      dup3\n      add\n      dup1\n      0x40\n      mstore\n      pop\n      dup2\n      add\n      swap1\n      tag_207\n      swap2\n      swap1\n      tag_191\n      jump\t// in\n    tag_207:\n        /* \"contracts/BUDS.sol\":11544:11754  require(... */\n      tag_208\n      jumpi\n      mload(0x40)\n      shl(0xe5, 0x461bcd)\n      dup2\n      mstore\n        /* \"#utility.yul\":5680:5682   */\n      0x20\n        /* \"contracts/BUDS.sol\":11544:11754  require(... */\n      0x04\n      dup3\n      add\n        /* \"#utility.yul\":5662:5683   */\n      mstore\n        /* \"#utility.yul\":5719:5721   */\n      0x18\n        /* \"#utility.yul\":5699:5717   */\n      0x24\n      dup3\n      add\n        /* \"#utility.yul\":5692:5722   */\n      mstore\n      shl(0x42, 0x1314081d1bdad95b881d1c985b9cd9995c8819985a5b1959)\n        /* \"#utility.yul\":5738:5756   */\n      0x44\n      dup3\n      add\n        /* \"#utility.yul\":5731:5785   */\n      mstore\n        /* \"#utility.yul\":5802:5820   */\n      0x64\n      add\n        /* \"contracts/BUDS.sol\":11544:11754  require(... */\n      tag_135\n        /* \"#utility.yul\":5478:5826   */\n      jump\n        /* \"contracts/BUDS.sol\":11544:11754  require(... */\n    tag_208:\n        /* \"contracts/BUDS.sol\":11765:11781  uint256 lockTime */\n      0x00\n        /* \"contracts/BUDS.sol\":11784:11813  block.timestamp + NINETY_DAYS */\n      tag_211\n        /* \"contracts/BUDS.sol\":9250:9260  90 seconds */\n      0x5a\n        /* \"contracts/BUDS.sol\":11784:11799  block.timestamp */\n      timestamp\n        /* \"contracts/BUDS.sol\":11784:11813  block.timestamp + NINETY_DAYS */\n      tag_175\n      jump\t// in\n    tag_211:\n        /* \"contracts/BUDS.sol\":11841:11851  msg.sender */\n      caller\n        /* \"contracts/BUDS.sol\":11824:11852  stakingStartTime[msg.sender] */\n      0x00\n      dup2\n      dup2\n      mstore\n        /* \"contracts/BUDS.sol\":11824:11840  stakingStartTime */\n      0x03\n        /* \"contracts/BUDS.sol\":11824:11852  stakingStartTime[msg.sender] */\n      0x20\n      swap1\n      dup2\n      mstore\n      0x40\n      dup1\n      dup4\n      keccak256\n        /* \"contracts/BUDS.sol\":11855:11870  block.timestamp */\n      timestamp\n        /* \"contracts/BUDS.sol\":11824:11870  stakingStartTime[msg.sender] = block.timestamp */\n      swap1\n      sstore\n        /* \"contracts/BUDS.sol\":11904:11930  LockInfo(amount, lockTime) */\n      dup1\n      mload\n      dup1\n      dup3\n      add\n      dup3\n      mstore\n      dup9\n      dup2\n      mstore\n      dup1\n      dup4\n      add\n      dup7\n      dup2\n      mstore\n        /* \"contracts/BUDS.sol\":11881:11901  lockInfo[msg.sender] */\n      swap5\n      dup5\n      mstore\n        /* \"contracts/BUDS.sol\":11881:11889  lockInfo */\n      0x13\n        /* \"contracts/BUDS.sol\":11881:11901  lockInfo[msg.sender] */\n      swap1\n      swap3\n      mstore\n      dup3\n      keccak256\n        /* \"contracts/BUDS.sol\":11881:11930  lockInfo[msg.sender] = LockInfo(amount, lockTime) */\n      swap1\n      mload\n      dup2\n      sstore\n      swap2\n      mload\n      0x01\n      swap1\n      swap3\n      add\n      swap2\n      swap1\n      swap2\n      sstore\n        /* \"contracts/BUDS.sol\":11974:11991  totalStakedTokens */\n      0x09\n        /* \"contracts/BUDS.sol\":11974:12001  totalStakedTokens += amount */\n      dup1\n      sload\n        /* \"contracts/BUDS.sol\":11765:11813  uint256 lockTime = block.timestamp + NINETY_DAYS */\n      swap3\n      swap4\n      pop\n        /* \"contracts/BUDS.sol\":11913:11919  amount */\n      dup6\n      swap3\n        /* \"contracts/BUDS.sol\":11974:11991  totalStakedTokens */\n      swap1\n      swap2\n        /* \"contracts/BUDS.sol\":11824:11852  stakingStartTime[msg.sender] */\n      swap1\n        /* \"contracts/BUDS.sol\":11974:12001  totalStakedTokens += amount */\n      tag_212\n      swap1\n        /* \"contracts/BUDS.sol\":11913:11919  amount */\n      dup5\n      swap1\n        /* \"contracts/BUDS.sol\":11974:12001  totalStakedTokens += amount */\n      tag_175\n      jump\t// in\n    tag_212:\n      swap1\n      swap2\n      sstore\n      pop\n      pop\n        /* \"contracts/BUDS.sol\":12025:12035  msg.sender */\n      caller\n        /* \"contracts/BUDS.sol\":12012:12036  stakedTokens[msg.sender] */\n      0x00\n      swap1\n      dup2\n      mstore\n        /* \"contracts/BUDS.sol\":12012:12024  stakedTokens */\n      0x01\n        /* \"contracts/BUDS.sol\":12012:12036  stakedTokens[msg.sender] */\n      0x20\n      mstore\n      0x40\n      dup2\n      keccak256\n        /* \"contracts/BUDS.sol\":12012:12046  stakedTokens[msg.sender] += amount */\n      dup1\n      sload\n        /* \"contracts/BUDS.sol\":12040:12046  amount */\n      dup6\n      swap3\n        /* \"contracts/BUDS.sol\":12012:12036  stakedTokens[msg.sender] */\n      swap1\n        /* \"contracts/BUDS.sol\":12012:12046  stakedTokens[msg.sender] += amount */\n      tag_213\n      swap1\n        /* \"contracts/BUDS.sol\":12040:12046  amount */\n      dup5\n      swap1\n        /* \"contracts/BUDS.sol\":12012:12046  stakedTokens[msg.sender] += amount */\n      tag_175\n      jump\t// in\n    tag_213:\n      swap1\n      swap2\n      sstore\n      pop\n      pop\n        /* \"contracts/BUDS.sol\":12062:12090  LockedLP(msg.sender, amount) */\n      mload(0x40)\n        /* \"#utility.yul\":906:931   */\n      dup4\n      dup2\n      mstore\n        /* \"contracts/BUDS.sol\":12071:12081  msg.sender */\n      caller\n      swap1\n        /* \"contracts/BUDS.sol\":12062:12090  LockedLP(msg.sender, amount) */\n      0xe1954443838ef603b0d4c78380e8ce8fa0cbd3126aafb585e9072cf90185fa58\n      swap1\n        /* \"#utility.yul\":894:896   */\n      0x20\n        /* \"#utility.yul\":879:897   */\n      add\n        /* \"contracts/BUDS.sol\":12062:12090  LockedLP(msg.sender, amount) */\n      mload(0x40)\n      dup1\n      swap2\n      sub\n      swap1\n      log2\n        /* \"contracts/BUDS.sol\":11320:12098  {... */\n      pop\n      pop\n        /* \"contracts/BUDS.sol\":11281:12098  function lockLP(uint256 amount) public {... */\n      pop\n      jump\t// out\n        /* \"contracts/BUDS.sol\":16136:17059  function getUnclaimedRewards(address user) external view returns (uint256) {... */\n    tag_64:\n        /* \"contracts/BUDS.sol\":16296:16306  msg.sender */\n      caller\n        /* \"contracts/BUDS.sol\":16202:16209  uint256 */\n      0x00\n        /* \"contracts/BUDS.sol\":16282:16307  lastClaimTime[msg.sender] */\n      swap1\n      dup2\n      mstore\n      0x20\n      dup2\n      swap1\n      mstore\n      0x40\n      dup2\n      keccak256\n      sload\n        /* \"contracts/BUDS.sol\":16202:16209  uint256 */\n      dup2\n      swap1\n        /* \"contracts/BUDS.sol\":16251:16307  block.timestamp -... */\n      tag_216\n      swap1\n        /* \"contracts/BUDS.sol\":16251:16266  block.timestamp */\n      timestamp\n        /* \"contracts/BUDS.sol\":16251:16307  block.timestamp -... */\n      tag_132\n      jump\t// in\n    tag_216:\n        /* \"contracts/BUDS.sol\":16393:16403  msg.sender */\n      caller\n        /* \"contracts/BUDS.sol\":16318:16342  uint256 timeSinceStaking */\n      0x00\n        /* \"contracts/BUDS.sol\":16376:16404  stakingStartTime[msg.sender] */\n      swap1\n      dup2\n      mstore\n        /* \"contracts/BUDS.sol\":16376:16392  stakingStartTime */\n      0x03\n        /* \"contracts/BUDS.sol\":16376:16404  stakingStartTime[msg.sender] */\n      0x20\n      mstore\n      0x40\n      dup2\n      keccak256\n      sload\n        /* \"contracts/BUDS.sol\":16222:16307  uint256 timeSinceLastClaim = block.timestamp -... */\n      swap2\n      swap3\n      pop\n        /* \"contracts/BUDS.sol\":16318:16342  uint256 timeSinceStaking */\n      swap1\n        /* \"contracts/BUDS.sol\":16345:16404  block.timestamp -... */\n      tag_217\n      swap1\n        /* \"contracts/BUDS.sol\":16345:16360  block.timestamp */\n      timestamp\n        /* \"contracts/BUDS.sol\":16345:16404  block.timestamp -... */\n      tag_132\n      jump\t// in\n    tag_217:\n        /* \"contracts/BUDS.sol\":16318:16404  uint256 timeSinceStaking = block.timestamp -... */\n      swap1\n      pop\n        /* \"contracts/BUDS.sol\":9098:9107  7 seconds */\n      0x07\n        /* \"contracts/BUDS.sol\":16435:16453  timeSinceLastClaim */\n      dup3\n        /* \"contracts/BUDS.sol\":16435:16478  timeSinceLastClaim < MINIMUM_CLAIM_INTERVAL */\n      lt\n        /* \"contracts/BUDS.sol\":16435:16525  timeSinceLastClaim < MINIMUM_CLAIM_INTERVAL ||... */\n      dup1\n      tag_218\n      jumpi\n      pop\n        /* \"contracts/BUDS.sol\":9250:9260  90 seconds */\n      0x5a\n        /* \"contracts/BUDS.sol\":16495:16511  timeSinceStaking */\n      dup2\n        /* \"contracts/BUDS.sol\":16495:16525  timeSinceStaking < NINETY_DAYS */\n      lt\n        /* \"contracts/BUDS.sol\":16435:16525  timeSinceLastClaim < MINIMUM_CLAIM_INTERVAL ||... */\n    tag_218:\n        /* \"contracts/BUDS.sol\":16417:16653  if (... */\n      iszero\n      tag_219\n      jumpi\n      pop\n        /* \"contracts/BUDS.sol\":16640:16641  0 */\n      0x00\n      swap4\n        /* \"contracts/BUDS.sol\":16136:17059  function getUnclaimedRewards(address user) external view returns (uint256) {... */\n      swap3\n      pop\n      pop\n      pop\n      jump\t// out\n        /* \"contracts/BUDS.sol\":16417:16653  if (... */\n    tag_219:\n        /* \"contracts/BUDS.sol\":16665:16686  uint256 unclaimedDays */\n      0x00\n        /* \"contracts/BUDS.sol\":16689:16806  min(... */\n      tag_220\n        /* \"contracts/BUDS.sol\":16707:16750  timeSinceLastClaim / MINIMUM_CLAIM_INTERVAL */\n      tag_221\n        /* \"contracts/BUDS.sol\":9098:9107  7 seconds */\n      0x07\n        /* \"contracts/BUDS.sol\":16707:16725  timeSinceLastClaim */\n      dup6\n        /* \"contracts/BUDS.sol\":16707:16750  timeSinceLastClaim / MINIMUM_CLAIM_INTERVAL */\n      tag_149\n      jump\t// in\n    tag_221:\n        /* \"contracts/BUDS.sol\":16765:16795  timeSinceStaking / NINETY_DAYS */\n      tag_166\n        /* \"contracts/BUDS.sol\":9250:9260  90 seconds */\n      0x5a\n        /* \"contracts/BUDS.sol\":16765:16781  timeSinceStaking */\n      dup6\n        /* \"contracts/BUDS.sol\":16765:16795  timeSinceStaking / NINETY_DAYS */\n      tag_149\n      jump\t// in\n        /* \"contracts/BUDS.sol\":16689:16806  min(... */\n    tag_220:\n        /* \"contracts/BUDS.sol\":16925:16942  totalStakedTokens */\n      sload(0x09)\n      sub(shl(0xa0, 0x01), 0x01)\n        /* \"contracts/BUDS.sol\":16869:16887  stakedTokens[user] */\n      dup8\n      and\n        /* \"contracts/BUDS.sol\":16819:16838  uint256 dailyReward */\n      0x00\n        /* \"contracts/BUDS.sol\":16869:16887  stakedTokens[user] */\n      swap1\n      dup2\n      mstore\n        /* \"contracts/BUDS.sol\":16869:16881  stakedTokens */\n      0x01\n        /* \"contracts/BUDS.sol\":16869:16887  stakedTokens[user] */\n      0x20\n      mstore\n      0x40\n      dup2\n      keccak256\n      sload\n        /* \"contracts/BUDS.sol\":16665:16806  uint256 unclaimedDays = min(... */\n      swap3\n      swap4\n      pop\n        /* \"contracts/BUDS.sol\":16819:16838  uint256 dailyReward */\n      swap2\n        /* \"contracts/BUDS.sol\":16945:16948  365 */\n      0x016d\n      swap2\n        /* \"contracts/BUDS.sol\":16925:16942  totalStakedTokens */\n      swap1\n        /* \"contracts/BUDS.sol\":16842:16855  annualRewards */\n      0x12\n        /* \"contracts/BUDS.sol\":16819:16838  uint256 dailyReward */\n      dup5\n        /* \"contracts/BUDS.sol\":16856:16865  yearNow() */\n      tag_223\n        /* \"contracts/BUDS.sol\":16856:16863  yearNow */\n      tag_147\n        /* \"contracts/BUDS.sol\":16856:16865  yearNow() */\n      jump\t// in\n    tag_223:\n        /* \"contracts/BUDS.sol\":16842:16866  annualRewards[yearNow()] */\n      dup2\n      mstore\n      0x20\n      add\n      swap1\n      dup2\n      mstore\n      0x20\n      add\n      0x00\n      keccak256\n      sload\n        /* \"contracts/BUDS.sol\":16842:16887  annualRewards[yearNow()] * stakedTokens[user] */\n      tag_224\n      swap2\n      swap1\n      tag_161\n      jump\t// in\n    tag_224:\n        /* \"contracts/BUDS.sol\":16841:16942  (annualRewards[yearNow()] * stakedTokens[user]) ... */\n      tag_225\n      swap2\n      swap1\n      tag_149\n      jump\t// in\n    tag_225:\n        /* \"contracts/BUDS.sol\":16841:16948  (annualRewards[yearNow()] * stakedTokens[user]) ... */\n      tag_226\n      swap2\n      swap1\n      tag_149\n      jump\t// in\n    tag_226:\n        /* \"contracts/BUDS.sol\":16819:16948  uint256 dailyReward = (annualRewards[yearNow()] * stakedTokens[user]) ... */\n      swap1\n      pop\n        /* \"contracts/BUDS.sol\":16959:16984  uint256 accumulatedReward */\n      0x00\n        /* \"contracts/BUDS.sol\":16987:17014  dailyReward * unclaimedDays */\n      tag_227\n        /* \"contracts/BUDS.sol\":17001:17014  unclaimedDays */\n      dup4\n        /* \"contracts/BUDS.sol\":16819:16948  uint256 dailyReward = (annualRewards[yearNow()] * stakedTokens[user]) ... */\n      dup4\n        /* \"contracts/BUDS.sol\":16987:17014  dailyReward * unclaimedDays */\n      tag_161\n      jump\t// in\n    tag_227:\n        /* \"contracts/BUDS.sol\":16959:17014  uint256 accumulatedReward = dailyReward * unclaimedDays */\n      swap8\n        /* \"contracts/BUDS.sol\":16136:17059  function getUnclaimedRewards(address user) external view returns (uint256) {... */\n      swap7\n      pop\n      pop\n      pop\n      pop\n      pop\n      pop\n      pop\n      jump\t// out\n        /* \"contracts/BUDS.sol\":17155:17329  function withdrawExcess(address token, uint256 amount) external {... */\n    tag_74:\n        /* \"contracts/BUDS.sol\":17252:17257  owner */\n      and(sub(shl(0xa0, 0x01), 0x01), sload(0x07))\n        /* \"contracts/BUDS.sol\":17238:17248  msg.sender */\n      caller\n        /* \"contracts/BUDS.sol\":17238:17257  msg.sender == owner */\n      eq\n        /* \"contracts/BUDS.sol\":17230:17273  require(msg.sender == owner, \"not Allowed\") */\n      tag_229\n      jumpi\n      mload(0x40)\n      shl(0xe5, 0x461bcd)\n      dup2\n      mstore\n        /* \"#utility.yul\":6033:6035   */\n      0x20\n        /* \"contracts/BUDS.sol\":17230:17273  require(msg.sender == owner, \"not Allowed\") */\n      0x04\n      dup3\n      add\n        /* \"#utility.yul\":6015:6036   */\n      mstore\n        /* \"#utility.yul\":6072:6074   */\n      0x0b\n        /* \"#utility.yul\":6052:6070   */\n      0x24\n      dup3\n      add\n        /* \"#utility.yul\":6045:6075   */\n      mstore\n      shl(0xaa, 0x1b9bdd08105b1b1bddd959)\n        /* \"#utility.yul\":6091:6109   */\n      0x44\n      dup3\n      add\n        /* \"#utility.yul\":6084:6125   */\n      mstore\n        /* \"#utility.yul\":6142:6160   */\n      0x64\n      add\n        /* \"contracts/BUDS.sol\":17230:17273  require(msg.sender == owner, \"not Allowed\") */\n      tag_135\n        /* \"#utility.yul\":5831:6166   */\n      jump\n        /* \"contracts/BUDS.sol\":17230:17273  require(msg.sender == owner, \"not Allowed\") */\n    tag_229:\n        /* \"contracts/BUDS.sol\":17307:17312  owner */\n      sload(0x07)\n        /* \"contracts/BUDS.sol\":17284:17321  IERC20(token).transfer(owner, amount) */\n      mload(0x40)\n      shl(0xe0, 0xa9059cbb)\n      dup2\n      mstore\n      sub(shl(0xa0, 0x01), 0x01)\n        /* \"contracts/BUDS.sol\":17307:17312  owner */\n      swap2\n      dup3\n      and\n        /* \"contracts/BUDS.sol\":17284:17321  IERC20(token).transfer(owner, amount) */\n      0x04\n      dup3\n      add\n        /* \"#utility.yul\":4358:4409   */\n      mstore\n        /* \"#utility.yul\":4425:4443   */\n      0x24\n      dup2\n      add\n        /* \"#utility.yul\":4418:4452   */\n      dup4\n      swap1\n      mstore\n        /* \"contracts/BUDS.sol\":17284:17306  IERC20(token).transfer */\n      swap1\n      dup4\n      and\n      swap1\n      0xa9059cbb\n      swap1\n        /* \"#utility.yul\":4331:4349   */\n      0x44\n      add\n        /* \"contracts/BUDS.sol\":17284:17321  IERC20(token).transfer(owner, amount) */\n      0x20\n      mload(0x40)\n      dup1\n      dup4\n      sub\n      dup2\n      0x00\n      dup8\n      gas\n      call\n      iszero\n      dup1\n      iszero\n      tag_234\n      jumpi\n      returndatasize\n      0x00\n      dup1\n      returndatacopy\n      revert(0x00, returndatasize)\n    tag_234:\n      pop\n      pop\n      pop\n      pop\n      mload(0x40)\n      returndatasize\n      not(0x1f)\n      0x1f\n      dup3\n      add\n      and\n      dup3\n      add\n      dup1\n      0x40\n      mstore\n      pop\n      dup2\n      add\n      swap1\n      tag_235\n      swap2\n      swap1\n      tag_191\n      jump\t// in\n    tag_235:\n      pop\n        /* \"contracts/BUDS.sol\":17155:17329  function withdrawExcess(address token, uint256 amount) external {... */\n      pop\n      pop\n      jump\t// out\n        /* \"contracts/BUDS.sol\":17381:17538  function setUniswapPool(address _uniswapPool) external {... */\n    tag_91:\n        /* \"contracts/BUDS.sol\":17469:17474  owner */\n      and(sub(shl(0xa0, 0x01), 0x01), sload(0x07))\n        /* \"contracts/BUDS.sol\":17455:17465  msg.sender */\n      caller\n        /* \"contracts/BUDS.sol\":17455:17474  msg.sender == owner */\n      eq\n        /* \"contracts/BUDS.sol\":17447:17490  require(msg.sender == owner, \"not Allowed\") */\n      tag_237\n      jumpi\n      mload(0x40)\n      shl(0xe5, 0x461bcd)\n      dup2\n      mstore\n        /* \"#utility.yul\":6033:6035   */\n      0x20\n        /* \"contracts/BUDS.sol\":17447:17490  require(msg.sender == owner, \"not Allowed\") */\n      0x04\n      dup3\n      add\n        /* \"#utility.yul\":6015:6036   */\n      mstore\n        /* \"#utility.yul\":6072:6074   */\n      0x0b\n        /* \"#utility.yul\":6052:6070   */\n      0x24\n      dup3\n      add\n        /* \"#utility.yul\":6045:6075   */\n      mstore\n      shl(0xaa, 0x1b9bdd08105b1b1bddd959)\n        /* \"#utility.yul\":6091:6109   */\n      0x44\n      dup3\n      add\n        /* \"#utility.yul\":6084:6125   */\n      mstore\n        /* \"#utility.yul\":6142:6160   */\n      0x64\n      add\n        /* \"contracts/BUDS.sol\":17447:17490  require(msg.sender == owner, \"not Allowed\") */\n      tag_135\n        /* \"#utility.yul\":5831:6166   */\n      jump\n        /* \"contracts/BUDS.sol\":17447:17490  require(msg.sender == owner, \"not Allowed\") */\n    tag_237:\n        /* \"contracts/BUDS.sol\":17501:17515  lpTokenAddress */\n      0x05\n        /* \"contracts/BUDS.sol\":17501:17530  lpTokenAddress = _uniswapPool */\n      dup1\n      sload\n      not(sub(shl(0xa0, 0x01), 0x01))\n      and\n      sub(shl(0xa0, 0x01), 0x01)\n      swap3\n      swap1\n      swap3\n      and\n      swap2\n      swap1\n      swap2\n      or\n      swap1\n      sstore\n        /* \"contracts/BUDS.sol\":17381:17538  function setUniswapPool(address _uniswapPool) external {... */\n      jump\t// out\n        /* \"contracts/BUDS.sol\":18655:18963  function reduceCommission() external {... */\n    tag_93:\n        /* \"contracts/BUDS.sol\":18711:18722  rewardToken */\n      sload(0x06)\n        /* \"contracts/BUDS.sol\":18711:18744  rewardToken.balanceOf(msg.sender) */\n      mload(0x40)\n      shl(0xe0, 0x70a08231)\n      dup2\n      mstore\n        /* \"contracts/BUDS.sol\":18733:18743  msg.sender */\n      caller\n        /* \"contracts/BUDS.sol\":18711:18744  rewardToken.balanceOf(msg.sender) */\n      0x04\n      dup3\n      add\n        /* \"#utility.yul\":1600:1651   */\n      mstore\n        /* \"contracts/BUDS.sol\":18747:18748  0 */\n      0x00\n      swap2\n      sub(shl(0xa0, 0x01), 0x01)\n        /* \"contracts/BUDS.sol\":18711:18722  rewardToken */\n      and\n      swap1\n        /* \"contracts/BUDS.sol\":18711:18732  rewardToken.balanceOf */\n      0x70a08231\n      swap1\n        /* \"#utility.yul\":1573:1591   */\n      0x24\n      add\n        /* \"contracts/BUDS.sol\":18711:18744  rewardToken.balanceOf(msg.sender) */\n      0x20\n      mload(0x40)\n      dup1\n      dup4\n      sub\n      dup2\n      dup7\n      gas\n      staticcall\n      iszero\n      dup1\n      iszero\n      tag_242\n      jumpi\n      returndatasize\n      0x00\n      dup1\n      returndatacopy\n      revert(0x00, returndatasize)\n    tag_242:\n      pop\n      pop\n      pop\n      pop\n      mload(0x40)\n      returndatasize\n      not(0x1f)\n      0x1f\n      dup3\n      add\n      and\n      dup3\n      add\n      dup1\n      0x40\n      mstore\n      pop\n      dup2\n      add\n      swap1\n      tag_243\n      swap2\n      swap1\n      tag_244\n      jump\t// in\n    tag_243:\n        /* \"contracts/BUDS.sol\":18711:18748  rewardToken.balanceOf(msg.sender) > 0 */\n      gt\n        /* \"contracts/BUDS.sol\":18703:18766  require(rewardToken.balanceOf(msg.sender) > 0, \"Zero Holdings\") */\n      tag_245\n      jumpi\n      mload(0x40)\n      shl(0xe5, 0x461bcd)\n      dup2\n      mstore\n        /* \"#utility.yul\":6562:6564   */\n      0x20\n        /* \"contracts/BUDS.sol\":18703:18766  require(rewardToken.balanceOf(msg.sender) > 0, \"Zero Holdings\") */\n      0x04\n      dup3\n      add\n        /* \"#utility.yul\":6544:6565   */\n      mstore\n        /* \"#utility.yul\":6601:6603   */\n      0x0d\n        /* \"#utility.yul\":6581:6599   */\n      0x24\n      dup3\n      add\n        /* \"#utility.yul\":6574:6604   */\n      mstore\n      shl(0x98, 0x5a65726f20486f6c64696e6773)\n        /* \"#utility.yul\":6620:6638   */\n      0x44\n      dup3\n      add\n        /* \"#utility.yul\":6613:6656   */\n      mstore\n        /* \"#utility.yul\":6673:6691   */\n      0x64\n      add\n        /* \"contracts/BUDS.sol\":18703:18766  require(rewardToken.balanceOf(msg.sender) > 0, \"Zero Holdings\") */\n      tag_135\n        /* \"#utility.yul\":6360:6697   */\n      jump\n        /* \"contracts/BUDS.sol\":18703:18766  require(rewardToken.balanceOf(msg.sender) > 0, \"Zero Holdings\") */\n    tag_245:\n        /* \"contracts/BUDS.sol\":18813:18823  msg.sender */\n      caller\n        /* \"contracts/BUDS.sol\":18800:18824  alreadyVoted[msg.sender] */\n      0x00\n      swap1\n      dup2\n      mstore\n        /* \"contracts/BUDS.sol\":18800:18812  alreadyVoted */\n      0x04\n        /* \"contracts/BUDS.sol\":18800:18824  alreadyVoted[msg.sender] */\n      0x20\n      mstore\n      0x40\n      swap1\n      keccak256\n      sload\n      0xff\n      and\n        /* \"contracts/BUDS.sol\":18799:18824  !alreadyVoted[msg.sender] */\n      iszero\n        /* \"contracts/BUDS.sol\":18777:18890  require(... */\n      tag_248\n      jumpi\n      mload(0x40)\n      shl(0xe5, 0x461bcd)\n      dup2\n      mstore\n        /* \"#utility.yul\":6904:6906   */\n      0x20\n        /* \"contracts/BUDS.sol\":18777:18890  require(... */\n      0x04\n      dup3\n      add\n        /* \"#utility.yul\":6886:6907   */\n      mstore\n        /* \"#utility.yul\":6943:6945   */\n      0x26\n        /* \"#utility.yul\":6923:6941   */\n      0x24\n      dup3\n      add\n        /* \"#utility.yul\":6916:6946   */\n      mstore\n        /* \"#utility.yul\":6982:7016   */\n      0x596f75206861766520616c7265616479206170706c69656420666f7220726564\n        /* \"#utility.yul\":6962:6980   */\n      0x44\n      dup3\n      add\n        /* \"#utility.yul\":6955:7017   */\n      mstore\n      shl(0xd1, 0x3ab1ba34b7b7)\n        /* \"#utility.yul\":7033:7051   */\n      0x64\n      dup3\n      add\n        /* \"#utility.yul\":7026:7062   */\n      mstore\n        /* \"#utility.yul\":7079:7098   */\n      0x84\n      add\n        /* \"contracts/BUDS.sol\":18777:18890  require(... */\n      tag_135\n        /* \"#utility.yul\":6702:7104   */\n      jump\n        /* \"contracts/BUDS.sol\":18777:18890  require(... */\n    tag_248:\n        /* \"contracts/BUDS.sol\":18901:18911  applicants */\n      0x0a\n        /* \"contracts/BUDS.sol\":18901:18913  applicants++ */\n      dup1\n      sload\n      swap1\n        /* \"contracts/BUDS.sol\":18901:18911  applicants */\n      0x00\n        /* \"contracts/BUDS.sol\":18901:18913  applicants++ */\n      tag_251\n      dup4\n      tag_252\n      jump\t// in\n    tag_251:\n      swap1\n      swap2\n      sstore\n      pop\n      pop\n        /* \"contracts/BUDS.sol\":18937:18947  msg.sender */\n      caller\n        /* \"contracts/BUDS.sol\":18924:18948  alreadyVoted[msg.sender] */\n      0x00\n      swap1\n      dup2\n      mstore\n        /* \"contracts/BUDS.sol\":18924:18936  alreadyVoted */\n      0x04\n        /* \"contracts/BUDS.sol\":18924:18948  alreadyVoted[msg.sender] */\n      0x20\n      mstore\n      0x40\n      swap1\n      keccak256\n        /* \"contracts/BUDS.sol\":18924:18955  alreadyVoted[msg.sender] = true */\n      dup1\n      sload\n      not(0xff)\n      and\n        /* \"contracts/BUDS.sol\":18951:18955  true */\n      0x01\n        /* \"contracts/BUDS.sol\":18924:18955  alreadyVoted[msg.sender] = true */\n      or\n      swap1\n      sstore\n        /* \"contracts/BUDS.sol\":18655:18963  function reduceCommission() external {... */\n      jump\t// out\n        /* \"contracts/BUDS.sol\":12106:12780  function unlockLP() public {... */\n    tag_109:\n        /* \"contracts/BUDS.sol\":12184:12194  msg.sender */\n      caller\n        /* \"contracts/BUDS.sol\":12167:12195  stakingStartTime[msg.sender] */\n      0x00\n      swap1\n      dup2\n      mstore\n        /* \"contracts/BUDS.sol\":12167:12183  stakingStartTime */\n      0x03\n        /* \"contracts/BUDS.sol\":12167:12195  stakingStartTime[msg.sender] */\n      0x20\n      mstore\n      0x40\n      swap1\n      keccak256\n      sload\n        /* \"contracts/BUDS.sol\":12167:12209  stakingStartTime[msg.sender] + NINETY_DAYS */\n      tag_254\n      swap1\n        /* \"contracts/BUDS.sol\":9250:9260  90 seconds */\n      0x5a\n      swap1\n        /* \"contracts/BUDS.sol\":12167:12209  stakingStartTime[msg.sender] + NINETY_DAYS */\n      tag_175\n      jump\t// in\n    tag_254:\n        /* \"contracts/BUDS.sol\":12148:12163  block.timestamp */\n      timestamp\n        /* \"contracts/BUDS.sol\":12148:12209  block.timestamp >= stakingStartTime[msg.sender] + NINETY_DAYS */\n      lt\n      iszero\n        /* \"contracts/BUDS.sol\":12140:12242  require(block.timestamp >= stakingStartTime[msg.sender] + NINETY_DAYS, \"Cannot unlock before 90 days\") */\n      tag_255\n      jumpi\n      mload(0x40)\n      shl(0xe5, 0x461bcd)\n      dup2\n      mstore\n        /* \"#utility.yul\":7451:7453   */\n      0x20\n        /* \"contracts/BUDS.sol\":12140:12242  require(block.timestamp >= stakingStartTime[msg.sender] + NINETY_DAYS, \"Cannot unlock before 90 days\") */\n      0x04\n      dup3\n      add\n        /* \"#utility.yul\":7433:7454   */\n      mstore\n        /* \"#utility.yul\":7490:7492   */\n      0x1c\n        /* \"#utility.yul\":7470:7488   */\n      0x24\n      dup3\n      add\n        /* \"#utility.yul\":7463:7493   */\n      mstore\n        /* \"#utility.yul\":7529:7559   */\n      0x43616e6e6f7420756e6c6f636b206265666f7265203930206461797300000000\n        /* \"#utility.yul\":7509:7527   */\n      0x44\n      dup3\n      add\n        /* \"#utility.yul\":7502:7560   */\n      mstore\n        /* \"#utility.yul\":7577:7595   */\n      0x64\n      add\n        /* \"contracts/BUDS.sol\":12140:12242  require(block.timestamp >= stakingStartTime[msg.sender] + NINETY_DAYS, \"Cannot unlock before 90 days\") */\n      tag_135\n        /* \"#utility.yul\":7249:7601   */\n      jump\n        /* \"contracts/BUDS.sol\":12140:12242  require(block.timestamp >= stakingStartTime[msg.sender] + NINETY_DAYS, \"Cannot unlock before 90 days\") */\n    tag_255:\n        /* \"contracts/BUDS.sol\":12283:12293  msg.sender */\n      caller\n        /* \"contracts/BUDS.sol\":12251:12271  uint256 lockedAmount */\n      0x00\n        /* \"contracts/BUDS.sol\":12274:12294  lockInfo[msg.sender] */\n      swap1\n      dup2\n      mstore\n        /* \"contracts/BUDS.sol\":12274:12282  lockInfo */\n      0x13\n        /* \"contracts/BUDS.sol\":12274:12294  lockInfo[msg.sender] */\n      0x20\n      mstore\n      0x40\n      swap1\n      keccak256\n        /* \"contracts/BUDS.sol\":12274:12301  lockInfo[msg.sender].amount */\n      sload\n        /* \"contracts/BUDS.sol\":12322:12338  lockedAmount > 0 */\n      dup1\n        /* \"contracts/BUDS.sol\":12314:12359  require(lockedAmount > 0, \"No locked tokens\") */\n      tag_258\n      jumpi\n      mload(0x40)\n      shl(0xe5, 0x461bcd)\n      dup2\n      mstore\n        /* \"#utility.yul\":7808:7810   */\n      0x20\n        /* \"contracts/BUDS.sol\":12314:12359  require(lockedAmount > 0, \"No locked tokens\") */\n      0x04\n      dup3\n      add\n        /* \"#utility.yul\":7790:7811   */\n      mstore\n        /* \"#utility.yul\":7847:7849   */\n      0x10\n        /* \"#utility.yul\":7827:7845   */\n      0x24\n      dup3\n      add\n        /* \"#utility.yul\":7820:7850   */\n      mstore\n      shl(0x80, 0x4e6f206c6f636b656420746f6b656e73)\n        /* \"#utility.yul\":7866:7884   */\n      0x44\n      dup3\n      add\n        /* \"#utility.yul\":7859:7905   */\n      mstore\n        /* \"#utility.yul\":7922:7940   */\n      0x64\n      add\n        /* \"contracts/BUDS.sol\":12314:12359  require(lockedAmount > 0, \"No locked tokens\") */\n      tag_135\n        /* \"#utility.yul\":7606:7946   */\n      jump\n        /* \"contracts/BUDS.sol\":12314:12359  require(lockedAmount > 0, \"No locked tokens\") */\n    tag_258:\n        /* \"contracts/BUDS.sol\":12437:12451  lpTokenAddress */\n      sload(0x05)\n        /* \"contracts/BUDS.sol\":12430:12524  IERC20(lpTokenAddress).transfer(... */\n      mload(0x40)\n      shl(0xe0, 0xa9059cbb)\n      dup2\n      mstore\n        /* \"contracts/BUDS.sol\":12476:12486  msg.sender */\n      caller\n        /* \"contracts/BUDS.sol\":12430:12524  IERC20(lpTokenAddress).transfer(... */\n      0x04\n      dup3\n      add\n        /* \"#utility.yul\":4358:4409   */\n      mstore\n        /* \"#utility.yul\":4425:4443   */\n      0x24\n      dup2\n      add\n        /* \"#utility.yul\":4418:4452   */\n      dup4\n      swap1\n      mstore\n      sub(shl(0xa0, 0x01), 0x01)\n        /* \"contracts/BUDS.sol\":12437:12451  lpTokenAddress */\n      swap1\n      swap2\n      and\n      swap1\n        /* \"contracts/BUDS.sol\":12430:12461  IERC20(lpTokenAddress).transfer */\n      0xa9059cbb\n      swap1\n        /* \"#utility.yul\":4331:4349   */\n      0x44\n      add\n        /* \"contracts/BUDS.sol\":12430:12524  IERC20(lpTokenAddress).transfer(... */\n      0x20\n      mload(0x40)\n      dup1\n      dup4\n      sub\n      dup2\n      0x00\n      dup8\n      gas\n      call\n      iszero\n      dup1\n      iszero\n      tag_263\n      jumpi\n      returndatasize\n      0x00\n      dup1\n      returndatacopy\n      revert(0x00, returndatasize)\n    tag_263:\n      pop\n      pop\n      pop\n      pop\n      mload(0x40)\n      returndatasize\n      not(0x1f)\n      0x1f\n      dup3\n      add\n      and\n      dup3\n      add\n      dup1\n      0x40\n      mstore\n      pop\n      dup2\n      add\n      swap1\n      tag_264\n      swap2\n      swap1\n      tag_191\n      jump\t// in\n    tag_264:\n        /* \"contracts/BUDS.sol\":12412:12568  require(... */\n      tag_265\n      jumpi\n      mload(0x40)\n      shl(0xe5, 0x461bcd)\n      dup2\n      mstore\n        /* \"#utility.yul\":5680:5682   */\n      0x20\n        /* \"contracts/BUDS.sol\":12412:12568  require(... */\n      0x04\n      dup3\n      add\n        /* \"#utility.yul\":5662:5683   */\n      mstore\n        /* \"#utility.yul\":5719:5721   */\n      0x18\n        /* \"#utility.yul\":5699:5717   */\n      0x24\n      dup3\n      add\n        /* \"#utility.yul\":5692:5722   */\n      mstore\n      shl(0x42, 0x1314081d1bdad95b881d1c985b9cd9995c8819985a5b1959)\n        /* \"#utility.yul\":5738:5756   */\n      0x44\n      dup3\n      add\n        /* \"#utility.yul\":5731:5785   */\n      mstore\n        /* \"#utility.yul\":5802:5820   */\n      0x64\n      add\n        /* \"contracts/BUDS.sol\":12412:12568  require(... */\n      tag_135\n        /* \"#utility.yul\":5478:5826   */\n      jump\n        /* \"contracts/BUDS.sol\":12412:12568  require(... */\n    tag_265:\n        /* \"contracts/BUDS.sol\":12633:12645  lockedAmount */\n      dup1\n        /* \"contracts/BUDS.sol\":12612:12629  totalStakedTokens */\n      0x09\n      0x00\n        /* \"contracts/BUDS.sol\":12612:12645  totalStakedTokens -= lockedAmount */\n      dup3\n      dup3\n      sload\n      tag_267\n      swap2\n      swap1\n      tag_132\n      jump\t// in\n    tag_267:\n      swap1\n      swap2\n      sstore\n      pop\n      pop\n        /* \"contracts/BUDS.sol\":12665:12675  msg.sender */\n      caller\n        /* \"contracts/BUDS.sol\":12652:12676  stakedTokens[msg.sender] */\n      0x00\n      swap1\n      dup2\n      mstore\n        /* \"contracts/BUDS.sol\":12652:12664  stakedTokens */\n      0x01\n        /* \"contracts/BUDS.sol\":12652:12676  stakedTokens[msg.sender] */\n      0x20\n      mstore\n      0x40\n      dup2\n      keccak256\n        /* \"contracts/BUDS.sol\":12652:12692  stakedTokens[msg.sender] -= lockedAmount */\n      dup1\n      sload\n        /* \"contracts/BUDS.sol\":12680:12692  lockedAmount */\n      dup4\n      swap3\n        /* \"contracts/BUDS.sol\":12652:12676  stakedTokens[msg.sender] */\n      swap1\n        /* \"contracts/BUDS.sol\":12652:12692  stakedTokens[msg.sender] -= lockedAmount */\n      tag_268\n      swap1\n        /* \"contracts/BUDS.sol\":12680:12692  lockedAmount */\n      dup5\n      swap1\n        /* \"contracts/BUDS.sol\":12652:12692  stakedTokens[msg.sender] -= lockedAmount */\n      tag_132\n      jump\t// in\n    tag_268:\n      swap1\n      swap2\n      sstore\n      pop\n      pop\n        /* \"contracts/BUDS.sol\":12715:12725  msg.sender */\n      caller\n        /* \"contracts/BUDS.sol\":12706:12726  lockInfo[msg.sender] */\n      0x00\n      dup2\n      dup2\n      mstore\n        /* \"contracts/BUDS.sol\":12706:12714  lockInfo */\n      0x13\n        /* \"contracts/BUDS.sol\":12706:12726  lockInfo[msg.sender] */\n      0x20\n      mstore\n      0x40\n      dup1\n      dup3\n      keccak256\n        /* \"contracts/BUDS.sol\":12699:12726  delete lockInfo[msg.sender] */\n      dup3\n      dup2\n      sstore\n      0x01\n      add\n      swap2\n      swap1\n      swap2\n      sstore\n        /* \"contracts/BUDS.sol\":12740:12776  UnlockedLP(msg.sender, lockedAmount) */\n      mload\n      0x580ec6003f06a23971f7ccdb029ae688764884d7361687066e352d1ff6024473\n      swap1\n      tag_269\n      swap1\n        /* \"contracts/BUDS.sol\":12763:12775  lockedAmount */\n      dup5\n        /* \"#utility.yul\":906:931   */\n      dup2\n      mstore\n        /* \"#utility.yul\":894:896   */\n      0x20\n        /* \"#utility.yul\":879:897   */\n      add\n      swap1\n        /* \"#utility.yul\":760:937   */\n      jump\n        /* \"contracts/BUDS.sol\":12740:12776  UnlockedLP(msg.sender, lockedAmount) */\n    tag_269:\n      mload(0x40)\n      dup1\n      swap2\n      sub\n      swap1\n      log2\n        /* \"contracts/BUDS.sol\":12133:12780  {... */\n      pop\n        /* \"contracts/BUDS.sol\":12106:12780  function unlockLP() public {... */\n      jump\t// out\n        /* \"contracts/BUDS.sol\":13439:13547  function getCurrentMonth() public view returns (uint256) {... */\n    tag_115:\n        /* \"contracts/BUDS.sol\":13487:13494  uint256 */\n      0x00\n        /* \"contracts/BUDS.sol\":13514:13539  block.timestamp / 30 days */\n      tag_271\n        /* \"contracts/BUDS.sol\":13532:13539  30 days */\n      0x278d00\n        /* \"contracts/BUDS.sol\":13514:13529  block.timestamp */\n      timestamp\n        /* \"contracts/BUDS.sol\":13514:13539  block.timestamp / 30 days */\n      tag_149\n      jump\t// in\n    tag_271:\n        /* \"contracts/BUDS.sol\":13507:13539  return block.timestamp / 30 days */\n      swap1\n      pop\n        /* \"contracts/BUDS.sol\":13439:13547  function getCurrentMonth() public view returns (uint256) {... */\n      swap1\n      jump\t// out\n        /* \"contracts/BUDS.sol\":12904:13046  function yearNow() internal view returns (uint256) {... */\n    tag_147:\n        /* \"contracts/BUDS.sol\":12946:12953  uint256 */\n      0x00\n        /* \"contracts/BUDS.sol\":12973:12999  block.timestamp / 365 days */\n      tag_271\n        /* \"contracts/BUDS.sol\":12991:12999  365 days */\n      0x01e13380\n        /* \"contracts/BUDS.sol\":12973:12988  block.timestamp */\n      timestamp\n        /* \"contracts/BUDS.sol\":12973:12999  block.timestamp / 365 days */\n      tag_149\n      jump\t// in\n        /* \"contracts/BUDS.sol\":12790:12896  function min(uint256 a, uint256 b) internal pure returns (uint256) {... */\n    tag_167:\n        /* \"contracts/BUDS.sol\":12848:12855  uint256 */\n      0x00\n        /* \"contracts/BUDS.sol\":12879:12880  b */\n      dup2\n        /* \"contracts/BUDS.sol\":12875:12876  a */\n      dup4\n        /* \"contracts/BUDS.sol\":12875:12880  a < b */\n      lt\n        /* \"contracts/BUDS.sol\":12875:12888  a < b ? a : b */\n      tag_275\n      jumpi\n        /* \"contracts/BUDS.sol\":12887:12888  b */\n      dup2\n        /* \"contracts/BUDS.sol\":12875:12888  a < b ? a : b */\n      jump(tag_276)\n    tag_275:\n        /* \"contracts/BUDS.sol\":12883:12884  a */\n      dup3\n        /* \"contracts/BUDS.sol\":12875:12888  a < b ? a : b */\n    tag_276:\n        /* \"contracts/BUDS.sol\":12868:12888  return a < b ? a : b */\n      swap1\n      pop\n        /* \"contracts/BUDS.sol\":12790:12896  function min(uint256 a, uint256 b) internal pure returns (uint256) {... */\n    tag_274:\n      swap3\n      swap2\n      pop\n      pop\n      jump\t// out\n        /* \"contracts/BUDS.sol\":13054:13389  function marketingFee() internal returns (uint256) {... */\n    tag_181:\n        /* \"contracts/BUDS.sol\":13096:13103  uint256 */\n      0x00\n        /* \"contracts/BUDS.sol\":13134:13141  1000000 */\n      0x0f4240\n        /* \"contracts/BUDS.sol\":13120:13130  applicants */\n      sload(0x0a)\n        /* \"contracts/BUDS.sol\":13120:13141  applicants >= 1000000 */\n      lt\n        /* \"contracts/BUDS.sol\":13116:13359  if (applicants >= 1000000) {... */\n      tag_278\n      jumpi\n        /* \"contracts/BUDS.sol\":13164:13166  50 */\n      0x32\n        /* \"contracts/BUDS.sol\":13158:13161  fee */\n      0x0b\n        /* \"contracts/BUDS.sol\":13158:13166  fee = 50 */\n      sstore\n        /* \"contracts/BUDS.sol\":13116:13359  if (applicants >= 1000000) {... */\n      jump(tag_283)\n    tag_278:\n        /* \"contracts/BUDS.sol\":13202:13210  10000000 */\n      0x989680\n        /* \"contracts/BUDS.sol\":13188:13198  applicants */\n      sload(0x0a)\n        /* \"contracts/BUDS.sol\":13188:13210  applicants >= 10000000 */\n      lt\n        /* \"contracts/BUDS.sol\":13184:13359  if (applicants >= 10000000) {... */\n      tag_280\n      jumpi\n        /* \"contracts/BUDS.sol\":13233:13235  25 */\n      0x19\n        /* \"contracts/BUDS.sol\":13227:13230  fee */\n      0x0b\n        /* \"contracts/BUDS.sol\":13227:13235  fee = 25 */\n      sstore\n        /* \"contracts/BUDS.sol\":13184:13359  if (applicants >= 10000000) {... */\n      jump(tag_283)\n    tag_280:\n        /* \"contracts/BUDS.sol\":13271:13280  100000000 */\n      0x05f5e100\n        /* \"contracts/BUDS.sol\":13257:13267  applicants */\n      sload(0x0a)\n        /* \"contracts/BUDS.sol\":13257:13280  applicants >= 100000000 */\n      lt\n        /* \"contracts/BUDS.sol\":13253:13359  if (applicants >= 100000000) {... */\n      tag_282\n      jumpi\n        /* \"contracts/BUDS.sol\":13303:13305  12 */\n      0x0c\n        /* \"contracts/BUDS.sol\":13297:13300  fee */\n      0x0b\n        /* \"contracts/BUDS.sol\":13297:13305  fee = 12 */\n      sstore\n        /* \"contracts/BUDS.sol\":13253:13359  if (applicants >= 100000000) {... */\n      jump(tag_283)\n    tag_282:\n        /* \"contracts/BUDS.sol\":13344:13347  100 */\n      0x64\n        /* \"contracts/BUDS.sol\":13338:13341  fee */\n      0x0b\n        /* \"contracts/BUDS.sol\":13338:13347  fee = 100 */\n      sstore\n        /* \"contracts/BUDS.sol\":13253:13359  if (applicants >= 100000000) {... */\n    tag_283:\n      pop\n        /* \"contracts/BUDS.sol\":13378:13381  fee */\n      sload(0x0b)\n      swap1\n        /* \"contracts/BUDS.sol\":13054:13389  function marketingFee() internal returns (uint256) {... */\n      jump\t// out\n        /* \"contracts/BUDS.sol\":17604:18645  function getUSDValueOfLPTokens(address user)... */\n    tag_199:\n        /* \"contracts/BUDS.sol\":17732:17746  lpTokenAddress */\n      sload(0x05)\n        /* \"contracts/BUDS.sol\":17699:17706  uint256 */\n      0x00\n      swap1\n      sub(shl(0xa0, 0x01), 0x01)\n        /* \"contracts/BUDS.sol\":17732:17746  lpTokenAddress */\n      and\n        /* \"contracts/BUDS.sol\":17724:17793  require(lpTokenAddress != address(0), \"Uniswap pool address not set\") */\n      tag_285\n      jumpi\n      mload(0x40)\n      shl(0xe5, 0x461bcd)\n      dup2\n      mstore\n        /* \"#utility.yul\":8153:8155   */\n      0x20\n        /* \"contracts/BUDS.sol\":17724:17793  require(lpTokenAddress != address(0), \"Uniswap pool address not set\") */\n      0x04\n      dup3\n      add\n        /* \"#utility.yul\":8135:8156   */\n      mstore\n        /* \"#utility.yul\":8192:8194   */\n      0x1c\n        /* \"#utility.yul\":8172:8190   */\n      0x24\n      dup3\n      add\n        /* \"#utility.yul\":8165:8195   */\n      mstore\n        /* \"#utility.yul\":8231:8261   */\n      0x556e697377617020706f6f6c2061646472657373206e6f742073657400000000\n        /* \"#utility.yul\":8211:8229   */\n      0x44\n      dup3\n      add\n        /* \"#utility.yul\":8204:8262   */\n      mstore\n        /* \"#utility.yul\":8279:8297   */\n      0x64\n      add\n        /* \"contracts/BUDS.sol\":17724:17793  require(lpTokenAddress != address(0), \"Uniswap pool address not set\") */\n      tag_135\n        /* \"#utility.yul\":7951:8303   */\n      jump\n        /* \"contracts/BUDS.sol\":17724:17793  require(lpTokenAddress != address(0), \"Uniswap pool address not set\") */\n    tag_285:\n        /* \"contracts/BUDS.sol\":17887:17901  lpTokenAddress */\n      sload(0x05)\n        /* \"contracts/BUDS.sol\":17880:17918  IERC20(lpTokenAddress).balanceOf(user) */\n      mload(0x40)\n      shl(0xe0, 0x70a08231)\n      dup2\n      mstore\n      sub(shl(0xa0, 0x01), 0x01)\n        /* \"#utility.yul\":1618:1650   */\n      dup5\n      dup2\n      and\n        /* \"contracts/BUDS.sol\":17880:17918  IERC20(lpTokenAddress).balanceOf(user) */\n      0x04\n      dup4\n      add\n        /* \"#utility.yul\":1600:1651   */\n      mstore\n        /* \"contracts/BUDS.sol\":17855:17877  uint256 lpTokenBalance */\n      0x00\n      swap3\n        /* \"contracts/BUDS.sol\":17887:17901  lpTokenAddress */\n      and\n      swap1\n        /* \"contracts/BUDS.sol\":17880:17912  IERC20(lpTokenAddress).balanceOf */\n      0x70a08231\n      swap1\n        /* \"#utility.yul\":1573:1591   */\n      0x24\n      add\n        /* \"contracts/BUDS.sol\":17880:17918  IERC20(lpTokenAddress).balanceOf(user) */\n      0x20\n      mload(0x40)\n      dup1\n      dup4\n      sub\n      dup2\n      dup7\n      gas\n      staticcall\n      iszero\n      dup1\n      iszero\n      tag_290\n      jumpi\n      returndatasize\n      0x00\n      dup1\n      returndatacopy\n      revert(0x00, returndatasize)\n    tag_290:\n      pop\n      pop\n      pop\n      pop\n      mload(0x40)\n      returndatasize\n      not(0x1f)\n      0x1f\n      dup3\n      add\n      and\n      dup3\n      add\n      dup1\n      0x40\n      mstore\n      pop\n      dup2\n      add\n      swap1\n      tag_291\n      swap2\n      swap1\n      tag_244\n      jump\t// in\n    tag_291:\n        /* \"contracts/BUDS.sol\":17855:17918  uint256 lpTokenBalance = IERC20(lpTokenAddress).balanceOf(user) */\n      swap1\n      pop\n        /* \"contracts/BUDS.sol\":18002:18023  uint256 totalLPTokens */\n      0x00\n        /* \"contracts/BUDS.sol\":18033:18047  lpTokenAddress */\n      0x05\n      0x00\n      swap1\n      sload\n      swap1\n      0x0100\n      exp\n      swap1\n      div\n      sub(shl(0xa0, 0x01), 0x01)\n      and\n      sub(shl(0xa0, 0x01), 0x01)\n        /* \"contracts/BUDS.sol\":18026:18060  IERC20(lpTokenAddress).totalSupply */\n      and\n      0x18160ddd\n        /* \"contracts/BUDS.sol\":18026:18062  IERC20(lpTokenAddress).totalSupply() */\n      mload(0x40)\n      dup2\n      0xffffffff\n      and\n      0xe0\n      shl\n      dup2\n      mstore\n      0x04\n      add\n      0x20\n      mload(0x40)\n      dup1\n      dup4\n      sub\n      dup2\n      dup7\n      gas\n      staticcall\n      iszero\n      dup1\n      iszero\n      tag_293\n      jumpi\n      returndatasize\n      0x00\n      dup1\n      returndatacopy\n      revert(0x00, returndatasize)\n    tag_293:\n      pop\n      pop\n      pop\n      pop\n      mload(0x40)\n      returndatasize\n      not(0x1f)\n      0x1f\n      dup3\n      add\n      and\n      dup3\n      add\n      dup1\n      0x40\n      mstore\n      pop\n      dup2\n      add\n      swap1\n      tag_294\n      swap2\n      swap1\n      tag_244\n      jump\t// in\n    tag_294:\n        /* \"contracts/BUDS.sol\":18002:18062  uint256 totalLPTokens = IERC20(lpTokenAddress).totalSupply() */\n      swap1\n      pop\n        /* \"contracts/BUDS.sol\":18150:18169  uint256 reserveUSDT */\n      0x00\n        /* \"contracts/BUDS.sol\":18192:18206  lpTokenAddress */\n      0x05\n      0x00\n      swap1\n      sload\n      swap1\n      0x0100\n      exp\n      swap1\n      div\n      sub(shl(0xa0, 0x01), 0x01)\n      and\n      sub(shl(0xa0, 0x01), 0x01)\n        /* \"contracts/BUDS.sol\":18177:18233  IUniswapV2Pair(lpTokenAddress)... */\n      and\n      0x0902f1ac\n        /* \"contracts/BUDS.sol\":18177:18235  IUniswapV2Pair(lpTokenAddress)... */\n      mload(0x40)\n      dup2\n      0xffffffff\n      and\n      0xe0\n      shl\n      dup2\n      mstore\n      0x04\n      add\n      0x60\n      mload(0x40)\n      dup1\n      dup4\n      sub\n      dup2\n      dup7\n      gas\n      staticcall\n      iszero\n      dup1\n      iszero\n      tag_296\n      jumpi\n      returndatasize\n      0x00\n      dup1\n      returndatacopy\n      revert(0x00, returndatasize)\n    tag_296:\n      pop\n      pop\n      pop\n      pop\n      mload(0x40)\n      returndatasize\n      not(0x1f)\n      0x1f\n      dup3\n      add\n      and\n      dup3\n      add\n      dup1\n      0x40\n      mstore\n      pop\n      dup2\n      add\n      swap1\n      tag_297\n      swap2\n      swap1\n      tag_298\n      jump\t// in\n    tag_297:\n      pop\n      pop\n      sub(shl(0x70, 0x01), 0x01)\n        /* \"contracts/BUDS.sol\":18149:18235  (uint256 reserveUSDT, , ) = IUniswapV2Pair(lpTokenAddress)... */\n      and\n      swap1\n      pop\n        /* \"contracts/BUDS.sol\":18403:18420  uint256 userShare */\n      0x00\n        /* \"contracts/BUDS.sol\":18452:18465  totalLPTokens */\n      dup3\n        /* \"contracts/BUDS.sol\":18424:18447  lpTokenBalance * (1e18) */\n      tag_299\n        /* \"contracts/BUDS.sol\":18424:18438  lpTokenBalance */\n      dup6\n        /* \"contracts/BUDS.sol\":18442:18446  1e18 */\n      0x0de0b6b3a7640000\n        /* \"contracts/BUDS.sol\":18424:18447  lpTokenBalance * (1e18) */\n      tag_161\n      jump\t// in\n    tag_299:\n        /* \"contracts/BUDS.sol\":18423:18466  (lpTokenBalance * (1e18)) / (totalLPTokens) */\n      tag_300\n      swap2\n      swap1\n      tag_149\n      jump\t// in\n    tag_300:\n        /* \"contracts/BUDS.sol\":18403:18466  uint256 userShare = (lpTokenBalance * (1e18)) / (totalLPTokens) */\n      swap1\n      pop\n        /* \"contracts/BUDS.sol\":18556:18572  uint256 usdValue */\n      0x00\n        /* \"contracts/BUDS.sol\":18604:18608  1e18 */\n      0x0de0b6b3a7640000\n        /* \"contracts/BUDS.sol\":18576:18599  userShare * reserveUSDT */\n      tag_301\n        /* \"contracts/BUDS.sol\":18588:18599  reserveUSDT */\n      dup5\n        /* \"contracts/BUDS.sol\":18403:18466  uint256 userShare = (lpTokenBalance * (1e18)) / (totalLPTokens) */\n      dup5\n        /* \"contracts/BUDS.sol\":18576:18599  userShare * reserveUSDT */\n      tag_161\n      jump\t// in\n    tag_301:\n        /* \"contracts/BUDS.sol\":18575:18609  (userShare * reserveUSDT) / (1e18) */\n      tag_227\n      swap2\n      swap1\n      tag_149\n      jump\t// in\n        /* \"#utility.yul\":14:187   */\n    tag_303:\n        /* \"#utility.yul\":82:102   */\n      dup1\n      calldataload\n      sub(shl(0xa0, 0x01), 0x01)\n        /* \"#utility.yul\":131:162   */\n      dup2\n      and\n        /* \"#utility.yul\":121:163   */\n      dup2\n      eq\n        /* \"#utility.yul\":111:181   */\n      tag_308\n      jumpi\n        /* \"#utility.yul\":177:178   */\n      0x00\n        /* \"#utility.yul\":174:175   */\n      dup1\n        /* \"#utility.yul\":167:179   */\n      revert\n        /* \"#utility.yul\":111:181   */\n    tag_308:\n        /* \"#utility.yul\":14:187   */\n      swap2\n      swap1\n      pop\n      jump\t// out\n        /* \"#utility.yul\":192:378   */\n    tag_38:\n        /* \"#utility.yul\":251:257   */\n      0x00\n        /* \"#utility.yul\":304:306   */\n      0x20\n        /* \"#utility.yul\":292:301   */\n      dup3\n        /* \"#utility.yul\":283:290   */\n      dup5\n        /* \"#utility.yul\":279:302   */\n      sub\n        /* \"#utility.yul\":275:307   */\n      slt\n        /* \"#utility.yul\":272:324   */\n      iszero\n      tag_310\n      jumpi\n        /* \"#utility.yul\":320:321   */\n      0x00\n        /* \"#utility.yul\":317:318   */\n      dup1\n        /* \"#utility.yul\":310:322   */\n      revert\n        /* \"#utility.yul\":272:324   */\n    tag_310:\n        /* \"#utility.yul\":343:372   */\n      tag_276\n        /* \"#utility.yul\":362:371   */\n      dup3\n        /* \"#utility.yul\":343:372   */\n      tag_303\n      jump\t// in\n        /* \"#utility.yul\":575:755   */\n    tag_46:\n        /* \"#utility.yul\":634:640   */\n      0x00\n        /* \"#utility.yul\":687:689   */\n      0x20\n        /* \"#utility.yul\":675:684   */\n      dup3\n        /* \"#utility.yul\":666:673   */\n      dup5\n        /* \"#utility.yul\":662:685   */\n      sub\n        /* \"#utility.yul\":658:690   */\n      slt\n        /* \"#utility.yul\":655:707   */\n      iszero\n      tag_314\n      jumpi\n        /* \"#utility.yul\":703:704   */\n      0x00\n        /* \"#utility.yul\":700:701   */\n      dup1\n        /* \"#utility.yul\":693:705   */\n      revert\n        /* \"#utility.yul\":655:707   */\n    tag_314:\n      pop\n        /* \"#utility.yul\":726:749   */\n      calldataload\n      swap2\n        /* \"#utility.yul\":575:755   */\n      swap1\n      pop\n      jump\t// out\n        /* \"#utility.yul\":1195:1449   */\n    tag_73:\n        /* \"#utility.yul\":1263:1269   */\n      0x00\n        /* \"#utility.yul\":1271:1277   */\n      dup1\n        /* \"#utility.yul\":1324:1326   */\n      0x40\n        /* \"#utility.yul\":1312:1321   */\n      dup4\n        /* \"#utility.yul\":1303:1310   */\n      dup6\n        /* \"#utility.yul\":1299:1322   */\n      sub\n        /* \"#utility.yul\":1295:1327   */\n      slt\n        /* \"#utility.yul\":1292:1344   */\n      iszero\n      tag_318\n      jumpi\n        /* \"#utility.yul\":1340:1341   */\n      0x00\n        /* \"#utility.yul\":1337:1338   */\n      dup1\n        /* \"#utility.yul\":1330:1342   */\n      revert\n        /* \"#utility.yul\":1292:1344   */\n    tag_318:\n        /* \"#utility.yul\":1363:1392   */\n      tag_319\n        /* \"#utility.yul\":1382:1391   */\n      dup4\n        /* \"#utility.yul\":1363:1392   */\n      tag_303\n      jump\t// in\n    tag_319:\n        /* \"#utility.yul\":1353:1392   */\n      swap5\n        /* \"#utility.yul\":1439:1441   */\n      0x20\n        /* \"#utility.yul\":1424:1442   */\n      swap4\n      swap1\n      swap4\n      add\n        /* \"#utility.yul\":1411:1443   */\n      calldataload\n      swap4\n      pop\n      pop\n      pop\n        /* \"#utility.yul\":1195:1449   */\n      jump\t// out\n        /* \"#utility.yul\":1884:2011   */\n    tag_304:\n        /* \"#utility.yul\":1945:1955   */\n      0x4e487b71\n        /* \"#utility.yul\":1940:1943   */\n      0xe0\n        /* \"#utility.yul\":1936:1956   */\n      shl\n        /* \"#utility.yul\":1933:1934   */\n      0x00\n        /* \"#utility.yul\":1926:1957   */\n      mstore\n        /* \"#utility.yul\":1976:1980   */\n      0x11\n        /* \"#utility.yul\":1973:1974   */\n      0x04\n        /* \"#utility.yul\":1966:1981   */\n      mstore\n        /* \"#utility.yul\":2000:2004   */\n      0x24\n        /* \"#utility.yul\":1997:1998   */\n      0x00\n        /* \"#utility.yul\":1990:2005   */\n      revert\n        /* \"#utility.yul\":2016:2144   */\n    tag_132:\n        /* \"#utility.yul\":2083:2092   */\n      dup2\n      dup2\n      sub\n        /* \"#utility.yul\":2104:2115   */\n      dup2\n      dup2\n      gt\n        /* \"#utility.yul\":2101:2138   */\n      iszero\n      tag_274\n      jumpi\n        /* \"#utility.yul\":2118:2136   */\n      tag_274\n      tag_304\n      jump\t// in\n        /* \"#utility.yul\":3310:3527   */\n    tag_149:\n        /* \"#utility.yul\":3350:3351   */\n      0x00\n        /* \"#utility.yul\":3376:3377   */\n      dup3\n        /* \"#utility.yul\":3366:3498   */\n      tag_330\n      jumpi\n        /* \"#utility.yul\":3420:3430   */\n      0x4e487b71\n        /* \"#utility.yul\":3415:3418   */\n      0xe0\n        /* \"#utility.yul\":3411:3431   */\n      shl\n        /* \"#utility.yul\":3408:3409   */\n      0x00\n        /* \"#utility.yul\":3401:3432   */\n      mstore\n        /* \"#utility.yul\":3455:3459   */\n      0x12\n        /* \"#utility.yul\":3452:3453   */\n      0x04\n        /* \"#utility.yul\":3445:3460   */\n      mstore\n        /* \"#utility.yul\":3483:3487   */\n      0x24\n        /* \"#utility.yul\":3480:3481   */\n      0x00\n        /* \"#utility.yul\":3473:3488   */\n      revert\n        /* \"#utility.yul\":3366:3498   */\n    tag_330:\n      pop\n        /* \"#utility.yul\":3512:3521   */\n      div\n      swap1\n        /* \"#utility.yul\":3310:3527   */\n      jump\t// out\n        /* \"#utility.yul\":3532:3700   */\n    tag_161:\n        /* \"#utility.yul\":3605:3614   */\n      dup1\n      dup3\n      mul\n        /* \"#utility.yul\":3636:3645   */\n      dup2\n      iszero\n        /* \"#utility.yul\":3653:3668   */\n      dup3\n      dup3\n      div\n        /* \"#utility.yul\":3647:3669   */\n      dup5\n      eq\n        /* \"#utility.yul\":3633:3670   */\n      or\n        /* \"#utility.yul\":3623:3694   */\n      tag_274\n      jumpi\n        /* \"#utility.yul\":3674:3692   */\n      tag_274\n      tag_304\n      jump\t// in\n        /* \"#utility.yul\":3705:3830   */\n    tag_175:\n        /* \"#utility.yul\":3770:3779   */\n      dup1\n      dup3\n      add\n        /* \"#utility.yul\":3791:3801   */\n      dup1\n      dup3\n      gt\n        /* \"#utility.yul\":3788:3824   */\n      iszero\n      tag_274\n      jumpi\n        /* \"#utility.yul\":3804:3822   */\n      tag_274\n      tag_304\n      jump\t// in\n        /* \"#utility.yul\":4463:4740   */\n    tag_191:\n        /* \"#utility.yul\":4530:4536   */\n      0x00\n        /* \"#utility.yul\":4583:4585   */\n      0x20\n        /* \"#utility.yul\":4571:4580   */\n      dup3\n        /* \"#utility.yul\":4562:4569   */\n      dup5\n        /* \"#utility.yul\":4558:4581   */\n      sub\n        /* \"#utility.yul\":4554:4586   */\n      slt\n        /* \"#utility.yul\":4551:4603   */\n      iszero\n      tag_340\n      jumpi\n        /* \"#utility.yul\":4599:4600   */\n      0x00\n        /* \"#utility.yul\":4596:4597   */\n      dup1\n        /* \"#utility.yul\":4589:4601   */\n      revert\n        /* \"#utility.yul\":4551:4603   */\n    tag_340:\n        /* \"#utility.yul\":4631:4640   */\n      dup2\n        /* \"#utility.yul\":4625:4641   */\n      mload\n        /* \"#utility.yul\":4684:4689   */\n      dup1\n        /* \"#utility.yul\":4677:4690   */\n      iszero\n        /* \"#utility.yul\":4670:4691   */\n      iszero\n        /* \"#utility.yul\":4663:4668   */\n      dup2\n        /* \"#utility.yul\":4660:4692   */\n      eq\n        /* \"#utility.yul\":4650:4710   */\n      tag_341\n      jumpi\n        /* \"#utility.yul\":4706:4707   */\n      0x00\n        /* \"#utility.yul\":4703:4704   */\n      dup1\n        /* \"#utility.yul\":4696:4708   */\n      revert\n        /* \"#utility.yul\":4650:4710   */\n    tag_341:\n        /* \"#utility.yul\":4729:4734   */\n      swap4\n        /* \"#utility.yul\":4463:4740   */\n      swap3\n      pop\n      pop\n      pop\n      jump\t// out\n        /* \"#utility.yul\":6171:6355   */\n    tag_244:\n        /* \"#utility.yul\":6241:6247   */\n      0x00\n        /* \"#utility.yul\":6294:6296   */\n      0x20\n        /* \"#utility.yul\":6282:6291   */\n      dup3\n        /* \"#utility.yul\":6273:6280   */\n      dup5\n        /* \"#utility.yul\":6269:6292   */\n      sub\n        /* \"#utility.yul\":6265:6297   */\n      slt\n        /* \"#utility.yul\":6262:6314   */\n      iszero\n      tag_347\n      jumpi\n        /* \"#utility.yul\":6310:6311   */\n      0x00\n        /* \"#utility.yul\":6307:6308   */\n      dup1\n        /* \"#utility.yul\":6300:6312   */\n      revert\n        /* \"#utility.yul\":6262:6314   */\n    tag_347:\n      pop\n        /* \"#utility.yul\":6333:6349   */\n      mload\n      swap2\n        /* \"#utility.yul\":6171:6355   */\n      swap1\n      pop\n      jump\t// out\n        /* \"#utility.yul\":7109:7244   */\n    tag_252:\n        /* \"#utility.yul\":7148:7151   */\n      0x00\n        /* \"#utility.yul\":7169:7186   */\n      0x01\n      dup3\n      add\n        /* \"#utility.yul\":7166:7209   */\n      tag_352\n      jumpi\n        /* \"#utility.yul\":7189:7207   */\n      tag_352\n      tag_304\n      jump\t// in\n    tag_352:\n      pop\n        /* \"#utility.yul\":7236:7237   */\n      0x01\n        /* \"#utility.yul\":7225:7238   */\n      add\n      swap1\n        /* \"#utility.yul\":7109:7244   */\n      jump\t// out\n        /* \"#utility.yul\":8308:8496   */\n    tag_305:\n        /* \"#utility.yul\":8387:8400   */\n      dup1\n      mload\n      sub(shl(0x70, 0x01), 0x01)\n        /* \"#utility.yul\":8429:8471   */\n      dup2\n      and\n        /* \"#utility.yul\":8419:8472   */\n      dup2\n      eq\n        /* \"#utility.yul\":8409:8490   */\n      tag_308\n      jumpi\n        /* \"#utility.yul\":8486:8487   */\n      0x00\n        /* \"#utility.yul\":8483:8484   */\n      dup1\n        /* \"#utility.yul\":8476:8488   */\n      revert\n        /* \"#utility.yul\":8501:8951   */\n    tag_298:\n        /* \"#utility.yul\":8588:8594   */\n      0x00\n        /* \"#utility.yul\":8596:8602   */\n      dup1\n        /* \"#utility.yul\":8604:8610   */\n      0x00\n        /* \"#utility.yul\":8657:8659   */\n      0x60\n        /* \"#utility.yul\":8645:8654   */\n      dup5\n        /* \"#utility.yul\":8636:8643   */\n      dup7\n        /* \"#utility.yul\":8632:8655   */\n      sub\n        /* \"#utility.yul\":8628:8660   */\n      slt\n        /* \"#utility.yul\":8625:8677   */\n      iszero\n      tag_359\n      jumpi\n        /* \"#utility.yul\":8673:8674   */\n      0x00\n        /* \"#utility.yul\":8670:8671   */\n      dup1\n        /* \"#utility.yul\":8663:8675   */\n      revert\n        /* \"#utility.yul\":8625:8677   */\n    tag_359:\n        /* \"#utility.yul\":8696:8736   */\n      tag_360\n        /* \"#utility.yul\":8726:8735   */\n      dup5\n        /* \"#utility.yul\":8696:8736   */\n      tag_305\n      jump\t// in\n    tag_360:\n        /* \"#utility.yul\":8686:8736   */\n      swap3\n      pop\n        /* \"#utility.yul\":8755:8804   */\n      tag_361\n        /* \"#utility.yul\":8800:8802   */\n      0x20\n        /* \"#utility.yul\":8789:8798   */\n      dup6\n        /* \"#utility.yul\":8785:8803   */\n      add\n        /* \"#utility.yul\":8755:8804   */\n      tag_305\n      jump\t// in\n    tag_361:\n        /* \"#utility.yul\":8745:8804   */\n      swap2\n      pop\n        /* \"#utility.yul\":8847:8849   */\n      0x40\n        /* \"#utility.yul\":8836:8845   */\n      dup5\n        /* \"#utility.yul\":8832:8850   */\n      add\n        /* \"#utility.yul\":8826:8851   */\n      mload\n        /* \"#utility.yul\":8891:8901   */\n      0xffffffff\n        /* \"#utility.yul\":8884:8889   */\n      dup2\n        /* \"#utility.yul\":8880:8902   */\n      and\n        /* \"#utility.yul\":8873:8878   */\n      dup2\n        /* \"#utility.yul\":8870:8903   */\n      eq\n        /* \"#utility.yul\":8860:8921   */\n      tag_362\n      jumpi\n        /* \"#utility.yul\":8917:8918   */\n      0x00\n        /* \"#utility.yul\":8914:8915   */\n      dup1\n        /* \"#utility.yul\":8907:8919   */\n      revert\n        /* \"#utility.yul\":8860:8921   */\n    tag_362:\n        /* \"#utility.yul\":8940:8945   */\n      dup1\n        /* \"#utility.yul\":8930:8945   */\n      swap2\n      pop\n      pop\n        /* \"#utility.yul\":8501:8951   */\n      swap3\n      pop\n      swap3\n      pop\n      swap3\n      jump\t// out\n\n    auxdata: 0xa2646970667358221220d9dc9b08bbadeb83f41e1c369e468383534d144fc2e11873f363da697d23104364736f6c63430008180033\n}\n",
				"bytecode": {
					"linkReferences": {},
					"object": "608060405260078054336001600160a01b03199182168117909255600880549091169091179055348015610031575f80fd5b5060405161176b38038061176b833981016040819052610050916102ca565b600580546001600160a01b039384166001600160a01b03199182161790915560068054929093169116179055601260205269d3c21bcecceda10000007f4270792c5242bb9af31a0ca014789585bac3a2bc36b4e20e1e1163e09d416afc5569b3fe97a2fafd2f4000007fea116540bb6c5b7acceccd1764953a76c4fad8a217efbc5957292a6f6549f6bb55696495cd356e2412e000007f52d0aceea21727f3645b59ed2a8e2414ba98aec7326945136bbb6fbd1d1bee8055693a56e28a8271153000007f9f59f72911ca8f47b3e19df7b8d808aa81d8edc8119614c7c316f6c84bb89c8b55692fa54641bae8aaa000007f5e6dc1ec65c205e4785800fc7cf7266df7ecc1251284c73df73cc438b1f9349855691003a3b3f593e40400007f5fe6cf215b4a13eaa2a7a4f22b2caee36bbae8f63be3ada50ba2209f503bdc7655690a968163f0a57b4000007f1cc964778659cb526f0f4fe148ec03d3f93f444a969aac8d1602a8004b60f6f85569098774738bc8222000007f77a856606c58f2afe74bc4d415a981c84b65392fcf7fefc382ded558bb92f4648190557fe916beb333cde8471a36b6e21a68b3ebdc7e0fe343cee63055523fb231ea11878190557f9717e554f4f1c8f1445175ec6b77439740ea6e0a2d3809501f0e3f3949c19e288190557f31c8277a0ccfffea1189152918c4cd07edee7f47b05bce3a4bae62597e6d602e8190557ff488cbb1c9f248560c55d6af8aff3d1b53d7743aee9b6e9d1423c012423064515560425f52690971c556131295e000007fa6a9599000f4425e443918d34a69c9234ba73b27460468e6463868ac68d263b8556102fb565b80516001600160a01b03811681146102c5575f80fd5b919050565b5f80604083850312156102db575f80fd5b6102e4836102af565b91506102f2602084016102af565b90509250929050565b611463806103085f395ff3fe608060405234801561000f575f80fd5b50600436106101a1575f3560e01c80638aca35a0116100f3578063b91f3f9711610093578063e372c9001161006e578063e372c90014610397578063f5ae497a1461039f578063f7c618c1146103b2578063fdf5963a146103c5575f80fd5b8063b91f3f9714610368578063d123273014610370578063ddd1b67e1461038f575f80fd5b8063a5b39cfb116100ce578063a5b39cfb14610318578063a87df83214610337578063b5a556d214610340578063b77cf9c614610349575f80fd5b80638aca35a0146102f45780638f90e902146102fd57806392f851c114610310575f80fd5b806367eeba0c1161015e5780636e90013d116101395780636e90013d1461028e57806373f273fc146102a157806375f0a874146102c0578063862a4d47146102eb575f80fd5b806367eeba0c1461023757806369a69e29146102405780636bd3b87c14610253575f80fd5b806306d2ad40146101a55780632be11ae2146101dc57806340519a53146101e6578063443df8f5146101f957806350f0a325146102265780635c9302c91461022e575b5f80fd5b6101c76101b33660046112ae565b60046020525f908152604090205460ff1681565b60405190151581526020015b60405180910390f35b6101e46103ce565b005b6101e46101f43660046112c7565b6108d6565b6102186102073660046112c7565b60126020525f908152604090205481565b6040519081526020016101d3565b610218600781565b610218600e5481565b61021860105481565b61021861024e3660046112ae565b610ab6565b6102796102613660046112ae565b60136020525f90815260409020805460019091015482565b604080519283526020830191909152016101d3565b6101e461029c3660046112de565b610b9a565b6102186102af3660046112ae565b60026020525f908152604090205481565b6008546102d3906001600160a01b031681565b6040516001600160a01b0390911681526020016101d3565b610218600d5481565b610218600f5481565b6101e461030b3660046112ae565b610c5b565b6101e4610cc5565b6102186103263660046112ae565b60016020525f908152604090205481565b610218600c5481565b61021860115481565b6102186103573660046112ae565b5f6020819052908152604090205481565b6101e4610e09565b61021861037e3660046112ae565b60036020525f908152604090205481565b610218611008565b610218605a81565b6005546102d3906001600160a01b031681565b6006546102d3906001600160a01b031681565b610218600a5481565b335f908152602081905260408120546103e7904261131a565b335f9081526003602052604081205491925090610404904261131a565b9050600782101561046d5760405162461bcd60e51b815260206004820152602860248201527f4d7573742077616974206174206c6561737420372064617973206265747765656044820152676e20636c61696d7360c01b60648201526084015b60405180910390fd5b605a8110156104cd5760405162461bcd60e51b815260206004820152602660248201527f43616e6e6f7420636c61696d206265666f72652039302064617973206f66207360448201526574616b696e6760d01b6064820152608401610464565b335f9081526001602052604090205461051b5760405162461bcd60e51b815260206004820152601060248201526f4e6f207374616b656420746f6b656e7360801b6044820152606401610464565b610523611008565b600d541461055f57610533611008565b600d55600c60125f61054361101b565b81526020019081526020015f205461055b919061132d565b600f555b600e5461056f620151804261132d565b146105bd57610581620151804261132d565b600e55601e600c60125f61059361101b565b81526020019081526020015f20546105ab919061132d565b6105b5919061132d565b6010555f6011555b60426105c761101b565b11156105f457690971c556131295e0000060125f6105e361101b565b815260208101919091526040015f20555b600954335f90815260016020526040812054909161016d9160128461061761101b565b81526020019081526020015f205461062f919061134c565b610639919061132d565b610643919061132d565b90505f61066461065460078661132d565b61065f605a8661132d565b61102a565b90505f610671828461134c565b335f9081526002602052604081208290556011546010549293509091610697919061131a565b90505f6106a4838361102a565b600954335f90815260016020526040902054919250906106c4908361134c565b6106ce919061132d565b335f908152600260205260408120805492935083929091906106f190849061131a565b9250508190555080600c5f8282546107099190611363565b925050819055508060115f8282546107219190611363565b90915550508061076a5760405162461bcd60e51b81526020600482015260146024820152734e6f20636c61696d61626c65207265776172647360601b6044820152606401610464565b5f612710610776611043565b610780908461134c565b61078a919061132d565b9050610796818361131a565b915081156108895760065460405163a9059cbb60e01b8152336004820152602481018490526001600160a01b039091169063a9059cbb906044016020604051808303815f875af11580156107ec573d5f803e3d5ffd5b505050506040513d601f19601f820116820180604052508101906108109190611376565b5060065460085460405163a9059cbb60e01b81526001600160a01b0391821660048201526024810184905291169063a9059cbb906044016020604051808303815f875af1158015610863573d5f803e3d5ffd5b505050506040513d601f19601f820116820180604052508101906108879190611376565b505b335f818152602081815260409182902042905590518481527fa0703c548e4f3579a5b862677f6e9a97ac2d85326ddb959deb9b37a802253232910160405180910390a25050505050505050565b5f6108e033611094565b9050620f42408110156109355760405162461bcd60e51b815260206004820152601860248201527f696e7375666669656e7420706f6f6c656420416d6f756e7400000000000000006044820152606401610464565b6005546040516323b872dd60e01b8152336004820152306024820152604481018490526001600160a01b03909116906323b872dd906064016020604051808303815f875af1158015610989573d5f803e3d5ffd5b505050506040513d601f19601f820116820180604052508101906109ad9190611376565b6109f45760405162461bcd60e51b81526020600482015260186024820152771314081d1bdad95b881d1c985b9cd9995c8819985a5b195960421b6044820152606401610464565b5f610a00605a42611363565b335f8181526003602090815260408083204290558051808201825288815280830186815294845260139092528220905181559151600190920191909155600980549293508592909190610a54908490611363565b9091555050335f9081526001602052604081208054859290610a77908490611363565b909155505060405183815233907fe1954443838ef603b0d4c78380e8ce8fa0cbd3126aafb585e9072cf90185fa589060200160405180910390a2505050565b335f908152602081905260408120548190610ad1904261131a565b335f9081526003602052604081205491925090610aee904261131a565b90506007821080610aff5750605a81105b15610b0d57505f9392505050565b5f610b27610b1c60078561132d565b61065f605a8561132d565b6009546001600160a01b0387165f908152600160205260408120549293509161016d9190601284610b5661101b565b81526020019081526020015f2054610b6e919061134c565b610b78919061132d565b610b82919061132d565b90505f610b8f838361134c565b979650505050505050565b6007546001600160a01b03163314610be25760405162461bcd60e51b815260206004820152600b60248201526a1b9bdd08105b1b1bddd95960aa1b6044820152606401610464565b60075460405163a9059cbb60e01b81526001600160a01b039182166004820152602481018390529083169063a9059cbb906044016020604051808303815f875af1158015610c32573d5f803e3d5ffd5b505050506040513d601f19601f82011682018060405250810190610c569190611376565b505050565b6007546001600160a01b03163314610ca35760405162461bcd60e51b815260206004820152600b60248201526a1b9bdd08105b1b1bddd95960aa1b6044820152606401610464565b600580546001600160a01b0319166001600160a01b0392909216919091179055565b6006546040516370a0823160e01b81523360048201525f916001600160a01b0316906370a0823190602401602060405180830381865afa158015610d0b573d5f803e3d5ffd5b505050506040513d601f19601f82011682018060405250810190610d2f919061139c565b11610d6c5760405162461bcd60e51b815260206004820152600d60248201526c5a65726f20486f6c64696e677360981b6044820152606401610464565b335f9081526004602052604090205460ff1615610dda5760405162461bcd60e51b815260206004820152602660248201527f596f75206861766520616c7265616479206170706c69656420666f72207265646044820152653ab1ba34b7b760d11b6064820152608401610464565b600a8054905f610de9836113b3565b9091555050335f908152600460205260409020805460ff19166001179055565b335f90815260036020526040902054610e2490605a90611363565b421015610e735760405162461bcd60e51b815260206004820152601c60248201527f43616e6e6f7420756e6c6f636b206265666f72652039302064617973000000006044820152606401610464565b335f9081526013602052604090205480610ec25760405162461bcd60e51b815260206004820152601060248201526f4e6f206c6f636b656420746f6b656e7360801b6044820152606401610464565b60055460405163a9059cbb60e01b8152336004820152602481018390526001600160a01b039091169063a9059cbb906044016020604051808303815f875af1158015610f10573d5f803e3d5ffd5b505050506040513d601f19601f82011682018060405250810190610f349190611376565b610f7b5760405162461bcd60e51b81526020600482015260186024820152771314081d1bdad95b881d1c985b9cd9995c8819985a5b195960421b6044820152606401610464565b8060095f828254610f8c919061131a565b9091555050335f9081526001602052604081208054839290610faf90849061131a565b9091555050335f8181526013602052604080822082815560010191909155517f580ec6003f06a23971f7ccdb029ae688764884d7361687066e352d1ff602447390610ffd9084815260200190565b60405180910390a250565b5f61101662278d004261132d565b905090565b5f6110166301e133804261132d565b5f818310611038578161103a565b825b90505b92915050565b5f620f4240600a541061105a576032600b5561108d565b62989680600a5410611070576019600b5561108d565b6305f5e100600a541061108757600c600b5561108d565b6064600b555b50600b5490565b6005545f906001600160a01b03166110ee5760405162461bcd60e51b815260206004820152601c60248201527f556e697377617020706f6f6c2061646472657373206e6f7420736574000000006044820152606401610464565b6005546040516370a0823160e01b81526001600160a01b0384811660048301525f9216906370a0823190602401602060405180830381865afa158015611136573d5f803e3d5ffd5b505050506040513d601f19601f8201168201806040525081019061115a919061139c565b90505f60055f9054906101000a90046001600160a01b03166001600160a01b03166318160ddd6040518163ffffffff1660e01b8152600401602060405180830381865afa1580156111ad573d5f803e3d5ffd5b505050506040513d601f19601f820116820180604052508101906111d1919061139c565b90505f60055f9054906101000a90046001600160a01b03166001600160a01b0316630902f1ac6040518163ffffffff1660e01b8152600401606060405180830381865afa158015611224573d5f803e3d5ffd5b505050506040513d601f19601f8201168201806040525081019061124891906113e1565b50506001600160701b031690505f8261126985670de0b6b3a764000061134c565b611273919061132d565b90505f670de0b6b3a7640000611289848461134c565b610b8f919061132d565b80356001600160a01b03811681146112a9575f80fd5b919050565b5f602082840312156112be575f80fd5b61103a82611293565b5f602082840312156112d7575f80fd5b5035919050565b5f80604083850312156112ef575f80fd5b6112f883611293565b946020939093013593505050565b634e487b7160e01b5f52601160045260245ffd5b8181038181111561103d5761103d611306565b5f8261134757634e487b7160e01b5f52601260045260245ffd5b500490565b808202811582820484141761103d5761103d611306565b8082018082111561103d5761103d611306565b5f60208284031215611386575f80fd5b81518015158114611395575f80fd5b9392505050565b5f602082840312156113ac575f80fd5b5051919050565b5f600182016113c4576113c4611306565b5060010190565b80516001600160701b03811681146112a9575f80fd5b5f805f606084860312156113f3575f80fd5b6113fc846113cb565b925061140a602085016113cb565b9150604084015163ffffffff81168114611422575f80fd5b80915050925092509256fea2646970667358221220d9dc9b08bbadeb83f41e1c369e468383534d144fc2e11873f363da697d23104364736f6c63430008180033",
					"opcodes": "PUSH1 0x80 PUSH1 0x40 MSTORE PUSH1 0x7 DUP1 SLOAD CALLER PUSH1 0x1 PUSH1 0x1 PUSH1 0xA0 SHL SUB NOT SWAP2 DUP3 AND DUP2 OR SWAP1 SWAP3 SSTORE PUSH1 0x8 DUP1 SLOAD SWAP1 SWAP2 AND SWAP1 SWAP2 OR SWAP1 SSTORE CALLVALUE DUP1 ISZERO PUSH2 0x31 JUMPI PUSH0 DUP1 REVERT JUMPDEST POP PUSH1 0x40 MLOAD PUSH2 0x176B CODESIZE SUB DUP1 PUSH2 0x176B DUP4 CODECOPY DUP2 ADD PUSH1 0x40 DUP2 SWAP1 MSTORE PUSH2 0x50 SWAP2 PUSH2 0x2CA JUMP JUMPDEST PUSH1 0x5 DUP1 SLOAD PUSH1 0x1 PUSH1 0x1 PUSH1 0xA0 SHL SUB SWAP4 DUP5 AND PUSH1 0x1 PUSH1 0x1 PUSH1 0xA0 SHL SUB NOT SWAP2 DUP3 AND OR SWAP1 SWAP2 SSTORE PUSH1 0x6 DUP1 SLOAD SWAP3 SWAP1 SWAP4 AND SWAP2 AND OR SWAP1 SSTORE PUSH1 0x12 PUSH1 0x20 MSTORE PUSH10 0xD3C21BCECCEDA1000000 PUSH32 0x4270792C5242BB9AF31A0CA014789585BAC3A2BC36B4E20E1E1163E09D416AFC SSTORE PUSH10 0xB3FE97A2FAFD2F400000 PUSH32 0xEA116540BB6C5B7ACCECCD1764953A76C4FAD8A217EFBC5957292A6F6549F6BB SSTORE PUSH10 0x6495CD356E2412E00000 PUSH32 0x52D0ACEEA21727F3645B59ED2A8E2414BA98AEC7326945136BBB6FBD1D1BEE80 SSTORE PUSH10 0x3A56E28A827115300000 PUSH32 0x9F59F72911CA8F47B3E19DF7B8D808AA81D8EDC8119614C7C316F6C84BB89C8B SSTORE PUSH10 0x2FA54641BAE8AAA00000 PUSH32 0x5E6DC1EC65C205E4785800FC7CF7266DF7ECC1251284C73DF73CC438B1F93498 SSTORE PUSH10 0x1003A3B3F593E4040000 PUSH32 0x5FE6CF215B4A13EAA2A7A4F22B2CAEE36BBAE8F63BE3ADA50BA2209F503BDC76 SSTORE PUSH10 0xA968163F0A57B400000 PUSH32 0x1CC964778659CB526F0F4FE148EC03D3F93F444A969AAC8D1602A8004B60F6F8 SSTORE PUSH10 0x98774738BC822200000 PUSH32 0x77A856606C58F2AFE74BC4D415A981C84B65392FCF7FEFC382DED558BB92F464 DUP2 SWAP1 SSTORE PUSH32 0xE916BEB333CDE8471A36B6E21A68B3EBDC7E0FE343CEE63055523FB231EA1187 DUP2 SWAP1 SSTORE PUSH32 0x9717E554F4F1C8F1445175EC6B77439740EA6E0A2D3809501F0E3F3949C19E28 DUP2 SWAP1 SSTORE PUSH32 0x31C8277A0CCFFFEA1189152918C4CD07EDEE7F47B05BCE3A4BAE62597E6D602E DUP2 SWAP1 SSTORE PUSH32 0xF488CBB1C9F248560C55D6AF8AFF3D1B53D7743AEE9B6E9D1423C01242306451 SSTORE PUSH1 0x42 PUSH0 MSTORE PUSH10 0x971C556131295E00000 PUSH32 0xA6A9599000F4425E443918D34A69C9234BA73B27460468E6463868AC68D263B8 SSTORE PUSH2 0x2FB JUMP JUMPDEST DUP1 MLOAD PUSH1 0x1 PUSH1 0x1 PUSH1 0xA0 SHL SUB DUP2 AND DUP2 EQ PUSH2 0x2C5 JUMPI PUSH0 DUP1 REVERT JUMPDEST SWAP2 SWAP1 POP JUMP JUMPDEST PUSH0 DUP1 PUSH1 0x40 DUP4 DUP6 SUB SLT ISZERO PUSH2 0x2DB JUMPI PUSH0 DUP1 REVERT JUMPDEST PUSH2 0x2E4 DUP4 PUSH2 0x2AF JUMP JUMPDEST SWAP2 POP PUSH2 0x2F2 PUSH1 0x20 DUP5 ADD PUSH2 0x2AF JUMP JUMPDEST SWAP1 POP SWAP3 POP SWAP3 SWAP1 POP JUMP JUMPDEST PUSH2 0x1463 DUP1 PUSH2 0x308 PUSH0 CODECOPY PUSH0 RETURN INVALID PUSH1 0x80 PUSH1 0x40 MSTORE CALLVALUE DUP1 ISZERO PUSH2 0xF JUMPI PUSH0 DUP1 REVERT JUMPDEST POP PUSH1 0x4 CALLDATASIZE LT PUSH2 0x1A1 JUMPI PUSH0 CALLDATALOAD PUSH1 0xE0 SHR DUP1 PUSH4 0x8ACA35A0 GT PUSH2 0xF3 JUMPI DUP1 PUSH4 0xB91F3F97 GT PUSH2 0x93 JUMPI DUP1 PUSH4 0xE372C900 GT PUSH2 0x6E JUMPI DUP1 PUSH4 0xE372C900 EQ PUSH2 0x397 JUMPI DUP1 PUSH4 0xF5AE497A EQ PUSH2 0x39F JUMPI DUP1 PUSH4 0xF7C618C1 EQ PUSH2 0x3B2 JUMPI DUP1 PUSH4 0xFDF5963A EQ PUSH2 0x3C5 JUMPI PUSH0 DUP1 REVERT JUMPDEST DUP1 PUSH4 0xB91F3F97 EQ PUSH2 0x368 JUMPI DUP1 PUSH4 0xD1232730 EQ PUSH2 0x370 JUMPI DUP1 PUSH4 0xDDD1B67E EQ PUSH2 0x38F JUMPI PUSH0 DUP1 REVERT JUMPDEST DUP1 PUSH4 0xA5B39CFB GT PUSH2 0xCE JUMPI DUP1 PUSH4 0xA5B39CFB EQ PUSH2 0x318 JUMPI DUP1 PUSH4 0xA87DF832 EQ PUSH2 0x337 JUMPI DUP1 PUSH4 0xB5A556D2 EQ PUSH2 0x340 JUMPI DUP1 PUSH4 0xB77CF9C6 EQ PUSH2 0x349 JUMPI PUSH0 DUP1 REVERT JUMPDEST DUP1 PUSH4 0x8ACA35A0 EQ PUSH2 0x2F4 JUMPI DUP1 PUSH4 0x8F90E902 EQ PUSH2 0x2FD JUMPI DUP1 PUSH4 0x92F851C1 EQ PUSH2 0x310 JUMPI PUSH0 DUP1 REVERT JUMPDEST DUP1 PUSH4 0x67EEBA0C GT PUSH2 0x15E JUMPI DUP1 PUSH4 0x6E90013D GT PUSH2 0x139 JUMPI DUP1 PUSH4 0x6E90013D EQ PUSH2 0x28E JUMPI DUP1 PUSH4 0x73F273FC EQ PUSH2 0x2A1 JUMPI DUP1 PUSH4 0x75F0A874 EQ PUSH2 0x2C0 JUMPI DUP1 PUSH4 0x862A4D47 EQ PUSH2 0x2EB JUMPI PUSH0 DUP1 REVERT JUMPDEST DUP1 PUSH4 0x67EEBA0C EQ PUSH2 0x237 JUMPI DUP1 PUSH4 0x69A69E29 EQ PUSH2 0x240 JUMPI DUP1 PUSH4 0x6BD3B87C EQ PUSH2 0x253 JUMPI PUSH0 DUP1 REVERT JUMPDEST DUP1 PUSH4 0x6D2AD40 EQ PUSH2 0x1A5 JUMPI DUP1 PUSH4 0x2BE11AE2 EQ PUSH2 0x1DC JUMPI DUP1 PUSH4 0x40519A53 EQ PUSH2 0x1E6 JUMPI DUP1 PUSH4 0x443DF8F5 EQ PUSH2 0x1F9 JUMPI DUP1 PUSH4 0x50F0A325 EQ PUSH2 0x226 JUMPI DUP1 PUSH4 0x5C9302C9 EQ PUSH2 0x22E JUMPI JUMPDEST PUSH0 DUP1 REVERT JUMPDEST PUSH2 0x1C7 PUSH2 0x1B3 CALLDATASIZE PUSH1 0x4 PUSH2 0x12AE JUMP JUMPDEST PUSH1 0x4 PUSH1 0x20 MSTORE PUSH0 SWAP1 DUP2 MSTORE PUSH1 0x40 SWAP1 KECCAK256 SLOAD PUSH1 0xFF AND DUP2 JUMP JUMPDEST PUSH1 0x40 MLOAD SWAP1 ISZERO ISZERO DUP2 MSTORE PUSH1 0x20 ADD JUMPDEST PUSH1 0x40 MLOAD DUP1 SWAP2 SUB SWAP1 RETURN JUMPDEST PUSH2 0x1E4 PUSH2 0x3CE JUMP JUMPDEST STOP JUMPDEST PUSH2 0x1E4 PUSH2 0x1F4 CALLDATASIZE PUSH1 0x4 PUSH2 0x12C7 JUMP JUMPDEST PUSH2 0x8D6 JUMP JUMPDEST PUSH2 0x218 PUSH2 0x207 CALLDATASIZE PUSH1 0x4 PUSH2 0x12C7 JUMP JUMPDEST PUSH1 0x12 PUSH1 0x20 MSTORE PUSH0 SWAP1 DUP2 MSTORE PUSH1 0x40 SWAP1 KECCAK256 SLOAD DUP2 JUMP JUMPDEST PUSH1 0x40 MLOAD SWAP1 DUP2 MSTORE PUSH1 0x20 ADD PUSH2 0x1D3 JUMP JUMPDEST PUSH2 0x218 PUSH1 0x7 DUP2 JUMP JUMPDEST PUSH2 0x218 PUSH1 0xE SLOAD DUP2 JUMP JUMPDEST PUSH2 0x218 PUSH1 0x10 SLOAD DUP2 JUMP JUMPDEST PUSH2 0x218 PUSH2 0x24E CALLDATASIZE PUSH1 0x4 PUSH2 0x12AE JUMP JUMPDEST PUSH2 0xAB6 JUMP JUMPDEST PUSH2 0x279 PUSH2 0x261 CALLDATASIZE PUSH1 0x4 PUSH2 0x12AE JUMP JUMPDEST PUSH1 0x13 PUSH1 0x20 MSTORE PUSH0 SWAP1 DUP2 MSTORE PUSH1 0x40 SWAP1 KECCAK256 DUP1 SLOAD PUSH1 0x1 SWAP1 SWAP2 ADD SLOAD DUP3 JUMP JUMPDEST PUSH1 0x40 DUP1 MLOAD SWAP3 DUP4 MSTORE PUSH1 0x20 DUP4 ADD SWAP2 SWAP1 SWAP2 MSTORE ADD PUSH2 0x1D3 JUMP JUMPDEST PUSH2 0x1E4 PUSH2 0x29C CALLDATASIZE PUSH1 0x4 PUSH2 0x12DE JUMP JUMPDEST PUSH2 0xB9A JUMP JUMPDEST PUSH2 0x218 PUSH2 0x2AF CALLDATASIZE PUSH1 0x4 PUSH2 0x12AE JUMP JUMPDEST PUSH1 0x2 PUSH1 0x20 MSTORE PUSH0 SWAP1 DUP2 MSTORE PUSH1 0x40 SWAP1 KECCAK256 SLOAD DUP2 JUMP JUMPDEST PUSH1 0x8 SLOAD PUSH2 0x2D3 SWAP1 PUSH1 0x1 PUSH1 0x1 PUSH1 0xA0 SHL SUB AND DUP2 JUMP JUMPDEST PUSH1 0x40 MLOAD PUSH1 0x1 PUSH1 0x1 PUSH1 0xA0 SHL SUB SWAP1 SWAP2 AND DUP2 MSTORE PUSH1 0x20 ADD PUSH2 0x1D3 JUMP JUMPDEST PUSH2 0x218 PUSH1 0xD SLOAD DUP2 JUMP JUMPDEST PUSH2 0x218 PUSH1 0xF SLOAD DUP2 JUMP JUMPDEST PUSH2 0x1E4 PUSH2 0x30B CALLDATASIZE PUSH1 0x4 PUSH2 0x12AE JUMP JUMPDEST PUSH2 0xC5B JUMP JUMPDEST PUSH2 0x1E4 PUSH2 0xCC5 JUMP JUMPDEST PUSH2 0x218 PUSH2 0x326 CALLDATASIZE PUSH1 0x4 PUSH2 0x12AE JUMP JUMPDEST PUSH1 0x1 PUSH1 0x20 MSTORE PUSH0 SWAP1 DUP2 MSTORE PUSH1 0x40 SWAP1 KECCAK256 SLOAD DUP2 JUMP JUMPDEST PUSH2 0x218 PUSH1 0xC SLOAD DUP2 JUMP JUMPDEST PUSH2 0x218 PUSH1 0x11 SLOAD DUP2 JUMP JUMPDEST PUSH2 0x218 PUSH2 0x357 CALLDATASIZE PUSH1 0x4 PUSH2 0x12AE JUMP JUMPDEST PUSH0 PUSH1 0x20 DUP2 SWAP1 MSTORE SWAP1 DUP2 MSTORE PUSH1 0x40 SWAP1 KECCAK256 SLOAD DUP2 JUMP JUMPDEST PUSH2 0x1E4 PUSH2 0xE09 JUMP JUMPDEST PUSH2 0x218 PUSH2 0x37E CALLDATASIZE PUSH1 0x4 PUSH2 0x12AE JUMP JUMPDEST PUSH1 0x3 PUSH1 0x20 MSTORE PUSH0 SWAP1 DUP2 MSTORE PUSH1 0x40 SWAP1 KECCAK256 SLOAD DUP2 JUMP JUMPDEST PUSH2 0x218 PUSH2 0x1008 JUMP JUMPDEST PUSH2 0x218 PUSH1 0x5A DUP2 JUMP JUMPDEST PUSH1 0x5 SLOAD PUSH2 0x2D3 SWAP1 PUSH1 0x1 PUSH1 0x1 PUSH1 0xA0 SHL SUB AND DUP2 JUMP JUMPDEST PUSH1 0x6 SLOAD PUSH2 0x2D3 SWAP1 PUSH1 0x1 PUSH1 0x1 PUSH1 0xA0 SHL SUB AND DUP2 JUMP JUMPDEST PUSH2 0x218 PUSH1 0xA SLOAD DUP2 JUMP JUMPDEST CALLER PUSH0 SWAP1 DUP2 MSTORE PUSH1 0x20 DUP2 SWAP1 MSTORE PUSH1 0x40 DUP2 KECCAK256 SLOAD PUSH2 0x3E7 SWAP1 TIMESTAMP PUSH2 0x131A JUMP JUMPDEST CALLER PUSH0 SWAP1 DUP2 MSTORE PUSH1 0x3 PUSH1 0x20 MSTORE PUSH1 0x40 DUP2 KECCAK256 SLOAD SWAP2 SWAP3 POP SWAP1 PUSH2 0x404 SWAP1 TIMESTAMP PUSH2 0x131A JUMP JUMPDEST SWAP1 POP PUSH1 0x7 DUP3 LT ISZERO PUSH2 0x46D JUMPI PUSH1 0x40 MLOAD PUSH3 0x461BCD PUSH1 0xE5 SHL DUP2 MSTORE PUSH1 0x20 PUSH1 0x4 DUP3 ADD MSTORE PUSH1 0x28 PUSH1 0x24 DUP3 ADD MSTORE PUSH32 0x4D7573742077616974206174206C656173742037206461797320626574776565 PUSH1 0x44 DUP3 ADD MSTORE PUSH8 0x6E20636C61696D73 PUSH1 0xC0 SHL PUSH1 0x64 DUP3 ADD MSTORE PUSH1 0x84 ADD JUMPDEST PUSH1 0x40 MLOAD DUP1 SWAP2 SUB SWAP1 REVERT JUMPDEST PUSH1 0x5A DUP2 LT ISZERO PUSH2 0x4CD JUMPI PUSH1 0x40 MLOAD PUSH3 0x461BCD PUSH1 0xE5 SHL DUP2 MSTORE PUSH1 0x20 PUSH1 0x4 DUP3 ADD MSTORE PUSH1 0x26 PUSH1 0x24 DUP3 ADD MSTORE PUSH32 0x43616E6E6F7420636C61696D206265666F72652039302064617973206F662073 PUSH1 0x44 DUP3 ADD MSTORE PUSH6 0x74616B696E67 PUSH1 0xD0 SHL PUSH1 0x64 DUP3 ADD MSTORE PUSH1 0x84 ADD PUSH2 0x464 JUMP JUMPDEST CALLER PUSH0 SWAP1 DUP2 MSTORE PUSH1 0x1 PUSH1 0x20 MSTORE PUSH1 0x40 SWAP1 KECCAK256 SLOAD PUSH2 0x51B JUMPI PUSH1 0x40 MLOAD PUSH3 0x461BCD PUSH1 0xE5 SHL DUP2 MSTORE PUSH1 0x20 PUSH1 0x4 DUP3 ADD MSTORE PUSH1 0x10 PUSH1 0x24 DUP3 ADD MSTORE PUSH16 0x4E6F207374616B656420746F6B656E73 PUSH1 0x80 SHL PUSH1 0x44 DUP3 ADD MSTORE PUSH1 0x64 ADD PUSH2 0x464 JUMP JUMPDEST PUSH2 0x523 PUSH2 0x1008 JUMP JUMPDEST PUSH1 0xD SLOAD EQ PUSH2 0x55F JUMPI PUSH2 0x533 PUSH2 0x1008 JUMP JUMPDEST PUSH1 0xD SSTORE PUSH1 0xC PUSH1 0x12 PUSH0 PUSH2 0x543 PUSH2 0x101B JUMP JUMPDEST DUP2 MSTORE PUSH1 0x20 ADD SWAP1 DUP2 MSTORE PUSH1 0x20 ADD PUSH0 KECCAK256 SLOAD PUSH2 0x55B SWAP2 SWAP1 PUSH2 0x132D JUMP JUMPDEST PUSH1 0xF SSTORE JUMPDEST PUSH1 0xE SLOAD PUSH2 0x56F PUSH3 0x15180 TIMESTAMP PUSH2 0x132D JUMP JUMPDEST EQ PUSH2 0x5BD JUMPI PUSH2 0x581 PUSH3 0x15180 TIMESTAMP PUSH2 0x132D JUMP JUMPDEST PUSH1 0xE SSTORE PUSH1 0x1E PUSH1 0xC PUSH1 0x12 PUSH0 PUSH2 0x593 PUSH2 0x101B JUMP JUMPDEST DUP2 MSTORE PUSH1 0x20 ADD SWAP1 DUP2 MSTORE PUSH1 0x20 ADD PUSH0 KECCAK256 SLOAD PUSH2 0x5AB SWAP2 SWAP1 PUSH2 0x132D JUMP JUMPDEST PUSH2 0x5B5 SWAP2 SWAP1 PUSH2 0x132D JUMP JUMPDEST PUSH1 0x10 SSTORE PUSH0 PUSH1 0x11 SSTORE JUMPDEST PUSH1 0x42 PUSH2 0x5C7 PUSH2 0x101B JUMP JUMPDEST GT ISZERO PUSH2 0x5F4 JUMPI PUSH10 0x971C556131295E00000 PUSH1 0x12 PUSH0 PUSH2 0x5E3 PUSH2 0x101B JUMP JUMPDEST DUP2 MSTORE PUSH1 0x20 DUP2 ADD SWAP2 SWAP1 SWAP2 MSTORE PUSH1 0x40 ADD PUSH0 KECCAK256 SSTORE JUMPDEST PUSH1 0x9 SLOAD CALLER PUSH0 SWAP1 DUP2 MSTORE PUSH1 0x1 PUSH1 0x20 MSTORE PUSH1 0x40 DUP2 KECCAK256 SLOAD SWAP1 SWAP2 PUSH2 0x16D SWAP2 PUSH1 0x12 DUP5 PUSH2 0x617 PUSH2 0x101B JUMP JUMPDEST DUP2 MSTORE PUSH1 0x20 ADD SWAP1 DUP2 MSTORE PUSH1 0x20 ADD PUSH0 KECCAK256 SLOAD PUSH2 0x62F SWAP2 SWAP1 PUSH2 0x134C JUMP JUMPDEST PUSH2 0x639 SWAP2 SWAP1 PUSH2 0x132D JUMP JUMPDEST PUSH2 0x643 SWAP2 SWAP1 PUSH2 0x132D JUMP JUMPDEST SWAP1 POP PUSH0 PUSH2 0x664 PUSH2 0x654 PUSH1 0x7 DUP7 PUSH2 0x132D JUMP JUMPDEST PUSH2 0x65F PUSH1 0x5A DUP7 PUSH2 0x132D JUMP JUMPDEST PUSH2 0x102A JUMP JUMPDEST SWAP1 POP PUSH0 PUSH2 0x671 DUP3 DUP5 PUSH2 0x134C JUMP JUMPDEST CALLER PUSH0 SWAP1 DUP2 MSTORE PUSH1 0x2 PUSH1 0x20 MSTORE PUSH1 0x40 DUP2 KECCAK256 DUP3 SWAP1 SSTORE PUSH1 0x11 SLOAD PUSH1 0x10 SLOAD SWAP3 SWAP4 POP SWAP1 SWAP2 PUSH2 0x697 SWAP2 SWAP1 PUSH2 0x131A JUMP JUMPDEST SWAP1 POP PUSH0 PUSH2 0x6A4 DUP4 DUP4 PUSH2 0x102A JUMP JUMPDEST PUSH1 0x9 SLOAD CALLER PUSH0 SWAP1 DUP2 MSTORE PUSH1 0x1 PUSH1 0x20 MSTORE PUSH1 0x40 SWAP1 KECCAK256 SLOAD SWAP2 SWAP3 POP SWAP1 PUSH2 0x6C4 SWAP1 DUP4 PUSH2 0x134C JUMP JUMPDEST PUSH2 0x6CE SWAP2 SWAP1 PUSH2 0x132D JUMP JUMPDEST CALLER PUSH0 SWAP1 DUP2 MSTORE PUSH1 0x2 PUSH1 0x20 MSTORE PUSH1 0x40 DUP2 KECCAK256 DUP1 SLOAD SWAP3 SWAP4 POP DUP4 SWAP3 SWAP1 SWAP2 SWAP1 PUSH2 0x6F1 SWAP1 DUP5 SWAP1 PUSH2 0x131A JUMP JUMPDEST SWAP3 POP POP DUP2 SWAP1 SSTORE POP DUP1 PUSH1 0xC PUSH0 DUP3 DUP3 SLOAD PUSH2 0x709 SWAP2 SWAP1 PUSH2 0x1363 JUMP JUMPDEST SWAP3 POP POP DUP2 SWAP1 SSTORE POP DUP1 PUSH1 0x11 PUSH0 DUP3 DUP3 SLOAD PUSH2 0x721 SWAP2 SWAP1 PUSH2 0x1363 JUMP JUMPDEST SWAP1 SWAP2 SSTORE POP POP DUP1 PUSH2 0x76A JUMPI PUSH1 0x40 MLOAD PUSH3 0x461BCD PUSH1 0xE5 SHL DUP2 MSTORE PUSH1 0x20 PUSH1 0x4 DUP3 ADD MSTORE PUSH1 0x14 PUSH1 0x24 DUP3 ADD MSTORE PUSH20 0x4E6F20636C61696D61626C652072657761726473 PUSH1 0x60 SHL PUSH1 0x44 DUP3 ADD MSTORE PUSH1 0x64 ADD PUSH2 0x464 JUMP JUMPDEST PUSH0 PUSH2 0x2710 PUSH2 0x776 PUSH2 0x1043 JUMP JUMPDEST PUSH2 0x780 SWAP1 DUP5 PUSH2 0x134C JUMP JUMPDEST PUSH2 0x78A SWAP2 SWAP1 PUSH2 0x132D JUMP JUMPDEST SWAP1 POP PUSH2 0x796 DUP2 DUP4 PUSH2 0x131A JUMP JUMPDEST SWAP2 POP DUP2 ISZERO PUSH2 0x889 JUMPI PUSH1 0x6 SLOAD PUSH1 0x40 MLOAD PUSH4 0xA9059CBB PUSH1 0xE0 SHL DUP2 MSTORE CALLER PUSH1 0x4 DUP3 ADD MSTORE PUSH1 0x24 DUP2 ADD DUP5 SWAP1 MSTORE PUSH1 0x1 PUSH1 0x1 PUSH1 0xA0 SHL SUB SWAP1 SWAP2 AND SWAP1 PUSH4 0xA9059CBB SWAP1 PUSH1 0x44 ADD PUSH1 0x20 PUSH1 0x40 MLOAD DUP1 DUP4 SUB DUP2 PUSH0 DUP8 GAS CALL ISZERO DUP1 ISZERO PUSH2 0x7EC JUMPI RETURNDATASIZE PUSH0 DUP1 RETURNDATACOPY RETURNDATASIZE PUSH0 REVERT JUMPDEST POP POP POP POP PUSH1 0x40 MLOAD RETURNDATASIZE PUSH1 0x1F NOT PUSH1 0x1F DUP3 ADD AND DUP3 ADD DUP1 PUSH1 0x40 MSTORE POP DUP2 ADD SWAP1 PUSH2 0x810 SWAP2 SWAP1 PUSH2 0x1376 JUMP JUMPDEST POP PUSH1 0x6 SLOAD PUSH1 0x8 SLOAD PUSH1 0x40 MLOAD PUSH4 0xA9059CBB PUSH1 0xE0 SHL DUP2 MSTORE PUSH1 0x1 PUSH1 0x1 PUSH1 0xA0 SHL SUB SWAP2 DUP3 AND PUSH1 0x4 DUP3 ADD MSTORE PUSH1 0x24 DUP2 ADD DUP5 SWAP1 MSTORE SWAP2 AND SWAP1 PUSH4 0xA9059CBB SWAP1 PUSH1 0x44 ADD PUSH1 0x20 PUSH1 0x40 MLOAD DUP1 DUP4 SUB DUP2 PUSH0 DUP8 GAS CALL ISZERO DUP1 ISZERO PUSH2 0x863 JUMPI RETURNDATASIZE PUSH0 DUP1 RETURNDATACOPY RETURNDATASIZE PUSH0 REVERT JUMPDEST POP POP POP POP PUSH1 0x40 MLOAD RETURNDATASIZE PUSH1 0x1F NOT PUSH1 0x1F DUP3 ADD AND DUP3 ADD DUP1 PUSH1 0x40 MSTORE POP DUP2 ADD SWAP1 PUSH2 0x887 SWAP2 SWAP1 PUSH2 0x1376 JUMP JUMPDEST POP JUMPDEST CALLER PUSH0 DUP2 DUP2 MSTORE PUSH1 0x20 DUP2 DUP2 MSTORE PUSH1 0x40 SWAP2 DUP3 SWAP1 KECCAK256 TIMESTAMP SWAP1 SSTORE SWAP1 MLOAD DUP5 DUP2 MSTORE PUSH32 0xA0703C548E4F3579A5B862677F6E9A97AC2D85326DDB959DEB9B37A802253232 SWAP2 ADD PUSH1 0x40 MLOAD DUP1 SWAP2 SUB SWAP1 LOG2 POP POP POP POP POP POP POP POP JUMP JUMPDEST PUSH0 PUSH2 0x8E0 CALLER PUSH2 0x1094 JUMP JUMPDEST SWAP1 POP PUSH3 0xF4240 DUP2 LT ISZERO PUSH2 0x935 JUMPI PUSH1 0x40 MLOAD PUSH3 0x461BCD PUSH1 0xE5 SHL DUP2 MSTORE PUSH1 0x20 PUSH1 0x4 DUP3 ADD MSTORE PUSH1 0x18 PUSH1 0x24 DUP3 ADD MSTORE PUSH32 0x696E7375666669656E7420706F6F6C656420416D6F756E740000000000000000 PUSH1 0x44 DUP3 ADD MSTORE PUSH1 0x64 ADD PUSH2 0x464 JUMP JUMPDEST PUSH1 0x5 SLOAD PUSH1 0x40 MLOAD PUSH4 0x23B872DD PUSH1 0xE0 SHL DUP2 MSTORE CALLER PUSH1 0x4 DUP3 ADD MSTORE ADDRESS PUSH1 0x24 DUP3 ADD MSTORE PUSH1 0x44 DUP2 ADD DUP5 SWAP1 MSTORE PUSH1 0x1 PUSH1 0x1 PUSH1 0xA0 SHL SUB SWAP1 SWAP2 AND SWAP1 PUSH4 0x23B872DD SWAP1 PUSH1 0x64 ADD PUSH1 0x20 PUSH1 0x40 MLOAD DUP1 DUP4 SUB DUP2 PUSH0 DUP8 GAS CALL ISZERO DUP1 ISZERO PUSH2 0x989 JUMPI RETURNDATASIZE PUSH0 DUP1 RETURNDATACOPY RETURNDATASIZE PUSH0 REVERT JUMPDEST POP POP POP POP PUSH1 0x40 MLOAD RETURNDATASIZE PUSH1 0x1F NOT PUSH1 0x1F DUP3 ADD AND DUP3 ADD DUP1 PUSH1 0x40 MSTORE POP DUP2 ADD SWAP1 PUSH2 0x9AD SWAP2 SWAP1 PUSH2 0x1376 JUMP JUMPDEST PUSH2 0x9F4 JUMPI PUSH1 0x40 MLOAD PUSH3 0x461BCD PUSH1 0xE5 SHL DUP2 MSTORE PUSH1 0x20 PUSH1 0x4 DUP3 ADD MSTORE PUSH1 0x18 PUSH1 0x24 DUP3 ADD MSTORE PUSH24 0x1314081D1BDAD95B881D1C985B9CD9995C8819985A5B1959 PUSH1 0x42 SHL PUSH1 0x44 DUP3 ADD MSTORE PUSH1 0x64 ADD PUSH2 0x464 JUMP JUMPDEST PUSH0 PUSH2 0xA00 PUSH1 0x5A TIMESTAMP PUSH2 0x1363 JUMP JUMPDEST CALLER PUSH0 DUP2 DUP2 MSTORE PUSH1 0x3 PUSH1 0x20 SWAP1 DUP2 MSTORE PUSH1 0x40 DUP1 DUP4 KECCAK256 TIMESTAMP SWAP1 SSTORE DUP1 MLOAD DUP1 DUP3 ADD DUP3 MSTORE DUP9 DUP2 MSTORE DUP1 DUP4 ADD DUP7 DUP2 MSTORE SWAP5 DUP5 MSTORE PUSH1 0x13 SWAP1 SWAP3 MSTORE DUP3 KECCAK256 SWAP1 MLOAD DUP2 SSTORE SWAP2 MLOAD PUSH1 0x1 SWAP1 SWAP3 ADD SWAP2 SWAP1 SWAP2 SSTORE PUSH1 0x9 DUP1 SLOAD SWAP3 SWAP4 POP DUP6 SWAP3 SWAP1 SWAP2 SWAP1 PUSH2 0xA54 SWAP1 DUP5 SWAP1 PUSH2 0x1363 JUMP JUMPDEST SWAP1 SWAP2 SSTORE POP POP CALLER PUSH0 SWAP1 DUP2 MSTORE PUSH1 0x1 PUSH1 0x20 MSTORE PUSH1 0x40 DUP2 KECCAK256 DUP1 SLOAD DUP6 SWAP3 SWAP1 PUSH2 0xA77 SWAP1 DUP5 SWAP1 PUSH2 0x1363 JUMP JUMPDEST SWAP1 SWAP2 SSTORE POP POP PUSH1 0x40 MLOAD DUP4 DUP2 MSTORE CALLER SWAP1 PUSH32 0xE1954443838EF603B0D4C78380E8CE8FA0CBD3126AAFB585E9072CF90185FA58 SWAP1 PUSH1 0x20 ADD PUSH1 0x40 MLOAD DUP1 SWAP2 SUB SWAP1 LOG2 POP POP POP JUMP JUMPDEST CALLER PUSH0 SWAP1 DUP2 MSTORE PUSH1 0x20 DUP2 SWAP1 MSTORE PUSH1 0x40 DUP2 KECCAK256 SLOAD DUP2 SWAP1 PUSH2 0xAD1 SWAP1 TIMESTAMP PUSH2 0x131A JUMP JUMPDEST CALLER PUSH0 SWAP1 DUP2 MSTORE PUSH1 0x3 PUSH1 0x20 MSTORE PUSH1 0x40 DUP2 KECCAK256 SLOAD SWAP2 SWAP3 POP SWAP1 PUSH2 0xAEE SWAP1 TIMESTAMP PUSH2 0x131A JUMP JUMPDEST SWAP1 POP PUSH1 0x7 DUP3 LT DUP1 PUSH2 0xAFF JUMPI POP PUSH1 0x5A DUP2 LT JUMPDEST ISZERO PUSH2 0xB0D JUMPI POP PUSH0 SWAP4 SWAP3 POP POP POP JUMP JUMPDEST PUSH0 PUSH2 0xB27 PUSH2 0xB1C PUSH1 0x7 DUP6 PUSH2 0x132D JUMP JUMPDEST PUSH2 0x65F PUSH1 0x5A DUP6 PUSH2 0x132D JUMP JUMPDEST PUSH1 0x9 SLOAD PUSH1 0x1 PUSH1 0x1 PUSH1 0xA0 SHL SUB DUP8 AND PUSH0 SWAP1 DUP2 MSTORE PUSH1 0x1 PUSH1 0x20 MSTORE PUSH1 0x40 DUP2 KECCAK256 SLOAD SWAP3 SWAP4 POP SWAP2 PUSH2 0x16D SWAP2 SWAP1 PUSH1 0x12 DUP5 PUSH2 0xB56 PUSH2 0x101B JUMP JUMPDEST DUP2 MSTORE PUSH1 0x20 ADD SWAP1 DUP2 MSTORE PUSH1 0x20 ADD PUSH0 KECCAK256 SLOAD PUSH2 0xB6E SWAP2 SWAP1 PUSH2 0x134C JUMP JUMPDEST PUSH2 0xB78 SWAP2 SWAP1 PUSH2 0x132D JUMP JUMPDEST PUSH2 0xB82 SWAP2 SWAP1 PUSH2 0x132D JUMP JUMPDEST SWAP1 POP PUSH0 PUSH2 0xB8F DUP4 DUP4 PUSH2 0x134C JUMP JUMPDEST SWAP8 SWAP7 POP POP POP POP POP POP POP JUMP JUMPDEST PUSH1 0x7 SLOAD PUSH1 0x1 PUSH1 0x1 PUSH1 0xA0 SHL SUB AND CALLER EQ PUSH2 0xBE2 JUMPI PUSH1 0x40 MLOAD PUSH3 0x461BCD PUSH1 0xE5 SHL DUP2 MSTORE PUSH1 0x20 PUSH1 0x4 DUP3 ADD MSTORE PUSH1 0xB PUSH1 0x24 DUP3 ADD MSTORE PUSH11 0x1B9BDD08105B1B1BDDD959 PUSH1 0xAA SHL PUSH1 0x44 DUP3 ADD MSTORE PUSH1 0x64 ADD PUSH2 0x464 JUMP JUMPDEST PUSH1 0x7 SLOAD PUSH1 0x40 MLOAD PUSH4 0xA9059CBB PUSH1 0xE0 SHL DUP2 MSTORE PUSH1 0x1 PUSH1 0x1 PUSH1 0xA0 SHL SUB SWAP2 DUP3 AND PUSH1 0x4 DUP3 ADD MSTORE PUSH1 0x24 DUP2 ADD DUP4 SWAP1 MSTORE SWAP1 DUP4 AND SWAP1 PUSH4 0xA9059CBB SWAP1 PUSH1 0x44 ADD PUSH1 0x20 PUSH1 0x40 MLOAD DUP1 DUP4 SUB DUP2 PUSH0 DUP8 GAS CALL ISZERO DUP1 ISZERO PUSH2 0xC32 JUMPI RETURNDATASIZE PUSH0 DUP1 RETURNDATACOPY RETURNDATASIZE PUSH0 REVERT JUMPDEST POP POP POP POP PUSH1 0x40 MLOAD RETURNDATASIZE PUSH1 0x1F NOT PUSH1 0x1F DUP3 ADD AND DUP3 ADD DUP1 PUSH1 0x40 MSTORE POP DUP2 ADD SWAP1 PUSH2 0xC56 SWAP2 SWAP1 PUSH2 0x1376 JUMP JUMPDEST POP POP POP JUMP JUMPDEST PUSH1 0x7 SLOAD PUSH1 0x1 PUSH1 0x1 PUSH1 0xA0 SHL SUB AND CALLER EQ PUSH2 0xCA3 JUMPI PUSH1 0x40 MLOAD PUSH3 0x461BCD PUSH1 0xE5 SHL DUP2 MSTORE PUSH1 0x20 PUSH1 0x4 DUP3 ADD MSTORE PUSH1 0xB PUSH1 0x24 DUP3 ADD MSTORE PUSH11 0x1B9BDD08105B1B1BDDD959 PUSH1 0xAA SHL PUSH1 0x44 DUP3 ADD MSTORE PUSH1 0x64 ADD PUSH2 0x464 JUMP JUMPDEST PUSH1 0x5 DUP1 SLOAD PUSH1 0x1 PUSH1 0x1 PUSH1 0xA0 SHL SUB NOT AND PUSH1 0x1 PUSH1 0x1 PUSH1 0xA0 SHL SUB SWAP3 SWAP1 SWAP3 AND SWAP2 SWAP1 SWAP2 OR SWAP1 SSTORE JUMP JUMPDEST PUSH1 0x6 SLOAD PUSH1 0x40 MLOAD PUSH4 0x70A08231 PUSH1 0xE0 SHL DUP2 MSTORE CALLER PUSH1 0x4 DUP3 ADD MSTORE PUSH0 SWAP2 PUSH1 0x1 PUSH1 0x1 PUSH1 0xA0 SHL SUB AND SWAP1 PUSH4 0x70A08231 SWAP1 PUSH1 0x24 ADD PUSH1 0x20 PUSH1 0x40 MLOAD DUP1 DUP4 SUB DUP2 DUP7 GAS STATICCALL ISZERO DUP1 ISZERO PUSH2 0xD0B JUMPI RETURNDATASIZE PUSH0 DUP1 RETURNDATACOPY RETURNDATASIZE PUSH0 REVERT JUMPDEST POP POP POP POP PUSH1 0x40 MLOAD RETURNDATASIZE PUSH1 0x1F NOT PUSH1 0x1F DUP3 ADD AND DUP3 ADD DUP1 PUSH1 0x40 MSTORE POP DUP2 ADD SWAP1 PUSH2 0xD2F SWAP2 SWAP1 PUSH2 0x139C JUMP JUMPDEST GT PUSH2 0xD6C JUMPI PUSH1 0x40 MLOAD PUSH3 0x461BCD PUSH1 0xE5 SHL DUP2 MSTORE PUSH1 0x20 PUSH1 0x4 DUP3 ADD MSTORE PUSH1 0xD PUSH1 0x24 DUP3 ADD MSTORE PUSH13 0x5A65726F20486F6C64696E6773 PUSH1 0x98 SHL PUSH1 0x44 DUP3 ADD MSTORE PUSH1 0x64 ADD PUSH2 0x464 JUMP JUMPDEST CALLER PUSH0 SWAP1 DUP2 MSTORE PUSH1 0x4 PUSH1 0x20 MSTORE PUSH1 0x40 SWAP1 KECCAK256 SLOAD PUSH1 0xFF AND ISZERO PUSH2 0xDDA JUMPI PUSH1 0x40 MLOAD PUSH3 0x461BCD PUSH1 0xE5 SHL DUP2 MSTORE PUSH1 0x20 PUSH1 0x4 DUP3 ADD MSTORE PUSH1 0x26 PUSH1 0x24 DUP3 ADD MSTORE PUSH32 0x596F75206861766520616C7265616479206170706C69656420666F7220726564 PUSH1 0x44 DUP3 ADD MSTORE PUSH6 0x3AB1BA34B7B7 PUSH1 0xD1 SHL PUSH1 0x64 DUP3 ADD MSTORE PUSH1 0x84 ADD PUSH2 0x464 JUMP JUMPDEST PUSH1 0xA DUP1 SLOAD SWAP1 PUSH0 PUSH2 0xDE9 DUP4 PUSH2 0x13B3 JUMP JUMPDEST SWAP1 SWAP2 SSTORE POP POP CALLER PUSH0 SWAP1 DUP2 MSTORE PUSH1 0x4 PUSH1 0x20 MSTORE PUSH1 0x40 SWAP1 KECCAK256 DUP1 SLOAD PUSH1 0xFF NOT AND PUSH1 0x1 OR SWAP1 SSTORE JUMP JUMPDEST CALLER PUSH0 SWAP1 DUP2 MSTORE PUSH1 0x3 PUSH1 0x20 MSTORE PUSH1 0x40 SWAP1 KECCAK256 SLOAD PUSH2 0xE24 SWAP1 PUSH1 0x5A SWAP1 PUSH2 0x1363 JUMP JUMPDEST TIMESTAMP LT ISZERO PUSH2 0xE73 JUMPI PUSH1 0x40 MLOAD PUSH3 0x461BCD PUSH1 0xE5 SHL DUP2 MSTORE PUSH1 0x20 PUSH1 0x4 DUP3 ADD MSTORE PUSH1 0x1C PUSH1 0x24 DUP3 ADD MSTORE PUSH32 0x43616E6E6F7420756E6C6F636B206265666F7265203930206461797300000000 PUSH1 0x44 DUP3 ADD MSTORE PUSH1 0x64 ADD PUSH2 0x464 JUMP JUMPDEST CALLER PUSH0 SWAP1 DUP2 MSTORE PUSH1 0x13 PUSH1 0x20 MSTORE PUSH1 0x40 SWAP1 KECCAK256 SLOAD DUP1 PUSH2 0xEC2 JUMPI PUSH1 0x40 MLOAD PUSH3 0x461BCD PUSH1 0xE5 SHL DUP2 MSTORE PUSH1 0x20 PUSH1 0x4 DUP3 ADD MSTORE PUSH1 0x10 PUSH1 0x24 DUP3 ADD MSTORE PUSH16 0x4E6F206C6F636B656420746F6B656E73 PUSH1 0x80 SHL PUSH1 0x44 DUP3 ADD MSTORE PUSH1 0x64 ADD PUSH2 0x464 JUMP JUMPDEST PUSH1 0x5 SLOAD PUSH1 0x40 MLOAD PUSH4 0xA9059CBB PUSH1 0xE0 SHL DUP2 MSTORE CALLER PUSH1 0x4 DUP3 ADD MSTORE PUSH1 0x24 DUP2 ADD DUP4 SWAP1 MSTORE PUSH1 0x1 PUSH1 0x1 PUSH1 0xA0 SHL SUB SWAP1 SWAP2 AND SWAP1 PUSH4 0xA9059CBB SWAP1 PUSH1 0x44 ADD PUSH1 0x20 PUSH1 0x40 MLOAD DUP1 DUP4 SUB DUP2 PUSH0 DUP8 GAS CALL ISZERO DUP1 ISZERO PUSH2 0xF10 JUMPI RETURNDATASIZE PUSH0 DUP1 RETURNDATACOPY RETURNDATASIZE PUSH0 REVERT JUMPDEST POP POP POP POP PUSH1 0x40 MLOAD RETURNDATASIZE PUSH1 0x1F NOT PUSH1 0x1F DUP3 ADD AND DUP3 ADD DUP1 PUSH1 0x40 MSTORE POP DUP2 ADD SWAP1 PUSH2 0xF34 SWAP2 SWAP1 PUSH2 0x1376 JUMP JUMPDEST PUSH2 0xF7B JUMPI PUSH1 0x40 MLOAD PUSH3 0x461BCD PUSH1 0xE5 SHL DUP2 MSTORE PUSH1 0x20 PUSH1 0x4 DUP3 ADD MSTORE PUSH1 0x18 PUSH1 0x24 DUP3 ADD MSTORE PUSH24 0x1314081D1BDAD95B881D1C985B9CD9995C8819985A5B1959 PUSH1 0x42 SHL PUSH1 0x44 DUP3 ADD MSTORE PUSH1 0x64 ADD PUSH2 0x464 JUMP JUMPDEST DUP1 PUSH1 0x9 PUSH0 DUP3 DUP3 SLOAD PUSH2 0xF8C SWAP2 SWAP1 PUSH2 0x131A JUMP JUMPDEST SWAP1 SWAP2 SSTORE POP POP CALLER PUSH0 SWAP1 DUP2 MSTORE PUSH1 0x1 PUSH1 0x20 MSTORE PUSH1 0x40 DUP2 KECCAK256 DUP1 SLOAD DUP4 SWAP3 SWAP1 PUSH2 0xFAF SWAP1 DUP5 SWAP1 PUSH2 0x131A JUMP JUMPDEST SWAP1 SWAP2 SSTORE POP POP CALLER PUSH0 DUP2 DUP2 MSTORE PUSH1 0x13 PUSH1 0x20 MSTORE PUSH1 0x40 DUP1 DUP3 KECCAK256 DUP3 DUP2 SSTORE PUSH1 0x1 ADD SWAP2 SWAP1 SWAP2 SSTORE MLOAD PUSH32 0x580EC6003F06A23971F7CCDB029AE688764884D7361687066E352D1FF6024473 SWAP1 PUSH2 0xFFD SWAP1 DUP5 DUP2 MSTORE PUSH1 0x20 ADD SWAP1 JUMP JUMPDEST PUSH1 0x40 MLOAD DUP1 SWAP2 SUB SWAP1 LOG2 POP JUMP JUMPDEST PUSH0 PUSH2 0x1016 PUSH3 0x278D00 TIMESTAMP PUSH2 0x132D JUMP JUMPDEST SWAP1 POP SWAP1 JUMP JUMPDEST PUSH0 PUSH2 0x1016 PUSH4 0x1E13380 TIMESTAMP PUSH2 0x132D JUMP JUMPDEST PUSH0 DUP2 DUP4 LT PUSH2 0x1038 JUMPI DUP2 PUSH2 0x103A JUMP JUMPDEST DUP3 JUMPDEST SWAP1 POP JUMPDEST SWAP3 SWAP2 POP POP JUMP JUMPDEST PUSH0 PUSH3 0xF4240 PUSH1 0xA SLOAD LT PUSH2 0x105A JUMPI PUSH1 0x32 PUSH1 0xB SSTORE PUSH2 0x108D JUMP JUMPDEST PUSH3 0x989680 PUSH1 0xA SLOAD LT PUSH2 0x1070 JUMPI PUSH1 0x19 PUSH1 0xB SSTORE PUSH2 0x108D JUMP JUMPDEST PUSH4 0x5F5E100 PUSH1 0xA SLOAD LT PUSH2 0x1087 JUMPI PUSH1 0xC PUSH1 0xB SSTORE PUSH2 0x108D JUMP JUMPDEST PUSH1 0x64 PUSH1 0xB SSTORE JUMPDEST POP PUSH1 0xB SLOAD SWAP1 JUMP JUMPDEST PUSH1 0x5 SLOAD PUSH0 SWAP1 PUSH1 0x1 PUSH1 0x1 PUSH1 0xA0 SHL SUB AND PUSH2 0x10EE JUMPI PUSH1 0x40 MLOAD PUSH3 0x461BCD PUSH1 0xE5 SHL DUP2 MSTORE PUSH1 0x20 PUSH1 0x4 DUP3 ADD MSTORE PUSH1 0x1C PUSH1 0x24 DUP3 ADD MSTORE PUSH32 0x556E697377617020706F6F6C2061646472657373206E6F742073657400000000 PUSH1 0x44 DUP3 ADD MSTORE PUSH1 0x64 ADD PUSH2 0x464 JUMP JUMPDEST PUSH1 0x5 SLOAD PUSH1 0x40 MLOAD PUSH4 0x70A08231 PUSH1 0xE0 SHL DUP2 MSTORE PUSH1 0x1 PUSH1 0x1 PUSH1 0xA0 SHL SUB DUP5 DUP2 AND PUSH1 0x4 DUP4 ADD MSTORE PUSH0 SWAP3 AND SWAP1 PUSH4 0x70A08231 SWAP1 PUSH1 0x24 ADD PUSH1 0x20 PUSH1 0x40 MLOAD DUP1 DUP4 SUB DUP2 DUP7 GAS STATICCALL ISZERO DUP1 ISZERO PUSH2 0x1136 JUMPI RETURNDATASIZE PUSH0 DUP1 RETURNDATACOPY RETURNDATASIZE PUSH0 REVERT JUMPDEST POP POP POP POP PUSH1 0x40 MLOAD RETURNDATASIZE PUSH1 0x1F NOT PUSH1 0x1F DUP3 ADD AND DUP3 ADD DUP1 PUSH1 0x40 MSTORE POP DUP2 ADD SWAP1 PUSH2 0x115A SWAP2 SWAP1 PUSH2 0x139C JUMP JUMPDEST SWAP1 POP PUSH0 PUSH1 0x5 PUSH0 SWAP1 SLOAD SWAP1 PUSH2 0x100 EXP SWAP1 DIV PUSH1 0x1 PUSH1 0x1 PUSH1 0xA0 SHL SUB AND PUSH1 0x1 PUSH1 0x1 PUSH1 0xA0 SHL SUB AND PUSH4 0x18160DDD PUSH1 0x40 MLOAD DUP2 PUSH4 0xFFFFFFFF AND PUSH1 0xE0 SHL DUP2 MSTORE PUSH1 0x4 ADD PUSH1 0x20 PUSH1 0x40 MLOAD DUP1 DUP4 SUB DUP2 DUP7 GAS STATICCALL ISZERO DUP1 ISZERO PUSH2 0x11AD JUMPI RETURNDATASIZE PUSH0 DUP1 RETURNDATACOPY RETURNDATASIZE PUSH0 REVERT JUMPDEST POP POP POP POP PUSH1 0x40 MLOAD RETURNDATASIZE PUSH1 0x1F NOT PUSH1 0x1F DUP3 ADD AND DUP3 ADD DUP1 PUSH1 0x40 MSTORE POP DUP2 ADD SWAP1 PUSH2 0x11D1 SWAP2 SWAP1 PUSH2 0x139C JUMP JUMPDEST SWAP1 POP PUSH0 PUSH1 0x5 PUSH0 SWAP1 SLOAD SWAP1 PUSH2 0x100 EXP SWAP1 DIV PUSH1 0x1 PUSH1 0x1 PUSH1 0xA0 SHL SUB AND PUSH1 0x1 PUSH1 0x1 PUSH1 0xA0 SHL SUB AND PUSH4 0x902F1AC PUSH1 0x40 MLOAD DUP2 PUSH4 0xFFFFFFFF AND PUSH1 0xE0 SHL DUP2 MSTORE PUSH1 0x4 ADD PUSH1 0x60 PUSH1 0x40 MLOAD DUP1 DUP4 SUB DUP2 DUP7 GAS STATICCALL ISZERO DUP1 ISZERO PUSH2 0x1224 JUMPI RETURNDATASIZE PUSH0 DUP1 RETURNDATACOPY RETURNDATASIZE PUSH0 REVERT JUMPDEST POP POP POP POP PUSH1 0x40 MLOAD RETURNDATASIZE PUSH1 0x1F NOT PUSH1 0x1F DUP3 ADD AND DUP3 ADD DUP1 PUSH1 0x40 MSTORE POP DUP2 ADD SWAP1 PUSH2 0x1248 SWAP2 SWAP1 PUSH2 0x13E1 JUMP JUMPDEST POP POP PUSH1 0x1 PUSH1 0x1 PUSH1 0x70 SHL SUB AND SWAP1 POP PUSH0 DUP3 PUSH2 0x1269 DUP6 PUSH8 0xDE0B6B3A7640000 PUSH2 0x134C JUMP JUMPDEST PUSH2 0x1273 SWAP2 SWAP1 PUSH2 0x132D JUMP JUMPDEST SWAP1 POP PUSH0 PUSH8 0xDE0B6B3A7640000 PUSH2 0x1289 DUP5 DUP5 PUSH2 0x134C JUMP JUMPDEST PUSH2 0xB8F SWAP2 SWAP1 PUSH2 0x132D JUMP JUMPDEST DUP1 CALLDATALOAD PUSH1 0x1 PUSH1 0x1 PUSH1 0xA0 SHL SUB DUP2 AND DUP2 EQ PUSH2 0x12A9 JUMPI PUSH0 DUP1 REVERT JUMPDEST SWAP2 SWAP1 POP JUMP JUMPDEST PUSH0 PUSH1 0x20 DUP3 DUP5 SUB SLT ISZERO PUSH2 0x12BE JUMPI PUSH0 DUP1 REVERT JUMPDEST PUSH2 0x103A DUP3 PUSH2 0x1293 JUMP JUMPDEST PUSH0 PUSH1 0x20 DUP3 DUP5 SUB SLT ISZERO PUSH2 0x12D7 JUMPI PUSH0 DUP1 REVERT JUMPDEST POP CALLDATALOAD SWAP2 SWAP1 POP JUMP JUMPDEST PUSH0 DUP1 PUSH1 0x40 DUP4 DUP6 SUB SLT ISZERO PUSH2 0x12EF JUMPI PUSH0 DUP1 REVERT JUMPDEST PUSH2 0x12F8 DUP4 PUSH2 0x1293 JUMP JUMPDEST SWAP5 PUSH1 0x20 SWAP4 SWAP1 SWAP4 ADD CALLDATALOAD SWAP4 POP POP POP JUMP JUMPDEST PUSH4 0x4E487B71 PUSH1 0xE0 SHL PUSH0 MSTORE PUSH1 0x11 PUSH1 0x4 MSTORE PUSH1 0x24 PUSH0 REVERT JUMPDEST DUP2 DUP2 SUB DUP2 DUP2 GT ISZERO PUSH2 0x103D JUMPI PUSH2 0x103D PUSH2 0x1306 JUMP JUMPDEST PUSH0 DUP3 PUSH2 0x1347 JUMPI PUSH4 0x4E487B71 PUSH1 0xE0 SHL PUSH0 MSTORE PUSH1 0x12 PUSH1 0x4 MSTORE PUSH1 0x24 PUSH0 REVERT JUMPDEST POP DIV SWAP1 JUMP JUMPDEST DUP1 DUP3 MUL DUP2 ISZERO DUP3 DUP3 DIV DUP5 EQ OR PUSH2 0x103D JUMPI PUSH2 0x103D PUSH2 0x1306 JUMP JUMPDEST DUP1 DUP3 ADD DUP1 DUP3 GT ISZERO PUSH2 0x103D JUMPI PUSH2 0x103D PUSH2 0x1306 JUMP JUMPDEST PUSH0 PUSH1 0x20 DUP3 DUP5 SUB SLT ISZERO PUSH2 0x1386 JUMPI PUSH0 DUP1 REVERT JUMPDEST DUP2 MLOAD DUP1 ISZERO ISZERO DUP2 EQ PUSH2 0x1395 JUMPI PUSH0 DUP1 REVERT JUMPDEST SWAP4 SWAP3 POP POP POP JUMP JUMPDEST PUSH0 PUSH1 0x20 DUP3 DUP5 SUB SLT ISZERO PUSH2 0x13AC JUMPI PUSH0 DUP1 REVERT JUMPDEST POP MLOAD SWAP2 SWAP1 POP JUMP JUMPDEST PUSH0 PUSH1 0x1 DUP3 ADD PUSH2 0x13C4 JUMPI PUSH2 0x13C4 PUSH2 0x1306 JUMP JUMPDEST POP PUSH1 0x1 ADD SWAP1 JUMP JUMPDEST DUP1 MLOAD PUSH1 0x1 PUSH1 0x1 PUSH1 0x70 SHL SUB DUP2 AND DUP2 EQ PUSH2 0x12A9 JUMPI PUSH0 DUP1 REVERT JUMPDEST PUSH0 DUP1 PUSH0 PUSH1 0x60 DUP5 DUP7 SUB SLT ISZERO PUSH2 0x13F3 JUMPI PUSH0 DUP1 REVERT JUMPDEST PUSH2 0x13FC DUP5 PUSH2 0x13CB JUMP JUMPDEST SWAP3 POP PUSH2 0x140A PUSH1 0x20 DUP6 ADD PUSH2 0x13CB JUMP JUMPDEST SWAP2 POP PUSH1 0x40 DUP5 ADD MLOAD PUSH4 0xFFFFFFFF DUP2 AND DUP2 EQ PUSH2 0x1422 JUMPI PUSH0 DUP1 REVERT JUMPDEST DUP1 SWAP2 POP POP SWAP3 POP SWAP3 POP SWAP3 JUMP INVALID LOG2 PUSH5 0x6970667358 0x22 SLT KECCAK256 0xD9 0xDC SWAP12 ADDMOD 0xBB 0xAD 0xEB DUP4 DELEGATECALL 0x1E SHR CALLDATASIZE SWAP15 CHAINID DUP4 DUP4 MSTORE8 0x4D EQ 0x4F 0xC2 0xE1 XOR PUSH20 0xF363DA697D23104364736F6C6343000818003300 "
				},
				"gasEstimates": {
					"creation": {
						"codeDepositCost": "1043800",
						"executionCost": "infinite",
						"totalCost": "infinite"
					},
					"external": {
						"MINIMUM_CLAIM_INTERVAL()": "306",
						"NINETY_DAYS()": "238",
						"accumulatedRewards(address)": "2587",
						"alreadyVoted(address)": "2545",
						"annualRewards(uint256)": "2525",
						"applicants()": "2404",
						"currentDay()": "2428",
						"currentMonth()": "2405",
						"dailyLimit()": "2340",
						"getCurrentMonth()": "357",
						"getUnclaimedRewards(address)": "infinite",
						"harvestRewards()": "infinite",
						"lastClaimTime(address)": "2634",
						"lockInfo(address)": "4749",
						"lockLP(uint256)": "infinite",
						"lpTokenAddress()": "2402",
						"marketingWallet()": "2425",
						"monthlyRewardLimit()": "2340",
						"reduceCommission()": "infinite",
						"rewardToken()": "2424",
						"rewardsDistributedToday()": "2383",
						"setUniswapPool(address)": "26781",
						"stakedTokens(address)": "2565",
						"stakingStartTime(address)": "2587",
						"totalDistributedRewards()": "2361",
						"unlockLP()": "infinite",
						"withdrawExcess(address,uint256)": "infinite"
					},
					"internal": {
						"getUSDValueOfLPTokens(address)": "infinite",
						"marketingFee()": "30605",
						"min(uint256,uint256)": "64",
						"yearNow()": "77"
					}
				},
				"methodIdentifiers": {
					"MINIMUM_CLAIM_INTERVAL()": "50f0a325",
					"NINETY_DAYS()": "e372c900",
					"accumulatedRewards(address)": "73f273fc",
					"alreadyVoted(address)": "06d2ad40",
					"annualRewards(uint256)": "443df8f5",
					"applicants()": "fdf5963a",
					"currentDay()": "5c9302c9",
					"currentMonth()": "862a4d47",
					"dailyLimit()": "67eeba0c",
					"getCurrentMonth()": "ddd1b67e",
					"getUnclaimedRewards(address)": "69a69e29",
					"harvestRewards()": "2be11ae2",
					"lastClaimTime(address)": "b77cf9c6",
					"lockInfo(address)": "6bd3b87c",
					"lockLP(uint256)": "40519a53",
					"lpTokenAddress()": "f5ae497a",
					"marketingWallet()": "75f0a874",
					"monthlyRewardLimit()": "8aca35a0",
					"reduceCommission()": "92f851c1",
					"rewardToken()": "f7c618c1",
					"rewardsDistributedToday()": "b5a556d2",
					"setUniswapPool(address)": "8f90e902",
					"stakedTokens(address)": "a5b39cfb",
					"stakingStartTime(address)": "d1232730",
					"totalDistributedRewards()": "a87df832",
					"unlockLP()": "b91f3f97",
					"withdrawExcess(address,uint256)": "6e90013d"
				}
			},
			"storageLayout": {
				"storage": [
					{
						"astId": 800,
						"contract": "contracts/BUDS.sol:Staking",
						"label": "lastClaimTime",
						"offset": 0,
						"slot": "0",
						"type": "t_mapping(t_address,t_uint256)"
					},
					{
						"astId": 804,
						"contract": "contracts/BUDS.sol:Staking",
						"label": "stakedTokens",
						"offset": 0,
						"slot": "1",
						"type": "t_mapping(t_address,t_uint256)"
					},
					{
						"astId": 808,
						"contract": "contracts/BUDS.sol:Staking",
						"label": "accumulatedRewards",
						"offset": 0,
						"slot": "2",
						"type": "t_mapping(t_address,t_uint256)"
					},
					{
						"astId": 812,
						"contract": "contracts/BUDS.sol:Staking",
						"label": "stakingStartTime",
						"offset": 0,
						"slot": "3",
						"type": "t_mapping(t_address,t_uint256)"
					},
					{
						"astId": 816,
						"contract": "contracts/BUDS.sol:Staking",
						"label": "alreadyVoted",
						"offset": 0,
						"slot": "4",
						"type": "t_mapping(t_address,t_bool)"
					},
					{
						"astId": 824,
						"contract": "contracts/BUDS.sol:Staking",
						"label": "lpTokenAddress",
						"offset": 0,
						"slot": "5",
						"type": "t_address"
					},
					{
						"astId": 827,
						"contract": "contracts/BUDS.sol:Staking",
						"label": "rewardToken",
						"offset": 0,
						"slot": "6",
						"type": "t_contract(IERC20)262"
					},
					{
						"astId": 831,
						"contract": "contracts/BUDS.sol:Staking",
						"label": "owner",
						"offset": 0,
						"slot": "7",
						"type": "t_address"
					},
					{
						"astId": 834,
						"contract": "contracts/BUDS.sol:Staking",
						"label": "marketingWallet",
						"offset": 0,
						"slot": "8",
						"type": "t_address"
					},
					{
						"astId": 836,
						"contract": "contracts/BUDS.sol:Staking",
						"label": "totalStakedTokens",
						"offset": 0,
						"slot": "9",
						"type": "t_uint256"
					},
					{
						"astId": 838,
						"contract": "contracts/BUDS.sol:Staking",
						"label": "applicants",
						"offset": 0,
						"slot": "10",
						"type": "t_uint256"
					},
					{
						"astId": 840,
						"contract": "contracts/BUDS.sol:Staking",
						"label": "fee",
						"offset": 0,
						"slot": "11",
						"type": "t_uint256"
					},
					{
						"astId": 842,
						"contract": "contracts/BUDS.sol:Staking",
						"label": "totalDistributedRewards",
						"offset": 0,
						"slot": "12",
						"type": "t_uint256"
					},
					{
						"astId": 844,
						"contract": "contracts/BUDS.sol:Staking",
						"label": "currentMonth",
						"offset": 0,
						"slot": "13",
						"type": "t_uint256"
					},
					{
						"astId": 846,
						"contract": "contracts/BUDS.sol:Staking",
						"label": "currentDay",
						"offset": 0,
						"slot": "14",
						"type": "t_uint256"
					},
					{
						"astId": 848,
						"contract": "contracts/BUDS.sol:Staking",
						"label": "monthlyRewardLimit",
						"offset": 0,
						"slot": "15",
						"type": "t_uint256"
					},
					{
						"astId": 850,
						"contract": "contracts/BUDS.sol:Staking",
						"label": "dailyLimit",
						"offset": 0,
						"slot": "16",
						"type": "t_uint256"
					},
					{
						"astId": 852,
						"contract": "contracts/BUDS.sol:Staking",
						"label": "rewardsDistributedToday",
						"offset": 0,
						"slot": "17",
						"type": "t_uint256"
					},
					{
						"astId": 861,
						"contract": "contracts/BUDS.sol:Staking",
						"label": "annualRewards",
						"offset": 0,
						"slot": "18",
						"type": "t_mapping(t_uint256,t_uint256)"
					},
					{
						"astId": 896,
						"contract": "contracts/BUDS.sol:Staking",
						"label": "lockInfo",
						"offset": 0,
						"slot": "19",
						"type": "t_mapping(t_address,t_struct(LockInfo)857_storage)"
					}
				],
				"types": {
					"t_address": {
						"encoding": "inplace",
						"label": "address",
						"numberOfBytes": "20"
					},
					"t_bool": {
						"encoding": "inplace",
						"label": "bool",
						"numberOfBytes": "1"
					},
					"t_contract(IERC20)262": {
						"encoding": "inplace",
						"label": "contract IERC20",
						"numberOfBytes": "20"
					},
					"t_mapping(t_address,t_bool)": {
						"encoding": "mapping",
						"key": "t_address",
						"label": "mapping(address => bool)",
						"numberOfBytes": "32",
						"value": "t_bool"
					},
					"t_mapping(t_address,t_struct(LockInfo)857_storage)": {
						"encoding": "mapping",
						"key": "t_address",
						"label": "mapping(address => struct Staking.LockInfo)",
						"numberOfBytes": "32",
						"value": "t_struct(LockInfo)857_storage"
					},
					"t_mapping(t_address,t_uint256)": {
						"encoding": "mapping",
						"key": "t_address",
						"label": "mapping(address => uint256)",
						"numberOfBytes": "32",
						"value": "t_uint256"
					},
					"t_mapping(t_uint256,t_uint256)": {
						"encoding": "mapping",
						"key": "t_uint256",
						"label": "mapping(uint256 => uint256)",
						"numberOfBytes": "32",
						"value": "t_uint256"
					},
					"t_struct(LockInfo)857_storage": {
						"encoding": "inplace",
						"label": "struct Staking.LockInfo",
						"members": [
							{
								"astId": 854,
								"contract": "contracts/BUDS.sol:Staking",
								"label": "amount",
								"offset": 0,
								"slot": "0",
								"type": "t_uint256"
							},
							{
								"astId": 856,
								"contract": "contracts/BUDS.sol:Staking",
								"label": "lockTime",
								"offset": 0,
								"slot": "1",
								"type": "t_uint256"
							}
						],
						"numberOfBytes": "64"
					},
					"t_uint256": {
						"encoding": "inplace",
						"label": "uint256",
						"numberOfBytes": "32"
					}
				}
			},
			"userdoc": {
				"kind": "user",
				"methods": {},
				"version": 1
			}
		}
	}
}