{
	"contracts/erc201.sol": {
		"Blank": {
			"abi": [
				{
					"inputs": [
						{
							"internalType": "uint256",
							"name": "cap",
							"type": "uint256"
						},
						{
							"internalType": "uint256",
							"name": "reward",
							"type": "uint256"
						}
					],
					"stateMutability": "nonpayable",
					"type": "constructor"
				},
				{
					"anonymous": false,
					"inputs": [
						{
							"indexed": true,
							"internalType": "address",
							"name": "owner",
							"type": "address"
						},
						{
							"indexed": true,
							"internalType": "address",
							"name": "spender",
							"type": "address"
						},
						{
							"indexed": false,
							"internalType": "uint256",
							"name": "value",
							"type": "uint256"
						}
					],
					"name": "Approval",
					"type": "event"
				},
				{
					"anonymous": false,
					"inputs": [
						{
							"indexed": true,
							"internalType": "address",
							"name": "from",
							"type": "address"
						},
						{
							"indexed": true,
							"internalType": "address",
							"name": "to",
							"type": "address"
						},
						{
							"indexed": false,
							"internalType": "uint256",
							"name": "value",
							"type": "uint256"
						}
					],
					"name": "Transfer",
					"type": "event"
				},
				{
					"inputs": [
						{
							"internalType": "address",
							"name": "owner",
							"type": "address"
						},
						{
							"internalType": "address",
							"name": "spender",
							"type": "address"
						}
					],
					"name": "allowance",
					"outputs": [
						{
							"internalType": "uint256",
							"name": "",
							"type": "uint256"
						}
					],
					"stateMutability": "view",
					"type": "function"
				},
				{
					"inputs": [
						{
							"internalType": "address",
							"name": "spender",
							"type": "address"
						},
						{
							"internalType": "uint256",
							"name": "amount",
							"type": "uint256"
						}
					],
					"name": "approve",
					"outputs": [
						{
							"internalType": "bool",
							"name": "",
							"type": "bool"
						}
					],
					"stateMutability": "nonpayable",
					"type": "function"
				},
				{
					"inputs": [
						{
							"internalType": "address",
							"name": "account",
							"type": "address"
						}
					],
					"name": "balanceOf",
					"outputs": [
						{
							"internalType": "uint256",
							"name": "",
							"type": "uint256"
						}
					],
					"stateMutability": "view",
					"type": "function"
				},
				{
					"inputs": [],
					"name": "blockReward",
					"outputs": [
						{
							"internalType": "uint256",
							"name": "",
							"type": "uint256"
						}
					],
					"stateMutability": "view",
					"type": "function"
				},
				{
					"inputs": [
						{
							"internalType": "uint256",
							"name": "amount",
							"type": "uint256"
						}
					],
					"name": "burn",
					"outputs": [],
					"stateMutability": "nonpayable",
					"type": "function"
				},
				{
					"inputs": [
						{
							"internalType": "address",
							"name": "account",
							"type": "address"
						},
						{
							"internalType": "uint256",
							"name": "amount",
							"type": "uint256"
						}
					],
					"name": "burnFrom",
					"outputs": [],
					"stateMutability": "nonpayable",
					"type": "function"
				},
				{
					"inputs": [],
					"name": "cap",
					"outputs": [
						{
							"internalType": "uint256",
							"name": "",
							"type": "uint256"
						}
					],
					"stateMutability": "view",
					"type": "function"
				},
				{
					"inputs": [],
					"name": "decimals",
					"outputs": [
						{
							"internalType": "uint8",
							"name": "",
							"type": "uint8"
						}
					],
					"stateMutability": "view",
					"type": "function"
				},
				{
					"inputs": [
						{
							"internalType": "address",
							"name": "spender",
							"type": "address"
						},
						{
							"internalType": "uint256",
							"name": "subtractedValue",
							"type": "uint256"
						}
					],
					"name": "decreaseAllowance",
					"outputs": [
						{
							"internalType": "bool",
							"name": "",
							"type": "bool"
						}
					],
					"stateMutability": "nonpayable",
					"type": "function"
				},
				{
					"inputs": [
						{
							"internalType": "address",
							"name": "spender",
							"type": "address"
						},
						{
							"internalType": "uint256",
							"name": "addedValue",
							"type": "uint256"
						}
					],
					"name": "increaseAllowance",
					"outputs": [
						{
							"internalType": "bool",
							"name": "",
							"type": "bool"
						}
					],
					"stateMutability": "nonpayable",
					"type": "function"
				},
				{
					"inputs": [],
					"name": "name",
					"outputs": [
						{
							"internalType": "string",
							"name": "",
							"type": "string"
						}
					],
					"stateMutability": "view",
					"type": "function"
				},
				{
					"inputs": [],
					"name": "owner",
					"outputs": [
						{
							"internalType": "address payable",
							"name": "",
							"type": "address"
						}
					],
					"stateMutability": "view",
					"type": "function"
				},
				{
					"inputs": [
						{
							"internalType": "uint256",
							"name": "reward",
							"type": "uint256"
						}
					],
					"name": "setBlockReward",
					"outputs": [],
					"stateMutability": "nonpayable",
					"type": "function"
				},
				{
					"inputs": [],
					"name": "symbol",
					"outputs": [
						{
							"internalType": "string",
							"name": "",
							"type": "string"
						}
					],
					"stateMutability": "view",
					"type": "function"
				},
				{
					"inputs": [],
					"name": "totalSupply",
					"outputs": [
						{
							"internalType": "uint256",
							"name": "",
							"type": "uint256"
						}
					],
					"stateMutability": "view",
					"type": "function"
				},
				{
					"inputs": [
						{
							"internalType": "address",
							"name": "to",
							"type": "address"
						},
						{
							"internalType": "uint256",
							"name": "amount",
							"type": "uint256"
						}
					],
					"name": "transfer",
					"outputs": [
						{
							"internalType": "bool",
							"name": "",
							"type": "bool"
						}
					],
					"stateMutability": "nonpayable",
					"type": "function"
				},
				{
					"inputs": [
						{
							"internalType": "address",
							"name": "from",
							"type": "address"
						},
						{
							"internalType": "address",
							"name": "to",
							"type": "address"
						},
						{
							"internalType": "uint256",
							"name": "amount",
							"type": "uint256"
						}
					],
					"name": "transferFrom",
					"outputs": [
						{
							"internalType": "bool",
							"name": "",
							"type": "bool"
						}
					],
					"stateMutability": "nonpayable",
					"type": "function"
				}
			],
			"devdoc": {
				"kind": "dev",
				"methods": {
					"allowance(address,address)": {
						"details": "See {IERC20-allowance}."
					},
					"approve(address,uint256)": {
						"details": "See {IERC20-approve}. NOTE: If `amount` is the maximum `uint256`, the allowance is not updated on `transferFrom`. This is semantically equivalent to an infinite approval. Requirements: - `spender` cannot be the zero address."
					},
					"balanceOf(address)": {
						"details": "See {IERC20-balanceOf}."
					},
					"burn(uint256)": {
						"details": "Destroys `amount` tokens from the caller. See {ERC20-_burn}."
					},
					"burnFrom(address,uint256)": {
						"details": "Destroys `amount` tokens from `account`, deducting from the caller's allowance. See {ERC20-_burn} and {ERC20-allowance}. Requirements: - the caller must have allowance for ``accounts``'s tokens of at least `amount`."
					},
					"cap()": {
						"details": "Returns the cap on the token's total supply."
					},
					"decimals()": {
						"details": "Returns the number of decimals used to get its user representation. For example, if `decimals` equals `2`, a balance of `505` tokens should be displayed to a user as `5.05` (`505 / 10 ** 2`). Tokens usually opt for a value of 18, imitating the relationship between Ether and Wei. This is the default value returned by this function, unless it's overridden. NOTE: This information is only used for _display_ purposes: it in no way affects any of the arithmetic of the contract, including {IERC20-balanceOf} and {IERC20-transfer}."
					},
					"decreaseAllowance(address,uint256)": {
						"details": "Atomically decreases the allowance granted to `spender` by the caller. This is an alternative to {approve} that can be used as a mitigation for problems described in {IERC20-approve}. Emits an {Approval} event indicating the updated allowance. Requirements: - `spender` cannot be the zero address. - `spender` must have allowance for the caller of at least `subtractedValue`."
					},
					"increaseAllowance(address,uint256)": {
						"details": "Atomically increases the allowance granted to `spender` by the caller. This is an alternative to {approve} that can be used as a mitigation for problems described in {IERC20-approve}. Emits an {Approval} event indicating the updated allowance. Requirements: - `spender` cannot be the zero address."
					},
					"name()": {
						"details": "Returns the name of the token."
					},
					"symbol()": {
						"details": "Returns the symbol of the token, usually a shorter version of the name."
					},
					"totalSupply()": {
						"details": "See {IERC20-totalSupply}."
					},
					"transfer(address,uint256)": {
						"details": "See {IERC20-transfer}. Requirements: - `to` cannot be the zero address. - the caller must have a balance of at least `amount`."
					},
					"transferFrom(address,address,uint256)": {
						"details": "See {IERC20-transferFrom}. Emits an {Approval} event indicating the updated allowance. This is not required by the EIP. See the note at the beginning of {ERC20}. NOTE: Does not update the allowance if the current allowance is the maximum `uint256`. Requirements: - `from` and `to` cannot be the zero address. - `from` must have a balance of at least `amount`. - the caller must have allowance for ``from``'s tokens of at least `amount`."
					}
				},
				"version": 1
			},
			"evm": {
				"assembly": "    /* \"contracts/erc201.sol\":457:1772  contract Blank is ERC20Capped, ERC20Burnable {... */\n  mstore(0x40, 0x80)\n    /* \"contracts/erc201.sol\":579:830  constructor(uint256 cap, uint256 reward) ERC20('Name', 'Symbol') ERC20Capped(cap * (10 ** decimals())) {... */\n  callvalue\n  dup1\n  iszero\n  tag_1\n  jumpi\n  0x00\n  dup1\n  revert\ntag_1:\n  pop\n  mload(0x40)\n  sub(codesize, bytecodeSize)\n  dup1\n  bytecodeSize\n  dup4\n  codecopy\n  dup2\n  add\n  0x40\n  dup2\n  swap1\n  mstore\n  tag_2\n  swap2\n  tag_3\n  jump\t// in\ntag_2:\n    /* \"contracts/erc201.sol\":663:679  10 ** decimals() */\n  tag_7\n    /* \"https://github.com/OpenZeppelin/openzeppelin-contracts/blob/v4.9.5/contracts/token/ERC20/ERC20.sol\":3186:3188  18 */\n  0x12\n    /* \"contracts/erc201.sol\":663:665  10 */\n  0x0a\n    /* \"contracts/erc201.sol\":663:679  10 ** decimals() */\n  tag_8\n  jump\t// in\ntag_7:\n    /* \"contracts/erc201.sol\":656:680  cap * (10 ** decimals()) */\n  tag_9\n  swap1\n    /* \"contracts/erc201.sol\":656:659  cap */\n  dup4\n    /* \"contracts/erc201.sol\":656:680  cap * (10 ** decimals()) */\n  tag_10\n  jump\t// in\ntag_9:\n    /* \"https://github.com/OpenZeppelin/openzeppelin-contracts/blob/v4.9.5/contracts/token/ERC20/ERC20.sol\":1980:2093  constructor(string memory name_, string memory symbol_) {... */\n  mload(0x40)\n  dup1\n  0x40\n  add\n  0x40\n  mstore\n  dup1\n  0x04\n  dup2\n  mstore\n  0x20\n  add\n  shl(0xe0, 0x4e616d65)\n  dup2\n  mstore\n  pop\n  mload(0x40)\n  dup1\n  0x40\n  add\n  0x40\n  mstore\n  dup1\n  0x06\n  dup2\n  mstore\n  0x20\n  add\n  shl(0xd2, 0x14de5b589bdb)\n  dup2\n  mstore\n  pop\n    /* \"https://github.com/OpenZeppelin/openzeppelin-contracts/blob/v4.9.5/contracts/token/ERC20/ERC20.sol\":2054:2059  name_ */\n  dup2\n    /* \"https://github.com/OpenZeppelin/openzeppelin-contracts/blob/v4.9.5/contracts/token/ERC20/ERC20.sol\":2046:2051  _name */\n  0x03\n    /* \"https://github.com/OpenZeppelin/openzeppelin-contracts/blob/v4.9.5/contracts/token/ERC20/ERC20.sol\":2046:2059  _name = name_ */\n  swap1\n  dup2\n  tag_14\n  swap2\n  swap1\n  tag_15\n  jump\t// in\ntag_14:\n  pop\n    /* \"https://github.com/OpenZeppelin/openzeppelin-contracts/blob/v4.9.5/contracts/token/ERC20/ERC20.sol\":2069:2076  _symbol */\n  0x04\n    /* \"https://github.com/OpenZeppelin/openzeppelin-contracts/blob/v4.9.5/contracts/token/ERC20/ERC20.sol\":2069:2086  _symbol = symbol_ */\n  tag_16\n    /* \"https://github.com/OpenZeppelin/openzeppelin-contracts/blob/v4.9.5/contracts/token/ERC20/ERC20.sol\":2079:2086  symbol_ */\n  dup3\n    /* \"https://github.com/OpenZeppelin/openzeppelin-contracts/blob/v4.9.5/contracts/token/ERC20/ERC20.sol\":2069:2076  _symbol */\n  dup3\n    /* \"https://github.com/OpenZeppelin/openzeppelin-contracts/blob/v4.9.5/contracts/token/ERC20/ERC20.sol\":2069:2086  _symbol = symbol_ */\n  tag_15\n  jump\t// in\ntag_16:\n  pop\n    /* \"https://github.com/OpenZeppelin/openzeppelin-contracts/blob/v4.9.5/contracts/token/ERC20/ERC20.sol\":1980:2093  constructor(string memory name_, string memory symbol_) {... */\n  pop\n  pop\n    /* \"https://github.com/OpenZeppelin/openzeppelin-contracts/blob/v4.9.5/contracts/token/ERC20/extensions/ERC20Capped.sol\":491:492  0 */\n  0x00\n    /* \"https://github.com/OpenZeppelin/openzeppelin-contracts/blob/v4.9.5/contracts/token/ERC20/extensions/ERC20Capped.sol\":484:488  cap_ */\n  dup2\n    /* \"https://github.com/OpenZeppelin/openzeppelin-contracts/blob/v4.9.5/contracts/token/ERC20/extensions/ERC20Capped.sol\":484:492  cap_ > 0 */\n  gt\n    /* \"https://github.com/OpenZeppelin/openzeppelin-contracts/blob/v4.9.5/contracts/token/ERC20/extensions/ERC20Capped.sol\":476:518  require(cap_ > 0, \"ERC20Capped: cap is 0\") */\n  tag_18\n  jumpi\n  mload(0x40)\n  shl(0xe5, 0x461bcd)\n  dup2\n  mstore\n    /* \"#utility.yul\":4875:4877   */\n  0x20\n    /* \"https://github.com/OpenZeppelin/openzeppelin-contracts/blob/v4.9.5/contracts/token/ERC20/extensions/ERC20Capped.sol\":476:518  require(cap_ > 0, \"ERC20Capped: cap is 0\") */\n  0x04\n  dup3\n  add\n    /* \"#utility.yul\":4857:4878   */\n  mstore\n    /* \"#utility.yul\":4914:4916   */\n  0x15\n    /* \"#utility.yul\":4894:4912   */\n  0x24\n  dup3\n  add\n    /* \"#utility.yul\":4887:4917   */\n  mstore\n    /* \"#utility.yul\":4953:4976   */\n  0x45524332304361707065643a2063617020697320300000000000000000000000\n    /* \"#utility.yul\":4933:4951   */\n  0x44\n  dup3\n  add\n    /* \"#utility.yul\":4926:4977   */\n  mstore\n    /* \"#utility.yul\":4994:5012   */\n  0x64\n  add\n    /* \"https://github.com/OpenZeppelin/openzeppelin-contracts/blob/v4.9.5/contracts/token/ERC20/extensions/ERC20Capped.sol\":476:518  require(cap_ > 0, \"ERC20Capped: cap is 0\") */\ntag_19:\n  mload(0x40)\n  dup1\n  swap2\n  sub\n  swap1\n  revert\ntag_18:\n    /* \"https://github.com/OpenZeppelin/openzeppelin-contracts/blob/v4.9.5/contracts/token/ERC20/extensions/ERC20Capped.sol\":528:532  _cap */\n  0x05\n    /* \"https://github.com/OpenZeppelin/openzeppelin-contracts/blob/v4.9.5/contracts/token/ERC20/extensions/ERC20Capped.sol\":528:539  _cap = cap_ */\n  sstore\n    /* \"contracts/erc201.sol\":693:698  owner */\n  0x06\n    /* \"contracts/erc201.sol\":693:720  owner = payable(msg.sender) */\n  dup1\n  sload\n  not(sub(shl(0xa0, 0x01), 0x01))\n  and\n    /* \"contracts/erc201.sol\":709:719  msg.sender */\n  caller\n    /* \"contracts/erc201.sol\":693:720  owner = payable(msg.sender) */\n  swap1\n  dup2\n  or\n  swap1\n  swap2\n  sstore\n    /* \"contracts/erc201.sol\":731:770  _mint(owner, 1000 * (10 ** decimals())) */\n  tag_22\n  swap1\n    /* \"contracts/erc201.sol\":758:768  decimals() */\n  tag_23\n    /* \"https://github.com/OpenZeppelin/openzeppelin-contracts/blob/v4.9.5/contracts/token/ERC20/ERC20.sol\":3186:3188  18 */\n  0x12\n  swap1\n    /* \"https://github.com/OpenZeppelin/openzeppelin-contracts/blob/v4.9.5/contracts/token/ERC20/ERC20.sol\":3104:3195  function decimals() public view virtual override returns (uint8) {... */\n  jump\n    /* \"contracts/erc201.sol\":758:768  decimals() */\ntag_23:\n    /* \"contracts/erc201.sol\":752:768  10 ** decimals() */\n  tag_24\n  swap1\n    /* \"contracts/erc201.sol\":752:754  10 */\n  0x0a\n    /* \"contracts/erc201.sol\":752:768  10 ** decimals() */\n  tag_8\n  jump\t// in\ntag_24:\n    /* \"contracts/erc201.sol\":744:769  1000 * (10 ** decimals()) */\n  tag_25\n  swap1\n    /* \"contracts/erc201.sol\":744:748  1000 */\n  0x03e8\n    /* \"contracts/erc201.sol\":744:769  1000 * (10 ** decimals()) */\n  tag_10\n  jump\t// in\ntag_25:\n    /* \"contracts/erc201.sol\":731:736  _mint */\n  tag_26\n    /* \"contracts/erc201.sol\":731:770  _mint(owner, 1000 * (10 ** decimals())) */\n  jump\t// in\ntag_22:\n    /* \"contracts/erc201.sol\":805:821  10 ** decimals() */\n  tag_28\n    /* \"https://github.com/OpenZeppelin/openzeppelin-contracts/blob/v4.9.5/contracts/token/ERC20/ERC20.sol\":3186:3188  18 */\n  0x12\n    /* \"contracts/erc201.sol\":805:807  10 */\n  0x0a\n    /* \"contracts/erc201.sol\":805:821  10 ** decimals() */\n  tag_8\n  jump\t// in\ntag_28:\n    /* \"contracts/erc201.sol\":795:822  reward * (10 ** decimals()) */\n  tag_29\n  swap1\n    /* \"contracts/erc201.sol\":795:801  reward */\n  dup3\n    /* \"contracts/erc201.sol\":795:822  reward * (10 ** decimals()) */\n  tag_10\n  jump\t// in\ntag_29:\n    /* \"contracts/erc201.sol\":781:792  blockReward */\n  0x07\n    /* \"contracts/erc201.sol\":781:822  blockReward = reward * (10 ** decimals()) */\n  sstore\n  pop\n    /* \"contracts/erc201.sol\":457:1772  contract Blank is ERC20Capped, ERC20Burnable {... */\n  tag_89\n  swap1\n  pop\n  jump\n    /* \"contracts/erc201.sol\":838:1065  function _mint(address account, uint256 amount) internal virtual override(ERC20Capped, ERC20) {... */\ntag_26:\n    /* \"https://github.com/OpenZeppelin/openzeppelin-contracts/blob/v4.9.5/contracts/token/ERC20/extensions/ERC20Capped.sol\":695:699  _cap */\n  sload(0x05)\n    /* \"contracts/erc201.sol\":973:979  amount */\n  dup2\n    /* \"contracts/erc201.sol\":951:970  ERC20.totalSupply() */\n  tag_35\n    /* \"contracts/erc201.sol\":951:968  ERC20.totalSupply */\n  or(tag_0_38, shl(0x20, tag_36))\n    /* \"contracts/erc201.sol\":951:970  ERC20.totalSupply() */\n  0x20\n  shr\n  jump\t// in\ntag_35:\n    /* \"contracts/erc201.sol\":951:979  ERC20.totalSupply() + amount */\n  tag_37\n  swap2\n  swap1\n  tag_38\n  jump\t// in\ntag_37:\n    /* \"contracts/erc201.sol\":951:988  ERC20.totalSupply() + amount <= cap() */\n  gt\n  iszero\n    /* \"contracts/erc201.sol\":943:1018  require(ERC20.totalSupply() + amount <= cap(), \"ERC20Capped: cap exceeded\") */\n  tag_39\n  jumpi\n  mload(0x40)\n  shl(0xe5, 0x461bcd)\n  dup2\n  mstore\n    /* \"#utility.yul\":5355:5357   */\n  0x20\n    /* \"contracts/erc201.sol\":943:1018  require(ERC20.totalSupply() + amount <= cap(), \"ERC20Capped: cap exceeded\") */\n  0x04\n  dup3\n  add\n    /* \"#utility.yul\":5337:5358   */\n  mstore\n    /* \"#utility.yul\":5394:5396   */\n  0x19\n    /* \"#utility.yul\":5374:5392   */\n  0x24\n  dup3\n  add\n    /* \"#utility.yul\":5367:5397   */\n  mstore\n    /* \"#utility.yul\":5433:5460   */\n  0x45524332304361707065643a2063617020657863656564656400000000000000\n    /* \"#utility.yul\":5413:5431   */\n  0x44\n  dup3\n  add\n    /* \"#utility.yul\":5406:5461   */\n  mstore\n    /* \"#utility.yul\":5478:5496   */\n  0x64\n  add\n    /* \"contracts/erc201.sol\":943:1018  require(ERC20.totalSupply() + amount <= cap(), \"ERC20Capped: cap exceeded\") */\n  tag_19\n    /* \"#utility.yul\":5153:5502   */\n  jump\n    /* \"contracts/erc201.sol\":943:1018  require(ERC20.totalSupply() + amount <= cap(), \"ERC20Capped: cap exceeded\") */\ntag_39:\n    /* \"contracts/erc201.sol\":1029:1057  super._mint(account, amount) */\n  tag_42\n    /* \"contracts/erc201.sol\":1041:1048  account */\n  dup3\n    /* \"contracts/erc201.sol\":1050:1056  amount */\n  dup3\n    /* \"contracts/erc201.sol\":1029:1040  super._mint */\n  or(tag_0_91, shl(0x20, tag_43))\n    /* \"contracts/erc201.sol\":1029:1057  super._mint(account, amount) */\n  0x20\n  shr\n  jump\t// in\ntag_42:\n    /* \"contracts/erc201.sol\":838:1065  function _mint(address account, uint256 amount) internal virtual override(ERC20Capped, ERC20) {... */\n  pop\n  pop\n  jump\t// out\n    /* \"https://github.com/OpenZeppelin/openzeppelin-contracts/blob/v4.9.5/contracts/token/ERC20/ERC20.sol\":3255:3361  function totalSupply() public view virtual override returns (uint256) {... */\ntag_36:\n    /* \"https://github.com/OpenZeppelin/openzeppelin-contracts/blob/v4.9.5/contracts/token/ERC20/ERC20.sol\":3342:3354  _totalSupply */\n  sload(0x02)\n  swap1\n    /* \"https://github.com/OpenZeppelin/openzeppelin-contracts/blob/v4.9.5/contracts/token/ERC20/ERC20.sol\":3255:3361  function totalSupply() public view virtual override returns (uint256) {... */\n  jump\t// out\n    /* \"https://github.com/OpenZeppelin/openzeppelin-contracts/blob/v4.9.5/contracts/token/ERC20/extensions/ERC20Capped.sol\":759:963  function _mint(address account, uint256 amount) internal virtual override {... */\ntag_43:\n    /* \"https://github.com/OpenZeppelin/openzeppelin-contracts/blob/v4.9.5/contracts/token/ERC20/extensions/ERC20Capped.sol\":695:699  _cap */\n  sload(0x05)\n    /* \"https://github.com/OpenZeppelin/openzeppelin-contracts/blob/v4.9.5/contracts/token/ERC20/extensions/ERC20Capped.sol\":873:879  amount */\n  dup2\n    /* \"https://github.com/OpenZeppelin/openzeppelin-contracts/blob/v4.9.5/contracts/token/ERC20/extensions/ERC20Capped.sol\":851:870  ERC20.totalSupply() */\n  tag_48\n    /* \"https://github.com/OpenZeppelin/openzeppelin-contracts/blob/v4.9.5/contracts/token/ERC20/extensions/ERC20Capped.sol\":851:868  ERC20.totalSupply */\n  or(tag_0_38, shl(0x20, tag_36))\n    /* \"https://github.com/OpenZeppelin/openzeppelin-contracts/blob/v4.9.5/contracts/token/ERC20/extensions/ERC20Capped.sol\":851:870  ERC20.totalSupply() */\n  0x20\n  shr\n  jump\t// in\ntag_48:\n    /* \"https://github.com/OpenZeppelin/openzeppelin-contracts/blob/v4.9.5/contracts/token/ERC20/extensions/ERC20Capped.sol\":851:879  ERC20.totalSupply() + amount */\n  tag_49\n  swap2\n  swap1\n  tag_38\n  jump\t// in\ntag_49:\n    /* \"https://github.com/OpenZeppelin/openzeppelin-contracts/blob/v4.9.5/contracts/token/ERC20/extensions/ERC20Capped.sol\":851:888  ERC20.totalSupply() + amount <= cap() */\n  gt\n  iszero\n    /* \"https://github.com/OpenZeppelin/openzeppelin-contracts/blob/v4.9.5/contracts/token/ERC20/extensions/ERC20Capped.sol\":843:918  require(ERC20.totalSupply() + amount <= cap(), \"ERC20Capped: cap exceeded\") */\n  tag_50\n  jumpi\n  mload(0x40)\n  shl(0xe5, 0x461bcd)\n  dup2\n  mstore\n    /* \"#utility.yul\":5355:5357   */\n  0x20\n    /* \"https://github.com/OpenZeppelin/openzeppelin-contracts/blob/v4.9.5/contracts/token/ERC20/extensions/ERC20Capped.sol\":843:918  require(ERC20.totalSupply() + amount <= cap(), \"ERC20Capped: cap exceeded\") */\n  0x04\n  dup3\n  add\n    /* \"#utility.yul\":5337:5358   */\n  mstore\n    /* \"#utility.yul\":5394:5396   */\n  0x19\n    /* \"#utility.yul\":5374:5392   */\n  0x24\n  dup3\n  add\n    /* \"#utility.yul\":5367:5397   */\n  mstore\n    /* \"#utility.yul\":5433:5460   */\n  0x45524332304361707065643a2063617020657863656564656400000000000000\n    /* \"#utility.yul\":5413:5431   */\n  0x44\n  dup3\n  add\n    /* \"#utility.yul\":5406:5461   */\n  mstore\n    /* \"#utility.yul\":5478:5496   */\n  0x64\n  add\n    /* \"https://github.com/OpenZeppelin/openzeppelin-contracts/blob/v4.9.5/contracts/token/ERC20/extensions/ERC20Capped.sol\":843:918  require(ERC20.totalSupply() + amount <= cap(), \"ERC20Capped: cap exceeded\") */\n  tag_19\n    /* \"#utility.yul\":5153:5502   */\n  jump\n    /* \"https://github.com/OpenZeppelin/openzeppelin-contracts/blob/v4.9.5/contracts/token/ERC20/extensions/ERC20Capped.sol\":843:918  require(ERC20.totalSupply() + amount <= cap(), \"ERC20Capped: cap exceeded\") */\ntag_50:\n    /* \"https://github.com/OpenZeppelin/openzeppelin-contracts/blob/v4.9.5/contracts/token/ERC20/extensions/ERC20Capped.sol\":928:956  super._mint(account, amount) */\n  tag_42\n    /* \"https://github.com/OpenZeppelin/openzeppelin-contracts/blob/v4.9.5/contracts/token/ERC20/extensions/ERC20Capped.sol\":940:947  account */\n  dup3\n    /* \"https://github.com/OpenZeppelin/openzeppelin-contracts/blob/v4.9.5/contracts/token/ERC20/extensions/ERC20Capped.sol\":949:955  amount */\n  dup3\n    /* \"https://github.com/OpenZeppelin/openzeppelin-contracts/blob/v4.9.5/contracts/token/ERC20/extensions/ERC20Capped.sol\":928:939  super._mint */\n  or(tag_0_92, shl(0x20, tag_53))\n    /* \"https://github.com/OpenZeppelin/openzeppelin-contracts/blob/v4.9.5/contracts/token/ERC20/extensions/ERC20Capped.sol\":928:956  super._mint(account, amount) */\n  0x20\n  shr\n  jump\t// in\n    /* \"https://github.com/OpenZeppelin/openzeppelin-contracts/blob/v4.9.5/contracts/token/ERC20/ERC20.sol\":8520:9055  function _mint(address account, uint256 amount) internal virtual {... */\ntag_53:\n  sub(shl(0xa0, 0x01), 0x01)\n    /* \"https://github.com/OpenZeppelin/openzeppelin-contracts/blob/v4.9.5/contracts/token/ERC20/ERC20.sol\":8603:8624  account != address(0) */\n  dup3\n  and\n    /* \"https://github.com/OpenZeppelin/openzeppelin-contracts/blob/v4.9.5/contracts/token/ERC20/ERC20.sol\":8595:8660  require(account != address(0), \"ERC20: mint to the zero address\") */\n  tag_55\n  jumpi\n  mload(0x40)\n  shl(0xe5, 0x461bcd)\n  dup2\n  mstore\n    /* \"#utility.yul\":5709:5711   */\n  0x20\n    /* \"https://github.com/OpenZeppelin/openzeppelin-contracts/blob/v4.9.5/contracts/token/ERC20/ERC20.sol\":8595:8660  require(account != address(0), \"ERC20: mint to the zero address\") */\n  0x04\n  dup3\n  add\n    /* \"#utility.yul\":5691:5712   */\n  mstore\n    /* \"#utility.yul\":5748:5750   */\n  0x1f\n    /* \"#utility.yul\":5728:5746   */\n  0x24\n  dup3\n  add\n    /* \"#utility.yul\":5721:5751   */\n  mstore\n    /* \"#utility.yul\":5787:5820   */\n  0x45524332303a206d696e7420746f20746865207a65726f206164647265737300\n    /* \"#utility.yul\":5767:5785   */\n  0x44\n  dup3\n  add\n    /* \"#utility.yul\":5760:5821   */\n  mstore\n    /* \"#utility.yul\":5838:5856   */\n  0x64\n  add\n    /* \"https://github.com/OpenZeppelin/openzeppelin-contracts/blob/v4.9.5/contracts/token/ERC20/ERC20.sol\":8595:8660  require(account != address(0), \"ERC20: mint to the zero address\") */\n  tag_19\n    /* \"#utility.yul\":5507:5862   */\n  jump\n    /* \"https://github.com/OpenZeppelin/openzeppelin-contracts/blob/v4.9.5/contracts/token/ERC20/ERC20.sol\":8595:8660  require(account != address(0), \"ERC20: mint to the zero address\") */\ntag_55:\n    /* \"https://github.com/OpenZeppelin/openzeppelin-contracts/blob/v4.9.5/contracts/token/ERC20/ERC20.sol\":8671:8720  _beforeTokenTransfer(address(0), account, amount) */\n  tag_58\n    /* \"https://github.com/OpenZeppelin/openzeppelin-contracts/blob/v4.9.5/contracts/token/ERC20/ERC20.sol\":8700:8701  0 */\n  0x00\n    /* \"https://github.com/OpenZeppelin/openzeppelin-contracts/blob/v4.9.5/contracts/token/ERC20/ERC20.sol\":8704:8711  account */\n  dup4\n    /* \"https://github.com/OpenZeppelin/openzeppelin-contracts/blob/v4.9.5/contracts/token/ERC20/ERC20.sol\":8713:8719  amount */\n  dup4\n    /* \"https://github.com/OpenZeppelin/openzeppelin-contracts/blob/v4.9.5/contracts/token/ERC20/ERC20.sol\":8671:8691  _beforeTokenTransfer */\n  tag_59\n    /* \"https://github.com/OpenZeppelin/openzeppelin-contracts/blob/v4.9.5/contracts/token/ERC20/ERC20.sol\":8671:8720  _beforeTokenTransfer(address(0), account, amount) */\n  jump\t// in\ntag_58:\n    /* \"https://github.com/OpenZeppelin/openzeppelin-contracts/blob/v4.9.5/contracts/token/ERC20/ERC20.sol\":8747:8753  amount */\n  dup1\n    /* \"https://github.com/OpenZeppelin/openzeppelin-contracts/blob/v4.9.5/contracts/token/ERC20/ERC20.sol\":8731:8743  _totalSupply */\n  0x02\n  0x00\n    /* \"https://github.com/OpenZeppelin/openzeppelin-contracts/blob/v4.9.5/contracts/token/ERC20/ERC20.sol\":8731:8753  _totalSupply += amount */\n  dup3\n  dup3\n  sload\n  tag_60\n  swap2\n  swap1\n  tag_38\n  jump\t// in\ntag_60:\n  swap1\n  swap2\n  sstore\n  pop\n  pop\n  sub(shl(0xa0, 0x01), 0x01)\n    /* \"https://github.com/OpenZeppelin/openzeppelin-contracts/blob/v4.9.5/contracts/token/ERC20/ERC20.sol\":8899:8917  _balances[account] */\n  dup3\n  and\n    /* \"https://github.com/OpenZeppelin/openzeppelin-contracts/blob/v4.9.5/contracts/token/ERC20/ERC20.sol\":8899:8908  _balances */\n  0x00\n    /* \"https://github.com/OpenZeppelin/openzeppelin-contracts/blob/v4.9.5/contracts/token/ERC20/ERC20.sol\":8899:8917  _balances[account] */\n  dup2\n  dup2\n  mstore\n  0x20\n  dup2\n  dup2\n  mstore\n  0x40\n  dup1\n  dup4\n  keccak256\n    /* \"https://github.com/OpenZeppelin/openzeppelin-contracts/blob/v4.9.5/contracts/token/ERC20/ERC20.sol\":8899:8927  _balances[account] += amount */\n  dup1\n  sload\n  dup7\n  add\n  swap1\n  sstore\n    /* \"https://github.com/OpenZeppelin/openzeppelin-contracts/blob/v4.9.5/contracts/token/ERC20/ERC20.sol\":8952:8989  Transfer(address(0), account, amount) */\n  mload\n    /* \"#utility.yul\":6013:6038   */\n  dup5\n  dup2\n  mstore\n    /* \"https://github.com/OpenZeppelin/openzeppelin-contracts/blob/v4.9.5/contracts/token/ERC20/ERC20.sol\":8952:8989  Transfer(address(0), account, amount) */\n  0xddf252ad1be2c89b69c2b068fc378daa952ba7f163c4a11628f55a4df523b3ef\n  swap2\n    /* \"#utility.yul\":5986:6004   */\n  add\n    /* \"https://github.com/OpenZeppelin/openzeppelin-contracts/blob/v4.9.5/contracts/token/ERC20/ERC20.sol\":8952:8989  Transfer(address(0), account, amount) */\n  mload(0x40)\n  dup1\n  swap2\n  sub\n  swap1\n  log3\n    /* \"contracts/erc201.sol\":838:1065  function _mint(address account, uint256 amount) internal virtual override(ERC20Capped, ERC20) {... */\n  pop\n  pop\n  jump\t// out\n    /* \"contracts/erc201.sol\":1171:1510  function _beforeTokenTransfer(address from, address to, uint256 value) internal virtual override {... */\ntag_59:\n  sub(shl(0xa0, 0x01), 0x01)\n    /* \"contracts/erc201.sol\":1282:1300  from != address(0) */\n  dup4\n  and\n  iszero\n  dup1\n  iszero\n  swap1\n    /* \"contracts/erc201.sol\":1282:1324  from != address(0) && to != block.coinbase */\n  tag_66\n  jumpi\n  pop\n  sub(shl(0xa0, 0x01), 0x01)\n    /* \"contracts/erc201.sol\":1304:1324  to != block.coinbase */\n  dup3\n  and\n    /* \"contracts/erc201.sol\":1310:1324  block.coinbase */\n  coinbase\n    /* \"contracts/erc201.sol\":1304:1324  to != block.coinbase */\n  eq\n  iszero\n    /* \"contracts/erc201.sol\":1282:1324  from != address(0) && to != block.coinbase */\ntag_66:\n    /* \"contracts/erc201.sol\":1282:1356  from != address(0) && to != block.coinbase && block.coinbase != address(0) */\n  dup1\n  iszero\n  tag_67\n  jumpi\n  pop\n    /* \"contracts/erc201.sol\":1328:1342  block.coinbase */\n  coinbase\n    /* \"contracts/erc201.sol\":1328:1356  block.coinbase != address(0) */\n  iszero\n  iszero\n    /* \"contracts/erc201.sol\":1282:1356  from != address(0) && to != block.coinbase && block.coinbase != address(0) */\ntag_67:\n    /* \"contracts/erc201.sol\":1282:1402  from != address(0) && to != block.coinbase && block.coinbase != address(0) && ERC20.totalSupply() + blockReward <= cap() */\n  dup1\n  iszero\n  tag_68\n  jumpi\n  pop\n    /* \"https://github.com/OpenZeppelin/openzeppelin-contracts/blob/v4.9.5/contracts/token/ERC20/extensions/ERC20Capped.sol\":695:699  _cap */\n  sload(0x05)\n    /* \"contracts/erc201.sol\":1382:1393  blockReward */\n  sload(0x07)\n    /* \"contracts/erc201.sol\":1360:1379  ERC20.totalSupply() */\n  tag_70\n    /* \"contracts/erc201.sol\":1360:1377  ERC20.totalSupply */\n  or(tag_0_38, shl(0x20, tag_36))\n    /* \"contracts/erc201.sol\":1360:1379  ERC20.totalSupply() */\n  0x20\n  shr\n  jump\t// in\ntag_70:\n    /* \"contracts/erc201.sol\":1360:1393  ERC20.totalSupply() + blockReward */\n  tag_71\n  swap2\n  swap1\n  tag_38\n  jump\t// in\ntag_71:\n    /* \"contracts/erc201.sol\":1360:1402  ERC20.totalSupply() + blockReward <= cap() */\n  gt\n  iszero\n    /* \"contracts/erc201.sol\":1282:1402  from != address(0) && to != block.coinbase && block.coinbase != address(0) && ERC20.totalSupply() + blockReward <= cap() */\ntag_68:\n    /* \"contracts/erc201.sol\":1279:1449  if(from != address(0) && to != block.coinbase && block.coinbase != address(0) && ERC20.totalSupply() + blockReward <= cap()) {... */\n  iszero\n  tag_73\n  jumpi\n    /* \"contracts/erc201.sol\":1419:1437  _mintMinerReward() */\n  tag_73\n    /* \"contracts/erc201.sol\":1419:1435  _mintMinerReward */\n  tag_74\n    /* \"contracts/erc201.sol\":1419:1437  _mintMinerReward() */\n  jump\t// in\ntag_73:\n    /* \"contracts/erc201.sol\":1459:1502  super._beforeTokenTransfer(from, to, value) */\n  tag_75\n    /* \"contracts/erc201.sol\":1486:1490  from */\n  dup4\n    /* \"contracts/erc201.sol\":1492:1494  to */\n  dup4\n    /* \"contracts/erc201.sol\":1496:1501  value */\n  dup4\n    /* \"contracts/erc201.sol\":1459:1485  super._beforeTokenTransfer */\n  or(tag_0_93, shl(0x20, tag_75))\n    /* \"contracts/erc201.sol\":1459:1502  super._beforeTokenTransfer(from, to, value) */\n  0x20\n  shr\n  jump\t// in\ntag_75:\n    /* \"contracts/erc201.sol\":1171:1510  function _beforeTokenTransfer(address from, address to, uint256 value) internal virtual override {... */\n  pop\n  pop\n  pop\n  jump\t// out\n    /* \"contracts/erc201.sol\":1073:1163  function _mintMinerReward() internal {... */\ntag_74:\n    /* \"contracts/erc201.sol\":1121:1155  _mint(block.coinbase, blockReward) */\n  tag_79\n    /* \"contracts/erc201.sol\":1127:1141  block.coinbase */\n  coinbase\n    /* \"contracts/erc201.sol\":1143:1154  blockReward */\n  sload(0x07)\n    /* \"contracts/erc201.sol\":1121:1126  _mint */\n  shl(0x20, tag_26)\n    /* \"contracts/erc201.sol\":1121:1155  _mint(block.coinbase, blockReward) */\n  0x20\n  shr\n  jump\t// in\ntag_79:\n    /* \"contracts/erc201.sol\":1073:1163  function _mintMinerReward() internal {... */\n  jump\t// out\n    /* \"#utility.yul\":14:259   */\ntag_3:\n    /* \"#utility.yul\":93:99   */\n  0x00\n    /* \"#utility.yul\":101:107   */\n  dup1\n    /* \"#utility.yul\":154:156   */\n  0x40\n    /* \"#utility.yul\":142:151   */\n  dup4\n    /* \"#utility.yul\":133:140   */\n  dup6\n    /* \"#utility.yul\":129:152   */\n  sub\n    /* \"#utility.yul\":125:157   */\n  slt\n    /* \"#utility.yul\":122:174   */\n  iszero\n  tag_91\n  jumpi\n    /* \"#utility.yul\":170:171   */\n  0x00\n    /* \"#utility.yul\":167:168   */\n  dup1\n    /* \"#utility.yul\":160:172   */\n  revert\n    /* \"#utility.yul\":122:174   */\ntag_91:\n  pop\n  pop\n    /* \"#utility.yul\":193:209   */\n  dup1\n  mload\n    /* \"#utility.yul\":249:251   */\n  0x20\n    /* \"#utility.yul\":234:252   */\n  swap1\n  swap2\n  add\n    /* \"#utility.yul\":228:253   */\n  mload\n    /* \"#utility.yul\":193:209   */\n  swap1\n  swap3\n    /* \"#utility.yul\":228:253   */\n  swap1\n  swap2\n  pop\n    /* \"#utility.yul\":14:259   */\n  jump\t// out\n    /* \"#utility.yul\":264:391   */\ntag_81:\n    /* \"#utility.yul\":325:335   */\n  0x4e487b71\n    /* \"#utility.yul\":320:323   */\n  0xe0\n    /* \"#utility.yul\":316:336   */\n  shl\n    /* \"#utility.yul\":313:314   */\n  0x00\n    /* \"#utility.yul\":306:337   */\n  mstore\n    /* \"#utility.yul\":356:360   */\n  0x11\n    /* \"#utility.yul\":353:354   */\n  0x04\n    /* \"#utility.yul\":346:361   */\n  mstore\n    /* \"#utility.yul\":380:384   */\n  0x24\n    /* \"#utility.yul\":377:378   */\n  0x00\n    /* \"#utility.yul\":370:385   */\n  revert\n    /* \"#utility.yul\":396:818   */\ntag_82:\n    /* \"#utility.yul\":485:486   */\n  0x01\n    /* \"#utility.yul\":528:533   */\n  dup2\n    /* \"#utility.yul\":485:486   */\n  dup2\n    /* \"#utility.yul\":542:812   */\ntag_94:\n    /* \"#utility.yul\":563:570   */\n  dup1\n    /* \"#utility.yul\":553:561   */\n  dup6\n    /* \"#utility.yul\":550:571   */\n  gt\n    /* \"#utility.yul\":542:812   */\n  iszero\n  tag_96\n  jumpi\n    /* \"#utility.yul\":622:626   */\n  dup2\n    /* \"#utility.yul\":618:619   */\n  0x00\n    /* \"#utility.yul\":614:620   */\n  not\n    /* \"#utility.yul\":610:627   */\n  div\n    /* \"#utility.yul\":604:608   */\n  dup3\n    /* \"#utility.yul\":601:628   */\n  gt\n    /* \"#utility.yul\":598:651   */\n  iszero\n  tag_98\n  jumpi\n    /* \"#utility.yul\":631:649   */\n  tag_98\n  tag_81\n  jump\t// in\ntag_98:\n    /* \"#utility.yul\":681:688   */\n  dup1\n    /* \"#utility.yul\":671:679   */\n  dup6\n    /* \"#utility.yul\":667:689   */\n  and\n    /* \"#utility.yul\":664:719   */\n  iszero\n  tag_99\n  jumpi\n    /* \"#utility.yul\":701:717   */\n  swap2\n  dup2\n  mul\n  swap2\n    /* \"#utility.yul\":664:719   */\ntag_99:\n    /* \"#utility.yul\":780:802   */\n  swap4\n  dup5\n  shr\n  swap4\n    /* \"#utility.yul\":740:755   */\n  swap1\n  dup1\n  mul\n  swap1\n    /* \"#utility.yul\":542:812   */\n  jump(tag_94)\ntag_96:\n    /* \"#utility.yul\":546:549   */\n  pop\n    /* \"#utility.yul\":396:818   */\n  swap3\n  pop\n  swap3\n  swap1\n  pop\n  jump\t// out\n    /* \"#utility.yul\":823:1629   */\ntag_83:\n    /* \"#utility.yul\":872:877   */\n  0x00\n    /* \"#utility.yul\":902:910   */\n  dup3\n    /* \"#utility.yul\":892:972   */\n  tag_101\n  jumpi\n  pop\n    /* \"#utility.yul\":943:944   */\n  0x01\n    /* \"#utility.yul\":957:962   */\n  jump(tag_100)\n    /* \"#utility.yul\":892:972   */\ntag_101:\n    /* \"#utility.yul\":991:995   */\n  dup2\n    /* \"#utility.yul\":981:1057   */\n  tag_102\n  jumpi\n  pop\n    /* \"#utility.yul\":1028:1029   */\n  0x00\n    /* \"#utility.yul\":1042:1047   */\n  jump(tag_100)\n    /* \"#utility.yul\":981:1057   */\ntag_102:\n    /* \"#utility.yul\":1073:1077   */\n  dup2\n    /* \"#utility.yul\":1091:1092   */\n  0x01\n    /* \"#utility.yul\":1086:1145   */\n  dup2\n  eq\n  tag_104\n  jumpi\n    /* \"#utility.yul\":1159:1160   */\n  0x02\n    /* \"#utility.yul\":1154:1284   */\n  dup2\n  eq\n  tag_105\n  jumpi\n    /* \"#utility.yul\":1066:1284   */\n  jump(tag_103)\n    /* \"#utility.yul\":1086:1145   */\ntag_104:\n    /* \"#utility.yul\":1116:1117   */\n  0x01\n    /* \"#utility.yul\":1107:1117   */\n  swap2\n  pop\n    /* \"#utility.yul\":1130:1135   */\n  pop\n  jump(tag_100)\n    /* \"#utility.yul\":1154:1284   */\ntag_105:\n    /* \"#utility.yul\":1191:1194   */\n  0xff\n    /* \"#utility.yul\":1181:1189   */\n  dup5\n    /* \"#utility.yul\":1178:1195   */\n  gt\n    /* \"#utility.yul\":1175:1218   */\n  iszero\n  tag_107\n  jumpi\n    /* \"#utility.yul\":1198:1216   */\n  tag_107\n  tag_81\n  jump\t// in\ntag_107:\n  pop\n  pop\n    /* \"#utility.yul\":1254:1255   */\n  0x01\n    /* \"#utility.yul\":1240:1256   */\n  dup3\n  shl\n    /* \"#utility.yul\":1269:1274   */\n  jump(tag_100)\n    /* \"#utility.yul\":1066:1284   */\ntag_103:\n  pop\n    /* \"#utility.yul\":1368:1370   */\n  0x20\n    /* \"#utility.yul\":1358:1366   */\n  dup4\n    /* \"#utility.yul\":1355:1371   */\n  lt\n    /* \"#utility.yul\":1349:1352   */\n  0x0133\n    /* \"#utility.yul\":1343:1347   */\n  dup4\n    /* \"#utility.yul\":1340:1353   */\n  lt\n    /* \"#utility.yul\":1336:1372   */\n  and\n    /* \"#utility.yul\":1330:1332   */\n  0x4e\n    /* \"#utility.yul\":1320:1328   */\n  dup5\n    /* \"#utility.yul\":1317:1333   */\n  lt\n    /* \"#utility.yul\":1312:1314   */\n  0x0b\n    /* \"#utility.yul\":1306:1310   */\n  dup5\n    /* \"#utility.yul\":1303:1315   */\n  lt\n    /* \"#utility.yul\":1299:1334   */\n  and\n    /* \"#utility.yul\":1296:1373   */\n  or\n    /* \"#utility.yul\":1293:1452   */\n  iszero\n  tag_108\n  jumpi\n  pop\n    /* \"#utility.yul\":1405:1424   */\n  dup2\n  dup2\n  exp\n    /* \"#utility.yul\":1437:1442   */\n  jump(tag_100)\n    /* \"#utility.yul\":1293:1452   */\ntag_108:\n    /* \"#utility.yul\":1484:1518   */\n  tag_109\n    /* \"#utility.yul\":1509:1517   */\n  dup4\n    /* \"#utility.yul\":1503:1507   */\n  dup4\n    /* \"#utility.yul\":1484:1518   */\n  tag_82\n  jump\t// in\ntag_109:\n    /* \"#utility.yul\":1554:1560   */\n  dup1\n    /* \"#utility.yul\":1550:1551   */\n  0x00\n    /* \"#utility.yul\":1546:1552   */\n  not\n    /* \"#utility.yul\":1542:1561   */\n  div\n    /* \"#utility.yul\":1533:1540   */\n  dup3\n    /* \"#utility.yul\":1530:1562   */\n  gt\n    /* \"#utility.yul\":1527:1585   */\n  iszero\n  tag_111\n  jumpi\n    /* \"#utility.yul\":1565:1583   */\n  tag_111\n  tag_81\n  jump\t// in\ntag_111:\n    /* \"#utility.yul\":1603:1623   */\n  mul\n  swap1\n  pop\n    /* \"#utility.yul\":823:1629   */\ntag_100:\n  swap3\n  swap2\n  pop\n  pop\n  jump\t// out\n    /* \"#utility.yul\":1634:1774   */\ntag_8:\n    /* \"#utility.yul\":1692:1697   */\n  0x00\n    /* \"#utility.yul\":1721:1768   */\n  tag_113\n    /* \"#utility.yul\":1762:1766   */\n  0xff\n    /* \"#utility.yul\":1752:1760   */\n  dup5\n    /* \"#utility.yul\":1748:1767   */\n  and\n    /* \"#utility.yul\":1742:1746   */\n  dup4\n    /* \"#utility.yul\":1721:1768   */\n  tag_83\n  jump\t// in\ntag_113:\n    /* \"#utility.yul\":1712:1768   */\n  swap4\n    /* \"#utility.yul\":1634:1774   */\n  swap3\n  pop\n  pop\n  pop\n  jump\t// out\n    /* \"#utility.yul\":1779:1947   */\ntag_10:\n    /* \"#utility.yul\":1852:1861   */\n  dup1\n  dup3\n  mul\n    /* \"#utility.yul\":1883:1892   */\n  dup2\n  iszero\n    /* \"#utility.yul\":1900:1915   */\n  dup3\n  dup3\n  div\n    /* \"#utility.yul\":1894:1916   */\n  dup5\n  eq\n    /* \"#utility.yul\":1880:1917   */\n  or\n    /* \"#utility.yul\":1870:1941   */\n  tag_100\n  jumpi\n    /* \"#utility.yul\":1921:1939   */\n  tag_100\n  tag_81\n  jump\t// in\n    /* \"#utility.yul\":1952:2079   */\ntag_84:\n    /* \"#utility.yul\":2013:2023   */\n  0x4e487b71\n    /* \"#utility.yul\":2008:2011   */\n  0xe0\n    /* \"#utility.yul\":2004:2024   */\n  shl\n    /* \"#utility.yul\":2001:2002   */\n  0x00\n    /* \"#utility.yul\":1994:2025   */\n  mstore\n    /* \"#utility.yul\":2044:2048   */\n  0x41\n    /* \"#utility.yul\":2041:2042   */\n  0x04\n    /* \"#utility.yul\":2034:2049   */\n  mstore\n    /* \"#utility.yul\":2068:2072   */\n  0x24\n    /* \"#utility.yul\":2065:2066   */\n  0x00\n    /* \"#utility.yul\":2058:2073   */\n  revert\n    /* \"#utility.yul\":2084:2464   */\ntag_85:\n    /* \"#utility.yul\":2163:2164   */\n  0x01\n    /* \"#utility.yul\":2159:2171   */\n  dup2\n  dup2\n  shr\n  swap1\n    /* \"#utility.yul\":2206:2218   */\n  dup3\n  and\n  dup1\n    /* \"#utility.yul\":2227:2288   */\n  tag_119\n  jumpi\n    /* \"#utility.yul\":2281:2285   */\n  0x7f\n    /* \"#utility.yul\":2273:2279   */\n  dup3\n    /* \"#utility.yul\":2269:2286   */\n  and\n    /* \"#utility.yul\":2259:2286   */\n  swap2\n  pop\n    /* \"#utility.yul\":2227:2288   */\ntag_119:\n    /* \"#utility.yul\":2334:2336   */\n  0x20\n    /* \"#utility.yul\":2326:2332   */\n  dup3\n    /* \"#utility.yul\":2323:2337   */\n  lt\n    /* \"#utility.yul\":2303:2321   */\n  dup2\n    /* \"#utility.yul\":2300:2338   */\n  sub\n    /* \"#utility.yul\":2297:2458   */\n  tag_120\n  jumpi\n    /* \"#utility.yul\":2380:2390   */\n  0x4e487b71\n    /* \"#utility.yul\":2375:2378   */\n  0xe0\n    /* \"#utility.yul\":2371:2391   */\n  shl\n    /* \"#utility.yul\":2368:2369   */\n  0x00\n    /* \"#utility.yul\":2361:2392   */\n  mstore\n    /* \"#utility.yul\":2415:2419   */\n  0x22\n    /* \"#utility.yul\":2412:2413   */\n  0x04\n    /* \"#utility.yul\":2405:2420   */\n  mstore\n    /* \"#utility.yul\":2443:2447   */\n  0x24\n    /* \"#utility.yul\":2440:2441   */\n  0x00\n    /* \"#utility.yul\":2433:2448   */\n  revert\n    /* \"#utility.yul\":2297:2458   */\ntag_120:\n  pop\n    /* \"#utility.yul\":2084:2464   */\n  swap2\n  swap1\n  pop\n  jump\t// out\n    /* \"#utility.yul\":2595:3140   */\ntag_87:\n    /* \"#utility.yul\":2697:2699   */\n  0x1f\n    /* \"#utility.yul\":2692:2695   */\n  dup3\n    /* \"#utility.yul\":2689:2700   */\n  gt\n    /* \"#utility.yul\":2686:3134   */\n  iszero\n  tag_75\n  jumpi\n    /* \"#utility.yul\":2733:2734   */\n  0x00\n    /* \"#utility.yul\":2758:2763   */\n  dup2\n    /* \"#utility.yul\":2754:2756   */\n  dup2\n    /* \"#utility.yul\":2747:2764   */\n  mstore\n    /* \"#utility.yul\":2803:2807   */\n  0x20\n    /* \"#utility.yul\":2799:2801   */\n  dup2\n    /* \"#utility.yul\":2789:2808   */\n  keccak256\n    /* \"#utility.yul\":2873:2875   */\n  0x1f\n    /* \"#utility.yul\":2861:2871   */\n  dup6\n    /* \"#utility.yul\":2857:2876   */\n  add\n    /* \"#utility.yul\":2854:2855   */\n  0x05\n    /* \"#utility.yul\":2850:2877   */\n  shr\n    /* \"#utility.yul\":2844:2848   */\n  dup2\n    /* \"#utility.yul\":2840:2878   */\n  add\n    /* \"#utility.yul\":2909:2913   */\n  0x20\n    /* \"#utility.yul\":2897:2907   */\n  dup7\n    /* \"#utility.yul\":2894:2914   */\n  lt\n    /* \"#utility.yul\":2891:2938   */\n  iszero\n  tag_124\n  jumpi\n  pop\n    /* \"#utility.yul\":2932:2936   */\n  dup1\n    /* \"#utility.yul\":2891:2938   */\ntag_124:\n    /* \"#utility.yul\":2987:2989   */\n  0x1f\n    /* \"#utility.yul\":2982:2985   */\n  dup6\n    /* \"#utility.yul\":2978:2990   */\n  add\n    /* \"#utility.yul\":2975:2976   */\n  0x05\n    /* \"#utility.yul\":2971:2991   */\n  shr\n    /* \"#utility.yul\":2965:2969   */\n  dup3\n    /* \"#utility.yul\":2961:2992   */\n  add\n    /* \"#utility.yul\":2951:2992   */\n  swap2\n  pop\n    /* \"#utility.yul\":3042:3124   */\ntag_125:\n    /* \"#utility.yul\":3060:3062   */\n  dup2\n    /* \"#utility.yul\":3053:3058   */\n  dup2\n    /* \"#utility.yul\":3050:3063   */\n  lt\n    /* \"#utility.yul\":3042:3124   */\n  iszero\n  tag_127\n  jumpi\n    /* \"#utility.yul\":3105:3122   */\n  dup3\n  dup2\n  sstore\n    /* \"#utility.yul\":3086:3087   */\n  0x01\n    /* \"#utility.yul\":3075:3088   */\n  add\n    /* \"#utility.yul\":3042:3124   */\n  jump(tag_125)\ntag_127:\n    /* \"#utility.yul\":3046:3049   */\n  pop\n  pop\n  pop\n    /* \"#utility.yul\":2595:3140   */\n  pop\n  pop\n  pop\n  jump\t// out\n    /* \"#utility.yul\":3316:4668   */\ntag_15:\n    /* \"#utility.yul\":3436:3446   */\n  dup2\n  mload\n  sub(shl(0x40, 0x01), 0x01)\n    /* \"#utility.yul\":3458:3488   */\n  dup2\n  gt\n    /* \"#utility.yul\":3455:3511   */\n  iszero\n  tag_131\n  jumpi\n    /* \"#utility.yul\":3491:3509   */\n  tag_131\n  tag_84\n  jump\t// in\ntag_131:\n    /* \"#utility.yul\":3520:3617   */\n  tag_132\n    /* \"#utility.yul\":3610:3616   */\n  dup2\n    /* \"#utility.yul\":3570:3608   */\n  tag_133\n    /* \"#utility.yul\":3602:3606   */\n  dup5\n    /* \"#utility.yul\":3596:3607   */\n  sload\n    /* \"#utility.yul\":3570:3608   */\n  tag_85\n  jump\t// in\ntag_133:\n    /* \"#utility.yul\":3564:3568   */\n  dup5\n    /* \"#utility.yul\":3520:3617   */\n  tag_87\n  jump\t// in\ntag_132:\n    /* \"#utility.yul\":3672:3676   */\n  0x20\n  dup1\n    /* \"#utility.yul\":3736:3738   */\n  0x1f\n    /* \"#utility.yul\":3725:3739   */\n  dup4\n  gt\n    /* \"#utility.yul\":3753:3754   */\n  0x01\n    /* \"#utility.yul\":3748:4411   */\n  dup2\n  eq\n  tag_135\n  jumpi\n    /* \"#utility.yul\":4455:4456   */\n  0x00\n    /* \"#utility.yul\":4472:4478   */\n  dup5\n    /* \"#utility.yul\":4469:4558   */\n  iszero\n  tag_136\n  jumpi\n  pop\n    /* \"#utility.yul\":4524:4543   */\n  dup6\n  dup4\n  add\n    /* \"#utility.yul\":4518:4544   */\n  mload\n    /* \"#utility.yul\":4469:4558   */\ntag_136:\n  not(0x00)\n    /* \"#utility.yul\":3273:3274   */\n  0x03\n    /* \"#utility.yul\":3269:3280   */\n  dup7\n  swap1\n  shl\n    /* \"#utility.yul\":3265:3289   */\n  shr\n    /* \"#utility.yul\":3261:3290   */\n  not\n    /* \"#utility.yul\":3251:3291   */\n  and\n    /* \"#utility.yul\":3297:3298   */\n  0x01\n    /* \"#utility.yul\":3293:3304   */\n  dup6\n  swap1\n  shl\n    /* \"#utility.yul\":3248:3305   */\n  or\n    /* \"#utility.yul\":4571:4652   */\n  dup6\n  sstore\n    /* \"#utility.yul\":3718:4662   */\n  jump(tag_127)\n    /* \"#utility.yul\":3748:4411   */\ntag_135:\n    /* \"#utility.yul\":2542:2543   */\n  0x00\n    /* \"#utility.yul\":2535:2549   */\n  dup6\n  dup2\n  mstore\n    /* \"#utility.yul\":2579:2583   */\n  0x20\n    /* \"#utility.yul\":2566:2584   */\n  dup2\n  keccak256\n  not(0x1f)\n    /* \"#utility.yul\":3784:3804   */\n  dup7\n  and\n  swap2\n    /* \"#utility.yul\":3902:4138   */\ntag_139:\n    /* \"#utility.yul\":3916:3923   */\n  dup3\n    /* \"#utility.yul\":3913:3914   */\n  dup2\n    /* \"#utility.yul\":3910:3924   */\n  lt\n    /* \"#utility.yul\":3902:4138   */\n  iszero\n  tag_141\n  jumpi\n    /* \"#utility.yul\":4005:4024   */\n  dup9\n  dup7\n  add\n    /* \"#utility.yul\":3999:4025   */\n  mload\n    /* \"#utility.yul\":3984:4026   */\n  dup3\n  sstore\n    /* \"#utility.yul\":4097:4124   */\n  swap5\n  dup5\n  add\n  swap5\n    /* \"#utility.yul\":4065:4066   */\n  0x01\n    /* \"#utility.yul\":4053:4067   */\n  swap1\n  swap2\n  add\n  swap1\n    /* \"#utility.yul\":3932:3951   */\n  dup5\n  add\n    /* \"#utility.yul\":3902:4138   */\n  jump(tag_139)\ntag_141:\n    /* \"#utility.yul\":3906:3909   */\n  pop\n    /* \"#utility.yul\":4166:4172   */\n  dup6\n    /* \"#utility.yul\":4157:4164   */\n  dup3\n    /* \"#utility.yul\":4154:4173   */\n  lt\n    /* \"#utility.yul\":4151:4352   */\n  iszero\n  tag_142\n  jumpi\n    /* \"#utility.yul\":4227:4246   */\n  dup8\n  dup6\n  add\n    /* \"#utility.yul\":4221:4247   */\n  mload\n  not(0x00)\n    /* \"#utility.yul\":4310:4311   */\n  0x03\n    /* \"#utility.yul\":4306:4320   */\n  dup9\n  swap1\n  shl\n    /* \"#utility.yul\":4322:4325   */\n  0xf8\n    /* \"#utility.yul\":4302:4326   */\n  and\n    /* \"#utility.yul\":4298:4335   */\n  shr\n    /* \"#utility.yul\":4294:4336   */\n  not\n    /* \"#utility.yul\":4279:4337   */\n  and\n    /* \"#utility.yul\":4264:4338   */\n  dup2\n  sstore\n    /* \"#utility.yul\":4151:4352   */\ntag_142:\n  pop\n  pop\n  pop\n  pop\n  pop\n    /* \"#utility.yul\":4398:4399   */\n  0x01\n    /* \"#utility.yul\":4382:4396   */\n  swap1\n  dup2\n  shl\n    /* \"#utility.yul\":4378:4400   */\n  add\n    /* \"#utility.yul\":4365:4401   */\n  swap1\n  sstore\n  pop\n    /* \"#utility.yul\":3316:4668   */\n  jump\t// out\n    /* \"#utility.yul\":5023:5148   */\ntag_38:\n    /* \"#utility.yul\":5088:5097   */\n  dup1\n  dup3\n  add\n    /* \"#utility.yul\":5109:5119   */\n  dup1\n  dup3\n  gt\n    /* \"#utility.yul\":5106:5142   */\n  iszero\n  tag_100\n  jumpi\n    /* \"#utility.yul\":5122:5140   */\n  tag_100\n  tag_81\n  jump\t// in\n    /* \"#utility.yul\":5867:6044   */\ntag_89:\n    /* \"contracts/erc201.sol\":457:1772  contract Blank is ERC20Capped, ERC20Burnable {... */\n  dataSize(sub_0)\n  dup1\n  dataOffset(sub_0)\n  0x00\n  codecopy\n  0x00\n  return\nstop\n\nsub_0: assembly {\n        /* \"contracts/erc201.sol\":457:1772  contract Blank is ERC20Capped, ERC20Burnable {... */\n      mstore(0x40, 0x80)\n      callvalue\n      dup1\n      iszero\n      tag_1\n      jumpi\n      0x00\n      dup1\n      revert\n    tag_1:\n      pop\n      jumpi(tag_2, lt(calldatasize, 0x04))\n      shr(0xe0, calldataload(0x00))\n      dup1\n      0x39509351\n      gt\n      tag_20\n      jumpi\n      dup1\n      0x8da5cb5b\n      gt\n      tag_21\n      jumpi\n      dup1\n      0x8da5cb5b\n      eq\n      tag_15\n      jumpi\n      dup1\n      0x95d89b41\n      eq\n      tag_16\n      jumpi\n      dup1\n      0xa457c2d7\n      eq\n      tag_17\n      jumpi\n      dup1\n      0xa9059cbb\n      eq\n      tag_18\n      jumpi\n      dup1\n      0xdd62ed3e\n      eq\n      tag_19\n      jumpi\n      0x00\n      dup1\n      revert\n    tag_21:\n      dup1\n      0x39509351\n      eq\n      tag_11\n      jumpi\n      dup1\n      0x42966c68\n      eq\n      tag_12\n      jumpi\n      dup1\n      0x70a08231\n      eq\n      tag_13\n      jumpi\n      dup1\n      0x79cc6790\n      eq\n      tag_14\n      jumpi\n      0x00\n      dup1\n      revert\n    tag_20:\n      dup1\n      0x1a18e707\n      gt\n      tag_22\n      jumpi\n      dup1\n      0x1a18e707\n      eq\n      tag_7\n      jumpi\n      dup1\n      0x23b872dd\n      eq\n      tag_8\n      jumpi\n      dup1\n      0x313ce567\n      eq\n      tag_9\n      jumpi\n      dup1\n      0x355274ea\n      eq\n      tag_10\n      jumpi\n      0x00\n      dup1\n      revert\n    tag_22:\n      dup1\n      0x06fdde03\n      eq\n      tag_3\n      jumpi\n      dup1\n      0x095ea7b3\n      eq\n      tag_4\n      jumpi\n      dup1\n      0x0ac168a1\n      eq\n      tag_5\n      jumpi\n      dup1\n      0x18160ddd\n      eq\n      tag_6\n      jumpi\n    tag_2:\n      0x00\n      dup1\n      revert\n        /* \"https://github.com/OpenZeppelin/openzeppelin-contracts/blob/v4.9.5/contracts/token/ERC20/ERC20.sol\":2158:2256  function name() public view virtual override returns (string memory) {... */\n    tag_3:\n      tag_23\n      tag_24\n      jump\t// in\n    tag_23:\n      mload(0x40)\n      tag_25\n      swap2\n      swap1\n      tag_26\n      jump\t// in\n    tag_25:\n      mload(0x40)\n      dup1\n      swap2\n      sub\n      swap1\n      return\n        /* \"https://github.com/OpenZeppelin/openzeppelin-contracts/blob/v4.9.5/contracts/token/ERC20/ERC20.sol\":4444:4641  function approve(address spender, uint256 amount) public virtual override returns (bool) {... */\n    tag_4:\n      tag_27\n      tag_28\n      calldatasize\n      0x04\n      tag_29\n      jump\t// in\n    tag_28:\n      tag_30\n      jump\t// in\n    tag_27:\n      mload(0x40)\n        /* \"#utility.yul\":1169:1183   */\n      swap1\n      iszero\n        /* \"#utility.yul\":1162:1184   */\n      iszero\n        /* \"#utility.yul\":1144:1185   */\n      dup2\n      mstore\n        /* \"#utility.yul\":1132:1134   */\n      0x20\n        /* \"#utility.yul\":1117:1135   */\n      add\n        /* \"https://github.com/OpenZeppelin/openzeppelin-contracts/blob/v4.9.5/contracts/token/ERC20/ERC20.sol\":4444:4641  function approve(address spender, uint256 amount) public virtual override returns (bool) {... */\n      tag_25\n        /* \"#utility.yul\":1004:1191   */\n      jump\n        /* \"contracts/erc201.sol\":544:570  uint256 public blockReward */\n    tag_5:\n      tag_33\n      sload(0x07)\n      dup2\n      jump\n    tag_33:\n      mload(0x40)\n        /* \"#utility.yul\":1342:1367   */\n      swap1\n      dup2\n      mstore\n        /* \"#utility.yul\":1330:1332   */\n      0x20\n        /* \"#utility.yul\":1315:1333   */\n      add\n        /* \"contracts/erc201.sol\":544:570  uint256 public blockReward */\n      tag_25\n        /* \"#utility.yul\":1196:1373   */\n      jump\n        /* \"https://github.com/OpenZeppelin/openzeppelin-contracts/blob/v4.9.5/contracts/token/ERC20/ERC20.sol\":3255:3361  function totalSupply() public view virtual override returns (uint256) {... */\n    tag_6:\n        /* \"https://github.com/OpenZeppelin/openzeppelin-contracts/blob/v4.9.5/contracts/token/ERC20/ERC20.sol\":3342:3354  _totalSupply */\n      sload(0x02)\n        /* \"https://github.com/OpenZeppelin/openzeppelin-contracts/blob/v4.9.5/contracts/token/ERC20/ERC20.sol\":3255:3361  function totalSupply() public view virtual override returns (uint256) {... */\n      jump(tag_33)\n        /* \"contracts/erc201.sol\":1518:1635  function setBlockReward(uint256 reward) public onlyOwner {... */\n    tag_7:\n      tag_40\n      tag_41\n      calldatasize\n      0x04\n      tag_42\n      jump\t// in\n    tag_41:\n      tag_43\n      jump\t// in\n    tag_40:\n      stop\n        /* \"https://github.com/OpenZeppelin/openzeppelin-contracts/blob/v4.9.5/contracts/token/ERC20/ERC20.sol\":5203:5459  function transferFrom(address from, address to, uint256 amount) public virtual override returns (bool) {... */\n    tag_8:\n      tag_27\n      tag_45\n      calldatasize\n      0x04\n      tag_46\n      jump\t// in\n    tag_45:\n      tag_47\n      jump\t// in\n        /* \"https://github.com/OpenZeppelin/openzeppelin-contracts/blob/v4.9.5/contracts/token/ERC20/ERC20.sol\":3104:3195  function decimals() public view virtual override returns (uint8) {... */\n    tag_9:\n      mload(0x40)\n        /* \"https://github.com/OpenZeppelin/openzeppelin-contracts/blob/v4.9.5/contracts/token/ERC20/ERC20.sol\":3186:3188  18 */\n      0x12\n        /* \"#utility.yul\":2038:2074   */\n      dup2\n      mstore\n        /* \"#utility.yul\":2026:2028   */\n      0x20\n        /* \"#utility.yul\":2011:2029   */\n      add\n        /* \"https://github.com/OpenZeppelin/openzeppelin-contracts/blob/v4.9.5/contracts/token/ERC20/ERC20.sol\":3104:3195  function decimals() public view virtual override returns (uint8) {... */\n      tag_25\n        /* \"#utility.yul\":1896:2080   */\n      jump\n        /* \"https://github.com/OpenZeppelin/openzeppelin-contracts/blob/v4.9.5/contracts/token/ERC20/extensions/ERC20Capped.sol\":625:706  function cap() public view virtual returns (uint256) {... */\n    tag_10:\n        /* \"https://github.com/OpenZeppelin/openzeppelin-contracts/blob/v4.9.5/contracts/token/ERC20/extensions/ERC20Capped.sol\":695:699  _cap */\n      sload(0x05)\n        /* \"https://github.com/OpenZeppelin/openzeppelin-contracts/blob/v4.9.5/contracts/token/ERC20/extensions/ERC20Capped.sol\":625:706  function cap() public view virtual returns (uint256) {... */\n      jump(tag_33)\n        /* \"https://github.com/OpenZeppelin/openzeppelin-contracts/blob/v4.9.5/contracts/token/ERC20/ERC20.sol\":5854:6088  function increaseAllowance(address spender, uint256 addedValue) public virtual returns (bool) {... */\n    tag_11:\n      tag_27\n      tag_57\n      calldatasize\n      0x04\n      tag_29\n      jump\t// in\n    tag_57:\n      tag_58\n      jump\t// in\n        /* \"https://github.com/OpenZeppelin/openzeppelin-contracts/blob/v4.9.5/contracts/token/ERC20/extensions/ERC20Burnable.sol\":578:667  function burn(uint256 amount) public virtual {... */\n    tag_12:\n      tag_40\n      tag_61\n      calldatasize\n      0x04\n      tag_42\n      jump\t// in\n    tag_61:\n      tag_62\n      jump\t// in\n        /* \"https://github.com/OpenZeppelin/openzeppelin-contracts/blob/v4.9.5/contracts/token/ERC20/ERC20.sol\":3419:3544  function balanceOf(address account) public view virtual override returns (uint256) {... */\n    tag_13:\n      tag_33\n      tag_64\n      calldatasize\n      0x04\n      tag_65\n      jump\t// in\n    tag_64:\n      sub(shl(0xa0, 0x01), 0x01)\n        /* \"https://github.com/OpenZeppelin/openzeppelin-contracts/blob/v4.9.5/contracts/token/ERC20/ERC20.sol\":3519:3537  _balances[account] */\n      and\n        /* \"https://github.com/OpenZeppelin/openzeppelin-contracts/blob/v4.9.5/contracts/token/ERC20/ERC20.sol\":3493:3500  uint256 */\n      0x00\n        /* \"https://github.com/OpenZeppelin/openzeppelin-contracts/blob/v4.9.5/contracts/token/ERC20/ERC20.sol\":3519:3537  _balances[account] */\n      swap1\n      dup2\n      mstore\n      0x20\n      dup2\n      swap1\n      mstore\n      0x40\n      swap1\n      keccak256\n      sload\n      swap1\n        /* \"https://github.com/OpenZeppelin/openzeppelin-contracts/blob/v4.9.5/contracts/token/ERC20/ERC20.sol\":3419:3544  function balanceOf(address account) public view virtual override returns (uint256) {... */\n      jump\n        /* \"https://github.com/OpenZeppelin/openzeppelin-contracts/blob/v4.9.5/contracts/token/ERC20/extensions/ERC20Burnable.sol\":973:1134  function burnFrom(address account, uint256 amount) public virtual {... */\n    tag_14:\n      tag_40\n      tag_69\n      calldatasize\n      0x04\n      tag_29\n      jump\t// in\n    tag_69:\n      tag_70\n      jump\t// in\n        /* \"contracts/erc201.sol\":509:537  address payable public owner */\n    tag_15:\n      sload(0x06)\n      tag_71\n      swap1\n      sub(shl(0xa0, 0x01), 0x01)\n      and\n      dup2\n      jump\n    tag_71:\n      mload(0x40)\n      sub(shl(0xa0, 0x01), 0x01)\n        /* \"#utility.yul\":2456:2488   */\n      swap1\n      swap2\n      and\n        /* \"#utility.yul\":2438:2489   */\n      dup2\n      mstore\n        /* \"#utility.yul\":2426:2428   */\n      0x20\n        /* \"#utility.yul\":2411:2429   */\n      add\n        /* \"contracts/erc201.sol\":509:537  address payable public owner */\n      tag_25\n        /* \"#utility.yul\":2276:2495   */\n      jump\n        /* \"https://github.com/OpenZeppelin/openzeppelin-contracts/blob/v4.9.5/contracts/token/ERC20/ERC20.sol\":2369:2471  function symbol() public view virtual override returns (string memory) {... */\n    tag_16:\n      tag_23\n      tag_76\n      jump\t// in\n        /* \"https://github.com/OpenZeppelin/openzeppelin-contracts/blob/v4.9.5/contracts/token/ERC20/ERC20.sol\":6575:7002  function decreaseAllowance(address spender, uint256 subtractedValue) public virtual returns (bool) {... */\n    tag_17:\n      tag_27\n      tag_79\n      calldatasize\n      0x04\n      tag_29\n      jump\t// in\n    tag_79:\n      tag_80\n      jump\t// in\n        /* \"https://github.com/OpenZeppelin/openzeppelin-contracts/blob/v4.9.5/contracts/token/ERC20/ERC20.sol\":3740:3929  function transfer(address to, uint256 amount) public virtual override returns (bool) {... */\n    tag_18:\n      tag_27\n      tag_83\n      calldatasize\n      0x04\n      tag_29\n      jump\t// in\n    tag_83:\n      tag_84\n      jump\t// in\n        /* \"https://github.com/OpenZeppelin/openzeppelin-contracts/blob/v4.9.5/contracts/token/ERC20/ERC20.sol\":3987:4136  function allowance(address owner, address spender) public view virtual override returns (uint256) {... */\n    tag_19:\n      tag_33\n      tag_87\n      calldatasize\n      0x04\n      tag_88\n      jump\t// in\n    tag_87:\n      tag_89\n      jump\t// in\n        /* \"https://github.com/OpenZeppelin/openzeppelin-contracts/blob/v4.9.5/contracts/token/ERC20/ERC20.sol\":2158:2256  function name() public view virtual override returns (string memory) {... */\n    tag_24:\n        /* \"https://github.com/OpenZeppelin/openzeppelin-contracts/blob/v4.9.5/contracts/token/ERC20/ERC20.sol\":2212:2225  string memory */\n      0x60\n        /* \"https://github.com/OpenZeppelin/openzeppelin-contracts/blob/v4.9.5/contracts/token/ERC20/ERC20.sol\":2244:2249  _name */\n      0x03\n        /* \"https://github.com/OpenZeppelin/openzeppelin-contracts/blob/v4.9.5/contracts/token/ERC20/ERC20.sol\":2237:2249  return _name */\n      dup1\n      sload\n      tag_95\n      swap1\n      tag_96\n      jump\t// in\n    tag_95:\n      dup1\n      0x1f\n      add\n      0x20\n      dup1\n      swap2\n      div\n      mul\n      0x20\n      add\n      mload(0x40)\n      swap1\n      dup2\n      add\n      0x40\n      mstore\n      dup1\n      swap3\n      swap2\n      swap1\n      dup2\n      dup2\n      mstore\n      0x20\n      add\n      dup3\n      dup1\n      sload\n      tag_97\n      swap1\n      tag_96\n      jump\t// in\n    tag_97:\n      dup1\n      iszero\n      tag_98\n      jumpi\n      dup1\n      0x1f\n      lt\n      tag_99\n      jumpi\n      0x0100\n      dup1\n      dup4\n      sload\n      div\n      mul\n      dup4\n      mstore\n      swap2\n      0x20\n      add\n      swap2\n      jump(tag_98)\n    tag_99:\n      dup3\n      add\n      swap2\n      swap1\n      0x00\n      mstore\n      keccak256(0x00, 0x20)\n      swap1\n    tag_100:\n      dup2\n      sload\n      dup2\n      mstore\n      swap1\n      0x01\n      add\n      swap1\n      0x20\n      add\n      dup1\n      dup4\n      gt\n      tag_100\n      jumpi\n      dup3\n      swap1\n      sub\n      0x1f\n      and\n      dup3\n      add\n      swap2\n    tag_98:\n      pop\n      pop\n      pop\n      pop\n      pop\n      swap1\n      pop\n        /* \"https://github.com/OpenZeppelin/openzeppelin-contracts/blob/v4.9.5/contracts/token/ERC20/ERC20.sol\":2158:2256  function name() public view virtual override returns (string memory) {... */\n      swap1\n      jump\t// out\n        /* \"https://github.com/OpenZeppelin/openzeppelin-contracts/blob/v4.9.5/contracts/token/ERC20/ERC20.sol\":4444:4641  function approve(address spender, uint256 amount) public virtual override returns (bool) {... */\n    tag_30:\n        /* \"https://github.com/OpenZeppelin/openzeppelin-contracts/blob/v4.9.5/contracts/token/ERC20/ERC20.sol\":4527:4531  bool */\n      0x00\n        /* \"https://github.com/OpenZeppelin/openzeppelin-contracts/blob/v4.9.5/contracts/utils/Context.sol\":734:744  msg.sender */\n      caller\n        /* \"https://github.com/OpenZeppelin/openzeppelin-contracts/blob/v4.9.5/contracts/token/ERC20/ERC20.sol\":4581:4613  _approve(owner, spender, amount) */\n      tag_104\n        /* \"https://github.com/OpenZeppelin/openzeppelin-contracts/blob/v4.9.5/contracts/utils/Context.sol\":734:744  msg.sender */\n      dup2\n        /* \"https://github.com/OpenZeppelin/openzeppelin-contracts/blob/v4.9.5/contracts/token/ERC20/ERC20.sol\":4597:4604  spender */\n      dup6\n        /* \"https://github.com/OpenZeppelin/openzeppelin-contracts/blob/v4.9.5/contracts/token/ERC20/ERC20.sol\":4606:4612  amount */\n      dup6\n        /* \"https://github.com/OpenZeppelin/openzeppelin-contracts/blob/v4.9.5/contracts/token/ERC20/ERC20.sol\":4581:4589  _approve */\n      tag_105\n        /* \"https://github.com/OpenZeppelin/openzeppelin-contracts/blob/v4.9.5/contracts/token/ERC20/ERC20.sol\":4581:4613  _approve(owner, spender, amount) */\n      jump\t// in\n    tag_104:\n        /* \"https://github.com/OpenZeppelin/openzeppelin-contracts/blob/v4.9.5/contracts/token/ERC20/ERC20.sol\":4630:4634  true */\n      0x01\n        /* \"https://github.com/OpenZeppelin/openzeppelin-contracts/blob/v4.9.5/contracts/token/ERC20/ERC20.sol\":4623:4634  return true */\n      swap2\n      pop\n      pop\n        /* \"https://github.com/OpenZeppelin/openzeppelin-contracts/blob/v4.9.5/contracts/token/ERC20/ERC20.sol\":4444:4641  function approve(address spender, uint256 amount) public virtual override returns (bool) {... */\n    tag_101:\n      swap3\n      swap2\n      pop\n      pop\n      jump\t// out\n        /* \"https://github.com/OpenZeppelin/openzeppelin-contracts/blob/v4.9.5/contracts/token/ERC20/ERC20.sol\":3255:3361  function totalSupply() public view virtual override returns (uint256) {... */\n    tag_38:\n        /* \"https://github.com/OpenZeppelin/openzeppelin-contracts/blob/v4.9.5/contracts/token/ERC20/ERC20.sol\":3342:3354  _totalSupply */\n      sload(0x02)\n      swap1\n        /* \"https://github.com/OpenZeppelin/openzeppelin-contracts/blob/v4.9.5/contracts/token/ERC20/ERC20.sol\":3255:3361  function totalSupply() public view virtual override returns (uint256) {... */\n      jump\t// out\n        /* \"contracts/erc201.sol\":1518:1635  function setBlockReward(uint256 reward) public onlyOwner {... */\n    tag_43:\n        /* \"contracts/erc201.sol\":1702:1707  owner */\n      and(sub(shl(0xa0, 0x01), 0x01), sload(0x06))\n        /* \"contracts/erc201.sol\":1688:1698  msg.sender */\n      caller\n        /* \"contracts/erc201.sol\":1688:1707  msg.sender == owner */\n      eq\n        /* \"contracts/erc201.sol\":1680:1749  require(msg.sender == owner, \"Only the owner can call this function\") */\n      tag_108\n      jumpi\n      mload(0x40)\n      shl(0xe5, 0x461bcd)\n      dup2\n      mstore\n        /* \"#utility.yul\":3352:3354   */\n      0x20\n        /* \"contracts/erc201.sol\":1680:1749  require(msg.sender == owner, \"Only the owner can call this function\") */\n      0x04\n      dup3\n      add\n        /* \"#utility.yul\":3334:3355   */\n      mstore\n        /* \"#utility.yul\":3391:3393   */\n      0x25\n        /* \"#utility.yul\":3371:3389   */\n      0x24\n      dup3\n      add\n        /* \"#utility.yul\":3364:3394   */\n      mstore\n        /* \"#utility.yul\":3430:3464   */\n      0x4f6e6c7920746865206f776e65722063616e2063616c6c20746869732066756e\n        /* \"#utility.yul\":3410:3428   */\n      0x44\n      dup3\n      add\n        /* \"#utility.yul\":3403:3465   */\n      mstore\n      shl(0xd9, 0x31ba34b7b7)\n        /* \"#utility.yul\":3481:3499   */\n      0x64\n      dup3\n      add\n        /* \"#utility.yul\":3474:3509   */\n      mstore\n        /* \"#utility.yul\":3526:3545   */\n      0x84\n      add\n        /* \"contracts/erc201.sol\":1680:1749  require(msg.sender == owner, \"Only the owner can call this function\") */\n    tag_109:\n      mload(0x40)\n      dup1\n      swap2\n      sub\n      swap1\n      revert\n    tag_108:\n        /* \"contracts/erc201.sol\":1610:1626  10 ** decimals() */\n      tag_113\n        /* \"https://github.com/OpenZeppelin/openzeppelin-contracts/blob/v4.9.5/contracts/token/ERC20/ERC20.sol\":3186:3188  18 */\n      0x12\n        /* \"contracts/erc201.sol\":1610:1612  10 */\n      0x0a\n        /* \"contracts/erc201.sol\":1610:1626  10 ** decimals() */\n      tag_114\n      jump\t// in\n    tag_113:\n        /* \"contracts/erc201.sol\":1600:1627  reward * (10 ** decimals()) */\n      tag_115\n      swap1\n        /* \"contracts/erc201.sol\":1600:1606  reward */\n      dup3\n        /* \"contracts/erc201.sol\":1600:1627  reward * (10 ** decimals()) */\n      tag_116\n      jump\t// in\n    tag_115:\n        /* \"contracts/erc201.sol\":1586:1597  blockReward */\n      0x07\n        /* \"contracts/erc201.sol\":1586:1627  blockReward = reward * (10 ** decimals()) */\n      sstore\n      pop\n        /* \"contracts/erc201.sol\":1518:1635  function setBlockReward(uint256 reward) public onlyOwner {... */\n      jump\t// out\n        /* \"https://github.com/OpenZeppelin/openzeppelin-contracts/blob/v4.9.5/contracts/token/ERC20/ERC20.sol\":5203:5459  function transferFrom(address from, address to, uint256 amount) public virtual override returns (bool) {... */\n    tag_47:\n        /* \"https://github.com/OpenZeppelin/openzeppelin-contracts/blob/v4.9.5/contracts/token/ERC20/ERC20.sol\":5300:5304  bool */\n      0x00\n        /* \"https://github.com/OpenZeppelin/openzeppelin-contracts/blob/v4.9.5/contracts/utils/Context.sol\":734:744  msg.sender */\n      caller\n        /* \"https://github.com/OpenZeppelin/openzeppelin-contracts/blob/v4.9.5/contracts/token/ERC20/ERC20.sol\":5356:5394  _spendAllowance(from, spender, amount) */\n      tag_119\n        /* \"https://github.com/OpenZeppelin/openzeppelin-contracts/blob/v4.9.5/contracts/token/ERC20/ERC20.sol\":5372:5376  from */\n      dup6\n        /* \"https://github.com/OpenZeppelin/openzeppelin-contracts/blob/v4.9.5/contracts/utils/Context.sol\":734:744  msg.sender */\n      dup3\n        /* \"https://github.com/OpenZeppelin/openzeppelin-contracts/blob/v4.9.5/contracts/token/ERC20/ERC20.sol\":5387:5393  amount */\n      dup6\n        /* \"https://github.com/OpenZeppelin/openzeppelin-contracts/blob/v4.9.5/contracts/token/ERC20/ERC20.sol\":5356:5371  _spendAllowance */\n      tag_120\n        /* \"https://github.com/OpenZeppelin/openzeppelin-contracts/blob/v4.9.5/contracts/token/ERC20/ERC20.sol\":5356:5394  _spendAllowance(from, spender, amount) */\n      jump\t// in\n    tag_119:\n        /* \"https://github.com/OpenZeppelin/openzeppelin-contracts/blob/v4.9.5/contracts/token/ERC20/ERC20.sol\":5404:5431  _transfer(from, to, amount) */\n      tag_121\n        /* \"https://github.com/OpenZeppelin/openzeppelin-contracts/blob/v4.9.5/contracts/token/ERC20/ERC20.sol\":5414:5418  from */\n      dup6\n        /* \"https://github.com/OpenZeppelin/openzeppelin-contracts/blob/v4.9.5/contracts/token/ERC20/ERC20.sol\":5420:5422  to */\n      dup6\n        /* \"https://github.com/OpenZeppelin/openzeppelin-contracts/blob/v4.9.5/contracts/token/ERC20/ERC20.sol\":5424:5430  amount */\n      dup6\n        /* \"https://github.com/OpenZeppelin/openzeppelin-contracts/blob/v4.9.5/contracts/token/ERC20/ERC20.sol\":5404:5413  _transfer */\n      tag_122\n        /* \"https://github.com/OpenZeppelin/openzeppelin-contracts/blob/v4.9.5/contracts/token/ERC20/ERC20.sol\":5404:5431  _transfer(from, to, amount) */\n      jump\t// in\n    tag_121:\n      pop\n        /* \"https://github.com/OpenZeppelin/openzeppelin-contracts/blob/v4.9.5/contracts/token/ERC20/ERC20.sol\":5448:5452  true */\n      0x01\n      swap5\n        /* \"https://github.com/OpenZeppelin/openzeppelin-contracts/blob/v4.9.5/contracts/token/ERC20/ERC20.sol\":5203:5459  function transferFrom(address from, address to, uint256 amount) public virtual override returns (bool) {... */\n      swap4\n      pop\n      pop\n      pop\n      pop\n      jump\t// out\n        /* \"https://github.com/OpenZeppelin/openzeppelin-contracts/blob/v4.9.5/contracts/token/ERC20/ERC20.sol\":5854:6088  function increaseAllowance(address spender, uint256 addedValue) public virtual returns (bool) {... */\n    tag_58:\n        /* \"https://github.com/OpenZeppelin/openzeppelin-contracts/blob/v4.9.5/contracts/token/ERC20/ERC20.sol\":5942:5946  bool */\n      0x00\n        /* \"https://github.com/OpenZeppelin/openzeppelin-contracts/blob/v4.9.5/contracts/utils/Context.sol\":734:744  msg.sender */\n      caller\n        /* \"https://github.com/OpenZeppelin/openzeppelin-contracts/blob/v4.9.5/contracts/token/ERC20/ERC20.sol\":5996:6060  _approve(owner, spender, allowance(owner, spender) + addedValue) */\n      tag_104\n        /* \"https://github.com/OpenZeppelin/openzeppelin-contracts/blob/v4.9.5/contracts/utils/Context.sol\":734:744  msg.sender */\n      dup2\n        /* \"https://github.com/OpenZeppelin/openzeppelin-contracts/blob/v4.9.5/contracts/token/ERC20/ERC20.sol\":6012:6019  spender */\n      dup6\n        /* \"https://github.com/OpenZeppelin/openzeppelin-contracts/blob/v4.9.5/contracts/token/ERC20/ERC20.sol\":6049:6059  addedValue */\n      dup6\n        /* \"https://github.com/OpenZeppelin/openzeppelin-contracts/blob/v4.9.5/contracts/token/ERC20/ERC20.sol\":6021:6046  allowance(owner, spender) */\n      tag_128\n        /* \"https://github.com/OpenZeppelin/openzeppelin-contracts/blob/v4.9.5/contracts/utils/Context.sol\":734:744  msg.sender */\n      dup4\n        /* \"https://github.com/OpenZeppelin/openzeppelin-contracts/blob/v4.9.5/contracts/token/ERC20/ERC20.sol\":6012:6019  spender */\n      dup4\n        /* \"https://github.com/OpenZeppelin/openzeppelin-contracts/blob/v4.9.5/contracts/token/ERC20/ERC20.sol\":6021:6030  allowance */\n      tag_89\n        /* \"https://github.com/OpenZeppelin/openzeppelin-contracts/blob/v4.9.5/contracts/token/ERC20/ERC20.sol\":6021:6046  allowance(owner, spender) */\n      jump\t// in\n    tag_128:\n        /* \"https://github.com/OpenZeppelin/openzeppelin-contracts/blob/v4.9.5/contracts/token/ERC20/ERC20.sol\":6021:6059  allowance(owner, spender) + addedValue */\n      tag_129\n      swap2\n      swap1\n      tag_130\n      jump\t// in\n    tag_129:\n        /* \"https://github.com/OpenZeppelin/openzeppelin-contracts/blob/v4.9.5/contracts/token/ERC20/ERC20.sol\":5996:6004  _approve */\n      tag_105\n        /* \"https://github.com/OpenZeppelin/openzeppelin-contracts/blob/v4.9.5/contracts/token/ERC20/ERC20.sol\":5996:6060  _approve(owner, spender, allowance(owner, spender) + addedValue) */\n      jump\t// in\n        /* \"https://github.com/OpenZeppelin/openzeppelin-contracts/blob/v4.9.5/contracts/token/ERC20/extensions/ERC20Burnable.sol\":578:667  function burn(uint256 amount) public virtual {... */\n    tag_62:\n        /* \"https://github.com/OpenZeppelin/openzeppelin-contracts/blob/v4.9.5/contracts/token/ERC20/extensions/ERC20Burnable.sol\":633:660  _burn(_msgSender(), amount) */\n      tag_132\n        /* \"https://github.com/OpenZeppelin/openzeppelin-contracts/blob/v4.9.5/contracts/utils/Context.sol\":734:744  msg.sender */\n      caller\n        /* \"https://github.com/OpenZeppelin/openzeppelin-contracts/blob/v4.9.5/contracts/token/ERC20/extensions/ERC20Burnable.sol\":653:659  amount */\n      dup3\n        /* \"https://github.com/OpenZeppelin/openzeppelin-contracts/blob/v4.9.5/contracts/token/ERC20/extensions/ERC20Burnable.sol\":633:638  _burn */\n      tag_134\n        /* \"https://github.com/OpenZeppelin/openzeppelin-contracts/blob/v4.9.5/contracts/token/ERC20/extensions/ERC20Burnable.sol\":633:660  _burn(_msgSender(), amount) */\n      jump\t// in\n    tag_132:\n        /* \"https://github.com/OpenZeppelin/openzeppelin-contracts/blob/v4.9.5/contracts/token/ERC20/extensions/ERC20Burnable.sol\":578:667  function burn(uint256 amount) public virtual {... */\n      pop\n      jump\t// out\n        /* \"https://github.com/OpenZeppelin/openzeppelin-contracts/blob/v4.9.5/contracts/token/ERC20/extensions/ERC20Burnable.sol\":973:1134  function burnFrom(address account, uint256 amount) public virtual {... */\n    tag_70:\n        /* \"https://github.com/OpenZeppelin/openzeppelin-contracts/blob/v4.9.5/contracts/token/ERC20/extensions/ERC20Burnable.sol\":1049:1095  _spendAllowance(account, _msgSender(), amount) */\n      tag_137\n        /* \"https://github.com/OpenZeppelin/openzeppelin-contracts/blob/v4.9.5/contracts/token/ERC20/extensions/ERC20Burnable.sol\":1065:1072  account */\n      dup3\n        /* \"https://github.com/OpenZeppelin/openzeppelin-contracts/blob/v4.9.5/contracts/utils/Context.sol\":734:744  msg.sender */\n      caller\n        /* \"https://github.com/OpenZeppelin/openzeppelin-contracts/blob/v4.9.5/contracts/token/ERC20/extensions/ERC20Burnable.sol\":1088:1094  amount */\n      dup4\n        /* \"https://github.com/OpenZeppelin/openzeppelin-contracts/blob/v4.9.5/contracts/token/ERC20/extensions/ERC20Burnable.sol\":1049:1064  _spendAllowance */\n      tag_120\n        /* \"https://github.com/OpenZeppelin/openzeppelin-contracts/blob/v4.9.5/contracts/token/ERC20/extensions/ERC20Burnable.sol\":1049:1095  _spendAllowance(account, _msgSender(), amount) */\n      jump\t// in\n    tag_137:\n        /* \"https://github.com/OpenZeppelin/openzeppelin-contracts/blob/v4.9.5/contracts/token/ERC20/extensions/ERC20Burnable.sol\":1105:1127  _burn(account, amount) */\n      tag_139\n        /* \"https://github.com/OpenZeppelin/openzeppelin-contracts/blob/v4.9.5/contracts/token/ERC20/extensions/ERC20Burnable.sol\":1111:1118  account */\n      dup3\n        /* \"https://github.com/OpenZeppelin/openzeppelin-contracts/blob/v4.9.5/contracts/token/ERC20/extensions/ERC20Burnable.sol\":1120:1126  amount */\n      dup3\n        /* \"https://github.com/OpenZeppelin/openzeppelin-contracts/blob/v4.9.5/contracts/token/ERC20/extensions/ERC20Burnable.sol\":1105:1110  _burn */\n      tag_134\n        /* \"https://github.com/OpenZeppelin/openzeppelin-contracts/blob/v4.9.5/contracts/token/ERC20/extensions/ERC20Burnable.sol\":1105:1127  _burn(account, amount) */\n      jump\t// in\n    tag_139:\n        /* \"https://github.com/OpenZeppelin/openzeppelin-contracts/blob/v4.9.5/contracts/token/ERC20/extensions/ERC20Burnable.sol\":973:1134  function burnFrom(address account, uint256 amount) public virtual {... */\n      pop\n      pop\n      jump\t// out\n        /* \"https://github.com/OpenZeppelin/openzeppelin-contracts/blob/v4.9.5/contracts/token/ERC20/ERC20.sol\":2369:2471  function symbol() public view virtual override returns (string memory) {... */\n    tag_76:\n        /* \"https://github.com/OpenZeppelin/openzeppelin-contracts/blob/v4.9.5/contracts/token/ERC20/ERC20.sol\":2425:2438  string memory */\n      0x60\n        /* \"https://github.com/OpenZeppelin/openzeppelin-contracts/blob/v4.9.5/contracts/token/ERC20/ERC20.sol\":2457:2464  _symbol */\n      0x04\n        /* \"https://github.com/OpenZeppelin/openzeppelin-contracts/blob/v4.9.5/contracts/token/ERC20/ERC20.sol\":2450:2464  return _symbol */\n      dup1\n      sload\n      tag_95\n      swap1\n      tag_96\n      jump\t// in\n        /* \"https://github.com/OpenZeppelin/openzeppelin-contracts/blob/v4.9.5/contracts/token/ERC20/ERC20.sol\":6575:7002  function decreaseAllowance(address spender, uint256 subtractedValue) public virtual returns (bool) {... */\n    tag_80:\n        /* \"https://github.com/OpenZeppelin/openzeppelin-contracts/blob/v4.9.5/contracts/token/ERC20/ERC20.sol\":6668:6672  bool */\n      0x00\n        /* \"https://github.com/OpenZeppelin/openzeppelin-contracts/blob/v4.9.5/contracts/utils/Context.sol\":734:744  msg.sender */\n      caller\n        /* \"https://github.com/OpenZeppelin/openzeppelin-contracts/blob/v4.9.5/contracts/token/ERC20/ERC20.sol\":6668:6672  bool */\n      dup2\n        /* \"https://github.com/OpenZeppelin/openzeppelin-contracts/blob/v4.9.5/contracts/token/ERC20/ERC20.sol\":6749:6774  allowance(owner, spender) */\n      tag_148\n        /* \"https://github.com/OpenZeppelin/openzeppelin-contracts/blob/v4.9.5/contracts/utils/Context.sol\":734:744  msg.sender */\n      dup3\n        /* \"https://github.com/OpenZeppelin/openzeppelin-contracts/blob/v4.9.5/contracts/token/ERC20/ERC20.sol\":6766:6773  spender */\n      dup7\n        /* \"https://github.com/OpenZeppelin/openzeppelin-contracts/blob/v4.9.5/contracts/token/ERC20/ERC20.sol\":6749:6758  allowance */\n      tag_89\n        /* \"https://github.com/OpenZeppelin/openzeppelin-contracts/blob/v4.9.5/contracts/token/ERC20/ERC20.sol\":6749:6774  allowance(owner, spender) */\n      jump\t// in\n    tag_148:\n        /* \"https://github.com/OpenZeppelin/openzeppelin-contracts/blob/v4.9.5/contracts/token/ERC20/ERC20.sol\":6722:6774  uint256 currentAllowance = allowance(owner, spender) */\n      swap1\n      pop\n        /* \"https://github.com/OpenZeppelin/openzeppelin-contracts/blob/v4.9.5/contracts/token/ERC20/ERC20.sol\":6812:6827  subtractedValue */\n      dup4\n        /* \"https://github.com/OpenZeppelin/openzeppelin-contracts/blob/v4.9.5/contracts/token/ERC20/ERC20.sol\":6792:6808  currentAllowance */\n      dup2\n        /* \"https://github.com/OpenZeppelin/openzeppelin-contracts/blob/v4.9.5/contracts/token/ERC20/ERC20.sol\":6792:6827  currentAllowance >= subtractedValue */\n      lt\n      iszero\n        /* \"https://github.com/OpenZeppelin/openzeppelin-contracts/blob/v4.9.5/contracts/token/ERC20/ERC20.sol\":6784:6869  require(currentAllowance >= subtractedValue, \"ERC20: decreased allowance below zero\") */\n      tag_149\n      jumpi\n      mload(0x40)\n      shl(0xe5, 0x461bcd)\n      dup2\n      mstore\n        /* \"#utility.yul\":5576:5578   */\n      0x20\n        /* \"https://github.com/OpenZeppelin/openzeppelin-contracts/blob/v4.9.5/contracts/token/ERC20/ERC20.sol\":6784:6869  require(currentAllowance >= subtractedValue, \"ERC20: decreased allowance below zero\") */\n      0x04\n      dup3\n      add\n        /* \"#utility.yul\":5558:5579   */\n      mstore\n        /* \"#utility.yul\":5615:5617   */\n      0x25\n        /* \"#utility.yul\":5595:5613   */\n      0x24\n      dup3\n      add\n        /* \"#utility.yul\":5588:5618   */\n      mstore\n        /* \"#utility.yul\":5654:5688   */\n      0x45524332303a2064656372656173656420616c6c6f77616e63652062656c6f77\n        /* \"#utility.yul\":5634:5652   */\n      0x44\n      dup3\n      add\n        /* \"#utility.yul\":5627:5689   */\n      mstore\n      shl(0xd8, 0x207a65726f)\n        /* \"#utility.yul\":5705:5723   */\n      0x64\n      dup3\n      add\n        /* \"#utility.yul\":5698:5733   */\n      mstore\n        /* \"#utility.yul\":5750:5769   */\n      0x84\n      add\n        /* \"https://github.com/OpenZeppelin/openzeppelin-contracts/blob/v4.9.5/contracts/token/ERC20/ERC20.sol\":6784:6869  require(currentAllowance >= subtractedValue, \"ERC20: decreased allowance below zero\") */\n      tag_109\n        /* \"#utility.yul\":5374:5775   */\n      jump\n        /* \"https://github.com/OpenZeppelin/openzeppelin-contracts/blob/v4.9.5/contracts/token/ERC20/ERC20.sol\":6784:6869  require(currentAllowance >= subtractedValue, \"ERC20: decreased allowance below zero\") */\n    tag_149:\n        /* \"https://github.com/OpenZeppelin/openzeppelin-contracts/blob/v4.9.5/contracts/token/ERC20/ERC20.sol\":6903:6963  _approve(owner, spender, currentAllowance - subtractedValue) */\n      tag_121\n        /* \"https://github.com/OpenZeppelin/openzeppelin-contracts/blob/v4.9.5/contracts/token/ERC20/ERC20.sol\":6912:6917  owner */\n      dup3\n        /* \"https://github.com/OpenZeppelin/openzeppelin-contracts/blob/v4.9.5/contracts/token/ERC20/ERC20.sol\":6919:6926  spender */\n      dup7\n        /* \"https://github.com/OpenZeppelin/openzeppelin-contracts/blob/v4.9.5/contracts/token/ERC20/ERC20.sol\":6947:6962  subtractedValue */\n      dup7\n        /* \"https://github.com/OpenZeppelin/openzeppelin-contracts/blob/v4.9.5/contracts/token/ERC20/ERC20.sol\":6928:6944  currentAllowance */\n      dup5\n        /* \"https://github.com/OpenZeppelin/openzeppelin-contracts/blob/v4.9.5/contracts/token/ERC20/ERC20.sol\":6928:6962  currentAllowance - subtractedValue */\n      sub\n        /* \"https://github.com/OpenZeppelin/openzeppelin-contracts/blob/v4.9.5/contracts/token/ERC20/ERC20.sol\":6903:6911  _approve */\n      tag_105\n        /* \"https://github.com/OpenZeppelin/openzeppelin-contracts/blob/v4.9.5/contracts/token/ERC20/ERC20.sol\":6903:6963  _approve(owner, spender, currentAllowance - subtractedValue) */\n      jump\t// in\n        /* \"https://github.com/OpenZeppelin/openzeppelin-contracts/blob/v4.9.5/contracts/token/ERC20/ERC20.sol\":3740:3929  function transfer(address to, uint256 amount) public virtual override returns (bool) {... */\n    tag_84:\n        /* \"https://github.com/OpenZeppelin/openzeppelin-contracts/blob/v4.9.5/contracts/token/ERC20/ERC20.sol\":3819:3823  bool */\n      0x00\n        /* \"https://github.com/OpenZeppelin/openzeppelin-contracts/blob/v4.9.5/contracts/utils/Context.sol\":734:744  msg.sender */\n      caller\n        /* \"https://github.com/OpenZeppelin/openzeppelin-contracts/blob/v4.9.5/contracts/token/ERC20/ERC20.sol\":3873:3901  _transfer(owner, to, amount) */\n      tag_104\n        /* \"https://github.com/OpenZeppelin/openzeppelin-contracts/blob/v4.9.5/contracts/utils/Context.sol\":734:744  msg.sender */\n      dup2\n        /* \"https://github.com/OpenZeppelin/openzeppelin-contracts/blob/v4.9.5/contracts/token/ERC20/ERC20.sol\":3890:3892  to */\n      dup6\n        /* \"https://github.com/OpenZeppelin/openzeppelin-contracts/blob/v4.9.5/contracts/token/ERC20/ERC20.sol\":3894:3900  amount */\n      dup6\n        /* \"https://github.com/OpenZeppelin/openzeppelin-contracts/blob/v4.9.5/contracts/token/ERC20/ERC20.sol\":3873:3882  _transfer */\n      tag_122\n        /* \"https://github.com/OpenZeppelin/openzeppelin-contracts/blob/v4.9.5/contracts/token/ERC20/ERC20.sol\":3873:3901  _transfer(owner, to, amount) */\n      jump\t// in\n        /* \"https://github.com/OpenZeppelin/openzeppelin-contracts/blob/v4.9.5/contracts/token/ERC20/ERC20.sol\":3987:4136  function allowance(address owner, address spender) public view virtual override returns (uint256) {... */\n    tag_89:\n      sub(shl(0xa0, 0x01), 0x01)\n        /* \"https://github.com/OpenZeppelin/openzeppelin-contracts/blob/v4.9.5/contracts/token/ERC20/ERC20.sol\":4102:4120  _allowances[owner] */\n      swap2\n      dup3\n      and\n        /* \"https://github.com/OpenZeppelin/openzeppelin-contracts/blob/v4.9.5/contracts/token/ERC20/ERC20.sol\":4076:4083  uint256 */\n      0x00\n        /* \"https://github.com/OpenZeppelin/openzeppelin-contracts/blob/v4.9.5/contracts/token/ERC20/ERC20.sol\":4102:4120  _allowances[owner] */\n      swap1\n      dup2\n      mstore\n        /* \"https://github.com/OpenZeppelin/openzeppelin-contracts/blob/v4.9.5/contracts/token/ERC20/ERC20.sol\":4102:4113  _allowances */\n      0x01\n        /* \"https://github.com/OpenZeppelin/openzeppelin-contracts/blob/v4.9.5/contracts/token/ERC20/ERC20.sol\":4102:4120  _allowances[owner] */\n      0x20\n      swap1\n      dup2\n      mstore\n      0x40\n      dup1\n      dup4\n      keccak256\n        /* \"https://github.com/OpenZeppelin/openzeppelin-contracts/blob/v4.9.5/contracts/token/ERC20/ERC20.sol\":4102:4129  _allowances[owner][spender] */\n      swap4\n      swap1\n      swap5\n      and\n      dup3\n      mstore\n      swap2\n      swap1\n      swap2\n      mstore\n      keccak256\n      sload\n      swap1\n        /* \"https://github.com/OpenZeppelin/openzeppelin-contracts/blob/v4.9.5/contracts/token/ERC20/ERC20.sol\":3987:4136  function allowance(address owner, address spender) public view virtual override returns (uint256) {... */\n      jump\t// out\n        /* \"https://github.com/OpenZeppelin/openzeppelin-contracts/blob/v4.9.5/contracts/token/ERC20/extensions/ERC20Capped.sol\":759:963  function _mint(address account, uint256 amount) internal virtual override {... */\n    tag_91:\n        /* \"https://github.com/OpenZeppelin/openzeppelin-contracts/blob/v4.9.5/contracts/token/ERC20/extensions/ERC20Capped.sol\":695:699  _cap */\n      sload(0x05)\n        /* \"https://github.com/OpenZeppelin/openzeppelin-contracts/blob/v4.9.5/contracts/token/ERC20/extensions/ERC20Capped.sol\":873:879  amount */\n      dup2\n        /* \"https://github.com/OpenZeppelin/openzeppelin-contracts/blob/v4.9.5/contracts/token/ERC20/extensions/ERC20Capped.sol\":851:870  ERC20.totalSupply() */\n      tag_159\n        /* \"https://github.com/OpenZeppelin/openzeppelin-contracts/blob/v4.9.5/contracts/token/ERC20/ERC20.sol\":3342:3354  _totalSupply */\n      sload(0x02)\n      swap1\n        /* \"https://github.com/OpenZeppelin/openzeppelin-contracts/blob/v4.9.5/contracts/token/ERC20/ERC20.sol\":3255:3361  function totalSupply() public view virtual override returns (uint256) {... */\n      jump\n        /* \"https://github.com/OpenZeppelin/openzeppelin-contracts/blob/v4.9.5/contracts/token/ERC20/extensions/ERC20Capped.sol\":851:870  ERC20.totalSupply() */\n    tag_159:\n        /* \"https://github.com/OpenZeppelin/openzeppelin-contracts/blob/v4.9.5/contracts/token/ERC20/extensions/ERC20Capped.sol\":851:879  ERC20.totalSupply() + amount */\n      tag_160\n      swap2\n      swap1\n      tag_130\n      jump\t// in\n    tag_160:\n        /* \"https://github.com/OpenZeppelin/openzeppelin-contracts/blob/v4.9.5/contracts/token/ERC20/extensions/ERC20Capped.sol\":851:888  ERC20.totalSupply() + amount <= cap() */\n      gt\n      iszero\n        /* \"https://github.com/OpenZeppelin/openzeppelin-contracts/blob/v4.9.5/contracts/token/ERC20/extensions/ERC20Capped.sol\":843:918  require(ERC20.totalSupply() + amount <= cap(), \"ERC20Capped: cap exceeded\") */\n      tag_161\n      jumpi\n      mload(0x40)\n      shl(0xe5, 0x461bcd)\n      dup2\n      mstore\n        /* \"#utility.yul\":5982:5984   */\n      0x20\n        /* \"https://github.com/OpenZeppelin/openzeppelin-contracts/blob/v4.9.5/contracts/token/ERC20/extensions/ERC20Capped.sol\":843:918  require(ERC20.totalSupply() + amount <= cap(), \"ERC20Capped: cap exceeded\") */\n      0x04\n      dup3\n      add\n        /* \"#utility.yul\":5964:5985   */\n      mstore\n        /* \"#utility.yul\":6021:6023   */\n      0x19\n        /* \"#utility.yul\":6001:6019   */\n      0x24\n      dup3\n      add\n        /* \"#utility.yul\":5994:6024   */\n      mstore\n      shl(0x3a, 0x115490cc8c10d85c1c19590e8818d85c08195e18d959591959)\n        /* \"#utility.yul\":6040:6058   */\n      0x44\n      dup3\n      add\n        /* \"#utility.yul\":6033:6088   */\n      mstore\n        /* \"#utility.yul\":6105:6123   */\n      0x64\n      add\n        /* \"https://github.com/OpenZeppelin/openzeppelin-contracts/blob/v4.9.5/contracts/token/ERC20/extensions/ERC20Capped.sol\":843:918  require(ERC20.totalSupply() + amount <= cap(), \"ERC20Capped: cap exceeded\") */\n      tag_109\n        /* \"#utility.yul\":5780:6129   */\n      jump\n        /* \"https://github.com/OpenZeppelin/openzeppelin-contracts/blob/v4.9.5/contracts/token/ERC20/extensions/ERC20Capped.sol\":843:918  require(ERC20.totalSupply() + amount <= cap(), \"ERC20Capped: cap exceeded\") */\n    tag_161:\n        /* \"https://github.com/OpenZeppelin/openzeppelin-contracts/blob/v4.9.5/contracts/token/ERC20/extensions/ERC20Capped.sol\":928:956  super._mint(account, amount) */\n      tag_139\n        /* \"https://github.com/OpenZeppelin/openzeppelin-contracts/blob/v4.9.5/contracts/token/ERC20/extensions/ERC20Capped.sol\":940:947  account */\n      dup3\n        /* \"https://github.com/OpenZeppelin/openzeppelin-contracts/blob/v4.9.5/contracts/token/ERC20/extensions/ERC20Capped.sol\":949:955  amount */\n      dup3\n        /* \"https://github.com/OpenZeppelin/openzeppelin-contracts/blob/v4.9.5/contracts/token/ERC20/ERC20.sol\":8520:9055  function _mint(address account, uint256 amount) internal virtual {... */\n    tag_92:\n      sub(shl(0xa0, 0x01), 0x01)\n        /* \"https://github.com/OpenZeppelin/openzeppelin-contracts/blob/v4.9.5/contracts/token/ERC20/ERC20.sol\":8603:8624  account != address(0) */\n      dup3\n      and\n        /* \"https://github.com/OpenZeppelin/openzeppelin-contracts/blob/v4.9.5/contracts/token/ERC20/ERC20.sol\":8595:8660  require(account != address(0), \"ERC20: mint to the zero address\") */\n      tag_166\n      jumpi\n      mload(0x40)\n      shl(0xe5, 0x461bcd)\n      dup2\n      mstore\n        /* \"#utility.yul\":6336:6338   */\n      0x20\n        /* \"https://github.com/OpenZeppelin/openzeppelin-contracts/blob/v4.9.5/contracts/token/ERC20/ERC20.sol\":8595:8660  require(account != address(0), \"ERC20: mint to the zero address\") */\n      0x04\n      dup3\n      add\n        /* \"#utility.yul\":6318:6339   */\n      mstore\n        /* \"#utility.yul\":6375:6377   */\n      0x1f\n        /* \"#utility.yul\":6355:6373   */\n      0x24\n      dup3\n      add\n        /* \"#utility.yul\":6348:6378   */\n      mstore\n        /* \"#utility.yul\":6414:6447   */\n      0x45524332303a206d696e7420746f20746865207a65726f206164647265737300\n        /* \"#utility.yul\":6394:6412   */\n      0x44\n      dup3\n      add\n        /* \"#utility.yul\":6387:6448   */\n      mstore\n        /* \"#utility.yul\":6465:6483   */\n      0x64\n      add\n        /* \"https://github.com/OpenZeppelin/openzeppelin-contracts/blob/v4.9.5/contracts/token/ERC20/ERC20.sol\":8595:8660  require(account != address(0), \"ERC20: mint to the zero address\") */\n      tag_109\n        /* \"#utility.yul\":6134:6489   */\n      jump\n        /* \"https://github.com/OpenZeppelin/openzeppelin-contracts/blob/v4.9.5/contracts/token/ERC20/ERC20.sol\":8595:8660  require(account != address(0), \"ERC20: mint to the zero address\") */\n    tag_166:\n        /* \"https://github.com/OpenZeppelin/openzeppelin-contracts/blob/v4.9.5/contracts/token/ERC20/ERC20.sol\":8671:8720  _beforeTokenTransfer(address(0), account, amount) */\n      tag_169\n        /* \"https://github.com/OpenZeppelin/openzeppelin-contracts/blob/v4.9.5/contracts/token/ERC20/ERC20.sol\":8700:8701  0 */\n      0x00\n        /* \"https://github.com/OpenZeppelin/openzeppelin-contracts/blob/v4.9.5/contracts/token/ERC20/ERC20.sol\":8704:8711  account */\n      dup4\n        /* \"https://github.com/OpenZeppelin/openzeppelin-contracts/blob/v4.9.5/contracts/token/ERC20/ERC20.sol\":8713:8719  amount */\n      dup4\n        /* \"https://github.com/OpenZeppelin/openzeppelin-contracts/blob/v4.9.5/contracts/token/ERC20/ERC20.sol\":8671:8691  _beforeTokenTransfer */\n      tag_170\n        /* \"https://github.com/OpenZeppelin/openzeppelin-contracts/blob/v4.9.5/contracts/token/ERC20/ERC20.sol\":8671:8720  _beforeTokenTransfer(address(0), account, amount) */\n      jump\t// in\n    tag_169:\n        /* \"https://github.com/OpenZeppelin/openzeppelin-contracts/blob/v4.9.5/contracts/token/ERC20/ERC20.sol\":8747:8753  amount */\n      dup1\n        /* \"https://github.com/OpenZeppelin/openzeppelin-contracts/blob/v4.9.5/contracts/token/ERC20/ERC20.sol\":8731:8743  _totalSupply */\n      0x02\n      0x00\n        /* \"https://github.com/OpenZeppelin/openzeppelin-contracts/blob/v4.9.5/contracts/token/ERC20/ERC20.sol\":8731:8753  _totalSupply += amount */\n      dup3\n      dup3\n      sload\n      tag_171\n      swap2\n      swap1\n      tag_130\n      jump\t// in\n    tag_171:\n      swap1\n      swap2\n      sstore\n      pop\n      pop\n      sub(shl(0xa0, 0x01), 0x01)\n        /* \"https://github.com/OpenZeppelin/openzeppelin-contracts/blob/v4.9.5/contracts/token/ERC20/ERC20.sol\":8899:8917  _balances[account] */\n      dup3\n      and\n        /* \"https://github.com/OpenZeppelin/openzeppelin-contracts/blob/v4.9.5/contracts/token/ERC20/ERC20.sol\":8899:8908  _balances */\n      0x00\n        /* \"https://github.com/OpenZeppelin/openzeppelin-contracts/blob/v4.9.5/contracts/token/ERC20/ERC20.sol\":8899:8917  _balances[account] */\n      dup2\n      dup2\n      mstore\n      0x20\n      dup2\n      dup2\n      mstore\n      0x40\n      dup1\n      dup4\n      keccak256\n        /* \"https://github.com/OpenZeppelin/openzeppelin-contracts/blob/v4.9.5/contracts/token/ERC20/ERC20.sol\":8899:8927  _balances[account] += amount */\n      dup1\n      sload\n      dup7\n      add\n      swap1\n      sstore\n        /* \"https://github.com/OpenZeppelin/openzeppelin-contracts/blob/v4.9.5/contracts/token/ERC20/ERC20.sol\":8952:8989  Transfer(address(0), account, amount) */\n      mload\n        /* \"#utility.yul\":1342:1367   */\n      dup5\n      dup2\n      mstore\n        /* \"https://github.com/OpenZeppelin/openzeppelin-contracts/blob/v4.9.5/contracts/token/ERC20/ERC20.sol\":8952:8989  Transfer(address(0), account, amount) */\n      0xddf252ad1be2c89b69c2b068fc378daa952ba7f163c4a11628f55a4df523b3ef\n      swap2\n        /* \"#utility.yul\":1315:1333   */\n      add\n        /* \"https://github.com/OpenZeppelin/openzeppelin-contracts/blob/v4.9.5/contracts/token/ERC20/ERC20.sol\":8952:8989  Transfer(address(0), account, amount) */\n      mload(0x40)\n      dup1\n      swap2\n      sub\n      swap1\n      log3\n        /* \"https://github.com/OpenZeppelin/openzeppelin-contracts/blob/v4.9.5/contracts/token/ERC20/extensions/ERC20Burnable.sol\":973:1134  function burnFrom(address account, uint256 amount) public virtual {... */\n      pop\n      pop\n      jump\t// out\n        /* \"https://github.com/OpenZeppelin/openzeppelin-contracts/blob/v4.9.5/contracts/token/ERC20/ERC20.sol\":12073:12164  function _beforeTokenTransfer(address from, address to, uint256 amount) internal virtual {} */\n    tag_93:\n      pop\n      pop\n      pop\n      jump\t// out\n        /* \"https://github.com/OpenZeppelin/openzeppelin-contracts/blob/v4.9.5/contracts/token/ERC20/ERC20.sol\":10457:10797  function _approve(address owner, address spender, uint256 amount) internal virtual {... */\n    tag_105:\n      sub(shl(0xa0, 0x01), 0x01)\n        /* \"https://github.com/OpenZeppelin/openzeppelin-contracts/blob/v4.9.5/contracts/token/ERC20/ERC20.sol\":10558:10577  owner != address(0) */\n      dup4\n      and\n        /* \"https://github.com/OpenZeppelin/openzeppelin-contracts/blob/v4.9.5/contracts/token/ERC20/ERC20.sol\":10550:10618  require(owner != address(0), \"ERC20: approve from the zero address\") */\n      tag_178\n      jumpi\n      mload(0x40)\n      shl(0xe5, 0x461bcd)\n      dup2\n      mstore\n        /* \"#utility.yul\":6696:6698   */\n      0x20\n        /* \"https://github.com/OpenZeppelin/openzeppelin-contracts/blob/v4.9.5/contracts/token/ERC20/ERC20.sol\":10550:10618  require(owner != address(0), \"ERC20: approve from the zero address\") */\n      0x04\n      dup3\n      add\n        /* \"#utility.yul\":6678:6699   */\n      mstore\n        /* \"#utility.yul\":6735:6737   */\n      0x24\n        /* \"#utility.yul\":6715:6733   */\n      dup1\n      dup3\n      add\n        /* \"#utility.yul\":6708:6738   */\n      mstore\n        /* \"#utility.yul\":6774:6808   */\n      0x45524332303a20617070726f76652066726f6d20746865207a65726f20616464\n        /* \"#utility.yul\":6754:6772   */\n      0x44\n      dup3\n      add\n        /* \"#utility.yul\":6747:6809   */\n      mstore\n      shl(0xe0, 0x72657373)\n        /* \"#utility.yul\":6825:6843   */\n      0x64\n      dup3\n      add\n        /* \"#utility.yul\":6818:6852   */\n      mstore\n        /* \"#utility.yul\":6869:6888   */\n      0x84\n      add\n        /* \"https://github.com/OpenZeppelin/openzeppelin-contracts/blob/v4.9.5/contracts/token/ERC20/ERC20.sol\":10550:10618  require(owner != address(0), \"ERC20: approve from the zero address\") */\n      tag_109\n        /* \"#utility.yul\":6494:6894   */\n      jump\n        /* \"https://github.com/OpenZeppelin/openzeppelin-contracts/blob/v4.9.5/contracts/token/ERC20/ERC20.sol\":10550:10618  require(owner != address(0), \"ERC20: approve from the zero address\") */\n    tag_178:\n      sub(shl(0xa0, 0x01), 0x01)\n        /* \"https://github.com/OpenZeppelin/openzeppelin-contracts/blob/v4.9.5/contracts/token/ERC20/ERC20.sol\":10636:10657  spender != address(0) */\n      dup3\n      and\n        /* \"https://github.com/OpenZeppelin/openzeppelin-contracts/blob/v4.9.5/contracts/token/ERC20/ERC20.sol\":10628:10696  require(spender != address(0), \"ERC20: approve to the zero address\") */\n      tag_181\n      jumpi\n      mload(0x40)\n      shl(0xe5, 0x461bcd)\n      dup2\n      mstore\n        /* \"#utility.yul\":7101:7103   */\n      0x20\n        /* \"https://github.com/OpenZeppelin/openzeppelin-contracts/blob/v4.9.5/contracts/token/ERC20/ERC20.sol\":10628:10696  require(spender != address(0), \"ERC20: approve to the zero address\") */\n      0x04\n      dup3\n      add\n        /* \"#utility.yul\":7083:7104   */\n      mstore\n        /* \"#utility.yul\":7140:7142   */\n      0x22\n        /* \"#utility.yul\":7120:7138   */\n      0x24\n      dup3\n      add\n        /* \"#utility.yul\":7113:7143   */\n      mstore\n        /* \"#utility.yul\":7179:7213   */\n      0x45524332303a20617070726f766520746f20746865207a65726f206164647265\n        /* \"#utility.yul\":7159:7177   */\n      0x44\n      dup3\n      add\n        /* \"#utility.yul\":7152:7214   */\n      mstore\n      shl(0xf0, 0x7373)\n        /* \"#utility.yul\":7230:7248   */\n      0x64\n      dup3\n      add\n        /* \"#utility.yul\":7223:7255   */\n      mstore\n        /* \"#utility.yul\":7272:7291   */\n      0x84\n      add\n        /* \"https://github.com/OpenZeppelin/openzeppelin-contracts/blob/v4.9.5/contracts/token/ERC20/ERC20.sol\":10628:10696  require(spender != address(0), \"ERC20: approve to the zero address\") */\n      tag_109\n        /* \"#utility.yul\":6899:7297   */\n      jump\n        /* \"https://github.com/OpenZeppelin/openzeppelin-contracts/blob/v4.9.5/contracts/token/ERC20/ERC20.sol\":10628:10696  require(spender != address(0), \"ERC20: approve to the zero address\") */\n    tag_181:\n      sub(shl(0xa0, 0x01), 0x01)\n        /* \"https://github.com/OpenZeppelin/openzeppelin-contracts/blob/v4.9.5/contracts/token/ERC20/ERC20.sol\":10707:10725  _allowances[owner] */\n      dup4\n      dup2\n      and\n      0x00\n      dup2\n      dup2\n      mstore\n        /* \"https://github.com/OpenZeppelin/openzeppelin-contracts/blob/v4.9.5/contracts/token/ERC20/ERC20.sol\":10707:10718  _allowances */\n      0x01\n        /* \"https://github.com/OpenZeppelin/openzeppelin-contracts/blob/v4.9.5/contracts/token/ERC20/ERC20.sol\":10707:10725  _allowances[owner] */\n      0x20\n      swap1\n      dup2\n      mstore\n      0x40\n      dup1\n      dup4\n      keccak256\n        /* \"https://github.com/OpenZeppelin/openzeppelin-contracts/blob/v4.9.5/contracts/token/ERC20/ERC20.sol\":10707:10734  _allowances[owner][spender] */\n      swap5\n      dup8\n      and\n      dup1\n      dup5\n      mstore\n      swap5\n      dup3\n      mstore\n      swap2\n      dup3\n      swap1\n      keccak256\n        /* \"https://github.com/OpenZeppelin/openzeppelin-contracts/blob/v4.9.5/contracts/token/ERC20/ERC20.sol\":10707:10743  _allowances[owner][spender] = amount */\n      dup6\n      swap1\n      sstore\n        /* \"https://github.com/OpenZeppelin/openzeppelin-contracts/blob/v4.9.5/contracts/token/ERC20/ERC20.sol\":10758:10790  Approval(owner, spender, amount) */\n      swap1\n      mload\n        /* \"#utility.yul\":1342:1367   */\n      dup5\n      dup2\n      mstore\n        /* \"https://github.com/OpenZeppelin/openzeppelin-contracts/blob/v4.9.5/contracts/token/ERC20/ERC20.sol\":10758:10790  Approval(owner, spender, amount) */\n      0x8c5be1e5ebec7d5bd14f71427d1e84f3dd0314c0f7b2291e5b200ac8c7c3b925\n      swap2\n        /* \"#utility.yul\":1315:1333   */\n      add\n        /* \"https://github.com/OpenZeppelin/openzeppelin-contracts/blob/v4.9.5/contracts/token/ERC20/ERC20.sol\":10758:10790  Approval(owner, spender, amount) */\n      mload(0x40)\n      dup1\n      swap2\n      sub\n      swap1\n      log3\n        /* \"https://github.com/OpenZeppelin/openzeppelin-contracts/blob/v4.9.5/contracts/token/ERC20/ERC20.sol\":10457:10797  function _approve(address owner, address spender, uint256 amount) internal virtual {... */\n      pop\n      pop\n      pop\n      jump\t// out\n        /* \"https://github.com/OpenZeppelin/openzeppelin-contracts/blob/v4.9.5/contracts/token/ERC20/ERC20.sol\":11078:11489  function _spendAllowance(address owner, address spender, uint256 amount) internal virtual {... */\n    tag_120:\n        /* \"https://github.com/OpenZeppelin/openzeppelin-contracts/blob/v4.9.5/contracts/token/ERC20/ERC20.sol\":11178:11202  uint256 currentAllowance */\n      0x00\n        /* \"https://github.com/OpenZeppelin/openzeppelin-contracts/blob/v4.9.5/contracts/token/ERC20/ERC20.sol\":11205:11230  allowance(owner, spender) */\n      tag_186\n        /* \"https://github.com/OpenZeppelin/openzeppelin-contracts/blob/v4.9.5/contracts/token/ERC20/ERC20.sol\":11215:11220  owner */\n      dup5\n        /* \"https://github.com/OpenZeppelin/openzeppelin-contracts/blob/v4.9.5/contracts/token/ERC20/ERC20.sol\":11222:11229  spender */\n      dup5\n        /* \"https://github.com/OpenZeppelin/openzeppelin-contracts/blob/v4.9.5/contracts/token/ERC20/ERC20.sol\":11205:11214  allowance */\n      tag_89\n        /* \"https://github.com/OpenZeppelin/openzeppelin-contracts/blob/v4.9.5/contracts/token/ERC20/ERC20.sol\":11205:11230  allowance(owner, spender) */\n      jump\t// in\n    tag_186:\n        /* \"https://github.com/OpenZeppelin/openzeppelin-contracts/blob/v4.9.5/contracts/token/ERC20/ERC20.sol\":11178:11230  uint256 currentAllowance = allowance(owner, spender) */\n      swap1\n      pop\n      not(0x00)\n        /* \"https://github.com/OpenZeppelin/openzeppelin-contracts/blob/v4.9.5/contracts/token/ERC20/ERC20.sol\":11244:11260  currentAllowance */\n      dup2\n        /* \"https://github.com/OpenZeppelin/openzeppelin-contracts/blob/v4.9.5/contracts/token/ERC20/ERC20.sol\":11244:11281  currentAllowance != type(uint256).max */\n      eq\n        /* \"https://github.com/OpenZeppelin/openzeppelin-contracts/blob/v4.9.5/contracts/token/ERC20/ERC20.sol\":11240:11483  if (currentAllowance != type(uint256).max) {... */\n      tag_191\n      jumpi\n        /* \"https://github.com/OpenZeppelin/openzeppelin-contracts/blob/v4.9.5/contracts/token/ERC20/ERC20.sol\":11325:11331  amount */\n      dup2\n        /* \"https://github.com/OpenZeppelin/openzeppelin-contracts/blob/v4.9.5/contracts/token/ERC20/ERC20.sol\":11305:11321  currentAllowance */\n      dup2\n        /* \"https://github.com/OpenZeppelin/openzeppelin-contracts/blob/v4.9.5/contracts/token/ERC20/ERC20.sol\":11305:11331  currentAllowance >= amount */\n      lt\n      iszero\n        /* \"https://github.com/OpenZeppelin/openzeppelin-contracts/blob/v4.9.5/contracts/token/ERC20/ERC20.sol\":11297:11365  require(currentAllowance >= amount, \"ERC20: insufficient allowance\") */\n      tag_188\n      jumpi\n      mload(0x40)\n      shl(0xe5, 0x461bcd)\n      dup2\n      mstore\n        /* \"#utility.yul\":7504:7506   */\n      0x20\n        /* \"https://github.com/OpenZeppelin/openzeppelin-contracts/blob/v4.9.5/contracts/token/ERC20/ERC20.sol\":11297:11365  require(currentAllowance >= amount, \"ERC20: insufficient allowance\") */\n      0x04\n      dup3\n      add\n        /* \"#utility.yul\":7486:7507   */\n      mstore\n        /* \"#utility.yul\":7543:7545   */\n      0x1d\n        /* \"#utility.yul\":7523:7541   */\n      0x24\n      dup3\n      add\n        /* \"#utility.yul\":7516:7546   */\n      mstore\n        /* \"#utility.yul\":7582:7613   */\n      0x45524332303a20696e73756666696369656e7420616c6c6f77616e6365000000\n        /* \"#utility.yul\":7562:7580   */\n      0x44\n      dup3\n      add\n        /* \"#utility.yul\":7555:7614   */\n      mstore\n        /* \"#utility.yul\":7631:7649   */\n      0x64\n      add\n        /* \"https://github.com/OpenZeppelin/openzeppelin-contracts/blob/v4.9.5/contracts/token/ERC20/ERC20.sol\":11297:11365  require(currentAllowance >= amount, \"ERC20: insufficient allowance\") */\n      tag_109\n        /* \"#utility.yul\":7302:7655   */\n      jump\n        /* \"https://github.com/OpenZeppelin/openzeppelin-contracts/blob/v4.9.5/contracts/token/ERC20/ERC20.sol\":11297:11365  require(currentAllowance >= amount, \"ERC20: insufficient allowance\") */\n    tag_188:\n        /* \"https://github.com/OpenZeppelin/openzeppelin-contracts/blob/v4.9.5/contracts/token/ERC20/ERC20.sol\":11407:11458  _approve(owner, spender, currentAllowance - amount) */\n      tag_191\n        /* \"https://github.com/OpenZeppelin/openzeppelin-contracts/blob/v4.9.5/contracts/token/ERC20/ERC20.sol\":11416:11421  owner */\n      dup5\n        /* \"https://github.com/OpenZeppelin/openzeppelin-contracts/blob/v4.9.5/contracts/token/ERC20/ERC20.sol\":11423:11430  spender */\n      dup5\n        /* \"https://github.com/OpenZeppelin/openzeppelin-contracts/blob/v4.9.5/contracts/token/ERC20/ERC20.sol\":11451:11457  amount */\n      dup5\n        /* \"https://github.com/OpenZeppelin/openzeppelin-contracts/blob/v4.9.5/contracts/token/ERC20/ERC20.sol\":11432:11448  currentAllowance */\n      dup5\n        /* \"https://github.com/OpenZeppelin/openzeppelin-contracts/blob/v4.9.5/contracts/token/ERC20/ERC20.sol\":11432:11457  currentAllowance - amount */\n      sub\n        /* \"https://github.com/OpenZeppelin/openzeppelin-contracts/blob/v4.9.5/contracts/token/ERC20/ERC20.sol\":11407:11415  _approve */\n      tag_105\n        /* \"https://github.com/OpenZeppelin/openzeppelin-contracts/blob/v4.9.5/contracts/token/ERC20/ERC20.sol\":11407:11458  _approve(owner, spender, currentAllowance - amount) */\n      jump\t// in\n    tag_191:\n        /* \"https://github.com/OpenZeppelin/openzeppelin-contracts/blob/v4.9.5/contracts/token/ERC20/ERC20.sol\":11168:11489  {... */\n      pop\n        /* \"https://github.com/OpenZeppelin/openzeppelin-contracts/blob/v4.9.5/contracts/token/ERC20/ERC20.sol\":11078:11489  function _spendAllowance(address owner, address spender, uint256 amount) internal virtual {... */\n      pop\n      pop\n      pop\n      jump\t// out\n        /* \"https://github.com/OpenZeppelin/openzeppelin-contracts/blob/v4.9.5/contracts/token/ERC20/ERC20.sol\":7456:8244  function _transfer(address from, address to, uint256 amount) internal virtual {... */\n    tag_122:\n      sub(shl(0xa0, 0x01), 0x01)\n        /* \"https://github.com/OpenZeppelin/openzeppelin-contracts/blob/v4.9.5/contracts/token/ERC20/ERC20.sol\":7552:7570  from != address(0) */\n      dup4\n      and\n        /* \"https://github.com/OpenZeppelin/openzeppelin-contracts/blob/v4.9.5/contracts/token/ERC20/ERC20.sol\":7544:7612  require(from != address(0), \"ERC20: transfer from the zero address\") */\n      tag_193\n      jumpi\n      mload(0x40)\n      shl(0xe5, 0x461bcd)\n      dup2\n      mstore\n        /* \"#utility.yul\":7862:7864   */\n      0x20\n        /* \"https://github.com/OpenZeppelin/openzeppelin-contracts/blob/v4.9.5/contracts/token/ERC20/ERC20.sol\":7544:7612  require(from != address(0), \"ERC20: transfer from the zero address\") */\n      0x04\n      dup3\n      add\n        /* \"#utility.yul\":7844:7865   */\n      mstore\n        /* \"#utility.yul\":7901:7903   */\n      0x25\n        /* \"#utility.yul\":7881:7899   */\n      0x24\n      dup3\n      add\n        /* \"#utility.yul\":7874:7904   */\n      mstore\n        /* \"#utility.yul\":7940:7974   */\n      0x45524332303a207472616e736665722066726f6d20746865207a65726f206164\n        /* \"#utility.yul\":7920:7938   */\n      0x44\n      dup3\n      add\n        /* \"#utility.yul\":7913:7975   */\n      mstore\n      shl(0xd8, 0x6472657373)\n        /* \"#utility.yul\":7991:8009   */\n      0x64\n      dup3\n      add\n        /* \"#utility.yul\":7984:8019   */\n      mstore\n        /* \"#utility.yul\":8036:8055   */\n      0x84\n      add\n        /* \"https://github.com/OpenZeppelin/openzeppelin-contracts/blob/v4.9.5/contracts/token/ERC20/ERC20.sol\":7544:7612  require(from != address(0), \"ERC20: transfer from the zero address\") */\n      tag_109\n        /* \"#utility.yul\":7660:8061   */\n      jump\n        /* \"https://github.com/OpenZeppelin/openzeppelin-contracts/blob/v4.9.5/contracts/token/ERC20/ERC20.sol\":7544:7612  require(from != address(0), \"ERC20: transfer from the zero address\") */\n    tag_193:\n      sub(shl(0xa0, 0x01), 0x01)\n        /* \"https://github.com/OpenZeppelin/openzeppelin-contracts/blob/v4.9.5/contracts/token/ERC20/ERC20.sol\":7630:7646  to != address(0) */\n      dup3\n      and\n        /* \"https://github.com/OpenZeppelin/openzeppelin-contracts/blob/v4.9.5/contracts/token/ERC20/ERC20.sol\":7622:7686  require(to != address(0), \"ERC20: transfer to the zero address\") */\n      tag_196\n      jumpi\n      mload(0x40)\n      shl(0xe5, 0x461bcd)\n      dup2\n      mstore\n        /* \"#utility.yul\":8268:8270   */\n      0x20\n        /* \"https://github.com/OpenZeppelin/openzeppelin-contracts/blob/v4.9.5/contracts/token/ERC20/ERC20.sol\":7622:7686  require(to != address(0), \"ERC20: transfer to the zero address\") */\n      0x04\n      dup3\n      add\n        /* \"#utility.yul\":8250:8271   */\n      mstore\n        /* \"#utility.yul\":8307:8309   */\n      0x23\n        /* \"#utility.yul\":8287:8305   */\n      0x24\n      dup3\n      add\n        /* \"#utility.yul\":8280:8310   */\n      mstore\n        /* \"#utility.yul\":8346:8380   */\n      0x45524332303a207472616e7366657220746f20746865207a65726f2061646472\n        /* \"#utility.yul\":8326:8344   */\n      0x44\n      dup3\n      add\n        /* \"#utility.yul\":8319:8381   */\n      mstore\n      shl(0xe8, 0x657373)\n        /* \"#utility.yul\":8397:8415   */\n      0x64\n      dup3\n      add\n        /* \"#utility.yul\":8390:8423   */\n      mstore\n        /* \"#utility.yul\":8440:8459   */\n      0x84\n      add\n        /* \"https://github.com/OpenZeppelin/openzeppelin-contracts/blob/v4.9.5/contracts/token/ERC20/ERC20.sol\":7622:7686  require(to != address(0), \"ERC20: transfer to the zero address\") */\n      tag_109\n        /* \"#utility.yul\":8066:8465   */\n      jump\n        /* \"https://github.com/OpenZeppelin/openzeppelin-contracts/blob/v4.9.5/contracts/token/ERC20/ERC20.sol\":7622:7686  require(to != address(0), \"ERC20: transfer to the zero address\") */\n    tag_196:\n        /* \"https://github.com/OpenZeppelin/openzeppelin-contracts/blob/v4.9.5/contracts/token/ERC20/ERC20.sol\":7697:7735  _beforeTokenTransfer(from, to, amount) */\n      tag_199\n        /* \"https://github.com/OpenZeppelin/openzeppelin-contracts/blob/v4.9.5/contracts/token/ERC20/ERC20.sol\":7718:7722  from */\n      dup4\n        /* \"https://github.com/OpenZeppelin/openzeppelin-contracts/blob/v4.9.5/contracts/token/ERC20/ERC20.sol\":7724:7726  to */\n      dup4\n        /* \"https://github.com/OpenZeppelin/openzeppelin-contracts/blob/v4.9.5/contracts/token/ERC20/ERC20.sol\":7728:7734  amount */\n      dup4\n        /* \"https://github.com/OpenZeppelin/openzeppelin-contracts/blob/v4.9.5/contracts/token/ERC20/ERC20.sol\":7697:7717  _beforeTokenTransfer */\n      tag_170\n        /* \"https://github.com/OpenZeppelin/openzeppelin-contracts/blob/v4.9.5/contracts/token/ERC20/ERC20.sol\":7697:7735  _beforeTokenTransfer(from, to, amount) */\n      jump\t// in\n    tag_199:\n      sub(shl(0xa0, 0x01), 0x01)\n        /* \"https://github.com/OpenZeppelin/openzeppelin-contracts/blob/v4.9.5/contracts/token/ERC20/ERC20.sol\":7768:7783  _balances[from] */\n      dup4\n      and\n        /* \"https://github.com/OpenZeppelin/openzeppelin-contracts/blob/v4.9.5/contracts/token/ERC20/ERC20.sol\":7746:7765  uint256 fromBalance */\n      0x00\n        /* \"https://github.com/OpenZeppelin/openzeppelin-contracts/blob/v4.9.5/contracts/token/ERC20/ERC20.sol\":7768:7783  _balances[from] */\n      swap1\n      dup2\n      mstore\n      0x20\n      dup2\n      swap1\n      mstore\n      0x40\n      swap1\n      keccak256\n      sload\n        /* \"https://github.com/OpenZeppelin/openzeppelin-contracts/blob/v4.9.5/contracts/token/ERC20/ERC20.sol\":7801:7822  fromBalance >= amount */\n      dup2\n      dup2\n      lt\n      iszero\n        /* \"https://github.com/OpenZeppelin/openzeppelin-contracts/blob/v4.9.5/contracts/token/ERC20/ERC20.sol\":7793:7865  require(fromBalance >= amount, \"ERC20: transfer amount exceeds balance\") */\n      tag_200\n      jumpi\n      mload(0x40)\n      shl(0xe5, 0x461bcd)\n      dup2\n      mstore\n        /* \"#utility.yul\":8672:8674   */\n      0x20\n        /* \"https://github.com/OpenZeppelin/openzeppelin-contracts/blob/v4.9.5/contracts/token/ERC20/ERC20.sol\":7793:7865  require(fromBalance >= amount, \"ERC20: transfer amount exceeds balance\") */\n      0x04\n      dup3\n      add\n        /* \"#utility.yul\":8654:8675   */\n      mstore\n        /* \"#utility.yul\":8711:8713   */\n      0x26\n        /* \"#utility.yul\":8691:8709   */\n      0x24\n      dup3\n      add\n        /* \"#utility.yul\":8684:8714   */\n      mstore\n        /* \"#utility.yul\":8750:8784   */\n      0x45524332303a207472616e7366657220616d6f756e7420657863656564732062\n        /* \"#utility.yul\":8730:8748   */\n      0x44\n      dup3\n      add\n        /* \"#utility.yul\":8723:8785   */\n      mstore\n      shl(0xd0, 0x616c616e6365)\n        /* \"#utility.yul\":8801:8819   */\n      0x64\n      dup3\n      add\n        /* \"#utility.yul\":8794:8830   */\n      mstore\n        /* \"#utility.yul\":8847:8866   */\n      0x84\n      add\n        /* \"https://github.com/OpenZeppelin/openzeppelin-contracts/blob/v4.9.5/contracts/token/ERC20/ERC20.sol\":7793:7865  require(fromBalance >= amount, \"ERC20: transfer amount exceeds balance\") */\n      tag_109\n        /* \"#utility.yul\":8470:8872   */\n      jump\n        /* \"https://github.com/OpenZeppelin/openzeppelin-contracts/blob/v4.9.5/contracts/token/ERC20/ERC20.sol\":7793:7865  require(fromBalance >= amount, \"ERC20: transfer amount exceeds balance\") */\n    tag_200:\n      sub(shl(0xa0, 0x01), 0x01)\n        /* \"https://github.com/OpenZeppelin/openzeppelin-contracts/blob/v4.9.5/contracts/token/ERC20/ERC20.sol\":7899:7914  _balances[from] */\n      dup5\n      dup2\n      and\n        /* \"https://github.com/OpenZeppelin/openzeppelin-contracts/blob/v4.9.5/contracts/token/ERC20/ERC20.sol\":7899:7908  _balances */\n      0x00\n        /* \"https://github.com/OpenZeppelin/openzeppelin-contracts/blob/v4.9.5/contracts/token/ERC20/ERC20.sol\":7899:7914  _balances[from] */\n      dup2\n      dup2\n      mstore\n      0x20\n      dup2\n      dup2\n      mstore\n      0x40\n      dup1\n      dup4\n      keccak256\n        /* \"https://github.com/OpenZeppelin/openzeppelin-contracts/blob/v4.9.5/contracts/token/ERC20/ERC20.sol\":7917:7937  fromBalance - amount */\n      dup8\n      dup8\n      sub\n        /* \"https://github.com/OpenZeppelin/openzeppelin-contracts/blob/v4.9.5/contracts/token/ERC20/ERC20.sol\":7899:7937  _balances[from] = fromBalance - amount */\n      swap1\n      sstore\n        /* \"https://github.com/OpenZeppelin/openzeppelin-contracts/blob/v4.9.5/contracts/token/ERC20/ERC20.sol\":8114:8127  _balances[to] */\n      swap4\n      dup8\n      and\n      dup1\n      dup4\n      mstore\n      swap2\n      dup5\n      swap1\n      keccak256\n        /* \"https://github.com/OpenZeppelin/openzeppelin-contracts/blob/v4.9.5/contracts/token/ERC20/ERC20.sol\":8114:8137  _balances[to] += amount */\n      dup1\n      sload\n      dup8\n      add\n      swap1\n      sstore\n        /* \"https://github.com/OpenZeppelin/openzeppelin-contracts/blob/v4.9.5/contracts/token/ERC20/ERC20.sol\":8163:8189  Transfer(from, to, amount) */\n      swap3\n      mload\n        /* \"#utility.yul\":1342:1367   */\n      dup6\n      dup2\n      mstore\n        /* \"https://github.com/OpenZeppelin/openzeppelin-contracts/blob/v4.9.5/contracts/token/ERC20/ERC20.sol\":8114:8127  _balances[to] */\n      swap1\n      swap3\n        /* \"https://github.com/OpenZeppelin/openzeppelin-contracts/blob/v4.9.5/contracts/token/ERC20/ERC20.sol\":8163:8189  Transfer(from, to, amount) */\n      0xddf252ad1be2c89b69c2b068fc378daa952ba7f163c4a11628f55a4df523b3ef\n      swap2\n        /* \"#utility.yul\":1315:1333   */\n      add\n        /* \"https://github.com/OpenZeppelin/openzeppelin-contracts/blob/v4.9.5/contracts/token/ERC20/ERC20.sol\":8163:8189  Transfer(from, to, amount) */\n      mload(0x40)\n      dup1\n      swap2\n      sub\n      swap1\n      log3\n        /* \"https://github.com/OpenZeppelin/openzeppelin-contracts/blob/v4.9.5/contracts/token/ERC20/ERC20.sol\":8200:8237  _afterTokenTransfer(from, to, amount) */\n      tag_191\n        /* \"https://github.com/OpenZeppelin/openzeppelin-contracts/blob/v4.9.5/contracts/token/ERC20/ERC20.sol\":12073:12164  function _beforeTokenTransfer(address from, address to, uint256 amount) internal virtual {} */\n      jump\n        /* \"https://github.com/OpenZeppelin/openzeppelin-contracts/blob/v4.9.5/contracts/token/ERC20/ERC20.sol\":9375:10034  function _burn(address account, uint256 amount) internal virtual {... */\n    tag_134:\n      sub(shl(0xa0, 0x01), 0x01)\n        /* \"https://github.com/OpenZeppelin/openzeppelin-contracts/blob/v4.9.5/contracts/token/ERC20/ERC20.sol\":9458:9479  account != address(0) */\n      dup3\n      and\n        /* \"https://github.com/OpenZeppelin/openzeppelin-contracts/blob/v4.9.5/contracts/token/ERC20/ERC20.sol\":9450:9517  require(account != address(0), \"ERC20: burn from the zero address\") */\n      tag_206\n      jumpi\n      mload(0x40)\n      shl(0xe5, 0x461bcd)\n      dup2\n      mstore\n        /* \"#utility.yul\":9079:9081   */\n      0x20\n        /* \"https://github.com/OpenZeppelin/openzeppelin-contracts/blob/v4.9.5/contracts/token/ERC20/ERC20.sol\":9450:9517  require(account != address(0), \"ERC20: burn from the zero address\") */\n      0x04\n      dup3\n      add\n        /* \"#utility.yul\":9061:9082   */\n      mstore\n        /* \"#utility.yul\":9118:9120   */\n      0x21\n        /* \"#utility.yul\":9098:9116   */\n      0x24\n      dup3\n      add\n        /* \"#utility.yul\":9091:9121   */\n      mstore\n        /* \"#utility.yul\":9157:9191   */\n      0x45524332303a206275726e2066726f6d20746865207a65726f20616464726573\n        /* \"#utility.yul\":9137:9155   */\n      0x44\n      dup3\n      add\n        /* \"#utility.yul\":9130:9192   */\n      mstore\n      shl(0xf8, 0x73)\n        /* \"#utility.yul\":9208:9226   */\n      0x64\n      dup3\n      add\n        /* \"#utility.yul\":9201:9232   */\n      mstore\n        /* \"#utility.yul\":9249:9268   */\n      0x84\n      add\n        /* \"https://github.com/OpenZeppelin/openzeppelin-contracts/blob/v4.9.5/contracts/token/ERC20/ERC20.sol\":9450:9517  require(account != address(0), \"ERC20: burn from the zero address\") */\n      tag_109\n        /* \"#utility.yul\":8877:9274   */\n      jump\n        /* \"https://github.com/OpenZeppelin/openzeppelin-contracts/blob/v4.9.5/contracts/token/ERC20/ERC20.sol\":9450:9517  require(account != address(0), \"ERC20: burn from the zero address\") */\n    tag_206:\n        /* \"https://github.com/OpenZeppelin/openzeppelin-contracts/blob/v4.9.5/contracts/token/ERC20/ERC20.sol\":9528:9577  _beforeTokenTransfer(account, address(0), amount) */\n      tag_209\n        /* \"https://github.com/OpenZeppelin/openzeppelin-contracts/blob/v4.9.5/contracts/token/ERC20/ERC20.sol\":9549:9556  account */\n      dup3\n        /* \"https://github.com/OpenZeppelin/openzeppelin-contracts/blob/v4.9.5/contracts/token/ERC20/ERC20.sol\":9566:9567  0 */\n      0x00\n        /* \"https://github.com/OpenZeppelin/openzeppelin-contracts/blob/v4.9.5/contracts/token/ERC20/ERC20.sol\":9570:9576  amount */\n      dup4\n        /* \"https://github.com/OpenZeppelin/openzeppelin-contracts/blob/v4.9.5/contracts/token/ERC20/ERC20.sol\":9528:9548  _beforeTokenTransfer */\n      tag_170\n        /* \"https://github.com/OpenZeppelin/openzeppelin-contracts/blob/v4.9.5/contracts/token/ERC20/ERC20.sol\":9528:9577  _beforeTokenTransfer(account, address(0), amount) */\n      jump\t// in\n    tag_209:\n      sub(shl(0xa0, 0x01), 0x01)\n        /* \"https://github.com/OpenZeppelin/openzeppelin-contracts/blob/v4.9.5/contracts/token/ERC20/ERC20.sol\":9613:9631  _balances[account] */\n      dup3\n      and\n        /* \"https://github.com/OpenZeppelin/openzeppelin-contracts/blob/v4.9.5/contracts/token/ERC20/ERC20.sol\":9588:9610  uint256 accountBalance */\n      0x00\n        /* \"https://github.com/OpenZeppelin/openzeppelin-contracts/blob/v4.9.5/contracts/token/ERC20/ERC20.sol\":9613:9631  _balances[account] */\n      swap1\n      dup2\n      mstore\n      0x20\n      dup2\n      swap1\n      mstore\n      0x40\n      swap1\n      keccak256\n      sload\n        /* \"https://github.com/OpenZeppelin/openzeppelin-contracts/blob/v4.9.5/contracts/token/ERC20/ERC20.sol\":9649:9673  accountBalance >= amount */\n      dup2\n      dup2\n      lt\n      iszero\n        /* \"https://github.com/OpenZeppelin/openzeppelin-contracts/blob/v4.9.5/contracts/token/ERC20/ERC20.sol\":9641:9712  require(accountBalance >= amount, \"ERC20: burn amount exceeds balance\") */\n      tag_210\n      jumpi\n      mload(0x40)\n      shl(0xe5, 0x461bcd)\n      dup2\n      mstore\n        /* \"#utility.yul\":9481:9483   */\n      0x20\n        /* \"https://github.com/OpenZeppelin/openzeppelin-contracts/blob/v4.9.5/contracts/token/ERC20/ERC20.sol\":9641:9712  require(accountBalance >= amount, \"ERC20: burn amount exceeds balance\") */\n      0x04\n      dup3\n      add\n        /* \"#utility.yul\":9463:9484   */\n      mstore\n        /* \"#utility.yul\":9520:9522   */\n      0x22\n        /* \"#utility.yul\":9500:9518   */\n      0x24\n      dup3\n      add\n        /* \"#utility.yul\":9493:9523   */\n      mstore\n        /* \"#utility.yul\":9559:9593   */\n      0x45524332303a206275726e20616d6f756e7420657863656564732062616c616e\n        /* \"#utility.yul\":9539:9557   */\n      0x44\n      dup3\n      add\n        /* \"#utility.yul\":9532:9594   */\n      mstore\n      shl(0xf0, 0x6365)\n        /* \"#utility.yul\":9610:9628   */\n      0x64\n      dup3\n      add\n        /* \"#utility.yul\":9603:9635   */\n      mstore\n        /* \"#utility.yul\":9652:9671   */\n      0x84\n      add\n        /* \"https://github.com/OpenZeppelin/openzeppelin-contracts/blob/v4.9.5/contracts/token/ERC20/ERC20.sol\":9641:9712  require(accountBalance >= amount, \"ERC20: burn amount exceeds balance\") */\n      tag_109\n        /* \"#utility.yul\":9279:9677   */\n      jump\n        /* \"https://github.com/OpenZeppelin/openzeppelin-contracts/blob/v4.9.5/contracts/token/ERC20/ERC20.sol\":9641:9712  require(accountBalance >= amount, \"ERC20: burn amount exceeds balance\") */\n    tag_210:\n      sub(shl(0xa0, 0x01), 0x01)\n        /* \"https://github.com/OpenZeppelin/openzeppelin-contracts/blob/v4.9.5/contracts/token/ERC20/ERC20.sol\":9746:9764  _balances[account] */\n      dup4\n      and\n        /* \"https://github.com/OpenZeppelin/openzeppelin-contracts/blob/v4.9.5/contracts/token/ERC20/ERC20.sol\":9746:9755  _balances */\n      0x00\n        /* \"https://github.com/OpenZeppelin/openzeppelin-contracts/blob/v4.9.5/contracts/token/ERC20/ERC20.sol\":9746:9764  _balances[account] */\n      dup2\n      dup2\n      mstore\n      0x20\n      dup2\n      dup2\n      mstore\n      0x40\n      dup1\n      dup4\n      keccak256\n        /* \"https://github.com/OpenZeppelin/openzeppelin-contracts/blob/v4.9.5/contracts/token/ERC20/ERC20.sol\":9767:9790  accountBalance - amount */\n      dup7\n      dup7\n      sub\n        /* \"https://github.com/OpenZeppelin/openzeppelin-contracts/blob/v4.9.5/contracts/token/ERC20/ERC20.sol\":9746:9790  _balances[account] = accountBalance - amount */\n      swap1\n      sstore\n        /* \"https://github.com/OpenZeppelin/openzeppelin-contracts/blob/v4.9.5/contracts/token/ERC20/ERC20.sol\":9883:9895  _totalSupply */\n      0x02\n        /* \"https://github.com/OpenZeppelin/openzeppelin-contracts/blob/v4.9.5/contracts/token/ERC20/ERC20.sol\":9883:9905  _totalSupply -= amount */\n      dup1\n      sload\n      dup8\n      swap1\n      sub\n      swap1\n      sstore\n        /* \"https://github.com/OpenZeppelin/openzeppelin-contracts/blob/v4.9.5/contracts/token/ERC20/ERC20.sol\":9931:9968  Transfer(account, address(0), amount) */\n      mload\n        /* \"#utility.yul\":1342:1367   */\n      dup6\n      dup2\n      mstore\n        /* \"https://github.com/OpenZeppelin/openzeppelin-contracts/blob/v4.9.5/contracts/token/ERC20/ERC20.sol\":9746:9755  _balances */\n      swap2\n      swap3\n        /* \"https://github.com/OpenZeppelin/openzeppelin-contracts/blob/v4.9.5/contracts/token/ERC20/ERC20.sol\":9746:9764  _balances[account] */\n      swap2\n        /* \"https://github.com/OpenZeppelin/openzeppelin-contracts/blob/v4.9.5/contracts/token/ERC20/ERC20.sol\":9931:9968  Transfer(account, address(0), amount) */\n      0xddf252ad1be2c89b69c2b068fc378daa952ba7f163c4a11628f55a4df523b3ef\n      swap2\n        /* \"#utility.yul\":1315:1333   */\n      add\n        /* \"https://github.com/OpenZeppelin/openzeppelin-contracts/blob/v4.9.5/contracts/token/ERC20/ERC20.sol\":9931:9968  Transfer(account, address(0), amount) */\n      mload(0x40)\n      dup1\n      swap2\n      sub\n      swap1\n      log3\n        /* \"https://github.com/OpenZeppelin/openzeppelin-contracts/blob/v4.9.5/contracts/token/ERC20/ERC20.sol\":12073:12164  function _beforeTokenTransfer(address from, address to, uint256 amount) internal virtual {} */\n      pop\n      pop\n      pop\n      jump\t// out\n        /* \"contracts/erc201.sol\":1171:1510  function _beforeTokenTransfer(address from, address to, uint256 value) internal virtual override {... */\n    tag_170:\n      sub(shl(0xa0, 0x01), 0x01)\n        /* \"contracts/erc201.sol\":1282:1300  from != address(0) */\n      dup4\n      and\n      iszero\n      dup1\n      iszero\n      swap1\n        /* \"contracts/erc201.sol\":1282:1324  from != address(0) && to != block.coinbase */\n      tag_216\n      jumpi\n      pop\n      sub(shl(0xa0, 0x01), 0x01)\n        /* \"contracts/erc201.sol\":1304:1324  to != block.coinbase */\n      dup3\n      and\n        /* \"contracts/erc201.sol\":1310:1324  block.coinbase */\n      coinbase\n        /* \"contracts/erc201.sol\":1304:1324  to != block.coinbase */\n      eq\n      iszero\n        /* \"contracts/erc201.sol\":1282:1324  from != address(0) && to != block.coinbase */\n    tag_216:\n        /* \"contracts/erc201.sol\":1282:1356  from != address(0) && to != block.coinbase && block.coinbase != address(0) */\n      dup1\n      iszero\n      tag_217\n      jumpi\n      pop\n        /* \"contracts/erc201.sol\":1328:1342  block.coinbase */\n      coinbase\n        /* \"contracts/erc201.sol\":1328:1356  block.coinbase != address(0) */\n      iszero\n      iszero\n        /* \"contracts/erc201.sol\":1282:1356  from != address(0) && to != block.coinbase && block.coinbase != address(0) */\n    tag_217:\n        /* \"contracts/erc201.sol\":1282:1402  from != address(0) && to != block.coinbase && block.coinbase != address(0) && ERC20.totalSupply() + blockReward <= cap() */\n      dup1\n      iszero\n      tag_218\n      jumpi\n      pop\n        /* \"https://github.com/OpenZeppelin/openzeppelin-contracts/blob/v4.9.5/contracts/token/ERC20/extensions/ERC20Capped.sol\":695:699  _cap */\n      sload(0x05)\n        /* \"contracts/erc201.sol\":1382:1393  blockReward */\n      sload(0x07)\n        /* \"https://github.com/OpenZeppelin/openzeppelin-contracts/blob/v4.9.5/contracts/token/ERC20/ERC20.sol\":3342:3354  _totalSupply */\n      sload(0x02)\n        /* \"contracts/erc201.sol\":1360:1393  ERC20.totalSupply() + blockReward */\n      tag_221\n      swap2\n      swap1\n      tag_130\n      jump\t// in\n    tag_221:\n        /* \"contracts/erc201.sol\":1360:1402  ERC20.totalSupply() + blockReward <= cap() */\n      gt\n      iszero\n        /* \"contracts/erc201.sol\":1282:1402  from != address(0) && to != block.coinbase && block.coinbase != address(0) && ERC20.totalSupply() + blockReward <= cap() */\n    tag_218:\n        /* \"contracts/erc201.sol\":1279:1449  if(from != address(0) && to != block.coinbase && block.coinbase != address(0) && ERC20.totalSupply() + blockReward <= cap()) {... */\n      iszero\n      tag_93\n      jumpi\n        /* \"contracts/erc201.sol\":1419:1437  _mintMinerReward() */\n      tag_93\n        /* \"contracts/erc201.sol\":1121:1155  _mint(block.coinbase, blockReward) */\n      tag_228\n        /* \"contracts/erc201.sol\":1127:1141  block.coinbase */\n      coinbase\n        /* \"contracts/erc201.sol\":1143:1154  blockReward */\n      sload(0x07)\n        /* \"contracts/erc201.sol\":1121:1126  _mint */\n      tag_229\n        /* \"contracts/erc201.sol\":1121:1155  _mint(block.coinbase, blockReward) */\n      jump\t// in\n    tag_228:\n        /* \"contracts/erc201.sol\":1073:1163  function _mintMinerReward() internal {... */\n      jump\t// out\n        /* \"contracts/erc201.sol\":838:1065  function _mint(address account, uint256 amount) internal virtual override(ERC20Capped, ERC20) {... */\n    tag_229:\n        /* \"https://github.com/OpenZeppelin/openzeppelin-contracts/blob/v4.9.5/contracts/token/ERC20/extensions/ERC20Capped.sol\":695:699  _cap */\n      sload(0x05)\n        /* \"contracts/erc201.sol\":973:979  amount */\n      dup2\n        /* \"contracts/erc201.sol\":951:970  ERC20.totalSupply() */\n      tag_232\n        /* \"https://github.com/OpenZeppelin/openzeppelin-contracts/blob/v4.9.5/contracts/token/ERC20/ERC20.sol\":3342:3354  _totalSupply */\n      sload(0x02)\n      swap1\n        /* \"https://github.com/OpenZeppelin/openzeppelin-contracts/blob/v4.9.5/contracts/token/ERC20/ERC20.sol\":3255:3361  function totalSupply() public view virtual override returns (uint256) {... */\n      jump\n        /* \"contracts/erc201.sol\":951:970  ERC20.totalSupply() */\n    tag_232:\n        /* \"contracts/erc201.sol\":951:979  ERC20.totalSupply() + amount */\n      tag_233\n      swap2\n      swap1\n      tag_130\n      jump\t// in\n    tag_233:\n        /* \"contracts/erc201.sol\":951:988  ERC20.totalSupply() + amount <= cap() */\n      gt\n      iszero\n        /* \"contracts/erc201.sol\":943:1018  require(ERC20.totalSupply() + amount <= cap(), \"ERC20Capped: cap exceeded\") */\n      tag_234\n      jumpi\n      mload(0x40)\n      shl(0xe5, 0x461bcd)\n      dup2\n      mstore\n        /* \"#utility.yul\":5982:5984   */\n      0x20\n        /* \"contracts/erc201.sol\":943:1018  require(ERC20.totalSupply() + amount <= cap(), \"ERC20Capped: cap exceeded\") */\n      0x04\n      dup3\n      add\n        /* \"#utility.yul\":5964:5985   */\n      mstore\n        /* \"#utility.yul\":6021:6023   */\n      0x19\n        /* \"#utility.yul\":6001:6019   */\n      0x24\n      dup3\n      add\n        /* \"#utility.yul\":5994:6024   */\n      mstore\n      shl(0x3a, 0x115490cc8c10d85c1c19590e8818d85c08195e18d959591959)\n        /* \"#utility.yul\":6040:6058   */\n      0x44\n      dup3\n      add\n        /* \"#utility.yul\":6033:6088   */\n      mstore\n        /* \"#utility.yul\":6105:6123   */\n      0x64\n      add\n        /* \"contracts/erc201.sol\":943:1018  require(ERC20.totalSupply() + amount <= cap(), \"ERC20Capped: cap exceeded\") */\n      tag_109\n        /* \"#utility.yul\":5780:6129   */\n      jump\n        /* \"contracts/erc201.sol\":943:1018  require(ERC20.totalSupply() + amount <= cap(), \"ERC20Capped: cap exceeded\") */\n    tag_234:\n        /* \"contracts/erc201.sol\":1029:1057  super._mint(account, amount) */\n      tag_139\n        /* \"contracts/erc201.sol\":1041:1048  account */\n      dup3\n        /* \"contracts/erc201.sol\":1050:1056  amount */\n      dup3\n        /* \"contracts/erc201.sol\":1029:1040  super._mint */\n      tag_91\n        /* \"contracts/erc201.sol\":1029:1057  super._mint(account, amount) */\n      jump\t// in\n        /* \"#utility.yul\":14:562   */\n    tag_26:\n        /* \"#utility.yul\":126:130   */\n      0x00\n        /* \"#utility.yul\":155:157   */\n      0x20\n        /* \"#utility.yul\":184:186   */\n      dup1\n        /* \"#utility.yul\":173:182   */\n      dup4\n        /* \"#utility.yul\":166:187   */\n      mstore\n        /* \"#utility.yul\":216:222   */\n      dup4\n        /* \"#utility.yul\":210:223   */\n      mload\n        /* \"#utility.yul\":259:265   */\n      dup1\n        /* \"#utility.yul\":254:256   */\n      dup3\n        /* \"#utility.yul\":243:252   */\n      dup6\n        /* \"#utility.yul\":239:257   */\n      add\n        /* \"#utility.yul\":232:266   */\n      mstore\n        /* \"#utility.yul\":284:285   */\n      0x00\n        /* \"#utility.yul\":294:434   */\n    tag_243:\n        /* \"#utility.yul\":308:314   */\n      dup2\n        /* \"#utility.yul\":305:306   */\n      dup2\n        /* \"#utility.yul\":302:315   */\n      lt\n        /* \"#utility.yul\":294:434   */\n      iszero\n      tag_245\n      jumpi\n        /* \"#utility.yul\":403:417   */\n      dup6\n      dup2\n      add\n        /* \"#utility.yul\":399:422   */\n      dup4\n      add\n        /* \"#utility.yul\":393:423   */\n      mload\n        /* \"#utility.yul\":369:386   */\n      dup6\n      dup3\n      add\n        /* \"#utility.yul\":388:390   */\n      0x40\n        /* \"#utility.yul\":365:391   */\n      add\n        /* \"#utility.yul\":358:424   */\n      mstore\n        /* \"#utility.yul\":323:333   */\n      dup3\n      add\n        /* \"#utility.yul\":294:434   */\n      jump(tag_243)\n    tag_245:\n        /* \"#utility.yul\":298:301   */\n      pop\n        /* \"#utility.yul\":483:484   */\n      0x00\n        /* \"#utility.yul\":478:480   */\n      0x40\n        /* \"#utility.yul\":469:475   */\n      dup3\n        /* \"#utility.yul\":458:467   */\n      dup7\n        /* \"#utility.yul\":454:476   */\n      add\n        /* \"#utility.yul\":450:481   */\n      add\n        /* \"#utility.yul\":443:485   */\n      mstore\n        /* \"#utility.yul\":553:555   */\n      0x40\n        /* \"#utility.yul\":546:548   */\n      0x1f\n        /* \"#utility.yul\":542:549   */\n      not\n        /* \"#utility.yul\":537:539   */\n      0x1f\n        /* \"#utility.yul\":529:535   */\n      dup4\n        /* \"#utility.yul\":525:540   */\n      add\n        /* \"#utility.yul\":521:550   */\n      and\n        /* \"#utility.yul\":510:519   */\n      dup6\n        /* \"#utility.yul\":506:551   */\n      add\n        /* \"#utility.yul\":502:556   */\n      add\n        /* \"#utility.yul\":494:556   */\n      swap3\n      pop\n      pop\n      pop\n        /* \"#utility.yul\":14:562   */\n      swap3\n      swap2\n      pop\n      pop\n      jump\t// out\n        /* \"#utility.yul\":567:740   */\n    tag_237:\n        /* \"#utility.yul\":635:655   */\n      dup1\n      calldataload\n      sub(shl(0xa0, 0x01), 0x01)\n        /* \"#utility.yul\":684:715   */\n      dup2\n      and\n        /* \"#utility.yul\":674:716   */\n      dup2\n      eq\n        /* \"#utility.yul\":664:734   */\n      tag_247\n      jumpi\n        /* \"#utility.yul\":730:731   */\n      0x00\n        /* \"#utility.yul\":727:728   */\n      dup1\n        /* \"#utility.yul\":720:732   */\n      revert\n        /* \"#utility.yul\":664:734   */\n    tag_247:\n        /* \"#utility.yul\":567:740   */\n      swap2\n      swap1\n      pop\n      jump\t// out\n        /* \"#utility.yul\":745:999   */\n    tag_29:\n        /* \"#utility.yul\":813:819   */\n      0x00\n        /* \"#utility.yul\":821:827   */\n      dup1\n        /* \"#utility.yul\":874:876   */\n      0x40\n        /* \"#utility.yul\":862:871   */\n      dup4\n        /* \"#utility.yul\":853:860   */\n      dup6\n        /* \"#utility.yul\":849:872   */\n      sub\n        /* \"#utility.yul\":845:877   */\n      slt\n        /* \"#utility.yul\":842:894   */\n      iszero\n      tag_249\n      jumpi\n        /* \"#utility.yul\":890:891   */\n      0x00\n        /* \"#utility.yul\":887:888   */\n      dup1\n        /* \"#utility.yul\":880:892   */\n      revert\n        /* \"#utility.yul\":842:894   */\n    tag_249:\n        /* \"#utility.yul\":913:942   */\n      tag_250\n        /* \"#utility.yul\":932:941   */\n      dup4\n        /* \"#utility.yul\":913:942   */\n      tag_237\n      jump\t// in\n    tag_250:\n        /* \"#utility.yul\":903:942   */\n      swap5\n        /* \"#utility.yul\":989:991   */\n      0x20\n        /* \"#utility.yul\":974:992   */\n      swap4\n      swap1\n      swap4\n      add\n        /* \"#utility.yul\":961:993   */\n      calldataload\n      swap4\n      pop\n      pop\n      pop\n        /* \"#utility.yul\":745:999   */\n      jump\t// out\n        /* \"#utility.yul\":1378:1558   */\n    tag_42:\n        /* \"#utility.yul\":1437:1443   */\n      0x00\n        /* \"#utility.yul\":1490:1492   */\n      0x20\n        /* \"#utility.yul\":1478:1487   */\n      dup3\n        /* \"#utility.yul\":1469:1476   */\n      dup5\n        /* \"#utility.yul\":1465:1488   */\n      sub\n        /* \"#utility.yul\":1461:1493   */\n      slt\n        /* \"#utility.yul\":1458:1510   */\n      iszero\n      tag_254\n      jumpi\n        /* \"#utility.yul\":1506:1507   */\n      0x00\n        /* \"#utility.yul\":1503:1504   */\n      dup1\n        /* \"#utility.yul\":1496:1508   */\n      revert\n        /* \"#utility.yul\":1458:1510   */\n    tag_254:\n      pop\n        /* \"#utility.yul\":1529:1552   */\n      calldataload\n      swap2\n        /* \"#utility.yul\":1378:1558   */\n      swap1\n      pop\n      jump\t// out\n        /* \"#utility.yul\":1563:1891   */\n    tag_46:\n        /* \"#utility.yul\":1640:1646   */\n      0x00\n        /* \"#utility.yul\":1648:1654   */\n      dup1\n        /* \"#utility.yul\":1656:1662   */\n      0x00\n        /* \"#utility.yul\":1709:1711   */\n      0x60\n        /* \"#utility.yul\":1697:1706   */\n      dup5\n        /* \"#utility.yul\":1688:1695   */\n      dup7\n        /* \"#utility.yul\":1684:1707   */\n      sub\n        /* \"#utility.yul\":1680:1712   */\n      slt\n        /* \"#utility.yul\":1677:1729   */\n      iszero\n      tag_256\n      jumpi\n        /* \"#utility.yul\":1725:1726   */\n      0x00\n        /* \"#utility.yul\":1722:1723   */\n      dup1\n        /* \"#utility.yul\":1715:1727   */\n      revert\n        /* \"#utility.yul\":1677:1729   */\n    tag_256:\n        /* \"#utility.yul\":1748:1777   */\n      tag_257\n        /* \"#utility.yul\":1767:1776   */\n      dup5\n        /* \"#utility.yul\":1748:1777   */\n      tag_237\n      jump\t// in\n    tag_257:\n        /* \"#utility.yul\":1738:1777   */\n      swap3\n      pop\n        /* \"#utility.yul\":1796:1834   */\n      tag_258\n        /* \"#utility.yul\":1830:1832   */\n      0x20\n        /* \"#utility.yul\":1819:1828   */\n      dup6\n        /* \"#utility.yul\":1815:1833   */\n      add\n        /* \"#utility.yul\":1796:1834   */\n      tag_237\n      jump\t// in\n    tag_258:\n        /* \"#utility.yul\":1786:1834   */\n      swap2\n      pop\n        /* \"#utility.yul\":1881:1883   */\n      0x40\n        /* \"#utility.yul\":1870:1879   */\n      dup5\n        /* \"#utility.yul\":1866:1884   */\n      add\n        /* \"#utility.yul\":1853:1885   */\n      calldataload\n        /* \"#utility.yul\":1843:1885   */\n      swap1\n      pop\n        /* \"#utility.yul\":1563:1891   */\n      swap3\n      pop\n      swap3\n      pop\n      swap3\n      jump\t// out\n        /* \"#utility.yul\":2085:2271   */\n    tag_65:\n        /* \"#utility.yul\":2144:2150   */\n      0x00\n        /* \"#utility.yul\":2197:2199   */\n      0x20\n        /* \"#utility.yul\":2185:2194   */\n      dup3\n        /* \"#utility.yul\":2176:2183   */\n      dup5\n        /* \"#utility.yul\":2172:2195   */\n      sub\n        /* \"#utility.yul\":2168:2200   */\n      slt\n        /* \"#utility.yul\":2165:2217   */\n      iszero\n      tag_261\n      jumpi\n        /* \"#utility.yul\":2213:2214   */\n      0x00\n        /* \"#utility.yul\":2210:2211   */\n      dup1\n        /* \"#utility.yul\":2203:2215   */\n      revert\n        /* \"#utility.yul\":2165:2217   */\n    tag_261:\n        /* \"#utility.yul\":2236:2265   */\n      tag_262\n        /* \"#utility.yul\":2255:2264   */\n      dup3\n        /* \"#utility.yul\":2236:2265   */\n      tag_237\n      jump\t// in\n    tag_262:\n        /* \"#utility.yul\":2226:2265   */\n      swap4\n        /* \"#utility.yul\":2085:2271   */\n      swap3\n      pop\n      pop\n      pop\n      jump\t// out\n        /* \"#utility.yul\":2500:2760   */\n    tag_88:\n        /* \"#utility.yul\":2568:2574   */\n      0x00\n        /* \"#utility.yul\":2576:2582   */\n      dup1\n        /* \"#utility.yul\":2629:2631   */\n      0x40\n        /* \"#utility.yul\":2617:2626   */\n      dup4\n        /* \"#utility.yul\":2608:2615   */\n      dup6\n        /* \"#utility.yul\":2604:2627   */\n      sub\n        /* \"#utility.yul\":2600:2632   */\n      slt\n        /* \"#utility.yul\":2597:2649   */\n      iszero\n      tag_265\n      jumpi\n        /* \"#utility.yul\":2645:2646   */\n      0x00\n        /* \"#utility.yul\":2642:2643   */\n      dup1\n        /* \"#utility.yul\":2635:2647   */\n      revert\n        /* \"#utility.yul\":2597:2649   */\n    tag_265:\n        /* \"#utility.yul\":2668:2697   */\n      tag_266\n        /* \"#utility.yul\":2687:2696   */\n      dup4\n        /* \"#utility.yul\":2668:2697   */\n      tag_237\n      jump\t// in\n    tag_266:\n        /* \"#utility.yul\":2658:2697   */\n      swap2\n      pop\n        /* \"#utility.yul\":2716:2754   */\n      tag_267\n        /* \"#utility.yul\":2750:2752   */\n      0x20\n        /* \"#utility.yul\":2739:2748   */\n      dup5\n        /* \"#utility.yul\":2735:2753   */\n      add\n        /* \"#utility.yul\":2716:2754   */\n      tag_237\n      jump\t// in\n    tag_267:\n        /* \"#utility.yul\":2706:2754   */\n      swap1\n      pop\n        /* \"#utility.yul\":2500:2760   */\n      swap3\n      pop\n      swap3\n      swap1\n      pop\n      jump\t// out\n        /* \"#utility.yul\":2765:3145   */\n    tag_96:\n        /* \"#utility.yul\":2844:2845   */\n      0x01\n        /* \"#utility.yul\":2840:2852   */\n      dup2\n      dup2\n      shr\n      swap1\n        /* \"#utility.yul\":2887:2899   */\n      dup3\n      and\n      dup1\n        /* \"#utility.yul\":2908:2969   */\n      tag_269\n      jumpi\n        /* \"#utility.yul\":2962:2966   */\n      0x7f\n        /* \"#utility.yul\":2954:2960   */\n      dup3\n        /* \"#utility.yul\":2950:2967   */\n      and\n        /* \"#utility.yul\":2940:2967   */\n      swap2\n      pop\n        /* \"#utility.yul\":2908:2969   */\n    tag_269:\n        /* \"#utility.yul\":3015:3017   */\n      0x20\n        /* \"#utility.yul\":3007:3013   */\n      dup3\n        /* \"#utility.yul\":3004:3018   */\n      lt\n        /* \"#utility.yul\":2984:3002   */\n      dup2\n        /* \"#utility.yul\":2981:3019   */\n      sub\n        /* \"#utility.yul\":2978:3139   */\n      tag_270\n      jumpi\n        /* \"#utility.yul\":3061:3071   */\n      0x4e487b71\n        /* \"#utility.yul\":3056:3059   */\n      0xe0\n        /* \"#utility.yul\":3052:3072   */\n      shl\n        /* \"#utility.yul\":3049:3050   */\n      0x00\n        /* \"#utility.yul\":3042:3073   */\n      mstore\n        /* \"#utility.yul\":3096:3100   */\n      0x22\n        /* \"#utility.yul\":3093:3094   */\n      0x04\n        /* \"#utility.yul\":3086:3101   */\n      mstore\n        /* \"#utility.yul\":3124:3128   */\n      0x24\n        /* \"#utility.yul\":3121:3122   */\n      0x00\n        /* \"#utility.yul\":3114:3129   */\n      revert\n        /* \"#utility.yul\":2978:3139   */\n    tag_270:\n      pop\n        /* \"#utility.yul\":2765:3145   */\n      swap2\n      swap1\n      pop\n      jump\t// out\n        /* \"#utility.yul\":3556:3683   */\n    tag_238:\n        /* \"#utility.yul\":3617:3627   */\n      0x4e487b71\n        /* \"#utility.yul\":3612:3615   */\n      0xe0\n        /* \"#utility.yul\":3608:3628   */\n      shl\n        /* \"#utility.yul\":3605:3606   */\n      0x00\n        /* \"#utility.yul\":3598:3629   */\n      mstore\n        /* \"#utility.yul\":3648:3652   */\n      0x11\n        /* \"#utility.yul\":3645:3646   */\n      0x04\n        /* \"#utility.yul\":3638:3653   */\n      mstore\n        /* \"#utility.yul\":3672:3676   */\n      0x24\n        /* \"#utility.yul\":3669:3670   */\n      0x00\n        /* \"#utility.yul\":3662:3677   */\n      revert\n        /* \"#utility.yul\":3688:4110   */\n    tag_239:\n        /* \"#utility.yul\":3777:3778   */\n      0x01\n        /* \"#utility.yul\":3820:3825   */\n      dup2\n        /* \"#utility.yul\":3777:3778   */\n      dup2\n        /* \"#utility.yul\":3834:4104   */\n    tag_274:\n        /* \"#utility.yul\":3855:3862   */\n      dup1\n        /* \"#utility.yul\":3845:3853   */\n      dup6\n        /* \"#utility.yul\":3842:3863   */\n      gt\n        /* \"#utility.yul\":3834:4104   */\n      iszero\n      tag_276\n      jumpi\n        /* \"#utility.yul\":3914:3918   */\n      dup2\n        /* \"#utility.yul\":3910:3911   */\n      0x00\n        /* \"#utility.yul\":3906:3912   */\n      not\n        /* \"#utility.yul\":3902:3919   */\n      div\n        /* \"#utility.yul\":3896:3900   */\n      dup3\n        /* \"#utility.yul\":3893:3920   */\n      gt\n        /* \"#utility.yul\":3890:3943   */\n      iszero\n      tag_278\n      jumpi\n        /* \"#utility.yul\":3923:3941   */\n      tag_278\n      tag_238\n      jump\t// in\n    tag_278:\n        /* \"#utility.yul\":3973:3980   */\n      dup1\n        /* \"#utility.yul\":3963:3971   */\n      dup6\n        /* \"#utility.yul\":3959:3981   */\n      and\n        /* \"#utility.yul\":3956:4011   */\n      iszero\n      tag_279\n      jumpi\n        /* \"#utility.yul\":3993:4009   */\n      swap2\n      dup2\n      mul\n      swap2\n        /* \"#utility.yul\":3956:4011   */\n    tag_279:\n        /* \"#utility.yul\":4072:4094   */\n      swap4\n      dup5\n      shr\n      swap4\n        /* \"#utility.yul\":4032:4047   */\n      swap1\n      dup1\n      mul\n      swap1\n        /* \"#utility.yul\":3834:4104   */\n      jump(tag_274)\n    tag_276:\n        /* \"#utility.yul\":3838:3841   */\n      pop\n        /* \"#utility.yul\":3688:4110   */\n      swap3\n      pop\n      swap3\n      swap1\n      pop\n      jump\t// out\n        /* \"#utility.yul\":4115:4921   */\n    tag_240:\n        /* \"#utility.yul\":4164:4169   */\n      0x00\n        /* \"#utility.yul\":4194:4202   */\n      dup3\n        /* \"#utility.yul\":4184:4264   */\n      tag_281\n      jumpi\n      pop\n        /* \"#utility.yul\":4235:4236   */\n      0x01\n        /* \"#utility.yul\":4249:4254   */\n      jump(tag_101)\n        /* \"#utility.yul\":4184:4264   */\n    tag_281:\n        /* \"#utility.yul\":4283:4287   */\n      dup2\n        /* \"#utility.yul\":4273:4349   */\n      tag_282\n      jumpi\n      pop\n        /* \"#utility.yul\":4320:4321   */\n      0x00\n        /* \"#utility.yul\":4334:4339   */\n      jump(tag_101)\n        /* \"#utility.yul\":4273:4349   */\n    tag_282:\n        /* \"#utility.yul\":4365:4369   */\n      dup2\n        /* \"#utility.yul\":4383:4384   */\n      0x01\n        /* \"#utility.yul\":4378:4437   */\n      dup2\n      eq\n      tag_284\n      jumpi\n        /* \"#utility.yul\":4451:4452   */\n      0x02\n        /* \"#utility.yul\":4446:4576   */\n      dup2\n      eq\n      tag_285\n      jumpi\n        /* \"#utility.yul\":4358:4576   */\n      jump(tag_283)\n        /* \"#utility.yul\":4378:4437   */\n    tag_284:\n        /* \"#utility.yul\":4408:4409   */\n      0x01\n        /* \"#utility.yul\":4399:4409   */\n      swap2\n      pop\n        /* \"#utility.yul\":4422:4427   */\n      pop\n      jump(tag_101)\n        /* \"#utility.yul\":4446:4576   */\n    tag_285:\n        /* \"#utility.yul\":4483:4486   */\n      0xff\n        /* \"#utility.yul\":4473:4481   */\n      dup5\n        /* \"#utility.yul\":4470:4487   */\n      gt\n        /* \"#utility.yul\":4467:4510   */\n      iszero\n      tag_287\n      jumpi\n        /* \"#utility.yul\":4490:4508   */\n      tag_287\n      tag_238\n      jump\t// in\n    tag_287:\n      pop\n      pop\n        /* \"#utility.yul\":4546:4547   */\n      0x01\n        /* \"#utility.yul\":4532:4548   */\n      dup3\n      shl\n        /* \"#utility.yul\":4561:4566   */\n      jump(tag_101)\n        /* \"#utility.yul\":4358:4576   */\n    tag_283:\n      pop\n        /* \"#utility.yul\":4660:4662   */\n      0x20\n        /* \"#utility.yul\":4650:4658   */\n      dup4\n        /* \"#utility.yul\":4647:4663   */\n      lt\n        /* \"#utility.yul\":4641:4644   */\n      0x0133\n        /* \"#utility.yul\":4635:4639   */\n      dup4\n        /* \"#utility.yul\":4632:4645   */\n      lt\n        /* \"#utility.yul\":4628:4664   */\n      and\n        /* \"#utility.yul\":4622:4624   */\n      0x4e\n        /* \"#utility.yul\":4612:4620   */\n      dup5\n        /* \"#utility.yul\":4609:4625   */\n      lt\n        /* \"#utility.yul\":4604:4606   */\n      0x0b\n        /* \"#utility.yul\":4598:4602   */\n      dup5\n        /* \"#utility.yul\":4595:4607   */\n      lt\n        /* \"#utility.yul\":4591:4626   */\n      and\n        /* \"#utility.yul\":4588:4665   */\n      or\n        /* \"#utility.yul\":4585:4744   */\n      iszero\n      tag_288\n      jumpi\n      pop\n        /* \"#utility.yul\":4697:4716   */\n      dup2\n      dup2\n      exp\n        /* \"#utility.yul\":4729:4734   */\n      jump(tag_101)\n        /* \"#utility.yul\":4585:4744   */\n    tag_288:\n        /* \"#utility.yul\":4776:4810   */\n      tag_289\n        /* \"#utility.yul\":4801:4809   */\n      dup4\n        /* \"#utility.yul\":4795:4799   */\n      dup4\n        /* \"#utility.yul\":4776:4810   */\n      tag_239\n      jump\t// in\n    tag_289:\n        /* \"#utility.yul\":4846:4852   */\n      dup1\n        /* \"#utility.yul\":4842:4843   */\n      0x00\n        /* \"#utility.yul\":4838:4844   */\n      not\n        /* \"#utility.yul\":4834:4853   */\n      div\n        /* \"#utility.yul\":4825:4832   */\n      dup3\n        /* \"#utility.yul\":4822:4854   */\n      gt\n        /* \"#utility.yul\":4819:4877   */\n      iszero\n      tag_291\n      jumpi\n        /* \"#utility.yul\":4857:4875   */\n      tag_291\n      tag_238\n      jump\t// in\n    tag_291:\n        /* \"#utility.yul\":4895:4915   */\n      mul\n      swap4\n        /* \"#utility.yul\":4115:4921   */\n      swap3\n      pop\n      pop\n      pop\n      jump\t// out\n        /* \"#utility.yul\":4926:5066   */\n    tag_114:\n        /* \"#utility.yul\":4984:4989   */\n      0x00\n        /* \"#utility.yul\":5013:5060   */\n      tag_262\n        /* \"#utility.yul\":5054:5058   */\n      0xff\n        /* \"#utility.yul\":5044:5052   */\n      dup5\n        /* \"#utility.yul\":5040:5059   */\n      and\n        /* \"#utility.yul\":5034:5038   */\n      dup4\n        /* \"#utility.yul\":5013:5060   */\n      tag_240\n      jump\t// in\n        /* \"#utility.yul\":5071:5239   */\n    tag_116:\n        /* \"#utility.yul\":5144:5153   */\n      dup1\n      dup3\n      mul\n        /* \"#utility.yul\":5175:5184   */\n      dup2\n      iszero\n        /* \"#utility.yul\":5192:5207   */\n      dup3\n      dup3\n      div\n        /* \"#utility.yul\":5186:5208   */\n      dup5\n      eq\n        /* \"#utility.yul\":5172:5209   */\n      or\n        /* \"#utility.yul\":5162:5233   */\n      tag_101\n      jumpi\n        /* \"#utility.yul\":5213:5231   */\n      tag_101\n      tag_238\n      jump\t// in\n        /* \"#utility.yul\":5244:5369   */\n    tag_130:\n        /* \"#utility.yul\":5309:5318   */\n      dup1\n      dup3\n      add\n        /* \"#utility.yul\":5330:5340   */\n      dup1\n      dup3\n      gt\n        /* \"#utility.yul\":5327:5363   */\n      iszero\n      tag_101\n      jumpi\n        /* \"#utility.yul\":5343:5361   */\n      tag_101\n      tag_238\n      jump\t// in\n\n    auxdata: 0xa2646970667358221220b5da1a0032d328a2e7d1ff568161da880bf72cf2eebe9b5a1065b5ba1a36490364736f6c63430008110033\n}\n",
				"bytecode": {
					"linkReferences": {},
					"object": "60806040523480156200001157600080fd5b506040516200155c3803806200155c833981016040819052620000349162000406565b620000426012600a62000540565b6200004e908362000558565b604051806040016040528060048152602001634e616d6560e01b8152506040518060400160405280600681526020016514de5b589bdb60d21b81525081600390816200009b919062000616565b506004620000aa828262000616565b50505060008111620001035760405162461bcd60e51b815260206004820152601560248201527f45524332304361707065643a206361702069732030000000000000000000000060448201526064015b60405180910390fd5b600555600680546001600160a01b031916339081179091556200014a9062000129601290565b6200013690600a62000540565b62000144906103e862000558565b62000170565b620001586012600a62000540565b62000164908262000558565b60075550620006f89050565b60055481620001896200020060201b620003291760201c565b620001959190620006e2565b1115620001e55760405162461bcd60e51b815260206004820152601960248201527f45524332304361707065643a20636170206578636565646564000000000000006044820152606401620000fa565b620001fc82826200020660201b620004e71760201c565b5050565b60025490565b600554816200021f6200020060201b620003291760201c565b6200022b9190620006e2565b11156200027b5760405162461bcd60e51b815260206004820152601960248201527f45524332304361707065643a20636170206578636565646564000000000000006044820152606401620000fa565b620001fc82826200029260201b6200054e1760201c565b6001600160a01b038216620002ea5760405162461bcd60e51b815260206004820152601f60248201527f45524332303a206d696e7420746f20746865207a65726f2061646472657373006044820152606401620000fa565b620002f86000838362000363565b80600260008282546200030c9190620006e2565b90915550506001600160a01b038216600081815260208181526040808320805486019055518481527fddf252ad1be2c89b69c2b068fc378daa952ba7f163c4a11628f55a4df523b3ef910160405180910390a35050565b6001600160a01b038316158015906200038557506001600160a01b0382164114155b80156200039157504115155b8015620003c35750600554600754620003b46200020060201b620003291760201c565b620003c09190620006e2565b11155b15620003d357620003d3620003f0565b620003eb838383620003eb60201b620006191760201c565b505050565b62000404416007546200017060201b60201c565b565b600080604083850312156200041a57600080fd5b505080516020909101519092909150565b634e487b7160e01b600052601160045260246000fd5b600181815b80851115620004825781600019048211156200046657620004666200042b565b808516156200047457918102915b93841c939080029062000446565b509250929050565b6000826200049b575060016200053a565b81620004aa575060006200053a565b8160018114620004c35760028114620004ce57620004ee565b60019150506200053a565b60ff841115620004e257620004e26200042b565b50506001821b6200053a565b5060208310610133831016604e8410600b841016171562000513575081810a6200053a565b6200051f838362000441565b80600019048211156200053657620005366200042b565b0290505b92915050565b60006200055160ff8416836200048a565b9392505050565b80820281158282048414176200053a576200053a6200042b565b634e487b7160e01b600052604160045260246000fd5b600181811c908216806200059d57607f821691505b602082108103620005be57634e487b7160e01b600052602260045260246000fd5b50919050565b601f821115620003eb57600081815260208120601f850160051c81016020861015620005ed5750805b601f850160051c820191505b818110156200060e57828155600101620005f9565b505050505050565b81516001600160401b0381111562000632576200063262000572565b6200064a8162000643845462000588565b84620005c4565b602080601f831160018114620006825760008415620006695750858301515b600019600386901b1c1916600185901b1785556200060e565b600085815260208120601f198616915b82811015620006b35788860151825594840194600190910190840162000692565b5085821015620006d25787850151600019600388901b60f8161c191681555b5050505050600190811b01905550565b808201808211156200053a576200053a6200042b565b610e5480620007086000396000f3fe608060405234801561001057600080fd5b506004361061010b5760003560e01c806339509351116100a25780638da5cb5b116100715780638da5cb5b1461021157806395d89b411461023c578063a457c2d714610244578063a9059cbb14610257578063dd62ed3e1461026a57600080fd5b806339509351146101af57806342966c68146101c257806370a08231146101d557806379cc6790146101fe57600080fd5b80631a18e707116100de5780631a18e7071461017057806323b872dd14610185578063313ce56714610198578063355274ea146101a757600080fd5b806306fdde0314610110578063095ea7b31461012e5780630ac168a11461015157806318160ddd14610168575b600080fd5b61011861027d565b6040516101259190610b73565b60405180910390f35b61014161013c366004610bdd565b61030f565b6040519015158152602001610125565b61015a60075481565b604051908152602001610125565b60025461015a565b61018361017e366004610c07565b61032f565b005b610141610193366004610c20565b6103b8565b60405160128152602001610125565b60055461015a565b6101416101bd366004610bdd565b6103dc565b6101836101d0366004610c07565b6103fe565b61015a6101e3366004610c5c565b6001600160a01b031660009081526020819052604090205490565b61018361020c366004610bdd565b61040b565b600654610224906001600160a01b031681565b6040516001600160a01b039091168152602001610125565b610118610424565b610141610252366004610bdd565b610433565b610141610265366004610bdd565b6104ae565b61015a610278366004610c7e565b6104bc565b60606003805461028c90610cb1565b80601f01602080910402602001604051908101604052809291908181526020018280546102b890610cb1565b80156103055780601f106102da57610100808354040283529160200191610305565b820191906000526020600020905b8154815290600101906020018083116102e857829003601f168201915b5050505050905090565b60003361031d81858561061e565b60019150505b92915050565b60025490565b6006546001600160a01b0316331461039c5760405162461bcd60e51b815260206004820152602560248201527f4f6e6c7920746865206f776e65722063616e2063616c6c20746869732066756e60448201526431ba34b7b760d91b60648201526084015b60405180910390fd5b6103a86012600a610de5565b6103b29082610df4565b60075550565b6000336103c6858285610742565b6103d18585856107bc565b506001949350505050565b60003361031d8185856103ef83836104bc565b6103f99190610e0b565b61061e565b610408338261096b565b50565b610416823383610742565b610420828261096b565b5050565b60606004805461028c90610cb1565b6000338161044182866104bc565b9050838110156104a15760405162461bcd60e51b815260206004820152602560248201527f45524332303a2064656372656173656420616c6c6f77616e63652062656c6f77604482015264207a65726f60d81b6064820152608401610393565b6103d1828686840361061e565b60003361031d8185856107bc565b6001600160a01b03918216600090815260016020908152604080832093909416825291909152205490565b600554816104f460025490565b6104fe9190610e0b565b11156105485760405162461bcd60e51b8152602060048201526019602482015278115490cc8c10d85c1c19590e8818d85c08195e18d959591959603a1b6044820152606401610393565b61042082825b6001600160a01b0382166105a45760405162461bcd60e51b815260206004820152601f60248201527f45524332303a206d696e7420746f20746865207a65726f2061646472657373006044820152606401610393565b6105b060008383610aa9565b80600260008282546105c29190610e0b565b90915550506001600160a01b038216600081815260208181526040808320805486019055518481527fddf252ad1be2c89b69c2b068fc378daa952ba7f163c4a11628f55a4df523b3ef910160405180910390a35050565b505050565b6001600160a01b0383166106805760405162461bcd60e51b8152602060048201526024808201527f45524332303a20617070726f76652066726f6d20746865207a65726f206164646044820152637265737360e01b6064820152608401610393565b6001600160a01b0382166106e15760405162461bcd60e51b815260206004820152602260248201527f45524332303a20617070726f766520746f20746865207a65726f206164647265604482015261737360f01b6064820152608401610393565b6001600160a01b0383811660008181526001602090815260408083209487168084529482529182902085905590518481527f8c5be1e5ebec7d5bd14f71427d1e84f3dd0314c0f7b2291e5b200ac8c7c3b925910160405180910390a3505050565b600061074e84846104bc565b905060001981146107b657818110156107a95760405162461bcd60e51b815260206004820152601d60248201527f45524332303a20696e73756666696369656e7420616c6c6f77616e63650000006044820152606401610393565b6107b6848484840361061e565b50505050565b6001600160a01b0383166108205760405162461bcd60e51b815260206004820152602560248201527f45524332303a207472616e736665722066726f6d20746865207a65726f206164604482015264647265737360d81b6064820152608401610393565b6001600160a01b0382166108825760405162461bcd60e51b815260206004820152602360248201527f45524332303a207472616e7366657220746f20746865207a65726f206164647260448201526265737360e81b6064820152608401610393565b61088d838383610aa9565b6001600160a01b038316600090815260208190526040902054818110156109055760405162461bcd60e51b815260206004820152602660248201527f45524332303a207472616e7366657220616d6f756e7420657863656564732062604482015265616c616e636560d01b6064820152608401610393565b6001600160a01b03848116600081815260208181526040808320878703905593871680835291849020805487019055925185815290927fddf252ad1be2c89b69c2b068fc378daa952ba7f163c4a11628f55a4df523b3ef910160405180910390a36107b6565b6001600160a01b0382166109cb5760405162461bcd60e51b815260206004820152602160248201527f45524332303a206275726e2066726f6d20746865207a65726f206164647265736044820152607360f81b6064820152608401610393565b6109d782600083610aa9565b6001600160a01b03821660009081526020819052604090205481811015610a4b5760405162461bcd60e51b815260206004820152602260248201527f45524332303a206275726e20616d6f756e7420657863656564732062616c616e604482015261636560f01b6064820152608401610393565b6001600160a01b0383166000818152602081815260408083208686039055600280548790039055518581529192917fddf252ad1be2c89b69c2b068fc378daa952ba7f163c4a11628f55a4df523b3ef910160405180910390a3505050565b6001600160a01b03831615801590610aca57506001600160a01b0382164114155b8015610ad557504115155b8015610af25750600554600754600254610aef9190610e0b565b11155b1561061957610619610b0641600754610b08565b565b60055481610b1560025490565b610b1f9190610e0b565b1115610b695760405162461bcd60e51b8152602060048201526019602482015278115490cc8c10d85c1c19590e8818d85c08195e18d959591959603a1b6044820152606401610393565b61042082826104e7565b600060208083528351808285015260005b81811015610ba057858101830151858201604001528201610b84565b506000604082860101526040601f19601f8301168501019250505092915050565b80356001600160a01b0381168114610bd857600080fd5b919050565b60008060408385031215610bf057600080fd5b610bf983610bc1565b946020939093013593505050565b600060208284031215610c1957600080fd5b5035919050565b600080600060608486031215610c3557600080fd5b610c3e84610bc1565b9250610c4c60208501610bc1565b9150604084013590509250925092565b600060208284031215610c6e57600080fd5b610c7782610bc1565b9392505050565b60008060408385031215610c9157600080fd5b610c9a83610bc1565b9150610ca860208401610bc1565b90509250929050565b600181811c90821680610cc557607f821691505b602082108103610ce557634e487b7160e01b600052602260045260246000fd5b50919050565b634e487b7160e01b600052601160045260246000fd5b600181815b80851115610d3c578160001904821115610d2257610d22610ceb565b80851615610d2f57918102915b93841c9390800290610d06565b509250929050565b600082610d5357506001610323565b81610d6057506000610323565b8160018114610d765760028114610d8057610d9c565b6001915050610323565b60ff841115610d9157610d91610ceb565b50506001821b610323565b5060208310610133831016604e8410600b8410161715610dbf575081810a610323565b610dc98383610d01565b8060001904821115610ddd57610ddd610ceb565b029392505050565b6000610c7760ff841683610d44565b808202811582820484141761032357610323610ceb565b8082018082111561032357610323610ceb56fea2646970667358221220b5da1a0032d328a2e7d1ff568161da880bf72cf2eebe9b5a1065b5ba1a36490364736f6c63430008110033",
					"opcodes": "PUSH1 0x80 PUSH1 0x40 MSTORE CALLVALUE DUP1 ISZERO PUSH3 0x11 JUMPI PUSH1 0x0 DUP1 REVERT JUMPDEST POP PUSH1 0x40 MLOAD PUSH3 0x155C CODESIZE SUB DUP1 PUSH3 0x155C DUP4 CODECOPY DUP2 ADD PUSH1 0x40 DUP2 SWAP1 MSTORE PUSH3 0x34 SWAP2 PUSH3 0x406 JUMP JUMPDEST PUSH3 0x42 PUSH1 0x12 PUSH1 0xA PUSH3 0x540 JUMP JUMPDEST PUSH3 0x4E SWAP1 DUP4 PUSH3 0x558 JUMP JUMPDEST PUSH1 0x40 MLOAD DUP1 PUSH1 0x40 ADD PUSH1 0x40 MSTORE DUP1 PUSH1 0x4 DUP2 MSTORE PUSH1 0x20 ADD PUSH4 0x4E616D65 PUSH1 0xE0 SHL DUP2 MSTORE POP PUSH1 0x40 MLOAD DUP1 PUSH1 0x40 ADD PUSH1 0x40 MSTORE DUP1 PUSH1 0x6 DUP2 MSTORE PUSH1 0x20 ADD PUSH6 0x14DE5B589BDB PUSH1 0xD2 SHL DUP2 MSTORE POP DUP2 PUSH1 0x3 SWAP1 DUP2 PUSH3 0x9B SWAP2 SWAP1 PUSH3 0x616 JUMP JUMPDEST POP PUSH1 0x4 PUSH3 0xAA DUP3 DUP3 PUSH3 0x616 JUMP JUMPDEST POP POP POP PUSH1 0x0 DUP2 GT PUSH3 0x103 JUMPI PUSH1 0x40 MLOAD PUSH3 0x461BCD PUSH1 0xE5 SHL DUP2 MSTORE PUSH1 0x20 PUSH1 0x4 DUP3 ADD MSTORE PUSH1 0x15 PUSH1 0x24 DUP3 ADD MSTORE PUSH32 0x45524332304361707065643A2063617020697320300000000000000000000000 PUSH1 0x44 DUP3 ADD MSTORE PUSH1 0x64 ADD JUMPDEST PUSH1 0x40 MLOAD DUP1 SWAP2 SUB SWAP1 REVERT JUMPDEST PUSH1 0x5 SSTORE PUSH1 0x6 DUP1 SLOAD PUSH1 0x1 PUSH1 0x1 PUSH1 0xA0 SHL SUB NOT AND CALLER SWAP1 DUP2 OR SWAP1 SWAP2 SSTORE PUSH3 0x14A SWAP1 PUSH3 0x129 PUSH1 0x12 SWAP1 JUMP JUMPDEST PUSH3 0x136 SWAP1 PUSH1 0xA PUSH3 0x540 JUMP JUMPDEST PUSH3 0x144 SWAP1 PUSH2 0x3E8 PUSH3 0x558 JUMP JUMPDEST PUSH3 0x170 JUMP JUMPDEST PUSH3 0x158 PUSH1 0x12 PUSH1 0xA PUSH3 0x540 JUMP JUMPDEST PUSH3 0x164 SWAP1 DUP3 PUSH3 0x558 JUMP JUMPDEST PUSH1 0x7 SSTORE POP PUSH3 0x6F8 SWAP1 POP JUMP JUMPDEST PUSH1 0x5 SLOAD DUP2 PUSH3 0x189 PUSH3 0x200 PUSH1 0x20 SHL PUSH3 0x329 OR PUSH1 0x20 SHR JUMP JUMPDEST PUSH3 0x195 SWAP2 SWAP1 PUSH3 0x6E2 JUMP JUMPDEST GT ISZERO PUSH3 0x1E5 JUMPI PUSH1 0x40 MLOAD PUSH3 0x461BCD PUSH1 0xE5 SHL DUP2 MSTORE PUSH1 0x20 PUSH1 0x4 DUP3 ADD MSTORE PUSH1 0x19 PUSH1 0x24 DUP3 ADD MSTORE PUSH32 0x45524332304361707065643A2063617020657863656564656400000000000000 PUSH1 0x44 DUP3 ADD MSTORE PUSH1 0x64 ADD PUSH3 0xFA JUMP JUMPDEST PUSH3 0x1FC DUP3 DUP3 PUSH3 0x206 PUSH1 0x20 SHL PUSH3 0x4E7 OR PUSH1 0x20 SHR JUMP JUMPDEST POP POP JUMP JUMPDEST PUSH1 0x2 SLOAD SWAP1 JUMP JUMPDEST PUSH1 0x5 SLOAD DUP2 PUSH3 0x21F PUSH3 0x200 PUSH1 0x20 SHL PUSH3 0x329 OR PUSH1 0x20 SHR JUMP JUMPDEST PUSH3 0x22B SWAP2 SWAP1 PUSH3 0x6E2 JUMP JUMPDEST GT ISZERO PUSH3 0x27B JUMPI PUSH1 0x40 MLOAD PUSH3 0x461BCD PUSH1 0xE5 SHL DUP2 MSTORE PUSH1 0x20 PUSH1 0x4 DUP3 ADD MSTORE PUSH1 0x19 PUSH1 0x24 DUP3 ADD MSTORE PUSH32 0x45524332304361707065643A2063617020657863656564656400000000000000 PUSH1 0x44 DUP3 ADD MSTORE PUSH1 0x64 ADD PUSH3 0xFA JUMP JUMPDEST PUSH3 0x1FC DUP3 DUP3 PUSH3 0x292 PUSH1 0x20 SHL PUSH3 0x54E OR PUSH1 0x20 SHR JUMP JUMPDEST PUSH1 0x1 PUSH1 0x1 PUSH1 0xA0 SHL SUB DUP3 AND PUSH3 0x2EA JUMPI PUSH1 0x40 MLOAD PUSH3 0x461BCD PUSH1 0xE5 SHL DUP2 MSTORE PUSH1 0x20 PUSH1 0x4 DUP3 ADD MSTORE PUSH1 0x1F PUSH1 0x24 DUP3 ADD MSTORE PUSH32 0x45524332303A206D696E7420746F20746865207A65726F206164647265737300 PUSH1 0x44 DUP3 ADD MSTORE PUSH1 0x64 ADD PUSH3 0xFA JUMP JUMPDEST PUSH3 0x2F8 PUSH1 0x0 DUP4 DUP4 PUSH3 0x363 JUMP JUMPDEST DUP1 PUSH1 0x2 PUSH1 0x0 DUP3 DUP3 SLOAD PUSH3 0x30C SWAP2 SWAP1 PUSH3 0x6E2 JUMP JUMPDEST SWAP1 SWAP2 SSTORE POP POP PUSH1 0x1 PUSH1 0x1 PUSH1 0xA0 SHL SUB DUP3 AND PUSH1 0x0 DUP2 DUP2 MSTORE PUSH1 0x20 DUP2 DUP2 MSTORE PUSH1 0x40 DUP1 DUP4 KECCAK256 DUP1 SLOAD DUP7 ADD SWAP1 SSTORE MLOAD DUP5 DUP2 MSTORE PUSH32 0xDDF252AD1BE2C89B69C2B068FC378DAA952BA7F163C4A11628F55A4DF523B3EF SWAP2 ADD PUSH1 0x40 MLOAD DUP1 SWAP2 SUB SWAP1 LOG3 POP POP JUMP JUMPDEST PUSH1 0x1 PUSH1 0x1 PUSH1 0xA0 SHL SUB DUP4 AND ISZERO DUP1 ISZERO SWAP1 PUSH3 0x385 JUMPI POP PUSH1 0x1 PUSH1 0x1 PUSH1 0xA0 SHL SUB DUP3 AND COINBASE EQ ISZERO JUMPDEST DUP1 ISZERO PUSH3 0x391 JUMPI POP COINBASE ISZERO ISZERO JUMPDEST DUP1 ISZERO PUSH3 0x3C3 JUMPI POP PUSH1 0x5 SLOAD PUSH1 0x7 SLOAD PUSH3 0x3B4 PUSH3 0x200 PUSH1 0x20 SHL PUSH3 0x329 OR PUSH1 0x20 SHR JUMP JUMPDEST PUSH3 0x3C0 SWAP2 SWAP1 PUSH3 0x6E2 JUMP JUMPDEST GT ISZERO JUMPDEST ISZERO PUSH3 0x3D3 JUMPI PUSH3 0x3D3 PUSH3 0x3F0 JUMP JUMPDEST PUSH3 0x3EB DUP4 DUP4 DUP4 PUSH3 0x3EB PUSH1 0x20 SHL PUSH3 0x619 OR PUSH1 0x20 SHR JUMP JUMPDEST POP POP POP JUMP JUMPDEST PUSH3 0x404 COINBASE PUSH1 0x7 SLOAD PUSH3 0x170 PUSH1 0x20 SHL PUSH1 0x20 SHR JUMP JUMPDEST JUMP JUMPDEST PUSH1 0x0 DUP1 PUSH1 0x40 DUP4 DUP6 SUB SLT ISZERO PUSH3 0x41A JUMPI PUSH1 0x0 DUP1 REVERT JUMPDEST POP POP DUP1 MLOAD PUSH1 0x20 SWAP1 SWAP2 ADD MLOAD SWAP1 SWAP3 SWAP1 SWAP2 POP JUMP JUMPDEST PUSH4 0x4E487B71 PUSH1 0xE0 SHL PUSH1 0x0 MSTORE PUSH1 0x11 PUSH1 0x4 MSTORE PUSH1 0x24 PUSH1 0x0 REVERT JUMPDEST PUSH1 0x1 DUP2 DUP2 JUMPDEST DUP1 DUP6 GT ISZERO PUSH3 0x482 JUMPI DUP2 PUSH1 0x0 NOT DIV DUP3 GT ISZERO PUSH3 0x466 JUMPI PUSH3 0x466 PUSH3 0x42B JUMP JUMPDEST DUP1 DUP6 AND ISZERO PUSH3 0x474 JUMPI SWAP2 DUP2 MUL SWAP2 JUMPDEST SWAP4 DUP5 SHR SWAP4 SWAP1 DUP1 MUL SWAP1 PUSH3 0x446 JUMP JUMPDEST POP SWAP3 POP SWAP3 SWAP1 POP JUMP JUMPDEST PUSH1 0x0 DUP3 PUSH3 0x49B JUMPI POP PUSH1 0x1 PUSH3 0x53A JUMP JUMPDEST DUP2 PUSH3 0x4AA JUMPI POP PUSH1 0x0 PUSH3 0x53A JUMP JUMPDEST DUP2 PUSH1 0x1 DUP2 EQ PUSH3 0x4C3 JUMPI PUSH1 0x2 DUP2 EQ PUSH3 0x4CE JUMPI PUSH3 0x4EE JUMP JUMPDEST PUSH1 0x1 SWAP2 POP POP PUSH3 0x53A JUMP JUMPDEST PUSH1 0xFF DUP5 GT ISZERO PUSH3 0x4E2 JUMPI PUSH3 0x4E2 PUSH3 0x42B JUMP JUMPDEST POP POP PUSH1 0x1 DUP3 SHL PUSH3 0x53A JUMP JUMPDEST POP PUSH1 0x20 DUP4 LT PUSH2 0x133 DUP4 LT AND PUSH1 0x4E DUP5 LT PUSH1 0xB DUP5 LT AND OR ISZERO PUSH3 0x513 JUMPI POP DUP2 DUP2 EXP PUSH3 0x53A JUMP JUMPDEST PUSH3 0x51F DUP4 DUP4 PUSH3 0x441 JUMP JUMPDEST DUP1 PUSH1 0x0 NOT DIV DUP3 GT ISZERO PUSH3 0x536 JUMPI PUSH3 0x536 PUSH3 0x42B JUMP JUMPDEST MUL SWAP1 POP JUMPDEST SWAP3 SWAP2 POP POP JUMP JUMPDEST PUSH1 0x0 PUSH3 0x551 PUSH1 0xFF DUP5 AND DUP4 PUSH3 0x48A JUMP JUMPDEST SWAP4 SWAP3 POP POP POP JUMP JUMPDEST DUP1 DUP3 MUL DUP2 ISZERO DUP3 DUP3 DIV DUP5 EQ OR PUSH3 0x53A JUMPI PUSH3 0x53A PUSH3 0x42B JUMP JUMPDEST PUSH4 0x4E487B71 PUSH1 0xE0 SHL PUSH1 0x0 MSTORE PUSH1 0x41 PUSH1 0x4 MSTORE PUSH1 0x24 PUSH1 0x0 REVERT JUMPDEST PUSH1 0x1 DUP2 DUP2 SHR SWAP1 DUP3 AND DUP1 PUSH3 0x59D JUMPI PUSH1 0x7F DUP3 AND SWAP2 POP JUMPDEST PUSH1 0x20 DUP3 LT DUP2 SUB PUSH3 0x5BE JUMPI PUSH4 0x4E487B71 PUSH1 0xE0 SHL PUSH1 0x0 MSTORE PUSH1 0x22 PUSH1 0x4 MSTORE PUSH1 0x24 PUSH1 0x0 REVERT JUMPDEST POP SWAP2 SWAP1 POP JUMP JUMPDEST PUSH1 0x1F DUP3 GT ISZERO PUSH3 0x3EB JUMPI PUSH1 0x0 DUP2 DUP2 MSTORE PUSH1 0x20 DUP2 KECCAK256 PUSH1 0x1F DUP6 ADD PUSH1 0x5 SHR DUP2 ADD PUSH1 0x20 DUP7 LT ISZERO PUSH3 0x5ED JUMPI POP DUP1 JUMPDEST PUSH1 0x1F DUP6 ADD PUSH1 0x5 SHR DUP3 ADD SWAP2 POP JUMPDEST DUP2 DUP2 LT ISZERO PUSH3 0x60E JUMPI DUP3 DUP2 SSTORE PUSH1 0x1 ADD PUSH3 0x5F9 JUMP JUMPDEST POP POP POP POP POP POP JUMP JUMPDEST DUP2 MLOAD PUSH1 0x1 PUSH1 0x1 PUSH1 0x40 SHL SUB DUP2 GT ISZERO PUSH3 0x632 JUMPI PUSH3 0x632 PUSH3 0x572 JUMP JUMPDEST PUSH3 0x64A DUP2 PUSH3 0x643 DUP5 SLOAD PUSH3 0x588 JUMP JUMPDEST DUP5 PUSH3 0x5C4 JUMP JUMPDEST PUSH1 0x20 DUP1 PUSH1 0x1F DUP4 GT PUSH1 0x1 DUP2 EQ PUSH3 0x682 JUMPI PUSH1 0x0 DUP5 ISZERO PUSH3 0x669 JUMPI POP DUP6 DUP4 ADD MLOAD JUMPDEST PUSH1 0x0 NOT PUSH1 0x3 DUP7 SWAP1 SHL SHR NOT AND PUSH1 0x1 DUP6 SWAP1 SHL OR DUP6 SSTORE PUSH3 0x60E JUMP JUMPDEST PUSH1 0x0 DUP6 DUP2 MSTORE PUSH1 0x20 DUP2 KECCAK256 PUSH1 0x1F NOT DUP7 AND SWAP2 JUMPDEST DUP3 DUP2 LT ISZERO PUSH3 0x6B3 JUMPI DUP9 DUP7 ADD MLOAD DUP3 SSTORE SWAP5 DUP5 ADD SWAP5 PUSH1 0x1 SWAP1 SWAP2 ADD SWAP1 DUP5 ADD PUSH3 0x692 JUMP JUMPDEST POP DUP6 DUP3 LT ISZERO PUSH3 0x6D2 JUMPI DUP8 DUP6 ADD MLOAD PUSH1 0x0 NOT PUSH1 0x3 DUP9 SWAP1 SHL PUSH1 0xF8 AND SHR NOT AND DUP2 SSTORE JUMPDEST POP POP POP POP POP PUSH1 0x1 SWAP1 DUP2 SHL ADD SWAP1 SSTORE POP JUMP JUMPDEST DUP1 DUP3 ADD DUP1 DUP3 GT ISZERO PUSH3 0x53A JUMPI PUSH3 0x53A PUSH3 0x42B JUMP JUMPDEST PUSH2 0xE54 DUP1 PUSH3 0x708 PUSH1 0x0 CODECOPY PUSH1 0x0 RETURN INVALID PUSH1 0x80 PUSH1 0x40 MSTORE CALLVALUE DUP1 ISZERO PUSH2 0x10 JUMPI PUSH1 0x0 DUP1 REVERT JUMPDEST POP PUSH1 0x4 CALLDATASIZE LT PUSH2 0x10B JUMPI PUSH1 0x0 CALLDATALOAD PUSH1 0xE0 SHR DUP1 PUSH4 0x39509351 GT PUSH2 0xA2 JUMPI DUP1 PUSH4 0x8DA5CB5B GT PUSH2 0x71 JUMPI DUP1 PUSH4 0x8DA5CB5B EQ PUSH2 0x211 JUMPI DUP1 PUSH4 0x95D89B41 EQ PUSH2 0x23C JUMPI DUP1 PUSH4 0xA457C2D7 EQ PUSH2 0x244 JUMPI DUP1 PUSH4 0xA9059CBB EQ PUSH2 0x257 JUMPI DUP1 PUSH4 0xDD62ED3E EQ PUSH2 0x26A JUMPI PUSH1 0x0 DUP1 REVERT JUMPDEST DUP1 PUSH4 0x39509351 EQ PUSH2 0x1AF JUMPI DUP1 PUSH4 0x42966C68 EQ PUSH2 0x1C2 JUMPI DUP1 PUSH4 0x70A08231 EQ PUSH2 0x1D5 JUMPI DUP1 PUSH4 0x79CC6790 EQ PUSH2 0x1FE JUMPI PUSH1 0x0 DUP1 REVERT JUMPDEST DUP1 PUSH4 0x1A18E707 GT PUSH2 0xDE JUMPI DUP1 PUSH4 0x1A18E707 EQ PUSH2 0x170 JUMPI DUP1 PUSH4 0x23B872DD EQ PUSH2 0x185 JUMPI DUP1 PUSH4 0x313CE567 EQ PUSH2 0x198 JUMPI DUP1 PUSH4 0x355274EA EQ PUSH2 0x1A7 JUMPI PUSH1 0x0 DUP1 REVERT JUMPDEST DUP1 PUSH4 0x6FDDE03 EQ PUSH2 0x110 JUMPI DUP1 PUSH4 0x95EA7B3 EQ PUSH2 0x12E JUMPI DUP1 PUSH4 0xAC168A1 EQ PUSH2 0x151 JUMPI DUP1 PUSH4 0x18160DDD EQ PUSH2 0x168 JUMPI JUMPDEST PUSH1 0x0 DUP1 REVERT JUMPDEST PUSH2 0x118 PUSH2 0x27D JUMP JUMPDEST PUSH1 0x40 MLOAD PUSH2 0x125 SWAP2 SWAP1 PUSH2 0xB73 JUMP JUMPDEST PUSH1 0x40 MLOAD DUP1 SWAP2 SUB SWAP1 RETURN JUMPDEST PUSH2 0x141 PUSH2 0x13C CALLDATASIZE PUSH1 0x4 PUSH2 0xBDD JUMP JUMPDEST PUSH2 0x30F JUMP JUMPDEST PUSH1 0x40 MLOAD SWAP1 ISZERO ISZERO DUP2 MSTORE PUSH1 0x20 ADD PUSH2 0x125 JUMP JUMPDEST PUSH2 0x15A PUSH1 0x7 SLOAD DUP2 JUMP JUMPDEST PUSH1 0x40 MLOAD SWAP1 DUP2 MSTORE PUSH1 0x20 ADD PUSH2 0x125 JUMP JUMPDEST PUSH1 0x2 SLOAD PUSH2 0x15A JUMP JUMPDEST PUSH2 0x183 PUSH2 0x17E CALLDATASIZE PUSH1 0x4 PUSH2 0xC07 JUMP JUMPDEST PUSH2 0x32F JUMP JUMPDEST STOP JUMPDEST PUSH2 0x141 PUSH2 0x193 CALLDATASIZE PUSH1 0x4 PUSH2 0xC20 JUMP JUMPDEST PUSH2 0x3B8 JUMP JUMPDEST PUSH1 0x40 MLOAD PUSH1 0x12 DUP2 MSTORE PUSH1 0x20 ADD PUSH2 0x125 JUMP JUMPDEST PUSH1 0x5 SLOAD PUSH2 0x15A JUMP JUMPDEST PUSH2 0x141 PUSH2 0x1BD CALLDATASIZE PUSH1 0x4 PUSH2 0xBDD JUMP JUMPDEST PUSH2 0x3DC JUMP JUMPDEST PUSH2 0x183 PUSH2 0x1D0 CALLDATASIZE PUSH1 0x4 PUSH2 0xC07 JUMP JUMPDEST PUSH2 0x3FE JUMP JUMPDEST PUSH2 0x15A PUSH2 0x1E3 CALLDATASIZE PUSH1 0x4 PUSH2 0xC5C JUMP JUMPDEST PUSH1 0x1 PUSH1 0x1 PUSH1 0xA0 SHL SUB AND PUSH1 0x0 SWAP1 DUP2 MSTORE PUSH1 0x20 DUP2 SWAP1 MSTORE PUSH1 0x40 SWAP1 KECCAK256 SLOAD SWAP1 JUMP JUMPDEST PUSH2 0x183 PUSH2 0x20C CALLDATASIZE PUSH1 0x4 PUSH2 0xBDD JUMP JUMPDEST PUSH2 0x40B JUMP JUMPDEST PUSH1 0x6 SLOAD PUSH2 0x224 SWAP1 PUSH1 0x1 PUSH1 0x1 PUSH1 0xA0 SHL SUB AND DUP2 JUMP JUMPDEST PUSH1 0x40 MLOAD PUSH1 0x1 PUSH1 0x1 PUSH1 0xA0 SHL SUB SWAP1 SWAP2 AND DUP2 MSTORE PUSH1 0x20 ADD PUSH2 0x125 JUMP JUMPDEST PUSH2 0x118 PUSH2 0x424 JUMP JUMPDEST PUSH2 0x141 PUSH2 0x252 CALLDATASIZE PUSH1 0x4 PUSH2 0xBDD JUMP JUMPDEST PUSH2 0x433 JUMP JUMPDEST PUSH2 0x141 PUSH2 0x265 CALLDATASIZE PUSH1 0x4 PUSH2 0xBDD JUMP JUMPDEST PUSH2 0x4AE JUMP JUMPDEST PUSH2 0x15A PUSH2 0x278 CALLDATASIZE PUSH1 0x4 PUSH2 0xC7E JUMP JUMPDEST PUSH2 0x4BC JUMP JUMPDEST PUSH1 0x60 PUSH1 0x3 DUP1 SLOAD PUSH2 0x28C SWAP1 PUSH2 0xCB1 JUMP JUMPDEST DUP1 PUSH1 0x1F ADD PUSH1 0x20 DUP1 SWAP2 DIV MUL PUSH1 0x20 ADD PUSH1 0x40 MLOAD SWAP1 DUP2 ADD PUSH1 0x40 MSTORE DUP1 SWAP3 SWAP2 SWAP1 DUP2 DUP2 MSTORE PUSH1 0x20 ADD DUP3 DUP1 SLOAD PUSH2 0x2B8 SWAP1 PUSH2 0xCB1 JUMP JUMPDEST DUP1 ISZERO PUSH2 0x305 JUMPI DUP1 PUSH1 0x1F LT PUSH2 0x2DA JUMPI PUSH2 0x100 DUP1 DUP4 SLOAD DIV MUL DUP4 MSTORE SWAP2 PUSH1 0x20 ADD SWAP2 PUSH2 0x305 JUMP JUMPDEST DUP3 ADD SWAP2 SWAP1 PUSH1 0x0 MSTORE PUSH1 0x20 PUSH1 0x0 KECCAK256 SWAP1 JUMPDEST DUP2 SLOAD DUP2 MSTORE SWAP1 PUSH1 0x1 ADD SWAP1 PUSH1 0x20 ADD DUP1 DUP4 GT PUSH2 0x2E8 JUMPI DUP3 SWAP1 SUB PUSH1 0x1F AND DUP3 ADD SWAP2 JUMPDEST POP POP POP POP POP SWAP1 POP SWAP1 JUMP JUMPDEST PUSH1 0x0 CALLER PUSH2 0x31D DUP2 DUP6 DUP6 PUSH2 0x61E JUMP JUMPDEST PUSH1 0x1 SWAP2 POP POP JUMPDEST SWAP3 SWAP2 POP POP JUMP JUMPDEST PUSH1 0x2 SLOAD SWAP1 JUMP JUMPDEST PUSH1 0x6 SLOAD PUSH1 0x1 PUSH1 0x1 PUSH1 0xA0 SHL SUB AND CALLER EQ PUSH2 0x39C JUMPI PUSH1 0x40 MLOAD PUSH3 0x461BCD PUSH1 0xE5 SHL DUP2 MSTORE PUSH1 0x20 PUSH1 0x4 DUP3 ADD MSTORE PUSH1 0x25 PUSH1 0x24 DUP3 ADD MSTORE PUSH32 0x4F6E6C7920746865206F776E65722063616E2063616C6C20746869732066756E PUSH1 0x44 DUP3 ADD MSTORE PUSH5 0x31BA34B7B7 PUSH1 0xD9 SHL PUSH1 0x64 DUP3 ADD MSTORE PUSH1 0x84 ADD JUMPDEST PUSH1 0x40 MLOAD DUP1 SWAP2 SUB SWAP1 REVERT JUMPDEST PUSH2 0x3A8 PUSH1 0x12 PUSH1 0xA PUSH2 0xDE5 JUMP JUMPDEST PUSH2 0x3B2 SWAP1 DUP3 PUSH2 0xDF4 JUMP JUMPDEST PUSH1 0x7 SSTORE POP JUMP JUMPDEST PUSH1 0x0 CALLER PUSH2 0x3C6 DUP6 DUP3 DUP6 PUSH2 0x742 JUMP JUMPDEST PUSH2 0x3D1 DUP6 DUP6 DUP6 PUSH2 0x7BC JUMP JUMPDEST POP PUSH1 0x1 SWAP5 SWAP4 POP POP POP POP JUMP JUMPDEST PUSH1 0x0 CALLER PUSH2 0x31D DUP2 DUP6 DUP6 PUSH2 0x3EF DUP4 DUP4 PUSH2 0x4BC JUMP JUMPDEST PUSH2 0x3F9 SWAP2 SWAP1 PUSH2 0xE0B JUMP JUMPDEST PUSH2 0x61E JUMP JUMPDEST PUSH2 0x408 CALLER DUP3 PUSH2 0x96B JUMP JUMPDEST POP JUMP JUMPDEST PUSH2 0x416 DUP3 CALLER DUP4 PUSH2 0x742 JUMP JUMPDEST PUSH2 0x420 DUP3 DUP3 PUSH2 0x96B JUMP JUMPDEST POP POP JUMP JUMPDEST PUSH1 0x60 PUSH1 0x4 DUP1 SLOAD PUSH2 0x28C SWAP1 PUSH2 0xCB1 JUMP JUMPDEST PUSH1 0x0 CALLER DUP2 PUSH2 0x441 DUP3 DUP7 PUSH2 0x4BC JUMP JUMPDEST SWAP1 POP DUP4 DUP2 LT ISZERO PUSH2 0x4A1 JUMPI PUSH1 0x40 MLOAD PUSH3 0x461BCD PUSH1 0xE5 SHL DUP2 MSTORE PUSH1 0x20 PUSH1 0x4 DUP3 ADD MSTORE PUSH1 0x25 PUSH1 0x24 DUP3 ADD MSTORE PUSH32 0x45524332303A2064656372656173656420616C6C6F77616E63652062656C6F77 PUSH1 0x44 DUP3 ADD MSTORE PUSH5 0x207A65726F PUSH1 0xD8 SHL PUSH1 0x64 DUP3 ADD MSTORE PUSH1 0x84 ADD PUSH2 0x393 JUMP JUMPDEST PUSH2 0x3D1 DUP3 DUP7 DUP7 DUP5 SUB PUSH2 0x61E JUMP JUMPDEST PUSH1 0x0 CALLER PUSH2 0x31D DUP2 DUP6 DUP6 PUSH2 0x7BC JUMP JUMPDEST PUSH1 0x1 PUSH1 0x1 PUSH1 0xA0 SHL SUB SWAP2 DUP3 AND PUSH1 0x0 SWAP1 DUP2 MSTORE PUSH1 0x1 PUSH1 0x20 SWAP1 DUP2 MSTORE PUSH1 0x40 DUP1 DUP4 KECCAK256 SWAP4 SWAP1 SWAP5 AND DUP3 MSTORE SWAP2 SWAP1 SWAP2 MSTORE KECCAK256 SLOAD SWAP1 JUMP JUMPDEST PUSH1 0x5 SLOAD DUP2 PUSH2 0x4F4 PUSH1 0x2 SLOAD SWAP1 JUMP JUMPDEST PUSH2 0x4FE SWAP2 SWAP1 PUSH2 0xE0B JUMP JUMPDEST GT ISZERO PUSH2 0x548 JUMPI PUSH1 0x40 MLOAD PUSH3 0x461BCD PUSH1 0xE5 SHL DUP2 MSTORE PUSH1 0x20 PUSH1 0x4 DUP3 ADD MSTORE PUSH1 0x19 PUSH1 0x24 DUP3 ADD MSTORE PUSH25 0x115490CC8C10D85C1C19590E8818D85C08195E18D959591959 PUSH1 0x3A SHL PUSH1 0x44 DUP3 ADD MSTORE PUSH1 0x64 ADD PUSH2 0x393 JUMP JUMPDEST PUSH2 0x420 DUP3 DUP3 JUMPDEST PUSH1 0x1 PUSH1 0x1 PUSH1 0xA0 SHL SUB DUP3 AND PUSH2 0x5A4 JUMPI PUSH1 0x40 MLOAD PUSH3 0x461BCD PUSH1 0xE5 SHL DUP2 MSTORE PUSH1 0x20 PUSH1 0x4 DUP3 ADD MSTORE PUSH1 0x1F PUSH1 0x24 DUP3 ADD MSTORE PUSH32 0x45524332303A206D696E7420746F20746865207A65726F206164647265737300 PUSH1 0x44 DUP3 ADD MSTORE PUSH1 0x64 ADD PUSH2 0x393 JUMP JUMPDEST PUSH2 0x5B0 PUSH1 0x0 DUP4 DUP4 PUSH2 0xAA9 JUMP JUMPDEST DUP1 PUSH1 0x2 PUSH1 0x0 DUP3 DUP3 SLOAD PUSH2 0x5C2 SWAP2 SWAP1 PUSH2 0xE0B JUMP JUMPDEST SWAP1 SWAP2 SSTORE POP POP PUSH1 0x1 PUSH1 0x1 PUSH1 0xA0 SHL SUB DUP3 AND PUSH1 0x0 DUP2 DUP2 MSTORE PUSH1 0x20 DUP2 DUP2 MSTORE PUSH1 0x40 DUP1 DUP4 KECCAK256 DUP1 SLOAD DUP7 ADD SWAP1 SSTORE MLOAD DUP5 DUP2 MSTORE PUSH32 0xDDF252AD1BE2C89B69C2B068FC378DAA952BA7F163C4A11628F55A4DF523B3EF SWAP2 ADD PUSH1 0x40 MLOAD DUP1 SWAP2 SUB SWAP1 LOG3 POP POP JUMP JUMPDEST POP POP POP JUMP JUMPDEST PUSH1 0x1 PUSH1 0x1 PUSH1 0xA0 SHL SUB DUP4 AND PUSH2 0x680 JUMPI PUSH1 0x40 MLOAD PUSH3 0x461BCD PUSH1 0xE5 SHL DUP2 MSTORE PUSH1 0x20 PUSH1 0x4 DUP3 ADD MSTORE PUSH1 0x24 DUP1 DUP3 ADD MSTORE PUSH32 0x45524332303A20617070726F76652066726F6D20746865207A65726F20616464 PUSH1 0x44 DUP3 ADD MSTORE PUSH4 0x72657373 PUSH1 0xE0 SHL PUSH1 0x64 DUP3 ADD MSTORE PUSH1 0x84 ADD PUSH2 0x393 JUMP JUMPDEST PUSH1 0x1 PUSH1 0x1 PUSH1 0xA0 SHL SUB DUP3 AND PUSH2 0x6E1 JUMPI PUSH1 0x40 MLOAD PUSH3 0x461BCD PUSH1 0xE5 SHL DUP2 MSTORE PUSH1 0x20 PUSH1 0x4 DUP3 ADD MSTORE PUSH1 0x22 PUSH1 0x24 DUP3 ADD MSTORE PUSH32 0x45524332303A20617070726F766520746F20746865207A65726F206164647265 PUSH1 0x44 DUP3 ADD MSTORE PUSH2 0x7373 PUSH1 0xF0 SHL PUSH1 0x64 DUP3 ADD MSTORE PUSH1 0x84 ADD PUSH2 0x393 JUMP JUMPDEST PUSH1 0x1 PUSH1 0x1 PUSH1 0xA0 SHL SUB DUP4 DUP2 AND PUSH1 0x0 DUP2 DUP2 MSTORE PUSH1 0x1 PUSH1 0x20 SWAP1 DUP2 MSTORE PUSH1 0x40 DUP1 DUP4 KECCAK256 SWAP5 DUP8 AND DUP1 DUP5 MSTORE SWAP5 DUP3 MSTORE SWAP2 DUP3 SWAP1 KECCAK256 DUP6 SWAP1 SSTORE SWAP1 MLOAD DUP5 DUP2 MSTORE PUSH32 0x8C5BE1E5EBEC7D5BD14F71427D1E84F3DD0314C0F7B2291E5B200AC8C7C3B925 SWAP2 ADD PUSH1 0x40 MLOAD DUP1 SWAP2 SUB SWAP1 LOG3 POP POP POP JUMP JUMPDEST PUSH1 0x0 PUSH2 0x74E DUP5 DUP5 PUSH2 0x4BC JUMP JUMPDEST SWAP1 POP PUSH1 0x0 NOT DUP2 EQ PUSH2 0x7B6 JUMPI DUP2 DUP2 LT ISZERO PUSH2 0x7A9 JUMPI PUSH1 0x40 MLOAD PUSH3 0x461BCD PUSH1 0xE5 SHL DUP2 MSTORE PUSH1 0x20 PUSH1 0x4 DUP3 ADD MSTORE PUSH1 0x1D PUSH1 0x24 DUP3 ADD MSTORE PUSH32 0x45524332303A20696E73756666696369656E7420616C6C6F77616E6365000000 PUSH1 0x44 DUP3 ADD MSTORE PUSH1 0x64 ADD PUSH2 0x393 JUMP JUMPDEST PUSH2 0x7B6 DUP5 DUP5 DUP5 DUP5 SUB PUSH2 0x61E JUMP JUMPDEST POP POP POP POP JUMP JUMPDEST PUSH1 0x1 PUSH1 0x1 PUSH1 0xA0 SHL SUB DUP4 AND PUSH2 0x820 JUMPI PUSH1 0x40 MLOAD PUSH3 0x461BCD PUSH1 0xE5 SHL DUP2 MSTORE PUSH1 0x20 PUSH1 0x4 DUP3 ADD MSTORE PUSH1 0x25 PUSH1 0x24 DUP3 ADD MSTORE PUSH32 0x45524332303A207472616E736665722066726F6D20746865207A65726F206164 PUSH1 0x44 DUP3 ADD MSTORE PUSH5 0x6472657373 PUSH1 0xD8 SHL PUSH1 0x64 DUP3 ADD MSTORE PUSH1 0x84 ADD PUSH2 0x393 JUMP JUMPDEST PUSH1 0x1 PUSH1 0x1 PUSH1 0xA0 SHL SUB DUP3 AND PUSH2 0x882 JUMPI PUSH1 0x40 MLOAD PUSH3 0x461BCD PUSH1 0xE5 SHL DUP2 MSTORE PUSH1 0x20 PUSH1 0x4 DUP3 ADD MSTORE PUSH1 0x23 PUSH1 0x24 DUP3 ADD MSTORE PUSH32 0x45524332303A207472616E7366657220746F20746865207A65726F2061646472 PUSH1 0x44 DUP3 ADD MSTORE PUSH3 0x657373 PUSH1 0xE8 SHL PUSH1 0x64 DUP3 ADD MSTORE PUSH1 0x84 ADD PUSH2 0x393 JUMP JUMPDEST PUSH2 0x88D DUP4 DUP4 DUP4 PUSH2 0xAA9 JUMP JUMPDEST PUSH1 0x1 PUSH1 0x1 PUSH1 0xA0 SHL SUB DUP4 AND PUSH1 0x0 SWAP1 DUP2 MSTORE PUSH1 0x20 DUP2 SWAP1 MSTORE PUSH1 0x40 SWAP1 KECCAK256 SLOAD DUP2 DUP2 LT ISZERO PUSH2 0x905 JUMPI PUSH1 0x40 MLOAD PUSH3 0x461BCD PUSH1 0xE5 SHL DUP2 MSTORE PUSH1 0x20 PUSH1 0x4 DUP3 ADD MSTORE PUSH1 0x26 PUSH1 0x24 DUP3 ADD MSTORE PUSH32 0x45524332303A207472616E7366657220616D6F756E7420657863656564732062 PUSH1 0x44 DUP3 ADD MSTORE PUSH6 0x616C616E6365 PUSH1 0xD0 SHL PUSH1 0x64 DUP3 ADD MSTORE PUSH1 0x84 ADD PUSH2 0x393 JUMP JUMPDEST PUSH1 0x1 PUSH1 0x1 PUSH1 0xA0 SHL SUB DUP5 DUP2 AND PUSH1 0x0 DUP2 DUP2 MSTORE PUSH1 0x20 DUP2 DUP2 MSTORE PUSH1 0x40 DUP1 DUP4 KECCAK256 DUP8 DUP8 SUB SWAP1 SSTORE SWAP4 DUP8 AND DUP1 DUP4 MSTORE SWAP2 DUP5 SWAP1 KECCAK256 DUP1 SLOAD DUP8 ADD SWAP1 SSTORE SWAP3 MLOAD DUP6 DUP2 MSTORE SWAP1 SWAP3 PUSH32 0xDDF252AD1BE2C89B69C2B068FC378DAA952BA7F163C4A11628F55A4DF523B3EF SWAP2 ADD PUSH1 0x40 MLOAD DUP1 SWAP2 SUB SWAP1 LOG3 PUSH2 0x7B6 JUMP JUMPDEST PUSH1 0x1 PUSH1 0x1 PUSH1 0xA0 SHL SUB DUP3 AND PUSH2 0x9CB JUMPI PUSH1 0x40 MLOAD PUSH3 0x461BCD PUSH1 0xE5 SHL DUP2 MSTORE PUSH1 0x20 PUSH1 0x4 DUP3 ADD MSTORE PUSH1 0x21 PUSH1 0x24 DUP3 ADD MSTORE PUSH32 0x45524332303A206275726E2066726F6D20746865207A65726F20616464726573 PUSH1 0x44 DUP3 ADD MSTORE PUSH1 0x73 PUSH1 0xF8 SHL PUSH1 0x64 DUP3 ADD MSTORE PUSH1 0x84 ADD PUSH2 0x393 JUMP JUMPDEST PUSH2 0x9D7 DUP3 PUSH1 0x0 DUP4 PUSH2 0xAA9 JUMP JUMPDEST PUSH1 0x1 PUSH1 0x1 PUSH1 0xA0 SHL SUB DUP3 AND PUSH1 0x0 SWAP1 DUP2 MSTORE PUSH1 0x20 DUP2 SWAP1 MSTORE PUSH1 0x40 SWAP1 KECCAK256 SLOAD DUP2 DUP2 LT ISZERO PUSH2 0xA4B JUMPI PUSH1 0x40 MLOAD PUSH3 0x461BCD PUSH1 0xE5 SHL DUP2 MSTORE PUSH1 0x20 PUSH1 0x4 DUP3 ADD MSTORE PUSH1 0x22 PUSH1 0x24 DUP3 ADD MSTORE PUSH32 0x45524332303A206275726E20616D6F756E7420657863656564732062616C616E PUSH1 0x44 DUP3 ADD MSTORE PUSH2 0x6365 PUSH1 0xF0 SHL PUSH1 0x64 DUP3 ADD MSTORE PUSH1 0x84 ADD PUSH2 0x393 JUMP JUMPDEST PUSH1 0x1 PUSH1 0x1 PUSH1 0xA0 SHL SUB DUP4 AND PUSH1 0x0 DUP2 DUP2 MSTORE PUSH1 0x20 DUP2 DUP2 MSTORE PUSH1 0x40 DUP1 DUP4 KECCAK256 DUP7 DUP7 SUB SWAP1 SSTORE PUSH1 0x2 DUP1 SLOAD DUP8 SWAP1 SUB SWAP1 SSTORE MLOAD DUP6 DUP2 MSTORE SWAP2 SWAP3 SWAP2 PUSH32 0xDDF252AD1BE2C89B69C2B068FC378DAA952BA7F163C4A11628F55A4DF523B3EF SWAP2 ADD PUSH1 0x40 MLOAD DUP1 SWAP2 SUB SWAP1 LOG3 POP POP POP JUMP JUMPDEST PUSH1 0x1 PUSH1 0x1 PUSH1 0xA0 SHL SUB DUP4 AND ISZERO DUP1 ISZERO SWAP1 PUSH2 0xACA JUMPI POP PUSH1 0x1 PUSH1 0x1 PUSH1 0xA0 SHL SUB DUP3 AND COINBASE EQ ISZERO JUMPDEST DUP1 ISZERO PUSH2 0xAD5 JUMPI POP COINBASE ISZERO ISZERO JUMPDEST DUP1 ISZERO PUSH2 0xAF2 JUMPI POP PUSH1 0x5 SLOAD PUSH1 0x7 SLOAD PUSH1 0x2 SLOAD PUSH2 0xAEF SWAP2 SWAP1 PUSH2 0xE0B JUMP JUMPDEST GT ISZERO JUMPDEST ISZERO PUSH2 0x619 JUMPI PUSH2 0x619 PUSH2 0xB06 COINBASE PUSH1 0x7 SLOAD PUSH2 0xB08 JUMP JUMPDEST JUMP JUMPDEST PUSH1 0x5 SLOAD DUP2 PUSH2 0xB15 PUSH1 0x2 SLOAD SWAP1 JUMP JUMPDEST PUSH2 0xB1F SWAP2 SWAP1 PUSH2 0xE0B JUMP JUMPDEST GT ISZERO PUSH2 0xB69 JUMPI PUSH1 0x40 MLOAD PUSH3 0x461BCD PUSH1 0xE5 SHL DUP2 MSTORE PUSH1 0x20 PUSH1 0x4 DUP3 ADD MSTORE PUSH1 0x19 PUSH1 0x24 DUP3 ADD MSTORE PUSH25 0x115490CC8C10D85C1C19590E8818D85C08195E18D959591959 PUSH1 0x3A SHL PUSH1 0x44 DUP3 ADD MSTORE PUSH1 0x64 ADD PUSH2 0x393 JUMP JUMPDEST PUSH2 0x420 DUP3 DUP3 PUSH2 0x4E7 JUMP JUMPDEST PUSH1 0x0 PUSH1 0x20 DUP1 DUP4 MSTORE DUP4 MLOAD DUP1 DUP3 DUP6 ADD MSTORE PUSH1 0x0 JUMPDEST DUP2 DUP2 LT ISZERO PUSH2 0xBA0 JUMPI DUP6 DUP2 ADD DUP4 ADD MLOAD DUP6 DUP3 ADD PUSH1 0x40 ADD MSTORE DUP3 ADD PUSH2 0xB84 JUMP JUMPDEST POP PUSH1 0x0 PUSH1 0x40 DUP3 DUP7 ADD ADD MSTORE PUSH1 0x40 PUSH1 0x1F NOT PUSH1 0x1F DUP4 ADD AND DUP6 ADD ADD SWAP3 POP POP POP SWAP3 SWAP2 POP POP JUMP JUMPDEST DUP1 CALLDATALOAD PUSH1 0x1 PUSH1 0x1 PUSH1 0xA0 SHL SUB DUP2 AND DUP2 EQ PUSH2 0xBD8 JUMPI PUSH1 0x0 DUP1 REVERT JUMPDEST SWAP2 SWAP1 POP JUMP JUMPDEST PUSH1 0x0 DUP1 PUSH1 0x40 DUP4 DUP6 SUB SLT ISZERO PUSH2 0xBF0 JUMPI PUSH1 0x0 DUP1 REVERT JUMPDEST PUSH2 0xBF9 DUP4 PUSH2 0xBC1 JUMP JUMPDEST SWAP5 PUSH1 0x20 SWAP4 SWAP1 SWAP4 ADD CALLDATALOAD SWAP4 POP POP POP JUMP JUMPDEST PUSH1 0x0 PUSH1 0x20 DUP3 DUP5 SUB SLT ISZERO PUSH2 0xC19 JUMPI PUSH1 0x0 DUP1 REVERT JUMPDEST POP CALLDATALOAD SWAP2 SWAP1 POP JUMP JUMPDEST PUSH1 0x0 DUP1 PUSH1 0x0 PUSH1 0x60 DUP5 DUP7 SUB SLT ISZERO PUSH2 0xC35 JUMPI PUSH1 0x0 DUP1 REVERT JUMPDEST PUSH2 0xC3E DUP5 PUSH2 0xBC1 JUMP JUMPDEST SWAP3 POP PUSH2 0xC4C PUSH1 0x20 DUP6 ADD PUSH2 0xBC1 JUMP JUMPDEST SWAP2 POP PUSH1 0x40 DUP5 ADD CALLDATALOAD SWAP1 POP SWAP3 POP SWAP3 POP SWAP3 JUMP JUMPDEST PUSH1 0x0 PUSH1 0x20 DUP3 DUP5 SUB SLT ISZERO PUSH2 0xC6E JUMPI PUSH1 0x0 DUP1 REVERT JUMPDEST PUSH2 0xC77 DUP3 PUSH2 0xBC1 JUMP JUMPDEST SWAP4 SWAP3 POP POP POP JUMP JUMPDEST PUSH1 0x0 DUP1 PUSH1 0x40 DUP4 DUP6 SUB SLT ISZERO PUSH2 0xC91 JUMPI PUSH1 0x0 DUP1 REVERT JUMPDEST PUSH2 0xC9A DUP4 PUSH2 0xBC1 JUMP JUMPDEST SWAP2 POP PUSH2 0xCA8 PUSH1 0x20 DUP5 ADD PUSH2 0xBC1 JUMP JUMPDEST SWAP1 POP SWAP3 POP SWAP3 SWAP1 POP JUMP JUMPDEST PUSH1 0x1 DUP2 DUP2 SHR SWAP1 DUP3 AND DUP1 PUSH2 0xCC5 JUMPI PUSH1 0x7F DUP3 AND SWAP2 POP JUMPDEST PUSH1 0x20 DUP3 LT DUP2 SUB PUSH2 0xCE5 JUMPI PUSH4 0x4E487B71 PUSH1 0xE0 SHL PUSH1 0x0 MSTORE PUSH1 0x22 PUSH1 0x4 MSTORE PUSH1 0x24 PUSH1 0x0 REVERT JUMPDEST POP SWAP2 SWAP1 POP JUMP JUMPDEST PUSH4 0x4E487B71 PUSH1 0xE0 SHL PUSH1 0x0 MSTORE PUSH1 0x11 PUSH1 0x4 MSTORE PUSH1 0x24 PUSH1 0x0 REVERT JUMPDEST PUSH1 0x1 DUP2 DUP2 JUMPDEST DUP1 DUP6 GT ISZERO PUSH2 0xD3C JUMPI DUP2 PUSH1 0x0 NOT DIV DUP3 GT ISZERO PUSH2 0xD22 JUMPI PUSH2 0xD22 PUSH2 0xCEB JUMP JUMPDEST DUP1 DUP6 AND ISZERO PUSH2 0xD2F JUMPI SWAP2 DUP2 MUL SWAP2 JUMPDEST SWAP4 DUP5 SHR SWAP4 SWAP1 DUP1 MUL SWAP1 PUSH2 0xD06 JUMP JUMPDEST POP SWAP3 POP SWAP3 SWAP1 POP JUMP JUMPDEST PUSH1 0x0 DUP3 PUSH2 0xD53 JUMPI POP PUSH1 0x1 PUSH2 0x323 JUMP JUMPDEST DUP2 PUSH2 0xD60 JUMPI POP PUSH1 0x0 PUSH2 0x323 JUMP JUMPDEST DUP2 PUSH1 0x1 DUP2 EQ PUSH2 0xD76 JUMPI PUSH1 0x2 DUP2 EQ PUSH2 0xD80 JUMPI PUSH2 0xD9C JUMP JUMPDEST PUSH1 0x1 SWAP2 POP POP PUSH2 0x323 JUMP JUMPDEST PUSH1 0xFF DUP5 GT ISZERO PUSH2 0xD91 JUMPI PUSH2 0xD91 PUSH2 0xCEB JUMP JUMPDEST POP POP PUSH1 0x1 DUP3 SHL PUSH2 0x323 JUMP JUMPDEST POP PUSH1 0x20 DUP4 LT PUSH2 0x133 DUP4 LT AND PUSH1 0x4E DUP5 LT PUSH1 0xB DUP5 LT AND OR ISZERO PUSH2 0xDBF JUMPI POP DUP2 DUP2 EXP PUSH2 0x323 JUMP JUMPDEST PUSH2 0xDC9 DUP4 DUP4 PUSH2 0xD01 JUMP JUMPDEST DUP1 PUSH1 0x0 NOT DIV DUP3 GT ISZERO PUSH2 0xDDD JUMPI PUSH2 0xDDD PUSH2 0xCEB JUMP JUMPDEST MUL SWAP4 SWAP3 POP POP POP JUMP JUMPDEST PUSH1 0x0 PUSH2 0xC77 PUSH1 0xFF DUP5 AND DUP4 PUSH2 0xD44 JUMP JUMPDEST DUP1 DUP3 MUL DUP2 ISZERO DUP3 DUP3 DIV DUP5 EQ OR PUSH2 0x323 JUMPI PUSH2 0x323 PUSH2 0xCEB JUMP JUMPDEST DUP1 DUP3 ADD DUP1 DUP3 GT ISZERO PUSH2 0x323 JUMPI PUSH2 0x323 PUSH2 0xCEB JUMP INVALID LOG2 PUSH5 0x6970667358 0x22 SLT KECCAK256 0xB5 0xDA BYTE STOP ORIGIN 0xD3 0x28 LOG2 0xE7 0xD1 SELFDESTRUCT JUMP DUP2 PUSH2 0xDA88 SIGNEXTEND 0xF7 0x2C CALLCODE 0xEE 0xBE SWAP12 GAS LT PUSH6 0xB5BA1A364903 PUSH5 0x736F6C6343 STOP ADDMOD GT STOP CALLER "
				},
				"gasEstimates": {
					"creation": {
						"codeDepositCost": "733600",
						"executionCost": "infinite",
						"totalCost": "infinite"
					},
					"external": {
						"allowance(address,address)": "infinite",
						"approve(address,uint256)": "22551",
						"balanceOf(address)": "1307",
						"blockReward()": "1063",
						"burn(uint256)": "infinite",
						"burnFrom(address,uint256)": "infinite",
						"cap()": "1081",
						"decimals()": "244",
						"decreaseAllowance(address,uint256)": "23616",
						"increaseAllowance(address,uint256)": "infinite",
						"name()": "infinite",
						"owner()": "1059",
						"setBlockReward(uint256)": "infinite",
						"symbol()": "infinite",
						"totalSupply()": "1082",
						"transfer(address,uint256)": "infinite",
						"transferFrom(address,address,uint256)": "infinite"
					},
					"internal": {
						"_beforeTokenTransfer(address,address,uint256)": "infinite",
						"_mint(address,uint256)": "infinite",
						"_mintMinerReward()": "infinite"
					}
				},
				"methodIdentifiers": {
					"allowance(address,address)": "dd62ed3e",
					"approve(address,uint256)": "095ea7b3",
					"balanceOf(address)": "70a08231",
					"blockReward()": "0ac168a1",
					"burn(uint256)": "42966c68",
					"burnFrom(address,uint256)": "79cc6790",
					"cap()": "355274ea",
					"decimals()": "313ce567",
					"decreaseAllowance(address,uint256)": "a457c2d7",
					"increaseAllowance(address,uint256)": "39509351",
					"name()": "06fdde03",
					"owner()": "8da5cb5b",
					"setBlockReward(uint256)": "1a18e707",
					"symbol()": "95d89b41",
					"totalSupply()": "18160ddd",
					"transfer(address,uint256)": "a9059cbb",
					"transferFrom(address,address,uint256)": "23b872dd"
				}
			},
			"storageLayout": {
				"storage": [
					{
						"astId": 201,
						"contract": "contracts/erc201.sol:Blank",
						"label": "_balances",
						"offset": 0,
						"slot": "0",
						"type": "t_mapping(t_address,t_uint256)"
					},
					{
						"astId": 207,
						"contract": "contracts/erc201.sol:Blank",
						"label": "_allowances",
						"offset": 0,
						"slot": "1",
						"type": "t_mapping(t_address,t_mapping(t_address,t_uint256))"
					},
					{
						"astId": 209,
						"contract": "contracts/erc201.sol:Blank",
						"label": "_totalSupply",
						"offset": 0,
						"slot": "2",
						"type": "t_uint256"
					},
					{
						"astId": 211,
						"contract": "contracts/erc201.sol:Blank",
						"label": "_name",
						"offset": 0,
						"slot": "3",
						"type": "t_string_storage"
					},
					{
						"astId": 213,
						"contract": "contracts/erc201.sol:Blank",
						"label": "_symbol",
						"offset": 0,
						"slot": "4",
						"type": "t_string_storage"
					},
					{
						"astId": 902,
						"contract": "contracts/erc201.sol:Blank",
						"label": "_cap",
						"offset": 0,
						"slot": "5",
						"type": "t_uint256"
					},
					{
						"astId": 10,
						"contract": "contracts/erc201.sol:Blank",
						"label": "owner",
						"offset": 0,
						"slot": "6",
						"type": "t_address_payable"
					},
					{
						"astId": 12,
						"contract": "contracts/erc201.sol:Blank",
						"label": "blockReward",
						"offset": 0,
						"slot": "7",
						"type": "t_uint256"
					}
				],
				"types": {
					"t_address": {
						"encoding": "inplace",
						"label": "address",
						"numberOfBytes": "20"
					},
					"t_address_payable": {
						"encoding": "inplace",
						"label": "address payable",
						"numberOfBytes": "20"
					},
					"t_mapping(t_address,t_mapping(t_address,t_uint256))": {
						"encoding": "mapping",
						"key": "t_address",
						"label": "mapping(address => mapping(address => uint256))",
						"numberOfBytes": "32",
						"value": "t_mapping(t_address,t_uint256)"
					},
					"t_mapping(t_address,t_uint256)": {
						"encoding": "mapping",
						"key": "t_address",
						"label": "mapping(address => uint256)",
						"numberOfBytes": "32",
						"value": "t_uint256"
					},
					"t_string_storage": {
						"encoding": "bytes",
						"label": "string",
						"numberOfBytes": "32"
					},
					"t_uint256": {
						"encoding": "inplace",
						"label": "uint256",
						"numberOfBytes": "32"
					}
				}
			},
			"userdoc": {
				"kind": "user",
				"methods": {},
				"version": 1
			}
		}
	}
}