{
	"contracts/pepe.sol": {
		"FepeToken": {
			"abi": [
				{
					"inputs": [],
					"stateMutability": "nonpayable",
					"type": "constructor"
				},
				{
					"anonymous": false,
					"inputs": [
						{
							"indexed": true,
							"internalType": "address",
							"name": "owner",
							"type": "address"
						},
						{
							"indexed": true,
							"internalType": "address",
							"name": "spender",
							"type": "address"
						},
						{
							"indexed": false,
							"internalType": "uint256",
							"name": "value",
							"type": "uint256"
						}
					],
					"name": "Approval",
					"type": "event"
				},
				{
					"anonymous": false,
					"inputs": [
						{
							"indexed": true,
							"internalType": "address",
							"name": "previousOwner",
							"type": "address"
						},
						{
							"indexed": true,
							"internalType": "address",
							"name": "newOwner",
							"type": "address"
						}
					],
					"name": "OwnershipTransferred",
					"type": "event"
				},
				{
					"anonymous": false,
					"inputs": [
						{
							"indexed": true,
							"internalType": "address",
							"name": "from",
							"type": "address"
						},
						{
							"indexed": true,
							"internalType": "address",
							"name": "to",
							"type": "address"
						},
						{
							"indexed": false,
							"internalType": "uint256",
							"name": "value",
							"type": "uint256"
						}
					],
					"name": "Transfer",
					"type": "event"
				},
				{
					"inputs": [
						{
							"internalType": "address",
							"name": "owner",
							"type": "address"
						},
						{
							"internalType": "address",
							"name": "spender",
							"type": "address"
						}
					],
					"name": "allowance",
					"outputs": [
						{
							"internalType": "uint256",
							"name": "",
							"type": "uint256"
						}
					],
					"stateMutability": "view",
					"type": "function"
				},
				{
					"inputs": [
						{
							"internalType": "address",
							"name": "spender",
							"type": "address"
						},
						{
							"internalType": "uint256",
							"name": "amount",
							"type": "uint256"
						}
					],
					"name": "approve",
					"outputs": [
						{
							"internalType": "bool",
							"name": "",
							"type": "bool"
						}
					],
					"stateMutability": "nonpayable",
					"type": "function"
				},
				{
					"inputs": [
						{
							"internalType": "address",
							"name": "account",
							"type": "address"
						}
					],
					"name": "balanceOf",
					"outputs": [
						{
							"internalType": "uint256",
							"name": "",
							"type": "uint256"
						}
					],
					"stateMutability": "view",
					"type": "function"
				},
				{
					"inputs": [
						{
							"internalType": "address",
							"name": "_address",
							"type": "address"
						},
						{
							"internalType": "bool",
							"name": "_isBlacklisting",
							"type": "bool"
						}
					],
					"name": "blacklist",
					"outputs": [],
					"stateMutability": "nonpayable",
					"type": "function"
				},
				{
					"inputs": [
						{
							"internalType": "address",
							"name": "",
							"type": "address"
						}
					],
					"name": "blacklists",
					"outputs": [
						{
							"internalType": "bool",
							"name": "",
							"type": "bool"
						}
					],
					"stateMutability": "view",
					"type": "function"
				},
				{
					"inputs": [
						{
							"internalType": "uint256",
							"name": "value",
							"type": "uint256"
						}
					],
					"name": "burn",
					"outputs": [],
					"stateMutability": "nonpayable",
					"type": "function"
				},
				{
					"inputs": [],
					"name": "decimals",
					"outputs": [
						{
							"internalType": "uint8",
							"name": "",
							"type": "uint8"
						}
					],
					"stateMutability": "view",
					"type": "function"
				},
				{
					"inputs": [
						{
							"internalType": "address",
							"name": "spender",
							"type": "address"
						},
						{
							"internalType": "uint256",
							"name": "subtractedValue",
							"type": "uint256"
						}
					],
					"name": "decreaseAllowance",
					"outputs": [
						{
							"internalType": "bool",
							"name": "",
							"type": "bool"
						}
					],
					"stateMutability": "nonpayable",
					"type": "function"
				},
				{
					"inputs": [
						{
							"internalType": "address",
							"name": "spender",
							"type": "address"
						},
						{
							"internalType": "uint256",
							"name": "addedValue",
							"type": "uint256"
						}
					],
					"name": "increaseAllowance",
					"outputs": [
						{
							"internalType": "bool",
							"name": "",
							"type": "bool"
						}
					],
					"stateMutability": "nonpayable",
					"type": "function"
				},
				{
					"inputs": [],
					"name": "limited",
					"outputs": [
						{
							"internalType": "bool",
							"name": "",
							"type": "bool"
						}
					],
					"stateMutability": "view",
					"type": "function"
				},
				{
					"inputs": [],
					"name": "maxHoldingAmount",
					"outputs": [
						{
							"internalType": "uint256",
							"name": "",
							"type": "uint256"
						}
					],
					"stateMutability": "view",
					"type": "function"
				},
				{
					"inputs": [],
					"name": "minHoldingAmount",
					"outputs": [
						{
							"internalType": "uint256",
							"name": "",
							"type": "uint256"
						}
					],
					"stateMutability": "view",
					"type": "function"
				},
				{
					"inputs": [],
					"name": "name",
					"outputs": [
						{
							"internalType": "string",
							"name": "",
							"type": "string"
						}
					],
					"stateMutability": "view",
					"type": "function"
				},
				{
					"inputs": [],
					"name": "owner",
					"outputs": [
						{
							"internalType": "address",
							"name": "",
							"type": "address"
						}
					],
					"stateMutability": "view",
					"type": "function"
				},
				{
					"inputs": [],
					"name": "renounceOwnership",
					"outputs": [],
					"stateMutability": "nonpayable",
					"type": "function"
				},
				{
					"inputs": [
						{
							"internalType": "bool",
							"name": "_limited",
							"type": "bool"
						},
						{
							"internalType": "address",
							"name": "_uniswapV2Pair",
							"type": "address"
						},
						{
							"internalType": "uint256",
							"name": "_maxHoldingAmount",
							"type": "uint256"
						},
						{
							"internalType": "uint256",
							"name": "_minHoldingAmount",
							"type": "uint256"
						}
					],
					"name": "setRule",
					"outputs": [],
					"stateMutability": "nonpayable",
					"type": "function"
				},
				{
					"inputs": [],
					"name": "symbol",
					"outputs": [
						{
							"internalType": "string",
							"name": "",
							"type": "string"
						}
					],
					"stateMutability": "view",
					"type": "function"
				},
				{
					"inputs": [],
					"name": "totalSupply",
					"outputs": [
						{
							"internalType": "uint256",
							"name": "",
							"type": "uint256"
						}
					],
					"stateMutability": "view",
					"type": "function"
				},
				{
					"inputs": [
						{
							"internalType": "address",
							"name": "recipient",
							"type": "address"
						},
						{
							"internalType": "uint256",
							"name": "amount",
							"type": "uint256"
						}
					],
					"name": "transfer",
					"outputs": [
						{
							"internalType": "bool",
							"name": "",
							"type": "bool"
						}
					],
					"stateMutability": "nonpayable",
					"type": "function"
				},
				{
					"inputs": [
						{
							"internalType": "address",
							"name": "sender",
							"type": "address"
						},
						{
							"internalType": "address",
							"name": "recipient",
							"type": "address"
						},
						{
							"internalType": "uint256",
							"name": "amount",
							"type": "uint256"
						}
					],
					"name": "transferFrom",
					"outputs": [
						{
							"internalType": "bool",
							"name": "",
							"type": "bool"
						}
					],
					"stateMutability": "nonpayable",
					"type": "function"
				},
				{
					"inputs": [
						{
							"internalType": "address",
							"name": "newOwner",
							"type": "address"
						}
					],
					"name": "transferOwnership",
					"outputs": [],
					"stateMutability": "nonpayable",
					"type": "function"
				},
				{
					"inputs": [],
					"name": "uniswapV2Pair",
					"outputs": [
						{
							"internalType": "address",
							"name": "",
							"type": "address"
						}
					],
					"stateMutability": "view",
					"type": "function"
				}
			],
			"devdoc": {
				"kind": "dev",
				"methods": {
					"decimals()": {
						"details": "Returns the decimals places of the token."
					},
					"name()": {
						"details": "Returns the name of the token."
					},
					"symbol()": {
						"details": "Returns the symbol of the token."
					}
				},
				"version": 1
			},
			"evm": {
				"assembly": "    /* \"contracts/pepe.sol\":7574:9016  contract FepeToken is Ownable, ERC20 {... */\n  mstore(0x40, 0x80)\n    /* \"contracts/pepe.sol\":7806:7897  constructor() ERC20(\"Fepe\", \"FEPE\") {... */\n  callvalue\n  dup1\n  iszero\n  tag_1\n  jumpi\n  0x00\n  dup1\n  revert\ntag_1:\n  pop\n    /* \"contracts/pepe.sol\":2791:2907  constructor(string memory name_, string memory symbol_) {... */\n  mload(0x40)\n  dup1\n  0x40\n  add\n  0x40\n  mstore\n  dup1\n  0x04\n  dup2\n  mstore\n  0x20\n  add\n  shl(0xe0, 0x46657065)\n  dup2\n  mstore\n  pop\n  mload(0x40)\n  dup1\n  0x40\n  add\n  0x40\n  mstore\n  dup1\n  0x04\n  dup2\n  mstore\n  0x20\n  add\n  shl(0xe0, 0x46455045)\n  dup2\n  mstore\n  pop\n    /* \"contracts/pepe.sol\":514:546  _transferOwnership(_msgSender()) */\n  tag_6\n    /* \"contracts/pepe.sol\":533:545  _msgSender() */\n  tag_7\n    /* \"contracts/pepe.sol\":533:543  _msgSender */\n  shl(0x20, tag_8)\n    /* \"contracts/pepe.sol\":533:545  _msgSender() */\n  0x20\n  shr\n  jump\t// in\ntag_7:\n    /* \"contracts/pepe.sol\":514:532  _transferOwnership */\n  tag_9\n    /* \"contracts/pepe.sol\":514:546  _transferOwnership(_msgSender()) */\n  jump\t// in\ntag_6:\n    /* \"contracts/pepe.sol\":2858:2863  _name */\n  0x04\n    /* \"contracts/pepe.sol\":2858:2871  _name = name_ */\n  tag_11\n    /* \"contracts/pepe.sol\":2866:2871  name_ */\n  dup4\n    /* \"contracts/pepe.sol\":2858:2863  _name */\n  dup3\n    /* \"contracts/pepe.sol\":2858:2871  _name = name_ */\n  tag_12\n  jump\t// in\ntag_11:\n  pop\n    /* \"contracts/pepe.sol\":2882:2889  _symbol */\n  0x05\n    /* \"contracts/pepe.sol\":2882:2899  _symbol = symbol_ */\n  tag_13\n    /* \"contracts/pepe.sol\":2892:2899  symbol_ */\n  dup3\n    /* \"contracts/pepe.sol\":2882:2889  _symbol */\n  dup3\n    /* \"contracts/pepe.sol\":2882:2899  _symbol = symbol_ */\n  tag_12\n  jump\t// in\ntag_13:\n  pop\n    /* \"contracts/pepe.sol\":2791:2907  constructor(string memory name_, string memory symbol_) {... */\n  pop\n  pop\n    /* \"contracts/pepe.sol\":7853:7889  _mint(msg.sender, 20000000 * 10**18) */\n  tag_15\n    /* \"contracts/pepe.sol\":7859:7869  msg.sender */\n  caller\n    /* \"contracts/pepe.sol\":7871:7888  20000000 * 10**18 */\n  0x108b2a2c28029094000000\n    /* \"contracts/pepe.sol\":7853:7858  _mint */\n  shl(0x20, tag_16)\n    /* \"contracts/pepe.sol\":7853:7889  _mint(msg.sender, 20000000 * 10**18) */\n  0x20\n  shr\n  jump\t// in\ntag_15:\n    /* \"contracts/pepe.sol\":7574:9016  contract FepeToken is Ownable, ERC20 {... */\n  jump(tag_65)\n    /* \"contracts/pepe.sol\":102:200  function _msgSender() internal view virtual returns (address) {... */\ntag_8:\n    /* \"contracts/pepe.sol\":182:192  msg.sender */\n  caller\n  swap1\n    /* \"contracts/pepe.sol\":102:200  function _msgSender() internal view virtual returns (address) {... */\n  jump\t// out\n    /* \"contracts/pepe.sol\":1114:1305  function _transferOwnership(address newOwner) internal virtual {... */\ntag_9:\n    /* \"contracts/pepe.sol\":1188:1204  address oldOwner */\n  0x00\n    /* \"contracts/pepe.sol\":1207:1213  _owner */\n  dup1\n  sload\n  sub(shl(0xa0, 0x01), 0x01)\n    /* \"contracts/pepe.sol\":1224:1241  _owner = newOwner */\n  dup4\n  dup2\n  and\n  not(sub(shl(0xa0, 0x01), 0x01))\n  dup4\n  and\n  dup2\n  or\n  dup5\n  sstore\n    /* \"contracts/pepe.sol\":1257:1297  OwnershipTransferred(oldOwner, newOwner) */\n  mload(0x40)\n    /* \"contracts/pepe.sol\":1207:1213  _owner */\n  swap2\n  swap1\n  swap3\n  and\n  swap3\n  dup4\n  swap2\n    /* \"contracts/pepe.sol\":1257:1297  OwnershipTransferred(oldOwner, newOwner) */\n  0x8be0079c531659141344cd1fd0a4f28419497f9722a3daafe3b4186f6b6457e0\n  swap2\n    /* \"contracts/pepe.sol\":1188:1204  address oldOwner */\n  swap1\n    /* \"contracts/pepe.sol\":1257:1297  OwnershipTransferred(oldOwner, newOwner) */\n  log3\n    /* \"contracts/pepe.sol\":1177:1305  {... */\n  pop\n    /* \"contracts/pepe.sol\":1114:1305  function _transferOwnership(address newOwner) internal virtual {... */\n  pop\n  jump\t// out\n    /* \"contracts/pepe.sol\":5914:6313  function _mint(address account, uint256 amount) internal virtual {... */\ntag_16:\n  sub(shl(0xa0, 0x01), 0x01)\n    /* \"contracts/pepe.sol\":5998:6019  account != address(0) */\n  dup3\n  and\n    /* \"contracts/pepe.sol\":5990:6055  require(account != address(0), \"ERC20: mint to the zero address\") */\n  tag_21\n  jumpi\n  mload(0x40)\n  shl(0xe5, 0x461bcd)\n  dup2\n  mstore\n    /* \"#utility.yul\":2937:2939   */\n  0x20\n    /* \"contracts/pepe.sol\":5990:6055  require(account != address(0), \"ERC20: mint to the zero address\") */\n  0x04\n  dup3\n  add\n    /* \"#utility.yul\":2919:2940   */\n  mstore\n    /* \"#utility.yul\":2976:2978   */\n  0x1f\n    /* \"#utility.yul\":2956:2974   */\n  0x24\n  dup3\n  add\n    /* \"#utility.yul\":2949:2979   */\n  mstore\n    /* \"#utility.yul\":3015:3048   */\n  0x45524332303a206d696e7420746f20746865207a65726f206164647265737300\n    /* \"#utility.yul\":2995:3013   */\n  0x44\n  dup3\n  add\n    /* \"#utility.yul\":2988:3049   */\n  mstore\n    /* \"#utility.yul\":3066:3084   */\n  0x64\n  add\n    /* \"contracts/pepe.sol\":5990:6055  require(account != address(0), \"ERC20: mint to the zero address\") */\ntag_22:\n  mload(0x40)\n  dup1\n  swap2\n  sub\n  swap1\n  revert\ntag_21:\n    /* \"contracts/pepe.sol\":6068:6117  _beforeTokenTransfer(address(0), account, amount) */\n  tag_24\n    /* \"contracts/pepe.sol\":6097:6098  0 */\n  0x00\n    /* \"contracts/pepe.sol\":6101:6108  account */\n  dup4\n    /* \"contracts/pepe.sol\":6110:6116  amount */\n  dup4\n    /* \"contracts/pepe.sol\":6068:6088  _beforeTokenTransfer */\n  tag_25\n    /* \"contracts/pepe.sol\":6068:6117  _beforeTokenTransfer(address(0), account, amount) */\n  jump\t// in\ntag_24:\n    /* \"contracts/pepe.sol\":6146:6152  amount */\n  dup1\n    /* \"contracts/pepe.sol\":6130:6142  _totalSupply */\n  0x03\n  0x00\n    /* \"contracts/pepe.sol\":6130:6152  _totalSupply += amount */\n  dup3\n  dup3\n  sload\n  tag_26\n  swap2\n  swap1\n  tag_27\n  jump\t// in\ntag_26:\n  swap1\n  swap2\n  sstore\n  pop\n  pop\n  sub(shl(0xa0, 0x01), 0x01)\n    /* \"contracts/pepe.sol\":6163:6181  _balances[account] */\n  dup3\n  and\n  0x00\n  swap1\n  dup2\n  mstore\n    /* \"contracts/pepe.sol\":6163:6172  _balances */\n  0x01\n    /* \"contracts/pepe.sol\":6163:6181  _balances[account] */\n  0x20\n  mstore\n  0x40\n  dup2\n  keccak256\n    /* \"contracts/pepe.sol\":6163:6191  _balances[account] += amount */\n  dup1\n  sload\n    /* \"contracts/pepe.sol\":6185:6191  amount */\n  dup4\n  swap3\n    /* \"contracts/pepe.sol\":6163:6181  _balances[account] */\n  swap1\n    /* \"contracts/pepe.sol\":6163:6191  _balances[account] += amount */\n  tag_28\n  swap1\n    /* \"contracts/pepe.sol\":6185:6191  amount */\n  dup5\n  swap1\n    /* \"contracts/pepe.sol\":6163:6191  _balances[account] += amount */\n  tag_27\n  jump\t// in\ntag_28:\n  swap1\n  swap2\n  sstore\n  pop\n  pop\n    /* \"contracts/pepe.sol\":6207:6244  Transfer(address(0), account, amount) */\n  mload(0x40)\n    /* \"#utility.yul\":3468:3493   */\n  dup2\n  dup2\n  mstore\n  sub(shl(0xa0, 0x01), 0x01)\n    /* \"contracts/pepe.sol\":6207:6244  Transfer(address(0), account, amount) */\n  dup4\n  and\n  swap1\n    /* \"contracts/pepe.sol\":6224:6225  0 */\n  0x00\n  swap1\n    /* \"contracts/pepe.sol\":6207:6244  Transfer(address(0), account, amount) */\n  0xddf252ad1be2c89b69c2b068fc378daa952ba7f163c4a11628f55a4df523b3ef\n  swap1\n    /* \"#utility.yul\":3456:3458   */\n  0x20\n    /* \"#utility.yul\":3441:3459   */\n  add\n    /* \"contracts/pepe.sol\":6207:6244  Transfer(address(0), account, amount) */\n  mload(0x40)\n  dup1\n  swap2\n  sub\n  swap1\n  log3\n    /* \"contracts/pepe.sol\":5914:6313  function _mint(address account, uint256 amount) internal virtual {... */\n  pop\n  pop\n  jump\t// out\n    /* \"contracts/pepe.sol\":8357:8924  function _beforeTokenTransfer(... */\ntag_25:\n  sub(shl(0xa0, 0x01), 0x01)\n    /* \"contracts/pepe.sol\":8509:8523  blacklists[to] */\n  dup3\n  and\n  0x00\n  swap1\n  dup2\n  mstore\n    /* \"contracts/pepe.sol\":8509:8519  blacklists */\n  0x0a\n    /* \"contracts/pepe.sol\":8509:8523  blacklists[to] */\n  0x20\n  mstore\n  0x40\n  swap1\n  keccak256\n  sload\n  0xff\n  and\n    /* \"contracts/pepe.sol\":8508:8523  !blacklists[to] */\n  iszero\n    /* \"contracts/pepe.sol\":8508:8544  !blacklists[to] && !blacklists[from] */\n  dup1\n  iszero\n  tag_34\n  jumpi\n  pop\n  sub(shl(0xa0, 0x01), 0x01)\n    /* \"contracts/pepe.sol\":8528:8544  blacklists[from] */\n  dup4\n  and\n  0x00\n  swap1\n  dup2\n  mstore\n    /* \"contracts/pepe.sol\":8528:8538  blacklists */\n  0x0a\n    /* \"contracts/pepe.sol\":8528:8544  blacklists[from] */\n  0x20\n  mstore\n  0x40\n  swap1\n  keccak256\n  sload\n  0xff\n  and\n    /* \"contracts/pepe.sol\":8527:8544  !blacklists[from] */\n  iszero\n    /* \"contracts/pepe.sol\":8508:8544  !blacklists[to] && !blacklists[from] */\ntag_34:\n    /* \"contracts/pepe.sol\":8500:8560  require(!blacklists[to] && !blacklists[from], \"Blacklisted\") */\n  tag_35\n  jumpi\n  mload(0x40)\n  shl(0xe5, 0x461bcd)\n  dup2\n  mstore\n    /* \"#utility.yul\":3706:3708   */\n  0x20\n    /* \"contracts/pepe.sol\":8500:8560  require(!blacklists[to] && !blacklists[from], \"Blacklisted\") */\n  0x04\n  dup3\n  add\n    /* \"#utility.yul\":3688:3709   */\n  mstore\n    /* \"#utility.yul\":3745:3747   */\n  0x0b\n    /* \"#utility.yul\":3725:3743   */\n  0x24\n  dup3\n  add\n    /* \"#utility.yul\":3718:3748   */\n  mstore\n  shl(0xaa, 0x109b1858dadb1a5cdd1959)\n    /* \"#utility.yul\":3764:3782   */\n  0x44\n  dup3\n  add\n    /* \"#utility.yul\":3757:3798   */\n  mstore\n    /* \"#utility.yul\":3815:3833   */\n  0x64\n  add\n    /* \"contracts/pepe.sol\":8500:8560  require(!blacklists[to] && !blacklists[from], \"Blacklisted\") */\n  tag_22\n    /* \"#utility.yul\":3504:3839   */\n  jump\n    /* \"contracts/pepe.sol\":8500:8560  require(!blacklists[to] && !blacklists[from], \"Blacklisted\") */\ntag_35:\n    /* \"contracts/pepe.sol\":8577:8590  uniswapV2Pair */\n  and(sub(shl(0xa0, 0x01), 0x01), sload(0x09))\n    /* \"contracts/pepe.sol\":8573:8721  if (uniswapV2Pair == address(0)) {... */\n  tag_38\n  jumpi\n    /* \"contracts/pepe.sol\":612:619  address */\n  0x00\n    /* \"contracts/pepe.sol\":639:645  _owner */\n  sload\n  sub(shl(0xa0, 0x01), 0x01)\n    /* \"contracts/pepe.sol\":8629:8644  from == owner() */\n  dup5\n  dup2\n  and\n    /* \"contracts/pepe.sol\":639:645  _owner */\n  swap2\n  and\n    /* \"contracts/pepe.sol\":8629:8644  from == owner() */\n  eq\n  dup1\n    /* \"contracts/pepe.sol\":8629:8661  from == owner() || to == owner() */\n  tag_41\n  jumpi\n  pop\n    /* \"contracts/pepe.sol\":612:619  address */\n  0x00\n    /* \"contracts/pepe.sol\":639:645  _owner */\n  sload\n  sub(shl(0xa0, 0x01), 0x01)\n    /* \"contracts/pepe.sol\":8648:8661  to == owner() */\n  dup4\n  dup2\n  and\n    /* \"contracts/pepe.sol\":639:645  _owner */\n  swap2\n  and\n    /* \"contracts/pepe.sol\":8648:8661  to == owner() */\n  eq\n    /* \"contracts/pepe.sol\":8629:8661  from == owner() || to == owner() */\ntag_41:\n    /* \"contracts/pepe.sol\":8621:8688  require(from == owner() || to == owner(), \"trading is not started\") */\n  tag_43\n  jumpi\n  mload(0x40)\n  shl(0xe5, 0x461bcd)\n  dup2\n  mstore\n    /* \"#utility.yul\":4046:4048   */\n  0x20\n    /* \"contracts/pepe.sol\":8621:8688  require(from == owner() || to == owner(), \"trading is not started\") */\n  0x04\n  dup3\n  add\n    /* \"#utility.yul\":4028:4049   */\n  mstore\n    /* \"#utility.yul\":4085:4087   */\n  0x16\n    /* \"#utility.yul\":4065:4083   */\n  0x24\n  dup3\n  add\n    /* \"#utility.yul\":4058:4088   */\n  mstore\n    /* \"#utility.yul\":4124:4148   */\n  0x74726164696e67206973206e6f74207374617274656400000000000000000000\n    /* \"#utility.yul\":4104:4122   */\n  0x44\n  dup3\n  add\n    /* \"#utility.yul\":4097:4149   */\n  mstore\n    /* \"#utility.yul\":4166:4184   */\n  0x64\n  add\n    /* \"contracts/pepe.sol\":8621:8688  require(from == owner() || to == owner(), \"trading is not started\") */\n  tag_22\n    /* \"#utility.yul\":3844:4190   */\n  jump\n    /* \"contracts/pepe.sol\":8621:8688  require(from == owner() || to == owner(), \"trading is not started\") */\ntag_43:\n    /* \"contracts/pepe.sol\":8357:8924  function _beforeTokenTransfer(... */\n  pop\n  pop\n  pop\n  jump\t// out\n    /* \"contracts/pepe.sol\":8573:8721  if (uniswapV2Pair == address(0)) {... */\ntag_38:\n    /* \"contracts/pepe.sol\":8737:8744  limited */\n  and(0xff, sload(0x06))\n    /* \"contracts/pepe.sol\":8737:8769  limited && from == uniswapV2Pair */\n  dup1\n  iszero\n  tag_46\n  jumpi\n  pop\n    /* \"contracts/pepe.sol\":8756:8769  uniswapV2Pair */\n  sload(0x09)\n  sub(shl(0xa0, 0x01), 0x01)\n    /* \"contracts/pepe.sol\":8748:8769  from == uniswapV2Pair */\n  dup5\n  dup2\n  and\n    /* \"contracts/pepe.sol\":8756:8769  uniswapV2Pair */\n  swap2\n  and\n    /* \"contracts/pepe.sol\":8748:8769  from == uniswapV2Pair */\n  eq\n    /* \"contracts/pepe.sol\":8737:8769  limited && from == uniswapV2Pair */\ntag_46:\n    /* \"contracts/pepe.sol\":8733:8917  if (limited && from == uniswapV2Pair) {... */\n  iszero\n  tag_43\n  jumpi\n    /* \"contracts/pepe.sol\":8826:8842  maxHoldingAmount */\n  sload(0x07)\n    /* \"contracts/pepe.sol\":8816:8822  amount */\n  dup2\n    /* \"contracts/pepe.sol\":8794:8813  super.balanceOf(to) */\n  tag_48\n    /* \"contracts/pepe.sol\":8810:8812  to */\n  dup5\n    /* \"contracts/pepe.sol\":8794:8809  super.balanceOf */\n  or(tag_0_81, shl(0x20, tag_49))\n    /* \"contracts/pepe.sol\":8794:8813  super.balanceOf(to) */\n  0x20\n  shr\n  jump\t// in\ntag_48:\n    /* \"contracts/pepe.sol\":8794:8822  super.balanceOf(to) + amount */\n  tag_50\n  swap2\n  swap1\n  tag_27\n  jump\t// in\ntag_50:\n    /* \"contracts/pepe.sol\":8794:8842  super.balanceOf(to) + amount <= maxHoldingAmount */\n  gt\n  iszero\n    /* \"contracts/pepe.sol\":8794:8894  super.balanceOf(to) + amount <= maxHoldingAmount && super.balanceOf(to) + amount >= minHoldingAmount */\n  dup1\n  iszero\n  tag_51\n  jumpi\n  pop\n    /* \"contracts/pepe.sol\":8878:8894  minHoldingAmount */\n  sload(0x08)\n    /* \"contracts/pepe.sol\":8868:8874  amount */\n  dup2\n    /* \"contracts/pepe.sol\":8846:8865  super.balanceOf(to) */\n  tag_52\n    /* \"contracts/pepe.sol\":8862:8864  to */\n  dup5\n    /* \"contracts/pepe.sol\":8846:8861  super.balanceOf */\n  or(tag_0_81, shl(0x20, tag_49))\n    /* \"contracts/pepe.sol\":8846:8865  super.balanceOf(to) */\n  0x20\n  shr\n  jump\t// in\ntag_52:\n    /* \"contracts/pepe.sol\":8846:8874  super.balanceOf(to) + amount */\n  tag_53\n  swap2\n  swap1\n  tag_27\n  jump\t// in\ntag_53:\n    /* \"contracts/pepe.sol\":8846:8894  super.balanceOf(to) + amount >= minHoldingAmount */\n  lt\n  iszero\n    /* \"contracts/pepe.sol\":8794:8894  super.balanceOf(to) + amount <= maxHoldingAmount && super.balanceOf(to) + amount >= minHoldingAmount */\ntag_51:\n    /* \"contracts/pepe.sol\":8786:8905  require(super.balanceOf(to) + amount <= maxHoldingAmount && super.balanceOf(to) + amount >= minHoldingAmount, \"Forbid\") */\n  tag_43\n  jumpi\n  mload(0x40)\n  shl(0xe5, 0x461bcd)\n  dup2\n  mstore\n    /* \"#utility.yul\":4397:4399   */\n  0x20\n    /* \"contracts/pepe.sol\":8786:8905  require(super.balanceOf(to) + amount <= maxHoldingAmount && super.balanceOf(to) + amount >= minHoldingAmount, \"Forbid\") */\n  0x04\n  dup3\n  add\n    /* \"#utility.yul\":4379:4400   */\n  mstore\n    /* \"#utility.yul\":4436:4437   */\n  0x06\n    /* \"#utility.yul\":4416:4434   */\n  0x24\n  dup3\n  add\n    /* \"#utility.yul\":4409:4438   */\n  mstore\n  shl(0xd2, 0x119bdc989a59)\n    /* \"#utility.yul\":4454:4472   */\n  0x44\n  dup3\n  add\n    /* \"#utility.yul\":4447:4483   */\n  mstore\n    /* \"#utility.yul\":4500:4518   */\n  0x64\n  add\n    /* \"contracts/pepe.sol\":8786:8905  require(super.balanceOf(to) + amount <= maxHoldingAmount && super.balanceOf(to) + amount >= minHoldingAmount, \"Forbid\") */\n  tag_22\n    /* \"#utility.yul\":4195:4524   */\n  jump\n    /* \"contracts/pepe.sol\":3368:3495  function balanceOf(address account) public view virtual override returns (uint256) {... */\ntag_49:\n  sub(shl(0xa0, 0x01), 0x01)\n    /* \"contracts/pepe.sol\":3469:3487  _balances[account] */\n  and\n    /* \"contracts/pepe.sol\":3442:3449  uint256 */\n  0x00\n    /* \"contracts/pepe.sol\":3469:3487  _balances[account] */\n  swap1\n  dup2\n  mstore\n    /* \"contracts/pepe.sol\":3469:3478  _balances */\n  0x01\n    /* \"contracts/pepe.sol\":3469:3487  _balances[account] */\n  0x20\n  mstore\n  0x40\n  swap1\n  keccak256\n  sload\n  swap1\n    /* \"contracts/pepe.sol\":3368:3495  function balanceOf(address account) public view virtual override returns (uint256) {... */\n  jump\t// out\n    /* \"#utility.yul\":14:141   */\ntag_60:\n    /* \"#utility.yul\":75:85   */\n  0x4e487b71\n    /* \"#utility.yul\":70:73   */\n  0xe0\n    /* \"#utility.yul\":66:86   */\n  shl\n    /* \"#utility.yul\":63:64   */\n  0x00\n    /* \"#utility.yul\":56:87   */\n  mstore\n    /* \"#utility.yul\":106:110   */\n  0x41\n    /* \"#utility.yul\":103:104   */\n  0x04\n    /* \"#utility.yul\":96:111   */\n  mstore\n    /* \"#utility.yul\":130:134   */\n  0x24\n    /* \"#utility.yul\":127:128   */\n  0x00\n    /* \"#utility.yul\":120:135   */\n  revert\n    /* \"#utility.yul\":146:526   */\ntag_61:\n    /* \"#utility.yul\":225:226   */\n  0x01\n    /* \"#utility.yul\":221:233   */\n  dup2\n  dup2\n  shr\n  swap1\n    /* \"#utility.yul\":268:280   */\n  dup3\n  and\n  dup1\n    /* \"#utility.yul\":289:350   */\n  tag_68\n  jumpi\n    /* \"#utility.yul\":343:347   */\n  0x7f\n    /* \"#utility.yul\":335:341   */\n  dup3\n    /* \"#utility.yul\":331:348   */\n  and\n    /* \"#utility.yul\":321:348   */\n  swap2\n  pop\n    /* \"#utility.yul\":289:350   */\ntag_68:\n    /* \"#utility.yul\":396:398   */\n  0x20\n    /* \"#utility.yul\":388:394   */\n  dup3\n    /* \"#utility.yul\":385:399   */\n  lt\n    /* \"#utility.yul\":365:383   */\n  dup2\n    /* \"#utility.yul\":362:400   */\n  sub\n    /* \"#utility.yul\":359:520   */\n  tag_69\n  jumpi\n    /* \"#utility.yul\":442:452   */\n  0x4e487b71\n    /* \"#utility.yul\":437:440   */\n  0xe0\n    /* \"#utility.yul\":433:453   */\n  shl\n    /* \"#utility.yul\":430:431   */\n  0x00\n    /* \"#utility.yul\":423:454   */\n  mstore\n    /* \"#utility.yul\":477:481   */\n  0x22\n    /* \"#utility.yul\":474:475   */\n  0x04\n    /* \"#utility.yul\":467:482   */\n  mstore\n    /* \"#utility.yul\":505:509   */\n  0x24\n    /* \"#utility.yul\":502:503   */\n  0x00\n    /* \"#utility.yul\":495:510   */\n  revert\n    /* \"#utility.yul\":359:520   */\ntag_69:\n  pop\n    /* \"#utility.yul\":146:526   */\n  swap2\n  swap1\n  pop\n  jump\t// out\n    /* \"#utility.yul\":657:1202   */\ntag_63:\n    /* \"#utility.yul\":759:761   */\n  0x1f\n    /* \"#utility.yul\":754:757   */\n  dup3\n    /* \"#utility.yul\":751:762   */\n  gt\n    /* \"#utility.yul\":748:1196   */\n  iszero\n  tag_43\n  jumpi\n    /* \"#utility.yul\":795:796   */\n  0x00\n    /* \"#utility.yul\":820:825   */\n  dup2\n    /* \"#utility.yul\":816:818   */\n  dup2\n    /* \"#utility.yul\":809:826   */\n  mstore\n    /* \"#utility.yul\":865:869   */\n  0x20\n    /* \"#utility.yul\":861:863   */\n  dup2\n    /* \"#utility.yul\":851:870   */\n  keccak256\n    /* \"#utility.yul\":935:937   */\n  0x1f\n    /* \"#utility.yul\":923:933   */\n  dup6\n    /* \"#utility.yul\":919:938   */\n  add\n    /* \"#utility.yul\":916:917   */\n  0x05\n    /* \"#utility.yul\":912:939   */\n  shr\n    /* \"#utility.yul\":906:910   */\n  dup2\n    /* \"#utility.yul\":902:940   */\n  add\n    /* \"#utility.yul\":971:975   */\n  0x20\n    /* \"#utility.yul\":959:969   */\n  dup7\n    /* \"#utility.yul\":956:976   */\n  lt\n    /* \"#utility.yul\":953:1000   */\n  iszero\n  tag_73\n  jumpi\n  pop\n    /* \"#utility.yul\":994:998   */\n  dup1\n    /* \"#utility.yul\":953:1000   */\ntag_73:\n    /* \"#utility.yul\":1049:1051   */\n  0x1f\n    /* \"#utility.yul\":1044:1047   */\n  dup6\n    /* \"#utility.yul\":1040:1052   */\n  add\n    /* \"#utility.yul\":1037:1038   */\n  0x05\n    /* \"#utility.yul\":1033:1053   */\n  shr\n    /* \"#utility.yul\":1027:1031   */\n  dup3\n    /* \"#utility.yul\":1023:1054   */\n  add\n    /* \"#utility.yul\":1013:1054   */\n  swap2\n  pop\n    /* \"#utility.yul\":1104:1186   */\ntag_74:\n    /* \"#utility.yul\":1122:1124   */\n  dup2\n    /* \"#utility.yul\":1115:1120   */\n  dup2\n    /* \"#utility.yul\":1112:1125   */\n  lt\n    /* \"#utility.yul\":1104:1186   */\n  iszero\n  tag_76\n  jumpi\n    /* \"#utility.yul\":1167:1184   */\n  dup3\n  dup2\n  sstore\n    /* \"#utility.yul\":1148:1149   */\n  0x01\n    /* \"#utility.yul\":1137:1150   */\n  add\n    /* \"#utility.yul\":1104:1186   */\n  jump(tag_74)\ntag_76:\n    /* \"#utility.yul\":1108:1111   */\n  pop\n  pop\n  pop\n    /* \"#utility.yul\":657:1202   */\n  pop\n  pop\n  pop\n  jump\t// out\n    /* \"#utility.yul\":1378:2730   */\ntag_12:\n    /* \"#utility.yul\":1498:1508   */\n  dup2\n  mload\n  sub(shl(0x40, 0x01), 0x01)\n    /* \"#utility.yul\":1520:1550   */\n  dup2\n  gt\n    /* \"#utility.yul\":1517:1573   */\n  iszero\n  tag_80\n  jumpi\n    /* \"#utility.yul\":1553:1571   */\n  tag_80\n  tag_60\n  jump\t// in\ntag_80:\n    /* \"#utility.yul\":1582:1679   */\n  tag_81\n    /* \"#utility.yul\":1672:1678   */\n  dup2\n    /* \"#utility.yul\":1632:1670   */\n  tag_82\n    /* \"#utility.yul\":1664:1668   */\n  dup5\n    /* \"#utility.yul\":1658:1669   */\n  sload\n    /* \"#utility.yul\":1632:1670   */\n  tag_61\n  jump\t// in\ntag_82:\n    /* \"#utility.yul\":1626:1630   */\n  dup5\n    /* \"#utility.yul\":1582:1679   */\n  tag_63\n  jump\t// in\ntag_81:\n    /* \"#utility.yul\":1734:1738   */\n  0x20\n  dup1\n    /* \"#utility.yul\":1798:1800   */\n  0x1f\n    /* \"#utility.yul\":1787:1801   */\n  dup4\n  gt\n    /* \"#utility.yul\":1815:1816   */\n  0x01\n    /* \"#utility.yul\":1810:2473   */\n  dup2\n  eq\n  tag_84\n  jumpi\n    /* \"#utility.yul\":2517:2518   */\n  0x00\n    /* \"#utility.yul\":2534:2540   */\n  dup5\n    /* \"#utility.yul\":2531:2620   */\n  iszero\n  tag_85\n  jumpi\n  pop\n    /* \"#utility.yul\":2586:2605   */\n  dup6\n  dup4\n  add\n    /* \"#utility.yul\":2580:2606   */\n  mload\n    /* \"#utility.yul\":2531:2620   */\ntag_85:\n  not(0x00)\n    /* \"#utility.yul\":1335:1336   */\n  0x03\n    /* \"#utility.yul\":1331:1342   */\n  dup7\n  swap1\n  shl\n    /* \"#utility.yul\":1327:1351   */\n  shr\n    /* \"#utility.yul\":1323:1352   */\n  not\n    /* \"#utility.yul\":1313:1353   */\n  and\n    /* \"#utility.yul\":1359:1360   */\n  0x01\n    /* \"#utility.yul\":1355:1366   */\n  dup6\n  swap1\n  shl\n    /* \"#utility.yul\":1310:1367   */\n  or\n    /* \"#utility.yul\":2633:2714   */\n  dup6\n  sstore\n    /* \"#utility.yul\":1780:2724   */\n  jump(tag_76)\n    /* \"#utility.yul\":1810:2473   */\ntag_84:\n    /* \"#utility.yul\":604:605   */\n  0x00\n    /* \"#utility.yul\":597:611   */\n  dup6\n  dup2\n  mstore\n    /* \"#utility.yul\":641:645   */\n  0x20\n    /* \"#utility.yul\":628:646   */\n  dup2\n  keccak256\n  not(0x1f)\n    /* \"#utility.yul\":1846:1866   */\n  dup7\n  and\n  swap2\n    /* \"#utility.yul\":1964:2200   */\ntag_88:\n    /* \"#utility.yul\":1978:1985   */\n  dup3\n    /* \"#utility.yul\":1975:1976   */\n  dup2\n    /* \"#utility.yul\":1972:1986   */\n  lt\n    /* \"#utility.yul\":1964:2200   */\n  iszero\n  tag_90\n  jumpi\n    /* \"#utility.yul\":2067:2086   */\n  dup9\n  dup7\n  add\n    /* \"#utility.yul\":2061:2087   */\n  mload\n    /* \"#utility.yul\":2046:2088   */\n  dup3\n  sstore\n    /* \"#utility.yul\":2159:2186   */\n  swap5\n  dup5\n  add\n  swap5\n    /* \"#utility.yul\":2127:2128   */\n  0x01\n    /* \"#utility.yul\":2115:2129   */\n  swap1\n  swap2\n  add\n  swap1\n    /* \"#utility.yul\":1994:2013   */\n  dup5\n  add\n    /* \"#utility.yul\":1964:2200   */\n  jump(tag_88)\ntag_90:\n    /* \"#utility.yul\":1968:1971   */\n  pop\n    /* \"#utility.yul\":2228:2234   */\n  dup6\n    /* \"#utility.yul\":2219:2226   */\n  dup3\n    /* \"#utility.yul\":2216:2235   */\n  lt\n    /* \"#utility.yul\":2213:2414   */\n  iszero\n  tag_91\n  jumpi\n    /* \"#utility.yul\":2289:2308   */\n  dup8\n  dup6\n  add\n    /* \"#utility.yul\":2283:2309   */\n  mload\n  not(0x00)\n    /* \"#utility.yul\":2372:2373   */\n  0x03\n    /* \"#utility.yul\":2368:2382   */\n  dup9\n  swap1\n  shl\n    /* \"#utility.yul\":2384:2387   */\n  0xf8\n    /* \"#utility.yul\":2364:2388   */\n  and\n    /* \"#utility.yul\":2360:2397   */\n  shr\n    /* \"#utility.yul\":2356:2398   */\n  not\n    /* \"#utility.yul\":2341:2399   */\n  and\n    /* \"#utility.yul\":2326:2400   */\n  dup2\n  sstore\n    /* \"#utility.yul\":2213:2414   */\ntag_91:\n  pop\n  pop\n  pop\n  pop\n  pop\n    /* \"#utility.yul\":2460:2461   */\n  0x01\n    /* \"#utility.yul\":2444:2458   */\n  swap1\n  dup2\n  shl\n    /* \"#utility.yul\":2440:2462   */\n  add\n    /* \"#utility.yul\":2427:2463   */\n  swap1\n  sstore\n  pop\n    /* \"#utility.yul\":1378:2730   */\n  jump\t// out\n    /* \"#utility.yul\":3095:3317   */\ntag_27:\n    /* \"#utility.yul\":3160:3169   */\n  dup1\n  dup3\n  add\n    /* \"#utility.yul\":3181:3191   */\n  dup1\n  dup3\n  gt\n    /* \"#utility.yul\":3178:3311   */\n  iszero\n  tag_94\n  jumpi\n    /* \"#utility.yul\":3233:3243   */\n  0x4e487b71\n    /* \"#utility.yul\":3228:3231   */\n  0xe0\n    /* \"#utility.yul\":3224:3244   */\n  shl\n    /* \"#utility.yul\":3221:3222   */\n  0x00\n    /* \"#utility.yul\":3214:3245   */\n  mstore\n    /* \"#utility.yul\":3268:3272   */\n  0x11\n    /* \"#utility.yul\":3265:3266   */\n  0x04\n    /* \"#utility.yul\":3258:3273   */\n  mstore\n    /* \"#utility.yul\":3296:3300   */\n  0x24\n    /* \"#utility.yul\":3293:3294   */\n  0x00\n    /* \"#utility.yul\":3286:3301   */\n  revert\n    /* \"#utility.yul\":3178:3311   */\ntag_94:\n    /* \"#utility.yul\":3095:3317   */\n  swap3\n  swap2\n  pop\n  pop\n  jump\t// out\n    /* \"#utility.yul\":4195:4524   */\ntag_65:\n    /* \"contracts/pepe.sol\":7574:9016  contract FepeToken is Ownable, ERC20 {... */\n  dataSize(sub_0)\n  dup1\n  dataOffset(sub_0)\n  0x00\n  codecopy\n  0x00\n  return\nstop\n\nsub_0: assembly {\n        /* \"contracts/pepe.sol\":7574:9016  contract FepeToken is Ownable, ERC20 {... */\n      mstore(0x40, 0x80)\n      callvalue\n      dup1\n      iszero\n      tag_1\n      jumpi\n      0x00\n      dup1\n      revert\n    tag_1:\n      pop\n      jumpi(tag_2, lt(calldatasize, 0x04))\n      shr(0xe0, calldataload(0x00))\n      dup1\n      0x49bd5a5e\n      gt\n      tag_25\n      jumpi\n      dup1\n      0x8da5cb5b\n      gt\n      tag_26\n      jumpi\n      dup1\n      0x8da5cb5b\n      eq\n      tag_19\n      jumpi\n      dup1\n      0x95d89b41\n      eq\n      tag_20\n      jumpi\n      dup1\n      0xa457c2d7\n      eq\n      tag_21\n      jumpi\n      dup1\n      0xa9059cbb\n      eq\n      tag_22\n      jumpi\n      dup1\n      0xdd62ed3e\n      eq\n      tag_23\n      jumpi\n      dup1\n      0xf2fde38b\n      eq\n      tag_24\n      jumpi\n      0x00\n      dup1\n      revert\n    tag_26:\n      dup1\n      0x49bd5a5e\n      eq\n      tag_14\n      jumpi\n      dup1\n      0x70a08231\n      eq\n      tag_15\n      jumpi\n      dup1\n      0x715018a6\n      eq\n      tag_16\n      jumpi\n      dup1\n      0x860a32ec\n      eq\n      tag_17\n      jumpi\n      dup1\n      0x89f9a1d3\n      eq\n      tag_18\n      jumpi\n      0x00\n      dup1\n      revert\n    tag_25:\n      dup1\n      0x23b872dd\n      gt\n      tag_27\n      jumpi\n      dup1\n      0x23b872dd\n      eq\n      tag_8\n      jumpi\n      dup1\n      0x313ce567\n      eq\n      tag_9\n      jumpi\n      dup1\n      0x39509351\n      eq\n      tag_10\n      jumpi\n      dup1\n      0x3aa633aa\n      eq\n      tag_11\n      jumpi\n      dup1\n      0x404e5129\n      eq\n      tag_12\n      jumpi\n      dup1\n      0x42966c68\n      eq\n      tag_13\n      jumpi\n      0x00\n      dup1\n      revert\n    tag_27:\n      dup1\n      0x06fdde03\n      eq\n      tag_3\n      jumpi\n      dup1\n      0x095ea7b3\n      eq\n      tag_4\n      jumpi\n      dup1\n      0x16c02129\n      eq\n      tag_5\n      jumpi\n      dup1\n      0x18160ddd\n      eq\n      tag_6\n      jumpi\n      dup1\n      0x1ab99e12\n      eq\n      tag_7\n      jumpi\n    tag_2:\n      0x00\n      dup1\n      revert\n        /* \"contracts/pepe.sol\":2920:3020  function name() public view virtual override returns (string memory) {... */\n    tag_3:\n      tag_28\n      tag_29\n      jump\t// in\n    tag_28:\n      mload(0x40)\n      tag_30\n      swap2\n      swap1\n      tag_31\n      jump\t// in\n    tag_30:\n      mload(0x40)\n      dup1\n      swap2\n      sub\n      swap1\n      return\n        /* \"contracts/pepe.sol\":3848:4017  function approve(address spender, uint256 amount) public virtual override returns (bool) {... */\n    tag_4:\n      tag_32\n      tag_33\n      calldatasize\n      0x04\n      tag_34\n      jump\t// in\n    tag_33:\n      tag_35\n      jump\t// in\n    tag_32:\n      mload(0x40)\n        /* \"#utility.yul\":1169:1183   */\n      swap1\n      iszero\n        /* \"#utility.yul\":1162:1184   */\n      iszero\n        /* \"#utility.yul\":1144:1185   */\n      dup2\n      mstore\n        /* \"#utility.yul\":1132:1134   */\n      0x20\n        /* \"#utility.yul\":1117:1135   */\n      add\n        /* \"contracts/pepe.sol\":3848:4017  function approve(address spender, uint256 amount) public virtual override returns (bool) {... */\n      tag_30\n        /* \"#utility.yul\":1004:1191   */\n      jump\n        /* \"contracts/pepe.sol\":7755:7797  mapping(address => bool) public blacklists */\n    tag_5:\n      tag_32\n      tag_39\n      calldatasize\n      0x04\n      tag_40\n      jump\t// in\n    tag_39:\n      mstore(0x20, 0x0a)\n      0x00\n      swap1\n      dup2\n      mstore\n      0x40\n      swap1\n      keccak256\n      sload\n      0xff\n      and\n      dup2\n      jump\n        /* \"contracts/pepe.sol\":3248:3356  function totalSupply() public view virtual override returns (uint256) {... */\n    tag_6:\n        /* \"contracts/pepe.sol\":3336:3348  _totalSupply */\n      sload(0x03)\n        /* \"contracts/pepe.sol\":3248:3356  function totalSupply() public view virtual override returns (uint256) {... */\n    tag_43:\n      mload(0x40)\n        /* \"#utility.yul\":1533:1558   */\n      swap1\n      dup2\n      mstore\n        /* \"#utility.yul\":1521:1523   */\n      0x20\n        /* \"#utility.yul\":1506:1524   */\n      add\n        /* \"contracts/pepe.sol\":3248:3356  function totalSupply() public view virtual override returns (uint256) {... */\n      tag_30\n        /* \"#utility.yul\":1387:1564   */\n      jump\n        /* \"contracts/pepe.sol\":7682:7713  uint256 public minHoldingAmount */\n    tag_7:\n      tag_43\n      sload(0x08)\n      dup2\n      jump\n        /* \"contracts/pepe.sol\":4025:4517  function transferFrom(... */\n    tag_8:\n      tag_32\n      tag_51\n      calldatasize\n      0x04\n      tag_52\n      jump\t// in\n    tag_51:\n      tag_53\n      jump\t// in\n        /* \"contracts/pepe.sol\":3145:3238  function decimals() public view virtual override returns (uint8) {... */\n    tag_9:\n      mload(0x40)\n        /* \"contracts/pepe.sol\":3228:3230  18 */\n      0x12\n        /* \"#utility.yul\":2044:2080   */\n      dup2\n      mstore\n        /* \"#utility.yul\":2032:2034   */\n      0x20\n        /* \"#utility.yul\":2017:2035   */\n      add\n        /* \"contracts/pepe.sol\":3145:3238  function decimals() public view virtual override returns (uint8) {... */\n      tag_30\n        /* \"#utility.yul\":1902:2086   */\n      jump\n        /* \"contracts/pepe.sol\":4525:4740  function increaseAllowance(address spender, uint256 addedValue) public virtual returns (bool) {... */\n    tag_10:\n      tag_32\n      tag_60\n      calldatasize\n      0x04\n      tag_34\n      jump\t// in\n    tag_60:\n      tag_61\n      jump\t// in\n        /* \"contracts/pepe.sol\":8048:8349  function setRule(bool _limited, address _uniswapV2Pair, uint256 _maxHoldingAmount, uint256 _minHoldingAmount) external onlyOwner {... */\n    tag_11:\n      tag_63\n      tag_64\n      calldatasize\n      0x04\n      tag_65\n      jump\t// in\n    tag_64:\n      tag_66\n      jump\t// in\n    tag_63:\n      stop\n        /* \"contracts/pepe.sol\":7905:8040  function blacklist(address _address, bool _isBlacklisting) external onlyOwner {... */\n    tag_12:\n      tag_63\n      tag_68\n      calldatasize\n      0x04\n      tag_69\n      jump\t// in\n    tag_68:\n      tag_70\n      jump\t// in\n        /* \"contracts/pepe.sol\":8932:9013  function burn(uint256 value) external {... */\n    tag_13:\n      tag_63\n      tag_72\n      calldatasize\n      0x04\n      tag_73\n      jump\t// in\n    tag_72:\n      tag_74\n      jump\t// in\n        /* \"contracts/pepe.sol\":7720:7748  address public uniswapV2Pair */\n    tag_14:\n      sload(0x09)\n      tag_75\n      swap1\n      sub(shl(0xa0, 0x01), 0x01)\n      and\n      dup2\n      jump\n    tag_75:\n      mload(0x40)\n      sub(shl(0xa0, 0x01), 0x01)\n        /* \"#utility.yul\":3260:3292   */\n      swap1\n      swap2\n      and\n        /* \"#utility.yul\":3242:3293   */\n      dup2\n      mstore\n        /* \"#utility.yul\":3230:3232   */\n      0x20\n        /* \"#utility.yul\":3215:3233   */\n      add\n        /* \"contracts/pepe.sol\":7720:7748  address public uniswapV2Pair */\n      tag_30\n        /* \"#utility.yul\":3096:3299   */\n      jump\n        /* \"contracts/pepe.sol\":3368:3495  function balanceOf(address account) public view virtual override returns (uint256) {... */\n    tag_15:\n      tag_43\n      tag_80\n      calldatasize\n      0x04\n      tag_40\n      jump\t// in\n    tag_80:\n      tag_81\n      jump\t// in\n        /* \"contracts/pepe.sol\":789:892  function renounceOwnership() public virtual onlyOwner {... */\n    tag_16:\n      tag_63\n      tag_84\n      jump\t// in\n        /* \"contracts/pepe.sol\":7618:7637  bool public limited */\n    tag_17:\n      sload(0x06)\n      tag_32\n      swap1\n      0xff\n      and\n      dup2\n      jump\n        /* \"contracts/pepe.sol\":7644:7675  uint256 public maxHoldingAmount */\n    tag_18:\n      tag_43\n      sload(0x07)\n      dup2\n      jump\n        /* \"contracts/pepe.sol\":566:653  function owner() public view virtual returns (address) {... */\n    tag_19:\n        /* \"contracts/pepe.sol\":612:619  address */\n      0x00\n        /* \"contracts/pepe.sol\":639:645  _owner */\n      sload\n      sub(shl(0xa0, 0x01), 0x01)\n      and\n        /* \"contracts/pepe.sol\":566:653  function owner() public view virtual returns (address) {... */\n      jump(tag_75)\n        /* \"contracts/pepe.sol\":3033:3137  function symbol() public view virtual override returns (string memory) {... */\n    tag_20:\n      tag_28\n      tag_95\n      jump\t// in\n        /* \"contracts/pepe.sol\":4750:5163  function decreaseAllowance(address spender, uint256 subtractedValue) public virtual returns (bool) {... */\n    tag_21:\n      tag_32\n      tag_98\n      calldatasize\n      0x04\n      tag_34\n      jump\t// in\n    tag_98:\n      tag_99\n      jump\t// in\n        /* \"contracts/pepe.sol\":3504:3679  function transfer(address recipient, uint256 amount) public virtual override returns (bool) {... */\n    tag_22:\n      tag_32\n      tag_102\n      calldatasize\n      0x04\n      tag_34\n      jump\t// in\n    tag_102:\n      tag_103\n      jump\t// in\n        /* \"contracts/pepe.sol\":3687:3838  function allowance(address owner, address spender) public view virtual override returns (uint256) {... */\n    tag_23:\n      tag_43\n      tag_106\n      calldatasize\n      0x04\n      tag_107\n      jump\t// in\n    tag_106:\n      sub(shl(0xa0, 0x01), 0x01)\n        /* \"contracts/pepe.sol\":3803:3821  _allowances[owner] */\n      swap2\n      dup3\n      and\n        /* \"contracts/pepe.sol\":3776:3783  uint256 */\n      0x00\n        /* \"contracts/pepe.sol\":3803:3821  _allowances[owner] */\n      swap1\n      dup2\n      mstore\n        /* \"contracts/pepe.sol\":3803:3814  _allowances */\n      0x02\n        /* \"contracts/pepe.sol\":3803:3821  _allowances[owner] */\n      0x20\n      swap1\n      dup2\n      mstore\n      0x40\n      dup1\n      dup4\n      keccak256\n        /* \"contracts/pepe.sol\":3803:3830  _allowances[owner][spender] */\n      swap4\n      swap1\n      swap5\n      and\n      dup3\n      mstore\n      swap2\n      swap1\n      swap2\n      mstore\n      keccak256\n      sload\n      swap1\n        /* \"contracts/pepe.sol\":3687:3838  function allowance(address owner, address spender) public view virtual override returns (uint256) {... */\n      jump\n        /* \"contracts/pepe.sol\":903:1104  function transferOwnership(address newOwner) public virtual onlyOwner {... */\n    tag_24:\n      tag_63\n      tag_111\n      calldatasize\n      0x04\n      tag_40\n      jump\t// in\n    tag_111:\n      tag_112\n      jump\t// in\n        /* \"contracts/pepe.sol\":2920:3020  function name() public view virtual override returns (string memory) {... */\n    tag_29:\n        /* \"contracts/pepe.sol\":2974:2987  string memory */\n      0x60\n        /* \"contracts/pepe.sol\":3007:3012  _name */\n      0x04\n        /* \"contracts/pepe.sol\":3000:3012  return _name */\n      dup1\n      sload\n      tag_114\n      swap1\n      tag_115\n      jump\t// in\n    tag_114:\n      dup1\n      0x1f\n      add\n      0x20\n      dup1\n      swap2\n      div\n      mul\n      0x20\n      add\n      mload(0x40)\n      swap1\n      dup2\n      add\n      0x40\n      mstore\n      dup1\n      swap3\n      swap2\n      swap1\n      dup2\n      dup2\n      mstore\n      0x20\n      add\n      dup3\n      dup1\n      sload\n      tag_116\n      swap1\n      tag_115\n      jump\t// in\n    tag_116:\n      dup1\n      iszero\n      tag_117\n      jumpi\n      dup1\n      0x1f\n      lt\n      tag_118\n      jumpi\n      0x0100\n      dup1\n      dup4\n      sload\n      div\n      mul\n      dup4\n      mstore\n      swap2\n      0x20\n      add\n      swap2\n      jump(tag_117)\n    tag_118:\n      dup3\n      add\n      swap2\n      swap1\n      0x00\n      mstore\n      keccak256(0x00, 0x20)\n      swap1\n    tag_119:\n      dup2\n      sload\n      dup2\n      mstore\n      swap1\n      0x01\n      add\n      swap1\n      0x20\n      add\n      dup1\n      dup4\n      gt\n      tag_119\n      jumpi\n      dup3\n      swap1\n      sub\n      0x1f\n      and\n      dup3\n      add\n      swap2\n    tag_117:\n      pop\n      pop\n      pop\n      pop\n      pop\n      swap1\n      pop\n        /* \"contracts/pepe.sol\":2920:3020  function name() public view virtual override returns (string memory) {... */\n      swap1\n      jump\t// out\n        /* \"contracts/pepe.sol\":3848:4017  function approve(address spender, uint256 amount) public virtual override returns (bool) {... */\n    tag_35:\n        /* \"contracts/pepe.sol\":3931:3935  bool */\n      0x00\n        /* \"contracts/pepe.sol\":3948:3987  _approve(_msgSender(), spender, amount) */\n      tag_121\n        /* \"contracts/pepe.sol\":182:192  msg.sender */\n      caller\n        /* \"contracts/pepe.sol\":3971:3978  spender */\n      dup5\n        /* \"contracts/pepe.sol\":3980:3986  amount */\n      dup5\n        /* \"contracts/pepe.sol\":3948:3956  _approve */\n      tag_124\n        /* \"contracts/pepe.sol\":3948:3987  _approve(_msgSender(), spender, amount) */\n      jump\t// in\n    tag_121:\n      pop\n        /* \"contracts/pepe.sol\":4005:4009  true */\n      0x01\n        /* \"contracts/pepe.sol\":3848:4017  function approve(address spender, uint256 amount) public virtual override returns (bool) {... */\n    tag_120:\n      swap3\n      swap2\n      pop\n      pop\n      jump\t// out\n        /* \"contracts/pepe.sol\":4025:4517  function transferFrom(... */\n    tag_53:\n        /* \"contracts/pepe.sol\":4165:4169  bool */\n      0x00\n        /* \"contracts/pepe.sol\":4182:4218  _transfer(sender, recipient, amount) */\n      tag_127\n        /* \"contracts/pepe.sol\":4192:4198  sender */\n      dup5\n        /* \"contracts/pepe.sol\":4200:4209  recipient */\n      dup5\n        /* \"contracts/pepe.sol\":4211:4217  amount */\n      dup5\n        /* \"contracts/pepe.sol\":4182:4191  _transfer */\n      tag_128\n        /* \"contracts/pepe.sol\":4182:4218  _transfer(sender, recipient, amount) */\n      jump\t// in\n    tag_127:\n      sub(shl(0xa0, 0x01), 0x01)\n        /* \"contracts/pepe.sol\":4258:4277  _allowances[sender] */\n      dup5\n      and\n        /* \"contracts/pepe.sol\":4231:4255  uint256 currentAllowance */\n      0x00\n        /* \"contracts/pepe.sol\":4258:4277  _allowances[sender] */\n      swap1\n      dup2\n      mstore\n        /* \"contracts/pepe.sol\":4258:4269  _allowances */\n      0x02\n        /* \"contracts/pepe.sol\":4258:4277  _allowances[sender] */\n      0x20\n      swap1\n      dup2\n      mstore\n      0x40\n      dup1\n      dup4\n      keccak256\n        /* \"contracts/pepe.sol\":182:192  msg.sender */\n      caller\n        /* \"contracts/pepe.sol\":4258:4291  _allowances[sender][_msgSender()] */\n      dup5\n      mstore\n      swap1\n      swap2\n      mstore\n      swap1\n      keccak256\n      sload\n        /* \"contracts/pepe.sol\":4310:4336  currentAllowance >= amount */\n      dup3\n      dup2\n      lt\n      iszero\n        /* \"contracts/pepe.sol\":4302:4381  require(currentAllowance >= amount, \"ERC20: transfer amount exceeds allowance\") */\n      tag_130\n      jumpi\n      mload(0x40)\n      shl(0xe5, 0x461bcd)\n      dup2\n      mstore\n        /* \"#utility.yul\":4156:4158   */\n      0x20\n        /* \"contracts/pepe.sol\":4302:4381  require(currentAllowance >= amount, \"ERC20: transfer amount exceeds allowance\") */\n      0x04\n      dup3\n      add\n        /* \"#utility.yul\":4138:4159   */\n      mstore\n        /* \"#utility.yul\":4195:4197   */\n      0x28\n        /* \"#utility.yul\":4175:4193   */\n      0x24\n      dup3\n      add\n        /* \"#utility.yul\":4168:4198   */\n      mstore\n        /* \"#utility.yul\":4234:4268   */\n      0x45524332303a207472616e7366657220616d6f756e7420657863656564732061\n        /* \"#utility.yul\":4214:4232   */\n      0x44\n      dup3\n      add\n        /* \"#utility.yul\":4207:4269   */\n      mstore\n      shl(0xc0, 0x6c6c6f77616e6365)\n        /* \"#utility.yul\":4285:4303   */\n      0x64\n      dup3\n      add\n        /* \"#utility.yul\":4278:4316   */\n      mstore\n        /* \"#utility.yul\":4333:4352   */\n      0x84\n      add\n        /* \"contracts/pepe.sol\":4302:4381  require(currentAllowance >= amount, \"ERC20: transfer amount exceeds allowance\") */\n    tag_131:\n      mload(0x40)\n      dup1\n      swap2\n      sub\n      swap1\n      revert\n    tag_130:\n        /* \"contracts/pepe.sol\":4417:4474  _approve(sender, _msgSender(), currentAllowance - amount) */\n      tag_133\n        /* \"contracts/pepe.sol\":4426:4432  sender */\n      dup6\n        /* \"contracts/pepe.sol\":182:192  msg.sender */\n      caller\n        /* \"contracts/pepe.sol\":4467:4473  amount */\n      dup6\n        /* \"contracts/pepe.sol\":4448:4464  currentAllowance */\n      dup5\n        /* \"contracts/pepe.sol\":4448:4473  currentAllowance - amount */\n      sub\n        /* \"contracts/pepe.sol\":4417:4425  _approve */\n      tag_124\n        /* \"contracts/pepe.sol\":4417:4474  _approve(sender, _msgSender(), currentAllowance - amount) */\n      jump\t// in\n    tag_133:\n      pop\n        /* \"contracts/pepe.sol\":4505:4509  true */\n      0x01\n      swap5\n        /* \"contracts/pepe.sol\":4025:4517  function transferFrom(... */\n      swap4\n      pop\n      pop\n      pop\n      pop\n      jump\t// out\n        /* \"contracts/pepe.sol\":4525:4740  function increaseAllowance(address spender, uint256 addedValue) public virtual returns (bool) {... */\n    tag_61:\n        /* \"contracts/pepe.sol\":182:192  msg.sender */\n      caller\n        /* \"contracts/pepe.sol\":4613:4617  bool */\n      0x00\n        /* \"contracts/pepe.sol\":4662:4687  _allowances[_msgSender()] */\n      dup2\n      dup2\n      mstore\n        /* \"contracts/pepe.sol\":4662:4673  _allowances */\n      0x02\n        /* \"contracts/pepe.sol\":4662:4687  _allowances[_msgSender()] */\n      0x20\n      swap1\n      dup2\n      mstore\n      0x40\n      dup1\n      dup4\n      keccak256\n      sub(shl(0xa0, 0x01), 0x01)\n        /* \"contracts/pepe.sol\":4662:4696  _allowances[_msgSender()][spender] */\n      dup8\n      and\n      dup5\n      mstore\n      swap1\n      swap2\n      mstore\n      dup2\n      keccak256\n      sload\n        /* \"contracts/pepe.sol\":4613:4617  bool */\n      swap1\n      swap2\n        /* \"contracts/pepe.sol\":4630:4710  _approve(_msgSender(), spender, _allowances[_msgSender()][spender] + addedValue) */\n      tag_121\n      swap2\n        /* \"contracts/pepe.sol\":4653:4660  spender */\n      dup6\n      swap1\n        /* \"contracts/pepe.sol\":4662:4709  _allowances[_msgSender()][spender] + addedValue */\n      tag_140\n      swap1\n        /* \"contracts/pepe.sol\":4699:4709  addedValue */\n      dup7\n      swap1\n        /* \"contracts/pepe.sol\":4662:4709  _allowances[_msgSender()][spender] + addedValue */\n      tag_141\n      jump\t// in\n    tag_140:\n        /* \"contracts/pepe.sol\":4630:4638  _approve */\n      tag_124\n        /* \"contracts/pepe.sol\":4630:4710  _approve(_msgSender(), spender, _allowances[_msgSender()][spender] + addedValue) */\n      jump\t// in\n        /* \"contracts/pepe.sol\":8048:8349  function setRule(bool _limited, address _uniswapV2Pair, uint256 _maxHoldingAmount, uint256 _minHoldingAmount) external onlyOwner {... */\n    tag_66:\n        /* \"contracts/pepe.sol\":612:619  address */\n      0x00\n        /* \"contracts/pepe.sol\":639:645  _owner */\n      sload\n      sub(shl(0xa0, 0x01), 0x01)\n      and\n        /* \"contracts/pepe.sol\":182:192  msg.sender */\n      caller\n        /* \"contracts/pepe.sol\":701:724  owner() == _msgSender() */\n      eq\n        /* \"contracts/pepe.sol\":693:761  require(owner() == _msgSender(), \"Ownable: caller is not the owner\") */\n      tag_145\n      jumpi\n      mload(0x40)\n      shl(0xe5, 0x461bcd)\n      dup2\n      mstore\n      0x04\n      add\n      tag_131\n      swap1\n      tag_147\n      jump\t// in\n    tag_145:\n        /* \"contracts/pepe.sol\":8188:8195  limited */\n      0x06\n        /* \"contracts/pepe.sol\":8188:8206  limited = _limited */\n      dup1\n      sload\n      not(0xff)\n      and\n      swap5\n      iszero\n      iszero\n      swap5\n      swap1\n      swap5\n      or\n      swap1\n      swap4\n      sstore\n        /* \"contracts/pepe.sol\":8217:8230  uniswapV2Pair */\n      0x09\n        /* \"contracts/pepe.sol\":8217:8247  uniswapV2Pair = _uniswapV2Pair */\n      dup1\n      sload\n      not(sub(shl(0xa0, 0x01), 0x01))\n      and\n      sub(shl(0xa0, 0x01), 0x01)\n      swap4\n      swap1\n      swap4\n      and\n      swap3\n      swap1\n      swap3\n      or\n      swap1\n      swap2\n      sstore\n        /* \"contracts/pepe.sol\":8258:8274  maxHoldingAmount */\n      0x07\n        /* \"contracts/pepe.sol\":8258:8294  maxHoldingAmount = _maxHoldingAmount */\n      sstore\n        /* \"contracts/pepe.sol\":8305:8321  minHoldingAmount */\n      0x08\n        /* \"contracts/pepe.sol\":8305:8341  minHoldingAmount = _minHoldingAmount */\n      sstore\n        /* \"contracts/pepe.sol\":8048:8349  function setRule(bool _limited, address _uniswapV2Pair, uint256 _maxHoldingAmount, uint256 _minHoldingAmount) external onlyOwner {... */\n      jump\t// out\n        /* \"contracts/pepe.sol\":7905:8040  function blacklist(address _address, bool _isBlacklisting) external onlyOwner {... */\n    tag_70:\n        /* \"contracts/pepe.sol\":612:619  address */\n      0x00\n        /* \"contracts/pepe.sol\":639:645  _owner */\n      sload\n      sub(shl(0xa0, 0x01), 0x01)\n      and\n        /* \"contracts/pepe.sol\":182:192  msg.sender */\n      caller\n        /* \"contracts/pepe.sol\":701:724  owner() == _msgSender() */\n      eq\n        /* \"contracts/pepe.sol\":693:761  require(owner() == _msgSender(), \"Ownable: caller is not the owner\") */\n      tag_152\n      jumpi\n      mload(0x40)\n      shl(0xe5, 0x461bcd)\n      dup2\n      mstore\n      0x04\n      add\n      tag_131\n      swap1\n      tag_147\n      jump\t// in\n    tag_152:\n      sub(shl(0xa0, 0x01), 0x01)\n        /* \"contracts/pepe.sol\":7994:8014  blacklists[_address] */\n      swap2\n      swap1\n      swap2\n      and\n      0x00\n      swap1\n      dup2\n      mstore\n        /* \"contracts/pepe.sol\":7994:8004  blacklists */\n      0x0a\n        /* \"contracts/pepe.sol\":7994:8014  blacklists[_address] */\n      0x20\n      mstore\n      0x40\n      swap1\n      keccak256\n        /* \"contracts/pepe.sol\":7994:8032  blacklists[_address] = _isBlacklisting */\n      dup1\n      sload\n      not(0xff)\n      and\n      swap2\n      iszero\n      iszero\n      swap2\n      swap1\n      swap2\n      or\n      swap1\n      sstore\n        /* \"contracts/pepe.sol\":7905:8040  function blacklist(address _address, bool _isBlacklisting) external onlyOwner {... */\n      jump\t// out\n        /* \"contracts/pepe.sol\":8932:9013  function burn(uint256 value) external {... */\n    tag_74:\n        /* \"contracts/pepe.sol\":8981:9005  _burn(msg.sender, value) */\n      tag_156\n        /* \"contracts/pepe.sol\":8987:8997  msg.sender */\n      caller\n        /* \"contracts/pepe.sol\":8999:9004  value */\n      dup3\n        /* \"contracts/pepe.sol\":8981:8986  _burn */\n      tag_157\n        /* \"contracts/pepe.sol\":8981:9005  _burn(msg.sender, value) */\n      jump\t// in\n    tag_156:\n        /* \"contracts/pepe.sol\":8932:9013  function burn(uint256 value) external {... */\n      pop\n      jump\t// out\n        /* \"contracts/pepe.sol\":3368:3495  function balanceOf(address account) public view virtual override returns (uint256) {... */\n    tag_81:\n      sub(shl(0xa0, 0x01), 0x01)\n        /* \"contracts/pepe.sol\":3469:3487  _balances[account] */\n      and\n        /* \"contracts/pepe.sol\":3442:3449  uint256 */\n      0x00\n        /* \"contracts/pepe.sol\":3469:3487  _balances[account] */\n      swap1\n      dup2\n      mstore\n        /* \"contracts/pepe.sol\":3469:3478  _balances */\n      0x01\n        /* \"contracts/pepe.sol\":3469:3487  _balances[account] */\n      0x20\n      mstore\n      0x40\n      swap1\n      keccak256\n      sload\n      swap1\n        /* \"contracts/pepe.sol\":3368:3495  function balanceOf(address account) public view virtual override returns (uint256) {... */\n      jump\t// out\n        /* \"contracts/pepe.sol\":789:892  function renounceOwnership() public virtual onlyOwner {... */\n    tag_84:\n        /* \"contracts/pepe.sol\":612:619  address */\n      0x00\n        /* \"contracts/pepe.sol\":639:645  _owner */\n      sload\n      sub(shl(0xa0, 0x01), 0x01)\n      and\n        /* \"contracts/pepe.sol\":182:192  msg.sender */\n      caller\n        /* \"contracts/pepe.sol\":701:724  owner() == _msgSender() */\n      eq\n        /* \"contracts/pepe.sol\":693:761  require(owner() == _msgSender(), \"Ownable: caller is not the owner\") */\n      tag_162\n      jumpi\n      mload(0x40)\n      shl(0xe5, 0x461bcd)\n      dup2\n      mstore\n      0x04\n      add\n      tag_131\n      swap1\n      tag_147\n      jump\t// in\n    tag_162:\n        /* \"contracts/pepe.sol\":854:884  _transferOwnership(address(0)) */\n      tag_165\n        /* \"contracts/pepe.sol\":881:882  0 */\n      0x00\n        /* \"contracts/pepe.sol\":854:872  _transferOwnership */\n      tag_166\n        /* \"contracts/pepe.sol\":854:884  _transferOwnership(address(0)) */\n      jump\t// in\n    tag_165:\n        /* \"contracts/pepe.sol\":789:892  function renounceOwnership() public virtual onlyOwner {... */\n      jump\t// out\n        /* \"contracts/pepe.sol\":3033:3137  function symbol() public view virtual override returns (string memory) {... */\n    tag_95:\n        /* \"contracts/pepe.sol\":3089:3102  string memory */\n      0x60\n        /* \"contracts/pepe.sol\":3122:3129  _symbol */\n      0x05\n        /* \"contracts/pepe.sol\":3115:3129  return _symbol */\n      dup1\n      sload\n      tag_114\n      swap1\n      tag_115\n      jump\t// in\n        /* \"contracts/pepe.sol\":4750:5163  function decreaseAllowance(address spender, uint256 subtractedValue) public virtual returns (bool) {... */\n    tag_99:\n        /* \"contracts/pepe.sol\":182:192  msg.sender */\n      caller\n        /* \"contracts/pepe.sol\":4843:4847  bool */\n      0x00\n        /* \"contracts/pepe.sol\":4887:4912  _allowances[_msgSender()] */\n      swap1\n      dup2\n      mstore\n        /* \"contracts/pepe.sol\":4887:4898  _allowances */\n      0x02\n        /* \"contracts/pepe.sol\":4887:4912  _allowances[_msgSender()] */\n      0x20\n      swap1\n      dup2\n      mstore\n      0x40\n      dup1\n      dup4\n      keccak256\n      sub(shl(0xa0, 0x01), 0x01)\n        /* \"contracts/pepe.sol\":4887:4921  _allowances[_msgSender()][spender] */\n      dup7\n      and\n      dup5\n      mstore\n      swap1\n      swap2\n      mstore\n      dup2\n      keccak256\n      sload\n        /* \"contracts/pepe.sol\":4940:4975  currentAllowance >= subtractedValue */\n      dup3\n      dup2\n      lt\n      iszero\n        /* \"contracts/pepe.sol\":4932:5017  require(currentAllowance >= subtractedValue, \"ERC20: decreased allowance below zero\") */\n      tag_176\n      jumpi\n      mload(0x40)\n      shl(0xe5, 0x461bcd)\n      dup2\n      mstore\n        /* \"#utility.yul\":5188:5190   */\n      0x20\n        /* \"contracts/pepe.sol\":4932:5017  require(currentAllowance >= subtractedValue, \"ERC20: decreased allowance below zero\") */\n      0x04\n      dup3\n      add\n        /* \"#utility.yul\":5170:5191   */\n      mstore\n        /* \"#utility.yul\":5227:5229   */\n      0x25\n        /* \"#utility.yul\":5207:5225   */\n      0x24\n      dup3\n      add\n        /* \"#utility.yul\":5200:5230   */\n      mstore\n        /* \"#utility.yul\":5266:5300   */\n      0x45524332303a2064656372656173656420616c6c6f77616e63652062656c6f77\n        /* \"#utility.yul\":5246:5264   */\n      0x44\n      dup3\n      add\n        /* \"#utility.yul\":5239:5301   */\n      mstore\n      shl(0xd8, 0x207a65726f)\n        /* \"#utility.yul\":5317:5335   */\n      0x64\n      dup3\n      add\n        /* \"#utility.yul\":5310:5345   */\n      mstore\n        /* \"#utility.yul\":5362:5381   */\n      0x84\n      add\n        /* \"contracts/pepe.sol\":4932:5017  require(currentAllowance >= subtractedValue, \"ERC20: decreased allowance below zero\") */\n      tag_131\n        /* \"#utility.yul\":4986:5387   */\n      jump\n        /* \"contracts/pepe.sol\":4932:5017  require(currentAllowance >= subtractedValue, \"ERC20: decreased allowance below zero\") */\n    tag_176:\n        /* \"contracts/pepe.sol\":5053:5120  _approve(_msgSender(), spender, currentAllowance - subtractedValue) */\n      tag_179\n        /* \"contracts/pepe.sol\":182:192  msg.sender */\n      caller\n        /* \"contracts/pepe.sol\":5076:5083  spender */\n      dup6\n        /* \"contracts/pepe.sol\":5104:5119  subtractedValue */\n      dup6\n        /* \"contracts/pepe.sol\":5085:5101  currentAllowance */\n      dup5\n        /* \"contracts/pepe.sol\":5085:5119  currentAllowance - subtractedValue */\n      sub\n        /* \"contracts/pepe.sol\":5053:5061  _approve */\n      tag_124\n        /* \"contracts/pepe.sol\":5053:5120  _approve(_msgSender(), spender, currentAllowance - subtractedValue) */\n      jump\t// in\n    tag_179:\n      pop\n        /* \"contracts/pepe.sol\":5151:5155  true */\n      0x01\n      swap4\n        /* \"contracts/pepe.sol\":4750:5163  function decreaseAllowance(address spender, uint256 subtractedValue) public virtual returns (bool) {... */\n      swap3\n      pop\n      pop\n      pop\n      jump\t// out\n        /* \"contracts/pepe.sol\":3504:3679  function transfer(address recipient, uint256 amount) public virtual override returns (bool) {... */\n    tag_103:\n        /* \"contracts/pepe.sol\":3590:3594  bool */\n      0x00\n        /* \"contracts/pepe.sol\":3607:3649  _transfer(_msgSender(), recipient, amount) */\n      tag_121\n        /* \"contracts/pepe.sol\":182:192  msg.sender */\n      caller\n        /* \"contracts/pepe.sol\":3631:3640  recipient */\n      dup5\n        /* \"contracts/pepe.sol\":3642:3648  amount */\n      dup5\n        /* \"contracts/pepe.sol\":3607:3616  _transfer */\n      tag_128\n        /* \"contracts/pepe.sol\":3607:3649  _transfer(_msgSender(), recipient, amount) */\n      jump\t// in\n        /* \"contracts/pepe.sol\":903:1104  function transferOwnership(address newOwner) public virtual onlyOwner {... */\n    tag_112:\n        /* \"contracts/pepe.sol\":612:619  address */\n      0x00\n        /* \"contracts/pepe.sol\":639:645  _owner */\n      sload\n      sub(shl(0xa0, 0x01), 0x01)\n      and\n        /* \"contracts/pepe.sol\":182:192  msg.sender */\n      caller\n        /* \"contracts/pepe.sol\":701:724  owner() == _msgSender() */\n      eq\n        /* \"contracts/pepe.sol\":693:761  require(owner() == _msgSender(), \"Ownable: caller is not the owner\") */\n      tag_188\n      jumpi\n      mload(0x40)\n      shl(0xe5, 0x461bcd)\n      dup2\n      mstore\n      0x04\n      add\n      tag_131\n      swap1\n      tag_147\n      jump\t// in\n    tag_188:\n      sub(shl(0xa0, 0x01), 0x01)\n        /* \"contracts/pepe.sol\":992:1014  newOwner != address(0) */\n      dup2\n      and\n        /* \"contracts/pepe.sol\":984:1057  require(newOwner != address(0), \"Ownable: new owner is the zero address\") */\n      tag_191\n      jumpi\n      mload(0x40)\n      shl(0xe5, 0x461bcd)\n      dup2\n      mstore\n        /* \"#utility.yul\":5594:5596   */\n      0x20\n        /* \"contracts/pepe.sol\":984:1057  require(newOwner != address(0), \"Ownable: new owner is the zero address\") */\n      0x04\n      dup3\n      add\n        /* \"#utility.yul\":5576:5597   */\n      mstore\n        /* \"#utility.yul\":5633:5635   */\n      0x26\n        /* \"#utility.yul\":5613:5631   */\n      0x24\n      dup3\n      add\n        /* \"#utility.yul\":5606:5636   */\n      mstore\n        /* \"#utility.yul\":5672:5706   */\n      0x4f776e61626c653a206e6577206f776e657220697320746865207a65726f2061\n        /* \"#utility.yul\":5652:5670   */\n      0x44\n      dup3\n      add\n        /* \"#utility.yul\":5645:5707   */\n      mstore\n      shl(0xd0, 0x646472657373)\n        /* \"#utility.yul\":5723:5741   */\n      0x64\n      dup3\n      add\n        /* \"#utility.yul\":5716:5752   */\n      mstore\n        /* \"#utility.yul\":5769:5788   */\n      0x84\n      add\n        /* \"contracts/pepe.sol\":984:1057  require(newOwner != address(0), \"Ownable: new owner is the zero address\") */\n      tag_131\n        /* \"#utility.yul\":5392:5794   */\n      jump\n        /* \"contracts/pepe.sol\":984:1057  require(newOwner != address(0), \"Ownable: new owner is the zero address\") */\n    tag_191:\n        /* \"contracts/pepe.sol\":1068:1096  _transferOwnership(newOwner) */\n      tag_156\n        /* \"contracts/pepe.sol\":1087:1095  newOwner */\n      dup2\n        /* \"contracts/pepe.sol\":1068:1086  _transferOwnership */\n      tag_166\n        /* \"contracts/pepe.sol\":1068:1096  _transferOwnership(newOwner) */\n      jump\t// in\n        /* \"contracts/pepe.sol\":6920:7300  function _approve(... */\n    tag_124:\n      sub(shl(0xa0, 0x01), 0x01)\n        /* \"contracts/pepe.sol\":7056:7075  owner != address(0) */\n      dup4\n      and\n        /* \"contracts/pepe.sol\":7048:7116  require(owner != address(0), \"ERC20: approve from the zero address\") */\n      tag_197\n      jumpi\n      mload(0x40)\n      shl(0xe5, 0x461bcd)\n      dup2\n      mstore\n        /* \"#utility.yul\":6001:6003   */\n      0x20\n        /* \"contracts/pepe.sol\":7048:7116  require(owner != address(0), \"ERC20: approve from the zero address\") */\n      0x04\n      dup3\n      add\n        /* \"#utility.yul\":5983:6004   */\n      mstore\n        /* \"#utility.yul\":6040:6042   */\n      0x24\n        /* \"#utility.yul\":6020:6038   */\n      dup1\n      dup3\n      add\n        /* \"#utility.yul\":6013:6043   */\n      mstore\n        /* \"#utility.yul\":6079:6113   */\n      0x45524332303a20617070726f76652066726f6d20746865207a65726f20616464\n        /* \"#utility.yul\":6059:6077   */\n      0x44\n      dup3\n      add\n        /* \"#utility.yul\":6052:6114   */\n      mstore\n      shl(0xe0, 0x72657373)\n        /* \"#utility.yul\":6130:6148   */\n      0x64\n      dup3\n      add\n        /* \"#utility.yul\":6123:6157   */\n      mstore\n        /* \"#utility.yul\":6174:6193   */\n      0x84\n      add\n        /* \"contracts/pepe.sol\":7048:7116  require(owner != address(0), \"ERC20: approve from the zero address\") */\n      tag_131\n        /* \"#utility.yul\":5799:6199   */\n      jump\n        /* \"contracts/pepe.sol\":7048:7116  require(owner != address(0), \"ERC20: approve from the zero address\") */\n    tag_197:\n      sub(shl(0xa0, 0x01), 0x01)\n        /* \"contracts/pepe.sol\":7135:7156  spender != address(0) */\n      dup3\n      and\n        /* \"contracts/pepe.sol\":7127:7195  require(spender != address(0), \"ERC20: approve to the zero address\") */\n      tag_200\n      jumpi\n      mload(0x40)\n      shl(0xe5, 0x461bcd)\n      dup2\n      mstore\n        /* \"#utility.yul\":6406:6408   */\n      0x20\n        /* \"contracts/pepe.sol\":7127:7195  require(spender != address(0), \"ERC20: approve to the zero address\") */\n      0x04\n      dup3\n      add\n        /* \"#utility.yul\":6388:6409   */\n      mstore\n        /* \"#utility.yul\":6445:6447   */\n      0x22\n        /* \"#utility.yul\":6425:6443   */\n      0x24\n      dup3\n      add\n        /* \"#utility.yul\":6418:6448   */\n      mstore\n        /* \"#utility.yul\":6484:6518   */\n      0x45524332303a20617070726f766520746f20746865207a65726f206164647265\n        /* \"#utility.yul\":6464:6482   */\n      0x44\n      dup3\n      add\n        /* \"#utility.yul\":6457:6519   */\n      mstore\n      shl(0xf0, 0x7373)\n        /* \"#utility.yul\":6535:6553   */\n      0x64\n      dup3\n      add\n        /* \"#utility.yul\":6528:6560   */\n      mstore\n        /* \"#utility.yul\":6577:6596   */\n      0x84\n      add\n        /* \"contracts/pepe.sol\":7127:7195  require(spender != address(0), \"ERC20: approve to the zero address\") */\n      tag_131\n        /* \"#utility.yul\":6204:6602   */\n      jump\n        /* \"contracts/pepe.sol\":7127:7195  require(spender != address(0), \"ERC20: approve to the zero address\") */\n    tag_200:\n      sub(shl(0xa0, 0x01), 0x01)\n        /* \"contracts/pepe.sol\":7208:7226  _allowances[owner] */\n      dup4\n      dup2\n      and\n      0x00\n      dup2\n      dup2\n      mstore\n        /* \"contracts/pepe.sol\":7208:7219  _allowances */\n      0x02\n        /* \"contracts/pepe.sol\":7208:7226  _allowances[owner] */\n      0x20\n      swap1\n      dup2\n      mstore\n      0x40\n      dup1\n      dup4\n      keccak256\n        /* \"contracts/pepe.sol\":7208:7235  _allowances[owner][spender] */\n      swap5\n      dup8\n      and\n      dup1\n      dup5\n      mstore\n      swap5\n      dup3\n      mstore\n      swap2\n      dup3\n      swap1\n      keccak256\n        /* \"contracts/pepe.sol\":7208:7244  _allowances[owner][spender] = amount */\n      dup6\n      swap1\n      sstore\n        /* \"contracts/pepe.sol\":7260:7292  Approval(owner, spender, amount) */\n      swap1\n      mload\n        /* \"#utility.yul\":1533:1558   */\n      dup5\n      dup2\n      mstore\n        /* \"contracts/pepe.sol\":7260:7292  Approval(owner, spender, amount) */\n      0x8c5be1e5ebec7d5bd14f71427d1e84f3dd0314c0f7b2291e5b200ac8c7c3b925\n      swap2\n        /* \"#utility.yul\":1506:1524   */\n      add\n        /* \"contracts/pepe.sol\":7260:7292  Approval(owner, spender, amount) */\n    tag_203:\n      mload(0x40)\n      dup1\n      swap2\n      sub\n      swap1\n      log3\n        /* \"contracts/pepe.sol\":6920:7300  function _approve(... */\n      pop\n      pop\n      pop\n      jump\t// out\n        /* \"contracts/pepe.sol\":5173:5906  function _transfer(... */\n    tag_128:\n      sub(shl(0xa0, 0x01), 0x01)\n        /* \"contracts/pepe.sol\":5313:5333  sender != address(0) */\n      dup4\n      and\n        /* \"contracts/pepe.sol\":5305:5375  require(sender != address(0), \"ERC20: transfer from the zero address\") */\n      tag_205\n      jumpi\n      mload(0x40)\n      shl(0xe5, 0x461bcd)\n      dup2\n      mstore\n        /* \"#utility.yul\":6809:6811   */\n      0x20\n        /* \"contracts/pepe.sol\":5305:5375  require(sender != address(0), \"ERC20: transfer from the zero address\") */\n      0x04\n      dup3\n      add\n        /* \"#utility.yul\":6791:6812   */\n      mstore\n        /* \"#utility.yul\":6848:6850   */\n      0x25\n        /* \"#utility.yul\":6828:6846   */\n      0x24\n      dup3\n      add\n        /* \"#utility.yul\":6821:6851   */\n      mstore\n        /* \"#utility.yul\":6887:6921   */\n      0x45524332303a207472616e736665722066726f6d20746865207a65726f206164\n        /* \"#utility.yul\":6867:6885   */\n      0x44\n      dup3\n      add\n        /* \"#utility.yul\":6860:6922   */\n      mstore\n      shl(0xd8, 0x6472657373)\n        /* \"#utility.yul\":6938:6956   */\n      0x64\n      dup3\n      add\n        /* \"#utility.yul\":6931:6966   */\n      mstore\n        /* \"#utility.yul\":6983:7002   */\n      0x84\n      add\n        /* \"contracts/pepe.sol\":5305:5375  require(sender != address(0), \"ERC20: transfer from the zero address\") */\n      tag_131\n        /* \"#utility.yul\":6607:7008   */\n      jump\n        /* \"contracts/pepe.sol\":5305:5375  require(sender != address(0), \"ERC20: transfer from the zero address\") */\n    tag_205:\n      sub(shl(0xa0, 0x01), 0x01)\n        /* \"contracts/pepe.sol\":5394:5417  recipient != address(0) */\n      dup3\n      and\n        /* \"contracts/pepe.sol\":5386:5457  require(recipient != address(0), \"ERC20: transfer to the zero address\") */\n      tag_208\n      jumpi\n      mload(0x40)\n      shl(0xe5, 0x461bcd)\n      dup2\n      mstore\n        /* \"#utility.yul\":7215:7217   */\n      0x20\n        /* \"contracts/pepe.sol\":5386:5457  require(recipient != address(0), \"ERC20: transfer to the zero address\") */\n      0x04\n      dup3\n      add\n        /* \"#utility.yul\":7197:7218   */\n      mstore\n        /* \"#utility.yul\":7254:7256   */\n      0x23\n        /* \"#utility.yul\":7234:7252   */\n      0x24\n      dup3\n      add\n        /* \"#utility.yul\":7227:7257   */\n      mstore\n        /* \"#utility.yul\":7293:7327   */\n      0x45524332303a207472616e7366657220746f20746865207a65726f2061646472\n        /* \"#utility.yul\":7273:7291   */\n      0x44\n      dup3\n      add\n        /* \"#utility.yul\":7266:7328   */\n      mstore\n      shl(0xe8, 0x657373)\n        /* \"#utility.yul\":7344:7362   */\n      0x64\n      dup3\n      add\n        /* \"#utility.yul\":7337:7370   */\n      mstore\n        /* \"#utility.yul\":7387:7406   */\n      0x84\n      add\n        /* \"contracts/pepe.sol\":5386:5457  require(recipient != address(0), \"ERC20: transfer to the zero address\") */\n      tag_131\n        /* \"#utility.yul\":7013:7412   */\n      jump\n        /* \"contracts/pepe.sol\":5386:5457  require(recipient != address(0), \"ERC20: transfer to the zero address\") */\n    tag_208:\n        /* \"contracts/pepe.sol\":5470:5517  _beforeTokenTransfer(sender, recipient, amount) */\n      tag_211\n        /* \"contracts/pepe.sol\":5491:5497  sender */\n      dup4\n        /* \"contracts/pepe.sol\":5499:5508  recipient */\n      dup4\n        /* \"contracts/pepe.sol\":5510:5516  amount */\n      dup4\n        /* \"contracts/pepe.sol\":5470:5490  _beforeTokenTransfer */\n      tag_212\n        /* \"contracts/pepe.sol\":5470:5517  _beforeTokenTransfer(sender, recipient, amount) */\n      jump\t// in\n    tag_211:\n      sub(shl(0xa0, 0x01), 0x01)\n        /* \"contracts/pepe.sol\":5554:5571  _balances[sender] */\n      dup4\n      and\n        /* \"contracts/pepe.sol\":5530:5551  uint256 senderBalance */\n      0x00\n        /* \"contracts/pepe.sol\":5554:5571  _balances[sender] */\n      swap1\n      dup2\n      mstore\n        /* \"contracts/pepe.sol\":5554:5563  _balances */\n      0x01\n        /* \"contracts/pepe.sol\":5554:5571  _balances[sender] */\n      0x20\n      mstore\n      0x40\n      swap1\n      keccak256\n      sload\n        /* \"contracts/pepe.sol\":5590:5613  senderBalance >= amount */\n      dup2\n      dup2\n      lt\n      iszero\n        /* \"contracts/pepe.sol\":5582:5656  require(senderBalance >= amount, \"ERC20: transfer amount exceeds balance\") */\n      tag_213\n      jumpi\n      mload(0x40)\n      shl(0xe5, 0x461bcd)\n      dup2\n      mstore\n        /* \"#utility.yul\":7619:7621   */\n      0x20\n        /* \"contracts/pepe.sol\":5582:5656  require(senderBalance >= amount, \"ERC20: transfer amount exceeds balance\") */\n      0x04\n      dup3\n      add\n        /* \"#utility.yul\":7601:7622   */\n      mstore\n        /* \"#utility.yul\":7658:7660   */\n      0x26\n        /* \"#utility.yul\":7638:7656   */\n      0x24\n      dup3\n      add\n        /* \"#utility.yul\":7631:7661   */\n      mstore\n        /* \"#utility.yul\":7697:7731   */\n      0x45524332303a207472616e7366657220616d6f756e7420657863656564732062\n        /* \"#utility.yul\":7677:7695   */\n      0x44\n      dup3\n      add\n        /* \"#utility.yul\":7670:7732   */\n      mstore\n      shl(0xd0, 0x616c616e6365)\n        /* \"#utility.yul\":7748:7766   */\n      0x64\n      dup3\n      add\n        /* \"#utility.yul\":7741:7777   */\n      mstore\n        /* \"#utility.yul\":7794:7813   */\n      0x84\n      add\n        /* \"contracts/pepe.sol\":5582:5656  require(senderBalance >= amount, \"ERC20: transfer amount exceeds balance\") */\n      tag_131\n        /* \"#utility.yul\":7417:7819   */\n      jump\n        /* \"contracts/pepe.sol\":5582:5656  require(senderBalance >= amount, \"ERC20: transfer amount exceeds balance\") */\n    tag_213:\n      sub(shl(0xa0, 0x01), 0x01)\n        /* \"contracts/pepe.sol\":5692:5709  _balances[sender] */\n      dup1\n      dup6\n      and\n      0x00\n      swap1\n      dup2\n      mstore\n        /* \"contracts/pepe.sol\":5692:5701  _balances */\n      0x01\n        /* \"contracts/pepe.sol\":5692:5709  _balances[sender] */\n      0x20\n      mstore\n      0x40\n      dup1\n      dup3\n      keccak256\n        /* \"contracts/pepe.sol\":5712:5734  senderBalance - amount */\n      dup6\n      dup6\n      sub\n        /* \"contracts/pepe.sol\":5692:5734  _balances[sender] = senderBalance - amount */\n      swap1\n      sstore\n        /* \"contracts/pepe.sol\":5756:5776  _balances[recipient] */\n      swap2\n      dup6\n      and\n      dup2\n      mstore\n      swap1\n      dup2\n      keccak256\n        /* \"contracts/pepe.sol\":5756:5786  _balances[recipient] += amount */\n      dup1\n      sload\n        /* \"contracts/pepe.sol\":5728:5734  amount */\n      dup5\n      swap3\n        /* \"contracts/pepe.sol\":5692:5709  _balances[sender] */\n      swap1\n        /* \"contracts/pepe.sol\":5756:5786  _balances[recipient] += amount */\n      tag_216\n      swap1\n        /* \"contracts/pepe.sol\":5728:5734  amount */\n      dup5\n      swap1\n        /* \"contracts/pepe.sol\":5756:5786  _balances[recipient] += amount */\n      tag_141\n      jump\t// in\n    tag_216:\n      swap3\n      pop\n      pop\n      dup2\n      swap1\n      sstore\n      pop\n        /* \"contracts/pepe.sol\":5821:5830  recipient */\n      dup3\n      sub(shl(0xa0, 0x01), 0x01)\n        /* \"contracts/pepe.sol\":5804:5839  Transfer(sender, recipient, amount) */\n      and\n        /* \"contracts/pepe.sol\":5813:5819  sender */\n      dup5\n      sub(shl(0xa0, 0x01), 0x01)\n        /* \"contracts/pepe.sol\":5804:5839  Transfer(sender, recipient, amount) */\n      and\n      0xddf252ad1be2c89b69c2b068fc378daa952ba7f163c4a11628f55a4df523b3ef\n        /* \"contracts/pepe.sol\":5832:5838  amount */\n      dup5\n        /* \"contracts/pepe.sol\":5804:5839  Transfer(sender, recipient, amount) */\n      mload(0x40)\n      tag_217\n      swap2\n        /* \"#utility.yul\":1533:1558   */\n      dup2\n      mstore\n        /* \"#utility.yul\":1521:1523   */\n      0x20\n        /* \"#utility.yul\":1506:1524   */\n      add\n      swap1\n        /* \"#utility.yul\":1387:1564   */\n      jump\n        /* \"contracts/pepe.sol\":5804:5839  Transfer(sender, recipient, amount) */\n    tag_217:\n      mload(0x40)\n      dup1\n      swap2\n      sub\n      swap1\n      log3\n        /* \"contracts/pepe.sol\":5294:5906  {... */\n      pop\n        /* \"contracts/pepe.sol\":5173:5906  function _transfer(... */\n      pop\n      pop\n      pop\n      jump\t// out\n        /* \"contracts/pepe.sol\":6321:6912  function _burn(address account, uint256 amount) internal virtual {... */\n    tag_157:\n      sub(shl(0xa0, 0x01), 0x01)\n        /* \"contracts/pepe.sol\":6405:6426  account != address(0) */\n      dup3\n      and\n        /* \"contracts/pepe.sol\":6397:6464  require(account != address(0), \"ERC20: burn from the zero address\") */\n      tag_221\n      jumpi\n      mload(0x40)\n      shl(0xe5, 0x461bcd)\n      dup2\n      mstore\n        /* \"#utility.yul\":8026:8028   */\n      0x20\n        /* \"contracts/pepe.sol\":6397:6464  require(account != address(0), \"ERC20: burn from the zero address\") */\n      0x04\n      dup3\n      add\n        /* \"#utility.yul\":8008:8029   */\n      mstore\n        /* \"#utility.yul\":8065:8067   */\n      0x21\n        /* \"#utility.yul\":8045:8063   */\n      0x24\n      dup3\n      add\n        /* \"#utility.yul\":8038:8068   */\n      mstore\n        /* \"#utility.yul\":8104:8138   */\n      0x45524332303a206275726e2066726f6d20746865207a65726f20616464726573\n        /* \"#utility.yul\":8084:8102   */\n      0x44\n      dup3\n      add\n        /* \"#utility.yul\":8077:8139   */\n      mstore\n      shl(0xf8, 0x73)\n        /* \"#utility.yul\":8155:8173   */\n      0x64\n      dup3\n      add\n        /* \"#utility.yul\":8148:8179   */\n      mstore\n        /* \"#utility.yul\":8196:8215   */\n      0x84\n      add\n        /* \"contracts/pepe.sol\":6397:6464  require(account != address(0), \"ERC20: burn from the zero address\") */\n      tag_131\n        /* \"#utility.yul\":7824:8221   */\n      jump\n        /* \"contracts/pepe.sol\":6397:6464  require(account != address(0), \"ERC20: burn from the zero address\") */\n    tag_221:\n        /* \"contracts/pepe.sol\":6477:6526  _beforeTokenTransfer(account, address(0), amount) */\n      tag_224\n        /* \"contracts/pepe.sol\":6498:6505  account */\n      dup3\n        /* \"contracts/pepe.sol\":6515:6516  0 */\n      0x00\n        /* \"contracts/pepe.sol\":6519:6525  amount */\n      dup4\n        /* \"contracts/pepe.sol\":6477:6497  _beforeTokenTransfer */\n      tag_212\n        /* \"contracts/pepe.sol\":6477:6526  _beforeTokenTransfer(account, address(0), amount) */\n      jump\t// in\n    tag_224:\n      sub(shl(0xa0, 0x01), 0x01)\n        /* \"contracts/pepe.sol\":6564:6582  _balances[account] */\n      dup3\n      and\n        /* \"contracts/pepe.sol\":6539:6561  uint256 accountBalance */\n      0x00\n        /* \"contracts/pepe.sol\":6564:6582  _balances[account] */\n      swap1\n      dup2\n      mstore\n        /* \"contracts/pepe.sol\":6564:6573  _balances */\n      0x01\n        /* \"contracts/pepe.sol\":6564:6582  _balances[account] */\n      0x20\n      mstore\n      0x40\n      swap1\n      keccak256\n      sload\n        /* \"contracts/pepe.sol\":6601:6625  accountBalance >= amount */\n      dup2\n      dup2\n      lt\n      iszero\n        /* \"contracts/pepe.sol\":6593:6664  require(accountBalance >= amount, \"ERC20: burn amount exceeds balance\") */\n      tag_225\n      jumpi\n      mload(0x40)\n      shl(0xe5, 0x461bcd)\n      dup2\n      mstore\n        /* \"#utility.yul\":8428:8430   */\n      0x20\n        /* \"contracts/pepe.sol\":6593:6664  require(accountBalance >= amount, \"ERC20: burn amount exceeds balance\") */\n      0x04\n      dup3\n      add\n        /* \"#utility.yul\":8410:8431   */\n      mstore\n        /* \"#utility.yul\":8467:8469   */\n      0x22\n        /* \"#utility.yul\":8447:8465   */\n      0x24\n      dup3\n      add\n        /* \"#utility.yul\":8440:8470   */\n      mstore\n        /* \"#utility.yul\":8506:8540   */\n      0x45524332303a206275726e20616d6f756e7420657863656564732062616c616e\n        /* \"#utility.yul\":8486:8504   */\n      0x44\n      dup3\n      add\n        /* \"#utility.yul\":8479:8541   */\n      mstore\n      shl(0xf0, 0x6365)\n        /* \"#utility.yul\":8557:8575   */\n      0x64\n      dup3\n      add\n        /* \"#utility.yul\":8550:8582   */\n      mstore\n        /* \"#utility.yul\":8599:8618   */\n      0x84\n      add\n        /* \"contracts/pepe.sol\":6593:6664  require(accountBalance >= amount, \"ERC20: burn amount exceeds balance\") */\n      tag_131\n        /* \"#utility.yul\":8226:8624   */\n      jump\n        /* \"contracts/pepe.sol\":6593:6664  require(accountBalance >= amount, \"ERC20: burn amount exceeds balance\") */\n    tag_225:\n      sub(shl(0xa0, 0x01), 0x01)\n        /* \"contracts/pepe.sol\":6700:6718  _balances[account] */\n      dup4\n      and\n      0x00\n      swap1\n      dup2\n      mstore\n        /* \"contracts/pepe.sol\":6700:6709  _balances */\n      0x01\n        /* \"contracts/pepe.sol\":6700:6718  _balances[account] */\n      0x20\n      mstore\n      0x40\n      dup2\n      keccak256\n        /* \"contracts/pepe.sol\":6721:6744  accountBalance - amount */\n      dup4\n      dup4\n      sub\n        /* \"contracts/pepe.sol\":6700:6744  _balances[account] = accountBalance - amount */\n      swap1\n      sstore\n        /* \"contracts/pepe.sol\":6766:6778  _totalSupply */\n      0x03\n        /* \"contracts/pepe.sol\":6766:6788  _totalSupply -= amount */\n      dup1\n      sload\n        /* \"contracts/pepe.sol\":6738:6744  amount */\n      dup5\n      swap3\n        /* \"contracts/pepe.sol\":6700:6718  _balances[account] */\n      swap1\n        /* \"contracts/pepe.sol\":6766:6788  _totalSupply -= amount */\n      tag_228\n      swap1\n        /* \"contracts/pepe.sol\":6738:6744  amount */\n      dup5\n      swap1\n        /* \"contracts/pepe.sol\":6766:6788  _totalSupply -= amount */\n      tag_229\n      jump\t// in\n    tag_228:\n      swap1\n      swap2\n      sstore\n      pop\n      pop\n        /* \"contracts/pepe.sol\":6806:6843  Transfer(account, address(0), amount) */\n      mload(0x40)\n        /* \"#utility.yul\":1533:1558   */\n      dup3\n      dup2\n      mstore\n        /* \"contracts/pepe.sol\":6832:6833  0 */\n      0x00\n      swap1\n      sub(shl(0xa0, 0x01), 0x01)\n        /* \"contracts/pepe.sol\":6806:6843  Transfer(account, address(0), amount) */\n      dup6\n      and\n      swap1\n      0xddf252ad1be2c89b69c2b068fc378daa952ba7f163c4a11628f55a4df523b3ef\n      swap1\n        /* \"#utility.yul\":1521:1523   */\n      0x20\n        /* \"#utility.yul\":1506:1524   */\n      add\n        /* \"contracts/pepe.sol\":6806:6843  Transfer(account, address(0), amount) */\n      tag_203\n        /* \"#utility.yul\":1387:1564   */\n      jump\n        /* \"contracts/pepe.sol\":6856:6904  _afterTokenTransfer(account, address(0), amount) */\n    tag_231:\n        /* \"contracts/pepe.sol\":6386:6912  {... */\n      pop\n        /* \"contracts/pepe.sol\":6321:6912  function _burn(address account, uint256 amount) internal virtual {... */\n      pop\n      pop\n      jump\t// out\n        /* \"contracts/pepe.sol\":1114:1305  function _transferOwnership(address newOwner) internal virtual {... */\n    tag_166:\n        /* \"contracts/pepe.sol\":1188:1204  address oldOwner */\n      0x00\n        /* \"contracts/pepe.sol\":1207:1213  _owner */\n      dup1\n      sload\n      sub(shl(0xa0, 0x01), 0x01)\n        /* \"contracts/pepe.sol\":1224:1241  _owner = newOwner */\n      dup4\n      dup2\n      and\n      not(sub(shl(0xa0, 0x01), 0x01))\n      dup4\n      and\n      dup2\n      or\n      dup5\n      sstore\n        /* \"contracts/pepe.sol\":1257:1297  OwnershipTransferred(oldOwner, newOwner) */\n      mload(0x40)\n        /* \"contracts/pepe.sol\":1207:1213  _owner */\n      swap2\n      swap1\n      swap3\n      and\n      swap3\n      dup4\n      swap2\n        /* \"contracts/pepe.sol\":1257:1297  OwnershipTransferred(oldOwner, newOwner) */\n      0x8be0079c531659141344cd1fd0a4f28419497f9722a3daafe3b4186f6b6457e0\n      swap2\n        /* \"contracts/pepe.sol\":1188:1204  address oldOwner */\n      swap1\n        /* \"contracts/pepe.sol\":1257:1297  OwnershipTransferred(oldOwner, newOwner) */\n      log3\n        /* \"contracts/pepe.sol\":1177:1305  {... */\n      pop\n        /* \"contracts/pepe.sol\":1114:1305  function _transferOwnership(address newOwner) internal virtual {... */\n      pop\n      jump\t// out\n        /* \"contracts/pepe.sol\":8357:8924  function _beforeTokenTransfer(... */\n    tag_212:\n      sub(shl(0xa0, 0x01), 0x01)\n        /* \"contracts/pepe.sol\":8509:8523  blacklists[to] */\n      dup3\n      and\n      0x00\n      swap1\n      dup2\n      mstore\n        /* \"contracts/pepe.sol\":8509:8519  blacklists */\n      0x0a\n        /* \"contracts/pepe.sol\":8509:8523  blacklists[to] */\n      0x20\n      mstore\n      0x40\n      swap1\n      keccak256\n      sload\n      0xff\n      and\n        /* \"contracts/pepe.sol\":8508:8523  !blacklists[to] */\n      iszero\n        /* \"contracts/pepe.sol\":8508:8544  !blacklists[to] && !blacklists[from] */\n      dup1\n      iszero\n      tag_234\n      jumpi\n      pop\n      sub(shl(0xa0, 0x01), 0x01)\n        /* \"contracts/pepe.sol\":8528:8544  blacklists[from] */\n      dup4\n      and\n      0x00\n      swap1\n      dup2\n      mstore\n        /* \"contracts/pepe.sol\":8528:8538  blacklists */\n      0x0a\n        /* \"contracts/pepe.sol\":8528:8544  blacklists[from] */\n      0x20\n      mstore\n      0x40\n      swap1\n      keccak256\n      sload\n      0xff\n      and\n        /* \"contracts/pepe.sol\":8527:8544  !blacklists[from] */\n      iszero\n        /* \"contracts/pepe.sol\":8508:8544  !blacklists[to] && !blacklists[from] */\n    tag_234:\n        /* \"contracts/pepe.sol\":8500:8560  require(!blacklists[to] && !blacklists[from], \"Blacklisted\") */\n      tag_235\n      jumpi\n      mload(0x40)\n      shl(0xe5, 0x461bcd)\n      dup2\n      mstore\n        /* \"#utility.yul\":8964:8966   */\n      0x20\n        /* \"contracts/pepe.sol\":8500:8560  require(!blacklists[to] && !blacklists[from], \"Blacklisted\") */\n      0x04\n      dup3\n      add\n        /* \"#utility.yul\":8946:8967   */\n      mstore\n        /* \"#utility.yul\":9003:9005   */\n      0x0b\n        /* \"#utility.yul\":8983:9001   */\n      0x24\n      dup3\n      add\n        /* \"#utility.yul\":8976:9006   */\n      mstore\n      shl(0xaa, 0x109b1858dadb1a5cdd1959)\n        /* \"#utility.yul\":9022:9040   */\n      0x44\n      dup3\n      add\n        /* \"#utility.yul\":9015:9056   */\n      mstore\n        /* \"#utility.yul\":9073:9091   */\n      0x64\n      add\n        /* \"contracts/pepe.sol\":8500:8560  require(!blacklists[to] && !blacklists[from], \"Blacklisted\") */\n      tag_131\n        /* \"#utility.yul\":8762:9097   */\n      jump\n        /* \"contracts/pepe.sol\":8500:8560  require(!blacklists[to] && !blacklists[from], \"Blacklisted\") */\n    tag_235:\n        /* \"contracts/pepe.sol\":8577:8590  uniswapV2Pair */\n      and(sub(shl(0xa0, 0x01), 0x01), sload(0x09))\n        /* \"contracts/pepe.sol\":8573:8721  if (uniswapV2Pair == address(0)) {... */\n      tag_238\n      jumpi\n        /* \"contracts/pepe.sol\":612:619  address */\n      0x00\n        /* \"contracts/pepe.sol\":639:645  _owner */\n      sload\n      sub(shl(0xa0, 0x01), 0x01)\n        /* \"contracts/pepe.sol\":8629:8644  from == owner() */\n      dup5\n      dup2\n      and\n        /* \"contracts/pepe.sol\":639:645  _owner */\n      swap2\n      and\n        /* \"contracts/pepe.sol\":8629:8644  from == owner() */\n      eq\n      dup1\n        /* \"contracts/pepe.sol\":8629:8661  from == owner() || to == owner() */\n      tag_240\n      jumpi\n      pop\n        /* \"contracts/pepe.sol\":612:619  address */\n      0x00\n        /* \"contracts/pepe.sol\":639:645  _owner */\n      sload\n      sub(shl(0xa0, 0x01), 0x01)\n        /* \"contracts/pepe.sol\":8648:8661  to == owner() */\n      dup4\n      dup2\n      and\n        /* \"contracts/pepe.sol\":639:645  _owner */\n      swap2\n      and\n        /* \"contracts/pepe.sol\":8648:8661  to == owner() */\n      eq\n        /* \"contracts/pepe.sol\":8629:8661  from == owner() || to == owner() */\n    tag_240:\n        /* \"contracts/pepe.sol\":8621:8688  require(from == owner() || to == owner(), \"trading is not started\") */\n      tag_231\n      jumpi\n      mload(0x40)\n      shl(0xe5, 0x461bcd)\n      dup2\n      mstore\n        /* \"#utility.yul\":9304:9306   */\n      0x20\n        /* \"contracts/pepe.sol\":8621:8688  require(from == owner() || to == owner(), \"trading is not started\") */\n      0x04\n      dup3\n      add\n        /* \"#utility.yul\":9286:9307   */\n      mstore\n        /* \"#utility.yul\":9343:9345   */\n      0x16\n        /* \"#utility.yul\":9323:9341   */\n      0x24\n      dup3\n      add\n        /* \"#utility.yul\":9316:9346   */\n      mstore\n      shl(0x52, 0x1d1c98591a5b99c81a5cc81b9bdd081cdd185c9d1959)\n        /* \"#utility.yul\":9362:9380   */\n      0x44\n      dup3\n      add\n        /* \"#utility.yul\":9355:9407   */\n      mstore\n        /* \"#utility.yul\":9424:9442   */\n      0x64\n      add\n        /* \"contracts/pepe.sol\":8621:8688  require(from == owner() || to == owner(), \"trading is not started\") */\n      tag_131\n        /* \"#utility.yul\":9102:9448   */\n      jump\n        /* \"contracts/pepe.sol\":8573:8721  if (uniswapV2Pair == address(0)) {... */\n    tag_238:\n        /* \"contracts/pepe.sol\":8737:8744  limited */\n      and(0xff, sload(0x06))\n        /* \"contracts/pepe.sol\":8737:8769  limited && from == uniswapV2Pair */\n      dup1\n      iszero\n      tag_245\n      jumpi\n      pop\n        /* \"contracts/pepe.sol\":8756:8769  uniswapV2Pair */\n      sload(0x09)\n      sub(shl(0xa0, 0x01), 0x01)\n        /* \"contracts/pepe.sol\":8748:8769  from == uniswapV2Pair */\n      dup5\n      dup2\n      and\n        /* \"contracts/pepe.sol\":8756:8769  uniswapV2Pair */\n      swap2\n      and\n        /* \"contracts/pepe.sol\":8748:8769  from == uniswapV2Pair */\n      eq\n        /* \"contracts/pepe.sol\":8737:8769  limited && from == uniswapV2Pair */\n    tag_245:\n        /* \"contracts/pepe.sol\":8733:8917  if (limited && from == uniswapV2Pair) {... */\n      iszero\n      tag_231\n      jumpi\n        /* \"contracts/pepe.sol\":8826:8842  maxHoldingAmount */\n      sload(0x07)\n        /* \"contracts/pepe.sol\":8816:8822  amount */\n      dup2\n        /* \"contracts/pepe.sol\":8794:8813  super.balanceOf(to) */\n      tag_247\n        /* \"contracts/pepe.sol\":8810:8812  to */\n      dup5\n        /* \"contracts/pepe.sol\":8794:8809  super.balanceOf */\n      tag_81\n        /* \"contracts/pepe.sol\":8794:8813  super.balanceOf(to) */\n      jump\t// in\n    tag_247:\n        /* \"contracts/pepe.sol\":8794:8822  super.balanceOf(to) + amount */\n      tag_248\n      swap2\n      swap1\n      tag_141\n      jump\t// in\n    tag_248:\n        /* \"contracts/pepe.sol\":8794:8842  super.balanceOf(to) + amount <= maxHoldingAmount */\n      gt\n      iszero\n        /* \"contracts/pepe.sol\":8794:8894  super.balanceOf(to) + amount <= maxHoldingAmount && super.balanceOf(to) + amount >= minHoldingAmount */\n      dup1\n      iszero\n      tag_249\n      jumpi\n      pop\n        /* \"contracts/pepe.sol\":8878:8894  minHoldingAmount */\n      sload(0x08)\n        /* \"contracts/pepe.sol\":8868:8874  amount */\n      dup2\n        /* \"contracts/pepe.sol\":8846:8865  super.balanceOf(to) */\n      tag_250\n        /* \"contracts/pepe.sol\":8862:8864  to */\n      dup5\n        /* \"contracts/pepe.sol\":8846:8861  super.balanceOf */\n      tag_81\n        /* \"contracts/pepe.sol\":8846:8865  super.balanceOf(to) */\n      jump\t// in\n    tag_250:\n        /* \"contracts/pepe.sol\":8846:8874  super.balanceOf(to) + amount */\n      tag_251\n      swap2\n      swap1\n      tag_141\n      jump\t// in\n    tag_251:\n        /* \"contracts/pepe.sol\":8846:8894  super.balanceOf(to) + amount >= minHoldingAmount */\n      lt\n      iszero\n        /* \"contracts/pepe.sol\":8794:8894  super.balanceOf(to) + amount <= maxHoldingAmount && super.balanceOf(to) + amount >= minHoldingAmount */\n    tag_249:\n        /* \"contracts/pepe.sol\":8786:8905  require(super.balanceOf(to) + amount <= maxHoldingAmount && super.balanceOf(to) + amount >= minHoldingAmount, \"Forbid\") */\n      tag_231\n      jumpi\n      mload(0x40)\n      shl(0xe5, 0x461bcd)\n      dup2\n      mstore\n        /* \"#utility.yul\":9655:9657   */\n      0x20\n        /* \"contracts/pepe.sol\":8786:8905  require(super.balanceOf(to) + amount <= maxHoldingAmount && super.balanceOf(to) + amount >= minHoldingAmount, \"Forbid\") */\n      0x04\n      dup3\n      add\n        /* \"#utility.yul\":9637:9658   */\n      mstore\n        /* \"#utility.yul\":9694:9695   */\n      0x06\n        /* \"#utility.yul\":9674:9692   */\n      0x24\n      dup3\n      add\n        /* \"#utility.yul\":9667:9696   */\n      mstore\n      shl(0xd2, 0x119bdc989a59)\n        /* \"#utility.yul\":9712:9730   */\n      0x44\n      dup3\n      add\n        /* \"#utility.yul\":9705:9741   */\n      mstore\n        /* \"#utility.yul\":9758:9776   */\n      0x64\n      add\n        /* \"contracts/pepe.sol\":8786:8905  require(super.balanceOf(to) + amount <= maxHoldingAmount && super.balanceOf(to) + amount >= minHoldingAmount, \"Forbid\") */\n      tag_131\n        /* \"#utility.yul\":9453:9782   */\n      jump\n        /* \"#utility.yul\":14:562   */\n    tag_31:\n        /* \"#utility.yul\":126:130   */\n      0x00\n        /* \"#utility.yul\":155:157   */\n      0x20\n        /* \"#utility.yul\":184:186   */\n      dup1\n        /* \"#utility.yul\":173:182   */\n      dup4\n        /* \"#utility.yul\":166:187   */\n      mstore\n        /* \"#utility.yul\":216:222   */\n      dup4\n        /* \"#utility.yul\":210:223   */\n      mload\n        /* \"#utility.yul\":259:265   */\n      dup1\n        /* \"#utility.yul\":254:256   */\n      dup3\n        /* \"#utility.yul\":243:252   */\n      dup6\n        /* \"#utility.yul\":239:257   */\n      add\n        /* \"#utility.yul\":232:266   */\n      mstore\n        /* \"#utility.yul\":284:285   */\n      0x00\n        /* \"#utility.yul\":294:434   */\n    tag_261:\n        /* \"#utility.yul\":308:314   */\n      dup2\n        /* \"#utility.yul\":305:306   */\n      dup2\n        /* \"#utility.yul\":302:315   */\n      lt\n        /* \"#utility.yul\":294:434   */\n      iszero\n      tag_263\n      jumpi\n        /* \"#utility.yul\":403:417   */\n      dup6\n      dup2\n      add\n        /* \"#utility.yul\":399:422   */\n      dup4\n      add\n        /* \"#utility.yul\":393:423   */\n      mload\n        /* \"#utility.yul\":369:386   */\n      dup6\n      dup3\n      add\n        /* \"#utility.yul\":388:390   */\n      0x40\n        /* \"#utility.yul\":365:391   */\n      add\n        /* \"#utility.yul\":358:424   */\n      mstore\n        /* \"#utility.yul\":323:333   */\n      dup3\n      add\n        /* \"#utility.yul\":294:434   */\n      jump(tag_261)\n    tag_263:\n        /* \"#utility.yul\":298:301   */\n      pop\n        /* \"#utility.yul\":483:484   */\n      0x00\n        /* \"#utility.yul\":478:480   */\n      0x40\n        /* \"#utility.yul\":469:475   */\n      dup3\n        /* \"#utility.yul\":458:467   */\n      dup7\n        /* \"#utility.yul\":454:476   */\n      add\n        /* \"#utility.yul\":450:481   */\n      add\n        /* \"#utility.yul\":443:485   */\n      mstore\n        /* \"#utility.yul\":553:555   */\n      0x40\n        /* \"#utility.yul\":546:548   */\n      0x1f\n        /* \"#utility.yul\":542:549   */\n      not\n        /* \"#utility.yul\":537:539   */\n      0x1f\n        /* \"#utility.yul\":529:535   */\n      dup4\n        /* \"#utility.yul\":525:540   */\n      add\n        /* \"#utility.yul\":521:550   */\n      and\n        /* \"#utility.yul\":510:519   */\n      dup6\n        /* \"#utility.yul\":506:551   */\n      add\n        /* \"#utility.yul\":502:556   */\n      add\n        /* \"#utility.yul\":494:556   */\n      swap3\n      pop\n      pop\n      pop\n        /* \"#utility.yul\":14:562   */\n      swap3\n      swap2\n      pop\n      pop\n      jump\t// out\n        /* \"#utility.yul\":567:740   */\n    tag_256:\n        /* \"#utility.yul\":635:655   */\n      dup1\n      calldataload\n      sub(shl(0xa0, 0x01), 0x01)\n        /* \"#utility.yul\":684:715   */\n      dup2\n      and\n        /* \"#utility.yul\":674:716   */\n      dup2\n      eq\n        /* \"#utility.yul\":664:734   */\n      tag_265\n      jumpi\n        /* \"#utility.yul\":730:731   */\n      0x00\n        /* \"#utility.yul\":727:728   */\n      dup1\n        /* \"#utility.yul\":720:732   */\n      revert\n        /* \"#utility.yul\":664:734   */\n    tag_265:\n        /* \"#utility.yul\":567:740   */\n      swap2\n      swap1\n      pop\n      jump\t// out\n        /* \"#utility.yul\":745:999   */\n    tag_34:\n        /* \"#utility.yul\":813:819   */\n      0x00\n        /* \"#utility.yul\":821:827   */\n      dup1\n        /* \"#utility.yul\":874:876   */\n      0x40\n        /* \"#utility.yul\":862:871   */\n      dup4\n        /* \"#utility.yul\":853:860   */\n      dup6\n        /* \"#utility.yul\":849:872   */\n      sub\n        /* \"#utility.yul\":845:877   */\n      slt\n        /* \"#utility.yul\":842:894   */\n      iszero\n      tag_267\n      jumpi\n        /* \"#utility.yul\":890:891   */\n      0x00\n        /* \"#utility.yul\":887:888   */\n      dup1\n        /* \"#utility.yul\":880:892   */\n      revert\n        /* \"#utility.yul\":842:894   */\n    tag_267:\n        /* \"#utility.yul\":913:942   */\n      tag_268\n        /* \"#utility.yul\":932:941   */\n      dup4\n        /* \"#utility.yul\":913:942   */\n      tag_256\n      jump\t// in\n    tag_268:\n        /* \"#utility.yul\":903:942   */\n      swap5\n        /* \"#utility.yul\":989:991   */\n      0x20\n        /* \"#utility.yul\":974:992   */\n      swap4\n      swap1\n      swap4\n      add\n        /* \"#utility.yul\":961:993   */\n      calldataload\n      swap4\n      pop\n      pop\n      pop\n        /* \"#utility.yul\":745:999   */\n      jump\t// out\n        /* \"#utility.yul\":1196:1382   */\n    tag_40:\n        /* \"#utility.yul\":1255:1261   */\n      0x00\n        /* \"#utility.yul\":1308:1310   */\n      0x20\n        /* \"#utility.yul\":1296:1305   */\n      dup3\n        /* \"#utility.yul\":1287:1294   */\n      dup5\n        /* \"#utility.yul\":1283:1306   */\n      sub\n        /* \"#utility.yul\":1279:1311   */\n      slt\n        /* \"#utility.yul\":1276:1328   */\n      iszero\n      tag_271\n      jumpi\n        /* \"#utility.yul\":1324:1325   */\n      0x00\n        /* \"#utility.yul\":1321:1322   */\n      dup1\n        /* \"#utility.yul\":1314:1326   */\n      revert\n        /* \"#utility.yul\":1276:1328   */\n    tag_271:\n        /* \"#utility.yul\":1347:1376   */\n      tag_272\n        /* \"#utility.yul\":1366:1375   */\n      dup3\n        /* \"#utility.yul\":1347:1376   */\n      tag_256\n      jump\t// in\n    tag_272:\n        /* \"#utility.yul\":1337:1376   */\n      swap4\n        /* \"#utility.yul\":1196:1382   */\n      swap3\n      pop\n      pop\n      pop\n      jump\t// out\n        /* \"#utility.yul\":1569:1897   */\n    tag_52:\n        /* \"#utility.yul\":1646:1652   */\n      0x00\n        /* \"#utility.yul\":1654:1660   */\n      dup1\n        /* \"#utility.yul\":1662:1668   */\n      0x00\n        /* \"#utility.yul\":1715:1717   */\n      0x60\n        /* \"#utility.yul\":1703:1712   */\n      dup5\n        /* \"#utility.yul\":1694:1701   */\n      dup7\n        /* \"#utility.yul\":1690:1713   */\n      sub\n        /* \"#utility.yul\":1686:1718   */\n      slt\n        /* \"#utility.yul\":1683:1735   */\n      iszero\n      tag_275\n      jumpi\n        /* \"#utility.yul\":1731:1732   */\n      0x00\n        /* \"#utility.yul\":1728:1729   */\n      dup1\n        /* \"#utility.yul\":1721:1733   */\n      revert\n        /* \"#utility.yul\":1683:1735   */\n    tag_275:\n        /* \"#utility.yul\":1754:1783   */\n      tag_276\n        /* \"#utility.yul\":1773:1782   */\n      dup5\n        /* \"#utility.yul\":1754:1783   */\n      tag_256\n      jump\t// in\n    tag_276:\n        /* \"#utility.yul\":1744:1783   */\n      swap3\n      pop\n        /* \"#utility.yul\":1802:1840   */\n      tag_277\n        /* \"#utility.yul\":1836:1838   */\n      0x20\n        /* \"#utility.yul\":1825:1834   */\n      dup6\n        /* \"#utility.yul\":1821:1839   */\n      add\n        /* \"#utility.yul\":1802:1840   */\n      tag_256\n      jump\t// in\n    tag_277:\n        /* \"#utility.yul\":1792:1840   */\n      swap2\n      pop\n        /* \"#utility.yul\":1887:1889   */\n      0x40\n        /* \"#utility.yul\":1876:1885   */\n      dup5\n        /* \"#utility.yul\":1872:1890   */\n      add\n        /* \"#utility.yul\":1859:1891   */\n      calldataload\n        /* \"#utility.yul\":1849:1891   */\n      swap1\n      pop\n        /* \"#utility.yul\":1569:1897   */\n      swap3\n      pop\n      swap3\n      pop\n      swap3\n      jump\t// out\n        /* \"#utility.yul\":2091:2251   */\n    tag_257:\n        /* \"#utility.yul\":2156:2176   */\n      dup1\n      calldataload\n        /* \"#utility.yul\":2212:2225   */\n      dup1\n      iszero\n        /* \"#utility.yul\":2205:2226   */\n      iszero\n        /* \"#utility.yul\":2195:2227   */\n      dup2\n      eq\n        /* \"#utility.yul\":2185:2245   */\n      tag_265\n      jumpi\n        /* \"#utility.yul\":2241:2242   */\n      0x00\n        /* \"#utility.yul\":2238:2239   */\n      dup1\n        /* \"#utility.yul\":2231:2243   */\n      revert\n        /* \"#utility.yul\":2256:2647   */\n    tag_65:\n        /* \"#utility.yul\":2339:2345   */\n      0x00\n        /* \"#utility.yul\":2347:2353   */\n      dup1\n        /* \"#utility.yul\":2355:2361   */\n      0x00\n        /* \"#utility.yul\":2363:2369   */\n      dup1\n        /* \"#utility.yul\":2416:2419   */\n      0x80\n        /* \"#utility.yul\":2404:2413   */\n      dup6\n        /* \"#utility.yul\":2395:2402   */\n      dup8\n        /* \"#utility.yul\":2391:2414   */\n      sub\n        /* \"#utility.yul\":2387:2420   */\n      slt\n        /* \"#utility.yul\":2384:2437   */\n      iszero\n      tag_282\n      jumpi\n        /* \"#utility.yul\":2433:2434   */\n      0x00\n        /* \"#utility.yul\":2430:2431   */\n      dup1\n        /* \"#utility.yul\":2423:2435   */\n      revert\n        /* \"#utility.yul\":2384:2437   */\n    tag_282:\n        /* \"#utility.yul\":2456:2482   */\n      tag_283\n        /* \"#utility.yul\":2472:2481   */\n      dup6\n        /* \"#utility.yul\":2456:2482   */\n      tag_257\n      jump\t// in\n    tag_283:\n        /* \"#utility.yul\":2446:2482   */\n      swap4\n      pop\n        /* \"#utility.yul\":2501:2539   */\n      tag_284\n        /* \"#utility.yul\":2535:2537   */\n      0x20\n        /* \"#utility.yul\":2524:2533   */\n      dup7\n        /* \"#utility.yul\":2520:2538   */\n      add\n        /* \"#utility.yul\":2501:2539   */\n      tag_256\n      jump\t// in\n    tag_284:\n        /* \"#utility.yul\":2256:2647   */\n      swap4\n      swap7\n        /* \"#utility.yul\":2491:2539   */\n      swap4\n      swap6\n      pop\n      pop\n      pop\n      pop\n        /* \"#utility.yul\":2586:2588   */\n      0x40\n        /* \"#utility.yul\":2571:2589   */\n      dup3\n      add\n        /* \"#utility.yul\":2558:2590   */\n      calldataload\n      swap2\n        /* \"#utility.yul\":2637:2639   */\n      0x60\n        /* \"#utility.yul\":2622:2640   */\n      add\n        /* \"#utility.yul\":2609:2641   */\n      calldataload\n      swap1\n        /* \"#utility.yul\":2256:2647   */\n      jump\t// out\n        /* \"#utility.yul\":2652:2906   */\n    tag_69:\n        /* \"#utility.yul\":2717:2723   */\n      0x00\n        /* \"#utility.yul\":2725:2731   */\n      dup1\n        /* \"#utility.yul\":2778:2780   */\n      0x40\n        /* \"#utility.yul\":2766:2775   */\n      dup4\n        /* \"#utility.yul\":2757:2764   */\n      dup6\n        /* \"#utility.yul\":2753:2776   */\n      sub\n        /* \"#utility.yul\":2749:2781   */\n      slt\n        /* \"#utility.yul\":2746:2798   */\n      iszero\n      tag_286\n      jumpi\n        /* \"#utility.yul\":2794:2795   */\n      0x00\n        /* \"#utility.yul\":2791:2792   */\n      dup1\n        /* \"#utility.yul\":2784:2796   */\n      revert\n        /* \"#utility.yul\":2746:2798   */\n    tag_286:\n        /* \"#utility.yul\":2817:2846   */\n      tag_287\n        /* \"#utility.yul\":2836:2845   */\n      dup4\n        /* \"#utility.yul\":2817:2846   */\n      tag_256\n      jump\t// in\n    tag_287:\n        /* \"#utility.yul\":2807:2846   */\n      swap2\n      pop\n        /* \"#utility.yul\":2865:2900   */\n      tag_288\n        /* \"#utility.yul\":2896:2898   */\n      0x20\n        /* \"#utility.yul\":2885:2894   */\n      dup5\n        /* \"#utility.yul\":2881:2899   */\n      add\n        /* \"#utility.yul\":2865:2900   */\n      tag_257\n      jump\t// in\n    tag_288:\n        /* \"#utility.yul\":2855:2900   */\n      swap1\n      pop\n        /* \"#utility.yul\":2652:2906   */\n      swap3\n      pop\n      swap3\n      swap1\n      pop\n      jump\t// out\n        /* \"#utility.yul\":2911:3091   */\n    tag_73:\n        /* \"#utility.yul\":2970:2976   */\n      0x00\n        /* \"#utility.yul\":3023:3025   */\n      0x20\n        /* \"#utility.yul\":3011:3020   */\n      dup3\n        /* \"#utility.yul\":3002:3009   */\n      dup5\n        /* \"#utility.yul\":2998:3021   */\n      sub\n        /* \"#utility.yul\":2994:3026   */\n      slt\n        /* \"#utility.yul\":2991:3043   */\n      iszero\n      tag_290\n      jumpi\n        /* \"#utility.yul\":3039:3040   */\n      0x00\n        /* \"#utility.yul\":3036:3037   */\n      dup1\n        /* \"#utility.yul\":3029:3041   */\n      revert\n        /* \"#utility.yul\":2991:3043   */\n    tag_290:\n      pop\n        /* \"#utility.yul\":3062:3085   */\n      calldataload\n      swap2\n        /* \"#utility.yul\":2911:3091   */\n      swap1\n      pop\n      jump\t// out\n        /* \"#utility.yul\":3304:3564   */\n    tag_107:\n        /* \"#utility.yul\":3372:3378   */\n      0x00\n        /* \"#utility.yul\":3380:3386   */\n      dup1\n        /* \"#utility.yul\":3433:3435   */\n      0x40\n        /* \"#utility.yul\":3421:3430   */\n      dup4\n        /* \"#utility.yul\":3412:3419   */\n      dup6\n        /* \"#utility.yul\":3408:3431   */\n      sub\n        /* \"#utility.yul\":3404:3436   */\n      slt\n        /* \"#utility.yul\":3401:3453   */\n      iszero\n      tag_293\n      jumpi\n        /* \"#utility.yul\":3449:3450   */\n      0x00\n        /* \"#utility.yul\":3446:3447   */\n      dup1\n        /* \"#utility.yul\":3439:3451   */\n      revert\n        /* \"#utility.yul\":3401:3453   */\n    tag_293:\n        /* \"#utility.yul\":3472:3501   */\n      tag_294\n        /* \"#utility.yul\":3491:3500   */\n      dup4\n        /* \"#utility.yul\":3472:3501   */\n      tag_256\n      jump\t// in\n    tag_294:\n        /* \"#utility.yul\":3462:3501   */\n      swap2\n      pop\n        /* \"#utility.yul\":3520:3558   */\n      tag_288\n        /* \"#utility.yul\":3554:3556   */\n      0x20\n        /* \"#utility.yul\":3543:3552   */\n      dup5\n        /* \"#utility.yul\":3539:3557   */\n      add\n        /* \"#utility.yul\":3520:3558   */\n      tag_256\n      jump\t// in\n        /* \"#utility.yul\":3569:3949   */\n    tag_115:\n        /* \"#utility.yul\":3648:3649   */\n      0x01\n        /* \"#utility.yul\":3644:3656   */\n      dup2\n      dup2\n      shr\n      swap1\n        /* \"#utility.yul\":3691:3703   */\n      dup3\n      and\n      dup1\n        /* \"#utility.yul\":3712:3773   */\n      tag_297\n      jumpi\n        /* \"#utility.yul\":3766:3770   */\n      0x7f\n        /* \"#utility.yul\":3758:3764   */\n      dup3\n        /* \"#utility.yul\":3754:3771   */\n      and\n        /* \"#utility.yul\":3744:3771   */\n      swap2\n      pop\n        /* \"#utility.yul\":3712:3773   */\n    tag_297:\n        /* \"#utility.yul\":3819:3821   */\n      0x20\n        /* \"#utility.yul\":3811:3817   */\n      dup3\n        /* \"#utility.yul\":3808:3822   */\n      lt\n        /* \"#utility.yul\":3788:3806   */\n      dup2\n        /* \"#utility.yul\":3785:3823   */\n      sub\n        /* \"#utility.yul\":3782:3943   */\n      tag_298\n      jumpi\n        /* \"#utility.yul\":3865:3875   */\n      0x4e487b71\n        /* \"#utility.yul\":3860:3863   */\n      0xe0\n        /* \"#utility.yul\":3856:3876   */\n      shl\n        /* \"#utility.yul\":3853:3854   */\n      0x00\n        /* \"#utility.yul\":3846:3877   */\n      mstore\n        /* \"#utility.yul\":3900:3904   */\n      0x22\n        /* \"#utility.yul\":3897:3898   */\n      0x04\n        /* \"#utility.yul\":3890:3905   */\n      mstore\n        /* \"#utility.yul\":3928:3932   */\n      0x24\n        /* \"#utility.yul\":3925:3926   */\n      0x00\n        /* \"#utility.yul\":3918:3933   */\n      revert\n        /* \"#utility.yul\":3782:3943   */\n    tag_298:\n      pop\n        /* \"#utility.yul\":3569:3949   */\n      swap2\n      swap1\n      pop\n      jump\t// out\n        /* \"#utility.yul\":4363:4490   */\n    tag_258:\n        /* \"#utility.yul\":4424:4434   */\n      0x4e487b71\n        /* \"#utility.yul\":4419:4422   */\n      0xe0\n        /* \"#utility.yul\":4415:4435   */\n      shl\n        /* \"#utility.yul\":4412:4413   */\n      0x00\n        /* \"#utility.yul\":4405:4436   */\n      mstore\n        /* \"#utility.yul\":4455:4459   */\n      0x11\n        /* \"#utility.yul\":4452:4453   */\n      0x04\n        /* \"#utility.yul\":4445:4460   */\n      mstore\n        /* \"#utility.yul\":4479:4483   */\n      0x24\n        /* \"#utility.yul\":4476:4477   */\n      0x00\n        /* \"#utility.yul\":4469:4484   */\n      revert\n        /* \"#utility.yul\":4495:4620   */\n    tag_141:\n        /* \"#utility.yul\":4560:4569   */\n      dup1\n      dup3\n      add\n        /* \"#utility.yul\":4581:4591   */\n      dup1\n      dup3\n      gt\n        /* \"#utility.yul\":4578:4614   */\n      iszero\n      tag_120\n      jumpi\n        /* \"#utility.yul\":4594:4612   */\n      tag_120\n      tag_258\n      jump\t// in\n        /* \"#utility.yul\":4625:4981   */\n    tag_147:\n        /* \"#utility.yul\":4827:4829   */\n      0x20\n        /* \"#utility.yul\":4809:4830   */\n      dup1\n      dup3\n      mstore\n        /* \"#utility.yul\":4846:4864   */\n      dup2\n      dup2\n      add\n        /* \"#utility.yul\":4839:4869   */\n      mstore\n        /* \"#utility.yul\":4905:4939   */\n      0x4f776e61626c653a2063616c6c6572206973206e6f7420746865206f776e6572\n        /* \"#utility.yul\":4900:4902   */\n      0x40\n        /* \"#utility.yul\":4885:4903   */\n      dup3\n      add\n        /* \"#utility.yul\":4878:4940   */\n      mstore\n        /* \"#utility.yul\":4972:4974   */\n      0x60\n        /* \"#utility.yul\":4957:4975   */\n      add\n      swap1\n        /* \"#utility.yul\":4625:4981   */\n      jump\t// out\n        /* \"#utility.yul\":8629:8757   */\n    tag_229:\n        /* \"#utility.yul\":8696:8705   */\n      dup2\n      dup2\n      sub\n        /* \"#utility.yul\":8717:8728   */\n      dup2\n      dup2\n      gt\n        /* \"#utility.yul\":8714:8751   */\n      iszero\n      tag_120\n      jumpi\n        /* \"#utility.yul\":8731:8749   */\n      tag_120\n      tag_258\n      jump\t// in\n\n    auxdata: 0xa2646970667358221220f4a42050cb78e3464d64025680cd68f25ca1b2d7640f5992874e07ca2d8d32b464736f6c63430008110033\n}\n",
				"bytecode": {
					"linkReferences": {},
					"object": "60806040523480156200001157600080fd5b50604051806040016040528060048152602001634665706560e01b815250604051806040016040528060048152602001634645504560e01b8152506200006662000060620000a960201b60201c565b620000ad565b600462000074838262000476565b50600562000083828262000476565b505050620000a3336a108b2a2c28029094000000620000fd60201b60201c565b6200056a565b3390565b600080546001600160a01b038381166001600160a01b0319831681178455604051919092169283917f8be0079c531659141344cd1fd0a4f28419497f9722a3daafe3b4186f6b6457e09190a35050565b6001600160a01b038216620001595760405162461bcd60e51b815260206004820152601f60248201527f45524332303a206d696e7420746f20746865207a65726f20616464726573730060448201526064015b60405180910390fd5b6200016760008383620001f4565b80600360008282546200017b919062000542565b90915550506001600160a01b03821660009081526001602052604081208054839290620001aa90849062000542565b90915550506040518181526001600160a01b038316906000907fddf252ad1be2c89b69c2b068fc378daa952ba7f163c4a11628f55a4df523b3ef9060200160405180910390a35050565b6001600160a01b0382166000908152600a602052604090205460ff161580156200023757506001600160a01b0383166000908152600a602052604090205460ff16155b620002735760405162461bcd60e51b815260206004820152600b60248201526a109b1858dadb1a5cdd195960aa1b604482015260640162000150565b6009546001600160a01b031662000301576000546001600160a01b0384811691161480620002ae57506000546001600160a01b038381169116145b620002fc5760405162461bcd60e51b815260206004820152601660248201527f74726164696e67206973206e6f74207374617274656400000000000000000000604482015260640162000150565b505050565b60065460ff1680156200032157506009546001600160a01b038481169116145b15620002fc57600754816200034184620003b760201b620005781760201c565b6200034d919062000542565b11158015620003805750600854816200037184620003b760201b620005781760201c565b6200037d919062000542565b10155b620002fc5760405162461bcd60e51b8152602060048201526006602482015265119bdc989a5960d21b604482015260640162000150565b6001600160a01b031660009081526001602052604090205490565b634e487b7160e01b600052604160045260246000fd5b600181811c90821680620003fd57607f821691505b6020821081036200041e57634e487b7160e01b600052602260045260246000fd5b50919050565b601f821115620002fc57600081815260208120601f850160051c810160208610156200044d5750805b601f850160051c820191505b818110156200046e5782815560010162000459565b505050505050565b81516001600160401b03811115620004925762000492620003d2565b620004aa81620004a38454620003e8565b8462000424565b602080601f831160018114620004e25760008415620004c95750858301515b600019600386901b1c1916600185901b1785556200046e565b600085815260208120601f198616915b828110156200051357888601518255948401946001909101908401620004f2565b5085821015620005325787850151600019600388901b60f8161c191681555b5050505050600190811b01905550565b808201808211156200056457634e487b7160e01b600052601160045260246000fd5b92915050565b610fe4806200057a6000396000f3fe608060405234801561001057600080fd5b50600436106101425760003560e01c806349bd5a5e116100b85780638da5cb5b1161007c5780638da5cb5b1461029257806395d89b41146102a3578063a457c2d7146102ab578063a9059cbb146102be578063dd62ed3e146102d1578063f2fde38b1461030a57600080fd5b806349bd5a5e1461023657806370a0823114610261578063715018a614610274578063860a32ec1461027c57806389f9a1d31461028957600080fd5b806323b872dd1161010a57806323b872dd146101c6578063313ce567146101d957806339509351146101e85780633aa633aa146101fb578063404e51291461021057806342966c681461022357600080fd5b806306fdde0314610147578063095ea7b31461016557806316c021291461018857806318160ddd146101ab5780631ab99e12146101bd575b600080fd5b61014f61031d565b60405161015c9190610d49565b60405180910390f35b610178610173366004610db3565b6103af565b604051901515815260200161015c565b610178610196366004610ddd565b600a6020526000908152604090205460ff1681565b6003545b60405190815260200161015c565b6101af60085481565b6101786101d4366004610dff565b6103c6565b6040516012815260200161015c565b6101786101f6366004610db3565b610475565b61020e610209366004610e4b565b6104b1565b005b61020e61021e366004610e8d565b610516565b61020e610231366004610ec0565b61056b565b600954610249906001600160a01b031681565b6040516001600160a01b03909116815260200161015c565b6101af61026f366004610ddd565b610578565b61020e610593565b6006546101789060ff1681565b6101af60075481565b6000546001600160a01b0316610249565b61014f6105c9565b6101786102b9366004610db3565b6105d8565b6101786102cc366004610db3565b610671565b6101af6102df366004610ed9565b6001600160a01b03918216600090815260026020908152604080832093909416825291909152205490565b61020e610318366004610ddd565b61067e565b60606004805461032c90610f03565b80601f016020809104026020016040519081016040528092919081815260200182805461035890610f03565b80156103a55780601f1061037a576101008083540402835291602001916103a5565b820191906000526020600020905b81548152906001019060200180831161038857829003601f168201915b5050505050905090565b60006103bc338484610716565b5060015b92915050565b60006103d384848461083b565b6001600160a01b03841660009081526002602090815260408083203384529091529020548281101561045d5760405162461bcd60e51b815260206004820152602860248201527f45524332303a207472616e7366657220616d6f756e74206578636565647320616044820152676c6c6f77616e636560c01b60648201526084015b60405180910390fd5b61046a8533858403610716565b506001949350505050565b3360008181526002602090815260408083206001600160a01b038716845290915281205490916103bc9185906104ac908690610f53565b610716565b6000546001600160a01b031633146104db5760405162461bcd60e51b815260040161045490610f66565b6006805460ff191694151594909417909355600980546001600160a01b0319166001600160a01b039390931692909217909155600755600855565b6000546001600160a01b031633146105405760405162461bcd60e51b815260040161045490610f66565b6001600160a01b03919091166000908152600a60205260409020805460ff1916911515919091179055565b6105753382610a15565b50565b6001600160a01b031660009081526001602052604090205490565b6000546001600160a01b031633146105bd5760405162461bcd60e51b815260040161045490610f66565b6105c76000610b6c565b565b60606005805461032c90610f03565b3360009081526002602090815260408083206001600160a01b03861684529091528120548281101561065a5760405162461bcd60e51b815260206004820152602560248201527f45524332303a2064656372656173656420616c6c6f77616e63652062656c6f77604482015264207a65726f60d81b6064820152608401610454565b6106673385858403610716565b5060019392505050565b60006103bc33848461083b565b6000546001600160a01b031633146106a85760405162461bcd60e51b815260040161045490610f66565b6001600160a01b03811661070d5760405162461bcd60e51b815260206004820152602660248201527f4f776e61626c653a206e6577206f776e657220697320746865207a65726f206160448201526564647265737360d01b6064820152608401610454565b61057581610b6c565b6001600160a01b0383166107785760405162461bcd60e51b8152602060048201526024808201527f45524332303a20617070726f76652066726f6d20746865207a65726f206164646044820152637265737360e01b6064820152608401610454565b6001600160a01b0382166107d95760405162461bcd60e51b815260206004820152602260248201527f45524332303a20617070726f766520746f20746865207a65726f206164647265604482015261737360f01b6064820152608401610454565b6001600160a01b0383811660008181526002602090815260408083209487168084529482529182902085905590518481527f8c5be1e5ebec7d5bd14f71427d1e84f3dd0314c0f7b2291e5b200ac8c7c3b92591015b60405180910390a3505050565b6001600160a01b03831661089f5760405162461bcd60e51b815260206004820152602560248201527f45524332303a207472616e736665722066726f6d20746865207a65726f206164604482015264647265737360d81b6064820152608401610454565b6001600160a01b0382166109015760405162461bcd60e51b815260206004820152602360248201527f45524332303a207472616e7366657220746f20746865207a65726f206164647260448201526265737360e81b6064820152608401610454565b61090c838383610bbc565b6001600160a01b038316600090815260016020526040902054818110156109845760405162461bcd60e51b815260206004820152602660248201527f45524332303a207472616e7366657220616d6f756e7420657863656564732062604482015265616c616e636560d01b6064820152608401610454565b6001600160a01b038085166000908152600160205260408082208585039055918516815290812080548492906109bb908490610f53565b92505081905550826001600160a01b0316846001600160a01b03167fddf252ad1be2c89b69c2b068fc378daa952ba7f163c4a11628f55a4df523b3ef84604051610a0791815260200190565b60405180910390a350505050565b6001600160a01b038216610a755760405162461bcd60e51b815260206004820152602160248201527f45524332303a206275726e2066726f6d20746865207a65726f206164647265736044820152607360f81b6064820152608401610454565b610a8182600083610bbc565b6001600160a01b03821660009081526001602052604090205481811015610af55760405162461bcd60e51b815260206004820152602260248201527f45524332303a206275726e20616d6f756e7420657863656564732062616c616e604482015261636560f01b6064820152608401610454565b6001600160a01b0383166000908152600160205260408120838303905560038054849290610b24908490610f9b565b90915550506040518281526000906001600160a01b038516907fddf252ad1be2c89b69c2b068fc378daa952ba7f163c4a11628f55a4df523b3ef9060200161082e565b505050565b600080546001600160a01b038381166001600160a01b0319831681178455604051919092169283917f8be0079c531659141344cd1fd0a4f28419497f9722a3daafe3b4186f6b6457e09190a35050565b6001600160a01b0382166000908152600a602052604090205460ff16158015610bfe57506001600160a01b0383166000908152600a602052604090205460ff16155b610c385760405162461bcd60e51b815260206004820152600b60248201526a109b1858dadb1a5cdd195960aa1b6044820152606401610454565b6009546001600160a01b0316610cb6576000546001600160a01b0384811691161480610c7157506000546001600160a01b038381169116145b610b675760405162461bcd60e51b81526020600482015260166024820152751d1c98591a5b99c81a5cc81b9bdd081cdd185c9d195960521b6044820152606401610454565b60065460ff168015610cd557506009546001600160a01b038481169116145b15610b675760075481610ce784610578565b610cf19190610f53565b11158015610d14575060085481610d0784610578565b610d119190610f53565b10155b610b675760405162461bcd60e51b8152602060048201526006602482015265119bdc989a5960d21b6044820152606401610454565b600060208083528351808285015260005b81811015610d7657858101830151858201604001528201610d5a565b506000604082860101526040601f19601f8301168501019250505092915050565b80356001600160a01b0381168114610dae57600080fd5b919050565b60008060408385031215610dc657600080fd5b610dcf83610d97565b946020939093013593505050565b600060208284031215610def57600080fd5b610df882610d97565b9392505050565b600080600060608486031215610e1457600080fd5b610e1d84610d97565b9250610e2b60208501610d97565b9150604084013590509250925092565b80358015158114610dae57600080fd5b60008060008060808587031215610e6157600080fd5b610e6a85610e3b565b9350610e7860208601610d97565b93969395505050506040820135916060013590565b60008060408385031215610ea057600080fd5b610ea983610d97565b9150610eb760208401610e3b565b90509250929050565b600060208284031215610ed257600080fd5b5035919050565b60008060408385031215610eec57600080fd5b610ef583610d97565b9150610eb760208401610d97565b600181811c90821680610f1757607f821691505b602082108103610f3757634e487b7160e01b600052602260045260246000fd5b50919050565b634e487b7160e01b600052601160045260246000fd5b808201808211156103c0576103c0610f3d565b6020808252818101527f4f776e61626c653a2063616c6c6572206973206e6f7420746865206f776e6572604082015260600190565b818103818111156103c0576103c0610f3d56fea2646970667358221220f4a42050cb78e3464d64025680cd68f25ca1b2d7640f5992874e07ca2d8d32b464736f6c63430008110033",
					"opcodes": "PUSH1 0x80 PUSH1 0x40 MSTORE CALLVALUE DUP1 ISZERO PUSH3 0x11 JUMPI PUSH1 0x0 DUP1 REVERT JUMPDEST POP PUSH1 0x40 MLOAD DUP1 PUSH1 0x40 ADD PUSH1 0x40 MSTORE DUP1 PUSH1 0x4 DUP2 MSTORE PUSH1 0x20 ADD PUSH4 0x46657065 PUSH1 0xE0 SHL DUP2 MSTORE POP PUSH1 0x40 MLOAD DUP1 PUSH1 0x40 ADD PUSH1 0x40 MSTORE DUP1 PUSH1 0x4 DUP2 MSTORE PUSH1 0x20 ADD PUSH4 0x46455045 PUSH1 0xE0 SHL DUP2 MSTORE POP PUSH3 0x66 PUSH3 0x60 PUSH3 0xA9 PUSH1 0x20 SHL PUSH1 0x20 SHR JUMP JUMPDEST PUSH3 0xAD JUMP JUMPDEST PUSH1 0x4 PUSH3 0x74 DUP4 DUP3 PUSH3 0x476 JUMP JUMPDEST POP PUSH1 0x5 PUSH3 0x83 DUP3 DUP3 PUSH3 0x476 JUMP JUMPDEST POP POP POP PUSH3 0xA3 CALLER PUSH11 0x108B2A2C28029094000000 PUSH3 0xFD PUSH1 0x20 SHL PUSH1 0x20 SHR JUMP JUMPDEST PUSH3 0x56A JUMP JUMPDEST CALLER SWAP1 JUMP JUMPDEST PUSH1 0x0 DUP1 SLOAD PUSH1 0x1 PUSH1 0x1 PUSH1 0xA0 SHL SUB DUP4 DUP2 AND PUSH1 0x1 PUSH1 0x1 PUSH1 0xA0 SHL SUB NOT DUP4 AND DUP2 OR DUP5 SSTORE PUSH1 0x40 MLOAD SWAP2 SWAP1 SWAP3 AND SWAP3 DUP4 SWAP2 PUSH32 0x8BE0079C531659141344CD1FD0A4F28419497F9722A3DAAFE3B4186F6B6457E0 SWAP2 SWAP1 LOG3 POP POP JUMP JUMPDEST PUSH1 0x1 PUSH1 0x1 PUSH1 0xA0 SHL SUB DUP3 AND PUSH3 0x159 JUMPI PUSH1 0x40 MLOAD PUSH3 0x461BCD PUSH1 0xE5 SHL DUP2 MSTORE PUSH1 0x20 PUSH1 0x4 DUP3 ADD MSTORE PUSH1 0x1F PUSH1 0x24 DUP3 ADD MSTORE PUSH32 0x45524332303A206D696E7420746F20746865207A65726F206164647265737300 PUSH1 0x44 DUP3 ADD MSTORE PUSH1 0x64 ADD JUMPDEST PUSH1 0x40 MLOAD DUP1 SWAP2 SUB SWAP1 REVERT JUMPDEST PUSH3 0x167 PUSH1 0x0 DUP4 DUP4 PUSH3 0x1F4 JUMP JUMPDEST DUP1 PUSH1 0x3 PUSH1 0x0 DUP3 DUP3 SLOAD PUSH3 0x17B SWAP2 SWAP1 PUSH3 0x542 JUMP JUMPDEST SWAP1 SWAP2 SSTORE POP POP PUSH1 0x1 PUSH1 0x1 PUSH1 0xA0 SHL SUB DUP3 AND PUSH1 0x0 SWAP1 DUP2 MSTORE PUSH1 0x1 PUSH1 0x20 MSTORE PUSH1 0x40 DUP2 KECCAK256 DUP1 SLOAD DUP4 SWAP3 SWAP1 PUSH3 0x1AA SWAP1 DUP5 SWAP1 PUSH3 0x542 JUMP JUMPDEST SWAP1 SWAP2 SSTORE POP POP PUSH1 0x40 MLOAD DUP2 DUP2 MSTORE PUSH1 0x1 PUSH1 0x1 PUSH1 0xA0 SHL SUB DUP4 AND SWAP1 PUSH1 0x0 SWAP1 PUSH32 0xDDF252AD1BE2C89B69C2B068FC378DAA952BA7F163C4A11628F55A4DF523B3EF SWAP1 PUSH1 0x20 ADD PUSH1 0x40 MLOAD DUP1 SWAP2 SUB SWAP1 LOG3 POP POP JUMP JUMPDEST PUSH1 0x1 PUSH1 0x1 PUSH1 0xA0 SHL SUB DUP3 AND PUSH1 0x0 SWAP1 DUP2 MSTORE PUSH1 0xA PUSH1 0x20 MSTORE PUSH1 0x40 SWAP1 KECCAK256 SLOAD PUSH1 0xFF AND ISZERO DUP1 ISZERO PUSH3 0x237 JUMPI POP PUSH1 0x1 PUSH1 0x1 PUSH1 0xA0 SHL SUB DUP4 AND PUSH1 0x0 SWAP1 DUP2 MSTORE PUSH1 0xA PUSH1 0x20 MSTORE PUSH1 0x40 SWAP1 KECCAK256 SLOAD PUSH1 0xFF AND ISZERO JUMPDEST PUSH3 0x273 JUMPI PUSH1 0x40 MLOAD PUSH3 0x461BCD PUSH1 0xE5 SHL DUP2 MSTORE PUSH1 0x20 PUSH1 0x4 DUP3 ADD MSTORE PUSH1 0xB PUSH1 0x24 DUP3 ADD MSTORE PUSH11 0x109B1858DADB1A5CDD1959 PUSH1 0xAA SHL PUSH1 0x44 DUP3 ADD MSTORE PUSH1 0x64 ADD PUSH3 0x150 JUMP JUMPDEST PUSH1 0x9 SLOAD PUSH1 0x1 PUSH1 0x1 PUSH1 0xA0 SHL SUB AND PUSH3 0x301 JUMPI PUSH1 0x0 SLOAD PUSH1 0x1 PUSH1 0x1 PUSH1 0xA0 SHL SUB DUP5 DUP2 AND SWAP2 AND EQ DUP1 PUSH3 0x2AE JUMPI POP PUSH1 0x0 SLOAD PUSH1 0x1 PUSH1 0x1 PUSH1 0xA0 SHL SUB DUP4 DUP2 AND SWAP2 AND EQ JUMPDEST PUSH3 0x2FC JUMPI PUSH1 0x40 MLOAD PUSH3 0x461BCD PUSH1 0xE5 SHL DUP2 MSTORE PUSH1 0x20 PUSH1 0x4 DUP3 ADD MSTORE PUSH1 0x16 PUSH1 0x24 DUP3 ADD MSTORE PUSH32 0x74726164696E67206973206E6F74207374617274656400000000000000000000 PUSH1 0x44 DUP3 ADD MSTORE PUSH1 0x64 ADD PUSH3 0x150 JUMP JUMPDEST POP POP POP JUMP JUMPDEST PUSH1 0x6 SLOAD PUSH1 0xFF AND DUP1 ISZERO PUSH3 0x321 JUMPI POP PUSH1 0x9 SLOAD PUSH1 0x1 PUSH1 0x1 PUSH1 0xA0 SHL SUB DUP5 DUP2 AND SWAP2 AND EQ JUMPDEST ISZERO PUSH3 0x2FC JUMPI PUSH1 0x7 SLOAD DUP2 PUSH3 0x341 DUP5 PUSH3 0x3B7 PUSH1 0x20 SHL PUSH3 0x578 OR PUSH1 0x20 SHR JUMP JUMPDEST PUSH3 0x34D SWAP2 SWAP1 PUSH3 0x542 JUMP JUMPDEST GT ISZERO DUP1 ISZERO PUSH3 0x380 JUMPI POP PUSH1 0x8 SLOAD DUP2 PUSH3 0x371 DUP5 PUSH3 0x3B7 PUSH1 0x20 SHL PUSH3 0x578 OR PUSH1 0x20 SHR JUMP JUMPDEST PUSH3 0x37D SWAP2 SWAP1 PUSH3 0x542 JUMP JUMPDEST LT ISZERO JUMPDEST PUSH3 0x2FC JUMPI PUSH1 0x40 MLOAD PUSH3 0x461BCD PUSH1 0xE5 SHL DUP2 MSTORE PUSH1 0x20 PUSH1 0x4 DUP3 ADD MSTORE PUSH1 0x6 PUSH1 0x24 DUP3 ADD MSTORE PUSH6 0x119BDC989A59 PUSH1 0xD2 SHL PUSH1 0x44 DUP3 ADD MSTORE PUSH1 0x64 ADD PUSH3 0x150 JUMP JUMPDEST PUSH1 0x1 PUSH1 0x1 PUSH1 0xA0 SHL SUB AND PUSH1 0x0 SWAP1 DUP2 MSTORE PUSH1 0x1 PUSH1 0x20 MSTORE PUSH1 0x40 SWAP1 KECCAK256 SLOAD SWAP1 JUMP JUMPDEST PUSH4 0x4E487B71 PUSH1 0xE0 SHL PUSH1 0x0 MSTORE PUSH1 0x41 PUSH1 0x4 MSTORE PUSH1 0x24 PUSH1 0x0 REVERT JUMPDEST PUSH1 0x1 DUP2 DUP2 SHR SWAP1 DUP3 AND DUP1 PUSH3 0x3FD JUMPI PUSH1 0x7F DUP3 AND SWAP2 POP JUMPDEST PUSH1 0x20 DUP3 LT DUP2 SUB PUSH3 0x41E JUMPI PUSH4 0x4E487B71 PUSH1 0xE0 SHL PUSH1 0x0 MSTORE PUSH1 0x22 PUSH1 0x4 MSTORE PUSH1 0x24 PUSH1 0x0 REVERT JUMPDEST POP SWAP2 SWAP1 POP JUMP JUMPDEST PUSH1 0x1F DUP3 GT ISZERO PUSH3 0x2FC JUMPI PUSH1 0x0 DUP2 DUP2 MSTORE PUSH1 0x20 DUP2 KECCAK256 PUSH1 0x1F DUP6 ADD PUSH1 0x5 SHR DUP2 ADD PUSH1 0x20 DUP7 LT ISZERO PUSH3 0x44D JUMPI POP DUP1 JUMPDEST PUSH1 0x1F DUP6 ADD PUSH1 0x5 SHR DUP3 ADD SWAP2 POP JUMPDEST DUP2 DUP2 LT ISZERO PUSH3 0x46E JUMPI DUP3 DUP2 SSTORE PUSH1 0x1 ADD PUSH3 0x459 JUMP JUMPDEST POP POP POP POP POP POP JUMP JUMPDEST DUP2 MLOAD PUSH1 0x1 PUSH1 0x1 PUSH1 0x40 SHL SUB DUP2 GT ISZERO PUSH3 0x492 JUMPI PUSH3 0x492 PUSH3 0x3D2 JUMP JUMPDEST PUSH3 0x4AA DUP2 PUSH3 0x4A3 DUP5 SLOAD PUSH3 0x3E8 JUMP JUMPDEST DUP5 PUSH3 0x424 JUMP JUMPDEST PUSH1 0x20 DUP1 PUSH1 0x1F DUP4 GT PUSH1 0x1 DUP2 EQ PUSH3 0x4E2 JUMPI PUSH1 0x0 DUP5 ISZERO PUSH3 0x4C9 JUMPI POP DUP6 DUP4 ADD MLOAD JUMPDEST PUSH1 0x0 NOT PUSH1 0x3 DUP7 SWAP1 SHL SHR NOT AND PUSH1 0x1 DUP6 SWAP1 SHL OR DUP6 SSTORE PUSH3 0x46E JUMP JUMPDEST PUSH1 0x0 DUP6 DUP2 MSTORE PUSH1 0x20 DUP2 KECCAK256 PUSH1 0x1F NOT DUP7 AND SWAP2 JUMPDEST DUP3 DUP2 LT ISZERO PUSH3 0x513 JUMPI DUP9 DUP7 ADD MLOAD DUP3 SSTORE SWAP5 DUP5 ADD SWAP5 PUSH1 0x1 SWAP1 SWAP2 ADD SWAP1 DUP5 ADD PUSH3 0x4F2 JUMP JUMPDEST POP DUP6 DUP3 LT ISZERO PUSH3 0x532 JUMPI DUP8 DUP6 ADD MLOAD PUSH1 0x0 NOT PUSH1 0x3 DUP9 SWAP1 SHL PUSH1 0xF8 AND SHR NOT AND DUP2 SSTORE JUMPDEST POP POP POP POP POP PUSH1 0x1 SWAP1 DUP2 SHL ADD SWAP1 SSTORE POP JUMP JUMPDEST DUP1 DUP3 ADD DUP1 DUP3 GT ISZERO PUSH3 0x564 JUMPI PUSH4 0x4E487B71 PUSH1 0xE0 SHL PUSH1 0x0 MSTORE PUSH1 0x11 PUSH1 0x4 MSTORE PUSH1 0x24 PUSH1 0x0 REVERT JUMPDEST SWAP3 SWAP2 POP POP JUMP JUMPDEST PUSH2 0xFE4 DUP1 PUSH3 0x57A PUSH1 0x0 CODECOPY PUSH1 0x0 RETURN INVALID PUSH1 0x80 PUSH1 0x40 MSTORE CALLVALUE DUP1 ISZERO PUSH2 0x10 JUMPI PUSH1 0x0 DUP1 REVERT JUMPDEST POP PUSH1 0x4 CALLDATASIZE LT PUSH2 0x142 JUMPI PUSH1 0x0 CALLDATALOAD PUSH1 0xE0 SHR DUP1 PUSH4 0x49BD5A5E GT PUSH2 0xB8 JUMPI DUP1 PUSH4 0x8DA5CB5B GT PUSH2 0x7C JUMPI DUP1 PUSH4 0x8DA5CB5B EQ PUSH2 0x292 JUMPI DUP1 PUSH4 0x95D89B41 EQ PUSH2 0x2A3 JUMPI DUP1 PUSH4 0xA457C2D7 EQ PUSH2 0x2AB JUMPI DUP1 PUSH4 0xA9059CBB EQ PUSH2 0x2BE JUMPI DUP1 PUSH4 0xDD62ED3E EQ PUSH2 0x2D1 JUMPI DUP1 PUSH4 0xF2FDE38B EQ PUSH2 0x30A JUMPI PUSH1 0x0 DUP1 REVERT JUMPDEST DUP1 PUSH4 0x49BD5A5E EQ PUSH2 0x236 JUMPI DUP1 PUSH4 0x70A08231 EQ PUSH2 0x261 JUMPI DUP1 PUSH4 0x715018A6 EQ PUSH2 0x274 JUMPI DUP1 PUSH4 0x860A32EC EQ PUSH2 0x27C JUMPI DUP1 PUSH4 0x89F9A1D3 EQ PUSH2 0x289 JUMPI PUSH1 0x0 DUP1 REVERT JUMPDEST DUP1 PUSH4 0x23B872DD GT PUSH2 0x10A JUMPI DUP1 PUSH4 0x23B872DD EQ PUSH2 0x1C6 JUMPI DUP1 PUSH4 0x313CE567 EQ PUSH2 0x1D9 JUMPI DUP1 PUSH4 0x39509351 EQ PUSH2 0x1E8 JUMPI DUP1 PUSH4 0x3AA633AA EQ PUSH2 0x1FB JUMPI DUP1 PUSH4 0x404E5129 EQ PUSH2 0x210 JUMPI DUP1 PUSH4 0x42966C68 EQ PUSH2 0x223 JUMPI PUSH1 0x0 DUP1 REVERT JUMPDEST DUP1 PUSH4 0x6FDDE03 EQ PUSH2 0x147 JUMPI DUP1 PUSH4 0x95EA7B3 EQ PUSH2 0x165 JUMPI DUP1 PUSH4 0x16C02129 EQ PUSH2 0x188 JUMPI DUP1 PUSH4 0x18160DDD EQ PUSH2 0x1AB JUMPI DUP1 PUSH4 0x1AB99E12 EQ PUSH2 0x1BD JUMPI JUMPDEST PUSH1 0x0 DUP1 REVERT JUMPDEST PUSH2 0x14F PUSH2 0x31D JUMP JUMPDEST PUSH1 0x40 MLOAD PUSH2 0x15C SWAP2 SWAP1 PUSH2 0xD49 JUMP JUMPDEST PUSH1 0x40 MLOAD DUP1 SWAP2 SUB SWAP1 RETURN JUMPDEST PUSH2 0x178 PUSH2 0x173 CALLDATASIZE PUSH1 0x4 PUSH2 0xDB3 JUMP JUMPDEST PUSH2 0x3AF JUMP JUMPDEST PUSH1 0x40 MLOAD SWAP1 ISZERO ISZERO DUP2 MSTORE PUSH1 0x20 ADD PUSH2 0x15C JUMP JUMPDEST PUSH2 0x178 PUSH2 0x196 CALLDATASIZE PUSH1 0x4 PUSH2 0xDDD JUMP JUMPDEST PUSH1 0xA PUSH1 0x20 MSTORE PUSH1 0x0 SWAP1 DUP2 MSTORE PUSH1 0x40 SWAP1 KECCAK256 SLOAD PUSH1 0xFF AND DUP2 JUMP JUMPDEST PUSH1 0x3 SLOAD JUMPDEST PUSH1 0x40 MLOAD SWAP1 DUP2 MSTORE PUSH1 0x20 ADD PUSH2 0x15C JUMP JUMPDEST PUSH2 0x1AF PUSH1 0x8 SLOAD DUP2 JUMP JUMPDEST PUSH2 0x178 PUSH2 0x1D4 CALLDATASIZE PUSH1 0x4 PUSH2 0xDFF JUMP JUMPDEST PUSH2 0x3C6 JUMP JUMPDEST PUSH1 0x40 MLOAD PUSH1 0x12 DUP2 MSTORE PUSH1 0x20 ADD PUSH2 0x15C JUMP JUMPDEST PUSH2 0x178 PUSH2 0x1F6 CALLDATASIZE PUSH1 0x4 PUSH2 0xDB3 JUMP JUMPDEST PUSH2 0x475 JUMP JUMPDEST PUSH2 0x20E PUSH2 0x209 CALLDATASIZE PUSH1 0x4 PUSH2 0xE4B JUMP JUMPDEST PUSH2 0x4B1 JUMP JUMPDEST STOP JUMPDEST PUSH2 0x20E PUSH2 0x21E CALLDATASIZE PUSH1 0x4 PUSH2 0xE8D JUMP JUMPDEST PUSH2 0x516 JUMP JUMPDEST PUSH2 0x20E PUSH2 0x231 CALLDATASIZE PUSH1 0x4 PUSH2 0xEC0 JUMP JUMPDEST PUSH2 0x56B JUMP JUMPDEST PUSH1 0x9 SLOAD PUSH2 0x249 SWAP1 PUSH1 0x1 PUSH1 0x1 PUSH1 0xA0 SHL SUB AND DUP2 JUMP JUMPDEST PUSH1 0x40 MLOAD PUSH1 0x1 PUSH1 0x1 PUSH1 0xA0 SHL SUB SWAP1 SWAP2 AND DUP2 MSTORE PUSH1 0x20 ADD PUSH2 0x15C JUMP JUMPDEST PUSH2 0x1AF PUSH2 0x26F CALLDATASIZE PUSH1 0x4 PUSH2 0xDDD JUMP JUMPDEST PUSH2 0x578 JUMP JUMPDEST PUSH2 0x20E PUSH2 0x593 JUMP JUMPDEST PUSH1 0x6 SLOAD PUSH2 0x178 SWAP1 PUSH1 0xFF AND DUP2 JUMP JUMPDEST PUSH2 0x1AF PUSH1 0x7 SLOAD DUP2 JUMP JUMPDEST PUSH1 0x0 SLOAD PUSH1 0x1 PUSH1 0x1 PUSH1 0xA0 SHL SUB AND PUSH2 0x249 JUMP JUMPDEST PUSH2 0x14F PUSH2 0x5C9 JUMP JUMPDEST PUSH2 0x178 PUSH2 0x2B9 CALLDATASIZE PUSH1 0x4 PUSH2 0xDB3 JUMP JUMPDEST PUSH2 0x5D8 JUMP JUMPDEST PUSH2 0x178 PUSH2 0x2CC CALLDATASIZE PUSH1 0x4 PUSH2 0xDB3 JUMP JUMPDEST PUSH2 0x671 JUMP JUMPDEST PUSH2 0x1AF PUSH2 0x2DF CALLDATASIZE PUSH1 0x4 PUSH2 0xED9 JUMP JUMPDEST PUSH1 0x1 PUSH1 0x1 PUSH1 0xA0 SHL SUB SWAP2 DUP3 AND PUSH1 0x0 SWAP1 DUP2 MSTORE PUSH1 0x2 PUSH1 0x20 SWAP1 DUP2 MSTORE PUSH1 0x40 DUP1 DUP4 KECCAK256 SWAP4 SWAP1 SWAP5 AND DUP3 MSTORE SWAP2 SWAP1 SWAP2 MSTORE KECCAK256 SLOAD SWAP1 JUMP JUMPDEST PUSH2 0x20E PUSH2 0x318 CALLDATASIZE PUSH1 0x4 PUSH2 0xDDD JUMP JUMPDEST PUSH2 0x67E JUMP JUMPDEST PUSH1 0x60 PUSH1 0x4 DUP1 SLOAD PUSH2 0x32C SWAP1 PUSH2 0xF03 JUMP JUMPDEST DUP1 PUSH1 0x1F ADD PUSH1 0x20 DUP1 SWAP2 DIV MUL PUSH1 0x20 ADD PUSH1 0x40 MLOAD SWAP1 DUP2 ADD PUSH1 0x40 MSTORE DUP1 SWAP3 SWAP2 SWAP1 DUP2 DUP2 MSTORE PUSH1 0x20 ADD DUP3 DUP1 SLOAD PUSH2 0x358 SWAP1 PUSH2 0xF03 JUMP JUMPDEST DUP1 ISZERO PUSH2 0x3A5 JUMPI DUP1 PUSH1 0x1F LT PUSH2 0x37A JUMPI PUSH2 0x100 DUP1 DUP4 SLOAD DIV MUL DUP4 MSTORE SWAP2 PUSH1 0x20 ADD SWAP2 PUSH2 0x3A5 JUMP JUMPDEST DUP3 ADD SWAP2 SWAP1 PUSH1 0x0 MSTORE PUSH1 0x20 PUSH1 0x0 KECCAK256 SWAP1 JUMPDEST DUP2 SLOAD DUP2 MSTORE SWAP1 PUSH1 0x1 ADD SWAP1 PUSH1 0x20 ADD DUP1 DUP4 GT PUSH2 0x388 JUMPI DUP3 SWAP1 SUB PUSH1 0x1F AND DUP3 ADD SWAP2 JUMPDEST POP POP POP POP POP SWAP1 POP SWAP1 JUMP JUMPDEST PUSH1 0x0 PUSH2 0x3BC CALLER DUP5 DUP5 PUSH2 0x716 JUMP JUMPDEST POP PUSH1 0x1 JUMPDEST SWAP3 SWAP2 POP POP JUMP JUMPDEST PUSH1 0x0 PUSH2 0x3D3 DUP5 DUP5 DUP5 PUSH2 0x83B JUMP JUMPDEST PUSH1 0x1 PUSH1 0x1 PUSH1 0xA0 SHL SUB DUP5 AND PUSH1 0x0 SWAP1 DUP2 MSTORE PUSH1 0x2 PUSH1 0x20 SWAP1 DUP2 MSTORE PUSH1 0x40 DUP1 DUP4 KECCAK256 CALLER DUP5 MSTORE SWAP1 SWAP2 MSTORE SWAP1 KECCAK256 SLOAD DUP3 DUP2 LT ISZERO PUSH2 0x45D JUMPI PUSH1 0x40 MLOAD PUSH3 0x461BCD PUSH1 0xE5 SHL DUP2 MSTORE PUSH1 0x20 PUSH1 0x4 DUP3 ADD MSTORE PUSH1 0x28 PUSH1 0x24 DUP3 ADD MSTORE PUSH32 0x45524332303A207472616E7366657220616D6F756E7420657863656564732061 PUSH1 0x44 DUP3 ADD MSTORE PUSH8 0x6C6C6F77616E6365 PUSH1 0xC0 SHL PUSH1 0x64 DUP3 ADD MSTORE PUSH1 0x84 ADD JUMPDEST PUSH1 0x40 MLOAD DUP1 SWAP2 SUB SWAP1 REVERT JUMPDEST PUSH2 0x46A DUP6 CALLER DUP6 DUP5 SUB PUSH2 0x716 JUMP JUMPDEST POP PUSH1 0x1 SWAP5 SWAP4 POP POP POP POP JUMP JUMPDEST CALLER PUSH1 0x0 DUP2 DUP2 MSTORE PUSH1 0x2 PUSH1 0x20 SWAP1 DUP2 MSTORE PUSH1 0x40 DUP1 DUP4 KECCAK256 PUSH1 0x1 PUSH1 0x1 PUSH1 0xA0 SHL SUB DUP8 AND DUP5 MSTORE SWAP1 SWAP2 MSTORE DUP2 KECCAK256 SLOAD SWAP1 SWAP2 PUSH2 0x3BC SWAP2 DUP6 SWAP1 PUSH2 0x4AC SWAP1 DUP7 SWAP1 PUSH2 0xF53 JUMP JUMPDEST PUSH2 0x716 JUMP JUMPDEST PUSH1 0x0 SLOAD PUSH1 0x1 PUSH1 0x1 PUSH1 0xA0 SHL SUB AND CALLER EQ PUSH2 0x4DB JUMPI PUSH1 0x40 MLOAD PUSH3 0x461BCD PUSH1 0xE5 SHL DUP2 MSTORE PUSH1 0x4 ADD PUSH2 0x454 SWAP1 PUSH2 0xF66 JUMP JUMPDEST PUSH1 0x6 DUP1 SLOAD PUSH1 0xFF NOT AND SWAP5 ISZERO ISZERO SWAP5 SWAP1 SWAP5 OR SWAP1 SWAP4 SSTORE PUSH1 0x9 DUP1 SLOAD PUSH1 0x1 PUSH1 0x1 PUSH1 0xA0 SHL SUB NOT AND PUSH1 0x1 PUSH1 0x1 PUSH1 0xA0 SHL SUB SWAP4 SWAP1 SWAP4 AND SWAP3 SWAP1 SWAP3 OR SWAP1 SWAP2 SSTORE PUSH1 0x7 SSTORE PUSH1 0x8 SSTORE JUMP JUMPDEST PUSH1 0x0 SLOAD PUSH1 0x1 PUSH1 0x1 PUSH1 0xA0 SHL SUB AND CALLER EQ PUSH2 0x540 JUMPI PUSH1 0x40 MLOAD PUSH3 0x461BCD PUSH1 0xE5 SHL DUP2 MSTORE PUSH1 0x4 ADD PUSH2 0x454 SWAP1 PUSH2 0xF66 JUMP JUMPDEST PUSH1 0x1 PUSH1 0x1 PUSH1 0xA0 SHL SUB SWAP2 SWAP1 SWAP2 AND PUSH1 0x0 SWAP1 DUP2 MSTORE PUSH1 0xA PUSH1 0x20 MSTORE PUSH1 0x40 SWAP1 KECCAK256 DUP1 SLOAD PUSH1 0xFF NOT AND SWAP2 ISZERO ISZERO SWAP2 SWAP1 SWAP2 OR SWAP1 SSTORE JUMP JUMPDEST PUSH2 0x575 CALLER DUP3 PUSH2 0xA15 JUMP JUMPDEST POP JUMP JUMPDEST PUSH1 0x1 PUSH1 0x1 PUSH1 0xA0 SHL SUB AND PUSH1 0x0 SWAP1 DUP2 MSTORE PUSH1 0x1 PUSH1 0x20 MSTORE PUSH1 0x40 SWAP1 KECCAK256 SLOAD SWAP1 JUMP JUMPDEST PUSH1 0x0 SLOAD PUSH1 0x1 PUSH1 0x1 PUSH1 0xA0 SHL SUB AND CALLER EQ PUSH2 0x5BD JUMPI PUSH1 0x40 MLOAD PUSH3 0x461BCD PUSH1 0xE5 SHL DUP2 MSTORE PUSH1 0x4 ADD PUSH2 0x454 SWAP1 PUSH2 0xF66 JUMP JUMPDEST PUSH2 0x5C7 PUSH1 0x0 PUSH2 0xB6C JUMP JUMPDEST JUMP JUMPDEST PUSH1 0x60 PUSH1 0x5 DUP1 SLOAD PUSH2 0x32C SWAP1 PUSH2 0xF03 JUMP JUMPDEST CALLER PUSH1 0x0 SWAP1 DUP2 MSTORE PUSH1 0x2 PUSH1 0x20 SWAP1 DUP2 MSTORE PUSH1 0x40 DUP1 DUP4 KECCAK256 PUSH1 0x1 PUSH1 0x1 PUSH1 0xA0 SHL SUB DUP7 AND DUP5 MSTORE SWAP1 SWAP2 MSTORE DUP2 KECCAK256 SLOAD DUP3 DUP2 LT ISZERO PUSH2 0x65A JUMPI PUSH1 0x40 MLOAD PUSH3 0x461BCD PUSH1 0xE5 SHL DUP2 MSTORE PUSH1 0x20 PUSH1 0x4 DUP3 ADD MSTORE PUSH1 0x25 PUSH1 0x24 DUP3 ADD MSTORE PUSH32 0x45524332303A2064656372656173656420616C6C6F77616E63652062656C6F77 PUSH1 0x44 DUP3 ADD MSTORE PUSH5 0x207A65726F PUSH1 0xD8 SHL PUSH1 0x64 DUP3 ADD MSTORE PUSH1 0x84 ADD PUSH2 0x454 JUMP JUMPDEST PUSH2 0x667 CALLER DUP6 DUP6 DUP5 SUB PUSH2 0x716 JUMP JUMPDEST POP PUSH1 0x1 SWAP4 SWAP3 POP POP POP JUMP JUMPDEST PUSH1 0x0 PUSH2 0x3BC CALLER DUP5 DUP5 PUSH2 0x83B JUMP JUMPDEST PUSH1 0x0 SLOAD PUSH1 0x1 PUSH1 0x1 PUSH1 0xA0 SHL SUB AND CALLER EQ PUSH2 0x6A8 JUMPI PUSH1 0x40 MLOAD PUSH3 0x461BCD PUSH1 0xE5 SHL DUP2 MSTORE PUSH1 0x4 ADD PUSH2 0x454 SWAP1 PUSH2 0xF66 JUMP JUMPDEST PUSH1 0x1 PUSH1 0x1 PUSH1 0xA0 SHL SUB DUP2 AND PUSH2 0x70D JUMPI PUSH1 0x40 MLOAD PUSH3 0x461BCD PUSH1 0xE5 SHL DUP2 MSTORE PUSH1 0x20 PUSH1 0x4 DUP3 ADD MSTORE PUSH1 0x26 PUSH1 0x24 DUP3 ADD MSTORE PUSH32 0x4F776E61626C653A206E6577206F776E657220697320746865207A65726F2061 PUSH1 0x44 DUP3 ADD MSTORE PUSH6 0x646472657373 PUSH1 0xD0 SHL PUSH1 0x64 DUP3 ADD MSTORE PUSH1 0x84 ADD PUSH2 0x454 JUMP JUMPDEST PUSH2 0x575 DUP2 PUSH2 0xB6C JUMP JUMPDEST PUSH1 0x1 PUSH1 0x1 PUSH1 0xA0 SHL SUB DUP4 AND PUSH2 0x778 JUMPI PUSH1 0x40 MLOAD PUSH3 0x461BCD PUSH1 0xE5 SHL DUP2 MSTORE PUSH1 0x20 PUSH1 0x4 DUP3 ADD MSTORE PUSH1 0x24 DUP1 DUP3 ADD MSTORE PUSH32 0x45524332303A20617070726F76652066726F6D20746865207A65726F20616464 PUSH1 0x44 DUP3 ADD MSTORE PUSH4 0x72657373 PUSH1 0xE0 SHL PUSH1 0x64 DUP3 ADD MSTORE PUSH1 0x84 ADD PUSH2 0x454 JUMP JUMPDEST PUSH1 0x1 PUSH1 0x1 PUSH1 0xA0 SHL SUB DUP3 AND PUSH2 0x7D9 JUMPI PUSH1 0x40 MLOAD PUSH3 0x461BCD PUSH1 0xE5 SHL DUP2 MSTORE PUSH1 0x20 PUSH1 0x4 DUP3 ADD MSTORE PUSH1 0x22 PUSH1 0x24 DUP3 ADD MSTORE PUSH32 0x45524332303A20617070726F766520746F20746865207A65726F206164647265 PUSH1 0x44 DUP3 ADD MSTORE PUSH2 0x7373 PUSH1 0xF0 SHL PUSH1 0x64 DUP3 ADD MSTORE PUSH1 0x84 ADD PUSH2 0x454 JUMP JUMPDEST PUSH1 0x1 PUSH1 0x1 PUSH1 0xA0 SHL SUB DUP4 DUP2 AND PUSH1 0x0 DUP2 DUP2 MSTORE PUSH1 0x2 PUSH1 0x20 SWAP1 DUP2 MSTORE PUSH1 0x40 DUP1 DUP4 KECCAK256 SWAP5 DUP8 AND DUP1 DUP5 MSTORE SWAP5 DUP3 MSTORE SWAP2 DUP3 SWAP1 KECCAK256 DUP6 SWAP1 SSTORE SWAP1 MLOAD DUP5 DUP2 MSTORE PUSH32 0x8C5BE1E5EBEC7D5BD14F71427D1E84F3DD0314C0F7B2291E5B200AC8C7C3B925 SWAP2 ADD JUMPDEST PUSH1 0x40 MLOAD DUP1 SWAP2 SUB SWAP1 LOG3 POP POP POP JUMP JUMPDEST PUSH1 0x1 PUSH1 0x1 PUSH1 0xA0 SHL SUB DUP4 AND PUSH2 0x89F JUMPI PUSH1 0x40 MLOAD PUSH3 0x461BCD PUSH1 0xE5 SHL DUP2 MSTORE PUSH1 0x20 PUSH1 0x4 DUP3 ADD MSTORE PUSH1 0x25 PUSH1 0x24 DUP3 ADD MSTORE PUSH32 0x45524332303A207472616E736665722066726F6D20746865207A65726F206164 PUSH1 0x44 DUP3 ADD MSTORE PUSH5 0x6472657373 PUSH1 0xD8 SHL PUSH1 0x64 DUP3 ADD MSTORE PUSH1 0x84 ADD PUSH2 0x454 JUMP JUMPDEST PUSH1 0x1 PUSH1 0x1 PUSH1 0xA0 SHL SUB DUP3 AND PUSH2 0x901 JUMPI PUSH1 0x40 MLOAD PUSH3 0x461BCD PUSH1 0xE5 SHL DUP2 MSTORE PUSH1 0x20 PUSH1 0x4 DUP3 ADD MSTORE PUSH1 0x23 PUSH1 0x24 DUP3 ADD MSTORE PUSH32 0x45524332303A207472616E7366657220746F20746865207A65726F2061646472 PUSH1 0x44 DUP3 ADD MSTORE PUSH3 0x657373 PUSH1 0xE8 SHL PUSH1 0x64 DUP3 ADD MSTORE PUSH1 0x84 ADD PUSH2 0x454 JUMP JUMPDEST PUSH2 0x90C DUP4 DUP4 DUP4 PUSH2 0xBBC JUMP JUMPDEST PUSH1 0x1 PUSH1 0x1 PUSH1 0xA0 SHL SUB DUP4 AND PUSH1 0x0 SWAP1 DUP2 MSTORE PUSH1 0x1 PUSH1 0x20 MSTORE PUSH1 0x40 SWAP1 KECCAK256 SLOAD DUP2 DUP2 LT ISZERO PUSH2 0x984 JUMPI PUSH1 0x40 MLOAD PUSH3 0x461BCD PUSH1 0xE5 SHL DUP2 MSTORE PUSH1 0x20 PUSH1 0x4 DUP3 ADD MSTORE PUSH1 0x26 PUSH1 0x24 DUP3 ADD MSTORE PUSH32 0x45524332303A207472616E7366657220616D6F756E7420657863656564732062 PUSH1 0x44 DUP3 ADD MSTORE PUSH6 0x616C616E6365 PUSH1 0xD0 SHL PUSH1 0x64 DUP3 ADD MSTORE PUSH1 0x84 ADD PUSH2 0x454 JUMP JUMPDEST PUSH1 0x1 PUSH1 0x1 PUSH1 0xA0 SHL SUB DUP1 DUP6 AND PUSH1 0x0 SWAP1 DUP2 MSTORE PUSH1 0x1 PUSH1 0x20 MSTORE PUSH1 0x40 DUP1 DUP3 KECCAK256 DUP6 DUP6 SUB SWAP1 SSTORE SWAP2 DUP6 AND DUP2 MSTORE SWAP1 DUP2 KECCAK256 DUP1 SLOAD DUP5 SWAP3 SWAP1 PUSH2 0x9BB SWAP1 DUP5 SWAP1 PUSH2 0xF53 JUMP JUMPDEST SWAP3 POP POP DUP2 SWAP1 SSTORE POP DUP3 PUSH1 0x1 PUSH1 0x1 PUSH1 0xA0 SHL SUB AND DUP5 PUSH1 0x1 PUSH1 0x1 PUSH1 0xA0 SHL SUB AND PUSH32 0xDDF252AD1BE2C89B69C2B068FC378DAA952BA7F163C4A11628F55A4DF523B3EF DUP5 PUSH1 0x40 MLOAD PUSH2 0xA07 SWAP2 DUP2 MSTORE PUSH1 0x20 ADD SWAP1 JUMP JUMPDEST PUSH1 0x40 MLOAD DUP1 SWAP2 SUB SWAP1 LOG3 POP POP POP POP JUMP JUMPDEST PUSH1 0x1 PUSH1 0x1 PUSH1 0xA0 SHL SUB DUP3 AND PUSH2 0xA75 JUMPI PUSH1 0x40 MLOAD PUSH3 0x461BCD PUSH1 0xE5 SHL DUP2 MSTORE PUSH1 0x20 PUSH1 0x4 DUP3 ADD MSTORE PUSH1 0x21 PUSH1 0x24 DUP3 ADD MSTORE PUSH32 0x45524332303A206275726E2066726F6D20746865207A65726F20616464726573 PUSH1 0x44 DUP3 ADD MSTORE PUSH1 0x73 PUSH1 0xF8 SHL PUSH1 0x64 DUP3 ADD MSTORE PUSH1 0x84 ADD PUSH2 0x454 JUMP JUMPDEST PUSH2 0xA81 DUP3 PUSH1 0x0 DUP4 PUSH2 0xBBC JUMP JUMPDEST PUSH1 0x1 PUSH1 0x1 PUSH1 0xA0 SHL SUB DUP3 AND PUSH1 0x0 SWAP1 DUP2 MSTORE PUSH1 0x1 PUSH1 0x20 MSTORE PUSH1 0x40 SWAP1 KECCAK256 SLOAD DUP2 DUP2 LT ISZERO PUSH2 0xAF5 JUMPI PUSH1 0x40 MLOAD PUSH3 0x461BCD PUSH1 0xE5 SHL DUP2 MSTORE PUSH1 0x20 PUSH1 0x4 DUP3 ADD MSTORE PUSH1 0x22 PUSH1 0x24 DUP3 ADD MSTORE PUSH32 0x45524332303A206275726E20616D6F756E7420657863656564732062616C616E PUSH1 0x44 DUP3 ADD MSTORE PUSH2 0x6365 PUSH1 0xF0 SHL PUSH1 0x64 DUP3 ADD MSTORE PUSH1 0x84 ADD PUSH2 0x454 JUMP JUMPDEST PUSH1 0x1 PUSH1 0x1 PUSH1 0xA0 SHL SUB DUP4 AND PUSH1 0x0 SWAP1 DUP2 MSTORE PUSH1 0x1 PUSH1 0x20 MSTORE PUSH1 0x40 DUP2 KECCAK256 DUP4 DUP4 SUB SWAP1 SSTORE PUSH1 0x3 DUP1 SLOAD DUP5 SWAP3 SWAP1 PUSH2 0xB24 SWAP1 DUP5 SWAP1 PUSH2 0xF9B JUMP JUMPDEST SWAP1 SWAP2 SSTORE POP POP PUSH1 0x40 MLOAD DUP3 DUP2 MSTORE PUSH1 0x0 SWAP1 PUSH1 0x1 PUSH1 0x1 PUSH1 0xA0 SHL SUB DUP6 AND SWAP1 PUSH32 0xDDF252AD1BE2C89B69C2B068FC378DAA952BA7F163C4A11628F55A4DF523B3EF SWAP1 PUSH1 0x20 ADD PUSH2 0x82E JUMP JUMPDEST POP POP POP JUMP JUMPDEST PUSH1 0x0 DUP1 SLOAD PUSH1 0x1 PUSH1 0x1 PUSH1 0xA0 SHL SUB DUP4 DUP2 AND PUSH1 0x1 PUSH1 0x1 PUSH1 0xA0 SHL SUB NOT DUP4 AND DUP2 OR DUP5 SSTORE PUSH1 0x40 MLOAD SWAP2 SWAP1 SWAP3 AND SWAP3 DUP4 SWAP2 PUSH32 0x8BE0079C531659141344CD1FD0A4F28419497F9722A3DAAFE3B4186F6B6457E0 SWAP2 SWAP1 LOG3 POP POP JUMP JUMPDEST PUSH1 0x1 PUSH1 0x1 PUSH1 0xA0 SHL SUB DUP3 AND PUSH1 0x0 SWAP1 DUP2 MSTORE PUSH1 0xA PUSH1 0x20 MSTORE PUSH1 0x40 SWAP1 KECCAK256 SLOAD PUSH1 0xFF AND ISZERO DUP1 ISZERO PUSH2 0xBFE JUMPI POP PUSH1 0x1 PUSH1 0x1 PUSH1 0xA0 SHL SUB DUP4 AND PUSH1 0x0 SWAP1 DUP2 MSTORE PUSH1 0xA PUSH1 0x20 MSTORE PUSH1 0x40 SWAP1 KECCAK256 SLOAD PUSH1 0xFF AND ISZERO JUMPDEST PUSH2 0xC38 JUMPI PUSH1 0x40 MLOAD PUSH3 0x461BCD PUSH1 0xE5 SHL DUP2 MSTORE PUSH1 0x20 PUSH1 0x4 DUP3 ADD MSTORE PUSH1 0xB PUSH1 0x24 DUP3 ADD MSTORE PUSH11 0x109B1858DADB1A5CDD1959 PUSH1 0xAA SHL PUSH1 0x44 DUP3 ADD MSTORE PUSH1 0x64 ADD PUSH2 0x454 JUMP JUMPDEST PUSH1 0x9 SLOAD PUSH1 0x1 PUSH1 0x1 PUSH1 0xA0 SHL SUB AND PUSH2 0xCB6 JUMPI PUSH1 0x0 SLOAD PUSH1 0x1 PUSH1 0x1 PUSH1 0xA0 SHL SUB DUP5 DUP2 AND SWAP2 AND EQ DUP1 PUSH2 0xC71 JUMPI POP PUSH1 0x0 SLOAD PUSH1 0x1 PUSH1 0x1 PUSH1 0xA0 SHL SUB DUP4 DUP2 AND SWAP2 AND EQ JUMPDEST PUSH2 0xB67 JUMPI PUSH1 0x40 MLOAD PUSH3 0x461BCD PUSH1 0xE5 SHL DUP2 MSTORE PUSH1 0x20 PUSH1 0x4 DUP3 ADD MSTORE PUSH1 0x16 PUSH1 0x24 DUP3 ADD MSTORE PUSH22 0x1D1C98591A5B99C81A5CC81B9BDD081CDD185C9D1959 PUSH1 0x52 SHL PUSH1 0x44 DUP3 ADD MSTORE PUSH1 0x64 ADD PUSH2 0x454 JUMP JUMPDEST PUSH1 0x6 SLOAD PUSH1 0xFF AND DUP1 ISZERO PUSH2 0xCD5 JUMPI POP PUSH1 0x9 SLOAD PUSH1 0x1 PUSH1 0x1 PUSH1 0xA0 SHL SUB DUP5 DUP2 AND SWAP2 AND EQ JUMPDEST ISZERO PUSH2 0xB67 JUMPI PUSH1 0x7 SLOAD DUP2 PUSH2 0xCE7 DUP5 PUSH2 0x578 JUMP JUMPDEST PUSH2 0xCF1 SWAP2 SWAP1 PUSH2 0xF53 JUMP JUMPDEST GT ISZERO DUP1 ISZERO PUSH2 0xD14 JUMPI POP PUSH1 0x8 SLOAD DUP2 PUSH2 0xD07 DUP5 PUSH2 0x578 JUMP JUMPDEST PUSH2 0xD11 SWAP2 SWAP1 PUSH2 0xF53 JUMP JUMPDEST LT ISZERO JUMPDEST PUSH2 0xB67 JUMPI PUSH1 0x40 MLOAD PUSH3 0x461BCD PUSH1 0xE5 SHL DUP2 MSTORE PUSH1 0x20 PUSH1 0x4 DUP3 ADD MSTORE PUSH1 0x6 PUSH1 0x24 DUP3 ADD MSTORE PUSH6 0x119BDC989A59 PUSH1 0xD2 SHL PUSH1 0x44 DUP3 ADD MSTORE PUSH1 0x64 ADD PUSH2 0x454 JUMP JUMPDEST PUSH1 0x0 PUSH1 0x20 DUP1 DUP4 MSTORE DUP4 MLOAD DUP1 DUP3 DUP6 ADD MSTORE PUSH1 0x0 JUMPDEST DUP2 DUP2 LT ISZERO PUSH2 0xD76 JUMPI DUP6 DUP2 ADD DUP4 ADD MLOAD DUP6 DUP3 ADD PUSH1 0x40 ADD MSTORE DUP3 ADD PUSH2 0xD5A JUMP JUMPDEST POP PUSH1 0x0 PUSH1 0x40 DUP3 DUP7 ADD ADD MSTORE PUSH1 0x40 PUSH1 0x1F NOT PUSH1 0x1F DUP4 ADD AND DUP6 ADD ADD SWAP3 POP POP POP SWAP3 SWAP2 POP POP JUMP JUMPDEST DUP1 CALLDATALOAD PUSH1 0x1 PUSH1 0x1 PUSH1 0xA0 SHL SUB DUP2 AND DUP2 EQ PUSH2 0xDAE JUMPI PUSH1 0x0 DUP1 REVERT JUMPDEST SWAP2 SWAP1 POP JUMP JUMPDEST PUSH1 0x0 DUP1 PUSH1 0x40 DUP4 DUP6 SUB SLT ISZERO PUSH2 0xDC6 JUMPI PUSH1 0x0 DUP1 REVERT JUMPDEST PUSH2 0xDCF DUP4 PUSH2 0xD97 JUMP JUMPDEST SWAP5 PUSH1 0x20 SWAP4 SWAP1 SWAP4 ADD CALLDATALOAD SWAP4 POP POP POP JUMP JUMPDEST PUSH1 0x0 PUSH1 0x20 DUP3 DUP5 SUB SLT ISZERO PUSH2 0xDEF JUMPI PUSH1 0x0 DUP1 REVERT JUMPDEST PUSH2 0xDF8 DUP3 PUSH2 0xD97 JUMP JUMPDEST SWAP4 SWAP3 POP POP POP JUMP JUMPDEST PUSH1 0x0 DUP1 PUSH1 0x0 PUSH1 0x60 DUP5 DUP7 SUB SLT ISZERO PUSH2 0xE14 JUMPI PUSH1 0x0 DUP1 REVERT JUMPDEST PUSH2 0xE1D DUP5 PUSH2 0xD97 JUMP JUMPDEST SWAP3 POP PUSH2 0xE2B PUSH1 0x20 DUP6 ADD PUSH2 0xD97 JUMP JUMPDEST SWAP2 POP PUSH1 0x40 DUP5 ADD CALLDATALOAD SWAP1 POP SWAP3 POP SWAP3 POP SWAP3 JUMP JUMPDEST DUP1 CALLDATALOAD DUP1 ISZERO ISZERO DUP2 EQ PUSH2 0xDAE JUMPI PUSH1 0x0 DUP1 REVERT JUMPDEST PUSH1 0x0 DUP1 PUSH1 0x0 DUP1 PUSH1 0x80 DUP6 DUP8 SUB SLT ISZERO PUSH2 0xE61 JUMPI PUSH1 0x0 DUP1 REVERT JUMPDEST PUSH2 0xE6A DUP6 PUSH2 0xE3B JUMP JUMPDEST SWAP4 POP PUSH2 0xE78 PUSH1 0x20 DUP7 ADD PUSH2 0xD97 JUMP JUMPDEST SWAP4 SWAP7 SWAP4 SWAP6 POP POP POP POP PUSH1 0x40 DUP3 ADD CALLDATALOAD SWAP2 PUSH1 0x60 ADD CALLDATALOAD SWAP1 JUMP JUMPDEST PUSH1 0x0 DUP1 PUSH1 0x40 DUP4 DUP6 SUB SLT ISZERO PUSH2 0xEA0 JUMPI PUSH1 0x0 DUP1 REVERT JUMPDEST PUSH2 0xEA9 DUP4 PUSH2 0xD97 JUMP JUMPDEST SWAP2 POP PUSH2 0xEB7 PUSH1 0x20 DUP5 ADD PUSH2 0xE3B JUMP JUMPDEST SWAP1 POP SWAP3 POP SWAP3 SWAP1 POP JUMP JUMPDEST PUSH1 0x0 PUSH1 0x20 DUP3 DUP5 SUB SLT ISZERO PUSH2 0xED2 JUMPI PUSH1 0x0 DUP1 REVERT JUMPDEST POP CALLDATALOAD SWAP2 SWAP1 POP JUMP JUMPDEST PUSH1 0x0 DUP1 PUSH1 0x40 DUP4 DUP6 SUB SLT ISZERO PUSH2 0xEEC JUMPI PUSH1 0x0 DUP1 REVERT JUMPDEST PUSH2 0xEF5 DUP4 PUSH2 0xD97 JUMP JUMPDEST SWAP2 POP PUSH2 0xEB7 PUSH1 0x20 DUP5 ADD PUSH2 0xD97 JUMP JUMPDEST PUSH1 0x1 DUP2 DUP2 SHR SWAP1 DUP3 AND DUP1 PUSH2 0xF17 JUMPI PUSH1 0x7F DUP3 AND SWAP2 POP JUMPDEST PUSH1 0x20 DUP3 LT DUP2 SUB PUSH2 0xF37 JUMPI PUSH4 0x4E487B71 PUSH1 0xE0 SHL PUSH1 0x0 MSTORE PUSH1 0x22 PUSH1 0x4 MSTORE PUSH1 0x24 PUSH1 0x0 REVERT JUMPDEST POP SWAP2 SWAP1 POP JUMP JUMPDEST PUSH4 0x4E487B71 PUSH1 0xE0 SHL PUSH1 0x0 MSTORE PUSH1 0x11 PUSH1 0x4 MSTORE PUSH1 0x24 PUSH1 0x0 REVERT JUMPDEST DUP1 DUP3 ADD DUP1 DUP3 GT ISZERO PUSH2 0x3C0 JUMPI PUSH2 0x3C0 PUSH2 0xF3D JUMP JUMPDEST PUSH1 0x20 DUP1 DUP3 MSTORE DUP2 DUP2 ADD MSTORE PUSH32 0x4F776E61626C653A2063616C6C6572206973206E6F7420746865206F776E6572 PUSH1 0x40 DUP3 ADD MSTORE PUSH1 0x60 ADD SWAP1 JUMP JUMPDEST DUP2 DUP2 SUB DUP2 DUP2 GT ISZERO PUSH2 0x3C0 JUMPI PUSH2 0x3C0 PUSH2 0xF3D JUMP INVALID LOG2 PUSH5 0x6970667358 0x22 SLT KECCAK256 DELEGATECALL LOG4 KECCAK256 POP 0xCB PUSH25 0xE3464D64025680CD68F25CA1B2D7640F5992874E07CA2D8D32 0xB4 PUSH5 0x736F6C6343 STOP ADDMOD GT STOP CALLER "
				},
				"gasEstimates": {
					"creation": {
						"codeDepositCost": "813600",
						"executionCost": "infinite",
						"totalCost": "infinite"
					},
					"external": {
						"allowance(address,address)": "infinite",
						"approve(address,uint256)": "24644",
						"balanceOf(address)": "2594",
						"blacklist(address,bool)": "infinite",
						"blacklists(address)": "2599",
						"burn(uint256)": "61908",
						"decimals()": "222",
						"decreaseAllowance(address,uint256)": "26955",
						"increaseAllowance(address,uint256)": "infinite",
						"limited()": "2399",
						"maxHoldingAmount()": "2406",
						"minHoldingAmount()": "2407",
						"name()": "infinite",
						"owner()": "2353",
						"renounceOwnership()": "28181",
						"setRule(bool,address,uint256,uint256)": "infinite",
						"symbol()": "infinite",
						"totalSupply()": "2371",
						"transfer(address,uint256)": "infinite",
						"transferFrom(address,address,uint256)": "infinite",
						"transferOwnership(address)": "28441",
						"uniswapV2Pair()": "2360"
					},
					"internal": {
						"_beforeTokenTransfer(address,address,uint256)": "infinite"
					}
				},
				"methodIdentifiers": {
					"allowance(address,address)": "dd62ed3e",
					"approve(address,uint256)": "095ea7b3",
					"balanceOf(address)": "70a08231",
					"blacklist(address,bool)": "404e5129",
					"blacklists(address)": "16c02129",
					"burn(uint256)": "42966c68",
					"decimals()": "313ce567",
					"decreaseAllowance(address,uint256)": "a457c2d7",
					"increaseAllowance(address,uint256)": "39509351",
					"limited()": "860a32ec",
					"maxHoldingAmount()": "89f9a1d3",
					"minHoldingAmount()": "1ab99e12",
					"name()": "06fdde03",
					"owner()": "8da5cb5b",
					"renounceOwnership()": "715018a6",
					"setRule(bool,address,uint256,uint256)": "3aa633aa",
					"symbol()": "95d89b41",
					"totalSupply()": "18160ddd",
					"transfer(address,uint256)": "a9059cbb",
					"transferFrom(address,address,uint256)": "23b872dd",
					"transferOwnership(address)": "f2fde38b",
					"uniswapV2Pair()": "49bd5a5e"
				}
			},
			"storageLayout": {
				"storage": [
					{
						"astId": 24,
						"contract": "contracts/pepe.sol:FepeToken",
						"label": "_owner",
						"offset": 0,
						"slot": "0",
						"type": "t_address"
					},
					{
						"astId": 214,
						"contract": "contracts/pepe.sol:FepeToken",
						"label": "_balances",
						"offset": 0,
						"slot": "1",
						"type": "t_mapping(t_address,t_uint256)"
					},
					{
						"astId": 220,
						"contract": "contracts/pepe.sol:FepeToken",
						"label": "_allowances",
						"offset": 0,
						"slot": "2",
						"type": "t_mapping(t_address,t_mapping(t_address,t_uint256))"
					},
					{
						"astId": 222,
						"contract": "contracts/pepe.sol:FepeToken",
						"label": "_totalSupply",
						"offset": 0,
						"slot": "3",
						"type": "t_uint256"
					},
					{
						"astId": 224,
						"contract": "contracts/pepe.sol:FepeToken",
						"label": "_name",
						"offset": 0,
						"slot": "4",
						"type": "t_string_storage"
					},
					{
						"astId": 226,
						"contract": "contracts/pepe.sol:FepeToken",
						"label": "_symbol",
						"offset": 0,
						"slot": "5",
						"type": "t_string_storage"
					},
					{
						"astId": 732,
						"contract": "contracts/pepe.sol:FepeToken",
						"label": "limited",
						"offset": 0,
						"slot": "6",
						"type": "t_bool"
					},
					{
						"astId": 734,
						"contract": "contracts/pepe.sol:FepeToken",
						"label": "maxHoldingAmount",
						"offset": 0,
						"slot": "7",
						"type": "t_uint256"
					},
					{
						"astId": 736,
						"contract": "contracts/pepe.sol:FepeToken",
						"label": "minHoldingAmount",
						"offset": 0,
						"slot": "8",
						"type": "t_uint256"
					},
					{
						"astId": 738,
						"contract": "contracts/pepe.sol:FepeToken",
						"label": "uniswapV2Pair",
						"offset": 0,
						"slot": "9",
						"type": "t_address"
					},
					{
						"astId": 742,
						"contract": "contracts/pepe.sol:FepeToken",
						"label": "blacklists",
						"offset": 0,
						"slot": "10",
						"type": "t_mapping(t_address,t_bool)"
					}
				],
				"types": {
					"t_address": {
						"encoding": "inplace",
						"label": "address",
						"numberOfBytes": "20"
					},
					"t_bool": {
						"encoding": "inplace",
						"label": "bool",
						"numberOfBytes": "1"
					},
					"t_mapping(t_address,t_bool)": {
						"encoding": "mapping",
						"key": "t_address",
						"label": "mapping(address => bool)",
						"numberOfBytes": "32",
						"value": "t_bool"
					},
					"t_mapping(t_address,t_mapping(t_address,t_uint256))": {
						"encoding": "mapping",
						"key": "t_address",
						"label": "mapping(address => mapping(address => uint256))",
						"numberOfBytes": "32",
						"value": "t_mapping(t_address,t_uint256)"
					},
					"t_mapping(t_address,t_uint256)": {
						"encoding": "mapping",
						"key": "t_address",
						"label": "mapping(address => uint256)",
						"numberOfBytes": "32",
						"value": "t_uint256"
					},
					"t_string_storage": {
						"encoding": "bytes",
						"label": "string",
						"numberOfBytes": "32"
					},
					"t_uint256": {
						"encoding": "inplace",
						"label": "uint256",
						"numberOfBytes": "32"
					}
				}
			},
			"userdoc": {
				"kind": "user",
				"methods": {},
				"version": 1
			}
		}
	}
}