{
	"contracts/STS.sol": {
		"STS": {
			"abi": [
				{
					"inputs": [],
					"stateMutability": "nonpayable",
					"type": "constructor"
				},
				{
					"anonymous": false,
					"inputs": [
						{
							"indexed": true,
							"internalType": "address",
							"name": "owner",
							"type": "address"
						},
						{
							"indexed": true,
							"internalType": "address",
							"name": "spender",
							"type": "address"
						},
						{
							"indexed": false,
							"internalType": "uint256",
							"name": "value",
							"type": "uint256"
						}
					],
					"name": "Approval",
					"type": "event"
				},
				{
					"anonymous": false,
					"inputs": [
						{
							"indexed": false,
							"internalType": "uint256",
							"name": "minTokensBeforeSwap",
							"type": "uint256"
						}
					],
					"name": "MinTokensBeforeSwapUpdated",
					"type": "event"
				},
				{
					"anonymous": false,
					"inputs": [
						{
							"indexed": true,
							"internalType": "address",
							"name": "previousOwner",
							"type": "address"
						},
						{
							"indexed": true,
							"internalType": "address",
							"name": "newOwner",
							"type": "address"
						}
					],
					"name": "OwnershipTransferred",
					"type": "event"
				},
				{
					"anonymous": false,
					"inputs": [
						{
							"indexed": false,
							"internalType": "uint256",
							"name": "tokensSwapped",
							"type": "uint256"
						},
						{
							"indexed": false,
							"internalType": "uint256",
							"name": "ethReceived",
							"type": "uint256"
						},
						{
							"indexed": false,
							"internalType": "uint256",
							"name": "tokensIntoLiqudity",
							"type": "uint256"
						}
					],
					"name": "SwapAndLiquify",
					"type": "event"
				},
				{
					"anonymous": false,
					"inputs": [
						{
							"indexed": false,
							"internalType": "bool",
							"name": "enabled",
							"type": "bool"
						}
					],
					"name": "SwapAndLiquifyEnabledUpdated",
					"type": "event"
				},
				{
					"anonymous": false,
					"inputs": [
						{
							"indexed": true,
							"internalType": "address",
							"name": "from",
							"type": "address"
						},
						{
							"indexed": true,
							"internalType": "address",
							"name": "to",
							"type": "address"
						},
						{
							"indexed": false,
							"internalType": "uint256",
							"name": "value",
							"type": "uint256"
						}
					],
					"name": "Transfer",
					"type": "event"
				},
				{
					"inputs": [
						{
							"internalType": "address",
							"name": "",
							"type": "address"
						}
					],
					"name": "AMMs",
					"outputs": [
						{
							"internalType": "bool",
							"name": "",
							"type": "bool"
						}
					],
					"stateMutability": "view",
					"type": "function"
				},
				{
					"inputs": [
						{
							"internalType": "address",
							"name": "",
							"type": "address"
						}
					],
					"name": "_isExcludedFromFee",
					"outputs": [
						{
							"internalType": "bool",
							"name": "",
							"type": "bool"
						}
					],
					"stateMutability": "view",
					"type": "function"
				},
				{
					"inputs": [
						{
							"internalType": "address",
							"name": "",
							"type": "address"
						}
					],
					"name": "_isExcludedFromMaxWallet",
					"outputs": [
						{
							"internalType": "bool",
							"name": "",
							"type": "bool"
						}
					],
					"stateMutability": "view",
					"type": "function"
				},
				{
					"inputs": [],
					"name": "_maxWalletAmount",
					"outputs": [
						{
							"internalType": "uint256",
							"name": "",
							"type": "uint256"
						}
					],
					"stateMutability": "view",
					"type": "function"
				},
				{
					"inputs": [
						{
							"internalType": "address",
							"name": "towner",
							"type": "address"
						},
						{
							"internalType": "address",
							"name": "spender",
							"type": "address"
						}
					],
					"name": "allowance",
					"outputs": [
						{
							"internalType": "uint256",
							"name": "",
							"type": "uint256"
						}
					],
					"stateMutability": "view",
					"type": "function"
				},
				{
					"inputs": [
						{
							"internalType": "address",
							"name": "spender",
							"type": "address"
						},
						{
							"internalType": "uint256",
							"name": "amount",
							"type": "uint256"
						}
					],
					"name": "approve",
					"outputs": [
						{
							"internalType": "bool",
							"name": "",
							"type": "bool"
						}
					],
					"stateMutability": "nonpayable",
					"type": "function"
				},
				{
					"inputs": [
						{
							"internalType": "address",
							"name": "account",
							"type": "address"
						}
					],
					"name": "balanceOf",
					"outputs": [
						{
							"internalType": "uint256",
							"name": "",
							"type": "uint256"
						}
					],
					"stateMutability": "view",
					"type": "function"
				},
				{
					"inputs": [],
					"name": "buybackAddress",
					"outputs": [
						{
							"internalType": "address payable",
							"name": "",
							"type": "address"
						}
					],
					"stateMutability": "view",
					"type": "function"
				},
				{
					"inputs": [],
					"name": "buybackFee",
					"outputs": [
						{
							"internalType": "uint256",
							"name": "",
							"type": "uint256"
						}
					],
					"stateMutability": "view",
					"type": "function"
				},
				{
					"inputs": [
						{
							"internalType": "uint256",
							"name": "maxWalletAmount",
							"type": "uint256"
						}
					],
					"name": "changeMaxWalletLimit",
					"outputs": [],
					"stateMutability": "nonpayable",
					"type": "function"
				},
				{
					"inputs": [
						{
							"internalType": "uint256",
							"name": "_numTokensSellToAddToLiquidity",
							"type": "uint256"
						}
					],
					"name": "changeNumTokensSellToAddToLiquidity",
					"outputs": [],
					"stateMutability": "nonpayable",
					"type": "function"
				},
				{
					"inputs": [],
					"name": "charityAddress",
					"outputs": [
						{
							"internalType": "address payable",
							"name": "",
							"type": "address"
						}
					],
					"stateMutability": "view",
					"type": "function"
				},
				{
					"inputs": [],
					"name": "charityFee",
					"outputs": [
						{
							"internalType": "uint256",
							"name": "",
							"type": "uint256"
						}
					],
					"stateMutability": "view",
					"type": "function"
				},
				{
					"inputs": [],
					"name": "decimals",
					"outputs": [
						{
							"internalType": "uint8",
							"name": "",
							"type": "uint8"
						}
					],
					"stateMutability": "view",
					"type": "function"
				},
				{
					"inputs": [
						{
							"internalType": "address",
							"name": "spender",
							"type": "address"
						},
						{
							"internalType": "uint256",
							"name": "subtractedValue",
							"type": "uint256"
						}
					],
					"name": "decreaseAllowance",
					"outputs": [
						{
							"internalType": "bool",
							"name": "",
							"type": "bool"
						}
					],
					"stateMutability": "nonpayable",
					"type": "function"
				},
				{
					"inputs": [],
					"name": "developmentAddress",
					"outputs": [
						{
							"internalType": "address payable",
							"name": "",
							"type": "address"
						}
					],
					"stateMutability": "view",
					"type": "function"
				},
				{
					"inputs": [],
					"name": "developmentFee",
					"outputs": [
						{
							"internalType": "uint256",
							"name": "",
							"type": "uint256"
						}
					],
					"stateMutability": "view",
					"type": "function"
				},
				{
					"inputs": [
						{
							"internalType": "address",
							"name": "account",
							"type": "address"
						}
					],
					"name": "excludeFromAMMs",
					"outputs": [],
					"stateMutability": "nonpayable",
					"type": "function"
				},
				{
					"inputs": [
						{
							"internalType": "address",
							"name": "account",
							"type": "address"
						}
					],
					"name": "excludeFromFee",
					"outputs": [],
					"stateMutability": "nonpayable",
					"type": "function"
				},
				{
					"inputs": [
						{
							"internalType": "address",
							"name": "account",
							"type": "address"
						}
					],
					"name": "excludeFromMaxWallet",
					"outputs": [],
					"stateMutability": "nonpayable",
					"type": "function"
				},
				{
					"inputs": [
						{
							"internalType": "address",
							"name": "account",
							"type": "address"
						}
					],
					"name": "includeInAMMs",
					"outputs": [],
					"stateMutability": "nonpayable",
					"type": "function"
				},
				{
					"inputs": [
						{
							"internalType": "address",
							"name": "account",
							"type": "address"
						}
					],
					"name": "includeInFee",
					"outputs": [],
					"stateMutability": "nonpayable",
					"type": "function"
				},
				{
					"inputs": [
						{
							"internalType": "address",
							"name": "account",
							"type": "address"
						}
					],
					"name": "includeInMaxWallet",
					"outputs": [],
					"stateMutability": "nonpayable",
					"type": "function"
				},
				{
					"inputs": [
						{
							"internalType": "address",
							"name": "spender",
							"type": "address"
						},
						{
							"internalType": "uint256",
							"name": "addedValue",
							"type": "uint256"
						}
					],
					"name": "increaseAllowance",
					"outputs": [
						{
							"internalType": "bool",
							"name": "",
							"type": "bool"
						}
					],
					"stateMutability": "nonpayable",
					"type": "function"
				},
				{
					"inputs": [],
					"name": "liquidityFee",
					"outputs": [
						{
							"internalType": "uint256",
							"name": "",
							"type": "uint256"
						}
					],
					"stateMutability": "view",
					"type": "function"
				},
				{
					"inputs": [],
					"name": "marketingAddress",
					"outputs": [
						{
							"internalType": "address payable",
							"name": "",
							"type": "address"
						}
					],
					"stateMutability": "view",
					"type": "function"
				},
				{
					"inputs": [],
					"name": "marketingFee",
					"outputs": [
						{
							"internalType": "uint256",
							"name": "",
							"type": "uint256"
						}
					],
					"stateMutability": "view",
					"type": "function"
				},
				{
					"inputs": [],
					"name": "name",
					"outputs": [
						{
							"internalType": "string",
							"name": "",
							"type": "string"
						}
					],
					"stateMutability": "view",
					"type": "function"
				},
				{
					"inputs": [],
					"name": "numTokensSellToAddToLiquidity",
					"outputs": [
						{
							"internalType": "uint256",
							"name": "",
							"type": "uint256"
						}
					],
					"stateMutability": "view",
					"type": "function"
				},
				{
					"inputs": [],
					"name": "owner",
					"outputs": [
						{
							"internalType": "address",
							"name": "",
							"type": "address"
						}
					],
					"stateMutability": "view",
					"type": "function"
				},
				{
					"inputs": [
						{
							"internalType": "address",
							"name": "_address",
							"type": "address"
						}
					],
					"name": "removeStuckToken",
					"outputs": [],
					"stateMutability": "nonpayable",
					"type": "function"
				},
				{
					"inputs": [],
					"name": "renounceOwnership",
					"outputs": [],
					"stateMutability": "nonpayable",
					"type": "function"
				},
				{
					"inputs": [
						{
							"internalType": "uint256",
							"name": "updatedLiquidityFee",
							"type": "uint256"
						},
						{
							"internalType": "uint256",
							"name": "updatedCharityFee",
							"type": "uint256"
						},
						{
							"internalType": "uint256",
							"name": "updatedMarketingFee",
							"type": "uint256"
						},
						{
							"internalType": "uint256",
							"name": "updatedDevelopmentFee",
							"type": "uint256"
						},
						{
							"internalType": "uint256",
							"name": "updatedBuybackFee",
							"type": "uint256"
						}
					],
					"name": "setFeePercent",
					"outputs": [],
					"stateMutability": "nonpayable",
					"type": "function"
				},
				{
					"inputs": [
						{
							"internalType": "bool",
							"name": "_enabled",
							"type": "bool"
						}
					],
					"name": "setSwapAndLiquifyEnabled",
					"outputs": [],
					"stateMutability": "nonpayable",
					"type": "function"
				},
				{
					"inputs": [],
					"name": "swapAndLiquifyEnabled",
					"outputs": [
						{
							"internalType": "bool",
							"name": "",
							"type": "bool"
						}
					],
					"stateMutability": "view",
					"type": "function"
				},
				{
					"inputs": [],
					"name": "symbol",
					"outputs": [
						{
							"internalType": "string",
							"name": "",
							"type": "string"
						}
					],
					"stateMutability": "view",
					"type": "function"
				},
				{
					"inputs": [],
					"name": "totalSupply",
					"outputs": [
						{
							"internalType": "uint256",
							"name": "",
							"type": "uint256"
						}
					],
					"stateMutability": "view",
					"type": "function"
				},
				{
					"inputs": [
						{
							"internalType": "address",
							"name": "recipient",
							"type": "address"
						},
						{
							"internalType": "uint256",
							"name": "amount",
							"type": "uint256"
						}
					],
					"name": "transfer",
					"outputs": [
						{
							"internalType": "bool",
							"name": "",
							"type": "bool"
						}
					],
					"stateMutability": "nonpayable",
					"type": "function"
				},
				{
					"inputs": [
						{
							"internalType": "address",
							"name": "sender",
							"type": "address"
						},
						{
							"internalType": "address",
							"name": "recipient",
							"type": "address"
						},
						{
							"internalType": "uint256",
							"name": "amount",
							"type": "uint256"
						}
					],
					"name": "transferFrom",
					"outputs": [
						{
							"internalType": "bool",
							"name": "",
							"type": "bool"
						}
					],
					"stateMutability": "nonpayable",
					"type": "function"
				},
				{
					"inputs": [
						{
							"internalType": "address",
							"name": "newOwner",
							"type": "address"
						}
					],
					"name": "transferOwnership",
					"outputs": [],
					"stateMutability": "nonpayable",
					"type": "function"
				},
				{
					"inputs": [],
					"name": "uniswapV2Pair",
					"outputs": [
						{
							"internalType": "address",
							"name": "",
							"type": "address"
						}
					],
					"stateMutability": "view",
					"type": "function"
				},
				{
					"inputs": [],
					"name": "uniswapV2Router",
					"outputs": [
						{
							"internalType": "contract IUniswapV2Router02",
							"name": "",
							"type": "address"
						}
					],
					"stateMutability": "view",
					"type": "function"
				},
				{
					"inputs": [],
					"name": "withdrawStuckETH",
					"outputs": [],
					"stateMutability": "nonpayable",
					"type": "function"
				},
				{
					"stateMutability": "payable",
					"type": "receive"
				}
			],
			"devdoc": {
				"kind": "dev",
				"methods": {
					"owner()": {
						"details": "Returns the address of the current owner."
					},
					"renounceOwnership()": {
						"details": "Leaves the contract without owner. It will not be possible to call `onlyOwner` functions anymore. Can only be called by the current owner. NOTE: Renouncing ownership will leave the contract without an owner, thereby removing any functionality that is only available to the owner."
					},
					"transferOwnership(address)": {
						"details": "Transfers ownership of the contract to a new account (`newOwner`). Can only be called by the current owner."
					}
				},
				"version": 1
			},
			"evm": {
				"assembly": "    /* \"contracts/STS.sol\":11212:23401  contract STS is Context, Ownable, IERC20, ERC20Detailed {... */\n  mstore(0x40, 0xa0)\n    /* \"contracts/STS.sol\":11746:11747  1 */\n  0x01\n    /* \"contracts/STS.sol\":11718:11747  uint256 public charityFee = 1 */\n  0x0a\n  dup2\n  swap1\n  sstore\n    /* \"contracts/STS.sol\":11754:11785  uint256 public marketingFee = 1 */\n  0x0b\n  dup2\n  swap1\n  sstore\n    /* \"contracts/STS.sol\":11792:11825  uint256 public developmentFee = 1 */\n  0x0c\n  dup2\n  swap1\n  sstore\n    /* \"contracts/STS.sol\":11832:11861  uint256 public buybackFee = 1 */\n  0x0d\n  dup2\n  swap1\n  sstore\n    /* \"contracts/STS.sol\":11868:11899  uint256 public liquidityFee = 1 */\n  0x0e\n  dup2\n  swap1\n  sstore\n    /* \"contracts/STS.sol\":11746:11747  1 */\n  dup1\n  dup1\n    /* \"contracts/STS.sol\":11925:11950  liquidityFee + charityFee */\n  tag_1\n    /* \"contracts/STS.sol\":11746:11747  1 */\n  dup2\n  dup1\n    /* \"contracts/STS.sol\":11925:11950  liquidityFee + charityFee */\n  tag_2\n  jump\t// in\ntag_1:\n    /* \"contracts/STS.sol\":11925:11965  liquidityFee + charityFee + marketingFee */\n  tag_3\n  swap2\n  swap1\n  tag_2\n  jump\t// in\ntag_3:\n    /* \"contracts/STS.sol\":11925:11982  liquidityFee + charityFee + marketingFee + developmentFee */\n  tag_4\n  swap2\n  swap1\n  tag_2\n  jump\t// in\ntag_4:\n    /* \"contracts/STS.sol\":11925:11995  liquidityFee + charityFee + marketingFee + developmentFee + buybackFee */\n  tag_5\n  swap2\n  swap1\n  tag_2\n  jump\t// in\ntag_5:\n    /* \"contracts/STS.sol\":11906:11995  uint256 totalFee = liquidityFee + charityFee + marketingFee + developmentFee + buybackFee */\n  0x0f\n  sstore\n    /* \"contracts/STS.sol\":12008:12099  address payable public charityAddress = payable(0x506df9716a793D02f89aD32Dc858bBB6F26268aa) */\n  0x10\n  dup1\n  sload\n  not(sub(shl(0xa0, 0x01), 0x01))\n  swap1\n  dup2\n  and\n    /* \"contracts/STS.sol\":12056:12098  0x506df9716a793D02f89aD32Dc858bBB6F26268aa */\n  0x506df9716a793d02f89ad32dc858bbb6f26268aa\n    /* \"contracts/STS.sol\":12008:12099  address payable public charityAddress = payable(0x506df9716a793D02f89aD32Dc858bBB6F26268aa) */\n  or\n  swap1\n  swap2\n  sstore\n    /* \"contracts/STS.sol\":12106:12199  address payable public marketingAddress = payable(0x8714C3ADBb728B8AD25Cb0C044f57cb8b51bC155) */\n  0x11\n  dup1\n  sload\n  dup3\n  and\n    /* \"contracts/STS.sol\":12156:12198  0x8714C3ADBb728B8AD25Cb0C044f57cb8b51bC155 */\n  0x8714c3adbb728b8ad25cb0c044f57cb8b51bc155\n    /* \"contracts/STS.sol\":12106:12199  address payable public marketingAddress = payable(0x8714C3ADBb728B8AD25Cb0C044f57cb8b51bC155) */\n  or\n  swap1\n  sstore\n    /* \"contracts/STS.sol\":12206:12301  address payable public developmentAddress = payable(0x9DfCeBe1459C00eA0CB6c5cEF541552Dd09dd551) */\n  0x12\n  dup1\n  sload\n  swap1\n  swap2\n  and\n    /* \"contracts/STS.sol\":12258:12300  0x9DfCeBe1459C00eA0CB6c5cEF541552Dd09dd551 */\n  0x9dfcebe1459c00ea0cb6c5cef541552dd09dd551\n    /* \"contracts/STS.sol\":12206:12301  address payable public developmentAddress = payable(0x9DfCeBe1459C00eA0CB6c5cEF541552Dd09dd551) */\n  or\n  swap1\n  sstore\n    /* \"contracts/STS.sol\":12308:12399  address payable public buybackAddress = payable(0x1f1B4275E27A12aFfB71A0ccD0B79189F1C9C86E) */\n  0x13\n  dup1\n  sload\n    /* \"contracts/STS.sol\":12440:12480  bool public swapAndLiquifyEnabled = true */\n  0x01001f1b4275e27a12affb71a0ccd0b79189f1c9c86e\n  not(sub(shl(0xa0, 0xff01), 0x01))\n  swap1\n  swap2\n  and\n  or\n  swap1\n  sstore\n    /* \"contracts/STS.sol\":12611:12623  2000 * 10**9 */\n  0x01d1a94a2000\n    /* \"contracts/STS.sol\":12563:12623  uint256 public numTokensSellToAddToLiquidity =  2000 * 10**9 */\n  0x14\n  sstore\n    /* \"contracts/STS.sol\":12666:12681  25000000* 10**9 */\n  0x58d15e17628000\n    /* \"contracts/STS.sol\":12440:12480  bool public swapAndLiquifyEnabled = true */\n  0x15\n    /* \"contracts/STS.sol\":12632:12681  uint256 public _maxWalletAmount = 25000000* 10**9 */\n  sstore\n    /* \"contracts/STS.sol\":13074:14567  constructor () ERC20Detailed(\"StellarSun\", \"STS\", 9) {... */\n  callvalue\n  dup1\n  iszero\n  tag_6\n  jumpi\n  0x00\n  dup1\n  revert\ntag_6:\n  pop\n    /* \"contracts/STS.sol\":2781:2957  constructor (string memory tname, string memory tsymbol, uint8 tdecimals) {... */\n  0x40\n  dup1\n  mload\n  dup1\n  dup3\n  add\n  dup3\n  mstore\n  0x0a\n  dup2\n  mstore\n  shl(0xb1, 0x29ba32b63630b929bab7)\n  0x20\n  dup1\n  dup4\n  add\n  swap2\n  swap1\n  swap2\n  mstore\n  dup3\n  mload\n  dup1\n  dup5\n  add\n  dup5\n  mstore\n  0x03\n  dup2\n  mstore\n  shl(0xe8, 0x535453)\n  swap2\n  dup2\n  add\n  swap2\n  swap1\n  swap2\n  mstore\n  0x00\n    /* \"contracts/STS.sol\":1295:1314  _owner = msg.sender */\n  dup1\n  sload\n  not(sub(shl(0xa0, 0x01), 0x01))\n  and\n    /* \"contracts/STS.sol\":1304:1314  msg.sender */\n  caller\n    /* \"contracts/STS.sol\":1295:1314  _owner = msg.sender */\n  swap1\n  dup2\n  or\n  dup3\n  sstore\n    /* \"contracts/STS.sol\":1331:1371  OwnershipTransferred(address(0), _owner) */\n  swap4\n  mload\n    /* \"contracts/STS.sol\":2781:2957  constructor (string memory tname, string memory tsymbol, uint8 tdecimals) {... */\n  swap3\n  swap4\n  swap2\n  swap3\n    /* \"contracts/STS.sol\":13124:13125  9 */\n  0x09\n  swap3\n    /* \"contracts/STS.sol\":1304:1314  msg.sender */\n  swap2\n  swap1\n    /* \"contracts/STS.sol\":1331:1371  OwnershipTransferred(address(0), _owner) */\n  0x8be0079c531659141344cd1fd0a4f28419497f9722a3daafe3b4186f6b6457e0\n  swap1\n  dup3\n  swap1\n  log3\n    /* \"contracts/STS.sol\":2866:2871  _name */\n  0x01\n    /* \"contracts/STS.sol\":2866:2879  _name = tname */\n  tag_14\n    /* \"contracts/STS.sol\":2874:2879  tname */\n  dup5\n    /* \"contracts/STS.sol\":2866:2871  _name */\n  dup3\n    /* \"contracts/STS.sol\":2866:2879  _name = tname */\n  tag_15\n  jump\t// in\ntag_14:\n  pop\n    /* \"contracts/STS.sol\":2890:2897  _symbol */\n  0x02\n    /* \"contracts/STS.sol\":2890:2907  _symbol = tsymbol */\n  tag_16\n    /* \"contracts/STS.sol\":2900:2907  tsymbol */\n  dup4\n    /* \"contracts/STS.sol\":2890:2897  _symbol */\n  dup3\n    /* \"contracts/STS.sol\":2890:2907  _symbol = tsymbol */\n  tag_15\n  jump\t// in\ntag_16:\n  pop\n    /* \"contracts/STS.sol\":2918:2927  _decimals */\n  0x03\n    /* \"contracts/STS.sol\":2918:2939  _decimals = tdecimals */\n  dup1\n  sload\n  not(0xff)\n  and\n  0xff\n  swap3\n  swap1\n  swap3\n  and\n  swap2\n  swap1\n  swap2\n  or\n  swap1\n  sstore\n  pop\n  pop\n    /* \"contracts/STS.sol\":13155:13175  1000000000 * (10**9) */\n  0x0de0b6b3a7640000\n    /* \"contracts/STS.sol\":13140:13152  _totalSupply */\n  0x09\n    /* \"contracts/STS.sol\":13140:13175  _totalSupply = 1000000000 * (10**9) */\n  dup2\n  swap1\n  sstore\n    /* \"contracts/STS.sol\":13185:13194  _balances */\n  0x04\n  0x00\n    /* \"contracts/STS.sol\":13195:13202  owner() */\n  tag_18\n    /* \"contracts/STS.sol\":1498:1505  address */\n  0x00\n    /* \"contracts/STS.sol\":1525:1531  _owner */\n  sload\n  sub(shl(0xa0, 0x01), 0x01)\n  and\n  swap1\n    /* \"contracts/STS.sol\":1460:1539  function owner() public view returns (address) {... */\n  jump\n    /* \"contracts/STS.sol\":13195:13202  owner() */\ntag_18:\n  sub(shl(0xa0, 0x01), 0x01)\n    /* \"contracts/STS.sol\":13185:13203  _balances[owner()] */\n  and\n  sub(shl(0xa0, 0x01), 0x01)\n  and\n  dup2\n  mstore\n  0x20\n  add\n  swap1\n  dup2\n  mstore\n  0x20\n  add\n  0x00\n  keccak256\n    /* \"contracts/STS.sol\":13185:13218  _balances[owner()] = _totalSupply */\n  dup2\n  swap1\n  sstore\n  pop\n    /* \"contracts/STS.sol\":13289:13324  IUniswapV2Router02 _uniswapV2Router */\n  0x00\n    /* \"contracts/STS.sol\":13346:13388  0xD99D1c33F9fC3444f8101754aBC46c52416550D1 */\n  0xd99d1c33f9fc3444f8101754abc46c52416550d1\n    /* \"contracts/STS.sol\":13289:13389  IUniswapV2Router02 _uniswapV2Router = IUniswapV2Router02(0xD99D1c33F9fC3444f8101754aBC46c52416550D1) */\n  swap1\n  pop\n    /* \"contracts/STS.sol\":13488:13504  _uniswapV2Router */\n  dup1\n  sub(shl(0xa0, 0x01), 0x01)\n    /* \"contracts/STS.sol\":13488:13512  _uniswapV2Router.factory */\n  and\n  0xc45a0155\n    /* \"contracts/STS.sol\":13488:13514  _uniswapV2Router.factory() */\n  mload(0x40)\n  dup2\n  0xffffffff\n  and\n  0xe0\n  shl\n  dup2\n  mstore\n  0x04\n  add\n  0x20\n  mload(0x40)\n  dup1\n  dup4\n  sub\n  dup2\n  dup7\n  gas\n  staticcall\n  iszero\n  dup1\n  iszero\n  tag_21\n  jumpi\n  returndatasize\n  0x00\n  dup1\n  returndatacopy\n  revert(0x00, returndatasize)\ntag_21:\n  pop\n  pop\n  pop\n  pop\n  mload(0x40)\n  returndatasize\n  not(0x1f)\n  0x1f\n  dup3\n  add\n  and\n  dup3\n  add\n  dup1\n  0x40\n  mstore\n  pop\n  dup2\n  add\n  swap1\n  tag_22\n  swap2\n  swap1\n  tag_23\n  jump\t// in\ntag_22:\n  sub(shl(0xa0, 0x01), 0x01)\n    /* \"contracts/STS.sol\":13470:13540  IUniswapV2Factory(_uniswapV2Router.factory())... */\n  and\n  0xc9c65396\n    /* \"contracts/STS.sol\":13549:13553  this */\n  address\n    /* \"contracts/STS.sol\":13556:13572  _uniswapV2Router */\n  dup4\n  sub(shl(0xa0, 0x01), 0x01)\n    /* \"contracts/STS.sol\":13556:13577  _uniswapV2Router.WETH */\n  and\n  0xad5c4648\n    /* \"contracts/STS.sol\":13556:13579  _uniswapV2Router.WETH() */\n  mload(0x40)\n  dup2\n  0xffffffff\n  and\n  0xe0\n  shl\n  dup2\n  mstore\n  0x04\n  add\n  0x20\n  mload(0x40)\n  dup1\n  dup4\n  sub\n  dup2\n  dup7\n  gas\n  staticcall\n  iszero\n  dup1\n  iszero\n  tag_25\n  jumpi\n  returndatasize\n  0x00\n  dup1\n  returndatacopy\n  revert(0x00, returndatasize)\ntag_25:\n  pop\n  pop\n  pop\n  pop\n  mload(0x40)\n  returndatasize\n  not(0x1f)\n  0x1f\n  dup3\n  add\n  and\n  dup3\n  add\n  dup1\n  0x40\n  mstore\n  pop\n  dup2\n  add\n  swap1\n  tag_26\n  swap2\n  swap1\n  tag_23\n  jump\t// in\ntag_26:\n    /* \"contracts/STS.sol\":13470:13580  IUniswapV2Factory(_uniswapV2Router.factory())... */\n  mload(0x40)\n  not(sub(shl(0xe0, 0x01), 0x01))\n  0xe0\n  dup6\n  swap1\n  shl\n  and\n  dup2\n  mstore\n  sub(shl(0xa0, 0x01), 0x01)\n    /* \"#utility.yul\":3453:3468   */\n  swap3\n  dup4\n  and\n    /* \"contracts/STS.sol\":13470:13580  IUniswapV2Factory(_uniswapV2Router.factory())... */\n  0x04\n  dup3\n  add\n    /* \"#utility.yul\":3435:3469   */\n  mstore\n    /* \"#utility.yul\":3505:3520   */\n  swap2\n  and\n    /* \"#utility.yul\":3485:3503   */\n  0x24\n  dup3\n  add\n    /* \"#utility.yul\":3478:3521   */\n  mstore\n    /* \"#utility.yul\":3370:3388   */\n  0x44\n  add\n    /* \"contracts/STS.sol\":13470:13580  IUniswapV2Factory(_uniswapV2Router.factory())... */\n  0x20\n  mload(0x40)\n  dup1\n  dup4\n  sub\n  dup2\n  0x00\n  dup8\n  gas\n  call\n  iszero\n  dup1\n  iszero\n  tag_30\n  jumpi\n  returndatasize\n  0x00\n  dup1\n  returndatacopy\n  revert(0x00, returndatasize)\ntag_30:\n  pop\n  pop\n  pop\n  pop\n  mload(0x40)\n  returndatasize\n  not(0x1f)\n  0x1f\n  dup3\n  add\n  and\n  dup3\n  add\n  dup1\n  0x40\n  mstore\n  pop\n  dup2\n  add\n  swap1\n  tag_31\n  swap2\n  swap1\n  tag_23\n  jump\t// in\ntag_31:\n  sub(shl(0xa0, 0x01), 0x01)\n    /* \"contracts/STS.sol\":13454:13580  uniswapV2Pair = IUniswapV2Factory(_uniswapV2Router.factory())... */\n  swap1\n  dup2\n  and\n  0x80\n  dup2\n  swap1\n  mstore\n    /* \"contracts/STS.sol\":13644:13659  uniswapV2Router */\n  0x03\n    /* \"contracts/STS.sol\":13644:13678  uniswapV2Router = _uniswapV2Router */\n  dup1\n  sload\n  not(sub(shl(0xa8, 0x01), 0x0100))\n  and\n  0x0100\n  dup6\n  dup6\n  and\n  mul\n  or\n  swap1\n  sstore\n  0x00\n    /* \"contracts/STS.sol\":1525:1531  _owner */\n  dup1\n  sload\n  dup4\n  and\n    /* \"contracts/STS.sol\":13745:13772  _isExcludedFromFee[owner()] */\n  dup2\n  mstore\n    /* \"contracts/STS.sol\":13745:13763  _isExcludedFromFee */\n  0x06\n    /* \"contracts/STS.sol\":13745:13772  _isExcludedFromFee[owner()] */\n  0x20\n  swap1\n  dup2\n  mstore\n  0x40\n  dup1\n  dup4\n  keccak256\n    /* \"contracts/STS.sol\":13745:13779  _isExcludedFromFee[owner()] = true */\n  dup1\n  sload\n  not(0xff)\n  swap1\n  dup2\n  and\n  0x01\n  swap1\n  dup2\n  or\n  swap1\n  swap3\n  sstore\n    /* \"contracts/STS.sol\":13817:13821  this */\n  address\n    /* \"contracts/STS.sol\":13790:13823  _isExcludedFromFee[address(this)] */\n  dup1\n  dup7\n  mstore\n  dup4\n  dup7\n  keccak256\n    /* \"contracts/STS.sol\":13790:13830  _isExcludedFromFee[address(this)] = true */\n  dup1\n  sload\n  dup4\n  and\n  dup5\n  or\n  swap1\n  sstore\n    /* \"contracts/STS.sol\":13860:13874  charityAddress */\n  0x10\n  dup1\n  sload\n  dup10\n  and\n    /* \"contracts/STS.sol\":13841:13875  _isExcludedFromFee[charityAddress] */\n  dup8\n  mstore\n  dup5\n  dup8\n  keccak256\n    /* \"contracts/STS.sol\":13841:13882  _isExcludedFromFee[charityAddress] = true */\n  dup1\n  sload\n  dup5\n  and\n  dup6\n  or\n  swap1\n  sstore\n    /* \"contracts/STS.sol\":13912:13928  marketingAddress */\n  0x11\n  dup1\n  sload\n  dup11\n  and\n    /* \"contracts/STS.sol\":13893:13929  _isExcludedFromFee[marketingAddress] */\n  dup9\n  mstore\n  dup6\n  dup9\n  keccak256\n    /* \"contracts/STS.sol\":13893:13936  _isExcludedFromFee[marketingAddress] = true */\n  dup1\n  sload\n  dup6\n  and\n  dup7\n  or\n  swap1\n  sstore\n    /* \"contracts/STS.sol\":13966:13984  developmentAddress */\n  0x12\n  dup1\n  sload\n  dup12\n  and\n    /* \"contracts/STS.sol\":13947:13985  _isExcludedFromFee[developmentAddress] */\n  dup10\n  mstore\n  dup7\n  dup10\n  keccak256\n    /* \"contracts/STS.sol\":13947:13992  _isExcludedFromFee[developmentAddress] = true */\n  dup1\n  sload\n  dup7\n  and\n  dup8\n  or\n  swap1\n  sstore\n    /* \"contracts/STS.sol\":14022:14036  buybackAddress */\n  0x13\n  dup1\n  sload\n  dup13\n  and\n    /* \"contracts/STS.sol\":14003:14037  _isExcludedFromFee[buybackAddress] */\n  dup11\n  mstore\n  dup8\n  dup11\n  keccak256\n    /* \"contracts/STS.sol\":14003:14044  _isExcludedFromFee[buybackAddress] = true */\n  dup1\n  sload\n  dup8\n  and\n  dup9\n  or\n  swap1\n  sstore\n    /* \"contracts/STS.sol\":14057:14096  _isExcludedFromMaxWallet[address(this)] */\n  swap4\n  dup10\n  mstore\n    /* \"contracts/STS.sol\":14057:14081  _isExcludedFromMaxWallet */\n  0x08\n    /* \"contracts/STS.sol\":14057:14096  _isExcludedFromMaxWallet[address(this)] */\n  dup9\n  mstore\n  dup7\n  dup10\n  keccak256\n    /* \"contracts/STS.sol\":14057:14103  _isExcludedFromMaxWallet[address(this)] = true */\n  dup1\n  sload\n  dup7\n  and\n  dup8\n  or\n  swap1\n  sstore\n    /* \"contracts/STS.sol\":1525:1531  _owner */\n  dup9\n  sload\n  dup12\n  and\n    /* \"contracts/STS.sol\":14114:14147  _isExcludedFromMaxWallet[owner()] */\n  dup10\n  mstore\n  dup7\n  dup10\n  keccak256\n    /* \"contracts/STS.sol\":14114:14154  _isExcludedFromMaxWallet[owner()] = true */\n  dup1\n  sload\n  dup7\n  and\n  dup8\n  or\n  swap1\n  sstore\n    /* \"contracts/STS.sol\":14190:14204  charityAddress */\n  swap2\n  sload\n  dup11\n  and\n    /* \"contracts/STS.sol\":14165:14205  _isExcludedFromMaxWallet[charityAddress] */\n  dup9\n  mstore\n  dup6\n  dup9\n  keccak256\n    /* \"contracts/STS.sol\":14165:14212  _isExcludedFromMaxWallet[charityAddress] = true */\n  dup1\n  sload\n  dup6\n  and\n  dup7\n  or\n  swap1\n  sstore\n    /* \"contracts/STS.sol\":14248:14264  marketingAddress */\n  sload\n  dup10\n  and\n    /* \"contracts/STS.sol\":14223:14265  _isExcludedFromMaxWallet[marketingAddress] */\n  dup8\n  mstore\n  dup5\n  dup8\n  keccak256\n    /* \"contracts/STS.sol\":14223:14272  _isExcludedFromMaxWallet[marketingAddress] = true */\n  dup1\n  sload\n  dup5\n  and\n  dup6\n  or\n  swap1\n  sstore\n    /* \"contracts/STS.sol\":14308:14326  developmentAddress */\n  sload\n  dup9\n  and\n    /* \"contracts/STS.sol\":14283:14327  _isExcludedFromMaxWallet[developmentAddress] */\n  dup7\n  mstore\n  dup4\n  dup7\n  keccak256\n    /* \"contracts/STS.sol\":14283:14334  _isExcludedFromMaxWallet[developmentAddress] = true */\n  dup1\n  sload\n  dup4\n  and\n  dup5\n  or\n  swap1\n  sstore\n    /* \"contracts/STS.sol\":14370:14384  buybackAddress */\n  sload\n  swap1\n  swap7\n  and\n    /* \"contracts/STS.sol\":14345:14385  _isExcludedFromMaxWallet[buybackAddress] */\n  dup5\n  mstore\n  dup2\n  dup5\n  keccak256\n    /* \"contracts/STS.sol\":14345:14392  _isExcludedFromMaxWallet[buybackAddress] = true */\n  dup1\n  sload\n  dup8\n  and\n  dup3\n  or\n  swap1\n  sstore\n    /* \"contracts/STS.sol\":14403:14442  _isExcludedFromMaxWallet[uniswapV2Pair] */\n  swap4\n  dup4\n  mstore\n  dup1\n  dup4\n  keccak256\n    /* \"contracts/STS.sol\":14403:14449  _isExcludedFromMaxWallet[uniswapV2Pair] = true */\n  dup1\n  sload\n  dup7\n  and\n  dup6\n  or\n  swap1\n  sstore\n    /* \"contracts/STS.sol\":14470:14474  AMMs */\n  0x07\n    /* \"contracts/STS.sol\":14470:14489  AMMs[uniswapV2Pair] */\n  swap1\n  swap2\n  mstore\n  swap1\n  keccak256\n    /* \"contracts/STS.sol\":14470:14496  AMMs[uniswapV2Pair] = true */\n  dup1\n  sload\n  swap1\n  swap3\n  and\n  or\n  swap1\n  sstore\n    /* \"contracts/STS.sol\":969:979  msg.sender */\n  caller\n  sub(shl(0xa0, 0x01), 0x01)\n    /* \"contracts/STS.sol\":14513:14561  Transfer(address(0), _msgSender(), _totalSupply) */\n  and\n    /* \"contracts/STS.sol\":14530:14531  0 */\n  0x00\n  sub(shl(0xa0, 0x01), 0x01)\n    /* \"contracts/STS.sol\":14513:14561  Transfer(address(0), _msgSender(), _totalSupply) */\n  and\n  0xddf252ad1be2c89b69c2b068fc378daa952ba7f163c4a11628f55a4df523b3ef\n    /* \"contracts/STS.sol\":14548:14560  _totalSupply */\n  sload(0x09)\n    /* \"contracts/STS.sol\":14513:14561  Transfer(address(0), _msgSender(), _totalSupply) */\n  mload(0x40)\n  tag_36\n  swap2\n    /* \"#utility.yul\":3678:3703   */\n  dup2\n  mstore\n    /* \"#utility.yul\":3666:3668   */\n  0x20\n    /* \"#utility.yul\":3651:3669   */\n  add\n  swap1\n    /* \"#utility.yul\":3532:3709   */\n  jump\n    /* \"contracts/STS.sol\":14513:14561  Transfer(address(0), _msgSender(), _totalSupply) */\ntag_36:\n  mload(0x40)\n  dup1\n  swap2\n  sub\n  swap1\n  log3\n    /* \"contracts/STS.sol\":13127:14567  {... */\n  pop\n    /* \"contracts/STS.sol\":11212:23401  contract STS is Context, Ownable, IERC20, ERC20Detailed {... */\n  jump(tag_46)\n    /* \"#utility.yul\":14:236   */\ntag_2:\n    /* \"#utility.yul\":79:88   */\n  dup1\n  dup3\n  add\n    /* \"#utility.yul\":100:110   */\n  dup1\n  dup3\n  gt\n    /* \"#utility.yul\":97:230   */\n  iszero\n  tag_48\n  jumpi\n    /* \"#utility.yul\":152:162   */\n  0x4e487b71\n    /* \"#utility.yul\":147:150   */\n  0xe0\n    /* \"#utility.yul\":143:163   */\n  shl\n    /* \"#utility.yul\":140:141   */\n  0x00\n    /* \"#utility.yul\":133:164   */\n  mstore\n    /* \"#utility.yul\":187:191   */\n  0x11\n    /* \"#utility.yul\":184:185   */\n  0x04\n    /* \"#utility.yul\":177:192   */\n  mstore\n    /* \"#utility.yul\":215:219   */\n  0x24\n    /* \"#utility.yul\":212:213   */\n  0x00\n    /* \"#utility.yul\":205:220   */\n  revert\n    /* \"#utility.yul\":97:230   */\ntag_48:\n    /* \"#utility.yul\":14:236   */\n  swap3\n  swap2\n  pop\n  pop\n  jump\t// out\n    /* \"#utility.yul\":241:368   */\ntag_41:\n    /* \"#utility.yul\":302:312   */\n  0x4e487b71\n    /* \"#utility.yul\":297:300   */\n  0xe0\n    /* \"#utility.yul\":293:313   */\n  shl\n    /* \"#utility.yul\":290:291   */\n  0x00\n    /* \"#utility.yul\":283:314   */\n  mstore\n    /* \"#utility.yul\":333:337   */\n  0x41\n    /* \"#utility.yul\":330:331   */\n  0x04\n    /* \"#utility.yul\":323:338   */\n  mstore\n    /* \"#utility.yul\":357:361   */\n  0x24\n    /* \"#utility.yul\":354:355   */\n  0x00\n    /* \"#utility.yul\":347:362   */\n  revert\n    /* \"#utility.yul\":373:753   */\ntag_42:\n    /* \"#utility.yul\":452:453   */\n  0x01\n    /* \"#utility.yul\":448:460   */\n  dup2\n  dup2\n  shr\n  swap1\n    /* \"#utility.yul\":495:507   */\n  dup3\n  and\n  dup1\n    /* \"#utility.yul\":516:577   */\n  tag_51\n  jumpi\n    /* \"#utility.yul\":570:574   */\n  0x7f\n    /* \"#utility.yul\":562:568   */\n  dup3\n    /* \"#utility.yul\":558:575   */\n  and\n    /* \"#utility.yul\":548:575   */\n  swap2\n  pop\n    /* \"#utility.yul\":516:577   */\ntag_51:\n    /* \"#utility.yul\":623:625   */\n  0x20\n    /* \"#utility.yul\":615:621   */\n  dup3\n    /* \"#utility.yul\":612:626   */\n  lt\n    /* \"#utility.yul\":592:610   */\n  dup2\n    /* \"#utility.yul\":589:627   */\n  sub\n    /* \"#utility.yul\":586:747   */\n  tag_52\n  jumpi\n    /* \"#utility.yul\":669:679   */\n  0x4e487b71\n    /* \"#utility.yul\":664:667   */\n  0xe0\n    /* \"#utility.yul\":660:680   */\n  shl\n    /* \"#utility.yul\":657:658   */\n  0x00\n    /* \"#utility.yul\":650:681   */\n  mstore\n    /* \"#utility.yul\":704:708   */\n  0x22\n    /* \"#utility.yul\":701:702   */\n  0x04\n    /* \"#utility.yul\":694:709   */\n  mstore\n    /* \"#utility.yul\":732:736   */\n  0x24\n    /* \"#utility.yul\":729:730   */\n  0x00\n    /* \"#utility.yul\":722:737   */\n  revert\n    /* \"#utility.yul\":586:747   */\ntag_52:\n  pop\n    /* \"#utility.yul\":373:753   */\n  swap2\n  swap1\n  pop\n  jump\t// out\n    /* \"#utility.yul\":884:1402   */\ntag_44:\n    /* \"#utility.yul\":986:988   */\n  0x1f\n    /* \"#utility.yul\":981:984   */\n  dup3\n    /* \"#utility.yul\":978:989   */\n  gt\n    /* \"#utility.yul\":975:1396   */\n  iszero\n  tag_55\n  jumpi\n    /* \"#utility.yul\":1022:1027   */\n  dup1\n    /* \"#utility.yul\":1019:1020   */\n  0x00\n    /* \"#utility.yul\":1012:1028   */\n  mstore\n    /* \"#utility.yul\":1066:1070   */\n  0x20\n    /* \"#utility.yul\":1063:1064   */\n  0x00\n    /* \"#utility.yul\":1053:1071   */\n  keccak256\n    /* \"#utility.yul\":1136:1138   */\n  0x1f\n    /* \"#utility.yul\":1124:1134   */\n  dup5\n    /* \"#utility.yul\":1120:1139   */\n  add\n    /* \"#utility.yul\":1117:1118   */\n  0x05\n    /* \"#utility.yul\":1113:1140   */\n  shr\n    /* \"#utility.yul\":1107:1111   */\n  dup2\n    /* \"#utility.yul\":1103:1141   */\n  add\n    /* \"#utility.yul\":1172:1176   */\n  0x20\n    /* \"#utility.yul\":1160:1170   */\n  dup6\n    /* \"#utility.yul\":1157:1177   */\n  lt\n    /* \"#utility.yul\":1154:1201   */\n  iszero\n  tag_56\n  jumpi\n  pop\n    /* \"#utility.yul\":1195:1199   */\n  dup1\n    /* \"#utility.yul\":1154:1201   */\ntag_56:\n    /* \"#utility.yul\":1250:1252   */\n  0x1f\n    /* \"#utility.yul\":1245:1248   */\n  dup5\n    /* \"#utility.yul\":1241:1253   */\n  add\n    /* \"#utility.yul\":1238:1239   */\n  0x05\n    /* \"#utility.yul\":1234:1254   */\n  shr\n    /* \"#utility.yul\":1228:1232   */\n  dup3\n    /* \"#utility.yul\":1224:1255   */\n  add\n    /* \"#utility.yul\":1214:1255   */\n  swap2\n  pop\n    /* \"#utility.yul\":1305:1386   */\ntag_57:\n    /* \"#utility.yul\":1323:1325   */\n  dup2\n    /* \"#utility.yul\":1316:1321   */\n  dup2\n    /* \"#utility.yul\":1313:1326   */\n  lt\n    /* \"#utility.yul\":1305:1386   */\n  iszero\n  tag_59\n  jumpi\n    /* \"#utility.yul\":1382:1383   */\n  0x00\n    /* \"#utility.yul\":1368:1384   */\n  dup2\n  sstore\n    /* \"#utility.yul\":1349:1350   */\n  0x01\n    /* \"#utility.yul\":1338:1351   */\n  add\n    /* \"#utility.yul\":1305:1386   */\n  jump(tag_57)\ntag_59:\n    /* \"#utility.yul\":1309:1312   */\n  pop\n  pop\n    /* \"#utility.yul\":975:1396   */\ntag_55:\n    /* \"#utility.yul\":884:1402   */\n  pop\n  pop\n  pop\n  jump\t// out\n    /* \"#utility.yul\":1578:2923   */\ntag_15:\n    /* \"#utility.yul\":1698:1708   */\n  dup2\n  mload\n  sub(shl(0x40, 0x01), 0x01)\n    /* \"#utility.yul\":1720:1750   */\n  dup2\n  gt\n    /* \"#utility.yul\":1717:1773   */\n  iszero\n  tag_63\n  jumpi\n    /* \"#utility.yul\":1753:1771   */\n  tag_63\n  tag_41\n  jump\t// in\ntag_63:\n    /* \"#utility.yul\":1782:1879   */\n  tag_64\n    /* \"#utility.yul\":1872:1878   */\n  dup2\n    /* \"#utility.yul\":1832:1870   */\n  tag_65\n    /* \"#utility.yul\":1864:1868   */\n  dup5\n    /* \"#utility.yul\":1858:1869   */\n  sload\n    /* \"#utility.yul\":1832:1870   */\n  tag_42\n  jump\t// in\ntag_65:\n    /* \"#utility.yul\":1826:1830   */\n  dup5\n    /* \"#utility.yul\":1782:1879   */\n  tag_44\n  jump\t// in\ntag_64:\n    /* \"#utility.yul\":1934:1938   */\n  0x20\n  dup1\n    /* \"#utility.yul\":1991:1993   */\n  0x1f\n    /* \"#utility.yul\":1980:1994   */\n  dup4\n  gt\n    /* \"#utility.yul\":2008:2009   */\n  0x01\n    /* \"#utility.yul\":2003:2666   */\n  dup2\n  eq\n  tag_67\n  jumpi\n    /* \"#utility.yul\":2710:2711   */\n  0x00\n    /* \"#utility.yul\":2727:2733   */\n  dup5\n    /* \"#utility.yul\":2724:2813   */\n  iszero\n  tag_68\n  jumpi\n  pop\n    /* \"#utility.yul\":2779:2798   */\n  dup6\n  dup4\n  add\n    /* \"#utility.yul\":2773:2799   */\n  mload\n    /* \"#utility.yul\":2724:2813   */\ntag_68:\n  not(0x00)\n    /* \"#utility.yul\":1535:1536   */\n  0x03\n    /* \"#utility.yul\":1531:1542   */\n  dup7\n  swap1\n  shl\n    /* \"#utility.yul\":1527:1551   */\n  shr\n    /* \"#utility.yul\":1523:1552   */\n  not\n    /* \"#utility.yul\":1513:1553   */\n  and\n    /* \"#utility.yul\":1559:1560   */\n  0x01\n    /* \"#utility.yul\":1555:1566   */\n  dup6\n  swap1\n  shl\n    /* \"#utility.yul\":1510:1567   */\n  or\n    /* \"#utility.yul\":2826:2907   */\n  dup6\n  sstore\n    /* \"#utility.yul\":1973:2917   */\n  jump(tag_66)\n    /* \"#utility.yul\":2003:2666   */\ntag_67:\n    /* \"#utility.yul\":831:832   */\n  0x00\n    /* \"#utility.yul\":824:838   */\n  dup6\n  dup2\n  mstore\n    /* \"#utility.yul\":868:872   */\n  0x20\n    /* \"#utility.yul\":855:873   */\n  dup2\n  keccak256\n  not(0x1f)\n    /* \"#utility.yul\":2039:2059   */\n  dup7\n  and\n  swap2\n    /* \"#utility.yul\":2157:2393   */\ntag_71:\n    /* \"#utility.yul\":2171:2178   */\n  dup3\n    /* \"#utility.yul\":2168:2169   */\n  dup2\n    /* \"#utility.yul\":2165:2179   */\n  lt\n    /* \"#utility.yul\":2157:2393   */\n  iszero\n  tag_73\n  jumpi\n    /* \"#utility.yul\":2260:2279   */\n  dup9\n  dup7\n  add\n    /* \"#utility.yul\":2254:2280   */\n  mload\n    /* \"#utility.yul\":2239:2281   */\n  dup3\n  sstore\n    /* \"#utility.yul\":2352:2379   */\n  swap5\n  dup5\n  add\n  swap5\n    /* \"#utility.yul\":2320:2321   */\n  0x01\n    /* \"#utility.yul\":2308:2322   */\n  swap1\n  swap2\n  add\n  swap1\n    /* \"#utility.yul\":2187:2206   */\n  dup5\n  add\n    /* \"#utility.yul\":2157:2393   */\n  jump(tag_71)\ntag_73:\n    /* \"#utility.yul\":2161:2164   */\n  pop\n    /* \"#utility.yul\":2421:2427   */\n  dup6\n    /* \"#utility.yul\":2412:2419   */\n  dup3\n    /* \"#utility.yul\":2409:2428   */\n  lt\n    /* \"#utility.yul\":2406:2607   */\n  iszero\n  tag_74\n  jumpi\n    /* \"#utility.yul\":2482:2501   */\n  dup8\n  dup6\n  add\n    /* \"#utility.yul\":2476:2502   */\n  mload\n  not(0x00)\n    /* \"#utility.yul\":2565:2566   */\n  0x03\n    /* \"#utility.yul\":2561:2575   */\n  dup9\n  swap1\n  shl\n    /* \"#utility.yul\":2577:2580   */\n  0xf8\n    /* \"#utility.yul\":2557:2581   */\n  and\n    /* \"#utility.yul\":2553:2590   */\n  shr\n    /* \"#utility.yul\":2549:2591   */\n  not\n    /* \"#utility.yul\":2534:2592   */\n  and\n    /* \"#utility.yul\":2519:2593   */\n  dup2\n  sstore\n    /* \"#utility.yul\":2406:2607   */\ntag_74:\n  pop\n  pop\n    /* \"#utility.yul\":2653:2654   */\n  0x01\n    /* \"#utility.yul\":2644:2650   */\n  dup5\n    /* \"#utility.yul\":2641:2642   */\n  0x01\n    /* \"#utility.yul\":2637:2651   */\n  shl\n    /* \"#utility.yul\":2633:2655   */\n  add\n    /* \"#utility.yul\":2627:2631   */\n  dup6\n    /* \"#utility.yul\":2620:2656   */\n  sstore\n    /* \"#utility.yul\":1973:2917   */\ntag_66:\n  pop\n  pop\n  pop\n  pop\n    /* \"#utility.yul\":1578:2923   */\n  pop\n  pop\n  jump\t// out\n    /* \"#utility.yul\":2928:3218   */\ntag_23:\n    /* \"#utility.yul\":2998:3004   */\n  0x00\n    /* \"#utility.yul\":3051:3053   */\n  0x20\n    /* \"#utility.yul\":3039:3048   */\n  dup3\n    /* \"#utility.yul\":3030:3037   */\n  dup5\n    /* \"#utility.yul\":3026:3049   */\n  sub\n    /* \"#utility.yul\":3022:3054   */\n  slt\n    /* \"#utility.yul\":3019:3071   */\n  iszero\n  tag_76\n  jumpi\n    /* \"#utility.yul\":3067:3068   */\n  0x00\n    /* \"#utility.yul\":3064:3065   */\n  dup1\n    /* \"#utility.yul\":3057:3069   */\n  revert\n    /* \"#utility.yul\":3019:3071   */\ntag_76:\n    /* \"#utility.yul\":3093:3109   */\n  dup2\n  mload\n  sub(shl(0xa0, 0x01), 0x01)\n    /* \"#utility.yul\":3138:3169   */\n  dup2\n  and\n    /* \"#utility.yul\":3128:3170   */\n  dup2\n  eq\n    /* \"#utility.yul\":3118:3188   */\n  tag_77\n  jumpi\n    /* \"#utility.yul\":3184:3185   */\n  0x00\n    /* \"#utility.yul\":3181:3182   */\n  dup1\n    /* \"#utility.yul\":3174:3186   */\n  revert\n    /* \"#utility.yul\":3118:3188   */\ntag_77:\n    /* \"#utility.yul\":3207:3212   */\n  swap4\n    /* \"#utility.yul\":2928:3218   */\n  swap3\n  pop\n  pop\n  pop\n  jump\t// out\n    /* \"#utility.yul\":3532:3709   */\ntag_46:\n    /* \"contracts/STS.sol\":11212:23401  contract STS is Context, Ownable, IERC20, ERC20Detailed {... */\n  mload(0x80)\n  codecopy(0x00, dataOffset(sub_0), dataSize(sub_0))\n  0x00\n  assignImmutable(\"0xf2b1b7d5f2ab8a7e974414843034d805c6ff5f827e1393d21a76b0239bfca82a\")\n  return(0x00, dataSize(sub_0))\nstop\n\nsub_0: assembly {\n        /* \"contracts/STS.sol\":11212:23401  contract STS is Context, Ownable, IERC20, ERC20Detailed {... */\n      mstore(0x40, 0x80)\n      jumpi(tag_1, lt(calldatasize, 0x04))\n      shr(0xe0, calldataload(0x00))\n      dup1\n      0x70a08231\n      gt\n      tag_46\n      jumpi\n      dup1\n      0xc49b9a80\n      gt\n      tag_47\n      jumpi\n      dup1\n      0xdd62ed3e\n      gt\n      tag_48\n      jumpi\n      dup1\n      0xdd62ed3e\n      eq\n      tag_40\n      jumpi\n      dup1\n      0xe083e922\n      eq\n      tag_41\n      jumpi\n      dup1\n      0xea2f0b37\n      eq\n      tag_42\n      jumpi\n      dup1\n      0xecfca899\n      eq\n      tag_43\n      jumpi\n      dup1\n      0xf2fde38b\n      eq\n      tag_44\n      jumpi\n      dup1\n      0xf5648a4f\n      eq\n      tag_45\n      jumpi\n      0x00\n      dup1\n      revert\n    tag_48:\n      dup1\n      0xc49b9a80\n      eq\n      tag_35\n      jumpi\n      dup1\n      0xc57a6c44\n      eq\n      tag_36\n      jumpi\n      dup1\n      0xcc2fbd66\n      eq\n      tag_37\n      jumpi\n      dup1\n      0xd12a7688\n      eq\n      tag_38\n      jumpi\n      dup1\n      0xd1d7d7ef\n      eq\n      tag_39\n      jumpi\n      0x00\n      dup1\n      revert\n    tag_47:\n      dup1\n      0x98118cb4\n      gt\n      tag_49\n      jumpi\n      dup1\n      0x98118cb4\n      eq\n      tag_29\n      jumpi\n      dup1\n      0xa457c2d7\n      eq\n      tag_30\n      jumpi\n      dup1\n      0xa5ece941\n      eq\n      tag_31\n      jumpi\n      dup1\n      0xa5f3d003\n      eq\n      tag_32\n      jumpi\n      dup1\n      0xa9059cbb\n      eq\n      tag_33\n      jumpi\n      dup1\n      0xafcf2fc4\n      eq\n      tag_34\n      jumpi\n      0x00\n      dup1\n      revert\n    tag_49:\n      dup1\n      0x70a08231\n      eq\n      tag_24\n      jumpi\n      dup1\n      0x715018a6\n      eq\n      tag_25\n      jumpi\n      dup1\n      0x768dc710\n      eq\n      tag_26\n      jumpi\n      dup1\n      0x8da5cb5b\n      eq\n      tag_27\n      jumpi\n      dup1\n      0x95d89b41\n      eq\n      tag_28\n      jumpi\n      0x00\n      dup1\n      revert\n    tag_46:\n      dup1\n      0x3b2d081c\n      gt\n      tag_50\n      jumpi\n      dup1\n      0x4a74bb02\n      gt\n      tag_51\n      jumpi\n      dup1\n      0x4a74bb02\n      eq\n      tag_18\n      jumpi\n      dup1\n      0x5b700d91\n      eq\n      tag_19\n      jumpi\n      dup1\n      0x5ec270c8\n      eq\n      tag_20\n      jumpi\n      dup1\n      0x638b1b14\n      eq\n      tag_21\n      jumpi\n      dup1\n      0x6b67c4df\n      eq\n      tag_22\n      jumpi\n      dup1\n      0x6c0a24eb\n      eq\n      tag_23\n      jumpi\n      0x00\n      dup1\n      revert\n    tag_51:\n      dup1\n      0x3b2d081c\n      eq\n      tag_13\n      jumpi\n      dup1\n      0x3f33e909\n      eq\n      tag_14\n      jumpi\n      dup1\n      0x437823ec\n      eq\n      tag_15\n      jumpi\n      dup1\n      0x49bd5a5e\n      eq\n      tag_16\n      jumpi\n      dup1\n      0x49c421e3\n      eq\n      tag_17\n      jumpi\n      0x00\n      dup1\n      revert\n    tag_50:\n      dup1\n      0x1e9fe6c6\n      gt\n      tag_52\n      jumpi\n      dup1\n      0x1e9fe6c6\n      eq\n      tag_8\n      jumpi\n      dup1\n      0x212e3b2b\n      eq\n      tag_9\n      jumpi\n      dup1\n      0x23b872dd\n      eq\n      tag_10\n      jumpi\n      dup1\n      0x313ce567\n      eq\n      tag_11\n      jumpi\n      dup1\n      0x39509351\n      eq\n      tag_12\n      jumpi\n      0x00\n      dup1\n      revert\n    tag_52:\n      dup1\n      0x01b95e1d\n      eq\n      tag_3\n      jumpi\n      dup1\n      0x06fdde03\n      eq\n      tag_4\n      jumpi\n      dup1\n      0x095ea7b3\n      eq\n      tag_5\n      jumpi\n      dup1\n      0x1694505e\n      eq\n      tag_6\n      jumpi\n      dup1\n      0x18160ddd\n      eq\n      tag_7\n      jumpi\n      0x00\n      dup1\n      revert\n    tag_1:\n      jumpi(tag_2, calldatasize)\n      stop\n    tag_2:\n      0x00\n      dup1\n      revert\n        /* \"contracts/STS.sol\":17631:17785  function includeInAMMs(address account) external onlyOwner... */\n    tag_3:\n      callvalue\n      dup1\n      iszero\n      tag_55\n      jumpi\n      0x00\n      dup1\n      revert\n    tag_55:\n      pop\n      tag_56\n      tag_57\n      calldatasize\n      0x04\n      tag_58\n      jump\t// in\n    tag_57:\n      tag_59\n      jump\t// in\n    tag_56:\n      stop\n        /* \"contracts/STS.sol\":2963:3046  function name() public view returns (string memory) {... */\n    tag_4:\n      callvalue\n      dup1\n      iszero\n      tag_60\n      jumpi\n      0x00\n      dup1\n      revert\n    tag_60:\n      pop\n      tag_61\n      tag_62\n      jump\t// in\n    tag_61:\n      mload(0x40)\n      tag_63\n      swap2\n      swap1\n      tag_64\n      jump\t// in\n    tag_63:\n      mload(0x40)\n      dup1\n      swap2\n      sub\n      swap1\n      return\n        /* \"contracts/STS.sol\":15121:15279  function approve(address spender, uint amount) public override returns (bool) {... */\n    tag_5:\n      callvalue\n      dup1\n      iszero\n      tag_65\n      jumpi\n      0x00\n      dup1\n      revert\n    tag_65:\n      pop\n      tag_66\n      tag_67\n      calldatasize\n      0x04\n      tag_68\n      jump\t// in\n    tag_67:\n      tag_69\n      jump\t// in\n    tag_66:\n      mload(0x40)\n        /* \"#utility.yul\":1440:1454   */\n      swap1\n      iszero\n        /* \"#utility.yul\":1433:1455   */\n      iszero\n        /* \"#utility.yul\":1415:1456   */\n      dup2\n      mstore\n        /* \"#utility.yul\":1403:1405   */\n      0x20\n        /* \"#utility.yul\":1388:1406   */\n      add\n        /* \"contracts/STS.sol\":15121:15279  function approve(address spender, uint amount) public override returns (bool) {... */\n      tag_63\n        /* \"#utility.yul\":1275:1462   */\n      jump\n        /* \"contracts/STS.sol\":11281:11322  IUniswapV2Router02 public uniswapV2Router */\n    tag_6:\n      callvalue\n      dup1\n      iszero\n      tag_72\n      jumpi\n      0x00\n      dup1\n      revert\n    tag_72:\n      pop\n      sload(0x03)\n      tag_73\n      swap1\n      0x0100\n      swap1\n      div\n      sub(shl(0xa0, 0x01), 0x01)\n      and\n      dup2\n      jump\n    tag_73:\n      mload(0x40)\n      sub(shl(0xa0, 0x01), 0x01)\n        /* \"#utility.yul\":1657:1689   */\n      swap1\n      swap2\n      and\n        /* \"#utility.yul\":1639:1690   */\n      dup2\n      mstore\n        /* \"#utility.yul\":1627:1629   */\n      0x20\n        /* \"#utility.yul\":1612:1630   */\n      add\n        /* \"contracts/STS.sol\":11281:11322  IUniswapV2Router02 public uniswapV2Router */\n      tag_63\n        /* \"#utility.yul\":1467:1696   */\n      jump\n        /* \"contracts/STS.sol\":14577:14674  function totalSupply() public view override returns (uint) {... */\n    tag_7:\n      callvalue\n      dup1\n      iszero\n      tag_77\n      jumpi\n      0x00\n      dup1\n      revert\n    tag_77:\n      pop\n        /* \"contracts/STS.sol\":14654:14666  _totalSupply */\n      sload(0x09)\n        /* \"contracts/STS.sol\":14577:14674  function totalSupply() public view override returns (uint) {... */\n    tag_78:\n      mload(0x40)\n        /* \"#utility.yul\":1847:1872   */\n      swap1\n      dup2\n      mstore\n        /* \"#utility.yul\":1835:1837   */\n      0x20\n        /* \"#utility.yul\":1820:1838   */\n      add\n        /* \"contracts/STS.sol\":14577:14674  function totalSupply() public view override returns (uint) {... */\n      tag_63\n        /* \"#utility.yul\":1701:1878   */\n      jump\n        /* \"contracts/STS.sol\":11563:11600  mapping (address => bool) public AMMs */\n    tag_8:\n      callvalue\n      dup1\n      iszero\n      tag_82\n      jumpi\n      0x00\n      dup1\n      revert\n    tag_82:\n      pop\n      tag_66\n      tag_84\n      calldatasize\n      0x04\n      tag_58\n      jump\t// in\n    tag_84:\n      mstore(0x20, 0x07)\n      0x00\n      swap1\n      dup2\n      mstore\n      0x40\n      swap1\n      keccak256\n      sload\n      0xff\n      and\n      dup2\n      jump\n        /* \"contracts/STS.sol\":17793:17925  function changeMaxWalletLimit(uint256 maxWalletAmount) external onlyOwner... */\n    tag_9:\n      callvalue\n      dup1\n      iszero\n      tag_87\n      jumpi\n      0x00\n      dup1\n      revert\n    tag_87:\n      pop\n      tag_56\n      tag_89\n      calldatasize\n      0x04\n      tag_90\n      jump\t// in\n    tag_89:\n      tag_91\n      jump\t// in\n        /* \"contracts/STS.sol\":15285:15549  function transferFrom(address sender, address recipient, uint amount) public override returns (bool) {... */\n    tag_10:\n      callvalue\n      dup1\n      iszero\n      tag_92\n      jumpi\n      0x00\n      dup1\n      revert\n    tag_92:\n      pop\n      tag_66\n      tag_94\n      calldatasize\n      0x04\n      tag_95\n      jump\t// in\n    tag_94:\n      tag_96\n      jump\t// in\n        /* \"contracts/STS.sol\":3145:3228  function decimals() public view returns (uint8) {... */\n    tag_11:\n      callvalue\n      dup1\n      iszero\n      tag_98\n      jumpi\n      0x00\n      dup1\n      revert\n    tag_98:\n      pop\n        /* \"contracts/STS.sol\":3211:3220  _decimals */\n      sload(0x03)\n        /* \"contracts/STS.sol\":3145:3228  function decimals() public view returns (uint8) {... */\n      mload(0x40)\n        /* \"contracts/STS.sol\":3211:3220  _decimals */\n      0xff\n      swap1\n      swap2\n      and\n        /* \"#utility.yul\":2671:2707   */\n      dup2\n      mstore\n        /* \"#utility.yul\":2659:2661   */\n      0x20\n        /* \"#utility.yul\":2644:2662   */\n      add\n        /* \"contracts/STS.sol\":3145:3228  function decimals() public view returns (uint8) {... */\n      tag_63\n        /* \"#utility.yul\":2529:2713   */\n      jump\n        /* \"contracts/STS.sol\":15555:15761  function increaseAllowance(address spender, uint addedValue) public returns (bool) {... */\n    tag_12:\n      callvalue\n      dup1\n      iszero\n      tag_103\n      jumpi\n      0x00\n      dup1\n      revert\n    tag_103:\n      pop\n      tag_66\n      tag_105\n      calldatasize\n      0x04\n      tag_68\n      jump\t// in\n    tag_105:\n      tag_106\n      jump\t// in\n        /* \"contracts/STS.sol\":11832:11861  uint256 public buybackFee = 1 */\n    tag_13:\n      callvalue\n      dup1\n      iszero\n      tag_108\n      jumpi\n      0x00\n      dup1\n      revert\n    tag_108:\n      pop\n      tag_78\n      sload(0x0d)\n      dup2\n      jump\n        /* \"contracts/STS.sol\":17333:17457  function includeInMaxWallet(address account) external onlyOwner {... */\n    tag_14:\n      callvalue\n      dup1\n      iszero\n      tag_112\n      jumpi\n      0x00\n      dup1\n      revert\n    tag_112:\n      pop\n      tag_56\n      tag_114\n      calldatasize\n      0x04\n      tag_58\n      jump\t// in\n    tag_114:\n      tag_115\n      jump\t// in\n        /* \"contracts/STS.sol\":16951:17064  function excludeFromFee(address account) external onlyOwner {... */\n    tag_15:\n      callvalue\n      dup1\n      iszero\n      tag_116\n      jumpi\n      0x00\n      dup1\n      revert\n    tag_116:\n      pop\n      tag_56\n      tag_118\n      calldatasize\n      0x04\n      tag_58\n      jump\t// in\n    tag_118:\n      tag_119\n      jump\t// in\n        /* \"contracts/STS.sol\":11329:11367  address public immutable uniswapV2Pair */\n    tag_16:\n      callvalue\n      dup1\n      iszero\n      tag_120\n      jumpi\n      0x00\n      dup1\n      revert\n    tag_120:\n      pop\n      tag_73\n      immutable(\"0xf2b1b7d5f2ab8a7e974414843034d805c6ff5f827e1393d21a76b0239bfca82a\")\n      dup2\n      jump\n        /* \"contracts/STS.sol\":15991:16568  function setFeePercent(uint256 updatedLiquidityFee, uint256 updatedCharityFee, uint256 updatedMarketingFee, uint256 updatedDevelopmentFee, uint256 updatedBuybackFee) external onlyOwner {... */\n    tag_17:\n      callvalue\n      dup1\n      iszero\n      tag_125\n      jumpi\n      0x00\n      dup1\n      revert\n    tag_125:\n      pop\n      tag_56\n      tag_127\n      calldatasize\n      0x04\n      tag_128\n      jump\t// in\n    tag_127:\n      tag_129\n      jump\t// in\n        /* \"contracts/STS.sol\":12440:12480  bool public swapAndLiquifyEnabled = true */\n    tag_18:\n      callvalue\n      dup1\n      iszero\n      tag_130\n      jumpi\n      0x00\n      dup1\n      revert\n    tag_130:\n      pop\n      sload(0x13)\n      tag_66\n      swap1\n      shl(0xa8, 0x01)\n      swap1\n      div\n      0xff\n      and\n      dup2\n      jump\n        /* \"contracts/STS.sol\":17196:17321  function excludeFromMaxWallet(address account) external onlyOwner {... */\n    tag_19:\n      callvalue\n      dup1\n      iszero\n      tag_134\n      jumpi\n      0x00\n      dup1\n      revert\n    tag_134:\n      pop\n      tag_56\n      tag_136\n      calldatasize\n      0x04\n      tag_58\n      jump\t// in\n    tag_136:\n      tag_137\n      jump\t// in\n        /* \"contracts/STS.sol\":17465:17623  function excludeFromAMMs(address account) external onlyOwner... */\n    tag_20:\n      callvalue\n      dup1\n      iszero\n      tag_138\n      jumpi\n      0x00\n      dup1\n      revert\n    tag_138:\n      pop\n      tag_56\n      tag_140\n      calldatasize\n      0x04\n      tag_58\n      jump\t// in\n    tag_140:\n      tag_141\n      jump\t// in\n        /* \"contracts/STS.sol\":12206:12301  address payable public developmentAddress = payable(0x9DfCeBe1459C00eA0CB6c5cEF541552Dd09dd551) */\n    tag_21:\n      callvalue\n      dup1\n      iszero\n      tag_142\n      jumpi\n      0x00\n      dup1\n      revert\n    tag_142:\n      pop\n      sload(0x12)\n      tag_73\n      swap1\n      sub(shl(0xa0, 0x01), 0x01)\n      and\n      dup2\n      jump\n        /* \"contracts/STS.sol\":11754:11785  uint256 public marketingFee = 1 */\n    tag_22:\n      callvalue\n      dup1\n      iszero\n      tag_147\n      jumpi\n      0x00\n      dup1\n      revert\n    tag_147:\n      pop\n      tag_78\n      sload(0x0b)\n      dup2\n      jump\n        /* \"contracts/STS.sol\":12632:12681  uint256 public _maxWalletAmount = 25000000* 10**9 */\n    tag_23:\n      callvalue\n      dup1\n      iszero\n      tag_151\n      jumpi\n      0x00\n      dup1\n      revert\n    tag_151:\n      pop\n      tag_78\n      sload(0x15)\n      dup2\n      jump\n        /* \"contracts/STS.sol\":14680:14796  function balanceOf(address account) public view override returns (uint) {... */\n    tag_24:\n      callvalue\n      dup1\n      iszero\n      tag_155\n      jumpi\n      0x00\n      dup1\n      revert\n    tag_155:\n      pop\n      tag_78\n      tag_157\n      calldatasize\n      0x04\n      tag_58\n      jump\t// in\n    tag_157:\n      sub(shl(0xa0, 0x01), 0x01)\n        /* \"contracts/STS.sol\":14770:14788  _balances[account] */\n      and\n        /* \"contracts/STS.sol\":14746:14750  uint */\n      0x00\n        /* \"contracts/STS.sol\":14770:14788  _balances[account] */\n      swap1\n      dup2\n      mstore\n        /* \"contracts/STS.sol\":14770:14779  _balances */\n      0x04\n        /* \"contracts/STS.sol\":14770:14788  _balances[account] */\n      0x20\n      mstore\n      0x40\n      swap1\n      keccak256\n      sload\n      swap1\n        /* \"contracts/STS.sol\":14680:14796  function balanceOf(address account) public view override returns (uint) {... */\n      jump\n        /* \"contracts/STS.sol\":2103:2251  function renounceOwnership() public virtual onlyOwner {... */\n    tag_25:\n      callvalue\n      dup1\n      iszero\n      tag_160\n      jumpi\n      0x00\n      dup1\n      revert\n    tag_160:\n      pop\n      tag_56\n      tag_162\n      jump\t// in\n        /* \"contracts/STS.sol\":11505:11556  mapping (address => bool) public _isExcludedFromFee */\n    tag_26:\n      callvalue\n      dup1\n      iszero\n      tag_163\n      jumpi\n      0x00\n      dup1\n      revert\n    tag_163:\n      pop\n      tag_66\n      tag_165\n      calldatasize\n      0x04\n      tag_58\n      jump\t// in\n    tag_165:\n      mstore(0x20, 0x06)\n      0x00\n      swap1\n      dup2\n      mstore\n      0x40\n      swap1\n      keccak256\n      sload\n      0xff\n      and\n      dup2\n      jump\n        /* \"contracts/STS.sol\":1460:1539  function owner() public view returns (address) {... */\n    tag_27:\n      callvalue\n      dup1\n      iszero\n      tag_168\n      jumpi\n      0x00\n      dup1\n      revert\n    tag_168:\n      pop\n        /* \"contracts/STS.sol\":1498:1505  address */\n      0x00\n        /* \"contracts/STS.sol\":1525:1531  _owner */\n      sload\n      sub(shl(0xa0, 0x01), 0x01)\n      and\n        /* \"contracts/STS.sol\":1460:1539  function owner() public view returns (address) {... */\n      jump(tag_73)\n        /* \"contracts/STS.sol\":3052:3139  function symbol() public view returns (string memory) {... */\n    tag_28:\n      callvalue\n      dup1\n      iszero\n      tag_172\n      jumpi\n      0x00\n      dup1\n      revert\n    tag_172:\n      pop\n      tag_61\n      tag_174\n      jump\t// in\n        /* \"contracts/STS.sol\":11868:11899  uint256 public liquidityFee = 1 */\n    tag_29:\n      callvalue\n      dup1\n      iszero\n      tag_176\n      jumpi\n      0x00\n      dup1\n      revert\n    tag_176:\n      pop\n      tag_78\n      sload(0x0e)\n      dup2\n      jump\n        /* \"contracts/STS.sol\":15767:15983  function decreaseAllowance(address spender, uint subtractedValue) public returns (bool) {... */\n    tag_30:\n      callvalue\n      dup1\n      iszero\n      tag_180\n      jumpi\n      0x00\n      dup1\n      revert\n    tag_180:\n      pop\n      tag_66\n      tag_182\n      calldatasize\n      0x04\n      tag_68\n      jump\t// in\n    tag_182:\n      tag_183\n      jump\t// in\n        /* \"contracts/STS.sol\":12106:12199  address payable public marketingAddress = payable(0x8714C3ADBb728B8AD25Cb0C044f57cb8b51bC155) */\n    tag_31:\n      callvalue\n      dup1\n      iszero\n      tag_185\n      jumpi\n      0x00\n      dup1\n      revert\n    tag_185:\n      pop\n      sload(0x11)\n      tag_73\n      swap1\n      sub(shl(0xa0, 0x01), 0x01)\n      and\n      dup2\n      jump\n        /* \"contracts/STS.sol\":11792:11825  uint256 public developmentFee = 1 */\n    tag_32:\n      callvalue\n      dup1\n      iszero\n      tag_189\n      jumpi\n      0x00\n      dup1\n      revert\n    tag_189:\n      pop\n      tag_78\n      sload(0x0c)\n      dup2\n      jump\n        /* \"contracts/STS.sol\":14802:14967  function transfer(address recipient, uint amount) public override  returns (bool) {... */\n    tag_33:\n      callvalue\n      dup1\n      iszero\n      tag_193\n      jumpi\n      0x00\n      dup1\n      revert\n    tag_193:\n      pop\n      tag_66\n      tag_195\n      calldatasize\n      0x04\n      tag_68\n      jump\t// in\n    tag_195:\n      tag_196\n      jump\t// in\n        /* \"contracts/STS.sol\":12008:12099  address payable public charityAddress = payable(0x506df9716a793D02f89aD32Dc858bBB6F26268aa) */\n    tag_34:\n      callvalue\n      dup1\n      iszero\n      tag_198\n      jumpi\n      0x00\n      dup1\n      revert\n    tag_198:\n      pop\n      sload(0x10)\n      tag_73\n      swap1\n      sub(shl(0xa0, 0x01), 0x01)\n      and\n      dup2\n      jump\n        /* \"contracts/STS.sol\":16576:16747  function setSwapAndLiquifyEnabled(bool _enabled) public onlyOwner {... */\n    tag_35:\n      callvalue\n      dup1\n      iszero\n      tag_202\n      jumpi\n      0x00\n      dup1\n      revert\n    tag_202:\n      pop\n      tag_56\n      tag_204\n      calldatasize\n      0x04\n      tag_205\n      jump\t// in\n    tag_204:\n      tag_206\n      jump\t// in\n        /* \"contracts/STS.sol\":16755:16945  function changeNumTokensSellToAddToLiquidity(uint256 _numTokensSellToAddToLiquidity) external onlyOwner... */\n    tag_36:\n      callvalue\n      dup1\n      iszero\n      tag_207\n      jumpi\n      0x00\n      dup1\n      revert\n    tag_207:\n      pop\n      tag_56\n      tag_209\n      calldatasize\n      0x04\n      tag_90\n      jump\t// in\n    tag_209:\n      tag_210\n      jump\t// in\n        /* \"contracts/STS.sol\":12308:12399  address payable public buybackAddress = payable(0x1f1B4275E27A12aFfB71A0ccD0B79189F1C9C86E) */\n    tag_37:\n      callvalue\n      dup1\n      iszero\n      tag_211\n      jumpi\n      0x00\n      dup1\n      revert\n    tag_211:\n      pop\n      sload(0x13)\n      tag_73\n      swap1\n      sub(shl(0xa0, 0x01), 0x01)\n      and\n      dup2\n      jump\n        /* \"contracts/STS.sol\":12563:12623  uint256 public numTokensSellToAddToLiquidity =  2000 * 10**9 */\n    tag_38:\n      callvalue\n      dup1\n      iszero\n      tag_215\n      jumpi\n      0x00\n      dup1\n      revert\n    tag_215:\n      pop\n      tag_78\n      sload(0x14)\n      dup2\n      jump\n        /* \"contracts/STS.sol\":11607:11664  mapping (address => bool) public _isExcludedFromMaxWallet */\n    tag_39:\n      callvalue\n      dup1\n      iszero\n      tag_219\n      jumpi\n      0x00\n      dup1\n      revert\n    tag_219:\n      pop\n      tag_66\n      tag_221\n      calldatasize\n      0x04\n      tag_58\n      jump\t// in\n    tag_221:\n      mstore(0x20, 0x08)\n      0x00\n      swap1\n      dup2\n      mstore\n      0x40\n      swap1\n      keccak256\n      sload\n      0xff\n      and\n      dup2\n      jump\n        /* \"contracts/STS.sol\":14973:15115  function allowance(address towner, address spender) public view override returns (uint) {... */\n    tag_40:\n      callvalue\n      dup1\n      iszero\n      tag_224\n      jumpi\n      0x00\n      dup1\n      revert\n    tag_224:\n      pop\n      tag_78\n      tag_226\n      calldatasize\n      0x04\n      tag_227\n      jump\t// in\n    tag_226:\n      sub(shl(0xa0, 0x01), 0x01)\n        /* \"contracts/STS.sol\":15079:15098  _allowances[towner] */\n      swap2\n      dup3\n      and\n        /* \"contracts/STS.sol\":15055:15059  uint */\n      0x00\n        /* \"contracts/STS.sol\":15079:15098  _allowances[towner] */\n      swap1\n      dup2\n      mstore\n        /* \"contracts/STS.sol\":15079:15090  _allowances */\n      0x05\n        /* \"contracts/STS.sol\":15079:15098  _allowances[towner] */\n      0x20\n      swap1\n      dup2\n      mstore\n      0x40\n      dup1\n      dup4\n      keccak256\n        /* \"contracts/STS.sol\":15079:15107  _allowances[towner][spender] */\n      swap4\n      swap1\n      swap5\n      and\n      dup3\n      mstore\n      swap2\n      swap1\n      swap2\n      mstore\n      keccak256\n      sload\n      swap1\n        /* \"contracts/STS.sol\":14973:15115  function allowance(address towner, address spender) public view override returns (uint) {... */\n      jump\n        /* \"contracts/STS.sol\":23057:23396  function removeStuckToken(address _address) external onlyOwner {... */\n    tag_41:\n      callvalue\n      dup1\n      iszero\n      tag_230\n      jumpi\n      0x00\n      dup1\n      revert\n    tag_230:\n      pop\n      tag_56\n      tag_232\n      calldatasize\n      0x04\n      tag_58\n      jump\t// in\n    tag_232:\n      tag_233\n      jump\t// in\n        /* \"contracts/STS.sol\":17076:17188  function includeInFee(address account) external onlyOwner {... */\n    tag_42:\n      callvalue\n      dup1\n      iszero\n      tag_234\n      jumpi\n      0x00\n      dup1\n      revert\n    tag_234:\n      pop\n      tag_56\n      tag_236\n      calldatasize\n      0x04\n      tag_58\n      jump\t// in\n    tag_236:\n      tag_237\n      jump\t// in\n        /* \"contracts/STS.sol\":11718:11747  uint256 public charityFee = 1 */\n    tag_43:\n      callvalue\n      dup1\n      iszero\n      tag_238\n      jumpi\n      0x00\n      dup1\n      revert\n    tag_238:\n      pop\n      tag_78\n      sload(0x0a)\n      dup2\n      jump\n        /* \"contracts/STS.sol\":2406:2650  function transferOwnership(address newOwner) public virtual onlyOwner {... */\n    tag_44:\n      callvalue\n      dup1\n      iszero\n      tag_242\n      jumpi\n      0x00\n      dup1\n      revert\n    tag_242:\n      pop\n      tag_56\n      tag_244\n      calldatasize\n      0x04\n      tag_58\n      jump\t// in\n    tag_244:\n      tag_245\n      jump\t// in\n        /* \"contracts/STS.sol\":22855:23049  function withdrawStuckETH() external onlyOwner{... */\n    tag_45:\n      callvalue\n      dup1\n      iszero\n      tag_246\n      jumpi\n      0x00\n      dup1\n      revert\n    tag_246:\n      pop\n      tag_56\n      tag_248\n      jump\t// in\n        /* \"contracts/STS.sol\":17631:17785  function includeInAMMs(address account) external onlyOwner... */\n    tag_59:\n        /* \"contracts/STS.sol\":1672:1678  _owner */\n      and(sub(shl(0xa0, 0x01), 0x01), sload(0x00))\n        /* \"contracts/STS.sol\":969:979  msg.sender */\n      caller\n        /* \"contracts/STS.sol\":1672:1694  _owner == _msgSender() */\n      eq\n        /* \"contracts/STS.sol\":1664:1732  require(_owner == _msgSender() , \"Ownable: caller is not the owner\") */\n      tag_252\n      jumpi\n      mload(0x40)\n      shl(0xe5, 0x461bcd)\n      dup2\n      mstore\n      0x04\n      add\n      tag_253\n      swap1\n      tag_254\n      jump\t// in\n    tag_253:\n      mload(0x40)\n      dup1\n      swap2\n      sub\n      swap1\n      revert\n    tag_252:\n      sub(shl(0xa0, 0x01), 0x01)\n        /* \"contracts/STS.sol\":17706:17719  AMMs[account] */\n      and\n      0x00\n      swap1\n      dup2\n      mstore\n        /* \"contracts/STS.sol\":17706:17710  AMMs */\n      0x07\n        /* \"contracts/STS.sol\":17706:17719  AMMs[account] */\n      0x20\n      swap1\n      dup2\n      mstore\n      0x40\n      dup1\n      dup4\n      keccak256\n        /* \"contracts/STS.sol\":17706:17726  AMMs[account] = true */\n      dup1\n      sload\n        /* \"contracts/STS.sol\":17722:17726  true */\n      0x01\n      not(0xff)\n        /* \"contracts/STS.sol\":17706:17726  AMMs[account] = true */\n      swap2\n      dup3\n      and\n      dup2\n      or\n      swap1\n      swap3\n      sstore\n        /* \"contracts/STS.sol\":17737:17761  _isExcludedFromMaxWallet */\n      0x08\n        /* \"contracts/STS.sol\":17737:17770  _isExcludedFromMaxWallet[account] */\n      swap1\n      swap4\n      mstore\n      swap3\n      keccak256\n        /* \"contracts/STS.sol\":17737:17777  _isExcludedFromMaxWallet[account] = true */\n      dup1\n      sload\n      swap1\n      swap2\n      and\n      swap1\n      swap2\n      or\n      swap1\n      sstore\n        /* \"contracts/STS.sol\":17631:17785  function includeInAMMs(address account) external onlyOwner... */\n      jump\t// out\n        /* \"contracts/STS.sol\":2963:3046  function name() public view returns (string memory) {... */\n    tag_62:\n        /* \"contracts/STS.sol\":3000:3013  string memory */\n      0x60\n        /* \"contracts/STS.sol\":3033:3038  _name */\n      0x01\n        /* \"contracts/STS.sol\":3026:3038  return _name */\n      dup1\n      sload\n      tag_257\n      swap1\n      tag_258\n      jump\t// in\n    tag_257:\n      dup1\n      0x1f\n      add\n      0x20\n      dup1\n      swap2\n      div\n      mul\n      0x20\n      add\n      mload(0x40)\n      swap1\n      dup2\n      add\n      0x40\n      mstore\n      dup1\n      swap3\n      swap2\n      swap1\n      dup2\n      dup2\n      mstore\n      0x20\n      add\n      dup3\n      dup1\n      sload\n      tag_259\n      swap1\n      tag_258\n      jump\t// in\n    tag_259:\n      dup1\n      iszero\n      tag_260\n      jumpi\n      dup1\n      0x1f\n      lt\n      tag_261\n      jumpi\n      0x0100\n      dup1\n      dup4\n      sload\n      div\n      mul\n      dup4\n      mstore\n      swap2\n      0x20\n      add\n      swap2\n      jump(tag_260)\n    tag_261:\n      dup3\n      add\n      swap2\n      swap1\n      0x00\n      mstore\n      keccak256(0x00, 0x20)\n      swap1\n    tag_262:\n      dup2\n      sload\n      dup2\n      mstore\n      swap1\n      0x01\n      add\n      swap1\n      0x20\n      add\n      dup1\n      dup4\n      gt\n      tag_262\n      jumpi\n      dup3\n      swap1\n      sub\n      0x1f\n      and\n      dup3\n      add\n      swap2\n    tag_260:\n      pop\n      pop\n      pop\n      pop\n      pop\n      swap1\n      pop\n        /* \"contracts/STS.sol\":2963:3046  function name() public view returns (string memory) {... */\n      swap1\n      jump\t// out\n        /* \"contracts/STS.sol\":15121:15279  function approve(address spender, uint amount) public override returns (bool) {... */\n    tag_69:\n        /* \"contracts/STS.sol\":15193:15197  bool */\n      0x00\n        /* \"contracts/STS.sol\":15210:15249  _approve(_msgSender(), spender, amount) */\n      tag_264\n        /* \"contracts/STS.sol\":969:979  msg.sender */\n      caller\n        /* \"contracts/STS.sol\":15233:15240  spender */\n      dup5\n        /* \"contracts/STS.sol\":15242:15248  amount */\n      dup5\n        /* \"contracts/STS.sol\":15210:15218  _approve */\n      tag_266\n        /* \"contracts/STS.sol\":15210:15249  _approve(_msgSender(), spender, amount) */\n      jump\t// in\n    tag_264:\n      pop\n        /* \"contracts/STS.sol\":15267:15271  true */\n      0x01\n        /* \"contracts/STS.sol\":15121:15279  function approve(address spender, uint amount) public override returns (bool) {... */\n    tag_263:\n      swap3\n      swap2\n      pop\n      pop\n      jump\t// out\n        /* \"contracts/STS.sol\":17793:17925  function changeMaxWalletLimit(uint256 maxWalletAmount) external onlyOwner... */\n    tag_91:\n        /* \"contracts/STS.sol\":1672:1678  _owner */\n      and(sub(shl(0xa0, 0x01), 0x01), sload(0x00))\n        /* \"contracts/STS.sol\":969:979  msg.sender */\n      caller\n        /* \"contracts/STS.sol\":1672:1694  _owner == _msgSender() */\n      eq\n        /* \"contracts/STS.sol\":1664:1732  require(_owner == _msgSender() , \"Ownable: caller is not the owner\") */\n      tag_270\n      jumpi\n      mload(0x40)\n      shl(0xe5, 0x461bcd)\n      dup2\n      mstore\n      0x04\n      add\n      tag_253\n      swap1\n      tag_254\n      jump\t// in\n    tag_270:\n        /* \"contracts/STS.sol\":17883:17899  _maxWalletAmount */\n      0x15\n        /* \"contracts/STS.sol\":17883:17917  _maxWalletAmount = maxWalletAmount */\n      sstore\n        /* \"contracts/STS.sol\":17793:17925  function changeMaxWalletLimit(uint256 maxWalletAmount) external onlyOwner... */\n      jump\t// out\n        /* \"contracts/STS.sol\":15285:15549  function transferFrom(address sender, address recipient, uint amount) public override returns (bool) {... */\n    tag_96:\n        /* \"contracts/STS.sol\":15380:15384  bool */\n      0x00\n        /* \"contracts/STS.sol\":15397:15433  _transfer(sender, recipient, amount) */\n      tag_274\n        /* \"contracts/STS.sol\":15407:15413  sender */\n      dup5\n        /* \"contracts/STS.sol\":15415:15424  recipient */\n      dup5\n        /* \"contracts/STS.sol\":15426:15432  amount */\n      dup5\n        /* \"contracts/STS.sol\":15397:15406  _transfer */\n      tag_275\n        /* \"contracts/STS.sol\":15397:15433  _transfer(sender, recipient, amount) */\n      jump\t// in\n    tag_274:\n      sub(shl(0xa0, 0x01), 0x01)\n        /* \"contracts/STS.sol\":15475:15494  _allowances[sender] */\n      dup5\n      and\n      0x00\n      swap1\n      dup2\n      mstore\n        /* \"contracts/STS.sol\":15475:15486  _allowances */\n      0x05\n        /* \"contracts/STS.sol\":15475:15494  _allowances[sender] */\n      0x20\n      swap1\n      dup2\n      mstore\n      0x40\n      dup1\n      dup4\n      keccak256\n        /* \"contracts/STS.sol\":969:979  msg.sender */\n      caller\n        /* \"contracts/STS.sol\":15475:15508  _allowances[sender][_msgSender()] */\n      dup1\n      dup6\n      mstore\n      swap3\n      mstore\n      swap1\n      swap2\n      keccak256\n      sload\n        /* \"contracts/STS.sol\":15444:15519  _approve(sender, _msgSender(), _allowances[sender][_msgSender()] -(amount)) */\n      tag_276\n      swap2\n        /* \"contracts/STS.sol\":15453:15459  sender */\n      dup7\n      swap2\n        /* \"contracts/STS.sol\":15475:15518  _allowances[sender][_msgSender()] -(amount) */\n      tag_279\n      swap1\n        /* \"contracts/STS.sol\":15511:15517  amount */\n      dup7\n      swap1\n        /* \"contracts/STS.sol\":15475:15518  _allowances[sender][_msgSender()] -(amount) */\n      tag_280\n      jump\t// in\n    tag_279:\n        /* \"contracts/STS.sol\":15444:15452  _approve */\n      tag_266\n        /* \"contracts/STS.sol\":15444:15519  _approve(sender, _msgSender(), _allowances[sender][_msgSender()] -(amount)) */\n      jump\t// in\n    tag_276:\n      pop\n        /* \"contracts/STS.sol\":15537:15541  true */\n      0x01\n        /* \"contracts/STS.sol\":15285:15549  function transferFrom(address sender, address recipient, uint amount) public override returns (bool) {... */\n      swap4\n      swap3\n      pop\n      pop\n      pop\n      jump\t// out\n        /* \"contracts/STS.sol\":15555:15761  function increaseAllowance(address spender, uint addedValue) public returns (bool) {... */\n    tag_106:\n        /* \"contracts/STS.sol\":969:979  msg.sender */\n      caller\n        /* \"contracts/STS.sol\":15632:15636  bool */\n      0x00\n        /* \"contracts/STS.sol\":15681:15706  _allowances[_msgSender()] */\n      dup2\n      dup2\n      mstore\n        /* \"contracts/STS.sol\":15681:15692  _allowances */\n      0x05\n        /* \"contracts/STS.sol\":15681:15706  _allowances[_msgSender()] */\n      0x20\n      swap1\n      dup2\n      mstore\n      0x40\n      dup1\n      dup4\n      keccak256\n      sub(shl(0xa0, 0x01), 0x01)\n        /* \"contracts/STS.sol\":15681:15715  _allowances[_msgSender()][spender] */\n      dup8\n      and\n      dup5\n      mstore\n      swap1\n      swap2\n      mstore\n      dup2\n      keccak256\n      sload\n        /* \"contracts/STS.sol\":15632:15636  bool */\n      swap1\n      swap2\n        /* \"contracts/STS.sol\":15649:15731  _approve(_msgSender(), spender, _allowances[_msgSender()][spender] + (addedValue)) */\n      tag_264\n      swap2\n        /* \"contracts/STS.sol\":15672:15679  spender */\n      dup6\n      swap1\n        /* \"contracts/STS.sol\":15681:15730  _allowances[_msgSender()][spender] + (addedValue) */\n      tag_279\n      swap1\n        /* \"contracts/STS.sol\":15719:15729  addedValue */\n      dup7\n      swap1\n        /* \"contracts/STS.sol\":15681:15730  _allowances[_msgSender()][spender] + (addedValue) */\n      tag_287\n      jump\t// in\n        /* \"contracts/STS.sol\":17333:17457  function includeInMaxWallet(address account) external onlyOwner {... */\n    tag_115:\n        /* \"contracts/STS.sol\":1672:1678  _owner */\n      and(sub(shl(0xa0, 0x01), 0x01), sload(0x00))\n        /* \"contracts/STS.sol\":969:979  msg.sender */\n      caller\n        /* \"contracts/STS.sol\":1672:1694  _owner == _msgSender() */\n      eq\n        /* \"contracts/STS.sol\":1664:1732  require(_owner == _msgSender() , \"Ownable: caller is not the owner\") */\n      tag_290\n      jumpi\n      mload(0x40)\n      shl(0xe5, 0x461bcd)\n      dup2\n      mstore\n      0x04\n      add\n      tag_253\n      swap1\n      tag_254\n      jump\t// in\n    tag_290:\n      sub(shl(0xa0, 0x01), 0x01)\n        /* \"contracts/STS.sol\":17408:17441  _isExcludedFromMaxWallet[account] */\n      and\n        /* \"contracts/STS.sol\":17444:17449  false */\n      0x00\n        /* \"contracts/STS.sol\":17408:17441  _isExcludedFromMaxWallet[account] */\n      swap1\n      dup2\n      mstore\n        /* \"contracts/STS.sol\":17408:17432  _isExcludedFromMaxWallet */\n      0x08\n        /* \"contracts/STS.sol\":17408:17441  _isExcludedFromMaxWallet[account] */\n      0x20\n      mstore\n      0x40\n      swap1\n      keccak256\n        /* \"contracts/STS.sol\":17408:17449  _isExcludedFromMaxWallet[account] = false */\n      dup1\n      sload\n      not(0xff)\n      and\n      swap1\n      sstore\n        /* \"contracts/STS.sol\":17333:17457  function includeInMaxWallet(address account) external onlyOwner {... */\n      jump\t// out\n        /* \"contracts/STS.sol\":16951:17064  function excludeFromFee(address account) external onlyOwner {... */\n    tag_119:\n        /* \"contracts/STS.sol\":1672:1678  _owner */\n      and(sub(shl(0xa0, 0x01), 0x01), sload(0x00))\n        /* \"contracts/STS.sol\":969:979  msg.sender */\n      caller\n        /* \"contracts/STS.sol\":1672:1694  _owner == _msgSender() */\n      eq\n        /* \"contracts/STS.sol\":1664:1732  require(_owner == _msgSender() , \"Ownable: caller is not the owner\") */\n      tag_295\n      jumpi\n      mload(0x40)\n      shl(0xe5, 0x461bcd)\n      dup2\n      mstore\n      0x04\n      add\n      tag_253\n      swap1\n      tag_254\n      jump\t// in\n    tag_295:\n      sub(shl(0xa0, 0x01), 0x01)\n        /* \"contracts/STS.sol\":17022:17049  _isExcludedFromFee[account] */\n      and\n      0x00\n      swap1\n      dup2\n      mstore\n        /* \"contracts/STS.sol\":17022:17040  _isExcludedFromFee */\n      0x06\n        /* \"contracts/STS.sol\":17022:17049  _isExcludedFromFee[account] */\n      0x20\n      mstore\n      0x40\n      swap1\n      keccak256\n        /* \"contracts/STS.sol\":17022:17056  _isExcludedFromFee[account] = true */\n      dup1\n      sload\n      not(0xff)\n      and\n        /* \"contracts/STS.sol\":17052:17056  true */\n      0x01\n        /* \"contracts/STS.sol\":17022:17056  _isExcludedFromFee[account] = true */\n      or\n      swap1\n      sstore\n        /* \"contracts/STS.sol\":16951:17064  function excludeFromFee(address account) external onlyOwner {... */\n      jump\t// out\n        /* \"contracts/STS.sol\":15991:16568  function setFeePercent(uint256 updatedLiquidityFee, uint256 updatedCharityFee, uint256 updatedMarketingFee, uint256 updatedDevelopmentFee, uint256 updatedBuybackFee) external onlyOwner {... */\n    tag_129:\n        /* \"contracts/STS.sol\":1672:1678  _owner */\n      and(sub(shl(0xa0, 0x01), 0x01), sload(0x00))\n        /* \"contracts/STS.sol\":969:979  msg.sender */\n      caller\n        /* \"contracts/STS.sol\":1672:1694  _owner == _msgSender() */\n      eq\n        /* \"contracts/STS.sol\":1664:1732  require(_owner == _msgSender() , \"Ownable: caller is not the owner\") */\n      tag_300\n      jumpi\n      mload(0x40)\n      shl(0xe5, 0x461bcd)\n      dup2\n      mstore\n      0x04\n      add\n      tag_253\n      swap1\n      tag_254\n      jump\t// in\n    tag_300:\n        /* \"contracts/STS.sol\":16187:16199  liquidityFee */\n      0x0e\n        /* \"contracts/STS.sol\":16187:16221  liquidityFee = updatedLiquidityFee */\n      dup6\n      swap1\n      sstore\n        /* \"contracts/STS.sol\":16232:16242  charityFee */\n      0x0a\n        /* \"contracts/STS.sol\":16232:16262  charityFee = updatedCharityFee */\n      dup5\n      swap1\n      sstore\n        /* \"contracts/STS.sol\":16273:16285  marketingFee */\n      0x0b\n        /* \"contracts/STS.sol\":16273:16307  marketingFee = updatedMarketingFee */\n      dup4\n      swap1\n      sstore\n        /* \"contracts/STS.sol\":16318:16332  developmentFee */\n      0x0c\n        /* \"contracts/STS.sol\":16318:16356  developmentFee = updatedDevelopmentFee */\n      dup3\n      swap1\n      sstore\n        /* \"contracts/STS.sol\":16367:16377  buybackFee */\n      0x0d\n        /* \"contracts/STS.sol\":16367:16397  buybackFee = updatedBuybackFee */\n      dup2\n      swap1\n      sstore\n        /* \"contracts/STS.sol\":16380:16397  updatedBuybackFee */\n      dup1\n        /* \"contracts/STS.sol\":16335:16356  updatedDevelopmentFee */\n      dup3\n        /* \"contracts/STS.sol\":16288:16307  updatedMarketingFee */\n      dup5\n        /* \"contracts/STS.sol\":16420:16445  liquidityFee + charityFee */\n      tag_303\n        /* \"contracts/STS.sol\":16245:16262  updatedCharityFee */\n      dup8\n        /* \"contracts/STS.sol\":16202:16221  updatedLiquidityFee */\n      dup10\n        /* \"contracts/STS.sol\":16420:16445  liquidityFee + charityFee */\n      tag_287\n      jump\t// in\n    tag_303:\n        /* \"contracts/STS.sol\":16420:16460  liquidityFee + charityFee + marketingFee */\n      tag_304\n      swap2\n      swap1\n      tag_287\n      jump\t// in\n    tag_304:\n        /* \"contracts/STS.sol\":16420:16477  liquidityFee + charityFee + marketingFee + developmentFee */\n      tag_305\n      swap2\n      swap1\n      tag_287\n      jump\t// in\n    tag_305:\n        /* \"contracts/STS.sol\":16420:16490  liquidityFee + charityFee + marketingFee + developmentFee + buybackFee */\n      tag_306\n      swap2\n      swap1\n      tag_287\n      jump\t// in\n    tag_306:\n        /* \"contracts/STS.sol\":16408:16416  totalFee */\n      0x0f\n        /* \"contracts/STS.sol\":16408:16490  totalFee =  liquidityFee + charityFee + marketingFee + developmentFee + buybackFee */\n      dup2\n      swap1\n      sstore\n        /* \"contracts/STS.sol\":16523:16525  10 */\n      0x0a\n      lt\n        /* \"contracts/STS.sol\":16511:16525  totalFee <= 10 */\n      iszero\n        /* \"contracts/STS.sol\":16503:16560  require(totalFee <= 10, \"Fee is crossing the boundaries\") */\n      tag_307\n      jumpi\n      mload(0x40)\n      shl(0xe5, 0x461bcd)\n      dup2\n      mstore\n        /* \"#utility.yul\":5714:5716   */\n      0x20\n        /* \"contracts/STS.sol\":16503:16560  require(totalFee <= 10, \"Fee is crossing the boundaries\") */\n      0x04\n      dup3\n      add\n        /* \"#utility.yul\":5696:5717   */\n      mstore\n        /* \"#utility.yul\":5753:5755   */\n      0x1e\n        /* \"#utility.yul\":5733:5751   */\n      0x24\n      dup3\n      add\n        /* \"#utility.yul\":5726:5756   */\n      mstore\n        /* \"#utility.yul\":5792:5824   */\n      0x4665652069732063726f7373696e672074686520626f756e6461726965730000\n        /* \"#utility.yul\":5772:5790   */\n      0x44\n      dup3\n      add\n        /* \"#utility.yul\":5765:5825   */\n      mstore\n        /* \"#utility.yul\":5842:5860   */\n      0x64\n      add\n        /* \"contracts/STS.sol\":16503:16560  require(totalFee <= 10, \"Fee is crossing the boundaries\") */\n      tag_253\n        /* \"#utility.yul\":5512:5866   */\n      jump\n        /* \"contracts/STS.sol\":16503:16560  require(totalFee <= 10, \"Fee is crossing the boundaries\") */\n    tag_307:\n        /* \"contracts/STS.sol\":15991:16568  function setFeePercent(uint256 updatedLiquidityFee, uint256 updatedCharityFee, uint256 updatedMarketingFee, uint256 updatedDevelopmentFee, uint256 updatedBuybackFee) external onlyOwner {... */\n      pop\n      pop\n      pop\n      pop\n      pop\n      jump\t// out\n        /* \"contracts/STS.sol\":17196:17321  function excludeFromMaxWallet(address account) external onlyOwner {... */\n    tag_137:\n        /* \"contracts/STS.sol\":1672:1678  _owner */\n      and(sub(shl(0xa0, 0x01), 0x01), sload(0x00))\n        /* \"contracts/STS.sol\":969:979  msg.sender */\n      caller\n        /* \"contracts/STS.sol\":1672:1694  _owner == _msgSender() */\n      eq\n        /* \"contracts/STS.sol\":1664:1732  require(_owner == _msgSender() , \"Ownable: caller is not the owner\") */\n      tag_312\n      jumpi\n      mload(0x40)\n      shl(0xe5, 0x461bcd)\n      dup2\n      mstore\n      0x04\n      add\n      tag_253\n      swap1\n      tag_254\n      jump\t// in\n    tag_312:\n      sub(shl(0xa0, 0x01), 0x01)\n        /* \"contracts/STS.sol\":17273:17306  _isExcludedFromMaxWallet[account] */\n      and\n      0x00\n      swap1\n      dup2\n      mstore\n        /* \"contracts/STS.sol\":17273:17297  _isExcludedFromMaxWallet */\n      0x08\n        /* \"contracts/STS.sol\":17273:17306  _isExcludedFromMaxWallet[account] */\n      0x20\n      mstore\n      0x40\n      swap1\n      keccak256\n        /* \"contracts/STS.sol\":17273:17313  _isExcludedFromMaxWallet[account] = true */\n      dup1\n      sload\n      not(0xff)\n      and\n        /* \"contracts/STS.sol\":17309:17313  true */\n      0x01\n        /* \"contracts/STS.sol\":17273:17313  _isExcludedFromMaxWallet[account] = true */\n      or\n      swap1\n      sstore\n        /* \"contracts/STS.sol\":17196:17321  function excludeFromMaxWallet(address account) external onlyOwner {... */\n      jump\t// out\n        /* \"contracts/STS.sol\":17465:17623  function excludeFromAMMs(address account) external onlyOwner... */\n    tag_141:\n        /* \"contracts/STS.sol\":1672:1678  _owner */\n      and(sub(shl(0xa0, 0x01), 0x01), sload(0x00))\n        /* \"contracts/STS.sol\":969:979  msg.sender */\n      caller\n        /* \"contracts/STS.sol\":1672:1694  _owner == _msgSender() */\n      eq\n        /* \"contracts/STS.sol\":1664:1732  require(_owner == _msgSender() , \"Ownable: caller is not the owner\") */\n      tag_317\n      jumpi\n      mload(0x40)\n      shl(0xe5, 0x461bcd)\n      dup2\n      mstore\n      0x04\n      add\n      tag_253\n      swap1\n      tag_254\n      jump\t// in\n    tag_317:\n      sub(shl(0xa0, 0x01), 0x01)\n        /* \"contracts/STS.sol\":17542:17555  AMMs[account] */\n      and\n        /* \"contracts/STS.sol\":17558:17563  false */\n      0x00\n        /* \"contracts/STS.sol\":17542:17555  AMMs[account] */\n      swap1\n      dup2\n      mstore\n        /* \"contracts/STS.sol\":17542:17546  AMMs */\n      0x07\n        /* \"contracts/STS.sol\":17542:17555  AMMs[account] */\n      0x20\n      swap1\n      dup2\n      mstore\n      0x40\n      dup1\n      dup4\n      keccak256\n        /* \"contracts/STS.sol\":17542:17563  AMMs[account] = false */\n      dup1\n      sload\n      not(0xff)\n      swap1\n      dup2\n      and\n      swap1\n      swap2\n      sstore\n        /* \"contracts/STS.sol\":17574:17598  _isExcludedFromMaxWallet */\n      0x08\n        /* \"contracts/STS.sol\":17574:17607  _isExcludedFromMaxWallet[account] */\n      swap1\n      swap3\n      mstore\n      swap1\n      swap2\n      keccak256\n        /* \"contracts/STS.sol\":17574:17615  _isExcludedFromMaxWallet[account] = false */\n      dup1\n      sload\n      swap1\n      swap2\n      and\n      swap1\n      sstore\n        /* \"contracts/STS.sol\":17465:17623  function excludeFromAMMs(address account) external onlyOwner... */\n      jump\t// out\n        /* \"contracts/STS.sol\":2103:2251  function renounceOwnership() public virtual onlyOwner {... */\n    tag_162:\n        /* \"contracts/STS.sol\":1672:1678  _owner */\n      and(sub(shl(0xa0, 0x01), 0x01), sload(0x00))\n        /* \"contracts/STS.sol\":969:979  msg.sender */\n      caller\n        /* \"contracts/STS.sol\":1672:1694  _owner == _msgSender() */\n      eq\n        /* \"contracts/STS.sol\":1664:1732  require(_owner == _msgSender() , \"Ownable: caller is not the owner\") */\n      tag_323\n      jumpi\n      mload(0x40)\n      shl(0xe5, 0x461bcd)\n      dup2\n      mstore\n      0x04\n      add\n      tag_253\n      swap1\n      tag_254\n      jump\t// in\n    tag_323:\n        /* \"contracts/STS.sol\":2210:2211  0 */\n      0x00\n        /* \"contracts/STS.sol\":2194:2200  _owner */\n      dup1\n      sload\n        /* \"contracts/STS.sol\":2173:2213  OwnershipTransferred(_owner, address(0)) */\n      mload(0x40)\n      sub(shl(0xa0, 0x01), 0x01)\n        /* \"contracts/STS.sol\":2194:2200  _owner */\n      swap1\n      swap2\n      and\n      swap1\n        /* \"contracts/STS.sol\":2173:2213  OwnershipTransferred(_owner, address(0)) */\n      0x8be0079c531659141344cd1fd0a4f28419497f9722a3daafe3b4186f6b6457e0\n      swap1\n        /* \"contracts/STS.sol\":2210:2211  0 */\n      dup4\n      swap1\n        /* \"contracts/STS.sol\":2173:2213  OwnershipTransferred(_owner, address(0)) */\n      log3\n        /* \"contracts/STS.sol\":2241:2242  0 */\n      0x00\n        /* \"contracts/STS.sol\":2224:2243  _owner = address(0) */\n      dup1\n      sload\n      not(sub(shl(0xa0, 0x01), 0x01))\n      and\n      swap1\n      sstore\n        /* \"contracts/STS.sol\":2103:2251  function renounceOwnership() public virtual onlyOwner {... */\n      jump\t// out\n        /* \"contracts/STS.sol\":3052:3139  function symbol() public view returns (string memory) {... */\n    tag_174:\n        /* \"contracts/STS.sol\":3091:3104  string memory */\n      0x60\n        /* \"contracts/STS.sol\":3124:3131  _symbol */\n      0x02\n        /* \"contracts/STS.sol\":3117:3131  return _symbol */\n      dup1\n      sload\n      tag_257\n      swap1\n      tag_258\n      jump\t// in\n        /* \"contracts/STS.sol\":15767:15983  function decreaseAllowance(address spender, uint subtractedValue) public returns (bool) {... */\n    tag_183:\n        /* \"contracts/STS.sol\":969:979  msg.sender */\n      caller\n        /* \"contracts/STS.sol\":15849:15853  bool */\n      0x00\n        /* \"contracts/STS.sol\":15898:15923  _allowances[_msgSender()] */\n      dup2\n      dup2\n      mstore\n        /* \"contracts/STS.sol\":15898:15909  _allowances */\n      0x05\n        /* \"contracts/STS.sol\":15898:15923  _allowances[_msgSender()] */\n      0x20\n      swap1\n      dup2\n      mstore\n      0x40\n      dup1\n      dup4\n      keccak256\n      sub(shl(0xa0, 0x01), 0x01)\n        /* \"contracts/STS.sol\":15898:15932  _allowances[_msgSender()][spender] */\n      dup8\n      and\n      dup5\n      mstore\n      swap1\n      swap2\n      mstore\n      dup2\n      keccak256\n      sload\n        /* \"contracts/STS.sol\":15849:15853  bool */\n      swap1\n      swap2\n        /* \"contracts/STS.sol\":15866:15953  _approve(_msgSender(), spender, _allowances[_msgSender()][spender] - (subtractedValue)) */\n      tag_264\n      swap2\n        /* \"contracts/STS.sol\":15889:15896  spender */\n      dup6\n      swap1\n        /* \"contracts/STS.sol\":15898:15952  _allowances[_msgSender()][spender] - (subtractedValue) */\n      tag_279\n      swap1\n        /* \"contracts/STS.sol\":15936:15951  subtractedValue */\n      dup7\n      swap1\n        /* \"contracts/STS.sol\":15898:15952  _allowances[_msgSender()][spender] - (subtractedValue) */\n      tag_280\n      jump\t// in\n        /* \"contracts/STS.sol\":14802:14967  function transfer(address recipient, uint amount) public override  returns (bool) {... */\n    tag_196:\n        /* \"contracts/STS.sol\":14878:14882  bool */\n      0x00\n        /* \"contracts/STS.sol\":14895:14937  _transfer(_msgSender(), recipient, amount) */\n      tag_264\n        /* \"contracts/STS.sol\":969:979  msg.sender */\n      caller\n        /* \"contracts/STS.sol\":14919:14928  recipient */\n      dup5\n        /* \"contracts/STS.sol\":14930:14936  amount */\n      dup5\n        /* \"contracts/STS.sol\":14895:14904  _transfer */\n      tag_275\n        /* \"contracts/STS.sol\":14895:14937  _transfer(_msgSender(), recipient, amount) */\n      jump\t// in\n        /* \"contracts/STS.sol\":16576:16747  function setSwapAndLiquifyEnabled(bool _enabled) public onlyOwner {... */\n    tag_206:\n        /* \"contracts/STS.sol\":1672:1678  _owner */\n      and(sub(shl(0xa0, 0x01), 0x01), sload(0x00))\n        /* \"contracts/STS.sol\":969:979  msg.sender */\n      caller\n        /* \"contracts/STS.sol\":1672:1694  _owner == _msgSender() */\n      eq\n        /* \"contracts/STS.sol\":1664:1732  require(_owner == _msgSender() , \"Ownable: caller is not the owner\") */\n      tag_343\n      jumpi\n      mload(0x40)\n      shl(0xe5, 0x461bcd)\n      dup2\n      mstore\n      0x04\n      add\n      tag_253\n      swap1\n      tag_254\n      jump\t// in\n    tag_343:\n        /* \"contracts/STS.sol\":16653:16674  swapAndLiquifyEnabled */\n      0x13\n        /* \"contracts/STS.sol\":16653:16685  swapAndLiquifyEnabled = _enabled */\n      dup1\n      sload\n      dup3\n      iszero\n      iszero\n      shl(0xa8, 0x01)\n      mul\n      not(shl(0xa8, 0xff))\n      swap1\n      swap2\n      and\n      or\n      swap1\n      sstore\n        /* \"contracts/STS.sol\":16701:16739  SwapAndLiquifyEnabledUpdated(_enabled) */\n      mload(0x40)\n      0x53726dfcaf90650aa7eb35524f4d3220f07413c8d6cb404cc8c18bf5591bc159\n      swap1\n      tag_346\n      swap1\n        /* \"contracts/STS.sol\":16677:16685  _enabled */\n      dup4\n        /* \"#utility.yul\":1440:1454   */\n      iszero\n        /* \"#utility.yul\":1433:1455   */\n      iszero\n        /* \"#utility.yul\":1415:1456   */\n      dup2\n      mstore\n        /* \"#utility.yul\":1403:1405   */\n      0x20\n        /* \"#utility.yul\":1388:1406   */\n      add\n      swap1\n        /* \"#utility.yul\":1275:1462   */\n      jump\n        /* \"contracts/STS.sol\":16701:16739  SwapAndLiquifyEnabledUpdated(_enabled) */\n    tag_346:\n      mload(0x40)\n      dup1\n      swap2\n      sub\n      swap1\n      log1\n        /* \"contracts/STS.sol\":16576:16747  function setSwapAndLiquifyEnabled(bool _enabled) public onlyOwner {... */\n      pop\n      jump\t// out\n        /* \"contracts/STS.sol\":16755:16945  function changeNumTokensSellToAddToLiquidity(uint256 _numTokensSellToAddToLiquidity) external onlyOwner... */\n    tag_210:\n        /* \"contracts/STS.sol\":1672:1678  _owner */\n      and(sub(shl(0xa0, 0x01), 0x01), sload(0x00))\n        /* \"contracts/STS.sol\":969:979  msg.sender */\n      caller\n        /* \"contracts/STS.sol\":1672:1694  _owner == _msgSender() */\n      eq\n        /* \"contracts/STS.sol\":1664:1732  require(_owner == _msgSender() , \"Ownable: caller is not the owner\") */\n      tag_349\n      jumpi\n      mload(0x40)\n      shl(0xe5, 0x461bcd)\n      dup2\n      mstore\n      0x04\n      add\n      tag_253\n      swap1\n      tag_254\n      jump\t// in\n    tag_349:\n        /* \"contracts/STS.sol\":16875:16904  numTokensSellToAddToLiquidity */\n      0x14\n        /* \"contracts/STS.sol\":16875:16937  numTokensSellToAddToLiquidity = _numTokensSellToAddToLiquidity */\n      sstore\n        /* \"contracts/STS.sol\":16755:16945  function changeNumTokensSellToAddToLiquidity(uint256 _numTokensSellToAddToLiquidity) external onlyOwner... */\n      jump\t// out\n        /* \"contracts/STS.sol\":23057:23396  function removeStuckToken(address _address) external onlyOwner {... */\n    tag_233:\n        /* \"contracts/STS.sol\":1672:1678  _owner */\n      and(sub(shl(0xa0, 0x01), 0x01), sload(0x00))\n        /* \"contracts/STS.sol\":969:979  msg.sender */\n      caller\n        /* \"contracts/STS.sol\":1672:1694  _owner == _msgSender() */\n      eq\n        /* \"contracts/STS.sol\":1664:1732  require(_owner == _msgSender() , \"Ownable: caller is not the owner\") */\n      tag_355\n      jumpi\n      mload(0x40)\n      shl(0xe5, 0x461bcd)\n      dup2\n      mstore\n      0x04\n      add\n      tag_253\n      swap1\n      tag_254\n      jump\t// in\n    tag_355:\n        /* \"contracts/STS.sol\":23159:23163  this */\n      address\n      sub(shl(0xa0, 0x01), 0x01)\n        /* \"contracts/STS.sol\":23139:23164  _address != address(this) */\n      dup3\n      and\n      sub\n        /* \"contracts/STS.sol\":23131:23213  require(_address != address(this), \"Can't withdraw tokens destined for liquidity\") */\n      tag_358\n      jumpi\n      mload(0x40)\n      shl(0xe5, 0x461bcd)\n      dup2\n      mstore\n        /* \"#utility.yul\":6073:6075   */\n      0x20\n        /* \"contracts/STS.sol\":23131:23213  require(_address != address(this), \"Can't withdraw tokens destined for liquidity\") */\n      0x04\n      dup3\n      add\n        /* \"#utility.yul\":6055:6076   */\n      mstore\n        /* \"#utility.yul\":6112:6114   */\n      0x2c\n        /* \"#utility.yul\":6092:6110   */\n      0x24\n      dup3\n      add\n        /* \"#utility.yul\":6085:6115   */\n      mstore\n        /* \"#utility.yul\":6151:6185   */\n      0x43616e277420776974686472617720746f6b656e732064657374696e65642066\n        /* \"#utility.yul\":6131:6149   */\n      0x44\n      dup3\n      add\n        /* \"#utility.yul\":6124:6186   */\n      mstore\n      shl(0xa0, 0x6f72206c6971756964697479)\n        /* \"#utility.yul\":6202:6220   */\n      0x64\n      dup3\n      add\n        /* \"#utility.yul\":6195:6237   */\n      mstore\n        /* \"#utility.yul\":6254:6273   */\n      0x84\n      add\n        /* \"contracts/STS.sol\":23131:23213  require(_address != address(this), \"Can't withdraw tokens destined for liquidity\") */\n      tag_253\n        /* \"#utility.yul\":5871:6279   */\n      jump\n        /* \"contracts/STS.sol\":23131:23213  require(_address != address(this), \"Can't withdraw tokens destined for liquidity\") */\n    tag_358:\n        /* \"contracts/STS.sol\":23232:23273  IERC20(_address).balanceOf(address(this)) */\n      mload(0x40)\n      shl(0xe0, 0x70a08231)\n      dup2\n      mstore\n        /* \"contracts/STS.sol\":23267:23271  this */\n      address\n        /* \"contracts/STS.sol\":23232:23273  IERC20(_address).balanceOf(address(this)) */\n      0x04\n      dup3\n      add\n        /* \"#utility.yul\":1639:1690   */\n      mstore\n        /* \"contracts/STS.sol\":23276:23277  0 */\n      0x00\n      swap1\n      sub(shl(0xa0, 0x01), 0x01)\n        /* \"contracts/STS.sol\":23232:23258  IERC20(_address).balanceOf */\n      dup4\n      and\n      swap1\n      0x70a08231\n      swap1\n        /* \"#utility.yul\":1612:1630   */\n      0x24\n      add\n        /* \"contracts/STS.sol\":23232:23273  IERC20(_address).balanceOf(address(this)) */\n      0x20\n      mload(0x40)\n      dup1\n      dup4\n      sub\n      dup2\n      dup7\n      gas\n      staticcall\n      iszero\n      dup1\n      iszero\n      tag_363\n      jumpi\n      returndatasize\n      0x00\n      dup1\n      returndatacopy\n      revert(0x00, returndatasize)\n    tag_363:\n      pop\n      pop\n      pop\n      pop\n      mload(0x40)\n      returndatasize\n      not(0x1f)\n      0x1f\n      dup3\n      add\n      and\n      dup3\n      add\n      dup1\n      0x40\n      mstore\n      pop\n      dup2\n      add\n      swap1\n      tag_364\n      swap2\n      swap1\n      tag_365\n      jump\t// in\n    tag_364:\n        /* \"contracts/STS.sol\":23232:23277  IERC20(_address).balanceOf(address(this)) > 0 */\n      gt\n        /* \"contracts/STS.sol\":23224:23298  require(IERC20(_address).balanceOf(address(this)) > 0, \"Can't withdraw 0\") */\n      tag_366\n      jumpi\n      mload(0x40)\n      shl(0xe5, 0x461bcd)\n      dup2\n      mstore\n        /* \"#utility.yul\":6675:6677   */\n      0x20\n        /* \"contracts/STS.sol\":23224:23298  require(IERC20(_address).balanceOf(address(this)) > 0, \"Can't withdraw 0\") */\n      0x04\n      dup3\n      add\n        /* \"#utility.yul\":6657:6678   */\n      mstore\n        /* \"#utility.yul\":6714:6716   */\n      0x10\n        /* \"#utility.yul\":6694:6712   */\n      0x24\n      dup3\n      add\n        /* \"#utility.yul\":6687:6717   */\n      mstore\n      shl(0x84, 0x043616e2774207769746864726177203)\n        /* \"#utility.yul\":6733:6751   */\n      0x44\n      dup3\n      add\n        /* \"#utility.yul\":6726:6772   */\n      mstore\n        /* \"#utility.yul\":6789:6807   */\n      0x64\n      add\n        /* \"contracts/STS.sol\":23224:23298  require(IERC20(_address).balanceOf(address(this)) > 0, \"Can't withdraw 0\") */\n      tag_253\n        /* \"#utility.yul\":6473:6813   */\n      jump\n        /* \"contracts/STS.sol\":23224:23298  require(IERC20(_address).balanceOf(address(this)) > 0, \"Can't withdraw 0\") */\n    tag_366:\n        /* \"contracts/STS.sol\":23318:23326  _address */\n      dup1\n      sub(shl(0xa0, 0x01), 0x01)\n        /* \"contracts/STS.sol\":23311:23336  IERC20(_address).transfer */\n      and\n      0xa9059cbb\n        /* \"contracts/STS.sol\":23337:23344  owner() */\n      tag_369\n        /* \"contracts/STS.sol\":1498:1505  address */\n      0x00\n        /* \"contracts/STS.sol\":1525:1531  _owner */\n      sload\n      sub(shl(0xa0, 0x01), 0x01)\n      and\n      swap1\n        /* \"contracts/STS.sol\":1460:1539  function owner() public view returns (address) {... */\n      jump\n        /* \"contracts/STS.sol\":23337:23344  owner() */\n    tag_369:\n        /* \"contracts/STS.sol\":23346:23387  IERC20(_address).balanceOf(address(this)) */\n      mload(0x40)\n      shl(0xe0, 0x70a08231)\n      dup2\n      mstore\n        /* \"contracts/STS.sol\":23381:23385  this */\n      address\n        /* \"contracts/STS.sol\":23346:23387  IERC20(_address).balanceOf(address(this)) */\n      0x04\n      dup3\n      add\n        /* \"#utility.yul\":1639:1690   */\n      mstore\n      sub(shl(0xa0, 0x01), 0x01)\n        /* \"contracts/STS.sol\":23346:23372  IERC20(_address).balanceOf */\n      dup6\n      and\n      swap1\n      0x70a08231\n      swap1\n        /* \"#utility.yul\":1612:1630   */\n      0x24\n      add\n        /* \"contracts/STS.sol\":23346:23387  IERC20(_address).balanceOf(address(this)) */\n      0x20\n      mload(0x40)\n      dup1\n      dup4\n      sub\n      dup2\n      dup7\n      gas\n      staticcall\n      iszero\n      dup1\n      iszero\n      tag_372\n      jumpi\n      returndatasize\n      0x00\n      dup1\n      returndatacopy\n      revert(0x00, returndatasize)\n    tag_372:\n      pop\n      pop\n      pop\n      pop\n      mload(0x40)\n      returndatasize\n      not(0x1f)\n      0x1f\n      dup3\n      add\n      and\n      dup3\n      add\n      dup1\n      0x40\n      mstore\n      pop\n      dup2\n      add\n      swap1\n      tag_373\n      swap2\n      swap1\n      tag_365\n      jump\t// in\n    tag_373:\n        /* \"contracts/STS.sol\":23311:23388  IERC20(_address).transfer(owner(), IERC20(_address).balanceOf(address(this))) */\n      mload(0x40)\n      not(sub(shl(0xe0, 0x01), 0x01))\n      0xe0\n      dup6\n      swap1\n      shl\n      and\n      dup2\n      mstore\n      sub(shl(0xa0, 0x01), 0x01)\n        /* \"#utility.yul\":7010:7042   */\n      swap1\n      swap3\n      and\n        /* \"contracts/STS.sol\":23311:23388  IERC20(_address).transfer(owner(), IERC20(_address).balanceOf(address(this))) */\n      0x04\n      dup4\n      add\n        /* \"#utility.yul\":6992:7043   */\n      mstore\n        /* \"#utility.yul\":7059:7077   */\n      0x24\n      dup3\n      add\n        /* \"#utility.yul\":7052:7086   */\n      mstore\n        /* \"#utility.yul\":6965:6983   */\n      0x44\n      add\n        /* \"contracts/STS.sol\":23311:23388  IERC20(_address).transfer(owner(), IERC20(_address).balanceOf(address(this))) */\n      0x20\n      mload(0x40)\n      dup1\n      dup4\n      sub\n      dup2\n      0x00\n      dup8\n      gas\n      call\n      iszero\n      dup1\n      iszero\n      tag_377\n      jumpi\n      returndatasize\n      0x00\n      dup1\n      returndatacopy\n      revert(0x00, returndatasize)\n    tag_377:\n      pop\n      pop\n      pop\n      pop\n      mload(0x40)\n      returndatasize\n      not(0x1f)\n      0x1f\n      dup3\n      add\n      and\n      dup3\n      add\n      dup1\n      0x40\n      mstore\n      pop\n      dup2\n      add\n      swap1\n      tag_378\n      swap2\n      swap1\n      tag_379\n      jump\t// in\n    tag_378:\n      pop\n        /* \"contracts/STS.sol\":23057:23396  function removeStuckToken(address _address) external onlyOwner {... */\n      pop\n      jump\t// out\n        /* \"contracts/STS.sol\":17076:17188  function includeInFee(address account) external onlyOwner {... */\n    tag_237:\n        /* \"contracts/STS.sol\":1672:1678  _owner */\n      and(sub(shl(0xa0, 0x01), 0x01), sload(0x00))\n        /* \"contracts/STS.sol\":969:979  msg.sender */\n      caller\n        /* \"contracts/STS.sol\":1672:1694  _owner == _msgSender() */\n      eq\n        /* \"contracts/STS.sol\":1664:1732  require(_owner == _msgSender() , \"Ownable: caller is not the owner\") */\n      tag_382\n      jumpi\n      mload(0x40)\n      shl(0xe5, 0x461bcd)\n      dup2\n      mstore\n      0x04\n      add\n      tag_253\n      swap1\n      tag_254\n      jump\t// in\n    tag_382:\n      sub(shl(0xa0, 0x01), 0x01)\n        /* \"contracts/STS.sol\":17145:17172  _isExcludedFromFee[account] */\n      and\n        /* \"contracts/STS.sol\":17175:17180  false */\n      0x00\n        /* \"contracts/STS.sol\":17145:17172  _isExcludedFromFee[account] */\n      swap1\n      dup2\n      mstore\n        /* \"contracts/STS.sol\":17145:17163  _isExcludedFromFee */\n      0x06\n        /* \"contracts/STS.sol\":17145:17172  _isExcludedFromFee[account] */\n      0x20\n      mstore\n      0x40\n      swap1\n      keccak256\n        /* \"contracts/STS.sol\":17145:17180  _isExcludedFromFee[account] = false */\n      dup1\n      sload\n      not(0xff)\n      and\n      swap1\n      sstore\n        /* \"contracts/STS.sol\":17076:17188  function includeInFee(address account) external onlyOwner {... */\n      jump\t// out\n        /* \"contracts/STS.sol\":2406:2650  function transferOwnership(address newOwner) public virtual onlyOwner {... */\n    tag_245:\n        /* \"contracts/STS.sol\":1672:1678  _owner */\n      and(sub(shl(0xa0, 0x01), 0x01), sload(0x00))\n        /* \"contracts/STS.sol\":969:979  msg.sender */\n      caller\n        /* \"contracts/STS.sol\":1672:1694  _owner == _msgSender() */\n      eq\n        /* \"contracts/STS.sol\":1664:1732  require(_owner == _msgSender() , \"Ownable: caller is not the owner\") */\n      tag_387\n      jumpi\n      mload(0x40)\n      shl(0xe5, 0x461bcd)\n      dup2\n      mstore\n      0x04\n      add\n      tag_253\n      swap1\n      tag_254\n      jump\t// in\n    tag_387:\n      sub(shl(0xa0, 0x01), 0x01)\n        /* \"contracts/STS.sol\":2495:2517  newOwner != address(0) */\n      dup2\n      and\n        /* \"contracts/STS.sol\":2487:2560  require(newOwner != address(0), \"Ownable: new owner is the zero address\") */\n      tag_390\n      jumpi\n      mload(0x40)\n      shl(0xe5, 0x461bcd)\n      dup2\n      mstore\n        /* \"#utility.yul\":7549:7551   */\n      0x20\n        /* \"contracts/STS.sol\":2487:2560  require(newOwner != address(0), \"Ownable: new owner is the zero address\") */\n      0x04\n      dup3\n      add\n        /* \"#utility.yul\":7531:7552   */\n      mstore\n        /* \"#utility.yul\":7588:7590   */\n      0x26\n        /* \"#utility.yul\":7568:7586   */\n      0x24\n      dup3\n      add\n        /* \"#utility.yul\":7561:7591   */\n      mstore\n        /* \"#utility.yul\":7627:7661   */\n      0x4f776e61626c653a206e6577206f776e657220697320746865207a65726f2061\n        /* \"#utility.yul\":7607:7625   */\n      0x44\n      dup3\n      add\n        /* \"#utility.yul\":7600:7662   */\n      mstore\n      shl(0xd0, 0x646472657373)\n        /* \"#utility.yul\":7678:7696   */\n      0x64\n      dup3\n      add\n        /* \"#utility.yul\":7671:7707   */\n      mstore\n        /* \"#utility.yul\":7724:7743   */\n      0x84\n      add\n        /* \"contracts/STS.sol\":2487:2560  require(newOwner != address(0), \"Ownable: new owner is the zero address\") */\n      tag_253\n        /* \"#utility.yul\":7347:7749   */\n      jump\n        /* \"contracts/STS.sol\":2487:2560  require(newOwner != address(0), \"Ownable: new owner is the zero address\") */\n    tag_390:\n        /* \"contracts/STS.sol\":2597:2603  _owner */\n      0x00\n      dup1\n      sload\n        /* \"contracts/STS.sol\":2576:2614  OwnershipTransferred(_owner, newOwner) */\n      mload(0x40)\n      sub(shl(0xa0, 0x01), 0x01)\n      dup1\n      dup6\n      and\n      swap4\n        /* \"contracts/STS.sol\":2597:2603  _owner */\n      swap3\n      and\n      swap2\n        /* \"contracts/STS.sol\":2576:2614  OwnershipTransferred(_owner, newOwner) */\n      0x8be0079c531659141344cd1fd0a4f28419497f9722a3daafe3b4186f6b6457e0\n      swap2\n      log3\n        /* \"contracts/STS.sol\":2625:2631  _owner */\n      0x00\n        /* \"contracts/STS.sol\":2625:2642  _owner = newOwner */\n      dup1\n      sload\n      not(sub(shl(0xa0, 0x01), 0x01))\n      and\n      sub(shl(0xa0, 0x01), 0x01)\n      swap3\n      swap1\n      swap3\n      and\n      swap2\n      swap1\n      swap2\n      or\n      swap1\n      sstore\n        /* \"contracts/STS.sol\":2406:2650  function transferOwnership(address newOwner) public virtual onlyOwner {... */\n      jump\t// out\n        /* \"contracts/STS.sol\":22855:23049  function withdrawStuckETH() external onlyOwner{... */\n    tag_248:\n        /* \"contracts/STS.sol\":1672:1678  _owner */\n      and(sub(shl(0xa0, 0x01), 0x01), sload(0x00))\n        /* \"contracts/STS.sol\":969:979  msg.sender */\n      caller\n        /* \"contracts/STS.sol\":1672:1694  _owner == _msgSender() */\n      eq\n        /* \"contracts/STS.sol\":1664:1732  require(_owner == _msgSender() , \"Ownable: caller is not the owner\") */\n      tag_395\n      jumpi\n      mload(0x40)\n      shl(0xe5, 0x461bcd)\n      dup2\n      mstore\n      0x04\n      add\n      tag_253\n      swap1\n      tag_254\n      jump\t// in\n    tag_395:\n        /* \"contracts/STS.sol\":22945:22946  0 */\n      0x00\n        /* \"contracts/STS.sol\":22921:22942  address(this).balance */\n      selfbalance\n        /* \"contracts/STS.sol\":22921:22946  address(this).balance > 0 */\n      gt\n        /* \"contracts/STS.sol\":22912:22982  require (address(this).balance > 0, \"Can't withdraw negative or zero\") */\n      tag_398\n      jumpi\n      mload(0x40)\n      shl(0xe5, 0x461bcd)\n      dup2\n      mstore\n        /* \"#utility.yul\":7956:7958   */\n      0x20\n        /* \"contracts/STS.sol\":22912:22982  require (address(this).balance > 0, \"Can't withdraw negative or zero\") */\n      0x04\n      dup3\n      add\n        /* \"#utility.yul\":7938:7959   */\n      mstore\n        /* \"#utility.yul\":7995:7997   */\n      0x1f\n        /* \"#utility.yul\":7975:7993   */\n      0x24\n      dup3\n      add\n        /* \"#utility.yul\":7968:7998   */\n      mstore\n        /* \"#utility.yul\":8034:8067   */\n      0x43616e2774207769746864726177206e65676174697665206f72207a65726f00\n        /* \"#utility.yul\":8014:8032   */\n      0x44\n      dup3\n      add\n        /* \"#utility.yul\":8007:8068   */\n      mstore\n        /* \"#utility.yul\":8085:8103   */\n      0x64\n      add\n        /* \"contracts/STS.sol\":22912:22982  require (address(this).balance > 0, \"Can't withdraw negative or zero\") */\n      tag_253\n        /* \"#utility.yul\":7754:8109   */\n      jump\n        /* \"contracts/STS.sol\":22912:22982  require (address(this).balance > 0, \"Can't withdraw negative or zero\") */\n    tag_398:\n        /* \"contracts/STS.sol\":1498:1505  address */\n      0x00\n        /* \"contracts/STS.sol\":1525:1531  _owner */\n      dup1\n      sload\n        /* \"contracts/STS.sol\":22993:23041  payable(owner()).transfer(address(this).balance) */\n      mload(0x40)\n      sub(shl(0xa0, 0x01), 0x01)\n        /* \"contracts/STS.sol\":1525:1531  _owner */\n      swap1\n      swap2\n      and\n      swap2\n        /* \"contracts/STS.sol\":23019:23040  address(this).balance */\n      selfbalance\n        /* \"contracts/STS.sol\":22993:23041  payable(owner()).transfer(address(this).balance) */\n      dup1\n      iszero\n      0x08fc\n      mul\n      swap3\n        /* \"contracts/STS.sol\":23019:23040  address(this).balance */\n      swap1\n      swap2\n        /* \"contracts/STS.sol\":22993:23041  payable(owner()).transfer(address(this).balance) */\n      dup2\n        /* \"contracts/STS.sol\":1498:1505  address */\n      dup2\n        /* \"contracts/STS.sol\":22993:23041  payable(owner()).transfer(address(this).balance) */\n      dup2\n        /* \"contracts/STS.sol\":23019:23040  address(this).balance */\n      dup6\n        /* \"contracts/STS.sol\":1525:1531  _owner */\n      dup9\n        /* \"contracts/STS.sol\":22993:23041  payable(owner()).transfer(address(this).balance) */\n      dup9\n      call\n      swap4\n      pop\n      pop\n      pop\n      pop\n      iszero\n      dup1\n      iszero\n      tag_403\n      jumpi\n      returndatasize\n      0x00\n      dup1\n      returndatacopy\n      revert(0x00, returndatasize)\n    tag_403:\n      pop\n        /* \"contracts/STS.sol\":22855:23049  function withdrawStuckETH() external onlyOwner{... */\n      jump\t// out\n        /* \"contracts/STS.sol\":22508:22847  function _approve(address towner, address spender, uint amount) internal {... */\n    tag_266:\n      sub(shl(0xa0, 0x01), 0x01)\n        /* \"contracts/STS.sol\":22600:22620  towner != address(0) */\n      dup4\n      and\n        /* \"contracts/STS.sol\":22592:22661  require(towner != address(0), \"BEP20: approve from the zero address\") */\n      tag_406\n      jumpi\n      mload(0x40)\n      shl(0xe5, 0x461bcd)\n      dup2\n      mstore\n        /* \"#utility.yul\":8316:8318   */\n      0x20\n        /* \"contracts/STS.sol\":22592:22661  require(towner != address(0), \"BEP20: approve from the zero address\") */\n      0x04\n      dup3\n      add\n        /* \"#utility.yul\":8298:8319   */\n      mstore\n        /* \"#utility.yul\":8355:8357   */\n      0x24\n        /* \"#utility.yul\":8335:8353   */\n      dup1\n      dup3\n      add\n        /* \"#utility.yul\":8328:8358   */\n      mstore\n        /* \"#utility.yul\":8394:8428   */\n      0x42455032303a20617070726f76652066726f6d20746865207a65726f20616464\n        /* \"#utility.yul\":8374:8392   */\n      0x44\n      dup3\n      add\n        /* \"#utility.yul\":8367:8429   */\n      mstore\n      shl(0xe0, 0x72657373)\n        /* \"#utility.yul\":8445:8463   */\n      0x64\n      dup3\n      add\n        /* \"#utility.yul\":8438:8472   */\n      mstore\n        /* \"#utility.yul\":8489:8508   */\n      0x84\n      add\n        /* \"contracts/STS.sol\":22592:22661  require(towner != address(0), \"BEP20: approve from the zero address\") */\n      tag_253\n        /* \"#utility.yul\":8114:8514   */\n      jump\n        /* \"contracts/STS.sol\":22592:22661  require(towner != address(0), \"BEP20: approve from the zero address\") */\n    tag_406:\n      sub(shl(0xa0, 0x01), 0x01)\n        /* \"contracts/STS.sol\":22680:22701  spender != address(0) */\n      dup3\n      and\n        /* \"contracts/STS.sol\":22672:22740  require(spender != address(0), \"BEP20: approve to the zero address\") */\n      tag_409\n      jumpi\n      mload(0x40)\n      shl(0xe5, 0x461bcd)\n      dup2\n      mstore\n        /* \"#utility.yul\":8721:8723   */\n      0x20\n        /* \"contracts/STS.sol\":22672:22740  require(spender != address(0), \"BEP20: approve to the zero address\") */\n      0x04\n      dup3\n      add\n        /* \"#utility.yul\":8703:8724   */\n      mstore\n        /* \"#utility.yul\":8760:8762   */\n      0x22\n        /* \"#utility.yul\":8740:8758   */\n      0x24\n      dup3\n      add\n        /* \"#utility.yul\":8733:8763   */\n      mstore\n        /* \"#utility.yul\":8799:8833   */\n      0x42455032303a20617070726f766520746f20746865207a65726f206164647265\n        /* \"#utility.yul\":8779:8797   */\n      0x44\n      dup3\n      add\n        /* \"#utility.yul\":8772:8834   */\n      mstore\n      shl(0xf0, 0x7373)\n        /* \"#utility.yul\":8850:8868   */\n      0x64\n      dup3\n      add\n        /* \"#utility.yul\":8843:8875   */\n      mstore\n        /* \"#utility.yul\":8892:8911   */\n      0x84\n      add\n        /* \"contracts/STS.sol\":22672:22740  require(spender != address(0), \"BEP20: approve to the zero address\") */\n      tag_253\n        /* \"#utility.yul\":8519:8917   */\n      jump\n        /* \"contracts/STS.sol\":22672:22740  require(spender != address(0), \"BEP20: approve to the zero address\") */\n    tag_409:\n      sub(shl(0xa0, 0x01), 0x01)\n        /* \"contracts/STS.sol\":22753:22772  _allowances[towner] */\n      dup4\n      dup2\n      and\n      0x00\n      dup2\n      dup2\n      mstore\n        /* \"contracts/STS.sol\":22753:22764  _allowances */\n      0x05\n        /* \"contracts/STS.sol\":22753:22772  _allowances[towner] */\n      0x20\n      swap1\n      dup2\n      mstore\n      0x40\n      dup1\n      dup4\n      keccak256\n        /* \"contracts/STS.sol\":22753:22781  _allowances[towner][spender] */\n      swap5\n      dup8\n      and\n      dup1\n      dup5\n      mstore\n      swap5\n      dup3\n      mstore\n      swap2\n      dup3\n      swap1\n      keccak256\n        /* \"contracts/STS.sol\":22753:22790  _allowances[towner][spender] = amount */\n      dup6\n      swap1\n      sstore\n        /* \"contracts/STS.sol\":22806:22839  Approval(towner, spender, amount) */\n      swap1\n      mload\n        /* \"#utility.yul\":1847:1872   */\n      dup5\n      dup2\n      mstore\n        /* \"contracts/STS.sol\":22806:22839  Approval(towner, spender, amount) */\n      0x8c5be1e5ebec7d5bd14f71427d1e84f3dd0314c0f7b2291e5b200ac8c7c3b925\n      swap2\n        /* \"#utility.yul\":1820:1838   */\n      add\n        /* \"contracts/STS.sol\":22806:22839  Approval(towner, spender, amount) */\n      mload(0x40)\n      dup1\n      swap2\n      sub\n      swap1\n      log3\n        /* \"contracts/STS.sol\":22508:22847  function _approve(address towner, address spender, uint amount) internal {... */\n      pop\n      pop\n      pop\n      jump\t// out\n        /* \"contracts/STS.sol\":18029:20371  function _transfer(address sender, address recipient, uint amount) internal{... */\n    tag_275:\n      sub(shl(0xa0, 0x01), 0x01)\n        /* \"contracts/STS.sol\":18125:18145  sender != address(0) */\n      dup4\n      and\n        /* \"contracts/STS.sol\":18117:18187  require(sender != address(0), \"BEP20: transfer from the zero address\") */\n      tag_414\n      jumpi\n      mload(0x40)\n      shl(0xe5, 0x461bcd)\n      dup2\n      mstore\n        /* \"#utility.yul\":9124:9126   */\n      0x20\n        /* \"contracts/STS.sol\":18117:18187  require(sender != address(0), \"BEP20: transfer from the zero address\") */\n      0x04\n      dup3\n      add\n        /* \"#utility.yul\":9106:9127   */\n      mstore\n        /* \"#utility.yul\":9163:9165   */\n      0x25\n        /* \"#utility.yul\":9143:9161   */\n      0x24\n      dup3\n      add\n        /* \"#utility.yul\":9136:9166   */\n      mstore\n        /* \"#utility.yul\":9202:9236   */\n      0x42455032303a207472616e736665722066726f6d20746865207a65726f206164\n        /* \"#utility.yul\":9182:9200   */\n      0x44\n      dup3\n      add\n        /* \"#utility.yul\":9175:9237   */\n      mstore\n      shl(0xd8, 0x6472657373)\n        /* \"#utility.yul\":9253:9271   */\n      0x64\n      dup3\n      add\n        /* \"#utility.yul\":9246:9281   */\n      mstore\n        /* \"#utility.yul\":9298:9317   */\n      0x84\n      add\n        /* \"contracts/STS.sol\":18117:18187  require(sender != address(0), \"BEP20: transfer from the zero address\") */\n      tag_253\n        /* \"#utility.yul\":8922:9323   */\n      jump\n        /* \"contracts/STS.sol\":18117:18187  require(sender != address(0), \"BEP20: transfer from the zero address\") */\n    tag_414:\n      sub(shl(0xa0, 0x01), 0x01)\n        /* \"contracts/STS.sol\":18206:18229  recipient != address(0) */\n      dup3\n      and\n        /* \"contracts/STS.sol\":18198:18269  require(recipient != address(0), \"BEP20: transfer to the zero address\") */\n      tag_417\n      jumpi\n      mload(0x40)\n      shl(0xe5, 0x461bcd)\n      dup2\n      mstore\n        /* \"#utility.yul\":9530:9532   */\n      0x20\n        /* \"contracts/STS.sol\":18198:18269  require(recipient != address(0), \"BEP20: transfer to the zero address\") */\n      0x04\n      dup3\n      add\n        /* \"#utility.yul\":9512:9533   */\n      mstore\n        /* \"#utility.yul\":9569:9571   */\n      0x23\n        /* \"#utility.yul\":9549:9567   */\n      0x24\n      dup3\n      add\n        /* \"#utility.yul\":9542:9572   */\n      mstore\n        /* \"#utility.yul\":9608:9642   */\n      0x42455032303a207472616e7366657220746f20746865207a65726f2061646472\n        /* \"#utility.yul\":9588:9606   */\n      0x44\n      dup3\n      add\n        /* \"#utility.yul\":9581:9643   */\n      mstore\n      shl(0xe8, 0x657373)\n        /* \"#utility.yul\":9659:9677   */\n      0x64\n      dup3\n      add\n        /* \"#utility.yul\":9652:9685   */\n      mstore\n        /* \"#utility.yul\":9702:9721   */\n      0x84\n      add\n        /* \"contracts/STS.sol\":18198:18269  require(recipient != address(0), \"BEP20: transfer to the zero address\") */\n      tag_253\n        /* \"#utility.yul\":9328:9727   */\n      jump\n        /* \"contracts/STS.sol\":18198:18269  require(recipient != address(0), \"BEP20: transfer to the zero address\") */\n    tag_417:\n      sub(shl(0xa0, 0x01), 0x01)\n        /* \"contracts/STS.sol\":18286:18321  _isExcludedFromMaxWallet[recipient] */\n      dup3\n      and\n      0x00\n      swap1\n      dup2\n      mstore\n        /* \"contracts/STS.sol\":18286:18310  _isExcludedFromMaxWallet */\n      0x08\n        /* \"contracts/STS.sol\":18286:18321  _isExcludedFromMaxWallet[recipient] */\n      0x20\n      mstore\n      0x40\n      swap1\n      keccak256\n      sload\n      0xff\n      and\n        /* \"contracts/STS.sol\":18282:18445  if(!_isExcludedFromMaxWallet[recipient])... */\n      tag_423\n      jumpi\n        /* \"contracts/STS.sol\":18390:18406  _maxWalletAmount */\n      sload(0x15)\n        /* \"contracts/STS.sol\":18379:18385  amount */\n      dup2\n        /* \"contracts/STS.sol\":18355:18375  balanceOf(recipient) */\n      tag_421\n        /* \"contracts/STS.sol\":18365:18374  recipient */\n      dup5\n      sub(shl(0xa0, 0x01), 0x01)\n        /* \"contracts/STS.sol\":14770:14788  _balances[account] */\n      and\n        /* \"contracts/STS.sol\":14746:14750  uint */\n      0x00\n        /* \"contracts/STS.sol\":14770:14788  _balances[account] */\n      swap1\n      dup2\n      mstore\n        /* \"contracts/STS.sol\":14770:14779  _balances */\n      0x04\n        /* \"contracts/STS.sol\":14770:14788  _balances[account] */\n      0x20\n      mstore\n      0x40\n      swap1\n      keccak256\n      sload\n      swap1\n        /* \"contracts/STS.sol\":14680:14796  function balanceOf(address account) public view override returns (uint) {... */\n      jump\n        /* \"contracts/STS.sol\":18355:18375  balanceOf(recipient) */\n    tag_421:\n        /* \"contracts/STS.sol\":18355:18386  balanceOf(recipient) + (amount) */\n      tag_422\n      swap2\n      swap1\n      tag_287\n      jump\t// in\n    tag_422:\n        /* \"contracts/STS.sol\":18355:18406  balanceOf(recipient) + (amount) <= _maxWalletAmount */\n      gt\n      iszero\n        /* \"contracts/STS.sol\":18347:18433  require(balanceOf(recipient) + (amount) <= _maxWalletAmount, \"Maximum wallet limit!!\") */\n      tag_423\n      jumpi\n      mload(0x40)\n      shl(0xe5, 0x461bcd)\n      dup2\n      mstore\n        /* \"#utility.yul\":9934:9936   */\n      0x20\n        /* \"contracts/STS.sol\":18347:18433  require(balanceOf(recipient) + (amount) <= _maxWalletAmount, \"Maximum wallet limit!!\") */\n      0x04\n      dup3\n      add\n        /* \"#utility.yul\":9916:9937   */\n      mstore\n        /* \"#utility.yul\":9973:9975   */\n      0x16\n        /* \"#utility.yul\":9953:9971   */\n      0x24\n      dup3\n      add\n        /* \"#utility.yul\":9946:9976   */\n      mstore\n      shl(0x50, 0x4d6178696d756d2077616c6c6574206c696d69742121)\n        /* \"#utility.yul\":9992:10010   */\n      0x44\n      dup3\n      add\n        /* \"#utility.yul\":9985:10037   */\n      mstore\n        /* \"#utility.yul\":10054:10072   */\n      0x64\n      add\n        /* \"contracts/STS.sol\":18347:18433  require(balanceOf(recipient) + (amount) <= _maxWalletAmount, \"Maximum wallet limit!!\") */\n      tag_253\n        /* \"#utility.yul\":9732:10078   */\n      jump\n        /* \"contracts/STS.sol\":18347:18433  require(balanceOf(recipient) + (amount) <= _maxWalletAmount, \"Maximum wallet limit!!\") */\n    tag_423:\n      sub(shl(0xa0, 0x01), 0x01)\n        /* \"contracts/STS.sol\":18646:18672  _isExcludedFromFee[sender] */\n      dup4\n      and\n        /* \"contracts/STS.sol\":18519:18531  bool takeFee */\n      0x00\n        /* \"contracts/STS.sol\":18646:18672  _isExcludedFromFee[sender] */\n      swap1\n      dup2\n      mstore\n        /* \"contracts/STS.sol\":18646:18664  _isExcludedFromFee */\n      0x06\n        /* \"contracts/STS.sol\":18646:18672  _isExcludedFromFee[sender] */\n      0x20\n      mstore\n      0x40\n      swap1\n      keccak256\n      sload\n        /* \"contracts/STS.sol\":18534:18538  true */\n      0x01\n      swap1\n        /* \"contracts/STS.sol\":18646:18672  _isExcludedFromFee[sender] */\n      0xff\n      and\n      dup1\n        /* \"contracts/STS.sol\":18646:18705  _isExcludedFromFee[sender] || _isExcludedFromFee[recipient] */\n      tag_426\n      jumpi\n      pop\n      sub(shl(0xa0, 0x01), 0x01)\n        /* \"contracts/STS.sol\":18676:18705  _isExcludedFromFee[recipient] */\n      dup4\n      and\n      0x00\n      swap1\n      dup2\n      mstore\n        /* \"contracts/STS.sol\":18676:18694  _isExcludedFromFee */\n      0x06\n        /* \"contracts/STS.sol\":18676:18705  _isExcludedFromFee[recipient] */\n      0x20\n      mstore\n      0x40\n      swap1\n      keccak256\n      sload\n      0xff\n      and\n        /* \"contracts/STS.sol\":18646:18705  _isExcludedFromFee[sender] || _isExcludedFromFee[recipient] */\n    tag_426:\n        /* \"contracts/STS.sol\":18643:18748  if(_isExcludedFromFee[sender] || _isExcludedFromFee[recipient]){... */\n      iszero\n      tag_427\n      jumpi\n      pop\n        /* \"contracts/STS.sol\":18731:18736  false */\n      0x00\n        /* \"contracts/STS.sol\":18643:18748  if(_isExcludedFromFee[sender] || _isExcludedFromFee[recipient]){... */\n    tag_427:\n      sub(shl(0xa0, 0x01), 0x01)\n        /* \"contracts/STS.sol\":18771:18786  AMMs[recipient] */\n      dup4\n      and\n      0x00\n      swap1\n      dup2\n      mstore\n        /* \"contracts/STS.sol\":18771:18775  AMMs */\n      0x07\n        /* \"contracts/STS.sol\":18771:18786  AMMs[recipient] */\n      0x20\n      mstore\n      0x40\n      swap1\n      keccak256\n      sload\n      0xff\n      and\n        /* \"contracts/STS.sol\":18770:18786  !AMMs[recipient] */\n      iszero\n        /* \"contracts/STS.sol\":18770:18803  !AMMs[recipient] && !AMMs[sender] */\n      dup1\n      iszero\n      tag_428\n      jumpi\n      pop\n      sub(shl(0xa0, 0x01), 0x01)\n        /* \"contracts/STS.sol\":18791:18803  AMMs[sender] */\n      dup5\n      and\n      0x00\n      swap1\n      dup2\n      mstore\n        /* \"contracts/STS.sol\":18791:18795  AMMs */\n      0x07\n        /* \"contracts/STS.sol\":18791:18803  AMMs[sender] */\n      0x20\n      mstore\n      0x40\n      swap1\n      keccak256\n      sload\n      0xff\n      and\n        /* \"contracts/STS.sol\":18790:18803  !AMMs[sender] */\n      iszero\n        /* \"contracts/STS.sol\":18770:18803  !AMMs[recipient] && !AMMs[sender] */\n    tag_428:\n        /* \"contracts/STS.sol\":18767:18832  if(!AMMs[recipient] && !AMMs[sender])... */\n      iszero\n      tag_429\n      jumpi\n      pop\n        /* \"contracts/STS.sol\":18825:18830  false */\n      0x00\n        /* \"contracts/STS.sol\":18767:18832  if(!AMMs[recipient] && !AMMs[sender])... */\n    tag_429:\n        /* \"contracts/STS.sol\":19183:19187  this */\n      address\n        /* \"contracts/STS.sol\":19134:19162  uint256 contractTokenBalance */\n      0x00\n        /* \"contracts/STS.sol\":14770:14788  _balances[account] */\n      swap1\n      dup2\n      mstore\n        /* \"contracts/STS.sol\":14770:14779  _balances */\n      0x04\n        /* \"contracts/STS.sol\":14770:14788  _balances[account] */\n      0x20\n      mstore\n      0x40\n      swap1\n      keccak256\n      sload\n        /* \"contracts/STS.sol\":19271:19300  numTokensSellToAddToLiquidity */\n      sload(0x14)\n        /* \"contracts/STS.sol\":19247:19300  contractTokenBalance >= numTokensSellToAddToLiquidity */\n      dup2\n      lt\n      dup1\n      iszero\n      swap1\n      dup2\n      swap1\n        /* \"contracts/STS.sol\":19329:19382  overMinTokenBalance &&... */\n      tag_431\n      jumpi\n      pop\n        /* \"contracts/STS.sol\":19366:19382  inSwapAndLiquify */\n      sload(0x13)\n      shl(0xa0, 0x01)\n      swap1\n      div\n      0xff\n      and\n        /* \"contracts/STS.sol\":19365:19382  !inSwapAndLiquify */\n      iszero\n        /* \"contracts/STS.sol\":19329:19382  overMinTokenBalance &&... */\n    tag_431:\n        /* \"contracts/STS.sol\":19329:19412  overMinTokenBalance &&... */\n      dup1\n      iszero\n      tag_432\n      jumpi\n      pop\n      sub(shl(0xa0, 0x01), 0x01)\n        /* \"contracts/STS.sol\":19400:19412  AMMs[sender] */\n      dup7\n      and\n      0x00\n      swap1\n      dup2\n      mstore\n        /* \"contracts/STS.sol\":19400:19404  AMMs */\n      0x07\n        /* \"contracts/STS.sol\":19400:19412  AMMs[sender] */\n      0x20\n      mstore\n      0x40\n      swap1\n      keccak256\n      sload\n      0xff\n      and\n        /* \"contracts/STS.sol\":19399:19412  !AMMs[sender] */\n      iszero\n        /* \"contracts/STS.sol\":19329:19412  overMinTokenBalance &&... */\n    tag_432:\n        /* \"contracts/STS.sol\":19329:19450  overMinTokenBalance &&... */\n      dup1\n      iszero\n      tag_433\n      jumpi\n      pop\n        /* \"contracts/STS.sol\":19429:19450  swapAndLiquifyEnabled */\n      sload(0x13)\n      shl(0xa8, 0x01)\n      swap1\n      div\n      0xff\n      and\n        /* \"contracts/STS.sol\":19329:19450  overMinTokenBalance &&... */\n    tag_433:\n        /* \"contracts/STS.sol\":19329:19474  overMinTokenBalance &&... */\n      dup1\n      iszero\n      tag_434\n      jumpi\n      pop\n        /* \"contracts/STS.sol\":19467:19474  takeFee */\n      dup3\n        /* \"contracts/STS.sol\":19329:19474  overMinTokenBalance &&... */\n    tag_434:\n        /* \"contracts/STS.sol\":19311:19616  if (... */\n      iszero\n      tag_436\n      jumpi\n        /* \"contracts/STS.sol\":19524:19553  numTokensSellToAddToLiquidity */\n      sload(0x14)\n        /* \"contracts/STS.sol\":19501:19553  contractTokenBalance = numTokensSellToAddToLiquidity */\n      swap2\n      pop\n        /* \"contracts/STS.sol\":19568:19604  swapAndLiquify(contractTokenBalance) */\n      tag_436\n        /* \"contracts/STS.sol\":19583:19603  contractTokenBalance */\n      dup3\n        /* \"contracts/STS.sol\":19568:19582  swapAndLiquify */\n      tag_437\n        /* \"contracts/STS.sol\":19568:19604  swapAndLiquify(contractTokenBalance) */\n      jump\t// in\n    tag_436:\n        /* \"contracts/STS.sol\":19650:19657  takeFee */\n      dup3\n        /* \"contracts/STS.sol\":19647:20355  if(takeFee)... */\n      iszero\n      tag_438\n      jumpi\n        /* \"contracts/STS.sol\":19683:19700  uint256 taxAmount */\n      0x00\n        /* \"contracts/STS.sol\":19727:19730  100 */\n      0x64\n        /* \"contracts/STS.sol\":19713:19723  totalfee() */\n      tag_439\n        /* \"contracts/STS.sol\":20453:20461  totalFee */\n      sload(0x0f)\n      swap1\n        /* \"contracts/STS.sol\":20379:20469  function totalfee() internal view returns(uint256)... */\n      jump\n        /* \"contracts/STS.sol\":19713:19723  totalfee() */\n    tag_439:\n        /* \"contracts/STS.sol\":19704:19723  amount * totalfee() */\n      tag_441\n      swap1\n        /* \"contracts/STS.sol\":19704:19710  amount */\n      dup8\n        /* \"contracts/STS.sol\":19704:19723  amount * totalfee() */\n      tag_442\n      jump\t// in\n    tag_441:\n        /* \"contracts/STS.sol\":19703:19730  (amount * totalfee()) / 100 */\n      tag_443\n      swap2\n      swap1\n      tag_444\n      jump\t// in\n    tag_443:\n        /* \"contracts/STS.sol\":19683:19730  uint256 taxAmount = (amount * totalfee()) / 100 */\n      swap1\n      pop\n        /* \"contracts/STS.sol\":19745:19762  uint256 TotalSent */\n      0x00\n        /* \"contracts/STS.sol\":19765:19785  amount - (taxAmount) */\n      tag_445\n        /* \"contracts/STS.sol\":19683:19730  uint256 taxAmount = (amount * totalfee()) / 100 */\n      dup3\n        /* \"contracts/STS.sol\":19765:19771  amount */\n      dup8\n        /* \"contracts/STS.sol\":19765:19785  amount - (taxAmount) */\n      tag_280\n      jump\t// in\n    tag_445:\n      sub(shl(0xa0, 0x01), 0x01)\n        /* \"contracts/STS.sol\":19820:19837  _balances[sender] */\n      dup10\n      and\n      0x00\n      swap1\n      dup2\n      mstore\n        /* \"contracts/STS.sol\":19820:19829  _balances */\n      0x04\n        /* \"contracts/STS.sol\":19820:19837  _balances[sender] */\n      0x20\n      mstore\n      0x40\n      swap1\n      keccak256\n      sload\n        /* \"contracts/STS.sol\":19745:19785  uint256 TotalSent = amount - (taxAmount) */\n      swap1\n      swap2\n      pop\n        /* \"contracts/STS.sol\":19820:19848  _balances[sender] - (amount) */\n      tag_446\n      swap1\n        /* \"contracts/STS.sol\":19841:19847  amount */\n      dup8\n      swap1\n        /* \"contracts/STS.sol\":19820:19848  _balances[sender] - (amount) */\n      tag_280\n      jump\t// in\n    tag_446:\n      sub(shl(0xa0, 0x01), 0x01)\n        /* \"contracts/STS.sol\":19800:19817  _balances[sender] */\n      dup1\n      dup11\n      and\n      0x00\n      swap1\n      dup2\n      mstore\n        /* \"contracts/STS.sol\":19800:19809  _balances */\n      0x04\n        /* \"contracts/STS.sol\":19800:19817  _balances[sender] */\n      0x20\n      mstore\n      0x40\n      dup1\n      dup3\n      keccak256\n        /* \"contracts/STS.sol\":19800:19848  _balances[sender] = _balances[sender] - (amount) */\n      swap4\n      swap1\n      swap4\n      sstore\n        /* \"contracts/STS.sol\":19886:19906  _balances[recipient] */\n      swap1\n      dup10\n      and\n      dup2\n      mstore\n      keccak256\n      sload\n        /* \"contracts/STS.sol\":19886:19920  _balances[recipient] + (TotalSent) */\n      tag_447\n      swap1\n        /* \"contracts/STS.sol\":19910:19919  TotalSent */\n      dup3\n      swap1\n        /* \"contracts/STS.sol\":19886:19920  _balances[recipient] + (TotalSent) */\n      tag_287\n      jump\t// in\n    tag_447:\n      sub(shl(0xa0, 0x01), 0x01)\n        /* \"contracts/STS.sol\":19863:19883  _balances[recipient] */\n      dup9\n      and\n      0x00\n      swap1\n      dup2\n      mstore\n        /* \"contracts/STS.sol\":19863:19872  _balances */\n      0x04\n        /* \"contracts/STS.sol\":19863:19883  _balances[recipient] */\n      0x20\n      mstore\n      0x40\n      dup1\n      dup3\n      keccak256\n        /* \"contracts/STS.sol\":19863:19920  _balances[recipient] = _balances[recipient] + (TotalSent) */\n      swap3\n      swap1\n      swap3\n      sstore\n        /* \"contracts/STS.sol\":19980:19984  this */\n      address\n        /* \"contracts/STS.sol\":19962:19986  _balances[address(this)] */\n      dup2\n      mstore\n      keccak256\n      sload\n        /* \"contracts/STS.sol\":19962:20000  _balances[address(this)] + (taxAmount) */\n      tag_448\n      swap1\n        /* \"contracts/STS.sol\":19990:19999  taxAmount */\n      dup4\n      swap1\n        /* \"contracts/STS.sol\":19962:20000  _balances[address(this)] + (taxAmount) */\n      tag_287\n      jump\t// in\n    tag_448:\n        /* \"contracts/STS.sol\":19953:19957  this */\n      address\n        /* \"contracts/STS.sol\":19935:19959  _balances[address(this)] */\n      0x00\n      swap1\n      dup2\n      mstore\n        /* \"contracts/STS.sol\":19935:19944  _balances */\n      0x04\n        /* \"contracts/STS.sol\":19935:19959  _balances[address(this)] */\n      0x20\n      swap1\n      dup2\n      mstore\n      0x40\n      swap2\n      dup3\n      swap1\n      keccak256\n        /* \"contracts/STS.sol\":19935:20000  _balances[address(this)] = _balances[address(this)] + (taxAmount) */\n      swap3\n      swap1\n      swap3\n      sstore\n        /* \"contracts/STS.sol\":20020:20058  Transfer(sender, recipient, TotalSent) */\n      mload\n        /* \"#utility.yul\":1847:1872   */\n      dup3\n      dup2\n      mstore\n      sub(shl(0xa0, 0x01), 0x01)\n        /* \"contracts/STS.sol\":20020:20058  Transfer(sender, recipient, TotalSent) */\n      dup10\n      dup2\n      and\n      swap3\n      swap1\n      dup12\n      and\n      swap2\n      0xddf252ad1be2c89b69c2b068fc378daa952ba7f163c4a11628f55a4df523b3ef\n      swap2\n        /* \"#utility.yul\":1820:1838   */\n      add\n        /* \"contracts/STS.sol\":20020:20058  Transfer(sender, recipient, TotalSent) */\n      mload(0x40)\n      dup1\n      swap2\n      sub\n      swap1\n      log3\n        /* \"contracts/STS.sol\":20078:20120  Transfer(sender, address(this), taxAmount) */\n      mload(0x40)\n        /* \"#utility.yul\":1847:1872   */\n      dup3\n      dup2\n      mstore\n        /* \"contracts/STS.sol\":20103:20107  this */\n      address\n      swap1\n      sub(shl(0xa0, 0x01), 0x01)\n        /* \"contracts/STS.sol\":20078:20120  Transfer(sender, address(this), taxAmount) */\n      dup11\n      and\n      swap1\n      0xddf252ad1be2c89b69c2b068fc378daa952ba7f163c4a11628f55a4df523b3ef\n      swap1\n        /* \"#utility.yul\":1835:1837   */\n      0x20\n        /* \"#utility.yul\":1820:1838   */\n      add\n        /* \"contracts/STS.sol\":20078:20120  Transfer(sender, address(this), taxAmount) */\n      mload(0x40)\n      dup1\n      swap2\n      sub\n      swap1\n      log3\n        /* \"contracts/STS.sol\":19668:20132  {... */\n      pop\n      pop\n        /* \"contracts/STS.sol\":19647:20355  if(takeFee)... */\n      jump(tag_451)\n    tag_438:\n      sub(shl(0xa0, 0x01), 0x01)\n        /* \"contracts/STS.sol\":20191:20208  _balances[sender] */\n      dup7\n      and\n      0x00\n      swap1\n      dup2\n      mstore\n        /* \"contracts/STS.sol\":20191:20200  _balances */\n      0x04\n        /* \"contracts/STS.sol\":20191:20208  _balances[sender] */\n      0x20\n      mstore\n      0x40\n      swap1\n      keccak256\n      sload\n        /* \"contracts/STS.sol\":20191:20219  _balances[sender] - (amount) */\n      tag_452\n      swap1\n        /* \"contracts/STS.sol\":20212:20218  amount */\n      dup6\n      swap1\n        /* \"contracts/STS.sol\":20191:20219  _balances[sender] - (amount) */\n      tag_280\n      jump\t// in\n    tag_452:\n      sub(shl(0xa0, 0x01), 0x01)\n        /* \"contracts/STS.sol\":20171:20188  _balances[sender] */\n      dup1\n      dup9\n      and\n      0x00\n      swap1\n      dup2\n      mstore\n        /* \"contracts/STS.sol\":20171:20180  _balances */\n      0x04\n        /* \"contracts/STS.sol\":20171:20188  _balances[sender] */\n      0x20\n      mstore\n      0x40\n      dup1\n      dup3\n      keccak256\n        /* \"contracts/STS.sol\":20171:20219  _balances[sender] = _balances[sender] - (amount) */\n      swap4\n      swap1\n      swap4\n      sstore\n        /* \"contracts/STS.sol\":20257:20277  _balances[recipient] */\n      swap1\n      dup8\n      and\n      dup2\n      mstore\n      keccak256\n      sload\n        /* \"contracts/STS.sol\":20257:20288  _balances[recipient] + (amount) */\n      tag_453\n      swap1\n        /* \"contracts/STS.sol\":20281:20287  amount */\n      dup6\n      swap1\n        /* \"contracts/STS.sol\":20257:20288  _balances[recipient] + (amount) */\n      tag_287\n      jump\t// in\n    tag_453:\n      sub(shl(0xa0, 0x01), 0x01)\n        /* \"contracts/STS.sol\":20234:20254  _balances[recipient] */\n      dup1\n      dup8\n      and\n      0x00\n      dup2\n      dup2\n      mstore\n        /* \"contracts/STS.sol\":20234:20243  _balances */\n      0x04\n        /* \"contracts/STS.sol\":20234:20254  _balances[recipient] */\n      0x20\n      mstore\n      0x40\n      swap1\n      dup2\n      swap1\n      keccak256\n        /* \"contracts/STS.sol\":20234:20288  _balances[recipient] = _balances[recipient] + (amount) */\n      swap4\n      swap1\n      swap4\n      sstore\n        /* \"contracts/STS.sol\":20308:20343  Transfer(sender, recipient, amount) */\n      swap2\n      mload\n      swap1\n      dup9\n      and\n      swap1\n      0xddf252ad1be2c89b69c2b068fc378daa952ba7f163c4a11628f55a4df523b3ef\n      swap1\n      tag_454\n      swap1\n        /* \"contracts/STS.sol\":20336:20342  amount */\n      dup9\n        /* \"#utility.yul\":1847:1872   */\n      dup2\n      mstore\n        /* \"#utility.yul\":1835:1837   */\n      0x20\n        /* \"#utility.yul\":1820:1838   */\n      add\n      swap1\n        /* \"#utility.yul\":1701:1878   */\n      jump\n        /* \"contracts/STS.sol\":20308:20343  Transfer(sender, recipient, amount) */\n    tag_454:\n      mload(0x40)\n      dup1\n      swap2\n      sub\n      swap1\n      log3\n        /* \"contracts/STS.sol\":19647:20355  if(takeFee)... */\n    tag_451:\n        /* \"contracts/STS.sol\":18104:20371  {... */\n      pop\n      pop\n      pop\n        /* \"contracts/STS.sol\":18029:20371  function _transfer(address sender, address recipient, uint amount) internal{... */\n      pop\n      pop\n      pop\n      jump\t// out\n        /* \"contracts/STS.sol\":20479:21969  function swapAndLiquify(uint256 tokensToLiquify) private lockTheSwap {... */\n    tag_437:\n        /* \"contracts/STS.sol\":12982:12998  inSwapAndLiquify */\n      0x13\n        /* \"contracts/STS.sol\":12982:13005  inSwapAndLiquify = true */\n      dup1\n      sload\n      not(shl(0xa0, 0xff))\n      and\n      shl(0xa0, 0x01)\n      or\n      swap1\n      sstore\n      0x00\n        /* \"contracts/STS.sol\":20632:20633  2 */\n      0x02\n        /* \"contracts/STS.sol\":20617:20627  totalfee() */\n      tag_457\n        /* \"contracts/STS.sol\":20453:20461  totalFee */\n      sload(0x0f)\n      swap1\n        /* \"contracts/STS.sol\":20379:20469  function totalfee() internal view returns(uint256)... */\n      jump\n        /* \"contracts/STS.sol\":20617:20627  totalfee() */\n    tag_457:\n        /* \"contracts/STS.sol\":20600:20612  liquidityFee */\n      sload(0x0e)\n        /* \"contracts/STS.sol\":20581:20613  tokensToLiquify * (liquidityFee) */\n      tag_458\n      swap1\n        /* \"contracts/STS.sol\":20581:20596  tokensToLiquify */\n      dup6\n        /* \"contracts/STS.sol\":20581:20613  tokensToLiquify * (liquidityFee) */\n      tag_442\n      jump\t// in\n    tag_458:\n        /* \"contracts/STS.sol\":20581:20628  tokensToLiquify * (liquidityFee) / (totalfee()) */\n      tag_459\n      swap2\n      swap1\n      tag_444\n      jump\t// in\n    tag_459:\n        /* \"contracts/STS.sol\":20581:20634  tokensToLiquify * (liquidityFee) / (totalfee()) / (2) */\n      tag_460\n      swap2\n      swap1\n      tag_444\n      jump\t// in\n    tag_460:\n        /* \"contracts/STS.sol\":20560:20634  uint256 tokensToLP = tokensToLiquify * (liquidityFee) / (totalfee()) / (2) */\n      swap1\n      pop\n        /* \"contracts/STS.sol\":20645:20665  uint256 amountToSwap */\n      0x00\n        /* \"contracts/STS.sol\":20668:20698  tokensToLiquify - (tokensToLP) */\n      tag_461\n        /* \"contracts/STS.sol\":20560:20634  uint256 tokensToLP = tokensToLiquify * (liquidityFee) / (totalfee()) / (2) */\n      dup3\n        /* \"contracts/STS.sol\":20668:20683  tokensToLiquify */\n      dup5\n        /* \"contracts/STS.sol\":20668:20698  tokensToLiquify - (tokensToLP) */\n      tag_280\n      jump\t// in\n    tag_461:\n        /* \"contracts/STS.sol\":20735:20751  new address[](2) */\n      0x40\n      dup1\n      mload\n        /* \"contracts/STS.sol\":20749:20750  2 */\n      0x02\n        /* \"contracts/STS.sol\":20735:20751  new address[](2) */\n      dup1\n      dup3\n      mstore\n      0x60\n      dup3\n      add\n      dup4\n      mstore\n        /* \"contracts/STS.sol\":20645:20698  uint256 amountToSwap = tokensToLiquify - (tokensToLP) */\n      swap3\n      swap4\n      pop\n        /* \"contracts/STS.sol\":20711:20732  address[] memory path */\n      0x00\n      swap3\n        /* \"contracts/STS.sol\":20735:20751  new address[](2) */\n      swap1\n      swap2\n      0x20\n      dup4\n      add\n      swap1\n      dup1\n      calldatasize\n      dup4\n      calldatacopy\n      add\n      swap1\n      pop\n      pop\n        /* \"contracts/STS.sol\":20711:20751  address[] memory path = new address[](2) */\n      swap1\n      pop\n        /* \"contracts/STS.sol\":20780:20784  this */\n      address\n        /* \"contracts/STS.sol\":20762:20766  path */\n      dup2\n        /* \"contracts/STS.sol\":20767:20768  0 */\n      0x00\n        /* \"contracts/STS.sol\":20762:20769  path[0] */\n      dup2\n      mload\n      dup2\n      lt\n      tag_467\n      jumpi\n      tag_467\n      tag_468\n      jump\t// in\n    tag_467:\n      0x20\n      mul\n      0x20\n      add\n      add\n        /* \"contracts/STS.sol\":20762:20785  path[0] = address(this) */\n      swap1\n      sub(shl(0xa0, 0x01), 0x01)\n      and\n      swap1\n      dup2\n      sub(shl(0xa0, 0x01), 0x01)\n      and\n      dup2\n      mstore\n      pop\n      pop\n        /* \"contracts/STS.sol\":20806:20821  uniswapV2Router */\n      0x03\n      0x01\n      swap1\n      sload\n      swap1\n      0x0100\n      exp\n      swap1\n      div\n      sub(shl(0xa0, 0x01), 0x01)\n      and\n      sub(shl(0xa0, 0x01), 0x01)\n        /* \"contracts/STS.sol\":20806:20826  uniswapV2Router.WETH */\n      and\n      0xad5c4648\n        /* \"contracts/STS.sol\":20806:20828  uniswapV2Router.WETH() */\n      mload(0x40)\n      dup2\n      0xffffffff\n      and\n      0xe0\n      shl\n      dup2\n      mstore\n      0x04\n      add\n      0x20\n      mload(0x40)\n      dup1\n      dup4\n      sub\n      dup2\n      dup7\n      gas\n      staticcall\n      iszero\n      dup1\n      iszero\n      tag_470\n      jumpi\n      returndatasize\n      0x00\n      dup1\n      returndatacopy\n      revert(0x00, returndatasize)\n    tag_470:\n      pop\n      pop\n      pop\n      pop\n      mload(0x40)\n      returndatasize\n      not(0x1f)\n      0x1f\n      dup3\n      add\n      and\n      dup3\n      add\n      dup1\n      0x40\n      mstore\n      pop\n      dup2\n      add\n      swap1\n      tag_471\n      swap2\n      swap1\n      tag_472\n      jump\t// in\n    tag_471:\n        /* \"contracts/STS.sol\":20796:20800  path */\n      dup2\n        /* \"contracts/STS.sol\":20801:20802  1 */\n      0x01\n        /* \"contracts/STS.sol\":20796:20803  path[1] */\n      dup2\n      mload\n      dup2\n      lt\n      tag_474\n      jumpi\n      tag_474\n      tag_468\n      jump\t// in\n    tag_474:\n      sub(shl(0xa0, 0x01), 0x01)\n        /* \"contracts/STS.sol\":20796:20828  path[1] = uniswapV2Router.WETH() */\n      swap3\n      dup4\n      and\n        /* \"contracts/STS.sol\":20796:20803  path[1] */\n      0x20\n      swap2\n      dup3\n      mul\n      swap3\n      swap1\n      swap3\n      add\n      add\n        /* \"contracts/STS.sol\":20796:20828  path[1] = uniswapV2Router.WETH() */\n      mstore\n        /* \"contracts/STS.sol\":20873:20888  uniswapV2Router */\n      sload(0x03)\n        /* \"contracts/STS.sol\":20841:20907  _approve(address(this), address(uniswapV2Router), tokensToLiquify) */\n      tag_475\n      swap2\n        /* \"contracts/STS.sol\":20858:20862  this */\n      address\n      swap2\n        /* \"contracts/STS.sol\":20873:20888  uniswapV2Router */\n      0x0100\n      swap1\n      div\n      and\n        /* \"contracts/STS.sol\":20891:20906  tokensToLiquify */\n      dup7\n        /* \"contracts/STS.sol\":20841:20849  _approve */\n      tag_266\n        /* \"contracts/STS.sol\":20841:20907  _approve(address(this), address(uniswapV2Router), tokensToLiquify) */\n      jump\t// in\n    tag_475:\n        /* \"contracts/STS.sol\":20918:20933  uniswapV2Router */\n      sload(0x03)\n        /* \"contracts/STS.sol\":20918:21115  uniswapV2Router.swapExactTokensForETHSupportingFeeOnTransferTokens(... */\n      mload(0x40)\n      shl(0xe0, 0x791ac947)\n      dup2\n      mstore\n        /* \"contracts/STS.sol\":20918:20933  uniswapV2Router */\n      0x0100\n      swap1\n      swap2\n      div\n      sub(shl(0xa0, 0x01), 0x01)\n      and\n      swap1\n        /* \"contracts/STS.sol\":20918:20984  uniswapV2Router.swapExactTokensForETHSupportingFeeOnTransferTokens */\n      0x791ac947\n      swap1\n        /* \"contracts/STS.sol\":20918:21115  uniswapV2Router.swapExactTokensForETHSupportingFeeOnTransferTokens(... */\n      tag_476\n      swap1\n        /* \"contracts/STS.sol\":20999:21011  amountToSwap */\n      dup6\n      swap1\n        /* \"contracts/STS.sol\":21026:21027  0 */\n      0x00\n      swap1\n        /* \"contracts/STS.sol\":21042:21046  path */\n      dup7\n      swap1\n        /* \"contracts/STS.sol\":21069:21073  this */\n      address\n      swap1\n        /* \"contracts/STS.sol\":21089:21104  block.timestamp */\n      timestamp\n      swap1\n        /* \"contracts/STS.sol\":20918:21115  uniswapV2Router.swapExactTokensForETHSupportingFeeOnTransferTokens(... */\n      0x04\n      add\n      tag_477\n      jump\t// in\n    tag_476:\n      0x00\n      mload(0x40)\n      dup1\n      dup4\n      sub\n      dup2\n      0x00\n      dup8\n      dup1\n      extcodesize\n      iszero\n      dup1\n      iszero\n      tag_478\n      jumpi\n      0x00\n      dup1\n      revert\n    tag_478:\n      pop\n      gas\n      call\n      iszero\n      dup1\n      iszero\n      tag_480\n      jumpi\n      returndatasize\n      0x00\n      dup1\n      returndatacopy\n      revert(0x00, returndatasize)\n    tag_480:\n      pop\n      pop\n        /* \"contracts/STS.sol\":21219:21231  liquidityFee */\n      sload(0x0e)\n        /* \"contracts/STS.sol\":21149:21170  address(this).balance */\n      selfbalance\n      swap3\n      pop\n        /* \"contracts/STS.sol\":21128:21146  uint256 ethBalance */\n      0x00\n      swap2\n      pop\n        /* \"contracts/STS.sol\":21218:21238  (liquidityFee) / (2) */\n      tag_481\n      swap1\n        /* \"contracts/STS.sol\":21236:21237  2 */\n      0x02\n      swap1\n        /* \"contracts/STS.sol\":21218:21238  (liquidityFee) / (2) */\n      tag_444\n      jump\t// in\n    tag_481:\n        /* \"contracts/STS.sol\":20453:20461  totalFee */\n      sload(0x0f)\n        /* \"contracts/STS.sol\":21204:21239  totalfee() - ((liquidityFee) / (2)) */\n      tag_483\n      swap2\n      swap1\n      tag_280\n      jump\t// in\n    tag_483:\n        /* \"contracts/STS.sol\":21181:21239  uint256 ethFeeFactor = totalfee() - ((liquidityFee) / (2)) */\n      swap1\n      pop\n        /* \"contracts/STS.sol\":21252:21275  uint256 ethForLiquidity */\n      0x00\n        /* \"contracts/STS.sol\":21326:21327  2 */\n      0x02\n        /* \"contracts/STS.sol\":21309:21321  ethFeeFactor */\n      dup3\n        /* \"contracts/STS.sol\":21292:21304  liquidityFee */\n      sload(0x0e)\n        /* \"contracts/STS.sol\":21278:21288  ethBalance */\n      dup6\n        /* \"contracts/STS.sol\":21278:21305  ethBalance * (liquidityFee) */\n      tag_484\n      swap2\n      swap1\n      tag_442\n      jump\t// in\n    tag_484:\n        /* \"contracts/STS.sol\":21278:21322  ethBalance * (liquidityFee) / (ethFeeFactor) */\n      tag_485\n      swap2\n      swap1\n      tag_444\n      jump\t// in\n    tag_485:\n        /* \"contracts/STS.sol\":21278:21328  ethBalance * (liquidityFee) / (ethFeeFactor) / (2) */\n      tag_486\n      swap2\n      swap1\n      tag_444\n      jump\t// in\n    tag_486:\n        /* \"contracts/STS.sol\":21252:21328  uint256 ethForLiquidity = ethBalance * (liquidityFee) / (ethFeeFactor) / (2) */\n      swap1\n      pop\n        /* \"contracts/STS.sol\":21339:21360  uint256 ethForCharity */\n      0x00\n        /* \"contracts/STS.sol\":21392:21404  ethFeeFactor */\n      dup3\n        /* \"contracts/STS.sol\":21377:21387  charityFee */\n      sload(0x0a)\n        /* \"contracts/STS.sol\":21363:21373  ethBalance */\n      dup6\n        /* \"contracts/STS.sol\":21363:21388  ethBalance * (charityFee) */\n      tag_487\n      swap2\n      swap1\n      tag_442\n      jump\t// in\n    tag_487:\n        /* \"contracts/STS.sol\":21363:21405  ethBalance * (charityFee) / (ethFeeFactor) */\n      tag_488\n      swap2\n      swap1\n      tag_444\n      jump\t// in\n    tag_488:\n        /* \"contracts/STS.sol\":21339:21405  uint256 ethForCharity = ethBalance * (charityFee) / (ethFeeFactor) */\n      swap1\n      pop\n        /* \"contracts/STS.sol\":21416:21439  uint256 ethForMarketing */\n      0x00\n        /* \"contracts/STS.sol\":21473:21485  ethFeeFactor */\n      dup4\n        /* \"contracts/STS.sol\":21456:21468  marketingFee */\n      sload(0x0b)\n        /* \"contracts/STS.sol\":21442:21452  ethBalance */\n      dup7\n        /* \"contracts/STS.sol\":21442:21469  ethBalance * (marketingFee) */\n      tag_489\n      swap2\n      swap1\n      tag_442\n      jump\t// in\n    tag_489:\n        /* \"contracts/STS.sol\":21442:21486  ethBalance * (marketingFee) / (ethFeeFactor) */\n      tag_490\n      swap2\n      swap1\n      tag_444\n      jump\t// in\n    tag_490:\n        /* \"contracts/STS.sol\":21416:21486  uint256 ethForMarketing = ethBalance * (marketingFee) / (ethFeeFactor) */\n      swap1\n      pop\n        /* \"contracts/STS.sol\":21497:21522  uint256 ethForDevelopment */\n      0x00\n        /* \"contracts/STS.sol\":21558:21570  ethFeeFactor */\n      dup5\n        /* \"contracts/STS.sol\":21539:21553  developmentFee */\n      sload(0x0c)\n        /* \"contracts/STS.sol\":21525:21535  ethBalance */\n      dup8\n        /* \"contracts/STS.sol\":21525:21554  ethBalance * (developmentFee) */\n      tag_491\n      swap2\n      swap1\n      tag_442\n      jump\t// in\n    tag_491:\n        /* \"contracts/STS.sol\":21525:21571  ethBalance * (developmentFee) / (ethFeeFactor) */\n      tag_492\n      swap2\n      swap1\n      tag_444\n      jump\t// in\n    tag_492:\n        /* \"contracts/STS.sol\":21497:21571  uint256 ethForDevelopment = ethBalance * (developmentFee) / (ethFeeFactor) */\n      swap1\n      pop\n        /* \"contracts/STS.sol\":21582:21603  uint256 ethForBuyback */\n      0x00\n        /* \"contracts/STS.sol\":21635:21647  ethFeeFactor */\n      dup6\n        /* \"contracts/STS.sol\":21620:21630  buybackFee */\n      sload(0x0d)\n        /* \"contracts/STS.sol\":21606:21616  ethBalance */\n      dup9\n        /* \"contracts/STS.sol\":21606:21631  ethBalance * (buybackFee) */\n      tag_493\n      swap2\n      swap1\n      tag_442\n      jump\t// in\n    tag_493:\n        /* \"contracts/STS.sol\":21606:21648  ethBalance * (buybackFee) / (ethFeeFactor) */\n      tag_494\n      swap2\n      swap1\n      tag_444\n      jump\t// in\n    tag_494:\n        /* \"contracts/STS.sol\":21582:21648  uint256 ethForBuyback = ethBalance * (buybackFee) / (ethFeeFactor) */\n      swap1\n      pop\n        /* \"contracts/STS.sol\":21665:21706  addLiquidity(tokensToLP, ethForLiquidity) */\n      tag_495\n        /* \"contracts/STS.sol\":21678:21688  tokensToLP */\n      dup11\n        /* \"contracts/STS.sol\":21690:21705  ethForLiquidity */\n      dup7\n        /* \"contracts/STS.sol\":21665:21677  addLiquidity */\n      tag_496\n        /* \"contracts/STS.sol\":21665:21706  addLiquidity(tokensToLP, ethForLiquidity) */\n      jump\t// in\n    tag_495:\n        /* \"contracts/STS.sol\":21727:21741  charityAddress */\n      sload(0x10)\n        /* \"contracts/STS.sol\":21719:21766  payable(charityAddress).transfer(ethForCharity) */\n      mload(0x40)\n      sub(shl(0xa0, 0x01), 0x01)\n        /* \"contracts/STS.sol\":21727:21741  charityAddress */\n      swap1\n      swap2\n      and\n      swap1\n        /* \"contracts/STS.sol\":21719:21766  payable(charityAddress).transfer(ethForCharity) */\n      dup6\n      iszero\n      0x08fc\n      mul\n      swap1\n        /* \"contracts/STS.sol\":21752:21765  ethForCharity */\n      dup7\n      swap1\n        /* \"contracts/STS.sol\":21727:21741  charityAddress */\n      0x00\n        /* \"contracts/STS.sol\":21719:21766  payable(charityAddress).transfer(ethForCharity) */\n      dup2\n        /* \"contracts/STS.sol\":21727:21741  charityAddress */\n      dup2\n        /* \"contracts/STS.sol\":21719:21766  payable(charityAddress).transfer(ethForCharity) */\n      dup2\n        /* \"contracts/STS.sol\":21752:21765  ethForCharity */\n      dup6\n        /* \"contracts/STS.sol\":21727:21741  charityAddress */\n      dup9\n        /* \"contracts/STS.sol\":21719:21766  payable(charityAddress).transfer(ethForCharity) */\n      dup9\n      call\n      swap4\n      pop\n      pop\n      pop\n      pop\n      iszero\n      dup1\n      iszero\n      tag_498\n      jumpi\n      returndatasize\n      0x00\n      dup1\n      returndatacopy\n      revert(0x00, returndatasize)\n    tag_498:\n      pop\n        /* \"contracts/STS.sol\":21785:21801  marketingAddress */\n      sload(0x11)\n        /* \"contracts/STS.sol\":21777:21828  payable(marketingAddress).transfer(ethForMarketing) */\n      mload(0x40)\n      sub(shl(0xa0, 0x01), 0x01)\n        /* \"contracts/STS.sol\":21785:21801  marketingAddress */\n      swap1\n      swap2\n      and\n      swap1\n        /* \"contracts/STS.sol\":21777:21828  payable(marketingAddress).transfer(ethForMarketing) */\n      dup5\n      iszero\n      0x08fc\n      mul\n      swap1\n        /* \"contracts/STS.sol\":21812:21827  ethForMarketing */\n      dup6\n      swap1\n        /* \"contracts/STS.sol\":21785:21801  marketingAddress */\n      0x00\n        /* \"contracts/STS.sol\":21777:21828  payable(marketingAddress).transfer(ethForMarketing) */\n      dup2\n        /* \"contracts/STS.sol\":21785:21801  marketingAddress */\n      dup2\n        /* \"contracts/STS.sol\":21777:21828  payable(marketingAddress).transfer(ethForMarketing) */\n      dup2\n        /* \"contracts/STS.sol\":21812:21827  ethForMarketing */\n      dup6\n        /* \"contracts/STS.sol\":21785:21801  marketingAddress */\n      dup9\n        /* \"contracts/STS.sol\":21777:21828  payable(marketingAddress).transfer(ethForMarketing) */\n      dup9\n      call\n      swap4\n      pop\n      pop\n      pop\n      pop\n      iszero\n      dup1\n      iszero\n      tag_500\n      jumpi\n      returndatasize\n      0x00\n      dup1\n      returndatacopy\n      revert(0x00, returndatasize)\n    tag_500:\n      pop\n        /* \"contracts/STS.sol\":21847:21865  developmentAddress */\n      sload(0x12)\n        /* \"contracts/STS.sol\":21839:21894  payable(developmentAddress).transfer(ethForDevelopment) */\n      mload(0x40)\n      sub(shl(0xa0, 0x01), 0x01)\n        /* \"contracts/STS.sol\":21847:21865  developmentAddress */\n      swap1\n      swap2\n      and\n      swap1\n        /* \"contracts/STS.sol\":21839:21894  payable(developmentAddress).transfer(ethForDevelopment) */\n      dup4\n      iszero\n      0x08fc\n      mul\n      swap1\n        /* \"contracts/STS.sol\":21876:21893  ethForDevelopment */\n      dup5\n      swap1\n        /* \"contracts/STS.sol\":21847:21865  developmentAddress */\n      0x00\n        /* \"contracts/STS.sol\":21839:21894  payable(developmentAddress).transfer(ethForDevelopment) */\n      dup2\n        /* \"contracts/STS.sol\":21847:21865  developmentAddress */\n      dup2\n        /* \"contracts/STS.sol\":21839:21894  payable(developmentAddress).transfer(ethForDevelopment) */\n      dup2\n        /* \"contracts/STS.sol\":21876:21893  ethForDevelopment */\n      dup6\n        /* \"contracts/STS.sol\":21847:21865  developmentAddress */\n      dup9\n        /* \"contracts/STS.sol\":21839:21894  payable(developmentAddress).transfer(ethForDevelopment) */\n      dup9\n      call\n      swap4\n      pop\n      pop\n      pop\n      pop\n      iszero\n      dup1\n      iszero\n      tag_502\n      jumpi\n      returndatasize\n      0x00\n      dup1\n      returndatacopy\n      revert(0x00, returndatasize)\n    tag_502:\n      pop\n        /* \"contracts/STS.sol\":21913:21927  buybackAddress */\n      sload(0x13)\n        /* \"contracts/STS.sol\":21905:21952  payable(buybackAddress).transfer(ethForBuyback) */\n      mload(0x40)\n      sub(shl(0xa0, 0x01), 0x01)\n        /* \"contracts/STS.sol\":21913:21927  buybackAddress */\n      swap1\n      swap2\n      and\n      swap1\n        /* \"contracts/STS.sol\":21905:21952  payable(buybackAddress).transfer(ethForBuyback) */\n      dup3\n      iszero\n      0x08fc\n      mul\n      swap1\n        /* \"contracts/STS.sol\":21938:21951  ethForBuyback */\n      dup4\n      swap1\n        /* \"contracts/STS.sol\":21913:21927  buybackAddress */\n      0x00\n        /* \"contracts/STS.sol\":21905:21952  payable(buybackAddress).transfer(ethForBuyback) */\n      dup2\n        /* \"contracts/STS.sol\":21913:21927  buybackAddress */\n      dup2\n        /* \"contracts/STS.sol\":21905:21952  payable(buybackAddress).transfer(ethForBuyback) */\n      dup2\n        /* \"contracts/STS.sol\":21938:21951  ethForBuyback */\n      dup6\n        /* \"contracts/STS.sol\":21913:21927  buybackAddress */\n      dup9\n        /* \"contracts/STS.sol\":21905:21952  payable(buybackAddress).transfer(ethForBuyback) */\n      dup9\n      call\n      swap4\n      pop\n      pop\n      pop\n      pop\n      iszero\n      dup1\n      iszero\n      tag_504\n      jumpi\n      returndatasize\n      0x00\n      dup1\n      returndatacopy\n      revert(0x00, returndatasize)\n    tag_504:\n      pop\n      pop\n        /* \"contracts/STS.sol\":13028:13044  inSwapAndLiquify */\n      0x13\n        /* \"contracts/STS.sol\":13028:13052  inSwapAndLiquify = false */\n      dup1\n      sload\n      not(shl(0xa0, 0xff))\n      and\n      swap1\n      sstore\n      pop\n      pop\n      pop\n      pop\n      pop\n      pop\n      pop\n      pop\n      pop\n      pop\n        /* \"contracts/STS.sol\":20479:21969  function swapAndLiquify(uint256 tokensToLiquify) private lockTheSwap {... */\n      jump\t// out\n        /* \"contracts/STS.sol\":21980:22500  function addLiquidity(uint256 tokenAmount, uint256 ethAmount) private {... */\n    tag_496:\n        /* \"contracts/STS.sol\":22162:22177  uniswapV2Router */\n      sload(0x03)\n        /* \"contracts/STS.sol\":22130:22192  _approve(address(this), address(uniswapV2Router), tokenAmount) */\n      tag_507\n      swap1\n        /* \"contracts/STS.sol\":22147:22151  this */\n      address\n      swap1\n        /* \"contracts/STS.sol\":22162:22177  uniswapV2Router */\n      0x0100\n      swap1\n      div\n      sub(shl(0xa0, 0x01), 0x01)\n      and\n        /* \"contracts/STS.sol\":22180:22191  tokenAmount */\n      dup5\n        /* \"contracts/STS.sol\":22130:22138  _approve */\n      tag_266\n        /* \"contracts/STS.sol\":22130:22192  _approve(address(this), address(uniswapV2Router), tokenAmount) */\n      jump\t// in\n    tag_507:\n        /* \"contracts/STS.sol\":22235:22250  uniswapV2Router */\n      sload(0x03)\n        /* \"contracts/STS.sol\":22235:22490  uniswapV2Router.addLiquidityETH{value: ethAmount}(... */\n      mload(0x40)\n      shl(0xe0, 0xf305d719)\n      dup2\n      mstore\n        /* \"contracts/STS.sol\":22307:22311  this */\n      address\n        /* \"contracts/STS.sol\":22235:22490  uniswapV2Router.addLiquidityETH{value: ethAmount}(... */\n      0x04\n      dup3\n      add\n        /* \"#utility.yul\":12324:12358   */\n      mstore\n        /* \"#utility.yul\":12374:12392   */\n      0x24\n      dup2\n      add\n        /* \"#utility.yul\":12367:12401   */\n      dup5\n      swap1\n      mstore\n        /* \"contracts/STS.sol\":22353:22354  0 */\n      0x00\n        /* \"#utility.yul\":12417:12435   */\n      0x44\n      dup3\n      add\n        /* \"#utility.yul\":12410:12444   */\n      dup2\n      swap1\n      mstore\n        /* \"#utility.yul\":12460:12478   */\n      0x64\n      dup3\n      add\n        /* \"#utility.yul\":12453:12487   */\n      dup2\n      swap1\n      mstore\n        /* \"#utility.yul\":12503:12522   */\n      0x84\n      dup3\n      add\n        /* \"#utility.yul\":12496:12540   */\n      mstore\n        /* \"contracts/STS.sol\":22464:22479  block.timestamp */\n      timestamp\n        /* \"#utility.yul\":12556:12575   */\n      0xa4\n      dup3\n      add\n        /* \"#utility.yul\":12549:12584   */\n      mstore\n        /* \"contracts/STS.sol\":22235:22250  uniswapV2Router */\n      0x0100\n      swap1\n      swap2\n      div\n      sub(shl(0xa0, 0x01), 0x01)\n      and\n      swap1\n        /* \"contracts/STS.sol\":22235:22266  uniswapV2Router.addLiquidityETH */\n      0xf305d719\n      swap1\n        /* \"contracts/STS.sol\":22274:22283  ethAmount */\n      dup4\n      swap1\n        /* \"#utility.yul\":12258:12277   */\n      0xc4\n      add\n        /* \"contracts/STS.sol\":22235:22490  uniswapV2Router.addLiquidityETH{value: ethAmount}(... */\n      0x60\n      mload(0x40)\n      dup1\n      dup4\n      sub\n      dup2\n      dup6\n      dup9\n      gas\n      call\n      iszero\n      dup1\n      iszero\n      tag_511\n      jumpi\n      returndatasize\n      0x00\n      dup1\n      returndatacopy\n      revert(0x00, returndatasize)\n    tag_511:\n      pop\n      pop\n      pop\n      pop\n      pop\n      mload(0x40)\n      returndatasize\n      not(0x1f)\n      0x1f\n      dup3\n      add\n      and\n      dup3\n      add\n      dup1\n      0x40\n      mstore\n      pop\n      dup2\n      add\n      swap1\n      tag_307\n      swap2\n      swap1\n      tag_513\n      jump\t// in\n        /* \"#utility.yul\":14:145   */\n    tag_514:\n      sub(shl(0xa0, 0x01), 0x01)\n        /* \"#utility.yul\":89:120   */\n      dup2\n      and\n        /* \"#utility.yul\":79:121   */\n      dup2\n      eq\n        /* \"#utility.yul\":69:139   */\n      tag_403\n      jumpi\n        /* \"#utility.yul\":135:136   */\n      0x00\n        /* \"#utility.yul\":132:133   */\n      dup1\n        /* \"#utility.yul\":125:137   */\n      revert\n        /* \"#utility.yul\":150:397   */\n    tag_58:\n        /* \"#utility.yul\":209:215   */\n      0x00\n        /* \"#utility.yul\":262:264   */\n      0x20\n        /* \"#utility.yul\":250:259   */\n      dup3\n        /* \"#utility.yul\":241:248   */\n      dup5\n        /* \"#utility.yul\":237:260   */\n      sub\n        /* \"#utility.yul\":233:265   */\n      slt\n        /* \"#utility.yul\":230:282   */\n      iszero\n      tag_521\n      jumpi\n        /* \"#utility.yul\":278:279   */\n      0x00\n        /* \"#utility.yul\":275:276   */\n      dup1\n        /* \"#utility.yul\":268:280   */\n      revert\n        /* \"#utility.yul\":230:282   */\n    tag_521:\n        /* \"#utility.yul\":317:326   */\n      dup2\n        /* \"#utility.yul\":304:327   */\n      calldataload\n        /* \"#utility.yul\":336:367   */\n      tag_522\n        /* \"#utility.yul\":361:366   */\n      dup2\n        /* \"#utility.yul\":336:367   */\n      tag_514\n      jump\t// in\n    tag_522:\n        /* \"#utility.yul\":386:391   */\n      swap4\n        /* \"#utility.yul\":150:397   */\n      swap3\n      pop\n      pop\n      pop\n      jump\t// out\n        /* \"#utility.yul\":402:950   */\n    tag_64:\n        /* \"#utility.yul\":514:518   */\n      0x00\n        /* \"#utility.yul\":543:545   */\n      0x20\n        /* \"#utility.yul\":572:574   */\n      dup1\n        /* \"#utility.yul\":561:570   */\n      dup4\n        /* \"#utility.yul\":554:575   */\n      mstore\n        /* \"#utility.yul\":604:610   */\n      dup4\n        /* \"#utility.yul\":598:611   */\n      mload\n        /* \"#utility.yul\":647:653   */\n      dup1\n        /* \"#utility.yul\":642:644   */\n      0x20\n        /* \"#utility.yul\":631:640   */\n      dup6\n        /* \"#utility.yul\":627:645   */\n      add\n        /* \"#utility.yul\":620:654   */\n      mstore\n        /* \"#utility.yul\":672:673   */\n      0x00\n        /* \"#utility.yul\":682:822   */\n    tag_524:\n        /* \"#utility.yul\":696:702   */\n      dup2\n        /* \"#utility.yul\":693:694   */\n      dup2\n        /* \"#utility.yul\":690:703   */\n      lt\n        /* \"#utility.yul\":682:822   */\n      iszero\n      tag_526\n      jumpi\n        /* \"#utility.yul\":791:805   */\n      dup6\n      dup2\n      add\n        /* \"#utility.yul\":787:810   */\n      dup4\n      add\n        /* \"#utility.yul\":781:811   */\n      mload\n        /* \"#utility.yul\":757:774   */\n      dup6\n      dup3\n      add\n        /* \"#utility.yul\":776:778   */\n      0x40\n        /* \"#utility.yul\":753:779   */\n      add\n        /* \"#utility.yul\":746:812   */\n      mstore\n        /* \"#utility.yul\":711:721   */\n      dup3\n      add\n        /* \"#utility.yul\":682:822   */\n      jump(tag_524)\n    tag_526:\n        /* \"#utility.yul\":686:689   */\n      pop\n        /* \"#utility.yul\":871:872   */\n      0x00\n        /* \"#utility.yul\":866:868   */\n      0x40\n        /* \"#utility.yul\":857:863   */\n      dup3\n        /* \"#utility.yul\":846:855   */\n      dup7\n        /* \"#utility.yul\":842:864   */\n      add\n        /* \"#utility.yul\":838:869   */\n      add\n        /* \"#utility.yul\":831:873   */\n      mstore\n        /* \"#utility.yul\":941:943   */\n      0x40\n        /* \"#utility.yul\":934:936   */\n      0x1f\n        /* \"#utility.yul\":930:937   */\n      not\n        /* \"#utility.yul\":925:927   */\n      0x1f\n        /* \"#utility.yul\":917:923   */\n      dup4\n        /* \"#utility.yul\":913:928   */\n      add\n        /* \"#utility.yul\":909:938   */\n      and\n        /* \"#utility.yul\":898:907   */\n      dup6\n        /* \"#utility.yul\":894:939   */\n      add\n        /* \"#utility.yul\":890:944   */\n      add\n        /* \"#utility.yul\":882:944   */\n      swap3\n      pop\n      pop\n      pop\n        /* \"#utility.yul\":402:950   */\n      swap3\n      swap2\n      pop\n      pop\n      jump\t// out\n        /* \"#utility.yul\":955:1270   */\n    tag_68:\n        /* \"#utility.yul\":1023:1029   */\n      0x00\n        /* \"#utility.yul\":1031:1037   */\n      dup1\n        /* \"#utility.yul\":1084:1086   */\n      0x40\n        /* \"#utility.yul\":1072:1081   */\n      dup4\n        /* \"#utility.yul\":1063:1070   */\n      dup6\n        /* \"#utility.yul\":1059:1082   */\n      sub\n        /* \"#utility.yul\":1055:1087   */\n      slt\n        /* \"#utility.yul\":1052:1104   */\n      iszero\n      tag_528\n      jumpi\n        /* \"#utility.yul\":1100:1101   */\n      0x00\n        /* \"#utility.yul\":1097:1098   */\n      dup1\n        /* \"#utility.yul\":1090:1102   */\n      revert\n        /* \"#utility.yul\":1052:1104   */\n    tag_528:\n        /* \"#utility.yul\":1139:1148   */\n      dup3\n        /* \"#utility.yul\":1126:1149   */\n      calldataload\n        /* \"#utility.yul\":1158:1189   */\n      tag_529\n        /* \"#utility.yul\":1183:1188   */\n      dup2\n        /* \"#utility.yul\":1158:1189   */\n      tag_514\n      jump\t// in\n    tag_529:\n        /* \"#utility.yul\":1208:1213   */\n      swap5\n        /* \"#utility.yul\":1260:1262   */\n      0x20\n        /* \"#utility.yul\":1245:1263   */\n      swap4\n      swap1\n      swap4\n      add\n        /* \"#utility.yul\":1232:1264   */\n      calldataload\n      swap4\n      pop\n      pop\n      pop\n        /* \"#utility.yul\":955:1270   */\n      jump\t// out\n        /* \"#utility.yul\":1883:2063   */\n    tag_90:\n        /* \"#utility.yul\":1942:1948   */\n      0x00\n        /* \"#utility.yul\":1995:1997   */\n      0x20\n        /* \"#utility.yul\":1983:1992   */\n      dup3\n        /* \"#utility.yul\":1974:1981   */\n      dup5\n        /* \"#utility.yul\":1970:1993   */\n      sub\n        /* \"#utility.yul\":1966:1998   */\n      slt\n        /* \"#utility.yul\":1963:2015   */\n      iszero\n      tag_534\n      jumpi\n        /* \"#utility.yul\":2011:2012   */\n      0x00\n        /* \"#utility.yul\":2008:2009   */\n      dup1\n        /* \"#utility.yul\":2001:2013   */\n      revert\n        /* \"#utility.yul\":1963:2015   */\n    tag_534:\n      pop\n        /* \"#utility.yul\":2034:2057   */\n      calldataload\n      swap2\n        /* \"#utility.yul\":1883:2063   */\n      swap1\n      pop\n      jump\t// out\n        /* \"#utility.yul\":2068:2524   */\n    tag_95:\n        /* \"#utility.yul\":2145:2151   */\n      0x00\n        /* \"#utility.yul\":2153:2159   */\n      dup1\n        /* \"#utility.yul\":2161:2167   */\n      0x00\n        /* \"#utility.yul\":2214:2216   */\n      0x60\n        /* \"#utility.yul\":2202:2211   */\n      dup5\n        /* \"#utility.yul\":2193:2200   */\n      dup7\n        /* \"#utility.yul\":2189:2212   */\n      sub\n        /* \"#utility.yul\":2185:2217   */\n      slt\n        /* \"#utility.yul\":2182:2234   */\n      iszero\n      tag_536\n      jumpi\n        /* \"#utility.yul\":2230:2231   */\n      0x00\n        /* \"#utility.yul\":2227:2228   */\n      dup1\n        /* \"#utility.yul\":2220:2232   */\n      revert\n        /* \"#utility.yul\":2182:2234   */\n    tag_536:\n        /* \"#utility.yul\":2269:2278   */\n      dup4\n        /* \"#utility.yul\":2256:2279   */\n      calldataload\n        /* \"#utility.yul\":2288:2319   */\n      tag_537\n        /* \"#utility.yul\":2313:2318   */\n      dup2\n        /* \"#utility.yul\":2288:2319   */\n      tag_514\n      jump\t// in\n    tag_537:\n        /* \"#utility.yul\":2338:2343   */\n      swap3\n      pop\n        /* \"#utility.yul\":2395:2397   */\n      0x20\n        /* \"#utility.yul\":2380:2398   */\n      dup5\n      add\n        /* \"#utility.yul\":2367:2399   */\n      calldataload\n        /* \"#utility.yul\":2408:2441   */\n      tag_538\n        /* \"#utility.yul\":2367:2399   */\n      dup2\n        /* \"#utility.yul\":2408:2441   */\n      tag_514\n      jump\t// in\n    tag_538:\n        /* \"#utility.yul\":2068:2524   */\n      swap3\n      swap6\n        /* \"#utility.yul\":2460:2467   */\n      swap3\n      swap5\n      pop\n      pop\n      pop\n        /* \"#utility.yul\":2514:2516   */\n      0x40\n        /* \"#utility.yul\":2499:2517   */\n      swap2\n      swap1\n      swap2\n      add\n        /* \"#utility.yul\":2486:2518   */\n      calldataload\n      swap1\n        /* \"#utility.yul\":2068:2524   */\n      jump\t// out\n        /* \"#utility.yul\":2926:3380   */\n    tag_128:\n        /* \"#utility.yul\":3021:3027   */\n      0x00\n        /* \"#utility.yul\":3029:3035   */\n      dup1\n        /* \"#utility.yul\":3037:3043   */\n      0x00\n        /* \"#utility.yul\":3045:3051   */\n      dup1\n        /* \"#utility.yul\":3053:3059   */\n      0x00\n        /* \"#utility.yul\":3106:3109   */\n      0xa0\n        /* \"#utility.yul\":3094:3103   */\n      dup7\n        /* \"#utility.yul\":3085:3092   */\n      dup9\n        /* \"#utility.yul\":3081:3104   */\n      sub\n        /* \"#utility.yul\":3077:3110   */\n      slt\n        /* \"#utility.yul\":3074:3127   */\n      iszero\n      tag_542\n      jumpi\n        /* \"#utility.yul\":3123:3124   */\n      0x00\n        /* \"#utility.yul\":3120:3121   */\n      dup1\n        /* \"#utility.yul\":3113:3125   */\n      revert\n        /* \"#utility.yul\":3074:3127   */\n    tag_542:\n      pop\n      pop\n        /* \"#utility.yul\":3146:3169   */\n      dup4\n      calldataload\n      swap6\n        /* \"#utility.yul\":3216:3218   */\n      0x20\n        /* \"#utility.yul\":3201:3219   */\n      dup6\n      add\n        /* \"#utility.yul\":3188:3220   */\n      calldataload\n      swap6\n      pop\n        /* \"#utility.yul\":3267:3269   */\n      0x40\n        /* \"#utility.yul\":3252:3270   */\n      dup6\n      add\n        /* \"#utility.yul\":3239:3271   */\n      calldataload\n      swap5\n        /* \"#utility.yul\":3318:3320   */\n      0x60\n        /* \"#utility.yul\":3303:3321   */\n      dup2\n      add\n        /* \"#utility.yul\":3290:3322   */\n      calldataload\n      swap5\n      pop\n        /* \"#utility.yul\":3369:3372   */\n      0x80\n        /* \"#utility.yul\":3354:3373   */\n      add\n        /* \"#utility.yul\":3341:3374   */\n      calldataload\n      swap3\n      pop\n        /* \"#utility.yul\":2926:3380   */\n      swap1\n      pop\n      jump\t// out\n        /* \"#utility.yul\":3609:3727   */\n    tag_515:\n        /* \"#utility.yul\":3695:3700   */\n      dup1\n        /* \"#utility.yul\":3688:3701   */\n      iszero\n        /* \"#utility.yul\":3681:3702   */\n      iszero\n        /* \"#utility.yul\":3674:3679   */\n      dup2\n        /* \"#utility.yul\":3671:3703   */\n      eq\n        /* \"#utility.yul\":3661:3721   */\n      tag_403\n      jumpi\n        /* \"#utility.yul\":3717:3718   */\n      0x00\n        /* \"#utility.yul\":3714:3715   */\n      dup1\n        /* \"#utility.yul\":3707:3719   */\n      revert\n        /* \"#utility.yul\":3732:3973   */\n    tag_205:\n        /* \"#utility.yul\":3788:3794   */\n      0x00\n        /* \"#utility.yul\":3841:3843   */\n      0x20\n        /* \"#utility.yul\":3829:3838   */\n      dup3\n        /* \"#utility.yul\":3820:3827   */\n      dup5\n        /* \"#utility.yul\":3816:3839   */\n      sub\n        /* \"#utility.yul\":3812:3844   */\n      slt\n        /* \"#utility.yul\":3809:3861   */\n      iszero\n      tag_547\n      jumpi\n        /* \"#utility.yul\":3857:3858   */\n      0x00\n        /* \"#utility.yul\":3854:3855   */\n      dup1\n        /* \"#utility.yul\":3847:3859   */\n      revert\n        /* \"#utility.yul\":3809:3861   */\n    tag_547:\n        /* \"#utility.yul\":3896:3905   */\n      dup2\n        /* \"#utility.yul\":3883:3906   */\n      calldataload\n        /* \"#utility.yul\":3915:3943   */\n      tag_522\n        /* \"#utility.yul\":3937:3942   */\n      dup2\n        /* \"#utility.yul\":3915:3943   */\n      tag_515\n      jump\t// in\n        /* \"#utility.yul\":3978:4366   */\n    tag_227:\n        /* \"#utility.yul\":4046:4052   */\n      0x00\n        /* \"#utility.yul\":4054:4060   */\n      dup1\n        /* \"#utility.yul\":4107:4109   */\n      0x40\n        /* \"#utility.yul\":4095:4104   */\n      dup4\n        /* \"#utility.yul\":4086:4093   */\n      dup6\n        /* \"#utility.yul\":4082:4105   */\n      sub\n        /* \"#utility.yul\":4078:4110   */\n      slt\n        /* \"#utility.yul\":4075:4127   */\n      iszero\n      tag_550\n      jumpi\n        /* \"#utility.yul\":4123:4124   */\n      0x00\n        /* \"#utility.yul\":4120:4121   */\n      dup1\n        /* \"#utility.yul\":4113:4125   */\n      revert\n        /* \"#utility.yul\":4075:4127   */\n    tag_550:\n        /* \"#utility.yul\":4162:4171   */\n      dup3\n        /* \"#utility.yul\":4149:4172   */\n      calldataload\n        /* \"#utility.yul\":4181:4212   */\n      tag_551\n        /* \"#utility.yul\":4206:4211   */\n      dup2\n        /* \"#utility.yul\":4181:4212   */\n      tag_514\n      jump\t// in\n    tag_551:\n        /* \"#utility.yul\":4231:4236   */\n      swap2\n      pop\n        /* \"#utility.yul\":4288:4290   */\n      0x20\n        /* \"#utility.yul\":4273:4291   */\n      dup4\n      add\n        /* \"#utility.yul\":4260:4292   */\n      calldataload\n        /* \"#utility.yul\":4301:4334   */\n      tag_552\n        /* \"#utility.yul\":4260:4292   */\n      dup2\n        /* \"#utility.yul\":4301:4334   */\n      tag_514\n      jump\t// in\n    tag_552:\n        /* \"#utility.yul\":4353:4360   */\n      dup1\n        /* \"#utility.yul\":4343:4360   */\n      swap2\n      pop\n      pop\n        /* \"#utility.yul\":3978:4366   */\n      swap3\n      pop\n      swap3\n      swap1\n      pop\n      jump\t// out\n        /* \"#utility.yul\":4371:4727   */\n    tag_254:\n        /* \"#utility.yul\":4573:4575   */\n      0x20\n        /* \"#utility.yul\":4555:4576   */\n      dup1\n      dup3\n      mstore\n        /* \"#utility.yul\":4592:4610   */\n      dup2\n      dup2\n      add\n        /* \"#utility.yul\":4585:4615   */\n      mstore\n        /* \"#utility.yul\":4651:4685   */\n      0x4f776e61626c653a2063616c6c6572206973206e6f7420746865206f776e6572\n        /* \"#utility.yul\":4646:4648   */\n      0x40\n        /* \"#utility.yul\":4631:4649   */\n      dup3\n      add\n        /* \"#utility.yul\":4624:4686   */\n      mstore\n        /* \"#utility.yul\":4718:4720   */\n      0x60\n        /* \"#utility.yul\":4703:4721   */\n      add\n      swap1\n        /* \"#utility.yul\":4371:4727   */\n      jump\t// out\n        /* \"#utility.yul\":4732:5112   */\n    tag_258:\n        /* \"#utility.yul\":4811:4812   */\n      0x01\n        /* \"#utility.yul\":4807:4819   */\n      dup2\n      dup2\n      shr\n      swap1\n        /* \"#utility.yul\":4854:4866   */\n      dup3\n      and\n      dup1\n        /* \"#utility.yul\":4875:4936   */\n      tag_555\n      jumpi\n        /* \"#utility.yul\":4929:4933   */\n      0x7f\n        /* \"#utility.yul\":4921:4927   */\n      dup3\n        /* \"#utility.yul\":4917:4934   */\n      and\n        /* \"#utility.yul\":4907:4934   */\n      swap2\n      pop\n        /* \"#utility.yul\":4875:4936   */\n    tag_555:\n        /* \"#utility.yul\":4982:4984   */\n      0x20\n        /* \"#utility.yul\":4974:4980   */\n      dup3\n        /* \"#utility.yul\":4971:4985   */\n      lt\n        /* \"#utility.yul\":4951:4969   */\n      dup2\n        /* \"#utility.yul\":4948:4986   */\n      sub\n        /* \"#utility.yul\":4945:5106   */\n      tag_556\n      jumpi\n        /* \"#utility.yul\":5028:5038   */\n      0x4e487b71\n        /* \"#utility.yul\":5023:5026   */\n      0xe0\n        /* \"#utility.yul\":5019:5039   */\n      shl\n        /* \"#utility.yul\":5016:5017   */\n      0x00\n        /* \"#utility.yul\":5009:5040   */\n      mstore\n        /* \"#utility.yul\":5063:5067   */\n      0x22\n        /* \"#utility.yul\":5060:5061   */\n      0x04\n        /* \"#utility.yul\":5053:5068   */\n      mstore\n        /* \"#utility.yul\":5091:5095   */\n      0x24\n        /* \"#utility.yul\":5088:5089   */\n      0x00\n        /* \"#utility.yul\":5081:5096   */\n      revert\n        /* \"#utility.yul\":4945:5106   */\n    tag_556:\n      pop\n        /* \"#utility.yul\":4732:5112   */\n      swap2\n      swap1\n      pop\n      jump\t// out\n        /* \"#utility.yul\":5117:5244   */\n    tag_516:\n        /* \"#utility.yul\":5178:5188   */\n      0x4e487b71\n        /* \"#utility.yul\":5173:5176   */\n      0xe0\n        /* \"#utility.yul\":5169:5189   */\n      shl\n        /* \"#utility.yul\":5166:5167   */\n      0x00\n        /* \"#utility.yul\":5159:5190   */\n      mstore\n        /* \"#utility.yul\":5209:5213   */\n      0x11\n        /* \"#utility.yul\":5206:5207   */\n      0x04\n        /* \"#utility.yul\":5199:5214   */\n      mstore\n        /* \"#utility.yul\":5233:5237   */\n      0x24\n        /* \"#utility.yul\":5230:5231   */\n      0x00\n        /* \"#utility.yul\":5223:5238   */\n      revert\n        /* \"#utility.yul\":5249:5377   */\n    tag_280:\n        /* \"#utility.yul\":5316:5325   */\n      dup2\n      dup2\n      sub\n        /* \"#utility.yul\":5337:5348   */\n      dup2\n      dup2\n      gt\n        /* \"#utility.yul\":5334:5371   */\n      iszero\n      tag_263\n      jumpi\n        /* \"#utility.yul\":5351:5369   */\n      tag_263\n      tag_516\n      jump\t// in\n        /* \"#utility.yul\":5382:5507   */\n    tag_287:\n        /* \"#utility.yul\":5447:5456   */\n      dup1\n      dup3\n      add\n        /* \"#utility.yul\":5468:5478   */\n      dup1\n      dup3\n      gt\n        /* \"#utility.yul\":5465:5501   */\n      iszero\n      tag_263\n      jumpi\n        /* \"#utility.yul\":5481:5499   */\n      tag_263\n      tag_516\n      jump\t// in\n        /* \"#utility.yul\":6284:6468   */\n    tag_365:\n        /* \"#utility.yul\":6354:6360   */\n      0x00\n        /* \"#utility.yul\":6407:6409   */\n      0x20\n        /* \"#utility.yul\":6395:6404   */\n      dup3\n        /* \"#utility.yul\":6386:6393   */\n      dup5\n        /* \"#utility.yul\":6382:6405   */\n      sub\n        /* \"#utility.yul\":6378:6410   */\n      slt\n        /* \"#utility.yul\":6375:6427   */\n      iszero\n      tag_567\n      jumpi\n        /* \"#utility.yul\":6423:6424   */\n      0x00\n        /* \"#utility.yul\":6420:6421   */\n      dup1\n        /* \"#utility.yul\":6413:6425   */\n      revert\n        /* \"#utility.yul\":6375:6427   */\n    tag_567:\n      pop\n        /* \"#utility.yul\":6446:6462   */\n      mload\n      swap2\n        /* \"#utility.yul\":6284:6468   */\n      swap1\n      pop\n      jump\t// out\n        /* \"#utility.yul\":7097:7342   */\n    tag_379:\n        /* \"#utility.yul\":7164:7170   */\n      0x00\n        /* \"#utility.yul\":7217:7219   */\n      0x20\n        /* \"#utility.yul\":7205:7214   */\n      dup3\n        /* \"#utility.yul\":7196:7203   */\n      dup5\n        /* \"#utility.yul\":7192:7215   */\n      sub\n        /* \"#utility.yul\":7188:7220   */\n      slt\n        /* \"#utility.yul\":7185:7237   */\n      iszero\n      tag_571\n      jumpi\n        /* \"#utility.yul\":7233:7234   */\n      0x00\n        /* \"#utility.yul\":7230:7231   */\n      dup1\n        /* \"#utility.yul\":7223:7235   */\n      revert\n        /* \"#utility.yul\":7185:7237   */\n    tag_571:\n        /* \"#utility.yul\":7265:7274   */\n      dup2\n        /* \"#utility.yul\":7259:7275   */\n      mload\n        /* \"#utility.yul\":7284:7312   */\n      tag_522\n        /* \"#utility.yul\":7306:7311   */\n      dup2\n        /* \"#utility.yul\":7284:7312   */\n      tag_515\n      jump\t// in\n        /* \"#utility.yul\":10083:10251   */\n    tag_442:\n        /* \"#utility.yul\":10156:10165   */\n      dup1\n      dup3\n      mul\n        /* \"#utility.yul\":10187:10196   */\n      dup2\n      iszero\n        /* \"#utility.yul\":10204:10219   */\n      dup3\n      dup3\n      div\n        /* \"#utility.yul\":10198:10220   */\n      dup5\n      eq\n        /* \"#utility.yul\":10184:10221   */\n      or\n        /* \"#utility.yul\":10174:10245   */\n      tag_263\n      jumpi\n        /* \"#utility.yul\":10225:10243   */\n      tag_263\n      tag_516\n      jump\t// in\n        /* \"#utility.yul\":10256:10473   */\n    tag_444:\n        /* \"#utility.yul\":10296:10297   */\n      0x00\n        /* \"#utility.yul\":10322:10323   */\n      dup3\n        /* \"#utility.yul\":10312:10444   */\n      tag_584\n      jumpi\n        /* \"#utility.yul\":10366:10376   */\n      0x4e487b71\n        /* \"#utility.yul\":10361:10364   */\n      0xe0\n        /* \"#utility.yul\":10357:10377   */\n      shl\n        /* \"#utility.yul\":10354:10355   */\n      0x00\n        /* \"#utility.yul\":10347:10378   */\n      mstore\n        /* \"#utility.yul\":10401:10405   */\n      0x12\n        /* \"#utility.yul\":10398:10399   */\n      0x04\n        /* \"#utility.yul\":10391:10406   */\n      mstore\n        /* \"#utility.yul\":10429:10433   */\n      0x24\n        /* \"#utility.yul\":10426:10427   */\n      0x00\n        /* \"#utility.yul\":10419:10434   */\n      revert\n        /* \"#utility.yul\":10312:10444   */\n    tag_584:\n      pop\n        /* \"#utility.yul\":10458:10467   */\n      div\n      swap1\n        /* \"#utility.yul\":10256:10473   */\n      jump\t// out\n        /* \"#utility.yul\":10610:10737   */\n    tag_468:\n        /* \"#utility.yul\":10671:10681   */\n      0x4e487b71\n        /* \"#utility.yul\":10666:10669   */\n      0xe0\n        /* \"#utility.yul\":10662:10682   */\n      shl\n        /* \"#utility.yul\":10659:10660   */\n      0x00\n        /* \"#utility.yul\":10652:10683   */\n      mstore\n        /* \"#utility.yul\":10702:10706   */\n      0x32\n        /* \"#utility.yul\":10699:10700   */\n      0x04\n        /* \"#utility.yul\":10692:10707   */\n      mstore\n        /* \"#utility.yul\":10726:10730   */\n      0x24\n        /* \"#utility.yul\":10723:10724   */\n      0x00\n        /* \"#utility.yul\":10716:10731   */\n      revert\n        /* \"#utility.yul\":10742:10993   */\n    tag_472:\n        /* \"#utility.yul\":10812:10818   */\n      0x00\n        /* \"#utility.yul\":10865:10867   */\n      0x20\n        /* \"#utility.yul\":10853:10862   */\n      dup3\n        /* \"#utility.yul\":10844:10851   */\n      dup5\n        /* \"#utility.yul\":10840:10863   */\n      sub\n        /* \"#utility.yul\":10836:10868   */\n      slt\n        /* \"#utility.yul\":10833:10885   */\n      iszero\n      tag_588\n      jumpi\n        /* \"#utility.yul\":10881:10882   */\n      0x00\n        /* \"#utility.yul\":10878:10879   */\n      dup1\n        /* \"#utility.yul\":10871:10883   */\n      revert\n        /* \"#utility.yul\":10833:10885   */\n    tag_588:\n        /* \"#utility.yul\":10913:10922   */\n      dup2\n        /* \"#utility.yul\":10907:10923   */\n      mload\n        /* \"#utility.yul\":10932:10963   */\n      tag_522\n        /* \"#utility.yul\":10957:10962   */\n      dup2\n        /* \"#utility.yul\":10932:10963   */\n      tag_514\n      jump\t// in\n        /* \"#utility.yul\":10998:11978   */\n    tag_477:\n        /* \"#utility.yul\":11260:11264   */\n      0x00\n        /* \"#utility.yul\":11308:11311   */\n      0xa0\n        /* \"#utility.yul\":11297:11306   */\n      dup3\n        /* \"#utility.yul\":11293:11312   */\n      add\n        /* \"#utility.yul\":11339:11345   */\n      dup8\n        /* \"#utility.yul\":11328:11337   */\n      dup4\n        /* \"#utility.yul\":11321:11346   */\n      mstore\n        /* \"#utility.yul\":11365:11367   */\n      0x20\n        /* \"#utility.yul\":11403:11409   */\n      dup8\n        /* \"#utility.yul\":11398:11400   */\n      0x20\n        /* \"#utility.yul\":11387:11396   */\n      dup6\n        /* \"#utility.yul\":11383:11401   */\n      add\n        /* \"#utility.yul\":11376:11410   */\n      mstore\n        /* \"#utility.yul\":11446:11449   */\n      0xa0\n        /* \"#utility.yul\":11441:11443   */\n      0x40\n        /* \"#utility.yul\":11430:11439   */\n      dup6\n        /* \"#utility.yul\":11426:11444   */\n      add\n        /* \"#utility.yul\":11419:11450   */\n      mstore\n        /* \"#utility.yul\":11470:11476   */\n      dup2\n        /* \"#utility.yul\":11505:11511   */\n      dup8\n        /* \"#utility.yul\":11499:11512   */\n      mload\n        /* \"#utility.yul\":11536:11542   */\n      dup1\n        /* \"#utility.yul\":11528:11534   */\n      dup5\n        /* \"#utility.yul\":11521:11543   */\n      mstore\n        /* \"#utility.yul\":11574:11577   */\n      0xc0\n        /* \"#utility.yul\":11563:11572   */\n      dup7\n        /* \"#utility.yul\":11559:11578   */\n      add\n        /* \"#utility.yul\":11552:11578   */\n      swap2\n      pop\n        /* \"#utility.yul\":11613:11615   */\n      0x20\n        /* \"#utility.yul\":11605:11611   */\n      dup10\n        /* \"#utility.yul\":11601:11616   */\n      add\n        /* \"#utility.yul\":11587:11616   */\n      swap4\n      pop\n        /* \"#utility.yul\":11634:11635   */\n      0x00\n        /* \"#utility.yul\":11644:11839   */\n    tag_591:\n        /* \"#utility.yul\":11658:11664   */\n      dup2\n        /* \"#utility.yul\":11655:11656   */\n      dup2\n        /* \"#utility.yul\":11652:11665   */\n      lt\n        /* \"#utility.yul\":11644:11839   */\n      iszero\n      tag_593\n      jumpi\n        /* \"#utility.yul\":11723:11736   */\n      dup5\n      mload\n      sub(shl(0xa0, 0x01), 0x01)\n        /* \"#utility.yul\":11719:11758   */\n      and\n        /* \"#utility.yul\":11707:11759   */\n      dup4\n      mstore\n        /* \"#utility.yul\":11814:11829   */\n      swap4\n      dup4\n      add\n      swap4\n        /* \"#utility.yul\":11779:11791   */\n      swap2\n      dup4\n      add\n      swap2\n        /* \"#utility.yul\":11755:11756   */\n      0x01\n        /* \"#utility.yul\":11673:11682   */\n      add\n        /* \"#utility.yul\":11644:11839   */\n      jump(tag_591)\n    tag_593:\n      pop\n      pop\n      sub(shl(0xa0, 0x01), 0x01)\n        /* \"#utility.yul\":11895:11927   */\n      swap7\n      swap1\n      swap7\n      and\n        /* \"#utility.yul\":11890:11892   */\n      0x60\n        /* \"#utility.yul\":11875:11893   */\n      dup6\n      add\n        /* \"#utility.yul\":11868:11928   */\n      mstore\n      pop\n      pop\n      pop\n        /* \"#utility.yul\":11959:11962   */\n      0x80\n        /* \"#utility.yul\":11944:11963   */\n      add\n        /* \"#utility.yul\":11937:11972   */\n      mstore\n        /* \"#utility.yul\":11856:11859   */\n      swap4\n        /* \"#utility.yul\":10998:11978   */\n      swap3\n      pop\n      pop\n      pop\n      jump\t// out\n        /* \"#utility.yul\":12595:12901   */\n    tag_513:\n        /* \"#utility.yul\":12683:12689   */\n      0x00\n        /* \"#utility.yul\":12691:12697   */\n      dup1\n        /* \"#utility.yul\":12699:12705   */\n      0x00\n        /* \"#utility.yul\":12752:12754   */\n      0x60\n        /* \"#utility.yul\":12740:12749   */\n      dup5\n        /* \"#utility.yul\":12731:12738   */\n      dup7\n        /* \"#utility.yul\":12727:12750   */\n      sub\n        /* \"#utility.yul\":12723:12755   */\n      slt\n        /* \"#utility.yul\":12720:12772   */\n      iszero\n      tag_596\n      jumpi\n        /* \"#utility.yul\":12768:12769   */\n      0x00\n        /* \"#utility.yul\":12765:12766   */\n      dup1\n        /* \"#utility.yul\":12758:12770   */\n      revert\n        /* \"#utility.yul\":12720:12772   */\n    tag_596:\n        /* \"#utility.yul\":12797:12806   */\n      dup4\n        /* \"#utility.yul\":12791:12807   */\n      mload\n        /* \"#utility.yul\":12781:12807   */\n      swap3\n      pop\n        /* \"#utility.yul\":12847:12849   */\n      0x20\n        /* \"#utility.yul\":12836:12845   */\n      dup5\n        /* \"#utility.yul\":12832:12850   */\n      add\n        /* \"#utility.yul\":12826:12851   */\n      mload\n        /* \"#utility.yul\":12816:12851   */\n      swap2\n      pop\n        /* \"#utility.yul\":12891:12893   */\n      0x40\n        /* \"#utility.yul\":12880:12889   */\n      dup5\n        /* \"#utility.yul\":12876:12894   */\n      add\n        /* \"#utility.yul\":12870:12895   */\n      mload\n        /* \"#utility.yul\":12860:12895   */\n      swap1\n      pop\n        /* \"#utility.yul\":12595:12901   */\n      swap3\n      pop\n      swap3\n      pop\n      swap3\n      jump\t// out\n\n    auxdata: 0xa2646970667358221220ca8fd58c1587e66e64d7aadeac06ff3c26648e5c6d764d1a6004bf09a79faf8d64736f6c63430008180033\n}\n",
				"bytecode": {
					"linkReferences": {},
					"object": "60a06040526001600a819055600b819055600c819055600d819055600e81905580806200002d8180620004df565b620000399190620004df565b620000459190620004df565b620000519190620004df565b600f55601080546001600160a01b031990811673506df9716a793d02f89ad32dc858bbb6f26268aa17909155601180548216738714c3adbb728b8ad25cb0c044f57cb8b51bc15517905560128054909116739dfcebe1459c00ea0cb6c5cef541552dd09dd551179055601380547501001f1b4275e27a12affb71a0ccd0b79189f1c9c86e600161ff0160a01b03199091161790556501d1a94a20006014556658d15e1762800060155534801562000106575f80fd5b50604080518082018252600a81526929ba32b63630b929bab760b11b60208083019190915282518084018452600381526253545360e81b918101919091525f80546001600160a01b03191633908117825593519293919260099291907f8be0079c531659141344cd1fd0a4f28419497f9722a3daafe3b4186f6b6457e0908290a36001620001958482620005a3565b506002620001a48382620005a3565b506003805460ff191660ff929092169190911790555050670de0b6b3a7640000600981905560045f620001de5f546001600160a01b031690565b6001600160a01b03166001600160a01b031681526020019081526020015f20819055505f73d99d1c33f9fc3444f8101754abc46c52416550d19050806001600160a01b031663c45a01556040518163ffffffff1660e01b8152600401602060405180830381865afa15801562000256573d5f803e3d5ffd5b505050506040513d601f19601f820116820180604052508101906200027c91906200066f565b6001600160a01b031663c9c6539630836001600160a01b031663ad5c46486040518163ffffffff1660e01b8152600401602060405180830381865afa158015620002c8573d5f803e3d5ffd5b505050506040513d601f19601f82011682018060405250810190620002ee91906200066f565b6040516001600160e01b031960e085901b1681526001600160a01b039283166004820152911660248201526044016020604051808303815f875af115801562000339573d5f803e3d5ffd5b505050506040513d601f19601f820116820180604052508101906200035f91906200066f565b6001600160a01b03908116608081905260038054610100600160a81b031916610100858516021790555f805483168152600660209081526040808320805460ff19908116600190811790925530808652838620805483168417905560108054891687528487208054841685179055601180548a1688528588208054851686179055601280548b1689528689208054861687179055601380548c168a52878a20805487168817905593895260088852868920805486168717905588548b168952868920805486168717905591548a1688528588208054851686179055548916875284872080548416851790555488168652838620805483168417905554909616845281842080548716821790559383528083208054861685179055600790915290208054909216179055336001600160a01b03165f6001600160a01b03167fddf252ad1be2c89b69c2b068fc378daa952ba7f163c4a11628f55a4df523b3ef600954604051620004d091815260200190565b60405180910390a3506200069e565b80820180821115620004ff57634e487b7160e01b5f52601160045260245ffd5b92915050565b634e487b7160e01b5f52604160045260245ffd5b600181811c908216806200052e57607f821691505b6020821081036200054d57634e487b7160e01b5f52602260045260245ffd5b50919050565b601f8211156200059e57805f5260205f20601f840160051c810160208510156200057a5750805b601f840160051c820191505b818110156200059b575f815560010162000586565b50505b505050565b81516001600160401b03811115620005bf57620005bf62000505565b620005d781620005d0845462000519565b8462000553565b602080601f8311600181146200060d575f8415620005f55750858301515b5f19600386901b1c1916600185901b17855562000667565b5f85815260208120601f198616915b828110156200063d578886015182559484019460019091019084016200061c565b50858210156200065b57878501515f19600388901b60f8161c191681555b505060018460011b0185555b505050505050565b5f6020828403121562000680575f80fd5b81516001600160a01b038116811462000697575f80fd5b9392505050565b608051611ea3620006b75f395f6104460152611ea35ff3fe608060405260043610610257575f3560e01c806370a082311161013f578063c49b9a80116100b3578063dd62ed3e11610078578063dd62ed3e1461071a578063e083e9221461075e578063ea2f0b371461077d578063ecfca8991461079c578063f2fde38b146107b1578063f5648a4f146107d0575f80fd5b8063c49b9a801461067a578063c57a6c4414610699578063cc2fbd66146106b8578063d12a7688146106d7578063d1d7d7ef146106ec575f80fd5b806398118cb41161010457806398118cb4146105d4578063a457c2d7146105e9578063a5ece94114610608578063a5f3d00314610627578063a9059cbb1461063c578063afcf2fc41461065b575f80fd5b806370a082311461052e578063715018a614610562578063768dc710146105765780638da5cb5b146105a457806395d89b41146105c0575f80fd5b80633b2d081c116101d65780634a74bb021161019b5780634a74bb02146104875780635b700d91146104a75780635ec270c8146104c6578063638b1b14146104e55780636b67c4df146105045780636c0a24eb14610519575f80fd5b80633b2d081c146103e25780633f33e909146103f7578063437823ec1461041657806349bd5a5e1461043557806349c421e314610468575f80fd5b80631e9fe6c61161021c5780631e9fe6c614610336578063212e3b2b1461036457806323b872dd14610383578063313ce567146103a257806339509351146103c3575f80fd5b806301b95e1d1461026257806306fdde0314610283578063095ea7b3146102ad5780631694505e146102dc57806318160ddd14610318575f80fd5b3661025e57005b5f80fd5b34801561026d575f80fd5b5061028161027c366004611b10565b6107e4565b005b34801561028e575f80fd5b50610297610851565b6040516102a49190611b32565b60405180910390f35b3480156102b8575f80fd5b506102cc6102c7366004611b7e565b6108e1565b60405190151581526020016102a4565b3480156102e7575f80fd5b506003546103009061010090046001600160a01b031681565b6040516001600160a01b0390911681526020016102a4565b348015610323575f80fd5b506009545b6040519081526020016102a4565b348015610341575f80fd5b506102cc610350366004611b10565b60076020525f908152604090205460ff1681565b34801561036f575f80fd5b5061028161037e366004611ba8565b6108f7565b34801561038e575f80fd5b506102cc61039d366004611bbf565b610925565b3480156103ad575f80fd5b5060035460405160ff90911681526020016102a4565b3480156103ce575f80fd5b506102cc6103dd366004611b7e565b610975565b3480156103ed575f80fd5b50610328600d5481565b348015610402575f80fd5b50610281610411366004611b10565b6109ab565b348015610421575f80fd5b50610281610430366004611b10565b6109f4565b348015610440575f80fd5b506103007f000000000000000000000000000000000000000000000000000000000000000081565b348015610473575f80fd5b50610281610482366004611bfd565b610a40565b348015610492575f80fd5b506013546102cc90600160a81b900460ff1681565b3480156104b2575f80fd5b506102816104c1366004611b10565b610b09565b3480156104d1575f80fd5b506102816104e0366004611b10565b610b55565b3480156104f0575f80fd5b50601254610300906001600160a01b031681565b34801561050f575f80fd5b50610328600b5481565b348015610524575f80fd5b5061032860155481565b348015610539575f80fd5b50610328610548366004611b10565b6001600160a01b03165f9081526004602052604090205490565b34801561056d575f80fd5b50610281610bb3565b348015610581575f80fd5b506102cc610590366004611b10565b60066020525f908152604090205460ff1681565b3480156105af575f80fd5b505f546001600160a01b0316610300565b3480156105cb575f80fd5b50610297610c24565b3480156105df575f80fd5b50610328600e5481565b3480156105f4575f80fd5b506102cc610603366004611b7e565b610c33565b348015610613575f80fd5b50601154610300906001600160a01b031681565b348015610632575f80fd5b50610328600c5481565b348015610647575f80fd5b506102cc610656366004611b7e565b610c69565b348015610666575f80fd5b50601054610300906001600160a01b031681565b348015610685575f80fd5b50610281610694366004611c41565b610c75565b3480156106a4575f80fd5b506102816106b3366004611ba8565b610cf6565b3480156106c3575f80fd5b50601354610300906001600160a01b031681565b3480156106e2575f80fd5b5061032860145481565b3480156106f7575f80fd5b506102cc610706366004611b10565b60086020525f908152604090205460ff1681565b348015610725575f80fd5b50610328610734366004611c5c565b6001600160a01b039182165f90815260056020908152604080832093909416825291909152205490565b348015610769575f80fd5b50610281610778366004611b10565b610d24565b348015610788575f80fd5b50610281610797366004611b10565b610f58565b3480156107a7575f80fd5b50610328600a5481565b3480156107bc575f80fd5b506102816107cb366004611b10565b610fa1565b3480156107db575f80fd5b50610281611088565b5f546001600160a01b031633146108165760405162461bcd60e51b815260040161080d90611c93565b60405180910390fd5b6001600160a01b03165f9081526007602090815260408083208054600160ff1991821681179092556008909352922080549091169091179055565b60606001805461086090611cc8565b80601f016020809104026020016040519081016040528092919081815260200182805461088c90611cc8565b80156108d75780601f106108ae576101008083540402835291602001916108d7565b820191905f5260205f20905b8154815290600101906020018083116108ba57829003601f168201915b5050505050905090565b5f6108ed33848461113a565b5060015b92915050565b5f546001600160a01b031633146109205760405162461bcd60e51b815260040161080d90611c93565b601555565b5f61093184848461125d565b6001600160a01b0384165f9081526005602090815260408083203380855292529091205461096b918691610966908690611d14565b61113a565b5060019392505050565b335f8181526005602090815260408083206001600160a01b038716845290915281205490916108ed918590610966908690611d27565b5f546001600160a01b031633146109d45760405162461bcd60e51b815260040161080d90611c93565b6001600160a01b03165f908152600860205260409020805460ff19169055565b5f546001600160a01b03163314610a1d5760405162461bcd60e51b815260040161080d90611c93565b6001600160a01b03165f908152600660205260409020805460ff19166001179055565b5f546001600160a01b03163314610a695760405162461bcd60e51b815260040161080d90611c93565b600e859055600a849055600b839055600c829055600d819055808284610a8f8789611d27565b610a999190611d27565b610aa39190611d27565b610aad9190611d27565b600f819055600a1015610b025760405162461bcd60e51b815260206004820152601e60248201527f4665652069732063726f7373696e672074686520626f756e6461726965730000604482015260640161080d565b5050505050565b5f546001600160a01b03163314610b325760405162461bcd60e51b815260040161080d90611c93565b6001600160a01b03165f908152600860205260409020805460ff19166001179055565b5f546001600160a01b03163314610b7e5760405162461bcd60e51b815260040161080d90611c93565b6001600160a01b03165f908152600760209081526040808320805460ff19908116909155600890925290912080549091169055565b5f546001600160a01b03163314610bdc5760405162461bcd60e51b815260040161080d90611c93565b5f80546040516001600160a01b03909116907f8be0079c531659141344cd1fd0a4f28419497f9722a3daafe3b4186f6b6457e0908390a35f80546001600160a01b0319169055565b60606002805461086090611cc8565b335f8181526005602090815260408083206001600160a01b038716845290915281205490916108ed918590610966908690611d14565b5f6108ed33848461125d565b5f546001600160a01b03163314610c9e5760405162461bcd60e51b815260040161080d90611c93565b60138054821515600160a81b0260ff60a81b199091161790556040517f53726dfcaf90650aa7eb35524f4d3220f07413c8d6cb404cc8c18bf5591bc15990610ceb90831515815260200190565b60405180910390a150565b5f546001600160a01b03163314610d1f5760405162461bcd60e51b815260040161080d90611c93565b601455565b5f546001600160a01b03163314610d4d5760405162461bcd60e51b815260040161080d90611c93565b306001600160a01b03821603610dba5760405162461bcd60e51b815260206004820152602c60248201527f43616e277420776974686472617720746f6b656e732064657374696e6564206660448201526b6f72206c697175696469747960a01b606482015260840161080d565b6040516370a0823160e01b81523060048201525f906001600160a01b038316906370a0823190602401602060405180830381865afa158015610dfe573d5f803e3d5ffd5b505050506040513d601f19601f82011682018060405250810190610e229190611d3a565b11610e625760405162461bcd60e51b815260206004820152601060248201526f043616e277420776974686472617720360841b604482015260640161080d565b806001600160a01b031663a9059cbb610e825f546001600160a01b031690565b6040516370a0823160e01b81523060048201526001600160a01b038516906370a0823190602401602060405180830381865afa158015610ec4573d5f803e3d5ffd5b505050506040513d601f19601f82011682018060405250810190610ee89190611d3a565b6040516001600160e01b031960e085901b1681526001600160a01b03909216600483015260248201526044016020604051808303815f875af1158015610f30573d5f803e3d5ffd5b505050506040513d601f19601f82011682018060405250810190610f549190611d51565b5050565b5f546001600160a01b03163314610f815760405162461bcd60e51b815260040161080d90611c93565b6001600160a01b03165f908152600660205260409020805460ff19169055565b5f546001600160a01b03163314610fca5760405162461bcd60e51b815260040161080d90611c93565b6001600160a01b03811661102f5760405162461bcd60e51b815260206004820152602660248201527f4f776e61626c653a206e6577206f776e657220697320746865207a65726f206160448201526564647265737360d01b606482015260840161080d565b5f80546040516001600160a01b03808516939216917f8be0079c531659141344cd1fd0a4f28419497f9722a3daafe3b4186f6b6457e091a35f80546001600160a01b0319166001600160a01b0392909216919091179055565b5f546001600160a01b031633146110b15760405162461bcd60e51b815260040161080d90611c93565b5f47116111005760405162461bcd60e51b815260206004820152601f60248201527f43616e2774207769746864726177206e65676174697665206f72207a65726f00604482015260640161080d565b5f80546040516001600160a01b03909116914780156108fc02929091818181858888f19350505050158015611137573d5f803e3d5ffd5b50565b6001600160a01b03831661119c5760405162461bcd60e51b8152602060048201526024808201527f42455032303a20617070726f76652066726f6d20746865207a65726f206164646044820152637265737360e01b606482015260840161080d565b6001600160a01b0382166111fd5760405162461bcd60e51b815260206004820152602260248201527f42455032303a20617070726f766520746f20746865207a65726f206164647265604482015261737360f01b606482015260840161080d565b6001600160a01b038381165f8181526005602090815260408083209487168084529482529182902085905590518481527f8c5be1e5ebec7d5bd14f71427d1e84f3dd0314c0f7b2291e5b200ac8c7c3b925910160405180910390a3505050565b6001600160a01b0383166112c15760405162461bcd60e51b815260206004820152602560248201527f42455032303a207472616e736665722066726f6d20746865207a65726f206164604482015264647265737360d81b606482015260840161080d565b6001600160a01b0382166113235760405162461bcd60e51b815260206004820152602360248201527f42455032303a207472616e7366657220746f20746865207a65726f206164647260448201526265737360e81b606482015260840161080d565b6001600160a01b0382165f9081526008602052604090205460ff166113b55760155481611364846001600160a01b03165f9081526004602052604090205490565b61136e9190611d27565b11156113b55760405162461bcd60e51b81526020600482015260166024820152754d6178696d756d2077616c6c6574206c696d6974212160501b604482015260640161080d565b6001600160a01b0383165f9081526006602052604090205460019060ff16806113f557506001600160a01b0383165f9081526006602052604090205460ff165b156113fd57505f5b6001600160a01b0383165f9081526007602052604090205460ff1615801561143d57506001600160a01b0384165f9081526007602052604090205460ff16155b1561144557505f5b305f90815260046020526040902054601454811080159081906114725750601354600160a01b900460ff16155b801561149657506001600160a01b0386165f9081526007602052604090205460ff16155b80156114ab5750601354600160a81b900460ff165b80156114b45750825b156114c75760145491506114c7826116cd565b8215611617575f60646114d9600f5490565b6114e39087611d6c565b6114ed9190611d83565b90505f6114fa8287611d14565b6001600160a01b0389165f90815260046020526040902054909150611520908790611d14565b6001600160a01b03808a165f90815260046020526040808220939093559089168152205461154f908290611d27565b6001600160a01b0388165f9081526004602052604080822092909255308152205461157b908390611d27565b305f9081526004602090815260409182902092909255518281526001600160a01b0389811692908b16917fddf252ad1be2c89b69c2b068fc378daa952ba7f163c4a11628f55a4df523b3ef910160405180910390a360405182815230906001600160a01b038a16907fddf252ad1be2c89b69c2b068fc378daa952ba7f163c4a11628f55a4df523b3ef9060200160405180910390a350506116c5565b6001600160a01b0386165f9081526004602052604090205461163a908590611d14565b6001600160a01b038088165f908152600460205260408082209390935590871681522054611669908590611d27565b6001600160a01b038087165f8181526004602052604090819020939093559151908816907fddf252ad1be2c89b69c2b068fc378daa952ba7f163c4a11628f55a4df523b3ef906116bc9088815260200190565b60405180910390a35b505050505050565b6013805460ff60a01b1916600160a01b1790555f60026116ec600f5490565b600e546116f99085611d6c565b6117039190611d83565b61170d9190611d83565b90505f61171a8284611d14565b6040805160028082526060820183529293505f92909160208301908036833701905050905030815f8151811061175257611752611da2565b60200260200101906001600160a01b031690816001600160a01b031681525050600360019054906101000a90046001600160a01b03166001600160a01b031663ad5c46486040518163ffffffff1660e01b8152600401602060405180830381865afa1580156117c3573d5f803e3d5ffd5b505050506040513d601f19601f820116820180604052508101906117e79190611db6565b816001815181106117fa576117fa611da2565b6001600160a01b0392831660209182029290920101526003546118259130916101009004168661113a565b60035460405163791ac94760e01b81526101009091046001600160a01b03169063791ac947906118619085905f90869030904290600401611dd1565b5f604051808303815f87803b158015611878575f80fd5b505af115801561188a573d5f803e3d5ffd5b5050600e544792505f91506118a190600290611d83565b600f546118ae9190611d14565b90505f600282600e54856118c29190611d6c565b6118cc9190611d83565b6118d69190611d83565b90505f82600a54856118e89190611d6c565b6118f29190611d83565b90505f83600b54866119049190611d6c565b61190e9190611d83565b90505f84600c54876119209190611d6c565b61192a9190611d83565b90505f85600d548861193c9190611d6c565b6119469190611d83565b90506119528a86611a4c565b6010546040516001600160a01b039091169085156108fc029086905f818181858888f19350505050158015611989573d5f803e3d5ffd5b506011546040516001600160a01b039091169084156108fc029085905f818181858888f193505050501580156119c1573d5f803e3d5ffd5b506012546040516001600160a01b039091169083156108fc029084905f818181858888f193505050501580156119f9573d5f803e3d5ffd5b506013546040516001600160a01b039091169082156108fc029083905f818181858888f19350505050158015611a31573d5f803e3d5ffd5b50506013805460ff60a01b1916905550505050505050505050565b600354611a6990309061010090046001600160a01b03168461113a565b60035460405163f305d71960e01b8152306004820152602481018490525f604482018190526064820181905260848201524260a48201526101009091046001600160a01b03169063f305d71990839060c40160606040518083038185885af1158015611ad7573d5f803e3d5ffd5b50505050506040513d601f19601f82011682018060405250810190610b029190611e42565b6001600160a01b0381168114611137575f80fd5b5f60208284031215611b20575f80fd5b8135611b2b81611afc565b9392505050565b5f602080835283518060208501525f5b81811015611b5e57858101830151858201604001528201611b42565b505f604082860101526040601f19601f8301168501019250505092915050565b5f8060408385031215611b8f575f80fd5b8235611b9a81611afc565b946020939093013593505050565b5f60208284031215611bb8575f80fd5b5035919050565b5f805f60608486031215611bd1575f80fd5b8335611bdc81611afc565b92506020840135611bec81611afc565b929592945050506040919091013590565b5f805f805f60a08688031215611c11575f80fd5b505083359560208501359550604085013594606081013594506080013592509050565b8015158114611137575f80fd5b5f60208284031215611c51575f80fd5b8135611b2b81611c34565b5f8060408385031215611c6d575f80fd5b8235611c7881611afc565b91506020830135611c8881611afc565b809150509250929050565b6020808252818101527f4f776e61626c653a2063616c6c6572206973206e6f7420746865206f776e6572604082015260600190565b600181811c90821680611cdc57607f821691505b602082108103611cfa57634e487b7160e01b5f52602260045260245ffd5b50919050565b634e487b7160e01b5f52601160045260245ffd5b818103818111156108f1576108f1611d00565b808201808211156108f1576108f1611d00565b5f60208284031215611d4a575f80fd5b5051919050565b5f60208284031215611d61575f80fd5b8151611b2b81611c34565b80820281158282048414176108f1576108f1611d00565b5f82611d9d57634e487b7160e01b5f52601260045260245ffd5b500490565b634e487b7160e01b5f52603260045260245ffd5b5f60208284031215611dc6575f80fd5b8151611b2b81611afc565b5f60a08201878352602087602085015260a0604085015281875180845260c0860191506020890193505f5b81811015611e215784516001600160a01b031683529383019391830191600101611dfc565b50506001600160a01b03969096166060850152505050608001529392505050565b5f805f60608486031215611e54575f80fd5b835192506020840151915060408401519050925092509256fea2646970667358221220ca8fd58c1587e66e64d7aadeac06ff3c26648e5c6d764d1a6004bf09a79faf8d64736f6c63430008180033",
					"opcodes": "PUSH1 0xA0 PUSH1 0x40 MSTORE PUSH1 0x1 PUSH1 0xA DUP2 SWAP1 SSTORE PUSH1 0xB DUP2 SWAP1 SSTORE PUSH1 0xC DUP2 SWAP1 SSTORE PUSH1 0xD DUP2 SWAP1 SSTORE PUSH1 0xE DUP2 SWAP1 SSTORE DUP1 DUP1 PUSH3 0x2D DUP2 DUP1 PUSH3 0x4DF JUMP JUMPDEST PUSH3 0x39 SWAP2 SWAP1 PUSH3 0x4DF JUMP JUMPDEST PUSH3 0x45 SWAP2 SWAP1 PUSH3 0x4DF JUMP JUMPDEST PUSH3 0x51 SWAP2 SWAP1 PUSH3 0x4DF JUMP JUMPDEST PUSH1 0xF SSTORE PUSH1 0x10 DUP1 SLOAD PUSH1 0x1 PUSH1 0x1 PUSH1 0xA0 SHL SUB NOT SWAP1 DUP2 AND PUSH20 0x506DF9716A793D02F89AD32DC858BBB6F26268AA OR SWAP1 SWAP2 SSTORE PUSH1 0x11 DUP1 SLOAD DUP3 AND PUSH20 0x8714C3ADBB728B8AD25CB0C044F57CB8B51BC155 OR SWAP1 SSTORE PUSH1 0x12 DUP1 SLOAD SWAP1 SWAP2 AND PUSH20 0x9DFCEBE1459C00EA0CB6C5CEF541552DD09DD551 OR SWAP1 SSTORE PUSH1 0x13 DUP1 SLOAD PUSH22 0x1001F1B4275E27A12AFFB71A0CCD0B79189F1C9C86E PUSH1 0x1 PUSH2 0xFF01 PUSH1 0xA0 SHL SUB NOT SWAP1 SWAP2 AND OR SWAP1 SSTORE PUSH6 0x1D1A94A2000 PUSH1 0x14 SSTORE PUSH7 0x58D15E17628000 PUSH1 0x15 SSTORE CALLVALUE DUP1 ISZERO PUSH3 0x106 JUMPI PUSH0 DUP1 REVERT JUMPDEST POP PUSH1 0x40 DUP1 MLOAD DUP1 DUP3 ADD DUP3 MSTORE PUSH1 0xA DUP2 MSTORE PUSH10 0x29BA32B63630B929BAB7 PUSH1 0xB1 SHL PUSH1 0x20 DUP1 DUP4 ADD SWAP2 SWAP1 SWAP2 MSTORE DUP3 MLOAD DUP1 DUP5 ADD DUP5 MSTORE PUSH1 0x3 DUP2 MSTORE PUSH3 0x535453 PUSH1 0xE8 SHL SWAP2 DUP2 ADD SWAP2 SWAP1 SWAP2 MSTORE PUSH0 DUP1 SLOAD PUSH1 0x1 PUSH1 0x1 PUSH1 0xA0 SHL SUB NOT AND CALLER SWAP1 DUP2 OR DUP3 SSTORE SWAP4 MLOAD SWAP3 SWAP4 SWAP2 SWAP3 PUSH1 0x9 SWAP3 SWAP2 SWAP1 PUSH32 0x8BE0079C531659141344CD1FD0A4F28419497F9722A3DAAFE3B4186F6B6457E0 SWAP1 DUP3 SWAP1 LOG3 PUSH1 0x1 PUSH3 0x195 DUP5 DUP3 PUSH3 0x5A3 JUMP JUMPDEST POP PUSH1 0x2 PUSH3 0x1A4 DUP4 DUP3 PUSH3 0x5A3 JUMP JUMPDEST POP PUSH1 0x3 DUP1 SLOAD PUSH1 0xFF NOT AND PUSH1 0xFF SWAP3 SWAP1 SWAP3 AND SWAP2 SWAP1 SWAP2 OR SWAP1 SSTORE POP POP PUSH8 0xDE0B6B3A7640000 PUSH1 0x9 DUP2 SWAP1 SSTORE PUSH1 0x4 PUSH0 PUSH3 0x1DE PUSH0 SLOAD PUSH1 0x1 PUSH1 0x1 PUSH1 0xA0 SHL SUB AND SWAP1 JUMP JUMPDEST PUSH1 0x1 PUSH1 0x1 PUSH1 0xA0 SHL SUB AND PUSH1 0x1 PUSH1 0x1 PUSH1 0xA0 SHL SUB AND DUP2 MSTORE PUSH1 0x20 ADD SWAP1 DUP2 MSTORE PUSH1 0x20 ADD PUSH0 KECCAK256 DUP2 SWAP1 SSTORE POP PUSH0 PUSH20 0xD99D1C33F9FC3444F8101754ABC46C52416550D1 SWAP1 POP DUP1 PUSH1 0x1 PUSH1 0x1 PUSH1 0xA0 SHL SUB AND PUSH4 0xC45A0155 PUSH1 0x40 MLOAD DUP2 PUSH4 0xFFFFFFFF AND PUSH1 0xE0 SHL DUP2 MSTORE PUSH1 0x4 ADD PUSH1 0x20 PUSH1 0x40 MLOAD DUP1 DUP4 SUB DUP2 DUP7 GAS STATICCALL ISZERO DUP1 ISZERO PUSH3 0x256 JUMPI RETURNDATASIZE PUSH0 DUP1 RETURNDATACOPY RETURNDATASIZE PUSH0 REVERT JUMPDEST POP POP POP POP PUSH1 0x40 MLOAD RETURNDATASIZE PUSH1 0x1F NOT PUSH1 0x1F DUP3 ADD AND DUP3 ADD DUP1 PUSH1 0x40 MSTORE POP DUP2 ADD SWAP1 PUSH3 0x27C SWAP2 SWAP1 PUSH3 0x66F JUMP JUMPDEST PUSH1 0x1 PUSH1 0x1 PUSH1 0xA0 SHL SUB AND PUSH4 0xC9C65396 ADDRESS DUP4 PUSH1 0x1 PUSH1 0x1 PUSH1 0xA0 SHL SUB AND PUSH4 0xAD5C4648 PUSH1 0x40 MLOAD DUP2 PUSH4 0xFFFFFFFF AND PUSH1 0xE0 SHL DUP2 MSTORE PUSH1 0x4 ADD PUSH1 0x20 PUSH1 0x40 MLOAD DUP1 DUP4 SUB DUP2 DUP7 GAS STATICCALL ISZERO DUP1 ISZERO PUSH3 0x2C8 JUMPI RETURNDATASIZE PUSH0 DUP1 RETURNDATACOPY RETURNDATASIZE PUSH0 REVERT JUMPDEST POP POP POP POP PUSH1 0x40 MLOAD RETURNDATASIZE PUSH1 0x1F NOT PUSH1 0x1F DUP3 ADD AND DUP3 ADD DUP1 PUSH1 0x40 MSTORE POP DUP2 ADD SWAP1 PUSH3 0x2EE SWAP2 SWAP1 PUSH3 0x66F JUMP JUMPDEST PUSH1 0x40 MLOAD PUSH1 0x1 PUSH1 0x1 PUSH1 0xE0 SHL SUB NOT PUSH1 0xE0 DUP6 SWAP1 SHL AND DUP2 MSTORE PUSH1 0x1 PUSH1 0x1 PUSH1 0xA0 SHL SUB SWAP3 DUP4 AND PUSH1 0x4 DUP3 ADD MSTORE SWAP2 AND PUSH1 0x24 DUP3 ADD MSTORE PUSH1 0x44 ADD PUSH1 0x20 PUSH1 0x40 MLOAD DUP1 DUP4 SUB DUP2 PUSH0 DUP8 GAS CALL ISZERO DUP1 ISZERO PUSH3 0x339 JUMPI RETURNDATASIZE PUSH0 DUP1 RETURNDATACOPY RETURNDATASIZE PUSH0 REVERT JUMPDEST POP POP POP POP PUSH1 0x40 MLOAD RETURNDATASIZE PUSH1 0x1F NOT PUSH1 0x1F DUP3 ADD AND DUP3 ADD DUP1 PUSH1 0x40 MSTORE POP DUP2 ADD SWAP1 PUSH3 0x35F SWAP2 SWAP1 PUSH3 0x66F JUMP JUMPDEST PUSH1 0x1 PUSH1 0x1 PUSH1 0xA0 SHL SUB SWAP1 DUP2 AND PUSH1 0x80 DUP2 SWAP1 MSTORE PUSH1 0x3 DUP1 SLOAD PUSH2 0x100 PUSH1 0x1 PUSH1 0xA8 SHL SUB NOT AND PUSH2 0x100 DUP6 DUP6 AND MUL OR SWAP1 SSTORE PUSH0 DUP1 SLOAD DUP4 AND DUP2 MSTORE PUSH1 0x6 PUSH1 0x20 SWAP1 DUP2 MSTORE PUSH1 0x40 DUP1 DUP4 KECCAK256 DUP1 SLOAD PUSH1 0xFF NOT SWAP1 DUP2 AND PUSH1 0x1 SWAP1 DUP2 OR SWAP1 SWAP3 SSTORE ADDRESS DUP1 DUP7 MSTORE DUP4 DUP7 KECCAK256 DUP1 SLOAD DUP4 AND DUP5 OR SWAP1 SSTORE PUSH1 0x10 DUP1 SLOAD DUP10 AND DUP8 MSTORE DUP5 DUP8 KECCAK256 DUP1 SLOAD DUP5 AND DUP6 OR SWAP1 SSTORE PUSH1 0x11 DUP1 SLOAD DUP11 AND DUP9 MSTORE DUP6 DUP9 KECCAK256 DUP1 SLOAD DUP6 AND DUP7 OR SWAP1 SSTORE PUSH1 0x12 DUP1 SLOAD DUP12 AND DUP10 MSTORE DUP7 DUP10 KECCAK256 DUP1 SLOAD DUP7 AND DUP8 OR SWAP1 SSTORE PUSH1 0x13 DUP1 SLOAD DUP13 AND DUP11 MSTORE DUP8 DUP11 KECCAK256 DUP1 SLOAD DUP8 AND DUP9 OR SWAP1 SSTORE SWAP4 DUP10 MSTORE PUSH1 0x8 DUP9 MSTORE DUP7 DUP10 KECCAK256 DUP1 SLOAD DUP7 AND DUP8 OR SWAP1 SSTORE DUP9 SLOAD DUP12 AND DUP10 MSTORE DUP7 DUP10 KECCAK256 DUP1 SLOAD DUP7 AND DUP8 OR SWAP1 SSTORE SWAP2 SLOAD DUP11 AND DUP9 MSTORE DUP6 DUP9 KECCAK256 DUP1 SLOAD DUP6 AND DUP7 OR SWAP1 SSTORE SLOAD DUP10 AND DUP8 MSTORE DUP5 DUP8 KECCAK256 DUP1 SLOAD DUP5 AND DUP6 OR SWAP1 SSTORE SLOAD DUP9 AND DUP7 MSTORE DUP4 DUP7 KECCAK256 DUP1 SLOAD DUP4 AND DUP5 OR SWAP1 SSTORE SLOAD SWAP1 SWAP7 AND DUP5 MSTORE DUP2 DUP5 KECCAK256 DUP1 SLOAD DUP8 AND DUP3 OR SWAP1 SSTORE SWAP4 DUP4 MSTORE DUP1 DUP4 KECCAK256 DUP1 SLOAD DUP7 AND DUP6 OR SWAP1 SSTORE PUSH1 0x7 SWAP1 SWAP2 MSTORE SWAP1 KECCAK256 DUP1 SLOAD SWAP1 SWAP3 AND OR SWAP1 SSTORE CALLER PUSH1 0x1 PUSH1 0x1 PUSH1 0xA0 SHL SUB AND PUSH0 PUSH1 0x1 PUSH1 0x1 PUSH1 0xA0 SHL SUB AND PUSH32 0xDDF252AD1BE2C89B69C2B068FC378DAA952BA7F163C4A11628F55A4DF523B3EF PUSH1 0x9 SLOAD PUSH1 0x40 MLOAD PUSH3 0x4D0 SWAP2 DUP2 MSTORE PUSH1 0x20 ADD SWAP1 JUMP JUMPDEST PUSH1 0x40 MLOAD DUP1 SWAP2 SUB SWAP1 LOG3 POP PUSH3 0x69E JUMP JUMPDEST DUP1 DUP3 ADD DUP1 DUP3 GT ISZERO PUSH3 0x4FF JUMPI PUSH4 0x4E487B71 PUSH1 0xE0 SHL PUSH0 MSTORE PUSH1 0x11 PUSH1 0x4 MSTORE PUSH1 0x24 PUSH0 REVERT JUMPDEST SWAP3 SWAP2 POP POP JUMP JUMPDEST PUSH4 0x4E487B71 PUSH1 0xE0 SHL PUSH0 MSTORE PUSH1 0x41 PUSH1 0x4 MSTORE PUSH1 0x24 PUSH0 REVERT JUMPDEST PUSH1 0x1 DUP2 DUP2 SHR SWAP1 DUP3 AND DUP1 PUSH3 0x52E JUMPI PUSH1 0x7F DUP3 AND SWAP2 POP JUMPDEST PUSH1 0x20 DUP3 LT DUP2 SUB PUSH3 0x54D JUMPI PUSH4 0x4E487B71 PUSH1 0xE0 SHL PUSH0 MSTORE PUSH1 0x22 PUSH1 0x4 MSTORE PUSH1 0x24 PUSH0 REVERT JUMPDEST POP SWAP2 SWAP1 POP JUMP JUMPDEST PUSH1 0x1F DUP3 GT ISZERO PUSH3 0x59E JUMPI DUP1 PUSH0 MSTORE PUSH1 0x20 PUSH0 KECCAK256 PUSH1 0x1F DUP5 ADD PUSH1 0x5 SHR DUP2 ADD PUSH1 0x20 DUP6 LT ISZERO PUSH3 0x57A JUMPI POP DUP1 JUMPDEST PUSH1 0x1F DUP5 ADD PUSH1 0x5 SHR DUP3 ADD SWAP2 POP JUMPDEST DUP2 DUP2 LT ISZERO PUSH3 0x59B JUMPI PUSH0 DUP2 SSTORE PUSH1 0x1 ADD PUSH3 0x586 JUMP JUMPDEST POP POP JUMPDEST POP POP POP JUMP JUMPDEST DUP2 MLOAD PUSH1 0x1 PUSH1 0x1 PUSH1 0x40 SHL SUB DUP2 GT ISZERO PUSH3 0x5BF JUMPI PUSH3 0x5BF PUSH3 0x505 JUMP JUMPDEST PUSH3 0x5D7 DUP2 PUSH3 0x5D0 DUP5 SLOAD PUSH3 0x519 JUMP JUMPDEST DUP5 PUSH3 0x553 JUMP JUMPDEST PUSH1 0x20 DUP1 PUSH1 0x1F DUP4 GT PUSH1 0x1 DUP2 EQ PUSH3 0x60D JUMPI PUSH0 DUP5 ISZERO PUSH3 0x5F5 JUMPI POP DUP6 DUP4 ADD MLOAD JUMPDEST PUSH0 NOT PUSH1 0x3 DUP7 SWAP1 SHL SHR NOT AND PUSH1 0x1 DUP6 SWAP1 SHL OR DUP6 SSTORE PUSH3 0x667 JUMP JUMPDEST PUSH0 DUP6 DUP2 MSTORE PUSH1 0x20 DUP2 KECCAK256 PUSH1 0x1F NOT DUP7 AND SWAP2 JUMPDEST DUP3 DUP2 LT ISZERO PUSH3 0x63D JUMPI DUP9 DUP7 ADD MLOAD DUP3 SSTORE SWAP5 DUP5 ADD SWAP5 PUSH1 0x1 SWAP1 SWAP2 ADD SWAP1 DUP5 ADD PUSH3 0x61C JUMP JUMPDEST POP DUP6 DUP3 LT ISZERO PUSH3 0x65B JUMPI DUP8 DUP6 ADD MLOAD PUSH0 NOT PUSH1 0x3 DUP9 SWAP1 SHL PUSH1 0xF8 AND SHR NOT AND DUP2 SSTORE JUMPDEST POP POP PUSH1 0x1 DUP5 PUSH1 0x1 SHL ADD DUP6 SSTORE JUMPDEST POP POP POP POP POP POP JUMP JUMPDEST PUSH0 PUSH1 0x20 DUP3 DUP5 SUB SLT ISZERO PUSH3 0x680 JUMPI PUSH0 DUP1 REVERT JUMPDEST DUP2 MLOAD PUSH1 0x1 PUSH1 0x1 PUSH1 0xA0 SHL SUB DUP2 AND DUP2 EQ PUSH3 0x697 JUMPI PUSH0 DUP1 REVERT JUMPDEST SWAP4 SWAP3 POP POP POP JUMP JUMPDEST PUSH1 0x80 MLOAD PUSH2 0x1EA3 PUSH3 0x6B7 PUSH0 CODECOPY PUSH0 PUSH2 0x446 ADD MSTORE PUSH2 0x1EA3 PUSH0 RETURN INVALID PUSH1 0x80 PUSH1 0x40 MSTORE PUSH1 0x4 CALLDATASIZE LT PUSH2 0x257 JUMPI PUSH0 CALLDATALOAD PUSH1 0xE0 SHR DUP1 PUSH4 0x70A08231 GT PUSH2 0x13F JUMPI DUP1 PUSH4 0xC49B9A80 GT PUSH2 0xB3 JUMPI DUP1 PUSH4 0xDD62ED3E GT PUSH2 0x78 JUMPI DUP1 PUSH4 0xDD62ED3E EQ PUSH2 0x71A JUMPI DUP1 PUSH4 0xE083E922 EQ PUSH2 0x75E JUMPI DUP1 PUSH4 0xEA2F0B37 EQ PUSH2 0x77D JUMPI DUP1 PUSH4 0xECFCA899 EQ PUSH2 0x79C JUMPI DUP1 PUSH4 0xF2FDE38B EQ PUSH2 0x7B1 JUMPI DUP1 PUSH4 0xF5648A4F EQ PUSH2 0x7D0 JUMPI PUSH0 DUP1 REVERT JUMPDEST DUP1 PUSH4 0xC49B9A80 EQ PUSH2 0x67A JUMPI DUP1 PUSH4 0xC57A6C44 EQ PUSH2 0x699 JUMPI DUP1 PUSH4 0xCC2FBD66 EQ PUSH2 0x6B8 JUMPI DUP1 PUSH4 0xD12A7688 EQ PUSH2 0x6D7 JUMPI DUP1 PUSH4 0xD1D7D7EF EQ PUSH2 0x6EC JUMPI PUSH0 DUP1 REVERT JUMPDEST DUP1 PUSH4 0x98118CB4 GT PUSH2 0x104 JUMPI DUP1 PUSH4 0x98118CB4 EQ PUSH2 0x5D4 JUMPI DUP1 PUSH4 0xA457C2D7 EQ PUSH2 0x5E9 JUMPI DUP1 PUSH4 0xA5ECE941 EQ PUSH2 0x608 JUMPI DUP1 PUSH4 0xA5F3D003 EQ PUSH2 0x627 JUMPI DUP1 PUSH4 0xA9059CBB EQ PUSH2 0x63C JUMPI DUP1 PUSH4 0xAFCF2FC4 EQ PUSH2 0x65B JUMPI PUSH0 DUP1 REVERT JUMPDEST DUP1 PUSH4 0x70A08231 EQ PUSH2 0x52E JUMPI DUP1 PUSH4 0x715018A6 EQ PUSH2 0x562 JUMPI DUP1 PUSH4 0x768DC710 EQ PUSH2 0x576 JUMPI DUP1 PUSH4 0x8DA5CB5B EQ PUSH2 0x5A4 JUMPI DUP1 PUSH4 0x95D89B41 EQ PUSH2 0x5C0 JUMPI PUSH0 DUP1 REVERT JUMPDEST DUP1 PUSH4 0x3B2D081C GT PUSH2 0x1D6 JUMPI DUP1 PUSH4 0x4A74BB02 GT PUSH2 0x19B JUMPI DUP1 PUSH4 0x4A74BB02 EQ PUSH2 0x487 JUMPI DUP1 PUSH4 0x5B700D91 EQ PUSH2 0x4A7 JUMPI DUP1 PUSH4 0x5EC270C8 EQ PUSH2 0x4C6 JUMPI DUP1 PUSH4 0x638B1B14 EQ PUSH2 0x4E5 JUMPI DUP1 PUSH4 0x6B67C4DF EQ PUSH2 0x504 JUMPI DUP1 PUSH4 0x6C0A24EB EQ PUSH2 0x519 JUMPI PUSH0 DUP1 REVERT JUMPDEST DUP1 PUSH4 0x3B2D081C EQ PUSH2 0x3E2 JUMPI DUP1 PUSH4 0x3F33E909 EQ PUSH2 0x3F7 JUMPI DUP1 PUSH4 0x437823EC EQ PUSH2 0x416 JUMPI DUP1 PUSH4 0x49BD5A5E EQ PUSH2 0x435 JUMPI DUP1 PUSH4 0x49C421E3 EQ PUSH2 0x468 JUMPI PUSH0 DUP1 REVERT JUMPDEST DUP1 PUSH4 0x1E9FE6C6 GT PUSH2 0x21C JUMPI DUP1 PUSH4 0x1E9FE6C6 EQ PUSH2 0x336 JUMPI DUP1 PUSH4 0x212E3B2B EQ PUSH2 0x364 JUMPI DUP1 PUSH4 0x23B872DD EQ PUSH2 0x383 JUMPI DUP1 PUSH4 0x313CE567 EQ PUSH2 0x3A2 JUMPI DUP1 PUSH4 0x39509351 EQ PUSH2 0x3C3 JUMPI PUSH0 DUP1 REVERT JUMPDEST DUP1 PUSH4 0x1B95E1D EQ PUSH2 0x262 JUMPI DUP1 PUSH4 0x6FDDE03 EQ PUSH2 0x283 JUMPI DUP1 PUSH4 0x95EA7B3 EQ PUSH2 0x2AD JUMPI DUP1 PUSH4 0x1694505E EQ PUSH2 0x2DC JUMPI DUP1 PUSH4 0x18160DDD EQ PUSH2 0x318 JUMPI PUSH0 DUP1 REVERT JUMPDEST CALLDATASIZE PUSH2 0x25E JUMPI STOP JUMPDEST PUSH0 DUP1 REVERT JUMPDEST CALLVALUE DUP1 ISZERO PUSH2 0x26D JUMPI PUSH0 DUP1 REVERT JUMPDEST POP PUSH2 0x281 PUSH2 0x27C CALLDATASIZE PUSH1 0x4 PUSH2 0x1B10 JUMP JUMPDEST PUSH2 0x7E4 JUMP JUMPDEST STOP JUMPDEST CALLVALUE DUP1 ISZERO PUSH2 0x28E JUMPI PUSH0 DUP1 REVERT JUMPDEST POP PUSH2 0x297 PUSH2 0x851 JUMP JUMPDEST PUSH1 0x40 MLOAD PUSH2 0x2A4 SWAP2 SWAP1 PUSH2 0x1B32 JUMP JUMPDEST PUSH1 0x40 MLOAD DUP1 SWAP2 SUB SWAP1 RETURN JUMPDEST CALLVALUE DUP1 ISZERO PUSH2 0x2B8 JUMPI PUSH0 DUP1 REVERT JUMPDEST POP PUSH2 0x2CC PUSH2 0x2C7 CALLDATASIZE PUSH1 0x4 PUSH2 0x1B7E JUMP JUMPDEST PUSH2 0x8E1 JUMP JUMPDEST PUSH1 0x40 MLOAD SWAP1 ISZERO ISZERO DUP2 MSTORE PUSH1 0x20 ADD PUSH2 0x2A4 JUMP JUMPDEST CALLVALUE DUP1 ISZERO PUSH2 0x2E7 JUMPI PUSH0 DUP1 REVERT JUMPDEST POP PUSH1 0x3 SLOAD PUSH2 0x300 SWAP1 PUSH2 0x100 SWAP1 DIV PUSH1 0x1 PUSH1 0x1 PUSH1 0xA0 SHL SUB AND DUP2 JUMP JUMPDEST PUSH1 0x40 MLOAD PUSH1 0x1 PUSH1 0x1 PUSH1 0xA0 SHL SUB SWAP1 SWAP2 AND DUP2 MSTORE PUSH1 0x20 ADD PUSH2 0x2A4 JUMP JUMPDEST CALLVALUE DUP1 ISZERO PUSH2 0x323 JUMPI PUSH0 DUP1 REVERT JUMPDEST POP PUSH1 0x9 SLOAD JUMPDEST PUSH1 0x40 MLOAD SWAP1 DUP2 MSTORE PUSH1 0x20 ADD PUSH2 0x2A4 JUMP JUMPDEST CALLVALUE DUP1 ISZERO PUSH2 0x341 JUMPI PUSH0 DUP1 REVERT JUMPDEST POP PUSH2 0x2CC PUSH2 0x350 CALLDATASIZE PUSH1 0x4 PUSH2 0x1B10 JUMP JUMPDEST PUSH1 0x7 PUSH1 0x20 MSTORE PUSH0 SWAP1 DUP2 MSTORE PUSH1 0x40 SWAP1 KECCAK256 SLOAD PUSH1 0xFF AND DUP2 JUMP JUMPDEST CALLVALUE DUP1 ISZERO PUSH2 0x36F JUMPI PUSH0 DUP1 REVERT JUMPDEST POP PUSH2 0x281 PUSH2 0x37E CALLDATASIZE PUSH1 0x4 PUSH2 0x1BA8 JUMP JUMPDEST PUSH2 0x8F7 JUMP JUMPDEST CALLVALUE DUP1 ISZERO PUSH2 0x38E JUMPI PUSH0 DUP1 REVERT JUMPDEST POP PUSH2 0x2CC PUSH2 0x39D CALLDATASIZE PUSH1 0x4 PUSH2 0x1BBF JUMP JUMPDEST PUSH2 0x925 JUMP JUMPDEST CALLVALUE DUP1 ISZERO PUSH2 0x3AD JUMPI PUSH0 DUP1 REVERT JUMPDEST POP PUSH1 0x3 SLOAD PUSH1 0x40 MLOAD PUSH1 0xFF SWAP1 SWAP2 AND DUP2 MSTORE PUSH1 0x20 ADD PUSH2 0x2A4 JUMP JUMPDEST CALLVALUE DUP1 ISZERO PUSH2 0x3CE JUMPI PUSH0 DUP1 REVERT JUMPDEST POP PUSH2 0x2CC PUSH2 0x3DD CALLDATASIZE PUSH1 0x4 PUSH2 0x1B7E JUMP JUMPDEST PUSH2 0x975 JUMP JUMPDEST CALLVALUE DUP1 ISZERO PUSH2 0x3ED JUMPI PUSH0 DUP1 REVERT JUMPDEST POP PUSH2 0x328 PUSH1 0xD SLOAD DUP2 JUMP JUMPDEST CALLVALUE DUP1 ISZERO PUSH2 0x402 JUMPI PUSH0 DUP1 REVERT JUMPDEST POP PUSH2 0x281 PUSH2 0x411 CALLDATASIZE PUSH1 0x4 PUSH2 0x1B10 JUMP JUMPDEST PUSH2 0x9AB JUMP JUMPDEST CALLVALUE DUP1 ISZERO PUSH2 0x421 JUMPI PUSH0 DUP1 REVERT JUMPDEST POP PUSH2 0x281 PUSH2 0x430 CALLDATASIZE PUSH1 0x4 PUSH2 0x1B10 JUMP JUMPDEST PUSH2 0x9F4 JUMP JUMPDEST CALLVALUE DUP1 ISZERO PUSH2 0x440 JUMPI PUSH0 DUP1 REVERT JUMPDEST POP PUSH2 0x300 PUSH32 0x0 DUP2 JUMP JUMPDEST CALLVALUE DUP1 ISZERO PUSH2 0x473 JUMPI PUSH0 DUP1 REVERT JUMPDEST POP PUSH2 0x281 PUSH2 0x482 CALLDATASIZE PUSH1 0x4 PUSH2 0x1BFD JUMP JUMPDEST PUSH2 0xA40 JUMP JUMPDEST CALLVALUE DUP1 ISZERO PUSH2 0x492 JUMPI PUSH0 DUP1 REVERT JUMPDEST POP PUSH1 0x13 SLOAD PUSH2 0x2CC SWAP1 PUSH1 0x1 PUSH1 0xA8 SHL SWAP1 DIV PUSH1 0xFF AND DUP2 JUMP JUMPDEST CALLVALUE DUP1 ISZERO PUSH2 0x4B2 JUMPI PUSH0 DUP1 REVERT JUMPDEST POP PUSH2 0x281 PUSH2 0x4C1 CALLDATASIZE PUSH1 0x4 PUSH2 0x1B10 JUMP JUMPDEST PUSH2 0xB09 JUMP JUMPDEST CALLVALUE DUP1 ISZERO PUSH2 0x4D1 JUMPI PUSH0 DUP1 REVERT JUMPDEST POP PUSH2 0x281 PUSH2 0x4E0 CALLDATASIZE PUSH1 0x4 PUSH2 0x1B10 JUMP JUMPDEST PUSH2 0xB55 JUMP JUMPDEST CALLVALUE DUP1 ISZERO PUSH2 0x4F0 JUMPI PUSH0 DUP1 REVERT JUMPDEST POP PUSH1 0x12 SLOAD PUSH2 0x300 SWAP1 PUSH1 0x1 PUSH1 0x1 PUSH1 0xA0 SHL SUB AND DUP2 JUMP JUMPDEST CALLVALUE DUP1 ISZERO PUSH2 0x50F JUMPI PUSH0 DUP1 REVERT JUMPDEST POP PUSH2 0x328 PUSH1 0xB SLOAD DUP2 JUMP JUMPDEST CALLVALUE DUP1 ISZERO PUSH2 0x524 JUMPI PUSH0 DUP1 REVERT JUMPDEST POP PUSH2 0x328 PUSH1 0x15 SLOAD DUP2 JUMP JUMPDEST CALLVALUE DUP1 ISZERO PUSH2 0x539 JUMPI PUSH0 DUP1 REVERT JUMPDEST POP PUSH2 0x328 PUSH2 0x548 CALLDATASIZE PUSH1 0x4 PUSH2 0x1B10 JUMP JUMPDEST PUSH1 0x1 PUSH1 0x1 PUSH1 0xA0 SHL SUB AND PUSH0 SWAP1 DUP2 MSTORE PUSH1 0x4 PUSH1 0x20 MSTORE PUSH1 0x40 SWAP1 KECCAK256 SLOAD SWAP1 JUMP JUMPDEST CALLVALUE DUP1 ISZERO PUSH2 0x56D JUMPI PUSH0 DUP1 REVERT JUMPDEST POP PUSH2 0x281 PUSH2 0xBB3 JUMP JUMPDEST CALLVALUE DUP1 ISZERO PUSH2 0x581 JUMPI PUSH0 DUP1 REVERT JUMPDEST POP PUSH2 0x2CC PUSH2 0x590 CALLDATASIZE PUSH1 0x4 PUSH2 0x1B10 JUMP JUMPDEST PUSH1 0x6 PUSH1 0x20 MSTORE PUSH0 SWAP1 DUP2 MSTORE PUSH1 0x40 SWAP1 KECCAK256 SLOAD PUSH1 0xFF AND DUP2 JUMP JUMPDEST CALLVALUE DUP1 ISZERO PUSH2 0x5AF JUMPI PUSH0 DUP1 REVERT JUMPDEST POP PUSH0 SLOAD PUSH1 0x1 PUSH1 0x1 PUSH1 0xA0 SHL SUB AND PUSH2 0x300 JUMP JUMPDEST CALLVALUE DUP1 ISZERO PUSH2 0x5CB JUMPI PUSH0 DUP1 REVERT JUMPDEST POP PUSH2 0x297 PUSH2 0xC24 JUMP JUMPDEST CALLVALUE DUP1 ISZERO PUSH2 0x5DF JUMPI PUSH0 DUP1 REVERT JUMPDEST POP PUSH2 0x328 PUSH1 0xE SLOAD DUP2 JUMP JUMPDEST CALLVALUE DUP1 ISZERO PUSH2 0x5F4 JUMPI PUSH0 DUP1 REVERT JUMPDEST POP PUSH2 0x2CC PUSH2 0x603 CALLDATASIZE PUSH1 0x4 PUSH2 0x1B7E JUMP JUMPDEST PUSH2 0xC33 JUMP JUMPDEST CALLVALUE DUP1 ISZERO PUSH2 0x613 JUMPI PUSH0 DUP1 REVERT JUMPDEST POP PUSH1 0x11 SLOAD PUSH2 0x300 SWAP1 PUSH1 0x1 PUSH1 0x1 PUSH1 0xA0 SHL SUB AND DUP2 JUMP JUMPDEST CALLVALUE DUP1 ISZERO PUSH2 0x632 JUMPI PUSH0 DUP1 REVERT JUMPDEST POP PUSH2 0x328 PUSH1 0xC SLOAD DUP2 JUMP JUMPDEST CALLVALUE DUP1 ISZERO PUSH2 0x647 JUMPI PUSH0 DUP1 REVERT JUMPDEST POP PUSH2 0x2CC PUSH2 0x656 CALLDATASIZE PUSH1 0x4 PUSH2 0x1B7E JUMP JUMPDEST PUSH2 0xC69 JUMP JUMPDEST CALLVALUE DUP1 ISZERO PUSH2 0x666 JUMPI PUSH0 DUP1 REVERT JUMPDEST POP PUSH1 0x10 SLOAD PUSH2 0x300 SWAP1 PUSH1 0x1 PUSH1 0x1 PUSH1 0xA0 SHL SUB AND DUP2 JUMP JUMPDEST CALLVALUE DUP1 ISZERO PUSH2 0x685 JUMPI PUSH0 DUP1 REVERT JUMPDEST POP PUSH2 0x281 PUSH2 0x694 CALLDATASIZE PUSH1 0x4 PUSH2 0x1C41 JUMP JUMPDEST PUSH2 0xC75 JUMP JUMPDEST CALLVALUE DUP1 ISZERO PUSH2 0x6A4 JUMPI PUSH0 DUP1 REVERT JUMPDEST POP PUSH2 0x281 PUSH2 0x6B3 CALLDATASIZE PUSH1 0x4 PUSH2 0x1BA8 JUMP JUMPDEST PUSH2 0xCF6 JUMP JUMPDEST CALLVALUE DUP1 ISZERO PUSH2 0x6C3 JUMPI PUSH0 DUP1 REVERT JUMPDEST POP PUSH1 0x13 SLOAD PUSH2 0x300 SWAP1 PUSH1 0x1 PUSH1 0x1 PUSH1 0xA0 SHL SUB AND DUP2 JUMP JUMPDEST CALLVALUE DUP1 ISZERO PUSH2 0x6E2 JUMPI PUSH0 DUP1 REVERT JUMPDEST POP PUSH2 0x328 PUSH1 0x14 SLOAD DUP2 JUMP JUMPDEST CALLVALUE DUP1 ISZERO PUSH2 0x6F7 JUMPI PUSH0 DUP1 REVERT JUMPDEST POP PUSH2 0x2CC PUSH2 0x706 CALLDATASIZE PUSH1 0x4 PUSH2 0x1B10 JUMP JUMPDEST PUSH1 0x8 PUSH1 0x20 MSTORE PUSH0 SWAP1 DUP2 MSTORE PUSH1 0x40 SWAP1 KECCAK256 SLOAD PUSH1 0xFF AND DUP2 JUMP JUMPDEST CALLVALUE DUP1 ISZERO PUSH2 0x725 JUMPI PUSH0 DUP1 REVERT JUMPDEST POP PUSH2 0x328 PUSH2 0x734 CALLDATASIZE PUSH1 0x4 PUSH2 0x1C5C JUMP JUMPDEST PUSH1 0x1 PUSH1 0x1 PUSH1 0xA0 SHL SUB SWAP2 DUP3 AND PUSH0 SWAP1 DUP2 MSTORE PUSH1 0x5 PUSH1 0x20 SWAP1 DUP2 MSTORE PUSH1 0x40 DUP1 DUP4 KECCAK256 SWAP4 SWAP1 SWAP5 AND DUP3 MSTORE SWAP2 SWAP1 SWAP2 MSTORE KECCAK256 SLOAD SWAP1 JUMP JUMPDEST CALLVALUE DUP1 ISZERO PUSH2 0x769 JUMPI PUSH0 DUP1 REVERT JUMPDEST POP PUSH2 0x281 PUSH2 0x778 CALLDATASIZE PUSH1 0x4 PUSH2 0x1B10 JUMP JUMPDEST PUSH2 0xD24 JUMP JUMPDEST CALLVALUE DUP1 ISZERO PUSH2 0x788 JUMPI PUSH0 DUP1 REVERT JUMPDEST POP PUSH2 0x281 PUSH2 0x797 CALLDATASIZE PUSH1 0x4 PUSH2 0x1B10 JUMP JUMPDEST PUSH2 0xF58 JUMP JUMPDEST CALLVALUE DUP1 ISZERO PUSH2 0x7A7 JUMPI PUSH0 DUP1 REVERT JUMPDEST POP PUSH2 0x328 PUSH1 0xA SLOAD DUP2 JUMP JUMPDEST CALLVALUE DUP1 ISZERO PUSH2 0x7BC JUMPI PUSH0 DUP1 REVERT JUMPDEST POP PUSH2 0x281 PUSH2 0x7CB CALLDATASIZE PUSH1 0x4 PUSH2 0x1B10 JUMP JUMPDEST PUSH2 0xFA1 JUMP JUMPDEST CALLVALUE DUP1 ISZERO PUSH2 0x7DB JUMPI PUSH0 DUP1 REVERT JUMPDEST POP PUSH2 0x281 PUSH2 0x1088 JUMP JUMPDEST PUSH0 SLOAD PUSH1 0x1 PUSH1 0x1 PUSH1 0xA0 SHL SUB AND CALLER EQ PUSH2 0x816 JUMPI PUSH1 0x40 MLOAD PUSH3 0x461BCD PUSH1 0xE5 SHL DUP2 MSTORE PUSH1 0x4 ADD PUSH2 0x80D SWAP1 PUSH2 0x1C93 JUMP JUMPDEST PUSH1 0x40 MLOAD DUP1 SWAP2 SUB SWAP1 REVERT JUMPDEST PUSH1 0x1 PUSH1 0x1 PUSH1 0xA0 SHL SUB AND PUSH0 SWAP1 DUP2 MSTORE PUSH1 0x7 PUSH1 0x20 SWAP1 DUP2 MSTORE PUSH1 0x40 DUP1 DUP4 KECCAK256 DUP1 SLOAD PUSH1 0x1 PUSH1 0xFF NOT SWAP2 DUP3 AND DUP2 OR SWAP1 SWAP3 SSTORE PUSH1 0x8 SWAP1 SWAP4 MSTORE SWAP3 KECCAK256 DUP1 SLOAD SWAP1 SWAP2 AND SWAP1 SWAP2 OR SWAP1 SSTORE JUMP JUMPDEST PUSH1 0x60 PUSH1 0x1 DUP1 SLOAD PUSH2 0x860 SWAP1 PUSH2 0x1CC8 JUMP JUMPDEST DUP1 PUSH1 0x1F ADD PUSH1 0x20 DUP1 SWAP2 DIV MUL PUSH1 0x20 ADD PUSH1 0x40 MLOAD SWAP1 DUP2 ADD PUSH1 0x40 MSTORE DUP1 SWAP3 SWAP2 SWAP1 DUP2 DUP2 MSTORE PUSH1 0x20 ADD DUP3 DUP1 SLOAD PUSH2 0x88C SWAP1 PUSH2 0x1CC8 JUMP JUMPDEST DUP1 ISZERO PUSH2 0x8D7 JUMPI DUP1 PUSH1 0x1F LT PUSH2 0x8AE JUMPI PUSH2 0x100 DUP1 DUP4 SLOAD DIV MUL DUP4 MSTORE SWAP2 PUSH1 0x20 ADD SWAP2 PUSH2 0x8D7 JUMP JUMPDEST DUP3 ADD SWAP2 SWAP1 PUSH0 MSTORE PUSH1 0x20 PUSH0 KECCAK256 SWAP1 JUMPDEST DUP2 SLOAD DUP2 MSTORE SWAP1 PUSH1 0x1 ADD SWAP1 PUSH1 0x20 ADD DUP1 DUP4 GT PUSH2 0x8BA JUMPI DUP3 SWAP1 SUB PUSH1 0x1F AND DUP3 ADD SWAP2 JUMPDEST POP POP POP POP POP SWAP1 POP SWAP1 JUMP JUMPDEST PUSH0 PUSH2 0x8ED CALLER DUP5 DUP5 PUSH2 0x113A JUMP JUMPDEST POP PUSH1 0x1 JUMPDEST SWAP3 SWAP2 POP POP JUMP JUMPDEST PUSH0 SLOAD PUSH1 0x1 PUSH1 0x1 PUSH1 0xA0 SHL SUB AND CALLER EQ PUSH2 0x920 JUMPI PUSH1 0x40 MLOAD PUSH3 0x461BCD PUSH1 0xE5 SHL DUP2 MSTORE PUSH1 0x4 ADD PUSH2 0x80D SWAP1 PUSH2 0x1C93 JUMP JUMPDEST PUSH1 0x15 SSTORE JUMP JUMPDEST PUSH0 PUSH2 0x931 DUP5 DUP5 DUP5 PUSH2 0x125D JUMP JUMPDEST PUSH1 0x1 PUSH1 0x1 PUSH1 0xA0 SHL SUB DUP5 AND PUSH0 SWAP1 DUP2 MSTORE PUSH1 0x5 PUSH1 0x20 SWAP1 DUP2 MSTORE PUSH1 0x40 DUP1 DUP4 KECCAK256 CALLER DUP1 DUP6 MSTORE SWAP3 MSTORE SWAP1 SWAP2 KECCAK256 SLOAD PUSH2 0x96B SWAP2 DUP7 SWAP2 PUSH2 0x966 SWAP1 DUP7 SWAP1 PUSH2 0x1D14 JUMP JUMPDEST PUSH2 0x113A JUMP JUMPDEST POP PUSH1 0x1 SWAP4 SWAP3 POP POP POP JUMP JUMPDEST CALLER PUSH0 DUP2 DUP2 MSTORE PUSH1 0x5 PUSH1 0x20 SWAP1 DUP2 MSTORE PUSH1 0x40 DUP1 DUP4 KECCAK256 PUSH1 0x1 PUSH1 0x1 PUSH1 0xA0 SHL SUB DUP8 AND DUP5 MSTORE SWAP1 SWAP2 MSTORE DUP2 KECCAK256 SLOAD SWAP1 SWAP2 PUSH2 0x8ED SWAP2 DUP6 SWAP1 PUSH2 0x966 SWAP1 DUP7 SWAP1 PUSH2 0x1D27 JUMP JUMPDEST PUSH0 SLOAD PUSH1 0x1 PUSH1 0x1 PUSH1 0xA0 SHL SUB AND CALLER EQ PUSH2 0x9D4 JUMPI PUSH1 0x40 MLOAD PUSH3 0x461BCD PUSH1 0xE5 SHL DUP2 MSTORE PUSH1 0x4 ADD PUSH2 0x80D SWAP1 PUSH2 0x1C93 JUMP JUMPDEST PUSH1 0x1 PUSH1 0x1 PUSH1 0xA0 SHL SUB AND PUSH0 SWAP1 DUP2 MSTORE PUSH1 0x8 PUSH1 0x20 MSTORE PUSH1 0x40 SWAP1 KECCAK256 DUP1 SLOAD PUSH1 0xFF NOT AND SWAP1 SSTORE JUMP JUMPDEST PUSH0 SLOAD PUSH1 0x1 PUSH1 0x1 PUSH1 0xA0 SHL SUB AND CALLER EQ PUSH2 0xA1D JUMPI PUSH1 0x40 MLOAD PUSH3 0x461BCD PUSH1 0xE5 SHL DUP2 MSTORE PUSH1 0x4 ADD PUSH2 0x80D SWAP1 PUSH2 0x1C93 JUMP JUMPDEST PUSH1 0x1 PUSH1 0x1 PUSH1 0xA0 SHL SUB AND PUSH0 SWAP1 DUP2 MSTORE PUSH1 0x6 PUSH1 0x20 MSTORE PUSH1 0x40 SWAP1 KECCAK256 DUP1 SLOAD PUSH1 0xFF NOT AND PUSH1 0x1 OR SWAP1 SSTORE JUMP JUMPDEST PUSH0 SLOAD PUSH1 0x1 PUSH1 0x1 PUSH1 0xA0 SHL SUB AND CALLER EQ PUSH2 0xA69 JUMPI PUSH1 0x40 MLOAD PUSH3 0x461BCD PUSH1 0xE5 SHL DUP2 MSTORE PUSH1 0x4 ADD PUSH2 0x80D SWAP1 PUSH2 0x1C93 JUMP JUMPDEST PUSH1 0xE DUP6 SWAP1 SSTORE PUSH1 0xA DUP5 SWAP1 SSTORE PUSH1 0xB DUP4 SWAP1 SSTORE PUSH1 0xC DUP3 SWAP1 SSTORE PUSH1 0xD DUP2 SWAP1 SSTORE DUP1 DUP3 DUP5 PUSH2 0xA8F DUP8 DUP10 PUSH2 0x1D27 JUMP JUMPDEST PUSH2 0xA99 SWAP2 SWAP1 PUSH2 0x1D27 JUMP JUMPDEST PUSH2 0xAA3 SWAP2 SWAP1 PUSH2 0x1D27 JUMP JUMPDEST PUSH2 0xAAD SWAP2 SWAP1 PUSH2 0x1D27 JUMP JUMPDEST PUSH1 0xF DUP2 SWAP1 SSTORE PUSH1 0xA LT ISZERO PUSH2 0xB02 JUMPI PUSH1 0x40 MLOAD PUSH3 0x461BCD PUSH1 0xE5 SHL DUP2 MSTORE PUSH1 0x20 PUSH1 0x4 DUP3 ADD MSTORE PUSH1 0x1E PUSH1 0x24 DUP3 ADD MSTORE PUSH32 0x4665652069732063726F7373696E672074686520626F756E6461726965730000 PUSH1 0x44 DUP3 ADD MSTORE PUSH1 0x64 ADD PUSH2 0x80D JUMP JUMPDEST POP POP POP POP POP JUMP JUMPDEST PUSH0 SLOAD PUSH1 0x1 PUSH1 0x1 PUSH1 0xA0 SHL SUB AND CALLER EQ PUSH2 0xB32 JUMPI PUSH1 0x40 MLOAD PUSH3 0x461BCD PUSH1 0xE5 SHL DUP2 MSTORE PUSH1 0x4 ADD PUSH2 0x80D SWAP1 PUSH2 0x1C93 JUMP JUMPDEST PUSH1 0x1 PUSH1 0x1 PUSH1 0xA0 SHL SUB AND PUSH0 SWAP1 DUP2 MSTORE PUSH1 0x8 PUSH1 0x20 MSTORE PUSH1 0x40 SWAP1 KECCAK256 DUP1 SLOAD PUSH1 0xFF NOT AND PUSH1 0x1 OR SWAP1 SSTORE JUMP JUMPDEST PUSH0 SLOAD PUSH1 0x1 PUSH1 0x1 PUSH1 0xA0 SHL SUB AND CALLER EQ PUSH2 0xB7E JUMPI PUSH1 0x40 MLOAD PUSH3 0x461BCD PUSH1 0xE5 SHL DUP2 MSTORE PUSH1 0x4 ADD PUSH2 0x80D SWAP1 PUSH2 0x1C93 JUMP JUMPDEST PUSH1 0x1 PUSH1 0x1 PUSH1 0xA0 SHL SUB AND PUSH0 SWAP1 DUP2 MSTORE PUSH1 0x7 PUSH1 0x20 SWAP1 DUP2 MSTORE PUSH1 0x40 DUP1 DUP4 KECCAK256 DUP1 SLOAD PUSH1 0xFF NOT SWAP1 DUP2 AND SWAP1 SWAP2 SSTORE PUSH1 0x8 SWAP1 SWAP3 MSTORE SWAP1 SWAP2 KECCAK256 DUP1 SLOAD SWAP1 SWAP2 AND SWAP1 SSTORE JUMP JUMPDEST PUSH0 SLOAD PUSH1 0x1 PUSH1 0x1 PUSH1 0xA0 SHL SUB AND CALLER EQ PUSH2 0xBDC JUMPI PUSH1 0x40 MLOAD PUSH3 0x461BCD PUSH1 0xE5 SHL DUP2 MSTORE PUSH1 0x4 ADD PUSH2 0x80D SWAP1 PUSH2 0x1C93 JUMP JUMPDEST PUSH0 DUP1 SLOAD PUSH1 0x40 MLOAD PUSH1 0x1 PUSH1 0x1 PUSH1 0xA0 SHL SUB SWAP1 SWAP2 AND SWAP1 PUSH32 0x8BE0079C531659141344CD1FD0A4F28419497F9722A3DAAFE3B4186F6B6457E0 SWAP1 DUP4 SWAP1 LOG3 PUSH0 DUP1 SLOAD PUSH1 0x1 PUSH1 0x1 PUSH1 0xA0 SHL SUB NOT AND SWAP1 SSTORE JUMP JUMPDEST PUSH1 0x60 PUSH1 0x2 DUP1 SLOAD PUSH2 0x860 SWAP1 PUSH2 0x1CC8 JUMP JUMPDEST CALLER PUSH0 DUP2 DUP2 MSTORE PUSH1 0x5 PUSH1 0x20 SWAP1 DUP2 MSTORE PUSH1 0x40 DUP1 DUP4 KECCAK256 PUSH1 0x1 PUSH1 0x1 PUSH1 0xA0 SHL SUB DUP8 AND DUP5 MSTORE SWAP1 SWAP2 MSTORE DUP2 KECCAK256 SLOAD SWAP1 SWAP2 PUSH2 0x8ED SWAP2 DUP6 SWAP1 PUSH2 0x966 SWAP1 DUP7 SWAP1 PUSH2 0x1D14 JUMP JUMPDEST PUSH0 PUSH2 0x8ED CALLER DUP5 DUP5 PUSH2 0x125D JUMP JUMPDEST PUSH0 SLOAD PUSH1 0x1 PUSH1 0x1 PUSH1 0xA0 SHL SUB AND CALLER EQ PUSH2 0xC9E JUMPI PUSH1 0x40 MLOAD PUSH3 0x461BCD PUSH1 0xE5 SHL DUP2 MSTORE PUSH1 0x4 ADD PUSH2 0x80D SWAP1 PUSH2 0x1C93 JUMP JUMPDEST PUSH1 0x13 DUP1 SLOAD DUP3 ISZERO ISZERO PUSH1 0x1 PUSH1 0xA8 SHL MUL PUSH1 0xFF PUSH1 0xA8 SHL NOT SWAP1 SWAP2 AND OR SWAP1 SSTORE PUSH1 0x40 MLOAD PUSH32 0x53726DFCAF90650AA7EB35524F4D3220F07413C8D6CB404CC8C18BF5591BC159 SWAP1 PUSH2 0xCEB SWAP1 DUP4 ISZERO ISZERO DUP2 MSTORE PUSH1 0x20 ADD SWAP1 JUMP JUMPDEST PUSH1 0x40 MLOAD DUP1 SWAP2 SUB SWAP1 LOG1 POP JUMP JUMPDEST PUSH0 SLOAD PUSH1 0x1 PUSH1 0x1 PUSH1 0xA0 SHL SUB AND CALLER EQ PUSH2 0xD1F JUMPI PUSH1 0x40 MLOAD PUSH3 0x461BCD PUSH1 0xE5 SHL DUP2 MSTORE PUSH1 0x4 ADD PUSH2 0x80D SWAP1 PUSH2 0x1C93 JUMP JUMPDEST PUSH1 0x14 SSTORE JUMP JUMPDEST PUSH0 SLOAD PUSH1 0x1 PUSH1 0x1 PUSH1 0xA0 SHL SUB AND CALLER EQ PUSH2 0xD4D JUMPI PUSH1 0x40 MLOAD PUSH3 0x461BCD PUSH1 0xE5 SHL DUP2 MSTORE PUSH1 0x4 ADD PUSH2 0x80D SWAP1 PUSH2 0x1C93 JUMP JUMPDEST ADDRESS PUSH1 0x1 PUSH1 0x1 PUSH1 0xA0 SHL SUB DUP3 AND SUB PUSH2 0xDBA JUMPI PUSH1 0x40 MLOAD PUSH3 0x461BCD PUSH1 0xE5 SHL DUP2 MSTORE PUSH1 0x20 PUSH1 0x4 DUP3 ADD MSTORE PUSH1 0x2C PUSH1 0x24 DUP3 ADD MSTORE PUSH32 0x43616E277420776974686472617720746F6B656E732064657374696E65642066 PUSH1 0x44 DUP3 ADD MSTORE PUSH12 0x6F72206C6971756964697479 PUSH1 0xA0 SHL PUSH1 0x64 DUP3 ADD MSTORE PUSH1 0x84 ADD PUSH2 0x80D JUMP JUMPDEST PUSH1 0x40 MLOAD PUSH4 0x70A08231 PUSH1 0xE0 SHL DUP2 MSTORE ADDRESS PUSH1 0x4 DUP3 ADD MSTORE PUSH0 SWAP1 PUSH1 0x1 PUSH1 0x1 PUSH1 0xA0 SHL SUB DUP4 AND SWAP1 PUSH4 0x70A08231 SWAP1 PUSH1 0x24 ADD PUSH1 0x20 PUSH1 0x40 MLOAD DUP1 DUP4 SUB DUP2 DUP7 GAS STATICCALL ISZERO DUP1 ISZERO PUSH2 0xDFE JUMPI RETURNDATASIZE PUSH0 DUP1 RETURNDATACOPY RETURNDATASIZE PUSH0 REVERT JUMPDEST POP POP POP POP PUSH1 0x40 MLOAD RETURNDATASIZE PUSH1 0x1F NOT PUSH1 0x1F DUP3 ADD AND DUP3 ADD DUP1 PUSH1 0x40 MSTORE POP DUP2 ADD SWAP1 PUSH2 0xE22 SWAP2 SWAP1 PUSH2 0x1D3A JUMP JUMPDEST GT PUSH2 0xE62 JUMPI PUSH1 0x40 MLOAD PUSH3 0x461BCD PUSH1 0xE5 SHL DUP2 MSTORE PUSH1 0x20 PUSH1 0x4 DUP3 ADD MSTORE PUSH1 0x10 PUSH1 0x24 DUP3 ADD MSTORE PUSH16 0x43616E2774207769746864726177203 PUSH1 0x84 SHL PUSH1 0x44 DUP3 ADD MSTORE PUSH1 0x64 ADD PUSH2 0x80D JUMP JUMPDEST DUP1 PUSH1 0x1 PUSH1 0x1 PUSH1 0xA0 SHL SUB AND PUSH4 0xA9059CBB PUSH2 0xE82 PUSH0 SLOAD PUSH1 0x1 PUSH1 0x1 PUSH1 0xA0 SHL SUB AND SWAP1 JUMP JUMPDEST PUSH1 0x40 MLOAD PUSH4 0x70A08231 PUSH1 0xE0 SHL DUP2 MSTORE ADDRESS PUSH1 0x4 DUP3 ADD MSTORE PUSH1 0x1 PUSH1 0x1 PUSH1 0xA0 SHL SUB DUP6 AND SWAP1 PUSH4 0x70A08231 SWAP1 PUSH1 0x24 ADD PUSH1 0x20 PUSH1 0x40 MLOAD DUP1 DUP4 SUB DUP2 DUP7 GAS STATICCALL ISZERO DUP1 ISZERO PUSH2 0xEC4 JUMPI RETURNDATASIZE PUSH0 DUP1 RETURNDATACOPY RETURNDATASIZE PUSH0 REVERT JUMPDEST POP POP POP POP PUSH1 0x40 MLOAD RETURNDATASIZE PUSH1 0x1F NOT PUSH1 0x1F DUP3 ADD AND DUP3 ADD DUP1 PUSH1 0x40 MSTORE POP DUP2 ADD SWAP1 PUSH2 0xEE8 SWAP2 SWAP1 PUSH2 0x1D3A JUMP JUMPDEST PUSH1 0x40 MLOAD PUSH1 0x1 PUSH1 0x1 PUSH1 0xE0 SHL SUB NOT PUSH1 0xE0 DUP6 SWAP1 SHL AND DUP2 MSTORE PUSH1 0x1 PUSH1 0x1 PUSH1 0xA0 SHL SUB SWAP1 SWAP3 AND PUSH1 0x4 DUP4 ADD MSTORE PUSH1 0x24 DUP3 ADD MSTORE PUSH1 0x44 ADD PUSH1 0x20 PUSH1 0x40 MLOAD DUP1 DUP4 SUB DUP2 PUSH0 DUP8 GAS CALL ISZERO DUP1 ISZERO PUSH2 0xF30 JUMPI RETURNDATASIZE PUSH0 DUP1 RETURNDATACOPY RETURNDATASIZE PUSH0 REVERT JUMPDEST POP POP POP POP PUSH1 0x40 MLOAD RETURNDATASIZE PUSH1 0x1F NOT PUSH1 0x1F DUP3 ADD AND DUP3 ADD DUP1 PUSH1 0x40 MSTORE POP DUP2 ADD SWAP1 PUSH2 0xF54 SWAP2 SWAP1 PUSH2 0x1D51 JUMP JUMPDEST POP POP JUMP JUMPDEST PUSH0 SLOAD PUSH1 0x1 PUSH1 0x1 PUSH1 0xA0 SHL SUB AND CALLER EQ PUSH2 0xF81 JUMPI PUSH1 0x40 MLOAD PUSH3 0x461BCD PUSH1 0xE5 SHL DUP2 MSTORE PUSH1 0x4 ADD PUSH2 0x80D SWAP1 PUSH2 0x1C93 JUMP JUMPDEST PUSH1 0x1 PUSH1 0x1 PUSH1 0xA0 SHL SUB AND PUSH0 SWAP1 DUP2 MSTORE PUSH1 0x6 PUSH1 0x20 MSTORE PUSH1 0x40 SWAP1 KECCAK256 DUP1 SLOAD PUSH1 0xFF NOT AND SWAP1 SSTORE JUMP JUMPDEST PUSH0 SLOAD PUSH1 0x1 PUSH1 0x1 PUSH1 0xA0 SHL SUB AND CALLER EQ PUSH2 0xFCA JUMPI PUSH1 0x40 MLOAD PUSH3 0x461BCD PUSH1 0xE5 SHL DUP2 MSTORE PUSH1 0x4 ADD PUSH2 0x80D SWAP1 PUSH2 0x1C93 JUMP JUMPDEST PUSH1 0x1 PUSH1 0x1 PUSH1 0xA0 SHL SUB DUP2 AND PUSH2 0x102F JUMPI PUSH1 0x40 MLOAD PUSH3 0x461BCD PUSH1 0xE5 SHL DUP2 MSTORE PUSH1 0x20 PUSH1 0x4 DUP3 ADD MSTORE PUSH1 0x26 PUSH1 0x24 DUP3 ADD MSTORE PUSH32 0x4F776E61626C653A206E6577206F776E657220697320746865207A65726F2061 PUSH1 0x44 DUP3 ADD MSTORE PUSH6 0x646472657373 PUSH1 0xD0 SHL PUSH1 0x64 DUP3 ADD MSTORE PUSH1 0x84 ADD PUSH2 0x80D JUMP JUMPDEST PUSH0 DUP1 SLOAD PUSH1 0x40 MLOAD PUSH1 0x1 PUSH1 0x1 PUSH1 0xA0 SHL SUB DUP1 DUP6 AND SWAP4 SWAP3 AND SWAP2 PUSH32 0x8BE0079C531659141344CD1FD0A4F28419497F9722A3DAAFE3B4186F6B6457E0 SWAP2 LOG3 PUSH0 DUP1 SLOAD PUSH1 0x1 PUSH1 0x1 PUSH1 0xA0 SHL SUB NOT AND PUSH1 0x1 PUSH1 0x1 PUSH1 0xA0 SHL SUB SWAP3 SWAP1 SWAP3 AND SWAP2 SWAP1 SWAP2 OR SWAP1 SSTORE JUMP JUMPDEST PUSH0 SLOAD PUSH1 0x1 PUSH1 0x1 PUSH1 0xA0 SHL SUB AND CALLER EQ PUSH2 0x10B1 JUMPI PUSH1 0x40 MLOAD PUSH3 0x461BCD PUSH1 0xE5 SHL DUP2 MSTORE PUSH1 0x4 ADD PUSH2 0x80D SWAP1 PUSH2 0x1C93 JUMP JUMPDEST PUSH0 SELFBALANCE GT PUSH2 0x1100 JUMPI PUSH1 0x40 MLOAD PUSH3 0x461BCD PUSH1 0xE5 SHL DUP2 MSTORE PUSH1 0x20 PUSH1 0x4 DUP3 ADD MSTORE PUSH1 0x1F PUSH1 0x24 DUP3 ADD MSTORE PUSH32 0x43616E2774207769746864726177206E65676174697665206F72207A65726F00 PUSH1 0x44 DUP3 ADD MSTORE PUSH1 0x64 ADD PUSH2 0x80D JUMP JUMPDEST PUSH0 DUP1 SLOAD PUSH1 0x40 MLOAD PUSH1 0x1 PUSH1 0x1 PUSH1 0xA0 SHL SUB SWAP1 SWAP2 AND SWAP2 SELFBALANCE DUP1 ISZERO PUSH2 0x8FC MUL SWAP3 SWAP1 SWAP2 DUP2 DUP2 DUP2 DUP6 DUP9 DUP9 CALL SWAP4 POP POP POP POP ISZERO DUP1 ISZERO PUSH2 0x1137 JUMPI RETURNDATASIZE PUSH0 DUP1 RETURNDATACOPY RETURNDATASIZE PUSH0 REVERT JUMPDEST POP JUMP JUMPDEST PUSH1 0x1 PUSH1 0x1 PUSH1 0xA0 SHL SUB DUP4 AND PUSH2 0x119C JUMPI PUSH1 0x40 MLOAD PUSH3 0x461BCD PUSH1 0xE5 SHL DUP2 MSTORE PUSH1 0x20 PUSH1 0x4 DUP3 ADD MSTORE PUSH1 0x24 DUP1 DUP3 ADD MSTORE PUSH32 0x42455032303A20617070726F76652066726F6D20746865207A65726F20616464 PUSH1 0x44 DUP3 ADD MSTORE PUSH4 0x72657373 PUSH1 0xE0 SHL PUSH1 0x64 DUP3 ADD MSTORE PUSH1 0x84 ADD PUSH2 0x80D JUMP JUMPDEST PUSH1 0x1 PUSH1 0x1 PUSH1 0xA0 SHL SUB DUP3 AND PUSH2 0x11FD JUMPI PUSH1 0x40 MLOAD PUSH3 0x461BCD PUSH1 0xE5 SHL DUP2 MSTORE PUSH1 0x20 PUSH1 0x4 DUP3 ADD MSTORE PUSH1 0x22 PUSH1 0x24 DUP3 ADD MSTORE PUSH32 0x42455032303A20617070726F766520746F20746865207A65726F206164647265 PUSH1 0x44 DUP3 ADD MSTORE PUSH2 0x7373 PUSH1 0xF0 SHL PUSH1 0x64 DUP3 ADD MSTORE PUSH1 0x84 ADD PUSH2 0x80D JUMP JUMPDEST PUSH1 0x1 PUSH1 0x1 PUSH1 0xA0 SHL SUB DUP4 DUP2 AND PUSH0 DUP2 DUP2 MSTORE PUSH1 0x5 PUSH1 0x20 SWAP1 DUP2 MSTORE PUSH1 0x40 DUP1 DUP4 KECCAK256 SWAP5 DUP8 AND DUP1 DUP5 MSTORE SWAP5 DUP3 MSTORE SWAP2 DUP3 SWAP1 KECCAK256 DUP6 SWAP1 SSTORE SWAP1 MLOAD DUP5 DUP2 MSTORE PUSH32 0x8C5BE1E5EBEC7D5BD14F71427D1E84F3DD0314C0F7B2291E5B200AC8C7C3B925 SWAP2 ADD PUSH1 0x40 MLOAD DUP1 SWAP2 SUB SWAP1 LOG3 POP POP POP JUMP JUMPDEST PUSH1 0x1 PUSH1 0x1 PUSH1 0xA0 SHL SUB DUP4 AND PUSH2 0x12C1 JUMPI PUSH1 0x40 MLOAD PUSH3 0x461BCD PUSH1 0xE5 SHL DUP2 MSTORE PUSH1 0x20 PUSH1 0x4 DUP3 ADD MSTORE PUSH1 0x25 PUSH1 0x24 DUP3 ADD MSTORE PUSH32 0x42455032303A207472616E736665722066726F6D20746865207A65726F206164 PUSH1 0x44 DUP3 ADD MSTORE PUSH5 0x6472657373 PUSH1 0xD8 SHL PUSH1 0x64 DUP3 ADD MSTORE PUSH1 0x84 ADD PUSH2 0x80D JUMP JUMPDEST PUSH1 0x1 PUSH1 0x1 PUSH1 0xA0 SHL SUB DUP3 AND PUSH2 0x1323 JUMPI PUSH1 0x40 MLOAD PUSH3 0x461BCD PUSH1 0xE5 SHL DUP2 MSTORE PUSH1 0x20 PUSH1 0x4 DUP3 ADD MSTORE PUSH1 0x23 PUSH1 0x24 DUP3 ADD MSTORE PUSH32 0x42455032303A207472616E7366657220746F20746865207A65726F2061646472 PUSH1 0x44 DUP3 ADD MSTORE PUSH3 0x657373 PUSH1 0xE8 SHL PUSH1 0x64 DUP3 ADD MSTORE PUSH1 0x84 ADD PUSH2 0x80D JUMP JUMPDEST PUSH1 0x1 PUSH1 0x1 PUSH1 0xA0 SHL SUB DUP3 AND PUSH0 SWAP1 DUP2 MSTORE PUSH1 0x8 PUSH1 0x20 MSTORE PUSH1 0x40 SWAP1 KECCAK256 SLOAD PUSH1 0xFF AND PUSH2 0x13B5 JUMPI PUSH1 0x15 SLOAD DUP2 PUSH2 0x1364 DUP5 PUSH1 0x1 PUSH1 0x1 PUSH1 0xA0 SHL SUB AND PUSH0 SWAP1 DUP2 MSTORE PUSH1 0x4 PUSH1 0x20 MSTORE PUSH1 0x40 SWAP1 KECCAK256 SLOAD SWAP1 JUMP JUMPDEST PUSH2 0x136E SWAP2 SWAP1 PUSH2 0x1D27 JUMP JUMPDEST GT ISZERO PUSH2 0x13B5 JUMPI PUSH1 0x40 MLOAD PUSH3 0x461BCD PUSH1 0xE5 SHL DUP2 MSTORE PUSH1 0x20 PUSH1 0x4 DUP3 ADD MSTORE PUSH1 0x16 PUSH1 0x24 DUP3 ADD MSTORE PUSH22 0x4D6178696D756D2077616C6C6574206C696D69742121 PUSH1 0x50 SHL PUSH1 0x44 DUP3 ADD MSTORE PUSH1 0x64 ADD PUSH2 0x80D JUMP JUMPDEST PUSH1 0x1 PUSH1 0x1 PUSH1 0xA0 SHL SUB DUP4 AND PUSH0 SWAP1 DUP2 MSTORE PUSH1 0x6 PUSH1 0x20 MSTORE PUSH1 0x40 SWAP1 KECCAK256 SLOAD PUSH1 0x1 SWAP1 PUSH1 0xFF AND DUP1 PUSH2 0x13F5 JUMPI POP PUSH1 0x1 PUSH1 0x1 PUSH1 0xA0 SHL SUB DUP4 AND PUSH0 SWAP1 DUP2 MSTORE PUSH1 0x6 PUSH1 0x20 MSTORE PUSH1 0x40 SWAP1 KECCAK256 SLOAD PUSH1 0xFF AND JUMPDEST ISZERO PUSH2 0x13FD JUMPI POP PUSH0 JUMPDEST PUSH1 0x1 PUSH1 0x1 PUSH1 0xA0 SHL SUB DUP4 AND PUSH0 SWAP1 DUP2 MSTORE PUSH1 0x7 PUSH1 0x20 MSTORE PUSH1 0x40 SWAP1 KECCAK256 SLOAD PUSH1 0xFF AND ISZERO DUP1 ISZERO PUSH2 0x143D JUMPI POP PUSH1 0x1 PUSH1 0x1 PUSH1 0xA0 SHL SUB DUP5 AND PUSH0 SWAP1 DUP2 MSTORE PUSH1 0x7 PUSH1 0x20 MSTORE PUSH1 0x40 SWAP1 KECCAK256 SLOAD PUSH1 0xFF AND ISZERO JUMPDEST ISZERO PUSH2 0x1445 JUMPI POP PUSH0 JUMPDEST ADDRESS PUSH0 SWAP1 DUP2 MSTORE PUSH1 0x4 PUSH1 0x20 MSTORE PUSH1 0x40 SWAP1 KECCAK256 SLOAD PUSH1 0x14 SLOAD DUP2 LT DUP1 ISZERO SWAP1 DUP2 SWAP1 PUSH2 0x1472 JUMPI POP PUSH1 0x13 SLOAD PUSH1 0x1 PUSH1 0xA0 SHL SWAP1 DIV PUSH1 0xFF AND ISZERO JUMPDEST DUP1 ISZERO PUSH2 0x1496 JUMPI POP PUSH1 0x1 PUSH1 0x1 PUSH1 0xA0 SHL SUB DUP7 AND PUSH0 SWAP1 DUP2 MSTORE PUSH1 0x7 PUSH1 0x20 MSTORE PUSH1 0x40 SWAP1 KECCAK256 SLOAD PUSH1 0xFF AND ISZERO JUMPDEST DUP1 ISZERO PUSH2 0x14AB JUMPI POP PUSH1 0x13 SLOAD PUSH1 0x1 PUSH1 0xA8 SHL SWAP1 DIV PUSH1 0xFF AND JUMPDEST DUP1 ISZERO PUSH2 0x14B4 JUMPI POP DUP3 JUMPDEST ISZERO PUSH2 0x14C7 JUMPI PUSH1 0x14 SLOAD SWAP2 POP PUSH2 0x14C7 DUP3 PUSH2 0x16CD JUMP JUMPDEST DUP3 ISZERO PUSH2 0x1617 JUMPI PUSH0 PUSH1 0x64 PUSH2 0x14D9 PUSH1 0xF SLOAD SWAP1 JUMP JUMPDEST PUSH2 0x14E3 SWAP1 DUP8 PUSH2 0x1D6C JUMP JUMPDEST PUSH2 0x14ED SWAP2 SWAP1 PUSH2 0x1D83 JUMP JUMPDEST SWAP1 POP PUSH0 PUSH2 0x14FA DUP3 DUP8 PUSH2 0x1D14 JUMP JUMPDEST PUSH1 0x1 PUSH1 0x1 PUSH1 0xA0 SHL SUB DUP10 AND PUSH0 SWAP1 DUP2 MSTORE PUSH1 0x4 PUSH1 0x20 MSTORE PUSH1 0x40 SWAP1 KECCAK256 SLOAD SWAP1 SWAP2 POP PUSH2 0x1520 SWAP1 DUP8 SWAP1 PUSH2 0x1D14 JUMP JUMPDEST PUSH1 0x1 PUSH1 0x1 PUSH1 0xA0 SHL SUB DUP1 DUP11 AND PUSH0 SWAP1 DUP2 MSTORE PUSH1 0x4 PUSH1 0x20 MSTORE PUSH1 0x40 DUP1 DUP3 KECCAK256 SWAP4 SWAP1 SWAP4 SSTORE SWAP1 DUP10 AND DUP2 MSTORE KECCAK256 SLOAD PUSH2 0x154F SWAP1 DUP3 SWAP1 PUSH2 0x1D27 JUMP JUMPDEST PUSH1 0x1 PUSH1 0x1 PUSH1 0xA0 SHL SUB DUP9 AND PUSH0 SWAP1 DUP2 MSTORE PUSH1 0x4 PUSH1 0x20 MSTORE PUSH1 0x40 DUP1 DUP3 KECCAK256 SWAP3 SWAP1 SWAP3 SSTORE ADDRESS DUP2 MSTORE KECCAK256 SLOAD PUSH2 0x157B SWAP1 DUP4 SWAP1 PUSH2 0x1D27 JUMP JUMPDEST ADDRESS PUSH0 SWAP1 DUP2 MSTORE PUSH1 0x4 PUSH1 0x20 SWAP1 DUP2 MSTORE PUSH1 0x40 SWAP2 DUP3 SWAP1 KECCAK256 SWAP3 SWAP1 SWAP3 SSTORE MLOAD DUP3 DUP2 MSTORE PUSH1 0x1 PUSH1 0x1 PUSH1 0xA0 SHL SUB DUP10 DUP2 AND SWAP3 SWAP1 DUP12 AND SWAP2 PUSH32 0xDDF252AD1BE2C89B69C2B068FC378DAA952BA7F163C4A11628F55A4DF523B3EF SWAP2 ADD PUSH1 0x40 MLOAD DUP1 SWAP2 SUB SWAP1 LOG3 PUSH1 0x40 MLOAD DUP3 DUP2 MSTORE ADDRESS SWAP1 PUSH1 0x1 PUSH1 0x1 PUSH1 0xA0 SHL SUB DUP11 AND SWAP1 PUSH32 0xDDF252AD1BE2C89B69C2B068FC378DAA952BA7F163C4A11628F55A4DF523B3EF SWAP1 PUSH1 0x20 ADD PUSH1 0x40 MLOAD DUP1 SWAP2 SUB SWAP1 LOG3 POP POP PUSH2 0x16C5 JUMP JUMPDEST PUSH1 0x1 PUSH1 0x1 PUSH1 0xA0 SHL SUB DUP7 AND PUSH0 SWAP1 DUP2 MSTORE PUSH1 0x4 PUSH1 0x20 MSTORE PUSH1 0x40 SWAP1 KECCAK256 SLOAD PUSH2 0x163A SWAP1 DUP6 SWAP1 PUSH2 0x1D14 JUMP JUMPDEST PUSH1 0x1 PUSH1 0x1 PUSH1 0xA0 SHL SUB DUP1 DUP9 AND PUSH0 SWAP1 DUP2 MSTORE PUSH1 0x4 PUSH1 0x20 MSTORE PUSH1 0x40 DUP1 DUP3 KECCAK256 SWAP4 SWAP1 SWAP4 SSTORE SWAP1 DUP8 AND DUP2 MSTORE KECCAK256 SLOAD PUSH2 0x1669 SWAP1 DUP6 SWAP1 PUSH2 0x1D27 JUMP JUMPDEST PUSH1 0x1 PUSH1 0x1 PUSH1 0xA0 SHL SUB DUP1 DUP8 AND PUSH0 DUP2 DUP2 MSTORE PUSH1 0x4 PUSH1 0x20 MSTORE PUSH1 0x40 SWAP1 DUP2 SWAP1 KECCAK256 SWAP4 SWAP1 SWAP4 SSTORE SWAP2 MLOAD SWAP1 DUP9 AND SWAP1 PUSH32 0xDDF252AD1BE2C89B69C2B068FC378DAA952BA7F163C4A11628F55A4DF523B3EF SWAP1 PUSH2 0x16BC SWAP1 DUP9 DUP2 MSTORE PUSH1 0x20 ADD SWAP1 JUMP JUMPDEST PUSH1 0x40 MLOAD DUP1 SWAP2 SUB SWAP1 LOG3 JUMPDEST POP POP POP POP POP POP JUMP JUMPDEST PUSH1 0x13 DUP1 SLOAD PUSH1 0xFF PUSH1 0xA0 SHL NOT AND PUSH1 0x1 PUSH1 0xA0 SHL OR SWAP1 SSTORE PUSH0 PUSH1 0x2 PUSH2 0x16EC PUSH1 0xF SLOAD SWAP1 JUMP JUMPDEST PUSH1 0xE SLOAD PUSH2 0x16F9 SWAP1 DUP6 PUSH2 0x1D6C JUMP JUMPDEST PUSH2 0x1703 SWAP2 SWAP1 PUSH2 0x1D83 JUMP JUMPDEST PUSH2 0x170D SWAP2 SWAP1 PUSH2 0x1D83 JUMP JUMPDEST SWAP1 POP PUSH0 PUSH2 0x171A DUP3 DUP5 PUSH2 0x1D14 JUMP JUMPDEST PUSH1 0x40 DUP1 MLOAD PUSH1 0x2 DUP1 DUP3 MSTORE PUSH1 0x60 DUP3 ADD DUP4 MSTORE SWAP3 SWAP4 POP PUSH0 SWAP3 SWAP1 SWAP2 PUSH1 0x20 DUP4 ADD SWAP1 DUP1 CALLDATASIZE DUP4 CALLDATACOPY ADD SWAP1 POP POP SWAP1 POP ADDRESS DUP2 PUSH0 DUP2 MLOAD DUP2 LT PUSH2 0x1752 JUMPI PUSH2 0x1752 PUSH2 0x1DA2 JUMP JUMPDEST PUSH1 0x20 MUL PUSH1 0x20 ADD ADD SWAP1 PUSH1 0x1 PUSH1 0x1 PUSH1 0xA0 SHL SUB AND SWAP1 DUP2 PUSH1 0x1 PUSH1 0x1 PUSH1 0xA0 SHL SUB AND DUP2 MSTORE POP POP PUSH1 0x3 PUSH1 0x1 SWAP1 SLOAD SWAP1 PUSH2 0x100 EXP SWAP1 DIV PUSH1 0x1 PUSH1 0x1 PUSH1 0xA0 SHL SUB AND PUSH1 0x1 PUSH1 0x1 PUSH1 0xA0 SHL SUB AND PUSH4 0xAD5C4648 PUSH1 0x40 MLOAD DUP2 PUSH4 0xFFFFFFFF AND PUSH1 0xE0 SHL DUP2 MSTORE PUSH1 0x4 ADD PUSH1 0x20 PUSH1 0x40 MLOAD DUP1 DUP4 SUB DUP2 DUP7 GAS STATICCALL ISZERO DUP1 ISZERO PUSH2 0x17C3 JUMPI RETURNDATASIZE PUSH0 DUP1 RETURNDATACOPY RETURNDATASIZE PUSH0 REVERT JUMPDEST POP POP POP POP PUSH1 0x40 MLOAD RETURNDATASIZE PUSH1 0x1F NOT PUSH1 0x1F DUP3 ADD AND DUP3 ADD DUP1 PUSH1 0x40 MSTORE POP DUP2 ADD SWAP1 PUSH2 0x17E7 SWAP2 SWAP1 PUSH2 0x1DB6 JUMP JUMPDEST DUP2 PUSH1 0x1 DUP2 MLOAD DUP2 LT PUSH2 0x17FA JUMPI PUSH2 0x17FA PUSH2 0x1DA2 JUMP JUMPDEST PUSH1 0x1 PUSH1 0x1 PUSH1 0xA0 SHL SUB SWAP3 DUP4 AND PUSH1 0x20 SWAP2 DUP3 MUL SWAP3 SWAP1 SWAP3 ADD ADD MSTORE PUSH1 0x3 SLOAD PUSH2 0x1825 SWAP2 ADDRESS SWAP2 PUSH2 0x100 SWAP1 DIV AND DUP7 PUSH2 0x113A JUMP JUMPDEST PUSH1 0x3 SLOAD PUSH1 0x40 MLOAD PUSH4 0x791AC947 PUSH1 0xE0 SHL DUP2 MSTORE PUSH2 0x100 SWAP1 SWAP2 DIV PUSH1 0x1 PUSH1 0x1 PUSH1 0xA0 SHL SUB AND SWAP1 PUSH4 0x791AC947 SWAP1 PUSH2 0x1861 SWAP1 DUP6 SWAP1 PUSH0 SWAP1 DUP7 SWAP1 ADDRESS SWAP1 TIMESTAMP SWAP1 PUSH1 0x4 ADD PUSH2 0x1DD1 JUMP JUMPDEST PUSH0 PUSH1 0x40 MLOAD DUP1 DUP4 SUB DUP2 PUSH0 DUP8 DUP1 EXTCODESIZE ISZERO DUP1 ISZERO PUSH2 0x1878 JUMPI PUSH0 DUP1 REVERT JUMPDEST POP GAS CALL ISZERO DUP1 ISZERO PUSH2 0x188A JUMPI RETURNDATASIZE PUSH0 DUP1 RETURNDATACOPY RETURNDATASIZE PUSH0 REVERT JUMPDEST POP POP PUSH1 0xE SLOAD SELFBALANCE SWAP3 POP PUSH0 SWAP2 POP PUSH2 0x18A1 SWAP1 PUSH1 0x2 SWAP1 PUSH2 0x1D83 JUMP JUMPDEST PUSH1 0xF SLOAD PUSH2 0x18AE SWAP2 SWAP1 PUSH2 0x1D14 JUMP JUMPDEST SWAP1 POP PUSH0 PUSH1 0x2 DUP3 PUSH1 0xE SLOAD DUP6 PUSH2 0x18C2 SWAP2 SWAP1 PUSH2 0x1D6C JUMP JUMPDEST PUSH2 0x18CC SWAP2 SWAP1 PUSH2 0x1D83 JUMP JUMPDEST PUSH2 0x18D6 SWAP2 SWAP1 PUSH2 0x1D83 JUMP JUMPDEST SWAP1 POP PUSH0 DUP3 PUSH1 0xA SLOAD DUP6 PUSH2 0x18E8 SWAP2 SWAP1 PUSH2 0x1D6C JUMP JUMPDEST PUSH2 0x18F2 SWAP2 SWAP1 PUSH2 0x1D83 JUMP JUMPDEST SWAP1 POP PUSH0 DUP4 PUSH1 0xB SLOAD DUP7 PUSH2 0x1904 SWAP2 SWAP1 PUSH2 0x1D6C JUMP JUMPDEST PUSH2 0x190E SWAP2 SWAP1 PUSH2 0x1D83 JUMP JUMPDEST SWAP1 POP PUSH0 DUP5 PUSH1 0xC SLOAD DUP8 PUSH2 0x1920 SWAP2 SWAP1 PUSH2 0x1D6C JUMP JUMPDEST PUSH2 0x192A SWAP2 SWAP1 PUSH2 0x1D83 JUMP JUMPDEST SWAP1 POP PUSH0 DUP6 PUSH1 0xD SLOAD DUP9 PUSH2 0x193C SWAP2 SWAP1 PUSH2 0x1D6C JUMP JUMPDEST PUSH2 0x1946 SWAP2 SWAP1 PUSH2 0x1D83 JUMP JUMPDEST SWAP1 POP PUSH2 0x1952 DUP11 DUP7 PUSH2 0x1A4C JUMP JUMPDEST PUSH1 0x10 SLOAD PUSH1 0x40 MLOAD PUSH1 0x1 PUSH1 0x1 PUSH1 0xA0 SHL SUB SWAP1 SWAP2 AND SWAP1 DUP6 ISZERO PUSH2 0x8FC MUL SWAP1 DUP7 SWAP1 PUSH0 DUP2 DUP2 DUP2 DUP6 DUP9 DUP9 CALL SWAP4 POP POP POP POP ISZERO DUP1 ISZERO PUSH2 0x1989 JUMPI RETURNDATASIZE PUSH0 DUP1 RETURNDATACOPY RETURNDATASIZE PUSH0 REVERT JUMPDEST POP PUSH1 0x11 SLOAD PUSH1 0x40 MLOAD PUSH1 0x1 PUSH1 0x1 PUSH1 0xA0 SHL SUB SWAP1 SWAP2 AND SWAP1 DUP5 ISZERO PUSH2 0x8FC MUL SWAP1 DUP6 SWAP1 PUSH0 DUP2 DUP2 DUP2 DUP6 DUP9 DUP9 CALL SWAP4 POP POP POP POP ISZERO DUP1 ISZERO PUSH2 0x19C1 JUMPI RETURNDATASIZE PUSH0 DUP1 RETURNDATACOPY RETURNDATASIZE PUSH0 REVERT JUMPDEST POP PUSH1 0x12 SLOAD PUSH1 0x40 MLOAD PUSH1 0x1 PUSH1 0x1 PUSH1 0xA0 SHL SUB SWAP1 SWAP2 AND SWAP1 DUP4 ISZERO PUSH2 0x8FC MUL SWAP1 DUP5 SWAP1 PUSH0 DUP2 DUP2 DUP2 DUP6 DUP9 DUP9 CALL SWAP4 POP POP POP POP ISZERO DUP1 ISZERO PUSH2 0x19F9 JUMPI RETURNDATASIZE PUSH0 DUP1 RETURNDATACOPY RETURNDATASIZE PUSH0 REVERT JUMPDEST POP PUSH1 0x13 SLOAD PUSH1 0x40 MLOAD PUSH1 0x1 PUSH1 0x1 PUSH1 0xA0 SHL SUB SWAP1 SWAP2 AND SWAP1 DUP3 ISZERO PUSH2 0x8FC MUL SWAP1 DUP4 SWAP1 PUSH0 DUP2 DUP2 DUP2 DUP6 DUP9 DUP9 CALL SWAP4 POP POP POP POP ISZERO DUP1 ISZERO PUSH2 0x1A31 JUMPI RETURNDATASIZE PUSH0 DUP1 RETURNDATACOPY RETURNDATASIZE PUSH0 REVERT JUMPDEST POP POP PUSH1 0x13 DUP1 SLOAD PUSH1 0xFF PUSH1 0xA0 SHL NOT AND SWAP1 SSTORE POP POP POP POP POP POP POP POP POP POP JUMP JUMPDEST PUSH1 0x3 SLOAD PUSH2 0x1A69 SWAP1 ADDRESS SWAP1 PUSH2 0x100 SWAP1 DIV PUSH1 0x1 PUSH1 0x1 PUSH1 0xA0 SHL SUB AND DUP5 PUSH2 0x113A JUMP JUMPDEST PUSH1 0x3 SLOAD PUSH1 0x40 MLOAD PUSH4 0xF305D719 PUSH1 0xE0 SHL DUP2 MSTORE ADDRESS PUSH1 0x4 DUP3 ADD MSTORE PUSH1 0x24 DUP2 ADD DUP5 SWAP1 MSTORE PUSH0 PUSH1 0x44 DUP3 ADD DUP2 SWAP1 MSTORE PUSH1 0x64 DUP3 ADD DUP2 SWAP1 MSTORE PUSH1 0x84 DUP3 ADD MSTORE TIMESTAMP PUSH1 0xA4 DUP3 ADD MSTORE PUSH2 0x100 SWAP1 SWAP2 DIV PUSH1 0x1 PUSH1 0x1 PUSH1 0xA0 SHL SUB AND SWAP1 PUSH4 0xF305D719 SWAP1 DUP4 SWAP1 PUSH1 0xC4 ADD PUSH1 0x60 PUSH1 0x40 MLOAD DUP1 DUP4 SUB DUP2 DUP6 DUP9 GAS CALL ISZERO DUP1 ISZERO PUSH2 0x1AD7 JUMPI RETURNDATASIZE PUSH0 DUP1 RETURNDATACOPY RETURNDATASIZE PUSH0 REVERT JUMPDEST POP POP POP POP POP PUSH1 0x40 MLOAD RETURNDATASIZE PUSH1 0x1F NOT PUSH1 0x1F DUP3 ADD AND DUP3 ADD DUP1 PUSH1 0x40 MSTORE POP DUP2 ADD SWAP1 PUSH2 0xB02 SWAP2 SWAP1 PUSH2 0x1E42 JUMP JUMPDEST PUSH1 0x1 PUSH1 0x1 PUSH1 0xA0 SHL SUB DUP2 AND DUP2 EQ PUSH2 0x1137 JUMPI PUSH0 DUP1 REVERT JUMPDEST PUSH0 PUSH1 0x20 DUP3 DUP5 SUB SLT ISZERO PUSH2 0x1B20 JUMPI PUSH0 DUP1 REVERT JUMPDEST DUP2 CALLDATALOAD PUSH2 0x1B2B DUP2 PUSH2 0x1AFC JUMP JUMPDEST SWAP4 SWAP3 POP POP POP JUMP JUMPDEST PUSH0 PUSH1 0x20 DUP1 DUP4 MSTORE DUP4 MLOAD DUP1 PUSH1 0x20 DUP6 ADD MSTORE PUSH0 JUMPDEST DUP2 DUP2 LT ISZERO PUSH2 0x1B5E JUMPI DUP6 DUP2 ADD DUP4 ADD MLOAD DUP6 DUP3 ADD PUSH1 0x40 ADD MSTORE DUP3 ADD PUSH2 0x1B42 JUMP JUMPDEST POP PUSH0 PUSH1 0x40 DUP3 DUP7 ADD ADD MSTORE PUSH1 0x40 PUSH1 0x1F NOT PUSH1 0x1F DUP4 ADD AND DUP6 ADD ADD SWAP3 POP POP POP SWAP3 SWAP2 POP POP JUMP JUMPDEST PUSH0 DUP1 PUSH1 0x40 DUP4 DUP6 SUB SLT ISZERO PUSH2 0x1B8F JUMPI PUSH0 DUP1 REVERT JUMPDEST DUP3 CALLDATALOAD PUSH2 0x1B9A DUP2 PUSH2 0x1AFC JUMP JUMPDEST SWAP5 PUSH1 0x20 SWAP4 SWAP1 SWAP4 ADD CALLDATALOAD SWAP4 POP POP POP JUMP JUMPDEST PUSH0 PUSH1 0x20 DUP3 DUP5 SUB SLT ISZERO PUSH2 0x1BB8 JUMPI PUSH0 DUP1 REVERT JUMPDEST POP CALLDATALOAD SWAP2 SWAP1 POP JUMP JUMPDEST PUSH0 DUP1 PUSH0 PUSH1 0x60 DUP5 DUP7 SUB SLT ISZERO PUSH2 0x1BD1 JUMPI PUSH0 DUP1 REVERT JUMPDEST DUP4 CALLDATALOAD PUSH2 0x1BDC DUP2 PUSH2 0x1AFC JUMP JUMPDEST SWAP3 POP PUSH1 0x20 DUP5 ADD CALLDATALOAD PUSH2 0x1BEC DUP2 PUSH2 0x1AFC JUMP JUMPDEST SWAP3 SWAP6 SWAP3 SWAP5 POP POP POP PUSH1 0x40 SWAP2 SWAP1 SWAP2 ADD CALLDATALOAD SWAP1 JUMP JUMPDEST PUSH0 DUP1 PUSH0 DUP1 PUSH0 PUSH1 0xA0 DUP7 DUP9 SUB SLT ISZERO PUSH2 0x1C11 JUMPI PUSH0 DUP1 REVERT JUMPDEST POP POP DUP4 CALLDATALOAD SWAP6 PUSH1 0x20 DUP6 ADD CALLDATALOAD SWAP6 POP PUSH1 0x40 DUP6 ADD CALLDATALOAD SWAP5 PUSH1 0x60 DUP2 ADD CALLDATALOAD SWAP5 POP PUSH1 0x80 ADD CALLDATALOAD SWAP3 POP SWAP1 POP JUMP JUMPDEST DUP1 ISZERO ISZERO DUP2 EQ PUSH2 0x1137 JUMPI PUSH0 DUP1 REVERT JUMPDEST PUSH0 PUSH1 0x20 DUP3 DUP5 SUB SLT ISZERO PUSH2 0x1C51 JUMPI PUSH0 DUP1 REVERT JUMPDEST DUP2 CALLDATALOAD PUSH2 0x1B2B DUP2 PUSH2 0x1C34 JUMP JUMPDEST PUSH0 DUP1 PUSH1 0x40 DUP4 DUP6 SUB SLT ISZERO PUSH2 0x1C6D JUMPI PUSH0 DUP1 REVERT JUMPDEST DUP3 CALLDATALOAD PUSH2 0x1C78 DUP2 PUSH2 0x1AFC JUMP JUMPDEST SWAP2 POP PUSH1 0x20 DUP4 ADD CALLDATALOAD PUSH2 0x1C88 DUP2 PUSH2 0x1AFC JUMP JUMPDEST DUP1 SWAP2 POP POP SWAP3 POP SWAP3 SWAP1 POP JUMP JUMPDEST PUSH1 0x20 DUP1 DUP3 MSTORE DUP2 DUP2 ADD MSTORE PUSH32 0x4F776E61626C653A2063616C6C6572206973206E6F7420746865206F776E6572 PUSH1 0x40 DUP3 ADD MSTORE PUSH1 0x60 ADD SWAP1 JUMP JUMPDEST PUSH1 0x1 DUP2 DUP2 SHR SWAP1 DUP3 AND DUP1 PUSH2 0x1CDC JUMPI PUSH1 0x7F DUP3 AND SWAP2 POP JUMPDEST PUSH1 0x20 DUP3 LT DUP2 SUB PUSH2 0x1CFA JUMPI PUSH4 0x4E487B71 PUSH1 0xE0 SHL PUSH0 MSTORE PUSH1 0x22 PUSH1 0x4 MSTORE PUSH1 0x24 PUSH0 REVERT JUMPDEST POP SWAP2 SWAP1 POP JUMP JUMPDEST PUSH4 0x4E487B71 PUSH1 0xE0 SHL PUSH0 MSTORE PUSH1 0x11 PUSH1 0x4 MSTORE PUSH1 0x24 PUSH0 REVERT JUMPDEST DUP2 DUP2 SUB DUP2 DUP2 GT ISZERO PUSH2 0x8F1 JUMPI PUSH2 0x8F1 PUSH2 0x1D00 JUMP JUMPDEST DUP1 DUP3 ADD DUP1 DUP3 GT ISZERO PUSH2 0x8F1 JUMPI PUSH2 0x8F1 PUSH2 0x1D00 JUMP JUMPDEST PUSH0 PUSH1 0x20 DUP3 DUP5 SUB SLT ISZERO PUSH2 0x1D4A JUMPI PUSH0 DUP1 REVERT JUMPDEST POP MLOAD SWAP2 SWAP1 POP JUMP JUMPDEST PUSH0 PUSH1 0x20 DUP3 DUP5 SUB SLT ISZERO PUSH2 0x1D61 JUMPI PUSH0 DUP1 REVERT JUMPDEST DUP2 MLOAD PUSH2 0x1B2B DUP2 PUSH2 0x1C34 JUMP JUMPDEST DUP1 DUP3 MUL DUP2 ISZERO DUP3 DUP3 DIV DUP5 EQ OR PUSH2 0x8F1 JUMPI PUSH2 0x8F1 PUSH2 0x1D00 JUMP JUMPDEST PUSH0 DUP3 PUSH2 0x1D9D JUMPI PUSH4 0x4E487B71 PUSH1 0xE0 SHL PUSH0 MSTORE PUSH1 0x12 PUSH1 0x4 MSTORE PUSH1 0x24 PUSH0 REVERT JUMPDEST POP DIV SWAP1 JUMP JUMPDEST PUSH4 0x4E487B71 PUSH1 0xE0 SHL PUSH0 MSTORE PUSH1 0x32 PUSH1 0x4 MSTORE PUSH1 0x24 PUSH0 REVERT JUMPDEST PUSH0 PUSH1 0x20 DUP3 DUP5 SUB SLT ISZERO PUSH2 0x1DC6 JUMPI PUSH0 DUP1 REVERT JUMPDEST DUP2 MLOAD PUSH2 0x1B2B DUP2 PUSH2 0x1AFC JUMP JUMPDEST PUSH0 PUSH1 0xA0 DUP3 ADD DUP8 DUP4 MSTORE PUSH1 0x20 DUP8 PUSH1 0x20 DUP6 ADD MSTORE PUSH1 0xA0 PUSH1 0x40 DUP6 ADD MSTORE DUP2 DUP8 MLOAD DUP1 DUP5 MSTORE PUSH1 0xC0 DUP7 ADD SWAP2 POP PUSH1 0x20 DUP10 ADD SWAP4 POP PUSH0 JUMPDEST DUP2 DUP2 LT ISZERO PUSH2 0x1E21 JUMPI DUP5 MLOAD PUSH1 0x1 PUSH1 0x1 PUSH1 0xA0 SHL SUB AND DUP4 MSTORE SWAP4 DUP4 ADD SWAP4 SWAP2 DUP4 ADD SWAP2 PUSH1 0x1 ADD PUSH2 0x1DFC JUMP JUMPDEST POP POP PUSH1 0x1 PUSH1 0x1 PUSH1 0xA0 SHL SUB SWAP7 SWAP1 SWAP7 AND PUSH1 0x60 DUP6 ADD MSTORE POP POP POP PUSH1 0x80 ADD MSTORE SWAP4 SWAP3 POP POP POP JUMP JUMPDEST PUSH0 DUP1 PUSH0 PUSH1 0x60 DUP5 DUP7 SUB SLT ISZERO PUSH2 0x1E54 JUMPI PUSH0 DUP1 REVERT JUMPDEST DUP4 MLOAD SWAP3 POP PUSH1 0x20 DUP5 ADD MLOAD SWAP2 POP PUSH1 0x40 DUP5 ADD MLOAD SWAP1 POP SWAP3 POP SWAP3 POP SWAP3 JUMP INVALID LOG2 PUSH5 0x6970667358 0x22 SLT KECCAK256 0xCA DUP16 0xD5 DUP13 ISZERO DUP8 0xE6 PUSH15 0x64D7AADEAC06FF3C26648E5C6D764D BYTE PUSH1 0x4 0xBF MULMOD 0xA7 SWAP16 0xAF DUP14 PUSH5 0x736F6C6343 STOP ADDMOD XOR STOP CALLER "
				},
				"gasEstimates": {
					"creation": {
						"codeDepositCost": "1568600",
						"executionCost": "infinite",
						"totalCost": "infinite"
					},
					"external": {
						"AMMs(address)": "2568",
						"_isExcludedFromFee(address)": "2612",
						"_isExcludedFromMaxWallet(address)": "2655",
						"_maxWalletAmount()": "2449",
						"allowance(address,address)": "infinite",
						"approve(address,uint256)": "24678",
						"balanceOf(address)": "2574",
						"buybackAddress()": "2425",
						"buybackFee()": "2340",
						"changeMaxWalletLimit(uint256)": "24529",
						"changeNumTokensSellToAddToLiquidity(uint256)": "24528",
						"charityAddress()": "2491",
						"charityFee()": "2404",
						"decimals()": "2400",
						"decreaseAllowance(address,uint256)": "infinite",
						"developmentAddress()": "2447",
						"developmentFee()": "2405",
						"excludeFromAMMs(address)": "51116",
						"excludeFromFee(address)": "26830",
						"excludeFromMaxWallet(address)": "26807",
						"includeInAMMs(address)": "51089",
						"includeInFee(address)": "26822",
						"includeInMaxWallet(address)": "26802",
						"increaseAllowance(address,uint256)": "infinite",
						"liquidityFee()": "2339",
						"marketingAddress()": "2425",
						"marketingFee()": "2427",
						"name()": "infinite",
						"numTokensSellToAddToLiquidity()": "2405",
						"owner()": "2441",
						"removeStuckToken(address)": "infinite",
						"renounceOwnership()": "30229",
						"setFeePercent(uint256,uint256,uint256,uint256,uint256)": "infinite",
						"setSwapAndLiquifyEnabled(bool)": "27805",
						"swapAndLiquifyEnabled()": "2371",
						"symbol()": "infinite",
						"totalSupply()": "2415",
						"transfer(address,uint256)": "infinite",
						"transferFrom(address,address,uint256)": "infinite",
						"transferOwnership(address)": "30521",
						"uniswapV2Pair()": "infinite",
						"uniswapV2Router()": "2460",
						"withdrawStuckETH()": "infinite"
					},
					"internal": {
						"_approve(address,address,uint256)": "infinite",
						"_transfer(address,address,uint256)": "infinite",
						"addLiquidity(uint256,uint256)": "infinite",
						"swapAndLiquify(uint256)": "infinite",
						"totalfee()": "infinite"
					}
				},
				"methodIdentifiers": {
					"AMMs(address)": "1e9fe6c6",
					"_isExcludedFromFee(address)": "768dc710",
					"_isExcludedFromMaxWallet(address)": "d1d7d7ef",
					"_maxWalletAmount()": "6c0a24eb",
					"allowance(address,address)": "dd62ed3e",
					"approve(address,uint256)": "095ea7b3",
					"balanceOf(address)": "70a08231",
					"buybackAddress()": "cc2fbd66",
					"buybackFee()": "3b2d081c",
					"changeMaxWalletLimit(uint256)": "212e3b2b",
					"changeNumTokensSellToAddToLiquidity(uint256)": "c57a6c44",
					"charityAddress()": "afcf2fc4",
					"charityFee()": "ecfca899",
					"decimals()": "313ce567",
					"decreaseAllowance(address,uint256)": "a457c2d7",
					"developmentAddress()": "638b1b14",
					"developmentFee()": "a5f3d003",
					"excludeFromAMMs(address)": "5ec270c8",
					"excludeFromFee(address)": "437823ec",
					"excludeFromMaxWallet(address)": "5b700d91",
					"includeInAMMs(address)": "01b95e1d",
					"includeInFee(address)": "ea2f0b37",
					"includeInMaxWallet(address)": "3f33e909",
					"increaseAllowance(address,uint256)": "39509351",
					"liquidityFee()": "98118cb4",
					"marketingAddress()": "a5ece941",
					"marketingFee()": "6b67c4df",
					"name()": "06fdde03",
					"numTokensSellToAddToLiquidity()": "d12a7688",
					"owner()": "8da5cb5b",
					"removeStuckToken(address)": "e083e922",
					"renounceOwnership()": "715018a6",
					"setFeePercent(uint256,uint256,uint256,uint256,uint256)": "49c421e3",
					"setSwapAndLiquifyEnabled(bool)": "c49b9a80",
					"swapAndLiquifyEnabled()": "4a74bb02",
					"symbol()": "95d89b41",
					"totalSupply()": "18160ddd",
					"transfer(address,uint256)": "a9059cbb",
					"transferFrom(address,address,uint256)": "23b872dd",
					"transferOwnership(address)": "f2fde38b",
					"uniswapV2Pair()": "49bd5a5e",
					"uniswapV2Router()": "1694505e",
					"withdrawStuckETH()": "f5648a4f"
				}
			},
			"storageLayout": {
				"storage": [
					{
						"astId": 86,
						"contract": "contracts/STS.sol:STS",
						"label": "_owner",
						"offset": 0,
						"slot": "0",
						"type": "t_address"
					},
					{
						"astId": 185,
						"contract": "contracts/STS.sol:STS",
						"label": "_name",
						"offset": 0,
						"slot": "1",
						"type": "t_string_storage"
					},
					{
						"astId": 187,
						"contract": "contracts/STS.sol:STS",
						"label": "_symbol",
						"offset": 0,
						"slot": "2",
						"type": "t_string_storage"
					},
					{
						"astId": 189,
						"contract": "contracts/STS.sol:STS",
						"label": "_decimals",
						"offset": 0,
						"slot": "3",
						"type": "t_uint8"
					},
					{
						"astId": 939,
						"contract": "contracts/STS.sol:STS",
						"label": "uniswapV2Router",
						"offset": 1,
						"slot": "3",
						"type": "t_contract(IUniswapV2Router02)928"
					},
					{
						"astId": 945,
						"contract": "contracts/STS.sol:STS",
						"label": "_balances",
						"offset": 0,
						"slot": "4",
						"type": "t_mapping(t_address,t_uint256)"
					},
					{
						"astId": 951,
						"contract": "contracts/STS.sol:STS",
						"label": "_allowances",
						"offset": 0,
						"slot": "5",
						"type": "t_mapping(t_address,t_mapping(t_address,t_uint256))"
					},
					{
						"astId": 955,
						"contract": "contracts/STS.sol:STS",
						"label": "_isExcludedFromFee",
						"offset": 0,
						"slot": "6",
						"type": "t_mapping(t_address,t_bool)"
					},
					{
						"astId": 959,
						"contract": "contracts/STS.sol:STS",
						"label": "AMMs",
						"offset": 0,
						"slot": "7",
						"type": "t_mapping(t_address,t_bool)"
					},
					{
						"astId": 963,
						"contract": "contracts/STS.sol:STS",
						"label": "_isExcludedFromMaxWallet",
						"offset": 0,
						"slot": "8",
						"type": "t_mapping(t_address,t_bool)"
					},
					{
						"astId": 965,
						"contract": "contracts/STS.sol:STS",
						"label": "_totalSupply",
						"offset": 0,
						"slot": "9",
						"type": "t_uint256"
					},
					{
						"astId": 968,
						"contract": "contracts/STS.sol:STS",
						"label": "charityFee",
						"offset": 0,
						"slot": "10",
						"type": "t_uint256"
					},
					{
						"astId": 971,
						"contract": "contracts/STS.sol:STS",
						"label": "marketingFee",
						"offset": 0,
						"slot": "11",
						"type": "t_uint256"
					},
					{
						"astId": 974,
						"contract": "contracts/STS.sol:STS",
						"label": "developmentFee",
						"offset": 0,
						"slot": "12",
						"type": "t_uint256"
					},
					{
						"astId": 977,
						"contract": "contracts/STS.sol:STS",
						"label": "buybackFee",
						"offset": 0,
						"slot": "13",
						"type": "t_uint256"
					},
					{
						"astId": 980,
						"contract": "contracts/STS.sol:STS",
						"label": "liquidityFee",
						"offset": 0,
						"slot": "14",
						"type": "t_uint256"
					},
					{
						"astId": 991,
						"contract": "contracts/STS.sol:STS",
						"label": "totalFee",
						"offset": 0,
						"slot": "15",
						"type": "t_uint256"
					},
					{
						"astId": 997,
						"contract": "contracts/STS.sol:STS",
						"label": "charityAddress",
						"offset": 0,
						"slot": "16",
						"type": "t_address_payable"
					},
					{
						"astId": 1003,
						"contract": "contracts/STS.sol:STS",
						"label": "marketingAddress",
						"offset": 0,
						"slot": "17",
						"type": "t_address_payable"
					},
					{
						"astId": 1009,
						"contract": "contracts/STS.sol:STS",
						"label": "developmentAddress",
						"offset": 0,
						"slot": "18",
						"type": "t_address_payable"
					},
					{
						"astId": 1015,
						"contract": "contracts/STS.sol:STS",
						"label": "buybackAddress",
						"offset": 0,
						"slot": "19",
						"type": "t_address_payable"
					},
					{
						"astId": 1017,
						"contract": "contracts/STS.sol:STS",
						"label": "inSwapAndLiquify",
						"offset": 20,
						"slot": "19",
						"type": "t_bool"
					},
					{
						"astId": 1020,
						"contract": "contracts/STS.sol:STS",
						"label": "swapAndLiquifyEnabled",
						"offset": 21,
						"slot": "19",
						"type": "t_bool"
					},
					{
						"astId": 1027,
						"contract": "contracts/STS.sol:STS",
						"label": "numTokensSellToAddToLiquidity",
						"offset": 0,
						"slot": "20",
						"type": "t_uint256"
					},
					{
						"astId": 1034,
						"contract": "contracts/STS.sol:STS",
						"label": "_maxWalletAmount",
						"offset": 0,
						"slot": "21",
						"type": "t_uint256"
					}
				],
				"types": {
					"t_address": {
						"encoding": "inplace",
						"label": "address",
						"numberOfBytes": "20"
					},
					"t_address_payable": {
						"encoding": "inplace",
						"label": "address payable",
						"numberOfBytes": "20"
					},
					"t_bool": {
						"encoding": "inplace",
						"label": "bool",
						"numberOfBytes": "1"
					},
					"t_contract(IUniswapV2Router02)928": {
						"encoding": "inplace",
						"label": "contract IUniswapV2Router02",
						"numberOfBytes": "20"
					},
					"t_mapping(t_address,t_bool)": {
						"encoding": "mapping",
						"key": "t_address",
						"label": "mapping(address => bool)",
						"numberOfBytes": "32",
						"value": "t_bool"
					},
					"t_mapping(t_address,t_mapping(t_address,t_uint256))": {
						"encoding": "mapping",
						"key": "t_address",
						"label": "mapping(address => mapping(address => uint256))",
						"numberOfBytes": "32",
						"value": "t_mapping(t_address,t_uint256)"
					},
					"t_mapping(t_address,t_uint256)": {
						"encoding": "mapping",
						"key": "t_address",
						"label": "mapping(address => uint256)",
						"numberOfBytes": "32",
						"value": "t_uint256"
					},
					"t_string_storage": {
						"encoding": "bytes",
						"label": "string",
						"numberOfBytes": "32"
					},
					"t_uint256": {
						"encoding": "inplace",
						"label": "uint256",
						"numberOfBytes": "32"
					},
					"t_uint8": {
						"encoding": "inplace",
						"label": "uint8",
						"numberOfBytes": "1"
					}
				}
			},
			"userdoc": {
				"kind": "user",
				"methods": {},
				"version": 1
			}
		}
	}
}