{
	"contracts/tauqeer.sol": {
		"ERC20Detailed": {
			"abi": [
				{
					"inputs": [
						{
							"internalType": "string",
							"name": "tname",
							"type": "string"
						},
						{
							"internalType": "string",
							"name": "tsymbol",
							"type": "string"
						},
						{
							"internalType": "uint8",
							"name": "tdecimals",
							"type": "uint8"
						}
					],
					"stateMutability": "nonpayable",
					"type": "constructor"
				},
				{
					"inputs": [],
					"name": "decimals",
					"outputs": [
						{
							"internalType": "uint8",
							"name": "",
							"type": "uint8"
						}
					],
					"stateMutability": "view",
					"type": "function"
				},
				{
					"inputs": [],
					"name": "name",
					"outputs": [
						{
							"internalType": "string",
							"name": "",
							"type": "string"
						}
					],
					"stateMutability": "view",
					"type": "function"
				},
				{
					"inputs": [],
					"name": "symbol",
					"outputs": [
						{
							"internalType": "string",
							"name": "",
							"type": "string"
						}
					],
					"stateMutability": "view",
					"type": "function"
				}
			],
			"devdoc": {
				"kind": "dev",
				"methods": {},
				"version": 1
			},
			"evm": {
				"assembly": "    /* \"contracts/tauqeer.sol\":2587:3155  contract ERC20Detailed {... */\n  mstore(0x40, 0x80)\n    /* \"contracts/tauqeer.sol\":2705:2881  constructor (string memory tname, string memory tsymbol, uint8 tdecimals) {... */\n  callvalue\n  dup1\n  iszero\n  tag_1\n  jumpi\n  0x00\n  dup1\n  revert\ntag_1:\n  pop\n  mload(0x40)\n  sub(codesize, bytecodeSize)\n  dup1\n  bytecodeSize\n  dup4\n  codecopy\n  dup2\n  add\n  0x40\n  dup2\n  swap1\n  mstore\n  tag_2\n  swap2\n  tag_3\n  jump\t// in\ntag_2:\n    /* \"contracts/tauqeer.sol\":2790:2795  _name */\n  0x00\n    /* \"contracts/tauqeer.sol\":2790:2803  _name = tname */\n  tag_6\n    /* \"contracts/tauqeer.sol\":2798:2803  tname */\n  dup5\n    /* \"contracts/tauqeer.sol\":2790:2795  _name */\n  dup3\n    /* \"contracts/tauqeer.sol\":2790:2803  _name = tname */\n  tag_7\n  jump\t// in\ntag_6:\n  pop\n    /* \"contracts/tauqeer.sol\":2814:2821  _symbol */\n  0x01\n    /* \"contracts/tauqeer.sol\":2814:2831  _symbol = tsymbol */\n  tag_8\n    /* \"contracts/tauqeer.sol\":2824:2831  tsymbol */\n  dup4\n    /* \"contracts/tauqeer.sol\":2814:2821  _symbol */\n  dup3\n    /* \"contracts/tauqeer.sol\":2814:2831  _symbol = tsymbol */\n  tag_7\n  jump\t// in\ntag_8:\n  pop\n    /* \"contracts/tauqeer.sol\":2842:2851  _decimals */\n  0x02\n    /* \"contracts/tauqeer.sol\":2842:2863  _decimals = tdecimals */\n  dup1\n  sload\n  not(0xff)\n  and\n  0xff\n  swap3\n  swap1\n  swap3\n  and\n  swap2\n  swap1\n  swap2\n  or\n  swap1\n  sstore\n  pop\n    /* \"contracts/tauqeer.sol\":2587:3155  contract ERC20Detailed {... */\n  tag_16\n  swap1\n  pop\n  jump\n    /* \"#utility.yul\":14:141   */\ntag_10:\n    /* \"#utility.yul\":75:85   */\n  0x4e487b71\n    /* \"#utility.yul\":70:73   */\n  0xe0\n    /* \"#utility.yul\":66:86   */\n  shl\n    /* \"#utility.yul\":63:64   */\n  0x00\n    /* \"#utility.yul\":56:87   */\n  mstore\n    /* \"#utility.yul\":106:110   */\n  0x41\n    /* \"#utility.yul\":103:104   */\n  0x04\n    /* \"#utility.yul\":96:111   */\n  mstore\n    /* \"#utility.yul\":130:134   */\n  0x24\n    /* \"#utility.yul\":127:128   */\n  0x00\n    /* \"#utility.yul\":120:135   */\n  revert\n    /* \"#utility.yul\":146:862   */\ntag_11:\n    /* \"#utility.yul\":200:205   */\n  0x00\n    /* \"#utility.yul\":253:256   */\n  dup3\n    /* \"#utility.yul\":246:250   */\n  0x1f\n    /* \"#utility.yul\":238:244   */\n  dup4\n    /* \"#utility.yul\":234:251   */\n  add\n    /* \"#utility.yul\":230:257   */\n  slt\n    /* \"#utility.yul\":220:275   */\n  tag_19\n  jumpi\n    /* \"#utility.yul\":271:272   */\n  0x00\n    /* \"#utility.yul\":268:269   */\n  dup1\n    /* \"#utility.yul\":261:273   */\n  revert\n    /* \"#utility.yul\":220:275   */\ntag_19:\n    /* \"#utility.yul\":294:307   */\n  dup2\n  mload\n  sub(shl(0x40, 0x01), 0x01)\n    /* \"#utility.yul\":356:366   */\n  dup1\n  dup3\n  gt\n    /* \"#utility.yul\":353:389   */\n  iszero\n  tag_21\n  jumpi\n    /* \"#utility.yul\":369:387   */\n  tag_21\n  tag_10\n  jump\t// in\ntag_21:\n    /* \"#utility.yul\":444:446   */\n  0x40\n    /* \"#utility.yul\":438:447   */\n  mload\n    /* \"#utility.yul\":412:414   */\n  0x1f\n    /* \"#utility.yul\":498:511   */\n  dup4\n  add\n  not(0x1f)\n    /* \"#utility.yul\":494:516   */\n  swap1\n  dup2\n  and\n    /* \"#utility.yul\":518:520   */\n  0x3f\n    /* \"#utility.yul\":490:521   */\n  add\n    /* \"#utility.yul\":486:526   */\n  and\n    /* \"#utility.yul\":474:527   */\n  dup2\n  add\n  swap1\n    /* \"#utility.yul\":542:560   */\n  dup3\n  dup3\n  gt\n    /* \"#utility.yul\":562:584   */\n  dup2\n  dup4\n  lt\n    /* \"#utility.yul\":539:585   */\n  or\n    /* \"#utility.yul\":536:608   */\n  iszero\n  tag_23\n  jumpi\n    /* \"#utility.yul\":588:606   */\n  tag_23\n  tag_10\n  jump\t// in\ntag_23:\n    /* \"#utility.yul\":628:638   */\n  dup2\n    /* \"#utility.yul\":624:626   */\n  0x40\n    /* \"#utility.yul\":617:639   */\n  mstore\n    /* \"#utility.yul\":663:665   */\n  dup4\n    /* \"#utility.yul\":655:661   */\n  dup2\n    /* \"#utility.yul\":648:666   */\n  mstore\n    /* \"#utility.yul\":709:712   */\n  dup7\n    /* \"#utility.yul\":702:706   */\n  0x20\n    /* \"#utility.yul\":697:699   */\n  dup6\n    /* \"#utility.yul\":689:695   */\n  dup9\n    /* \"#utility.yul\":685:700   */\n  add\n    /* \"#utility.yul\":681:707   */\n  add\n    /* \"#utility.yul\":678:713   */\n  gt\n    /* \"#utility.yul\":675:730   */\n  iszero\n  tag_24\n  jumpi\n    /* \"#utility.yul\":726:727   */\n  0x00\n    /* \"#utility.yul\":723:724   */\n  dup1\n    /* \"#utility.yul\":716:728   */\n  revert\n    /* \"#utility.yul\":675:730   */\ntag_24:\n    /* \"#utility.yul\":783:785   */\n  dup4\n    /* \"#utility.yul\":776:780   */\n  0x20\n    /* \"#utility.yul\":768:774   */\n  dup8\n    /* \"#utility.yul\":764:781   */\n  add\n    /* \"#utility.yul\":757:761   */\n  0x20\n    /* \"#utility.yul\":749:755   */\n  dup4\n    /* \"#utility.yul\":745:762   */\n  add\n    /* \"#utility.yul\":739:786   */\n  mcopy\n    /* \"#utility.yul\":830:831   */\n  0x00\n    /* \"#utility.yul\":823:827   */\n  0x20\n    /* \"#utility.yul\":818:820   */\n  dup6\n    /* \"#utility.yul\":810:816   */\n  dup4\n    /* \"#utility.yul\":806:821   */\n  add\n    /* \"#utility.yul\":802:828   */\n  add\n    /* \"#utility.yul\":795:832   */\n  mstore\n    /* \"#utility.yul\":850:856   */\n  dup1\n    /* \"#utility.yul\":841:856   */\n  swap5\n  pop\n  pop\n  pop\n  pop\n  pop\n    /* \"#utility.yul\":146:862   */\n  swap3\n  swap2\n  pop\n  pop\n  jump\t// out\n    /* \"#utility.yul\":867:1579   */\ntag_3:\n    /* \"#utility.yul\":973:979   */\n  0x00\n    /* \"#utility.yul\":981:987   */\n  dup1\n    /* \"#utility.yul\":989:995   */\n  0x00\n    /* \"#utility.yul\":1042:1044   */\n  0x60\n    /* \"#utility.yul\":1030:1039   */\n  dup5\n    /* \"#utility.yul\":1021:1028   */\n  dup7\n    /* \"#utility.yul\":1017:1040   */\n  sub\n    /* \"#utility.yul\":1013:1045   */\n  slt\n    /* \"#utility.yul\":1010:1062   */\n  iszero\n  tag_26\n  jumpi\n    /* \"#utility.yul\":1058:1059   */\n  0x00\n    /* \"#utility.yul\":1055:1056   */\n  dup1\n    /* \"#utility.yul\":1048:1060   */\n  revert\n    /* \"#utility.yul\":1010:1062   */\ntag_26:\n    /* \"#utility.yul\":1085:1101   */\n  dup4\n  mload\n  sub(shl(0x40, 0x01), 0x01)\n    /* \"#utility.yul\":1150:1164   */\n  dup1\n  dup3\n  gt\n    /* \"#utility.yul\":1147:1181   */\n  iszero\n  tag_27\n  jumpi\n    /* \"#utility.yul\":1177:1178   */\n  0x00\n    /* \"#utility.yul\":1174:1175   */\n  dup1\n    /* \"#utility.yul\":1167:1179   */\n  revert\n    /* \"#utility.yul\":1147:1181   */\ntag_27:\n    /* \"#utility.yul\":1200:1261   */\n  tag_28\n    /* \"#utility.yul\":1253:1260   */\n  dup8\n    /* \"#utility.yul\":1244:1250   */\n  dup4\n    /* \"#utility.yul\":1233:1242   */\n  dup9\n    /* \"#utility.yul\":1229:1251   */\n  add\n    /* \"#utility.yul\":1200:1261   */\n  tag_11\n  jump\t// in\ntag_28:\n    /* \"#utility.yul\":1190:1261   */\n  swap5\n  pop\n    /* \"#utility.yul\":1307:1309   */\n  0x20\n    /* \"#utility.yul\":1296:1305   */\n  dup7\n    /* \"#utility.yul\":1292:1310   */\n  add\n    /* \"#utility.yul\":1286:1311   */\n  mload\n    /* \"#utility.yul\":1270:1311   */\n  swap2\n  pop\n    /* \"#utility.yul\":1336:1338   */\n  dup1\n    /* \"#utility.yul\":1326:1334   */\n  dup3\n    /* \"#utility.yul\":1323:1339   */\n  gt\n    /* \"#utility.yul\":1320:1356   */\n  iszero\n  tag_29\n  jumpi\n    /* \"#utility.yul\":1352:1353   */\n  0x00\n    /* \"#utility.yul\":1349:1350   */\n  dup1\n    /* \"#utility.yul\":1342:1354   */\n  revert\n    /* \"#utility.yul\":1320:1356   */\ntag_29:\n  pop\n    /* \"#utility.yul\":1375:1438   */\n  tag_30\n    /* \"#utility.yul\":1430:1437   */\n  dup7\n    /* \"#utility.yul\":1419:1427   */\n  dup3\n    /* \"#utility.yul\":1408:1417   */\n  dup8\n    /* \"#utility.yul\":1404:1428   */\n  add\n    /* \"#utility.yul\":1375:1438   */\n  tag_11\n  jump\t// in\ntag_30:\n    /* \"#utility.yul\":1365:1438   */\n  swap3\n  pop\n  pop\n    /* \"#utility.yul\":1481:1483   */\n  0x40\n    /* \"#utility.yul\":1470:1479   */\n  dup5\n    /* \"#utility.yul\":1466:1484   */\n  add\n    /* \"#utility.yul\":1460:1485   */\n  mload\n    /* \"#utility.yul\":1525:1529   */\n  0xff\n    /* \"#utility.yul\":1518:1523   */\n  dup2\n    /* \"#utility.yul\":1514:1530   */\n  and\n    /* \"#utility.yul\":1507:1512   */\n  dup2\n    /* \"#utility.yul\":1504:1531   */\n  eq\n    /* \"#utility.yul\":1494:1549   */\n  tag_31\n  jumpi\n    /* \"#utility.yul\":1545:1546   */\n  0x00\n    /* \"#utility.yul\":1542:1543   */\n  dup1\n    /* \"#utility.yul\":1535:1547   */\n  revert\n    /* \"#utility.yul\":1494:1549   */\ntag_31:\n    /* \"#utility.yul\":1568:1573   */\n  dup1\n    /* \"#utility.yul\":1558:1573   */\n  swap2\n  pop\n  pop\n    /* \"#utility.yul\":867:1579   */\n  swap3\n  pop\n  swap3\n  pop\n  swap3\n  jump\t// out\n    /* \"#utility.yul\":1584:1964   */\ntag_12:\n    /* \"#utility.yul\":1663:1664   */\n  0x01\n    /* \"#utility.yul\":1659:1671   */\n  dup2\n  dup2\n  shr\n  swap1\n    /* \"#utility.yul\":1706:1718   */\n  dup3\n  and\n  dup1\n    /* \"#utility.yul\":1727:1788   */\n  tag_33\n  jumpi\n    /* \"#utility.yul\":1781:1785   */\n  0x7f\n    /* \"#utility.yul\":1773:1779   */\n  dup3\n    /* \"#utility.yul\":1769:1786   */\n  and\n    /* \"#utility.yul\":1759:1786   */\n  swap2\n  pop\n    /* \"#utility.yul\":1727:1788   */\ntag_33:\n    /* \"#utility.yul\":1834:1836   */\n  0x20\n    /* \"#utility.yul\":1826:1832   */\n  dup3\n    /* \"#utility.yul\":1823:1837   */\n  lt\n    /* \"#utility.yul\":1803:1821   */\n  dup2\n    /* \"#utility.yul\":1800:1838   */\n  sub\n    /* \"#utility.yul\":1797:1958   */\n  tag_34\n  jumpi\n    /* \"#utility.yul\":1880:1890   */\n  0x4e487b71\n    /* \"#utility.yul\":1875:1878   */\n  0xe0\n    /* \"#utility.yul\":1871:1891   */\n  shl\n    /* \"#utility.yul\":1868:1869   */\n  0x00\n    /* \"#utility.yul\":1861:1892   */\n  mstore\n    /* \"#utility.yul\":1915:1919   */\n  0x22\n    /* \"#utility.yul\":1912:1913   */\n  0x04\n    /* \"#utility.yul\":1905:1920   */\n  mstore\n    /* \"#utility.yul\":1943:1947   */\n  0x24\n    /* \"#utility.yul\":1940:1941   */\n  0x00\n    /* \"#utility.yul\":1933:1948   */\n  revert\n    /* \"#utility.yul\":1797:1958   */\ntag_34:\n  pop\n    /* \"#utility.yul\":1584:1964   */\n  swap2\n  swap1\n  pop\n  jump\t// out\n    /* \"#utility.yul\":2095:2613   */\ntag_14:\n    /* \"#utility.yul\":2197:2199   */\n  0x1f\n    /* \"#utility.yul\":2192:2195   */\n  dup3\n    /* \"#utility.yul\":2189:2200   */\n  gt\n    /* \"#utility.yul\":2186:2607   */\n  iszero\n  tag_37\n  jumpi\n    /* \"#utility.yul\":2233:2238   */\n  dup1\n    /* \"#utility.yul\":2230:2231   */\n  0x00\n    /* \"#utility.yul\":2223:2239   */\n  mstore\n    /* \"#utility.yul\":2277:2281   */\n  0x20\n    /* \"#utility.yul\":2274:2275   */\n  0x00\n    /* \"#utility.yul\":2264:2282   */\n  keccak256\n    /* \"#utility.yul\":2347:2349   */\n  0x1f\n    /* \"#utility.yul\":2335:2345   */\n  dup5\n    /* \"#utility.yul\":2331:2350   */\n  add\n    /* \"#utility.yul\":2328:2329   */\n  0x05\n    /* \"#utility.yul\":2324:2351   */\n  shr\n    /* \"#utility.yul\":2318:2322   */\n  dup2\n    /* \"#utility.yul\":2314:2352   */\n  add\n    /* \"#utility.yul\":2383:2387   */\n  0x20\n    /* \"#utility.yul\":2371:2381   */\n  dup6\n    /* \"#utility.yul\":2368:2388   */\n  lt\n    /* \"#utility.yul\":2365:2412   */\n  iszero\n  tag_38\n  jumpi\n  pop\n    /* \"#utility.yul\":2406:2410   */\n  dup1\n    /* \"#utility.yul\":2365:2412   */\ntag_38:\n    /* \"#utility.yul\":2461:2463   */\n  0x1f\n    /* \"#utility.yul\":2456:2459   */\n  dup5\n    /* \"#utility.yul\":2452:2464   */\n  add\n    /* \"#utility.yul\":2449:2450   */\n  0x05\n    /* \"#utility.yul\":2445:2465   */\n  shr\n    /* \"#utility.yul\":2439:2443   */\n  dup3\n    /* \"#utility.yul\":2435:2466   */\n  add\n    /* \"#utility.yul\":2425:2466   */\n  swap2\n  pop\n    /* \"#utility.yul\":2516:2597   */\ntag_39:\n    /* \"#utility.yul\":2534:2536   */\n  dup2\n    /* \"#utility.yul\":2527:2532   */\n  dup2\n    /* \"#utility.yul\":2524:2537   */\n  lt\n    /* \"#utility.yul\":2516:2597   */\n  iszero\n  tag_41\n  jumpi\n    /* \"#utility.yul\":2593:2594   */\n  0x00\n    /* \"#utility.yul\":2579:2595   */\n  dup2\n  sstore\n    /* \"#utility.yul\":2560:2561   */\n  0x01\n    /* \"#utility.yul\":2549:2562   */\n  add\n    /* \"#utility.yul\":2516:2597   */\n  jump(tag_39)\ntag_41:\n    /* \"#utility.yul\":2520:2523   */\n  pop\n  pop\n    /* \"#utility.yul\":2186:2607   */\ntag_37:\n    /* \"#utility.yul\":2095:2613   */\n  pop\n  pop\n  pop\n  jump\t// out\n    /* \"#utility.yul\":2789:4134   */\ntag_7:\n    /* \"#utility.yul\":2909:2919   */\n  dup2\n  mload\n  sub(shl(0x40, 0x01), 0x01)\n    /* \"#utility.yul\":2931:2961   */\n  dup2\n  gt\n    /* \"#utility.yul\":2928:2984   */\n  iszero\n  tag_45\n  jumpi\n    /* \"#utility.yul\":2964:2982   */\n  tag_45\n  tag_10\n  jump\t// in\ntag_45:\n    /* \"#utility.yul\":2993:3090   */\n  tag_46\n    /* \"#utility.yul\":3083:3089   */\n  dup2\n    /* \"#utility.yul\":3043:3081   */\n  tag_47\n    /* \"#utility.yul\":3075:3079   */\n  dup5\n    /* \"#utility.yul\":3069:3080   */\n  sload\n    /* \"#utility.yul\":3043:3081   */\n  tag_12\n  jump\t// in\ntag_47:\n    /* \"#utility.yul\":3037:3041   */\n  dup5\n    /* \"#utility.yul\":2993:3090   */\n  tag_14\n  jump\t// in\ntag_46:\n    /* \"#utility.yul\":3145:3149   */\n  0x20\n  dup1\n    /* \"#utility.yul\":3202:3204   */\n  0x1f\n    /* \"#utility.yul\":3191:3205   */\n  dup4\n  gt\n    /* \"#utility.yul\":3219:3220   */\n  0x01\n    /* \"#utility.yul\":3214:3877   */\n  dup2\n  eq\n  tag_49\n  jumpi\n    /* \"#utility.yul\":3921:3922   */\n  0x00\n    /* \"#utility.yul\":3938:3944   */\n  dup5\n    /* \"#utility.yul\":3935:4024   */\n  iszero\n  tag_50\n  jumpi\n  pop\n    /* \"#utility.yul\":3990:4009   */\n  dup6\n  dup4\n  add\n    /* \"#utility.yul\":3984:4010   */\n  mload\n    /* \"#utility.yul\":3935:4024   */\ntag_50:\n  not(0x00)\n    /* \"#utility.yul\":2746:2747   */\n  0x03\n    /* \"#utility.yul\":2742:2753   */\n  dup7\n  swap1\n  shl\n    /* \"#utility.yul\":2738:2762   */\n  shr\n    /* \"#utility.yul\":2734:2763   */\n  not\n    /* \"#utility.yul\":2724:2764   */\n  and\n    /* \"#utility.yul\":2770:2771   */\n  0x01\n    /* \"#utility.yul\":2766:2777   */\n  dup6\n  swap1\n  shl\n    /* \"#utility.yul\":2721:2778   */\n  or\n    /* \"#utility.yul\":4037:4118   */\n  dup6\n  sstore\n    /* \"#utility.yul\":3184:4128   */\n  jump(tag_48)\n    /* \"#utility.yul\":3214:3877   */\ntag_49:\n    /* \"#utility.yul\":2042:2043   */\n  0x00\n    /* \"#utility.yul\":2035:2049   */\n  dup6\n  dup2\n  mstore\n    /* \"#utility.yul\":2079:2083   */\n  0x20\n    /* \"#utility.yul\":2066:2084   */\n  dup2\n  keccak256\n  not(0x1f)\n    /* \"#utility.yul\":3250:3270   */\n  dup7\n  and\n  swap2\n    /* \"#utility.yul\":3368:3604   */\ntag_53:\n    /* \"#utility.yul\":3382:3389   */\n  dup3\n    /* \"#utility.yul\":3379:3380   */\n  dup2\n    /* \"#utility.yul\":3376:3390   */\n  lt\n    /* \"#utility.yul\":3368:3604   */\n  iszero\n  tag_55\n  jumpi\n    /* \"#utility.yul\":3471:3490   */\n  dup9\n  dup7\n  add\n    /* \"#utility.yul\":3465:3491   */\n  mload\n    /* \"#utility.yul\":3450:3492   */\n  dup3\n  sstore\n    /* \"#utility.yul\":3563:3590   */\n  swap5\n  dup5\n  add\n  swap5\n    /* \"#utility.yul\":3531:3532   */\n  0x01\n    /* \"#utility.yul\":3519:3533   */\n  swap1\n  swap2\n  add\n  swap1\n    /* \"#utility.yul\":3398:3417   */\n  dup5\n  add\n    /* \"#utility.yul\":3368:3604   */\n  jump(tag_53)\ntag_55:\n    /* \"#utility.yul\":3372:3375   */\n  pop\n    /* \"#utility.yul\":3632:3638   */\n  dup6\n    /* \"#utility.yul\":3623:3630   */\n  dup3\n    /* \"#utility.yul\":3620:3639   */\n  lt\n    /* \"#utility.yul\":3617:3818   */\n  iszero\n  tag_56\n  jumpi\n    /* \"#utility.yul\":3693:3712   */\n  dup8\n  dup6\n  add\n    /* \"#utility.yul\":3687:3713   */\n  mload\n  not(0x00)\n    /* \"#utility.yul\":3776:3777   */\n  0x03\n    /* \"#utility.yul\":3772:3786   */\n  dup9\n  swap1\n  shl\n    /* \"#utility.yul\":3788:3791   */\n  0xf8\n    /* \"#utility.yul\":3768:3792   */\n  and\n    /* \"#utility.yul\":3764:3801   */\n  shr\n    /* \"#utility.yul\":3760:3802   */\n  not\n    /* \"#utility.yul\":3745:3803   */\n  and\n    /* \"#utility.yul\":3730:3804   */\n  dup2\n  sstore\n    /* \"#utility.yul\":3617:3818   */\ntag_56:\n  pop\n  pop\n    /* \"#utility.yul\":3864:3865   */\n  0x01\n    /* \"#utility.yul\":3855:3861   */\n  dup5\n    /* \"#utility.yul\":3852:3853   */\n  0x01\n    /* \"#utility.yul\":3848:3862   */\n  shl\n    /* \"#utility.yul\":3844:3866   */\n  add\n    /* \"#utility.yul\":3838:3842   */\n  dup6\n    /* \"#utility.yul\":3831:3867   */\n  sstore\n    /* \"#utility.yul\":3184:4128   */\ntag_48:\n  pop\n  pop\n  pop\n  pop\n    /* \"#utility.yul\":2789:4134   */\n  pop\n  pop\n  jump\t// out\ntag_16:\n    /* \"contracts/tauqeer.sol\":2587:3155  contract ERC20Detailed {... */\n  dataSize(sub_0)\n  dup1\n  dataOffset(sub_0)\n  0x00\n  codecopy\n  0x00\n  return\nstop\n\nsub_0: assembly {\n        /* \"contracts/tauqeer.sol\":2587:3155  contract ERC20Detailed {... */\n      mstore(0x40, 0x80)\n      callvalue\n      dup1\n      iszero\n      tag_1\n      jumpi\n      0x00\n      dup1\n      revert\n    tag_1:\n      pop\n      jumpi(tag_2, lt(calldatasize, 0x04))\n      shr(0xe0, calldataload(0x00))\n      dup1\n      0x06fdde03\n      eq\n      tag_3\n      jumpi\n      dup1\n      0x313ce567\n      eq\n      tag_4\n      jumpi\n      dup1\n      0x95d89b41\n      eq\n      tag_5\n      jumpi\n    tag_2:\n      0x00\n      dup1\n      revert\n        /* \"contracts/tauqeer.sol\":2887:2970  function name() public view returns (string memory) {... */\n    tag_3:\n      tag_6\n      tag_7\n      jump\t// in\n    tag_6:\n      mload(0x40)\n      tag_8\n      swap2\n      swap1\n      tag_9\n      jump\t// in\n    tag_8:\n      mload(0x40)\n      dup1\n      swap2\n      sub\n      swap1\n      return\n        /* \"contracts/tauqeer.sol\":3069:3152  function decimals() public view returns (uint8) {... */\n    tag_4:\n        /* \"contracts/tauqeer.sol\":3135:3144  _decimals */\n      sload(0x02)\n        /* \"contracts/tauqeer.sol\":3069:3152  function decimals() public view returns (uint8) {... */\n      mload(0x40)\n        /* \"contracts/tauqeer.sol\":3135:3144  _decimals */\n      0xff\n      swap1\n      swap2\n      and\n        /* \"#utility.yul\":579:615   */\n      dup2\n      mstore\n        /* \"#utility.yul\":567:569   */\n      0x20\n        /* \"#utility.yul\":552:570   */\n      add\n        /* \"contracts/tauqeer.sol\":3069:3152  function decimals() public view returns (uint8) {... */\n      tag_8\n        /* \"#utility.yul\":437:621   */\n      jump\n        /* \"contracts/tauqeer.sol\":2976:3063  function symbol() public view returns (string memory) {... */\n    tag_5:\n      tag_6\n      tag_15\n      jump\t// in\n        /* \"contracts/tauqeer.sol\":2887:2970  function name() public view returns (string memory) {... */\n    tag_7:\n        /* \"contracts/tauqeer.sol\":2924:2937  string memory */\n      0x60\n        /* \"contracts/tauqeer.sol\":2957:2962  _name */\n      0x00\n        /* \"contracts/tauqeer.sol\":2950:2962  return _name */\n      dup1\n      sload\n      tag_18\n      swap1\n      tag_19\n      jump\t// in\n    tag_18:\n      dup1\n      0x1f\n      add\n      0x20\n      dup1\n      swap2\n      div\n      mul\n      0x20\n      add\n      mload(0x40)\n      swap1\n      dup2\n      add\n      0x40\n      mstore\n      dup1\n      swap3\n      swap2\n      swap1\n      dup2\n      dup2\n      mstore\n      0x20\n      add\n      dup3\n      dup1\n      sload\n      tag_20\n      swap1\n      tag_19\n      jump\t// in\n    tag_20:\n      dup1\n      iszero\n      tag_21\n      jumpi\n      dup1\n      0x1f\n      lt\n      tag_22\n      jumpi\n      0x0100\n      dup1\n      dup4\n      sload\n      div\n      mul\n      dup4\n      mstore\n      swap2\n      0x20\n      add\n      swap2\n      jump(tag_21)\n    tag_22:\n      dup3\n      add\n      swap2\n      swap1\n      0x00\n      mstore\n      keccak256(0x00, 0x20)\n      swap1\n    tag_23:\n      dup2\n      sload\n      dup2\n      mstore\n      swap1\n      0x01\n      add\n      swap1\n      0x20\n      add\n      dup1\n      dup4\n      gt\n      tag_23\n      jumpi\n      dup3\n      swap1\n      sub\n      0x1f\n      and\n      dup3\n      add\n      swap2\n    tag_21:\n      pop\n      pop\n      pop\n      pop\n      pop\n      swap1\n      pop\n        /* \"contracts/tauqeer.sol\":2887:2970  function name() public view returns (string memory) {... */\n      swap1\n      jump\t// out\n        /* \"contracts/tauqeer.sol\":2976:3063  function symbol() public view returns (string memory) {... */\n    tag_15:\n        /* \"contracts/tauqeer.sol\":3015:3028  string memory */\n      0x60\n        /* \"contracts/tauqeer.sol\":3048:3055  _symbol */\n      0x01\n        /* \"contracts/tauqeer.sol\":3041:3055  return _symbol */\n      dup1\n      sload\n      tag_18\n      swap1\n      tag_19\n      jump\t// in\n        /* \"#utility.yul\":14:432   */\n    tag_9:\n        /* \"#utility.yul\":163:165   */\n      0x20\n        /* \"#utility.yul\":152:161   */\n      dup2\n        /* \"#utility.yul\":145:166   */\n      mstore\n        /* \"#utility.yul\":126:130   */\n      0x00\n        /* \"#utility.yul\":195:201   */\n      dup3\n        /* \"#utility.yul\":189:202   */\n      mload\n        /* \"#utility.yul\":238:244   */\n      dup1\n        /* \"#utility.yul\":233:235   */\n      0x20\n        /* \"#utility.yul\":222:231   */\n      dup5\n        /* \"#utility.yul\":218:236   */\n      add\n        /* \"#utility.yul\":211:245   */\n      mstore\n        /* \"#utility.yul\":297:303   */\n      dup1\n        /* \"#utility.yul\":292:294   */\n      0x20\n        /* \"#utility.yul\":284:290   */\n      dup6\n        /* \"#utility.yul\":280:295   */\n      add\n        /* \"#utility.yul\":275:277   */\n      0x40\n        /* \"#utility.yul\":264:273   */\n      dup6\n        /* \"#utility.yul\":260:278   */\n      add\n        /* \"#utility.yul\":254:304   */\n      mcopy\n        /* \"#utility.yul\":353:354   */\n      0x00\n        /* \"#utility.yul\":348:350   */\n      0x40\n        /* \"#utility.yul\":339:345   */\n      dup3\n        /* \"#utility.yul\":328:337   */\n      dup6\n        /* \"#utility.yul\":324:346   */\n      add\n        /* \"#utility.yul\":320:351   */\n      add\n        /* \"#utility.yul\":313:355   */\n      mstore\n        /* \"#utility.yul\":423:425   */\n      0x40\n        /* \"#utility.yul\":416:418   */\n      0x1f\n        /* \"#utility.yul\":412:419   */\n      not\n        /* \"#utility.yul\":407:409   */\n      0x1f\n        /* \"#utility.yul\":399:405   */\n      dup4\n        /* \"#utility.yul\":395:410   */\n      add\n        /* \"#utility.yul\":391:420   */\n      and\n        /* \"#utility.yul\":380:389   */\n      dup5\n        /* \"#utility.yul\":376:421   */\n      add\n        /* \"#utility.yul\":372:426   */\n      add\n        /* \"#utility.yul\":364:426   */\n      swap2\n      pop\n      pop\n        /* \"#utility.yul\":14:432   */\n      swap3\n      swap2\n      pop\n      pop\n      jump\t// out\n        /* \"#utility.yul\":626:1006   */\n    tag_19:\n        /* \"#utility.yul\":705:706   */\n      0x01\n        /* \"#utility.yul\":701:713   */\n      dup2\n      dup2\n      shr\n      swap1\n        /* \"#utility.yul\":748:760   */\n      dup3\n      and\n      dup1\n        /* \"#utility.yul\":769:830   */\n      tag_35\n      jumpi\n        /* \"#utility.yul\":823:827   */\n      0x7f\n        /* \"#utility.yul\":815:821   */\n      dup3\n        /* \"#utility.yul\":811:828   */\n      and\n        /* \"#utility.yul\":801:828   */\n      swap2\n      pop\n        /* \"#utility.yul\":769:830   */\n    tag_35:\n        /* \"#utility.yul\":876:878   */\n      0x20\n        /* \"#utility.yul\":868:874   */\n      dup3\n        /* \"#utility.yul\":865:879   */\n      lt\n        /* \"#utility.yul\":845:863   */\n      dup2\n        /* \"#utility.yul\":842:880   */\n      sub\n        /* \"#utility.yul\":839:1000   */\n      tag_36\n      jumpi\n        /* \"#utility.yul\":922:932   */\n      0x4e487b71\n        /* \"#utility.yul\":917:920   */\n      0xe0\n        /* \"#utility.yul\":913:933   */\n      shl\n        /* \"#utility.yul\":910:911   */\n      0x00\n        /* \"#utility.yul\":903:934   */\n      mstore\n        /* \"#utility.yul\":957:961   */\n      0x22\n        /* \"#utility.yul\":954:955   */\n      0x04\n        /* \"#utility.yul\":947:962   */\n      mstore\n        /* \"#utility.yul\":985:989   */\n      0x24\n        /* \"#utility.yul\":982:983   */\n      0x00\n        /* \"#utility.yul\":975:990   */\n      revert\n        /* \"#utility.yul\":839:1000   */\n    tag_36:\n      pop\n        /* \"#utility.yul\":626:1006   */\n      swap2\n      swap1\n      pop\n      jump\t// out\n\n    auxdata: 0xa2646970667358221220dbc9e75f2dd2d6e50dfddf4662b0318122abbe233ecae3909988087a14ad8f8564736f6c63430008190033\n}\n",
				"bytecode": {
					"linkReferences": {},
					"object": "608060405234801561000f575f80fd5b5060405161048538038061048583398101604081905261002e916100ff565b5f61003984826101fa565b50600161004683826101fa565b506002805460ff191660ff92909216919091179055506102b99050565b634e487b7160e01b5f52604160045260245ffd5b5f82601f830112610086575f80fd5b81516001600160401b03808211156100a0576100a0610063565b604051601f8301601f19908116603f011681019082821181831017156100c8576100c8610063565b816040528381528660208588010111156100e0575f80fd5b8360208701602083015e5f602085830101528094505050505092915050565b5f805f60608486031215610111575f80fd5b83516001600160401b0380821115610127575f80fd5b61013387838801610077565b94506020860151915080821115610148575f80fd5b5061015586828701610077565b925050604084015160ff8116811461016b575f80fd5b809150509250925092565b600181811c9082168061018a57607f821691505b6020821081036101a857634e487b7160e01b5f52602260045260245ffd5b50919050565b601f8211156101f557805f5260205f20601f840160051c810160208510156101d35750805b601f840160051c820191505b818110156101f2575f81556001016101df565b50505b505050565b81516001600160401b0381111561021357610213610063565b610227816102218454610176565b846101ae565b602080601f83116001811461025a575f84156102435750858301515b5f19600386901b1c1916600185901b1785556102b1565b5f85815260208120601f198616915b8281101561028857888601518255948401946001909101908401610269565b50858210156102a557878501515f19600388901b60f8161c191681555b505060018460011b0185555b505050505050565b6101bf806102c65f395ff3fe608060405234801561000f575f80fd5b506004361061003f575f3560e01c806306fdde0314610043578063313ce5671461006157806395d89b4114610076575b5f80fd5b61004b61007e565b604051610058919061011c565b60405180910390f35b60025460405160ff9091168152602001610058565b61004b61010d565b60605f805461008c90610151565b80601f01602080910402602001604051908101604052809291908181526020018280546100b890610151565b80156101035780601f106100da57610100808354040283529160200191610103565b820191905f5260205f20905b8154815290600101906020018083116100e657829003601f168201915b5050505050905090565b60606001805461008c90610151565b602081525f82518060208401528060208501604085015e5f604082850101526040601f19601f83011684010191505092915050565b600181811c9082168061016557607f821691505b60208210810361018357634e487b7160e01b5f52602260045260245ffd5b5091905056fea2646970667358221220dbc9e75f2dd2d6e50dfddf4662b0318122abbe233ecae3909988087a14ad8f8564736f6c63430008190033",
					"opcodes": "PUSH1 0x80 PUSH1 0x40 MSTORE CALLVALUE DUP1 ISZERO PUSH2 0xF JUMPI PUSH0 DUP1 REVERT JUMPDEST POP PUSH1 0x40 MLOAD PUSH2 0x485 CODESIZE SUB DUP1 PUSH2 0x485 DUP4 CODECOPY DUP2 ADD PUSH1 0x40 DUP2 SWAP1 MSTORE PUSH2 0x2E SWAP2 PUSH2 0xFF JUMP JUMPDEST PUSH0 PUSH2 0x39 DUP5 DUP3 PUSH2 0x1FA JUMP JUMPDEST POP PUSH1 0x1 PUSH2 0x46 DUP4 DUP3 PUSH2 0x1FA JUMP JUMPDEST POP PUSH1 0x2 DUP1 SLOAD PUSH1 0xFF NOT AND PUSH1 0xFF SWAP3 SWAP1 SWAP3 AND SWAP2 SWAP1 SWAP2 OR SWAP1 SSTORE POP PUSH2 0x2B9 SWAP1 POP JUMP JUMPDEST PUSH4 0x4E487B71 PUSH1 0xE0 SHL PUSH0 MSTORE PUSH1 0x41 PUSH1 0x4 MSTORE PUSH1 0x24 PUSH0 REVERT JUMPDEST PUSH0 DUP3 PUSH1 0x1F DUP4 ADD SLT PUSH2 0x86 JUMPI PUSH0 DUP1 REVERT JUMPDEST DUP2 MLOAD PUSH1 0x1 PUSH1 0x1 PUSH1 0x40 SHL SUB DUP1 DUP3 GT ISZERO PUSH2 0xA0 JUMPI PUSH2 0xA0 PUSH2 0x63 JUMP JUMPDEST PUSH1 0x40 MLOAD PUSH1 0x1F DUP4 ADD PUSH1 0x1F NOT SWAP1 DUP2 AND PUSH1 0x3F ADD AND DUP2 ADD SWAP1 DUP3 DUP3 GT DUP2 DUP4 LT OR ISZERO PUSH2 0xC8 JUMPI PUSH2 0xC8 PUSH2 0x63 JUMP JUMPDEST DUP2 PUSH1 0x40 MSTORE DUP4 DUP2 MSTORE DUP7 PUSH1 0x20 DUP6 DUP9 ADD ADD GT ISZERO PUSH2 0xE0 JUMPI PUSH0 DUP1 REVERT JUMPDEST DUP4 PUSH1 0x20 DUP8 ADD PUSH1 0x20 DUP4 ADD MCOPY PUSH0 PUSH1 0x20 DUP6 DUP4 ADD ADD MSTORE DUP1 SWAP5 POP POP POP POP POP SWAP3 SWAP2 POP POP JUMP JUMPDEST PUSH0 DUP1 PUSH0 PUSH1 0x60 DUP5 DUP7 SUB SLT ISZERO PUSH2 0x111 JUMPI PUSH0 DUP1 REVERT JUMPDEST DUP4 MLOAD PUSH1 0x1 PUSH1 0x1 PUSH1 0x40 SHL SUB DUP1 DUP3 GT ISZERO PUSH2 0x127 JUMPI PUSH0 DUP1 REVERT JUMPDEST PUSH2 0x133 DUP8 DUP4 DUP9 ADD PUSH2 0x77 JUMP JUMPDEST SWAP5 POP PUSH1 0x20 DUP7 ADD MLOAD SWAP2 POP DUP1 DUP3 GT ISZERO PUSH2 0x148 JUMPI PUSH0 DUP1 REVERT JUMPDEST POP PUSH2 0x155 DUP7 DUP3 DUP8 ADD PUSH2 0x77 JUMP JUMPDEST SWAP3 POP POP PUSH1 0x40 DUP5 ADD MLOAD PUSH1 0xFF DUP2 AND DUP2 EQ PUSH2 0x16B JUMPI PUSH0 DUP1 REVERT JUMPDEST DUP1 SWAP2 POP POP SWAP3 POP SWAP3 POP SWAP3 JUMP JUMPDEST PUSH1 0x1 DUP2 DUP2 SHR SWAP1 DUP3 AND DUP1 PUSH2 0x18A JUMPI PUSH1 0x7F DUP3 AND SWAP2 POP JUMPDEST PUSH1 0x20 DUP3 LT DUP2 SUB PUSH2 0x1A8 JUMPI PUSH4 0x4E487B71 PUSH1 0xE0 SHL PUSH0 MSTORE PUSH1 0x22 PUSH1 0x4 MSTORE PUSH1 0x24 PUSH0 REVERT JUMPDEST POP SWAP2 SWAP1 POP JUMP JUMPDEST PUSH1 0x1F DUP3 GT ISZERO PUSH2 0x1F5 JUMPI DUP1 PUSH0 MSTORE PUSH1 0x20 PUSH0 KECCAK256 PUSH1 0x1F DUP5 ADD PUSH1 0x5 SHR DUP2 ADD PUSH1 0x20 DUP6 LT ISZERO PUSH2 0x1D3 JUMPI POP DUP1 JUMPDEST PUSH1 0x1F DUP5 ADD PUSH1 0x5 SHR DUP3 ADD SWAP2 POP JUMPDEST DUP2 DUP2 LT ISZERO PUSH2 0x1F2 JUMPI PUSH0 DUP2 SSTORE PUSH1 0x1 ADD PUSH2 0x1DF JUMP JUMPDEST POP POP JUMPDEST POP POP POP JUMP JUMPDEST DUP2 MLOAD PUSH1 0x1 PUSH1 0x1 PUSH1 0x40 SHL SUB DUP2 GT ISZERO PUSH2 0x213 JUMPI PUSH2 0x213 PUSH2 0x63 JUMP JUMPDEST PUSH2 0x227 DUP2 PUSH2 0x221 DUP5 SLOAD PUSH2 0x176 JUMP JUMPDEST DUP5 PUSH2 0x1AE JUMP JUMPDEST PUSH1 0x20 DUP1 PUSH1 0x1F DUP4 GT PUSH1 0x1 DUP2 EQ PUSH2 0x25A JUMPI PUSH0 DUP5 ISZERO PUSH2 0x243 JUMPI POP DUP6 DUP4 ADD MLOAD JUMPDEST PUSH0 NOT PUSH1 0x3 DUP7 SWAP1 SHL SHR NOT AND PUSH1 0x1 DUP6 SWAP1 SHL OR DUP6 SSTORE PUSH2 0x2B1 JUMP JUMPDEST PUSH0 DUP6 DUP2 MSTORE PUSH1 0x20 DUP2 KECCAK256 PUSH1 0x1F NOT DUP7 AND SWAP2 JUMPDEST DUP3 DUP2 LT ISZERO PUSH2 0x288 JUMPI DUP9 DUP7 ADD MLOAD DUP3 SSTORE SWAP5 DUP5 ADD SWAP5 PUSH1 0x1 SWAP1 SWAP2 ADD SWAP1 DUP5 ADD PUSH2 0x269 JUMP JUMPDEST POP DUP6 DUP3 LT ISZERO PUSH2 0x2A5 JUMPI DUP8 DUP6 ADD MLOAD PUSH0 NOT PUSH1 0x3 DUP9 SWAP1 SHL PUSH1 0xF8 AND SHR NOT AND DUP2 SSTORE JUMPDEST POP POP PUSH1 0x1 DUP5 PUSH1 0x1 SHL ADD DUP6 SSTORE JUMPDEST POP POP POP POP POP POP JUMP JUMPDEST PUSH2 0x1BF DUP1 PUSH2 0x2C6 PUSH0 CODECOPY PUSH0 RETURN INVALID PUSH1 0x80 PUSH1 0x40 MSTORE CALLVALUE DUP1 ISZERO PUSH2 0xF JUMPI PUSH0 DUP1 REVERT JUMPDEST POP PUSH1 0x4 CALLDATASIZE LT PUSH2 0x3F JUMPI PUSH0 CALLDATALOAD PUSH1 0xE0 SHR DUP1 PUSH4 0x6FDDE03 EQ PUSH2 0x43 JUMPI DUP1 PUSH4 0x313CE567 EQ PUSH2 0x61 JUMPI DUP1 PUSH4 0x95D89B41 EQ PUSH2 0x76 JUMPI JUMPDEST PUSH0 DUP1 REVERT JUMPDEST PUSH2 0x4B PUSH2 0x7E JUMP JUMPDEST PUSH1 0x40 MLOAD PUSH2 0x58 SWAP2 SWAP1 PUSH2 0x11C JUMP JUMPDEST PUSH1 0x40 MLOAD DUP1 SWAP2 SUB SWAP1 RETURN JUMPDEST PUSH1 0x2 SLOAD PUSH1 0x40 MLOAD PUSH1 0xFF SWAP1 SWAP2 AND DUP2 MSTORE PUSH1 0x20 ADD PUSH2 0x58 JUMP JUMPDEST PUSH2 0x4B PUSH2 0x10D JUMP JUMPDEST PUSH1 0x60 PUSH0 DUP1 SLOAD PUSH2 0x8C SWAP1 PUSH2 0x151 JUMP JUMPDEST DUP1 PUSH1 0x1F ADD PUSH1 0x20 DUP1 SWAP2 DIV MUL PUSH1 0x20 ADD PUSH1 0x40 MLOAD SWAP1 DUP2 ADD PUSH1 0x40 MSTORE DUP1 SWAP3 SWAP2 SWAP1 DUP2 DUP2 MSTORE PUSH1 0x20 ADD DUP3 DUP1 SLOAD PUSH2 0xB8 SWAP1 PUSH2 0x151 JUMP JUMPDEST DUP1 ISZERO PUSH2 0x103 JUMPI DUP1 PUSH1 0x1F LT PUSH2 0xDA JUMPI PUSH2 0x100 DUP1 DUP4 SLOAD DIV MUL DUP4 MSTORE SWAP2 PUSH1 0x20 ADD SWAP2 PUSH2 0x103 JUMP JUMPDEST DUP3 ADD SWAP2 SWAP1 PUSH0 MSTORE PUSH1 0x20 PUSH0 KECCAK256 SWAP1 JUMPDEST DUP2 SLOAD DUP2 MSTORE SWAP1 PUSH1 0x1 ADD SWAP1 PUSH1 0x20 ADD DUP1 DUP4 GT PUSH2 0xE6 JUMPI DUP3 SWAP1 SUB PUSH1 0x1F AND DUP3 ADD SWAP2 JUMPDEST POP POP POP POP POP SWAP1 POP SWAP1 JUMP JUMPDEST PUSH1 0x60 PUSH1 0x1 DUP1 SLOAD PUSH2 0x8C SWAP1 PUSH2 0x151 JUMP JUMPDEST PUSH1 0x20 DUP2 MSTORE PUSH0 DUP3 MLOAD DUP1 PUSH1 0x20 DUP5 ADD MSTORE DUP1 PUSH1 0x20 DUP6 ADD PUSH1 0x40 DUP6 ADD MCOPY PUSH0 PUSH1 0x40 DUP3 DUP6 ADD ADD MSTORE PUSH1 0x40 PUSH1 0x1F NOT PUSH1 0x1F DUP4 ADD AND DUP5 ADD ADD SWAP2 POP POP SWAP3 SWAP2 POP POP JUMP JUMPDEST PUSH1 0x1 DUP2 DUP2 SHR SWAP1 DUP3 AND DUP1 PUSH2 0x165 JUMPI PUSH1 0x7F DUP3 AND SWAP2 POP JUMPDEST PUSH1 0x20 DUP3 LT DUP2 SUB PUSH2 0x183 JUMPI PUSH4 0x4E487B71 PUSH1 0xE0 SHL PUSH0 MSTORE PUSH1 0x22 PUSH1 0x4 MSTORE PUSH1 0x24 PUSH0 REVERT JUMPDEST POP SWAP2 SWAP1 POP JUMP INVALID LOG2 PUSH5 0x6970667358 0x22 SLT KECCAK256 0xDB 0xC9 0xE7 PUSH0 0x2D 0xD2 0xD6 0xE5 0xD REVERT 0xDF CHAINID PUSH3 0xB03181 0x22 0xAB 0xBE 0x23 RETURNDATACOPY 0xCA 0xE3 SWAP1 SWAP10 DUP9 ADDMOD PUSH27 0x14AD8F8564736F6C63430008190033000000000000000000000000 "
				},
				"gasEstimates": {
					"creation": {
						"codeDepositCost": "89400",
						"executionCost": "infinite",
						"totalCost": "infinite"
					},
					"external": {
						"decimals()": "2288",
						"name()": "infinite",
						"symbol()": "infinite"
					}
				},
				"methodIdentifiers": {
					"decimals()": "313ce567",
					"name()": "06fdde03",
					"symbol()": "95d89b41"
				}
			},
			"storageLayout": {
				"storage": [
					{
						"astId": 185,
						"contract": "contracts/tauqeer.sol:ERC20Detailed",
						"label": "_name",
						"offset": 0,
						"slot": "0",
						"type": "t_string_storage"
					},
					{
						"astId": 187,
						"contract": "contracts/tauqeer.sol:ERC20Detailed",
						"label": "_symbol",
						"offset": 0,
						"slot": "1",
						"type": "t_string_storage"
					},
					{
						"astId": 189,
						"contract": "contracts/tauqeer.sol:ERC20Detailed",
						"label": "_decimals",
						"offset": 0,
						"slot": "2",
						"type": "t_uint8"
					}
				],
				"types": {
					"t_string_storage": {
						"encoding": "bytes",
						"label": "string",
						"numberOfBytes": "32"
					},
					"t_uint8": {
						"encoding": "inplace",
						"label": "uint8",
						"numberOfBytes": "1"
					}
				}
			},
			"userdoc": {
				"kind": "user",
				"methods": {},
				"version": 1
			}
		}
	}
}