{
	"contracts/tauqeer.sol": {
		"SIOE": {
			"abi": [
				{
					"inputs": [],
					"stateMutability": "nonpayable",
					"type": "constructor"
				},
				{
					"anonymous": false,
					"inputs": [
						{
							"indexed": true,
							"internalType": "address",
							"name": "owner",
							"type": "address"
						},
						{
							"indexed": true,
							"internalType": "address",
							"name": "spender",
							"type": "address"
						},
						{
							"indexed": false,
							"internalType": "uint256",
							"name": "value",
							"type": "uint256"
						}
					],
					"name": "Approval",
					"type": "event"
				},
				{
					"anonymous": false,
					"inputs": [
						{
							"indexed": false,
							"internalType": "uint256",
							"name": "minTokensBeforeSwap",
							"type": "uint256"
						}
					],
					"name": "MinTokensBeforeSwapUpdated",
					"type": "event"
				},
				{
					"anonymous": false,
					"inputs": [
						{
							"indexed": true,
							"internalType": "address",
							"name": "previousOwner",
							"type": "address"
						},
						{
							"indexed": true,
							"internalType": "address",
							"name": "newOwner",
							"type": "address"
						}
					],
					"name": "OwnershipTransferred",
					"type": "event"
				},
				{
					"anonymous": false,
					"inputs": [
						{
							"indexed": false,
							"internalType": "uint256",
							"name": "tokensSwapped",
							"type": "uint256"
						},
						{
							"indexed": false,
							"internalType": "uint256",
							"name": "ethReceived",
							"type": "uint256"
						},
						{
							"indexed": false,
							"internalType": "uint256",
							"name": "tokensIntoLiqudity",
							"type": "uint256"
						}
					],
					"name": "SwapAndLiquify",
					"type": "event"
				},
				{
					"anonymous": false,
					"inputs": [
						{
							"indexed": false,
							"internalType": "bool",
							"name": "enabled",
							"type": "bool"
						}
					],
					"name": "SwapAndLiquifyEnabledUpdated",
					"type": "event"
				},
				{
					"anonymous": false,
					"inputs": [
						{
							"indexed": true,
							"internalType": "address",
							"name": "from",
							"type": "address"
						},
						{
							"indexed": true,
							"internalType": "address",
							"name": "to",
							"type": "address"
						},
						{
							"indexed": false,
							"internalType": "uint256",
							"name": "value",
							"type": "uint256"
						}
					],
					"name": "Transfer",
					"type": "event"
				},
				{
					"inputs": [
						{
							"internalType": "address",
							"name": "",
							"type": "address"
						}
					],
					"name": "AMMs",
					"outputs": [
						{
							"internalType": "bool",
							"name": "",
							"type": "bool"
						}
					],
					"stateMutability": "view",
					"type": "function"
				},
				{
					"inputs": [
						{
							"internalType": "address",
							"name": "",
							"type": "address"
						}
					],
					"name": "_isExcludedFromFee",
					"outputs": [
						{
							"internalType": "bool",
							"name": "",
							"type": "bool"
						}
					],
					"stateMutability": "view",
					"type": "function"
				},
				{
					"inputs": [
						{
							"internalType": "address",
							"name": "towner",
							"type": "address"
						},
						{
							"internalType": "address",
							"name": "spender",
							"type": "address"
						}
					],
					"name": "allowance",
					"outputs": [
						{
							"internalType": "uint256",
							"name": "",
							"type": "uint256"
						}
					],
					"stateMutability": "view",
					"type": "function"
				},
				{
					"inputs": [
						{
							"internalType": "address",
							"name": "spender",
							"type": "address"
						},
						{
							"internalType": "uint256",
							"name": "amount",
							"type": "uint256"
						}
					],
					"name": "approve",
					"outputs": [
						{
							"internalType": "bool",
							"name": "",
							"type": "bool"
						}
					],
					"stateMutability": "nonpayable",
					"type": "function"
				},
				{
					"inputs": [
						{
							"internalType": "address",
							"name": "account",
							"type": "address"
						}
					],
					"name": "balanceOf",
					"outputs": [
						{
							"internalType": "uint256",
							"name": "",
							"type": "uint256"
						}
					],
					"stateMutability": "view",
					"type": "function"
				},
				{
					"inputs": [],
					"name": "buyTeamFee",
					"outputs": [
						{
							"internalType": "uint256",
							"name": "",
							"type": "uint256"
						}
					],
					"stateMutability": "view",
					"type": "function"
				},
				{
					"inputs": [
						{
							"internalType": "uint256",
							"name": "_numTokensSellToAddToLiquidity",
							"type": "uint256"
						}
					],
					"name": "changeNumTokensSellToAddToLiquidity",
					"outputs": [],
					"stateMutability": "nonpayable",
					"type": "function"
				},
				{
					"inputs": [],
					"name": "decimals",
					"outputs": [
						{
							"internalType": "uint8",
							"name": "",
							"type": "uint8"
						}
					],
					"stateMutability": "view",
					"type": "function"
				},
				{
					"inputs": [
						{
							"internalType": "address",
							"name": "spender",
							"type": "address"
						},
						{
							"internalType": "uint256",
							"name": "subtractedValue",
							"type": "uint256"
						}
					],
					"name": "decreaseAllowance",
					"outputs": [
						{
							"internalType": "bool",
							"name": "",
							"type": "bool"
						}
					],
					"stateMutability": "nonpayable",
					"type": "function"
				},
				{
					"inputs": [],
					"name": "enableTrading",
					"outputs": [],
					"stateMutability": "nonpayable",
					"type": "function"
				},
				{
					"inputs": [
						{
							"internalType": "address",
							"name": "account",
							"type": "address"
						}
					],
					"name": "excludeFromAMMs",
					"outputs": [],
					"stateMutability": "nonpayable",
					"type": "function"
				},
				{
					"inputs": [
						{
							"internalType": "address",
							"name": "account",
							"type": "address"
						}
					],
					"name": "excludeFromFee",
					"outputs": [],
					"stateMutability": "nonpayable",
					"type": "function"
				},
				{
					"inputs": [
						{
							"internalType": "address",
							"name": "account",
							"type": "address"
						}
					],
					"name": "includeInAMMs",
					"outputs": [],
					"stateMutability": "nonpayable",
					"type": "function"
				},
				{
					"inputs": [
						{
							"internalType": "address",
							"name": "account",
							"type": "address"
						}
					],
					"name": "includeInFee",
					"outputs": [],
					"stateMutability": "nonpayable",
					"type": "function"
				},
				{
					"inputs": [
						{
							"internalType": "address",
							"name": "spender",
							"type": "address"
						},
						{
							"internalType": "uint256",
							"name": "addedValue",
							"type": "uint256"
						}
					],
					"name": "increaseAllowance",
					"outputs": [
						{
							"internalType": "bool",
							"name": "",
							"type": "bool"
						}
					],
					"stateMutability": "nonpayable",
					"type": "function"
				},
				{
					"inputs": [],
					"name": "name",
					"outputs": [
						{
							"internalType": "string",
							"name": "",
							"type": "string"
						}
					],
					"stateMutability": "view",
					"type": "function"
				},
				{
					"inputs": [],
					"name": "numTokensSellToAddToLiquidity",
					"outputs": [
						{
							"internalType": "uint256",
							"name": "",
							"type": "uint256"
						}
					],
					"stateMutability": "view",
					"type": "function"
				},
				{
					"inputs": [],
					"name": "owner",
					"outputs": [
						{
							"internalType": "address",
							"name": "",
							"type": "address"
						}
					],
					"stateMutability": "view",
					"type": "function"
				},
				{
					"inputs": [
						{
							"internalType": "address",
							"name": "_address",
							"type": "address"
						}
					],
					"name": "removeStuckToken",
					"outputs": [],
					"stateMutability": "nonpayable",
					"type": "function"
				},
				{
					"inputs": [],
					"name": "renounceOwnership",
					"outputs": [],
					"stateMutability": "nonpayable",
					"type": "function"
				},
				{
					"inputs": [],
					"name": "sellTeamFee",
					"outputs": [
						{
							"internalType": "uint256",
							"name": "",
							"type": "uint256"
						}
					],
					"stateMutability": "view",
					"type": "function"
				},
				{
					"inputs": [
						{
							"internalType": "bool",
							"name": "_enabled",
							"type": "bool"
						}
					],
					"name": "setSwapAndLiquifyEnabled",
					"outputs": [],
					"stateMutability": "nonpayable",
					"type": "function"
				},
				{
					"inputs": [
						{
							"internalType": "address payable",
							"name": "wallet",
							"type": "address"
						}
					],
					"name": "setTeamAddress",
					"outputs": [],
					"stateMutability": "nonpayable",
					"type": "function"
				},
				{
					"inputs": [
						{
							"internalType": "uint256",
							"name": "updatedBuyTeamFee",
							"type": "uint256"
						},
						{
							"internalType": "uint256",
							"name": "updatedSellTeamFee",
							"type": "uint256"
						},
						{
							"internalType": "uint256",
							"name": "updatedTransferTeamFee",
							"type": "uint256"
						}
					],
					"name": "setTeamFeePercent",
					"outputs": [],
					"stateMutability": "nonpayable",
					"type": "function"
				},
				{
					"inputs": [],
					"name": "swapAndLiquifyEnabled",
					"outputs": [
						{
							"internalType": "bool",
							"name": "",
							"type": "bool"
						}
					],
					"stateMutability": "view",
					"type": "function"
				},
				{
					"inputs": [],
					"name": "symbol",
					"outputs": [
						{
							"internalType": "string",
							"name": "",
							"type": "string"
						}
					],
					"stateMutability": "view",
					"type": "function"
				},
				{
					"inputs": [],
					"name": "teamAddress",
					"outputs": [
						{
							"internalType": "address payable",
							"name": "",
							"type": "address"
						}
					],
					"stateMutability": "view",
					"type": "function"
				},
				{
					"inputs": [],
					"name": "teamFee",
					"outputs": [
						{
							"internalType": "uint256",
							"name": "",
							"type": "uint256"
						}
					],
					"stateMutability": "view",
					"type": "function"
				},
				{
					"inputs": [],
					"name": "totalSupply",
					"outputs": [
						{
							"internalType": "uint256",
							"name": "",
							"type": "uint256"
						}
					],
					"stateMutability": "view",
					"type": "function"
				},
				{
					"inputs": [],
					"name": "tradingEnabled",
					"outputs": [
						{
							"internalType": "bool",
							"name": "",
							"type": "bool"
						}
					],
					"stateMutability": "view",
					"type": "function"
				},
				{
					"inputs": [
						{
							"internalType": "address",
							"name": "recipient",
							"type": "address"
						},
						{
							"internalType": "uint256",
							"name": "amount",
							"type": "uint256"
						}
					],
					"name": "transfer",
					"outputs": [
						{
							"internalType": "bool",
							"name": "",
							"type": "bool"
						}
					],
					"stateMutability": "nonpayable",
					"type": "function"
				},
				{
					"inputs": [],
					"name": "transferFee",
					"outputs": [
						{
							"internalType": "uint256",
							"name": "",
							"type": "uint256"
						}
					],
					"stateMutability": "view",
					"type": "function"
				},
				{
					"inputs": [
						{
							"internalType": "address",
							"name": "sender",
							"type": "address"
						},
						{
							"internalType": "address",
							"name": "recipient",
							"type": "address"
						},
						{
							"internalType": "uint256",
							"name": "amount",
							"type": "uint256"
						}
					],
					"name": "transferFrom",
					"outputs": [
						{
							"internalType": "bool",
							"name": "",
							"type": "bool"
						}
					],
					"stateMutability": "nonpayable",
					"type": "function"
				},
				{
					"inputs": [
						{
							"internalType": "address",
							"name": "newOwner",
							"type": "address"
						}
					],
					"name": "transferOwnership",
					"outputs": [],
					"stateMutability": "nonpayable",
					"type": "function"
				},
				{
					"inputs": [],
					"name": "uniswapV2Pair",
					"outputs": [
						{
							"internalType": "address",
							"name": "",
							"type": "address"
						}
					],
					"stateMutability": "view",
					"type": "function"
				},
				{
					"inputs": [],
					"name": "uniswapV2Router",
					"outputs": [
						{
							"internalType": "contract IUniswapV2Router02",
							"name": "",
							"type": "address"
						}
					],
					"stateMutability": "view",
					"type": "function"
				},
				{
					"inputs": [],
					"name": "withdrawStuckETH",
					"outputs": [],
					"stateMutability": "nonpayable",
					"type": "function"
				},
				{
					"stateMutability": "payable",
					"type": "receive"
				}
			],
			"devdoc": {
				"kind": "dev",
				"methods": {
					"owner()": {
						"details": "Returns the address of the current owner."
					},
					"renounceOwnership()": {
						"details": "Leaves the contract without owner. It will not be possible to call `onlyOwner` functions anymore. Can only be called by the current owner. NOTE: Renouncing ownership will leave the contract without an owner, thereby removing any functionality that is only available to the owner."
					},
					"transferOwnership(address)": {
						"details": "Transfers ownership of the contract to a new account (`newOwner`). Can only be called by the current owner."
					}
				},
				"version": 1
			},
			"evm": {
				"assembly": "    /* \"contracts/tauqeer.sol\":11134:20808  contract SIOE is Context, Ownable, IERC20, ERC20Detailed {... */\n  mstore(0x40, 0xc0)\n    /* \"contracts/tauqeer.sol\":11648:11651  268 */\n  0x010c\n    /* \"contracts/tauqeer.sol\":11620:11651  uint256 public buyTeamFee = 268 */\n  0x0a\n  dup2\n  swap1\n  sstore\n    /* \"contracts/tauqeer.sol\":11658:11690  uint256 public sellTeamFee = 268 */\n  0x0b\n  sstore\n    /* \"contracts/tauqeer.sol\":11726:11728  40 */\n  0x28\n    /* \"contracts/tauqeer.sol\":11697:11728  uint256 public transferFee = 40 */\n  0x0c\n  sstore\n  0x00\n    /* \"contracts/tauqeer.sol\":1449:1455  _owner */\n  sload\n  sub(shl(0xa0, 0x01), 0x01)\n  and\n    /* \"contracts/tauqeer.sol\":11764:11817  address payable public teamAddress = payable(owner()) */\n  0x0e\n  dup1\n  sload\n  not(sub(shl(0xa0, 0xff01), 0x01))\n    /* \"contracts/tauqeer.sol\":11858:11898  bool public swapAndLiquifyEnabled = true */\n  and\n  sub(shl(0xa0, 0x01), 0x01)\n    /* \"contracts/tauqeer.sol\":11764:11817  address payable public teamAddress = payable(owner()) */\n  swap3\n  swap1\n  swap3\n  and\n    /* \"contracts/tauqeer.sol\":11858:11898  bool public swapAndLiquifyEnabled = true */\n  swap2\n  swap1\n  swap2\n  or\n  shl(0xa8, 0x01)\n  or\n  swap1\n  sstore\n    /* \"contracts/tauqeer.sol\":11958:11972  750000 * 10**9 */\n  0x02aa1efb94e000\n    /* \"contracts/tauqeer.sol\":11911:11972  uint256 public numTokensSellToAddToLiquidity = 750000 * 10**9 */\n  0x0f\n  sstore\n    /* \"contracts/tauqeer.sol\":12367:13236  constructor () ERC20Detailed(\"Smart internet of evrything\", \"SIOE\", 9) {... */\n  callvalue\n  dup1\n  iszero\n  tag_3\n  jumpi\n  0x00\n  dup1\n  revert\ntag_3:\n  pop\n    /* \"contracts/tauqeer.sol\":2705:2881  constructor (string memory tname, string memory tsymbol, uint8 tdecimals) {... */\n  0x40\n  dup1\n  mload\n  dup1\n  dup3\n  add\n  dup3\n  mstore\n  0x1b\n  dup2\n  mstore\n  0x536d61727420696e7465726e6574206f6620657672797468696e670000000000\n  0x20\n  dup1\n  dup4\n  add\n  swap2\n  swap1\n  swap2\n  mstore\n  dup3\n  mload\n  dup1\n  dup5\n  add\n  dup5\n  mstore\n  0x04\n  dup2\n  mstore\n  shl(0xe0, 0x53494f45)\n  swap2\n  dup2\n  add\n  swap2\n  swap1\n  swap2\n  mstore\n  0x00\n    /* \"contracts/tauqeer.sol\":1219:1238  _owner = msg.sender */\n  dup1\n  sload\n  not(sub(shl(0xa0, 0x01), 0x01))\n  and\n    /* \"contracts/tauqeer.sol\":1228:1238  msg.sender */\n  caller\n    /* \"contracts/tauqeer.sol\":1219:1238  _owner = msg.sender */\n  swap1\n  dup2\n  or\n  dup3\n  sstore\n    /* \"contracts/tauqeer.sol\":1255:1295  OwnershipTransferred(address(0), _owner) */\n  swap4\n  mload\n    /* \"contracts/tauqeer.sol\":2705:2881  constructor (string memory tname, string memory tsymbol, uint8 tdecimals) {... */\n  swap3\n  swap4\n  swap2\n  swap3\n    /* \"contracts/tauqeer.sol\":12435:12436  9 */\n  0x09\n  swap3\n    /* \"contracts/tauqeer.sol\":1228:1238  msg.sender */\n  swap2\n  swap1\n    /* \"contracts/tauqeer.sol\":1255:1295  OwnershipTransferred(address(0), _owner) */\n  0x8be0079c531659141344cd1fd0a4f28419497f9722a3daafe3b4186f6b6457e0\n  swap1\n  dup3\n  swap1\n  log3\n    /* \"contracts/tauqeer.sol\":2790:2795  _name */\n  0x01\n    /* \"contracts/tauqeer.sol\":2790:2803  _name = tname */\n  tag_11\n    /* \"contracts/tauqeer.sol\":2798:2803  tname */\n  dup5\n    /* \"contracts/tauqeer.sol\":2790:2795  _name */\n  dup3\n    /* \"contracts/tauqeer.sol\":2790:2803  _name = tname */\n  tag_12\n  jump\t// in\ntag_11:\n  pop\n    /* \"contracts/tauqeer.sol\":2814:2821  _symbol */\n  0x02\n    /* \"contracts/tauqeer.sol\":2814:2831  _symbol = tsymbol */\n  tag_13\n    /* \"contracts/tauqeer.sol\":2824:2831  tsymbol */\n  dup4\n    /* \"contracts/tauqeer.sol\":2814:2821  _symbol */\n  dup3\n    /* \"contracts/tauqeer.sol\":2814:2831  _symbol = tsymbol */\n  tag_12\n  jump\t// in\ntag_13:\n  pop\n    /* \"contracts/tauqeer.sol\":2842:2851  _decimals */\n  0x03\n    /* \"contracts/tauqeer.sol\":2842:2863  _decimals = tdecimals */\n  dup1\n  sload\n  not(0xff)\n  and\n  0xff\n  swap3\n  swap1\n  swap3\n  and\n  swap2\n  swap1\n  swap2\n  or\n  swap1\n  sstore\n  pop\n  pop\n    /* \"contracts/tauqeer.sol\":12466:12485  500000000 * (10**9) */\n  0x06f05b59d3b20000\n    /* \"contracts/tauqeer.sol\":12451:12463  _totalSupply */\n  0x08\n    /* \"contracts/tauqeer.sol\":12451:12485  _totalSupply = 500000000 * (10**9) */\n  dup2\n  swap1\n  sstore\n    /* \"contracts/tauqeer.sol\":12495:12504  _balances */\n  0x04\n  0x00\n    /* \"contracts/tauqeer.sol\":12505:12512  owner() */\n  tag_15\n    /* \"contracts/tauqeer.sol\":1422:1429  address */\n  0x00\n    /* \"contracts/tauqeer.sol\":1449:1455  _owner */\n  sload\n  sub(shl(0xa0, 0x01), 0x01)\n  and\n  swap1\n    /* \"contracts/tauqeer.sol\":1384:1463  function owner() public view returns (address) {... */\n  jump\n    /* \"contracts/tauqeer.sol\":12505:12512  owner() */\ntag_15:\n  sub(shl(0xa0, 0x01), 0x01)\n    /* \"contracts/tauqeer.sol\":12495:12513  _balances[owner()] */\n  and\n  sub(shl(0xa0, 0x01), 0x01)\n  and\n  dup2\n  mstore\n  0x20\n  add\n  swap1\n  dup2\n  mstore\n  0x20\n  add\n  0x00\n  keccak256\n    /* \"contracts/tauqeer.sol\":12495:12528  _balances[owner()] = _totalSupply */\n  dup2\n  swap1\n  sstore\n  pop\n    /* \"contracts/tauqeer.sol\":12536:12571  IUniswapV2Router02 _uniswapV2Router */\n  0x00\n    /* \"contracts/tauqeer.sol\":12593:12635  0x9Ac64Cc6e4415144C455BD8E4837Fea55603e5c3 */\n  0x9ac64cc6e4415144c455bd8e4837fea55603e5c3\n    /* \"contracts/tauqeer.sol\":12536:12636  IUniswapV2Router02 _uniswapV2Router = IUniswapV2Router02(0x9Ac64Cc6e4415144C455BD8E4837Fea55603e5c3) */\n  swap1\n  pop\n    /* \"contracts/tauqeer.sol\":12735:12751  _uniswapV2Router */\n  dup1\n  sub(shl(0xa0, 0x01), 0x01)\n    /* \"contracts/tauqeer.sol\":12735:12759  _uniswapV2Router.factory */\n  and\n  0xc45a0155\n    /* \"contracts/tauqeer.sol\":12735:12761  _uniswapV2Router.factory() */\n  mload(0x40)\n  dup2\n  0xffffffff\n  and\n  0xe0\n  shl\n  dup2\n  mstore\n  0x04\n  add\n  0x20\n  mload(0x40)\n  dup1\n  dup4\n  sub\n  dup2\n  dup7\n  gas\n  staticcall\n  iszero\n  dup1\n  iszero\n  tag_17\n  jumpi\n  returndatasize\n  0x00\n  dup1\n  returndatacopy\n  revert(0x00, returndatasize)\ntag_17:\n  pop\n  pop\n  pop\n  pop\n  mload(0x40)\n  returndatasize\n  not(0x1f)\n  0x1f\n  dup3\n  add\n  and\n  dup3\n  add\n  dup1\n  0x40\n  mstore\n  pop\n  dup2\n  add\n  swap1\n  tag_18\n  swap2\n  swap1\n  tag_19\n  jump\t// in\ntag_18:\n  sub(shl(0xa0, 0x01), 0x01)\n    /* \"contracts/tauqeer.sol\":12717:12787  IUniswapV2Factory(_uniswapV2Router.factory())... */\n  and\n  0xc9c65396\n    /* \"contracts/tauqeer.sol\":12796:12800  this */\n  address\n    /* \"contracts/tauqeer.sol\":12803:12819  _uniswapV2Router */\n  dup4\n  sub(shl(0xa0, 0x01), 0x01)\n    /* \"contracts/tauqeer.sol\":12803:12824  _uniswapV2Router.WETH */\n  and\n  0xad5c4648\n    /* \"contracts/tauqeer.sol\":12803:12826  _uniswapV2Router.WETH() */\n  mload(0x40)\n  dup2\n  0xffffffff\n  and\n  0xe0\n  shl\n  dup2\n  mstore\n  0x04\n  add\n  0x20\n  mload(0x40)\n  dup1\n  dup4\n  sub\n  dup2\n  dup7\n  gas\n  staticcall\n  iszero\n  dup1\n  iszero\n  tag_21\n  jumpi\n  returndatasize\n  0x00\n  dup1\n  returndatacopy\n  revert(0x00, returndatasize)\ntag_21:\n  pop\n  pop\n  pop\n  pop\n  mload(0x40)\n  returndatasize\n  not(0x1f)\n  0x1f\n  dup3\n  add\n  and\n  dup3\n  add\n  dup1\n  0x40\n  mstore\n  pop\n  dup2\n  add\n  swap1\n  tag_22\n  swap2\n  swap1\n  tag_19\n  jump\t// in\ntag_22:\n    /* \"contracts/tauqeer.sol\":12717:12827  IUniswapV2Factory(_uniswapV2Router.factory())... */\n  mload(0x40)\n  not(sub(shl(0xe0, 0x01), 0x01))\n  0xe0\n  dup6\n  swap1\n  shl\n  and\n  dup2\n  mstore\n  sub(shl(0xa0, 0x01), 0x01)\n    /* \"#utility.yul\":3226:3241   */\n  swap3\n  dup4\n  and\n    /* \"contracts/tauqeer.sol\":12717:12827  IUniswapV2Factory(_uniswapV2Router.factory())... */\n  0x04\n  dup3\n  add\n    /* \"#utility.yul\":3208:3242   */\n  mstore\n    /* \"#utility.yul\":3278:3293   */\n  swap2\n  and\n    /* \"#utility.yul\":3258:3276   */\n  0x24\n  dup3\n  add\n    /* \"#utility.yul\":3251:3294   */\n  mstore\n    /* \"#utility.yul\":3143:3161   */\n  0x44\n  add\n    /* \"contracts/tauqeer.sol\":12717:12827  IUniswapV2Factory(_uniswapV2Router.factory())... */\n  0x20\n  mload(0x40)\n  dup1\n  dup4\n  sub\n  dup2\n  0x00\n  dup8\n  gas\n  call\n  iszero\n  dup1\n  iszero\n  tag_26\n  jumpi\n  returndatasize\n  0x00\n  dup1\n  returndatacopy\n  revert(0x00, returndatasize)\ntag_26:\n  pop\n  pop\n  pop\n  pop\n  mload(0x40)\n  returndatasize\n  not(0x1f)\n  0x1f\n  dup3\n  add\n  and\n  dup3\n  add\n  dup1\n  0x40\n  mstore\n  pop\n  dup2\n  add\n  swap1\n  tag_27\n  swap2\n  swap1\n  tag_19\n  jump\t// in\ntag_27:\n  sub(shl(0xa0, 0x01), 0x01)\n    /* \"contracts/tauqeer.sol\":12701:12827  uniswapV2Pair = IUniswapV2Factory(_uniswapV2Router.factory())... */\n  swap1\n  dup2\n  and\n  0xa0\n  mstore\n    /* \"contracts/tauqeer.sol\":12891:12925  uniswapV2Router = _uniswapV2Router */\n  dup2\n  and\n  0x80\n  mstore\n    /* \"contracts/tauqeer.sol\":13022:13026  true */\n  0x01\n    /* \"contracts/tauqeer.sol\":12992:13010  _isExcludedFromFee */\n  0x06\n    /* \"contracts/tauqeer.sol\":12992:13019  _isExcludedFromFee[owner()] */\n  0x00\n    /* \"contracts/tauqeer.sol\":13011:13018  owner() */\n  tag_28\n    /* \"contracts/tauqeer.sol\":1422:1429  address */\n  0x00\n    /* \"contracts/tauqeer.sol\":1449:1455  _owner */\n  sload\n  sub(shl(0xa0, 0x01), 0x01)\n  and\n  swap1\n    /* \"contracts/tauqeer.sol\":1384:1463  function owner() public view returns (address) {... */\n  jump\n    /* \"contracts/tauqeer.sol\":13011:13018  owner() */\ntag_28:\n  sub(shl(0xa0, 0x01), 0x01)\n    /* \"contracts/tauqeer.sol\":12992:13019  _isExcludedFromFee[owner()] */\n  swap1\n  dup2\n  and\n  dup3\n  mstore\n  0x20\n  dup1\n  dup4\n  add\n  swap4\n  swap1\n  swap4\n  mstore\n  0x40\n  swap2\n  dup3\n  add\n  0x00\n  swap1\n  dup2\n  keccak256\n    /* \"contracts/tauqeer.sol\":12992:13026  _isExcludedFromFee[owner()] = true */\n  dup1\n  sload\n  swap6\n  iszero\n  iszero\n  not(0xff)\n  swap7\n  dup8\n  and\n  or\n  swap1\n  sstore\n    /* \"contracts/tauqeer.sol\":13064:13068  this */\n  address\n    /* \"contracts/tauqeer.sol\":13037:13070  _isExcludedFromFee[address(this)] */\n  dup2\n  mstore\n    /* \"contracts/tauqeer.sol\":13037:13055  _isExcludedFromFee */\n  0x06\n    /* \"contracts/tauqeer.sol\":13037:13070  _isExcludedFromFee[address(this)] */\n  dup5\n  mstore\n  dup3\n  dup2\n  keccak256\n    /* \"contracts/tauqeer.sol\":13037:13077  _isExcludedFromFee[address(this)] = true */\n  dup1\n  sload\n  dup7\n  and\n    /* \"contracts/tauqeer.sol\":12992:13026  _isExcludedFromFee[owner()] = true */\n  0x01\n    /* \"contracts/tauqeer.sol\":13037:13077  _isExcludedFromFee[address(this)] = true */\n  swap1\n  dup2\n  or\n  swap1\n  swap2\n  sstore\n    /* \"contracts/tauqeer.sol\":13107:13118  teamAddress */\n  sload(0x0e)\n  dup4\n  and\n    /* \"contracts/tauqeer.sol\":13088:13119  _isExcludedFromFee[teamAddress] */\n  dup3\n  mstore\n  dup4\n  dup3\n  keccak256\n    /* \"contracts/tauqeer.sol\":13088:13126  _isExcludedFromFee[teamAddress] = true */\n  dup1\n  sload\n  dup8\n  and\n  dup3\n  or\n  swap1\n  sstore\n    /* \"contracts/tauqeer.sol\":13144:13157  uniswapV2Pair */\n  mload(0xa0)\n    /* \"contracts/tauqeer.sol\":13139:13158  AMMs[uniswapV2Pair] */\n  swap1\n  swap3\n  and\n  dup2\n  mstore\n    /* \"contracts/tauqeer.sol\":13139:13143  AMMs */\n  0x07\n    /* \"contracts/tauqeer.sol\":13139:13158  AMMs[uniswapV2Pair] */\n  swap1\n  swap4\n  mstore\n  swap2\n  keccak256\n    /* \"contracts/tauqeer.sol\":13139:13165  AMMs[uniswapV2Pair] = true */\n  dup1\n  sload\n  swap1\n  swap3\n  and\n  or\n  swap1\n  sstore\n    /* \"contracts/tauqeer.sol\":13203:13215  _msgSender() */\n  tag_29\n    /* \"contracts/tauqeer.sol\":893:903  msg.sender */\n  caller\n  swap1\n    /* \"contracts/tauqeer.sol\":821:911  function _msgSender() internal view returns (address) {... */\n  jump\n    /* \"contracts/tauqeer.sol\":13203:13215  _msgSender() */\ntag_29:\n  sub(shl(0xa0, 0x01), 0x01)\n    /* \"contracts/tauqeer.sol\":13182:13230  Transfer(address(0), _msgSender(), _totalSupply) */\n  and\n    /* \"contracts/tauqeer.sol\":13199:13200  0 */\n  0x00\n  sub(shl(0xa0, 0x01), 0x01)\n    /* \"contracts/tauqeer.sol\":13182:13230  Transfer(address(0), _msgSender(), _totalSupply) */\n  and\n  0xddf252ad1be2c89b69c2b068fc378daa952ba7f163c4a11628f55a4df523b3ef\n    /* \"contracts/tauqeer.sol\":13217:13229  _totalSupply */\n  sload(0x08)\n    /* \"contracts/tauqeer.sol\":13182:13230  Transfer(address(0), _msgSender(), _totalSupply) */\n  mload(0x40)\n  tag_31\n  swap2\n    /* \"#utility.yul\":3451:3476   */\n  dup2\n  mstore\n    /* \"#utility.yul\":3439:3441   */\n  0x20\n    /* \"#utility.yul\":3424:3442   */\n  add\n  swap1\n    /* \"#utility.yul\":3305:3482   */\n  jump\n    /* \"contracts/tauqeer.sol\":13182:13230  Transfer(address(0), _msgSender(), _totalSupply) */\ntag_31:\n  mload(0x40)\n  dup1\n  swap2\n  sub\n  swap1\n  log3\n    /* \"contracts/tauqeer.sol\":12438:13236  {... */\n  pop\n    /* \"contracts/tauqeer.sol\":11134:20808  contract SIOE is Context, Ownable, IERC20, ERC20Detailed {... */\n  jump(tag_41)\n    /* \"#utility.yul\":14:141   */\ntag_36:\n    /* \"#utility.yul\":75:85   */\n  0x4e487b71\n    /* \"#utility.yul\":70:73   */\n  0xe0\n    /* \"#utility.yul\":66:86   */\n  shl\n    /* \"#utility.yul\":63:64   */\n  0x00\n    /* \"#utility.yul\":56:87   */\n  mstore\n    /* \"#utility.yul\":106:110   */\n  0x41\n    /* \"#utility.yul\":103:104   */\n  0x04\n    /* \"#utility.yul\":96:111   */\n  mstore\n    /* \"#utility.yul\":130:134   */\n  0x24\n    /* \"#utility.yul\":127:128   */\n  0x00\n    /* \"#utility.yul\":120:135   */\n  revert\n    /* \"#utility.yul\":146:526   */\ntag_37:\n    /* \"#utility.yul\":225:226   */\n  0x01\n    /* \"#utility.yul\":221:233   */\n  dup2\n  dup2\n  shr\n  swap1\n    /* \"#utility.yul\":268:280   */\n  dup3\n  and\n  dup1\n    /* \"#utility.yul\":289:350   */\n  tag_44\n  jumpi\n    /* \"#utility.yul\":343:347   */\n  0x7f\n    /* \"#utility.yul\":335:341   */\n  dup3\n    /* \"#utility.yul\":331:348   */\n  and\n    /* \"#utility.yul\":321:348   */\n  swap2\n  pop\n    /* \"#utility.yul\":289:350   */\ntag_44:\n    /* \"#utility.yul\":396:398   */\n  0x20\n    /* \"#utility.yul\":388:394   */\n  dup3\n    /* \"#utility.yul\":385:399   */\n  lt\n    /* \"#utility.yul\":365:383   */\n  dup2\n    /* \"#utility.yul\":362:400   */\n  sub\n    /* \"#utility.yul\":359:520   */\n  tag_45\n  jumpi\n    /* \"#utility.yul\":442:452   */\n  0x4e487b71\n    /* \"#utility.yul\":437:440   */\n  0xe0\n    /* \"#utility.yul\":433:453   */\n  shl\n    /* \"#utility.yul\":430:431   */\n  0x00\n    /* \"#utility.yul\":423:454   */\n  mstore\n    /* \"#utility.yul\":477:481   */\n  0x22\n    /* \"#utility.yul\":474:475   */\n  0x04\n    /* \"#utility.yul\":467:482   */\n  mstore\n    /* \"#utility.yul\":505:509   */\n  0x24\n    /* \"#utility.yul\":502:503   */\n  0x00\n    /* \"#utility.yul\":495:510   */\n  revert\n    /* \"#utility.yul\":359:520   */\ntag_45:\n  pop\n    /* \"#utility.yul\":146:526   */\n  swap2\n  swap1\n  pop\n  jump\t// out\n    /* \"#utility.yul\":657:1175   */\ntag_39:\n    /* \"#utility.yul\":759:761   */\n  0x1f\n    /* \"#utility.yul\":754:757   */\n  dup3\n    /* \"#utility.yul\":751:762   */\n  gt\n    /* \"#utility.yul\":748:1169   */\n  iszero\n  tag_48\n  jumpi\n    /* \"#utility.yul\":795:800   */\n  dup1\n    /* \"#utility.yul\":792:793   */\n  0x00\n    /* \"#utility.yul\":785:801   */\n  mstore\n    /* \"#utility.yul\":839:843   */\n  0x20\n    /* \"#utility.yul\":836:837   */\n  0x00\n    /* \"#utility.yul\":826:844   */\n  keccak256\n    /* \"#utility.yul\":909:911   */\n  0x1f\n    /* \"#utility.yul\":897:907   */\n  dup5\n    /* \"#utility.yul\":893:912   */\n  add\n    /* \"#utility.yul\":890:891   */\n  0x05\n    /* \"#utility.yul\":886:913   */\n  shr\n    /* \"#utility.yul\":880:884   */\n  dup2\n    /* \"#utility.yul\":876:914   */\n  add\n    /* \"#utility.yul\":945:949   */\n  0x20\n    /* \"#utility.yul\":933:943   */\n  dup6\n    /* \"#utility.yul\":930:950   */\n  lt\n    /* \"#utility.yul\":927:974   */\n  iszero\n  tag_49\n  jumpi\n  pop\n    /* \"#utility.yul\":968:972   */\n  dup1\n    /* \"#utility.yul\":927:974   */\ntag_49:\n    /* \"#utility.yul\":1023:1025   */\n  0x1f\n    /* \"#utility.yul\":1018:1021   */\n  dup5\n    /* \"#utility.yul\":1014:1026   */\n  add\n    /* \"#utility.yul\":1011:1012   */\n  0x05\n    /* \"#utility.yul\":1007:1027   */\n  shr\n    /* \"#utility.yul\":1001:1005   */\n  dup3\n    /* \"#utility.yul\":997:1028   */\n  add\n    /* \"#utility.yul\":987:1028   */\n  swap2\n  pop\n    /* \"#utility.yul\":1078:1159   */\ntag_50:\n    /* \"#utility.yul\":1096:1098   */\n  dup2\n    /* \"#utility.yul\":1089:1094   */\n  dup2\n    /* \"#utility.yul\":1086:1099   */\n  lt\n    /* \"#utility.yul\":1078:1159   */\n  iszero\n  tag_52\n  jumpi\n    /* \"#utility.yul\":1155:1156   */\n  0x00\n    /* \"#utility.yul\":1141:1157   */\n  dup2\n  sstore\n    /* \"#utility.yul\":1122:1123   */\n  0x01\n    /* \"#utility.yul\":1111:1124   */\n  add\n    /* \"#utility.yul\":1078:1159   */\n  jump(tag_50)\ntag_52:\n    /* \"#utility.yul\":1082:1085   */\n  pop\n  pop\n    /* \"#utility.yul\":748:1169   */\ntag_48:\n    /* \"#utility.yul\":657:1175   */\n  pop\n  pop\n  pop\n  jump\t// out\n    /* \"#utility.yul\":1351:2696   */\ntag_12:\n    /* \"#utility.yul\":1471:1481   */\n  dup2\n  mload\n  sub(shl(0x40, 0x01), 0x01)\n    /* \"#utility.yul\":1493:1523   */\n  dup2\n  gt\n    /* \"#utility.yul\":1490:1546   */\n  iszero\n  tag_56\n  jumpi\n    /* \"#utility.yul\":1526:1544   */\n  tag_56\n  tag_36\n  jump\t// in\ntag_56:\n    /* \"#utility.yul\":1555:1652   */\n  tag_57\n    /* \"#utility.yul\":1645:1651   */\n  dup2\n    /* \"#utility.yul\":1605:1643   */\n  tag_58\n    /* \"#utility.yul\":1637:1641   */\n  dup5\n    /* \"#utility.yul\":1631:1642   */\n  sload\n    /* \"#utility.yul\":1605:1643   */\n  tag_37\n  jump\t// in\ntag_58:\n    /* \"#utility.yul\":1599:1603   */\n  dup5\n    /* \"#utility.yul\":1555:1652   */\n  tag_39\n  jump\t// in\ntag_57:\n    /* \"#utility.yul\":1707:1711   */\n  0x20\n  dup1\n    /* \"#utility.yul\":1764:1766   */\n  0x1f\n    /* \"#utility.yul\":1753:1767   */\n  dup4\n  gt\n    /* \"#utility.yul\":1781:1782   */\n  0x01\n    /* \"#utility.yul\":1776:2439   */\n  dup2\n  eq\n  tag_60\n  jumpi\n    /* \"#utility.yul\":2483:2484   */\n  0x00\n    /* \"#utility.yul\":2500:2506   */\n  dup5\n    /* \"#utility.yul\":2497:2586   */\n  iszero\n  tag_61\n  jumpi\n  pop\n    /* \"#utility.yul\":2552:2571   */\n  dup6\n  dup4\n  add\n    /* \"#utility.yul\":2546:2572   */\n  mload\n    /* \"#utility.yul\":2497:2586   */\ntag_61:\n  not(0x00)\n    /* \"#utility.yul\":1308:1309   */\n  0x03\n    /* \"#utility.yul\":1304:1315   */\n  dup7\n  swap1\n  shl\n    /* \"#utility.yul\":1300:1324   */\n  shr\n    /* \"#utility.yul\":1296:1325   */\n  not\n    /* \"#utility.yul\":1286:1326   */\n  and\n    /* \"#utility.yul\":1332:1333   */\n  0x01\n    /* \"#utility.yul\":1328:1339   */\n  dup6\n  swap1\n  shl\n    /* \"#utility.yul\":1283:1340   */\n  or\n    /* \"#utility.yul\":2599:2680   */\n  dup6\n  sstore\n    /* \"#utility.yul\":1746:2690   */\n  jump(tag_59)\n    /* \"#utility.yul\":1776:2439   */\ntag_60:\n    /* \"#utility.yul\":604:605   */\n  0x00\n    /* \"#utility.yul\":597:611   */\n  dup6\n  dup2\n  mstore\n    /* \"#utility.yul\":641:645   */\n  0x20\n    /* \"#utility.yul\":628:646   */\n  dup2\n  keccak256\n  not(0x1f)\n    /* \"#utility.yul\":1812:1832   */\n  dup7\n  and\n  swap2\n    /* \"#utility.yul\":1930:2166   */\ntag_64:\n    /* \"#utility.yul\":1944:1951   */\n  dup3\n    /* \"#utility.yul\":1941:1942   */\n  dup2\n    /* \"#utility.yul\":1938:1952   */\n  lt\n    /* \"#utility.yul\":1930:2166   */\n  iszero\n  tag_66\n  jumpi\n    /* \"#utility.yul\":2033:2052   */\n  dup9\n  dup7\n  add\n    /* \"#utility.yul\":2027:2053   */\n  mload\n    /* \"#utility.yul\":2012:2054   */\n  dup3\n  sstore\n    /* \"#utility.yul\":2125:2152   */\n  swap5\n  dup5\n  add\n  swap5\n    /* \"#utility.yul\":2093:2094   */\n  0x01\n    /* \"#utility.yul\":2081:2095   */\n  swap1\n  swap2\n  add\n  swap1\n    /* \"#utility.yul\":1960:1979   */\n  dup5\n  add\n    /* \"#utility.yul\":1930:2166   */\n  jump(tag_64)\ntag_66:\n    /* \"#utility.yul\":1934:1937   */\n  pop\n    /* \"#utility.yul\":2194:2200   */\n  dup6\n    /* \"#utility.yul\":2185:2192   */\n  dup3\n    /* \"#utility.yul\":2182:2201   */\n  lt\n    /* \"#utility.yul\":2179:2380   */\n  iszero\n  tag_67\n  jumpi\n    /* \"#utility.yul\":2255:2274   */\n  dup8\n  dup6\n  add\n    /* \"#utility.yul\":2249:2275   */\n  mload\n  not(0x00)\n    /* \"#utility.yul\":2338:2339   */\n  0x03\n    /* \"#utility.yul\":2334:2348   */\n  dup9\n  swap1\n  shl\n    /* \"#utility.yul\":2350:2353   */\n  0xf8\n    /* \"#utility.yul\":2330:2354   */\n  and\n    /* \"#utility.yul\":2326:2363   */\n  shr\n    /* \"#utility.yul\":2322:2364   */\n  not\n    /* \"#utility.yul\":2307:2365   */\n  and\n    /* \"#utility.yul\":2292:2366   */\n  dup2\n  sstore\n    /* \"#utility.yul\":2179:2380   */\ntag_67:\n  pop\n  pop\n    /* \"#utility.yul\":2426:2427   */\n  0x01\n    /* \"#utility.yul\":2417:2423   */\n  dup5\n    /* \"#utility.yul\":2414:2415   */\n  0x01\n    /* \"#utility.yul\":2410:2424   */\n  shl\n    /* \"#utility.yul\":2406:2428   */\n  add\n    /* \"#utility.yul\":2400:2404   */\n  dup6\n    /* \"#utility.yul\":2393:2429   */\n  sstore\n    /* \"#utility.yul\":1746:2690   */\ntag_59:\n  pop\n  pop\n  pop\n  pop\n    /* \"#utility.yul\":1351:2696   */\n  pop\n  pop\n  jump\t// out\n    /* \"#utility.yul\":2701:2991   */\ntag_19:\n    /* \"#utility.yul\":2771:2777   */\n  0x00\n    /* \"#utility.yul\":2824:2826   */\n  0x20\n    /* \"#utility.yul\":2812:2821   */\n  dup3\n    /* \"#utility.yul\":2803:2810   */\n  dup5\n    /* \"#utility.yul\":2799:2822   */\n  sub\n    /* \"#utility.yul\":2795:2827   */\n  slt\n    /* \"#utility.yul\":2792:2844   */\n  iszero\n  tag_69\n  jumpi\n    /* \"#utility.yul\":2840:2841   */\n  0x00\n    /* \"#utility.yul\":2837:2838   */\n  dup1\n    /* \"#utility.yul\":2830:2842   */\n  revert\n    /* \"#utility.yul\":2792:2844   */\ntag_69:\n    /* \"#utility.yul\":2866:2882   */\n  dup2\n  mload\n  sub(shl(0xa0, 0x01), 0x01)\n    /* \"#utility.yul\":2911:2942   */\n  dup2\n  and\n    /* \"#utility.yul\":2901:2943   */\n  dup2\n  eq\n    /* \"#utility.yul\":2891:2961   */\n  tag_70\n  jumpi\n    /* \"#utility.yul\":2957:2958   */\n  0x00\n    /* \"#utility.yul\":2954:2955   */\n  dup1\n    /* \"#utility.yul\":2947:2959   */\n  revert\n    /* \"#utility.yul\":2891:2961   */\ntag_70:\n    /* \"#utility.yul\":2980:2985   */\n  swap4\n    /* \"#utility.yul\":2701:2991   */\n  swap3\n  pop\n  pop\n  pop\n  jump\t// out\n    /* \"#utility.yul\":3305:3482   */\ntag_41:\n    /* \"contracts/tauqeer.sol\":11134:20808  contract SIOE is Context, Ownable, IERC20, ERC20Detailed {... */\n  mload(0x80)\n  mload(0xa0)\n  codecopy(0x00, dataOffset(sub_0), dataSize(sub_0))\n  0x00\n  assignImmutable(\"0xf2b1b7d5f2ab8a7e974414843034d805c6ff5f827e1393d21a76b0239bfca82a\")\n  0x00\n  assignImmutable(\"0xd12d39d4aaf0e4952cb4988b78e6d320de21ef25f14bde9c25e87cebeb92336d\")\n  return(0x00, dataSize(sub_0))\nstop\n\nsub_0: assembly {\n        /* \"contracts/tauqeer.sol\":11134:20808  contract SIOE is Context, Ownable, IERC20, ERC20Detailed {... */\n      mstore(0x40, 0x80)\n      jumpi(tag_1, lt(calldatasize, 0x04))\n      shr(0xe0, calldataload(0x00))\n      dup1\n      0x768dc710\n      gt\n      tag_40\n      jumpi\n      dup1\n      0xc49b9a80\n      gt\n      tag_41\n      jumpi\n      dup1\n      0xdd62ed3e\n      gt\n      tag_42\n      jumpi\n      dup1\n      0xdd62ed3e\n      eq\n      tag_35\n      jumpi\n      dup1\n      0xe083e922\n      eq\n      tag_36\n      jumpi\n      dup1\n      0xea2f0b37\n      eq\n      tag_37\n      jumpi\n      dup1\n      0xf2fde38b\n      eq\n      tag_38\n      jumpi\n      dup1\n      0xf5648a4f\n      eq\n      tag_39\n      jumpi\n      0x00\n      dup1\n      revert\n    tag_42:\n      dup1\n      0xc49b9a80\n      eq\n      tag_30\n      jumpi\n      dup1\n      0xc57a6c44\n      eq\n      tag_31\n      jumpi\n      dup1\n      0xd12a7688\n      eq\n      tag_32\n      jumpi\n      dup1\n      0xd729715f\n      eq\n      tag_33\n      jumpi\n      dup1\n      0xd7c94efd\n      eq\n      tag_34\n      jumpi\n      0x00\n      dup1\n      revert\n    tag_41:\n      dup1\n      0x95d89b41\n      gt\n      tag_43\n      jumpi\n      dup1\n      0x95d89b41\n      eq\n      tag_25\n      jumpi\n      dup1\n      0x9c2e4ac6\n      eq\n      tag_26\n      jumpi\n      dup1\n      0xa457c2d7\n      eq\n      tag_27\n      jumpi\n      dup1\n      0xa9059cbb\n      eq\n      tag_28\n      jumpi\n      dup1\n      0xacb2ad6f\n      eq\n      tag_29\n      jumpi\n      0x00\n      dup1\n      revert\n    tag_43:\n      dup1\n      0x768dc710\n      eq\n      tag_21\n      jumpi\n      dup1\n      0x89e7563d\n      eq\n      tag_22\n      jumpi\n      dup1\n      0x8a8c523c\n      eq\n      tag_23\n      jumpi\n      dup1\n      0x8da5cb5b\n      eq\n      tag_24\n      jumpi\n      0x00\n      dup1\n      revert\n    tag_40:\n      dup1\n      0x39509351\n      gt\n      tag_44\n      jumpi\n      dup1\n      0x4ada218b\n      gt\n      tag_45\n      jumpi\n      dup1\n      0x4ada218b\n      eq\n      tag_16\n      jumpi\n      dup1\n      0x5ec270c8\n      eq\n      tag_17\n      jumpi\n      dup1\n      0x6690864e\n      eq\n      tag_18\n      jumpi\n      dup1\n      0x70a08231\n      eq\n      tag_19\n      jumpi\n      dup1\n      0x715018a6\n      eq\n      tag_20\n      jumpi\n      0x00\n      dup1\n      revert\n    tag_45:\n      dup1\n      0x39509351\n      eq\n      tag_12\n      jumpi\n      dup1\n      0x437823ec\n      eq\n      tag_13\n      jumpi\n      dup1\n      0x49bd5a5e\n      eq\n      tag_14\n      jumpi\n      dup1\n      0x4a74bb02\n      eq\n      tag_15\n      jumpi\n      0x00\n      dup1\n      revert\n    tag_44:\n      dup1\n      0x18160ddd\n      gt\n      tag_46\n      jumpi\n      dup1\n      0x18160ddd\n      eq\n      tag_7\n      jumpi\n      dup1\n      0x1c75f085\n      eq\n      tag_8\n      jumpi\n      dup1\n      0x1e9fe6c6\n      eq\n      tag_9\n      jumpi\n      dup1\n      0x23b872dd\n      eq\n      tag_10\n      jumpi\n      dup1\n      0x313ce567\n      eq\n      tag_11\n      jumpi\n      0x00\n      dup1\n      revert\n    tag_46:\n      dup1\n      0x01b95e1d\n      eq\n      tag_3\n      jumpi\n      dup1\n      0x06fdde03\n      eq\n      tag_4\n      jumpi\n      dup1\n      0x095ea7b3\n      eq\n      tag_5\n      jumpi\n      dup1\n      0x1694505e\n      eq\n      tag_6\n      jumpi\n      0x00\n      dup1\n      revert\n    tag_1:\n      jumpi(tag_2, calldatasize)\n      stop\n    tag_2:\n      0x00\n      dup1\n      revert\n        /* \"contracts/tauqeer.sol\":15895:15998  function includeInAMMs(address account) external onlyOwner... */\n    tag_3:\n      callvalue\n      dup1\n      iszero\n      tag_49\n      jumpi\n      0x00\n      dup1\n      revert\n    tag_49:\n      pop\n      tag_50\n      tag_51\n      calldatasize\n      0x04\n      tag_52\n      jump\t// in\n    tag_51:\n      tag_53\n      jump\t// in\n    tag_50:\n      stop\n        /* \"contracts/tauqeer.sol\":2887:2970  function name() public view returns (string memory) {... */\n    tag_4:\n      callvalue\n      dup1\n      iszero\n      tag_54\n      jumpi\n      0x00\n      dup1\n      revert\n    tag_54:\n      pop\n      tag_55\n      tag_56\n      jump\t// in\n    tag_55:\n      mload(0x40)\n      tag_57\n      swap2\n      swap1\n      tag_58\n      jump\t// in\n    tag_57:\n      mload(0x40)\n      dup1\n      swap2\n      sub\n      swap1\n      return\n        /* \"contracts/tauqeer.sol\":13790:13948  function approve(address spender, uint amount) public override returns (bool) {... */\n    tag_5:\n      callvalue\n      dup1\n      iszero\n      tag_59\n      jumpi\n      0x00\n      dup1\n      revert\n    tag_59:\n      pop\n      tag_60\n      tag_61\n      calldatasize\n      0x04\n      tag_62\n      jump\t// in\n    tag_61:\n      tag_63\n      jump\t// in\n    tag_60:\n      mload(0x40)\n        /* \"#utility.yul\":1310:1324   */\n      swap1\n      iszero\n        /* \"#utility.yul\":1303:1325   */\n      iszero\n        /* \"#utility.yul\":1285:1326   */\n      dup2\n      mstore\n        /* \"#utility.yul\":1273:1275   */\n      0x20\n        /* \"#utility.yul\":1258:1276   */\n      add\n        /* \"contracts/tauqeer.sol\":13790:13948  function approve(address spender, uint amount) public override returns (bool) {... */\n      tag_57\n        /* \"#utility.yul\":1145:1332   */\n      jump\n        /* \"contracts/tauqeer.sol\":11202:11253  IUniswapV2Router02 public immutable uniswapV2Router */\n    tag_6:\n      callvalue\n      dup1\n      iszero\n      tag_66\n      jumpi\n      0x00\n      dup1\n      revert\n    tag_66:\n      pop\n      tag_67\n      immutable(\"0xd12d39d4aaf0e4952cb4988b78e6d320de21ef25f14bde9c25e87cebeb92336d\")\n      dup2\n      jump\n    tag_67:\n      mload(0x40)\n      sub(shl(0xa0, 0x01), 0x01)\n        /* \"#utility.yul\":1527:1559   */\n      swap1\n      swap2\n      and\n        /* \"#utility.yul\":1509:1560   */\n      dup2\n      mstore\n        /* \"#utility.yul\":1497:1499   */\n      0x20\n        /* \"#utility.yul\":1482:1500   */\n      add\n        /* \"contracts/tauqeer.sol\":11202:11253  IUniswapV2Router02 public immutable uniswapV2Router */\n      tag_57\n        /* \"#utility.yul\":1337:1566   */\n      jump\n        /* \"contracts/tauqeer.sol\":13246:13343  function totalSupply() public view override returns (uint) {... */\n    tag_7:\n      callvalue\n      dup1\n      iszero\n      tag_71\n      jumpi\n      0x00\n      dup1\n      revert\n    tag_71:\n      pop\n        /* \"contracts/tauqeer.sol\":13323:13335  _totalSupply */\n      sload(0x08)\n        /* \"contracts/tauqeer.sol\":13246:13343  function totalSupply() public view override returns (uint) {... */\n    tag_72:\n      mload(0x40)\n        /* \"#utility.yul\":1717:1742   */\n      swap1\n      dup2\n      mstore\n        /* \"#utility.yul\":1705:1707   */\n      0x20\n        /* \"#utility.yul\":1690:1708   */\n      add\n        /* \"contracts/tauqeer.sol\":13246:13343  function totalSupply() public view override returns (uint) {... */\n      tag_57\n        /* \"#utility.yul\":1571:1748   */\n      jump\n        /* \"contracts/tauqeer.sol\":11764:11817  address payable public teamAddress = payable(owner()) */\n    tag_8:\n      callvalue\n      dup1\n      iszero\n      tag_76\n      jumpi\n      0x00\n      dup1\n      revert\n    tag_76:\n      pop\n      sload(0x0e)\n      tag_67\n      swap1\n      sub(shl(0xa0, 0x01), 0x01)\n      and\n      dup2\n      jump\n        /* \"contracts/tauqeer.sol\":11494:11531  mapping (address => bool) public AMMs */\n    tag_9:\n      callvalue\n      dup1\n      iszero\n      tag_81\n      jumpi\n      0x00\n      dup1\n      revert\n    tag_81:\n      pop\n      tag_60\n      tag_83\n      calldatasize\n      0x04\n      tag_52\n      jump\t// in\n    tag_83:\n      mstore(0x20, 0x07)\n      0x00\n      swap1\n      dup2\n      mstore\n      0x40\n      swap1\n      keccak256\n      sload\n      0xff\n      and\n      dup2\n      jump\n        /* \"contracts/tauqeer.sol\":13954:14219  function transferFrom(address sender, address recipient, uint amount) public override returns (bool) {... */\n    tag_10:\n      callvalue\n      dup1\n      iszero\n      tag_86\n      jumpi\n      0x00\n      dup1\n      revert\n    tag_86:\n      pop\n      tag_60\n      tag_88\n      calldatasize\n      0x04\n      tag_89\n      jump\t// in\n    tag_88:\n      tag_90\n      jump\t// in\n        /* \"contracts/tauqeer.sol\":3069:3152  function decimals() public view returns (uint8) {... */\n    tag_11:\n      callvalue\n      dup1\n      iszero\n      tag_92\n      jumpi\n      0x00\n      dup1\n      revert\n    tag_92:\n      pop\n        /* \"contracts/tauqeer.sol\":3135:3144  _decimals */\n      sload(0x03)\n        /* \"contracts/tauqeer.sol\":3069:3152  function decimals() public view returns (uint8) {... */\n      mload(0x40)\n        /* \"contracts/tauqeer.sol\":3135:3144  _decimals */\n      0xff\n      swap1\n      swap2\n      and\n        /* \"#utility.yul\":2580:2616   */\n      dup2\n      mstore\n        /* \"#utility.yul\":2568:2570   */\n      0x20\n        /* \"#utility.yul\":2553:2571   */\n      add\n        /* \"contracts/tauqeer.sol\":3069:3152  function decimals() public view returns (uint8) {... */\n      tag_57\n        /* \"#utility.yul\":2438:2622   */\n      jump\n        /* \"contracts/tauqeer.sol\":14225:14431  function increaseAllowance(address spender, uint addedValue) public returns (bool) {... */\n    tag_12:\n      callvalue\n      dup1\n      iszero\n      tag_97\n      jumpi\n      0x00\n      dup1\n      revert\n    tag_97:\n      pop\n      tag_60\n      tag_99\n      calldatasize\n      0x04\n      tag_62\n      jump\t// in\n    tag_99:\n      tag_100\n      jump\t// in\n        /* \"contracts/tauqeer.sol\":15536:15649  function excludeFromFee(address account) external onlyOwner {... */\n    tag_13:\n      callvalue\n      dup1\n      iszero\n      tag_102\n      jumpi\n      0x00\n      dup1\n      revert\n    tag_102:\n      pop\n      tag_50\n      tag_104\n      calldatasize\n      0x04\n      tag_52\n      jump\t// in\n    tag_104:\n      tag_105\n      jump\t// in\n        /* \"contracts/tauqeer.sol\":11260:11298  address public immutable uniswapV2Pair */\n    tag_14:\n      callvalue\n      dup1\n      iszero\n      tag_106\n      jumpi\n      0x00\n      dup1\n      revert\n    tag_106:\n      pop\n      tag_67\n      immutable(\"0xf2b1b7d5f2ab8a7e974414843034d805c6ff5f827e1393d21a76b0239bfca82a\")\n      dup2\n      jump\n        /* \"contracts/tauqeer.sol\":11858:11898  bool public swapAndLiquifyEnabled = true */\n    tag_15:\n      callvalue\n      dup1\n      iszero\n      tag_111\n      jumpi\n      0x00\n      dup1\n      revert\n    tag_111:\n      pop\n      sload(0x0e)\n      tag_60\n      swap1\n      shl(0xa8, 0x01)\n      swap1\n      div\n      0xff\n      and\n      dup2\n      jump\n        /* \"contracts/tauqeer.sol\":11585:11611  bool public tradingEnabled */\n    tag_16:\n      callvalue\n      dup1\n      iszero\n      tag_115\n      jumpi\n      0x00\n      dup1\n      revert\n    tag_115:\n      pop\n      sload(0x09)\n      tag_60\n      swap1\n      0xff\n      and\n      dup2\n      jump\n        /* \"contracts/tauqeer.sol\":15781:15887  function excludeFromAMMs(address account) external onlyOwner... */\n    tag_17:\n      callvalue\n      dup1\n      iszero\n      tag_119\n      jumpi\n      0x00\n      dup1\n      revert\n    tag_119:\n      pop\n      tag_50\n      tag_121\n      calldatasize\n      0x04\n      tag_52\n      jump\t// in\n    tag_121:\n      tag_122\n      jump\t// in\n        /* \"contracts/tauqeer.sol\":15042:15153  function setTeamAddress(address payable wallet) external onlyOwner... */\n    tag_18:\n      callvalue\n      dup1\n      iszero\n      tag_123\n      jumpi\n      0x00\n      dup1\n      revert\n    tag_123:\n      pop\n      tag_50\n      tag_125\n      calldatasize\n      0x04\n      tag_52\n      jump\t// in\n    tag_125:\n      tag_127\n      jump\t// in\n        /* \"contracts/tauqeer.sol\":13349:13465  function balanceOf(address account) public view override returns (uint) {... */\n    tag_19:\n      callvalue\n      dup1\n      iszero\n      tag_128\n      jumpi\n      0x00\n      dup1\n      revert\n    tag_128:\n      pop\n      tag_72\n      tag_130\n      calldatasize\n      0x04\n      tag_52\n      jump\t// in\n    tag_130:\n      sub(shl(0xa0, 0x01), 0x01)\n        /* \"contracts/tauqeer.sol\":13439:13457  _balances[account] */\n      and\n        /* \"contracts/tauqeer.sol\":13415:13419  uint */\n      0x00\n        /* \"contracts/tauqeer.sol\":13439:13457  _balances[account] */\n      swap1\n      dup2\n      mstore\n        /* \"contracts/tauqeer.sol\":13439:13448  _balances */\n      0x04\n        /* \"contracts/tauqeer.sol\":13439:13457  _balances[account] */\n      0x20\n      mstore\n      0x40\n      swap1\n      keccak256\n      sload\n      swap1\n        /* \"contracts/tauqeer.sol\":13349:13465  function balanceOf(address account) public view override returns (uint) {... */\n      jump\n        /* \"contracts/tauqeer.sol\":2027:2175  function renounceOwnership() public virtual onlyOwner {... */\n    tag_20:\n      callvalue\n      dup1\n      iszero\n      tag_133\n      jumpi\n      0x00\n      dup1\n      revert\n    tag_133:\n      pop\n      tag_50\n      tag_135\n      jump\t// in\n        /* \"contracts/tauqeer.sol\":11436:11487  mapping (address => bool) public _isExcludedFromFee */\n    tag_21:\n      callvalue\n      dup1\n      iszero\n      tag_136\n      jumpi\n      0x00\n      dup1\n      revert\n    tag_136:\n      pop\n      tag_60\n      tag_138\n      calldatasize\n      0x04\n      tag_52\n      jump\t// in\n    tag_138:\n      mstore(0x20, 0x06)\n      0x00\n      swap1\n      dup2\n      mstore\n      0x40\n      swap1\n      keccak256\n      sload\n      0xff\n      and\n      dup2\n      jump\n        /* \"contracts/tauqeer.sol\":14661:15032  function setTeamFeePercent(uint256 updatedBuyTeamFee, uint256 updatedSellTeamFee, uint256 updatedTransferTeamFee) external onlyOwner {... */\n    tag_22:\n      callvalue\n      dup1\n      iszero\n      tag_141\n      jumpi\n      0x00\n      dup1\n      revert\n    tag_141:\n      pop\n      tag_50\n      tag_143\n      calldatasize\n      0x04\n      tag_144\n      jump\t// in\n    tag_143:\n      tag_145\n      jump\t// in\n        /* \"contracts/tauqeer.sol\":16006:16095  function enableTrading() external onlyOwner... */\n    tag_23:\n      callvalue\n      dup1\n      iszero\n      tag_146\n      jumpi\n      0x00\n      dup1\n      revert\n    tag_146:\n      pop\n      tag_50\n      tag_148\n      jump\t// in\n        /* \"contracts/tauqeer.sol\":1384:1463  function owner() public view returns (address) {... */\n    tag_24:\n      callvalue\n      dup1\n      iszero\n      tag_149\n      jumpi\n      0x00\n      dup1\n      revert\n    tag_149:\n      pop\n        /* \"contracts/tauqeer.sol\":1422:1429  address */\n      0x00\n        /* \"contracts/tauqeer.sol\":1449:1455  _owner */\n      sload\n      sub(shl(0xa0, 0x01), 0x01)\n      and\n        /* \"contracts/tauqeer.sol\":1384:1463  function owner() public view returns (address) {... */\n      jump(tag_67)\n        /* \"contracts/tauqeer.sol\":2976:3063  function symbol() public view returns (string memory) {... */\n    tag_25:\n      callvalue\n      dup1\n      iszero\n      tag_153\n      jumpi\n      0x00\n      dup1\n      revert\n    tag_153:\n      pop\n      tag_55\n      tag_155\n      jump\t// in\n        /* \"contracts/tauqeer.sol\":11620:11651  uint256 public buyTeamFee = 268 */\n    tag_26:\n      callvalue\n      dup1\n      iszero\n      tag_157\n      jumpi\n      0x00\n      dup1\n      revert\n    tag_157:\n      pop\n      tag_72\n      sload(0x0a)\n      dup2\n      jump\n        /* \"contracts/tauqeer.sol\":14437:14653  function decreaseAllowance(address spender, uint subtractedValue) public returns (bool) {... */\n    tag_27:\n      callvalue\n      dup1\n      iszero\n      tag_161\n      jumpi\n      0x00\n      dup1\n      revert\n    tag_161:\n      pop\n      tag_60\n      tag_163\n      calldatasize\n      0x04\n      tag_62\n      jump\t// in\n    tag_163:\n      tag_164\n      jump\t// in\n        /* \"contracts/tauqeer.sol\":13471:13636  function transfer(address recipient, uint amount) public override  returns (bool) {... */\n    tag_28:\n      callvalue\n      dup1\n      iszero\n      tag_166\n      jumpi\n      0x00\n      dup1\n      revert\n    tag_166:\n      pop\n      tag_60\n      tag_168\n      calldatasize\n      0x04\n      tag_62\n      jump\t// in\n    tag_168:\n      tag_169\n      jump\t// in\n        /* \"contracts/tauqeer.sol\":11697:11728  uint256 public transferFee = 40 */\n    tag_29:\n      callvalue\n      dup1\n      iszero\n      tag_171\n      jumpi\n      0x00\n      dup1\n      revert\n    tag_171:\n      pop\n      tag_72\n      sload(0x0c)\n      dup2\n      jump\n        /* \"contracts/tauqeer.sol\":15161:15332  function setSwapAndLiquifyEnabled(bool _enabled) public onlyOwner {... */\n    tag_30:\n      callvalue\n      dup1\n      iszero\n      tag_175\n      jumpi\n      0x00\n      dup1\n      revert\n    tag_175:\n      pop\n      tag_50\n      tag_177\n      calldatasize\n      0x04\n      tag_178\n      jump\t// in\n    tag_177:\n      tag_179\n      jump\t// in\n        /* \"contracts/tauqeer.sol\":15340:15530  function changeNumTokensSellToAddToLiquidity(uint256 _numTokensSellToAddToLiquidity) external onlyOwner... */\n    tag_31:\n      callvalue\n      dup1\n      iszero\n      tag_180\n      jumpi\n      0x00\n      dup1\n      revert\n    tag_180:\n      pop\n      tag_50\n      tag_182\n      calldatasize\n      0x04\n      tag_183\n      jump\t// in\n    tag_182:\n      tag_184\n      jump\t// in\n        /* \"contracts/tauqeer.sol\":11911:11972  uint256 public numTokensSellToAddToLiquidity = 750000 * 10**9 */\n    tag_32:\n      callvalue\n      dup1\n      iszero\n      tag_185\n      jumpi\n      0x00\n      dup1\n      revert\n    tag_185:\n      pop\n      tag_72\n      sload(0x0f)\n      dup2\n      jump\n        /* \"contracts/tauqeer.sol\":11658:11690  uint256 public sellTeamFee = 268 */\n    tag_33:\n      callvalue\n      dup1\n      iszero\n      tag_189\n      jumpi\n      0x00\n      dup1\n      revert\n    tag_189:\n      pop\n      tag_72\n      sload(0x0b)\n      dup2\n      jump\n        /* \"contracts/tauqeer.sol\":11735:11757  uint256 public teamFee */\n    tag_34:\n      callvalue\n      dup1\n      iszero\n      tag_193\n      jumpi\n      0x00\n      dup1\n      revert\n    tag_193:\n      pop\n      tag_72\n      sload(0x0d)\n      dup2\n      jump\n        /* \"contracts/tauqeer.sol\":13642:13784  function allowance(address towner, address spender) public view override returns (uint) {... */\n    tag_35:\n      callvalue\n      dup1\n      iszero\n      tag_197\n      jumpi\n      0x00\n      dup1\n      revert\n    tag_197:\n      pop\n      tag_72\n      tag_199\n      calldatasize\n      0x04\n      tag_200\n      jump\t// in\n    tag_199:\n      sub(shl(0xa0, 0x01), 0x01)\n        /* \"contracts/tauqeer.sol\":13748:13767  _allowances[towner] */\n      swap2\n      dup3\n      and\n        /* \"contracts/tauqeer.sol\":13724:13728  uint */\n      0x00\n        /* \"contracts/tauqeer.sol\":13748:13767  _allowances[towner] */\n      swap1\n      dup2\n      mstore\n        /* \"contracts/tauqeer.sol\":13748:13759  _allowances */\n      0x05\n        /* \"contracts/tauqeer.sol\":13748:13767  _allowances[towner] */\n      0x20\n      swap1\n      dup2\n      mstore\n      0x40\n      dup1\n      dup4\n      keccak256\n        /* \"contracts/tauqeer.sol\":13748:13776  _allowances[towner][spender] */\n      swap4\n      swap1\n      swap5\n      and\n      dup3\n      mstore\n      swap2\n      swap1\n      swap2\n      mstore\n      keccak256\n      sload\n      swap1\n        /* \"contracts/tauqeer.sol\":13642:13784  function allowance(address towner, address spender) public view override returns (uint) {... */\n      jump\n        /* \"contracts/tauqeer.sol\":20464:20803  function removeStuckToken(address _address) external onlyOwner {... */\n    tag_36:\n      callvalue\n      dup1\n      iszero\n      tag_203\n      jumpi\n      0x00\n      dup1\n      revert\n    tag_203:\n      pop\n      tag_50\n      tag_205\n      calldatasize\n      0x04\n      tag_52\n      jump\t// in\n    tag_205:\n      tag_206\n      jump\t// in\n        /* \"contracts/tauqeer.sol\":15661:15773  function includeInFee(address account) external onlyOwner {... */\n    tag_37:\n      callvalue\n      dup1\n      iszero\n      tag_207\n      jumpi\n      0x00\n      dup1\n      revert\n    tag_207:\n      pop\n      tag_50\n      tag_209\n      calldatasize\n      0x04\n      tag_52\n      jump\t// in\n    tag_209:\n      tag_210\n      jump\t// in\n        /* \"contracts/tauqeer.sol\":2330:2574  function transferOwnership(address newOwner) public virtual onlyOwner {... */\n    tag_38:\n      callvalue\n      dup1\n      iszero\n      tag_211\n      jumpi\n      0x00\n      dup1\n      revert\n    tag_211:\n      pop\n      tag_50\n      tag_213\n      calldatasize\n      0x04\n      tag_52\n      jump\t// in\n    tag_213:\n      tag_214\n      jump\t// in\n        /* \"contracts/tauqeer.sol\":20262:20456  function withdrawStuckETH() external onlyOwner{... */\n    tag_39:\n      callvalue\n      dup1\n      iszero\n      tag_215\n      jumpi\n      0x00\n      dup1\n      revert\n    tag_215:\n      pop\n      tag_50\n      tag_217\n      jump\t// in\n        /* \"contracts/tauqeer.sol\":15895:15998  function includeInAMMs(address account) external onlyOwner... */\n    tag_53:\n        /* \"contracts/tauqeer.sol\":1596:1602  _owner */\n      and(sub(shl(0xa0, 0x01), 0x01), sload(0x00))\n        /* \"contracts/tauqeer.sol\":893:903  msg.sender */\n      caller\n        /* \"contracts/tauqeer.sol\":1596:1618  _owner == _msgSender() */\n      eq\n        /* \"contracts/tauqeer.sol\":1588:1656  require(_owner == _msgSender() , \"Ownable: caller is not the owner\") */\n      tag_221\n      jumpi\n      mload(0x40)\n      shl(0xe5, 0x461bcd)\n      dup2\n      mstore\n      0x04\n      add\n      tag_222\n      swap1\n      tag_223\n      jump\t// in\n    tag_222:\n      mload(0x40)\n      dup1\n      swap2\n      sub\n      swap1\n      revert\n    tag_221:\n      sub(shl(0xa0, 0x01), 0x01)\n        /* \"contracts/tauqeer.sol\":15970:15983  AMMs[account] */\n      and\n      0x00\n      swap1\n      dup2\n      mstore\n        /* \"contracts/tauqeer.sol\":15970:15974  AMMs */\n      0x07\n        /* \"contracts/tauqeer.sol\":15970:15983  AMMs[account] */\n      0x20\n      mstore\n      0x40\n      swap1\n      keccak256\n        /* \"contracts/tauqeer.sol\":15970:15990  AMMs[account] = true */\n      dup1\n      sload\n      not(0xff)\n      and\n        /* \"contracts/tauqeer.sol\":15986:15990  true */\n      0x01\n        /* \"contracts/tauqeer.sol\":15970:15990  AMMs[account] = true */\n      or\n      swap1\n      sstore\n        /* \"contracts/tauqeer.sol\":15895:15998  function includeInAMMs(address account) external onlyOwner... */\n      jump\t// out\n        /* \"contracts/tauqeer.sol\":2887:2970  function name() public view returns (string memory) {... */\n    tag_56:\n        /* \"contracts/tauqeer.sol\":2924:2937  string memory */\n      0x60\n        /* \"contracts/tauqeer.sol\":2957:2962  _name */\n      0x01\n        /* \"contracts/tauqeer.sol\":2950:2962  return _name */\n      dup1\n      sload\n      tag_226\n      swap1\n      tag_227\n      jump\t// in\n    tag_226:\n      dup1\n      0x1f\n      add\n      0x20\n      dup1\n      swap2\n      div\n      mul\n      0x20\n      add\n      mload(0x40)\n      swap1\n      dup2\n      add\n      0x40\n      mstore\n      dup1\n      swap3\n      swap2\n      swap1\n      dup2\n      dup2\n      mstore\n      0x20\n      add\n      dup3\n      dup1\n      sload\n      tag_228\n      swap1\n      tag_227\n      jump\t// in\n    tag_228:\n      dup1\n      iszero\n      tag_229\n      jumpi\n      dup1\n      0x1f\n      lt\n      tag_230\n      jumpi\n      0x0100\n      dup1\n      dup4\n      sload\n      div\n      mul\n      dup4\n      mstore\n      swap2\n      0x20\n      add\n      swap2\n      jump(tag_229)\n    tag_230:\n      dup3\n      add\n      swap2\n      swap1\n      0x00\n      mstore\n      keccak256(0x00, 0x20)\n      swap1\n    tag_231:\n      dup2\n      sload\n      dup2\n      mstore\n      swap1\n      0x01\n      add\n      swap1\n      0x20\n      add\n      dup1\n      dup4\n      gt\n      tag_231\n      jumpi\n      dup3\n      swap1\n      sub\n      0x1f\n      and\n      dup3\n      add\n      swap2\n    tag_229:\n      pop\n      pop\n      pop\n      pop\n      pop\n      swap1\n      pop\n        /* \"contracts/tauqeer.sol\":2887:2970  function name() public view returns (string memory) {... */\n      swap1\n      jump\t// out\n        /* \"contracts/tauqeer.sol\":13790:13948  function approve(address spender, uint amount) public override returns (bool) {... */\n    tag_63:\n        /* \"contracts/tauqeer.sol\":13862:13866  bool */\n      0x00\n        /* \"contracts/tauqeer.sol\":13879:13918  _approve(_msgSender(), spender, amount) */\n      tag_233\n        /* \"contracts/tauqeer.sol\":893:903  msg.sender */\n      caller\n        /* \"contracts/tauqeer.sol\":13902:13909  spender */\n      dup5\n        /* \"contracts/tauqeer.sol\":13911:13917  amount */\n      dup5\n        /* \"contracts/tauqeer.sol\":13879:13887  _approve */\n      tag_235\n        /* \"contracts/tauqeer.sol\":13879:13918  _approve(_msgSender(), spender, amount) */\n      jump\t// in\n    tag_233:\n      pop\n        /* \"contracts/tauqeer.sol\":13936:13940  true */\n      0x01\n        /* \"contracts/tauqeer.sol\":13790:13948  function approve(address spender, uint amount) public override returns (bool) {... */\n    tag_232:\n      swap3\n      swap2\n      pop\n      pop\n      jump\t// out\n        /* \"contracts/tauqeer.sol\":13954:14219  function transferFrom(address sender, address recipient, uint amount) public override returns (bool) {... */\n    tag_90:\n        /* \"contracts/tauqeer.sol\":14049:14053  bool */\n      0x00\n        /* \"contracts/tauqeer.sol\":14066:14102  _transfer(sender, recipient, amount) */\n      tag_238\n        /* \"contracts/tauqeer.sol\":14076:14082  sender */\n      dup5\n        /* \"contracts/tauqeer.sol\":14084:14093  recipient */\n      dup5\n        /* \"contracts/tauqeer.sol\":14095:14101  amount */\n      dup5\n        /* \"contracts/tauqeer.sol\":14066:14075  _transfer */\n      tag_239\n        /* \"contracts/tauqeer.sol\":14066:14102  _transfer(sender, recipient, amount) */\n      jump\t// in\n    tag_238:\n      sub(shl(0xa0, 0x01), 0x01)\n        /* \"contracts/tauqeer.sol\":14144:14163  _allowances[sender] */\n      dup5\n      and\n      0x00\n      swap1\n      dup2\n      mstore\n        /* \"contracts/tauqeer.sol\":14144:14155  _allowances */\n      0x05\n        /* \"contracts/tauqeer.sol\":14144:14163  _allowances[sender] */\n      0x20\n      swap1\n      dup2\n      mstore\n      0x40\n      dup1\n      dup4\n      keccak256\n        /* \"contracts/tauqeer.sol\":893:903  msg.sender */\n      caller\n        /* \"contracts/tauqeer.sol\":14144:14177  _allowances[sender][_msgSender()] */\n      dup1\n      dup6\n      mstore\n      swap3\n      mstore\n      swap1\n      swap2\n      keccak256\n      sload\n        /* \"contracts/tauqeer.sol\":14113:14189  _approve(sender, _msgSender(), _allowances[sender][_msgSender()] - (amount)) */\n      tag_240\n      swap2\n        /* \"contracts/tauqeer.sol\":14122:14128  sender */\n      dup7\n      swap2\n        /* \"contracts/tauqeer.sol\":14144:14188  _allowances[sender][_msgSender()] - (amount) */\n      tag_243\n      swap1\n        /* \"contracts/tauqeer.sol\":14181:14187  amount */\n      dup7\n      swap1\n        /* \"contracts/tauqeer.sol\":14144:14188  _allowances[sender][_msgSender()] - (amount) */\n      tag_244\n      jump\t// in\n    tag_243:\n        /* \"contracts/tauqeer.sol\":14113:14121  _approve */\n      tag_235\n        /* \"contracts/tauqeer.sol\":14113:14189  _approve(sender, _msgSender(), _allowances[sender][_msgSender()] - (amount)) */\n      jump\t// in\n    tag_240:\n      pop\n        /* \"contracts/tauqeer.sol\":14207:14211  true */\n      0x01\n        /* \"contracts/tauqeer.sol\":13954:14219  function transferFrom(address sender, address recipient, uint amount) public override returns (bool) {... */\n      swap4\n      swap3\n      pop\n      pop\n      pop\n      jump\t// out\n        /* \"contracts/tauqeer.sol\":14225:14431  function increaseAllowance(address spender, uint addedValue) public returns (bool) {... */\n    tag_100:\n        /* \"contracts/tauqeer.sol\":893:903  msg.sender */\n      caller\n        /* \"contracts/tauqeer.sol\":14302:14306  bool */\n      0x00\n        /* \"contracts/tauqeer.sol\":14351:14376  _allowances[_msgSender()] */\n      dup2\n      dup2\n      mstore\n        /* \"contracts/tauqeer.sol\":14351:14362  _allowances */\n      0x05\n        /* \"contracts/tauqeer.sol\":14351:14376  _allowances[_msgSender()] */\n      0x20\n      swap1\n      dup2\n      mstore\n      0x40\n      dup1\n      dup4\n      keccak256\n      sub(shl(0xa0, 0x01), 0x01)\n        /* \"contracts/tauqeer.sol\":14351:14385  _allowances[_msgSender()][spender] */\n      dup8\n      and\n      dup5\n      mstore\n      swap1\n      swap2\n      mstore\n      dup2\n      keccak256\n      sload\n        /* \"contracts/tauqeer.sol\":14302:14306  bool */\n      swap1\n      swap2\n        /* \"contracts/tauqeer.sol\":14319:14401  _approve(_msgSender(), spender, _allowances[_msgSender()][spender] + (addedValue)) */\n      tag_233\n      swap2\n        /* \"contracts/tauqeer.sol\":14342:14349  spender */\n      dup6\n      swap1\n        /* \"contracts/tauqeer.sol\":14351:14400  _allowances[_msgSender()][spender] + (addedValue) */\n      tag_243\n      swap1\n        /* \"contracts/tauqeer.sol\":14389:14399  addedValue */\n      dup7\n      swap1\n        /* \"contracts/tauqeer.sol\":14351:14400  _allowances[_msgSender()][spender] + (addedValue) */\n      tag_251\n      jump\t// in\n        /* \"contracts/tauqeer.sol\":15536:15649  function excludeFromFee(address account) external onlyOwner {... */\n    tag_105:\n        /* \"contracts/tauqeer.sol\":1596:1602  _owner */\n      and(sub(shl(0xa0, 0x01), 0x01), sload(0x00))\n        /* \"contracts/tauqeer.sol\":893:903  msg.sender */\n      caller\n        /* \"contracts/tauqeer.sol\":1596:1618  _owner == _msgSender() */\n      eq\n        /* \"contracts/tauqeer.sol\":1588:1656  require(_owner == _msgSender() , \"Ownable: caller is not the owner\") */\n      tag_254\n      jumpi\n      mload(0x40)\n      shl(0xe5, 0x461bcd)\n      dup2\n      mstore\n      0x04\n      add\n      tag_222\n      swap1\n      tag_223\n      jump\t// in\n    tag_254:\n      sub(shl(0xa0, 0x01), 0x01)\n        /* \"contracts/tauqeer.sol\":15607:15634  _isExcludedFromFee[account] */\n      and\n      0x00\n      swap1\n      dup2\n      mstore\n        /* \"contracts/tauqeer.sol\":15607:15625  _isExcludedFromFee */\n      0x06\n        /* \"contracts/tauqeer.sol\":15607:15634  _isExcludedFromFee[account] */\n      0x20\n      mstore\n      0x40\n      swap1\n      keccak256\n        /* \"contracts/tauqeer.sol\":15607:15641  _isExcludedFromFee[account] = true */\n      dup1\n      sload\n      not(0xff)\n      and\n        /* \"contracts/tauqeer.sol\":15637:15641  true */\n      0x01\n        /* \"contracts/tauqeer.sol\":15607:15641  _isExcludedFromFee[account] = true */\n      or\n      swap1\n      sstore\n        /* \"contracts/tauqeer.sol\":15536:15649  function excludeFromFee(address account) external onlyOwner {... */\n      jump\t// out\n        /* \"contracts/tauqeer.sol\":15781:15887  function excludeFromAMMs(address account) external onlyOwner... */\n    tag_122:\n        /* \"contracts/tauqeer.sol\":1596:1602  _owner */\n      and(sub(shl(0xa0, 0x01), 0x01), sload(0x00))\n        /* \"contracts/tauqeer.sol\":893:903  msg.sender */\n      caller\n        /* \"contracts/tauqeer.sol\":1596:1618  _owner == _msgSender() */\n      eq\n        /* \"contracts/tauqeer.sol\":1588:1656  require(_owner == _msgSender() , \"Ownable: caller is not the owner\") */\n      tag_259\n      jumpi\n      mload(0x40)\n      shl(0xe5, 0x461bcd)\n      dup2\n      mstore\n      0x04\n      add\n      tag_222\n      swap1\n      tag_223\n      jump\t// in\n    tag_259:\n      sub(shl(0xa0, 0x01), 0x01)\n        /* \"contracts/tauqeer.sol\":15858:15871  AMMs[account] */\n      and\n        /* \"contracts/tauqeer.sol\":15874:15879  false */\n      0x00\n        /* \"contracts/tauqeer.sol\":15858:15871  AMMs[account] */\n      swap1\n      dup2\n      mstore\n        /* \"contracts/tauqeer.sol\":15858:15862  AMMs */\n      0x07\n        /* \"contracts/tauqeer.sol\":15858:15871  AMMs[account] */\n      0x20\n      mstore\n      0x40\n      swap1\n      keccak256\n        /* \"contracts/tauqeer.sol\":15858:15879  AMMs[account] = false */\n      dup1\n      sload\n      not(0xff)\n      and\n      swap1\n      sstore\n        /* \"contracts/tauqeer.sol\":15781:15887  function excludeFromAMMs(address account) external onlyOwner... */\n      jump\t// out\n        /* \"contracts/tauqeer.sol\":15042:15153  function setTeamAddress(address payable wallet) external onlyOwner... */\n    tag_127:\n        /* \"contracts/tauqeer.sol\":1596:1602  _owner */\n      and(sub(shl(0xa0, 0x01), 0x01), sload(0x00))\n        /* \"contracts/tauqeer.sol\":893:903  msg.sender */\n      caller\n        /* \"contracts/tauqeer.sol\":1596:1618  _owner == _msgSender() */\n      eq\n        /* \"contracts/tauqeer.sol\":1588:1656  require(_owner == _msgSender() , \"Ownable: caller is not the owner\") */\n      tag_264\n      jumpi\n      mload(0x40)\n      shl(0xe5, 0x461bcd)\n      dup2\n      mstore\n      0x04\n      add\n      tag_222\n      swap1\n      tag_223\n      jump\t// in\n    tag_264:\n        /* \"contracts/tauqeer.sol\":15125:15136  teamAddress */\n      0x0e\n        /* \"contracts/tauqeer.sol\":15125:15145  teamAddress = wallet */\n      dup1\n      sload\n      not(sub(shl(0xa0, 0x01), 0x01))\n      and\n      sub(shl(0xa0, 0x01), 0x01)\n      swap3\n      swap1\n      swap3\n      and\n      swap2\n      swap1\n      swap2\n      or\n      swap1\n      sstore\n        /* \"contracts/tauqeer.sol\":15042:15153  function setTeamAddress(address payable wallet) external onlyOwner... */\n      jump\t// out\n        /* \"contracts/tauqeer.sol\":2027:2175  function renounceOwnership() public virtual onlyOwner {... */\n    tag_135:\n        /* \"contracts/tauqeer.sol\":1596:1602  _owner */\n      and(sub(shl(0xa0, 0x01), 0x01), sload(0x00))\n        /* \"contracts/tauqeer.sol\":893:903  msg.sender */\n      caller\n        /* \"contracts/tauqeer.sol\":1596:1618  _owner == _msgSender() */\n      eq\n        /* \"contracts/tauqeer.sol\":1588:1656  require(_owner == _msgSender() , \"Ownable: caller is not the owner\") */\n      tag_270\n      jumpi\n      mload(0x40)\n      shl(0xe5, 0x461bcd)\n      dup2\n      mstore\n      0x04\n      add\n      tag_222\n      swap1\n      tag_223\n      jump\t// in\n    tag_270:\n        /* \"contracts/tauqeer.sol\":2134:2135  0 */\n      0x00\n        /* \"contracts/tauqeer.sol\":2118:2124  _owner */\n      dup1\n      sload\n        /* \"contracts/tauqeer.sol\":2097:2137  OwnershipTransferred(_owner, address(0)) */\n      mload(0x40)\n      sub(shl(0xa0, 0x01), 0x01)\n        /* \"contracts/tauqeer.sol\":2118:2124  _owner */\n      swap1\n      swap2\n      and\n      swap1\n        /* \"contracts/tauqeer.sol\":2097:2137  OwnershipTransferred(_owner, address(0)) */\n      0x8be0079c531659141344cd1fd0a4f28419497f9722a3daafe3b4186f6b6457e0\n      swap1\n        /* \"contracts/tauqeer.sol\":2134:2135  0 */\n      dup4\n      swap1\n        /* \"contracts/tauqeer.sol\":2097:2137  OwnershipTransferred(_owner, address(0)) */\n      log3\n        /* \"contracts/tauqeer.sol\":2165:2166  0 */\n      0x00\n        /* \"contracts/tauqeer.sol\":2148:2167  _owner = address(0) */\n      dup1\n      sload\n      not(sub(shl(0xa0, 0x01), 0x01))\n      and\n      swap1\n      sstore\n        /* \"contracts/tauqeer.sol\":2027:2175  function renounceOwnership() public virtual onlyOwner {... */\n      jump\t// out\n        /* \"contracts/tauqeer.sol\":14661:15032  function setTeamFeePercent(uint256 updatedBuyTeamFee, uint256 updatedSellTeamFee, uint256 updatedTransferTeamFee) external onlyOwner {... */\n    tag_145:\n        /* \"contracts/tauqeer.sol\":1596:1602  _owner */\n      and(sub(shl(0xa0, 0x01), 0x01), sload(0x00))\n        /* \"contracts/tauqeer.sol\":893:903  msg.sender */\n      caller\n        /* \"contracts/tauqeer.sol\":1596:1618  _owner == _msgSender() */\n      eq\n        /* \"contracts/tauqeer.sol\":1588:1656  require(_owner == _msgSender() , \"Ownable: caller is not the owner\") */\n      tag_275\n      jumpi\n      mload(0x40)\n      shl(0xe5, 0x461bcd)\n      dup2\n      mstore\n      0x04\n      add\n      tag_222\n      swap1\n      tag_223\n      jump\t// in\n    tag_275:\n        /* \"contracts/tauqeer.sol\":14805:14815  buyTeamFee */\n      0x0a\n        /* \"contracts/tauqeer.sol\":14805:14835  buyTeamFee = updatedBuyTeamFee */\n      dup4\n      dup2\n      sstore\n        /* \"contracts/tauqeer.sol\":14846:14857  sellTeamFee */\n      0x0b\n        /* \"contracts/tauqeer.sol\":14846:14878  sellTeamFee = updatedSellTeamFee */\n      dup4\n      swap1\n      sstore\n        /* \"contracts/tauqeer.sol\":14889:14900  transferFee */\n      0x0c\n        /* \"contracts/tauqeer.sol\":14889:14925  transferFee = updatedTransferTeamFee */\n      dup3\n      swap1\n      sstore\n        /* \"contracts/tauqeer.sol\":14903:14925  updatedTransferTeamFee */\n      dup2\n        /* \"contracts/tauqeer.sol\":14944:14968  buyTeamFee + sellTeamFee */\n      tag_278\n        /* \"contracts/tauqeer.sol\":14860:14878  updatedSellTeamFee */\n      dup5\n        /* \"contracts/tauqeer.sol\":14818:14835  updatedBuyTeamFee */\n      dup7\n        /* \"contracts/tauqeer.sol\":14944:14968  buyTeamFee + sellTeamFee */\n      tag_251\n      jump\t// in\n    tag_278:\n        /* \"contracts/tauqeer.sol\":14944:14982  buyTeamFee + sellTeamFee + transferFee */\n      tag_279\n      swap2\n      swap1\n      tag_251\n      jump\t// in\n    tag_279:\n        /* \"contracts/tauqeer.sol\":14944:14989  buyTeamFee + sellTeamFee + transferFee  <= 10 */\n      gt\n      iszero\n        /* \"contracts/tauqeer.sol\":14936:15024  require(buyTeamFee + sellTeamFee + transferFee  <= 10, \"Fee is crossing the boundaries\") */\n      tag_280\n      jumpi\n      mload(0x40)\n      shl(0xe5, 0x461bcd)\n      dup2\n      mstore\n        /* \"#utility.yul\":5706:5708   */\n      0x20\n        /* \"contracts/tauqeer.sol\":14936:15024  require(buyTeamFee + sellTeamFee + transferFee  <= 10, \"Fee is crossing the boundaries\") */\n      0x04\n      dup3\n      add\n        /* \"#utility.yul\":5688:5709   */\n      mstore\n        /* \"#utility.yul\":5745:5747   */\n      0x1e\n        /* \"#utility.yul\":5725:5743   */\n      0x24\n      dup3\n      add\n        /* \"#utility.yul\":5718:5748   */\n      mstore\n        /* \"#utility.yul\":5784:5816   */\n      0x4665652069732063726f7373696e672074686520626f756e6461726965730000\n        /* \"#utility.yul\":5764:5782   */\n      0x44\n      dup3\n      add\n        /* \"#utility.yul\":5757:5817   */\n      mstore\n        /* \"#utility.yul\":5834:5852   */\n      0x64\n      add\n        /* \"contracts/tauqeer.sol\":14936:15024  require(buyTeamFee + sellTeamFee + transferFee  <= 10, \"Fee is crossing the boundaries\") */\n      tag_222\n        /* \"#utility.yul\":5504:5858   */\n      jump\n        /* \"contracts/tauqeer.sol\":14936:15024  require(buyTeamFee + sellTeamFee + transferFee  <= 10, \"Fee is crossing the boundaries\") */\n    tag_280:\n        /* \"contracts/tauqeer.sol\":14661:15032  function setTeamFeePercent(uint256 updatedBuyTeamFee, uint256 updatedSellTeamFee, uint256 updatedTransferTeamFee) external onlyOwner {... */\n      pop\n      pop\n      pop\n      jump\t// out\n        /* \"contracts/tauqeer.sol\":16006:16095  function enableTrading() external onlyOwner... */\n    tag_148:\n        /* \"contracts/tauqeer.sol\":1596:1602  _owner */\n      and(sub(shl(0xa0, 0x01), 0x01), sload(0x00))\n        /* \"contracts/tauqeer.sol\":893:903  msg.sender */\n      caller\n        /* \"contracts/tauqeer.sol\":1596:1618  _owner == _msgSender() */\n      eq\n        /* \"contracts/tauqeer.sol\":1588:1656  require(_owner == _msgSender() , \"Ownable: caller is not the owner\") */\n      tag_285\n      jumpi\n      mload(0x40)\n      shl(0xe5, 0x461bcd)\n      dup2\n      mstore\n      0x04\n      add\n      tag_222\n      swap1\n      tag_223\n      jump\t// in\n    tag_285:\n        /* \"contracts/tauqeer.sol\":16066:16080  tradingEnabled */\n      0x09\n        /* \"contracts/tauqeer.sol\":16066:16087  tradingEnabled = true */\n      dup1\n      sload\n      not(0xff)\n      and\n        /* \"contracts/tauqeer.sol\":16083:16087  true */\n      0x01\n        /* \"contracts/tauqeer.sol\":16066:16087  tradingEnabled = true */\n      or\n      swap1\n      sstore\n        /* \"contracts/tauqeer.sol\":16006:16095  function enableTrading() external onlyOwner... */\n      jump\t// out\n        /* \"contracts/tauqeer.sol\":2976:3063  function symbol() public view returns (string memory) {... */\n    tag_155:\n        /* \"contracts/tauqeer.sol\":3015:3028  string memory */\n      0x60\n        /* \"contracts/tauqeer.sol\":3048:3055  _symbol */\n      0x02\n        /* \"contracts/tauqeer.sol\":3041:3055  return _symbol */\n      dup1\n      sload\n      tag_226\n      swap1\n      tag_227\n      jump\t// in\n        /* \"contracts/tauqeer.sol\":14437:14653  function decreaseAllowance(address spender, uint subtractedValue) public returns (bool) {... */\n    tag_164:\n        /* \"contracts/tauqeer.sol\":893:903  msg.sender */\n      caller\n        /* \"contracts/tauqeer.sol\":14519:14523  bool */\n      0x00\n        /* \"contracts/tauqeer.sol\":14568:14593  _allowances[_msgSender()] */\n      dup2\n      dup2\n      mstore\n        /* \"contracts/tauqeer.sol\":14568:14579  _allowances */\n      0x05\n        /* \"contracts/tauqeer.sol\":14568:14593  _allowances[_msgSender()] */\n      0x20\n      swap1\n      dup2\n      mstore\n      0x40\n      dup1\n      dup4\n      keccak256\n      sub(shl(0xa0, 0x01), 0x01)\n        /* \"contracts/tauqeer.sol\":14568:14602  _allowances[_msgSender()][spender] */\n      dup8\n      and\n      dup5\n      mstore\n      swap1\n      swap2\n      mstore\n      dup2\n      keccak256\n      sload\n        /* \"contracts/tauqeer.sol\":14519:14523  bool */\n      swap1\n      swap2\n        /* \"contracts/tauqeer.sol\":14536:14623  _approve(_msgSender(), spender, _allowances[_msgSender()][spender] - (subtractedValue)) */\n      tag_233\n      swap2\n        /* \"contracts/tauqeer.sol\":14559:14566  spender */\n      dup6\n      swap1\n        /* \"contracts/tauqeer.sol\":14568:14622  _allowances[_msgSender()][spender] - (subtractedValue) */\n      tag_243\n      swap1\n        /* \"contracts/tauqeer.sol\":14606:14621  subtractedValue */\n      dup7\n      swap1\n        /* \"contracts/tauqeer.sol\":14568:14622  _allowances[_msgSender()][spender] - (subtractedValue) */\n      tag_244\n      jump\t// in\n        /* \"contracts/tauqeer.sol\":13471:13636  function transfer(address recipient, uint amount) public override  returns (bool) {... */\n    tag_169:\n        /* \"contracts/tauqeer.sol\":13547:13551  bool */\n      0x00\n        /* \"contracts/tauqeer.sol\":13564:13606  _transfer(_msgSender(), recipient, amount) */\n      tag_233\n        /* \"contracts/tauqeer.sol\":893:903  msg.sender */\n      caller\n        /* \"contracts/tauqeer.sol\":13588:13597  recipient */\n      dup5\n        /* \"contracts/tauqeer.sol\":13599:13605  amount */\n      dup5\n        /* \"contracts/tauqeer.sol\":13564:13573  _transfer */\n      tag_239\n        /* \"contracts/tauqeer.sol\":13564:13606  _transfer(_msgSender(), recipient, amount) */\n      jump\t// in\n        /* \"contracts/tauqeer.sol\":15161:15332  function setSwapAndLiquifyEnabled(bool _enabled) public onlyOwner {... */\n    tag_179:\n        /* \"contracts/tauqeer.sol\":1596:1602  _owner */\n      and(sub(shl(0xa0, 0x01), 0x01), sload(0x00))\n        /* \"contracts/tauqeer.sol\":893:903  msg.sender */\n      caller\n        /* \"contracts/tauqeer.sol\":1596:1618  _owner == _msgSender() */\n      eq\n        /* \"contracts/tauqeer.sol\":1588:1656  require(_owner == _msgSender() , \"Ownable: caller is not the owner\") */\n      tag_305\n      jumpi\n      mload(0x40)\n      shl(0xe5, 0x461bcd)\n      dup2\n      mstore\n      0x04\n      add\n      tag_222\n      swap1\n      tag_223\n      jump\t// in\n    tag_305:\n        /* \"contracts/tauqeer.sol\":15238:15259  swapAndLiquifyEnabled */\n      0x0e\n        /* \"contracts/tauqeer.sol\":15238:15270  swapAndLiquifyEnabled = _enabled */\n      dup1\n      sload\n      dup3\n      iszero\n      iszero\n      shl(0xa8, 0x01)\n      mul\n      not(shl(0xa8, 0xff))\n      swap1\n      swap2\n      and\n      or\n      swap1\n      sstore\n        /* \"contracts/tauqeer.sol\":15286:15324  SwapAndLiquifyEnabledUpdated(_enabled) */\n      mload(0x40)\n      0x53726dfcaf90650aa7eb35524f4d3220f07413c8d6cb404cc8c18bf5591bc159\n      swap1\n      tag_308\n      swap1\n        /* \"contracts/tauqeer.sol\":15262:15270  _enabled */\n      dup4\n        /* \"#utility.yul\":1310:1324   */\n      iszero\n        /* \"#utility.yul\":1303:1325   */\n      iszero\n        /* \"#utility.yul\":1285:1326   */\n      dup2\n      mstore\n        /* \"#utility.yul\":1273:1275   */\n      0x20\n        /* \"#utility.yul\":1258:1276   */\n      add\n      swap1\n        /* \"#utility.yul\":1145:1332   */\n      jump\n        /* \"contracts/tauqeer.sol\":15286:15324  SwapAndLiquifyEnabledUpdated(_enabled) */\n    tag_308:\n      mload(0x40)\n      dup1\n      swap2\n      sub\n      swap1\n      log1\n        /* \"contracts/tauqeer.sol\":15161:15332  function setSwapAndLiquifyEnabled(bool _enabled) public onlyOwner {... */\n      pop\n      jump\t// out\n        /* \"contracts/tauqeer.sol\":15340:15530  function changeNumTokensSellToAddToLiquidity(uint256 _numTokensSellToAddToLiquidity) external onlyOwner... */\n    tag_184:\n        /* \"contracts/tauqeer.sol\":1596:1602  _owner */\n      and(sub(shl(0xa0, 0x01), 0x01), sload(0x00))\n        /* \"contracts/tauqeer.sol\":893:903  msg.sender */\n      caller\n        /* \"contracts/tauqeer.sol\":1596:1618  _owner == _msgSender() */\n      eq\n        /* \"contracts/tauqeer.sol\":1588:1656  require(_owner == _msgSender() , \"Ownable: caller is not the owner\") */\n      tag_311\n      jumpi\n      mload(0x40)\n      shl(0xe5, 0x461bcd)\n      dup2\n      mstore\n      0x04\n      add\n      tag_222\n      swap1\n      tag_223\n      jump\t// in\n    tag_311:\n        /* \"contracts/tauqeer.sol\":15460:15489  numTokensSellToAddToLiquidity */\n      0x0f\n        /* \"contracts/tauqeer.sol\":15460:15522  numTokensSellToAddToLiquidity = _numTokensSellToAddToLiquidity */\n      sstore\n        /* \"contracts/tauqeer.sol\":15340:15530  function changeNumTokensSellToAddToLiquidity(uint256 _numTokensSellToAddToLiquidity) external onlyOwner... */\n      jump\t// out\n        /* \"contracts/tauqeer.sol\":20464:20803  function removeStuckToken(address _address) external onlyOwner {... */\n    tag_206:\n        /* \"contracts/tauqeer.sol\":1596:1602  _owner */\n      and(sub(shl(0xa0, 0x01), 0x01), sload(0x00))\n        /* \"contracts/tauqeer.sol\":893:903  msg.sender */\n      caller\n        /* \"contracts/tauqeer.sol\":1596:1618  _owner == _msgSender() */\n      eq\n        /* \"contracts/tauqeer.sol\":1588:1656  require(_owner == _msgSender() , \"Ownable: caller is not the owner\") */\n      tag_317\n      jumpi\n      mload(0x40)\n      shl(0xe5, 0x461bcd)\n      dup2\n      mstore\n      0x04\n      add\n      tag_222\n      swap1\n      tag_223\n      jump\t// in\n    tag_317:\n        /* \"contracts/tauqeer.sol\":20566:20570  this */\n      address\n      sub(shl(0xa0, 0x01), 0x01)\n        /* \"contracts/tauqeer.sol\":20546:20571  _address != address(this) */\n      dup3\n      and\n      sub\n        /* \"contracts/tauqeer.sol\":20538:20620  require(_address != address(this), \"Can't withdraw tokens destined for liquidity\") */\n      tag_320\n      jumpi\n      mload(0x40)\n      shl(0xe5, 0x461bcd)\n      dup2\n      mstore\n        /* \"#utility.yul\":6065:6067   */\n      0x20\n        /* \"contracts/tauqeer.sol\":20538:20620  require(_address != address(this), \"Can't withdraw tokens destined for liquidity\") */\n      0x04\n      dup3\n      add\n        /* \"#utility.yul\":6047:6068   */\n      mstore\n        /* \"#utility.yul\":6104:6106   */\n      0x2c\n        /* \"#utility.yul\":6084:6102   */\n      0x24\n      dup3\n      add\n        /* \"#utility.yul\":6077:6107   */\n      mstore\n        /* \"#utility.yul\":6143:6177   */\n      0x43616e277420776974686472617720746f6b656e732064657374696e65642066\n        /* \"#utility.yul\":6123:6141   */\n      0x44\n      dup3\n      add\n        /* \"#utility.yul\":6116:6178   */\n      mstore\n      shl(0xa0, 0x6f72206c6971756964697479)\n        /* \"#utility.yul\":6194:6212   */\n      0x64\n      dup3\n      add\n        /* \"#utility.yul\":6187:6229   */\n      mstore\n        /* \"#utility.yul\":6246:6265   */\n      0x84\n      add\n        /* \"contracts/tauqeer.sol\":20538:20620  require(_address != address(this), \"Can't withdraw tokens destined for liquidity\") */\n      tag_222\n        /* \"#utility.yul\":5863:6271   */\n      jump\n        /* \"contracts/tauqeer.sol\":20538:20620  require(_address != address(this), \"Can't withdraw tokens destined for liquidity\") */\n    tag_320:\n        /* \"contracts/tauqeer.sol\":20639:20680  IERC20(_address).balanceOf(address(this)) */\n      mload(0x40)\n      shl(0xe0, 0x70a08231)\n      dup2\n      mstore\n        /* \"contracts/tauqeer.sol\":20674:20678  this */\n      address\n        /* \"contracts/tauqeer.sol\":20639:20680  IERC20(_address).balanceOf(address(this)) */\n      0x04\n      dup3\n      add\n        /* \"#utility.yul\":1509:1560   */\n      mstore\n        /* \"contracts/tauqeer.sol\":20683:20684  0 */\n      0x00\n      swap1\n      sub(shl(0xa0, 0x01), 0x01)\n        /* \"contracts/tauqeer.sol\":20639:20665  IERC20(_address).balanceOf */\n      dup4\n      and\n      swap1\n      0x70a08231\n      swap1\n        /* \"#utility.yul\":1482:1500   */\n      0x24\n      add\n        /* \"contracts/tauqeer.sol\":20639:20680  IERC20(_address).balanceOf(address(this)) */\n      0x20\n      mload(0x40)\n      dup1\n      dup4\n      sub\n      dup2\n      dup7\n      gas\n      staticcall\n      iszero\n      dup1\n      iszero\n      tag_325\n      jumpi\n      returndatasize\n      0x00\n      dup1\n      returndatacopy\n      revert(0x00, returndatasize)\n    tag_325:\n      pop\n      pop\n      pop\n      pop\n      mload(0x40)\n      returndatasize\n      not(0x1f)\n      0x1f\n      dup3\n      add\n      and\n      dup3\n      add\n      dup1\n      0x40\n      mstore\n      pop\n      dup2\n      add\n      swap1\n      tag_326\n      swap2\n      swap1\n      tag_327\n      jump\t// in\n    tag_326:\n        /* \"contracts/tauqeer.sol\":20639:20684  IERC20(_address).balanceOf(address(this)) > 0 */\n      gt\n        /* \"contracts/tauqeer.sol\":20631:20705  require(IERC20(_address).balanceOf(address(this)) > 0, \"Can't withdraw 0\") */\n      tag_328\n      jumpi\n      mload(0x40)\n      shl(0xe5, 0x461bcd)\n      dup2\n      mstore\n        /* \"#utility.yul\":6667:6669   */\n      0x20\n        /* \"contracts/tauqeer.sol\":20631:20705  require(IERC20(_address).balanceOf(address(this)) > 0, \"Can't withdraw 0\") */\n      0x04\n      dup3\n      add\n        /* \"#utility.yul\":6649:6670   */\n      mstore\n        /* \"#utility.yul\":6706:6708   */\n      0x10\n        /* \"#utility.yul\":6686:6704   */\n      0x24\n      dup3\n      add\n        /* \"#utility.yul\":6679:6709   */\n      mstore\n      shl(0x84, 0x043616e2774207769746864726177203)\n        /* \"#utility.yul\":6725:6743   */\n      0x44\n      dup3\n      add\n        /* \"#utility.yul\":6718:6764   */\n      mstore\n        /* \"#utility.yul\":6781:6799   */\n      0x64\n      add\n        /* \"contracts/tauqeer.sol\":20631:20705  require(IERC20(_address).balanceOf(address(this)) > 0, \"Can't withdraw 0\") */\n      tag_222\n        /* \"#utility.yul\":6465:6805   */\n      jump\n        /* \"contracts/tauqeer.sol\":20631:20705  require(IERC20(_address).balanceOf(address(this)) > 0, \"Can't withdraw 0\") */\n    tag_328:\n        /* \"contracts/tauqeer.sol\":20725:20733  _address */\n      dup1\n      sub(shl(0xa0, 0x01), 0x01)\n        /* \"contracts/tauqeer.sol\":20718:20743  IERC20(_address).transfer */\n      and\n      0xa9059cbb\n        /* \"contracts/tauqeer.sol\":20744:20751  owner() */\n      tag_331\n        /* \"contracts/tauqeer.sol\":1422:1429  address */\n      0x00\n        /* \"contracts/tauqeer.sol\":1449:1455  _owner */\n      sload\n      sub(shl(0xa0, 0x01), 0x01)\n      and\n      swap1\n        /* \"contracts/tauqeer.sol\":1384:1463  function owner() public view returns (address) {... */\n      jump\n        /* \"contracts/tauqeer.sol\":20744:20751  owner() */\n    tag_331:\n        /* \"contracts/tauqeer.sol\":20753:20794  IERC20(_address).balanceOf(address(this)) */\n      mload(0x40)\n      shl(0xe0, 0x70a08231)\n      dup2\n      mstore\n        /* \"contracts/tauqeer.sol\":20788:20792  this */\n      address\n        /* \"contracts/tauqeer.sol\":20753:20794  IERC20(_address).balanceOf(address(this)) */\n      0x04\n      dup3\n      add\n        /* \"#utility.yul\":1509:1560   */\n      mstore\n      sub(shl(0xa0, 0x01), 0x01)\n        /* \"contracts/tauqeer.sol\":20753:20779  IERC20(_address).balanceOf */\n      dup6\n      and\n      swap1\n      0x70a08231\n      swap1\n        /* \"#utility.yul\":1482:1500   */\n      0x24\n      add\n        /* \"contracts/tauqeer.sol\":20753:20794  IERC20(_address).balanceOf(address(this)) */\n      0x20\n      mload(0x40)\n      dup1\n      dup4\n      sub\n      dup2\n      dup7\n      gas\n      staticcall\n      iszero\n      dup1\n      iszero\n      tag_334\n      jumpi\n      returndatasize\n      0x00\n      dup1\n      returndatacopy\n      revert(0x00, returndatasize)\n    tag_334:\n      pop\n      pop\n      pop\n      pop\n      mload(0x40)\n      returndatasize\n      not(0x1f)\n      0x1f\n      dup3\n      add\n      and\n      dup3\n      add\n      dup1\n      0x40\n      mstore\n      pop\n      dup2\n      add\n      swap1\n      tag_335\n      swap2\n      swap1\n      tag_327\n      jump\t// in\n    tag_335:\n        /* \"contracts/tauqeer.sol\":20718:20795  IERC20(_address).transfer(owner(), IERC20(_address).balanceOf(address(this))) */\n      mload(0x40)\n      not(sub(shl(0xe0, 0x01), 0x01))\n      0xe0\n      dup6\n      swap1\n      shl\n      and\n      dup2\n      mstore\n      sub(shl(0xa0, 0x01), 0x01)\n        /* \"#utility.yul\":7002:7034   */\n      swap1\n      swap3\n      and\n        /* \"contracts/tauqeer.sol\":20718:20795  IERC20(_address).transfer(owner(), IERC20(_address).balanceOf(address(this))) */\n      0x04\n      dup4\n      add\n        /* \"#utility.yul\":6984:7035   */\n      mstore\n        /* \"#utility.yul\":7051:7069   */\n      0x24\n      dup3\n      add\n        /* \"#utility.yul\":7044:7078   */\n      mstore\n        /* \"#utility.yul\":6957:6975   */\n      0x44\n      add\n        /* \"contracts/tauqeer.sol\":20718:20795  IERC20(_address).transfer(owner(), IERC20(_address).balanceOf(address(this))) */\n      0x20\n      mload(0x40)\n      dup1\n      dup4\n      sub\n      dup2\n      0x00\n      dup8\n      gas\n      call\n      iszero\n      dup1\n      iszero\n      tag_339\n      jumpi\n      returndatasize\n      0x00\n      dup1\n      returndatacopy\n      revert(0x00, returndatasize)\n    tag_339:\n      pop\n      pop\n      pop\n      pop\n      mload(0x40)\n      returndatasize\n      not(0x1f)\n      0x1f\n      dup3\n      add\n      and\n      dup3\n      add\n      dup1\n      0x40\n      mstore\n      pop\n      dup2\n      add\n      swap1\n      tag_340\n      swap2\n      swap1\n      tag_341\n      jump\t// in\n    tag_340:\n      pop\n        /* \"contracts/tauqeer.sol\":20464:20803  function removeStuckToken(address _address) external onlyOwner {... */\n      pop\n      jump\t// out\n        /* \"contracts/tauqeer.sol\":15661:15773  function includeInFee(address account) external onlyOwner {... */\n    tag_210:\n        /* \"contracts/tauqeer.sol\":1596:1602  _owner */\n      and(sub(shl(0xa0, 0x01), 0x01), sload(0x00))\n        /* \"contracts/tauqeer.sol\":893:903  msg.sender */\n      caller\n        /* \"contracts/tauqeer.sol\":1596:1618  _owner == _msgSender() */\n      eq\n        /* \"contracts/tauqeer.sol\":1588:1656  require(_owner == _msgSender() , \"Ownable: caller is not the owner\") */\n      tag_344\n      jumpi\n      mload(0x40)\n      shl(0xe5, 0x461bcd)\n      dup2\n      mstore\n      0x04\n      add\n      tag_222\n      swap1\n      tag_223\n      jump\t// in\n    tag_344:\n      sub(shl(0xa0, 0x01), 0x01)\n        /* \"contracts/tauqeer.sol\":15730:15757  _isExcludedFromFee[account] */\n      and\n        /* \"contracts/tauqeer.sol\":15760:15765  false */\n      0x00\n        /* \"contracts/tauqeer.sol\":15730:15757  _isExcludedFromFee[account] */\n      swap1\n      dup2\n      mstore\n        /* \"contracts/tauqeer.sol\":15730:15748  _isExcludedFromFee */\n      0x06\n        /* \"contracts/tauqeer.sol\":15730:15757  _isExcludedFromFee[account] */\n      0x20\n      mstore\n      0x40\n      swap1\n      keccak256\n        /* \"contracts/tauqeer.sol\":15730:15765  _isExcludedFromFee[account] = false */\n      dup1\n      sload\n      not(0xff)\n      and\n      swap1\n      sstore\n        /* \"contracts/tauqeer.sol\":15661:15773  function includeInFee(address account) external onlyOwner {... */\n      jump\t// out\n        /* \"contracts/tauqeer.sol\":2330:2574  function transferOwnership(address newOwner) public virtual onlyOwner {... */\n    tag_214:\n        /* \"contracts/tauqeer.sol\":1596:1602  _owner */\n      and(sub(shl(0xa0, 0x01), 0x01), sload(0x00))\n        /* \"contracts/tauqeer.sol\":893:903  msg.sender */\n      caller\n        /* \"contracts/tauqeer.sol\":1596:1618  _owner == _msgSender() */\n      eq\n        /* \"contracts/tauqeer.sol\":1588:1656  require(_owner == _msgSender() , \"Ownable: caller is not the owner\") */\n      tag_349\n      jumpi\n      mload(0x40)\n      shl(0xe5, 0x461bcd)\n      dup2\n      mstore\n      0x04\n      add\n      tag_222\n      swap1\n      tag_223\n      jump\t// in\n    tag_349:\n      sub(shl(0xa0, 0x01), 0x01)\n        /* \"contracts/tauqeer.sol\":2419:2441  newOwner != address(0) */\n      dup2\n      and\n        /* \"contracts/tauqeer.sol\":2411:2484  require(newOwner != address(0), \"Ownable: new owner is the zero address\") */\n      tag_352\n      jumpi\n      mload(0x40)\n      shl(0xe5, 0x461bcd)\n      dup2\n      mstore\n        /* \"#utility.yul\":7541:7543   */\n      0x20\n        /* \"contracts/tauqeer.sol\":2411:2484  require(newOwner != address(0), \"Ownable: new owner is the zero address\") */\n      0x04\n      dup3\n      add\n        /* \"#utility.yul\":7523:7544   */\n      mstore\n        /* \"#utility.yul\":7580:7582   */\n      0x26\n        /* \"#utility.yul\":7560:7578   */\n      0x24\n      dup3\n      add\n        /* \"#utility.yul\":7553:7583   */\n      mstore\n        /* \"#utility.yul\":7619:7653   */\n      0x4f776e61626c653a206e6577206f776e657220697320746865207a65726f2061\n        /* \"#utility.yul\":7599:7617   */\n      0x44\n      dup3\n      add\n        /* \"#utility.yul\":7592:7654   */\n      mstore\n      shl(0xd0, 0x646472657373)\n        /* \"#utility.yul\":7670:7688   */\n      0x64\n      dup3\n      add\n        /* \"#utility.yul\":7663:7699   */\n      mstore\n        /* \"#utility.yul\":7716:7735   */\n      0x84\n      add\n        /* \"contracts/tauqeer.sol\":2411:2484  require(newOwner != address(0), \"Ownable: new owner is the zero address\") */\n      tag_222\n        /* \"#utility.yul\":7339:7741   */\n      jump\n        /* \"contracts/tauqeer.sol\":2411:2484  require(newOwner != address(0), \"Ownable: new owner is the zero address\") */\n    tag_352:\n        /* \"contracts/tauqeer.sol\":2521:2527  _owner */\n      0x00\n      dup1\n      sload\n        /* \"contracts/tauqeer.sol\":2500:2538  OwnershipTransferred(_owner, newOwner) */\n      mload(0x40)\n      sub(shl(0xa0, 0x01), 0x01)\n      dup1\n      dup6\n      and\n      swap4\n        /* \"contracts/tauqeer.sol\":2521:2527  _owner */\n      swap3\n      and\n      swap2\n        /* \"contracts/tauqeer.sol\":2500:2538  OwnershipTransferred(_owner, newOwner) */\n      0x8be0079c531659141344cd1fd0a4f28419497f9722a3daafe3b4186f6b6457e0\n      swap2\n      log3\n        /* \"contracts/tauqeer.sol\":2549:2555  _owner */\n      0x00\n        /* \"contracts/tauqeer.sol\":2549:2566  _owner = newOwner */\n      dup1\n      sload\n      not(sub(shl(0xa0, 0x01), 0x01))\n      and\n      sub(shl(0xa0, 0x01), 0x01)\n      swap3\n      swap1\n      swap3\n      and\n      swap2\n      swap1\n      swap2\n      or\n      swap1\n      sstore\n        /* \"contracts/tauqeer.sol\":2330:2574  function transferOwnership(address newOwner) public virtual onlyOwner {... */\n      jump\t// out\n        /* \"contracts/tauqeer.sol\":20262:20456  function withdrawStuckETH() external onlyOwner{... */\n    tag_217:\n        /* \"contracts/tauqeer.sol\":1596:1602  _owner */\n      and(sub(shl(0xa0, 0x01), 0x01), sload(0x00))\n        /* \"contracts/tauqeer.sol\":893:903  msg.sender */\n      caller\n        /* \"contracts/tauqeer.sol\":1596:1618  _owner == _msgSender() */\n      eq\n        /* \"contracts/tauqeer.sol\":1588:1656  require(_owner == _msgSender() , \"Ownable: caller is not the owner\") */\n      tag_357\n      jumpi\n      mload(0x40)\n      shl(0xe5, 0x461bcd)\n      dup2\n      mstore\n      0x04\n      add\n      tag_222\n      swap1\n      tag_223\n      jump\t// in\n    tag_357:\n        /* \"contracts/tauqeer.sol\":20352:20353  0 */\n      0x00\n        /* \"contracts/tauqeer.sol\":20328:20349  address(this).balance */\n      selfbalance\n        /* \"contracts/tauqeer.sol\":20328:20353  address(this).balance > 0 */\n      gt\n        /* \"contracts/tauqeer.sol\":20319:20389  require (address(this).balance > 0, \"Can't withdraw negative or zero\") */\n      tag_360\n      jumpi\n      mload(0x40)\n      shl(0xe5, 0x461bcd)\n      dup2\n      mstore\n        /* \"#utility.yul\":7948:7950   */\n      0x20\n        /* \"contracts/tauqeer.sol\":20319:20389  require (address(this).balance > 0, \"Can't withdraw negative or zero\") */\n      0x04\n      dup3\n      add\n        /* \"#utility.yul\":7930:7951   */\n      mstore\n        /* \"#utility.yul\":7987:7989   */\n      0x1f\n        /* \"#utility.yul\":7967:7985   */\n      0x24\n      dup3\n      add\n        /* \"#utility.yul\":7960:7990   */\n      mstore\n        /* \"#utility.yul\":8026:8059   */\n      0x43616e2774207769746864726177206e65676174697665206f72207a65726f00\n        /* \"#utility.yul\":8006:8024   */\n      0x44\n      dup3\n      add\n        /* \"#utility.yul\":7999:8060   */\n      mstore\n        /* \"#utility.yul\":8077:8095   */\n      0x64\n      add\n        /* \"contracts/tauqeer.sol\":20319:20389  require (address(this).balance > 0, \"Can't withdraw negative or zero\") */\n      tag_222\n        /* \"#utility.yul\":7746:8101   */\n      jump\n        /* \"contracts/tauqeer.sol\":20319:20389  require (address(this).balance > 0, \"Can't withdraw negative or zero\") */\n    tag_360:\n        /* \"contracts/tauqeer.sol\":1422:1429  address */\n      0x00\n        /* \"contracts/tauqeer.sol\":1449:1455  _owner */\n      dup1\n      sload\n        /* \"contracts/tauqeer.sol\":20400:20448  payable(owner()).transfer(address(this).balance) */\n      mload(0x40)\n      sub(shl(0xa0, 0x01), 0x01)\n        /* \"contracts/tauqeer.sol\":1449:1455  _owner */\n      swap1\n      swap2\n      and\n      swap2\n        /* \"contracts/tauqeer.sol\":20426:20447  address(this).balance */\n      selfbalance\n        /* \"contracts/tauqeer.sol\":20400:20448  payable(owner()).transfer(address(this).balance) */\n      dup1\n      iszero\n      0x08fc\n      mul\n      swap3\n        /* \"contracts/tauqeer.sol\":20426:20447  address(this).balance */\n      swap1\n      swap2\n        /* \"contracts/tauqeer.sol\":20400:20448  payable(owner()).transfer(address(this).balance) */\n      dup2\n        /* \"contracts/tauqeer.sol\":1422:1429  address */\n      dup2\n        /* \"contracts/tauqeer.sol\":20400:20448  payable(owner()).transfer(address(this).balance) */\n      dup2\n        /* \"contracts/tauqeer.sol\":20426:20447  address(this).balance */\n      dup6\n        /* \"contracts/tauqeer.sol\":1449:1455  _owner */\n      dup9\n        /* \"contracts/tauqeer.sol\":20400:20448  payable(owner()).transfer(address(this).balance) */\n      dup9\n      call\n      swap4\n      pop\n      pop\n      pop\n      pop\n      iszero\n      dup1\n      iszero\n      tag_365\n      jumpi\n      returndatasize\n      0x00\n      dup1\n      returndatacopy\n      revert(0x00, returndatasize)\n    tag_365:\n      pop\n        /* \"contracts/tauqeer.sol\":20262:20456  function withdrawStuckETH() external onlyOwner{... */\n      jump\t// out\n        /* \"contracts/tauqeer.sol\":19915:20254  function _approve(address towner, address spender, uint amount) internal {... */\n    tag_235:\n      sub(shl(0xa0, 0x01), 0x01)\n        /* \"contracts/tauqeer.sol\":20007:20027  towner != address(0) */\n      dup4\n      and\n        /* \"contracts/tauqeer.sol\":19999:20068  require(towner != address(0), \"BEP20: approve from the zero address\") */\n      tag_368\n      jumpi\n      mload(0x40)\n      shl(0xe5, 0x461bcd)\n      dup2\n      mstore\n        /* \"#utility.yul\":8308:8310   */\n      0x20\n        /* \"contracts/tauqeer.sol\":19999:20068  require(towner != address(0), \"BEP20: approve from the zero address\") */\n      0x04\n      dup3\n      add\n        /* \"#utility.yul\":8290:8311   */\n      mstore\n        /* \"#utility.yul\":8347:8349   */\n      0x24\n        /* \"#utility.yul\":8327:8345   */\n      dup1\n      dup3\n      add\n        /* \"#utility.yul\":8320:8350   */\n      mstore\n        /* \"#utility.yul\":8386:8420   */\n      0x42455032303a20617070726f76652066726f6d20746865207a65726f20616464\n        /* \"#utility.yul\":8366:8384   */\n      0x44\n      dup3\n      add\n        /* \"#utility.yul\":8359:8421   */\n      mstore\n      shl(0xe0, 0x72657373)\n        /* \"#utility.yul\":8437:8455   */\n      0x64\n      dup3\n      add\n        /* \"#utility.yul\":8430:8464   */\n      mstore\n        /* \"#utility.yul\":8481:8500   */\n      0x84\n      add\n        /* \"contracts/tauqeer.sol\":19999:20068  require(towner != address(0), \"BEP20: approve from the zero address\") */\n      tag_222\n        /* \"#utility.yul\":8106:8506   */\n      jump\n        /* \"contracts/tauqeer.sol\":19999:20068  require(towner != address(0), \"BEP20: approve from the zero address\") */\n    tag_368:\n      sub(shl(0xa0, 0x01), 0x01)\n        /* \"contracts/tauqeer.sol\":20087:20108  spender != address(0) */\n      dup3\n      and\n        /* \"contracts/tauqeer.sol\":20079:20147  require(spender != address(0), \"BEP20: approve to the zero address\") */\n      tag_371\n      jumpi\n      mload(0x40)\n      shl(0xe5, 0x461bcd)\n      dup2\n      mstore\n        /* \"#utility.yul\":8713:8715   */\n      0x20\n        /* \"contracts/tauqeer.sol\":20079:20147  require(spender != address(0), \"BEP20: approve to the zero address\") */\n      0x04\n      dup3\n      add\n        /* \"#utility.yul\":8695:8716   */\n      mstore\n        /* \"#utility.yul\":8752:8754   */\n      0x22\n        /* \"#utility.yul\":8732:8750   */\n      0x24\n      dup3\n      add\n        /* \"#utility.yul\":8725:8755   */\n      mstore\n        /* \"#utility.yul\":8791:8825   */\n      0x42455032303a20617070726f766520746f20746865207a65726f206164647265\n        /* \"#utility.yul\":8771:8789   */\n      0x44\n      dup3\n      add\n        /* \"#utility.yul\":8764:8826   */\n      mstore\n      shl(0xf0, 0x7373)\n        /* \"#utility.yul\":8842:8860   */\n      0x64\n      dup3\n      add\n        /* \"#utility.yul\":8835:8867   */\n      mstore\n        /* \"#utility.yul\":8884:8903   */\n      0x84\n      add\n        /* \"contracts/tauqeer.sol\":20079:20147  require(spender != address(0), \"BEP20: approve to the zero address\") */\n      tag_222\n        /* \"#utility.yul\":8511:8909   */\n      jump\n        /* \"contracts/tauqeer.sol\":20079:20147  require(spender != address(0), \"BEP20: approve to the zero address\") */\n    tag_371:\n      sub(shl(0xa0, 0x01), 0x01)\n        /* \"contracts/tauqeer.sol\":20160:20179  _allowances[towner] */\n      dup4\n      dup2\n      and\n      0x00\n      dup2\n      dup2\n      mstore\n        /* \"contracts/tauqeer.sol\":20160:20171  _allowances */\n      0x05\n        /* \"contracts/tauqeer.sol\":20160:20179  _allowances[towner] */\n      0x20\n      swap1\n      dup2\n      mstore\n      0x40\n      dup1\n      dup4\n      keccak256\n        /* \"contracts/tauqeer.sol\":20160:20188  _allowances[towner][spender] */\n      swap5\n      dup8\n      and\n      dup1\n      dup5\n      mstore\n      swap5\n      dup3\n      mstore\n      swap2\n      dup3\n      swap1\n      keccak256\n        /* \"contracts/tauqeer.sol\":20160:20197  _allowances[towner][spender] = amount */\n      dup6\n      swap1\n      sstore\n        /* \"contracts/tauqeer.sol\":20213:20246  Approval(towner, spender, amount) */\n      swap1\n      mload\n        /* \"#utility.yul\":1717:1742   */\n      dup5\n      dup2\n      mstore\n        /* \"contracts/tauqeer.sol\":20213:20246  Approval(towner, spender, amount) */\n      0x8c5be1e5ebec7d5bd14f71427d1e84f3dd0314c0f7b2291e5b200ac8c7c3b925\n      swap2\n        /* \"#utility.yul\":1690:1708   */\n      add\n        /* \"contracts/tauqeer.sol\":20213:20246  Approval(towner, spender, amount) */\n      mload(0x40)\n      dup1\n      swap2\n      sub\n      swap1\n      log3\n        /* \"contracts/tauqeer.sol\":19915:20254  function _approve(address towner, address spender, uint amount) internal {... */\n      pop\n      pop\n      pop\n      jump\t// out\n        /* \"contracts/tauqeer.sol\":16198:18630  function _transfer(address sender, address recipient, uint amount) internal{... */\n    tag_239:\n      sub(shl(0xa0, 0x01), 0x01)\n        /* \"contracts/tauqeer.sol\":16294:16314  sender != address(0) */\n      dup4\n      and\n        /* \"contracts/tauqeer.sol\":16286:16356  require(sender != address(0), \"BEP20: transfer from the zero address\") */\n      tag_376\n      jumpi\n      mload(0x40)\n      shl(0xe5, 0x461bcd)\n      dup2\n      mstore\n        /* \"#utility.yul\":9116:9118   */\n      0x20\n        /* \"contracts/tauqeer.sol\":16286:16356  require(sender != address(0), \"BEP20: transfer from the zero address\") */\n      0x04\n      dup3\n      add\n        /* \"#utility.yul\":9098:9119   */\n      mstore\n        /* \"#utility.yul\":9155:9157   */\n      0x25\n        /* \"#utility.yul\":9135:9153   */\n      0x24\n      dup3\n      add\n        /* \"#utility.yul\":9128:9158   */\n      mstore\n        /* \"#utility.yul\":9194:9228   */\n      0x42455032303a207472616e736665722066726f6d20746865207a65726f206164\n        /* \"#utility.yul\":9174:9192   */\n      0x44\n      dup3\n      add\n        /* \"#utility.yul\":9167:9229   */\n      mstore\n      shl(0xd8, 0x6472657373)\n        /* \"#utility.yul\":9245:9263   */\n      0x64\n      dup3\n      add\n        /* \"#utility.yul\":9238:9273   */\n      mstore\n        /* \"#utility.yul\":9290:9309   */\n      0x84\n      add\n        /* \"contracts/tauqeer.sol\":16286:16356  require(sender != address(0), \"BEP20: transfer from the zero address\") */\n      tag_222\n        /* \"#utility.yul\":8914:9315   */\n      jump\n        /* \"contracts/tauqeer.sol\":16286:16356  require(sender != address(0), \"BEP20: transfer from the zero address\") */\n    tag_376:\n      sub(shl(0xa0, 0x01), 0x01)\n        /* \"contracts/tauqeer.sol\":16375:16398  recipient != address(0) */\n      dup3\n      and\n        /* \"contracts/tauqeer.sol\":16367:16438  require(recipient != address(0), \"BEP20: transfer to the zero address\") */\n      tag_379\n      jumpi\n      mload(0x40)\n      shl(0xe5, 0x461bcd)\n      dup2\n      mstore\n        /* \"#utility.yul\":9522:9524   */\n      0x20\n        /* \"contracts/tauqeer.sol\":16367:16438  require(recipient != address(0), \"BEP20: transfer to the zero address\") */\n      0x04\n      dup3\n      add\n        /* \"#utility.yul\":9504:9525   */\n      mstore\n        /* \"#utility.yul\":9561:9563   */\n      0x23\n        /* \"#utility.yul\":9541:9559   */\n      0x24\n      dup3\n      add\n        /* \"#utility.yul\":9534:9564   */\n      mstore\n        /* \"#utility.yul\":9600:9634   */\n      0x42455032303a207472616e7366657220746f20746865207a65726f2061646472\n        /* \"#utility.yul\":9580:9598   */\n      0x44\n      dup3\n      add\n        /* \"#utility.yul\":9573:9635   */\n      mstore\n      shl(0xe8, 0x657373)\n        /* \"#utility.yul\":9651:9669   */\n      0x64\n      dup3\n      add\n        /* \"#utility.yul\":9644:9677   */\n      mstore\n        /* \"#utility.yul\":9694:9713   */\n      0x84\n      add\n        /* \"contracts/tauqeer.sol\":16367:16438  require(recipient != address(0), \"BEP20: transfer to the zero address\") */\n      tag_222\n        /* \"#utility.yul\":9320:9719   */\n      jump\n        /* \"contracts/tauqeer.sol\":16367:16438  require(recipient != address(0), \"BEP20: transfer to the zero address\") */\n    tag_379:\n        /* \"contracts/tauqeer.sol\":1422:1429  address */\n      0x00\n        /* \"contracts/tauqeer.sol\":1449:1455  _owner */\n      sload\n      sub(shl(0xa0, 0x01), 0x01)\n        /* \"contracts/tauqeer.sol\":16452:16469  sender != owner() */\n      dup5\n      dup2\n      and\n        /* \"contracts/tauqeer.sol\":1449:1455  _owner */\n      swap2\n      and\n        /* \"contracts/tauqeer.sol\":16452:16469  sender != owner() */\n      eq\n      iszero\n      dup1\n        /* \"contracts/tauqeer.sol\":16452:16493  sender != owner() || recipient != owner() */\n      tag_383\n      jumpi\n      pop\n        /* \"contracts/tauqeer.sol\":1422:1429  address */\n      0x00\n        /* \"contracts/tauqeer.sol\":1449:1455  _owner */\n      sload\n      sub(shl(0xa0, 0x01), 0x01)\n        /* \"contracts/tauqeer.sol\":16473:16493  recipient != owner() */\n      dup4\n      dup2\n      and\n        /* \"contracts/tauqeer.sol\":1449:1455  _owner */\n      swap2\n      and\n        /* \"contracts/tauqeer.sol\":16473:16493  recipient != owner() */\n      eq\n      iszero\n        /* \"contracts/tauqeer.sol\":16452:16493  sender != owner() || recipient != owner() */\n    tag_383:\n        /* \"contracts/tauqeer.sol\":16449:16584  if(sender != owner() || recipient != owner())... */\n      iszero\n      tag_386\n      jumpi\n        /* \"contracts/tauqeer.sol\":16527:16541  tradingEnabled */\n      and(0xff, sload(0x09))\n        /* \"contracts/tauqeer.sol\":16519:16572  require(tradingEnabled, \"Trading is not emabled yet\") */\n      tag_386\n      jumpi\n      mload(0x40)\n      shl(0xe5, 0x461bcd)\n      dup2\n      mstore\n        /* \"#utility.yul\":9926:9928   */\n      0x20\n        /* \"contracts/tauqeer.sol\":16519:16572  require(tradingEnabled, \"Trading is not emabled yet\") */\n      0x04\n      dup3\n      add\n        /* \"#utility.yul\":9908:9929   */\n      mstore\n        /* \"#utility.yul\":9965:9967   */\n      0x1a\n        /* \"#utility.yul\":9945:9963   */\n      0x24\n      dup3\n      add\n        /* \"#utility.yul\":9938:9968   */\n      mstore\n        /* \"#utility.yul\":10004:10032   */\n      0x54726164696e67206973206e6f7420656d61626c656420796574000000000000\n        /* \"#utility.yul\":9984:10002   */\n      0x44\n      dup3\n      add\n        /* \"#utility.yul\":9977:10033   */\n      mstore\n        /* \"#utility.yul\":10050:10068   */\n      0x64\n      add\n        /* \"contracts/tauqeer.sol\":16519:16572  require(tradingEnabled, \"Trading is not emabled yet\") */\n      tag_222\n        /* \"#utility.yul\":9724:10074   */\n      jump\n        /* \"contracts/tauqeer.sol\":16519:16572  require(tradingEnabled, \"Trading is not emabled yet\") */\n    tag_386:\n      sub(shl(0xa0, 0x01), 0x01)\n        /* \"contracts/tauqeer.sol\":16791:16817  _isExcludedFromFee[sender] */\n      dup4\n      and\n        /* \"contracts/tauqeer.sol\":16664:16676  bool takeFee */\n      0x00\n        /* \"contracts/tauqeer.sol\":16791:16817  _isExcludedFromFee[sender] */\n      swap1\n      dup2\n      mstore\n        /* \"contracts/tauqeer.sol\":16791:16809  _isExcludedFromFee */\n      0x06\n        /* \"contracts/tauqeer.sol\":16791:16817  _isExcludedFromFee[sender] */\n      0x20\n      mstore\n      0x40\n      swap1\n      keccak256\n      sload\n        /* \"contracts/tauqeer.sol\":16679:16683  true */\n      0x01\n      swap1\n        /* \"contracts/tauqeer.sol\":16791:16817  _isExcludedFromFee[sender] */\n      0xff\n      and\n      dup1\n        /* \"contracts/tauqeer.sol\":16791:16850  _isExcludedFromFee[sender] || _isExcludedFromFee[recipient] */\n      tag_389\n      jumpi\n      pop\n      sub(shl(0xa0, 0x01), 0x01)\n        /* \"contracts/tauqeer.sol\":16821:16850  _isExcludedFromFee[recipient] */\n      dup4\n      and\n      0x00\n      swap1\n      dup2\n      mstore\n        /* \"contracts/tauqeer.sol\":16821:16839  _isExcludedFromFee */\n      0x06\n        /* \"contracts/tauqeer.sol\":16821:16850  _isExcludedFromFee[recipient] */\n      0x20\n      mstore\n      0x40\n      swap1\n      keccak256\n      sload\n      0xff\n      and\n        /* \"contracts/tauqeer.sol\":16791:16850  _isExcludedFromFee[sender] || _isExcludedFromFee[recipient] */\n    tag_389:\n        /* \"contracts/tauqeer.sol\":16788:16893  if(_isExcludedFromFee[sender] || _isExcludedFromFee[recipient]){... */\n      iszero\n      tag_390\n      jumpi\n      pop\n        /* \"contracts/tauqeer.sol\":16876:16881  false */\n      0x00\n        /* \"contracts/tauqeer.sol\":16788:16893  if(_isExcludedFromFee[sender] || _isExcludedFromFee[recipient]){... */\n    tag_390:\n      sub(shl(0xa0, 0x01), 0x01)\n        /* \"contracts/tauqeer.sol\":16916:16931  AMMs[recipient] */\n      dup4\n      and\n      0x00\n      swap1\n      dup2\n      mstore\n        /* \"contracts/tauqeer.sol\":16916:16920  AMMs */\n      0x07\n        /* \"contracts/tauqeer.sol\":16916:16931  AMMs[recipient] */\n      0x20\n      mstore\n      0x40\n      swap1\n      keccak256\n      sload\n      0xff\n      and\n        /* \"contracts/tauqeer.sol\":16915:16931  !AMMs[recipient] */\n      iszero\n        /* \"contracts/tauqeer.sol\":16915:16948  !AMMs[recipient] && !AMMs[sender] */\n      dup1\n      iszero\n      tag_391\n      jumpi\n      pop\n      sub(shl(0xa0, 0x01), 0x01)\n        /* \"contracts/tauqeer.sol\":16936:16948  AMMs[sender] */\n      dup5\n      and\n      0x00\n      swap1\n      dup2\n      mstore\n        /* \"contracts/tauqeer.sol\":16936:16940  AMMs */\n      0x07\n        /* \"contracts/tauqeer.sol\":16936:16948  AMMs[sender] */\n      0x20\n      mstore\n      0x40\n      swap1\n      keccak256\n      sload\n      0xff\n      and\n        /* \"contracts/tauqeer.sol\":16935:16948  !AMMs[sender] */\n      iszero\n        /* \"contracts/tauqeer.sol\":16915:16948  !AMMs[recipient] && !AMMs[sender] */\n    tag_391:\n        /* \"contracts/tauqeer.sol\":16912:17100  if(!AMMs[recipient] && !AMMs[sender])... */\n      iszero\n      tag_392\n      jumpi\n        /* \"contracts/tauqeer.sol\":16970:16981  transferFee */\n      sload(0x0c)\n        /* \"contracts/tauqeer.sol\":16960:16967  teamFee */\n      0x0d\n        /* \"contracts/tauqeer.sol\":16960:16981  teamFee = transferFee */\n      sstore\n        /* \"contracts/tauqeer.sol\":16912:17100  if(!AMMs[recipient] && !AMMs[sender])... */\n      jump(tag_396)\n    tag_392:\n      sub(shl(0xa0, 0x01), 0x01)\n        /* \"contracts/tauqeer.sol\":17001:17016  AMMs[recipient] */\n      dup4\n      and\n      0x00\n      swap1\n      dup2\n      mstore\n        /* \"contracts/tauqeer.sol\":17001:17005  AMMs */\n      0x07\n        /* \"contracts/tauqeer.sol\":17001:17016  AMMs[recipient] */\n      0x20\n      mstore\n      0x40\n      swap1\n      keccak256\n      sload\n      0xff\n      and\n        /* \"contracts/tauqeer.sol\":16998:17100  if(AMMs[recipient]) { teamFee = sellTeamFee;}... */\n      iszero\n      tag_394\n      jumpi\n        /* \"contracts/tauqeer.sol\":17030:17041  sellTeamFee */\n      sload(0x0b)\n        /* \"contracts/tauqeer.sol\":17020:17027  teamFee */\n      0x0d\n        /* \"contracts/tauqeer.sol\":17020:17041  teamFee = sellTeamFee */\n      sstore\n        /* \"contracts/tauqeer.sol\":16998:17100  if(AMMs[recipient]) { teamFee = sellTeamFee;}... */\n      jump(tag_396)\n    tag_394:\n      sub(shl(0xa0, 0x01), 0x01)\n        /* \"contracts/tauqeer.sol\":17061:17073  AMMs[sender] */\n      dup5\n      and\n      0x00\n      swap1\n      dup2\n      mstore\n        /* \"contracts/tauqeer.sol\":17061:17065  AMMs */\n      0x07\n        /* \"contracts/tauqeer.sol\":17061:17073  AMMs[sender] */\n      0x20\n      mstore\n      0x40\n      swap1\n      keccak256\n      sload\n      0xff\n      and\n        /* \"contracts/tauqeer.sol\":17058:17100  if(AMMs[sender]) { teamFee = buyTeamFee; } */\n      iszero\n      tag_396\n      jumpi\n        /* \"contracts/tauqeer.sol\":17087:17097  buyTeamFee */\n      sload(0x0a)\n        /* \"contracts/tauqeer.sol\":17077:17084  teamFee */\n      0x0d\n        /* \"contracts/tauqeer.sol\":17077:17097  teamFee = buyTeamFee */\n      sstore\n        /* \"contracts/tauqeer.sol\":17058:17100  if(AMMs[sender]) { teamFee = buyTeamFee; } */\n    tag_396:\n        /* \"contracts/tauqeer.sol\":17451:17455  this */\n      address\n        /* \"contracts/tauqeer.sol\":17402:17430  uint256 contractTokenBalance */\n      0x00\n        /* \"contracts/tauqeer.sol\":13439:13457  _balances[account] */\n      swap1\n      dup2\n      mstore\n        /* \"contracts/tauqeer.sol\":13439:13448  _balances */\n      0x04\n        /* \"contracts/tauqeer.sol\":13439:13457  _balances[account] */\n      0x20\n      mstore\n      0x40\n      swap1\n      keccak256\n      sload\n        /* \"contracts/tauqeer.sol\":17539:17568  numTokensSellToAddToLiquidity */\n      sload(0x0f)\n        /* \"contracts/tauqeer.sol\":17515:17568  contractTokenBalance >= numTokensSellToAddToLiquidity */\n      dup2\n      lt\n      dup1\n      iszero\n      swap1\n      dup2\n      swap1\n        /* \"contracts/tauqeer.sol\":17597:17650  overMinTokenBalance &&... */\n      tag_398\n      jumpi\n      pop\n        /* \"contracts/tauqeer.sol\":17634:17650  inSwapAndLiquify */\n      sload(0x0e)\n      shl(0xa0, 0x01)\n      swap1\n      div\n      0xff\n      and\n        /* \"contracts/tauqeer.sol\":17633:17650  !inSwapAndLiquify */\n      iszero\n        /* \"contracts/tauqeer.sol\":17597:17650  overMinTokenBalance &&... */\n    tag_398:\n        /* \"contracts/tauqeer.sol\":17597:17680  overMinTokenBalance &&... */\n      dup1\n      iszero\n      tag_399\n      jumpi\n      pop\n      sub(shl(0xa0, 0x01), 0x01)\n        /* \"contracts/tauqeer.sol\":17668:17680  AMMs[sender] */\n      dup7\n      and\n      0x00\n      swap1\n      dup2\n      mstore\n        /* \"contracts/tauqeer.sol\":17668:17672  AMMs */\n      0x07\n        /* \"contracts/tauqeer.sol\":17668:17680  AMMs[sender] */\n      0x20\n      mstore\n      0x40\n      swap1\n      keccak256\n      sload\n      0xff\n      and\n        /* \"contracts/tauqeer.sol\":17667:17680  !AMMs[sender] */\n      iszero\n        /* \"contracts/tauqeer.sol\":17597:17680  overMinTokenBalance &&... */\n    tag_399:\n        /* \"contracts/tauqeer.sol\":17597:17718  overMinTokenBalance &&... */\n      dup1\n      iszero\n      tag_400\n      jumpi\n      pop\n        /* \"contracts/tauqeer.sol\":17697:17718  swapAndLiquifyEnabled */\n      sload(0x0e)\n      shl(0xa8, 0x01)\n      swap1\n      div\n      0xff\n      and\n        /* \"contracts/tauqeer.sol\":17597:17718  overMinTokenBalance &&... */\n    tag_400:\n        /* \"contracts/tauqeer.sol\":17597:17742  overMinTokenBalance &&... */\n      dup1\n      iszero\n      tag_401\n      jumpi\n      pop\n        /* \"contracts/tauqeer.sol\":17735:17742  takeFee */\n      dup3\n        /* \"contracts/tauqeer.sol\":17597:17742  overMinTokenBalance &&... */\n    tag_401:\n        /* \"contracts/tauqeer.sol\":17579:17884  if (... */\n      iszero\n      tag_403\n      jumpi\n        /* \"contracts/tauqeer.sol\":17792:17821  numTokensSellToAddToLiquidity */\n      sload(0x0f)\n        /* \"contracts/tauqeer.sol\":17769:17821  contractTokenBalance = numTokensSellToAddToLiquidity */\n      swap2\n      pop\n        /* \"contracts/tauqeer.sol\":17836:17872  swapAndLiquify(contractTokenBalance) */\n      tag_403\n        /* \"contracts/tauqeer.sol\":17851:17871  contractTokenBalance */\n      dup3\n        /* \"contracts/tauqeer.sol\":17836:17850  swapAndLiquify */\n      tag_404\n        /* \"contracts/tauqeer.sol\":17836:17872  swapAndLiquify(contractTokenBalance) */\n      jump\t// in\n    tag_403:\n        /* \"contracts/tauqeer.sol\":17906:17913  takeFee */\n      dup3\n        /* \"contracts/tauqeer.sol\":17903:18614  if(takeFee)... */\n      iszero\n      tag_405\n      jumpi\n        /* \"contracts/tauqeer.sol\":17939:17956  uint256 taxAmount */\n      0x00\n        /* \"contracts/tauqeer.sol\":17983:17988  10000 */\n      0x2710\n        /* \"contracts/tauqeer.sol\":17970:17977  teamFee */\n      sload(0x0d)\n        /* \"contracts/tauqeer.sol\":17960:17966  amount */\n      dup7\n        /* \"contracts/tauqeer.sol\":17960:17978  amount * (teamFee) */\n      tag_406\n      swap2\n      swap1\n      tag_407\n      jump\t// in\n    tag_406:\n        /* \"contracts/tauqeer.sol\":17959:17989  (amount * (teamFee)) / (10000) */\n      tag_408\n      swap2\n      swap1\n      tag_409\n      jump\t// in\n    tag_408:\n        /* \"contracts/tauqeer.sol\":17939:17989  uint256 taxAmount = (amount * (teamFee)) / (10000) */\n      swap1\n      pop\n        /* \"contracts/tauqeer.sol\":18004:18021  uint256 TotalSent */\n      0x00\n        /* \"contracts/tauqeer.sol\":18024:18044  amount - (taxAmount) */\n      tag_410\n        /* \"contracts/tauqeer.sol\":17939:17989  uint256 taxAmount = (amount * (teamFee)) / (10000) */\n      dup3\n        /* \"contracts/tauqeer.sol\":18024:18030  amount */\n      dup8\n        /* \"contracts/tauqeer.sol\":18024:18044  amount - (taxAmount) */\n      tag_244\n      jump\t// in\n    tag_410:\n      sub(shl(0xa0, 0x01), 0x01)\n        /* \"contracts/tauqeer.sol\":18079:18096  _balances[sender] */\n      dup10\n      and\n      0x00\n      swap1\n      dup2\n      mstore\n        /* \"contracts/tauqeer.sol\":18079:18088  _balances */\n      0x04\n        /* \"contracts/tauqeer.sol\":18079:18096  _balances[sender] */\n      0x20\n      mstore\n      0x40\n      swap1\n      keccak256\n      sload\n        /* \"contracts/tauqeer.sol\":18004:18044  uint256 TotalSent = amount - (taxAmount) */\n      swap1\n      swap2\n      pop\n        /* \"contracts/tauqeer.sol\":18079:18107  _balances[sender] - (amount) */\n      tag_411\n      swap1\n        /* \"contracts/tauqeer.sol\":18100:18106  amount */\n      dup8\n      swap1\n        /* \"contracts/tauqeer.sol\":18079:18107  _balances[sender] - (amount) */\n      tag_244\n      jump\t// in\n    tag_411:\n      sub(shl(0xa0, 0x01), 0x01)\n        /* \"contracts/tauqeer.sol\":18059:18076  _balances[sender] */\n      dup1\n      dup11\n      and\n      0x00\n      swap1\n      dup2\n      mstore\n        /* \"contracts/tauqeer.sol\":18059:18068  _balances */\n      0x04\n        /* \"contracts/tauqeer.sol\":18059:18076  _balances[sender] */\n      0x20\n      mstore\n      0x40\n      dup1\n      dup3\n      keccak256\n        /* \"contracts/tauqeer.sol\":18059:18107  _balances[sender] = _balances[sender] - (amount) */\n      swap4\n      swap1\n      swap4\n      sstore\n        /* \"contracts/tauqeer.sol\":18145:18165  _balances[recipient] */\n      swap1\n      dup10\n      and\n      dup2\n      mstore\n      keccak256\n      sload\n        /* \"contracts/tauqeer.sol\":18145:18179  _balances[recipient] + (TotalSent) */\n      tag_412\n      swap1\n        /* \"contracts/tauqeer.sol\":18169:18178  TotalSent */\n      dup3\n      swap1\n        /* \"contracts/tauqeer.sol\":18145:18179  _balances[recipient] + (TotalSent) */\n      tag_251\n      jump\t// in\n    tag_412:\n      sub(shl(0xa0, 0x01), 0x01)\n        /* \"contracts/tauqeer.sol\":18122:18142  _balances[recipient] */\n      dup9\n      and\n      0x00\n      swap1\n      dup2\n      mstore\n        /* \"contracts/tauqeer.sol\":18122:18131  _balances */\n      0x04\n        /* \"contracts/tauqeer.sol\":18122:18142  _balances[recipient] */\n      0x20\n      mstore\n      0x40\n      dup1\n      dup3\n      keccak256\n        /* \"contracts/tauqeer.sol\":18122:18179  _balances[recipient] = _balances[recipient] + (TotalSent) */\n      swap3\n      swap1\n      swap3\n      sstore\n        /* \"contracts/tauqeer.sol\":18239:18243  this */\n      address\n        /* \"contracts/tauqeer.sol\":18221:18245  _balances[address(this)] */\n      dup2\n      mstore\n      keccak256\n      sload\n        /* \"contracts/tauqeer.sol\":18221:18259  _balances[address(this)] + (taxAmount) */\n      tag_413\n      swap1\n        /* \"contracts/tauqeer.sol\":18249:18258  taxAmount */\n      dup4\n      swap1\n        /* \"contracts/tauqeer.sol\":18221:18259  _balances[address(this)] + (taxAmount) */\n      tag_251\n      jump\t// in\n    tag_413:\n        /* \"contracts/tauqeer.sol\":18212:18216  this */\n      address\n        /* \"contracts/tauqeer.sol\":18194:18218  _balances[address(this)] */\n      0x00\n      swap1\n      dup2\n      mstore\n        /* \"contracts/tauqeer.sol\":18194:18203  _balances */\n      0x04\n        /* \"contracts/tauqeer.sol\":18194:18218  _balances[address(this)] */\n      0x20\n      swap1\n      dup2\n      mstore\n      0x40\n      swap2\n      dup3\n      swap1\n      keccak256\n        /* \"contracts/tauqeer.sol\":18194:18259  _balances[address(this)] = _balances[address(this)] + (taxAmount) */\n      swap3\n      swap1\n      swap3\n      sstore\n        /* \"contracts/tauqeer.sol\":18279:18317  Transfer(sender, recipient, TotalSent) */\n      mload\n        /* \"#utility.yul\":1717:1742   */\n      dup3\n      dup2\n      mstore\n      sub(shl(0xa0, 0x01), 0x01)\n        /* \"contracts/tauqeer.sol\":18279:18317  Transfer(sender, recipient, TotalSent) */\n      dup10\n      dup2\n      and\n      swap3\n      swap1\n      dup12\n      and\n      swap2\n      0xddf252ad1be2c89b69c2b068fc378daa952ba7f163c4a11628f55a4df523b3ef\n      swap2\n        /* \"#utility.yul\":1690:1708   */\n      add\n        /* \"contracts/tauqeer.sol\":18279:18317  Transfer(sender, recipient, TotalSent) */\n      mload(0x40)\n      dup1\n      swap2\n      sub\n      swap1\n      log3\n        /* \"contracts/tauqeer.sol\":18337:18379  Transfer(sender, address(this), taxAmount) */\n      mload(0x40)\n        /* \"#utility.yul\":1717:1742   */\n      dup3\n      dup2\n      mstore\n        /* \"contracts/tauqeer.sol\":18362:18366  this */\n      address\n      swap1\n      sub(shl(0xa0, 0x01), 0x01)\n        /* \"contracts/tauqeer.sol\":18337:18379  Transfer(sender, address(this), taxAmount) */\n      dup11\n      and\n      swap1\n      0xddf252ad1be2c89b69c2b068fc378daa952ba7f163c4a11628f55a4df523b3ef\n      swap1\n        /* \"#utility.yul\":1705:1707   */\n      0x20\n        /* \"#utility.yul\":1690:1708   */\n      add\n        /* \"contracts/tauqeer.sol\":18337:18379  Transfer(sender, address(this), taxAmount) */\n      mload(0x40)\n      dup1\n      swap2\n      sub\n      swap1\n      log3\n        /* \"contracts/tauqeer.sol\":17924:18391  {... */\n      pop\n      pop\n        /* \"contracts/tauqeer.sol\":17903:18614  if(takeFee)... */\n      jump(tag_416)\n    tag_405:\n      sub(shl(0xa0, 0x01), 0x01)\n        /* \"contracts/tauqeer.sol\":18450:18467  _balances[sender] */\n      dup7\n      and\n      0x00\n      swap1\n      dup2\n      mstore\n        /* \"contracts/tauqeer.sol\":18450:18459  _balances */\n      0x04\n        /* \"contracts/tauqeer.sol\":18450:18467  _balances[sender] */\n      0x20\n      mstore\n      0x40\n      swap1\n      keccak256\n      sload\n        /* \"contracts/tauqeer.sol\":18450:18478  _balances[sender] - (amount) */\n      tag_417\n      swap1\n        /* \"contracts/tauqeer.sol\":18471:18477  amount */\n      dup6\n      swap1\n        /* \"contracts/tauqeer.sol\":18450:18478  _balances[sender] - (amount) */\n      tag_244\n      jump\t// in\n    tag_417:\n      sub(shl(0xa0, 0x01), 0x01)\n        /* \"contracts/tauqeer.sol\":18430:18447  _balances[sender] */\n      dup1\n      dup9\n      and\n      0x00\n      swap1\n      dup2\n      mstore\n        /* \"contracts/tauqeer.sol\":18430:18439  _balances */\n      0x04\n        /* \"contracts/tauqeer.sol\":18430:18447  _balances[sender] */\n      0x20\n      mstore\n      0x40\n      dup1\n      dup3\n      keccak256\n        /* \"contracts/tauqeer.sol\":18430:18478  _balances[sender] = _balances[sender] - (amount) */\n      swap4\n      swap1\n      swap4\n      sstore\n        /* \"contracts/tauqeer.sol\":18516:18536  _balances[recipient] */\n      swap1\n      dup8\n      and\n      dup2\n      mstore\n      keccak256\n      sload\n        /* \"contracts/tauqeer.sol\":18516:18547  _balances[recipient] + (amount) */\n      tag_418\n      swap1\n        /* \"contracts/tauqeer.sol\":18540:18546  amount */\n      dup6\n      swap1\n        /* \"contracts/tauqeer.sol\":18516:18547  _balances[recipient] + (amount) */\n      tag_251\n      jump\t// in\n    tag_418:\n      sub(shl(0xa0, 0x01), 0x01)\n        /* \"contracts/tauqeer.sol\":18493:18513  _balances[recipient] */\n      dup1\n      dup8\n      and\n      0x00\n      dup2\n      dup2\n      mstore\n        /* \"contracts/tauqeer.sol\":18493:18502  _balances */\n      0x04\n        /* \"contracts/tauqeer.sol\":18493:18513  _balances[recipient] */\n      0x20\n      mstore\n      0x40\n      swap1\n      dup2\n      swap1\n      keccak256\n        /* \"contracts/tauqeer.sol\":18493:18547  _balances[recipient] = _balances[recipient] + (amount) */\n      swap4\n      swap1\n      swap4\n      sstore\n        /* \"contracts/tauqeer.sol\":18567:18602  Transfer(sender, recipient, amount) */\n      swap2\n      mload\n      swap1\n      dup9\n      and\n      swap1\n      0xddf252ad1be2c89b69c2b068fc378daa952ba7f163c4a11628f55a4df523b3ef\n      swap1\n      tag_419\n      swap1\n        /* \"contracts/tauqeer.sol\":18595:18601  amount */\n      dup9\n        /* \"#utility.yul\":1717:1742   */\n      dup2\n      mstore\n        /* \"#utility.yul\":1705:1707   */\n      0x20\n        /* \"#utility.yul\":1690:1708   */\n      add\n      swap1\n        /* \"#utility.yul\":1571:1748   */\n      jump\n        /* \"contracts/tauqeer.sol\":18567:18602  Transfer(sender, recipient, amount) */\n    tag_419:\n      mload(0x40)\n      dup1\n      swap2\n      sub\n      swap1\n      log3\n        /* \"contracts/tauqeer.sol\":17903:18614  if(takeFee)... */\n    tag_416:\n        /* \"contracts/tauqeer.sol\":16273:18630  {... */\n      pop\n      pop\n      pop\n        /* \"contracts/tauqeer.sol\":16198:18630  function _transfer(address sender, address recipient, uint amount) internal{... */\n      pop\n      pop\n      pop\n      jump\t// out\n        /* \"contracts/tauqeer.sol\":18640:19303  function swapAndLiquify(uint256 tokensToLiquify) private {... */\n    tag_404:\n        /* \"contracts/tauqeer.sol\":18793:18809  new address[](2) */\n      0x40\n      dup1\n      mload\n        /* \"contracts/tauqeer.sol\":18807:18808  2 */\n      0x02\n        /* \"contracts/tauqeer.sol\":18793:18809  new address[](2) */\n      dup1\n      dup3\n      mstore\n      0x60\n      dup3\n      add\n      dup4\n      mstore\n        /* \"contracts/tauqeer.sol\":18741:18756  tokensToLiquify */\n      dup4\n      swap3\n        /* \"contracts/tauqeer.sol\":18718:18738  uint256 amountToSwap */\n      0x00\n      swap3\n        /* \"contracts/tauqeer.sol\":18793:18809  new address[](2) */\n      swap2\n        /* \"contracts/tauqeer.sol\":18807:18808  2 */\n      swap1\n        /* \"contracts/tauqeer.sol\":18793:18809  new address[](2) */\n      0x20\n      dup4\n      add\n      swap1\n      dup1\n      calldatasize\n      dup4\n      calldatacopy\n      add\n      swap1\n      pop\n      pop\n        /* \"contracts/tauqeer.sol\":18769:18809  address[] memory path = new address[](2) */\n      swap1\n      pop\n        /* \"contracts/tauqeer.sol\":18838:18842  this */\n      address\n        /* \"contracts/tauqeer.sol\":18820:18824  path */\n      dup2\n        /* \"contracts/tauqeer.sol\":18825:18826  0 */\n      0x00\n        /* \"contracts/tauqeer.sol\":18820:18827  path[0] */\n      dup2\n      mload\n      dup2\n      lt\n      tag_426\n      jumpi\n      tag_426\n      tag_427\n      jump\t// in\n    tag_426:\n      0x20\n      mul\n      0x20\n      add\n      add\n        /* \"contracts/tauqeer.sol\":18820:18843  path[0] = address(this) */\n      swap1\n      sub(shl(0xa0, 0x01), 0x01)\n      and\n      swap1\n      dup2\n      sub(shl(0xa0, 0x01), 0x01)\n      and\n      dup2\n      mstore\n      pop\n      pop\n        /* \"contracts/tauqeer.sol\":18864:18879  uniswapV2Router */\n      immutable(\"0xd12d39d4aaf0e4952cb4988b78e6d320de21ef25f14bde9c25e87cebeb92336d\")\n      sub(shl(0xa0, 0x01), 0x01)\n        /* \"contracts/tauqeer.sol\":18864:18884  uniswapV2Router.WETH */\n      and\n      0xad5c4648\n        /* \"contracts/tauqeer.sol\":18864:18886  uniswapV2Router.WETH() */\n      mload(0x40)\n      dup2\n      0xffffffff\n      and\n      0xe0\n      shl\n      dup2\n      mstore\n      0x04\n      add\n      0x20\n      mload(0x40)\n      dup1\n      dup4\n      sub\n      dup2\n      dup7\n      gas\n      staticcall\n      iszero\n      dup1\n      iszero\n      tag_429\n      jumpi\n      returndatasize\n      0x00\n      dup1\n      returndatacopy\n      revert(0x00, returndatasize)\n    tag_429:\n      pop\n      pop\n      pop\n      pop\n      mload(0x40)\n      returndatasize\n      not(0x1f)\n      0x1f\n      dup3\n      add\n      and\n      dup3\n      add\n      dup1\n      0x40\n      mstore\n      pop\n      dup2\n      add\n      swap1\n      tag_430\n      swap2\n      swap1\n      tag_431\n      jump\t// in\n    tag_430:\n        /* \"contracts/tauqeer.sol\":18854:18858  path */\n      dup2\n        /* \"contracts/tauqeer.sol\":18859:18860  1 */\n      0x01\n        /* \"contracts/tauqeer.sol\":18854:18861  path[1] */\n      dup2\n      mload\n      dup2\n      lt\n      tag_433\n      jumpi\n      tag_433\n      tag_427\n      jump\t// in\n    tag_433:\n      0x20\n      mul\n      0x20\n      add\n      add\n        /* \"contracts/tauqeer.sol\":18854:18886  path[1] = uniswapV2Router.WETH() */\n      swap1\n      sub(shl(0xa0, 0x01), 0x01)\n      and\n      swap1\n      dup2\n      sub(shl(0xa0, 0x01), 0x01)\n      and\n      dup2\n      mstore\n      pop\n      pop\n        /* \"contracts/tauqeer.sol\":18899:18965  _approve(address(this), address(uniswapV2Router), tokensToLiquify) */\n      tag_434\n        /* \"contracts/tauqeer.sol\":18916:18920  this */\n      address\n        /* \"contracts/tauqeer.sol\":18931:18946  uniswapV2Router */\n      immutable(\"0xd12d39d4aaf0e4952cb4988b78e6d320de21ef25f14bde9c25e87cebeb92336d\")\n        /* \"contracts/tauqeer.sol\":18949:18964  tokensToLiquify */\n      dup6\n        /* \"contracts/tauqeer.sol\":18899:18907  _approve */\n      tag_235\n        /* \"contracts/tauqeer.sol\":18899:18965  _approve(address(this), address(uniswapV2Router), tokensToLiquify) */\n      jump\t// in\n    tag_434:\n        /* \"contracts/tauqeer.sol\":18976:19173  uniswapV2Router.swapExactTokensForETHSupportingFeeOnTransferTokens(... */\n      mload(0x40)\n      shl(0xe0, 0x791ac947)\n      dup2\n      mstore\n      sub(shl(0xa0, 0x01), 0x01)\n        /* \"contracts/tauqeer.sol\":18976:18991  uniswapV2Router */\n      immutable(\"0xd12d39d4aaf0e4952cb4988b78e6d320de21ef25f14bde9c25e87cebeb92336d\")\n        /* \"contracts/tauqeer.sol\":18976:19042  uniswapV2Router.swapExactTokensForETHSupportingFeeOnTransferTokens */\n      and\n      swap1\n      0x791ac947\n      swap1\n        /* \"contracts/tauqeer.sol\":18976:19173  uniswapV2Router.swapExactTokensForETHSupportingFeeOnTransferTokens(... */\n      tag_435\n      swap1\n        /* \"contracts/tauqeer.sol\":19057:19069  amountToSwap */\n      dup6\n      swap1\n        /* \"contracts/tauqeer.sol\":19084:19085  0 */\n      0x00\n      swap1\n        /* \"contracts/tauqeer.sol\":19100:19104  path */\n      dup7\n      swap1\n        /* \"contracts/tauqeer.sol\":19127:19131  this */\n      address\n      swap1\n        /* \"contracts/tauqeer.sol\":19147:19162  block.timestamp */\n      timestamp\n      swap1\n        /* \"contracts/tauqeer.sol\":18976:19173  uniswapV2Router.swapExactTokensForETHSupportingFeeOnTransferTokens(... */\n      0x04\n      add\n      tag_436\n      jump\t// in\n    tag_435:\n      0x00\n      mload(0x40)\n      dup1\n      dup4\n      sub\n      dup2\n      0x00\n      dup8\n      dup1\n      extcodesize\n      iszero\n      dup1\n      iszero\n      tag_437\n      jumpi\n      0x00\n      dup1\n      revert\n    tag_437:\n      pop\n      gas\n      call\n      iszero\n      dup1\n      iszero\n      tag_439\n      jumpi\n      returndatasize\n      0x00\n      dup1\n      returndatacopy\n      revert(0x00, returndatasize)\n    tag_439:\n      pop\n      pop\n        /* \"contracts/tauqeer.sol\":19253:19264  teamAddress */\n      sload(0x0e)\n        /* \"contracts/tauqeer.sol\":19245:19286  payable(teamAddress).transfer(ethBalance) */\n      mload(0x40)\n        /* \"contracts/tauqeer.sol\":19207:19228  address(this).balance */\n      selfbalance\n      swap4\n      pop\n      sub(shl(0xa0, 0x01), 0x01)\n        /* \"contracts/tauqeer.sol\":19253:19264  teamAddress */\n      swap1\n      swap2\n      and\n      swap2\n      pop\n        /* \"contracts/tauqeer.sol\":19245:19286  payable(teamAddress).transfer(ethBalance) */\n      dup3\n      iszero\n      0x08fc\n      mul\n      swap1\n        /* \"contracts/tauqeer.sol\":19207:19228  address(this).balance */\n      dup4\n      swap1\n        /* \"contracts/tauqeer.sol\":19186:19204  uint256 ethBalance */\n      0x00\n        /* \"contracts/tauqeer.sol\":19245:19286  payable(teamAddress).transfer(ethBalance) */\n      dup2\n        /* \"contracts/tauqeer.sol\":19186:19204  uint256 ethBalance */\n      dup2\n        /* \"contracts/tauqeer.sol\":19245:19286  payable(teamAddress).transfer(ethBalance) */\n      dup2\n        /* \"contracts/tauqeer.sol\":19207:19228  address(this).balance */\n      dup6\n        /* \"contracts/tauqeer.sol\":19253:19264  teamAddress */\n      dup9\n        /* \"contracts/tauqeer.sol\":19245:19286  payable(teamAddress).transfer(ethBalance) */\n      dup9\n      call\n      swap4\n      pop\n      pop\n      pop\n      pop\n      iszero\n      dup1\n      iszero\n      tag_441\n      jumpi\n      returndatasize\n      0x00\n      dup1\n      returndatacopy\n      revert(0x00, returndatasize)\n    tag_441:\n      pop\n        /* \"contracts/tauqeer.sol\":18697:19303  {... */\n      pop\n      pop\n      pop\n        /* \"contracts/tauqeer.sol\":18640:19303  function swapAndLiquify(uint256 tokensToLiquify) private {... */\n      pop\n      jump\t// out\n        /* \"#utility.yul\":14:145   */\n    tag_442:\n      sub(shl(0xa0, 0x01), 0x01)\n        /* \"#utility.yul\":89:120   */\n      dup2\n      and\n        /* \"#utility.yul\":79:121   */\n      dup2\n      eq\n        /* \"#utility.yul\":69:139   */\n      tag_365\n      jumpi\n        /* \"#utility.yul\":135:136   */\n      0x00\n        /* \"#utility.yul\":132:133   */\n      dup1\n        /* \"#utility.yul\":125:137   */\n      revert\n        /* \"#utility.yul\":150:397   */\n    tag_52:\n        /* \"#utility.yul\":209:215   */\n      0x00\n        /* \"#utility.yul\":262:264   */\n      0x20\n        /* \"#utility.yul\":250:259   */\n      dup3\n        /* \"#utility.yul\":241:248   */\n      dup5\n        /* \"#utility.yul\":237:260   */\n      sub\n        /* \"#utility.yul\":233:265   */\n      slt\n        /* \"#utility.yul\":230:282   */\n      iszero\n      tag_449\n      jumpi\n        /* \"#utility.yul\":278:279   */\n      0x00\n        /* \"#utility.yul\":275:276   */\n      dup1\n        /* \"#utility.yul\":268:280   */\n      revert\n        /* \"#utility.yul\":230:282   */\n    tag_449:\n        /* \"#utility.yul\":317:326   */\n      dup2\n        /* \"#utility.yul\":304:327   */\n      calldataload\n        /* \"#utility.yul\":336:367   */\n      tag_450\n        /* \"#utility.yul\":361:366   */\n      dup2\n        /* \"#utility.yul\":336:367   */\n      tag_442\n      jump\t// in\n    tag_450:\n        /* \"#utility.yul\":386:391   */\n      swap4\n        /* \"#utility.yul\":150:397   */\n      swap3\n      pop\n      pop\n      pop\n      jump\t// out\n        /* \"#utility.yul\":402:820   */\n    tag_58:\n        /* \"#utility.yul\":551:553   */\n      0x20\n        /* \"#utility.yul\":540:549   */\n      dup2\n        /* \"#utility.yul\":533:554   */\n      mstore\n        /* \"#utility.yul\":514:518   */\n      0x00\n        /* \"#utility.yul\":583:589   */\n      dup3\n        /* \"#utility.yul\":577:590   */\n      mload\n        /* \"#utility.yul\":626:632   */\n      dup1\n        /* \"#utility.yul\":621:623   */\n      0x20\n        /* \"#utility.yul\":610:619   */\n      dup5\n        /* \"#utility.yul\":606:624   */\n      add\n        /* \"#utility.yul\":599:633   */\n      mstore\n        /* \"#utility.yul\":685:691   */\n      dup1\n        /* \"#utility.yul\":680:682   */\n      0x20\n        /* \"#utility.yul\":672:678   */\n      dup6\n        /* \"#utility.yul\":668:683   */\n      add\n        /* \"#utility.yul\":663:665   */\n      0x40\n        /* \"#utility.yul\":652:661   */\n      dup6\n        /* \"#utility.yul\":648:666   */\n      add\n        /* \"#utility.yul\":642:692   */\n      mcopy\n        /* \"#utility.yul\":741:742   */\n      0x00\n        /* \"#utility.yul\":736:738   */\n      0x40\n        /* \"#utility.yul\":727:733   */\n      dup3\n        /* \"#utility.yul\":716:725   */\n      dup6\n        /* \"#utility.yul\":712:734   */\n      add\n        /* \"#utility.yul\":708:739   */\n      add\n        /* \"#utility.yul\":701:743   */\n      mstore\n        /* \"#utility.yul\":811:813   */\n      0x40\n        /* \"#utility.yul\":804:806   */\n      0x1f\n        /* \"#utility.yul\":800:807   */\n      not\n        /* \"#utility.yul\":795:797   */\n      0x1f\n        /* \"#utility.yul\":787:793   */\n      dup4\n        /* \"#utility.yul\":783:798   */\n      add\n        /* \"#utility.yul\":779:808   */\n      and\n        /* \"#utility.yul\":768:777   */\n      dup5\n        /* \"#utility.yul\":764:809   */\n      add\n        /* \"#utility.yul\":760:814   */\n      add\n        /* \"#utility.yul\":752:814   */\n      swap2\n      pop\n      pop\n        /* \"#utility.yul\":402:820   */\n      swap3\n      swap2\n      pop\n      pop\n      jump\t// out\n        /* \"#utility.yul\":825:1140   */\n    tag_62:\n        /* \"#utility.yul\":893:899   */\n      0x00\n        /* \"#utility.yul\":901:907   */\n      dup1\n        /* \"#utility.yul\":954:956   */\n      0x40\n        /* \"#utility.yul\":942:951   */\n      dup4\n        /* \"#utility.yul\":933:940   */\n      dup6\n        /* \"#utility.yul\":929:952   */\n      sub\n        /* \"#utility.yul\":925:957   */\n      slt\n        /* \"#utility.yul\":922:974   */\n      iszero\n      tag_453\n      jumpi\n        /* \"#utility.yul\":970:971   */\n      0x00\n        /* \"#utility.yul\":967:968   */\n      dup1\n        /* \"#utility.yul\":960:972   */\n      revert\n        /* \"#utility.yul\":922:974   */\n    tag_453:\n        /* \"#utility.yul\":1009:1018   */\n      dup3\n        /* \"#utility.yul\":996:1019   */\n      calldataload\n        /* \"#utility.yul\":1028:1059   */\n      tag_454\n        /* \"#utility.yul\":1053:1058   */\n      dup2\n        /* \"#utility.yul\":1028:1059   */\n      tag_442\n      jump\t// in\n    tag_454:\n        /* \"#utility.yul\":1078:1083   */\n      swap5\n        /* \"#utility.yul\":1130:1132   */\n      0x20\n        /* \"#utility.yul\":1115:1133   */\n      swap4\n      swap1\n      swap4\n      add\n        /* \"#utility.yul\":1102:1134   */\n      calldataload\n      swap4\n      pop\n      pop\n      pop\n        /* \"#utility.yul\":825:1140   */\n      jump\t// out\n        /* \"#utility.yul\":1977:2433   */\n    tag_89:\n        /* \"#utility.yul\":2054:2060   */\n      0x00\n        /* \"#utility.yul\":2062:2068   */\n      dup1\n        /* \"#utility.yul\":2070:2076   */\n      0x00\n        /* \"#utility.yul\":2123:2125   */\n      0x60\n        /* \"#utility.yul\":2111:2120   */\n      dup5\n        /* \"#utility.yul\":2102:2109   */\n      dup7\n        /* \"#utility.yul\":2098:2121   */\n      sub\n        /* \"#utility.yul\":2094:2126   */\n      slt\n        /* \"#utility.yul\":2091:2143   */\n      iszero\n      tag_460\n      jumpi\n        /* \"#utility.yul\":2139:2140   */\n      0x00\n        /* \"#utility.yul\":2136:2137   */\n      dup1\n        /* \"#utility.yul\":2129:2141   */\n      revert\n        /* \"#utility.yul\":2091:2143   */\n    tag_460:\n        /* \"#utility.yul\":2178:2187   */\n      dup4\n        /* \"#utility.yul\":2165:2188   */\n      calldataload\n        /* \"#utility.yul\":2197:2228   */\n      tag_461\n        /* \"#utility.yul\":2222:2227   */\n      dup2\n        /* \"#utility.yul\":2197:2228   */\n      tag_442\n      jump\t// in\n    tag_461:\n        /* \"#utility.yul\":2247:2252   */\n      swap3\n      pop\n        /* \"#utility.yul\":2304:2306   */\n      0x20\n        /* \"#utility.yul\":2289:2307   */\n      dup5\n      add\n        /* \"#utility.yul\":2276:2308   */\n      calldataload\n        /* \"#utility.yul\":2317:2350   */\n      tag_462\n        /* \"#utility.yul\":2276:2308   */\n      dup2\n        /* \"#utility.yul\":2317:2350   */\n      tag_442\n      jump\t// in\n    tag_462:\n        /* \"#utility.yul\":1977:2433   */\n      swap3\n      swap6\n        /* \"#utility.yul\":2369:2376   */\n      swap3\n      swap5\n      pop\n      pop\n      pop\n        /* \"#utility.yul\":2423:2425   */\n      0x40\n        /* \"#utility.yul\":2408:2426   */\n      swap2\n      swap1\n      swap2\n      add\n        /* \"#utility.yul\":2395:2427   */\n      calldataload\n      swap1\n        /* \"#utility.yul\":1977:2433   */\n      jump\t// out\n        /* \"#utility.yul\":3095:3411   */\n    tag_144:\n        /* \"#utility.yul\":3172:3178   */\n      0x00\n        /* \"#utility.yul\":3180:3186   */\n      dup1\n        /* \"#utility.yul\":3188:3194   */\n      0x00\n        /* \"#utility.yul\":3241:3243   */\n      0x60\n        /* \"#utility.yul\":3229:3238   */\n      dup5\n        /* \"#utility.yul\":3220:3227   */\n      dup7\n        /* \"#utility.yul\":3216:3239   */\n      sub\n        /* \"#utility.yul\":3212:3244   */\n      slt\n        /* \"#utility.yul\":3209:3261   */\n      iszero\n      tag_469\n      jumpi\n        /* \"#utility.yul\":3257:3258   */\n      0x00\n        /* \"#utility.yul\":3254:3255   */\n      dup1\n        /* \"#utility.yul\":3247:3259   */\n      revert\n        /* \"#utility.yul\":3209:3261   */\n    tag_469:\n      pop\n      pop\n        /* \"#utility.yul\":3280:3303   */\n      dup2\n      calldataload\n      swap4\n        /* \"#utility.yul\":3350:3352   */\n      0x20\n        /* \"#utility.yul\":3335:3353   */\n      dup4\n      add\n        /* \"#utility.yul\":3322:3354   */\n      calldataload\n      swap4\n      pop\n        /* \"#utility.yul\":3401:3403   */\n      0x40\n        /* \"#utility.yul\":3386:3404   */\n      swap1\n      swap3\n      add\n        /* \"#utility.yul\":3373:3405   */\n      calldataload\n      swap2\n        /* \"#utility.yul\":3095:3411   */\n      swap1\n      pop\n      jump\t// out\n        /* \"#utility.yul\":3416:3534   */\n    tag_443:\n        /* \"#utility.yul\":3502:3507   */\n      dup1\n        /* \"#utility.yul\":3495:3508   */\n      iszero\n        /* \"#utility.yul\":3488:3509   */\n      iszero\n        /* \"#utility.yul\":3481:3486   */\n      dup2\n        /* \"#utility.yul\":3478:3510   */\n      eq\n        /* \"#utility.yul\":3468:3528   */\n      tag_365\n      jumpi\n        /* \"#utility.yul\":3524:3525   */\n      0x00\n        /* \"#utility.yul\":3521:3522   */\n      dup1\n        /* \"#utility.yul\":3514:3526   */\n      revert\n        /* \"#utility.yul\":3539:3780   */\n    tag_178:\n        /* \"#utility.yul\":3595:3601   */\n      0x00\n        /* \"#utility.yul\":3648:3650   */\n      0x20\n        /* \"#utility.yul\":3636:3645   */\n      dup3\n        /* \"#utility.yul\":3627:3634   */\n      dup5\n        /* \"#utility.yul\":3623:3646   */\n      sub\n        /* \"#utility.yul\":3619:3651   */\n      slt\n        /* \"#utility.yul\":3616:3668   */\n      iszero\n      tag_473\n      jumpi\n        /* \"#utility.yul\":3664:3665   */\n      0x00\n        /* \"#utility.yul\":3661:3662   */\n      dup1\n        /* \"#utility.yul\":3654:3666   */\n      revert\n        /* \"#utility.yul\":3616:3668   */\n    tag_473:\n        /* \"#utility.yul\":3703:3712   */\n      dup2\n        /* \"#utility.yul\":3690:3713   */\n      calldataload\n        /* \"#utility.yul\":3722:3750   */\n      tag_450\n        /* \"#utility.yul\":3744:3749   */\n      dup2\n        /* \"#utility.yul\":3722:3750   */\n      tag_443\n      jump\t// in\n        /* \"#utility.yul\":3785:3965   */\n    tag_183:\n        /* \"#utility.yul\":3844:3850   */\n      0x00\n        /* \"#utility.yul\":3897:3899   */\n      0x20\n        /* \"#utility.yul\":3885:3894   */\n      dup3\n        /* \"#utility.yul\":3876:3883   */\n      dup5\n        /* \"#utility.yul\":3872:3895   */\n      sub\n        /* \"#utility.yul\":3868:3900   */\n      slt\n        /* \"#utility.yul\":3865:3917   */\n      iszero\n      tag_476\n      jumpi\n        /* \"#utility.yul\":3913:3914   */\n      0x00\n        /* \"#utility.yul\":3910:3911   */\n      dup1\n        /* \"#utility.yul\":3903:3915   */\n      revert\n        /* \"#utility.yul\":3865:3917   */\n    tag_476:\n      pop\n        /* \"#utility.yul\":3936:3959   */\n      calldataload\n      swap2\n        /* \"#utility.yul\":3785:3965   */\n      swap1\n      pop\n      jump\t// out\n        /* \"#utility.yul\":3970:4358   */\n    tag_200:\n        /* \"#utility.yul\":4038:4044   */\n      0x00\n        /* \"#utility.yul\":4046:4052   */\n      dup1\n        /* \"#utility.yul\":4099:4101   */\n      0x40\n        /* \"#utility.yul\":4087:4096   */\n      dup4\n        /* \"#utility.yul\":4078:4085   */\n      dup6\n        /* \"#utility.yul\":4074:4097   */\n      sub\n        /* \"#utility.yul\":4070:4102   */\n      slt\n        /* \"#utility.yul\":4067:4119   */\n      iszero\n      tag_478\n      jumpi\n        /* \"#utility.yul\":4115:4116   */\n      0x00\n        /* \"#utility.yul\":4112:4113   */\n      dup1\n        /* \"#utility.yul\":4105:4117   */\n      revert\n        /* \"#utility.yul\":4067:4119   */\n    tag_478:\n        /* \"#utility.yul\":4154:4163   */\n      dup3\n        /* \"#utility.yul\":4141:4164   */\n      calldataload\n        /* \"#utility.yul\":4173:4204   */\n      tag_479\n        /* \"#utility.yul\":4198:4203   */\n      dup2\n        /* \"#utility.yul\":4173:4204   */\n      tag_442\n      jump\t// in\n    tag_479:\n        /* \"#utility.yul\":4223:4228   */\n      swap2\n      pop\n        /* \"#utility.yul\":4280:4282   */\n      0x20\n        /* \"#utility.yul\":4265:4283   */\n      dup4\n      add\n        /* \"#utility.yul\":4252:4284   */\n      calldataload\n        /* \"#utility.yul\":4293:4326   */\n      tag_480\n        /* \"#utility.yul\":4252:4284   */\n      dup2\n        /* \"#utility.yul\":4293:4326   */\n      tag_442\n      jump\t// in\n    tag_480:\n        /* \"#utility.yul\":4345:4352   */\n      dup1\n        /* \"#utility.yul\":4335:4352   */\n      swap2\n      pop\n      pop\n        /* \"#utility.yul\":3970:4358   */\n      swap3\n      pop\n      swap3\n      swap1\n      pop\n      jump\t// out\n        /* \"#utility.yul\":4363:4719   */\n    tag_223:\n        /* \"#utility.yul\":4565:4567   */\n      0x20\n        /* \"#utility.yul\":4547:4568   */\n      dup1\n      dup3\n      mstore\n        /* \"#utility.yul\":4584:4602   */\n      dup2\n      dup2\n      add\n        /* \"#utility.yul\":4577:4607   */\n      mstore\n        /* \"#utility.yul\":4643:4677   */\n      0x4f776e61626c653a2063616c6c6572206973206e6f7420746865206f776e6572\n        /* \"#utility.yul\":4638:4640   */\n      0x40\n        /* \"#utility.yul\":4623:4641   */\n      dup3\n      add\n        /* \"#utility.yul\":4616:4678   */\n      mstore\n        /* \"#utility.yul\":4710:4712   */\n      0x60\n        /* \"#utility.yul\":4695:4713   */\n      add\n      swap1\n        /* \"#utility.yul\":4363:4719   */\n      jump\t// out\n        /* \"#utility.yul\":4724:5104   */\n    tag_227:\n        /* \"#utility.yul\":4803:4804   */\n      0x01\n        /* \"#utility.yul\":4799:4811   */\n      dup2\n      dup2\n      shr\n      swap1\n        /* \"#utility.yul\":4846:4858   */\n      dup3\n      and\n      dup1\n        /* \"#utility.yul\":4867:4928   */\n      tag_483\n      jumpi\n        /* \"#utility.yul\":4921:4925   */\n      0x7f\n        /* \"#utility.yul\":4913:4919   */\n      dup3\n        /* \"#utility.yul\":4909:4926   */\n      and\n        /* \"#utility.yul\":4899:4926   */\n      swap2\n      pop\n        /* \"#utility.yul\":4867:4928   */\n    tag_483:\n        /* \"#utility.yul\":4974:4976   */\n      0x20\n        /* \"#utility.yul\":4966:4972   */\n      dup3\n        /* \"#utility.yul\":4963:4977   */\n      lt\n        /* \"#utility.yul\":4943:4961   */\n      dup2\n        /* \"#utility.yul\":4940:4978   */\n      sub\n        /* \"#utility.yul\":4937:5098   */\n      tag_484\n      jumpi\n        /* \"#utility.yul\":5020:5030   */\n      0x4e487b71\n        /* \"#utility.yul\":5015:5018   */\n      0xe0\n        /* \"#utility.yul\":5011:5031   */\n      shl\n        /* \"#utility.yul\":5008:5009   */\n      0x00\n        /* \"#utility.yul\":5001:5032   */\n      mstore\n        /* \"#utility.yul\":5055:5059   */\n      0x22\n        /* \"#utility.yul\":5052:5053   */\n      0x04\n        /* \"#utility.yul\":5045:5060   */\n      mstore\n        /* \"#utility.yul\":5083:5087   */\n      0x24\n        /* \"#utility.yul\":5080:5081   */\n      0x00\n        /* \"#utility.yul\":5073:5088   */\n      revert\n        /* \"#utility.yul\":4937:5098   */\n    tag_484:\n      pop\n        /* \"#utility.yul\":4724:5104   */\n      swap2\n      swap1\n      pop\n      jump\t// out\n        /* \"#utility.yul\":5109:5236   */\n    tag_444:\n        /* \"#utility.yul\":5170:5180   */\n      0x4e487b71\n        /* \"#utility.yul\":5165:5168   */\n      0xe0\n        /* \"#utility.yul\":5161:5181   */\n      shl\n        /* \"#utility.yul\":5158:5159   */\n      0x00\n        /* \"#utility.yul\":5151:5182   */\n      mstore\n        /* \"#utility.yul\":5201:5205   */\n      0x11\n        /* \"#utility.yul\":5198:5199   */\n      0x04\n        /* \"#utility.yul\":5191:5206   */\n      mstore\n        /* \"#utility.yul\":5225:5229   */\n      0x24\n        /* \"#utility.yul\":5222:5223   */\n      0x00\n        /* \"#utility.yul\":5215:5230   */\n      revert\n        /* \"#utility.yul\":5241:5369   */\n    tag_244:\n        /* \"#utility.yul\":5308:5317   */\n      dup2\n      dup2\n      sub\n        /* \"#utility.yul\":5329:5340   */\n      dup2\n      dup2\n      gt\n        /* \"#utility.yul\":5326:5363   */\n      iszero\n      tag_232\n      jumpi\n        /* \"#utility.yul\":5343:5361   */\n      tag_232\n      tag_444\n      jump\t// in\n        /* \"#utility.yul\":5374:5499   */\n    tag_251:\n        /* \"#utility.yul\":5439:5448   */\n      dup1\n      dup3\n      add\n        /* \"#utility.yul\":5460:5470   */\n      dup1\n      dup3\n      gt\n        /* \"#utility.yul\":5457:5493   */\n      iszero\n      tag_232\n      jumpi\n        /* \"#utility.yul\":5473:5491   */\n      tag_232\n      tag_444\n      jump\t// in\n        /* \"#utility.yul\":6276:6460   */\n    tag_327:\n        /* \"#utility.yul\":6346:6352   */\n      0x00\n        /* \"#utility.yul\":6399:6401   */\n      0x20\n        /* \"#utility.yul\":6387:6396   */\n      dup3\n        /* \"#utility.yul\":6378:6385   */\n      dup5\n        /* \"#utility.yul\":6374:6397   */\n      sub\n        /* \"#utility.yul\":6370:6402   */\n      slt\n        /* \"#utility.yul\":6367:6419   */\n      iszero\n      tag_495\n      jumpi\n        /* \"#utility.yul\":6415:6416   */\n      0x00\n        /* \"#utility.yul\":6412:6413   */\n      dup1\n        /* \"#utility.yul\":6405:6417   */\n      revert\n        /* \"#utility.yul\":6367:6419   */\n    tag_495:\n      pop\n        /* \"#utility.yul\":6438:6454   */\n      mload\n      swap2\n        /* \"#utility.yul\":6276:6460   */\n      swap1\n      pop\n      jump\t// out\n        /* \"#utility.yul\":7089:7334   */\n    tag_341:\n        /* \"#utility.yul\":7156:7162   */\n      0x00\n        /* \"#utility.yul\":7209:7211   */\n      0x20\n        /* \"#utility.yul\":7197:7206   */\n      dup3\n        /* \"#utility.yul\":7188:7195   */\n      dup5\n        /* \"#utility.yul\":7184:7207   */\n      sub\n        /* \"#utility.yul\":7180:7212   */\n      slt\n        /* \"#utility.yul\":7177:7229   */\n      iszero\n      tag_499\n      jumpi\n        /* \"#utility.yul\":7225:7226   */\n      0x00\n        /* \"#utility.yul\":7222:7223   */\n      dup1\n        /* \"#utility.yul\":7215:7227   */\n      revert\n        /* \"#utility.yul\":7177:7229   */\n    tag_499:\n        /* \"#utility.yul\":7257:7266   */\n      dup2\n        /* \"#utility.yul\":7251:7267   */\n      mload\n        /* \"#utility.yul\":7276:7304   */\n      tag_450\n        /* \"#utility.yul\":7298:7303   */\n      dup2\n        /* \"#utility.yul\":7276:7304   */\n      tag_443\n      jump\t// in\n        /* \"#utility.yul\":10079:10247   */\n    tag_407:\n        /* \"#utility.yul\":10152:10161   */\n      dup1\n      dup3\n      mul\n        /* \"#utility.yul\":10183:10192   */\n      dup2\n      iszero\n        /* \"#utility.yul\":10200:10215   */\n      dup3\n      dup3\n      div\n        /* \"#utility.yul\":10194:10216   */\n      dup5\n      eq\n        /* \"#utility.yul\":10180:10217   */\n      or\n        /* \"#utility.yul\":10170:10241   */\n      tag_232\n      jumpi\n        /* \"#utility.yul\":10221:10239   */\n      tag_232\n      tag_444\n      jump\t// in\n        /* \"#utility.yul\":10252:10469   */\n    tag_409:\n        /* \"#utility.yul\":10292:10293   */\n      0x00\n        /* \"#utility.yul\":10318:10319   */\n      dup3\n        /* \"#utility.yul\":10308:10440   */\n      tag_512\n      jumpi\n        /* \"#utility.yul\":10362:10372   */\n      0x4e487b71\n        /* \"#utility.yul\":10357:10360   */\n      0xe0\n        /* \"#utility.yul\":10353:10373   */\n      shl\n        /* \"#utility.yul\":10350:10351   */\n      0x00\n        /* \"#utility.yul\":10343:10374   */\n      mstore\n        /* \"#utility.yul\":10397:10401   */\n      0x12\n        /* \"#utility.yul\":10394:10395   */\n      0x04\n        /* \"#utility.yul\":10387:10402   */\n      mstore\n        /* \"#utility.yul\":10425:10429   */\n      0x24\n        /* \"#utility.yul\":10422:10423   */\n      0x00\n        /* \"#utility.yul\":10415:10430   */\n      revert\n        /* \"#utility.yul\":10308:10440   */\n    tag_512:\n      pop\n        /* \"#utility.yul\":10454:10463   */\n      div\n      swap1\n        /* \"#utility.yul\":10252:10469   */\n      jump\t// out\n        /* \"#utility.yul\":10606:10733   */\n    tag_427:\n        /* \"#utility.yul\":10667:10677   */\n      0x4e487b71\n        /* \"#utility.yul\":10662:10665   */\n      0xe0\n        /* \"#utility.yul\":10658:10678   */\n      shl\n        /* \"#utility.yul\":10655:10656   */\n      0x00\n        /* \"#utility.yul\":10648:10679   */\n      mstore\n        /* \"#utility.yul\":10698:10702   */\n      0x32\n        /* \"#utility.yul\":10695:10696   */\n      0x04\n        /* \"#utility.yul\":10688:10703   */\n      mstore\n        /* \"#utility.yul\":10722:10726   */\n      0x24\n        /* \"#utility.yul\":10719:10720   */\n      0x00\n        /* \"#utility.yul\":10712:10727   */\n      revert\n        /* \"#utility.yul\":10738:10989   */\n    tag_431:\n        /* \"#utility.yul\":10808:10814   */\n      0x00\n        /* \"#utility.yul\":10861:10863   */\n      0x20\n        /* \"#utility.yul\":10849:10858   */\n      dup3\n        /* \"#utility.yul\":10840:10847   */\n      dup5\n        /* \"#utility.yul\":10836:10859   */\n      sub\n        /* \"#utility.yul\":10832:10864   */\n      slt\n        /* \"#utility.yul\":10829:10881   */\n      iszero\n      tag_516\n      jumpi\n        /* \"#utility.yul\":10877:10878   */\n      0x00\n        /* \"#utility.yul\":10874:10875   */\n      dup1\n        /* \"#utility.yul\":10867:10879   */\n      revert\n        /* \"#utility.yul\":10829:10881   */\n    tag_516:\n        /* \"#utility.yul\":10909:10918   */\n      dup2\n        /* \"#utility.yul\":10903:10919   */\n      mload\n        /* \"#utility.yul\":10928:10959   */\n      tag_450\n        /* \"#utility.yul\":10953:10958   */\n      dup2\n        /* \"#utility.yul\":10928:10959   */\n      tag_442\n      jump\t// in\n        /* \"#utility.yul\":10994:11974   */\n    tag_436:\n        /* \"#utility.yul\":11256:11260   */\n      0x00\n        /* \"#utility.yul\":11304:11307   */\n      0xa0\n        /* \"#utility.yul\":11293:11302   */\n      dup3\n        /* \"#utility.yul\":11289:11308   */\n      add\n        /* \"#utility.yul\":11335:11341   */\n      dup8\n        /* \"#utility.yul\":11324:11333   */\n      dup4\n        /* \"#utility.yul\":11317:11342   */\n      mstore\n        /* \"#utility.yul\":11361:11363   */\n      0x20\n        /* \"#utility.yul\":11399:11405   */\n      dup8\n        /* \"#utility.yul\":11394:11396   */\n      0x20\n        /* \"#utility.yul\":11383:11392   */\n      dup6\n        /* \"#utility.yul\":11379:11397   */\n      add\n        /* \"#utility.yul\":11372:11406   */\n      mstore\n        /* \"#utility.yul\":11442:11445   */\n      0xa0\n        /* \"#utility.yul\":11437:11439   */\n      0x40\n        /* \"#utility.yul\":11426:11435   */\n      dup6\n        /* \"#utility.yul\":11422:11440   */\n      add\n        /* \"#utility.yul\":11415:11446   */\n      mstore\n        /* \"#utility.yul\":11466:11472   */\n      dup2\n        /* \"#utility.yul\":11501:11507   */\n      dup8\n        /* \"#utility.yul\":11495:11508   */\n      mload\n        /* \"#utility.yul\":11532:11538   */\n      dup1\n        /* \"#utility.yul\":11524:11530   */\n      dup5\n        /* \"#utility.yul\":11517:11539   */\n      mstore\n        /* \"#utility.yul\":11570:11573   */\n      0xc0\n        /* \"#utility.yul\":11559:11568   */\n      dup7\n        /* \"#utility.yul\":11555:11574   */\n      add\n        /* \"#utility.yul\":11548:11574   */\n      swap2\n      pop\n        /* \"#utility.yul\":11609:11611   */\n      0x20\n        /* \"#utility.yul\":11601:11607   */\n      dup10\n        /* \"#utility.yul\":11597:11612   */\n      add\n        /* \"#utility.yul\":11583:11612   */\n      swap4\n      pop\n        /* \"#utility.yul\":11630:11631   */\n      0x00\n        /* \"#utility.yul\":11640:11835   */\n    tag_519:\n        /* \"#utility.yul\":11654:11660   */\n      dup2\n        /* \"#utility.yul\":11651:11652   */\n      dup2\n        /* \"#utility.yul\":11648:11661   */\n      lt\n        /* \"#utility.yul\":11640:11835   */\n      iszero\n      tag_521\n      jumpi\n        /* \"#utility.yul\":11719:11732   */\n      dup5\n      mload\n      sub(shl(0xa0, 0x01), 0x01)\n        /* \"#utility.yul\":11715:11754   */\n      and\n        /* \"#utility.yul\":11703:11755   */\n      dup4\n      mstore\n        /* \"#utility.yul\":11810:11825   */\n      swap4\n      dup4\n      add\n      swap4\n        /* \"#utility.yul\":11775:11787   */\n      swap2\n      dup4\n      add\n      swap2\n        /* \"#utility.yul\":11751:11752   */\n      0x01\n        /* \"#utility.yul\":11669:11678   */\n      add\n        /* \"#utility.yul\":11640:11835   */\n      jump(tag_519)\n    tag_521:\n      pop\n      pop\n      sub(shl(0xa0, 0x01), 0x01)\n        /* \"#utility.yul\":11891:11923   */\n      swap7\n      swap1\n      swap7\n      and\n        /* \"#utility.yul\":11886:11888   */\n      0x60\n        /* \"#utility.yul\":11871:11889   */\n      dup6\n      add\n        /* \"#utility.yul\":11864:11924   */\n      mstore\n      pop\n      pop\n      pop\n        /* \"#utility.yul\":11955:11958   */\n      0x80\n        /* \"#utility.yul\":11940:11959   */\n      add\n        /* \"#utility.yul\":11933:11968   */\n      mstore\n        /* \"#utility.yul\":11852:11855   */\n      swap4\n        /* \"#utility.yul\":10994:11974   */\n      swap3\n      pop\n      pop\n      pop\n      jump\t// out\n\n    auxdata: 0xa26469706673582212200ddc31b287e0dbe335f3c3cd186c03635781a8aa23f285317ec12769ff86fb3d64736f6c63430008190033\n}\n",
				"bytecode": {
					"linkReferences": {},
					"object": "60c060405261010c600a819055600b556028600c555f546001600160a01b0316600e8054600161ff0160a01b0319166001600160a01b039290921691909117600160a81b1790556602aa1efb94e000600f5534801561005c575f80fd5b50604080518082018252601b81527f536d61727420696e7465726e6574206f6620657672797468696e67000000000060208083019190915282518084018452600481526353494f4560e01b918101919091525f80546001600160a01b03191633908117825593519293919260099291907f8be0079c531659141344cd1fd0a4f28419497f9722a3daafe3b4186f6b6457e0908290a360016100fd8482610443565b50600261010a8382610443565b506003805460ff191660ff9290921691909117905550506706f05b59d3b20000600881905560045f6101435f546001600160a01b031690565b6001600160a01b03166001600160a01b031681526020019081526020015f20819055505f739ac64cc6e4415144c455bd8e4837fea55603e5c39050806001600160a01b031663c45a01556040518163ffffffff1660e01b8152600401602060405180830381865afa1580156101ba573d5f803e3d5ffd5b505050506040513d601f19601f820116820180604052508101906101de9190610502565b6001600160a01b031663c9c6539630836001600160a01b031663ad5c46486040518163ffffffff1660e01b8152600401602060405180830381865afa158015610229573d5f803e3d5ffd5b505050506040513d601f19601f8201168201806040525081019061024d9190610502565b6040516001600160e01b031960e085901b1681526001600160a01b039283166004820152911660248201526044016020604051808303815f875af1158015610297573d5f803e3d5ffd5b505050506040513d601f19601f820116820180604052508101906102bb9190610502565b6001600160a01b0390811660a0528116608052600160065f6102e45f546001600160a01b031690565b6001600160a01b03908116825260208083019390935260409182015f908120805495151560ff1996871617905530815260068452828120805486166001908117909155600e5483168252838220805487168217905560a05190921681526007909352912080549092161790556103573390565b6001600160a01b03165f6001600160a01b03167fddf252ad1be2c89b69c2b068fc378daa952ba7f163c4a11628f55a4df523b3ef60085460405161039d91815260200190565b60405180910390a35061052f565b634e487b7160e01b5f52604160045260245ffd5b600181811c908216806103d357607f821691505b6020821081036103f157634e487b7160e01b5f52602260045260245ffd5b50919050565b601f82111561043e57805f5260205f20601f840160051c8101602085101561041c5750805b601f840160051c820191505b8181101561043b575f8155600101610428565b50505b505050565b81516001600160401b0381111561045c5761045c6103ab565b6104708161046a84546103bf565b846103f7565b602080601f8311600181146104a3575f841561048c5750858301515b5f19600386901b1c1916600185901b1785556104fa565b5f85815260208120601f198616915b828110156104d1578886015182559484019460019091019084016104b2565b50858210156104ee57878501515f19600388901b60f8161c191681555b505060018460011b0185555b505050505050565b5f60208284031215610512575f80fd5b81516001600160a01b0381168114610528575f80fd5b9392505050565b60805160a051611acf6105655f395f6103df01525f81816102ab015281816115db0152818161169201526116ce0152611acf5ff3fe608060405260043610610215575f3560e01c8063768dc7101161011e578063c49b9a80116100a8578063dd62ed3e1161006d578063dd62ed3e14610636578063e083e9221461067a578063ea2f0b3714610699578063f2fde38b146106b8578063f5648a4f146106d7575f80fd5b8063c49b9a80146105b9578063c57a6c44146105d8578063d12a7688146105f7578063d729715f1461060c578063d7c94efd14610621575f80fd5b806395d89b41116100ee57806395d89b411461053d5780639c2e4ac614610551578063a457c2d714610566578063a9059cbb14610585578063acb2ad6f146105a4575f80fd5b8063768dc710146104c057806389e7563d146104ee5780638a8c523c1461050d5780638da5cb5b14610521575f80fd5b8063395093511161019f5780634ada218b1161016f5780634ada218b146104215780635ec270c81461043a5780636690864e1461045957806370a0823114610478578063715018a6146104ac575f80fd5b80633950935114610390578063437823ec146103af57806349bd5a5e146103ce5780634a74bb0214610401575f80fd5b806318160ddd116101e557806318160ddd146102e55780631c75f085146103035780631e9fe6c61461032257806323b872dd14610350578063313ce5671461036f575f80fd5b806301b95e1d1461022057806306fdde0314610241578063095ea7b31461026b5780631694505e1461029a575f80fd5b3661021c57005b5f80fd5b34801561022b575f80fd5b5061023f61023a36600461178c565b6106eb565b005b34801561024c575f80fd5b50610255610740565b60405161026291906117ae565b60405180910390f35b348015610276575f80fd5b5061028a6102853660046117e3565b6107d0565b6040519015158152602001610262565b3480156102a5575f80fd5b506102cd7f000000000000000000000000000000000000000000000000000000000000000081565b6040516001600160a01b039091168152602001610262565b3480156102f0575f80fd5b506008545b604051908152602001610262565b34801561030e575f80fd5b50600e546102cd906001600160a01b031681565b34801561032d575f80fd5b5061028a61033c36600461178c565b60076020525f908152604090205460ff1681565b34801561035b575f80fd5b5061028a61036a36600461180d565b6107e6565b34801561037a575f80fd5b5060035460405160ff9091168152602001610262565b34801561039b575f80fd5b5061028a6103aa3660046117e3565b610836565b3480156103ba575f80fd5b5061023f6103c936600461178c565b61086c565b3480156103d9575f80fd5b506102cd7f000000000000000000000000000000000000000000000000000000000000000081565b34801561040c575f80fd5b50600e5461028a90600160a81b900460ff1681565b34801561042c575f80fd5b5060095461028a9060ff1681565b348015610445575f80fd5b5061023f61045436600461178c565b6108b8565b348015610464575f80fd5b5061023f61047336600461178c565b610901565b348015610483575f80fd5b506102f561049236600461178c565b6001600160a01b03165f9081526004602052604090205490565b3480156104b7575f80fd5b5061023f61094c565b3480156104cb575f80fd5b5061028a6104da36600461178c565b60066020525f908152604090205460ff1681565b3480156104f9575f80fd5b5061023f61050836600461184b565b6109bd565b348015610518575f80fd5b5061023f610a5d565b34801561052c575f80fd5b505f546001600160a01b03166102cd565b348015610548575f80fd5b50610255610a95565b34801561055c575f80fd5b506102f5600a5481565b348015610571575f80fd5b5061028a6105803660046117e3565b610aa4565b348015610590575f80fd5b5061028a61059f3660046117e3565b610ada565b3480156105af575f80fd5b506102f5600c5481565b3480156105c4575f80fd5b5061023f6105d3366004611881565b610ae6565b3480156105e3575f80fd5b5061023f6105f236600461189c565b610b67565b348015610602575f80fd5b506102f5600f5481565b348015610617575f80fd5b506102f5600b5481565b34801561062c575f80fd5b506102f5600d5481565b348015610641575f80fd5b506102f56106503660046118b3565b6001600160a01b039182165f90815260056020908152604080832093909416825291909152205490565b348015610685575f80fd5b5061023f61069436600461178c565b610b95565b3480156106a4575f80fd5b5061023f6106b336600461178c565b610dc9565b3480156106c3575f80fd5b5061023f6106d236600461178c565b610e12565b3480156106e2575f80fd5b5061023f610ef9565b5f546001600160a01b0316331461071d5760405162461bcd60e51b8152600401610714906118ea565b60405180910390fd5b6001600160a01b03165f908152600760205260409020805460ff19166001179055565b60606001805461074f9061191f565b80601f016020809104026020016040519081016040528092919081815260200182805461077b9061191f565b80156107c65780601f1061079d576101008083540402835291602001916107c6565b820191905f5260205f20905b8154815290600101906020018083116107a957829003601f168201915b5050505050905090565b5f6107dc338484610fab565b5060015b92915050565b5f6107f28484846110ce565b6001600160a01b0384165f9081526005602090815260408083203380855292529091205461082c91869161082790869061196b565b610fab565b5060019392505050565b335f8181526005602090815260408083206001600160a01b038716845290915281205490916107dc91859061082790869061197e565b5f546001600160a01b031633146108955760405162461bcd60e51b8152600401610714906118ea565b6001600160a01b03165f908152600660205260409020805460ff19166001179055565b5f546001600160a01b031633146108e15760405162461bcd60e51b8152600401610714906118ea565b6001600160a01b03165f908152600760205260409020805460ff19169055565b5f546001600160a01b0316331461092a5760405162461bcd60e51b8152600401610714906118ea565b600e80546001600160a01b0319166001600160a01b0392909216919091179055565b5f546001600160a01b031633146109755760405162461bcd60e51b8152600401610714906118ea565b5f80546040516001600160a01b03909116907f8be0079c531659141344cd1fd0a4f28419497f9722a3daafe3b4186f6b6457e0908390a35f80546001600160a01b0319169055565b5f546001600160a01b031633146109e65760405162461bcd60e51b8152600401610714906118ea565b600a838155600b839055600c82905581610a00848661197e565b610a0a919061197e565b1115610a585760405162461bcd60e51b815260206004820152601e60248201527f4665652069732063726f7373696e672074686520626f756e64617269657300006044820152606401610714565b505050565b5f546001600160a01b03163314610a865760405162461bcd60e51b8152600401610714906118ea565b6009805460ff19166001179055565b60606002805461074f9061191f565b335f8181526005602090815260408083206001600160a01b038716845290915281205490916107dc91859061082790869061196b565b5f6107dc3384846110ce565b5f546001600160a01b03163314610b0f5760405162461bcd60e51b8152600401610714906118ea565b600e8054821515600160a81b0260ff60a81b199091161790556040517f53726dfcaf90650aa7eb35524f4d3220f07413c8d6cb404cc8c18bf5591bc15990610b5c90831515815260200190565b60405180910390a150565b5f546001600160a01b03163314610b905760405162461bcd60e51b8152600401610714906118ea565b600f55565b5f546001600160a01b03163314610bbe5760405162461bcd60e51b8152600401610714906118ea565b306001600160a01b03821603610c2b5760405162461bcd60e51b815260206004820152602c60248201527f43616e277420776974686472617720746f6b656e732064657374696e6564206660448201526b6f72206c697175696469747960a01b6064820152608401610714565b6040516370a0823160e01b81523060048201525f906001600160a01b038316906370a0823190602401602060405180830381865afa158015610c6f573d5f803e3d5ffd5b505050506040513d601f19601f82011682018060405250810190610c939190611991565b11610cd35760405162461bcd60e51b815260206004820152601060248201526f043616e277420776974686472617720360841b6044820152606401610714565b806001600160a01b031663a9059cbb610cf35f546001600160a01b031690565b6040516370a0823160e01b81523060048201526001600160a01b038516906370a0823190602401602060405180830381865afa158015610d35573d5f803e3d5ffd5b505050506040513d601f19601f82011682018060405250810190610d599190611991565b6040516001600160e01b031960e085901b1681526001600160a01b03909216600483015260248201526044016020604051808303815f875af1158015610da1573d5f803e3d5ffd5b505050506040513d601f19601f82011682018060405250810190610dc591906119a8565b5050565b5f546001600160a01b03163314610df25760405162461bcd60e51b8152600401610714906118ea565b6001600160a01b03165f908152600660205260409020805460ff19169055565b5f546001600160a01b03163314610e3b5760405162461bcd60e51b8152600401610714906118ea565b6001600160a01b038116610ea05760405162461bcd60e51b815260206004820152602660248201527f4f776e61626c653a206e6577206f776e657220697320746865207a65726f206160448201526564647265737360d01b6064820152608401610714565b5f80546040516001600160a01b03808516939216917f8be0079c531659141344cd1fd0a4f28419497f9722a3daafe3b4186f6b6457e091a35f80546001600160a01b0319166001600160a01b0392909216919091179055565b5f546001600160a01b03163314610f225760405162461bcd60e51b8152600401610714906118ea565b5f4711610f715760405162461bcd60e51b815260206004820152601f60248201527f43616e2774207769746864726177206e65676174697665206f72207a65726f006044820152606401610714565b5f80546040516001600160a01b03909116914780156108fc02929091818181858888f19350505050158015610fa8573d5f803e3d5ffd5b50565b6001600160a01b03831661100d5760405162461bcd60e51b8152602060048201526024808201527f42455032303a20617070726f76652066726f6d20746865207a65726f206164646044820152637265737360e01b6064820152608401610714565b6001600160a01b03821661106e5760405162461bcd60e51b815260206004820152602260248201527f42455032303a20617070726f766520746f20746865207a65726f206164647265604482015261737360f01b6064820152608401610714565b6001600160a01b038381165f8181526005602090815260408083209487168084529482529182902085905590518481527f8c5be1e5ebec7d5bd14f71427d1e84f3dd0314c0f7b2291e5b200ac8c7c3b925910160405180910390a3505050565b6001600160a01b0383166111325760405162461bcd60e51b815260206004820152602560248201527f42455032303a207472616e736665722066726f6d20746865207a65726f206164604482015264647265737360d81b6064820152608401610714565b6001600160a01b0382166111945760405162461bcd60e51b815260206004820152602360248201527f42455032303a207472616e7366657220746f20746865207a65726f206164647260448201526265737360e81b6064820152608401610714565b5f546001600160a01b0384811691161415806111bd57505f546001600160a01b03838116911614155b156112145760095460ff166112145760405162461bcd60e51b815260206004820152601a60248201527f54726164696e67206973206e6f7420656d61626c6564207965740000000000006044820152606401610714565b6001600160a01b0383165f9081526006602052604090205460019060ff168061125457506001600160a01b0383165f9081526006602052604090205460ff165b1561125c57505f5b6001600160a01b0383165f9081526007602052604090205460ff1615801561129c57506001600160a01b0384165f9081526007602052604090205460ff16155b156112ac57600c54600d556112fe565b6001600160a01b0383165f9081526007602052604090205460ff16156112d757600b54600d556112fe565b6001600160a01b0384165f9081526007602052604090205460ff16156112fe57600a54600d555b305f90815260046020526040902054600f548110801590819061132b5750600e54600160a01b900460ff16155b801561134f57506001600160a01b0386165f9081526007602052604090205460ff16155b80156113645750600e54600160a81b900460ff165b801561136d5750825b1561138057600f54915061138082611582565b82156114cc575f612710600d548661139891906119c3565b6113a291906119da565b90505f6113af828761196b565b6001600160a01b0389165f908152600460205260409020549091506113d590879061196b565b6001600160a01b03808a165f90815260046020526040808220939093559089168152205461140490829061197e565b6001600160a01b0388165f9081526004602052604080822092909255308152205461143090839061197e565b305f9081526004602090815260409182902092909255518281526001600160a01b0389811692908b16917fddf252ad1be2c89b69c2b068fc378daa952ba7f163c4a11628f55a4df523b3ef910160405180910390a360405182815230906001600160a01b038a16907fddf252ad1be2c89b69c2b068fc378daa952ba7f163c4a11628f55a4df523b3ef9060200160405180910390a3505061157a565b6001600160a01b0386165f908152600460205260409020546114ef90859061196b565b6001600160a01b038088165f90815260046020526040808220939093559087168152205461151e90859061197e565b6001600160a01b038087165f8181526004602052604090819020939093559151908816907fddf252ad1be2c89b69c2b068fc378daa952ba7f163c4a11628f55a4df523b3ef906115719088815260200190565b60405180910390a35b505050505050565b60408051600280825260608201835283925f92919060208301908036833701905050905030815f815181106115b9576115b96119f9565b60200260200101906001600160a01b031690816001600160a01b0316815250507f00000000000000000000000000000000000000000000000000000000000000006001600160a01b031663ad5c46486040518163ffffffff1660e01b8152600401602060405180830381865afa158015611635573d5f803e3d5ffd5b505050506040513d601f19601f820116820180604052508101906116599190611a0d565b8160018151811061166c5761166c6119f9565b60200260200101906001600160a01b031690816001600160a01b0316815250506116b7307f000000000000000000000000000000000000000000000000000000000000000085610fab565b60405163791ac94760e01b81526001600160a01b037f0000000000000000000000000000000000000000000000000000000000000000169063791ac9479061170b9085905f90869030904290600401611a28565b5f604051808303815f87803b158015611722575f80fd5b505af1158015611734573d5f803e3d5ffd5b5050600e546040514793506001600160a01b03909116915082156108fc029083905f818181858888f19350505050158015611771573d5f803e3d5ffd5b5050505050565b6001600160a01b0381168114610fa8575f80fd5b5f6020828403121561179c575f80fd5b81356117a781611778565b9392505050565b602081525f82518060208401528060208501604085015e5f604082850101526040601f19601f83011684010191505092915050565b5f80604083850312156117f4575f80fd5b82356117ff81611778565b946020939093013593505050565b5f805f6060848603121561181f575f80fd5b833561182a81611778565b9250602084013561183a81611778565b929592945050506040919091013590565b5f805f6060848603121561185d575f80fd5b505081359360208301359350604090920135919050565b8015158114610fa8575f80fd5b5f60208284031215611891575f80fd5b81356117a781611874565b5f602082840312156118ac575f80fd5b5035919050565b5f80604083850312156118c4575f80fd5b82356118cf81611778565b915060208301356118df81611778565b809150509250929050565b6020808252818101527f4f776e61626c653a2063616c6c6572206973206e6f7420746865206f776e6572604082015260600190565b600181811c9082168061193357607f821691505b60208210810361195157634e487b7160e01b5f52602260045260245ffd5b50919050565b634e487b7160e01b5f52601160045260245ffd5b818103818111156107e0576107e0611957565b808201808211156107e0576107e0611957565b5f602082840312156119a1575f80fd5b5051919050565b5f602082840312156119b8575f80fd5b81516117a781611874565b80820281158282048414176107e0576107e0611957565b5f826119f457634e487b7160e01b5f52601260045260245ffd5b500490565b634e487b7160e01b5f52603260045260245ffd5b5f60208284031215611a1d575f80fd5b81516117a781611778565b5f60a08201878352602087602085015260a0604085015281875180845260c0860191506020890193505f5b81811015611a785784516001600160a01b031683529383019391830191600101611a53565b50506001600160a01b0396909616606085015250505060800152939250505056fea26469706673582212200ddc31b287e0dbe335f3c3cd186c03635781a8aa23f285317ec12769ff86fb3d64736f6c63430008190033",
					"opcodes": "PUSH1 0xC0 PUSH1 0x40 MSTORE PUSH2 0x10C PUSH1 0xA DUP2 SWAP1 SSTORE PUSH1 0xB SSTORE PUSH1 0x28 PUSH1 0xC SSTORE PUSH0 SLOAD PUSH1 0x1 PUSH1 0x1 PUSH1 0xA0 SHL SUB AND PUSH1 0xE DUP1 SLOAD PUSH1 0x1 PUSH2 0xFF01 PUSH1 0xA0 SHL SUB NOT AND PUSH1 0x1 PUSH1 0x1 PUSH1 0xA0 SHL SUB SWAP3 SWAP1 SWAP3 AND SWAP2 SWAP1 SWAP2 OR PUSH1 0x1 PUSH1 0xA8 SHL OR SWAP1 SSTORE PUSH7 0x2AA1EFB94E000 PUSH1 0xF SSTORE CALLVALUE DUP1 ISZERO PUSH2 0x5C JUMPI PUSH0 DUP1 REVERT JUMPDEST POP PUSH1 0x40 DUP1 MLOAD DUP1 DUP3 ADD DUP3 MSTORE PUSH1 0x1B DUP2 MSTORE PUSH32 0x536D61727420696E7465726E6574206F6620657672797468696E670000000000 PUSH1 0x20 DUP1 DUP4 ADD SWAP2 SWAP1 SWAP2 MSTORE DUP3 MLOAD DUP1 DUP5 ADD DUP5 MSTORE PUSH1 0x4 DUP2 MSTORE PUSH4 0x53494F45 PUSH1 0xE0 SHL SWAP2 DUP2 ADD SWAP2 SWAP1 SWAP2 MSTORE PUSH0 DUP1 SLOAD PUSH1 0x1 PUSH1 0x1 PUSH1 0xA0 SHL SUB NOT AND CALLER SWAP1 DUP2 OR DUP3 SSTORE SWAP4 MLOAD SWAP3 SWAP4 SWAP2 SWAP3 PUSH1 0x9 SWAP3 SWAP2 SWAP1 PUSH32 0x8BE0079C531659141344CD1FD0A4F28419497F9722A3DAAFE3B4186F6B6457E0 SWAP1 DUP3 SWAP1 LOG3 PUSH1 0x1 PUSH2 0xFD DUP5 DUP3 PUSH2 0x443 JUMP JUMPDEST POP PUSH1 0x2 PUSH2 0x10A DUP4 DUP3 PUSH2 0x443 JUMP JUMPDEST POP PUSH1 0x3 DUP1 SLOAD PUSH1 0xFF NOT AND PUSH1 0xFF SWAP3 SWAP1 SWAP3 AND SWAP2 SWAP1 SWAP2 OR SWAP1 SSTORE POP POP PUSH8 0x6F05B59D3B20000 PUSH1 0x8 DUP2 SWAP1 SSTORE PUSH1 0x4 PUSH0 PUSH2 0x143 PUSH0 SLOAD PUSH1 0x1 PUSH1 0x1 PUSH1 0xA0 SHL SUB AND SWAP1 JUMP JUMPDEST PUSH1 0x1 PUSH1 0x1 PUSH1 0xA0 SHL SUB AND PUSH1 0x1 PUSH1 0x1 PUSH1 0xA0 SHL SUB AND DUP2 MSTORE PUSH1 0x20 ADD SWAP1 DUP2 MSTORE PUSH1 0x20 ADD PUSH0 KECCAK256 DUP2 SWAP1 SSTORE POP PUSH0 PUSH20 0x9AC64CC6E4415144C455BD8E4837FEA55603E5C3 SWAP1 POP DUP1 PUSH1 0x1 PUSH1 0x1 PUSH1 0xA0 SHL SUB AND PUSH4 0xC45A0155 PUSH1 0x40 MLOAD DUP2 PUSH4 0xFFFFFFFF AND PUSH1 0xE0 SHL DUP2 MSTORE PUSH1 0x4 ADD PUSH1 0x20 PUSH1 0x40 MLOAD DUP1 DUP4 SUB DUP2 DUP7 GAS STATICCALL ISZERO DUP1 ISZERO PUSH2 0x1BA JUMPI RETURNDATASIZE PUSH0 DUP1 RETURNDATACOPY RETURNDATASIZE PUSH0 REVERT JUMPDEST POP POP POP POP PUSH1 0x40 MLOAD RETURNDATASIZE PUSH1 0x1F NOT PUSH1 0x1F DUP3 ADD AND DUP3 ADD DUP1 PUSH1 0x40 MSTORE POP DUP2 ADD SWAP1 PUSH2 0x1DE SWAP2 SWAP1 PUSH2 0x502 JUMP JUMPDEST PUSH1 0x1 PUSH1 0x1 PUSH1 0xA0 SHL SUB AND PUSH4 0xC9C65396 ADDRESS DUP4 PUSH1 0x1 PUSH1 0x1 PUSH1 0xA0 SHL SUB AND PUSH4 0xAD5C4648 PUSH1 0x40 MLOAD DUP2 PUSH4 0xFFFFFFFF AND PUSH1 0xE0 SHL DUP2 MSTORE PUSH1 0x4 ADD PUSH1 0x20 PUSH1 0x40 MLOAD DUP1 DUP4 SUB DUP2 DUP7 GAS STATICCALL ISZERO DUP1 ISZERO PUSH2 0x229 JUMPI RETURNDATASIZE PUSH0 DUP1 RETURNDATACOPY RETURNDATASIZE PUSH0 REVERT JUMPDEST POP POP POP POP PUSH1 0x40 MLOAD RETURNDATASIZE PUSH1 0x1F NOT PUSH1 0x1F DUP3 ADD AND DUP3 ADD DUP1 PUSH1 0x40 MSTORE POP DUP2 ADD SWAP1 PUSH2 0x24D SWAP2 SWAP1 PUSH2 0x502 JUMP JUMPDEST PUSH1 0x40 MLOAD PUSH1 0x1 PUSH1 0x1 PUSH1 0xE0 SHL SUB NOT PUSH1 0xE0 DUP6 SWAP1 SHL AND DUP2 MSTORE PUSH1 0x1 PUSH1 0x1 PUSH1 0xA0 SHL SUB SWAP3 DUP4 AND PUSH1 0x4 DUP3 ADD MSTORE SWAP2 AND PUSH1 0x24 DUP3 ADD MSTORE PUSH1 0x44 ADD PUSH1 0x20 PUSH1 0x40 MLOAD DUP1 DUP4 SUB DUP2 PUSH0 DUP8 GAS CALL ISZERO DUP1 ISZERO PUSH2 0x297 JUMPI RETURNDATASIZE PUSH0 DUP1 RETURNDATACOPY RETURNDATASIZE PUSH0 REVERT JUMPDEST POP POP POP POP PUSH1 0x40 MLOAD RETURNDATASIZE PUSH1 0x1F NOT PUSH1 0x1F DUP3 ADD AND DUP3 ADD DUP1 PUSH1 0x40 MSTORE POP DUP2 ADD SWAP1 PUSH2 0x2BB SWAP2 SWAP1 PUSH2 0x502 JUMP JUMPDEST PUSH1 0x1 PUSH1 0x1 PUSH1 0xA0 SHL SUB SWAP1 DUP2 AND PUSH1 0xA0 MSTORE DUP2 AND PUSH1 0x80 MSTORE PUSH1 0x1 PUSH1 0x6 PUSH0 PUSH2 0x2E4 PUSH0 SLOAD PUSH1 0x1 PUSH1 0x1 PUSH1 0xA0 SHL SUB AND SWAP1 JUMP JUMPDEST PUSH1 0x1 PUSH1 0x1 PUSH1 0xA0 SHL SUB SWAP1 DUP2 AND DUP3 MSTORE PUSH1 0x20 DUP1 DUP4 ADD SWAP4 SWAP1 SWAP4 MSTORE PUSH1 0x40 SWAP2 DUP3 ADD PUSH0 SWAP1 DUP2 KECCAK256 DUP1 SLOAD SWAP6 ISZERO ISZERO PUSH1 0xFF NOT SWAP7 DUP8 AND OR SWAP1 SSTORE ADDRESS DUP2 MSTORE PUSH1 0x6 DUP5 MSTORE DUP3 DUP2 KECCAK256 DUP1 SLOAD DUP7 AND PUSH1 0x1 SWAP1 DUP2 OR SWAP1 SWAP2 SSTORE PUSH1 0xE SLOAD DUP4 AND DUP3 MSTORE DUP4 DUP3 KECCAK256 DUP1 SLOAD DUP8 AND DUP3 OR SWAP1 SSTORE PUSH1 0xA0 MLOAD SWAP1 SWAP3 AND DUP2 MSTORE PUSH1 0x7 SWAP1 SWAP4 MSTORE SWAP2 KECCAK256 DUP1 SLOAD SWAP1 SWAP3 AND OR SWAP1 SSTORE PUSH2 0x357 CALLER SWAP1 JUMP JUMPDEST PUSH1 0x1 PUSH1 0x1 PUSH1 0xA0 SHL SUB AND PUSH0 PUSH1 0x1 PUSH1 0x1 PUSH1 0xA0 SHL SUB AND PUSH32 0xDDF252AD1BE2C89B69C2B068FC378DAA952BA7F163C4A11628F55A4DF523B3EF PUSH1 0x8 SLOAD PUSH1 0x40 MLOAD PUSH2 0x39D SWAP2 DUP2 MSTORE PUSH1 0x20 ADD SWAP1 JUMP JUMPDEST PUSH1 0x40 MLOAD DUP1 SWAP2 SUB SWAP1 LOG3 POP PUSH2 0x52F JUMP JUMPDEST PUSH4 0x4E487B71 PUSH1 0xE0 SHL PUSH0 MSTORE PUSH1 0x41 PUSH1 0x4 MSTORE PUSH1 0x24 PUSH0 REVERT JUMPDEST PUSH1 0x1 DUP2 DUP2 SHR SWAP1 DUP3 AND DUP1 PUSH2 0x3D3 JUMPI PUSH1 0x7F DUP3 AND SWAP2 POP JUMPDEST PUSH1 0x20 DUP3 LT DUP2 SUB PUSH2 0x3F1 JUMPI PUSH4 0x4E487B71 PUSH1 0xE0 SHL PUSH0 MSTORE PUSH1 0x22 PUSH1 0x4 MSTORE PUSH1 0x24 PUSH0 REVERT JUMPDEST POP SWAP2 SWAP1 POP JUMP JUMPDEST PUSH1 0x1F DUP3 GT ISZERO PUSH2 0x43E JUMPI DUP1 PUSH0 MSTORE PUSH1 0x20 PUSH0 KECCAK256 PUSH1 0x1F DUP5 ADD PUSH1 0x5 SHR DUP2 ADD PUSH1 0x20 DUP6 LT ISZERO PUSH2 0x41C JUMPI POP DUP1 JUMPDEST PUSH1 0x1F DUP5 ADD PUSH1 0x5 SHR DUP3 ADD SWAP2 POP JUMPDEST DUP2 DUP2 LT ISZERO PUSH2 0x43B JUMPI PUSH0 DUP2 SSTORE PUSH1 0x1 ADD PUSH2 0x428 JUMP JUMPDEST POP POP JUMPDEST POP POP POP JUMP JUMPDEST DUP2 MLOAD PUSH1 0x1 PUSH1 0x1 PUSH1 0x40 SHL SUB DUP2 GT ISZERO PUSH2 0x45C JUMPI PUSH2 0x45C PUSH2 0x3AB JUMP JUMPDEST PUSH2 0x470 DUP2 PUSH2 0x46A DUP5 SLOAD PUSH2 0x3BF JUMP JUMPDEST DUP5 PUSH2 0x3F7 JUMP JUMPDEST PUSH1 0x20 DUP1 PUSH1 0x1F DUP4 GT PUSH1 0x1 DUP2 EQ PUSH2 0x4A3 JUMPI PUSH0 DUP5 ISZERO PUSH2 0x48C JUMPI POP DUP6 DUP4 ADD MLOAD JUMPDEST PUSH0 NOT PUSH1 0x3 DUP7 SWAP1 SHL SHR NOT AND PUSH1 0x1 DUP6 SWAP1 SHL OR DUP6 SSTORE PUSH2 0x4FA JUMP JUMPDEST PUSH0 DUP6 DUP2 MSTORE PUSH1 0x20 DUP2 KECCAK256 PUSH1 0x1F NOT DUP7 AND SWAP2 JUMPDEST DUP3 DUP2 LT ISZERO PUSH2 0x4D1 JUMPI DUP9 DUP7 ADD MLOAD DUP3 SSTORE SWAP5 DUP5 ADD SWAP5 PUSH1 0x1 SWAP1 SWAP2 ADD SWAP1 DUP5 ADD PUSH2 0x4B2 JUMP JUMPDEST POP DUP6 DUP3 LT ISZERO PUSH2 0x4EE JUMPI DUP8 DUP6 ADD MLOAD PUSH0 NOT PUSH1 0x3 DUP9 SWAP1 SHL PUSH1 0xF8 AND SHR NOT AND DUP2 SSTORE JUMPDEST POP POP PUSH1 0x1 DUP5 PUSH1 0x1 SHL ADD DUP6 SSTORE JUMPDEST POP POP POP POP POP POP JUMP JUMPDEST PUSH0 PUSH1 0x20 DUP3 DUP5 SUB SLT ISZERO PUSH2 0x512 JUMPI PUSH0 DUP1 REVERT JUMPDEST DUP2 MLOAD PUSH1 0x1 PUSH1 0x1 PUSH1 0xA0 SHL SUB DUP2 AND DUP2 EQ PUSH2 0x528 JUMPI PUSH0 DUP1 REVERT JUMPDEST SWAP4 SWAP3 POP POP POP JUMP JUMPDEST PUSH1 0x80 MLOAD PUSH1 0xA0 MLOAD PUSH2 0x1ACF PUSH2 0x565 PUSH0 CODECOPY PUSH0 PUSH2 0x3DF ADD MSTORE PUSH0 DUP2 DUP2 PUSH2 0x2AB ADD MSTORE DUP2 DUP2 PUSH2 0x15DB ADD MSTORE DUP2 DUP2 PUSH2 0x1692 ADD MSTORE PUSH2 0x16CE ADD MSTORE PUSH2 0x1ACF PUSH0 RETURN INVALID PUSH1 0x80 PUSH1 0x40 MSTORE PUSH1 0x4 CALLDATASIZE LT PUSH2 0x215 JUMPI PUSH0 CALLDATALOAD PUSH1 0xE0 SHR DUP1 PUSH4 0x768DC710 GT PUSH2 0x11E JUMPI DUP1 PUSH4 0xC49B9A80 GT PUSH2 0xA8 JUMPI DUP1 PUSH4 0xDD62ED3E GT PUSH2 0x6D JUMPI DUP1 PUSH4 0xDD62ED3E EQ PUSH2 0x636 JUMPI DUP1 PUSH4 0xE083E922 EQ PUSH2 0x67A JUMPI DUP1 PUSH4 0xEA2F0B37 EQ PUSH2 0x699 JUMPI DUP1 PUSH4 0xF2FDE38B EQ PUSH2 0x6B8 JUMPI DUP1 PUSH4 0xF5648A4F EQ PUSH2 0x6D7 JUMPI PUSH0 DUP1 REVERT JUMPDEST DUP1 PUSH4 0xC49B9A80 EQ PUSH2 0x5B9 JUMPI DUP1 PUSH4 0xC57A6C44 EQ PUSH2 0x5D8 JUMPI DUP1 PUSH4 0xD12A7688 EQ PUSH2 0x5F7 JUMPI DUP1 PUSH4 0xD729715F EQ PUSH2 0x60C JUMPI DUP1 PUSH4 0xD7C94EFD EQ PUSH2 0x621 JUMPI PUSH0 DUP1 REVERT JUMPDEST DUP1 PUSH4 0x95D89B41 GT PUSH2 0xEE JUMPI DUP1 PUSH4 0x95D89B41 EQ PUSH2 0x53D JUMPI DUP1 PUSH4 0x9C2E4AC6 EQ PUSH2 0x551 JUMPI DUP1 PUSH4 0xA457C2D7 EQ PUSH2 0x566 JUMPI DUP1 PUSH4 0xA9059CBB EQ PUSH2 0x585 JUMPI DUP1 PUSH4 0xACB2AD6F EQ PUSH2 0x5A4 JUMPI PUSH0 DUP1 REVERT JUMPDEST DUP1 PUSH4 0x768DC710 EQ PUSH2 0x4C0 JUMPI DUP1 PUSH4 0x89E7563D EQ PUSH2 0x4EE JUMPI DUP1 PUSH4 0x8A8C523C EQ PUSH2 0x50D JUMPI DUP1 PUSH4 0x8DA5CB5B EQ PUSH2 0x521 JUMPI PUSH0 DUP1 REVERT JUMPDEST DUP1 PUSH4 0x39509351 GT PUSH2 0x19F JUMPI DUP1 PUSH4 0x4ADA218B GT PUSH2 0x16F JUMPI DUP1 PUSH4 0x4ADA218B EQ PUSH2 0x421 JUMPI DUP1 PUSH4 0x5EC270C8 EQ PUSH2 0x43A JUMPI DUP1 PUSH4 0x6690864E EQ PUSH2 0x459 JUMPI DUP1 PUSH4 0x70A08231 EQ PUSH2 0x478 JUMPI DUP1 PUSH4 0x715018A6 EQ PUSH2 0x4AC JUMPI PUSH0 DUP1 REVERT JUMPDEST DUP1 PUSH4 0x39509351 EQ PUSH2 0x390 JUMPI DUP1 PUSH4 0x437823EC EQ PUSH2 0x3AF JUMPI DUP1 PUSH4 0x49BD5A5E EQ PUSH2 0x3CE JUMPI DUP1 PUSH4 0x4A74BB02 EQ PUSH2 0x401 JUMPI PUSH0 DUP1 REVERT JUMPDEST DUP1 PUSH4 0x18160DDD GT PUSH2 0x1E5 JUMPI DUP1 PUSH4 0x18160DDD EQ PUSH2 0x2E5 JUMPI DUP1 PUSH4 0x1C75F085 EQ PUSH2 0x303 JUMPI DUP1 PUSH4 0x1E9FE6C6 EQ PUSH2 0x322 JUMPI DUP1 PUSH4 0x23B872DD EQ PUSH2 0x350 JUMPI DUP1 PUSH4 0x313CE567 EQ PUSH2 0x36F JUMPI PUSH0 DUP1 REVERT JUMPDEST DUP1 PUSH4 0x1B95E1D EQ PUSH2 0x220 JUMPI DUP1 PUSH4 0x6FDDE03 EQ PUSH2 0x241 JUMPI DUP1 PUSH4 0x95EA7B3 EQ PUSH2 0x26B JUMPI DUP1 PUSH4 0x1694505E EQ PUSH2 0x29A JUMPI PUSH0 DUP1 REVERT JUMPDEST CALLDATASIZE PUSH2 0x21C JUMPI STOP JUMPDEST PUSH0 DUP1 REVERT JUMPDEST CALLVALUE DUP1 ISZERO PUSH2 0x22B JUMPI PUSH0 DUP1 REVERT JUMPDEST POP PUSH2 0x23F PUSH2 0x23A CALLDATASIZE PUSH1 0x4 PUSH2 0x178C JUMP JUMPDEST PUSH2 0x6EB JUMP JUMPDEST STOP JUMPDEST CALLVALUE DUP1 ISZERO PUSH2 0x24C JUMPI PUSH0 DUP1 REVERT JUMPDEST POP PUSH2 0x255 PUSH2 0x740 JUMP JUMPDEST PUSH1 0x40 MLOAD PUSH2 0x262 SWAP2 SWAP1 PUSH2 0x17AE JUMP JUMPDEST PUSH1 0x40 MLOAD DUP1 SWAP2 SUB SWAP1 RETURN JUMPDEST CALLVALUE DUP1 ISZERO PUSH2 0x276 JUMPI PUSH0 DUP1 REVERT JUMPDEST POP PUSH2 0x28A PUSH2 0x285 CALLDATASIZE PUSH1 0x4 PUSH2 0x17E3 JUMP JUMPDEST PUSH2 0x7D0 JUMP JUMPDEST PUSH1 0x40 MLOAD SWAP1 ISZERO ISZERO DUP2 MSTORE PUSH1 0x20 ADD PUSH2 0x262 JUMP JUMPDEST CALLVALUE DUP1 ISZERO PUSH2 0x2A5 JUMPI PUSH0 DUP1 REVERT JUMPDEST POP PUSH2 0x2CD PUSH32 0x0 DUP2 JUMP JUMPDEST PUSH1 0x40 MLOAD PUSH1 0x1 PUSH1 0x1 PUSH1 0xA0 SHL SUB SWAP1 SWAP2 AND DUP2 MSTORE PUSH1 0x20 ADD PUSH2 0x262 JUMP JUMPDEST CALLVALUE DUP1 ISZERO PUSH2 0x2F0 JUMPI PUSH0 DUP1 REVERT JUMPDEST POP PUSH1 0x8 SLOAD JUMPDEST PUSH1 0x40 MLOAD SWAP1 DUP2 MSTORE PUSH1 0x20 ADD PUSH2 0x262 JUMP JUMPDEST CALLVALUE DUP1 ISZERO PUSH2 0x30E JUMPI PUSH0 DUP1 REVERT JUMPDEST POP PUSH1 0xE SLOAD PUSH2 0x2CD SWAP1 PUSH1 0x1 PUSH1 0x1 PUSH1 0xA0 SHL SUB AND DUP2 JUMP JUMPDEST CALLVALUE DUP1 ISZERO PUSH2 0x32D JUMPI PUSH0 DUP1 REVERT JUMPDEST POP PUSH2 0x28A PUSH2 0x33C CALLDATASIZE PUSH1 0x4 PUSH2 0x178C JUMP JUMPDEST PUSH1 0x7 PUSH1 0x20 MSTORE PUSH0 SWAP1 DUP2 MSTORE PUSH1 0x40 SWAP1 KECCAK256 SLOAD PUSH1 0xFF AND DUP2 JUMP JUMPDEST CALLVALUE DUP1 ISZERO PUSH2 0x35B JUMPI PUSH0 DUP1 REVERT JUMPDEST POP PUSH2 0x28A PUSH2 0x36A CALLDATASIZE PUSH1 0x4 PUSH2 0x180D JUMP JUMPDEST PUSH2 0x7E6 JUMP JUMPDEST CALLVALUE DUP1 ISZERO PUSH2 0x37A JUMPI PUSH0 DUP1 REVERT JUMPDEST POP PUSH1 0x3 SLOAD PUSH1 0x40 MLOAD PUSH1 0xFF SWAP1 SWAP2 AND DUP2 MSTORE PUSH1 0x20 ADD PUSH2 0x262 JUMP JUMPDEST CALLVALUE DUP1 ISZERO PUSH2 0x39B JUMPI PUSH0 DUP1 REVERT JUMPDEST POP PUSH2 0x28A PUSH2 0x3AA CALLDATASIZE PUSH1 0x4 PUSH2 0x17E3 JUMP JUMPDEST PUSH2 0x836 JUMP JUMPDEST CALLVALUE DUP1 ISZERO PUSH2 0x3BA JUMPI PUSH0 DUP1 REVERT JUMPDEST POP PUSH2 0x23F PUSH2 0x3C9 CALLDATASIZE PUSH1 0x4 PUSH2 0x178C JUMP JUMPDEST PUSH2 0x86C JUMP JUMPDEST CALLVALUE DUP1 ISZERO PUSH2 0x3D9 JUMPI PUSH0 DUP1 REVERT JUMPDEST POP PUSH2 0x2CD PUSH32 0x0 DUP2 JUMP JUMPDEST CALLVALUE DUP1 ISZERO PUSH2 0x40C JUMPI PUSH0 DUP1 REVERT JUMPDEST POP PUSH1 0xE SLOAD PUSH2 0x28A SWAP1 PUSH1 0x1 PUSH1 0xA8 SHL SWAP1 DIV PUSH1 0xFF AND DUP2 JUMP JUMPDEST CALLVALUE DUP1 ISZERO PUSH2 0x42C JUMPI PUSH0 DUP1 REVERT JUMPDEST POP PUSH1 0x9 SLOAD PUSH2 0x28A SWAP1 PUSH1 0xFF AND DUP2 JUMP JUMPDEST CALLVALUE DUP1 ISZERO PUSH2 0x445 JUMPI PUSH0 DUP1 REVERT JUMPDEST POP PUSH2 0x23F PUSH2 0x454 CALLDATASIZE PUSH1 0x4 PUSH2 0x178C JUMP JUMPDEST PUSH2 0x8B8 JUMP JUMPDEST CALLVALUE DUP1 ISZERO PUSH2 0x464 JUMPI PUSH0 DUP1 REVERT JUMPDEST POP PUSH2 0x23F PUSH2 0x473 CALLDATASIZE PUSH1 0x4 PUSH2 0x178C JUMP JUMPDEST PUSH2 0x901 JUMP JUMPDEST CALLVALUE DUP1 ISZERO PUSH2 0x483 JUMPI PUSH0 DUP1 REVERT JUMPDEST POP PUSH2 0x2F5 PUSH2 0x492 CALLDATASIZE PUSH1 0x4 PUSH2 0x178C JUMP JUMPDEST PUSH1 0x1 PUSH1 0x1 PUSH1 0xA0 SHL SUB AND PUSH0 SWAP1 DUP2 MSTORE PUSH1 0x4 PUSH1 0x20 MSTORE PUSH1 0x40 SWAP1 KECCAK256 SLOAD SWAP1 JUMP JUMPDEST CALLVALUE DUP1 ISZERO PUSH2 0x4B7 JUMPI PUSH0 DUP1 REVERT JUMPDEST POP PUSH2 0x23F PUSH2 0x94C JUMP JUMPDEST CALLVALUE DUP1 ISZERO PUSH2 0x4CB JUMPI PUSH0 DUP1 REVERT JUMPDEST POP PUSH2 0x28A PUSH2 0x4DA CALLDATASIZE PUSH1 0x4 PUSH2 0x178C JUMP JUMPDEST PUSH1 0x6 PUSH1 0x20 MSTORE PUSH0 SWAP1 DUP2 MSTORE PUSH1 0x40 SWAP1 KECCAK256 SLOAD PUSH1 0xFF AND DUP2 JUMP JUMPDEST CALLVALUE DUP1 ISZERO PUSH2 0x4F9 JUMPI PUSH0 DUP1 REVERT JUMPDEST POP PUSH2 0x23F PUSH2 0x508 CALLDATASIZE PUSH1 0x4 PUSH2 0x184B JUMP JUMPDEST PUSH2 0x9BD JUMP JUMPDEST CALLVALUE DUP1 ISZERO PUSH2 0x518 JUMPI PUSH0 DUP1 REVERT JUMPDEST POP PUSH2 0x23F PUSH2 0xA5D JUMP JUMPDEST CALLVALUE DUP1 ISZERO PUSH2 0x52C JUMPI PUSH0 DUP1 REVERT JUMPDEST POP PUSH0 SLOAD PUSH1 0x1 PUSH1 0x1 PUSH1 0xA0 SHL SUB AND PUSH2 0x2CD JUMP JUMPDEST CALLVALUE DUP1 ISZERO PUSH2 0x548 JUMPI PUSH0 DUP1 REVERT JUMPDEST POP PUSH2 0x255 PUSH2 0xA95 JUMP JUMPDEST CALLVALUE DUP1 ISZERO PUSH2 0x55C JUMPI PUSH0 DUP1 REVERT JUMPDEST POP PUSH2 0x2F5 PUSH1 0xA SLOAD DUP2 JUMP JUMPDEST CALLVALUE DUP1 ISZERO PUSH2 0x571 JUMPI PUSH0 DUP1 REVERT JUMPDEST POP PUSH2 0x28A PUSH2 0x580 CALLDATASIZE PUSH1 0x4 PUSH2 0x17E3 JUMP JUMPDEST PUSH2 0xAA4 JUMP JUMPDEST CALLVALUE DUP1 ISZERO PUSH2 0x590 JUMPI PUSH0 DUP1 REVERT JUMPDEST POP PUSH2 0x28A PUSH2 0x59F CALLDATASIZE PUSH1 0x4 PUSH2 0x17E3 JUMP JUMPDEST PUSH2 0xADA JUMP JUMPDEST CALLVALUE DUP1 ISZERO PUSH2 0x5AF JUMPI PUSH0 DUP1 REVERT JUMPDEST POP PUSH2 0x2F5 PUSH1 0xC SLOAD DUP2 JUMP JUMPDEST CALLVALUE DUP1 ISZERO PUSH2 0x5C4 JUMPI PUSH0 DUP1 REVERT JUMPDEST POP PUSH2 0x23F PUSH2 0x5D3 CALLDATASIZE PUSH1 0x4 PUSH2 0x1881 JUMP JUMPDEST PUSH2 0xAE6 JUMP JUMPDEST CALLVALUE DUP1 ISZERO PUSH2 0x5E3 JUMPI PUSH0 DUP1 REVERT JUMPDEST POP PUSH2 0x23F PUSH2 0x5F2 CALLDATASIZE PUSH1 0x4 PUSH2 0x189C JUMP JUMPDEST PUSH2 0xB67 JUMP JUMPDEST CALLVALUE DUP1 ISZERO PUSH2 0x602 JUMPI PUSH0 DUP1 REVERT JUMPDEST POP PUSH2 0x2F5 PUSH1 0xF SLOAD DUP2 JUMP JUMPDEST CALLVALUE DUP1 ISZERO PUSH2 0x617 JUMPI PUSH0 DUP1 REVERT JUMPDEST POP PUSH2 0x2F5 PUSH1 0xB SLOAD DUP2 JUMP JUMPDEST CALLVALUE DUP1 ISZERO PUSH2 0x62C JUMPI PUSH0 DUP1 REVERT JUMPDEST POP PUSH2 0x2F5 PUSH1 0xD SLOAD DUP2 JUMP JUMPDEST CALLVALUE DUP1 ISZERO PUSH2 0x641 JUMPI PUSH0 DUP1 REVERT JUMPDEST POP PUSH2 0x2F5 PUSH2 0x650 CALLDATASIZE PUSH1 0x4 PUSH2 0x18B3 JUMP JUMPDEST PUSH1 0x1 PUSH1 0x1 PUSH1 0xA0 SHL SUB SWAP2 DUP3 AND PUSH0 SWAP1 DUP2 MSTORE PUSH1 0x5 PUSH1 0x20 SWAP1 DUP2 MSTORE PUSH1 0x40 DUP1 DUP4 KECCAK256 SWAP4 SWAP1 SWAP5 AND DUP3 MSTORE SWAP2 SWAP1 SWAP2 MSTORE KECCAK256 SLOAD SWAP1 JUMP JUMPDEST CALLVALUE DUP1 ISZERO PUSH2 0x685 JUMPI PUSH0 DUP1 REVERT JUMPDEST POP PUSH2 0x23F PUSH2 0x694 CALLDATASIZE PUSH1 0x4 PUSH2 0x178C JUMP JUMPDEST PUSH2 0xB95 JUMP JUMPDEST CALLVALUE DUP1 ISZERO PUSH2 0x6A4 JUMPI PUSH0 DUP1 REVERT JUMPDEST POP PUSH2 0x23F PUSH2 0x6B3 CALLDATASIZE PUSH1 0x4 PUSH2 0x178C JUMP JUMPDEST PUSH2 0xDC9 JUMP JUMPDEST CALLVALUE DUP1 ISZERO PUSH2 0x6C3 JUMPI PUSH0 DUP1 REVERT JUMPDEST POP PUSH2 0x23F PUSH2 0x6D2 CALLDATASIZE PUSH1 0x4 PUSH2 0x178C JUMP JUMPDEST PUSH2 0xE12 JUMP JUMPDEST CALLVALUE DUP1 ISZERO PUSH2 0x6E2 JUMPI PUSH0 DUP1 REVERT JUMPDEST POP PUSH2 0x23F PUSH2 0xEF9 JUMP JUMPDEST PUSH0 SLOAD PUSH1 0x1 PUSH1 0x1 PUSH1 0xA0 SHL SUB AND CALLER EQ PUSH2 0x71D JUMPI PUSH1 0x40 MLOAD PUSH3 0x461BCD PUSH1 0xE5 SHL DUP2 MSTORE PUSH1 0x4 ADD PUSH2 0x714 SWAP1 PUSH2 0x18EA JUMP JUMPDEST PUSH1 0x40 MLOAD DUP1 SWAP2 SUB SWAP1 REVERT JUMPDEST PUSH1 0x1 PUSH1 0x1 PUSH1 0xA0 SHL SUB AND PUSH0 SWAP1 DUP2 MSTORE PUSH1 0x7 PUSH1 0x20 MSTORE PUSH1 0x40 SWAP1 KECCAK256 DUP1 SLOAD PUSH1 0xFF NOT AND PUSH1 0x1 OR SWAP1 SSTORE JUMP JUMPDEST PUSH1 0x60 PUSH1 0x1 DUP1 SLOAD PUSH2 0x74F SWAP1 PUSH2 0x191F JUMP JUMPDEST DUP1 PUSH1 0x1F ADD PUSH1 0x20 DUP1 SWAP2 DIV MUL PUSH1 0x20 ADD PUSH1 0x40 MLOAD SWAP1 DUP2 ADD PUSH1 0x40 MSTORE DUP1 SWAP3 SWAP2 SWAP1 DUP2 DUP2 MSTORE PUSH1 0x20 ADD DUP3 DUP1 SLOAD PUSH2 0x77B SWAP1 PUSH2 0x191F JUMP JUMPDEST DUP1 ISZERO PUSH2 0x7C6 JUMPI DUP1 PUSH1 0x1F LT PUSH2 0x79D JUMPI PUSH2 0x100 DUP1 DUP4 SLOAD DIV MUL DUP4 MSTORE SWAP2 PUSH1 0x20 ADD SWAP2 PUSH2 0x7C6 JUMP JUMPDEST DUP3 ADD SWAP2 SWAP1 PUSH0 MSTORE PUSH1 0x20 PUSH0 KECCAK256 SWAP1 JUMPDEST DUP2 SLOAD DUP2 MSTORE SWAP1 PUSH1 0x1 ADD SWAP1 PUSH1 0x20 ADD DUP1 DUP4 GT PUSH2 0x7A9 JUMPI DUP3 SWAP1 SUB PUSH1 0x1F AND DUP3 ADD SWAP2 JUMPDEST POP POP POP POP POP SWAP1 POP SWAP1 JUMP JUMPDEST PUSH0 PUSH2 0x7DC CALLER DUP5 DUP5 PUSH2 0xFAB JUMP JUMPDEST POP PUSH1 0x1 JUMPDEST SWAP3 SWAP2 POP POP JUMP JUMPDEST PUSH0 PUSH2 0x7F2 DUP5 DUP5 DUP5 PUSH2 0x10CE JUMP JUMPDEST PUSH1 0x1 PUSH1 0x1 PUSH1 0xA0 SHL SUB DUP5 AND PUSH0 SWAP1 DUP2 MSTORE PUSH1 0x5 PUSH1 0x20 SWAP1 DUP2 MSTORE PUSH1 0x40 DUP1 DUP4 KECCAK256 CALLER DUP1 DUP6 MSTORE SWAP3 MSTORE SWAP1 SWAP2 KECCAK256 SLOAD PUSH2 0x82C SWAP2 DUP7 SWAP2 PUSH2 0x827 SWAP1 DUP7 SWAP1 PUSH2 0x196B JUMP JUMPDEST PUSH2 0xFAB JUMP JUMPDEST POP PUSH1 0x1 SWAP4 SWAP3 POP POP POP JUMP JUMPDEST CALLER PUSH0 DUP2 DUP2 MSTORE PUSH1 0x5 PUSH1 0x20 SWAP1 DUP2 MSTORE PUSH1 0x40 DUP1 DUP4 KECCAK256 PUSH1 0x1 PUSH1 0x1 PUSH1 0xA0 SHL SUB DUP8 AND DUP5 MSTORE SWAP1 SWAP2 MSTORE DUP2 KECCAK256 SLOAD SWAP1 SWAP2 PUSH2 0x7DC SWAP2 DUP6 SWAP1 PUSH2 0x827 SWAP1 DUP7 SWAP1 PUSH2 0x197E JUMP JUMPDEST PUSH0 SLOAD PUSH1 0x1 PUSH1 0x1 PUSH1 0xA0 SHL SUB AND CALLER EQ PUSH2 0x895 JUMPI PUSH1 0x40 MLOAD PUSH3 0x461BCD PUSH1 0xE5 SHL DUP2 MSTORE PUSH1 0x4 ADD PUSH2 0x714 SWAP1 PUSH2 0x18EA JUMP JUMPDEST PUSH1 0x1 PUSH1 0x1 PUSH1 0xA0 SHL SUB AND PUSH0 SWAP1 DUP2 MSTORE PUSH1 0x6 PUSH1 0x20 MSTORE PUSH1 0x40 SWAP1 KECCAK256 DUP1 SLOAD PUSH1 0xFF NOT AND PUSH1 0x1 OR SWAP1 SSTORE JUMP JUMPDEST PUSH0 SLOAD PUSH1 0x1 PUSH1 0x1 PUSH1 0xA0 SHL SUB AND CALLER EQ PUSH2 0x8E1 JUMPI PUSH1 0x40 MLOAD PUSH3 0x461BCD PUSH1 0xE5 SHL DUP2 MSTORE PUSH1 0x4 ADD PUSH2 0x714 SWAP1 PUSH2 0x18EA JUMP JUMPDEST PUSH1 0x1 PUSH1 0x1 PUSH1 0xA0 SHL SUB AND PUSH0 SWAP1 DUP2 MSTORE PUSH1 0x7 PUSH1 0x20 MSTORE PUSH1 0x40 SWAP1 KECCAK256 DUP1 SLOAD PUSH1 0xFF NOT AND SWAP1 SSTORE JUMP JUMPDEST PUSH0 SLOAD PUSH1 0x1 PUSH1 0x1 PUSH1 0xA0 SHL SUB AND CALLER EQ PUSH2 0x92A JUMPI PUSH1 0x40 MLOAD PUSH3 0x461BCD PUSH1 0xE5 SHL DUP2 MSTORE PUSH1 0x4 ADD PUSH2 0x714 SWAP1 PUSH2 0x18EA JUMP JUMPDEST PUSH1 0xE DUP1 SLOAD PUSH1 0x1 PUSH1 0x1 PUSH1 0xA0 SHL SUB NOT AND PUSH1 0x1 PUSH1 0x1 PUSH1 0xA0 SHL SUB SWAP3 SWAP1 SWAP3 AND SWAP2 SWAP1 SWAP2 OR SWAP1 SSTORE JUMP JUMPDEST PUSH0 SLOAD PUSH1 0x1 PUSH1 0x1 PUSH1 0xA0 SHL SUB AND CALLER EQ PUSH2 0x975 JUMPI PUSH1 0x40 MLOAD PUSH3 0x461BCD PUSH1 0xE5 SHL DUP2 MSTORE PUSH1 0x4 ADD PUSH2 0x714 SWAP1 PUSH2 0x18EA JUMP JUMPDEST PUSH0 DUP1 SLOAD PUSH1 0x40 MLOAD PUSH1 0x1 PUSH1 0x1 PUSH1 0xA0 SHL SUB SWAP1 SWAP2 AND SWAP1 PUSH32 0x8BE0079C531659141344CD1FD0A4F28419497F9722A3DAAFE3B4186F6B6457E0 SWAP1 DUP4 SWAP1 LOG3 PUSH0 DUP1 SLOAD PUSH1 0x1 PUSH1 0x1 PUSH1 0xA0 SHL SUB NOT AND SWAP1 SSTORE JUMP JUMPDEST PUSH0 SLOAD PUSH1 0x1 PUSH1 0x1 PUSH1 0xA0 SHL SUB AND CALLER EQ PUSH2 0x9E6 JUMPI PUSH1 0x40 MLOAD PUSH3 0x461BCD PUSH1 0xE5 SHL DUP2 MSTORE PUSH1 0x4 ADD PUSH2 0x714 SWAP1 PUSH2 0x18EA JUMP JUMPDEST PUSH1 0xA DUP4 DUP2 SSTORE PUSH1 0xB DUP4 SWAP1 SSTORE PUSH1 0xC DUP3 SWAP1 SSTORE DUP2 PUSH2 0xA00 DUP5 DUP7 PUSH2 0x197E JUMP JUMPDEST PUSH2 0xA0A SWAP2 SWAP1 PUSH2 0x197E JUMP JUMPDEST GT ISZERO PUSH2 0xA58 JUMPI PUSH1 0x40 MLOAD PUSH3 0x461BCD PUSH1 0xE5 SHL DUP2 MSTORE PUSH1 0x20 PUSH1 0x4 DUP3 ADD MSTORE PUSH1 0x1E PUSH1 0x24 DUP3 ADD MSTORE PUSH32 0x4665652069732063726F7373696E672074686520626F756E6461726965730000 PUSH1 0x44 DUP3 ADD MSTORE PUSH1 0x64 ADD PUSH2 0x714 JUMP JUMPDEST POP POP POP JUMP JUMPDEST PUSH0 SLOAD PUSH1 0x1 PUSH1 0x1 PUSH1 0xA0 SHL SUB AND CALLER EQ PUSH2 0xA86 JUMPI PUSH1 0x40 MLOAD PUSH3 0x461BCD PUSH1 0xE5 SHL DUP2 MSTORE PUSH1 0x4 ADD PUSH2 0x714 SWAP1 PUSH2 0x18EA JUMP JUMPDEST PUSH1 0x9 DUP1 SLOAD PUSH1 0xFF NOT AND PUSH1 0x1 OR SWAP1 SSTORE JUMP JUMPDEST PUSH1 0x60 PUSH1 0x2 DUP1 SLOAD PUSH2 0x74F SWAP1 PUSH2 0x191F JUMP JUMPDEST CALLER PUSH0 DUP2 DUP2 MSTORE PUSH1 0x5 PUSH1 0x20 SWAP1 DUP2 MSTORE PUSH1 0x40 DUP1 DUP4 KECCAK256 PUSH1 0x1 PUSH1 0x1 PUSH1 0xA0 SHL SUB DUP8 AND DUP5 MSTORE SWAP1 SWAP2 MSTORE DUP2 KECCAK256 SLOAD SWAP1 SWAP2 PUSH2 0x7DC SWAP2 DUP6 SWAP1 PUSH2 0x827 SWAP1 DUP7 SWAP1 PUSH2 0x196B JUMP JUMPDEST PUSH0 PUSH2 0x7DC CALLER DUP5 DUP5 PUSH2 0x10CE JUMP JUMPDEST PUSH0 SLOAD PUSH1 0x1 PUSH1 0x1 PUSH1 0xA0 SHL SUB AND CALLER EQ PUSH2 0xB0F JUMPI PUSH1 0x40 MLOAD PUSH3 0x461BCD PUSH1 0xE5 SHL DUP2 MSTORE PUSH1 0x4 ADD PUSH2 0x714 SWAP1 PUSH2 0x18EA JUMP JUMPDEST PUSH1 0xE DUP1 SLOAD DUP3 ISZERO ISZERO PUSH1 0x1 PUSH1 0xA8 SHL MUL PUSH1 0xFF PUSH1 0xA8 SHL NOT SWAP1 SWAP2 AND OR SWAP1 SSTORE PUSH1 0x40 MLOAD PUSH32 0x53726DFCAF90650AA7EB35524F4D3220F07413C8D6CB404CC8C18BF5591BC159 SWAP1 PUSH2 0xB5C SWAP1 DUP4 ISZERO ISZERO DUP2 MSTORE PUSH1 0x20 ADD SWAP1 JUMP JUMPDEST PUSH1 0x40 MLOAD DUP1 SWAP2 SUB SWAP1 LOG1 POP JUMP JUMPDEST PUSH0 SLOAD PUSH1 0x1 PUSH1 0x1 PUSH1 0xA0 SHL SUB AND CALLER EQ PUSH2 0xB90 JUMPI PUSH1 0x40 MLOAD PUSH3 0x461BCD PUSH1 0xE5 SHL DUP2 MSTORE PUSH1 0x4 ADD PUSH2 0x714 SWAP1 PUSH2 0x18EA JUMP JUMPDEST PUSH1 0xF SSTORE JUMP JUMPDEST PUSH0 SLOAD PUSH1 0x1 PUSH1 0x1 PUSH1 0xA0 SHL SUB AND CALLER EQ PUSH2 0xBBE JUMPI PUSH1 0x40 MLOAD PUSH3 0x461BCD PUSH1 0xE5 SHL DUP2 MSTORE PUSH1 0x4 ADD PUSH2 0x714 SWAP1 PUSH2 0x18EA JUMP JUMPDEST ADDRESS PUSH1 0x1 PUSH1 0x1 PUSH1 0xA0 SHL SUB DUP3 AND SUB PUSH2 0xC2B JUMPI PUSH1 0x40 MLOAD PUSH3 0x461BCD PUSH1 0xE5 SHL DUP2 MSTORE PUSH1 0x20 PUSH1 0x4 DUP3 ADD MSTORE PUSH1 0x2C PUSH1 0x24 DUP3 ADD MSTORE PUSH32 0x43616E277420776974686472617720746F6B656E732064657374696E65642066 PUSH1 0x44 DUP3 ADD MSTORE PUSH12 0x6F72206C6971756964697479 PUSH1 0xA0 SHL PUSH1 0x64 DUP3 ADD MSTORE PUSH1 0x84 ADD PUSH2 0x714 JUMP JUMPDEST PUSH1 0x40 MLOAD PUSH4 0x70A08231 PUSH1 0xE0 SHL DUP2 MSTORE ADDRESS PUSH1 0x4 DUP3 ADD MSTORE PUSH0 SWAP1 PUSH1 0x1 PUSH1 0x1 PUSH1 0xA0 SHL SUB DUP4 AND SWAP1 PUSH4 0x70A08231 SWAP1 PUSH1 0x24 ADD PUSH1 0x20 PUSH1 0x40 MLOAD DUP1 DUP4 SUB DUP2 DUP7 GAS STATICCALL ISZERO DUP1 ISZERO PUSH2 0xC6F JUMPI RETURNDATASIZE PUSH0 DUP1 RETURNDATACOPY RETURNDATASIZE PUSH0 REVERT JUMPDEST POP POP POP POP PUSH1 0x40 MLOAD RETURNDATASIZE PUSH1 0x1F NOT PUSH1 0x1F DUP3 ADD AND DUP3 ADD DUP1 PUSH1 0x40 MSTORE POP DUP2 ADD SWAP1 PUSH2 0xC93 SWAP2 SWAP1 PUSH2 0x1991 JUMP JUMPDEST GT PUSH2 0xCD3 JUMPI PUSH1 0x40 MLOAD PUSH3 0x461BCD PUSH1 0xE5 SHL DUP2 MSTORE PUSH1 0x20 PUSH1 0x4 DUP3 ADD MSTORE PUSH1 0x10 PUSH1 0x24 DUP3 ADD MSTORE PUSH16 0x43616E2774207769746864726177203 PUSH1 0x84 SHL PUSH1 0x44 DUP3 ADD MSTORE PUSH1 0x64 ADD PUSH2 0x714 JUMP JUMPDEST DUP1 PUSH1 0x1 PUSH1 0x1 PUSH1 0xA0 SHL SUB AND PUSH4 0xA9059CBB PUSH2 0xCF3 PUSH0 SLOAD PUSH1 0x1 PUSH1 0x1 PUSH1 0xA0 SHL SUB AND SWAP1 JUMP JUMPDEST PUSH1 0x40 MLOAD PUSH4 0x70A08231 PUSH1 0xE0 SHL DUP2 MSTORE ADDRESS PUSH1 0x4 DUP3 ADD MSTORE PUSH1 0x1 PUSH1 0x1 PUSH1 0xA0 SHL SUB DUP6 AND SWAP1 PUSH4 0x70A08231 SWAP1 PUSH1 0x24 ADD PUSH1 0x20 PUSH1 0x40 MLOAD DUP1 DUP4 SUB DUP2 DUP7 GAS STATICCALL ISZERO DUP1 ISZERO PUSH2 0xD35 JUMPI RETURNDATASIZE PUSH0 DUP1 RETURNDATACOPY RETURNDATASIZE PUSH0 REVERT JUMPDEST POP POP POP POP PUSH1 0x40 MLOAD RETURNDATASIZE PUSH1 0x1F NOT PUSH1 0x1F DUP3 ADD AND DUP3 ADD DUP1 PUSH1 0x40 MSTORE POP DUP2 ADD SWAP1 PUSH2 0xD59 SWAP2 SWAP1 PUSH2 0x1991 JUMP JUMPDEST PUSH1 0x40 MLOAD PUSH1 0x1 PUSH1 0x1 PUSH1 0xE0 SHL SUB NOT PUSH1 0xE0 DUP6 SWAP1 SHL AND DUP2 MSTORE PUSH1 0x1 PUSH1 0x1 PUSH1 0xA0 SHL SUB SWAP1 SWAP3 AND PUSH1 0x4 DUP4 ADD MSTORE PUSH1 0x24 DUP3 ADD MSTORE PUSH1 0x44 ADD PUSH1 0x20 PUSH1 0x40 MLOAD DUP1 DUP4 SUB DUP2 PUSH0 DUP8 GAS CALL ISZERO DUP1 ISZERO PUSH2 0xDA1 JUMPI RETURNDATASIZE PUSH0 DUP1 RETURNDATACOPY RETURNDATASIZE PUSH0 REVERT JUMPDEST POP POP POP POP PUSH1 0x40 MLOAD RETURNDATASIZE PUSH1 0x1F NOT PUSH1 0x1F DUP3 ADD AND DUP3 ADD DUP1 PUSH1 0x40 MSTORE POP DUP2 ADD SWAP1 PUSH2 0xDC5 SWAP2 SWAP1 PUSH2 0x19A8 JUMP JUMPDEST POP POP JUMP JUMPDEST PUSH0 SLOAD PUSH1 0x1 PUSH1 0x1 PUSH1 0xA0 SHL SUB AND CALLER EQ PUSH2 0xDF2 JUMPI PUSH1 0x40 MLOAD PUSH3 0x461BCD PUSH1 0xE5 SHL DUP2 MSTORE PUSH1 0x4 ADD PUSH2 0x714 SWAP1 PUSH2 0x18EA JUMP JUMPDEST PUSH1 0x1 PUSH1 0x1 PUSH1 0xA0 SHL SUB AND PUSH0 SWAP1 DUP2 MSTORE PUSH1 0x6 PUSH1 0x20 MSTORE PUSH1 0x40 SWAP1 KECCAK256 DUP1 SLOAD PUSH1 0xFF NOT AND SWAP1 SSTORE JUMP JUMPDEST PUSH0 SLOAD PUSH1 0x1 PUSH1 0x1 PUSH1 0xA0 SHL SUB AND CALLER EQ PUSH2 0xE3B JUMPI PUSH1 0x40 MLOAD PUSH3 0x461BCD PUSH1 0xE5 SHL DUP2 MSTORE PUSH1 0x4 ADD PUSH2 0x714 SWAP1 PUSH2 0x18EA JUMP JUMPDEST PUSH1 0x1 PUSH1 0x1 PUSH1 0xA0 SHL SUB DUP2 AND PUSH2 0xEA0 JUMPI PUSH1 0x40 MLOAD PUSH3 0x461BCD PUSH1 0xE5 SHL DUP2 MSTORE PUSH1 0x20 PUSH1 0x4 DUP3 ADD MSTORE PUSH1 0x26 PUSH1 0x24 DUP3 ADD MSTORE PUSH32 0x4F776E61626C653A206E6577206F776E657220697320746865207A65726F2061 PUSH1 0x44 DUP3 ADD MSTORE PUSH6 0x646472657373 PUSH1 0xD0 SHL PUSH1 0x64 DUP3 ADD MSTORE PUSH1 0x84 ADD PUSH2 0x714 JUMP JUMPDEST PUSH0 DUP1 SLOAD PUSH1 0x40 MLOAD PUSH1 0x1 PUSH1 0x1 PUSH1 0xA0 SHL SUB DUP1 DUP6 AND SWAP4 SWAP3 AND SWAP2 PUSH32 0x8BE0079C531659141344CD1FD0A4F28419497F9722A3DAAFE3B4186F6B6457E0 SWAP2 LOG3 PUSH0 DUP1 SLOAD PUSH1 0x1 PUSH1 0x1 PUSH1 0xA0 SHL SUB NOT AND PUSH1 0x1 PUSH1 0x1 PUSH1 0xA0 SHL SUB SWAP3 SWAP1 SWAP3 AND SWAP2 SWAP1 SWAP2 OR SWAP1 SSTORE JUMP JUMPDEST PUSH0 SLOAD PUSH1 0x1 PUSH1 0x1 PUSH1 0xA0 SHL SUB AND CALLER EQ PUSH2 0xF22 JUMPI PUSH1 0x40 MLOAD PUSH3 0x461BCD PUSH1 0xE5 SHL DUP2 MSTORE PUSH1 0x4 ADD PUSH2 0x714 SWAP1 PUSH2 0x18EA JUMP JUMPDEST PUSH0 SELFBALANCE GT PUSH2 0xF71 JUMPI PUSH1 0x40 MLOAD PUSH3 0x461BCD PUSH1 0xE5 SHL DUP2 MSTORE PUSH1 0x20 PUSH1 0x4 DUP3 ADD MSTORE PUSH1 0x1F PUSH1 0x24 DUP3 ADD MSTORE PUSH32 0x43616E2774207769746864726177206E65676174697665206F72207A65726F00 PUSH1 0x44 DUP3 ADD MSTORE PUSH1 0x64 ADD PUSH2 0x714 JUMP JUMPDEST PUSH0 DUP1 SLOAD PUSH1 0x40 MLOAD PUSH1 0x1 PUSH1 0x1 PUSH1 0xA0 SHL SUB SWAP1 SWAP2 AND SWAP2 SELFBALANCE DUP1 ISZERO PUSH2 0x8FC MUL SWAP3 SWAP1 SWAP2 DUP2 DUP2 DUP2 DUP6 DUP9 DUP9 CALL SWAP4 POP POP POP POP ISZERO DUP1 ISZERO PUSH2 0xFA8 JUMPI RETURNDATASIZE PUSH0 DUP1 RETURNDATACOPY RETURNDATASIZE PUSH0 REVERT JUMPDEST POP JUMP JUMPDEST PUSH1 0x1 PUSH1 0x1 PUSH1 0xA0 SHL SUB DUP4 AND PUSH2 0x100D JUMPI PUSH1 0x40 MLOAD PUSH3 0x461BCD PUSH1 0xE5 SHL DUP2 MSTORE PUSH1 0x20 PUSH1 0x4 DUP3 ADD MSTORE PUSH1 0x24 DUP1 DUP3 ADD MSTORE PUSH32 0x42455032303A20617070726F76652066726F6D20746865207A65726F20616464 PUSH1 0x44 DUP3 ADD MSTORE PUSH4 0x72657373 PUSH1 0xE0 SHL PUSH1 0x64 DUP3 ADD MSTORE PUSH1 0x84 ADD PUSH2 0x714 JUMP JUMPDEST PUSH1 0x1 PUSH1 0x1 PUSH1 0xA0 SHL SUB DUP3 AND PUSH2 0x106E JUMPI PUSH1 0x40 MLOAD PUSH3 0x461BCD PUSH1 0xE5 SHL DUP2 MSTORE PUSH1 0x20 PUSH1 0x4 DUP3 ADD MSTORE PUSH1 0x22 PUSH1 0x24 DUP3 ADD MSTORE PUSH32 0x42455032303A20617070726F766520746F20746865207A65726F206164647265 PUSH1 0x44 DUP3 ADD MSTORE PUSH2 0x7373 PUSH1 0xF0 SHL PUSH1 0x64 DUP3 ADD MSTORE PUSH1 0x84 ADD PUSH2 0x714 JUMP JUMPDEST PUSH1 0x1 PUSH1 0x1 PUSH1 0xA0 SHL SUB DUP4 DUP2 AND PUSH0 DUP2 DUP2 MSTORE PUSH1 0x5 PUSH1 0x20 SWAP1 DUP2 MSTORE PUSH1 0x40 DUP1 DUP4 KECCAK256 SWAP5 DUP8 AND DUP1 DUP5 MSTORE SWAP5 DUP3 MSTORE SWAP2 DUP3 SWAP1 KECCAK256 DUP6 SWAP1 SSTORE SWAP1 MLOAD DUP5 DUP2 MSTORE PUSH32 0x8C5BE1E5EBEC7D5BD14F71427D1E84F3DD0314C0F7B2291E5B200AC8C7C3B925 SWAP2 ADD PUSH1 0x40 MLOAD DUP1 SWAP2 SUB SWAP1 LOG3 POP POP POP JUMP JUMPDEST PUSH1 0x1 PUSH1 0x1 PUSH1 0xA0 SHL SUB DUP4 AND PUSH2 0x1132 JUMPI PUSH1 0x40 MLOAD PUSH3 0x461BCD PUSH1 0xE5 SHL DUP2 MSTORE PUSH1 0x20 PUSH1 0x4 DUP3 ADD MSTORE PUSH1 0x25 PUSH1 0x24 DUP3 ADD MSTORE PUSH32 0x42455032303A207472616E736665722066726F6D20746865207A65726F206164 PUSH1 0x44 DUP3 ADD MSTORE PUSH5 0x6472657373 PUSH1 0xD8 SHL PUSH1 0x64 DUP3 ADD MSTORE PUSH1 0x84 ADD PUSH2 0x714 JUMP JUMPDEST PUSH1 0x1 PUSH1 0x1 PUSH1 0xA0 SHL SUB DUP3 AND PUSH2 0x1194 JUMPI PUSH1 0x40 MLOAD PUSH3 0x461BCD PUSH1 0xE5 SHL DUP2 MSTORE PUSH1 0x20 PUSH1 0x4 DUP3 ADD MSTORE PUSH1 0x23 PUSH1 0x24 DUP3 ADD MSTORE PUSH32 0x42455032303A207472616E7366657220746F20746865207A65726F2061646472 PUSH1 0x44 DUP3 ADD MSTORE PUSH3 0x657373 PUSH1 0xE8 SHL PUSH1 0x64 DUP3 ADD MSTORE PUSH1 0x84 ADD PUSH2 0x714 JUMP JUMPDEST PUSH0 SLOAD PUSH1 0x1 PUSH1 0x1 PUSH1 0xA0 SHL SUB DUP5 DUP2 AND SWAP2 AND EQ ISZERO DUP1 PUSH2 0x11BD JUMPI POP PUSH0 SLOAD PUSH1 0x1 PUSH1 0x1 PUSH1 0xA0 SHL SUB DUP4 DUP2 AND SWAP2 AND EQ ISZERO JUMPDEST ISZERO PUSH2 0x1214 JUMPI PUSH1 0x9 SLOAD PUSH1 0xFF AND PUSH2 0x1214 JUMPI PUSH1 0x40 MLOAD PUSH3 0x461BCD PUSH1 0xE5 SHL DUP2 MSTORE PUSH1 0x20 PUSH1 0x4 DUP3 ADD MSTORE PUSH1 0x1A PUSH1 0x24 DUP3 ADD MSTORE PUSH32 0x54726164696E67206973206E6F7420656D61626C656420796574000000000000 PUSH1 0x44 DUP3 ADD MSTORE PUSH1 0x64 ADD PUSH2 0x714 JUMP JUMPDEST PUSH1 0x1 PUSH1 0x1 PUSH1 0xA0 SHL SUB DUP4 AND PUSH0 SWAP1 DUP2 MSTORE PUSH1 0x6 PUSH1 0x20 MSTORE PUSH1 0x40 SWAP1 KECCAK256 SLOAD PUSH1 0x1 SWAP1 PUSH1 0xFF AND DUP1 PUSH2 0x1254 JUMPI POP PUSH1 0x1 PUSH1 0x1 PUSH1 0xA0 SHL SUB DUP4 AND PUSH0 SWAP1 DUP2 MSTORE PUSH1 0x6 PUSH1 0x20 MSTORE PUSH1 0x40 SWAP1 KECCAK256 SLOAD PUSH1 0xFF AND JUMPDEST ISZERO PUSH2 0x125C JUMPI POP PUSH0 JUMPDEST PUSH1 0x1 PUSH1 0x1 PUSH1 0xA0 SHL SUB DUP4 AND PUSH0 SWAP1 DUP2 MSTORE PUSH1 0x7 PUSH1 0x20 MSTORE PUSH1 0x40 SWAP1 KECCAK256 SLOAD PUSH1 0xFF AND ISZERO DUP1 ISZERO PUSH2 0x129C JUMPI POP PUSH1 0x1 PUSH1 0x1 PUSH1 0xA0 SHL SUB DUP5 AND PUSH0 SWAP1 DUP2 MSTORE PUSH1 0x7 PUSH1 0x20 MSTORE PUSH1 0x40 SWAP1 KECCAK256 SLOAD PUSH1 0xFF AND ISZERO JUMPDEST ISZERO PUSH2 0x12AC JUMPI PUSH1 0xC SLOAD PUSH1 0xD SSTORE PUSH2 0x12FE JUMP JUMPDEST PUSH1 0x1 PUSH1 0x1 PUSH1 0xA0 SHL SUB DUP4 AND PUSH0 SWAP1 DUP2 MSTORE PUSH1 0x7 PUSH1 0x20 MSTORE PUSH1 0x40 SWAP1 KECCAK256 SLOAD PUSH1 0xFF AND ISZERO PUSH2 0x12D7 JUMPI PUSH1 0xB SLOAD PUSH1 0xD SSTORE PUSH2 0x12FE JUMP JUMPDEST PUSH1 0x1 PUSH1 0x1 PUSH1 0xA0 SHL SUB DUP5 AND PUSH0 SWAP1 DUP2 MSTORE PUSH1 0x7 PUSH1 0x20 MSTORE PUSH1 0x40 SWAP1 KECCAK256 SLOAD PUSH1 0xFF AND ISZERO PUSH2 0x12FE JUMPI PUSH1 0xA SLOAD PUSH1 0xD SSTORE JUMPDEST ADDRESS PUSH0 SWAP1 DUP2 MSTORE PUSH1 0x4 PUSH1 0x20 MSTORE PUSH1 0x40 SWAP1 KECCAK256 SLOAD PUSH1 0xF SLOAD DUP2 LT DUP1 ISZERO SWAP1 DUP2 SWAP1 PUSH2 0x132B JUMPI POP PUSH1 0xE SLOAD PUSH1 0x1 PUSH1 0xA0 SHL SWAP1 DIV PUSH1 0xFF AND ISZERO JUMPDEST DUP1 ISZERO PUSH2 0x134F JUMPI POP PUSH1 0x1 PUSH1 0x1 PUSH1 0xA0 SHL SUB DUP7 AND PUSH0 SWAP1 DUP2 MSTORE PUSH1 0x7 PUSH1 0x20 MSTORE PUSH1 0x40 SWAP1 KECCAK256 SLOAD PUSH1 0xFF AND ISZERO JUMPDEST DUP1 ISZERO PUSH2 0x1364 JUMPI POP PUSH1 0xE SLOAD PUSH1 0x1 PUSH1 0xA8 SHL SWAP1 DIV PUSH1 0xFF AND JUMPDEST DUP1 ISZERO PUSH2 0x136D JUMPI POP DUP3 JUMPDEST ISZERO PUSH2 0x1380 JUMPI PUSH1 0xF SLOAD SWAP2 POP PUSH2 0x1380 DUP3 PUSH2 0x1582 JUMP JUMPDEST DUP3 ISZERO PUSH2 0x14CC JUMPI PUSH0 PUSH2 0x2710 PUSH1 0xD SLOAD DUP7 PUSH2 0x1398 SWAP2 SWAP1 PUSH2 0x19C3 JUMP JUMPDEST PUSH2 0x13A2 SWAP2 SWAP1 PUSH2 0x19DA JUMP JUMPDEST SWAP1 POP PUSH0 PUSH2 0x13AF DUP3 DUP8 PUSH2 0x196B JUMP JUMPDEST PUSH1 0x1 PUSH1 0x1 PUSH1 0xA0 SHL SUB DUP10 AND PUSH0 SWAP1 DUP2 MSTORE PUSH1 0x4 PUSH1 0x20 MSTORE PUSH1 0x40 SWAP1 KECCAK256 SLOAD SWAP1 SWAP2 POP PUSH2 0x13D5 SWAP1 DUP8 SWAP1 PUSH2 0x196B JUMP JUMPDEST PUSH1 0x1 PUSH1 0x1 PUSH1 0xA0 SHL SUB DUP1 DUP11 AND PUSH0 SWAP1 DUP2 MSTORE PUSH1 0x4 PUSH1 0x20 MSTORE PUSH1 0x40 DUP1 DUP3 KECCAK256 SWAP4 SWAP1 SWAP4 SSTORE SWAP1 DUP10 AND DUP2 MSTORE KECCAK256 SLOAD PUSH2 0x1404 SWAP1 DUP3 SWAP1 PUSH2 0x197E JUMP JUMPDEST PUSH1 0x1 PUSH1 0x1 PUSH1 0xA0 SHL SUB DUP9 AND PUSH0 SWAP1 DUP2 MSTORE PUSH1 0x4 PUSH1 0x20 MSTORE PUSH1 0x40 DUP1 DUP3 KECCAK256 SWAP3 SWAP1 SWAP3 SSTORE ADDRESS DUP2 MSTORE KECCAK256 SLOAD PUSH2 0x1430 SWAP1 DUP4 SWAP1 PUSH2 0x197E JUMP JUMPDEST ADDRESS PUSH0 SWAP1 DUP2 MSTORE PUSH1 0x4 PUSH1 0x20 SWAP1 DUP2 MSTORE PUSH1 0x40 SWAP2 DUP3 SWAP1 KECCAK256 SWAP3 SWAP1 SWAP3 SSTORE MLOAD DUP3 DUP2 MSTORE PUSH1 0x1 PUSH1 0x1 PUSH1 0xA0 SHL SUB DUP10 DUP2 AND SWAP3 SWAP1 DUP12 AND SWAP2 PUSH32 0xDDF252AD1BE2C89B69C2B068FC378DAA952BA7F163C4A11628F55A4DF523B3EF SWAP2 ADD PUSH1 0x40 MLOAD DUP1 SWAP2 SUB SWAP1 LOG3 PUSH1 0x40 MLOAD DUP3 DUP2 MSTORE ADDRESS SWAP1 PUSH1 0x1 PUSH1 0x1 PUSH1 0xA0 SHL SUB DUP11 AND SWAP1 PUSH32 0xDDF252AD1BE2C89B69C2B068FC378DAA952BA7F163C4A11628F55A4DF523B3EF SWAP1 PUSH1 0x20 ADD PUSH1 0x40 MLOAD DUP1 SWAP2 SUB SWAP1 LOG3 POP POP PUSH2 0x157A JUMP JUMPDEST PUSH1 0x1 PUSH1 0x1 PUSH1 0xA0 SHL SUB DUP7 AND PUSH0 SWAP1 DUP2 MSTORE PUSH1 0x4 PUSH1 0x20 MSTORE PUSH1 0x40 SWAP1 KECCAK256 SLOAD PUSH2 0x14EF SWAP1 DUP6 SWAP1 PUSH2 0x196B JUMP JUMPDEST PUSH1 0x1 PUSH1 0x1 PUSH1 0xA0 SHL SUB DUP1 DUP9 AND PUSH0 SWAP1 DUP2 MSTORE PUSH1 0x4 PUSH1 0x20 MSTORE PUSH1 0x40 DUP1 DUP3 KECCAK256 SWAP4 SWAP1 SWAP4 SSTORE SWAP1 DUP8 AND DUP2 MSTORE KECCAK256 SLOAD PUSH2 0x151E SWAP1 DUP6 SWAP1 PUSH2 0x197E JUMP JUMPDEST PUSH1 0x1 PUSH1 0x1 PUSH1 0xA0 SHL SUB DUP1 DUP8 AND PUSH0 DUP2 DUP2 MSTORE PUSH1 0x4 PUSH1 0x20 MSTORE PUSH1 0x40 SWAP1 DUP2 SWAP1 KECCAK256 SWAP4 SWAP1 SWAP4 SSTORE SWAP2 MLOAD SWAP1 DUP9 AND SWAP1 PUSH32 0xDDF252AD1BE2C89B69C2B068FC378DAA952BA7F163C4A11628F55A4DF523B3EF SWAP1 PUSH2 0x1571 SWAP1 DUP9 DUP2 MSTORE PUSH1 0x20 ADD SWAP1 JUMP JUMPDEST PUSH1 0x40 MLOAD DUP1 SWAP2 SUB SWAP1 LOG3 JUMPDEST POP POP POP POP POP POP JUMP JUMPDEST PUSH1 0x40 DUP1 MLOAD PUSH1 0x2 DUP1 DUP3 MSTORE PUSH1 0x60 DUP3 ADD DUP4 MSTORE DUP4 SWAP3 PUSH0 SWAP3 SWAP2 SWAP1 PUSH1 0x20 DUP4 ADD SWAP1 DUP1 CALLDATASIZE DUP4 CALLDATACOPY ADD SWAP1 POP POP SWAP1 POP ADDRESS DUP2 PUSH0 DUP2 MLOAD DUP2 LT PUSH2 0x15B9 JUMPI PUSH2 0x15B9 PUSH2 0x19F9 JUMP JUMPDEST PUSH1 0x20 MUL PUSH1 0x20 ADD ADD SWAP1 PUSH1 0x1 PUSH1 0x1 PUSH1 0xA0 SHL SUB AND SWAP1 DUP2 PUSH1 0x1 PUSH1 0x1 PUSH1 0xA0 SHL SUB AND DUP2 MSTORE POP POP PUSH32 0x0 PUSH1 0x1 PUSH1 0x1 PUSH1 0xA0 SHL SUB AND PUSH4 0xAD5C4648 PUSH1 0x40 MLOAD DUP2 PUSH4 0xFFFFFFFF AND PUSH1 0xE0 SHL DUP2 MSTORE PUSH1 0x4 ADD PUSH1 0x20 PUSH1 0x40 MLOAD DUP1 DUP4 SUB DUP2 DUP7 GAS STATICCALL ISZERO DUP1 ISZERO PUSH2 0x1635 JUMPI RETURNDATASIZE PUSH0 DUP1 RETURNDATACOPY RETURNDATASIZE PUSH0 REVERT JUMPDEST POP POP POP POP PUSH1 0x40 MLOAD RETURNDATASIZE PUSH1 0x1F NOT PUSH1 0x1F DUP3 ADD AND DUP3 ADD DUP1 PUSH1 0x40 MSTORE POP DUP2 ADD SWAP1 PUSH2 0x1659 SWAP2 SWAP1 PUSH2 0x1A0D JUMP JUMPDEST DUP2 PUSH1 0x1 DUP2 MLOAD DUP2 LT PUSH2 0x166C JUMPI PUSH2 0x166C PUSH2 0x19F9 JUMP JUMPDEST PUSH1 0x20 MUL PUSH1 0x20 ADD ADD SWAP1 PUSH1 0x1 PUSH1 0x1 PUSH1 0xA0 SHL SUB AND SWAP1 DUP2 PUSH1 0x1 PUSH1 0x1 PUSH1 0xA0 SHL SUB AND DUP2 MSTORE POP POP PUSH2 0x16B7 ADDRESS PUSH32 0x0 DUP6 PUSH2 0xFAB JUMP JUMPDEST PUSH1 0x40 MLOAD PUSH4 0x791AC947 PUSH1 0xE0 SHL DUP2 MSTORE PUSH1 0x1 PUSH1 0x1 PUSH1 0xA0 SHL SUB PUSH32 0x0 AND SWAP1 PUSH4 0x791AC947 SWAP1 PUSH2 0x170B SWAP1 DUP6 SWAP1 PUSH0 SWAP1 DUP7 SWAP1 ADDRESS SWAP1 TIMESTAMP SWAP1 PUSH1 0x4 ADD PUSH2 0x1A28 JUMP JUMPDEST PUSH0 PUSH1 0x40 MLOAD DUP1 DUP4 SUB DUP2 PUSH0 DUP8 DUP1 EXTCODESIZE ISZERO DUP1 ISZERO PUSH2 0x1722 JUMPI PUSH0 DUP1 REVERT JUMPDEST POP GAS CALL ISZERO DUP1 ISZERO PUSH2 0x1734 JUMPI RETURNDATASIZE PUSH0 DUP1 RETURNDATACOPY RETURNDATASIZE PUSH0 REVERT JUMPDEST POP POP PUSH1 0xE SLOAD PUSH1 0x40 MLOAD SELFBALANCE SWAP4 POP PUSH1 0x1 PUSH1 0x1 PUSH1 0xA0 SHL SUB SWAP1 SWAP2 AND SWAP2 POP DUP3 ISZERO PUSH2 0x8FC MUL SWAP1 DUP4 SWAP1 PUSH0 DUP2 DUP2 DUP2 DUP6 DUP9 DUP9 CALL SWAP4 POP POP POP POP ISZERO DUP1 ISZERO PUSH2 0x1771 JUMPI RETURNDATASIZE PUSH0 DUP1 RETURNDATACOPY RETURNDATASIZE PUSH0 REVERT JUMPDEST POP POP POP POP POP JUMP JUMPDEST PUSH1 0x1 PUSH1 0x1 PUSH1 0xA0 SHL SUB DUP2 AND DUP2 EQ PUSH2 0xFA8 JUMPI PUSH0 DUP1 REVERT JUMPDEST PUSH0 PUSH1 0x20 DUP3 DUP5 SUB SLT ISZERO PUSH2 0x179C JUMPI PUSH0 DUP1 REVERT JUMPDEST DUP2 CALLDATALOAD PUSH2 0x17A7 DUP2 PUSH2 0x1778 JUMP JUMPDEST SWAP4 SWAP3 POP POP POP JUMP JUMPDEST PUSH1 0x20 DUP2 MSTORE PUSH0 DUP3 MLOAD DUP1 PUSH1 0x20 DUP5 ADD MSTORE DUP1 PUSH1 0x20 DUP6 ADD PUSH1 0x40 DUP6 ADD MCOPY PUSH0 PUSH1 0x40 DUP3 DUP6 ADD ADD MSTORE PUSH1 0x40 PUSH1 0x1F NOT PUSH1 0x1F DUP4 ADD AND DUP5 ADD ADD SWAP2 POP POP SWAP3 SWAP2 POP POP JUMP JUMPDEST PUSH0 DUP1 PUSH1 0x40 DUP4 DUP6 SUB SLT ISZERO PUSH2 0x17F4 JUMPI PUSH0 DUP1 REVERT JUMPDEST DUP3 CALLDATALOAD PUSH2 0x17FF DUP2 PUSH2 0x1778 JUMP JUMPDEST SWAP5 PUSH1 0x20 SWAP4 SWAP1 SWAP4 ADD CALLDATALOAD SWAP4 POP POP POP JUMP JUMPDEST PUSH0 DUP1 PUSH0 PUSH1 0x60 DUP5 DUP7 SUB SLT ISZERO PUSH2 0x181F JUMPI PUSH0 DUP1 REVERT JUMPDEST DUP4 CALLDATALOAD PUSH2 0x182A DUP2 PUSH2 0x1778 JUMP JUMPDEST SWAP3 POP PUSH1 0x20 DUP5 ADD CALLDATALOAD PUSH2 0x183A DUP2 PUSH2 0x1778 JUMP JUMPDEST SWAP3 SWAP6 SWAP3 SWAP5 POP POP POP PUSH1 0x40 SWAP2 SWAP1 SWAP2 ADD CALLDATALOAD SWAP1 JUMP JUMPDEST PUSH0 DUP1 PUSH0 PUSH1 0x60 DUP5 DUP7 SUB SLT ISZERO PUSH2 0x185D JUMPI PUSH0 DUP1 REVERT JUMPDEST POP POP DUP2 CALLDATALOAD SWAP4 PUSH1 0x20 DUP4 ADD CALLDATALOAD SWAP4 POP PUSH1 0x40 SWAP1 SWAP3 ADD CALLDATALOAD SWAP2 SWAP1 POP JUMP JUMPDEST DUP1 ISZERO ISZERO DUP2 EQ PUSH2 0xFA8 JUMPI PUSH0 DUP1 REVERT JUMPDEST PUSH0 PUSH1 0x20 DUP3 DUP5 SUB SLT ISZERO PUSH2 0x1891 JUMPI PUSH0 DUP1 REVERT JUMPDEST DUP2 CALLDATALOAD PUSH2 0x17A7 DUP2 PUSH2 0x1874 JUMP JUMPDEST PUSH0 PUSH1 0x20 DUP3 DUP5 SUB SLT ISZERO PUSH2 0x18AC JUMPI PUSH0 DUP1 REVERT JUMPDEST POP CALLDATALOAD SWAP2 SWAP1 POP JUMP JUMPDEST PUSH0 DUP1 PUSH1 0x40 DUP4 DUP6 SUB SLT ISZERO PUSH2 0x18C4 JUMPI PUSH0 DUP1 REVERT JUMPDEST DUP3 CALLDATALOAD PUSH2 0x18CF DUP2 PUSH2 0x1778 JUMP JUMPDEST SWAP2 POP PUSH1 0x20 DUP4 ADD CALLDATALOAD PUSH2 0x18DF DUP2 PUSH2 0x1778 JUMP JUMPDEST DUP1 SWAP2 POP POP SWAP3 POP SWAP3 SWAP1 POP JUMP JUMPDEST PUSH1 0x20 DUP1 DUP3 MSTORE DUP2 DUP2 ADD MSTORE PUSH32 0x4F776E61626C653A2063616C6C6572206973206E6F7420746865206F776E6572 PUSH1 0x40 DUP3 ADD MSTORE PUSH1 0x60 ADD SWAP1 JUMP JUMPDEST PUSH1 0x1 DUP2 DUP2 SHR SWAP1 DUP3 AND DUP1 PUSH2 0x1933 JUMPI PUSH1 0x7F DUP3 AND SWAP2 POP JUMPDEST PUSH1 0x20 DUP3 LT DUP2 SUB PUSH2 0x1951 JUMPI PUSH4 0x4E487B71 PUSH1 0xE0 SHL PUSH0 MSTORE PUSH1 0x22 PUSH1 0x4 MSTORE PUSH1 0x24 PUSH0 REVERT JUMPDEST POP SWAP2 SWAP1 POP JUMP JUMPDEST PUSH4 0x4E487B71 PUSH1 0xE0 SHL PUSH0 MSTORE PUSH1 0x11 PUSH1 0x4 MSTORE PUSH1 0x24 PUSH0 REVERT JUMPDEST DUP2 DUP2 SUB DUP2 DUP2 GT ISZERO PUSH2 0x7E0 JUMPI PUSH2 0x7E0 PUSH2 0x1957 JUMP JUMPDEST DUP1 DUP3 ADD DUP1 DUP3 GT ISZERO PUSH2 0x7E0 JUMPI PUSH2 0x7E0 PUSH2 0x1957 JUMP JUMPDEST PUSH0 PUSH1 0x20 DUP3 DUP5 SUB SLT ISZERO PUSH2 0x19A1 JUMPI PUSH0 DUP1 REVERT JUMPDEST POP MLOAD SWAP2 SWAP1 POP JUMP JUMPDEST PUSH0 PUSH1 0x20 DUP3 DUP5 SUB SLT ISZERO PUSH2 0x19B8 JUMPI PUSH0 DUP1 REVERT JUMPDEST DUP2 MLOAD PUSH2 0x17A7 DUP2 PUSH2 0x1874 JUMP JUMPDEST DUP1 DUP3 MUL DUP2 ISZERO DUP3 DUP3 DIV DUP5 EQ OR PUSH2 0x7E0 JUMPI PUSH2 0x7E0 PUSH2 0x1957 JUMP JUMPDEST PUSH0 DUP3 PUSH2 0x19F4 JUMPI PUSH4 0x4E487B71 PUSH1 0xE0 SHL PUSH0 MSTORE PUSH1 0x12 PUSH1 0x4 MSTORE PUSH1 0x24 PUSH0 REVERT JUMPDEST POP DIV SWAP1 JUMP JUMPDEST PUSH4 0x4E487B71 PUSH1 0xE0 SHL PUSH0 MSTORE PUSH1 0x32 PUSH1 0x4 MSTORE PUSH1 0x24 PUSH0 REVERT JUMPDEST PUSH0 PUSH1 0x20 DUP3 DUP5 SUB SLT ISZERO PUSH2 0x1A1D JUMPI PUSH0 DUP1 REVERT JUMPDEST DUP2 MLOAD PUSH2 0x17A7 DUP2 PUSH2 0x1778 JUMP JUMPDEST PUSH0 PUSH1 0xA0 DUP3 ADD DUP8 DUP4 MSTORE PUSH1 0x20 DUP8 PUSH1 0x20 DUP6 ADD MSTORE PUSH1 0xA0 PUSH1 0x40 DUP6 ADD MSTORE DUP2 DUP8 MLOAD DUP1 DUP5 MSTORE PUSH1 0xC0 DUP7 ADD SWAP2 POP PUSH1 0x20 DUP10 ADD SWAP4 POP PUSH0 JUMPDEST DUP2 DUP2 LT ISZERO PUSH2 0x1A78 JUMPI DUP5 MLOAD PUSH1 0x1 PUSH1 0x1 PUSH1 0xA0 SHL SUB AND DUP4 MSTORE SWAP4 DUP4 ADD SWAP4 SWAP2 DUP4 ADD SWAP2 PUSH1 0x1 ADD PUSH2 0x1A53 JUMP JUMPDEST POP POP PUSH1 0x1 PUSH1 0x1 PUSH1 0xA0 SHL SUB SWAP7 SWAP1 SWAP7 AND PUSH1 0x60 DUP6 ADD MSTORE POP POP POP PUSH1 0x80 ADD MSTORE SWAP4 SWAP3 POP POP POP JUMP INVALID LOG2 PUSH5 0x6970667358 0x22 SLT KECCAK256 0xD 0xDC BALANCE 0xB2 DUP8 0xE0 0xDB 0xE3 CALLDATALOAD RETURN 0xC3 0xCD XOR PUSH13 0x3635781A8AA23F285317EC127 PUSH10 0xFF86FB3D64736F6C6343 STOP ADDMOD NOT STOP CALLER "
				},
				"gasEstimates": {
					"creation": {
						"codeDepositCost": "1372600",
						"executionCost": "infinite",
						"totalCost": "infinite"
					},
					"external": {
						"AMMs(address)": "2612",
						"_isExcludedFromFee(address)": "2568",
						"allowance(address,address)": "infinite",
						"approve(address,uint256)": "24678",
						"balanceOf(address)": "2639",
						"buyTeamFee()": "2361",
						"changeNumTokensSellToAddToLiquidity(uint256)": "24528",
						"decimals()": "2422",
						"decreaseAllowance(address,uint256)": "infinite",
						"enableTrading()": "26596",
						"excludeFromAMMs(address)": "26801",
						"excludeFromFee(address)": "26808",
						"includeInAMMs(address)": "26787",
						"includeInFee(address)": "26822",
						"increaseAllowance(address,uint256)": "infinite",
						"name()": "infinite",
						"numTokensSellToAddToLiquidity()": "2383",
						"owner()": "2441",
						"removeStuckToken(address)": "infinite",
						"renounceOwnership()": "30294",
						"sellTeamFee()": "2405",
						"setSwapAndLiquifyEnabled(bool)": "27805",
						"setTeamAddress(address)": "26791",
						"setTeamFeePercent(uint256,uint256,uint256)": "infinite",
						"swapAndLiquifyEnabled()": "2438",
						"symbol()": "infinite",
						"teamAddress()": "2404",
						"teamFee()": "2427",
						"totalSupply()": "2326",
						"tradingEnabled()": "2354",
						"transfer(address,uint256)": "infinite",
						"transferFee()": "2427",
						"transferFrom(address,address,uint256)": "infinite",
						"transferOwnership(address)": "30499",
						"uniswapV2Pair()": "infinite",
						"uniswapV2Router()": "infinite",
						"withdrawStuckETH()": "infinite"
					},
					"internal": {
						"_approve(address,address,uint256)": "infinite",
						"_transfer(address,address,uint256)": "infinite",
						"swapAndLiquify(uint256)": "infinite",
						"swapTokensForEth(uint256)": "infinite"
					}
				},
				"methodIdentifiers": {
					"AMMs(address)": "1e9fe6c6",
					"_isExcludedFromFee(address)": "768dc710",
					"allowance(address,address)": "dd62ed3e",
					"approve(address,uint256)": "095ea7b3",
					"balanceOf(address)": "70a08231",
					"buyTeamFee()": "9c2e4ac6",
					"changeNumTokensSellToAddToLiquidity(uint256)": "c57a6c44",
					"decimals()": "313ce567",
					"decreaseAllowance(address,uint256)": "a457c2d7",
					"enableTrading()": "8a8c523c",
					"excludeFromAMMs(address)": "5ec270c8",
					"excludeFromFee(address)": "437823ec",
					"includeInAMMs(address)": "01b95e1d",
					"includeInFee(address)": "ea2f0b37",
					"increaseAllowance(address,uint256)": "39509351",
					"name()": "06fdde03",
					"numTokensSellToAddToLiquidity()": "d12a7688",
					"owner()": "8da5cb5b",
					"removeStuckToken(address)": "e083e922",
					"renounceOwnership()": "715018a6",
					"sellTeamFee()": "d729715f",
					"setSwapAndLiquifyEnabled(bool)": "c49b9a80",
					"setTeamAddress(address)": "6690864e",
					"setTeamFeePercent(uint256,uint256,uint256)": "89e7563d",
					"swapAndLiquifyEnabled()": "4a74bb02",
					"symbol()": "95d89b41",
					"teamAddress()": "1c75f085",
					"teamFee()": "d7c94efd",
					"totalSupply()": "18160ddd",
					"tradingEnabled()": "4ada218b",
					"transfer(address,uint256)": "a9059cbb",
					"transferFee()": "acb2ad6f",
					"transferFrom(address,address,uint256)": "23b872dd",
					"transferOwnership(address)": "f2fde38b",
					"uniswapV2Pair()": "49bd5a5e",
					"uniswapV2Router()": "1694505e",
					"withdrawStuckETH()": "f5648a4f"
				}
			},
			"storageLayout": {
				"storage": [
					{
						"astId": 86,
						"contract": "contracts/tauqeer.sol:SIOE",
						"label": "_owner",
						"offset": 0,
						"slot": "0",
						"type": "t_address"
					},
					{
						"astId": 185,
						"contract": "contracts/tauqeer.sol:SIOE",
						"label": "_name",
						"offset": 0,
						"slot": "1",
						"type": "t_string_storage"
					},
					{
						"astId": 187,
						"contract": "contracts/tauqeer.sol:SIOE",
						"label": "_symbol",
						"offset": 0,
						"slot": "2",
						"type": "t_string_storage"
					},
					{
						"astId": 189,
						"contract": "contracts/tauqeer.sol:SIOE",
						"label": "_decimals",
						"offset": 0,
						"slot": "3",
						"type": "t_uint8"
					},
					{
						"astId": 945,
						"contract": "contracts/tauqeer.sol:SIOE",
						"label": "_balances",
						"offset": 0,
						"slot": "4",
						"type": "t_mapping(t_address,t_uint256)"
					},
					{
						"astId": 951,
						"contract": "contracts/tauqeer.sol:SIOE",
						"label": "_allowances",
						"offset": 0,
						"slot": "5",
						"type": "t_mapping(t_address,t_mapping(t_address,t_uint256))"
					},
					{
						"astId": 955,
						"contract": "contracts/tauqeer.sol:SIOE",
						"label": "_isExcludedFromFee",
						"offset": 0,
						"slot": "6",
						"type": "t_mapping(t_address,t_bool)"
					},
					{
						"astId": 959,
						"contract": "contracts/tauqeer.sol:SIOE",
						"label": "AMMs",
						"offset": 0,
						"slot": "7",
						"type": "t_mapping(t_address,t_bool)"
					},
					{
						"astId": 961,
						"contract": "contracts/tauqeer.sol:SIOE",
						"label": "_totalSupply",
						"offset": 0,
						"slot": "8",
						"type": "t_uint256"
					},
					{
						"astId": 963,
						"contract": "contracts/tauqeer.sol:SIOE",
						"label": "tradingEnabled",
						"offset": 0,
						"slot": "9",
						"type": "t_bool"
					},
					{
						"astId": 966,
						"contract": "contracts/tauqeer.sol:SIOE",
						"label": "buyTeamFee",
						"offset": 0,
						"slot": "10",
						"type": "t_uint256"
					},
					{
						"astId": 969,
						"contract": "contracts/tauqeer.sol:SIOE",
						"label": "sellTeamFee",
						"offset": 0,
						"slot": "11",
						"type": "t_uint256"
					},
					{
						"astId": 972,
						"contract": "contracts/tauqeer.sol:SIOE",
						"label": "transferFee",
						"offset": 0,
						"slot": "12",
						"type": "t_uint256"
					},
					{
						"astId": 974,
						"contract": "contracts/tauqeer.sol:SIOE",
						"label": "teamFee",
						"offset": 0,
						"slot": "13",
						"type": "t_uint256"
					},
					{
						"astId": 981,
						"contract": "contracts/tauqeer.sol:SIOE",
						"label": "teamAddress",
						"offset": 0,
						"slot": "14",
						"type": "t_address_payable"
					},
					{
						"astId": 983,
						"contract": "contracts/tauqeer.sol:SIOE",
						"label": "inSwapAndLiquify",
						"offset": 20,
						"slot": "14",
						"type": "t_bool"
					},
					{
						"astId": 986,
						"contract": "contracts/tauqeer.sol:SIOE",
						"label": "swapAndLiquifyEnabled",
						"offset": 21,
						"slot": "14",
						"type": "t_bool"
					},
					{
						"astId": 993,
						"contract": "contracts/tauqeer.sol:SIOE",
						"label": "numTokensSellToAddToLiquidity",
						"offset": 0,
						"slot": "15",
						"type": "t_uint256"
					}
				],
				"types": {
					"t_address": {
						"encoding": "inplace",
						"label": "address",
						"numberOfBytes": "20"
					},
					"t_address_payable": {
						"encoding": "inplace",
						"label": "address payable",
						"numberOfBytes": "20"
					},
					"t_bool": {
						"encoding": "inplace",
						"label": "bool",
						"numberOfBytes": "1"
					},
					"t_mapping(t_address,t_bool)": {
						"encoding": "mapping",
						"key": "t_address",
						"label": "mapping(address => bool)",
						"numberOfBytes": "32",
						"value": "t_bool"
					},
					"t_mapping(t_address,t_mapping(t_address,t_uint256))": {
						"encoding": "mapping",
						"key": "t_address",
						"label": "mapping(address => mapping(address => uint256))",
						"numberOfBytes": "32",
						"value": "t_mapping(t_address,t_uint256)"
					},
					"t_mapping(t_address,t_uint256)": {
						"encoding": "mapping",
						"key": "t_address",
						"label": "mapping(address => uint256)",
						"numberOfBytes": "32",
						"value": "t_uint256"
					},
					"t_string_storage": {
						"encoding": "bytes",
						"label": "string",
						"numberOfBytes": "32"
					},
					"t_uint256": {
						"encoding": "inplace",
						"label": "uint256",
						"numberOfBytes": "32"
					},
					"t_uint8": {
						"encoding": "inplace",
						"label": "uint8",
						"numberOfBytes": "1"
					}
				}
			},
			"userdoc": {
				"kind": "user",
				"methods": {},
				"version": 1
			}
		}
	}
}