{
	"data": {
		"bytecode": {
			"linkReferences": {},
			"object": "60806040526107e060085562010000600955600160e01b600a556012805460ff191690553480156200002f575f80fd5b505f80546001600160a01b03191633179055604080518082019091526005815264424e42544360d81b60208201526002906200006c908262000499565b5060405180606001604052806028815260200162001a5e6028913960039062000096908262000499565b506004805460ff19166008908117909155620000b490600a62000672565b620000c4906301406f406200067f565b60055560125460ff1615620000d7575f80fd5b6012805460ff191660011790555f6014819055600d55600554620000fd9060026200011a565b600e55600a54600b5543600655620001146200013a565b62000705565b5f80821162000127575f80fd5b620001338284620006ad565b9392505050565b600e54620001556200014b62000204565b6014549062000246565b1180156200016557506027600d54105b156200017f57600d546200017b906001620006c3565b600d555b620001ab600d546001620001949190620006c3565b620001a190600262000672565b600554906200011a565b600554620001ba9190620006d9565b600e55600754620001cd90600162000246565b6007819055600854620001e091620006ef565b5f03620001f157620001f162000268565b620001fe600143620006d9565b40600c55565b5f62000241600d5460026200021a919062000672565b6004546200022d9060ff16600a62000672565b6200023a9060326200067f565b906200011a565b905090565b5f620002538284620006c3565b90508281101562000262575f80fd5b92915050565b5f60065443620002799190620006d9565b6008549091505f6200028d8260c86200067f565b9050808310156200030a575f620002ab846200023a84606462000399565b90505f620002c96103e8620002c2846064620003c9565b90620003e3565b9050620002fe620002f482620002ed6107d0600b546200011a60201b90919060201c565b9062000399565b600b5490620003c9565b600b5550620003689050565b5f6200031d826200023a86606462000399565b90505f620003346103e8620002c2846064620003c9565b9050620003626200035882620002ed6107d0600b546200011a60201b90919060201c565b600b549062000246565b600b5550505b43600655600954600b5410156200038057600954600b555b600a54600b5411156200039457600a54600b555b505050565b5f620003a682846200067f565b9050821580620003c0575081620003be8483620006ad565b145b62000262575f80fd5b5f82821115620003d7575f80fd5b620001338284620006d9565b5f81831115620003f557508062000262565b5090919050565b634e487b7160e01b5f52604160045260245ffd5b600181811c908216806200042557607f821691505b6020821081036200044457634e487b7160e01b5f52602260045260245ffd5b50919050565b601f8211156200039457805f5260205f20601f840160051c81016020851015620004715750805b601f840160051c820191505b8181101562000492575f81556001016200047d565b5050505050565b81516001600160401b03811115620004b557620004b5620003fc565b620004cd81620004c6845462000410565b846200044a565b602080601f83116001811462000503575f8415620004eb5750858301515b5f19600386901b1c1916600185901b1785556200055d565b5f85815260208120601f198616915b82811015620005335788860151825594840194600190910190840162000512565b50858210156200055157878501515f19600388901b60f8161c191681555b505060018460011b0185555b505050505050565b634e487b7160e01b5f52601160045260245ffd5b600181815b80851115620005b957815f19048211156200059d576200059d62000565565b80851615620005ab57918102915b93841c93908002906200057e565b509250929050565b5f82620005d15750600162000262565b81620005df57505f62000262565b8160018114620005f85760028114620006035762000623565b600191505062000262565b60ff84111562000617576200061762000565565b50506001821b62000262565b5060208310610133831016604e8410600b841016171562000648575081810a62000262565b62000654838362000579565b805f19048211156200066a576200066a62000565565b029392505050565b5f620001338383620005c1565b808202811582820484141762000262576200026262000565565b634e487b7160e01b5f52601260045260245ffd5b5f82620006be57620006be62000699565b500490565b8082018082111562000262576200026262000565565b8181038181111562000262576200026262000565565b5f8262000700576200070062000699565b500690565b61134b80620007135f395ff3fe608060405234801561000f575f80fd5b506004361061021e575f3560e01c806379ba50971161012a5780639e37273b116100b4578063cb9ae70711610079578063cb9ae70714610427578063d4ee1d9014610430578063dc6e9cf914610443578063dd62ed3e1461044c578063f2fde38b14610484575f80fd5b80639e37273b146103dc578063a9059cbb146103ef578063b5ade81b14610402578063bafedcaa1461040b578063cae9ca5114610414575f80fd5b8063893d20e8116100fa578063893d20e8146103a05780638a769d35146103b05780638ae0368b146103b95780638da5cb5b146103c257806395d89b41146103d4575f80fd5b806379ba50971461037157806381269a561461037b578063829965cc1461038e57806387a2a9d614610397575f80fd5b806332e99708116101ab5780634fa972e11161017b5780634fa972e1146102f9578063660e67a5146103025780636de9f32b146103155780636fd396d61461031e57806370a0823114610349575f80fd5b806332e99708146102d85780633eaaf86b146102e0578063490203a7146102e95780634ef37628146102f1575f80fd5b806318160ddd116101f157806318160ddd1461028c57806323b872dd146102945780632979f8e3146102a75780632d38bf7a146102b0578063313ce567146102b9575f80fd5b806306fdde0314610222578063095ea7b31461024057806317da485f146102635780631801fbe514610279575b5f80fd5b61022a610497565b6040516102379190610ee5565b60405180910390f35b61025361024e366004610f12565b610523565b6040519015158152602001610237565b61026b61058f565b604051908152602001610237565b610253610287366004610f3a565b6105ac565b61026b6107c8565b6102536102a2366004610f5a565b610800565b61026b60115481565b61026b600d5481565b6004546102c69060ff1681565b60405160ff9091168152602001610237565b600b5461026b565b61026b60055481565b61026b6108fa565b600c5461026b565b61026b600e5481565b610253610310366004610f12565b61092f565b61026b60145481565b600f54610331906001600160a01b031681565b6040516001600160a01b039091168152602001610237565b61026b610357366004610f93565b6001600160a01b03165f9081526015602052604090205490565b6103796109bf565b005b610253610389366004610fac565b610a37565b61026b60075481565b61026b600a5481565b5f546001600160a01b0316610331565b61026b600b5481565b61026b600c5481565b5f54610331906001600160a01b031681565b61022a610a7f565b61026b6103ea366004610f3a565b610a8c565b6102536103fd366004610f12565b610ac3565b61026b60085481565b61026b60105481565b610253610422366004610fef565b610b57565b61026b60065481565b600154610331906001600160a01b031681565b61026b60095481565b61026b61045a3660046110b3565b6001600160a01b039182165f90815260166020908152604080832093909416825291909152205490565b610379610492366004610f93565b610c22565b600380546104a4906110e4565b80601f01602080910402602001604051908101604052809291908181526020018280546104d0906110e4565b801561051b5780601f106104f25761010080835404028352916020019161051b565b820191905f5260205f20905b8154815290600101906020018083116104fe57829003601f168201915b505050505081565b335f8181526016602090815260408083206001600160a01b038716808552925280832085905551919290917f8c5be1e5ebec7d5bd14f71427d1e84f3dd0314c0f7b2291e5b200ac8c7c3b9259061057d9086815260200190565b60405180910390a35060015b92915050565b5f6105a7600b54600a54610c5990919063ffffffff16565b905090565b5f80600c5433856040516020016105c59392919061111c565b6040516020818303038152906040528051906020012090508281146106265760405162461bcd60e51b815260206004820152601260248201527120556e6d617463686564206469676573742160701b60448201526064015b60405180910390fd5b600b54811161068c5760405162461bcd60e51b815260206004820152602c60248201527f4469676573742073686f756c64206265206c657373207468616e20746865206d60448201526b1a5b9a5b99c81d185c99d95d60a21b606482015260840161061d565b600c545f90815260136020526040902080549082905580156106ac575f80fd5b5f6106b56108fa565b335f908152601560205260409020549091506106d19082610c6f565b335f908152601560205260409020556014546106ed9082610c6f565b6014819055600e5410156107525760405162461bcd60e51b815260206004820152602660248201527f4c696d697420666f72207468652063757272656e74206572612068617320726560448201526561636865642160d01b606482015260840161061d565b600f80546001600160a01b03191633179055601081905543601155610775610c88565b600754600c5460408051848152602081019390935282015233907fcf6fbb9dcea7d07263ab4f5c3a92f53af33dffc421d9d121e1c74b307e68189d9060600160405180910390a250600195945050505050565b5f80805260156020527fa31547ce6245cdb9ecea19cf8c7eb9f5974025bb4075011409251ae855b30aed546005546105a79190611158565b6001600160a01b0383165f908152601560205260408120546108229083610d39565b6001600160a01b0385165f9081526015602090815260408083209390935560168152828220338352905220546108589083610d39565b6001600160a01b038086165f9081526016602090815260408083203384528252808320949094559186168152601590915220546108959083610c6f565b6001600160a01b038085165f8181526015602052604090819020939093559151908616907fddf252ad1be2c89b69c2b068fc378daa952ba7f163c4a11628f55a4df523b3ef906108e89086815260200190565b60405180910390a35060019392505050565b5f6105a7600d54600261090d919061124b565b60045461091e9060ff16600a61124b565b610929906032611256565b90610c59565b5f80546001600160a01b03163314610945575f80fd5b5f5460405163a9059cbb60e01b81526001600160a01b039182166004820152602481018490529084169063a9059cbb906044016020604051808303815f875af1158015610994573d5f803e3d5ffd5b505050506040513d601f19601f820116820180604052508101906109b8919061126d565b9392505050565b6001546001600160a01b031633146109d5575f80fd5b6001545f80546040516001600160a01b0393841693909116917f8be0079c531659141344cd1fd0a4f28419497f9722a3daafe3b4186f6b6457e091a3600180545f80546001600160a01b03199081166001600160a01b03841617909155169055565b5f80833387604051602001610a4e9392919061111c565b60405160208183030381529060405280519060200120905082815f1c1115610a74575f80fd5b909314949350505050565b600280546104a4906110e4565b5f80823385604051602001610aa39392919061111c565b60408051808303601f190181529190528051602090910120949350505050565b335f90815260156020526040812054610adc9083610d39565b335f90815260156020526040808220929092556001600160a01b03851681522054610b079083610c6f565b6001600160a01b0384165f818152601560205260409081902092909255905133907fddf252ad1be2c89b69c2b068fc378daa952ba7f163c4a11628f55a4df523b3ef9061057d9086815260200190565b335f8181526016602090815260408083206001600160a01b038816808552925280832086905551919290917f8c5be1e5ebec7d5bd14f71427d1e84f3dd0314c0f7b2291e5b200ac8c7c3b92590610bb19087815260200190565b60405180910390a3604051638f4ffcb160e01b81526001600160a01b03851690638f4ffcb190610beb90339087903090889060040161128c565b5f604051808303815f87803b158015610c02575f80fd5b505af1158015610c14573d5f803e3d5ffd5b506001979650505050505050565b5f546001600160a01b03163314610c37575f80fd5b600180546001600160a01b0319166001600160a01b0392909216919091179055565b5f808211610c65575f80fd5b6109b882846112dc565b5f610c7a82846112ef565b905082811015610589575f80fd5b600e54610c9f610c966108fa565b60145490610c6f565b118015610cae57506027600d54105b15610cc557600d54610cc19060016112ef565b600d555b610ceb600d546001610cd791906112ef565b610ce290600261124b565b60055490610c59565b600554610cf89190611158565b600e55600754610d09906001610c6f565b6007819055600854610d1a91611302565b5f03610d2857610d28610d50565b610d33600143611158565b40600c55565b5f82821115610d46575f80fd5b6109b88284611158565b5f60065443610d5f9190611158565b6008549091505f610d718260c8611256565b905080831015610ddf575f610d8b84610929846064610e61565b90505f610da56103e8610d9f846064610d39565b90610e8b565b9050610dd4610dcb82610dc56107d0600b54610c5990919063ffffffff16565b90610e61565b600b5490610d39565b600b5550610e329050565b5f610def82610929866064610e61565b90505f610e036103e8610d9f846064610d39565b9050610e2c610e2382610dc56107d0600b54610c5990919063ffffffff16565b600b5490610c6f565b600b5550505b43600655600954600b541015610e4957600954600b555b600a54600b541115610e5c57600a54600b555b505050565b5f610e6c8284611256565b9050821580610e83575081610e8184836112dc565b145b610589575f80fd5b5f81831115610e9b575080610589565b5090919050565b5f81518084525f5b81811015610ec657602081850181015186830182015201610eaa565b505f602082860101526020601f19601f83011685010191505092915050565b602081525f6109b86020830184610ea2565b80356001600160a01b0381168114610f0d575f80fd5b919050565b5f8060408385031215610f23575f80fd5b610f2c83610ef7565b946020939093013593505050565b5f8060408385031215610f4b575f80fd5b50508035926020909101359150565b5f805f60608486031215610f6c575f80fd5b610f7584610ef7565b9250610f8360208501610ef7565b9150604084013590509250925092565b5f60208284031215610fa3575f80fd5b6109b882610ef7565b5f805f8060808587031215610fbf575f80fd5b5050823594602084013594506040840135936060013592509050565b634e487b7160e01b5f52604160045260245ffd5b5f805f60608486031215611001575f80fd5b61100a84610ef7565b925060208401359150604084013567ffffffffffffffff8082111561102d575f80fd5b818601915086601f830112611040575f80fd5b81358181111561105257611052610fdb565b604051601f8201601f19908116603f0116810190838211818310171561107a5761107a610fdb565b81604052828152896020848701011115611092575f80fd5b826020860160208301375f6020848301015280955050505050509250925092565b5f80604083850312156110c4575f80fd5b6110cd83610ef7565b91506110db60208401610ef7565b90509250929050565b600181811c908216806110f857607f821691505b60208210810361111657634e487b7160e01b5f52602260045260245ffd5b50919050565b92835260609190911b6bffffffffffffffffffffffff19166020830152603482015260540190565b634e487b7160e01b5f52601160045260245ffd5b8181038181111561058957610589611144565b600181815b808511156111a557815f190482111561118b5761118b611144565b8085161561119857918102915b93841c9390800290611170565b509250929050565b5f826111bb57506001610589565b816111c757505f610589565b81600181146111dd57600281146111e757611203565b6001915050610589565b60ff8411156111f8576111f8611144565b50506001821b610589565b5060208310610133831016604e8410600b8410161715611226575081810a610589565b611230838361116b565b805f190482111561124357611243611144565b029392505050565b5f6109b883836111ad565b808202811582820484141761058957610589611144565b5f6020828403121561127d575f80fd5b815180151581146109b8575f80fd5b6001600160a01b03858116825260208201859052831660408201526080606082018190525f906112be90830184610ea2565b9695505050505050565b634e487b7160e01b5f52601260045260245ffd5b5f826112ea576112ea6112c8565b500490565b8082018082111561058957610589611144565b5f82611310576113106112c8565b50069056fea2646970667358221220f9b59d954dcea01f47c5fa2e130de15c286fce8987c4ff3bde8cda815296c0c464736f6c63430008180033424e626974636f696e20546f6b656e202d206d696e61626c6520626974636f696e206f6e20425343",
			"opcodes": "PUSH1 0x80 PUSH1 0x40 MSTORE PUSH2 0x7E0 PUSH1 0x8 SSTORE PUSH3 0x10000 PUSH1 0x9 SSTORE PUSH1 0x1 PUSH1 0xE0 SHL PUSH1 0xA SSTORE PUSH1 0x12 DUP1 SLOAD PUSH1 0xFF NOT AND SWAP1 SSTORE CALLVALUE DUP1 ISZERO PUSH3 0x2F JUMPI PUSH0 DUP1 REVERT JUMPDEST POP PUSH0 DUP1 SLOAD PUSH1 0x1 PUSH1 0x1 PUSH1 0xA0 SHL SUB NOT AND CALLER OR SWAP1 SSTORE PUSH1 0x40 DUP1 MLOAD DUP1 DUP3 ADD SWAP1 SWAP2 MSTORE PUSH1 0x5 DUP2 MSTORE PUSH5 0x424E425443 PUSH1 0xD8 SHL PUSH1 0x20 DUP3 ADD MSTORE PUSH1 0x2 SWAP1 PUSH3 0x6C SWAP1 DUP3 PUSH3 0x499 JUMP JUMPDEST POP PUSH1 0x40 MLOAD DUP1 PUSH1 0x60 ADD PUSH1 0x40 MSTORE DUP1 PUSH1 0x28 DUP2 MSTORE PUSH1 0x20 ADD PUSH3 0x1A5E PUSH1 0x28 SWAP2 CODECOPY PUSH1 0x3 SWAP1 PUSH3 0x96 SWAP1 DUP3 PUSH3 0x499 JUMP JUMPDEST POP PUSH1 0x4 DUP1 SLOAD PUSH1 0xFF NOT AND PUSH1 0x8 SWAP1 DUP2 OR SWAP1 SWAP2 SSTORE PUSH3 0xB4 SWAP1 PUSH1 0xA PUSH3 0x672 JUMP JUMPDEST PUSH3 0xC4 SWAP1 PUSH4 0x1406F40 PUSH3 0x67F JUMP JUMPDEST PUSH1 0x5 SSTORE PUSH1 0x12 SLOAD PUSH1 0xFF AND ISZERO PUSH3 0xD7 JUMPI PUSH0 DUP1 REVERT JUMPDEST PUSH1 0x12 DUP1 SLOAD PUSH1 0xFF NOT AND PUSH1 0x1 OR SWAP1 SSTORE PUSH0 PUSH1 0x14 DUP2 SWAP1 SSTORE PUSH1 0xD SSTORE PUSH1 0x5 SLOAD PUSH3 0xFD SWAP1 PUSH1 0x2 PUSH3 0x11A JUMP JUMPDEST PUSH1 0xE SSTORE PUSH1 0xA SLOAD PUSH1 0xB SSTORE NUMBER PUSH1 0x6 SSTORE PUSH3 0x114 PUSH3 0x13A JUMP JUMPDEST PUSH3 0x705 JUMP JUMPDEST PUSH0 DUP1 DUP3 GT PUSH3 0x127 JUMPI PUSH0 DUP1 REVERT JUMPDEST PUSH3 0x133 DUP3 DUP5 PUSH3 0x6AD JUMP JUMPDEST SWAP4 SWAP3 POP POP POP JUMP JUMPDEST PUSH1 0xE SLOAD PUSH3 0x155 PUSH3 0x14B PUSH3 0x204 JUMP JUMPDEST PUSH1 0x14 SLOAD SWAP1 PUSH3 0x246 JUMP JUMPDEST GT DUP1 ISZERO PUSH3 0x165 JUMPI POP PUSH1 0x27 PUSH1 0xD SLOAD LT JUMPDEST ISZERO PUSH3 0x17F JUMPI PUSH1 0xD SLOAD PUSH3 0x17B SWAP1 PUSH1 0x1 PUSH3 0x6C3 JUMP JUMPDEST PUSH1 0xD SSTORE JUMPDEST PUSH3 0x1AB PUSH1 0xD SLOAD PUSH1 0x1 PUSH3 0x194 SWAP2 SWAP1 PUSH3 0x6C3 JUMP JUMPDEST PUSH3 0x1A1 SWAP1 PUSH1 0x2 PUSH3 0x672 JUMP JUMPDEST PUSH1 0x5 SLOAD SWAP1 PUSH3 0x11A JUMP JUMPDEST PUSH1 0x5 SLOAD PUSH3 0x1BA SWAP2 SWAP1 PUSH3 0x6D9 JUMP JUMPDEST PUSH1 0xE SSTORE PUSH1 0x7 SLOAD PUSH3 0x1CD SWAP1 PUSH1 0x1 PUSH3 0x246 JUMP JUMPDEST PUSH1 0x7 DUP2 SWAP1 SSTORE PUSH1 0x8 SLOAD PUSH3 0x1E0 SWAP2 PUSH3 0x6EF JUMP JUMPDEST PUSH0 SUB PUSH3 0x1F1 JUMPI PUSH3 0x1F1 PUSH3 0x268 JUMP JUMPDEST PUSH3 0x1FE PUSH1 0x1 NUMBER PUSH3 0x6D9 JUMP JUMPDEST BLOCKHASH PUSH1 0xC SSTORE JUMP JUMPDEST PUSH0 PUSH3 0x241 PUSH1 0xD SLOAD PUSH1 0x2 PUSH3 0x21A SWAP2 SWAP1 PUSH3 0x672 JUMP JUMPDEST PUSH1 0x4 SLOAD PUSH3 0x22D SWAP1 PUSH1 0xFF AND PUSH1 0xA PUSH3 0x672 JUMP JUMPDEST PUSH3 0x23A SWAP1 PUSH1 0x32 PUSH3 0x67F JUMP JUMPDEST SWAP1 PUSH3 0x11A JUMP JUMPDEST SWAP1 POP SWAP1 JUMP JUMPDEST PUSH0 PUSH3 0x253 DUP3 DUP5 PUSH3 0x6C3 JUMP JUMPDEST SWAP1 POP DUP3 DUP2 LT ISZERO PUSH3 0x262 JUMPI PUSH0 DUP1 REVERT JUMPDEST SWAP3 SWAP2 POP POP JUMP JUMPDEST PUSH0 PUSH1 0x6 SLOAD NUMBER PUSH3 0x279 SWAP2 SWAP1 PUSH3 0x6D9 JUMP JUMPDEST PUSH1 0x8 SLOAD SWAP1 SWAP2 POP PUSH0 PUSH3 0x28D DUP3 PUSH1 0xC8 PUSH3 0x67F JUMP JUMPDEST SWAP1 POP DUP1 DUP4 LT ISZERO PUSH3 0x30A JUMPI PUSH0 PUSH3 0x2AB DUP5 PUSH3 0x23A DUP5 PUSH1 0x64 PUSH3 0x399 JUMP JUMPDEST SWAP1 POP PUSH0 PUSH3 0x2C9 PUSH2 0x3E8 PUSH3 0x2C2 DUP5 PUSH1 0x64 PUSH3 0x3C9 JUMP JUMPDEST SWAP1 PUSH3 0x3E3 JUMP JUMPDEST SWAP1 POP PUSH3 0x2FE PUSH3 0x2F4 DUP3 PUSH3 0x2ED PUSH2 0x7D0 PUSH1 0xB SLOAD PUSH3 0x11A PUSH1 0x20 SHL SWAP1 SWAP2 SWAP1 PUSH1 0x20 SHR JUMP JUMPDEST SWAP1 PUSH3 0x399 JUMP JUMPDEST PUSH1 0xB SLOAD SWAP1 PUSH3 0x3C9 JUMP JUMPDEST PUSH1 0xB SSTORE POP PUSH3 0x368 SWAP1 POP JUMP JUMPDEST PUSH0 PUSH3 0x31D DUP3 PUSH3 0x23A DUP7 PUSH1 0x64 PUSH3 0x399 JUMP JUMPDEST SWAP1 POP PUSH0 PUSH3 0x334 PUSH2 0x3E8 PUSH3 0x2C2 DUP5 PUSH1 0x64 PUSH3 0x3C9 JUMP JUMPDEST SWAP1 POP PUSH3 0x362 PUSH3 0x358 DUP3 PUSH3 0x2ED PUSH2 0x7D0 PUSH1 0xB SLOAD PUSH3 0x11A PUSH1 0x20 SHL SWAP1 SWAP2 SWAP1 PUSH1 0x20 SHR JUMP JUMPDEST PUSH1 0xB SLOAD SWAP1 PUSH3 0x246 JUMP JUMPDEST PUSH1 0xB SSTORE POP POP JUMPDEST NUMBER PUSH1 0x6 SSTORE PUSH1 0x9 SLOAD PUSH1 0xB SLOAD LT ISZERO PUSH3 0x380 JUMPI PUSH1 0x9 SLOAD PUSH1 0xB SSTORE JUMPDEST PUSH1 0xA SLOAD PUSH1 0xB SLOAD GT ISZERO PUSH3 0x394 JUMPI PUSH1 0xA SLOAD PUSH1 0xB SSTORE JUMPDEST POP POP POP JUMP JUMPDEST PUSH0 PUSH3 0x3A6 DUP3 DUP5 PUSH3 0x67F JUMP JUMPDEST SWAP1 POP DUP3 ISZERO DUP1 PUSH3 0x3C0 JUMPI POP DUP2 PUSH3 0x3BE DUP5 DUP4 PUSH3 0x6AD JUMP JUMPDEST EQ JUMPDEST PUSH3 0x262 JUMPI PUSH0 DUP1 REVERT JUMPDEST PUSH0 DUP3 DUP3 GT ISZERO PUSH3 0x3D7 JUMPI PUSH0 DUP1 REVERT JUMPDEST PUSH3 0x133 DUP3 DUP5 PUSH3 0x6D9 JUMP JUMPDEST PUSH0 DUP2 DUP4 GT ISZERO PUSH3 0x3F5 JUMPI POP DUP1 PUSH3 0x262 JUMP JUMPDEST POP SWAP1 SWAP2 SWAP1 POP JUMP JUMPDEST PUSH4 0x4E487B71 PUSH1 0xE0 SHL PUSH0 MSTORE PUSH1 0x41 PUSH1 0x4 MSTORE PUSH1 0x24 PUSH0 REVERT JUMPDEST PUSH1 0x1 DUP2 DUP2 SHR SWAP1 DUP3 AND DUP1 PUSH3 0x425 JUMPI PUSH1 0x7F DUP3 AND SWAP2 POP JUMPDEST PUSH1 0x20 DUP3 LT DUP2 SUB PUSH3 0x444 JUMPI PUSH4 0x4E487B71 PUSH1 0xE0 SHL PUSH0 MSTORE PUSH1 0x22 PUSH1 0x4 MSTORE PUSH1 0x24 PUSH0 REVERT JUMPDEST POP SWAP2 SWAP1 POP JUMP JUMPDEST PUSH1 0x1F DUP3 GT ISZERO PUSH3 0x394 JUMPI DUP1 PUSH0 MSTORE PUSH1 0x20 PUSH0 KECCAK256 PUSH1 0x1F DUP5 ADD PUSH1 0x5 SHR DUP2 ADD PUSH1 0x20 DUP6 LT ISZERO PUSH3 0x471 JUMPI POP DUP1 JUMPDEST PUSH1 0x1F DUP5 ADD PUSH1 0x5 SHR DUP3 ADD SWAP2 POP JUMPDEST DUP2 DUP2 LT ISZERO PUSH3 0x492 JUMPI PUSH0 DUP2 SSTORE PUSH1 0x1 ADD PUSH3 0x47D JUMP JUMPDEST POP POP POP POP POP JUMP JUMPDEST DUP2 MLOAD PUSH1 0x1 PUSH1 0x1 PUSH1 0x40 SHL SUB DUP2 GT ISZERO PUSH3 0x4B5 JUMPI PUSH3 0x4B5 PUSH3 0x3FC JUMP JUMPDEST PUSH3 0x4CD DUP2 PUSH3 0x4C6 DUP5 SLOAD PUSH3 0x410 JUMP JUMPDEST DUP5 PUSH3 0x44A JUMP JUMPDEST PUSH1 0x20 DUP1 PUSH1 0x1F DUP4 GT PUSH1 0x1 DUP2 EQ PUSH3 0x503 JUMPI PUSH0 DUP5 ISZERO PUSH3 0x4EB JUMPI POP DUP6 DUP4 ADD MLOAD JUMPDEST PUSH0 NOT PUSH1 0x3 DUP7 SWAP1 SHL SHR NOT AND PUSH1 0x1 DUP6 SWAP1 SHL OR DUP6 SSTORE PUSH3 0x55D JUMP JUMPDEST PUSH0 DUP6 DUP2 MSTORE PUSH1 0x20 DUP2 KECCAK256 PUSH1 0x1F NOT DUP7 AND SWAP2 JUMPDEST DUP3 DUP2 LT ISZERO PUSH3 0x533 JUMPI DUP9 DUP7 ADD MLOAD DUP3 SSTORE SWAP5 DUP5 ADD SWAP5 PUSH1 0x1 SWAP1 SWAP2 ADD SWAP1 DUP5 ADD PUSH3 0x512 JUMP JUMPDEST POP DUP6 DUP3 LT ISZERO PUSH3 0x551 JUMPI DUP8 DUP6 ADD MLOAD PUSH0 NOT PUSH1 0x3 DUP9 SWAP1 SHL PUSH1 0xF8 AND SHR NOT AND DUP2 SSTORE JUMPDEST POP POP PUSH1 0x1 DUP5 PUSH1 0x1 SHL ADD DUP6 SSTORE JUMPDEST POP POP POP POP POP POP JUMP JUMPDEST PUSH4 0x4E487B71 PUSH1 0xE0 SHL PUSH0 MSTORE PUSH1 0x11 PUSH1 0x4 MSTORE PUSH1 0x24 PUSH0 REVERT JUMPDEST PUSH1 0x1 DUP2 DUP2 JUMPDEST DUP1 DUP6 GT ISZERO PUSH3 0x5B9 JUMPI DUP2 PUSH0 NOT DIV DUP3 GT ISZERO PUSH3 0x59D JUMPI PUSH3 0x59D PUSH3 0x565 JUMP JUMPDEST DUP1 DUP6 AND ISZERO PUSH3 0x5AB JUMPI SWAP2 DUP2 MUL SWAP2 JUMPDEST SWAP4 DUP5 SHR SWAP4 SWAP1 DUP1 MUL SWAP1 PUSH3 0x57E JUMP JUMPDEST POP SWAP3 POP SWAP3 SWAP1 POP JUMP JUMPDEST PUSH0 DUP3 PUSH3 0x5D1 JUMPI POP PUSH1 0x1 PUSH3 0x262 JUMP JUMPDEST DUP2 PUSH3 0x5DF JUMPI POP PUSH0 PUSH3 0x262 JUMP JUMPDEST DUP2 PUSH1 0x1 DUP2 EQ PUSH3 0x5F8 JUMPI PUSH1 0x2 DUP2 EQ PUSH3 0x603 JUMPI PUSH3 0x623 JUMP JUMPDEST PUSH1 0x1 SWAP2 POP POP PUSH3 0x262 JUMP JUMPDEST PUSH1 0xFF DUP5 GT ISZERO PUSH3 0x617 JUMPI PUSH3 0x617 PUSH3 0x565 JUMP JUMPDEST POP POP PUSH1 0x1 DUP3 SHL PUSH3 0x262 JUMP JUMPDEST POP PUSH1 0x20 DUP4 LT PUSH2 0x133 DUP4 LT AND PUSH1 0x4E DUP5 LT PUSH1 0xB DUP5 LT AND OR ISZERO PUSH3 0x648 JUMPI POP DUP2 DUP2 EXP PUSH3 0x262 JUMP JUMPDEST PUSH3 0x654 DUP4 DUP4 PUSH3 0x579 JUMP JUMPDEST DUP1 PUSH0 NOT DIV DUP3 GT ISZERO PUSH3 0x66A JUMPI PUSH3 0x66A PUSH3 0x565 JUMP JUMPDEST MUL SWAP4 SWAP3 POP POP POP JUMP JUMPDEST PUSH0 PUSH3 0x133 DUP4 DUP4 PUSH3 0x5C1 JUMP JUMPDEST DUP1 DUP3 MUL DUP2 ISZERO DUP3 DUP3 DIV DUP5 EQ OR PUSH3 0x262 JUMPI PUSH3 0x262 PUSH3 0x565 JUMP JUMPDEST PUSH4 0x4E487B71 PUSH1 0xE0 SHL PUSH0 MSTORE PUSH1 0x12 PUSH1 0x4 MSTORE PUSH1 0x24 PUSH0 REVERT JUMPDEST PUSH0 DUP3 PUSH3 0x6BE JUMPI PUSH3 0x6BE PUSH3 0x699 JUMP JUMPDEST POP DIV SWAP1 JUMP JUMPDEST DUP1 DUP3 ADD DUP1 DUP3 GT ISZERO PUSH3 0x262 JUMPI PUSH3 0x262 PUSH3 0x565 JUMP JUMPDEST DUP2 DUP2 SUB DUP2 DUP2 GT ISZERO PUSH3 0x262 JUMPI PUSH3 0x262 PUSH3 0x565 JUMP JUMPDEST PUSH0 DUP3 PUSH3 0x700 JUMPI PUSH3 0x700 PUSH3 0x699 JUMP JUMPDEST POP MOD SWAP1 JUMP JUMPDEST PUSH2 0x134B DUP1 PUSH3 0x713 PUSH0 CODECOPY PUSH0 RETURN INVALID PUSH1 0x80 PUSH1 0x40 MSTORE CALLVALUE DUP1 ISZERO PUSH2 0xF JUMPI PUSH0 DUP1 REVERT JUMPDEST POP PUSH1 0x4 CALLDATASIZE LT PUSH2 0x21E JUMPI PUSH0 CALLDATALOAD PUSH1 0xE0 SHR DUP1 PUSH4 0x79BA5097 GT PUSH2 0x12A JUMPI DUP1 PUSH4 0x9E37273B GT PUSH2 0xB4 JUMPI DUP1 PUSH4 0xCB9AE707 GT PUSH2 0x79 JUMPI DUP1 PUSH4 0xCB9AE707 EQ PUSH2 0x427 JUMPI DUP1 PUSH4 0xD4EE1D90 EQ PUSH2 0x430 JUMPI DUP1 PUSH4 0xDC6E9CF9 EQ PUSH2 0x443 JUMPI DUP1 PUSH4 0xDD62ED3E EQ PUSH2 0x44C JUMPI DUP1 PUSH4 0xF2FDE38B EQ PUSH2 0x484 JUMPI PUSH0 DUP1 REVERT JUMPDEST DUP1 PUSH4 0x9E37273B EQ PUSH2 0x3DC JUMPI DUP1 PUSH4 0xA9059CBB EQ PUSH2 0x3EF JUMPI DUP1 PUSH4 0xB5ADE81B EQ PUSH2 0x402 JUMPI DUP1 PUSH4 0xBAFEDCAA EQ PUSH2 0x40B JUMPI DUP1 PUSH4 0xCAE9CA51 EQ PUSH2 0x414 JUMPI PUSH0 DUP1 REVERT JUMPDEST DUP1 PUSH4 0x893D20E8 GT PUSH2 0xFA JUMPI DUP1 PUSH4 0x893D20E8 EQ PUSH2 0x3A0 JUMPI DUP1 PUSH4 0x8A769D35 EQ PUSH2 0x3B0 JUMPI DUP1 PUSH4 0x8AE0368B EQ PUSH2 0x3B9 JUMPI DUP1 PUSH4 0x8DA5CB5B EQ PUSH2 0x3C2 JUMPI DUP1 PUSH4 0x95D89B41 EQ PUSH2 0x3D4 JUMPI PUSH0 DUP1 REVERT JUMPDEST DUP1 PUSH4 0x79BA5097 EQ PUSH2 0x371 JUMPI DUP1 PUSH4 0x81269A56 EQ PUSH2 0x37B JUMPI DUP1 PUSH4 0x829965CC EQ PUSH2 0x38E JUMPI DUP1 PUSH4 0x87A2A9D6 EQ PUSH2 0x397 JUMPI PUSH0 DUP1 REVERT JUMPDEST DUP1 PUSH4 0x32E99708 GT PUSH2 0x1AB JUMPI DUP1 PUSH4 0x4FA972E1 GT PUSH2 0x17B JUMPI DUP1 PUSH4 0x4FA972E1 EQ PUSH2 0x2F9 JUMPI DUP1 PUSH4 0x660E67A5 EQ PUSH2 0x302 JUMPI DUP1 PUSH4 0x6DE9F32B EQ PUSH2 0x315 JUMPI DUP1 PUSH4 0x6FD396D6 EQ PUSH2 0x31E JUMPI DUP1 PUSH4 0x70A08231 EQ PUSH2 0x349 JUMPI PUSH0 DUP1 REVERT JUMPDEST DUP1 PUSH4 0x32E99708 EQ PUSH2 0x2D8 JUMPI DUP1 PUSH4 0x3EAAF86B EQ PUSH2 0x2E0 JUMPI DUP1 PUSH4 0x490203A7 EQ PUSH2 0x2E9 JUMPI DUP1 PUSH4 0x4EF37628 EQ PUSH2 0x2F1 JUMPI PUSH0 DUP1 REVERT JUMPDEST DUP1 PUSH4 0x18160DDD GT PUSH2 0x1F1 JUMPI DUP1 PUSH4 0x18160DDD EQ PUSH2 0x28C JUMPI DUP1 PUSH4 0x23B872DD EQ PUSH2 0x294 JUMPI DUP1 PUSH4 0x2979F8E3 EQ PUSH2 0x2A7 JUMPI DUP1 PUSH4 0x2D38BF7A EQ PUSH2 0x2B0 JUMPI DUP1 PUSH4 0x313CE567 EQ PUSH2 0x2B9 JUMPI PUSH0 DUP1 REVERT JUMPDEST DUP1 PUSH4 0x6FDDE03 EQ PUSH2 0x222 JUMPI DUP1 PUSH4 0x95EA7B3 EQ PUSH2 0x240 JUMPI DUP1 PUSH4 0x17DA485F EQ PUSH2 0x263 JUMPI DUP1 PUSH4 0x1801FBE5 EQ PUSH2 0x279 JUMPI JUMPDEST PUSH0 DUP1 REVERT JUMPDEST PUSH2 0x22A PUSH2 0x497 JUMP JUMPDEST PUSH1 0x40 MLOAD PUSH2 0x237 SWAP2 SWAP1 PUSH2 0xEE5 JUMP JUMPDEST PUSH1 0x40 MLOAD DUP1 SWAP2 SUB SWAP1 RETURN JUMPDEST PUSH2 0x253 PUSH2 0x24E CALLDATASIZE PUSH1 0x4 PUSH2 0xF12 JUMP JUMPDEST PUSH2 0x523 JUMP JUMPDEST PUSH1 0x40 MLOAD SWAP1 ISZERO ISZERO DUP2 MSTORE PUSH1 0x20 ADD PUSH2 0x237 JUMP JUMPDEST PUSH2 0x26B PUSH2 0x58F JUMP JUMPDEST PUSH1 0x40 MLOAD SWAP1 DUP2 MSTORE PUSH1 0x20 ADD PUSH2 0x237 JUMP JUMPDEST PUSH2 0x253 PUSH2 0x287 CALLDATASIZE PUSH1 0x4 PUSH2 0xF3A JUMP JUMPDEST PUSH2 0x5AC JUMP JUMPDEST PUSH2 0x26B PUSH2 0x7C8 JUMP JUMPDEST PUSH2 0x253 PUSH2 0x2A2 CALLDATASIZE PUSH1 0x4 PUSH2 0xF5A JUMP JUMPDEST PUSH2 0x800 JUMP JUMPDEST PUSH2 0x26B PUSH1 0x11 SLOAD DUP2 JUMP JUMPDEST PUSH2 0x26B PUSH1 0xD SLOAD DUP2 JUMP JUMPDEST PUSH1 0x4 SLOAD PUSH2 0x2C6 SWAP1 PUSH1 0xFF AND DUP2 JUMP JUMPDEST PUSH1 0x40 MLOAD PUSH1 0xFF SWAP1 SWAP2 AND DUP2 MSTORE PUSH1 0x20 ADD PUSH2 0x237 JUMP JUMPDEST PUSH1 0xB SLOAD PUSH2 0x26B JUMP JUMPDEST PUSH2 0x26B PUSH1 0x5 SLOAD DUP2 JUMP JUMPDEST PUSH2 0x26B PUSH2 0x8FA JUMP JUMPDEST PUSH1 0xC SLOAD PUSH2 0x26B JUMP JUMPDEST PUSH2 0x26B PUSH1 0xE SLOAD DUP2 JUMP JUMPDEST PUSH2 0x253 PUSH2 0x310 CALLDATASIZE PUSH1 0x4 PUSH2 0xF12 JUMP JUMPDEST PUSH2 0x92F JUMP JUMPDEST PUSH2 0x26B PUSH1 0x14 SLOAD DUP2 JUMP JUMPDEST PUSH1 0xF SLOAD PUSH2 0x331 SWAP1 PUSH1 0x1 PUSH1 0x1 PUSH1 0xA0 SHL SUB AND DUP2 JUMP JUMPDEST PUSH1 0x40 MLOAD PUSH1 0x1 PUSH1 0x1 PUSH1 0xA0 SHL SUB SWAP1 SWAP2 AND DUP2 MSTORE PUSH1 0x20 ADD PUSH2 0x237 JUMP JUMPDEST PUSH2 0x26B PUSH2 0x357 CALLDATASIZE PUSH1 0x4 PUSH2 0xF93 JUMP JUMPDEST PUSH1 0x1 PUSH1 0x1 PUSH1 0xA0 SHL SUB AND PUSH0 SWAP1 DUP2 MSTORE PUSH1 0x15 PUSH1 0x20 MSTORE PUSH1 0x40 SWAP1 KECCAK256 SLOAD SWAP1 JUMP JUMPDEST PUSH2 0x379 PUSH2 0x9BF JUMP JUMPDEST STOP JUMPDEST PUSH2 0x253 PUSH2 0x389 CALLDATASIZE PUSH1 0x4 PUSH2 0xFAC JUMP JUMPDEST PUSH2 0xA37 JUMP JUMPDEST PUSH2 0x26B PUSH1 0x7 SLOAD DUP2 JUMP JUMPDEST PUSH2 0x26B PUSH1 0xA SLOAD DUP2 JUMP JUMPDEST PUSH0 SLOAD PUSH1 0x1 PUSH1 0x1 PUSH1 0xA0 SHL SUB AND PUSH2 0x331 JUMP JUMPDEST PUSH2 0x26B PUSH1 0xB SLOAD DUP2 JUMP JUMPDEST PUSH2 0x26B PUSH1 0xC SLOAD DUP2 JUMP JUMPDEST PUSH0 SLOAD PUSH2 0x331 SWAP1 PUSH1 0x1 PUSH1 0x1 PUSH1 0xA0 SHL SUB AND DUP2 JUMP JUMPDEST PUSH2 0x22A PUSH2 0xA7F JUMP JUMPDEST PUSH2 0x26B PUSH2 0x3EA CALLDATASIZE PUSH1 0x4 PUSH2 0xF3A JUMP JUMPDEST PUSH2 0xA8C JUMP JUMPDEST PUSH2 0x253 PUSH2 0x3FD CALLDATASIZE PUSH1 0x4 PUSH2 0xF12 JUMP JUMPDEST PUSH2 0xAC3 JUMP JUMPDEST PUSH2 0x26B PUSH1 0x8 SLOAD DUP2 JUMP JUMPDEST PUSH2 0x26B PUSH1 0x10 SLOAD DUP2 JUMP JUMPDEST PUSH2 0x253 PUSH2 0x422 CALLDATASIZE PUSH1 0x4 PUSH2 0xFEF JUMP JUMPDEST PUSH2 0xB57 JUMP JUMPDEST PUSH2 0x26B PUSH1 0x6 SLOAD DUP2 JUMP JUMPDEST PUSH1 0x1 SLOAD PUSH2 0x331 SWAP1 PUSH1 0x1 PUSH1 0x1 PUSH1 0xA0 SHL SUB AND DUP2 JUMP JUMPDEST PUSH2 0x26B PUSH1 0x9 SLOAD DUP2 JUMP JUMPDEST PUSH2 0x26B PUSH2 0x45A CALLDATASIZE PUSH1 0x4 PUSH2 0x10B3 JUMP JUMPDEST PUSH1 0x1 PUSH1 0x1 PUSH1 0xA0 SHL SUB SWAP2 DUP3 AND PUSH0 SWAP1 DUP2 MSTORE PUSH1 0x16 PUSH1 0x20 SWAP1 DUP2 MSTORE PUSH1 0x40 DUP1 DUP4 KECCAK256 SWAP4 SWAP1 SWAP5 AND DUP3 MSTORE SWAP2 SWAP1 SWAP2 MSTORE KECCAK256 SLOAD SWAP1 JUMP JUMPDEST PUSH2 0x379 PUSH2 0x492 CALLDATASIZE PUSH1 0x4 PUSH2 0xF93 JUMP JUMPDEST PUSH2 0xC22 JUMP JUMPDEST PUSH1 0x3 DUP1 SLOAD PUSH2 0x4A4 SWAP1 PUSH2 0x10E4 JUMP JUMPDEST DUP1 PUSH1 0x1F ADD PUSH1 0x20 DUP1 SWAP2 DIV MUL PUSH1 0x20 ADD PUSH1 0x40 MLOAD SWAP1 DUP2 ADD PUSH1 0x40 MSTORE DUP1 SWAP3 SWAP2 SWAP1 DUP2 DUP2 MSTORE PUSH1 0x20 ADD DUP3 DUP1 SLOAD PUSH2 0x4D0 SWAP1 PUSH2 0x10E4 JUMP JUMPDEST DUP1 ISZERO PUSH2 0x51B JUMPI DUP1 PUSH1 0x1F LT PUSH2 0x4F2 JUMPI PUSH2 0x100 DUP1 DUP4 SLOAD DIV MUL DUP4 MSTORE SWAP2 PUSH1 0x20 ADD SWAP2 PUSH2 0x51B JUMP JUMPDEST DUP3 ADD SWAP2 SWAP1 PUSH0 MSTORE PUSH1 0x20 PUSH0 KECCAK256 SWAP1 JUMPDEST DUP2 SLOAD DUP2 MSTORE SWAP1 PUSH1 0x1 ADD SWAP1 PUSH1 0x20 ADD DUP1 DUP4 GT PUSH2 0x4FE JUMPI DUP3 SWAP1 SUB PUSH1 0x1F AND DUP3 ADD SWAP2 JUMPDEST POP POP POP POP POP DUP2 JUMP JUMPDEST CALLER PUSH0 DUP2 DUP2 MSTORE PUSH1 0x16 PUSH1 0x20 SWAP1 DUP2 MSTORE PUSH1 0x40 DUP1 DUP4 KECCAK256 PUSH1 0x1 PUSH1 0x1 PUSH1 0xA0 SHL SUB DUP8 AND DUP1 DUP6 MSTORE SWAP3 MSTORE DUP1 DUP4 KECCAK256 DUP6 SWAP1 SSTORE MLOAD SWAP2 SWAP3 SWAP1 SWAP2 PUSH32 0x8C5BE1E5EBEC7D5BD14F71427D1E84F3DD0314C0F7B2291E5B200AC8C7C3B925 SWAP1 PUSH2 0x57D SWAP1 DUP7 DUP2 MSTORE PUSH1 0x20 ADD SWAP1 JUMP JUMPDEST PUSH1 0x40 MLOAD DUP1 SWAP2 SUB SWAP1 LOG3 POP PUSH1 0x1 JUMPDEST SWAP3 SWAP2 POP POP JUMP JUMPDEST PUSH0 PUSH2 0x5A7 PUSH1 0xB SLOAD PUSH1 0xA SLOAD PUSH2 0xC59 SWAP1 SWAP2 SWAP1 PUSH4 0xFFFFFFFF AND JUMP JUMPDEST SWAP1 POP SWAP1 JUMP JUMPDEST PUSH0 DUP1 PUSH1 0xC SLOAD CALLER DUP6 PUSH1 0x40 MLOAD PUSH1 0x20 ADD PUSH2 0x5C5 SWAP4 SWAP3 SWAP2 SWAP1 PUSH2 0x111C JUMP JUMPDEST PUSH1 0x40 MLOAD PUSH1 0x20 DUP2 DUP4 SUB SUB DUP2 MSTORE SWAP1 PUSH1 0x40 MSTORE DUP1 MLOAD SWAP1 PUSH1 0x20 ADD KECCAK256 SWAP1 POP DUP3 DUP2 EQ PUSH2 0x626 JUMPI PUSH1 0x40 MLOAD PUSH3 0x461BCD PUSH1 0xE5 SHL DUP2 MSTORE PUSH1 0x20 PUSH1 0x4 DUP3 ADD MSTORE PUSH1 0x12 PUSH1 0x24 DUP3 ADD MSTORE PUSH18 0x20556E6D6174636865642064696765737421 PUSH1 0x70 SHL PUSH1 0x44 DUP3 ADD MSTORE PUSH1 0x64 ADD JUMPDEST PUSH1 0x40 MLOAD DUP1 SWAP2 SUB SWAP1 REVERT JUMPDEST PUSH1 0xB SLOAD DUP2 GT PUSH2 0x68C JUMPI PUSH1 0x40 MLOAD PUSH3 0x461BCD PUSH1 0xE5 SHL DUP2 MSTORE PUSH1 0x20 PUSH1 0x4 DUP3 ADD MSTORE PUSH1 0x2C PUSH1 0x24 DUP3 ADD MSTORE PUSH32 0x4469676573742073686F756C64206265206C657373207468616E20746865206D PUSH1 0x44 DUP3 ADD MSTORE PUSH12 0x1A5B9A5B99C81D185C99D95D PUSH1 0xA2 SHL PUSH1 0x64 DUP3 ADD MSTORE PUSH1 0x84 ADD PUSH2 0x61D JUMP JUMPDEST PUSH1 0xC SLOAD PUSH0 SWAP1 DUP2 MSTORE PUSH1 0x13 PUSH1 0x20 MSTORE PUSH1 0x40 SWAP1 KECCAK256 DUP1 SLOAD SWAP1 DUP3 SWAP1 SSTORE DUP1 ISZERO PUSH2 0x6AC JUMPI PUSH0 DUP1 REVERT JUMPDEST PUSH0 PUSH2 0x6B5 PUSH2 0x8FA JUMP JUMPDEST CALLER PUSH0 SWAP1 DUP2 MSTORE PUSH1 0x15 PUSH1 0x20 MSTORE PUSH1 0x40 SWAP1 KECCAK256 SLOAD SWAP1 SWAP2 POP PUSH2 0x6D1 SWAP1 DUP3 PUSH2 0xC6F JUMP JUMPDEST CALLER PUSH0 SWAP1 DUP2 MSTORE PUSH1 0x15 PUSH1 0x20 MSTORE PUSH1 0x40 SWAP1 KECCAK256 SSTORE PUSH1 0x14 SLOAD PUSH2 0x6ED SWAP1 DUP3 PUSH2 0xC6F JUMP JUMPDEST PUSH1 0x14 DUP2 SWAP1 SSTORE PUSH1 0xE SLOAD LT ISZERO PUSH2 0x752 JUMPI PUSH1 0x40 MLOAD PUSH3 0x461BCD PUSH1 0xE5 SHL DUP2 MSTORE PUSH1 0x20 PUSH1 0x4 DUP3 ADD MSTORE PUSH1 0x26 PUSH1 0x24 DUP3 ADD MSTORE PUSH32 0x4C696D697420666F72207468652063757272656E742065726120686173207265 PUSH1 0x44 DUP3 ADD MSTORE PUSH6 0x616368656421 PUSH1 0xD0 SHL PUSH1 0x64 DUP3 ADD MSTORE PUSH1 0x84 ADD PUSH2 0x61D JUMP JUMPDEST PUSH1 0xF DUP1 SLOAD PUSH1 0x1 PUSH1 0x1 PUSH1 0xA0 SHL SUB NOT AND CALLER OR SWAP1 SSTORE PUSH1 0x10 DUP2 SWAP1 SSTORE NUMBER PUSH1 0x11 SSTORE PUSH2 0x775 PUSH2 0xC88 JUMP JUMPDEST PUSH1 0x7 SLOAD PUSH1 0xC SLOAD PUSH1 0x40 DUP1 MLOAD DUP5 DUP2 MSTORE PUSH1 0x20 DUP2 ADD SWAP4 SWAP1 SWAP4 MSTORE DUP3 ADD MSTORE CALLER SWAP1 PUSH32 0xCF6FBB9DCEA7D07263AB4F5C3A92F53AF33DFFC421D9D121E1C74B307E68189D SWAP1 PUSH1 0x60 ADD PUSH1 0x40 MLOAD DUP1 SWAP2 SUB SWAP1 LOG2 POP PUSH1 0x1 SWAP6 SWAP5 POP POP POP POP POP JUMP JUMPDEST PUSH0 DUP1 DUP1 MSTORE PUSH1 0x15 PUSH1 0x20 MSTORE PUSH32 0xA31547CE6245CDB9ECEA19CF8C7EB9F5974025BB4075011409251AE855B30AED SLOAD PUSH1 0x5 SLOAD PUSH2 0x5A7 SWAP2 SWAP1 PUSH2 0x1158 JUMP JUMPDEST PUSH1 0x1 PUSH1 0x1 PUSH1 0xA0 SHL SUB DUP4 AND PUSH0 SWAP1 DUP2 MSTORE PUSH1 0x15 PUSH1 0x20 MSTORE PUSH1 0x40 DUP2 KECCAK256 SLOAD PUSH2 0x822 SWAP1 DUP4 PUSH2 0xD39 JUMP JUMPDEST PUSH1 0x1 PUSH1 0x1 PUSH1 0xA0 SHL SUB DUP6 AND PUSH0 SWAP1 DUP2 MSTORE PUSH1 0x15 PUSH1 0x20 SWAP1 DUP2 MSTORE PUSH1 0x40 DUP1 DUP4 KECCAK256 SWAP4 SWAP1 SWAP4 SSTORE PUSH1 0x16 DUP2 MSTORE DUP3 DUP3 KECCAK256 CALLER DUP4 MSTORE SWAP1 MSTORE KECCAK256 SLOAD PUSH2 0x858 SWAP1 DUP4 PUSH2 0xD39 JUMP JUMPDEST PUSH1 0x1 PUSH1 0x1 PUSH1 0xA0 SHL SUB DUP1 DUP7 AND PUSH0 SWAP1 DUP2 MSTORE PUSH1 0x16 PUSH1 0x20 SWAP1 DUP2 MSTORE PUSH1 0x40 DUP1 DUP4 KECCAK256 CALLER DUP5 MSTORE DUP3 MSTORE DUP1 DUP4 KECCAK256 SWAP5 SWAP1 SWAP5 SSTORE SWAP2 DUP7 AND DUP2 MSTORE PUSH1 0x15 SWAP1 SWAP2 MSTORE KECCAK256 SLOAD PUSH2 0x895 SWAP1 DUP4 PUSH2 0xC6F JUMP JUMPDEST PUSH1 0x1 PUSH1 0x1 PUSH1 0xA0 SHL SUB DUP1 DUP6 AND PUSH0 DUP2 DUP2 MSTORE PUSH1 0x15 PUSH1 0x20 MSTORE PUSH1 0x40 SWAP1 DUP2 SWAP1 KECCAK256 SWAP4 SWAP1 SWAP4 SSTORE SWAP2 MLOAD SWAP1 DUP7 AND SWAP1 PUSH32 0xDDF252AD1BE2C89B69C2B068FC378DAA952BA7F163C4A11628F55A4DF523B3EF SWAP1 PUSH2 0x8E8 SWAP1 DUP7 DUP2 MSTORE PUSH1 0x20 ADD SWAP1 JUMP JUMPDEST PUSH1 0x40 MLOAD DUP1 SWAP2 SUB SWAP1 LOG3 POP PUSH1 0x1 SWAP4 SWAP3 POP POP POP JUMP JUMPDEST PUSH0 PUSH2 0x5A7 PUSH1 0xD SLOAD PUSH1 0x2 PUSH2 0x90D SWAP2 SWAP1 PUSH2 0x124B JUMP JUMPDEST PUSH1 0x4 SLOAD PUSH2 0x91E SWAP1 PUSH1 0xFF AND PUSH1 0xA PUSH2 0x124B JUMP JUMPDEST PUSH2 0x929 SWAP1 PUSH1 0x32 PUSH2 0x1256 JUMP JUMPDEST SWAP1 PUSH2 0xC59 JUMP JUMPDEST PUSH0 DUP1 SLOAD PUSH1 0x1 PUSH1 0x1 PUSH1 0xA0 SHL SUB AND CALLER EQ PUSH2 0x945 JUMPI PUSH0 DUP1 REVERT JUMPDEST PUSH0 SLOAD PUSH1 0x40 MLOAD PUSH4 0xA9059CBB PUSH1 0xE0 SHL DUP2 MSTORE PUSH1 0x1 PUSH1 0x1 PUSH1 0xA0 SHL SUB SWAP2 DUP3 AND PUSH1 0x4 DUP3 ADD MSTORE PUSH1 0x24 DUP2 ADD DUP5 SWAP1 MSTORE SWAP1 DUP5 AND SWAP1 PUSH4 0xA9059CBB SWAP1 PUSH1 0x44 ADD PUSH1 0x20 PUSH1 0x40 MLOAD DUP1 DUP4 SUB DUP2 PUSH0 DUP8 GAS CALL ISZERO DUP1 ISZERO PUSH2 0x994 JUMPI RETURNDATASIZE PUSH0 DUP1 RETURNDATACOPY RETURNDATASIZE PUSH0 REVERT JUMPDEST POP POP POP POP PUSH1 0x40 MLOAD RETURNDATASIZE PUSH1 0x1F NOT PUSH1 0x1F DUP3 ADD AND DUP3 ADD DUP1 PUSH1 0x40 MSTORE POP DUP2 ADD SWAP1 PUSH2 0x9B8 SWAP2 SWAP1 PUSH2 0x126D JUMP JUMPDEST SWAP4 SWAP3 POP POP POP JUMP JUMPDEST PUSH1 0x1 SLOAD PUSH1 0x1 PUSH1 0x1 PUSH1 0xA0 SHL SUB AND CALLER EQ PUSH2 0x9D5 JUMPI PUSH0 DUP1 REVERT JUMPDEST PUSH1 0x1 SLOAD PUSH0 DUP1 SLOAD PUSH1 0x40 MLOAD PUSH1 0x1 PUSH1 0x1 PUSH1 0xA0 SHL SUB SWAP4 DUP5 AND SWAP4 SWAP1 SWAP2 AND SWAP2 PUSH32 0x8BE0079C531659141344CD1FD0A4F28419497F9722A3DAAFE3B4186F6B6457E0 SWAP2 LOG3 PUSH1 0x1 DUP1 SLOAD PUSH0 DUP1 SLOAD PUSH1 0x1 PUSH1 0x1 PUSH1 0xA0 SHL SUB NOT SWAP1 DUP2 AND PUSH1 0x1 PUSH1 0x1 PUSH1 0xA0 SHL SUB DUP5 AND OR SWAP1 SWAP2 SSTORE AND SWAP1 SSTORE JUMP JUMPDEST PUSH0 DUP1 DUP4 CALLER DUP8 PUSH1 0x40 MLOAD PUSH1 0x20 ADD PUSH2 0xA4E SWAP4 SWAP3 SWAP2 SWAP1 PUSH2 0x111C JUMP JUMPDEST PUSH1 0x40 MLOAD PUSH1 0x20 DUP2 DUP4 SUB SUB DUP2 MSTORE SWAP1 PUSH1 0x40 MSTORE DUP1 MLOAD SWAP1 PUSH1 0x20 ADD KECCAK256 SWAP1 POP DUP3 DUP2 PUSH0 SHR GT ISZERO PUSH2 0xA74 JUMPI PUSH0 DUP1 REVERT JUMPDEST SWAP1 SWAP4 EQ SWAP5 SWAP4 POP POP POP POP JUMP JUMPDEST PUSH1 0x2 DUP1 SLOAD PUSH2 0x4A4 SWAP1 PUSH2 0x10E4 JUMP JUMPDEST PUSH0 DUP1 DUP3 CALLER DUP6 PUSH1 0x40 MLOAD PUSH1 0x20 ADD PUSH2 0xAA3 SWAP4 SWAP3 SWAP2 SWAP1 PUSH2 0x111C JUMP JUMPDEST PUSH1 0x40 DUP1 MLOAD DUP1 DUP4 SUB PUSH1 0x1F NOT ADD DUP2 MSTORE SWAP2 SWAP1 MSTORE DUP1 MLOAD PUSH1 0x20 SWAP1 SWAP2 ADD KECCAK256 SWAP5 SWAP4 POP POP POP POP JUMP JUMPDEST CALLER PUSH0 SWAP1 DUP2 MSTORE PUSH1 0x15 PUSH1 0x20 MSTORE PUSH1 0x40 DUP2 KECCAK256 SLOAD PUSH2 0xADC SWAP1 DUP4 PUSH2 0xD39 JUMP JUMPDEST CALLER PUSH0 SWAP1 DUP2 MSTORE PUSH1 0x15 PUSH1 0x20 MSTORE PUSH1 0x40 DUP1 DUP3 KECCAK256 SWAP3 SWAP1 SWAP3 SSTORE PUSH1 0x1 PUSH1 0x1 PUSH1 0xA0 SHL SUB DUP6 AND DUP2 MSTORE KECCAK256 SLOAD PUSH2 0xB07 SWAP1 DUP4 PUSH2 0xC6F JUMP JUMPDEST PUSH1 0x1 PUSH1 0x1 PUSH1 0xA0 SHL SUB DUP5 AND PUSH0 DUP2 DUP2 MSTORE PUSH1 0x15 PUSH1 0x20 MSTORE PUSH1 0x40 SWAP1 DUP2 SWAP1 KECCAK256 SWAP3 SWAP1 SWAP3 SSTORE SWAP1 MLOAD CALLER SWAP1 PUSH32 0xDDF252AD1BE2C89B69C2B068FC378DAA952BA7F163C4A11628F55A4DF523B3EF SWAP1 PUSH2 0x57D SWAP1 DUP7 DUP2 MSTORE PUSH1 0x20 ADD SWAP1 JUMP JUMPDEST CALLER PUSH0 DUP2 DUP2 MSTORE PUSH1 0x16 PUSH1 0x20 SWAP1 DUP2 MSTORE PUSH1 0x40 DUP1 DUP4 KECCAK256 PUSH1 0x1 PUSH1 0x1 PUSH1 0xA0 SHL SUB DUP9 AND DUP1 DUP6 MSTORE SWAP3 MSTORE DUP1 DUP4 KECCAK256 DUP7 SWAP1 SSTORE MLOAD SWAP2 SWAP3 SWAP1 SWAP2 PUSH32 0x8C5BE1E5EBEC7D5BD14F71427D1E84F3DD0314C0F7B2291E5B200AC8C7C3B925 SWAP1 PUSH2 0xBB1 SWAP1 DUP8 DUP2 MSTORE PUSH1 0x20 ADD SWAP1 JUMP JUMPDEST PUSH1 0x40 MLOAD DUP1 SWAP2 SUB SWAP1 LOG3 PUSH1 0x40 MLOAD PUSH4 0x8F4FFCB1 PUSH1 0xE0 SHL DUP2 MSTORE PUSH1 0x1 PUSH1 0x1 PUSH1 0xA0 SHL SUB DUP6 AND SWAP1 PUSH4 0x8F4FFCB1 SWAP1 PUSH2 0xBEB SWAP1 CALLER SWAP1 DUP8 SWAP1 ADDRESS SWAP1 DUP9 SWAP1 PUSH1 0x4 ADD PUSH2 0x128C JUMP JUMPDEST PUSH0 PUSH1 0x40 MLOAD DUP1 DUP4 SUB DUP2 PUSH0 DUP8 DUP1 EXTCODESIZE ISZERO DUP1 ISZERO PUSH2 0xC02 JUMPI PUSH0 DUP1 REVERT JUMPDEST POP GAS CALL ISZERO DUP1 ISZERO PUSH2 0xC14 JUMPI RETURNDATASIZE PUSH0 DUP1 RETURNDATACOPY RETURNDATASIZE PUSH0 REVERT JUMPDEST POP PUSH1 0x1 SWAP8 SWAP7 POP POP POP POP POP POP POP JUMP JUMPDEST PUSH0 SLOAD PUSH1 0x1 PUSH1 0x1 PUSH1 0xA0 SHL SUB AND CALLER EQ PUSH2 0xC37 JUMPI PUSH0 DUP1 REVERT JUMPDEST PUSH1 0x1 DUP1 SLOAD PUSH1 0x1 PUSH1 0x1 PUSH1 0xA0 SHL SUB NOT AND PUSH1 0x1 PUSH1 0x1 PUSH1 0xA0 SHL SUB SWAP3 SWAP1 SWAP3 AND SWAP2 SWAP1 SWAP2 OR SWAP1 SSTORE JUMP JUMPDEST PUSH0 DUP1 DUP3 GT PUSH2 0xC65 JUMPI PUSH0 DUP1 REVERT JUMPDEST PUSH2 0x9B8 DUP3 DUP5 PUSH2 0x12DC JUMP JUMPDEST PUSH0 PUSH2 0xC7A DUP3 DUP5 PUSH2 0x12EF JUMP JUMPDEST SWAP1 POP DUP3 DUP2 LT ISZERO PUSH2 0x589 JUMPI PUSH0 DUP1 REVERT JUMPDEST PUSH1 0xE SLOAD PUSH2 0xC9F PUSH2 0xC96 PUSH2 0x8FA JUMP JUMPDEST PUSH1 0x14 SLOAD SWAP1 PUSH2 0xC6F JUMP JUMPDEST GT DUP1 ISZERO PUSH2 0xCAE JUMPI POP PUSH1 0x27 PUSH1 0xD SLOAD LT JUMPDEST ISZERO PUSH2 0xCC5 JUMPI PUSH1 0xD SLOAD PUSH2 0xCC1 SWAP1 PUSH1 0x1 PUSH2 0x12EF JUMP JUMPDEST PUSH1 0xD SSTORE JUMPDEST PUSH2 0xCEB PUSH1 0xD SLOAD PUSH1 0x1 PUSH2 0xCD7 SWAP2 SWAP1 PUSH2 0x12EF JUMP JUMPDEST PUSH2 0xCE2 SWAP1 PUSH1 0x2 PUSH2 0x124B JUMP JUMPDEST PUSH1 0x5 SLOAD SWAP1 PUSH2 0xC59 JUMP JUMPDEST PUSH1 0x5 SLOAD PUSH2 0xCF8 SWAP2 SWAP1 PUSH2 0x1158 JUMP JUMPDEST PUSH1 0xE SSTORE PUSH1 0x7 SLOAD PUSH2 0xD09 SWAP1 PUSH1 0x1 PUSH2 0xC6F JUMP JUMPDEST PUSH1 0x7 DUP2 SWAP1 SSTORE PUSH1 0x8 SLOAD PUSH2 0xD1A SWAP2 PUSH2 0x1302 JUMP JUMPDEST PUSH0 SUB PUSH2 0xD28 JUMPI PUSH2 0xD28 PUSH2 0xD50 JUMP JUMPDEST PUSH2 0xD33 PUSH1 0x1 NUMBER PUSH2 0x1158 JUMP JUMPDEST BLOCKHASH PUSH1 0xC SSTORE JUMP JUMPDEST PUSH0 DUP3 DUP3 GT ISZERO PUSH2 0xD46 JUMPI PUSH0 DUP1 REVERT JUMPDEST PUSH2 0x9B8 DUP3 DUP5 PUSH2 0x1158 JUMP JUMPDEST PUSH0 PUSH1 0x6 SLOAD NUMBER PUSH2 0xD5F SWAP2 SWAP1 PUSH2 0x1158 JUMP JUMPDEST PUSH1 0x8 SLOAD SWAP1 SWAP2 POP PUSH0 PUSH2 0xD71 DUP3 PUSH1 0xC8 PUSH2 0x1256 JUMP JUMPDEST SWAP1 POP DUP1 DUP4 LT ISZERO PUSH2 0xDDF JUMPI PUSH0 PUSH2 0xD8B DUP5 PUSH2 0x929 DUP5 PUSH1 0x64 PUSH2 0xE61 JUMP JUMPDEST SWAP1 POP PUSH0 PUSH2 0xDA5 PUSH2 0x3E8 PUSH2 0xD9F DUP5 PUSH1 0x64 PUSH2 0xD39 JUMP JUMPDEST SWAP1 PUSH2 0xE8B JUMP JUMPDEST SWAP1 POP PUSH2 0xDD4 PUSH2 0xDCB DUP3 PUSH2 0xDC5 PUSH2 0x7D0 PUSH1 0xB SLOAD PUSH2 0xC59 SWAP1 SWAP2 SWAP1 PUSH4 0xFFFFFFFF AND JUMP JUMPDEST SWAP1 PUSH2 0xE61 JUMP JUMPDEST PUSH1 0xB SLOAD SWAP1 PUSH2 0xD39 JUMP JUMPDEST PUSH1 0xB SSTORE POP PUSH2 0xE32 SWAP1 POP JUMP JUMPDEST PUSH0 PUSH2 0xDEF DUP3 PUSH2 0x929 DUP7 PUSH1 0x64 PUSH2 0xE61 JUMP JUMPDEST SWAP1 POP PUSH0 PUSH2 0xE03 PUSH2 0x3E8 PUSH2 0xD9F DUP5 PUSH1 0x64 PUSH2 0xD39 JUMP JUMPDEST SWAP1 POP PUSH2 0xE2C PUSH2 0xE23 DUP3 PUSH2 0xDC5 PUSH2 0x7D0 PUSH1 0xB SLOAD PUSH2 0xC59 SWAP1 SWAP2 SWAP1 PUSH4 0xFFFFFFFF AND JUMP JUMPDEST PUSH1 0xB SLOAD SWAP1 PUSH2 0xC6F JUMP JUMPDEST PUSH1 0xB SSTORE POP POP JUMPDEST NUMBER PUSH1 0x6 SSTORE PUSH1 0x9 SLOAD PUSH1 0xB SLOAD LT ISZERO PUSH2 0xE49 JUMPI PUSH1 0x9 SLOAD PUSH1 0xB SSTORE JUMPDEST PUSH1 0xA SLOAD PUSH1 0xB SLOAD GT ISZERO PUSH2 0xE5C JUMPI PUSH1 0xA SLOAD PUSH1 0xB SSTORE JUMPDEST POP POP POP JUMP JUMPDEST PUSH0 PUSH2 0xE6C DUP3 DUP5 PUSH2 0x1256 JUMP JUMPDEST SWAP1 POP DUP3 ISZERO DUP1 PUSH2 0xE83 JUMPI POP DUP2 PUSH2 0xE81 DUP5 DUP4 PUSH2 0x12DC JUMP JUMPDEST EQ JUMPDEST PUSH2 0x589 JUMPI PUSH0 DUP1 REVERT JUMPDEST PUSH0 DUP2 DUP4 GT ISZERO PUSH2 0xE9B JUMPI POP DUP1 PUSH2 0x589 JUMP JUMPDEST POP SWAP1 SWAP2 SWAP1 POP JUMP JUMPDEST PUSH0 DUP2 MLOAD DUP1 DUP5 MSTORE PUSH0 JUMPDEST DUP2 DUP2 LT ISZERO PUSH2 0xEC6 JUMPI PUSH1 0x20 DUP2 DUP6 ADD DUP2 ADD MLOAD DUP7 DUP4 ADD DUP3 ADD MSTORE ADD PUSH2 0xEAA JUMP JUMPDEST POP PUSH0 PUSH1 0x20 DUP3 DUP7 ADD ADD MSTORE PUSH1 0x20 PUSH1 0x1F NOT PUSH1 0x1F DUP4 ADD AND DUP6 ADD ADD SWAP2 POP POP SWAP3 SWAP2 POP POP JUMP JUMPDEST PUSH1 0x20 DUP2 MSTORE PUSH0 PUSH2 0x9B8 PUSH1 0x20 DUP4 ADD DUP5 PUSH2 0xEA2 JUMP JUMPDEST DUP1 CALLDATALOAD PUSH1 0x1 PUSH1 0x1 PUSH1 0xA0 SHL SUB DUP2 AND DUP2 EQ PUSH2 0xF0D JUMPI PUSH0 DUP1 REVERT JUMPDEST SWAP2 SWAP1 POP JUMP JUMPDEST PUSH0 DUP1 PUSH1 0x40 DUP4 DUP6 SUB SLT ISZERO PUSH2 0xF23 JUMPI PUSH0 DUP1 REVERT JUMPDEST PUSH2 0xF2C DUP4 PUSH2 0xEF7 JUMP JUMPDEST SWAP5 PUSH1 0x20 SWAP4 SWAP1 SWAP4 ADD CALLDATALOAD SWAP4 POP POP POP JUMP JUMPDEST PUSH0 DUP1 PUSH1 0x40 DUP4 DUP6 SUB SLT ISZERO PUSH2 0xF4B JUMPI PUSH0 DUP1 REVERT JUMPDEST POP POP DUP1 CALLDATALOAD SWAP3 PUSH1 0x20 SWAP1 SWAP2 ADD CALLDATALOAD SWAP2 POP JUMP JUMPDEST PUSH0 DUP1 PUSH0 PUSH1 0x60 DUP5 DUP7 SUB SLT ISZERO PUSH2 0xF6C JUMPI PUSH0 DUP1 REVERT JUMPDEST PUSH2 0xF75 DUP5 PUSH2 0xEF7 JUMP JUMPDEST SWAP3 POP PUSH2 0xF83 PUSH1 0x20 DUP6 ADD PUSH2 0xEF7 JUMP JUMPDEST SWAP2 POP PUSH1 0x40 DUP5 ADD CALLDATALOAD SWAP1 POP SWAP3 POP SWAP3 POP SWAP3 JUMP JUMPDEST PUSH0 PUSH1 0x20 DUP3 DUP5 SUB SLT ISZERO PUSH2 0xFA3 JUMPI PUSH0 DUP1 REVERT JUMPDEST PUSH2 0x9B8 DUP3 PUSH2 0xEF7 JUMP JUMPDEST PUSH0 DUP1 PUSH0 DUP1 PUSH1 0x80 DUP6 DUP8 SUB SLT ISZERO PUSH2 0xFBF JUMPI PUSH0 DUP1 REVERT JUMPDEST POP POP DUP3 CALLDATALOAD SWAP5 PUSH1 0x20 DUP5 ADD CALLDATALOAD SWAP5 POP PUSH1 0x40 DUP5 ADD CALLDATALOAD SWAP4 PUSH1 0x60 ADD CALLDATALOAD SWAP3 POP SWAP1 POP JUMP JUMPDEST PUSH4 0x4E487B71 PUSH1 0xE0 SHL PUSH0 MSTORE PUSH1 0x41 PUSH1 0x4 MSTORE PUSH1 0x24 PUSH0 REVERT JUMPDEST PUSH0 DUP1 PUSH0 PUSH1 0x60 DUP5 DUP7 SUB SLT ISZERO PUSH2 0x1001 JUMPI PUSH0 DUP1 REVERT JUMPDEST PUSH2 0x100A DUP5 PUSH2 0xEF7 JUMP JUMPDEST SWAP3 POP PUSH1 0x20 DUP5 ADD CALLDATALOAD SWAP2 POP PUSH1 0x40 DUP5 ADD CALLDATALOAD PUSH8 0xFFFFFFFFFFFFFFFF DUP1 DUP3 GT ISZERO PUSH2 0x102D JUMPI PUSH0 DUP1 REVERT JUMPDEST DUP2 DUP7 ADD SWAP2 POP DUP7 PUSH1 0x1F DUP4 ADD SLT PUSH2 0x1040 JUMPI PUSH0 DUP1 REVERT JUMPDEST DUP2 CALLDATALOAD DUP2 DUP2 GT ISZERO PUSH2 0x1052 JUMPI PUSH2 0x1052 PUSH2 0xFDB JUMP JUMPDEST PUSH1 0x40 MLOAD PUSH1 0x1F DUP3 ADD PUSH1 0x1F NOT SWAP1 DUP2 AND PUSH1 0x3F ADD AND DUP2 ADD SWAP1 DUP4 DUP3 GT DUP2 DUP4 LT OR ISZERO PUSH2 0x107A JUMPI PUSH2 0x107A PUSH2 0xFDB JUMP JUMPDEST DUP2 PUSH1 0x40 MSTORE DUP3 DUP2 MSTORE DUP10 PUSH1 0x20 DUP5 DUP8 ADD ADD GT ISZERO PUSH2 0x1092 JUMPI PUSH0 DUP1 REVERT JUMPDEST DUP3 PUSH1 0x20 DUP7 ADD PUSH1 0x20 DUP4 ADD CALLDATACOPY PUSH0 PUSH1 0x20 DUP5 DUP4 ADD ADD MSTORE DUP1 SWAP6 POP POP POP POP POP POP SWAP3 POP SWAP3 POP SWAP3 JUMP JUMPDEST PUSH0 DUP1 PUSH1 0x40 DUP4 DUP6 SUB SLT ISZERO PUSH2 0x10C4 JUMPI PUSH0 DUP1 REVERT JUMPDEST PUSH2 0x10CD DUP4 PUSH2 0xEF7 JUMP JUMPDEST SWAP2 POP PUSH2 0x10DB PUSH1 0x20 DUP5 ADD PUSH2 0xEF7 JUMP JUMPDEST SWAP1 POP SWAP3 POP SWAP3 SWAP1 POP JUMP JUMPDEST PUSH1 0x1 DUP2 DUP2 SHR SWAP1 DUP3 AND DUP1 PUSH2 0x10F8 JUMPI PUSH1 0x7F DUP3 AND SWAP2 POP JUMPDEST PUSH1 0x20 DUP3 LT DUP2 SUB PUSH2 0x1116 JUMPI PUSH4 0x4E487B71 PUSH1 0xE0 SHL PUSH0 MSTORE PUSH1 0x22 PUSH1 0x4 MSTORE PUSH1 0x24 PUSH0 REVERT JUMPDEST POP SWAP2 SWAP1 POP JUMP JUMPDEST SWAP3 DUP4 MSTORE PUSH1 0x60 SWAP2 SWAP1 SWAP2 SHL PUSH12 0xFFFFFFFFFFFFFFFFFFFFFFFF NOT AND PUSH1 0x20 DUP4 ADD MSTORE PUSH1 0x34 DUP3 ADD MSTORE PUSH1 0x54 ADD SWAP1 JUMP JUMPDEST PUSH4 0x4E487B71 PUSH1 0xE0 SHL PUSH0 MSTORE PUSH1 0x11 PUSH1 0x4 MSTORE PUSH1 0x24 PUSH0 REVERT JUMPDEST DUP2 DUP2 SUB DUP2 DUP2 GT ISZERO PUSH2 0x589 JUMPI PUSH2 0x589 PUSH2 0x1144 JUMP JUMPDEST PUSH1 0x1 DUP2 DUP2 JUMPDEST DUP1 DUP6 GT ISZERO PUSH2 0x11A5 JUMPI DUP2 PUSH0 NOT DIV DUP3 GT ISZERO PUSH2 0x118B JUMPI PUSH2 0x118B PUSH2 0x1144 JUMP JUMPDEST DUP1 DUP6 AND ISZERO PUSH2 0x1198 JUMPI SWAP2 DUP2 MUL SWAP2 JUMPDEST SWAP4 DUP5 SHR SWAP4 SWAP1 DUP1 MUL SWAP1 PUSH2 0x1170 JUMP JUMPDEST POP SWAP3 POP SWAP3 SWAP1 POP JUMP JUMPDEST PUSH0 DUP3 PUSH2 0x11BB JUMPI POP PUSH1 0x1 PUSH2 0x589 JUMP JUMPDEST DUP2 PUSH2 0x11C7 JUMPI POP PUSH0 PUSH2 0x589 JUMP JUMPDEST DUP2 PUSH1 0x1 DUP2 EQ PUSH2 0x11DD JUMPI PUSH1 0x2 DUP2 EQ PUSH2 0x11E7 JUMPI PUSH2 0x1203 JUMP JUMPDEST PUSH1 0x1 SWAP2 POP POP PUSH2 0x589 JUMP JUMPDEST PUSH1 0xFF DUP5 GT ISZERO PUSH2 0x11F8 JUMPI PUSH2 0x11F8 PUSH2 0x1144 JUMP JUMPDEST POP POP PUSH1 0x1 DUP3 SHL PUSH2 0x589 JUMP JUMPDEST POP PUSH1 0x20 DUP4 LT PUSH2 0x133 DUP4 LT AND PUSH1 0x4E DUP5 LT PUSH1 0xB DUP5 LT AND OR ISZERO PUSH2 0x1226 JUMPI POP DUP2 DUP2 EXP PUSH2 0x589 JUMP JUMPDEST PUSH2 0x1230 DUP4 DUP4 PUSH2 0x116B JUMP JUMPDEST DUP1 PUSH0 NOT DIV DUP3 GT ISZERO PUSH2 0x1243 JUMPI PUSH2 0x1243 PUSH2 0x1144 JUMP JUMPDEST MUL SWAP4 SWAP3 POP POP POP JUMP JUMPDEST PUSH0 PUSH2 0x9B8 DUP4 DUP4 PUSH2 0x11AD JUMP JUMPDEST DUP1 DUP3 MUL DUP2 ISZERO DUP3 DUP3 DIV DUP5 EQ OR PUSH2 0x589 JUMPI PUSH2 0x589 PUSH2 0x1144 JUMP JUMPDEST PUSH0 PUSH1 0x20 DUP3 DUP5 SUB SLT ISZERO PUSH2 0x127D JUMPI PUSH0 DUP1 REVERT JUMPDEST DUP2 MLOAD DUP1 ISZERO ISZERO DUP2 EQ PUSH2 0x9B8 JUMPI PUSH0 DUP1 REVERT JUMPDEST PUSH1 0x1 PUSH1 0x1 PUSH1 0xA0 SHL SUB DUP6 DUP2 AND DUP3 MSTORE PUSH1 0x20 DUP3 ADD DUP6 SWAP1 MSTORE DUP4 AND PUSH1 0x40 DUP3 ADD MSTORE PUSH1 0x80 PUSH1 0x60 DUP3 ADD DUP2 SWAP1 MSTORE PUSH0 SWAP1 PUSH2 0x12BE SWAP1 DUP4 ADD DUP5 PUSH2 0xEA2 JUMP JUMPDEST SWAP7 SWAP6 POP POP POP POP POP POP JUMP JUMPDEST PUSH4 0x4E487B71 PUSH1 0xE0 SHL PUSH0 MSTORE PUSH1 0x12 PUSH1 0x4 MSTORE PUSH1 0x24 PUSH0 REVERT JUMPDEST PUSH0 DUP3 PUSH2 0x12EA JUMPI PUSH2 0x12EA PUSH2 0x12C8 JUMP JUMPDEST POP DIV SWAP1 JUMP JUMPDEST DUP1 DUP3 ADD DUP1 DUP3 GT ISZERO PUSH2 0x589 JUMPI PUSH2 0x589 PUSH2 0x1144 JUMP JUMPDEST PUSH0 DUP3 PUSH2 0x1310 JUMPI PUSH2 0x1310 PUSH2 0x12C8 JUMP JUMPDEST POP MOD SWAP1 JUMP INVALID LOG2 PUSH5 0x6970667358 0x22 SLT KECCAK256 0xF9 0xB5 SWAP14 SWAP6 0x4D 0xCE LOG0 0x1F SELFBALANCE 0xC5 STATICCALL 0x2E SGT 0xD 0xE1 TLOAD 0x28 PUSH16 0xCE8987C4FF3BDE8CDA815296C0C46473 PUSH16 0x6C63430008180033424E626974636F69 PUSH15 0x20546F6B656E202D206D696E61626C PUSH6 0x20626974636F PUSH10 0x6E206F6E204253430000 "
		},
		"gasEstimates": {
			"creation": {
				"codeDepositCost": "987800",
				"executionCost": "infinite",
				"totalCost": "infinite"
			},
			"external": {
				"_BLOCKS_PER_READJUSTMENT()": "2383",
				"_MAXIMUM_TARGET()": "2406",
				"_MINIMUM_TARGET()": "2382",
				"_totalSupply()": "2362",
				"acceptOwnership()": "56562",
				"allowance(address,address)": "infinite",
				"approve(address,uint256)": "24566",
				"approveAndCall(address,uint256,bytes)": "infinite",
				"balanceOf(address)": "2667",
				"challengeNumber()": "2383",
				"checkMintSolution(uint256,bytes32,bytes32,uint256)": "706",
				"decimals()": "2446",
				"epochCount()": "2384",
				"getChallengeNumber()": "2403",
				"getMiningDifficulty()": "infinite",
				"getMiningReward()": "infinite",
				"getMiningTarget()": "2337",
				"getMintDigest(uint256,bytes32)": "605",
				"getOwner()": "2374",
				"lastRewardAmount()": "2405",
				"lastRewardBscBlockNumber()": "2384",
				"lastRewardTo()": "2447",
				"latestDifficultyPeriodStarted()": "2338",
				"maxSupplyForEra()": "2339",
				"miningTarget()": "2361",
				"mint(uint256,bytes32)": "infinite",
				"name()": "infinite",
				"newOwner()": "2402",
				"owner()": "2446",
				"rewardEra()": "2406",
				"symbol()": "infinite",
				"tokensMinted()": "2383",
				"totalSupply()": "4555",
				"transfer(address,uint256)": "infinite",
				"transferAnyBEP20Token(address,uint256)": "infinite",
				"transferFrom(address,address,uint256)": "infinite",
				"transferOwnership(address)": "26840"
			},
			"internal": {
				"_reAdjustDifficulty()": "infinite",
				"_startNewMiningEpoch()": "infinite"
			}
		},
		"methodIdentifiers": {
			"_BLOCKS_PER_READJUSTMENT()": "b5ade81b",
			"_MAXIMUM_TARGET()": "87a2a9d6",
			"_MINIMUM_TARGET()": "dc6e9cf9",
			"_totalSupply()": "3eaaf86b",
			"acceptOwnership()": "79ba5097",
			"allowance(address,address)": "dd62ed3e",
			"approve(address,uint256)": "095ea7b3",
			"approveAndCall(address,uint256,bytes)": "cae9ca51",
			"balanceOf(address)": "70a08231",
			"challengeNumber()": "8ae0368b",
			"checkMintSolution(uint256,bytes32,bytes32,uint256)": "81269a56",
			"decimals()": "313ce567",
			"epochCount()": "829965cc",
			"getChallengeNumber()": "4ef37628",
			"getMiningDifficulty()": "17da485f",
			"getMiningReward()": "490203a7",
			"getMiningTarget()": "32e99708",
			"getMintDigest(uint256,bytes32)": "9e37273b",
			"getOwner()": "893d20e8",
			"lastRewardAmount()": "bafedcaa",
			"lastRewardBscBlockNumber()": "2979f8e3",
			"lastRewardTo()": "6fd396d6",
			"latestDifficultyPeriodStarted()": "cb9ae707",
			"maxSupplyForEra()": "4fa972e1",
			"miningTarget()": "8a769d35",
			"mint(uint256,bytes32)": "1801fbe5",
			"name()": "06fdde03",
			"newOwner()": "d4ee1d90",
			"owner()": "8da5cb5b",
			"rewardEra()": "2d38bf7a",
			"symbol()": "95d89b41",
			"tokensMinted()": "6de9f32b",
			"totalSupply()": "18160ddd",
			"transfer(address,uint256)": "a9059cbb",
			"transferAnyBEP20Token(address,uint256)": "660e67a5",
			"transferFrom(address,address,uint256)": "23b872dd",
			"transferOwnership(address)": "f2fde38b"
		}
	},
	"abi": [
		{
			"inputs": [],
			"stateMutability": "nonpayable",
			"type": "constructor"
		},
		{
			"anonymous": false,
			"inputs": [
				{
					"indexed": true,
					"internalType": "address",
					"name": "tokenOwner",
					"type": "address"
				},
				{
					"indexed": true,
					"internalType": "address",
					"name": "spender",
					"type": "address"
				},
				{
					"indexed": false,
					"internalType": "uint256",
					"name": "tokens",
					"type": "uint256"
				}
			],
			"name": "Approval",
			"type": "event"
		},
		{
			"anonymous": false,
			"inputs": [
				{
					"indexed": true,
					"internalType": "address",
					"name": "from",
					"type": "address"
				},
				{
					"indexed": false,
					"internalType": "uint256",
					"name": "reward_amount",
					"type": "uint256"
				},
				{
					"indexed": false,
					"internalType": "uint256",
					"name": "epochCount",
					"type": "uint256"
				},
				{
					"indexed": false,
					"internalType": "bytes32",
					"name": "newChallengeNumber",
					"type": "bytes32"
				}
			],
			"name": "Mint",
			"type": "event"
		},
		{
			"anonymous": false,
			"inputs": [
				{
					"indexed": true,
					"internalType": "address",
					"name": "_from",
					"type": "address"
				},
				{
					"indexed": true,
					"internalType": "address",
					"name": "_to",
					"type": "address"
				}
			],
			"name": "OwnershipTransferred",
			"type": "event"
		},
		{
			"anonymous": false,
			"inputs": [
				{
					"indexed": true,
					"internalType": "address",
					"name": "from",
					"type": "address"
				},
				{
					"indexed": true,
					"internalType": "address",
					"name": "to",
					"type": "address"
				},
				{
					"indexed": false,
					"internalType": "uint256",
					"name": "tokens",
					"type": "uint256"
				}
			],
			"name": "Transfer",
			"type": "event"
		},
		{
			"inputs": [],
			"name": "_BLOCKS_PER_READJUSTMENT",
			"outputs": [
				{
					"internalType": "uint256",
					"name": "",
					"type": "uint256"
				}
			],
			"stateMutability": "view",
			"type": "function"
		},
		{
			"inputs": [],
			"name": "_MAXIMUM_TARGET",
			"outputs": [
				{
					"internalType": "uint256",
					"name": "",
					"type": "uint256"
				}
			],
			"stateMutability": "view",
			"type": "function"
		},
		{
			"inputs": [],
			"name": "_MINIMUM_TARGET",
			"outputs": [
				{
					"internalType": "uint256",
					"name": "",
					"type": "uint256"
				}
			],
			"stateMutability": "view",
			"type": "function"
		},
		{
			"inputs": [],
			"name": "_totalSupply",
			"outputs": [
				{
					"internalType": "uint256",
					"name": "",
					"type": "uint256"
				}
			],
			"stateMutability": "view",
			"type": "function"
		},
		{
			"inputs": [],
			"name": "acceptOwnership",
			"outputs": [],
			"stateMutability": "nonpayable",
			"type": "function"
		},
		{
			"inputs": [
				{
					"internalType": "address",
					"name": "tokenOwner",
					"type": "address"
				},
				{
					"internalType": "address",
					"name": "spender",
					"type": "address"
				}
			],
			"name": "allowance",
			"outputs": [
				{
					"internalType": "uint256",
					"name": "remaining",
					"type": "uint256"
				}
			],
			"stateMutability": "view",
			"type": "function"
		},
		{
			"inputs": [
				{
					"internalType": "address",
					"name": "spender",
					"type": "address"
				},
				{
					"internalType": "uint256",
					"name": "tokens",
					"type": "uint256"
				}
			],
			"name": "approve",
			"outputs": [
				{
					"internalType": "bool",
					"name": "success",
					"type": "bool"
				}
			],
			"stateMutability": "nonpayable",
			"type": "function"
		},
		{
			"inputs": [
				{
					"internalType": "address",
					"name": "spender",
					"type": "address"
				},
				{
					"internalType": "uint256",
					"name": "tokens",
					"type": "uint256"
				},
				{
					"internalType": "bytes",
					"name": "data",
					"type": "bytes"
				}
			],
			"name": "approveAndCall",
			"outputs": [
				{
					"internalType": "bool",
					"name": "success",
					"type": "bool"
				}
			],
			"stateMutability": "nonpayable",
			"type": "function"
		},
		{
			"inputs": [
				{
					"internalType": "address",
					"name": "tokenOwner",
					"type": "address"
				}
			],
			"name": "balanceOf",
			"outputs": [
				{
					"internalType": "uint256",
					"name": "balance",
					"type": "uint256"
				}
			],
			"stateMutability": "view",
			"type": "function"
		},
		{
			"inputs": [],
			"name": "challengeNumber",
			"outputs": [
				{
					"internalType": "bytes32",
					"name": "",
					"type": "bytes32"
				}
			],
			"stateMutability": "view",
			"type": "function"
		},
		{
			"inputs": [
				{
					"internalType": "uint256",
					"name": "nonce",
					"type": "uint256"
				},
				{
					"internalType": "bytes32",
					"name": "challenge_digest",
					"type": "bytes32"
				},
				{
					"internalType": "bytes32",
					"name": "challenge_number",
					"type": "bytes32"
				},
				{
					"internalType": "uint256",
					"name": "testTarget",
					"type": "uint256"
				}
			],
			"name": "checkMintSolution",
			"outputs": [
				{
					"internalType": "bool",
					"name": "success",
					"type": "bool"
				}
			],
			"stateMutability": "view",
			"type": "function"
		},
		{
			"inputs": [],
			"name": "decimals",
			"outputs": [
				{
					"internalType": "uint8",
					"name": "",
					"type": "uint8"
				}
			],
			"stateMutability": "view",
			"type": "function"
		},
		{
			"inputs": [],
			"name": "epochCount",
			"outputs": [
				{
					"internalType": "uint256",
					"name": "",
					"type": "uint256"
				}
			],
			"stateMutability": "view",
			"type": "function"
		},
		{
			"inputs": [],
			"name": "getChallengeNumber",
			"outputs": [
				{
					"internalType": "bytes32",
					"name": "",
					"type": "bytes32"
				}
			],
			"stateMutability": "view",
			"type": "function"
		},
		{
			"inputs": [],
			"name": "getMiningDifficulty",
			"outputs": [
				{
					"internalType": "uint256",
					"name": "",
					"type": "uint256"
				}
			],
			"stateMutability": "view",
			"type": "function"
		},
		{
			"inputs": [],
			"name": "getMiningReward",
			"outputs": [
				{
					"internalType": "uint256",
					"name": "",
					"type": "uint256"
				}
			],
			"stateMutability": "view",
			"type": "function"
		},
		{
			"inputs": [],
			"name": "getMiningTarget",
			"outputs": [
				{
					"internalType": "uint256",
					"name": "",
					"type": "uint256"
				}
			],
			"stateMutability": "view",
			"type": "function"
		},
		{
			"inputs": [
				{
					"internalType": "uint256",
					"name": "nonce",
					"type": "uint256"
				},
				{
					"internalType": "bytes32",
					"name": "challenge_number",
					"type": "bytes32"
				}
			],
			"name": "getMintDigest",
			"outputs": [
				{
					"internalType": "bytes32",
					"name": "digesttest",
					"type": "bytes32"
				}
			],
			"stateMutability": "view",
			"type": "function"
		},
		{
			"inputs": [],
			"name": "getOwner",
			"outputs": [
				{
					"internalType": "address",
					"name": "",
					"type": "address"
				}
			],
			"stateMutability": "view",
			"type": "function"
		},
		{
			"inputs": [],
			"name": "lastRewardAmount",
			"outputs": [
				{
					"internalType": "uint256",
					"name": "",
					"type": "uint256"
				}
			],
			"stateMutability": "view",
			"type": "function"
		},
		{
			"inputs": [],
			"name": "lastRewardBscBlockNumber",
			"outputs": [
				{
					"internalType": "uint256",
					"name": "",
					"type": "uint256"
				}
			],
			"stateMutability": "view",
			"type": "function"
		},
		{
			"inputs": [],
			"name": "lastRewardTo",
			"outputs": [
				{
					"internalType": "address",
					"name": "",
					"type": "address"
				}
			],
			"stateMutability": "view",
			"type": "function"
		},
		{
			"inputs": [],
			"name": "latestDifficultyPeriodStarted",
			"outputs": [
				{
					"internalType": "uint256",
					"name": "",
					"type": "uint256"
				}
			],
			"stateMutability": "view",
			"type": "function"
		},
		{
			"inputs": [],
			"name": "maxSupplyForEra",
			"outputs": [
				{
					"internalType": "uint256",
					"name": "",
					"type": "uint256"
				}
			],
			"stateMutability": "view",
			"type": "function"
		},
		{
			"inputs": [],
			"name": "miningTarget",
			"outputs": [
				{
					"internalType": "uint256",
					"name": "",
					"type": "uint256"
				}
			],
			"stateMutability": "view",
			"type": "function"
		},
		{
			"inputs": [
				{
					"internalType": "uint256",
					"name": "nonce",
					"type": "uint256"
				},
				{
					"internalType": "bytes32",
					"name": "challenge_digest",
					"type": "bytes32"
				}
			],
			"name": "mint",
			"outputs": [
				{
					"internalType": "bool",
					"name": "success",
					"type": "bool"
				}
			],
			"stateMutability": "nonpayable",
			"type": "function"
		},
		{
			"inputs": [],
			"name": "name",
			"outputs": [
				{
					"internalType": "string",
					"name": "",
					"type": "string"
				}
			],
			"stateMutability": "view",
			"type": "function"
		},
		{
			"inputs": [],
			"name": "newOwner",
			"outputs": [
				{
					"internalType": "address",
					"name": "",
					"type": "address"
				}
			],
			"stateMutability": "view",
			"type": "function"
		},
		{
			"inputs": [],
			"name": "owner",
			"outputs": [
				{
					"internalType": "address",
					"name": "",
					"type": "address"
				}
			],
			"stateMutability": "view",
			"type": "function"
		},
		{
			"inputs": [],
			"name": "rewardEra",
			"outputs": [
				{
					"internalType": "uint256",
					"name": "",
					"type": "uint256"
				}
			],
			"stateMutability": "view",
			"type": "function"
		},
		{
			"inputs": [],
			"name": "symbol",
			"outputs": [
				{
					"internalType": "string",
					"name": "",
					"type": "string"
				}
			],
			"stateMutability": "view",
			"type": "function"
		},
		{
			"inputs": [],
			"name": "tokensMinted",
			"outputs": [
				{
					"internalType": "uint256",
					"name": "",
					"type": "uint256"
				}
			],
			"stateMutability": "view",
			"type": "function"
		},
		{
			"inputs": [],
			"name": "totalSupply",
			"outputs": [
				{
					"internalType": "uint256",
					"name": "",
					"type": "uint256"
				}
			],
			"stateMutability": "view",
			"type": "function"
		},
		{
			"inputs": [
				{
					"internalType": "address",
					"name": "to",
					"type": "address"
				},
				{
					"internalType": "uint256",
					"name": "tokens",
					"type": "uint256"
				}
			],
			"name": "transfer",
			"outputs": [
				{
					"internalType": "bool",
					"name": "success",
					"type": "bool"
				}
			],
			"stateMutability": "nonpayable",
			"type": "function"
		},
		{
			"inputs": [
				{
					"internalType": "address",
					"name": "tokenAddress",
					"type": "address"
				},
				{
					"internalType": "uint256",
					"name": "tokens",
					"type": "uint256"
				}
			],
			"name": "transferAnyBEP20Token",
			"outputs": [
				{
					"internalType": "bool",
					"name": "success",
					"type": "bool"
				}
			],
			"stateMutability": "nonpayable",
			"type": "function"
		},
		{
			"inputs": [
				{
					"internalType": "address",
					"name": "from",
					"type": "address"
				},
				{
					"internalType": "address",
					"name": "to",
					"type": "address"
				},
				{
					"internalType": "uint256",
					"name": "tokens",
					"type": "uint256"
				}
			],
			"name": "transferFrom",
			"outputs": [
				{
					"internalType": "bool",
					"name": "success",
					"type": "bool"
				}
			],
			"stateMutability": "nonpayable",
			"type": "function"
		},
		{
			"inputs": [
				{
					"internalType": "address",
					"name": "_newOwner",
					"type": "address"
				}
			],
			"name": "transferOwnership",
			"outputs": [],
			"stateMutability": "nonpayable",
			"type": "function"
		}
	]
}