{
	"data": {
		"bytecode": {
			"linkReferences": {},
			"object": "60806040526107e060085562010000600955600160e01b600a556012805460ff191690553480156200002f575f80fd5b505f80546001600160a01b0319163317905560408051808201909152600381526245564360e81b60208201526002906200006a90826200026c565b5060408051808201909152601181527022b632bb30ba32b2102830bc9021b7b4b760791b6020820152600390620000a290826200026c565b506004805460ff19166008908117909155620000c090600a62000447565b620000d0906301406f406200045b565b60055560125460ff1615620000e3575f80fd5b6012805460ff19166001179055600454620001039060ff16600a62000447565b6200011290629896806200045b565b335f90815260156020526040812080549091906200013290849062000475565b90915550506004546200014a9060ff16600a62000447565b6200015990629896806200045b565b601481905560405190815233905f907fddf252ad1be2c89b69c2b068fc378daa952ba7f163c4a11628f55a4df523b3ef9060200160405180910390a35f600d55600554620001aa906002906200048b565b600e55620001ba600143620004ab565b40600c55600a54600b5543600655620004c1565b634e487b7160e01b5f52604160045260245ffd5b600181811c90821680620001f757607f821691505b6020821081036200021657634e487b7160e01b5f52602260045260245ffd5b50919050565b601f8211156200026757805f5260205f20601f840160051c81016020851015620002435750805b601f840160051c820191505b8181101562000264575f81556001016200024f565b50505b505050565b81516001600160401b03811115620002885762000288620001ce565b620002a081620002998454620001e2565b846200021c565b602080601f831160018114620002d6575f8415620002be5750858301515b5f19600386901b1c1916600185901b17855562000330565b5f85815260208120601f198616915b828110156200030657888601518255948401946001909101908401620002e5565b50858210156200032457878501515f19600388901b60f8161c191681555b505060018460011b0185555b505050505050565b634e487b7160e01b5f52601160045260245ffd5b600181815b808511156200038c57815f190482111562000370576200037062000338565b808516156200037e57918102915b93841c939080029062000351565b509250929050565b5f82620003a45750600162000441565b81620003b257505f62000441565b8160018114620003cb5760028114620003d657620003f6565b600191505062000441565b60ff841115620003ea57620003ea62000338565b50506001821b62000441565b5060208310610133831016604e8410600b84101617156200041b575081810a62000441565b6200042783836200034c565b805f19048211156200043d576200043d62000338565b0290505b92915050565b5f62000454838362000394565b9392505050565b808202811582820484141762000441576200044162000338565b8082018082111562000441576200044162000338565b5f82620004a657634e487b7160e01b5f52601260045260245ffd5b500490565b8181038181111562000441576200044162000338565b61124c80620004cf5f395ff3fe608060405234801561000f575f80fd5b506004361061021e575f3560e01c8063829965cc1161012a578063bafedcaa116100b4578063dc6e9cf911610079578063dc6e9cf914610427578063dd62ed3e14610430578063e30ccffe14610468578063f2fde38b1461047b578063fc6065f01461048e575f80fd5b8063bafedcaa146103dc578063cae9ca51146103e5578063cb9ae707146103f8578063d4ee1d9014610401578063dc39d06d14610414575f80fd5b80638ae0368b116100fa5780638ae0368b1461039d5780638da5cb5b146103a657806395d89b41146103b8578063a9059cbb146103c0578063b5ade81b146103d3575f80fd5b8063829965cc1461037257806387a2a9d61461037b578063893d20e8146103845780638a769d3514610394575f80fd5b806332e99708116101ab5780634ef376281161017b5780634ef37628146103045780634fa972e11461030c5780636fd396d61461031557806370a082311461034057806379ba509714610368575f80fd5b806332e99708146102d85780633eaaf86b146102e0578063490203a7146102e95780634d474898146102f1575f80fd5b8063238511d1116101f1578063238511d11461028157806323b872dd146102945780632979f8e3146102a75780632d38bf7a146102b0578063313ce567146102b9575f80fd5b806306fdde0314610222578063095ea7b31461024057806317da485f1461026357806318160ddd14610279575b5f80fd5b61022a610497565b6040516102379190610dbb565b60405180910390f35b61025361024e366004610de8565b610523565b6040519015158152602001610237565b61026b61058f565b604051908152602001610237565b61026b6105a5565b61026b61028f366004610e10565b6105dd565b6102536102a2366004610e30565b610614565b61026b60115481565b61026b600d5481565b6004546102c69060ff1681565b60405160ff9091168152602001610237565b600b5461026b565b61026b60055481565b61026b6106fe565b6102536102ff366004610e69565b610734565b600c5461026b565b61026b600e5481565b600f54610328906001600160a01b031681565b6040516001600160a01b039091168152602001610237565b61026b61034e366004610e80565b6001600160a01b03165f9081526015602052604090205490565b61037061089c565b005b61026b60075481565b61026b600a5481565b5f546001600160a01b0316610328565b61026b600b5481565b61026b600c5481565b5f54610328906001600160a01b031681565b61022a610914565b6102536103ce366004610de8565b610921565b61026b60085481565b61026b60105481565b6102536103f3366004610ead565b6109af565b61026b60065481565b600154610328906001600160a01b031681565b610253610422366004610de8565b610a7a565b61026b60095481565b61026b61043e366004610f71565b6001600160a01b039182165f90815260166020908152604080832093909416825291909152205490565b610253610476366004610fa2565b610b0a565b610370610489366004610e80565b610b52565b61026b60145481565b600380546104a490610fd1565b80601f01602080910402602001604051908101604052809291908181526020018280546104d090610fd1565b801561051b5780601f106104f25761010080835404028352916020019161051b565b820191905f5260205f20905b8154815290600101906020018083116104fe57829003601f168201915b505050505081565b335f8181526016602090815260408083206001600160a01b038716808552925280832085905551919290917f8c5be1e5ebec7d5bd14f71427d1e84f3dd0314c0f7b2291e5b200ac8c7c3b9259061057d9086815260200190565b60405180910390a35060015b92915050565b5f600b54600a546105a09190611031565b905090565b5f80805260156020527fa31547ce6245cdb9ecea19cf8c7eb9f5974025bb4075011409251ae855b30aed546005546105a09190611044565b5f808233856040516020016105f493929190611057565b60408051808303601f190181529190528051602090910120949350505050565b6001600160a01b0383165f9081526015602052604081208054839190839061063d908490611044565b90915550506001600160a01b0384165f90815260166020908152604080832033845290915281208054849290610674908490611044565b90915550506001600160a01b0383165f90815260156020526040812080548492906106a090849061107f565b92505081905550826001600160a01b0316846001600160a01b03167fddf252ad1be2c89b69c2b068fc378daa952ba7f163c4a11628f55a4df523b3ef846040516106ec91815260200190565b60405180910390a35060019392505050565b5f600d54600261070e9190611172565b60045461071f9060ff16600a611172565b61072a90603261117d565b6105a09190611031565b5f80600c54338460405160200161074d93929190611057565b604051602081830303815290604052805190602001209050600b54815f1c116107ae5760405162461bcd60e51b815260206004820152600f60248201526e4572726f7220696e206d696e696e6760881b604482015260640160405180910390fd5b600c545f90815260136020526040902080549082905580156107ce575f80fd5b5f6107d76106fe565b335f908152601560205260409020549091506107f490829061107f565b335f9081526015602052604090205560145461081190829061107f565b6014819055600e54101561082757610827611194565b600f80546001600160a01b0319163317905560108190554360115561084a610b89565b600754600c5460408051848152602081019390935282015233907f8455d83776d779d2ba1b4d3d7982a014b3574cd164e1d9841be8e2d60289d0da9060600160405180910390a2506001949350505050565b6001546001600160a01b031633146108b2575f80fd5b6001545f80546040516001600160a01b0393841693909116917f8be0079c531659141344cd1fd0a4f28419497f9722a3daafe3b4186f6b6457e091a3600180545f80546001600160a01b03199081166001600160a01b03841617909155169055565b600280546104a490610fd1565b335f90815260156020526040812080548391908390610941908490611044565b90915550506001600160a01b0383165f908152601560205260408120805484929061096d90849061107f565b90915550506040518281526001600160a01b0384169033907fddf252ad1be2c89b69c2b068fc378daa952ba7f163c4a11628f55a4df523b3ef9060200161057d565b335f8181526016602090815260408083206001600160a01b038816808552925280832086905551919290917f8c5be1e5ebec7d5bd14f71427d1e84f3dd0314c0f7b2291e5b200ac8c7c3b92590610a099087815260200190565b60405180910390a3604051638f4ffcb160e01b81526001600160a01b03851690638f4ffcb190610a439033908790309088906004016111a8565b5f604051808303815f87803b158015610a5a575f80fd5b505af1158015610a6c573d5f803e3d5ffd5b506001979650505050505050565b5f80546001600160a01b03163314610a90575f80fd5b5f5460405163a9059cbb60e01b81526001600160a01b039182166004820152602481018490529084169063a9059cbb906044016020604051808303815f875af1158015610adf573d5f803e3d5ffd5b505050506040513d601f19601f82011682018060405250810190610b0391906111e4565b9392505050565b5f80833387604051602001610b2193929190611057565b60405160208183030381529060405280519060200120905082815f1c1115610b47575f80fd5b909314949350505050565b5f546001600160a01b03163314610b67575f80fd5b600180546001600160a01b0319166001600160a01b0392909216919091179055565b600e54610b946106fe565b601454610ba1919061107f565b118015610bb057506027600d54105b15610bc757600d54610bc390600161107f565b600d555b600d54610bd590600161107f565b610be0906002611172565b600554610bed9190611031565b600554610bfa9190611044565b600e81905550600160075f828254610c12919061107f565b9091555050600854600754610c279190611203565b5f03610c3557610c35610c46565b610c40600143611044565b40600c55565b5f60065443610c559190611044565b6008549091505f610c678260c861117d565b905080831015610cd7575f83610c7e83606461117d565b610c889190611031565b90505f610ca26103e8610c9c606485611044565b90610d61565b9050806107d0600b54610cb59190611031565b610cbf919061117d565b600b54610ccc9190611044565b600b5550610d329050565b5f81610ce485606461117d565b610cee9190611031565b90505f610d026103e8610c9c606485611044565b9050806107d0600b54610d159190611031565b610d1f919061117d565b600b54610d2c919061107f565b600b5550505b43600655600954600b541015610d4957600954600b555b600a54600b541115610d5c57600a54600b555b505050565b5f81831115610d71575080610589565b5090919050565b5f81518084525f5b81811015610d9c57602081850181015186830182015201610d80565b505f602082860101526020601f19601f83011685010191505092915050565b602081525f610b036020830184610d78565b80356001600160a01b0381168114610de3575f80fd5b919050565b5f8060408385031215610df9575f80fd5b610e0283610dcd565b946020939093013593505050565b5f8060408385031215610e21575f80fd5b50508035926020909101359150565b5f805f60608486031215610e42575f80fd5b610e4b84610dcd565b9250610e5960208501610dcd565b9150604084013590509250925092565b5f60208284031215610e79575f80fd5b5035919050565b5f60208284031215610e90575f80fd5b610b0382610dcd565b634e487b7160e01b5f52604160045260245ffd5b5f805f60608486031215610ebf575f80fd5b610ec884610dcd565b925060208401359150604084013567ffffffffffffffff80821115610eeb575f80fd5b818601915086601f830112610efe575f80fd5b813581811115610f1057610f10610e99565b604051601f8201601f19908116603f01168101908382118183101715610f3857610f38610e99565b81604052828152896020848701011115610f50575f80fd5b826020860160208301375f6020848301015280955050505050509250925092565b5f8060408385031215610f82575f80fd5b610f8b83610dcd565b9150610f9960208401610dcd565b90509250929050565b5f805f8060808587031215610fb5575f80fd5b5050823594602084013594506040840135936060013592509050565b600181811c90821680610fe557607f821691505b60208210810361100357634e487b7160e01b5f52602260045260245ffd5b50919050565b634e487b7160e01b5f52601260045260245ffd5b634e487b7160e01b5f52601160045260245ffd5b5f8261103f5761103f611009565b500490565b818103818111156105895761058961101d565b92835260609190911b6bffffffffffffffffffffffff19166020830152603482015260540190565b808201808211156105895761058961101d565b600181815b808511156110cc57815f19048211156110b2576110b261101d565b808516156110bf57918102915b93841c9390800290611097565b509250929050565b5f826110e257506001610589565b816110ee57505f610589565b8160018114611104576002811461110e5761112a565b6001915050610589565b60ff84111561111f5761111f61101d565b50506001821b610589565b5060208310610133831016604e8410600b841016171561114d575081810a610589565b6111578383611092565b805f190482111561116a5761116a61101d565b029392505050565b5f610b0383836110d4565b80820281158282048414176105895761058961101d565b634e487b7160e01b5f52600160045260245ffd5b6001600160a01b03858116825260208201859052831660408201526080606082018190525f906111da90830184610d78565b9695505050505050565b5f602082840312156111f4575f80fd5b81518015158114610b03575f80fd5b5f8261121157611211611009565b50069056fea2646970667358221220824b99043de08c89190f2e1473405f958b2b3dceba8e6191070d4f4e01e73f4d64736f6c63430008180033",
			"opcodes": "PUSH1 0x80 PUSH1 0x40 MSTORE PUSH2 0x7E0 PUSH1 0x8 SSTORE PUSH3 0x10000 PUSH1 0x9 SSTORE PUSH1 0x1 PUSH1 0xE0 SHL PUSH1 0xA SSTORE PUSH1 0x12 DUP1 SLOAD PUSH1 0xFF NOT AND SWAP1 SSTORE CALLVALUE DUP1 ISZERO PUSH3 0x2F JUMPI PUSH0 DUP1 REVERT JUMPDEST POP PUSH0 DUP1 SLOAD PUSH1 0x1 PUSH1 0x1 PUSH1 0xA0 SHL SUB NOT AND CALLER OR SWAP1 SSTORE PUSH1 0x40 DUP1 MLOAD DUP1 DUP3 ADD SWAP1 SWAP2 MSTORE PUSH1 0x3 DUP2 MSTORE PUSH3 0x455643 PUSH1 0xE8 SHL PUSH1 0x20 DUP3 ADD MSTORE PUSH1 0x2 SWAP1 PUSH3 0x6A SWAP1 DUP3 PUSH3 0x26C JUMP JUMPDEST POP PUSH1 0x40 DUP1 MLOAD DUP1 DUP3 ADD SWAP1 SWAP2 MSTORE PUSH1 0x11 DUP2 MSTORE PUSH17 0x22B632BB30BA32B2102830BC9021B7B4B7 PUSH1 0x79 SHL PUSH1 0x20 DUP3 ADD MSTORE PUSH1 0x3 SWAP1 PUSH3 0xA2 SWAP1 DUP3 PUSH3 0x26C JUMP JUMPDEST POP PUSH1 0x4 DUP1 SLOAD PUSH1 0xFF NOT AND PUSH1 0x8 SWAP1 DUP2 OR SWAP1 SWAP2 SSTORE PUSH3 0xC0 SWAP1 PUSH1 0xA PUSH3 0x447 JUMP JUMPDEST PUSH3 0xD0 SWAP1 PUSH4 0x1406F40 PUSH3 0x45B JUMP JUMPDEST PUSH1 0x5 SSTORE PUSH1 0x12 SLOAD PUSH1 0xFF AND ISZERO PUSH3 0xE3 JUMPI PUSH0 DUP1 REVERT JUMPDEST PUSH1 0x12 DUP1 SLOAD PUSH1 0xFF NOT AND PUSH1 0x1 OR SWAP1 SSTORE PUSH1 0x4 SLOAD PUSH3 0x103 SWAP1 PUSH1 0xFF AND PUSH1 0xA PUSH3 0x447 JUMP JUMPDEST PUSH3 0x112 SWAP1 PUSH3 0x989680 PUSH3 0x45B JUMP JUMPDEST CALLER PUSH0 SWAP1 DUP2 MSTORE PUSH1 0x15 PUSH1 0x20 MSTORE PUSH1 0x40 DUP2 KECCAK256 DUP1 SLOAD SWAP1 SWAP2 SWAP1 PUSH3 0x132 SWAP1 DUP5 SWAP1 PUSH3 0x475 JUMP JUMPDEST SWAP1 SWAP2 SSTORE POP POP PUSH1 0x4 SLOAD PUSH3 0x14A SWAP1 PUSH1 0xFF AND PUSH1 0xA PUSH3 0x447 JUMP JUMPDEST PUSH3 0x159 SWAP1 PUSH3 0x989680 PUSH3 0x45B JUMP JUMPDEST PUSH1 0x14 DUP2 SWAP1 SSTORE PUSH1 0x40 MLOAD SWAP1 DUP2 MSTORE CALLER SWAP1 PUSH0 SWAP1 PUSH32 0xDDF252AD1BE2C89B69C2B068FC378DAA952BA7F163C4A11628F55A4DF523B3EF SWAP1 PUSH1 0x20 ADD PUSH1 0x40 MLOAD DUP1 SWAP2 SUB SWAP1 LOG3 PUSH0 PUSH1 0xD SSTORE PUSH1 0x5 SLOAD PUSH3 0x1AA SWAP1 PUSH1 0x2 SWAP1 PUSH3 0x48B JUMP JUMPDEST PUSH1 0xE SSTORE PUSH3 0x1BA PUSH1 0x1 NUMBER PUSH3 0x4AB JUMP JUMPDEST BLOCKHASH PUSH1 0xC SSTORE PUSH1 0xA SLOAD PUSH1 0xB SSTORE NUMBER PUSH1 0x6 SSTORE PUSH3 0x4C1 JUMP JUMPDEST PUSH4 0x4E487B71 PUSH1 0xE0 SHL PUSH0 MSTORE PUSH1 0x41 PUSH1 0x4 MSTORE PUSH1 0x24 PUSH0 REVERT JUMPDEST PUSH1 0x1 DUP2 DUP2 SHR SWAP1 DUP3 AND DUP1 PUSH3 0x1F7 JUMPI PUSH1 0x7F DUP3 AND SWAP2 POP JUMPDEST PUSH1 0x20 DUP3 LT DUP2 SUB PUSH3 0x216 JUMPI PUSH4 0x4E487B71 PUSH1 0xE0 SHL PUSH0 MSTORE PUSH1 0x22 PUSH1 0x4 MSTORE PUSH1 0x24 PUSH0 REVERT JUMPDEST POP SWAP2 SWAP1 POP JUMP JUMPDEST PUSH1 0x1F DUP3 GT ISZERO PUSH3 0x267 JUMPI DUP1 PUSH0 MSTORE PUSH1 0x20 PUSH0 KECCAK256 PUSH1 0x1F DUP5 ADD PUSH1 0x5 SHR DUP2 ADD PUSH1 0x20 DUP6 LT ISZERO PUSH3 0x243 JUMPI POP DUP1 JUMPDEST PUSH1 0x1F DUP5 ADD PUSH1 0x5 SHR DUP3 ADD SWAP2 POP JUMPDEST DUP2 DUP2 LT ISZERO PUSH3 0x264 JUMPI PUSH0 DUP2 SSTORE PUSH1 0x1 ADD PUSH3 0x24F JUMP JUMPDEST POP POP JUMPDEST POP POP POP JUMP JUMPDEST DUP2 MLOAD PUSH1 0x1 PUSH1 0x1 PUSH1 0x40 SHL SUB DUP2 GT ISZERO PUSH3 0x288 JUMPI PUSH3 0x288 PUSH3 0x1CE JUMP JUMPDEST PUSH3 0x2A0 DUP2 PUSH3 0x299 DUP5 SLOAD PUSH3 0x1E2 JUMP JUMPDEST DUP5 PUSH3 0x21C JUMP JUMPDEST PUSH1 0x20 DUP1 PUSH1 0x1F DUP4 GT PUSH1 0x1 DUP2 EQ PUSH3 0x2D6 JUMPI PUSH0 DUP5 ISZERO PUSH3 0x2BE JUMPI POP DUP6 DUP4 ADD MLOAD JUMPDEST PUSH0 NOT PUSH1 0x3 DUP7 SWAP1 SHL SHR NOT AND PUSH1 0x1 DUP6 SWAP1 SHL OR DUP6 SSTORE PUSH3 0x330 JUMP JUMPDEST PUSH0 DUP6 DUP2 MSTORE PUSH1 0x20 DUP2 KECCAK256 PUSH1 0x1F NOT DUP7 AND SWAP2 JUMPDEST DUP3 DUP2 LT ISZERO PUSH3 0x306 JUMPI DUP9 DUP7 ADD MLOAD DUP3 SSTORE SWAP5 DUP5 ADD SWAP5 PUSH1 0x1 SWAP1 SWAP2 ADD SWAP1 DUP5 ADD PUSH3 0x2E5 JUMP JUMPDEST POP DUP6 DUP3 LT ISZERO PUSH3 0x324 JUMPI DUP8 DUP6 ADD MLOAD PUSH0 NOT PUSH1 0x3 DUP9 SWAP1 SHL PUSH1 0xF8 AND SHR NOT AND DUP2 SSTORE JUMPDEST POP POP PUSH1 0x1 DUP5 PUSH1 0x1 SHL ADD DUP6 SSTORE JUMPDEST POP POP POP POP POP POP JUMP JUMPDEST PUSH4 0x4E487B71 PUSH1 0xE0 SHL PUSH0 MSTORE PUSH1 0x11 PUSH1 0x4 MSTORE PUSH1 0x24 PUSH0 REVERT JUMPDEST PUSH1 0x1 DUP2 DUP2 JUMPDEST DUP1 DUP6 GT ISZERO PUSH3 0x38C JUMPI DUP2 PUSH0 NOT DIV DUP3 GT ISZERO PUSH3 0x370 JUMPI PUSH3 0x370 PUSH3 0x338 JUMP JUMPDEST DUP1 DUP6 AND ISZERO PUSH3 0x37E JUMPI SWAP2 DUP2 MUL SWAP2 JUMPDEST SWAP4 DUP5 SHR SWAP4 SWAP1 DUP1 MUL SWAP1 PUSH3 0x351 JUMP JUMPDEST POP SWAP3 POP SWAP3 SWAP1 POP JUMP JUMPDEST PUSH0 DUP3 PUSH3 0x3A4 JUMPI POP PUSH1 0x1 PUSH3 0x441 JUMP JUMPDEST DUP2 PUSH3 0x3B2 JUMPI POP PUSH0 PUSH3 0x441 JUMP JUMPDEST DUP2 PUSH1 0x1 DUP2 EQ PUSH3 0x3CB JUMPI PUSH1 0x2 DUP2 EQ PUSH3 0x3D6 JUMPI PUSH3 0x3F6 JUMP JUMPDEST PUSH1 0x1 SWAP2 POP POP PUSH3 0x441 JUMP JUMPDEST PUSH1 0xFF DUP5 GT ISZERO PUSH3 0x3EA JUMPI PUSH3 0x3EA PUSH3 0x338 JUMP JUMPDEST POP POP PUSH1 0x1 DUP3 SHL PUSH3 0x441 JUMP JUMPDEST POP PUSH1 0x20 DUP4 LT PUSH2 0x133 DUP4 LT AND PUSH1 0x4E DUP5 LT PUSH1 0xB DUP5 LT AND OR ISZERO PUSH3 0x41B JUMPI POP DUP2 DUP2 EXP PUSH3 0x441 JUMP JUMPDEST PUSH3 0x427 DUP4 DUP4 PUSH3 0x34C JUMP JUMPDEST DUP1 PUSH0 NOT DIV DUP3 GT ISZERO PUSH3 0x43D JUMPI PUSH3 0x43D PUSH3 0x338 JUMP JUMPDEST MUL SWAP1 POP JUMPDEST SWAP3 SWAP2 POP POP JUMP JUMPDEST PUSH0 PUSH3 0x454 DUP4 DUP4 PUSH3 0x394 JUMP JUMPDEST SWAP4 SWAP3 POP POP POP JUMP JUMPDEST DUP1 DUP3 MUL DUP2 ISZERO DUP3 DUP3 DIV DUP5 EQ OR PUSH3 0x441 JUMPI PUSH3 0x441 PUSH3 0x338 JUMP JUMPDEST DUP1 DUP3 ADD DUP1 DUP3 GT ISZERO PUSH3 0x441 JUMPI PUSH3 0x441 PUSH3 0x338 JUMP JUMPDEST PUSH0 DUP3 PUSH3 0x4A6 JUMPI PUSH4 0x4E487B71 PUSH1 0xE0 SHL PUSH0 MSTORE PUSH1 0x12 PUSH1 0x4 MSTORE PUSH1 0x24 PUSH0 REVERT JUMPDEST POP DIV SWAP1 JUMP JUMPDEST DUP2 DUP2 SUB DUP2 DUP2 GT ISZERO PUSH3 0x441 JUMPI PUSH3 0x441 PUSH3 0x338 JUMP JUMPDEST PUSH2 0x124C DUP1 PUSH3 0x4CF PUSH0 CODECOPY PUSH0 RETURN INVALID PUSH1 0x80 PUSH1 0x40 MSTORE CALLVALUE DUP1 ISZERO PUSH2 0xF JUMPI PUSH0 DUP1 REVERT JUMPDEST POP PUSH1 0x4 CALLDATASIZE LT PUSH2 0x21E JUMPI PUSH0 CALLDATALOAD PUSH1 0xE0 SHR DUP1 PUSH4 0x829965CC GT PUSH2 0x12A JUMPI DUP1 PUSH4 0xBAFEDCAA GT PUSH2 0xB4 JUMPI DUP1 PUSH4 0xDC6E9CF9 GT PUSH2 0x79 JUMPI DUP1 PUSH4 0xDC6E9CF9 EQ PUSH2 0x427 JUMPI DUP1 PUSH4 0xDD62ED3E EQ PUSH2 0x430 JUMPI DUP1 PUSH4 0xE30CCFFE EQ PUSH2 0x468 JUMPI DUP1 PUSH4 0xF2FDE38B EQ PUSH2 0x47B JUMPI DUP1 PUSH4 0xFC6065F0 EQ PUSH2 0x48E JUMPI PUSH0 DUP1 REVERT JUMPDEST DUP1 PUSH4 0xBAFEDCAA EQ PUSH2 0x3DC JUMPI DUP1 PUSH4 0xCAE9CA51 EQ PUSH2 0x3E5 JUMPI DUP1 PUSH4 0xCB9AE707 EQ PUSH2 0x3F8 JUMPI DUP1 PUSH4 0xD4EE1D90 EQ PUSH2 0x401 JUMPI DUP1 PUSH4 0xDC39D06D EQ PUSH2 0x414 JUMPI PUSH0 DUP1 REVERT JUMPDEST DUP1 PUSH4 0x8AE0368B GT PUSH2 0xFA JUMPI DUP1 PUSH4 0x8AE0368B EQ PUSH2 0x39D JUMPI DUP1 PUSH4 0x8DA5CB5B EQ PUSH2 0x3A6 JUMPI DUP1 PUSH4 0x95D89B41 EQ PUSH2 0x3B8 JUMPI DUP1 PUSH4 0xA9059CBB EQ PUSH2 0x3C0 JUMPI DUP1 PUSH4 0xB5ADE81B EQ PUSH2 0x3D3 JUMPI PUSH0 DUP1 REVERT JUMPDEST DUP1 PUSH4 0x829965CC EQ PUSH2 0x372 JUMPI DUP1 PUSH4 0x87A2A9D6 EQ PUSH2 0x37B JUMPI DUP1 PUSH4 0x893D20E8 EQ PUSH2 0x384 JUMPI DUP1 PUSH4 0x8A769D35 EQ PUSH2 0x394 JUMPI PUSH0 DUP1 REVERT JUMPDEST DUP1 PUSH4 0x32E99708 GT PUSH2 0x1AB JUMPI DUP1 PUSH4 0x4EF37628 GT PUSH2 0x17B JUMPI DUP1 PUSH4 0x4EF37628 EQ PUSH2 0x304 JUMPI DUP1 PUSH4 0x4FA972E1 EQ PUSH2 0x30C JUMPI DUP1 PUSH4 0x6FD396D6 EQ PUSH2 0x315 JUMPI DUP1 PUSH4 0x70A08231 EQ PUSH2 0x340 JUMPI DUP1 PUSH4 0x79BA5097 EQ PUSH2 0x368 JUMPI PUSH0 DUP1 REVERT JUMPDEST DUP1 PUSH4 0x32E99708 EQ PUSH2 0x2D8 JUMPI DUP1 PUSH4 0x3EAAF86B EQ PUSH2 0x2E0 JUMPI DUP1 PUSH4 0x490203A7 EQ PUSH2 0x2E9 JUMPI DUP1 PUSH4 0x4D474898 EQ PUSH2 0x2F1 JUMPI PUSH0 DUP1 REVERT JUMPDEST DUP1 PUSH4 0x238511D1 GT PUSH2 0x1F1 JUMPI DUP1 PUSH4 0x238511D1 EQ PUSH2 0x281 JUMPI DUP1 PUSH4 0x23B872DD EQ PUSH2 0x294 JUMPI DUP1 PUSH4 0x2979F8E3 EQ PUSH2 0x2A7 JUMPI DUP1 PUSH4 0x2D38BF7A EQ PUSH2 0x2B0 JUMPI DUP1 PUSH4 0x313CE567 EQ PUSH2 0x2B9 JUMPI PUSH0 DUP1 REVERT JUMPDEST DUP1 PUSH4 0x6FDDE03 EQ PUSH2 0x222 JUMPI DUP1 PUSH4 0x95EA7B3 EQ PUSH2 0x240 JUMPI DUP1 PUSH4 0x17DA485F EQ PUSH2 0x263 JUMPI DUP1 PUSH4 0x18160DDD EQ PUSH2 0x279 JUMPI JUMPDEST PUSH0 DUP1 REVERT JUMPDEST PUSH2 0x22A PUSH2 0x497 JUMP JUMPDEST PUSH1 0x40 MLOAD PUSH2 0x237 SWAP2 SWAP1 PUSH2 0xDBB JUMP JUMPDEST PUSH1 0x40 MLOAD DUP1 SWAP2 SUB SWAP1 RETURN JUMPDEST PUSH2 0x253 PUSH2 0x24E CALLDATASIZE PUSH1 0x4 PUSH2 0xDE8 JUMP JUMPDEST PUSH2 0x523 JUMP JUMPDEST PUSH1 0x40 MLOAD SWAP1 ISZERO ISZERO DUP2 MSTORE PUSH1 0x20 ADD PUSH2 0x237 JUMP JUMPDEST PUSH2 0x26B PUSH2 0x58F JUMP JUMPDEST PUSH1 0x40 MLOAD SWAP1 DUP2 MSTORE PUSH1 0x20 ADD PUSH2 0x237 JUMP JUMPDEST PUSH2 0x26B PUSH2 0x5A5 JUMP JUMPDEST PUSH2 0x26B PUSH2 0x28F CALLDATASIZE PUSH1 0x4 PUSH2 0xE10 JUMP JUMPDEST PUSH2 0x5DD JUMP JUMPDEST PUSH2 0x253 PUSH2 0x2A2 CALLDATASIZE PUSH1 0x4 PUSH2 0xE30 JUMP JUMPDEST PUSH2 0x614 JUMP JUMPDEST PUSH2 0x26B PUSH1 0x11 SLOAD DUP2 JUMP JUMPDEST PUSH2 0x26B PUSH1 0xD SLOAD DUP2 JUMP JUMPDEST PUSH1 0x4 SLOAD PUSH2 0x2C6 SWAP1 PUSH1 0xFF AND DUP2 JUMP JUMPDEST PUSH1 0x40 MLOAD PUSH1 0xFF SWAP1 SWAP2 AND DUP2 MSTORE PUSH1 0x20 ADD PUSH2 0x237 JUMP JUMPDEST PUSH1 0xB SLOAD PUSH2 0x26B JUMP JUMPDEST PUSH2 0x26B PUSH1 0x5 SLOAD DUP2 JUMP JUMPDEST PUSH2 0x26B PUSH2 0x6FE JUMP JUMPDEST PUSH2 0x253 PUSH2 0x2FF CALLDATASIZE PUSH1 0x4 PUSH2 0xE69 JUMP JUMPDEST PUSH2 0x734 JUMP JUMPDEST PUSH1 0xC SLOAD PUSH2 0x26B JUMP JUMPDEST PUSH2 0x26B PUSH1 0xE SLOAD DUP2 JUMP JUMPDEST PUSH1 0xF SLOAD PUSH2 0x328 SWAP1 PUSH1 0x1 PUSH1 0x1 PUSH1 0xA0 SHL SUB AND DUP2 JUMP JUMPDEST PUSH1 0x40 MLOAD PUSH1 0x1 PUSH1 0x1 PUSH1 0xA0 SHL SUB SWAP1 SWAP2 AND DUP2 MSTORE PUSH1 0x20 ADD PUSH2 0x237 JUMP JUMPDEST PUSH2 0x26B PUSH2 0x34E CALLDATASIZE PUSH1 0x4 PUSH2 0xE80 JUMP JUMPDEST PUSH1 0x1 PUSH1 0x1 PUSH1 0xA0 SHL SUB AND PUSH0 SWAP1 DUP2 MSTORE PUSH1 0x15 PUSH1 0x20 MSTORE PUSH1 0x40 SWAP1 KECCAK256 SLOAD SWAP1 JUMP JUMPDEST PUSH2 0x370 PUSH2 0x89C JUMP JUMPDEST STOP JUMPDEST PUSH2 0x26B PUSH1 0x7 SLOAD DUP2 JUMP JUMPDEST PUSH2 0x26B PUSH1 0xA SLOAD DUP2 JUMP JUMPDEST PUSH0 SLOAD PUSH1 0x1 PUSH1 0x1 PUSH1 0xA0 SHL SUB AND PUSH2 0x328 JUMP JUMPDEST PUSH2 0x26B PUSH1 0xB SLOAD DUP2 JUMP JUMPDEST PUSH2 0x26B PUSH1 0xC SLOAD DUP2 JUMP JUMPDEST PUSH0 SLOAD PUSH2 0x328 SWAP1 PUSH1 0x1 PUSH1 0x1 PUSH1 0xA0 SHL SUB AND DUP2 JUMP JUMPDEST PUSH2 0x22A PUSH2 0x914 JUMP JUMPDEST PUSH2 0x253 PUSH2 0x3CE CALLDATASIZE PUSH1 0x4 PUSH2 0xDE8 JUMP JUMPDEST PUSH2 0x921 JUMP JUMPDEST PUSH2 0x26B PUSH1 0x8 SLOAD DUP2 JUMP JUMPDEST PUSH2 0x26B PUSH1 0x10 SLOAD DUP2 JUMP JUMPDEST PUSH2 0x253 PUSH2 0x3F3 CALLDATASIZE PUSH1 0x4 PUSH2 0xEAD JUMP JUMPDEST PUSH2 0x9AF JUMP JUMPDEST PUSH2 0x26B PUSH1 0x6 SLOAD DUP2 JUMP JUMPDEST PUSH1 0x1 SLOAD PUSH2 0x328 SWAP1 PUSH1 0x1 PUSH1 0x1 PUSH1 0xA0 SHL SUB AND DUP2 JUMP JUMPDEST PUSH2 0x253 PUSH2 0x422 CALLDATASIZE PUSH1 0x4 PUSH2 0xDE8 JUMP JUMPDEST PUSH2 0xA7A JUMP JUMPDEST PUSH2 0x26B PUSH1 0x9 SLOAD DUP2 JUMP JUMPDEST PUSH2 0x26B PUSH2 0x43E CALLDATASIZE PUSH1 0x4 PUSH2 0xF71 JUMP JUMPDEST PUSH1 0x1 PUSH1 0x1 PUSH1 0xA0 SHL SUB SWAP2 DUP3 AND PUSH0 SWAP1 DUP2 MSTORE PUSH1 0x16 PUSH1 0x20 SWAP1 DUP2 MSTORE PUSH1 0x40 DUP1 DUP4 KECCAK256 SWAP4 SWAP1 SWAP5 AND DUP3 MSTORE SWAP2 SWAP1 SWAP2 MSTORE KECCAK256 SLOAD SWAP1 JUMP JUMPDEST PUSH2 0x253 PUSH2 0x476 CALLDATASIZE PUSH1 0x4 PUSH2 0xFA2 JUMP JUMPDEST PUSH2 0xB0A JUMP JUMPDEST PUSH2 0x370 PUSH2 0x489 CALLDATASIZE PUSH1 0x4 PUSH2 0xE80 JUMP JUMPDEST PUSH2 0xB52 JUMP JUMPDEST PUSH2 0x26B PUSH1 0x14 SLOAD DUP2 JUMP JUMPDEST PUSH1 0x3 DUP1 SLOAD PUSH2 0x4A4 SWAP1 PUSH2 0xFD1 JUMP JUMPDEST DUP1 PUSH1 0x1F ADD PUSH1 0x20 DUP1 SWAP2 DIV MUL PUSH1 0x20 ADD PUSH1 0x40 MLOAD SWAP1 DUP2 ADD PUSH1 0x40 MSTORE DUP1 SWAP3 SWAP2 SWAP1 DUP2 DUP2 MSTORE PUSH1 0x20 ADD DUP3 DUP1 SLOAD PUSH2 0x4D0 SWAP1 PUSH2 0xFD1 JUMP JUMPDEST DUP1 ISZERO PUSH2 0x51B JUMPI DUP1 PUSH1 0x1F LT PUSH2 0x4F2 JUMPI PUSH2 0x100 DUP1 DUP4 SLOAD DIV MUL DUP4 MSTORE SWAP2 PUSH1 0x20 ADD SWAP2 PUSH2 0x51B JUMP JUMPDEST DUP3 ADD SWAP2 SWAP1 PUSH0 MSTORE PUSH1 0x20 PUSH0 KECCAK256 SWAP1 JUMPDEST DUP2 SLOAD DUP2 MSTORE SWAP1 PUSH1 0x1 ADD SWAP1 PUSH1 0x20 ADD DUP1 DUP4 GT PUSH2 0x4FE JUMPI DUP3 SWAP1 SUB PUSH1 0x1F AND DUP3 ADD SWAP2 JUMPDEST POP POP POP POP POP DUP2 JUMP JUMPDEST CALLER PUSH0 DUP2 DUP2 MSTORE PUSH1 0x16 PUSH1 0x20 SWAP1 DUP2 MSTORE PUSH1 0x40 DUP1 DUP4 KECCAK256 PUSH1 0x1 PUSH1 0x1 PUSH1 0xA0 SHL SUB DUP8 AND DUP1 DUP6 MSTORE SWAP3 MSTORE DUP1 DUP4 KECCAK256 DUP6 SWAP1 SSTORE MLOAD SWAP2 SWAP3 SWAP1 SWAP2 PUSH32 0x8C5BE1E5EBEC7D5BD14F71427D1E84F3DD0314C0F7B2291E5B200AC8C7C3B925 SWAP1 PUSH2 0x57D SWAP1 DUP7 DUP2 MSTORE PUSH1 0x20 ADD SWAP1 JUMP JUMPDEST PUSH1 0x40 MLOAD DUP1 SWAP2 SUB SWAP1 LOG3 POP PUSH1 0x1 JUMPDEST SWAP3 SWAP2 POP POP JUMP JUMPDEST PUSH0 PUSH1 0xB SLOAD PUSH1 0xA SLOAD PUSH2 0x5A0 SWAP2 SWAP1 PUSH2 0x1031 JUMP JUMPDEST SWAP1 POP SWAP1 JUMP JUMPDEST PUSH0 DUP1 DUP1 MSTORE PUSH1 0x15 PUSH1 0x20 MSTORE PUSH32 0xA31547CE6245CDB9ECEA19CF8C7EB9F5974025BB4075011409251AE855B30AED SLOAD PUSH1 0x5 SLOAD PUSH2 0x5A0 SWAP2 SWAP1 PUSH2 0x1044 JUMP JUMPDEST PUSH0 DUP1 DUP3 CALLER DUP6 PUSH1 0x40 MLOAD PUSH1 0x20 ADD PUSH2 0x5F4 SWAP4 SWAP3 SWAP2 SWAP1 PUSH2 0x1057 JUMP JUMPDEST PUSH1 0x40 DUP1 MLOAD DUP1 DUP4 SUB PUSH1 0x1F NOT ADD DUP2 MSTORE SWAP2 SWAP1 MSTORE DUP1 MLOAD PUSH1 0x20 SWAP1 SWAP2 ADD KECCAK256 SWAP5 SWAP4 POP POP POP POP JUMP JUMPDEST PUSH1 0x1 PUSH1 0x1 PUSH1 0xA0 SHL SUB DUP4 AND PUSH0 SWAP1 DUP2 MSTORE PUSH1 0x15 PUSH1 0x20 MSTORE PUSH1 0x40 DUP2 KECCAK256 DUP1 SLOAD DUP4 SWAP2 SWAP1 DUP4 SWAP1 PUSH2 0x63D SWAP1 DUP5 SWAP1 PUSH2 0x1044 JUMP JUMPDEST SWAP1 SWAP2 SSTORE POP POP PUSH1 0x1 PUSH1 0x1 PUSH1 0xA0 SHL SUB DUP5 AND PUSH0 SWAP1 DUP2 MSTORE PUSH1 0x16 PUSH1 0x20 SWAP1 DUP2 MSTORE PUSH1 0x40 DUP1 DUP4 KECCAK256 CALLER DUP5 MSTORE SWAP1 SWAP2 MSTORE DUP2 KECCAK256 DUP1 SLOAD DUP5 SWAP3 SWAP1 PUSH2 0x674 SWAP1 DUP5 SWAP1 PUSH2 0x1044 JUMP JUMPDEST SWAP1 SWAP2 SSTORE POP POP PUSH1 0x1 PUSH1 0x1 PUSH1 0xA0 SHL SUB DUP4 AND PUSH0 SWAP1 DUP2 MSTORE PUSH1 0x15 PUSH1 0x20 MSTORE PUSH1 0x40 DUP2 KECCAK256 DUP1 SLOAD DUP5 SWAP3 SWAP1 PUSH2 0x6A0 SWAP1 DUP5 SWAP1 PUSH2 0x107F JUMP JUMPDEST SWAP3 POP POP DUP2 SWAP1 SSTORE POP DUP3 PUSH1 0x1 PUSH1 0x1 PUSH1 0xA0 SHL SUB AND DUP5 PUSH1 0x1 PUSH1 0x1 PUSH1 0xA0 SHL SUB AND PUSH32 0xDDF252AD1BE2C89B69C2B068FC378DAA952BA7F163C4A11628F55A4DF523B3EF DUP5 PUSH1 0x40 MLOAD PUSH2 0x6EC SWAP2 DUP2 MSTORE PUSH1 0x20 ADD SWAP1 JUMP JUMPDEST PUSH1 0x40 MLOAD DUP1 SWAP2 SUB SWAP1 LOG3 POP PUSH1 0x1 SWAP4 SWAP3 POP POP POP JUMP JUMPDEST PUSH0 PUSH1 0xD SLOAD PUSH1 0x2 PUSH2 0x70E SWAP2 SWAP1 PUSH2 0x1172 JUMP JUMPDEST PUSH1 0x4 SLOAD PUSH2 0x71F SWAP1 PUSH1 0xFF AND PUSH1 0xA PUSH2 0x1172 JUMP JUMPDEST PUSH2 0x72A SWAP1 PUSH1 0x32 PUSH2 0x117D JUMP JUMPDEST PUSH2 0x5A0 SWAP2 SWAP1 PUSH2 0x1031 JUMP JUMPDEST PUSH0 DUP1 PUSH1 0xC SLOAD CALLER DUP5 PUSH1 0x40 MLOAD PUSH1 0x20 ADD PUSH2 0x74D SWAP4 SWAP3 SWAP2 SWAP1 PUSH2 0x1057 JUMP JUMPDEST PUSH1 0x40 MLOAD PUSH1 0x20 DUP2 DUP4 SUB SUB DUP2 MSTORE SWAP1 PUSH1 0x40 MSTORE DUP1 MLOAD SWAP1 PUSH1 0x20 ADD KECCAK256 SWAP1 POP PUSH1 0xB SLOAD DUP2 PUSH0 SHR GT PUSH2 0x7AE JUMPI PUSH1 0x40 MLOAD PUSH3 0x461BCD PUSH1 0xE5 SHL DUP2 MSTORE PUSH1 0x20 PUSH1 0x4 DUP3 ADD MSTORE PUSH1 0xF PUSH1 0x24 DUP3 ADD MSTORE PUSH15 0x4572726F7220696E206D696E696E67 PUSH1 0x88 SHL PUSH1 0x44 DUP3 ADD MSTORE PUSH1 0x64 ADD PUSH1 0x40 MLOAD DUP1 SWAP2 SUB SWAP1 REVERT JUMPDEST PUSH1 0xC SLOAD PUSH0 SWAP1 DUP2 MSTORE PUSH1 0x13 PUSH1 0x20 MSTORE PUSH1 0x40 SWAP1 KECCAK256 DUP1 SLOAD SWAP1 DUP3 SWAP1 SSTORE DUP1 ISZERO PUSH2 0x7CE JUMPI PUSH0 DUP1 REVERT JUMPDEST PUSH0 PUSH2 0x7D7 PUSH2 0x6FE JUMP JUMPDEST CALLER PUSH0 SWAP1 DUP2 MSTORE PUSH1 0x15 PUSH1 0x20 MSTORE PUSH1 0x40 SWAP1 KECCAK256 SLOAD SWAP1 SWAP2 POP PUSH2 0x7F4 SWAP1 DUP3 SWAP1 PUSH2 0x107F JUMP JUMPDEST CALLER PUSH0 SWAP1 DUP2 MSTORE PUSH1 0x15 PUSH1 0x20 MSTORE PUSH1 0x40 SWAP1 KECCAK256 SSTORE PUSH1 0x14 SLOAD PUSH2 0x811 SWAP1 DUP3 SWAP1 PUSH2 0x107F JUMP JUMPDEST PUSH1 0x14 DUP2 SWAP1 SSTORE PUSH1 0xE SLOAD LT ISZERO PUSH2 0x827 JUMPI PUSH2 0x827 PUSH2 0x1194 JUMP JUMPDEST PUSH1 0xF DUP1 SLOAD PUSH1 0x1 PUSH1 0x1 PUSH1 0xA0 SHL SUB NOT AND CALLER OR SWAP1 SSTORE PUSH1 0x10 DUP2 SWAP1 SSTORE NUMBER PUSH1 0x11 SSTORE PUSH2 0x84A PUSH2 0xB89 JUMP JUMPDEST PUSH1 0x7 SLOAD PUSH1 0xC SLOAD PUSH1 0x40 DUP1 MLOAD DUP5 DUP2 MSTORE PUSH1 0x20 DUP2 ADD SWAP4 SWAP1 SWAP4 MSTORE DUP3 ADD MSTORE CALLER SWAP1 PUSH32 0x8455D83776D779D2BA1B4D3D7982A014B3574CD164E1D9841BE8E2D60289D0DA SWAP1 PUSH1 0x60 ADD PUSH1 0x40 MLOAD DUP1 SWAP2 SUB SWAP1 LOG2 POP PUSH1 0x1 SWAP5 SWAP4 POP POP POP POP JUMP JUMPDEST PUSH1 0x1 SLOAD PUSH1 0x1 PUSH1 0x1 PUSH1 0xA0 SHL SUB AND CALLER EQ PUSH2 0x8B2 JUMPI PUSH0 DUP1 REVERT JUMPDEST PUSH1 0x1 SLOAD PUSH0 DUP1 SLOAD PUSH1 0x40 MLOAD PUSH1 0x1 PUSH1 0x1 PUSH1 0xA0 SHL SUB SWAP4 DUP5 AND SWAP4 SWAP1 SWAP2 AND SWAP2 PUSH32 0x8BE0079C531659141344CD1FD0A4F28419497F9722A3DAAFE3B4186F6B6457E0 SWAP2 LOG3 PUSH1 0x1 DUP1 SLOAD PUSH0 DUP1 SLOAD PUSH1 0x1 PUSH1 0x1 PUSH1 0xA0 SHL SUB NOT SWAP1 DUP2 AND PUSH1 0x1 PUSH1 0x1 PUSH1 0xA0 SHL SUB DUP5 AND OR SWAP1 SWAP2 SSTORE AND SWAP1 SSTORE JUMP JUMPDEST PUSH1 0x2 DUP1 SLOAD PUSH2 0x4A4 SWAP1 PUSH2 0xFD1 JUMP JUMPDEST CALLER PUSH0 SWAP1 DUP2 MSTORE PUSH1 0x15 PUSH1 0x20 MSTORE PUSH1 0x40 DUP2 KECCAK256 DUP1 SLOAD DUP4 SWAP2 SWAP1 DUP4 SWAP1 PUSH2 0x941 SWAP1 DUP5 SWAP1 PUSH2 0x1044 JUMP JUMPDEST SWAP1 SWAP2 SSTORE POP POP PUSH1 0x1 PUSH1 0x1 PUSH1 0xA0 SHL SUB DUP4 AND PUSH0 SWAP1 DUP2 MSTORE PUSH1 0x15 PUSH1 0x20 MSTORE PUSH1 0x40 DUP2 KECCAK256 DUP1 SLOAD DUP5 SWAP3 SWAP1 PUSH2 0x96D SWAP1 DUP5 SWAP1 PUSH2 0x107F JUMP JUMPDEST SWAP1 SWAP2 SSTORE POP POP PUSH1 0x40 MLOAD DUP3 DUP2 MSTORE PUSH1 0x1 PUSH1 0x1 PUSH1 0xA0 SHL SUB DUP5 AND SWAP1 CALLER SWAP1 PUSH32 0xDDF252AD1BE2C89B69C2B068FC378DAA952BA7F163C4A11628F55A4DF523B3EF SWAP1 PUSH1 0x20 ADD PUSH2 0x57D JUMP JUMPDEST CALLER PUSH0 DUP2 DUP2 MSTORE PUSH1 0x16 PUSH1 0x20 SWAP1 DUP2 MSTORE PUSH1 0x40 DUP1 DUP4 KECCAK256 PUSH1 0x1 PUSH1 0x1 PUSH1 0xA0 SHL SUB DUP9 AND DUP1 DUP6 MSTORE SWAP3 MSTORE DUP1 DUP4 KECCAK256 DUP7 SWAP1 SSTORE MLOAD SWAP2 SWAP3 SWAP1 SWAP2 PUSH32 0x8C5BE1E5EBEC7D5BD14F71427D1E84F3DD0314C0F7B2291E5B200AC8C7C3B925 SWAP1 PUSH2 0xA09 SWAP1 DUP8 DUP2 MSTORE PUSH1 0x20 ADD SWAP1 JUMP JUMPDEST PUSH1 0x40 MLOAD DUP1 SWAP2 SUB SWAP1 LOG3 PUSH1 0x40 MLOAD PUSH4 0x8F4FFCB1 PUSH1 0xE0 SHL DUP2 MSTORE PUSH1 0x1 PUSH1 0x1 PUSH1 0xA0 SHL SUB DUP6 AND SWAP1 PUSH4 0x8F4FFCB1 SWAP1 PUSH2 0xA43 SWAP1 CALLER SWAP1 DUP8 SWAP1 ADDRESS SWAP1 DUP9 SWAP1 PUSH1 0x4 ADD PUSH2 0x11A8 JUMP JUMPDEST PUSH0 PUSH1 0x40 MLOAD DUP1 DUP4 SUB DUP2 PUSH0 DUP8 DUP1 EXTCODESIZE ISZERO DUP1 ISZERO PUSH2 0xA5A JUMPI PUSH0 DUP1 REVERT JUMPDEST POP GAS CALL ISZERO DUP1 ISZERO PUSH2 0xA6C JUMPI RETURNDATASIZE PUSH0 DUP1 RETURNDATACOPY RETURNDATASIZE PUSH0 REVERT JUMPDEST POP PUSH1 0x1 SWAP8 SWAP7 POP POP POP POP POP POP POP JUMP JUMPDEST PUSH0 DUP1 SLOAD PUSH1 0x1 PUSH1 0x1 PUSH1 0xA0 SHL SUB AND CALLER EQ PUSH2 0xA90 JUMPI PUSH0 DUP1 REVERT JUMPDEST PUSH0 SLOAD PUSH1 0x40 MLOAD PUSH4 0xA9059CBB PUSH1 0xE0 SHL DUP2 MSTORE PUSH1 0x1 PUSH1 0x1 PUSH1 0xA0 SHL SUB SWAP2 DUP3 AND PUSH1 0x4 DUP3 ADD MSTORE PUSH1 0x24 DUP2 ADD DUP5 SWAP1 MSTORE SWAP1 DUP5 AND SWAP1 PUSH4 0xA9059CBB SWAP1 PUSH1 0x44 ADD PUSH1 0x20 PUSH1 0x40 MLOAD DUP1 DUP4 SUB DUP2 PUSH0 DUP8 GAS CALL ISZERO DUP1 ISZERO PUSH2 0xADF JUMPI RETURNDATASIZE PUSH0 DUP1 RETURNDATACOPY RETURNDATASIZE PUSH0 REVERT JUMPDEST POP POP POP POP PUSH1 0x40 MLOAD RETURNDATASIZE PUSH1 0x1F NOT PUSH1 0x1F DUP3 ADD AND DUP3 ADD DUP1 PUSH1 0x40 MSTORE POP DUP2 ADD SWAP1 PUSH2 0xB03 SWAP2 SWAP1 PUSH2 0x11E4 JUMP JUMPDEST SWAP4 SWAP3 POP POP POP JUMP JUMPDEST PUSH0 DUP1 DUP4 CALLER DUP8 PUSH1 0x40 MLOAD PUSH1 0x20 ADD PUSH2 0xB21 SWAP4 SWAP3 SWAP2 SWAP1 PUSH2 0x1057 JUMP JUMPDEST PUSH1 0x40 MLOAD PUSH1 0x20 DUP2 DUP4 SUB SUB DUP2 MSTORE SWAP1 PUSH1 0x40 MSTORE DUP1 MLOAD SWAP1 PUSH1 0x20 ADD KECCAK256 SWAP1 POP DUP3 DUP2 PUSH0 SHR GT ISZERO PUSH2 0xB47 JUMPI PUSH0 DUP1 REVERT JUMPDEST SWAP1 SWAP4 EQ SWAP5 SWAP4 POP POP POP POP JUMP JUMPDEST PUSH0 SLOAD PUSH1 0x1 PUSH1 0x1 PUSH1 0xA0 SHL SUB AND CALLER EQ PUSH2 0xB67 JUMPI PUSH0 DUP1 REVERT JUMPDEST PUSH1 0x1 DUP1 SLOAD PUSH1 0x1 PUSH1 0x1 PUSH1 0xA0 SHL SUB NOT AND PUSH1 0x1 PUSH1 0x1 PUSH1 0xA0 SHL SUB SWAP3 SWAP1 SWAP3 AND SWAP2 SWAP1 SWAP2 OR SWAP1 SSTORE JUMP JUMPDEST PUSH1 0xE SLOAD PUSH2 0xB94 PUSH2 0x6FE JUMP JUMPDEST PUSH1 0x14 SLOAD PUSH2 0xBA1 SWAP2 SWAP1 PUSH2 0x107F JUMP JUMPDEST GT DUP1 ISZERO PUSH2 0xBB0 JUMPI POP PUSH1 0x27 PUSH1 0xD SLOAD LT JUMPDEST ISZERO PUSH2 0xBC7 JUMPI PUSH1 0xD SLOAD PUSH2 0xBC3 SWAP1 PUSH1 0x1 PUSH2 0x107F JUMP JUMPDEST PUSH1 0xD SSTORE JUMPDEST PUSH1 0xD SLOAD PUSH2 0xBD5 SWAP1 PUSH1 0x1 PUSH2 0x107F JUMP JUMPDEST PUSH2 0xBE0 SWAP1 PUSH1 0x2 PUSH2 0x1172 JUMP JUMPDEST PUSH1 0x5 SLOAD PUSH2 0xBED SWAP2 SWAP1 PUSH2 0x1031 JUMP JUMPDEST PUSH1 0x5 SLOAD PUSH2 0xBFA SWAP2 SWAP1 PUSH2 0x1044 JUMP JUMPDEST PUSH1 0xE DUP2 SWAP1 SSTORE POP PUSH1 0x1 PUSH1 0x7 PUSH0 DUP3 DUP3 SLOAD PUSH2 0xC12 SWAP2 SWAP1 PUSH2 0x107F JUMP JUMPDEST SWAP1 SWAP2 SSTORE POP POP PUSH1 0x8 SLOAD PUSH1 0x7 SLOAD PUSH2 0xC27 SWAP2 SWAP1 PUSH2 0x1203 JUMP JUMPDEST PUSH0 SUB PUSH2 0xC35 JUMPI PUSH2 0xC35 PUSH2 0xC46 JUMP JUMPDEST PUSH2 0xC40 PUSH1 0x1 NUMBER PUSH2 0x1044 JUMP JUMPDEST BLOCKHASH PUSH1 0xC SSTORE JUMP JUMPDEST PUSH0 PUSH1 0x6 SLOAD NUMBER PUSH2 0xC55 SWAP2 SWAP1 PUSH2 0x1044 JUMP JUMPDEST PUSH1 0x8 SLOAD SWAP1 SWAP2 POP PUSH0 PUSH2 0xC67 DUP3 PUSH1 0xC8 PUSH2 0x117D JUMP JUMPDEST SWAP1 POP DUP1 DUP4 LT ISZERO PUSH2 0xCD7 JUMPI PUSH0 DUP4 PUSH2 0xC7E DUP4 PUSH1 0x64 PUSH2 0x117D JUMP JUMPDEST PUSH2 0xC88 SWAP2 SWAP1 PUSH2 0x1031 JUMP JUMPDEST SWAP1 POP PUSH0 PUSH2 0xCA2 PUSH2 0x3E8 PUSH2 0xC9C PUSH1 0x64 DUP6 PUSH2 0x1044 JUMP JUMPDEST SWAP1 PUSH2 0xD61 JUMP JUMPDEST SWAP1 POP DUP1 PUSH2 0x7D0 PUSH1 0xB SLOAD PUSH2 0xCB5 SWAP2 SWAP1 PUSH2 0x1031 JUMP JUMPDEST PUSH2 0xCBF SWAP2 SWAP1 PUSH2 0x117D JUMP JUMPDEST PUSH1 0xB SLOAD PUSH2 0xCCC SWAP2 SWAP1 PUSH2 0x1044 JUMP JUMPDEST PUSH1 0xB SSTORE POP PUSH2 0xD32 SWAP1 POP JUMP JUMPDEST PUSH0 DUP2 PUSH2 0xCE4 DUP6 PUSH1 0x64 PUSH2 0x117D JUMP JUMPDEST PUSH2 0xCEE SWAP2 SWAP1 PUSH2 0x1031 JUMP JUMPDEST SWAP1 POP PUSH0 PUSH2 0xD02 PUSH2 0x3E8 PUSH2 0xC9C PUSH1 0x64 DUP6 PUSH2 0x1044 JUMP JUMPDEST SWAP1 POP DUP1 PUSH2 0x7D0 PUSH1 0xB SLOAD PUSH2 0xD15 SWAP2 SWAP1 PUSH2 0x1031 JUMP JUMPDEST PUSH2 0xD1F SWAP2 SWAP1 PUSH2 0x117D JUMP JUMPDEST PUSH1 0xB SLOAD PUSH2 0xD2C SWAP2 SWAP1 PUSH2 0x107F JUMP JUMPDEST PUSH1 0xB SSTORE POP POP JUMPDEST NUMBER PUSH1 0x6 SSTORE PUSH1 0x9 SLOAD PUSH1 0xB SLOAD LT ISZERO PUSH2 0xD49 JUMPI PUSH1 0x9 SLOAD PUSH1 0xB SSTORE JUMPDEST PUSH1 0xA SLOAD PUSH1 0xB SLOAD GT ISZERO PUSH2 0xD5C JUMPI PUSH1 0xA SLOAD PUSH1 0xB SSTORE JUMPDEST POP POP POP JUMP JUMPDEST PUSH0 DUP2 DUP4 GT ISZERO PUSH2 0xD71 JUMPI POP DUP1 PUSH2 0x589 JUMP JUMPDEST POP SWAP1 SWAP2 SWAP1 POP JUMP JUMPDEST PUSH0 DUP2 MLOAD DUP1 DUP5 MSTORE PUSH0 JUMPDEST DUP2 DUP2 LT ISZERO PUSH2 0xD9C JUMPI PUSH1 0x20 DUP2 DUP6 ADD DUP2 ADD MLOAD DUP7 DUP4 ADD DUP3 ADD MSTORE ADD PUSH2 0xD80 JUMP JUMPDEST POP PUSH0 PUSH1 0x20 DUP3 DUP7 ADD ADD MSTORE PUSH1 0x20 PUSH1 0x1F NOT PUSH1 0x1F DUP4 ADD AND DUP6 ADD ADD SWAP2 POP POP SWAP3 SWAP2 POP POP JUMP JUMPDEST PUSH1 0x20 DUP2 MSTORE PUSH0 PUSH2 0xB03 PUSH1 0x20 DUP4 ADD DUP5 PUSH2 0xD78 JUMP JUMPDEST DUP1 CALLDATALOAD PUSH1 0x1 PUSH1 0x1 PUSH1 0xA0 SHL SUB DUP2 AND DUP2 EQ PUSH2 0xDE3 JUMPI PUSH0 DUP1 REVERT JUMPDEST SWAP2 SWAP1 POP JUMP JUMPDEST PUSH0 DUP1 PUSH1 0x40 DUP4 DUP6 SUB SLT ISZERO PUSH2 0xDF9 JUMPI PUSH0 DUP1 REVERT JUMPDEST PUSH2 0xE02 DUP4 PUSH2 0xDCD JUMP JUMPDEST SWAP5 PUSH1 0x20 SWAP4 SWAP1 SWAP4 ADD CALLDATALOAD SWAP4 POP POP POP JUMP JUMPDEST PUSH0 DUP1 PUSH1 0x40 DUP4 DUP6 SUB SLT ISZERO PUSH2 0xE21 JUMPI PUSH0 DUP1 REVERT JUMPDEST POP POP DUP1 CALLDATALOAD SWAP3 PUSH1 0x20 SWAP1 SWAP2 ADD CALLDATALOAD SWAP2 POP JUMP JUMPDEST PUSH0 DUP1 PUSH0 PUSH1 0x60 DUP5 DUP7 SUB SLT ISZERO PUSH2 0xE42 JUMPI PUSH0 DUP1 REVERT JUMPDEST PUSH2 0xE4B DUP5 PUSH2 0xDCD JUMP JUMPDEST SWAP3 POP PUSH2 0xE59 PUSH1 0x20 DUP6 ADD PUSH2 0xDCD JUMP JUMPDEST SWAP2 POP PUSH1 0x40 DUP5 ADD CALLDATALOAD SWAP1 POP SWAP3 POP SWAP3 POP SWAP3 JUMP JUMPDEST PUSH0 PUSH1 0x20 DUP3 DUP5 SUB SLT ISZERO PUSH2 0xE79 JUMPI PUSH0 DUP1 REVERT JUMPDEST POP CALLDATALOAD SWAP2 SWAP1 POP JUMP JUMPDEST PUSH0 PUSH1 0x20 DUP3 DUP5 SUB SLT ISZERO PUSH2 0xE90 JUMPI PUSH0 DUP1 REVERT JUMPDEST PUSH2 0xB03 DUP3 PUSH2 0xDCD JUMP JUMPDEST PUSH4 0x4E487B71 PUSH1 0xE0 SHL PUSH0 MSTORE PUSH1 0x41 PUSH1 0x4 MSTORE PUSH1 0x24 PUSH0 REVERT JUMPDEST PUSH0 DUP1 PUSH0 PUSH1 0x60 DUP5 DUP7 SUB SLT ISZERO PUSH2 0xEBF JUMPI PUSH0 DUP1 REVERT JUMPDEST PUSH2 0xEC8 DUP5 PUSH2 0xDCD JUMP JUMPDEST SWAP3 POP PUSH1 0x20 DUP5 ADD CALLDATALOAD SWAP2 POP PUSH1 0x40 DUP5 ADD CALLDATALOAD PUSH8 0xFFFFFFFFFFFFFFFF DUP1 DUP3 GT ISZERO PUSH2 0xEEB JUMPI PUSH0 DUP1 REVERT JUMPDEST DUP2 DUP7 ADD SWAP2 POP DUP7 PUSH1 0x1F DUP4 ADD SLT PUSH2 0xEFE JUMPI PUSH0 DUP1 REVERT JUMPDEST DUP2 CALLDATALOAD DUP2 DUP2 GT ISZERO PUSH2 0xF10 JUMPI PUSH2 0xF10 PUSH2 0xE99 JUMP JUMPDEST PUSH1 0x40 MLOAD PUSH1 0x1F DUP3 ADD PUSH1 0x1F NOT SWAP1 DUP2 AND PUSH1 0x3F ADD AND DUP2 ADD SWAP1 DUP4 DUP3 GT DUP2 DUP4 LT OR ISZERO PUSH2 0xF38 JUMPI PUSH2 0xF38 PUSH2 0xE99 JUMP JUMPDEST DUP2 PUSH1 0x40 MSTORE DUP3 DUP2 MSTORE DUP10 PUSH1 0x20 DUP5 DUP8 ADD ADD GT ISZERO PUSH2 0xF50 JUMPI PUSH0 DUP1 REVERT JUMPDEST DUP3 PUSH1 0x20 DUP7 ADD PUSH1 0x20 DUP4 ADD CALLDATACOPY PUSH0 PUSH1 0x20 DUP5 DUP4 ADD ADD MSTORE DUP1 SWAP6 POP POP POP POP POP POP SWAP3 POP SWAP3 POP SWAP3 JUMP JUMPDEST PUSH0 DUP1 PUSH1 0x40 DUP4 DUP6 SUB SLT ISZERO PUSH2 0xF82 JUMPI PUSH0 DUP1 REVERT JUMPDEST PUSH2 0xF8B DUP4 PUSH2 0xDCD JUMP JUMPDEST SWAP2 POP PUSH2 0xF99 PUSH1 0x20 DUP5 ADD PUSH2 0xDCD JUMP JUMPDEST SWAP1 POP SWAP3 POP SWAP3 SWAP1 POP JUMP JUMPDEST PUSH0 DUP1 PUSH0 DUP1 PUSH1 0x80 DUP6 DUP8 SUB SLT ISZERO PUSH2 0xFB5 JUMPI PUSH0 DUP1 REVERT JUMPDEST POP POP DUP3 CALLDATALOAD SWAP5 PUSH1 0x20 DUP5 ADD CALLDATALOAD SWAP5 POP PUSH1 0x40 DUP5 ADD CALLDATALOAD SWAP4 PUSH1 0x60 ADD CALLDATALOAD SWAP3 POP SWAP1 POP JUMP JUMPDEST PUSH1 0x1 DUP2 DUP2 SHR SWAP1 DUP3 AND DUP1 PUSH2 0xFE5 JUMPI PUSH1 0x7F DUP3 AND SWAP2 POP JUMPDEST PUSH1 0x20 DUP3 LT DUP2 SUB PUSH2 0x1003 JUMPI PUSH4 0x4E487B71 PUSH1 0xE0 SHL PUSH0 MSTORE PUSH1 0x22 PUSH1 0x4 MSTORE PUSH1 0x24 PUSH0 REVERT JUMPDEST POP SWAP2 SWAP1 POP JUMP JUMPDEST PUSH4 0x4E487B71 PUSH1 0xE0 SHL PUSH0 MSTORE PUSH1 0x12 PUSH1 0x4 MSTORE PUSH1 0x24 PUSH0 REVERT JUMPDEST PUSH4 0x4E487B71 PUSH1 0xE0 SHL PUSH0 MSTORE PUSH1 0x11 PUSH1 0x4 MSTORE PUSH1 0x24 PUSH0 REVERT JUMPDEST PUSH0 DUP3 PUSH2 0x103F JUMPI PUSH2 0x103F PUSH2 0x1009 JUMP JUMPDEST POP DIV SWAP1 JUMP JUMPDEST DUP2 DUP2 SUB DUP2 DUP2 GT ISZERO PUSH2 0x589 JUMPI PUSH2 0x589 PUSH2 0x101D JUMP JUMPDEST SWAP3 DUP4 MSTORE PUSH1 0x60 SWAP2 SWAP1 SWAP2 SHL PUSH12 0xFFFFFFFFFFFFFFFFFFFFFFFF NOT AND PUSH1 0x20 DUP4 ADD MSTORE PUSH1 0x34 DUP3 ADD MSTORE PUSH1 0x54 ADD SWAP1 JUMP JUMPDEST DUP1 DUP3 ADD DUP1 DUP3 GT ISZERO PUSH2 0x589 JUMPI PUSH2 0x589 PUSH2 0x101D JUMP JUMPDEST PUSH1 0x1 DUP2 DUP2 JUMPDEST DUP1 DUP6 GT ISZERO PUSH2 0x10CC JUMPI DUP2 PUSH0 NOT DIV DUP3 GT ISZERO PUSH2 0x10B2 JUMPI PUSH2 0x10B2 PUSH2 0x101D JUMP JUMPDEST DUP1 DUP6 AND ISZERO PUSH2 0x10BF JUMPI SWAP2 DUP2 MUL SWAP2 JUMPDEST SWAP4 DUP5 SHR SWAP4 SWAP1 DUP1 MUL SWAP1 PUSH2 0x1097 JUMP JUMPDEST POP SWAP3 POP SWAP3 SWAP1 POP JUMP JUMPDEST PUSH0 DUP3 PUSH2 0x10E2 JUMPI POP PUSH1 0x1 PUSH2 0x589 JUMP JUMPDEST DUP2 PUSH2 0x10EE JUMPI POP PUSH0 PUSH2 0x589 JUMP JUMPDEST DUP2 PUSH1 0x1 DUP2 EQ PUSH2 0x1104 JUMPI PUSH1 0x2 DUP2 EQ PUSH2 0x110E JUMPI PUSH2 0x112A JUMP JUMPDEST PUSH1 0x1 SWAP2 POP POP PUSH2 0x589 JUMP JUMPDEST PUSH1 0xFF DUP5 GT ISZERO PUSH2 0x111F JUMPI PUSH2 0x111F PUSH2 0x101D JUMP JUMPDEST POP POP PUSH1 0x1 DUP3 SHL PUSH2 0x589 JUMP JUMPDEST POP PUSH1 0x20 DUP4 LT PUSH2 0x133 DUP4 LT AND PUSH1 0x4E DUP5 LT PUSH1 0xB DUP5 LT AND OR ISZERO PUSH2 0x114D JUMPI POP DUP2 DUP2 EXP PUSH2 0x589 JUMP JUMPDEST PUSH2 0x1157 DUP4 DUP4 PUSH2 0x1092 JUMP JUMPDEST DUP1 PUSH0 NOT DIV DUP3 GT ISZERO PUSH2 0x116A JUMPI PUSH2 0x116A PUSH2 0x101D JUMP JUMPDEST MUL SWAP4 SWAP3 POP POP POP JUMP JUMPDEST PUSH0 PUSH2 0xB03 DUP4 DUP4 PUSH2 0x10D4 JUMP JUMPDEST DUP1 DUP3 MUL DUP2 ISZERO DUP3 DUP3 DIV DUP5 EQ OR PUSH2 0x589 JUMPI PUSH2 0x589 PUSH2 0x101D JUMP JUMPDEST PUSH4 0x4E487B71 PUSH1 0xE0 SHL PUSH0 MSTORE PUSH1 0x1 PUSH1 0x4 MSTORE PUSH1 0x24 PUSH0 REVERT JUMPDEST PUSH1 0x1 PUSH1 0x1 PUSH1 0xA0 SHL SUB DUP6 DUP2 AND DUP3 MSTORE PUSH1 0x20 DUP3 ADD DUP6 SWAP1 MSTORE DUP4 AND PUSH1 0x40 DUP3 ADD MSTORE PUSH1 0x80 PUSH1 0x60 DUP3 ADD DUP2 SWAP1 MSTORE PUSH0 SWAP1 PUSH2 0x11DA SWAP1 DUP4 ADD DUP5 PUSH2 0xD78 JUMP JUMPDEST SWAP7 SWAP6 POP POP POP POP POP POP JUMP JUMPDEST PUSH0 PUSH1 0x20 DUP3 DUP5 SUB SLT ISZERO PUSH2 0x11F4 JUMPI PUSH0 DUP1 REVERT JUMPDEST DUP2 MLOAD DUP1 ISZERO ISZERO DUP2 EQ PUSH2 0xB03 JUMPI PUSH0 DUP1 REVERT JUMPDEST PUSH0 DUP3 PUSH2 0x1211 JUMPI PUSH2 0x1211 PUSH2 0x1009 JUMP JUMPDEST POP MOD SWAP1 JUMP INVALID LOG2 PUSH5 0x6970667358 0x22 SLT KECCAK256 DUP3 0x4B SWAP10 DIV RETURNDATASIZE 0xE0 DUP13 DUP10 NOT 0xF 0x2E EQ PUSH20 0x405F958B2B3DCEBA8E6191070D4F4E01E73F4D64 PUSH20 0x6F6C634300081800330000000000000000000000 "
		},
		"gasEstimates": {
			"creation": {
				"codeDepositCost": "936800",
				"executionCost": "infinite",
				"totalCost": "infinite"
			},
			"external": {
				"_BLOCKS_PER_READJUSTMENT()": "2427",
				"_MAXIMUM_TARGET()": "2362",
				"_MINIMUM_TARGET()": "2338",
				"_totalSupply()": "2362",
				"acceptOwnership()": "56649",
				"allowance(address,address)": "infinite",
				"approve(address,uint256)": "24566",
				"approveAndCall(address,uint256,bytes)": "infinite",
				"balanceOf(address)": "2645",
				"challengeNumber()": "2339",
				"checkMineSolution(uint256,bytes32,bytes32,uint256)": "726",
				"decimals()": "2446",
				"epochCount()": "2340",
				"getChallengeNumber()": "2336",
				"getMineDigest(uint256,bytes32)": "606",
				"getMiningDifficulty()": "4566",
				"getMiningReward()": "infinite",
				"getMiningTarget()": "2337",
				"getOwner()": "2419",
				"lastRewardAmount()": "2339",
				"lastRewardBscBlockNumber()": "2384",
				"lastRewardTo()": "2425",
				"latestDifficultyPeriodStarted()": "2383",
				"maxSupplyForEra()": "2361",
				"mine(uint256)": "infinite",
				"miningTarget()": "2406",
				"name()": "infinite",
				"newOwner()": "2447",
				"owner()": "2402",
				"rewardEra()": "2406",
				"symbol()": "infinite",
				"tokensMined()": "2426",
				"totalSupply()": "4622",
				"transfer(address,uint256)": "infinite",
				"transferAnyERC20Token(address,uint256)": "infinite",
				"transferFrom(address,address,uint256)": "infinite",
				"transferOwnership(address)": "26818"
			},
			"internal": {
				"_reAdjustDifficulty()": "infinite",
				"_startNewMiningEpoch()": "infinite"
			}
		},
		"methodIdentifiers": {
			"_BLOCKS_PER_READJUSTMENT()": "b5ade81b",
			"_MAXIMUM_TARGET()": "87a2a9d6",
			"_MINIMUM_TARGET()": "dc6e9cf9",
			"_totalSupply()": "3eaaf86b",
			"acceptOwnership()": "79ba5097",
			"allowance(address,address)": "dd62ed3e",
			"approve(address,uint256)": "095ea7b3",
			"approveAndCall(address,uint256,bytes)": "cae9ca51",
			"balanceOf(address)": "70a08231",
			"challengeNumber()": "8ae0368b",
			"checkMineSolution(uint256,bytes32,bytes32,uint256)": "e30ccffe",
			"decimals()": "313ce567",
			"epochCount()": "829965cc",
			"getChallengeNumber()": "4ef37628",
			"getMineDigest(uint256,bytes32)": "238511d1",
			"getMiningDifficulty()": "17da485f",
			"getMiningReward()": "490203a7",
			"getMiningTarget()": "32e99708",
			"getOwner()": "893d20e8",
			"lastRewardAmount()": "bafedcaa",
			"lastRewardBscBlockNumber()": "2979f8e3",
			"lastRewardTo()": "6fd396d6",
			"latestDifficultyPeriodStarted()": "cb9ae707",
			"maxSupplyForEra()": "4fa972e1",
			"mine(uint256)": "4d474898",
			"miningTarget()": "8a769d35",
			"name()": "06fdde03",
			"newOwner()": "d4ee1d90",
			"owner()": "8da5cb5b",
			"rewardEra()": "2d38bf7a",
			"symbol()": "95d89b41",
			"tokensMined()": "fc6065f0",
			"totalSupply()": "18160ddd",
			"transfer(address,uint256)": "a9059cbb",
			"transferAnyERC20Token(address,uint256)": "dc39d06d",
			"transferFrom(address,address,uint256)": "23b872dd",
			"transferOwnership(address)": "f2fde38b"
		}
	},
	"abi": [
		{
			"inputs": [],
			"stateMutability": "nonpayable",
			"type": "constructor"
		},
		{
			"anonymous": false,
			"inputs": [
				{
					"indexed": true,
					"internalType": "address",
					"name": "tokenOwner",
					"type": "address"
				},
				{
					"indexed": true,
					"internalType": "address",
					"name": "spender",
					"type": "address"
				},
				{
					"indexed": false,
					"internalType": "uint256",
					"name": "tokens",
					"type": "uint256"
				}
			],
			"name": "Approval",
			"type": "event"
		},
		{
			"anonymous": false,
			"inputs": [
				{
					"indexed": true,
					"internalType": "address",
					"name": "from",
					"type": "address"
				},
				{
					"indexed": false,
					"internalType": "uint256",
					"name": "reward_amount",
					"type": "uint256"
				},
				{
					"indexed": false,
					"internalType": "uint256",
					"name": "epochCount",
					"type": "uint256"
				},
				{
					"indexed": false,
					"internalType": "bytes32",
					"name": "newChallengeNumber",
					"type": "bytes32"
				}
			],
			"name": "Mine",
			"type": "event"
		},
		{
			"anonymous": false,
			"inputs": [
				{
					"indexed": true,
					"internalType": "address",
					"name": "_from",
					"type": "address"
				},
				{
					"indexed": true,
					"internalType": "address",
					"name": "_to",
					"type": "address"
				}
			],
			"name": "OwnershipTransferred",
			"type": "event"
		},
		{
			"anonymous": false,
			"inputs": [
				{
					"indexed": true,
					"internalType": "address",
					"name": "from",
					"type": "address"
				},
				{
					"indexed": true,
					"internalType": "address",
					"name": "to",
					"type": "address"
				},
				{
					"indexed": false,
					"internalType": "uint256",
					"name": "tokens",
					"type": "uint256"
				}
			],
			"name": "Transfer",
			"type": "event"
		},
		{
			"inputs": [],
			"name": "_BLOCKS_PER_READJUSTMENT",
			"outputs": [
				{
					"internalType": "uint256",
					"name": "",
					"type": "uint256"
				}
			],
			"stateMutability": "view",
			"type": "function"
		},
		{
			"inputs": [],
			"name": "_MAXIMUM_TARGET",
			"outputs": [
				{
					"internalType": "uint256",
					"name": "",
					"type": "uint256"
				}
			],
			"stateMutability": "view",
			"type": "function"
		},
		{
			"inputs": [],
			"name": "_MINIMUM_TARGET",
			"outputs": [
				{
					"internalType": "uint256",
					"name": "",
					"type": "uint256"
				}
			],
			"stateMutability": "view",
			"type": "function"
		},
		{
			"inputs": [],
			"name": "_totalSupply",
			"outputs": [
				{
					"internalType": "uint256",
					"name": "",
					"type": "uint256"
				}
			],
			"stateMutability": "view",
			"type": "function"
		},
		{
			"inputs": [],
			"name": "acceptOwnership",
			"outputs": [],
			"stateMutability": "nonpayable",
			"type": "function"
		},
		{
			"inputs": [
				{
					"internalType": "address",
					"name": "tokenOwner",
					"type": "address"
				},
				{
					"internalType": "address",
					"name": "spender",
					"type": "address"
				}
			],
			"name": "allowance",
			"outputs": [
				{
					"internalType": "uint256",
					"name": "remaining",
					"type": "uint256"
				}
			],
			"stateMutability": "view",
			"type": "function"
		},
		{
			"inputs": [
				{
					"internalType": "address",
					"name": "spender",
					"type": "address"
				},
				{
					"internalType": "uint256",
					"name": "tokens",
					"type": "uint256"
				}
			],
			"name": "approve",
			"outputs": [
				{
					"internalType": "bool",
					"name": "success",
					"type": "bool"
				}
			],
			"stateMutability": "nonpayable",
			"type": "function"
		},
		{
			"inputs": [
				{
					"internalType": "address",
					"name": "spender",
					"type": "address"
				},
				{
					"internalType": "uint256",
					"name": "tokens",
					"type": "uint256"
				},
				{
					"internalType": "bytes",
					"name": "data",
					"type": "bytes"
				}
			],
			"name": "approveAndCall",
			"outputs": [
				{
					"internalType": "bool",
					"name": "success",
					"type": "bool"
				}
			],
			"stateMutability": "nonpayable",
			"type": "function"
		},
		{
			"inputs": [
				{
					"internalType": "address",
					"name": "tokenOwner",
					"type": "address"
				}
			],
			"name": "balanceOf",
			"outputs": [
				{
					"internalType": "uint256",
					"name": "balance",
					"type": "uint256"
				}
			],
			"stateMutability": "view",
			"type": "function"
		},
		{
			"inputs": [],
			"name": "challengeNumber",
			"outputs": [
				{
					"internalType": "bytes32",
					"name": "",
					"type": "bytes32"
				}
			],
			"stateMutability": "view",
			"type": "function"
		},
		{
			"inputs": [
				{
					"internalType": "uint256",
					"name": "nonce",
					"type": "uint256"
				},
				{
					"internalType": "bytes32",
					"name": "challenge_digest",
					"type": "bytes32"
				},
				{
					"internalType": "bytes32",
					"name": "challenge_number",
					"type": "bytes32"
				},
				{
					"internalType": "uint256",
					"name": "testTarget",
					"type": "uint256"
				}
			],
			"name": "checkMineSolution",
			"outputs": [
				{
					"internalType": "bool",
					"name": "success",
					"type": "bool"
				}
			],
			"stateMutability": "view",
			"type": "function"
		},
		{
			"inputs": [],
			"name": "decimals",
			"outputs": [
				{
					"internalType": "uint8",
					"name": "",
					"type": "uint8"
				}
			],
			"stateMutability": "view",
			"type": "function"
		},
		{
			"inputs": [],
			"name": "epochCount",
			"outputs": [
				{
					"internalType": "uint256",
					"name": "",
					"type": "uint256"
				}
			],
			"stateMutability": "view",
			"type": "function"
		},
		{
			"inputs": [],
			"name": "getChallengeNumber",
			"outputs": [
				{
					"internalType": "bytes32",
					"name": "",
					"type": "bytes32"
				}
			],
			"stateMutability": "view",
			"type": "function"
		},
		{
			"inputs": [
				{
					"internalType": "uint256",
					"name": "nonce",
					"type": "uint256"
				},
				{
					"internalType": "bytes32",
					"name": "challenge_number",
					"type": "bytes32"
				}
			],
			"name": "getMineDigest",
			"outputs": [
				{
					"internalType": "bytes32",
					"name": "digesttest",
					"type": "bytes32"
				}
			],
			"stateMutability": "view",
			"type": "function"
		},
		{
			"inputs": [],
			"name": "getMiningDifficulty",
			"outputs": [
				{
					"internalType": "uint256",
					"name": "",
					"type": "uint256"
				}
			],
			"stateMutability": "view",
			"type": "function"
		},
		{
			"inputs": [],
			"name": "getMiningReward",
			"outputs": [
				{
					"internalType": "uint256",
					"name": "",
					"type": "uint256"
				}
			],
			"stateMutability": "view",
			"type": "function"
		},
		{
			"inputs": [],
			"name": "getMiningTarget",
			"outputs": [
				{
					"internalType": "uint256",
					"name": "",
					"type": "uint256"
				}
			],
			"stateMutability": "view",
			"type": "function"
		},
		{
			"inputs": [],
			"name": "getOwner",
			"outputs": [
				{
					"internalType": "address",
					"name": "",
					"type": "address"
				}
			],
			"stateMutability": "view",
			"type": "function"
		},
		{
			"inputs": [],
			"name": "lastRewardAmount",
			"outputs": [
				{
					"internalType": "uint256",
					"name": "",
					"type": "uint256"
				}
			],
			"stateMutability": "view",
			"type": "function"
		},
		{
			"inputs": [],
			"name": "lastRewardBscBlockNumber",
			"outputs": [
				{
					"internalType": "uint256",
					"name": "",
					"type": "uint256"
				}
			],
			"stateMutability": "view",
			"type": "function"
		},
		{
			"inputs": [],
			"name": "lastRewardTo",
			"outputs": [
				{
					"internalType": "address",
					"name": "",
					"type": "address"
				}
			],
			"stateMutability": "view",
			"type": "function"
		},
		{
			"inputs": [],
			"name": "latestDifficultyPeriodStarted",
			"outputs": [
				{
					"internalType": "uint256",
					"name": "",
					"type": "uint256"
				}
			],
			"stateMutability": "view",
			"type": "function"
		},
		{
			"inputs": [],
			"name": "maxSupplyForEra",
			"outputs": [
				{
					"internalType": "uint256",
					"name": "",
					"type": "uint256"
				}
			],
			"stateMutability": "view",
			"type": "function"
		},
		{
			"inputs": [
				{
					"internalType": "uint256",
					"name": "nonce",
					"type": "uint256"
				}
			],
			"name": "mine",
			"outputs": [
				{
					"internalType": "bool",
					"name": "success",
					"type": "bool"
				}
			],
			"stateMutability": "nonpayable",
			"type": "function"
		},
		{
			"inputs": [],
			"name": "miningTarget",
			"outputs": [
				{
					"internalType": "uint256",
					"name": "",
					"type": "uint256"
				}
			],
			"stateMutability": "view",
			"type": "function"
		},
		{
			"inputs": [],
			"name": "name",
			"outputs": [
				{
					"internalType": "string",
					"name": "",
					"type": "string"
				}
			],
			"stateMutability": "view",
			"type": "function"
		},
		{
			"inputs": [],
			"name": "newOwner",
			"outputs": [
				{
					"internalType": "address",
					"name": "",
					"type": "address"
				}
			],
			"stateMutability": "view",
			"type": "function"
		},
		{
			"inputs": [],
			"name": "owner",
			"outputs": [
				{
					"internalType": "address",
					"name": "",
					"type": "address"
				}
			],
			"stateMutability": "view",
			"type": "function"
		},
		{
			"inputs": [],
			"name": "rewardEra",
			"outputs": [
				{
					"internalType": "uint256",
					"name": "",
					"type": "uint256"
				}
			],
			"stateMutability": "view",
			"type": "function"
		},
		{
			"inputs": [],
			"name": "symbol",
			"outputs": [
				{
					"internalType": "string",
					"name": "",
					"type": "string"
				}
			],
			"stateMutability": "view",
			"type": "function"
		},
		{
			"inputs": [],
			"name": "tokensMined",
			"outputs": [
				{
					"internalType": "uint256",
					"name": "",
					"type": "uint256"
				}
			],
			"stateMutability": "view",
			"type": "function"
		},
		{
			"inputs": [],
			"name": "totalSupply",
			"outputs": [
				{
					"internalType": "uint256",
					"name": "",
					"type": "uint256"
				}
			],
			"stateMutability": "view",
			"type": "function"
		},
		{
			"inputs": [
				{
					"internalType": "address",
					"name": "to",
					"type": "address"
				},
				{
					"internalType": "uint256",
					"name": "tokens",
					"type": "uint256"
				}
			],
			"name": "transfer",
			"outputs": [
				{
					"internalType": "bool",
					"name": "success",
					"type": "bool"
				}
			],
			"stateMutability": "nonpayable",
			"type": "function"
		},
		{
			"inputs": [
				{
					"internalType": "address",
					"name": "tokenAddress",
					"type": "address"
				},
				{
					"internalType": "uint256",
					"name": "tokens",
					"type": "uint256"
				}
			],
			"name": "transferAnyERC20Token",
			"outputs": [
				{
					"internalType": "bool",
					"name": "success",
					"type": "bool"
				}
			],
			"stateMutability": "nonpayable",
			"type": "function"
		},
		{
			"inputs": [
				{
					"internalType": "address",
					"name": "from",
					"type": "address"
				},
				{
					"internalType": "address",
					"name": "to",
					"type": "address"
				},
				{
					"internalType": "uint256",
					"name": "tokens",
					"type": "uint256"
				}
			],
			"name": "transferFrom",
			"outputs": [
				{
					"internalType": "bool",
					"name": "success",
					"type": "bool"
				}
			],
			"stateMutability": "nonpayable",
			"type": "function"
		},
		{
			"inputs": [
				{
					"internalType": "address",
					"name": "_newOwner",
					"type": "address"
				}
			],
			"name": "transferOwnership",
			"outputs": [],
			"stateMutability": "nonpayable",
			"type": "function"
		}
	]
}