{
	"data": {
		"bytecode": {
			"linkReferences": {},
			"object": "608060405260078054336001600160a01b03199182168117909255600880549091169091179055348015610031575f80fd5b5060405161176b38038061176b833981016040819052610050916102ca565b600580546001600160a01b039384166001600160a01b03199182161790915560068054929093169116179055601260205269d3c21bcecceda10000007f4270792c5242bb9af31a0ca014789585bac3a2bc36b4e20e1e1163e09d416afc5569b3fe97a2fafd2f4000007fea116540bb6c5b7acceccd1764953a76c4fad8a217efbc5957292a6f6549f6bb55696495cd356e2412e000007f52d0aceea21727f3645b59ed2a8e2414ba98aec7326945136bbb6fbd1d1bee8055693a56e28a8271153000007f9f59f72911ca8f47b3e19df7b8d808aa81d8edc8119614c7c316f6c84bb89c8b55692fa54641bae8aaa000007f5e6dc1ec65c205e4785800fc7cf7266df7ecc1251284c73df73cc438b1f9349855691003a3b3f593e40400007f5fe6cf215b4a13eaa2a7a4f22b2caee36bbae8f63be3ada50ba2209f503bdc7655690a968163f0a57b4000007f1cc964778659cb526f0f4fe148ec03d3f93f444a969aac8d1602a8004b60f6f85569098774738bc8222000007f77a856606c58f2afe74bc4d415a981c84b65392fcf7fefc382ded558bb92f4648190557fe916beb333cde8471a36b6e21a68b3ebdc7e0fe343cee63055523fb231ea11878190557f9717e554f4f1c8f1445175ec6b77439740ea6e0a2d3809501f0e3f3949c19e288190557f31c8277a0ccfffea1189152918c4cd07edee7f47b05bce3a4bae62597e6d602e8190557ff488cbb1c9f248560c55d6af8aff3d1b53d7743aee9b6e9d1423c012423064515560425f52690971c556131295e000007fa6a9599000f4425e443918d34a69c9234ba73b27460468e6463868ac68d263b8556102fb565b80516001600160a01b03811681146102c5575f80fd5b919050565b5f80604083850312156102db575f80fd5b6102e4836102af565b91506102f2602084016102af565b90509250929050565b611463806103085f395ff3fe608060405234801561000f575f80fd5b50600436106101a1575f3560e01c80638aca35a0116100f3578063b91f3f9711610093578063e372c9001161006e578063e372c90014610397578063f5ae497a1461039f578063f7c618c1146103b2578063fdf5963a146103c5575f80fd5b8063b91f3f9714610368578063d123273014610370578063ddd1b67e1461038f575f80fd5b8063a5b39cfb116100ce578063a5b39cfb14610318578063a87df83214610337578063b5a556d214610340578063b77cf9c614610349575f80fd5b80638aca35a0146102f45780638f90e902146102fd57806392f851c114610310575f80fd5b806367eeba0c1161015e5780636e90013d116101395780636e90013d1461028e57806373f273fc146102a157806375f0a874146102c0578063862a4d47146102eb575f80fd5b806367eeba0c1461023757806369a69e29146102405780636bd3b87c14610253575f80fd5b806306d2ad40146101a55780632be11ae2146101dc57806340519a53146101e6578063443df8f5146101f957806350f0a325146102265780635c9302c91461022e575b5f80fd5b6101c76101b33660046112ae565b60046020525f908152604090205460ff1681565b60405190151581526020015b60405180910390f35b6101e46103ce565b005b6101e46101f43660046112c7565b6108d6565b6102186102073660046112c7565b60126020525f908152604090205481565b6040519081526020016101d3565b610218600781565b610218600e5481565b61021860105481565b61021861024e3660046112ae565b610ab6565b6102796102613660046112ae565b60136020525f90815260409020805460019091015482565b604080519283526020830191909152016101d3565b6101e461029c3660046112de565b610b9a565b6102186102af3660046112ae565b60026020525f908152604090205481565b6008546102d3906001600160a01b031681565b6040516001600160a01b0390911681526020016101d3565b610218600d5481565b610218600f5481565b6101e461030b3660046112ae565b610c5b565b6101e4610cc5565b6102186103263660046112ae565b60016020525f908152604090205481565b610218600c5481565b61021860115481565b6102186103573660046112ae565b5f6020819052908152604090205481565b6101e4610e09565b61021861037e3660046112ae565b60036020525f908152604090205481565b610218611008565b610218605a81565b6005546102d3906001600160a01b031681565b6006546102d3906001600160a01b031681565b610218600a5481565b335f908152602081905260408120546103e7904261131a565b335f9081526003602052604081205491925090610404904261131a565b9050600782101561046d5760405162461bcd60e51b815260206004820152602860248201527f4d7573742077616974206174206c6561737420372064617973206265747765656044820152676e20636c61696d7360c01b60648201526084015b60405180910390fd5b605a8110156104cd5760405162461bcd60e51b815260206004820152602660248201527f43616e6e6f7420636c61696d206265666f72652039302064617973206f66207360448201526574616b696e6760d01b6064820152608401610464565b335f9081526001602052604090205461051b5760405162461bcd60e51b815260206004820152601060248201526f4e6f207374616b656420746f6b656e7360801b6044820152606401610464565b610523611008565b600d541461055f57610533611008565b600d55600c60125f61054361101b565b81526020019081526020015f205461055b919061132d565b600f555b600e5461056f620151804261132d565b146105bd57610581620151804261132d565b600e55601e600c60125f61059361101b565b81526020019081526020015f20546105ab919061132d565b6105b5919061132d565b6010555f6011555b60426105c761101b565b11156105f457690971c556131295e0000060125f6105e361101b565b815260208101919091526040015f20555b600954335f90815260016020526040812054909161016d9160128461061761101b565b81526020019081526020015f205461062f919061134c565b610639919061132d565b610643919061132d565b90505f61066461065460078661132d565b61065f605a8661132d565b61102a565b90505f610671828461134c565b335f9081526002602052604081208290556011546010549293509091610697919061131a565b90505f6106a4838361102a565b600954335f90815260016020526040902054919250906106c4908361134c565b6106ce919061132d565b335f908152600260205260408120805492935083929091906106f190849061131a565b9250508190555080600c5f8282546107099190611363565b925050819055508060115f8282546107219190611363565b90915550508061076a5760405162461bcd60e51b81526020600482015260146024820152734e6f20636c61696d61626c65207265776172647360601b6044820152606401610464565b5f612710610776611043565b610780908461134c565b61078a919061132d565b9050610796818361131a565b915081156108895760065460405163a9059cbb60e01b8152336004820152602481018490526001600160a01b039091169063a9059cbb906044016020604051808303815f875af11580156107ec573d5f803e3d5ffd5b505050506040513d601f19601f820116820180604052508101906108109190611376565b5060065460085460405163a9059cbb60e01b81526001600160a01b0391821660048201526024810184905291169063a9059cbb906044016020604051808303815f875af1158015610863573d5f803e3d5ffd5b505050506040513d601f19601f820116820180604052508101906108879190611376565b505b335f818152602081815260409182902042905590518481527fa0703c548e4f3579a5b862677f6e9a97ac2d85326ddb959deb9b37a802253232910160405180910390a25050505050505050565b5f6108e033611094565b9050620f42408110156109355760405162461bcd60e51b815260206004820152601860248201527f696e7375666669656e7420706f6f6c656420416d6f756e7400000000000000006044820152606401610464565b6005546040516323b872dd60e01b8152336004820152306024820152604481018490526001600160a01b03909116906323b872dd906064016020604051808303815f875af1158015610989573d5f803e3d5ffd5b505050506040513d601f19601f820116820180604052508101906109ad9190611376565b6109f45760405162461bcd60e51b81526020600482015260186024820152771314081d1bdad95b881d1c985b9cd9995c8819985a5b195960421b6044820152606401610464565b5f610a00605a42611363565b335f8181526003602090815260408083204290558051808201825288815280830186815294845260139092528220905181559151600190920191909155600980549293508592909190610a54908490611363565b9091555050335f9081526001602052604081208054859290610a77908490611363565b909155505060405183815233907fe1954443838ef603b0d4c78380e8ce8fa0cbd3126aafb585e9072cf90185fa589060200160405180910390a2505050565b335f908152602081905260408120548190610ad1904261131a565b335f9081526003602052604081205491925090610aee904261131a565b90506007821080610aff5750605a81105b15610b0d57505f9392505050565b5f610b27610b1c60078561132d565b61065f605a8561132d565b6009546001600160a01b0387165f908152600160205260408120549293509161016d9190601284610b5661101b565b81526020019081526020015f2054610b6e919061134c565b610b78919061132d565b610b82919061132d565b90505f610b8f838361134c565b979650505050505050565b6007546001600160a01b03163314610be25760405162461bcd60e51b815260206004820152600b60248201526a1b9bdd08105b1b1bddd95960aa1b6044820152606401610464565b60075460405163a9059cbb60e01b81526001600160a01b039182166004820152602481018390529083169063a9059cbb906044016020604051808303815f875af1158015610c32573d5f803e3d5ffd5b505050506040513d601f19601f82011682018060405250810190610c569190611376565b505050565b6007546001600160a01b03163314610ca35760405162461bcd60e51b815260206004820152600b60248201526a1b9bdd08105b1b1bddd95960aa1b6044820152606401610464565b600580546001600160a01b0319166001600160a01b0392909216919091179055565b6006546040516370a0823160e01b81523360048201525f916001600160a01b0316906370a0823190602401602060405180830381865afa158015610d0b573d5f803e3d5ffd5b505050506040513d601f19601f82011682018060405250810190610d2f919061139c565b11610d6c5760405162461bcd60e51b815260206004820152600d60248201526c5a65726f20486f6c64696e677360981b6044820152606401610464565b335f9081526004602052604090205460ff1615610dda5760405162461bcd60e51b815260206004820152602660248201527f596f75206861766520616c7265616479206170706c69656420666f72207265646044820152653ab1ba34b7b760d11b6064820152608401610464565b600a8054905f610de9836113b3565b9091555050335f908152600460205260409020805460ff19166001179055565b335f90815260036020526040902054610e2490605a90611363565b421015610e735760405162461bcd60e51b815260206004820152601c60248201527f43616e6e6f7420756e6c6f636b206265666f72652039302064617973000000006044820152606401610464565b335f9081526013602052604090205480610ec25760405162461bcd60e51b815260206004820152601060248201526f4e6f206c6f636b656420746f6b656e7360801b6044820152606401610464565b60055460405163a9059cbb60e01b8152336004820152602481018390526001600160a01b039091169063a9059cbb906044016020604051808303815f875af1158015610f10573d5f803e3d5ffd5b505050506040513d601f19601f82011682018060405250810190610f349190611376565b610f7b5760405162461bcd60e51b81526020600482015260186024820152771314081d1bdad95b881d1c985b9cd9995c8819985a5b195960421b6044820152606401610464565b8060095f828254610f8c919061131a565b9091555050335f9081526001602052604081208054839290610faf90849061131a565b9091555050335f8181526013602052604080822082815560010191909155517f580ec6003f06a23971f7ccdb029ae688764884d7361687066e352d1ff602447390610ffd9084815260200190565b60405180910390a250565b5f61101662278d004261132d565b905090565b5f6110166301e133804261132d565b5f818310611038578161103a565b825b90505b92915050565b5f620f4240600a541061105a576032600b5561108d565b62989680600a5410611070576019600b5561108d565b6305f5e100600a541061108757600c600b5561108d565b6064600b555b50600b5490565b6005545f906001600160a01b03166110ee5760405162461bcd60e51b815260206004820152601c60248201527f556e697377617020706f6f6c2061646472657373206e6f7420736574000000006044820152606401610464565b6005546040516370a0823160e01b81526001600160a01b0384811660048301525f9216906370a0823190602401602060405180830381865afa158015611136573d5f803e3d5ffd5b505050506040513d601f19601f8201168201806040525081019061115a919061139c565b90505f60055f9054906101000a90046001600160a01b03166001600160a01b03166318160ddd6040518163ffffffff1660e01b8152600401602060405180830381865afa1580156111ad573d5f803e3d5ffd5b505050506040513d601f19601f820116820180604052508101906111d1919061139c565b90505f60055f9054906101000a90046001600160a01b03166001600160a01b0316630902f1ac6040518163ffffffff1660e01b8152600401606060405180830381865afa158015611224573d5f803e3d5ffd5b505050506040513d601f19601f8201168201806040525081019061124891906113e1565b50506001600160701b031690505f8261126985670de0b6b3a764000061134c565b611273919061132d565b90505f670de0b6b3a7640000611289848461134c565b610b8f919061132d565b80356001600160a01b03811681146112a9575f80fd5b919050565b5f602082840312156112be575f80fd5b61103a82611293565b5f602082840312156112d7575f80fd5b5035919050565b5f80604083850312156112ef575f80fd5b6112f883611293565b946020939093013593505050565b634e487b7160e01b5f52601160045260245ffd5b8181038181111561103d5761103d611306565b5f8261134757634e487b7160e01b5f52601260045260245ffd5b500490565b808202811582820484141761103d5761103d611306565b8082018082111561103d5761103d611306565b5f60208284031215611386575f80fd5b81518015158114611395575f80fd5b9392505050565b5f602082840312156113ac575f80fd5b5051919050565b5f600182016113c4576113c4611306565b5060010190565b80516001600160701b03811681146112a9575f80fd5b5f805f606084860312156113f3575f80fd5b6113fc846113cb565b925061140a602085016113cb565b9150604084015163ffffffff81168114611422575f80fd5b80915050925092509256fea2646970667358221220d9dc9b08bbadeb83f41e1c369e468383534d144fc2e11873f363da697d23104364736f6c63430008180033",
			"opcodes": "PUSH1 0x80 PUSH1 0x40 MSTORE PUSH1 0x7 DUP1 SLOAD CALLER PUSH1 0x1 PUSH1 0x1 PUSH1 0xA0 SHL SUB NOT SWAP2 DUP3 AND DUP2 OR SWAP1 SWAP3 SSTORE PUSH1 0x8 DUP1 SLOAD SWAP1 SWAP2 AND SWAP1 SWAP2 OR SWAP1 SSTORE CALLVALUE DUP1 ISZERO PUSH2 0x31 JUMPI PUSH0 DUP1 REVERT JUMPDEST POP PUSH1 0x40 MLOAD PUSH2 0x176B CODESIZE SUB DUP1 PUSH2 0x176B DUP4 CODECOPY DUP2 ADD PUSH1 0x40 DUP2 SWAP1 MSTORE PUSH2 0x50 SWAP2 PUSH2 0x2CA JUMP JUMPDEST PUSH1 0x5 DUP1 SLOAD PUSH1 0x1 PUSH1 0x1 PUSH1 0xA0 SHL SUB SWAP4 DUP5 AND PUSH1 0x1 PUSH1 0x1 PUSH1 0xA0 SHL SUB NOT SWAP2 DUP3 AND OR SWAP1 SWAP2 SSTORE PUSH1 0x6 DUP1 SLOAD SWAP3 SWAP1 SWAP4 AND SWAP2 AND OR SWAP1 SSTORE PUSH1 0x12 PUSH1 0x20 MSTORE PUSH10 0xD3C21BCECCEDA1000000 PUSH32 0x4270792C5242BB9AF31A0CA014789585BAC3A2BC36B4E20E1E1163E09D416AFC SSTORE PUSH10 0xB3FE97A2FAFD2F400000 PUSH32 0xEA116540BB6C5B7ACCECCD1764953A76C4FAD8A217EFBC5957292A6F6549F6BB SSTORE PUSH10 0x6495CD356E2412E00000 PUSH32 0x52D0ACEEA21727F3645B59ED2A8E2414BA98AEC7326945136BBB6FBD1D1BEE80 SSTORE PUSH10 0x3A56E28A827115300000 PUSH32 0x9F59F72911CA8F47B3E19DF7B8D808AA81D8EDC8119614C7C316F6C84BB89C8B SSTORE PUSH10 0x2FA54641BAE8AAA00000 PUSH32 0x5E6DC1EC65C205E4785800FC7CF7266DF7ECC1251284C73DF73CC438B1F93498 SSTORE PUSH10 0x1003A3B3F593E4040000 PUSH32 0x5FE6CF215B4A13EAA2A7A4F22B2CAEE36BBAE8F63BE3ADA50BA2209F503BDC76 SSTORE PUSH10 0xA968163F0A57B400000 PUSH32 0x1CC964778659CB526F0F4FE148EC03D3F93F444A969AAC8D1602A8004B60F6F8 SSTORE PUSH10 0x98774738BC822200000 PUSH32 0x77A856606C58F2AFE74BC4D415A981C84B65392FCF7FEFC382DED558BB92F464 DUP2 SWAP1 SSTORE PUSH32 0xE916BEB333CDE8471A36B6E21A68B3EBDC7E0FE343CEE63055523FB231EA1187 DUP2 SWAP1 SSTORE PUSH32 0x9717E554F4F1C8F1445175EC6B77439740EA6E0A2D3809501F0E3F3949C19E28 DUP2 SWAP1 SSTORE PUSH32 0x31C8277A0CCFFFEA1189152918C4CD07EDEE7F47B05BCE3A4BAE62597E6D602E DUP2 SWAP1 SSTORE PUSH32 0xF488CBB1C9F248560C55D6AF8AFF3D1B53D7743AEE9B6E9D1423C01242306451 SSTORE PUSH1 0x42 PUSH0 MSTORE PUSH10 0x971C556131295E00000 PUSH32 0xA6A9599000F4425E443918D34A69C9234BA73B27460468E6463868AC68D263B8 SSTORE PUSH2 0x2FB JUMP JUMPDEST DUP1 MLOAD PUSH1 0x1 PUSH1 0x1 PUSH1 0xA0 SHL SUB DUP2 AND DUP2 EQ PUSH2 0x2C5 JUMPI PUSH0 DUP1 REVERT JUMPDEST SWAP2 SWAP1 POP JUMP JUMPDEST PUSH0 DUP1 PUSH1 0x40 DUP4 DUP6 SUB SLT ISZERO PUSH2 0x2DB JUMPI PUSH0 DUP1 REVERT JUMPDEST PUSH2 0x2E4 DUP4 PUSH2 0x2AF JUMP JUMPDEST SWAP2 POP PUSH2 0x2F2 PUSH1 0x20 DUP5 ADD PUSH2 0x2AF JUMP JUMPDEST SWAP1 POP SWAP3 POP SWAP3 SWAP1 POP JUMP JUMPDEST PUSH2 0x1463 DUP1 PUSH2 0x308 PUSH0 CODECOPY PUSH0 RETURN INVALID PUSH1 0x80 PUSH1 0x40 MSTORE CALLVALUE DUP1 ISZERO PUSH2 0xF JUMPI PUSH0 DUP1 REVERT JUMPDEST POP PUSH1 0x4 CALLDATASIZE LT PUSH2 0x1A1 JUMPI PUSH0 CALLDATALOAD PUSH1 0xE0 SHR DUP1 PUSH4 0x8ACA35A0 GT PUSH2 0xF3 JUMPI DUP1 PUSH4 0xB91F3F97 GT PUSH2 0x93 JUMPI DUP1 PUSH4 0xE372C900 GT PUSH2 0x6E JUMPI DUP1 PUSH4 0xE372C900 EQ PUSH2 0x397 JUMPI DUP1 PUSH4 0xF5AE497A EQ PUSH2 0x39F JUMPI DUP1 PUSH4 0xF7C618C1 EQ PUSH2 0x3B2 JUMPI DUP1 PUSH4 0xFDF5963A EQ PUSH2 0x3C5 JUMPI PUSH0 DUP1 REVERT JUMPDEST DUP1 PUSH4 0xB91F3F97 EQ PUSH2 0x368 JUMPI DUP1 PUSH4 0xD1232730 EQ PUSH2 0x370 JUMPI DUP1 PUSH4 0xDDD1B67E EQ PUSH2 0x38F JUMPI PUSH0 DUP1 REVERT JUMPDEST DUP1 PUSH4 0xA5B39CFB GT PUSH2 0xCE JUMPI DUP1 PUSH4 0xA5B39CFB EQ PUSH2 0x318 JUMPI DUP1 PUSH4 0xA87DF832 EQ PUSH2 0x337 JUMPI DUP1 PUSH4 0xB5A556D2 EQ PUSH2 0x340 JUMPI DUP1 PUSH4 0xB77CF9C6 EQ PUSH2 0x349 JUMPI PUSH0 DUP1 REVERT JUMPDEST DUP1 PUSH4 0x8ACA35A0 EQ PUSH2 0x2F4 JUMPI DUP1 PUSH4 0x8F90E902 EQ PUSH2 0x2FD JUMPI DUP1 PUSH4 0x92F851C1 EQ PUSH2 0x310 JUMPI PUSH0 DUP1 REVERT JUMPDEST DUP1 PUSH4 0x67EEBA0C GT PUSH2 0x15E JUMPI DUP1 PUSH4 0x6E90013D GT PUSH2 0x139 JUMPI DUP1 PUSH4 0x6E90013D EQ PUSH2 0x28E JUMPI DUP1 PUSH4 0x73F273FC EQ PUSH2 0x2A1 JUMPI DUP1 PUSH4 0x75F0A874 EQ PUSH2 0x2C0 JUMPI DUP1 PUSH4 0x862A4D47 EQ PUSH2 0x2EB JUMPI PUSH0 DUP1 REVERT JUMPDEST DUP1 PUSH4 0x67EEBA0C EQ PUSH2 0x237 JUMPI DUP1 PUSH4 0x69A69E29 EQ PUSH2 0x240 JUMPI DUP1 PUSH4 0x6BD3B87C EQ PUSH2 0x253 JUMPI PUSH0 DUP1 REVERT JUMPDEST DUP1 PUSH4 0x6D2AD40 EQ PUSH2 0x1A5 JUMPI DUP1 PUSH4 0x2BE11AE2 EQ PUSH2 0x1DC JUMPI DUP1 PUSH4 0x40519A53 EQ PUSH2 0x1E6 JUMPI DUP1 PUSH4 0x443DF8F5 EQ PUSH2 0x1F9 JUMPI DUP1 PUSH4 0x50F0A325 EQ PUSH2 0x226 JUMPI DUP1 PUSH4 0x5C9302C9 EQ PUSH2 0x22E JUMPI JUMPDEST PUSH0 DUP1 REVERT JUMPDEST PUSH2 0x1C7 PUSH2 0x1B3 CALLDATASIZE PUSH1 0x4 PUSH2 0x12AE JUMP JUMPDEST PUSH1 0x4 PUSH1 0x20 MSTORE PUSH0 SWAP1 DUP2 MSTORE PUSH1 0x40 SWAP1 KECCAK256 SLOAD PUSH1 0xFF AND DUP2 JUMP JUMPDEST PUSH1 0x40 MLOAD SWAP1 ISZERO ISZERO DUP2 MSTORE PUSH1 0x20 ADD JUMPDEST PUSH1 0x40 MLOAD DUP1 SWAP2 SUB SWAP1 RETURN JUMPDEST PUSH2 0x1E4 PUSH2 0x3CE JUMP JUMPDEST STOP JUMPDEST PUSH2 0x1E4 PUSH2 0x1F4 CALLDATASIZE PUSH1 0x4 PUSH2 0x12C7 JUMP JUMPDEST PUSH2 0x8D6 JUMP JUMPDEST PUSH2 0x218 PUSH2 0x207 CALLDATASIZE PUSH1 0x4 PUSH2 0x12C7 JUMP JUMPDEST PUSH1 0x12 PUSH1 0x20 MSTORE PUSH0 SWAP1 DUP2 MSTORE PUSH1 0x40 SWAP1 KECCAK256 SLOAD DUP2 JUMP JUMPDEST PUSH1 0x40 MLOAD SWAP1 DUP2 MSTORE PUSH1 0x20 ADD PUSH2 0x1D3 JUMP JUMPDEST PUSH2 0x218 PUSH1 0x7 DUP2 JUMP JUMPDEST PUSH2 0x218 PUSH1 0xE SLOAD DUP2 JUMP JUMPDEST PUSH2 0x218 PUSH1 0x10 SLOAD DUP2 JUMP JUMPDEST PUSH2 0x218 PUSH2 0x24E CALLDATASIZE PUSH1 0x4 PUSH2 0x12AE JUMP JUMPDEST PUSH2 0xAB6 JUMP JUMPDEST PUSH2 0x279 PUSH2 0x261 CALLDATASIZE PUSH1 0x4 PUSH2 0x12AE JUMP JUMPDEST PUSH1 0x13 PUSH1 0x20 MSTORE PUSH0 SWAP1 DUP2 MSTORE PUSH1 0x40 SWAP1 KECCAK256 DUP1 SLOAD PUSH1 0x1 SWAP1 SWAP2 ADD SLOAD DUP3 JUMP JUMPDEST PUSH1 0x40 DUP1 MLOAD SWAP3 DUP4 MSTORE PUSH1 0x20 DUP4 ADD SWAP2 SWAP1 SWAP2 MSTORE ADD PUSH2 0x1D3 JUMP JUMPDEST PUSH2 0x1E4 PUSH2 0x29C CALLDATASIZE PUSH1 0x4 PUSH2 0x12DE JUMP JUMPDEST PUSH2 0xB9A JUMP JUMPDEST PUSH2 0x218 PUSH2 0x2AF CALLDATASIZE PUSH1 0x4 PUSH2 0x12AE JUMP JUMPDEST PUSH1 0x2 PUSH1 0x20 MSTORE PUSH0 SWAP1 DUP2 MSTORE PUSH1 0x40 SWAP1 KECCAK256 SLOAD DUP2 JUMP JUMPDEST PUSH1 0x8 SLOAD PUSH2 0x2D3 SWAP1 PUSH1 0x1 PUSH1 0x1 PUSH1 0xA0 SHL SUB AND DUP2 JUMP JUMPDEST PUSH1 0x40 MLOAD PUSH1 0x1 PUSH1 0x1 PUSH1 0xA0 SHL SUB SWAP1 SWAP2 AND DUP2 MSTORE PUSH1 0x20 ADD PUSH2 0x1D3 JUMP JUMPDEST PUSH2 0x218 PUSH1 0xD SLOAD DUP2 JUMP JUMPDEST PUSH2 0x218 PUSH1 0xF SLOAD DUP2 JUMP JUMPDEST PUSH2 0x1E4 PUSH2 0x30B CALLDATASIZE PUSH1 0x4 PUSH2 0x12AE JUMP JUMPDEST PUSH2 0xC5B JUMP JUMPDEST PUSH2 0x1E4 PUSH2 0xCC5 JUMP JUMPDEST PUSH2 0x218 PUSH2 0x326 CALLDATASIZE PUSH1 0x4 PUSH2 0x12AE JUMP JUMPDEST PUSH1 0x1 PUSH1 0x20 MSTORE PUSH0 SWAP1 DUP2 MSTORE PUSH1 0x40 SWAP1 KECCAK256 SLOAD DUP2 JUMP JUMPDEST PUSH2 0x218 PUSH1 0xC SLOAD DUP2 JUMP JUMPDEST PUSH2 0x218 PUSH1 0x11 SLOAD DUP2 JUMP JUMPDEST PUSH2 0x218 PUSH2 0x357 CALLDATASIZE PUSH1 0x4 PUSH2 0x12AE JUMP JUMPDEST PUSH0 PUSH1 0x20 DUP2 SWAP1 MSTORE SWAP1 DUP2 MSTORE PUSH1 0x40 SWAP1 KECCAK256 SLOAD DUP2 JUMP JUMPDEST PUSH2 0x1E4 PUSH2 0xE09 JUMP JUMPDEST PUSH2 0x218 PUSH2 0x37E CALLDATASIZE PUSH1 0x4 PUSH2 0x12AE JUMP JUMPDEST PUSH1 0x3 PUSH1 0x20 MSTORE PUSH0 SWAP1 DUP2 MSTORE PUSH1 0x40 SWAP1 KECCAK256 SLOAD DUP2 JUMP JUMPDEST PUSH2 0x218 PUSH2 0x1008 JUMP JUMPDEST PUSH2 0x218 PUSH1 0x5A DUP2 JUMP JUMPDEST PUSH1 0x5 SLOAD PUSH2 0x2D3 SWAP1 PUSH1 0x1 PUSH1 0x1 PUSH1 0xA0 SHL SUB AND DUP2 JUMP JUMPDEST PUSH1 0x6 SLOAD PUSH2 0x2D3 SWAP1 PUSH1 0x1 PUSH1 0x1 PUSH1 0xA0 SHL SUB AND DUP2 JUMP JUMPDEST PUSH2 0x218 PUSH1 0xA SLOAD DUP2 JUMP JUMPDEST CALLER PUSH0 SWAP1 DUP2 MSTORE PUSH1 0x20 DUP2 SWAP1 MSTORE PUSH1 0x40 DUP2 KECCAK256 SLOAD PUSH2 0x3E7 SWAP1 TIMESTAMP PUSH2 0x131A JUMP JUMPDEST CALLER PUSH0 SWAP1 DUP2 MSTORE PUSH1 0x3 PUSH1 0x20 MSTORE PUSH1 0x40 DUP2 KECCAK256 SLOAD SWAP2 SWAP3 POP SWAP1 PUSH2 0x404 SWAP1 TIMESTAMP PUSH2 0x131A JUMP JUMPDEST SWAP1 POP PUSH1 0x7 DUP3 LT ISZERO PUSH2 0x46D JUMPI PUSH1 0x40 MLOAD PUSH3 0x461BCD PUSH1 0xE5 SHL DUP2 MSTORE PUSH1 0x20 PUSH1 0x4 DUP3 ADD MSTORE PUSH1 0x28 PUSH1 0x24 DUP3 ADD MSTORE PUSH32 0x4D7573742077616974206174206C656173742037206461797320626574776565 PUSH1 0x44 DUP3 ADD MSTORE PUSH8 0x6E20636C61696D73 PUSH1 0xC0 SHL PUSH1 0x64 DUP3 ADD MSTORE PUSH1 0x84 ADD JUMPDEST PUSH1 0x40 MLOAD DUP1 SWAP2 SUB SWAP1 REVERT JUMPDEST PUSH1 0x5A DUP2 LT ISZERO PUSH2 0x4CD JUMPI PUSH1 0x40 MLOAD PUSH3 0x461BCD PUSH1 0xE5 SHL DUP2 MSTORE PUSH1 0x20 PUSH1 0x4 DUP3 ADD MSTORE PUSH1 0x26 PUSH1 0x24 DUP3 ADD MSTORE PUSH32 0x43616E6E6F7420636C61696D206265666F72652039302064617973206F662073 PUSH1 0x44 DUP3 ADD MSTORE PUSH6 0x74616B696E67 PUSH1 0xD0 SHL PUSH1 0x64 DUP3 ADD MSTORE PUSH1 0x84 ADD PUSH2 0x464 JUMP JUMPDEST CALLER PUSH0 SWAP1 DUP2 MSTORE PUSH1 0x1 PUSH1 0x20 MSTORE PUSH1 0x40 SWAP1 KECCAK256 SLOAD PUSH2 0x51B JUMPI PUSH1 0x40 MLOAD PUSH3 0x461BCD PUSH1 0xE5 SHL DUP2 MSTORE PUSH1 0x20 PUSH1 0x4 DUP3 ADD MSTORE PUSH1 0x10 PUSH1 0x24 DUP3 ADD MSTORE PUSH16 0x4E6F207374616B656420746F6B656E73 PUSH1 0x80 SHL PUSH1 0x44 DUP3 ADD MSTORE PUSH1 0x64 ADD PUSH2 0x464 JUMP JUMPDEST PUSH2 0x523 PUSH2 0x1008 JUMP JUMPDEST PUSH1 0xD SLOAD EQ PUSH2 0x55F JUMPI PUSH2 0x533 PUSH2 0x1008 JUMP JUMPDEST PUSH1 0xD SSTORE PUSH1 0xC PUSH1 0x12 PUSH0 PUSH2 0x543 PUSH2 0x101B JUMP JUMPDEST DUP2 MSTORE PUSH1 0x20 ADD SWAP1 DUP2 MSTORE PUSH1 0x20 ADD PUSH0 KECCAK256 SLOAD PUSH2 0x55B SWAP2 SWAP1 PUSH2 0x132D JUMP JUMPDEST PUSH1 0xF SSTORE JUMPDEST PUSH1 0xE SLOAD PUSH2 0x56F PUSH3 0x15180 TIMESTAMP PUSH2 0x132D JUMP JUMPDEST EQ PUSH2 0x5BD JUMPI PUSH2 0x581 PUSH3 0x15180 TIMESTAMP PUSH2 0x132D JUMP JUMPDEST PUSH1 0xE SSTORE PUSH1 0x1E PUSH1 0xC PUSH1 0x12 PUSH0 PUSH2 0x593 PUSH2 0x101B JUMP JUMPDEST DUP2 MSTORE PUSH1 0x20 ADD SWAP1 DUP2 MSTORE PUSH1 0x20 ADD PUSH0 KECCAK256 SLOAD PUSH2 0x5AB SWAP2 SWAP1 PUSH2 0x132D JUMP JUMPDEST PUSH2 0x5B5 SWAP2 SWAP1 PUSH2 0x132D JUMP JUMPDEST PUSH1 0x10 SSTORE PUSH0 PUSH1 0x11 SSTORE JUMPDEST PUSH1 0x42 PUSH2 0x5C7 PUSH2 0x101B JUMP JUMPDEST GT ISZERO PUSH2 0x5F4 JUMPI PUSH10 0x971C556131295E00000 PUSH1 0x12 PUSH0 PUSH2 0x5E3 PUSH2 0x101B JUMP JUMPDEST DUP2 MSTORE PUSH1 0x20 DUP2 ADD SWAP2 SWAP1 SWAP2 MSTORE PUSH1 0x40 ADD PUSH0 KECCAK256 SSTORE JUMPDEST PUSH1 0x9 SLOAD CALLER PUSH0 SWAP1 DUP2 MSTORE PUSH1 0x1 PUSH1 0x20 MSTORE PUSH1 0x40 DUP2 KECCAK256 SLOAD SWAP1 SWAP2 PUSH2 0x16D SWAP2 PUSH1 0x12 DUP5 PUSH2 0x617 PUSH2 0x101B JUMP JUMPDEST DUP2 MSTORE PUSH1 0x20 ADD SWAP1 DUP2 MSTORE PUSH1 0x20 ADD PUSH0 KECCAK256 SLOAD PUSH2 0x62F SWAP2 SWAP1 PUSH2 0x134C JUMP JUMPDEST PUSH2 0x639 SWAP2 SWAP1 PUSH2 0x132D JUMP JUMPDEST PUSH2 0x643 SWAP2 SWAP1 PUSH2 0x132D JUMP JUMPDEST SWAP1 POP PUSH0 PUSH2 0x664 PUSH2 0x654 PUSH1 0x7 DUP7 PUSH2 0x132D JUMP JUMPDEST PUSH2 0x65F PUSH1 0x5A DUP7 PUSH2 0x132D JUMP JUMPDEST PUSH2 0x102A JUMP JUMPDEST SWAP1 POP PUSH0 PUSH2 0x671 DUP3 DUP5 PUSH2 0x134C JUMP JUMPDEST CALLER PUSH0 SWAP1 DUP2 MSTORE PUSH1 0x2 PUSH1 0x20 MSTORE PUSH1 0x40 DUP2 KECCAK256 DUP3 SWAP1 SSTORE PUSH1 0x11 SLOAD PUSH1 0x10 SLOAD SWAP3 SWAP4 POP SWAP1 SWAP2 PUSH2 0x697 SWAP2 SWAP1 PUSH2 0x131A JUMP JUMPDEST SWAP1 POP PUSH0 PUSH2 0x6A4 DUP4 DUP4 PUSH2 0x102A JUMP JUMPDEST PUSH1 0x9 SLOAD CALLER PUSH0 SWAP1 DUP2 MSTORE PUSH1 0x1 PUSH1 0x20 MSTORE PUSH1 0x40 SWAP1 KECCAK256 SLOAD SWAP2 SWAP3 POP SWAP1 PUSH2 0x6C4 SWAP1 DUP4 PUSH2 0x134C JUMP JUMPDEST PUSH2 0x6CE SWAP2 SWAP1 PUSH2 0x132D JUMP JUMPDEST CALLER PUSH0 SWAP1 DUP2 MSTORE PUSH1 0x2 PUSH1 0x20 MSTORE PUSH1 0x40 DUP2 KECCAK256 DUP1 SLOAD SWAP3 SWAP4 POP DUP4 SWAP3 SWAP1 SWAP2 SWAP1 PUSH2 0x6F1 SWAP1 DUP5 SWAP1 PUSH2 0x131A JUMP JUMPDEST SWAP3 POP POP DUP2 SWAP1 SSTORE POP DUP1 PUSH1 0xC PUSH0 DUP3 DUP3 SLOAD PUSH2 0x709 SWAP2 SWAP1 PUSH2 0x1363 JUMP JUMPDEST SWAP3 POP POP DUP2 SWAP1 SSTORE POP DUP1 PUSH1 0x11 PUSH0 DUP3 DUP3 SLOAD PUSH2 0x721 SWAP2 SWAP1 PUSH2 0x1363 JUMP JUMPDEST SWAP1 SWAP2 SSTORE POP POP DUP1 PUSH2 0x76A JUMPI PUSH1 0x40 MLOAD PUSH3 0x461BCD PUSH1 0xE5 SHL DUP2 MSTORE PUSH1 0x20 PUSH1 0x4 DUP3 ADD MSTORE PUSH1 0x14 PUSH1 0x24 DUP3 ADD MSTORE PUSH20 0x4E6F20636C61696D61626C652072657761726473 PUSH1 0x60 SHL PUSH1 0x44 DUP3 ADD MSTORE PUSH1 0x64 ADD PUSH2 0x464 JUMP JUMPDEST PUSH0 PUSH2 0x2710 PUSH2 0x776 PUSH2 0x1043 JUMP JUMPDEST PUSH2 0x780 SWAP1 DUP5 PUSH2 0x134C JUMP JUMPDEST PUSH2 0x78A SWAP2 SWAP1 PUSH2 0x132D JUMP JUMPDEST SWAP1 POP PUSH2 0x796 DUP2 DUP4 PUSH2 0x131A JUMP JUMPDEST SWAP2 POP DUP2 ISZERO PUSH2 0x889 JUMPI PUSH1 0x6 SLOAD PUSH1 0x40 MLOAD PUSH4 0xA9059CBB PUSH1 0xE0 SHL DUP2 MSTORE CALLER PUSH1 0x4 DUP3 ADD MSTORE PUSH1 0x24 DUP2 ADD DUP5 SWAP1 MSTORE PUSH1 0x1 PUSH1 0x1 PUSH1 0xA0 SHL SUB SWAP1 SWAP2 AND SWAP1 PUSH4 0xA9059CBB SWAP1 PUSH1 0x44 ADD PUSH1 0x20 PUSH1 0x40 MLOAD DUP1 DUP4 SUB DUP2 PUSH0 DUP8 GAS CALL ISZERO DUP1 ISZERO PUSH2 0x7EC JUMPI RETURNDATASIZE PUSH0 DUP1 RETURNDATACOPY RETURNDATASIZE PUSH0 REVERT JUMPDEST POP POP POP POP PUSH1 0x40 MLOAD RETURNDATASIZE PUSH1 0x1F NOT PUSH1 0x1F DUP3 ADD AND DUP3 ADD DUP1 PUSH1 0x40 MSTORE POP DUP2 ADD SWAP1 PUSH2 0x810 SWAP2 SWAP1 PUSH2 0x1376 JUMP JUMPDEST POP PUSH1 0x6 SLOAD PUSH1 0x8 SLOAD PUSH1 0x40 MLOAD PUSH4 0xA9059CBB PUSH1 0xE0 SHL DUP2 MSTORE PUSH1 0x1 PUSH1 0x1 PUSH1 0xA0 SHL SUB SWAP2 DUP3 AND PUSH1 0x4 DUP3 ADD MSTORE PUSH1 0x24 DUP2 ADD DUP5 SWAP1 MSTORE SWAP2 AND SWAP1 PUSH4 0xA9059CBB SWAP1 PUSH1 0x44 ADD PUSH1 0x20 PUSH1 0x40 MLOAD DUP1 DUP4 SUB DUP2 PUSH0 DUP8 GAS CALL ISZERO DUP1 ISZERO PUSH2 0x863 JUMPI RETURNDATASIZE PUSH0 DUP1 RETURNDATACOPY RETURNDATASIZE PUSH0 REVERT JUMPDEST POP POP POP POP PUSH1 0x40 MLOAD RETURNDATASIZE PUSH1 0x1F NOT PUSH1 0x1F DUP3 ADD AND DUP3 ADD DUP1 PUSH1 0x40 MSTORE POP DUP2 ADD SWAP1 PUSH2 0x887 SWAP2 SWAP1 PUSH2 0x1376 JUMP JUMPDEST POP JUMPDEST CALLER PUSH0 DUP2 DUP2 MSTORE PUSH1 0x20 DUP2 DUP2 MSTORE PUSH1 0x40 SWAP2 DUP3 SWAP1 KECCAK256 TIMESTAMP SWAP1 SSTORE SWAP1 MLOAD DUP5 DUP2 MSTORE PUSH32 0xA0703C548E4F3579A5B862677F6E9A97AC2D85326DDB959DEB9B37A802253232 SWAP2 ADD PUSH1 0x40 MLOAD DUP1 SWAP2 SUB SWAP1 LOG2 POP POP POP POP POP POP POP POP JUMP JUMPDEST PUSH0 PUSH2 0x8E0 CALLER PUSH2 0x1094 JUMP JUMPDEST SWAP1 POP PUSH3 0xF4240 DUP2 LT ISZERO PUSH2 0x935 JUMPI PUSH1 0x40 MLOAD PUSH3 0x461BCD PUSH1 0xE5 SHL DUP2 MSTORE PUSH1 0x20 PUSH1 0x4 DUP3 ADD MSTORE PUSH1 0x18 PUSH1 0x24 DUP3 ADD MSTORE PUSH32 0x696E7375666669656E7420706F6F6C656420416D6F756E740000000000000000 PUSH1 0x44 DUP3 ADD MSTORE PUSH1 0x64 ADD PUSH2 0x464 JUMP JUMPDEST PUSH1 0x5 SLOAD PUSH1 0x40 MLOAD PUSH4 0x23B872DD PUSH1 0xE0 SHL DUP2 MSTORE CALLER PUSH1 0x4 DUP3 ADD MSTORE ADDRESS PUSH1 0x24 DUP3 ADD MSTORE PUSH1 0x44 DUP2 ADD DUP5 SWAP1 MSTORE PUSH1 0x1 PUSH1 0x1 PUSH1 0xA0 SHL SUB SWAP1 SWAP2 AND SWAP1 PUSH4 0x23B872DD SWAP1 PUSH1 0x64 ADD PUSH1 0x20 PUSH1 0x40 MLOAD DUP1 DUP4 SUB DUP2 PUSH0 DUP8 GAS CALL ISZERO DUP1 ISZERO PUSH2 0x989 JUMPI RETURNDATASIZE PUSH0 DUP1 RETURNDATACOPY RETURNDATASIZE PUSH0 REVERT JUMPDEST POP POP POP POP PUSH1 0x40 MLOAD RETURNDATASIZE PUSH1 0x1F NOT PUSH1 0x1F DUP3 ADD AND DUP3 ADD DUP1 PUSH1 0x40 MSTORE POP DUP2 ADD SWAP1 PUSH2 0x9AD SWAP2 SWAP1 PUSH2 0x1376 JUMP JUMPDEST PUSH2 0x9F4 JUMPI PUSH1 0x40 MLOAD PUSH3 0x461BCD PUSH1 0xE5 SHL DUP2 MSTORE PUSH1 0x20 PUSH1 0x4 DUP3 ADD MSTORE PUSH1 0x18 PUSH1 0x24 DUP3 ADD MSTORE PUSH24 0x1314081D1BDAD95B881D1C985B9CD9995C8819985A5B1959 PUSH1 0x42 SHL PUSH1 0x44 DUP3 ADD MSTORE PUSH1 0x64 ADD PUSH2 0x464 JUMP JUMPDEST PUSH0 PUSH2 0xA00 PUSH1 0x5A TIMESTAMP PUSH2 0x1363 JUMP JUMPDEST CALLER PUSH0 DUP2 DUP2 MSTORE PUSH1 0x3 PUSH1 0x20 SWAP1 DUP2 MSTORE PUSH1 0x40 DUP1 DUP4 KECCAK256 TIMESTAMP SWAP1 SSTORE DUP1 MLOAD DUP1 DUP3 ADD DUP3 MSTORE DUP9 DUP2 MSTORE DUP1 DUP4 ADD DUP7 DUP2 MSTORE SWAP5 DUP5 MSTORE PUSH1 0x13 SWAP1 SWAP3 MSTORE DUP3 KECCAK256 SWAP1 MLOAD DUP2 SSTORE SWAP2 MLOAD PUSH1 0x1 SWAP1 SWAP3 ADD SWAP2 SWAP1 SWAP2 SSTORE PUSH1 0x9 DUP1 SLOAD SWAP3 SWAP4 POP DUP6 SWAP3 SWAP1 SWAP2 SWAP1 PUSH2 0xA54 SWAP1 DUP5 SWAP1 PUSH2 0x1363 JUMP JUMPDEST SWAP1 SWAP2 SSTORE POP POP CALLER PUSH0 SWAP1 DUP2 MSTORE PUSH1 0x1 PUSH1 0x20 MSTORE PUSH1 0x40 DUP2 KECCAK256 DUP1 SLOAD DUP6 SWAP3 SWAP1 PUSH2 0xA77 SWAP1 DUP5 SWAP1 PUSH2 0x1363 JUMP JUMPDEST SWAP1 SWAP2 SSTORE POP POP PUSH1 0x40 MLOAD DUP4 DUP2 MSTORE CALLER SWAP1 PUSH32 0xE1954443838EF603B0D4C78380E8CE8FA0CBD3126AAFB585E9072CF90185FA58 SWAP1 PUSH1 0x20 ADD PUSH1 0x40 MLOAD DUP1 SWAP2 SUB SWAP1 LOG2 POP POP POP JUMP JUMPDEST CALLER PUSH0 SWAP1 DUP2 MSTORE PUSH1 0x20 DUP2 SWAP1 MSTORE PUSH1 0x40 DUP2 KECCAK256 SLOAD DUP2 SWAP1 PUSH2 0xAD1 SWAP1 TIMESTAMP PUSH2 0x131A JUMP JUMPDEST CALLER PUSH0 SWAP1 DUP2 MSTORE PUSH1 0x3 PUSH1 0x20 MSTORE PUSH1 0x40 DUP2 KECCAK256 SLOAD SWAP2 SWAP3 POP SWAP1 PUSH2 0xAEE SWAP1 TIMESTAMP PUSH2 0x131A JUMP JUMPDEST SWAP1 POP PUSH1 0x7 DUP3 LT DUP1 PUSH2 0xAFF JUMPI POP PUSH1 0x5A DUP2 LT JUMPDEST ISZERO PUSH2 0xB0D JUMPI POP PUSH0 SWAP4 SWAP3 POP POP POP JUMP JUMPDEST PUSH0 PUSH2 0xB27 PUSH2 0xB1C PUSH1 0x7 DUP6 PUSH2 0x132D JUMP JUMPDEST PUSH2 0x65F PUSH1 0x5A DUP6 PUSH2 0x132D JUMP JUMPDEST PUSH1 0x9 SLOAD PUSH1 0x1 PUSH1 0x1 PUSH1 0xA0 SHL SUB DUP8 AND PUSH0 SWAP1 DUP2 MSTORE PUSH1 0x1 PUSH1 0x20 MSTORE PUSH1 0x40 DUP2 KECCAK256 SLOAD SWAP3 SWAP4 POP SWAP2 PUSH2 0x16D SWAP2 SWAP1 PUSH1 0x12 DUP5 PUSH2 0xB56 PUSH2 0x101B JUMP JUMPDEST DUP2 MSTORE PUSH1 0x20 ADD SWAP1 DUP2 MSTORE PUSH1 0x20 ADD PUSH0 KECCAK256 SLOAD PUSH2 0xB6E SWAP2 SWAP1 PUSH2 0x134C JUMP JUMPDEST PUSH2 0xB78 SWAP2 SWAP1 PUSH2 0x132D JUMP JUMPDEST PUSH2 0xB82 SWAP2 SWAP1 PUSH2 0x132D JUMP JUMPDEST SWAP1 POP PUSH0 PUSH2 0xB8F DUP4 DUP4 PUSH2 0x134C JUMP JUMPDEST SWAP8 SWAP7 POP POP POP POP POP POP POP JUMP JUMPDEST PUSH1 0x7 SLOAD PUSH1 0x1 PUSH1 0x1 PUSH1 0xA0 SHL SUB AND CALLER EQ PUSH2 0xBE2 JUMPI PUSH1 0x40 MLOAD PUSH3 0x461BCD PUSH1 0xE5 SHL DUP2 MSTORE PUSH1 0x20 PUSH1 0x4 DUP3 ADD MSTORE PUSH1 0xB PUSH1 0x24 DUP3 ADD MSTORE PUSH11 0x1B9BDD08105B1B1BDDD959 PUSH1 0xAA SHL PUSH1 0x44 DUP3 ADD MSTORE PUSH1 0x64 ADD PUSH2 0x464 JUMP JUMPDEST PUSH1 0x7 SLOAD PUSH1 0x40 MLOAD PUSH4 0xA9059CBB PUSH1 0xE0 SHL DUP2 MSTORE PUSH1 0x1 PUSH1 0x1 PUSH1 0xA0 SHL SUB SWAP2 DUP3 AND PUSH1 0x4 DUP3 ADD MSTORE PUSH1 0x24 DUP2 ADD DUP4 SWAP1 MSTORE SWAP1 DUP4 AND SWAP1 PUSH4 0xA9059CBB SWAP1 PUSH1 0x44 ADD PUSH1 0x20 PUSH1 0x40 MLOAD DUP1 DUP4 SUB DUP2 PUSH0 DUP8 GAS CALL ISZERO DUP1 ISZERO PUSH2 0xC32 JUMPI RETURNDATASIZE PUSH0 DUP1 RETURNDATACOPY RETURNDATASIZE PUSH0 REVERT JUMPDEST POP POP POP POP PUSH1 0x40 MLOAD RETURNDATASIZE PUSH1 0x1F NOT PUSH1 0x1F DUP3 ADD AND DUP3 ADD DUP1 PUSH1 0x40 MSTORE POP DUP2 ADD SWAP1 PUSH2 0xC56 SWAP2 SWAP1 PUSH2 0x1376 JUMP JUMPDEST POP POP POP JUMP JUMPDEST PUSH1 0x7 SLOAD PUSH1 0x1 PUSH1 0x1 PUSH1 0xA0 SHL SUB AND CALLER EQ PUSH2 0xCA3 JUMPI PUSH1 0x40 MLOAD PUSH3 0x461BCD PUSH1 0xE5 SHL DUP2 MSTORE PUSH1 0x20 PUSH1 0x4 DUP3 ADD MSTORE PUSH1 0xB PUSH1 0x24 DUP3 ADD MSTORE PUSH11 0x1B9BDD08105B1B1BDDD959 PUSH1 0xAA SHL PUSH1 0x44 DUP3 ADD MSTORE PUSH1 0x64 ADD PUSH2 0x464 JUMP JUMPDEST PUSH1 0x5 DUP1 SLOAD PUSH1 0x1 PUSH1 0x1 PUSH1 0xA0 SHL SUB NOT AND PUSH1 0x1 PUSH1 0x1 PUSH1 0xA0 SHL SUB SWAP3 SWAP1 SWAP3 AND SWAP2 SWAP1 SWAP2 OR SWAP1 SSTORE JUMP JUMPDEST PUSH1 0x6 SLOAD PUSH1 0x40 MLOAD PUSH4 0x70A08231 PUSH1 0xE0 SHL DUP2 MSTORE CALLER PUSH1 0x4 DUP3 ADD MSTORE PUSH0 SWAP2 PUSH1 0x1 PUSH1 0x1 PUSH1 0xA0 SHL SUB AND SWAP1 PUSH4 0x70A08231 SWAP1 PUSH1 0x24 ADD PUSH1 0x20 PUSH1 0x40 MLOAD DUP1 DUP4 SUB DUP2 DUP7 GAS STATICCALL ISZERO DUP1 ISZERO PUSH2 0xD0B JUMPI RETURNDATASIZE PUSH0 DUP1 RETURNDATACOPY RETURNDATASIZE PUSH0 REVERT JUMPDEST POP POP POP POP PUSH1 0x40 MLOAD RETURNDATASIZE PUSH1 0x1F NOT PUSH1 0x1F DUP3 ADD AND DUP3 ADD DUP1 PUSH1 0x40 MSTORE POP DUP2 ADD SWAP1 PUSH2 0xD2F SWAP2 SWAP1 PUSH2 0x139C JUMP JUMPDEST GT PUSH2 0xD6C JUMPI PUSH1 0x40 MLOAD PUSH3 0x461BCD PUSH1 0xE5 SHL DUP2 MSTORE PUSH1 0x20 PUSH1 0x4 DUP3 ADD MSTORE PUSH1 0xD PUSH1 0x24 DUP3 ADD MSTORE PUSH13 0x5A65726F20486F6C64696E6773 PUSH1 0x98 SHL PUSH1 0x44 DUP3 ADD MSTORE PUSH1 0x64 ADD PUSH2 0x464 JUMP JUMPDEST CALLER PUSH0 SWAP1 DUP2 MSTORE PUSH1 0x4 PUSH1 0x20 MSTORE PUSH1 0x40 SWAP1 KECCAK256 SLOAD PUSH1 0xFF AND ISZERO PUSH2 0xDDA JUMPI PUSH1 0x40 MLOAD PUSH3 0x461BCD PUSH1 0xE5 SHL DUP2 MSTORE PUSH1 0x20 PUSH1 0x4 DUP3 ADD MSTORE PUSH1 0x26 PUSH1 0x24 DUP3 ADD MSTORE PUSH32 0x596F75206861766520616C7265616479206170706C69656420666F7220726564 PUSH1 0x44 DUP3 ADD MSTORE PUSH6 0x3AB1BA34B7B7 PUSH1 0xD1 SHL PUSH1 0x64 DUP3 ADD MSTORE PUSH1 0x84 ADD PUSH2 0x464 JUMP JUMPDEST PUSH1 0xA DUP1 SLOAD SWAP1 PUSH0 PUSH2 0xDE9 DUP4 PUSH2 0x13B3 JUMP JUMPDEST SWAP1 SWAP2 SSTORE POP POP CALLER PUSH0 SWAP1 DUP2 MSTORE PUSH1 0x4 PUSH1 0x20 MSTORE PUSH1 0x40 SWAP1 KECCAK256 DUP1 SLOAD PUSH1 0xFF NOT AND PUSH1 0x1 OR SWAP1 SSTORE JUMP JUMPDEST CALLER PUSH0 SWAP1 DUP2 MSTORE PUSH1 0x3 PUSH1 0x20 MSTORE PUSH1 0x40 SWAP1 KECCAK256 SLOAD PUSH2 0xE24 SWAP1 PUSH1 0x5A SWAP1 PUSH2 0x1363 JUMP JUMPDEST TIMESTAMP LT ISZERO PUSH2 0xE73 JUMPI PUSH1 0x40 MLOAD PUSH3 0x461BCD PUSH1 0xE5 SHL DUP2 MSTORE PUSH1 0x20 PUSH1 0x4 DUP3 ADD MSTORE PUSH1 0x1C PUSH1 0x24 DUP3 ADD MSTORE PUSH32 0x43616E6E6F7420756E6C6F636B206265666F7265203930206461797300000000 PUSH1 0x44 DUP3 ADD MSTORE PUSH1 0x64 ADD PUSH2 0x464 JUMP JUMPDEST CALLER PUSH0 SWAP1 DUP2 MSTORE PUSH1 0x13 PUSH1 0x20 MSTORE PUSH1 0x40 SWAP1 KECCAK256 SLOAD DUP1 PUSH2 0xEC2 JUMPI PUSH1 0x40 MLOAD PUSH3 0x461BCD PUSH1 0xE5 SHL DUP2 MSTORE PUSH1 0x20 PUSH1 0x4 DUP3 ADD MSTORE PUSH1 0x10 PUSH1 0x24 DUP3 ADD MSTORE PUSH16 0x4E6F206C6F636B656420746F6B656E73 PUSH1 0x80 SHL PUSH1 0x44 DUP3 ADD MSTORE PUSH1 0x64 ADD PUSH2 0x464 JUMP JUMPDEST PUSH1 0x5 SLOAD PUSH1 0x40 MLOAD PUSH4 0xA9059CBB PUSH1 0xE0 SHL DUP2 MSTORE CALLER PUSH1 0x4 DUP3 ADD MSTORE PUSH1 0x24 DUP2 ADD DUP4 SWAP1 MSTORE PUSH1 0x1 PUSH1 0x1 PUSH1 0xA0 SHL SUB SWAP1 SWAP2 AND SWAP1 PUSH4 0xA9059CBB SWAP1 PUSH1 0x44 ADD PUSH1 0x20 PUSH1 0x40 MLOAD DUP1 DUP4 SUB DUP2 PUSH0 DUP8 GAS CALL ISZERO DUP1 ISZERO PUSH2 0xF10 JUMPI RETURNDATASIZE PUSH0 DUP1 RETURNDATACOPY RETURNDATASIZE PUSH0 REVERT JUMPDEST POP POP POP POP PUSH1 0x40 MLOAD RETURNDATASIZE PUSH1 0x1F NOT PUSH1 0x1F DUP3 ADD AND DUP3 ADD DUP1 PUSH1 0x40 MSTORE POP DUP2 ADD SWAP1 PUSH2 0xF34 SWAP2 SWAP1 PUSH2 0x1376 JUMP JUMPDEST PUSH2 0xF7B JUMPI PUSH1 0x40 MLOAD PUSH3 0x461BCD PUSH1 0xE5 SHL DUP2 MSTORE PUSH1 0x20 PUSH1 0x4 DUP3 ADD MSTORE PUSH1 0x18 PUSH1 0x24 DUP3 ADD MSTORE PUSH24 0x1314081D1BDAD95B881D1C985B9CD9995C8819985A5B1959 PUSH1 0x42 SHL PUSH1 0x44 DUP3 ADD MSTORE PUSH1 0x64 ADD PUSH2 0x464 JUMP JUMPDEST DUP1 PUSH1 0x9 PUSH0 DUP3 DUP3 SLOAD PUSH2 0xF8C SWAP2 SWAP1 PUSH2 0x131A JUMP JUMPDEST SWAP1 SWAP2 SSTORE POP POP CALLER PUSH0 SWAP1 DUP2 MSTORE PUSH1 0x1 PUSH1 0x20 MSTORE PUSH1 0x40 DUP2 KECCAK256 DUP1 SLOAD DUP4 SWAP3 SWAP1 PUSH2 0xFAF SWAP1 DUP5 SWAP1 PUSH2 0x131A JUMP JUMPDEST SWAP1 SWAP2 SSTORE POP POP CALLER PUSH0 DUP2 DUP2 MSTORE PUSH1 0x13 PUSH1 0x20 MSTORE PUSH1 0x40 DUP1 DUP3 KECCAK256 DUP3 DUP2 SSTORE PUSH1 0x1 ADD SWAP2 SWAP1 SWAP2 SSTORE MLOAD PUSH32 0x580EC6003F06A23971F7CCDB029AE688764884D7361687066E352D1FF6024473 SWAP1 PUSH2 0xFFD SWAP1 DUP5 DUP2 MSTORE PUSH1 0x20 ADD SWAP1 JUMP JUMPDEST PUSH1 0x40 MLOAD DUP1 SWAP2 SUB SWAP1 LOG2 POP JUMP JUMPDEST PUSH0 PUSH2 0x1016 PUSH3 0x278D00 TIMESTAMP PUSH2 0x132D JUMP JUMPDEST SWAP1 POP SWAP1 JUMP JUMPDEST PUSH0 PUSH2 0x1016 PUSH4 0x1E13380 TIMESTAMP PUSH2 0x132D JUMP JUMPDEST PUSH0 DUP2 DUP4 LT PUSH2 0x1038 JUMPI DUP2 PUSH2 0x103A JUMP JUMPDEST DUP3 JUMPDEST SWAP1 POP JUMPDEST SWAP3 SWAP2 POP POP JUMP JUMPDEST PUSH0 PUSH3 0xF4240 PUSH1 0xA SLOAD LT PUSH2 0x105A JUMPI PUSH1 0x32 PUSH1 0xB SSTORE PUSH2 0x108D JUMP JUMPDEST PUSH3 0x989680 PUSH1 0xA SLOAD LT PUSH2 0x1070 JUMPI PUSH1 0x19 PUSH1 0xB SSTORE PUSH2 0x108D JUMP JUMPDEST PUSH4 0x5F5E100 PUSH1 0xA SLOAD LT PUSH2 0x1087 JUMPI PUSH1 0xC PUSH1 0xB SSTORE PUSH2 0x108D JUMP JUMPDEST PUSH1 0x64 PUSH1 0xB SSTORE JUMPDEST POP PUSH1 0xB SLOAD SWAP1 JUMP JUMPDEST PUSH1 0x5 SLOAD PUSH0 SWAP1 PUSH1 0x1 PUSH1 0x1 PUSH1 0xA0 SHL SUB AND PUSH2 0x10EE JUMPI PUSH1 0x40 MLOAD PUSH3 0x461BCD PUSH1 0xE5 SHL DUP2 MSTORE PUSH1 0x20 PUSH1 0x4 DUP3 ADD MSTORE PUSH1 0x1C PUSH1 0x24 DUP3 ADD MSTORE PUSH32 0x556E697377617020706F6F6C2061646472657373206E6F742073657400000000 PUSH1 0x44 DUP3 ADD MSTORE PUSH1 0x64 ADD PUSH2 0x464 JUMP JUMPDEST PUSH1 0x5 SLOAD PUSH1 0x40 MLOAD PUSH4 0x70A08231 PUSH1 0xE0 SHL DUP2 MSTORE PUSH1 0x1 PUSH1 0x1 PUSH1 0xA0 SHL SUB DUP5 DUP2 AND PUSH1 0x4 DUP4 ADD MSTORE PUSH0 SWAP3 AND SWAP1 PUSH4 0x70A08231 SWAP1 PUSH1 0x24 ADD PUSH1 0x20 PUSH1 0x40 MLOAD DUP1 DUP4 SUB DUP2 DUP7 GAS STATICCALL ISZERO DUP1 ISZERO PUSH2 0x1136 JUMPI RETURNDATASIZE PUSH0 DUP1 RETURNDATACOPY RETURNDATASIZE PUSH0 REVERT JUMPDEST POP POP POP POP PUSH1 0x40 MLOAD RETURNDATASIZE PUSH1 0x1F NOT PUSH1 0x1F DUP3 ADD AND DUP3 ADD DUP1 PUSH1 0x40 MSTORE POP DUP2 ADD SWAP1 PUSH2 0x115A SWAP2 SWAP1 PUSH2 0x139C JUMP JUMPDEST SWAP1 POP PUSH0 PUSH1 0x5 PUSH0 SWAP1 SLOAD SWAP1 PUSH2 0x100 EXP SWAP1 DIV PUSH1 0x1 PUSH1 0x1 PUSH1 0xA0 SHL SUB AND PUSH1 0x1 PUSH1 0x1 PUSH1 0xA0 SHL SUB AND PUSH4 0x18160DDD PUSH1 0x40 MLOAD DUP2 PUSH4 0xFFFFFFFF AND PUSH1 0xE0 SHL DUP2 MSTORE PUSH1 0x4 ADD PUSH1 0x20 PUSH1 0x40 MLOAD DUP1 DUP4 SUB DUP2 DUP7 GAS STATICCALL ISZERO DUP1 ISZERO PUSH2 0x11AD JUMPI RETURNDATASIZE PUSH0 DUP1 RETURNDATACOPY RETURNDATASIZE PUSH0 REVERT JUMPDEST POP POP POP POP PUSH1 0x40 MLOAD RETURNDATASIZE PUSH1 0x1F NOT PUSH1 0x1F DUP3 ADD AND DUP3 ADD DUP1 PUSH1 0x40 MSTORE POP DUP2 ADD SWAP1 PUSH2 0x11D1 SWAP2 SWAP1 PUSH2 0x139C JUMP JUMPDEST SWAP1 POP PUSH0 PUSH1 0x5 PUSH0 SWAP1 SLOAD SWAP1 PUSH2 0x100 EXP SWAP1 DIV PUSH1 0x1 PUSH1 0x1 PUSH1 0xA0 SHL SUB AND PUSH1 0x1 PUSH1 0x1 PUSH1 0xA0 SHL SUB AND PUSH4 0x902F1AC PUSH1 0x40 MLOAD DUP2 PUSH4 0xFFFFFFFF AND PUSH1 0xE0 SHL DUP2 MSTORE PUSH1 0x4 ADD PUSH1 0x60 PUSH1 0x40 MLOAD DUP1 DUP4 SUB DUP2 DUP7 GAS STATICCALL ISZERO DUP1 ISZERO PUSH2 0x1224 JUMPI RETURNDATASIZE PUSH0 DUP1 RETURNDATACOPY RETURNDATASIZE PUSH0 REVERT JUMPDEST POP POP POP POP PUSH1 0x40 MLOAD RETURNDATASIZE PUSH1 0x1F NOT PUSH1 0x1F DUP3 ADD AND DUP3 ADD DUP1 PUSH1 0x40 MSTORE POP DUP2 ADD SWAP1 PUSH2 0x1248 SWAP2 SWAP1 PUSH2 0x13E1 JUMP JUMPDEST POP POP PUSH1 0x1 PUSH1 0x1 PUSH1 0x70 SHL SUB AND SWAP1 POP PUSH0 DUP3 PUSH2 0x1269 DUP6 PUSH8 0xDE0B6B3A7640000 PUSH2 0x134C JUMP JUMPDEST PUSH2 0x1273 SWAP2 SWAP1 PUSH2 0x132D JUMP JUMPDEST SWAP1 POP PUSH0 PUSH8 0xDE0B6B3A7640000 PUSH2 0x1289 DUP5 DUP5 PUSH2 0x134C JUMP JUMPDEST PUSH2 0xB8F SWAP2 SWAP1 PUSH2 0x132D JUMP JUMPDEST DUP1 CALLDATALOAD PUSH1 0x1 PUSH1 0x1 PUSH1 0xA0 SHL SUB DUP2 AND DUP2 EQ PUSH2 0x12A9 JUMPI PUSH0 DUP1 REVERT JUMPDEST SWAP2 SWAP1 POP JUMP JUMPDEST PUSH0 PUSH1 0x20 DUP3 DUP5 SUB SLT ISZERO PUSH2 0x12BE JUMPI PUSH0 DUP1 REVERT JUMPDEST PUSH2 0x103A DUP3 PUSH2 0x1293 JUMP JUMPDEST PUSH0 PUSH1 0x20 DUP3 DUP5 SUB SLT ISZERO PUSH2 0x12D7 JUMPI PUSH0 DUP1 REVERT JUMPDEST POP CALLDATALOAD SWAP2 SWAP1 POP JUMP JUMPDEST PUSH0 DUP1 PUSH1 0x40 DUP4 DUP6 SUB SLT ISZERO PUSH2 0x12EF JUMPI PUSH0 DUP1 REVERT JUMPDEST PUSH2 0x12F8 DUP4 PUSH2 0x1293 JUMP JUMPDEST SWAP5 PUSH1 0x20 SWAP4 SWAP1 SWAP4 ADD CALLDATALOAD SWAP4 POP POP POP JUMP JUMPDEST PUSH4 0x4E487B71 PUSH1 0xE0 SHL PUSH0 MSTORE PUSH1 0x11 PUSH1 0x4 MSTORE PUSH1 0x24 PUSH0 REVERT JUMPDEST DUP2 DUP2 SUB DUP2 DUP2 GT ISZERO PUSH2 0x103D JUMPI PUSH2 0x103D PUSH2 0x1306 JUMP JUMPDEST PUSH0 DUP3 PUSH2 0x1347 JUMPI PUSH4 0x4E487B71 PUSH1 0xE0 SHL PUSH0 MSTORE PUSH1 0x12 PUSH1 0x4 MSTORE PUSH1 0x24 PUSH0 REVERT JUMPDEST POP DIV SWAP1 JUMP JUMPDEST DUP1 DUP3 MUL DUP2 ISZERO DUP3 DUP3 DIV DUP5 EQ OR PUSH2 0x103D JUMPI PUSH2 0x103D PUSH2 0x1306 JUMP JUMPDEST DUP1 DUP3 ADD DUP1 DUP3 GT ISZERO PUSH2 0x103D JUMPI PUSH2 0x103D PUSH2 0x1306 JUMP JUMPDEST PUSH0 PUSH1 0x20 DUP3 DUP5 SUB SLT ISZERO PUSH2 0x1386 JUMPI PUSH0 DUP1 REVERT JUMPDEST DUP2 MLOAD DUP1 ISZERO ISZERO DUP2 EQ PUSH2 0x1395 JUMPI PUSH0 DUP1 REVERT JUMPDEST SWAP4 SWAP3 POP POP POP JUMP JUMPDEST PUSH0 PUSH1 0x20 DUP3 DUP5 SUB SLT ISZERO PUSH2 0x13AC JUMPI PUSH0 DUP1 REVERT JUMPDEST POP MLOAD SWAP2 SWAP1 POP JUMP JUMPDEST PUSH0 PUSH1 0x1 DUP3 ADD PUSH2 0x13C4 JUMPI PUSH2 0x13C4 PUSH2 0x1306 JUMP JUMPDEST POP PUSH1 0x1 ADD SWAP1 JUMP JUMPDEST DUP1 MLOAD PUSH1 0x1 PUSH1 0x1 PUSH1 0x70 SHL SUB DUP2 AND DUP2 EQ PUSH2 0x12A9 JUMPI PUSH0 DUP1 REVERT JUMPDEST PUSH0 DUP1 PUSH0 PUSH1 0x60 DUP5 DUP7 SUB SLT ISZERO PUSH2 0x13F3 JUMPI PUSH0 DUP1 REVERT JUMPDEST PUSH2 0x13FC DUP5 PUSH2 0x13CB JUMP JUMPDEST SWAP3 POP PUSH2 0x140A PUSH1 0x20 DUP6 ADD PUSH2 0x13CB JUMP JUMPDEST SWAP2 POP PUSH1 0x40 DUP5 ADD MLOAD PUSH4 0xFFFFFFFF DUP2 AND DUP2 EQ PUSH2 0x1422 JUMPI PUSH0 DUP1 REVERT JUMPDEST DUP1 SWAP2 POP POP SWAP3 POP SWAP3 POP SWAP3 JUMP INVALID LOG2 PUSH5 0x6970667358 0x22 SLT KECCAK256 0xD9 0xDC SWAP12 ADDMOD 0xBB 0xAD 0xEB DUP4 DELEGATECALL 0x1E SHR CALLDATASIZE SWAP15 CHAINID DUP4 DUP4 MSTORE8 0x4D EQ 0x4F 0xC2 0xE1 XOR PUSH20 0xF363DA697D23104364736F6C6343000818003300 "
		},
		"gasEstimates": {
			"creation": {
				"codeDepositCost": "1043800",
				"executionCost": "infinite",
				"totalCost": "infinite"
			},
			"external": {
				"MINIMUM_CLAIM_INTERVAL()": "306",
				"NINETY_DAYS()": "238",
				"accumulatedRewards(address)": "2587",
				"alreadyVoted(address)": "2545",
				"annualRewards(uint256)": "2525",
				"applicants()": "2404",
				"currentDay()": "2428",
				"currentMonth()": "2405",
				"dailyLimit()": "2340",
				"getCurrentMonth()": "357",
				"getUnclaimedRewards(address)": "infinite",
				"harvestRewards()": "infinite",
				"lastClaimTime(address)": "2634",
				"lockInfo(address)": "4749",
				"lockLP(uint256)": "infinite",
				"lpTokenAddress()": "2402",
				"marketingWallet()": "2425",
				"monthlyRewardLimit()": "2340",
				"reduceCommission()": "infinite",
				"rewardToken()": "2424",
				"rewardsDistributedToday()": "2383",
				"setUniswapPool(address)": "26781",
				"stakedTokens(address)": "2565",
				"stakingStartTime(address)": "2587",
				"totalDistributedRewards()": "2361",
				"unlockLP()": "infinite",
				"withdrawExcess(address,uint256)": "infinite"
			},
			"internal": {
				"getUSDValueOfLPTokens(address)": "infinite",
				"marketingFee()": "30605",
				"min(uint256,uint256)": "64",
				"yearNow()": "77"
			}
		},
		"methodIdentifiers": {
			"MINIMUM_CLAIM_INTERVAL()": "50f0a325",
			"NINETY_DAYS()": "e372c900",
			"accumulatedRewards(address)": "73f273fc",
			"alreadyVoted(address)": "06d2ad40",
			"annualRewards(uint256)": "443df8f5",
			"applicants()": "fdf5963a",
			"currentDay()": "5c9302c9",
			"currentMonth()": "862a4d47",
			"dailyLimit()": "67eeba0c",
			"getCurrentMonth()": "ddd1b67e",
			"getUnclaimedRewards(address)": "69a69e29",
			"harvestRewards()": "2be11ae2",
			"lastClaimTime(address)": "b77cf9c6",
			"lockInfo(address)": "6bd3b87c",
			"lockLP(uint256)": "40519a53",
			"lpTokenAddress()": "f5ae497a",
			"marketingWallet()": "75f0a874",
			"monthlyRewardLimit()": "8aca35a0",
			"reduceCommission()": "92f851c1",
			"rewardToken()": "f7c618c1",
			"rewardsDistributedToday()": "b5a556d2",
			"setUniswapPool(address)": "8f90e902",
			"stakedTokens(address)": "a5b39cfb",
			"stakingStartTime(address)": "d1232730",
			"totalDistributedRewards()": "a87df832",
			"unlockLP()": "b91f3f97",
			"withdrawExcess(address,uint256)": "6e90013d"
		}
	},
	"abi": [
		{
			"inputs": [
				{
					"internalType": "address",
					"name": "_uniswapPool",
					"type": "address"
				},
				{
					"internalType": "address",
					"name": "_rewardToken",
					"type": "address"
				}
			],
			"stateMutability": "nonpayable",
			"type": "constructor"
		},
		{
			"anonymous": false,
			"inputs": [
				{
					"indexed": true,
					"internalType": "address",
					"name": "user",
					"type": "address"
				},
				{
					"indexed": false,
					"internalType": "uint256",
					"name": "amount",
					"type": "uint256"
				}
			],
			"name": "LockedLP",
			"type": "event"
		},
		{
			"anonymous": false,
			"inputs": [
				{
					"indexed": true,
					"internalType": "address",
					"name": "user",
					"type": "address"
				},
				{
					"indexed": false,
					"internalType": "uint256",
					"name": "amount",
					"type": "uint256"
				}
			],
			"name": "RewardHarvested",
			"type": "event"
		},
		{
			"anonymous": false,
			"inputs": [
				{
					"indexed": true,
					"internalType": "address",
					"name": "user",
					"type": "address"
				},
				{
					"indexed": false,
					"internalType": "uint256",
					"name": "amount",
					"type": "uint256"
				}
			],
			"name": "UnlockedLP",
			"type": "event"
		},
		{
			"inputs": [],
			"name": "MINIMUM_CLAIM_INTERVAL",
			"outputs": [
				{
					"internalType": "uint256",
					"name": "",
					"type": "uint256"
				}
			],
			"stateMutability": "view",
			"type": "function"
		},
		{
			"inputs": [],
			"name": "NINETY_DAYS",
			"outputs": [
				{
					"internalType": "uint256",
					"name": "",
					"type": "uint256"
				}
			],
			"stateMutability": "view",
			"type": "function"
		},
		{
			"inputs": [
				{
					"internalType": "address",
					"name": "",
					"type": "address"
				}
			],
			"name": "accumulatedRewards",
			"outputs": [
				{
					"internalType": "uint256",
					"name": "",
					"type": "uint256"
				}
			],
			"stateMutability": "view",
			"type": "function"
		},
		{
			"inputs": [
				{
					"internalType": "address",
					"name": "",
					"type": "address"
				}
			],
			"name": "alreadyVoted",
			"outputs": [
				{
					"internalType": "bool",
					"name": "",
					"type": "bool"
				}
			],
			"stateMutability": "view",
			"type": "function"
		},
		{
			"inputs": [
				{
					"internalType": "uint256",
					"name": "",
					"type": "uint256"
				}
			],
			"name": "annualRewards",
			"outputs": [
				{
					"internalType": "uint256",
					"name": "",
					"type": "uint256"
				}
			],
			"stateMutability": "view",
			"type": "function"
		},
		{
			"inputs": [],
			"name": "applicants",
			"outputs": [
				{
					"internalType": "uint256",
					"name": "",
					"type": "uint256"
				}
			],
			"stateMutability": "view",
			"type": "function"
		},
		{
			"inputs": [],
			"name": "currentDay",
			"outputs": [
				{
					"internalType": "uint256",
					"name": "",
					"type": "uint256"
				}
			],
			"stateMutability": "view",
			"type": "function"
		},
		{
			"inputs": [],
			"name": "currentMonth",
			"outputs": [
				{
					"internalType": "uint256",
					"name": "",
					"type": "uint256"
				}
			],
			"stateMutability": "view",
			"type": "function"
		},
		{
			"inputs": [],
			"name": "dailyLimit",
			"outputs": [
				{
					"internalType": "uint256",
					"name": "",
					"type": "uint256"
				}
			],
			"stateMutability": "view",
			"type": "function"
		},
		{
			"inputs": [],
			"name": "getCurrentMonth",
			"outputs": [
				{
					"internalType": "uint256",
					"name": "",
					"type": "uint256"
				}
			],
			"stateMutability": "view",
			"type": "function"
		},
		{
			"inputs": [
				{
					"internalType": "address",
					"name": "user",
					"type": "address"
				}
			],
			"name": "getUnclaimedRewards",
			"outputs": [
				{
					"internalType": "uint256",
					"name": "",
					"type": "uint256"
				}
			],
			"stateMutability": "view",
			"type": "function"
		},
		{
			"inputs": [],
			"name": "harvestRewards",
			"outputs": [],
			"stateMutability": "nonpayable",
			"type": "function"
		},
		{
			"inputs": [
				{
					"internalType": "address",
					"name": "",
					"type": "address"
				}
			],
			"name": "lastClaimTime",
			"outputs": [
				{
					"internalType": "uint256",
					"name": "",
					"type": "uint256"
				}
			],
			"stateMutability": "view",
			"type": "function"
		},
		{
			"inputs": [
				{
					"internalType": "address",
					"name": "",
					"type": "address"
				}
			],
			"name": "lockInfo",
			"outputs": [
				{
					"internalType": "uint256",
					"name": "amount",
					"type": "uint256"
				},
				{
					"internalType": "uint256",
					"name": "lockTime",
					"type": "uint256"
				}
			],
			"stateMutability": "view",
			"type": "function"
		},
		{
			"inputs": [
				{
					"internalType": "uint256",
					"name": "amount",
					"type": "uint256"
				}
			],
			"name": "lockLP",
			"outputs": [],
			"stateMutability": "nonpayable",
			"type": "function"
		},
		{
			"inputs": [],
			"name": "lpTokenAddress",
			"outputs": [
				{
					"internalType": "address",
					"name": "",
					"type": "address"
				}
			],
			"stateMutability": "view",
			"type": "function"
		},
		{
			"inputs": [],
			"name": "marketingWallet",
			"outputs": [
				{
					"internalType": "address",
					"name": "",
					"type": "address"
				}
			],
			"stateMutability": "view",
			"type": "function"
		},
		{
			"inputs": [],
			"name": "monthlyRewardLimit",
			"outputs": [
				{
					"internalType": "uint256",
					"name": "",
					"type": "uint256"
				}
			],
			"stateMutability": "view",
			"type": "function"
		},
		{
			"inputs": [],
			"name": "reduceCommission",
			"outputs": [],
			"stateMutability": "nonpayable",
			"type": "function"
		},
		{
			"inputs": [],
			"name": "rewardToken",
			"outputs": [
				{
					"internalType": "contract IERC20",
					"name": "",
					"type": "address"
				}
			],
			"stateMutability": "view",
			"type": "function"
		},
		{
			"inputs": [],
			"name": "rewardsDistributedToday",
			"outputs": [
				{
					"internalType": "uint256",
					"name": "",
					"type": "uint256"
				}
			],
			"stateMutability": "view",
			"type": "function"
		},
		{
			"inputs": [
				{
					"internalType": "address",
					"name": "_uniswapPool",
					"type": "address"
				}
			],
			"name": "setUniswapPool",
			"outputs": [],
			"stateMutability": "nonpayable",
			"type": "function"
		},
		{
			"inputs": [
				{
					"internalType": "address",
					"name": "",
					"type": "address"
				}
			],
			"name": "stakedTokens",
			"outputs": [
				{
					"internalType": "uint256",
					"name": "",
					"type": "uint256"
				}
			],
			"stateMutability": "view",
			"type": "function"
		},
		{
			"inputs": [
				{
					"internalType": "address",
					"name": "",
					"type": "address"
				}
			],
			"name": "stakingStartTime",
			"outputs": [
				{
					"internalType": "uint256",
					"name": "",
					"type": "uint256"
				}
			],
			"stateMutability": "view",
			"type": "function"
		},
		{
			"inputs": [],
			"name": "totalDistributedRewards",
			"outputs": [
				{
					"internalType": "uint256",
					"name": "",
					"type": "uint256"
				}
			],
			"stateMutability": "view",
			"type": "function"
		},
		{
			"inputs": [],
			"name": "unlockLP",
			"outputs": [],
			"stateMutability": "nonpayable",
			"type": "function"
		},
		{
			"inputs": [
				{
					"internalType": "address",
					"name": "token",
					"type": "address"
				},
				{
					"internalType": "uint256",
					"name": "amount",
					"type": "uint256"
				}
			],
			"name": "withdrawExcess",
			"outputs": [],
			"stateMutability": "nonpayable",
			"type": "function"
		}
	]
}