{
	"data": {
		"bytecode": {
			"linkReferences": {},
			"object": "6001805460ff60a01b191690556103e8600255610100604052601e6080908152605a60a05260b460c05261016d60e0526200003f906003906004620000d7565b50604080516080810182526032815260426020820152605391810191909152607d60608201526200007490600490816200012b565b5034801562000081575f80fd5b506040516200170738038062001707833981016040819052620000a49162000182565b5f8054336001600160a01b031991821617909155600180549091166001600160a01b0392909216919091179055620001b1565b828054828255905f5260205f2090810192821562000119579160200282015b8281111562000119578251829061ffff16905591602001919060010190620000f6565b50620001279291506200016c565b5090565b828054828255905f5260205f2090810192821562000119579160200282015b8281111562000119578251829060ff169055916020019190600101906200014a565b5b8082111562000127575f81556001016200016d565b5f6020828403121562000193575f80fd5b81516001600160a01b0381168114620001aa575f80fd5b9392505050565b61154880620001bf5f395ff3fe608060405234801561000f575f80fd5b506004361061011c575f3560e01c80637b0472f0116100a9578063c55a7bce1161006e578063c55a7bce14610231578063de3e3eff14610244578063f2caeb1e14610257578063f6ed20171461026a578063fc0c546a1461027d575f80fd5b80637b0472f0146101b55780638da5cb5b146101c85780639bcf5c24146101f2578063b187bd2614610205578063b88a802f14610229575f80fd5b80634da6a556116100ef5780634da6a5561461016b578063562dead21461017e5780635769848c146101875780635a2883221461019a57806363624436146101ad575f80fd5b80630dfec300146101205780630e85117a146101355780632def66201461015b5780634289e4cd14610163575b5f80fd5b61013361012e3660046111f2565b610290565b005b6101486101433660046111f2565b6103ab565b6040519081526020015b60405180910390f35b61013361044e565b610133610731565b6101486101793660046111f2565b610794565b61014860025481565b610133610195366004611221565b6107d0565b6101486101a83660046111f2565b610817565b610133610856565b6101336101c336600461123c565b610aac565b5f546101da906001600160a01b031681565b6040516001600160a01b039091168152602001610152565b6101486102003660046111f2565b610d17565b60015461021990600160a01b900460ff1681565b6040519015158152602001610152565b610133610d56565b61013361023f366004611270565b610ffb565b610148610252366004611329565b6110bb565b610148610265366004611329565b6110da565b6101486102783660046111f2565b6110e9565b6001546101da906001600160a01b031681565b5f546001600160a01b031633146102c25760405162461bcd60e51b81526004016102b990611340565b60405180910390fd5b6001545f546040516370a0823160e01b81523060048201526001600160a01b039283169263a9059cbb92811691908516906370a0823190602401602060405180830381865afa158015610317573d5f803e3d5ffd5b505050506040513d601f19601f8201168201806040525081019061033b9190611367565b6040516001600160e01b031960e085901b1681526001600160a01b03909216600483015260248201526044016020604051808303815f875af1158015610383573d5f803e3d5ffd5b505050506040513d601f19601f820116820180604052508101906103a7919061137e565b5050565b6001600160a01b0381165f90815260056020526040812080546103e05760405162461bcd60e51b81526004016102b990611399565b5f81600101544211156103ff5760018201546103fc90426113e2565b90505b5f6003836003015481548110610417576104176113fb565b905f5260205f20015490505f818310156104385761043583836113e2565b90505b5f610443824261140f565b979650505050505050565b335f90815260056020526040902080546104aa5760405162461bcd60e51b815260206004820152601b60248201527f4e6f207374616b656420616d6f756e7420746f20756e7374616b65000000000060448201526064016102b9565b60038160030154815481106104c1576104c16113fb565b905f5260205f20015481600101546104d9919061140f565b4210156105285760405162461bcd60e51b815260206004820152601c60248201527f4d696e696d756d207374616b6520706572696f64206e6f74206d65740000000060448201526064016102b9565b80546001546040516370a0823160e01b81523060048201526001600160a01b03909116906370a0823190602401602060405180830381865afa158015610570573d5f803e3d5ffd5b505050506040513d601f19601f820116820180604052508101906105949190611367565b116105b15760405162461bcd60e51b81526004016102b990611422565b5f8160010154426105c291906113e2565b90505f60025462278d006105d6919061146a565b8260048560030154815481106105ee576105ee6113fb565b905f5260205f200154855f0154610605919061146a565b61060f919061146a565b6106199190611481565b60015484549192506001600160a01b03169063a9059cbb90339061063e90859061140f565b6040516001600160e01b031960e085901b1681526001600160a01b03909216600483015260248201526044016020604051808303815f875af1158015610686573d5f803e3d5ffd5b505050506040513d601f19601f820116820180604052508101906106aa919061137e565b6106c65760405162461bcd60e51b81526004016102b9906114a0565b825460408051918252426020830152810182905233907f204fccf0d92ed8d48f204adb39b2e81e92bad0dedb93f5716ca9478cfb57de009060600160405180910390a25050335f90815260056020526040812081815560018101829055600281018290556003015550565b5f546001600160a01b0316331461075a5760405162461bcd60e51b81526004016102b990611340565b5f80546040516001600160a01b03909116914780156108fc02929091818181858888f19350505050158015610791573d5f803e3d5ffd5b50565b6001600160a01b0381165f90815260056020526040812080546107c95760405162461bcd60e51b81526004016102b990611399565b5492915050565b5f546001600160a01b031633146107f95760405162461bcd60e51b81526004016102b990611340565b60018054911515600160a01b0260ff60a01b19909216919091179055565b6001600160a01b0381165f908152600560205260408120805461084c5760405162461bcd60e51b81526004016102b990611399565b6001015492915050565b335f90815260056020526040902080546108b25760405162461bcd60e51b815260206004820152601b60248201527f4e6f207374616b656420616d6f756e7420746f20756e7374616b65000000000060448201526064016102b9565b60038160030154815481106108c9576108c96113fb565b905f5260205f20015481600101546108e1919061140f565b4211156109305760405162461bcd60e51b815260206004820152601b60248201527f596f7520616c726561647920686176652061207265776172642121000000000060448201526064016102b9565b80546001546040516370a0823160e01b81523060048201526001600160a01b03909116906370a0823190602401602060405180830381865afa158015610978573d5f803e3d5ffd5b505050506040513d601f19601f8201168201806040525081019061099c9190611367565b116109b95760405162461bcd60e51b81526004016102b990611422565b600154815460405163a9059cbb60e01b815233600482015260248101919091526001600160a01b039091169063a9059cbb906044016020604051808303815f875af1158015610a0a573d5f803e3d5ffd5b505050506040513d601f19601f82011682018060405250810190610a2e919061137e565b610a4a5760405162461bcd60e51b81526004016102b9906114a0565b80546040805191825242602083015233917fe6ab0e0153d89c40616cb28f32194043cb0f5b7d3b343e9a54b5d45340513f76910160405180910390a250335f908152600560205260408120818155600181018290556002810182905560030155565b5f8211610afb5760405162461bcd60e51b815260206004820152601d60248201527f416d6f756e74206d7573742062652067726561746572207468616e203000000060448201526064016102b9565b6003548110610b455760405162461bcd60e51b8152602060048201526016602482015275092dcecc2d8d2c840c8eae4c2e8d2dedc40d2dcc8caf60531b60448201526064016102b9565b335f908152600560205260409020805415610ba25760405162461bcd60e51b815260206004820152601d60248201527f596f75206861766520616c7265616479207374616b65642056524c212100000060448201526064016102b9565b6001546040516323b872dd60e01b8152336004820152306024820152604481018590526001600160a01b03909116906323b872dd906064016020604051808303815f875af1158015610bf6573d5f803e3d5ffd5b505050506040513d601f19601f82011682018060405250810190610c1a919061137e565b610c365760405162461bcd60e51b81526004016102b9906114a0565b600154600160a01b900460ff1615610c865760405162461bcd60e51b81526020600482015260136024820152725374616b696e6720697320706175736564212160681b60448201526064016102b9565b604080516080810182528481524260208083018281528385018381526060808601898152335f818152600587528990209751885593516001880155915160028701559051600390950194909455845188815291820192909252928301859052917fb4caaf29adda3eefee3ad552a8e85058589bf834c7466cae4ee58787f70589ed91015b60405180910390a2505050565b6001600160a01b0381165f9081526005602052604081208054610d4c5760405162461bcd60e51b81526004016102b990611399565b6002015492915050565b335f9081526005602052604090208054610dbc5760405162461bcd60e51b815260206004820152602160248201527f4e6f207374616b656420616d6f756e7420746f20636c61696d207265776172646044820152607360f81b60648201526084016102b9565b6003816003015481548110610dd357610dd36113fb565b905f5260205f2001548160020154610deb919061140f565b421015610e3a5760405162461bcd60e51b815260206004820152601c60248201527f4d696e696d756d20636c61696d20706572696f64206e6f74206d65740000000060448201526064016102b9565b80546001546040516370a0823160e01b81523060048201526001600160a01b03909116906370a0823190602401602060405180830381865afa158015610e82573d5f803e3d5ffd5b505050506040513d601f19601f82011682018060405250810190610ea69190611367565b11610ec35760405162461bcd60e51b81526004016102b990611422565b5f816002015442610ed491906113e2565b90505f60025462278d00610ee8919061146a565b826004856003015481548110610f0057610f006113fb565b905f5260205f200154855f0154610f17919061146a565b610f21919061146a565b610f2b9190611481565b60015460405163a9059cbb60e01b8152336004820152602481018390529192506001600160a01b03169063a9059cbb906044016020604051808303815f875af1158015610f7a573d5f803e3d5ffd5b505050506040513d601f19601f82011682018060405250810190610f9e919061137e565b610fba5760405162461bcd60e51b81526004016102b9906114a0565b426002840181905560405133917ff01da32686223933d8a18a391060918c7f11a3648639edd87ae013e2e273174391610d0a91858252602082015260400190565b5f546001600160a01b031633146110245760405162461bcd60e51b81526004016102b990611340565b60035481511461106d5760405162461bcd60e51b8152602060048201526014602482015273092dcecc2d8d2c840e4c2e8cae640d8cadccee8d60631b60448201526064016102b9565b8051611080906004906020840190611181565b507f1ec0e4ae421d51e732aa1ca2ee2239ffe79054ffe6aedb45b6a92e0d237ab814816040516110b091906114cf565b60405180910390a150565b600381815481106110ca575f80fd5b5f91825260209091200154905081565b600481815481106110ca575f80fd5b6001600160a01b0381165f9081526005602052604081208054820361111057505f92915050565b5f81600201544261112191906113e2565b90505f60025462278d00611135919061146a565b82600485600301548154811061114d5761114d6113fb565b905f5260205f200154855f0154611164919061146a565b61116e919061146a565b6111789190611481565b95945050505050565b828054828255905f5260205f209081019282156111ba579160200282015b828111156111ba57825182559160200191906001019061119f565b506111c69291506111ca565b5090565b5b808211156111c6575f81556001016111cb565b6001600160a01b0381168114610791575f80fd5b5f60208284031215611202575f80fd5b813561120d816111de565b9392505050565b8015158114610791575f80fd5b5f60208284031215611231575f80fd5b813561120d81611214565b5f806040838503121561124d575f80fd5b50508035926020909101359150565b634e487b7160e01b5f52604160045260245ffd5b5f6020808385031215611281575f80fd5b823567ffffffffffffffff80821115611298575f80fd5b818501915085601f8301126112ab575f80fd5b8135818111156112bd576112bd61125c565b8060051b604051601f19603f830116810181811085821117156112e2576112e261125c565b6040529182528482019250838101850191888311156112ff575f80fd5b938501935b8285101561131d57843584529385019392850192611304565b98975050505050505050565b5f60208284031215611339575f80fd5b5035919050565b6020808252600d908201526c2737ba103a34329037bbb732b960991b604082015260600190565b5f60208284031215611377575f80fd5b5051919050565b5f6020828403121561138e575f80fd5b815161120d81611214565b6020808252818101527f4e6f207374616b656420616d6f756e7420666f72207468652061646472657373604082015260600190565b634e487b7160e01b5f52601160045260245ffd5b818103818111156113f5576113f56113ce565b92915050565b634e487b7160e01b5f52603260045260245ffd5b808201808211156113f5576113f56113ce565b60208082526028908201527f496e73756666696369656e742062616c616e636520696e207374616b696e672060408201526718dbdb9d1c9858dd60c21b606082015260800190565b80820281158282048414176113f5576113f56113ce565b5f8261149b57634e487b7160e01b5f52601260045260245ffd5b500490565b602080825260159082015274151bdad95b881d1c985b9cd9995c8819985a5b1959605a1b604082015260600190565b602080825282518282018190525f9190848201906040850190845b81811015611506578351835292840192918401916001016114ea565b5090969550505050505056fea2646970667358221220afc4460c9371e3781e184d1d88c23e77027ba1efe1e6641df19f907f61c5479064736f6c63430008180033",
			"opcodes": "PUSH1 0x1 DUP1 SLOAD PUSH1 0xFF PUSH1 0xA0 SHL NOT AND SWAP1 SSTORE PUSH2 0x3E8 PUSH1 0x2 SSTORE PUSH2 0x100 PUSH1 0x40 MSTORE PUSH1 0x1E PUSH1 0x80 SWAP1 DUP2 MSTORE PUSH1 0x5A PUSH1 0xA0 MSTORE PUSH1 0xB4 PUSH1 0xC0 MSTORE PUSH2 0x16D PUSH1 0xE0 MSTORE PUSH3 0x3F SWAP1 PUSH1 0x3 SWAP1 PUSH1 0x4 PUSH3 0xD7 JUMP JUMPDEST POP PUSH1 0x40 DUP1 MLOAD PUSH1 0x80 DUP2 ADD DUP3 MSTORE PUSH1 0x32 DUP2 MSTORE PUSH1 0x42 PUSH1 0x20 DUP3 ADD MSTORE PUSH1 0x53 SWAP2 DUP2 ADD SWAP2 SWAP1 SWAP2 MSTORE PUSH1 0x7D PUSH1 0x60 DUP3 ADD MSTORE PUSH3 0x74 SWAP1 PUSH1 0x4 SWAP1 DUP2 PUSH3 0x12B JUMP JUMPDEST POP CALLVALUE DUP1 ISZERO PUSH3 0x81 JUMPI PUSH0 DUP1 REVERT JUMPDEST POP PUSH1 0x40 MLOAD PUSH3 0x1707 CODESIZE SUB DUP1 PUSH3 0x1707 DUP4 CODECOPY DUP2 ADD PUSH1 0x40 DUP2 SWAP1 MSTORE PUSH3 0xA4 SWAP2 PUSH3 0x182 JUMP JUMPDEST PUSH0 DUP1 SLOAD CALLER PUSH1 0x1 PUSH1 0x1 PUSH1 0xA0 SHL SUB NOT SWAP2 DUP3 AND OR SWAP1 SWAP2 SSTORE PUSH1 0x1 DUP1 SLOAD SWAP1 SWAP2 AND PUSH1 0x1 PUSH1 0x1 PUSH1 0xA0 SHL SUB SWAP3 SWAP1 SWAP3 AND SWAP2 SWAP1 SWAP2 OR SWAP1 SSTORE PUSH3 0x1B1 JUMP JUMPDEST DUP3 DUP1 SLOAD DUP3 DUP3 SSTORE SWAP1 PUSH0 MSTORE PUSH1 0x20 PUSH0 KECCAK256 SWAP1 DUP2 ADD SWAP3 DUP3 ISZERO PUSH3 0x119 JUMPI SWAP2 PUSH1 0x20 MUL DUP3 ADD JUMPDEST DUP3 DUP2 GT ISZERO PUSH3 0x119 JUMPI DUP3 MLOAD DUP3 SWAP1 PUSH2 0xFFFF AND SWAP1 SSTORE SWAP2 PUSH1 0x20 ADD SWAP2 SWAP1 PUSH1 0x1 ADD SWAP1 PUSH3 0xF6 JUMP JUMPDEST POP PUSH3 0x127 SWAP3 SWAP2 POP PUSH3 0x16C JUMP JUMPDEST POP SWAP1 JUMP JUMPDEST DUP3 DUP1 SLOAD DUP3 DUP3 SSTORE SWAP1 PUSH0 MSTORE PUSH1 0x20 PUSH0 KECCAK256 SWAP1 DUP2 ADD SWAP3 DUP3 ISZERO PUSH3 0x119 JUMPI SWAP2 PUSH1 0x20 MUL DUP3 ADD JUMPDEST DUP3 DUP2 GT ISZERO PUSH3 0x119 JUMPI DUP3 MLOAD DUP3 SWAP1 PUSH1 0xFF AND SWAP1 SSTORE SWAP2 PUSH1 0x20 ADD SWAP2 SWAP1 PUSH1 0x1 ADD SWAP1 PUSH3 0x14A JUMP JUMPDEST JUMPDEST DUP1 DUP3 GT ISZERO PUSH3 0x127 JUMPI PUSH0 DUP2 SSTORE PUSH1 0x1 ADD PUSH3 0x16D JUMP JUMPDEST PUSH0 PUSH1 0x20 DUP3 DUP5 SUB SLT ISZERO PUSH3 0x193 JUMPI PUSH0 DUP1 REVERT JUMPDEST DUP2 MLOAD PUSH1 0x1 PUSH1 0x1 PUSH1 0xA0 SHL SUB DUP2 AND DUP2 EQ PUSH3 0x1AA JUMPI PUSH0 DUP1 REVERT JUMPDEST SWAP4 SWAP3 POP POP POP JUMP JUMPDEST PUSH2 0x1548 DUP1 PUSH3 0x1BF PUSH0 CODECOPY PUSH0 RETURN INVALID PUSH1 0x80 PUSH1 0x40 MSTORE CALLVALUE DUP1 ISZERO PUSH2 0xF JUMPI PUSH0 DUP1 REVERT JUMPDEST POP PUSH1 0x4 CALLDATASIZE LT PUSH2 0x11C JUMPI PUSH0 CALLDATALOAD PUSH1 0xE0 SHR DUP1 PUSH4 0x7B0472F0 GT PUSH2 0xA9 JUMPI DUP1 PUSH4 0xC55A7BCE GT PUSH2 0x6E JUMPI DUP1 PUSH4 0xC55A7BCE EQ PUSH2 0x231 JUMPI DUP1 PUSH4 0xDE3E3EFF EQ PUSH2 0x244 JUMPI DUP1 PUSH4 0xF2CAEB1E EQ PUSH2 0x257 JUMPI DUP1 PUSH4 0xF6ED2017 EQ PUSH2 0x26A JUMPI DUP1 PUSH4 0xFC0C546A EQ PUSH2 0x27D JUMPI PUSH0 DUP1 REVERT JUMPDEST DUP1 PUSH4 0x7B0472F0 EQ PUSH2 0x1B5 JUMPI DUP1 PUSH4 0x8DA5CB5B EQ PUSH2 0x1C8 JUMPI DUP1 PUSH4 0x9BCF5C24 EQ PUSH2 0x1F2 JUMPI DUP1 PUSH4 0xB187BD26 EQ PUSH2 0x205 JUMPI DUP1 PUSH4 0xB88A802F EQ PUSH2 0x229 JUMPI PUSH0 DUP1 REVERT JUMPDEST DUP1 PUSH4 0x4DA6A556 GT PUSH2 0xEF JUMPI DUP1 PUSH4 0x4DA6A556 EQ PUSH2 0x16B JUMPI DUP1 PUSH4 0x562DEAD2 EQ PUSH2 0x17E JUMPI DUP1 PUSH4 0x5769848C EQ PUSH2 0x187 JUMPI DUP1 PUSH4 0x5A288322 EQ PUSH2 0x19A JUMPI DUP1 PUSH4 0x63624436 EQ PUSH2 0x1AD JUMPI PUSH0 DUP1 REVERT JUMPDEST DUP1 PUSH4 0xDFEC300 EQ PUSH2 0x120 JUMPI DUP1 PUSH4 0xE85117A EQ PUSH2 0x135 JUMPI DUP1 PUSH4 0x2DEF6620 EQ PUSH2 0x15B JUMPI DUP1 PUSH4 0x4289E4CD EQ PUSH2 0x163 JUMPI JUMPDEST PUSH0 DUP1 REVERT JUMPDEST PUSH2 0x133 PUSH2 0x12E CALLDATASIZE PUSH1 0x4 PUSH2 0x11F2 JUMP JUMPDEST PUSH2 0x290 JUMP JUMPDEST STOP JUMPDEST PUSH2 0x148 PUSH2 0x143 CALLDATASIZE PUSH1 0x4 PUSH2 0x11F2 JUMP JUMPDEST PUSH2 0x3AB JUMP JUMPDEST PUSH1 0x40 MLOAD SWAP1 DUP2 MSTORE PUSH1 0x20 ADD JUMPDEST PUSH1 0x40 MLOAD DUP1 SWAP2 SUB SWAP1 RETURN JUMPDEST PUSH2 0x133 PUSH2 0x44E JUMP JUMPDEST PUSH2 0x133 PUSH2 0x731 JUMP JUMPDEST PUSH2 0x148 PUSH2 0x179 CALLDATASIZE PUSH1 0x4 PUSH2 0x11F2 JUMP JUMPDEST PUSH2 0x794 JUMP JUMPDEST PUSH2 0x148 PUSH1 0x2 SLOAD DUP2 JUMP JUMPDEST PUSH2 0x133 PUSH2 0x195 CALLDATASIZE PUSH1 0x4 PUSH2 0x1221 JUMP JUMPDEST PUSH2 0x7D0 JUMP JUMPDEST PUSH2 0x148 PUSH2 0x1A8 CALLDATASIZE PUSH1 0x4 PUSH2 0x11F2 JUMP JUMPDEST PUSH2 0x817 JUMP JUMPDEST PUSH2 0x133 PUSH2 0x856 JUMP JUMPDEST PUSH2 0x133 PUSH2 0x1C3 CALLDATASIZE PUSH1 0x4 PUSH2 0x123C JUMP JUMPDEST PUSH2 0xAAC JUMP JUMPDEST PUSH0 SLOAD PUSH2 0x1DA SWAP1 PUSH1 0x1 PUSH1 0x1 PUSH1 0xA0 SHL SUB AND DUP2 JUMP JUMPDEST PUSH1 0x40 MLOAD PUSH1 0x1 PUSH1 0x1 PUSH1 0xA0 SHL SUB SWAP1 SWAP2 AND DUP2 MSTORE PUSH1 0x20 ADD PUSH2 0x152 JUMP JUMPDEST PUSH2 0x148 PUSH2 0x200 CALLDATASIZE PUSH1 0x4 PUSH2 0x11F2 JUMP JUMPDEST PUSH2 0xD17 JUMP JUMPDEST PUSH1 0x1 SLOAD PUSH2 0x219 SWAP1 PUSH1 0x1 PUSH1 0xA0 SHL SWAP1 DIV PUSH1 0xFF AND DUP2 JUMP JUMPDEST PUSH1 0x40 MLOAD SWAP1 ISZERO ISZERO DUP2 MSTORE PUSH1 0x20 ADD PUSH2 0x152 JUMP JUMPDEST PUSH2 0x133 PUSH2 0xD56 JUMP JUMPDEST PUSH2 0x133 PUSH2 0x23F CALLDATASIZE PUSH1 0x4 PUSH2 0x1270 JUMP JUMPDEST PUSH2 0xFFB JUMP JUMPDEST PUSH2 0x148 PUSH2 0x252 CALLDATASIZE PUSH1 0x4 PUSH2 0x1329 JUMP JUMPDEST PUSH2 0x10BB JUMP JUMPDEST PUSH2 0x148 PUSH2 0x265 CALLDATASIZE PUSH1 0x4 PUSH2 0x1329 JUMP JUMPDEST PUSH2 0x10DA JUMP JUMPDEST PUSH2 0x148 PUSH2 0x278 CALLDATASIZE PUSH1 0x4 PUSH2 0x11F2 JUMP JUMPDEST PUSH2 0x10E9 JUMP JUMPDEST PUSH1 0x1 SLOAD PUSH2 0x1DA SWAP1 PUSH1 0x1 PUSH1 0x1 PUSH1 0xA0 SHL SUB AND DUP2 JUMP JUMPDEST PUSH0 SLOAD PUSH1 0x1 PUSH1 0x1 PUSH1 0xA0 SHL SUB AND CALLER EQ PUSH2 0x2C2 JUMPI PUSH1 0x40 MLOAD PUSH3 0x461BCD PUSH1 0xE5 SHL DUP2 MSTORE PUSH1 0x4 ADD PUSH2 0x2B9 SWAP1 PUSH2 0x1340 JUMP JUMPDEST PUSH1 0x40 MLOAD DUP1 SWAP2 SUB SWAP1 REVERT JUMPDEST PUSH1 0x1 SLOAD PUSH0 SLOAD PUSH1 0x40 MLOAD PUSH4 0x70A08231 PUSH1 0xE0 SHL DUP2 MSTORE ADDRESS PUSH1 0x4 DUP3 ADD MSTORE PUSH1 0x1 PUSH1 0x1 PUSH1 0xA0 SHL SUB SWAP3 DUP4 AND SWAP3 PUSH4 0xA9059CBB SWAP3 DUP2 AND SWAP2 SWAP1 DUP6 AND SWAP1 PUSH4 0x70A08231 SWAP1 PUSH1 0x24 ADD PUSH1 0x20 PUSH1 0x40 MLOAD DUP1 DUP4 SUB DUP2 DUP7 GAS STATICCALL ISZERO DUP1 ISZERO PUSH2 0x317 JUMPI RETURNDATASIZE PUSH0 DUP1 RETURNDATACOPY RETURNDATASIZE PUSH0 REVERT JUMPDEST POP POP POP POP PUSH1 0x40 MLOAD RETURNDATASIZE PUSH1 0x1F NOT PUSH1 0x1F DUP3 ADD AND DUP3 ADD DUP1 PUSH1 0x40 MSTORE POP DUP2 ADD SWAP1 PUSH2 0x33B SWAP2 SWAP1 PUSH2 0x1367 JUMP JUMPDEST PUSH1 0x40 MLOAD PUSH1 0x1 PUSH1 0x1 PUSH1 0xE0 SHL SUB NOT PUSH1 0xE0 DUP6 SWAP1 SHL AND DUP2 MSTORE PUSH1 0x1 PUSH1 0x1 PUSH1 0xA0 SHL SUB SWAP1 SWAP3 AND PUSH1 0x4 DUP4 ADD MSTORE PUSH1 0x24 DUP3 ADD MSTORE PUSH1 0x44 ADD PUSH1 0x20 PUSH1 0x40 MLOAD DUP1 DUP4 SUB DUP2 PUSH0 DUP8 GAS CALL ISZERO DUP1 ISZERO PUSH2 0x383 JUMPI RETURNDATASIZE PUSH0 DUP1 RETURNDATACOPY RETURNDATASIZE PUSH0 REVERT JUMPDEST POP POP POP POP PUSH1 0x40 MLOAD RETURNDATASIZE PUSH1 0x1F NOT PUSH1 0x1F DUP3 ADD AND DUP3 ADD DUP1 PUSH1 0x40 MSTORE POP DUP2 ADD SWAP1 PUSH2 0x3A7 SWAP2 SWAP1 PUSH2 0x137E JUMP JUMPDEST POP POP JUMP JUMPDEST PUSH1 0x1 PUSH1 0x1 PUSH1 0xA0 SHL SUB DUP2 AND PUSH0 SWAP1 DUP2 MSTORE PUSH1 0x5 PUSH1 0x20 MSTORE PUSH1 0x40 DUP2 KECCAK256 DUP1 SLOAD PUSH2 0x3E0 JUMPI PUSH1 0x40 MLOAD PUSH3 0x461BCD PUSH1 0xE5 SHL DUP2 MSTORE PUSH1 0x4 ADD PUSH2 0x2B9 SWAP1 PUSH2 0x1399 JUMP JUMPDEST PUSH0 DUP2 PUSH1 0x1 ADD SLOAD TIMESTAMP GT ISZERO PUSH2 0x3FF JUMPI PUSH1 0x1 DUP3 ADD SLOAD PUSH2 0x3FC SWAP1 TIMESTAMP PUSH2 0x13E2 JUMP JUMPDEST SWAP1 POP JUMPDEST PUSH0 PUSH1 0x3 DUP4 PUSH1 0x3 ADD SLOAD DUP2 SLOAD DUP2 LT PUSH2 0x417 JUMPI PUSH2 0x417 PUSH2 0x13FB JUMP JUMPDEST SWAP1 PUSH0 MSTORE PUSH1 0x20 PUSH0 KECCAK256 ADD SLOAD SWAP1 POP PUSH0 DUP2 DUP4 LT ISZERO PUSH2 0x438 JUMPI PUSH2 0x435 DUP4 DUP4 PUSH2 0x13E2 JUMP JUMPDEST SWAP1 POP JUMPDEST PUSH0 PUSH2 0x443 DUP3 TIMESTAMP PUSH2 0x140F JUMP JUMPDEST SWAP8 SWAP7 POP POP POP POP POP POP POP JUMP JUMPDEST CALLER PUSH0 SWAP1 DUP2 MSTORE PUSH1 0x5 PUSH1 0x20 MSTORE PUSH1 0x40 SWAP1 KECCAK256 DUP1 SLOAD PUSH2 0x4AA JUMPI PUSH1 0x40 MLOAD PUSH3 0x461BCD PUSH1 0xE5 SHL DUP2 MSTORE PUSH1 0x20 PUSH1 0x4 DUP3 ADD MSTORE PUSH1 0x1B PUSH1 0x24 DUP3 ADD MSTORE PUSH32 0x4E6F207374616B656420616D6F756E7420746F20756E7374616B650000000000 PUSH1 0x44 DUP3 ADD MSTORE PUSH1 0x64 ADD PUSH2 0x2B9 JUMP JUMPDEST PUSH1 0x3 DUP2 PUSH1 0x3 ADD SLOAD DUP2 SLOAD DUP2 LT PUSH2 0x4C1 JUMPI PUSH2 0x4C1 PUSH2 0x13FB JUMP JUMPDEST SWAP1 PUSH0 MSTORE PUSH1 0x20 PUSH0 KECCAK256 ADD SLOAD DUP2 PUSH1 0x1 ADD SLOAD PUSH2 0x4D9 SWAP2 SWAP1 PUSH2 0x140F JUMP JUMPDEST TIMESTAMP LT ISZERO PUSH2 0x528 JUMPI PUSH1 0x40 MLOAD PUSH3 0x461BCD PUSH1 0xE5 SHL DUP2 MSTORE PUSH1 0x20 PUSH1 0x4 DUP3 ADD MSTORE PUSH1 0x1C PUSH1 0x24 DUP3 ADD MSTORE PUSH32 0x4D696E696D756D207374616B6520706572696F64206E6F74206D657400000000 PUSH1 0x44 DUP3 ADD MSTORE PUSH1 0x64 ADD PUSH2 0x2B9 JUMP JUMPDEST DUP1 SLOAD PUSH1 0x1 SLOAD PUSH1 0x40 MLOAD PUSH4 0x70A08231 PUSH1 0xE0 SHL DUP2 MSTORE ADDRESS PUSH1 0x4 DUP3 ADD MSTORE PUSH1 0x1 PUSH1 0x1 PUSH1 0xA0 SHL SUB SWAP1 SWAP2 AND SWAP1 PUSH4 0x70A08231 SWAP1 PUSH1 0x24 ADD PUSH1 0x20 PUSH1 0x40 MLOAD DUP1 DUP4 SUB DUP2 DUP7 GAS STATICCALL ISZERO DUP1 ISZERO PUSH2 0x570 JUMPI RETURNDATASIZE PUSH0 DUP1 RETURNDATACOPY RETURNDATASIZE PUSH0 REVERT JUMPDEST POP POP POP POP PUSH1 0x40 MLOAD RETURNDATASIZE PUSH1 0x1F NOT PUSH1 0x1F DUP3 ADD AND DUP3 ADD DUP1 PUSH1 0x40 MSTORE POP DUP2 ADD SWAP1 PUSH2 0x594 SWAP2 SWAP1 PUSH2 0x1367 JUMP JUMPDEST GT PUSH2 0x5B1 JUMPI PUSH1 0x40 MLOAD PUSH3 0x461BCD PUSH1 0xE5 SHL DUP2 MSTORE PUSH1 0x4 ADD PUSH2 0x2B9 SWAP1 PUSH2 0x1422 JUMP JUMPDEST PUSH0 DUP2 PUSH1 0x1 ADD SLOAD TIMESTAMP PUSH2 0x5C2 SWAP2 SWAP1 PUSH2 0x13E2 JUMP JUMPDEST SWAP1 POP PUSH0 PUSH1 0x2 SLOAD PUSH3 0x278D00 PUSH2 0x5D6 SWAP2 SWAP1 PUSH2 0x146A JUMP JUMPDEST DUP3 PUSH1 0x4 DUP6 PUSH1 0x3 ADD SLOAD DUP2 SLOAD DUP2 LT PUSH2 0x5EE JUMPI PUSH2 0x5EE PUSH2 0x13FB JUMP JUMPDEST SWAP1 PUSH0 MSTORE PUSH1 0x20 PUSH0 KECCAK256 ADD SLOAD DUP6 PUSH0 ADD SLOAD PUSH2 0x605 SWAP2 SWAP1 PUSH2 0x146A JUMP JUMPDEST PUSH2 0x60F SWAP2 SWAP1 PUSH2 0x146A JUMP JUMPDEST PUSH2 0x619 SWAP2 SWAP1 PUSH2 0x1481 JUMP JUMPDEST PUSH1 0x1 SLOAD DUP5 SLOAD SWAP2 SWAP3 POP PUSH1 0x1 PUSH1 0x1 PUSH1 0xA0 SHL SUB AND SWAP1 PUSH4 0xA9059CBB SWAP1 CALLER SWAP1 PUSH2 0x63E SWAP1 DUP6 SWAP1 PUSH2 0x140F JUMP JUMPDEST PUSH1 0x40 MLOAD PUSH1 0x1 PUSH1 0x1 PUSH1 0xE0 SHL SUB NOT PUSH1 0xE0 DUP6 SWAP1 SHL AND DUP2 MSTORE PUSH1 0x1 PUSH1 0x1 PUSH1 0xA0 SHL SUB SWAP1 SWAP3 AND PUSH1 0x4 DUP4 ADD MSTORE PUSH1 0x24 DUP3 ADD MSTORE PUSH1 0x44 ADD PUSH1 0x20 PUSH1 0x40 MLOAD DUP1 DUP4 SUB DUP2 PUSH0 DUP8 GAS CALL ISZERO DUP1 ISZERO PUSH2 0x686 JUMPI RETURNDATASIZE PUSH0 DUP1 RETURNDATACOPY RETURNDATASIZE PUSH0 REVERT JUMPDEST POP POP POP POP PUSH1 0x40 MLOAD RETURNDATASIZE PUSH1 0x1F NOT PUSH1 0x1F DUP3 ADD AND DUP3 ADD DUP1 PUSH1 0x40 MSTORE POP DUP2 ADD SWAP1 PUSH2 0x6AA SWAP2 SWAP1 PUSH2 0x137E JUMP JUMPDEST PUSH2 0x6C6 JUMPI PUSH1 0x40 MLOAD PUSH3 0x461BCD PUSH1 0xE5 SHL DUP2 MSTORE PUSH1 0x4 ADD PUSH2 0x2B9 SWAP1 PUSH2 0x14A0 JUMP JUMPDEST DUP3 SLOAD PUSH1 0x40 DUP1 MLOAD SWAP2 DUP3 MSTORE TIMESTAMP PUSH1 0x20 DUP4 ADD MSTORE DUP2 ADD DUP3 SWAP1 MSTORE CALLER SWAP1 PUSH32 0x204FCCF0D92ED8D48F204ADB39B2E81E92BAD0DEDB93F5716CA9478CFB57DE00 SWAP1 PUSH1 0x60 ADD PUSH1 0x40 MLOAD DUP1 SWAP2 SUB SWAP1 LOG2 POP POP CALLER PUSH0 SWAP1 DUP2 MSTORE PUSH1 0x5 PUSH1 0x20 MSTORE PUSH1 0x40 DUP2 KECCAK256 DUP2 DUP2 SSTORE PUSH1 0x1 DUP2 ADD DUP3 SWAP1 SSTORE PUSH1 0x2 DUP2 ADD DUP3 SWAP1 SSTORE PUSH1 0x3 ADD SSTORE POP JUMP JUMPDEST PUSH0 SLOAD PUSH1 0x1 PUSH1 0x1 PUSH1 0xA0 SHL SUB AND CALLER EQ PUSH2 0x75A JUMPI PUSH1 0x40 MLOAD PUSH3 0x461BCD PUSH1 0xE5 SHL DUP2 MSTORE PUSH1 0x4 ADD PUSH2 0x2B9 SWAP1 PUSH2 0x1340 JUMP JUMPDEST PUSH0 DUP1 SLOAD PUSH1 0x40 MLOAD PUSH1 0x1 PUSH1 0x1 PUSH1 0xA0 SHL SUB SWAP1 SWAP2 AND SWAP2 SELFBALANCE DUP1 ISZERO PUSH2 0x8FC MUL SWAP3 SWAP1 SWAP2 DUP2 DUP2 DUP2 DUP6 DUP9 DUP9 CALL SWAP4 POP POP POP POP ISZERO DUP1 ISZERO PUSH2 0x791 JUMPI RETURNDATASIZE PUSH0 DUP1 RETURNDATACOPY RETURNDATASIZE PUSH0 REVERT JUMPDEST POP JUMP JUMPDEST PUSH1 0x1 PUSH1 0x1 PUSH1 0xA0 SHL SUB DUP2 AND PUSH0 SWAP1 DUP2 MSTORE PUSH1 0x5 PUSH1 0x20 MSTORE PUSH1 0x40 DUP2 KECCAK256 DUP1 SLOAD PUSH2 0x7C9 JUMPI PUSH1 0x40 MLOAD PUSH3 0x461BCD PUSH1 0xE5 SHL DUP2 MSTORE PUSH1 0x4 ADD PUSH2 0x2B9 SWAP1 PUSH2 0x1399 JUMP JUMPDEST SLOAD SWAP3 SWAP2 POP POP JUMP JUMPDEST PUSH0 SLOAD PUSH1 0x1 PUSH1 0x1 PUSH1 0xA0 SHL SUB AND CALLER EQ PUSH2 0x7F9 JUMPI PUSH1 0x40 MLOAD PUSH3 0x461BCD PUSH1 0xE5 SHL DUP2 MSTORE PUSH1 0x4 ADD PUSH2 0x2B9 SWAP1 PUSH2 0x1340 JUMP JUMPDEST PUSH1 0x1 DUP1 SLOAD SWAP2 ISZERO ISZERO PUSH1 0x1 PUSH1 0xA0 SHL MUL PUSH1 0xFF PUSH1 0xA0 SHL NOT SWAP1 SWAP3 AND SWAP2 SWAP1 SWAP2 OR SWAP1 SSTORE JUMP JUMPDEST PUSH1 0x1 PUSH1 0x1 PUSH1 0xA0 SHL SUB DUP2 AND PUSH0 SWAP1 DUP2 MSTORE PUSH1 0x5 PUSH1 0x20 MSTORE PUSH1 0x40 DUP2 KECCAK256 DUP1 SLOAD PUSH2 0x84C JUMPI PUSH1 0x40 MLOAD PUSH3 0x461BCD PUSH1 0xE5 SHL DUP2 MSTORE PUSH1 0x4 ADD PUSH2 0x2B9 SWAP1 PUSH2 0x1399 JUMP JUMPDEST PUSH1 0x1 ADD SLOAD SWAP3 SWAP2 POP POP JUMP JUMPDEST CALLER PUSH0 SWAP1 DUP2 MSTORE PUSH1 0x5 PUSH1 0x20 MSTORE PUSH1 0x40 SWAP1 KECCAK256 DUP1 SLOAD PUSH2 0x8B2 JUMPI PUSH1 0x40 MLOAD PUSH3 0x461BCD PUSH1 0xE5 SHL DUP2 MSTORE PUSH1 0x20 PUSH1 0x4 DUP3 ADD MSTORE PUSH1 0x1B PUSH1 0x24 DUP3 ADD MSTORE PUSH32 0x4E6F207374616B656420616D6F756E7420746F20756E7374616B650000000000 PUSH1 0x44 DUP3 ADD MSTORE PUSH1 0x64 ADD PUSH2 0x2B9 JUMP JUMPDEST PUSH1 0x3 DUP2 PUSH1 0x3 ADD SLOAD DUP2 SLOAD DUP2 LT PUSH2 0x8C9 JUMPI PUSH2 0x8C9 PUSH2 0x13FB JUMP JUMPDEST SWAP1 PUSH0 MSTORE PUSH1 0x20 PUSH0 KECCAK256 ADD SLOAD DUP2 PUSH1 0x1 ADD SLOAD PUSH2 0x8E1 SWAP2 SWAP1 PUSH2 0x140F JUMP JUMPDEST TIMESTAMP GT ISZERO PUSH2 0x930 JUMPI PUSH1 0x40 MLOAD PUSH3 0x461BCD PUSH1 0xE5 SHL DUP2 MSTORE PUSH1 0x20 PUSH1 0x4 DUP3 ADD MSTORE PUSH1 0x1B PUSH1 0x24 DUP3 ADD MSTORE PUSH32 0x596F7520616C7265616479206861766520612072657761726421210000000000 PUSH1 0x44 DUP3 ADD MSTORE PUSH1 0x64 ADD PUSH2 0x2B9 JUMP JUMPDEST DUP1 SLOAD PUSH1 0x1 SLOAD PUSH1 0x40 MLOAD PUSH4 0x70A08231 PUSH1 0xE0 SHL DUP2 MSTORE ADDRESS PUSH1 0x4 DUP3 ADD MSTORE PUSH1 0x1 PUSH1 0x1 PUSH1 0xA0 SHL SUB SWAP1 SWAP2 AND SWAP1 PUSH4 0x70A08231 SWAP1 PUSH1 0x24 ADD PUSH1 0x20 PUSH1 0x40 MLOAD DUP1 DUP4 SUB DUP2 DUP7 GAS STATICCALL ISZERO DUP1 ISZERO PUSH2 0x978 JUMPI RETURNDATASIZE PUSH0 DUP1 RETURNDATACOPY RETURNDATASIZE PUSH0 REVERT JUMPDEST POP POP POP POP PUSH1 0x40 MLOAD RETURNDATASIZE PUSH1 0x1F NOT PUSH1 0x1F DUP3 ADD AND DUP3 ADD DUP1 PUSH1 0x40 MSTORE POP DUP2 ADD SWAP1 PUSH2 0x99C SWAP2 SWAP1 PUSH2 0x1367 JUMP JUMPDEST GT PUSH2 0x9B9 JUMPI PUSH1 0x40 MLOAD PUSH3 0x461BCD PUSH1 0xE5 SHL DUP2 MSTORE PUSH1 0x4 ADD PUSH2 0x2B9 SWAP1 PUSH2 0x1422 JUMP JUMPDEST PUSH1 0x1 SLOAD DUP2 SLOAD PUSH1 0x40 MLOAD PUSH4 0xA9059CBB PUSH1 0xE0 SHL DUP2 MSTORE CALLER PUSH1 0x4 DUP3 ADD MSTORE PUSH1 0x24 DUP2 ADD SWAP2 SWAP1 SWAP2 MSTORE PUSH1 0x1 PUSH1 0x1 PUSH1 0xA0 SHL SUB SWAP1 SWAP2 AND SWAP1 PUSH4 0xA9059CBB SWAP1 PUSH1 0x44 ADD PUSH1 0x20 PUSH1 0x40 MLOAD DUP1 DUP4 SUB DUP2 PUSH0 DUP8 GAS CALL ISZERO DUP1 ISZERO PUSH2 0xA0A JUMPI RETURNDATASIZE PUSH0 DUP1 RETURNDATACOPY RETURNDATASIZE PUSH0 REVERT JUMPDEST POP POP POP POP PUSH1 0x40 MLOAD RETURNDATASIZE PUSH1 0x1F NOT PUSH1 0x1F DUP3 ADD AND DUP3 ADD DUP1 PUSH1 0x40 MSTORE POP DUP2 ADD SWAP1 PUSH2 0xA2E SWAP2 SWAP1 PUSH2 0x137E JUMP JUMPDEST PUSH2 0xA4A JUMPI PUSH1 0x40 MLOAD PUSH3 0x461BCD PUSH1 0xE5 SHL DUP2 MSTORE PUSH1 0x4 ADD PUSH2 0x2B9 SWAP1 PUSH2 0x14A0 JUMP JUMPDEST DUP1 SLOAD PUSH1 0x40 DUP1 MLOAD SWAP2 DUP3 MSTORE TIMESTAMP PUSH1 0x20 DUP4 ADD MSTORE CALLER SWAP2 PUSH32 0xE6AB0E0153D89C40616CB28F32194043CB0F5B7D3B343E9A54B5D45340513F76 SWAP2 ADD PUSH1 0x40 MLOAD DUP1 SWAP2 SUB SWAP1 LOG2 POP CALLER PUSH0 SWAP1 DUP2 MSTORE PUSH1 0x5 PUSH1 0x20 MSTORE PUSH1 0x40 DUP2 KECCAK256 DUP2 DUP2 SSTORE PUSH1 0x1 DUP2 ADD DUP3 SWAP1 SSTORE PUSH1 0x2 DUP2 ADD DUP3 SWAP1 SSTORE PUSH1 0x3 ADD SSTORE JUMP JUMPDEST PUSH0 DUP3 GT PUSH2 0xAFB JUMPI PUSH1 0x40 MLOAD PUSH3 0x461BCD PUSH1 0xE5 SHL DUP2 MSTORE PUSH1 0x20 PUSH1 0x4 DUP3 ADD MSTORE PUSH1 0x1D PUSH1 0x24 DUP3 ADD MSTORE PUSH32 0x416D6F756E74206D7573742062652067726561746572207468616E2030000000 PUSH1 0x44 DUP3 ADD MSTORE PUSH1 0x64 ADD PUSH2 0x2B9 JUMP JUMPDEST PUSH1 0x3 SLOAD DUP2 LT PUSH2 0xB45 JUMPI PUSH1 0x40 MLOAD PUSH3 0x461BCD PUSH1 0xE5 SHL DUP2 MSTORE PUSH1 0x20 PUSH1 0x4 DUP3 ADD MSTORE PUSH1 0x16 PUSH1 0x24 DUP3 ADD MSTORE PUSH22 0x92DCECC2D8D2C840C8EAE4C2E8D2DEDC40D2DCC8CAF PUSH1 0x53 SHL PUSH1 0x44 DUP3 ADD MSTORE PUSH1 0x64 ADD PUSH2 0x2B9 JUMP JUMPDEST CALLER PUSH0 SWAP1 DUP2 MSTORE PUSH1 0x5 PUSH1 0x20 MSTORE PUSH1 0x40 SWAP1 KECCAK256 DUP1 SLOAD ISZERO PUSH2 0xBA2 JUMPI PUSH1 0x40 MLOAD PUSH3 0x461BCD PUSH1 0xE5 SHL DUP2 MSTORE PUSH1 0x20 PUSH1 0x4 DUP3 ADD MSTORE PUSH1 0x1D PUSH1 0x24 DUP3 ADD MSTORE PUSH32 0x596F75206861766520616C7265616479207374616B65642056524C2121000000 PUSH1 0x44 DUP3 ADD MSTORE PUSH1 0x64 ADD PUSH2 0x2B9 JUMP JUMPDEST PUSH1 0x1 SLOAD PUSH1 0x40 MLOAD PUSH4 0x23B872DD PUSH1 0xE0 SHL DUP2 MSTORE CALLER PUSH1 0x4 DUP3 ADD MSTORE ADDRESS PUSH1 0x24 DUP3 ADD MSTORE PUSH1 0x44 DUP2 ADD DUP6 SWAP1 MSTORE PUSH1 0x1 PUSH1 0x1 PUSH1 0xA0 SHL SUB SWAP1 SWAP2 AND SWAP1 PUSH4 0x23B872DD SWAP1 PUSH1 0x64 ADD PUSH1 0x20 PUSH1 0x40 MLOAD DUP1 DUP4 SUB DUP2 PUSH0 DUP8 GAS CALL ISZERO DUP1 ISZERO PUSH2 0xBF6 JUMPI RETURNDATASIZE PUSH0 DUP1 RETURNDATACOPY RETURNDATASIZE PUSH0 REVERT JUMPDEST POP POP POP POP PUSH1 0x40 MLOAD RETURNDATASIZE PUSH1 0x1F NOT PUSH1 0x1F DUP3 ADD AND DUP3 ADD DUP1 PUSH1 0x40 MSTORE POP DUP2 ADD SWAP1 PUSH2 0xC1A SWAP2 SWAP1 PUSH2 0x137E JUMP JUMPDEST PUSH2 0xC36 JUMPI PUSH1 0x40 MLOAD PUSH3 0x461BCD PUSH1 0xE5 SHL DUP2 MSTORE PUSH1 0x4 ADD PUSH2 0x2B9 SWAP1 PUSH2 0x14A0 JUMP JUMPDEST PUSH1 0x1 SLOAD PUSH1 0x1 PUSH1 0xA0 SHL SWAP1 DIV PUSH1 0xFF AND ISZERO PUSH2 0xC86 JUMPI PUSH1 0x40 MLOAD PUSH3 0x461BCD PUSH1 0xE5 SHL DUP2 MSTORE PUSH1 0x20 PUSH1 0x4 DUP3 ADD MSTORE PUSH1 0x13 PUSH1 0x24 DUP3 ADD MSTORE PUSH19 0x5374616B696E67206973207061757365642121 PUSH1 0x68 SHL PUSH1 0x44 DUP3 ADD MSTORE PUSH1 0x64 ADD PUSH2 0x2B9 JUMP JUMPDEST PUSH1 0x40 DUP1 MLOAD PUSH1 0x80 DUP2 ADD DUP3 MSTORE DUP5 DUP2 MSTORE TIMESTAMP PUSH1 0x20 DUP1 DUP4 ADD DUP3 DUP2 MSTORE DUP4 DUP6 ADD DUP4 DUP2 MSTORE PUSH1 0x60 DUP1 DUP7 ADD DUP10 DUP2 MSTORE CALLER PUSH0 DUP2 DUP2 MSTORE PUSH1 0x5 DUP8 MSTORE DUP10 SWAP1 KECCAK256 SWAP8 MLOAD DUP9 SSTORE SWAP4 MLOAD PUSH1 0x1 DUP9 ADD SSTORE SWAP2 MLOAD PUSH1 0x2 DUP8 ADD SSTORE SWAP1 MLOAD PUSH1 0x3 SWAP1 SWAP6 ADD SWAP5 SWAP1 SWAP5 SSTORE DUP5 MLOAD DUP9 DUP2 MSTORE SWAP2 DUP3 ADD SWAP3 SWAP1 SWAP3 MSTORE SWAP3 DUP4 ADD DUP6 SWAP1 MSTORE SWAP2 PUSH32 0xB4CAAF29ADDA3EEFEE3AD552A8E85058589BF834C7466CAE4EE58787F70589ED SWAP2 ADD JUMPDEST PUSH1 0x40 MLOAD DUP1 SWAP2 SUB SWAP1 LOG2 POP POP POP JUMP JUMPDEST PUSH1 0x1 PUSH1 0x1 PUSH1 0xA0 SHL SUB DUP2 AND PUSH0 SWAP1 DUP2 MSTORE PUSH1 0x5 PUSH1 0x20 MSTORE PUSH1 0x40 DUP2 KECCAK256 DUP1 SLOAD PUSH2 0xD4C JUMPI PUSH1 0x40 MLOAD PUSH3 0x461BCD PUSH1 0xE5 SHL DUP2 MSTORE PUSH1 0x4 ADD PUSH2 0x2B9 SWAP1 PUSH2 0x1399 JUMP JUMPDEST PUSH1 0x2 ADD SLOAD SWAP3 SWAP2 POP POP JUMP JUMPDEST CALLER PUSH0 SWAP1 DUP2 MSTORE PUSH1 0x5 PUSH1 0x20 MSTORE PUSH1 0x40 SWAP1 KECCAK256 DUP1 SLOAD PUSH2 0xDBC JUMPI PUSH1 0x40 MLOAD PUSH3 0x461BCD PUSH1 0xE5 SHL DUP2 MSTORE PUSH1 0x20 PUSH1 0x4 DUP3 ADD MSTORE PUSH1 0x21 PUSH1 0x24 DUP3 ADD MSTORE PUSH32 0x4E6F207374616B656420616D6F756E7420746F20636C61696D20726577617264 PUSH1 0x44 DUP3 ADD MSTORE PUSH1 0x73 PUSH1 0xF8 SHL PUSH1 0x64 DUP3 ADD MSTORE PUSH1 0x84 ADD PUSH2 0x2B9 JUMP JUMPDEST PUSH1 0x3 DUP2 PUSH1 0x3 ADD SLOAD DUP2 SLOAD DUP2 LT PUSH2 0xDD3 JUMPI PUSH2 0xDD3 PUSH2 0x13FB JUMP JUMPDEST SWAP1 PUSH0 MSTORE PUSH1 0x20 PUSH0 KECCAK256 ADD SLOAD DUP2 PUSH1 0x2 ADD SLOAD PUSH2 0xDEB SWAP2 SWAP1 PUSH2 0x140F JUMP JUMPDEST TIMESTAMP LT ISZERO PUSH2 0xE3A JUMPI PUSH1 0x40 MLOAD PUSH3 0x461BCD PUSH1 0xE5 SHL DUP2 MSTORE PUSH1 0x20 PUSH1 0x4 DUP3 ADD MSTORE PUSH1 0x1C PUSH1 0x24 DUP3 ADD MSTORE PUSH32 0x4D696E696D756D20636C61696D20706572696F64206E6F74206D657400000000 PUSH1 0x44 DUP3 ADD MSTORE PUSH1 0x64 ADD PUSH2 0x2B9 JUMP JUMPDEST DUP1 SLOAD PUSH1 0x1 SLOAD PUSH1 0x40 MLOAD PUSH4 0x70A08231 PUSH1 0xE0 SHL DUP2 MSTORE ADDRESS PUSH1 0x4 DUP3 ADD MSTORE PUSH1 0x1 PUSH1 0x1 PUSH1 0xA0 SHL SUB SWAP1 SWAP2 AND SWAP1 PUSH4 0x70A08231 SWAP1 PUSH1 0x24 ADD PUSH1 0x20 PUSH1 0x40 MLOAD DUP1 DUP4 SUB DUP2 DUP7 GAS STATICCALL ISZERO DUP1 ISZERO PUSH2 0xE82 JUMPI RETURNDATASIZE PUSH0 DUP1 RETURNDATACOPY RETURNDATASIZE PUSH0 REVERT JUMPDEST POP POP POP POP PUSH1 0x40 MLOAD RETURNDATASIZE PUSH1 0x1F NOT PUSH1 0x1F DUP3 ADD AND DUP3 ADD DUP1 PUSH1 0x40 MSTORE POP DUP2 ADD SWAP1 PUSH2 0xEA6 SWAP2 SWAP1 PUSH2 0x1367 JUMP JUMPDEST GT PUSH2 0xEC3 JUMPI PUSH1 0x40 MLOAD PUSH3 0x461BCD PUSH1 0xE5 SHL DUP2 MSTORE PUSH1 0x4 ADD PUSH2 0x2B9 SWAP1 PUSH2 0x1422 JUMP JUMPDEST PUSH0 DUP2 PUSH1 0x2 ADD SLOAD TIMESTAMP PUSH2 0xED4 SWAP2 SWAP1 PUSH2 0x13E2 JUMP JUMPDEST SWAP1 POP PUSH0 PUSH1 0x2 SLOAD PUSH3 0x278D00 PUSH2 0xEE8 SWAP2 SWAP1 PUSH2 0x146A JUMP JUMPDEST DUP3 PUSH1 0x4 DUP6 PUSH1 0x3 ADD SLOAD DUP2 SLOAD DUP2 LT PUSH2 0xF00 JUMPI PUSH2 0xF00 PUSH2 0x13FB JUMP JUMPDEST SWAP1 PUSH0 MSTORE PUSH1 0x20 PUSH0 KECCAK256 ADD SLOAD DUP6 PUSH0 ADD SLOAD PUSH2 0xF17 SWAP2 SWAP1 PUSH2 0x146A JUMP JUMPDEST PUSH2 0xF21 SWAP2 SWAP1 PUSH2 0x146A JUMP JUMPDEST PUSH2 0xF2B SWAP2 SWAP1 PUSH2 0x1481 JUMP JUMPDEST PUSH1 0x1 SLOAD PUSH1 0x40 MLOAD PUSH4 0xA9059CBB PUSH1 0xE0 SHL DUP2 MSTORE CALLER PUSH1 0x4 DUP3 ADD MSTORE PUSH1 0x24 DUP2 ADD DUP4 SWAP1 MSTORE SWAP2 SWAP3 POP PUSH1 0x1 PUSH1 0x1 PUSH1 0xA0 SHL SUB AND SWAP1 PUSH4 0xA9059CBB SWAP1 PUSH1 0x44 ADD PUSH1 0x20 PUSH1 0x40 MLOAD DUP1 DUP4 SUB DUP2 PUSH0 DUP8 GAS CALL ISZERO DUP1 ISZERO PUSH2 0xF7A JUMPI RETURNDATASIZE PUSH0 DUP1 RETURNDATACOPY RETURNDATASIZE PUSH0 REVERT JUMPDEST POP POP POP POP PUSH1 0x40 MLOAD RETURNDATASIZE PUSH1 0x1F NOT PUSH1 0x1F DUP3 ADD AND DUP3 ADD DUP1 PUSH1 0x40 MSTORE POP DUP2 ADD SWAP1 PUSH2 0xF9E SWAP2 SWAP1 PUSH2 0x137E JUMP JUMPDEST PUSH2 0xFBA JUMPI PUSH1 0x40 MLOAD PUSH3 0x461BCD PUSH1 0xE5 SHL DUP2 MSTORE PUSH1 0x4 ADD PUSH2 0x2B9 SWAP1 PUSH2 0x14A0 JUMP JUMPDEST TIMESTAMP PUSH1 0x2 DUP5 ADD DUP2 SWAP1 SSTORE PUSH1 0x40 MLOAD CALLER SWAP2 PUSH32 0xF01DA32686223933D8A18A391060918C7F11A3648639EDD87AE013E2E2731743 SWAP2 PUSH2 0xD0A SWAP2 DUP6 DUP3 MSTORE PUSH1 0x20 DUP3 ADD MSTORE PUSH1 0x40 ADD SWAP1 JUMP JUMPDEST PUSH0 SLOAD PUSH1 0x1 PUSH1 0x1 PUSH1 0xA0 SHL SUB AND CALLER EQ PUSH2 0x1024 JUMPI PUSH1 0x40 MLOAD PUSH3 0x461BCD PUSH1 0xE5 SHL DUP2 MSTORE PUSH1 0x4 ADD PUSH2 0x2B9 SWAP1 PUSH2 0x1340 JUMP JUMPDEST PUSH1 0x3 SLOAD DUP2 MLOAD EQ PUSH2 0x106D JUMPI PUSH1 0x40 MLOAD PUSH3 0x461BCD PUSH1 0xE5 SHL DUP2 MSTORE PUSH1 0x20 PUSH1 0x4 DUP3 ADD MSTORE PUSH1 0x14 PUSH1 0x24 DUP3 ADD MSTORE PUSH20 0x92DCECC2D8D2C840E4C2E8CAE640D8CADCCEE8D PUSH1 0x63 SHL PUSH1 0x44 DUP3 ADD MSTORE PUSH1 0x64 ADD PUSH2 0x2B9 JUMP JUMPDEST DUP1 MLOAD PUSH2 0x1080 SWAP1 PUSH1 0x4 SWAP1 PUSH1 0x20 DUP5 ADD SWAP1 PUSH2 0x1181 JUMP JUMPDEST POP PUSH32 0x1EC0E4AE421D51E732AA1CA2EE2239FFE79054FFE6AEDB45B6A92E0D237AB814 DUP2 PUSH1 0x40 MLOAD PUSH2 0x10B0 SWAP2 SWAP1 PUSH2 0x14CF JUMP JUMPDEST PUSH1 0x40 MLOAD DUP1 SWAP2 SUB SWAP1 LOG1 POP JUMP JUMPDEST PUSH1 0x3 DUP2 DUP2 SLOAD DUP2 LT PUSH2 0x10CA JUMPI PUSH0 DUP1 REVERT JUMPDEST PUSH0 SWAP2 DUP3 MSTORE PUSH1 0x20 SWAP1 SWAP2 KECCAK256 ADD SLOAD SWAP1 POP DUP2 JUMP JUMPDEST PUSH1 0x4 DUP2 DUP2 SLOAD DUP2 LT PUSH2 0x10CA JUMPI PUSH0 DUP1 REVERT JUMPDEST PUSH1 0x1 PUSH1 0x1 PUSH1 0xA0 SHL SUB DUP2 AND PUSH0 SWAP1 DUP2 MSTORE PUSH1 0x5 PUSH1 0x20 MSTORE PUSH1 0x40 DUP2 KECCAK256 DUP1 SLOAD DUP3 SUB PUSH2 0x1110 JUMPI POP PUSH0 SWAP3 SWAP2 POP POP JUMP JUMPDEST PUSH0 DUP2 PUSH1 0x2 ADD SLOAD TIMESTAMP PUSH2 0x1121 SWAP2 SWAP1 PUSH2 0x13E2 JUMP JUMPDEST SWAP1 POP PUSH0 PUSH1 0x2 SLOAD PUSH3 0x278D00 PUSH2 0x1135 SWAP2 SWAP1 PUSH2 0x146A JUMP JUMPDEST DUP3 PUSH1 0x4 DUP6 PUSH1 0x3 ADD SLOAD DUP2 SLOAD DUP2 LT PUSH2 0x114D JUMPI PUSH2 0x114D PUSH2 0x13FB JUMP JUMPDEST SWAP1 PUSH0 MSTORE PUSH1 0x20 PUSH0 KECCAK256 ADD SLOAD DUP6 PUSH0 ADD SLOAD PUSH2 0x1164 SWAP2 SWAP1 PUSH2 0x146A JUMP JUMPDEST PUSH2 0x116E SWAP2 SWAP1 PUSH2 0x146A JUMP JUMPDEST PUSH2 0x1178 SWAP2 SWAP1 PUSH2 0x1481 JUMP JUMPDEST SWAP6 SWAP5 POP POP POP POP POP JUMP JUMPDEST DUP3 DUP1 SLOAD DUP3 DUP3 SSTORE SWAP1 PUSH0 MSTORE PUSH1 0x20 PUSH0 KECCAK256 SWAP1 DUP2 ADD SWAP3 DUP3 ISZERO PUSH2 0x11BA JUMPI SWAP2 PUSH1 0x20 MUL DUP3 ADD JUMPDEST DUP3 DUP2 GT ISZERO PUSH2 0x11BA JUMPI DUP3 MLOAD DUP3 SSTORE SWAP2 PUSH1 0x20 ADD SWAP2 SWAP1 PUSH1 0x1 ADD SWAP1 PUSH2 0x119F JUMP JUMPDEST POP PUSH2 0x11C6 SWAP3 SWAP2 POP PUSH2 0x11CA JUMP JUMPDEST POP SWAP1 JUMP JUMPDEST JUMPDEST DUP1 DUP3 GT ISZERO PUSH2 0x11C6 JUMPI PUSH0 DUP2 SSTORE PUSH1 0x1 ADD PUSH2 0x11CB JUMP JUMPDEST PUSH1 0x1 PUSH1 0x1 PUSH1 0xA0 SHL SUB DUP2 AND DUP2 EQ PUSH2 0x791 JUMPI PUSH0 DUP1 REVERT JUMPDEST PUSH0 PUSH1 0x20 DUP3 DUP5 SUB SLT ISZERO PUSH2 0x1202 JUMPI PUSH0 DUP1 REVERT JUMPDEST DUP2 CALLDATALOAD PUSH2 0x120D DUP2 PUSH2 0x11DE JUMP JUMPDEST SWAP4 SWAP3 POP POP POP JUMP JUMPDEST DUP1 ISZERO ISZERO DUP2 EQ PUSH2 0x791 JUMPI PUSH0 DUP1 REVERT JUMPDEST PUSH0 PUSH1 0x20 DUP3 DUP5 SUB SLT ISZERO PUSH2 0x1231 JUMPI PUSH0 DUP1 REVERT JUMPDEST DUP2 CALLDATALOAD PUSH2 0x120D DUP2 PUSH2 0x1214 JUMP JUMPDEST PUSH0 DUP1 PUSH1 0x40 DUP4 DUP6 SUB SLT ISZERO PUSH2 0x124D JUMPI PUSH0 DUP1 REVERT JUMPDEST POP POP DUP1 CALLDATALOAD SWAP3 PUSH1 0x20 SWAP1 SWAP2 ADD CALLDATALOAD SWAP2 POP JUMP JUMPDEST PUSH4 0x4E487B71 PUSH1 0xE0 SHL PUSH0 MSTORE PUSH1 0x41 PUSH1 0x4 MSTORE PUSH1 0x24 PUSH0 REVERT JUMPDEST PUSH0 PUSH1 0x20 DUP1 DUP4 DUP6 SUB SLT ISZERO PUSH2 0x1281 JUMPI PUSH0 DUP1 REVERT JUMPDEST DUP3 CALLDATALOAD PUSH8 0xFFFFFFFFFFFFFFFF DUP1 DUP3 GT ISZERO PUSH2 0x1298 JUMPI PUSH0 DUP1 REVERT JUMPDEST DUP2 DUP6 ADD SWAP2 POP DUP6 PUSH1 0x1F DUP4 ADD SLT PUSH2 0x12AB JUMPI PUSH0 DUP1 REVERT JUMPDEST DUP2 CALLDATALOAD DUP2 DUP2 GT ISZERO PUSH2 0x12BD JUMPI PUSH2 0x12BD PUSH2 0x125C JUMP JUMPDEST DUP1 PUSH1 0x5 SHL PUSH1 0x40 MLOAD PUSH1 0x1F NOT PUSH1 0x3F DUP4 ADD AND DUP2 ADD DUP2 DUP2 LT DUP6 DUP3 GT OR ISZERO PUSH2 0x12E2 JUMPI PUSH2 0x12E2 PUSH2 0x125C JUMP JUMPDEST PUSH1 0x40 MSTORE SWAP2 DUP3 MSTORE DUP5 DUP3 ADD SWAP3 POP DUP4 DUP2 ADD DUP6 ADD SWAP2 DUP9 DUP4 GT ISZERO PUSH2 0x12FF JUMPI PUSH0 DUP1 REVERT JUMPDEST SWAP4 DUP6 ADD SWAP4 JUMPDEST DUP3 DUP6 LT ISZERO PUSH2 0x131D JUMPI DUP5 CALLDATALOAD DUP5 MSTORE SWAP4 DUP6 ADD SWAP4 SWAP3 DUP6 ADD SWAP3 PUSH2 0x1304 JUMP JUMPDEST SWAP9 SWAP8 POP POP POP POP POP POP POP POP JUMP JUMPDEST PUSH0 PUSH1 0x20 DUP3 DUP5 SUB SLT ISZERO PUSH2 0x1339 JUMPI PUSH0 DUP1 REVERT JUMPDEST POP CALLDATALOAD SWAP2 SWAP1 POP JUMP JUMPDEST PUSH1 0x20 DUP1 DUP3 MSTORE PUSH1 0xD SWAP1 DUP3 ADD MSTORE PUSH13 0x2737BA103A34329037BBB732B9 PUSH1 0x99 SHL PUSH1 0x40 DUP3 ADD MSTORE PUSH1 0x60 ADD SWAP1 JUMP JUMPDEST PUSH0 PUSH1 0x20 DUP3 DUP5 SUB SLT ISZERO PUSH2 0x1377 JUMPI PUSH0 DUP1 REVERT JUMPDEST POP MLOAD SWAP2 SWAP1 POP JUMP JUMPDEST PUSH0 PUSH1 0x20 DUP3 DUP5 SUB SLT ISZERO PUSH2 0x138E JUMPI PUSH0 DUP1 REVERT JUMPDEST DUP2 MLOAD PUSH2 0x120D DUP2 PUSH2 0x1214 JUMP JUMPDEST PUSH1 0x20 DUP1 DUP3 MSTORE DUP2 DUP2 ADD MSTORE PUSH32 0x4E6F207374616B656420616D6F756E7420666F72207468652061646472657373 PUSH1 0x40 DUP3 ADD MSTORE PUSH1 0x60 ADD SWAP1 JUMP JUMPDEST PUSH4 0x4E487B71 PUSH1 0xE0 SHL PUSH0 MSTORE PUSH1 0x11 PUSH1 0x4 MSTORE PUSH1 0x24 PUSH0 REVERT JUMPDEST DUP2 DUP2 SUB DUP2 DUP2 GT ISZERO PUSH2 0x13F5 JUMPI PUSH2 0x13F5 PUSH2 0x13CE JUMP JUMPDEST SWAP3 SWAP2 POP POP JUMP JUMPDEST PUSH4 0x4E487B71 PUSH1 0xE0 SHL PUSH0 MSTORE PUSH1 0x32 PUSH1 0x4 MSTORE PUSH1 0x24 PUSH0 REVERT JUMPDEST DUP1 DUP3 ADD DUP1 DUP3 GT ISZERO PUSH2 0x13F5 JUMPI PUSH2 0x13F5 PUSH2 0x13CE JUMP JUMPDEST PUSH1 0x20 DUP1 DUP3 MSTORE PUSH1 0x28 SWAP1 DUP3 ADD MSTORE PUSH32 0x496E73756666696369656E742062616C616E636520696E207374616B696E6720 PUSH1 0x40 DUP3 ADD MSTORE PUSH8 0x18DBDB9D1C9858DD PUSH1 0xC2 SHL PUSH1 0x60 DUP3 ADD MSTORE PUSH1 0x80 ADD SWAP1 JUMP JUMPDEST DUP1 DUP3 MUL DUP2 ISZERO DUP3 DUP3 DIV DUP5 EQ OR PUSH2 0x13F5 JUMPI PUSH2 0x13F5 PUSH2 0x13CE JUMP JUMPDEST PUSH0 DUP3 PUSH2 0x149B JUMPI PUSH4 0x4E487B71 PUSH1 0xE0 SHL PUSH0 MSTORE PUSH1 0x12 PUSH1 0x4 MSTORE PUSH1 0x24 PUSH0 REVERT JUMPDEST POP DIV SWAP1 JUMP JUMPDEST PUSH1 0x20 DUP1 DUP3 MSTORE PUSH1 0x15 SWAP1 DUP3 ADD MSTORE PUSH21 0x151BDAD95B881D1C985B9CD9995C8819985A5B1959 PUSH1 0x5A SHL PUSH1 0x40 DUP3 ADD MSTORE PUSH1 0x60 ADD SWAP1 JUMP JUMPDEST PUSH1 0x20 DUP1 DUP3 MSTORE DUP3 MLOAD DUP3 DUP3 ADD DUP2 SWAP1 MSTORE PUSH0 SWAP2 SWAP1 DUP5 DUP3 ADD SWAP1 PUSH1 0x40 DUP6 ADD SWAP1 DUP5 JUMPDEST DUP2 DUP2 LT ISZERO PUSH2 0x1506 JUMPI DUP4 MLOAD DUP4 MSTORE SWAP3 DUP5 ADD SWAP3 SWAP2 DUP5 ADD SWAP2 PUSH1 0x1 ADD PUSH2 0x14EA JUMP JUMPDEST POP SWAP1 SWAP7 SWAP6 POP POP POP POP POP POP JUMP INVALID LOG2 PUSH5 0x6970667358 0x22 SLT KECCAK256 0xAF 0xC4 CHAINID 0xC SWAP4 PUSH18 0xE3781E184D1D88C23E77027BA1EFE1E6641D CALL SWAP16 SWAP1 PUSH32 0x61C5479064736F6C634300081800330000000000000000000000000000000000 "
		},
		"gasEstimates": {
			"creation": {
				"codeDepositCost": "1089600",
				"executionCost": "infinite",
				"totalCost": "infinite"
			},
			"external": {
				"changeRewardRates(uint256[])": "infinite",
				"claimReward()": "infinite",
				"getLastStakedClaimedTime(address)": "4729",
				"getLastStakedStartTime(address)": "4751",
				"getPendingRewards(address)": "infinite",
				"getRemainingTime(address)": "infinite",
				"getStakedAmount(address)": "4679",
				"instantUnstake()": "infinite",
				"isPaused()": "2415",
				"owner()": "2380",
				"pauseStaking(bool)": "26753",
				"rewardBase()": "2328",
				"rewardRates(uint256)": "4627",
				"stake(uint256,uint256)": "infinite",
				"stakeDurations(uint256)": "4605",
				"token()": "2446",
				"transferStuckBEP20(address)": "infinite",
				"transferStuckBNB()": "infinite",
				"unstake()": "infinite"
			}
		},
		"methodIdentifiers": {
			"changeRewardRates(uint256[])": "c55a7bce",
			"claimReward()": "b88a802f",
			"getLastStakedClaimedTime(address)": "9bcf5c24",
			"getLastStakedStartTime(address)": "5a288322",
			"getPendingRewards(address)": "f6ed2017",
			"getRemainingTime(address)": "0e85117a",
			"getStakedAmount(address)": "4da6a556",
			"instantUnstake()": "63624436",
			"isPaused()": "b187bd26",
			"owner()": "8da5cb5b",
			"pauseStaking(bool)": "5769848c",
			"rewardBase()": "562dead2",
			"rewardRates(uint256)": "f2caeb1e",
			"stake(uint256,uint256)": "7b0472f0",
			"stakeDurations(uint256)": "de3e3eff",
			"token()": "fc0c546a",
			"transferStuckBEP20(address)": "0dfec300",
			"transferStuckBNB()": "4289e4cd",
			"unstake()": "2def6620"
		}
	},
	"abi": [
		{
			"inputs": [
				{
					"internalType": "address",
					"name": "_token",
					"type": "address"
				}
			],
			"stateMutability": "nonpayable",
			"type": "constructor"
		},
		{
			"anonymous": false,
			"inputs": [
				{
					"indexed": true,
					"internalType": "address",
					"name": "staker",
					"type": "address"
				},
				{
					"indexed": false,
					"internalType": "uint256",
					"name": "amount",
					"type": "uint256"
				},
				{
					"indexed": false,
					"internalType": "uint256",
					"name": "claimTime",
					"type": "uint256"
				}
			],
			"name": "RewardClaimed",
			"type": "event"
		},
		{
			"anonymous": false,
			"inputs": [
				{
					"indexed": false,
					"internalType": "uint256[]",
					"name": "newRates",
					"type": "uint256[]"
				}
			],
			"name": "RewardRatesChanged",
			"type": "event"
		},
		{
			"anonymous": false,
			"inputs": [
				{
					"indexed": true,
					"internalType": "address",
					"name": "staker",
					"type": "address"
				},
				{
					"indexed": false,
					"internalType": "uint256",
					"name": "amount",
					"type": "uint256"
				},
				{
					"indexed": false,
					"internalType": "uint256",
					"name": "startTime",
					"type": "uint256"
				},
				{
					"indexed": false,
					"internalType": "uint256",
					"name": "durationIndex",
					"type": "uint256"
				}
			],
			"name": "Staked",
			"type": "event"
		},
		{
			"anonymous": false,
			"inputs": [
				{
					"indexed": true,
					"internalType": "address",
					"name": "staker",
					"type": "address"
				},
				{
					"indexed": false,
					"internalType": "uint256",
					"name": "amount",
					"type": "uint256"
				},
				{
					"indexed": false,
					"internalType": "uint256",
					"name": "endTime",
					"type": "uint256"
				},
				{
					"indexed": false,
					"internalType": "uint256",
					"name": "reward",
					"type": "uint256"
				}
			],
			"name": "Unstaked",
			"type": "event"
		},
		{
			"anonymous": false,
			"inputs": [
				{
					"indexed": true,
					"internalType": "address",
					"name": "staker",
					"type": "address"
				},
				{
					"indexed": false,
					"internalType": "uint256",
					"name": "amount",
					"type": "uint256"
				},
				{
					"indexed": false,
					"internalType": "uint256",
					"name": "endTime",
					"type": "uint256"
				}
			],
			"name": "instantUnstaked",
			"type": "event"
		},
		{
			"inputs": [
				{
					"internalType": "uint256[]",
					"name": "_newRates",
					"type": "uint256[]"
				}
			],
			"name": "changeRewardRates",
			"outputs": [],
			"stateMutability": "nonpayable",
			"type": "function"
		},
		{
			"inputs": [],
			"name": "claimReward",
			"outputs": [],
			"stateMutability": "nonpayable",
			"type": "function"
		},
		{
			"inputs": [
				{
					"internalType": "address",
					"name": "_staker",
					"type": "address"
				}
			],
			"name": "getLastStakedClaimedTime",
			"outputs": [
				{
					"internalType": "uint256",
					"name": "time",
					"type": "uint256"
				}
			],
			"stateMutability": "view",
			"type": "function"
		},
		{
			"inputs": [
				{
					"internalType": "address",
					"name": "_staker",
					"type": "address"
				}
			],
			"name": "getLastStakedStartTime",
			"outputs": [
				{
					"internalType": "uint256",
					"name": "time",
					"type": "uint256"
				}
			],
			"stateMutability": "view",
			"type": "function"
		},
		{
			"inputs": [
				{
					"internalType": "address",
					"name": "_staker",
					"type": "address"
				}
			],
			"name": "getPendingRewards",
			"outputs": [
				{
					"internalType": "uint256",
					"name": "",
					"type": "uint256"
				}
			],
			"stateMutability": "view",
			"type": "function"
		},
		{
			"inputs": [
				{
					"internalType": "address",
					"name": "_staker",
					"type": "address"
				}
			],
			"name": "getRemainingTime",
			"outputs": [
				{
					"internalType": "uint256",
					"name": "time",
					"type": "uint256"
				}
			],
			"stateMutability": "view",
			"type": "function"
		},
		{
			"inputs": [
				{
					"internalType": "address",
					"name": "_staker",
					"type": "address"
				}
			],
			"name": "getStakedAmount",
			"outputs": [
				{
					"internalType": "uint256",
					"name": "amount",
					"type": "uint256"
				}
			],
			"stateMutability": "view",
			"type": "function"
		},
		{
			"inputs": [],
			"name": "instantUnstake",
			"outputs": [],
			"stateMutability": "nonpayable",
			"type": "function"
		},
		{
			"inputs": [],
			"name": "isPaused",
			"outputs": [
				{
					"internalType": "bool",
					"name": "",
					"type": "bool"
				}
			],
			"stateMutability": "view",
			"type": "function"
		},
		{
			"inputs": [],
			"name": "owner",
			"outputs": [
				{
					"internalType": "address",
					"name": "",
					"type": "address"
				}
			],
			"stateMutability": "view",
			"type": "function"
		},
		{
			"inputs": [
				{
					"internalType": "bool",
					"name": "_isPaused",
					"type": "bool"
				}
			],
			"name": "pauseStaking",
			"outputs": [],
			"stateMutability": "nonpayable",
			"type": "function"
		},
		{
			"inputs": [],
			"name": "rewardBase",
			"outputs": [
				{
					"internalType": "uint256",
					"name": "",
					"type": "uint256"
				}
			],
			"stateMutability": "view",
			"type": "function"
		},
		{
			"inputs": [
				{
					"internalType": "uint256",
					"name": "",
					"type": "uint256"
				}
			],
			"name": "rewardRates",
			"outputs": [
				{
					"internalType": "uint256",
					"name": "",
					"type": "uint256"
				}
			],
			"stateMutability": "view",
			"type": "function"
		},
		{
			"inputs": [
				{
					"internalType": "uint256",
					"name": "_amount",
					"type": "uint256"
				},
				{
					"internalType": "uint256",
					"name": "_durationIndex",
					"type": "uint256"
				}
			],
			"name": "stake",
			"outputs": [],
			"stateMutability": "nonpayable",
			"type": "function"
		},
		{
			"inputs": [
				{
					"internalType": "uint256",
					"name": "",
					"type": "uint256"
				}
			],
			"name": "stakeDurations",
			"outputs": [
				{
					"internalType": "uint256",
					"name": "",
					"type": "uint256"
				}
			],
			"stateMutability": "view",
			"type": "function"
		},
		{
			"inputs": [],
			"name": "token",
			"outputs": [
				{
					"internalType": "contract IBEP20",
					"name": "",
					"type": "address"
				}
			],
			"stateMutability": "view",
			"type": "function"
		},
		{
			"inputs": [
				{
					"internalType": "contract IBEP20",
					"name": "VRL",
					"type": "address"
				}
			],
			"name": "transferStuckBEP20",
			"outputs": [],
			"stateMutability": "nonpayable",
			"type": "function"
		},
		{
			"inputs": [],
			"name": "transferStuckBNB",
			"outputs": [],
			"stateMutability": "nonpayable",
			"type": "function"
		},
		{
			"inputs": [],
			"name": "unstake",
			"outputs": [],
			"stateMutability": "nonpayable",
			"type": "function"
		}
	]
}