{
	"data": {
		"bytecode": {
			"linkReferences": {},
			"object": "60a060405234801561000f575f80fd5b5060405161032038038061032083398101604081905261002e9161007d565b33608052425f55600180546001600160a01b039384166001600160a01b031991821617909155600280549290931691161790556100b5565b6001600160a01b038116811461007a575f80fd5b50565b5f806040838503121561008e575f80fd5b825161009981610066565b60208401519092506100aa81610066565b809150509250929050565b6080516102546100cc5f395f60ab01526102545ff3fe608060405234801561000f575f80fd5b5060043610610055575f3560e01c806349e687541461005957806355a373d6146100895780638d8f2adb1461009c5780638da5cb5b146100a6578063cf09e0d0146100cd575b5f80fd5b60025461006c906001600160a01b031681565b6040516001600160a01b0390911681526020015b60405180910390f35b60015461006c906001600160a01b031681565b6100a46100e3565b005b61006c7f000000000000000000000000000000000000000000000000000000000000000081565b6100d55f5481565b604051908152602001610080565b5f54690a968163f0a57b400000906100fc9060f06101d3565b421015610107575f80fd5b60015460025460405163a9059cbb60e01b81526001600160a01b03918216600482015260248101849052911690819063a9059cbb906044016020604051808303815f875af115801561015b573d5f803e3d5ffd5b505050506040513d601f19601f8201168201806040525081019061017f91906101f8565b50600154604080516001600160a01b03909216825233602083015281018390527fa04c965e7d289704527a948915777d68bb4530fb4b08aa935fb958c0b7901ab99060600160405180910390a15050425f55565b808201808211156101f257634e487b7160e01b5f52601160045260245ffd5b92915050565b5f60208284031215610208575f80fd5b81518015158114610217575f80fd5b939250505056fea264697066735822122047a48b424c86a84ccfaa13f260bb4f92b4bf53a8cfe8a67ec063210b079229e164736f6c63430008180033",
			"opcodes": "PUSH1 0xA0 PUSH1 0x40 MSTORE CALLVALUE DUP1 ISZERO PUSH2 0xF JUMPI PUSH0 DUP1 REVERT JUMPDEST POP PUSH1 0x40 MLOAD PUSH2 0x320 CODESIZE SUB DUP1 PUSH2 0x320 DUP4 CODECOPY DUP2 ADD PUSH1 0x40 DUP2 SWAP1 MSTORE PUSH2 0x2E SWAP2 PUSH2 0x7D JUMP JUMPDEST CALLER PUSH1 0x80 MSTORE TIMESTAMP PUSH0 SSTORE PUSH1 0x1 DUP1 SLOAD PUSH1 0x1 PUSH1 0x1 PUSH1 0xA0 SHL SUB SWAP4 DUP5 AND PUSH1 0x1 PUSH1 0x1 PUSH1 0xA0 SHL SUB NOT SWAP2 DUP3 AND OR SWAP1 SWAP2 SSTORE PUSH1 0x2 DUP1 SLOAD SWAP3 SWAP1 SWAP4 AND SWAP2 AND OR SWAP1 SSTORE PUSH2 0xB5 JUMP JUMPDEST PUSH1 0x1 PUSH1 0x1 PUSH1 0xA0 SHL SUB DUP2 AND DUP2 EQ PUSH2 0x7A JUMPI PUSH0 DUP1 REVERT JUMPDEST POP JUMP JUMPDEST PUSH0 DUP1 PUSH1 0x40 DUP4 DUP6 SUB SLT ISZERO PUSH2 0x8E JUMPI PUSH0 DUP1 REVERT JUMPDEST DUP3 MLOAD PUSH2 0x99 DUP2 PUSH2 0x66 JUMP JUMPDEST PUSH1 0x20 DUP5 ADD MLOAD SWAP1 SWAP3 POP PUSH2 0xAA DUP2 PUSH2 0x66 JUMP JUMPDEST DUP1 SWAP2 POP POP SWAP3 POP SWAP3 SWAP1 POP JUMP JUMPDEST PUSH1 0x80 MLOAD PUSH2 0x254 PUSH2 0xCC PUSH0 CODECOPY PUSH0 PUSH1 0xAB ADD MSTORE PUSH2 0x254 PUSH0 RETURN INVALID PUSH1 0x80 PUSH1 0x40 MSTORE CALLVALUE DUP1 ISZERO PUSH2 0xF JUMPI PUSH0 DUP1 REVERT JUMPDEST POP PUSH1 0x4 CALLDATASIZE LT PUSH2 0x55 JUMPI PUSH0 CALLDATALOAD PUSH1 0xE0 SHR DUP1 PUSH4 0x49E68754 EQ PUSH2 0x59 JUMPI DUP1 PUSH4 0x55A373D6 EQ PUSH2 0x89 JUMPI DUP1 PUSH4 0x8D8F2ADB EQ PUSH2 0x9C JUMPI DUP1 PUSH4 0x8DA5CB5B EQ PUSH2 0xA6 JUMPI DUP1 PUSH4 0xCF09E0D0 EQ PUSH2 0xCD JUMPI JUMPDEST PUSH0 DUP1 REVERT JUMPDEST PUSH1 0x2 SLOAD PUSH2 0x6C SWAP1 PUSH1 0x1 PUSH1 0x1 PUSH1 0xA0 SHL SUB AND DUP2 JUMP JUMPDEST PUSH1 0x40 MLOAD PUSH1 0x1 PUSH1 0x1 PUSH1 0xA0 SHL SUB SWAP1 SWAP2 AND DUP2 MSTORE PUSH1 0x20 ADD JUMPDEST PUSH1 0x40 MLOAD DUP1 SWAP2 SUB SWAP1 RETURN JUMPDEST PUSH1 0x1 SLOAD PUSH2 0x6C SWAP1 PUSH1 0x1 PUSH1 0x1 PUSH1 0xA0 SHL SUB AND DUP2 JUMP JUMPDEST PUSH2 0xA4 PUSH2 0xE3 JUMP JUMPDEST STOP JUMPDEST PUSH2 0x6C PUSH32 0x0 DUP2 JUMP JUMPDEST PUSH2 0xD5 PUSH0 SLOAD DUP2 JUMP JUMPDEST PUSH1 0x40 MLOAD SWAP1 DUP2 MSTORE PUSH1 0x20 ADD PUSH2 0x80 JUMP JUMPDEST PUSH0 SLOAD PUSH10 0xA968163F0A57B400000 SWAP1 PUSH2 0xFC SWAP1 PUSH1 0xF0 PUSH2 0x1D3 JUMP JUMPDEST TIMESTAMP LT ISZERO PUSH2 0x107 JUMPI PUSH0 DUP1 REVERT JUMPDEST PUSH1 0x1 SLOAD PUSH1 0x2 SLOAD PUSH1 0x40 MLOAD PUSH4 0xA9059CBB PUSH1 0xE0 SHL DUP2 MSTORE PUSH1 0x1 PUSH1 0x1 PUSH1 0xA0 SHL SUB SWAP2 DUP3 AND PUSH1 0x4 DUP3 ADD MSTORE PUSH1 0x24 DUP2 ADD DUP5 SWAP1 MSTORE SWAP2 AND SWAP1 DUP2 SWAP1 PUSH4 0xA9059CBB SWAP1 PUSH1 0x44 ADD PUSH1 0x20 PUSH1 0x40 MLOAD DUP1 DUP4 SUB DUP2 PUSH0 DUP8 GAS CALL ISZERO DUP1 ISZERO PUSH2 0x15B JUMPI RETURNDATASIZE PUSH0 DUP1 RETURNDATACOPY RETURNDATASIZE PUSH0 REVERT JUMPDEST POP POP POP POP PUSH1 0x40 MLOAD RETURNDATASIZE PUSH1 0x1F NOT PUSH1 0x1F DUP3 ADD AND DUP3 ADD DUP1 PUSH1 0x40 MSTORE POP DUP2 ADD SWAP1 PUSH2 0x17F SWAP2 SWAP1 PUSH2 0x1F8 JUMP JUMPDEST POP PUSH1 0x1 SLOAD PUSH1 0x40 DUP1 MLOAD PUSH1 0x1 PUSH1 0x1 PUSH1 0xA0 SHL SUB SWAP1 SWAP3 AND DUP3 MSTORE CALLER PUSH1 0x20 DUP4 ADD MSTORE DUP2 ADD DUP4 SWAP1 MSTORE PUSH32 0xA04C965E7D289704527A948915777D68BB4530FB4B08AA935FB958C0B7901AB9 SWAP1 PUSH1 0x60 ADD PUSH1 0x40 MLOAD DUP1 SWAP2 SUB SWAP1 LOG1 POP POP TIMESTAMP PUSH0 SSTORE JUMP JUMPDEST DUP1 DUP3 ADD DUP1 DUP3 GT ISZERO PUSH2 0x1F2 JUMPI PUSH4 0x4E487B71 PUSH1 0xE0 SHL PUSH0 MSTORE PUSH1 0x11 PUSH1 0x4 MSTORE PUSH1 0x24 PUSH0 REVERT JUMPDEST SWAP3 SWAP2 POP POP JUMP JUMPDEST PUSH0 PUSH1 0x20 DUP3 DUP5 SUB SLT ISZERO PUSH2 0x208 JUMPI PUSH0 DUP1 REVERT JUMPDEST DUP2 MLOAD DUP1 ISZERO ISZERO DUP2 EQ PUSH2 0x217 JUMPI PUSH0 DUP1 REVERT JUMPDEST SWAP4 SWAP3 POP POP POP JUMP INVALID LOG2 PUSH5 0x6970667358 0x22 SLT KECCAK256 SELFBALANCE LOG4 DUP12 TIMESTAMP 0x4C DUP7 0xA8 0x4C 0xCF 0xAA SGT CALLCODE PUSH1 0xBB 0x4F SWAP3 0xB4 0xBF MSTORE8 0xA8 0xCF 0xE8 0xA6 PUSH31 0xC063210B079229E164736F6C63430008180033000000000000000000000000 "
		},
		"gasEstimates": {
			"creation": {
				"codeDepositCost": "119200",
				"executionCost": "infinite",
				"totalCost": "infinite"
			},
			"external": {
				"createdAt()": "2359",
				"owner()": "infinite",
				"tokenContract()": "2325",
				"toppingContract()": "2303",
				"withdrawTokens()": "infinite"
			}
		},
		"methodIdentifiers": {
			"createdAt()": "cf09e0d0",
			"owner()": "8da5cb5b",
			"tokenContract()": "55a373d6",
			"toppingContract()": "49e68754",
			"withdrawTokens()": "8d8f2adb"
		}
	},
	"abi": [
		{
			"inputs": [
				{
					"internalType": "contract ERC20",
					"name": "_tokenContract",
					"type": "address"
				},
				{
					"internalType": "address",
					"name": "_toppingContract",
					"type": "address"
				}
			],
			"stateMutability": "nonpayable",
			"type": "constructor"
		},
		{
			"anonymous": false,
			"inputs": [
				{
					"indexed": false,
					"internalType": "address",
					"name": "from",
					"type": "address"
				},
				{
					"indexed": false,
					"internalType": "uint256",
					"name": "amount",
					"type": "uint256"
				}
			],
			"name": "Received",
			"type": "event"
		},
		{
			"anonymous": false,
			"inputs": [
				{
					"indexed": false,
					"internalType": "contract ERC20",
					"name": "tokenContract",
					"type": "address"
				},
				{
					"indexed": false,
					"internalType": "address",
					"name": "to",
					"type": "address"
				},
				{
					"indexed": false,
					"internalType": "uint256",
					"name": "amount",
					"type": "uint256"
				}
			],
			"name": "WithdrewTokens",
			"type": "event"
		},
		{
			"inputs": [],
			"name": "createdAt",
			"outputs": [
				{
					"internalType": "uint256",
					"name": "",
					"type": "uint256"
				}
			],
			"stateMutability": "view",
			"type": "function"
		},
		{
			"inputs": [],
			"name": "owner",
			"outputs": [
				{
					"internalType": "address payable",
					"name": "",
					"type": "address"
				}
			],
			"stateMutability": "view",
			"type": "function"
		},
		{
			"inputs": [],
			"name": "tokenContract",
			"outputs": [
				{
					"internalType": "contract ERC20",
					"name": "",
					"type": "address"
				}
			],
			"stateMutability": "view",
			"type": "function"
		},
		{
			"inputs": [],
			"name": "toppingContract",
			"outputs": [
				{
					"internalType": "address",
					"name": "",
					"type": "address"
				}
			],
			"stateMutability": "view",
			"type": "function"
		},
		{
			"inputs": [],
			"name": "withdrawTokens",
			"outputs": [],
			"stateMutability": "nonpayable",
			"type": "function"
		}
	]
}