{
	"data": {
		"bytecode": {
			"linkReferences": {},
			"object": "60a06040525f600455600980546001600160a01b0319163317905542600a55348015610029575f80fd5b50604051610f24380380610f2483398101604081905261004891610094565b6001600160a01b039283166080525f80549284166001600160a01b0319938416179055600880549190931691161790556100de565b6001600160a01b0381168114610091575f80fd5b50565b5f805f606084860312156100a6575f80fd5b83516100b18161007d565b60208501519093506100c28161007d565b60408501519092506100d38161007d565b809150509250925092565b608051610e046101205f395f81816101d0015281816102f501528181610421015281816104e7015281816106bd015281816108fe015261099b0152610e045ff3fe608060405234801561000f575f80fd5b5060043610610132575f3560e01c806392f851c1116100b4578063b77cf9c611610079578063b77cf9c614610248578063cad7ca4014610267578063f5ae497a1461026f578063f7e90d8f14610281578063fda7aff014610290578063fdf5963a14610299575f80fd5b806392f851c114610212578063a5ece9411461021a578063abee967c1461022d578063b2fd090114610236578063b343a0df1461023f575f80fd5b80634e71d92d116100fa5780634e71d92d1461019b57806366e305fd146101a55780636e90013d146101b85780637f581488146101cb578063823cc69d1461020a575f80fd5b806303e0a1e21461013657806306d2ad401461015157806309c21f2d1461018357806339ad74cd1461018b5780634618af4214610193575b5f80fd5b61013e6102a2565b6040519081526020015b60405180910390f35b61017361015f366004610c60565b60066020525f908152604090205460ff1681565b6040519015158152602001610148565b6101736102c0565b600a5461013e565b61013e6102de565b6101a3610366565b005b6101736101b3366004610c60565b6105a7565b6101a36101c6366004610c80565b6105c4565b6101f27f000000000000000000000000000000000000000000000000000000000000000081565b6040516001600160a01b039091168152602001610148565b610173610685565b6101a36106a6565b6008546101f2906001600160a01b031681565b61013e60015481565b61013e60025481565b61013e600a5481565b61013e610256366004610c60565b60056020525f908152604090205481565b60075461013e565b5f546101f2906001600160a01b031681565b61013e670de0b6b3a764000081565b61013e61016881565b61013e60075481565b335f908152600560205260408120546102bb9042610cbc565b905090565b5f6101686102cd600a5490565b6102d79042610cbc565b1015905090565b6040516370a0823160e01b81523060048201525f907f00000000000000000000000000000000000000000000000000000000000000006001600160a01b0316906370a0823190602401602060405180830381865afa158015610342573d5f803e3d5ffd5b505050506040513d601f19601f820116820180604052508101906102bb9190610cd5565b61036f336105a7565b6103b85760405162461bcd60e51b81526020600482015260156024820152744e6f7420656c696769626c6520746f20636c61696d60581b60448201526064015b60405180910390fd5b6103c0610685565b61040c5760405162461bcd60e51b815260206004820152601d60248201527f43616e206f6e6c7920636c61696d20616674657220323420686f75727300000060448201526064016103af565b6040516370a0823160e01b81523060048201527f00000000000000000000000000000000000000000000000000000000000000006001600160a01b0316906370a0823190602401602060405180830381865afa15801561046e573d5f803e3d5ffd5b505050506040513d601f19601f820116820180604052508101906104929190610cd5565b6002555f61049e610808565b335f9081526005602052604081204290556002805492935083929091906104c6908490610cbc565b909155505060405163a9059cbb60e01b8152336004820152602481018290527f00000000000000000000000000000000000000000000000000000000000000006001600160a01b03169063a9059cbb906044016020604051808303815f875af1158015610535573d5f803e3d5ffd5b505050506040513d601f19601f820116820180604052508101906105599190610cec565b5060405181815233907f47cee97cb7acd717b3c0aa1435d004cd5b3c8c57d70dbceb4e4458bbd60e39d49060200160405180910390a26105976102c0565b156105a4576105a46108e7565b50565b5f806105b283610a3f565b670de0b6b3a764000011159392505050565b6009546001600160a01b0316331461060c5760405162461bcd60e51b815260206004820152600b60248201526a1b9bdd08105b1b1bddd95960aa1b60448201526064016103af565b60095460405163a9059cbb60e01b81526001600160a01b039182166004820152602481018390529083169063a9059cbb906044016020604051808303815f875af115801561065c573d5f803e3d5ffd5b505050506040513d601f19601f820116820180604052508101906106809190610cec565b505050565b335f9081526005602052604081205461069f90603c610d0b565b4211905090565b6040516370a0823160e01b81523360048201525f907f00000000000000000000000000000000000000000000000000000000000000006001600160a01b0316906370a0823190602401602060405180830381865afa15801561070a573d5f803e3d5ffd5b505050506040513d601f19601f8201168201806040525081019061072e9190610cd5565b1161076b5760405162461bcd60e51b815260206004820152600d60248201526c5a65726f20486f6c64696e677360981b60448201526064016103af565b335f9081526006602052604090205460ff16156107d95760405162461bcd60e51b815260206004820152602660248201527f596f75206861766520616c7265616479206170706c69656420666f72207265646044820152653ab1ba34b7b760d11b60648201526084016103af565b60078054905f6107e883610d1e565b9091555050335f908152600660205260409020805460ff19166001179055565b5f6004545f0361089857600261081d60075490565b10156108365769010f0cf064dd59200000600155610898565b600261084160075490565b106108585768878678326eac900000600155610898565b600461086360075490565b1061087a576843c33c193756480000600155610898565b600661088560075490565b10610898576828a857425466f800006001555b5f606460035460646108aa9190610cbc565b6001546108b79190610d36565b6108c19190610d4d565b6001819055600a600355600480549192505f6108dc83610d1e565b909155509092915050565b6040516370a0823160e01b81523060048201525f907f00000000000000000000000000000000000000000000000000000000000000006001600160a01b0316906370a0823190602401602060405180830381865afa15801561094b573d5f803e3d5ffd5b505050506040513d601f19601f8201168201806040525081019061096f9190610cd5565b60085460405163a9059cbb60e01b81526001600160a01b039182166004820152602481018390529192507f0000000000000000000000000000000000000000000000000000000000000000169063a9059cbb906044016020604051808303815f875af11580156109e1573d5f803e3d5ffd5b505050506040513d601f19601f82011682018060405250810190610a059190610cec565b5042600a555f600381905560048190556040517f6423db340205c829eeb91151b1c5d1dc6d7a2b8708b1621494e89ba90c87081e9190a150565b5f80546001600160a01b0316610a975760405162461bcd60e51b815260206004820152601c60248201527f556e697377617020706f6f6c2061646472657373206e6f74207365740000000060448201526064016103af565b5f80546040516370a0823160e01b81526001600160a01b038581166004830152909116906370a0823190602401602060405180830381865afa158015610adf573d5f803e3d5ffd5b505050506040513d601f19601f82011682018060405250810190610b039190610cd5565b90505f805f9054906101000a90046001600160a01b03166001600160a01b03166318160ddd6040518163ffffffff1660e01b8152600401602060405180830381865afa158015610b55573d5f803e3d5ffd5b505050506040513d601f19601f82011682018060405250810190610b799190610cd5565b90505f805f9054906101000a90046001600160a01b03166001600160a01b0316630902f1ac6040518163ffffffff1660e01b8152600401606060405180830381865afa158015610bcb573d5f803e3d5ffd5b505050506040513d601f19601f82011682018060405250810190610bef9190610d82565b50506001600160701b031690505f82610c1085670de0b6b3a7640000610d36565b610c1a9190610d4d565b90505f670de0b6b3a7640000610c308484610d36565b610c3a9190610d4d565b979650505050505050565b80356001600160a01b0381168114610c5b575f80fd5b919050565b5f60208284031215610c70575f80fd5b610c7982610c45565b9392505050565b5f8060408385031215610c91575f80fd5b610c9a83610c45565b946020939093013593505050565b634e487b7160e01b5f52601160045260245ffd5b81810381811115610ccf57610ccf610ca8565b92915050565b5f60208284031215610ce5575f80fd5b5051919050565b5f60208284031215610cfc575f80fd5b81518015158114610c79575f80fd5b80820180821115610ccf57610ccf610ca8565b5f60018201610d2f57610d2f610ca8565b5060010190565b8082028115828204841417610ccf57610ccf610ca8565b5f82610d6757634e487b7160e01b5f52601260045260245ffd5b500490565b80516001600160701b0381168114610c5b575f80fd5b5f805f60608486031215610d94575f80fd5b610d9d84610d6c565b9250610dab60208501610d6c565b9150604084015163ffffffff81168114610dc3575f80fd5b80915050925092509256fea26469706673582212209b586f21ad703c2cf801eeb9369125393ebdb5e316e7aa3751c444c7c900d8af64736f6c63430008180033",
			"opcodes": "PUSH1 0xA0 PUSH1 0x40 MSTORE PUSH0 PUSH1 0x4 SSTORE PUSH1 0x9 DUP1 SLOAD PUSH1 0x1 PUSH1 0x1 PUSH1 0xA0 SHL SUB NOT AND CALLER OR SWAP1 SSTORE TIMESTAMP PUSH1 0xA SSTORE CALLVALUE DUP1 ISZERO PUSH2 0x29 JUMPI PUSH0 DUP1 REVERT JUMPDEST POP PUSH1 0x40 MLOAD PUSH2 0xF24 CODESIZE SUB DUP1 PUSH2 0xF24 DUP4 CODECOPY DUP2 ADD PUSH1 0x40 DUP2 SWAP1 MSTORE PUSH2 0x48 SWAP2 PUSH2 0x94 JUMP JUMPDEST PUSH1 0x1 PUSH1 0x1 PUSH1 0xA0 SHL SUB SWAP3 DUP4 AND PUSH1 0x80 MSTORE PUSH0 DUP1 SLOAD SWAP3 DUP5 AND PUSH1 0x1 PUSH1 0x1 PUSH1 0xA0 SHL SUB NOT SWAP4 DUP5 AND OR SWAP1 SSTORE PUSH1 0x8 DUP1 SLOAD SWAP2 SWAP1 SWAP4 AND SWAP2 AND OR SWAP1 SSTORE PUSH2 0xDE JUMP JUMPDEST PUSH1 0x1 PUSH1 0x1 PUSH1 0xA0 SHL SUB DUP2 AND DUP2 EQ PUSH2 0x91 JUMPI PUSH0 DUP1 REVERT JUMPDEST POP JUMP JUMPDEST PUSH0 DUP1 PUSH0 PUSH1 0x60 DUP5 DUP7 SUB SLT ISZERO PUSH2 0xA6 JUMPI PUSH0 DUP1 REVERT JUMPDEST DUP4 MLOAD PUSH2 0xB1 DUP2 PUSH2 0x7D JUMP JUMPDEST PUSH1 0x20 DUP6 ADD MLOAD SWAP1 SWAP4 POP PUSH2 0xC2 DUP2 PUSH2 0x7D JUMP JUMPDEST PUSH1 0x40 DUP6 ADD MLOAD SWAP1 SWAP3 POP PUSH2 0xD3 DUP2 PUSH2 0x7D JUMP JUMPDEST DUP1 SWAP2 POP POP SWAP3 POP SWAP3 POP SWAP3 JUMP JUMPDEST PUSH1 0x80 MLOAD PUSH2 0xE04 PUSH2 0x120 PUSH0 CODECOPY PUSH0 DUP2 DUP2 PUSH2 0x1D0 ADD MSTORE DUP2 DUP2 PUSH2 0x2F5 ADD MSTORE DUP2 DUP2 PUSH2 0x421 ADD MSTORE DUP2 DUP2 PUSH2 0x4E7 ADD MSTORE DUP2 DUP2 PUSH2 0x6BD ADD MSTORE DUP2 DUP2 PUSH2 0x8FE ADD MSTORE PUSH2 0x99B ADD MSTORE PUSH2 0xE04 PUSH0 RETURN INVALID PUSH1 0x80 PUSH1 0x40 MSTORE CALLVALUE DUP1 ISZERO PUSH2 0xF JUMPI PUSH0 DUP1 REVERT JUMPDEST POP PUSH1 0x4 CALLDATASIZE LT PUSH2 0x132 JUMPI PUSH0 CALLDATALOAD PUSH1 0xE0 SHR DUP1 PUSH4 0x92F851C1 GT PUSH2 0xB4 JUMPI DUP1 PUSH4 0xB77CF9C6 GT PUSH2 0x79 JUMPI DUP1 PUSH4 0xB77CF9C6 EQ PUSH2 0x248 JUMPI DUP1 PUSH4 0xCAD7CA40 EQ PUSH2 0x267 JUMPI DUP1 PUSH4 0xF5AE497A EQ PUSH2 0x26F JUMPI DUP1 PUSH4 0xF7E90D8F EQ PUSH2 0x281 JUMPI DUP1 PUSH4 0xFDA7AFF0 EQ PUSH2 0x290 JUMPI DUP1 PUSH4 0xFDF5963A EQ PUSH2 0x299 JUMPI PUSH0 DUP1 REVERT JUMPDEST DUP1 PUSH4 0x92F851C1 EQ PUSH2 0x212 JUMPI DUP1 PUSH4 0xA5ECE941 EQ PUSH2 0x21A JUMPI DUP1 PUSH4 0xABEE967C EQ PUSH2 0x22D JUMPI DUP1 PUSH4 0xB2FD0901 EQ PUSH2 0x236 JUMPI DUP1 PUSH4 0xB343A0DF EQ PUSH2 0x23F JUMPI PUSH0 DUP1 REVERT JUMPDEST DUP1 PUSH4 0x4E71D92D GT PUSH2 0xFA JUMPI DUP1 PUSH4 0x4E71D92D EQ PUSH2 0x19B JUMPI DUP1 PUSH4 0x66E305FD EQ PUSH2 0x1A5 JUMPI DUP1 PUSH4 0x6E90013D EQ PUSH2 0x1B8 JUMPI DUP1 PUSH4 0x7F581488 EQ PUSH2 0x1CB JUMPI DUP1 PUSH4 0x823CC69D EQ PUSH2 0x20A JUMPI PUSH0 DUP1 REVERT JUMPDEST DUP1 PUSH4 0x3E0A1E2 EQ PUSH2 0x136 JUMPI DUP1 PUSH4 0x6D2AD40 EQ PUSH2 0x151 JUMPI DUP1 PUSH4 0x9C21F2D EQ PUSH2 0x183 JUMPI DUP1 PUSH4 0x39AD74CD EQ PUSH2 0x18B JUMPI DUP1 PUSH4 0x4618AF42 EQ PUSH2 0x193 JUMPI JUMPDEST PUSH0 DUP1 REVERT JUMPDEST PUSH2 0x13E PUSH2 0x2A2 JUMP JUMPDEST PUSH1 0x40 MLOAD SWAP1 DUP2 MSTORE PUSH1 0x20 ADD JUMPDEST PUSH1 0x40 MLOAD DUP1 SWAP2 SUB SWAP1 RETURN JUMPDEST PUSH2 0x173 PUSH2 0x15F CALLDATASIZE PUSH1 0x4 PUSH2 0xC60 JUMP JUMPDEST PUSH1 0x6 PUSH1 0x20 MSTORE PUSH0 SWAP1 DUP2 MSTORE PUSH1 0x40 SWAP1 KECCAK256 SLOAD PUSH1 0xFF AND DUP2 JUMP JUMPDEST PUSH1 0x40 MLOAD SWAP1 ISZERO ISZERO DUP2 MSTORE PUSH1 0x20 ADD PUSH2 0x148 JUMP JUMPDEST PUSH2 0x173 PUSH2 0x2C0 JUMP JUMPDEST PUSH1 0xA SLOAD PUSH2 0x13E JUMP JUMPDEST PUSH2 0x13E PUSH2 0x2DE JUMP JUMPDEST PUSH2 0x1A3 PUSH2 0x366 JUMP JUMPDEST STOP JUMPDEST PUSH2 0x173 PUSH2 0x1B3 CALLDATASIZE PUSH1 0x4 PUSH2 0xC60 JUMP JUMPDEST PUSH2 0x5A7 JUMP JUMPDEST PUSH2 0x1A3 PUSH2 0x1C6 CALLDATASIZE PUSH1 0x4 PUSH2 0xC80 JUMP JUMPDEST PUSH2 0x5C4 JUMP JUMPDEST PUSH2 0x1F2 PUSH32 0x0 DUP2 JUMP JUMPDEST PUSH1 0x40 MLOAD PUSH1 0x1 PUSH1 0x1 PUSH1 0xA0 SHL SUB SWAP1 SWAP2 AND DUP2 MSTORE PUSH1 0x20 ADD PUSH2 0x148 JUMP JUMPDEST PUSH2 0x173 PUSH2 0x685 JUMP JUMPDEST PUSH2 0x1A3 PUSH2 0x6A6 JUMP JUMPDEST PUSH1 0x8 SLOAD PUSH2 0x1F2 SWAP1 PUSH1 0x1 PUSH1 0x1 PUSH1 0xA0 SHL SUB AND DUP2 JUMP JUMPDEST PUSH2 0x13E PUSH1 0x1 SLOAD DUP2 JUMP JUMPDEST PUSH2 0x13E PUSH1 0x2 SLOAD DUP2 JUMP JUMPDEST PUSH2 0x13E PUSH1 0xA SLOAD DUP2 JUMP JUMPDEST PUSH2 0x13E PUSH2 0x256 CALLDATASIZE PUSH1 0x4 PUSH2 0xC60 JUMP JUMPDEST PUSH1 0x5 PUSH1 0x20 MSTORE PUSH0 SWAP1 DUP2 MSTORE PUSH1 0x40 SWAP1 KECCAK256 SLOAD DUP2 JUMP JUMPDEST PUSH1 0x7 SLOAD PUSH2 0x13E JUMP JUMPDEST PUSH0 SLOAD PUSH2 0x1F2 SWAP1 PUSH1 0x1 PUSH1 0x1 PUSH1 0xA0 SHL SUB AND DUP2 JUMP JUMPDEST PUSH2 0x13E PUSH8 0xDE0B6B3A7640000 DUP2 JUMP JUMPDEST PUSH2 0x13E PUSH2 0x168 DUP2 JUMP JUMPDEST PUSH2 0x13E PUSH1 0x7 SLOAD DUP2 JUMP JUMPDEST CALLER PUSH0 SWAP1 DUP2 MSTORE PUSH1 0x5 PUSH1 0x20 MSTORE PUSH1 0x40 DUP2 KECCAK256 SLOAD PUSH2 0x2BB SWAP1 TIMESTAMP PUSH2 0xCBC JUMP JUMPDEST SWAP1 POP SWAP1 JUMP JUMPDEST PUSH0 PUSH2 0x168 PUSH2 0x2CD PUSH1 0xA SLOAD SWAP1 JUMP JUMPDEST PUSH2 0x2D7 SWAP1 TIMESTAMP PUSH2 0xCBC JUMP JUMPDEST LT ISZERO SWAP1 POP SWAP1 JUMP JUMPDEST PUSH1 0x40 MLOAD PUSH4 0x70A08231 PUSH1 0xE0 SHL DUP2 MSTORE ADDRESS PUSH1 0x4 DUP3 ADD MSTORE PUSH0 SWAP1 PUSH32 0x0 PUSH1 0x1 PUSH1 0x1 PUSH1 0xA0 SHL SUB AND SWAP1 PUSH4 0x70A08231 SWAP1 PUSH1 0x24 ADD PUSH1 0x20 PUSH1 0x40 MLOAD DUP1 DUP4 SUB DUP2 DUP7 GAS STATICCALL ISZERO DUP1 ISZERO PUSH2 0x342 JUMPI RETURNDATASIZE PUSH0 DUP1 RETURNDATACOPY RETURNDATASIZE PUSH0 REVERT JUMPDEST POP POP POP POP PUSH1 0x40 MLOAD RETURNDATASIZE PUSH1 0x1F NOT PUSH1 0x1F DUP3 ADD AND DUP3 ADD DUP1 PUSH1 0x40 MSTORE POP DUP2 ADD SWAP1 PUSH2 0x2BB SWAP2 SWAP1 PUSH2 0xCD5 JUMP JUMPDEST PUSH2 0x36F CALLER PUSH2 0x5A7 JUMP JUMPDEST PUSH2 0x3B8 JUMPI PUSH1 0x40 MLOAD PUSH3 0x461BCD PUSH1 0xE5 SHL DUP2 MSTORE PUSH1 0x20 PUSH1 0x4 DUP3 ADD MSTORE PUSH1 0x15 PUSH1 0x24 DUP3 ADD MSTORE PUSH21 0x4E6F7420656C696769626C6520746F20636C61696D PUSH1 0x58 SHL PUSH1 0x44 DUP3 ADD MSTORE PUSH1 0x64 ADD JUMPDEST PUSH1 0x40 MLOAD DUP1 SWAP2 SUB SWAP1 REVERT JUMPDEST PUSH2 0x3C0 PUSH2 0x685 JUMP JUMPDEST PUSH2 0x40C JUMPI PUSH1 0x40 MLOAD PUSH3 0x461BCD PUSH1 0xE5 SHL DUP2 MSTORE PUSH1 0x20 PUSH1 0x4 DUP3 ADD MSTORE PUSH1 0x1D PUSH1 0x24 DUP3 ADD MSTORE PUSH32 0x43616E206F6E6C7920636C61696D20616674657220323420686F757273000000 PUSH1 0x44 DUP3 ADD MSTORE PUSH1 0x64 ADD PUSH2 0x3AF JUMP JUMPDEST PUSH1 0x40 MLOAD PUSH4 0x70A08231 PUSH1 0xE0 SHL DUP2 MSTORE ADDRESS PUSH1 0x4 DUP3 ADD MSTORE PUSH32 0x0 PUSH1 0x1 PUSH1 0x1 PUSH1 0xA0 SHL SUB AND SWAP1 PUSH4 0x70A08231 SWAP1 PUSH1 0x24 ADD PUSH1 0x20 PUSH1 0x40 MLOAD DUP1 DUP4 SUB DUP2 DUP7 GAS STATICCALL ISZERO DUP1 ISZERO PUSH2 0x46E JUMPI RETURNDATASIZE PUSH0 DUP1 RETURNDATACOPY RETURNDATASIZE PUSH0 REVERT JUMPDEST POP POP POP POP PUSH1 0x40 MLOAD RETURNDATASIZE PUSH1 0x1F NOT PUSH1 0x1F DUP3 ADD AND DUP3 ADD DUP1 PUSH1 0x40 MSTORE POP DUP2 ADD SWAP1 PUSH2 0x492 SWAP2 SWAP1 PUSH2 0xCD5 JUMP JUMPDEST PUSH1 0x2 SSTORE PUSH0 PUSH2 0x49E PUSH2 0x808 JUMP JUMPDEST CALLER PUSH0 SWAP1 DUP2 MSTORE PUSH1 0x5 PUSH1 0x20 MSTORE PUSH1 0x40 DUP2 KECCAK256 TIMESTAMP SWAP1 SSTORE PUSH1 0x2 DUP1 SLOAD SWAP3 SWAP4 POP DUP4 SWAP3 SWAP1 SWAP2 SWAP1 PUSH2 0x4C6 SWAP1 DUP5 SWAP1 PUSH2 0xCBC JUMP JUMPDEST SWAP1 SWAP2 SSTORE POP POP PUSH1 0x40 MLOAD PUSH4 0xA9059CBB PUSH1 0xE0 SHL DUP2 MSTORE CALLER PUSH1 0x4 DUP3 ADD MSTORE PUSH1 0x24 DUP2 ADD DUP3 SWAP1 MSTORE PUSH32 0x0 PUSH1 0x1 PUSH1 0x1 PUSH1 0xA0 SHL SUB AND SWAP1 PUSH4 0xA9059CBB SWAP1 PUSH1 0x44 ADD PUSH1 0x20 PUSH1 0x40 MLOAD DUP1 DUP4 SUB DUP2 PUSH0 DUP8 GAS CALL ISZERO DUP1 ISZERO PUSH2 0x535 JUMPI RETURNDATASIZE PUSH0 DUP1 RETURNDATACOPY RETURNDATASIZE PUSH0 REVERT JUMPDEST POP POP POP POP PUSH1 0x40 MLOAD RETURNDATASIZE PUSH1 0x1F NOT PUSH1 0x1F DUP3 ADD AND DUP3 ADD DUP1 PUSH1 0x40 MSTORE POP DUP2 ADD SWAP1 PUSH2 0x559 SWAP2 SWAP1 PUSH2 0xCEC JUMP JUMPDEST POP PUSH1 0x40 MLOAD DUP2 DUP2 MSTORE CALLER SWAP1 PUSH32 0x47CEE97CB7ACD717B3C0AA1435D004CD5B3C8C57D70DBCEB4E4458BBD60E39D4 SWAP1 PUSH1 0x20 ADD PUSH1 0x40 MLOAD DUP1 SWAP2 SUB SWAP1 LOG2 PUSH2 0x597 PUSH2 0x2C0 JUMP JUMPDEST ISZERO PUSH2 0x5A4 JUMPI PUSH2 0x5A4 PUSH2 0x8E7 JUMP JUMPDEST POP JUMP JUMPDEST PUSH0 DUP1 PUSH2 0x5B2 DUP4 PUSH2 0xA3F JUMP JUMPDEST PUSH8 0xDE0B6B3A7640000 GT ISZERO SWAP4 SWAP3 POP POP POP JUMP JUMPDEST PUSH1 0x9 SLOAD PUSH1 0x1 PUSH1 0x1 PUSH1 0xA0 SHL SUB AND CALLER EQ PUSH2 0x60C JUMPI PUSH1 0x40 MLOAD PUSH3 0x461BCD PUSH1 0xE5 SHL DUP2 MSTORE PUSH1 0x20 PUSH1 0x4 DUP3 ADD MSTORE PUSH1 0xB PUSH1 0x24 DUP3 ADD MSTORE PUSH11 0x1B9BDD08105B1B1BDDD959 PUSH1 0xAA SHL PUSH1 0x44 DUP3 ADD MSTORE PUSH1 0x64 ADD PUSH2 0x3AF JUMP JUMPDEST PUSH1 0x9 SLOAD PUSH1 0x40 MLOAD PUSH4 0xA9059CBB PUSH1 0xE0 SHL DUP2 MSTORE PUSH1 0x1 PUSH1 0x1 PUSH1 0xA0 SHL SUB SWAP2 DUP3 AND PUSH1 0x4 DUP3 ADD MSTORE PUSH1 0x24 DUP2 ADD DUP4 SWAP1 MSTORE SWAP1 DUP4 AND SWAP1 PUSH4 0xA9059CBB SWAP1 PUSH1 0x44 ADD PUSH1 0x20 PUSH1 0x40 MLOAD DUP1 DUP4 SUB DUP2 PUSH0 DUP8 GAS CALL ISZERO DUP1 ISZERO PUSH2 0x65C JUMPI RETURNDATASIZE PUSH0 DUP1 RETURNDATACOPY RETURNDATASIZE PUSH0 REVERT JUMPDEST POP POP POP POP PUSH1 0x40 MLOAD RETURNDATASIZE PUSH1 0x1F NOT PUSH1 0x1F DUP3 ADD AND DUP3 ADD DUP1 PUSH1 0x40 MSTORE POP DUP2 ADD SWAP1 PUSH2 0x680 SWAP2 SWAP1 PUSH2 0xCEC JUMP JUMPDEST POP POP POP JUMP JUMPDEST CALLER PUSH0 SWAP1 DUP2 MSTORE PUSH1 0x5 PUSH1 0x20 MSTORE PUSH1 0x40 DUP2 KECCAK256 SLOAD PUSH2 0x69F SWAP1 PUSH1 0x3C PUSH2 0xD0B JUMP JUMPDEST TIMESTAMP GT SWAP1 POP SWAP1 JUMP JUMPDEST PUSH1 0x40 MLOAD PUSH4 0x70A08231 PUSH1 0xE0 SHL DUP2 MSTORE CALLER PUSH1 0x4 DUP3 ADD MSTORE PUSH0 SWAP1 PUSH32 0x0 PUSH1 0x1 PUSH1 0x1 PUSH1 0xA0 SHL SUB AND SWAP1 PUSH4 0x70A08231 SWAP1 PUSH1 0x24 ADD PUSH1 0x20 PUSH1 0x40 MLOAD DUP1 DUP4 SUB DUP2 DUP7 GAS STATICCALL ISZERO DUP1 ISZERO PUSH2 0x70A JUMPI RETURNDATASIZE PUSH0 DUP1 RETURNDATACOPY RETURNDATASIZE PUSH0 REVERT JUMPDEST POP POP POP POP PUSH1 0x40 MLOAD RETURNDATASIZE PUSH1 0x1F NOT PUSH1 0x1F DUP3 ADD AND DUP3 ADD DUP1 PUSH1 0x40 MSTORE POP DUP2 ADD SWAP1 PUSH2 0x72E SWAP2 SWAP1 PUSH2 0xCD5 JUMP JUMPDEST GT PUSH2 0x76B JUMPI PUSH1 0x40 MLOAD PUSH3 0x461BCD PUSH1 0xE5 SHL DUP2 MSTORE PUSH1 0x20 PUSH1 0x4 DUP3 ADD MSTORE PUSH1 0xD PUSH1 0x24 DUP3 ADD MSTORE PUSH13 0x5A65726F20486F6C64696E6773 PUSH1 0x98 SHL PUSH1 0x44 DUP3 ADD MSTORE PUSH1 0x64 ADD PUSH2 0x3AF JUMP JUMPDEST CALLER PUSH0 SWAP1 DUP2 MSTORE PUSH1 0x6 PUSH1 0x20 MSTORE PUSH1 0x40 SWAP1 KECCAK256 SLOAD PUSH1 0xFF AND ISZERO PUSH2 0x7D9 JUMPI PUSH1 0x40 MLOAD PUSH3 0x461BCD PUSH1 0xE5 SHL DUP2 MSTORE PUSH1 0x20 PUSH1 0x4 DUP3 ADD MSTORE PUSH1 0x26 PUSH1 0x24 DUP3 ADD MSTORE PUSH32 0x596F75206861766520616C7265616479206170706C69656420666F7220726564 PUSH1 0x44 DUP3 ADD MSTORE PUSH6 0x3AB1BA34B7B7 PUSH1 0xD1 SHL PUSH1 0x64 DUP3 ADD MSTORE PUSH1 0x84 ADD PUSH2 0x3AF JUMP JUMPDEST PUSH1 0x7 DUP1 SLOAD SWAP1 PUSH0 PUSH2 0x7E8 DUP4 PUSH2 0xD1E JUMP JUMPDEST SWAP1 SWAP2 SSTORE POP POP CALLER PUSH0 SWAP1 DUP2 MSTORE PUSH1 0x6 PUSH1 0x20 MSTORE PUSH1 0x40 SWAP1 KECCAK256 DUP1 SLOAD PUSH1 0xFF NOT AND PUSH1 0x1 OR SWAP1 SSTORE JUMP JUMPDEST PUSH0 PUSH1 0x4 SLOAD PUSH0 SUB PUSH2 0x898 JUMPI PUSH1 0x2 PUSH2 0x81D PUSH1 0x7 SLOAD SWAP1 JUMP JUMPDEST LT ISZERO PUSH2 0x836 JUMPI PUSH10 0x10F0CF064DD59200000 PUSH1 0x1 SSTORE PUSH2 0x898 JUMP JUMPDEST PUSH1 0x2 PUSH2 0x841 PUSH1 0x7 SLOAD SWAP1 JUMP JUMPDEST LT PUSH2 0x858 JUMPI PUSH9 0x878678326EAC900000 PUSH1 0x1 SSTORE PUSH2 0x898 JUMP JUMPDEST PUSH1 0x4 PUSH2 0x863 PUSH1 0x7 SLOAD SWAP1 JUMP JUMPDEST LT PUSH2 0x87A JUMPI PUSH9 0x43C33C193756480000 PUSH1 0x1 SSTORE PUSH2 0x898 JUMP JUMPDEST PUSH1 0x6 PUSH2 0x885 PUSH1 0x7 SLOAD SWAP1 JUMP JUMPDEST LT PUSH2 0x898 JUMPI PUSH9 0x28A857425466F80000 PUSH1 0x1 SSTORE JUMPDEST PUSH0 PUSH1 0x64 PUSH1 0x3 SLOAD PUSH1 0x64 PUSH2 0x8AA SWAP2 SWAP1 PUSH2 0xCBC JUMP JUMPDEST PUSH1 0x1 SLOAD PUSH2 0x8B7 SWAP2 SWAP1 PUSH2 0xD36 JUMP JUMPDEST PUSH2 0x8C1 SWAP2 SWAP1 PUSH2 0xD4D JUMP JUMPDEST PUSH1 0x1 DUP2 SWAP1 SSTORE PUSH1 0xA PUSH1 0x3 SSTORE PUSH1 0x4 DUP1 SLOAD SWAP2 SWAP3 POP PUSH0 PUSH2 0x8DC DUP4 PUSH2 0xD1E JUMP JUMPDEST SWAP1 SWAP2 SSTORE POP SWAP1 SWAP3 SWAP2 POP POP JUMP JUMPDEST PUSH1 0x40 MLOAD PUSH4 0x70A08231 PUSH1 0xE0 SHL DUP2 MSTORE ADDRESS PUSH1 0x4 DUP3 ADD MSTORE PUSH0 SWAP1 PUSH32 0x0 PUSH1 0x1 PUSH1 0x1 PUSH1 0xA0 SHL SUB AND SWAP1 PUSH4 0x70A08231 SWAP1 PUSH1 0x24 ADD PUSH1 0x20 PUSH1 0x40 MLOAD DUP1 DUP4 SUB DUP2 DUP7 GAS STATICCALL ISZERO DUP1 ISZERO PUSH2 0x94B JUMPI RETURNDATASIZE PUSH0 DUP1 RETURNDATACOPY RETURNDATASIZE PUSH0 REVERT JUMPDEST POP POP POP POP PUSH1 0x40 MLOAD RETURNDATASIZE PUSH1 0x1F NOT PUSH1 0x1F DUP3 ADD AND DUP3 ADD DUP1 PUSH1 0x40 MSTORE POP DUP2 ADD SWAP1 PUSH2 0x96F SWAP2 SWAP1 PUSH2 0xCD5 JUMP JUMPDEST PUSH1 0x8 SLOAD PUSH1 0x40 MLOAD PUSH4 0xA9059CBB PUSH1 0xE0 SHL DUP2 MSTORE PUSH1 0x1 PUSH1 0x1 PUSH1 0xA0 SHL SUB SWAP2 DUP3 AND PUSH1 0x4 DUP3 ADD MSTORE PUSH1 0x24 DUP2 ADD DUP4 SWAP1 MSTORE SWAP2 SWAP3 POP PUSH32 0x0 AND SWAP1 PUSH4 0xA9059CBB SWAP1 PUSH1 0x44 ADD PUSH1 0x20 PUSH1 0x40 MLOAD DUP1 DUP4 SUB DUP2 PUSH0 DUP8 GAS CALL ISZERO DUP1 ISZERO PUSH2 0x9E1 JUMPI RETURNDATASIZE PUSH0 DUP1 RETURNDATACOPY RETURNDATASIZE PUSH0 REVERT JUMPDEST POP POP POP POP PUSH1 0x40 MLOAD RETURNDATASIZE PUSH1 0x1F NOT PUSH1 0x1F DUP3 ADD AND DUP3 ADD DUP1 PUSH1 0x40 MSTORE POP DUP2 ADD SWAP1 PUSH2 0xA05 SWAP2 SWAP1 PUSH2 0xCEC JUMP JUMPDEST POP TIMESTAMP PUSH1 0xA SSTORE PUSH0 PUSH1 0x3 DUP2 SWAP1 SSTORE PUSH1 0x4 DUP2 SWAP1 SSTORE PUSH1 0x40 MLOAD PUSH32 0x6423DB340205C829EEB91151B1C5D1DC6D7A2B8708B1621494E89BA90C87081E SWAP2 SWAP1 LOG1 POP JUMP JUMPDEST PUSH0 DUP1 SLOAD PUSH1 0x1 PUSH1 0x1 PUSH1 0xA0 SHL SUB AND PUSH2 0xA97 JUMPI PUSH1 0x40 MLOAD PUSH3 0x461BCD PUSH1 0xE5 SHL DUP2 MSTORE PUSH1 0x20 PUSH1 0x4 DUP3 ADD MSTORE PUSH1 0x1C PUSH1 0x24 DUP3 ADD MSTORE PUSH32 0x556E697377617020706F6F6C2061646472657373206E6F742073657400000000 PUSH1 0x44 DUP3 ADD MSTORE PUSH1 0x64 ADD PUSH2 0x3AF JUMP JUMPDEST PUSH0 DUP1 SLOAD PUSH1 0x40 MLOAD PUSH4 0x70A08231 PUSH1 0xE0 SHL DUP2 MSTORE PUSH1 0x1 PUSH1 0x1 PUSH1 0xA0 SHL SUB DUP6 DUP2 AND PUSH1 0x4 DUP4 ADD MSTORE SWAP1 SWAP2 AND SWAP1 PUSH4 0x70A08231 SWAP1 PUSH1 0x24 ADD PUSH1 0x20 PUSH1 0x40 MLOAD DUP1 DUP4 SUB DUP2 DUP7 GAS STATICCALL ISZERO DUP1 ISZERO PUSH2 0xADF JUMPI RETURNDATASIZE PUSH0 DUP1 RETURNDATACOPY RETURNDATASIZE PUSH0 REVERT JUMPDEST POP POP POP POP PUSH1 0x40 MLOAD RETURNDATASIZE PUSH1 0x1F NOT PUSH1 0x1F DUP3 ADD AND DUP3 ADD DUP1 PUSH1 0x40 MSTORE POP DUP2 ADD SWAP1 PUSH2 0xB03 SWAP2 SWAP1 PUSH2 0xCD5 JUMP JUMPDEST SWAP1 POP PUSH0 DUP1 PUSH0 SWAP1 SLOAD SWAP1 PUSH2 0x100 EXP SWAP1 DIV PUSH1 0x1 PUSH1 0x1 PUSH1 0xA0 SHL SUB AND PUSH1 0x1 PUSH1 0x1 PUSH1 0xA0 SHL SUB AND PUSH4 0x18160DDD PUSH1 0x40 MLOAD DUP2 PUSH4 0xFFFFFFFF AND PUSH1 0xE0 SHL DUP2 MSTORE PUSH1 0x4 ADD PUSH1 0x20 PUSH1 0x40 MLOAD DUP1 DUP4 SUB DUP2 DUP7 GAS STATICCALL ISZERO DUP1 ISZERO PUSH2 0xB55 JUMPI RETURNDATASIZE PUSH0 DUP1 RETURNDATACOPY RETURNDATASIZE PUSH0 REVERT JUMPDEST POP POP POP POP PUSH1 0x40 MLOAD RETURNDATASIZE PUSH1 0x1F NOT PUSH1 0x1F DUP3 ADD AND DUP3 ADD DUP1 PUSH1 0x40 MSTORE POP DUP2 ADD SWAP1 PUSH2 0xB79 SWAP2 SWAP1 PUSH2 0xCD5 JUMP JUMPDEST SWAP1 POP PUSH0 DUP1 PUSH0 SWAP1 SLOAD SWAP1 PUSH2 0x100 EXP SWAP1 DIV PUSH1 0x1 PUSH1 0x1 PUSH1 0xA0 SHL SUB AND PUSH1 0x1 PUSH1 0x1 PUSH1 0xA0 SHL SUB AND PUSH4 0x902F1AC PUSH1 0x40 MLOAD DUP2 PUSH4 0xFFFFFFFF AND PUSH1 0xE0 SHL DUP2 MSTORE PUSH1 0x4 ADD PUSH1 0x60 PUSH1 0x40 MLOAD DUP1 DUP4 SUB DUP2 DUP7 GAS STATICCALL ISZERO DUP1 ISZERO PUSH2 0xBCB JUMPI RETURNDATASIZE PUSH0 DUP1 RETURNDATACOPY RETURNDATASIZE PUSH0 REVERT JUMPDEST POP POP POP POP PUSH1 0x40 MLOAD RETURNDATASIZE PUSH1 0x1F NOT PUSH1 0x1F DUP3 ADD AND DUP3 ADD DUP1 PUSH1 0x40 MSTORE POP DUP2 ADD SWAP1 PUSH2 0xBEF SWAP2 SWAP1 PUSH2 0xD82 JUMP JUMPDEST POP POP PUSH1 0x1 PUSH1 0x1 PUSH1 0x70 SHL SUB AND SWAP1 POP PUSH0 DUP3 PUSH2 0xC10 DUP6 PUSH8 0xDE0B6B3A7640000 PUSH2 0xD36 JUMP JUMPDEST PUSH2 0xC1A SWAP2 SWAP1 PUSH2 0xD4D JUMP JUMPDEST SWAP1 POP PUSH0 PUSH8 0xDE0B6B3A7640000 PUSH2 0xC30 DUP5 DUP5 PUSH2 0xD36 JUMP JUMPDEST PUSH2 0xC3A SWAP2 SWAP1 PUSH2 0xD4D JUMP JUMPDEST SWAP8 SWAP7 POP POP POP POP POP POP POP JUMP JUMPDEST DUP1 CALLDATALOAD PUSH1 0x1 PUSH1 0x1 PUSH1 0xA0 SHL SUB DUP2 AND DUP2 EQ PUSH2 0xC5B JUMPI PUSH0 DUP1 REVERT JUMPDEST SWAP2 SWAP1 POP JUMP JUMPDEST PUSH0 PUSH1 0x20 DUP3 DUP5 SUB SLT ISZERO PUSH2 0xC70 JUMPI PUSH0 DUP1 REVERT JUMPDEST PUSH2 0xC79 DUP3 PUSH2 0xC45 JUMP JUMPDEST SWAP4 SWAP3 POP POP POP JUMP JUMPDEST PUSH0 DUP1 PUSH1 0x40 DUP4 DUP6 SUB SLT ISZERO PUSH2 0xC91 JUMPI PUSH0 DUP1 REVERT JUMPDEST PUSH2 0xC9A DUP4 PUSH2 0xC45 JUMP JUMPDEST SWAP5 PUSH1 0x20 SWAP4 SWAP1 SWAP4 ADD CALLDATALOAD SWAP4 POP POP POP JUMP JUMPDEST PUSH4 0x4E487B71 PUSH1 0xE0 SHL PUSH0 MSTORE PUSH1 0x11 PUSH1 0x4 MSTORE PUSH1 0x24 PUSH0 REVERT JUMPDEST DUP2 DUP2 SUB DUP2 DUP2 GT ISZERO PUSH2 0xCCF JUMPI PUSH2 0xCCF PUSH2 0xCA8 JUMP JUMPDEST SWAP3 SWAP2 POP POP JUMP JUMPDEST PUSH0 PUSH1 0x20 DUP3 DUP5 SUB SLT ISZERO PUSH2 0xCE5 JUMPI PUSH0 DUP1 REVERT JUMPDEST POP MLOAD SWAP2 SWAP1 POP JUMP JUMPDEST PUSH0 PUSH1 0x20 DUP3 DUP5 SUB SLT ISZERO PUSH2 0xCFC JUMPI PUSH0 DUP1 REVERT JUMPDEST DUP2 MLOAD DUP1 ISZERO ISZERO DUP2 EQ PUSH2 0xC79 JUMPI PUSH0 DUP1 REVERT JUMPDEST DUP1 DUP3 ADD DUP1 DUP3 GT ISZERO PUSH2 0xCCF JUMPI PUSH2 0xCCF PUSH2 0xCA8 JUMP JUMPDEST PUSH0 PUSH1 0x1 DUP3 ADD PUSH2 0xD2F JUMPI PUSH2 0xD2F PUSH2 0xCA8 JUMP JUMPDEST POP PUSH1 0x1 ADD SWAP1 JUMP JUMPDEST DUP1 DUP3 MUL DUP2 ISZERO DUP3 DUP3 DIV DUP5 EQ OR PUSH2 0xCCF JUMPI PUSH2 0xCCF PUSH2 0xCA8 JUMP JUMPDEST PUSH0 DUP3 PUSH2 0xD67 JUMPI PUSH4 0x4E487B71 PUSH1 0xE0 SHL PUSH0 MSTORE PUSH1 0x12 PUSH1 0x4 MSTORE PUSH1 0x24 PUSH0 REVERT JUMPDEST POP DIV SWAP1 JUMP JUMPDEST DUP1 MLOAD PUSH1 0x1 PUSH1 0x1 PUSH1 0x70 SHL SUB DUP2 AND DUP2 EQ PUSH2 0xC5B JUMPI PUSH0 DUP1 REVERT JUMPDEST PUSH0 DUP1 PUSH0 PUSH1 0x60 DUP5 DUP7 SUB SLT ISZERO PUSH2 0xD94 JUMPI PUSH0 DUP1 REVERT JUMPDEST PUSH2 0xD9D DUP5 PUSH2 0xD6C JUMP JUMPDEST SWAP3 POP PUSH2 0xDAB PUSH1 0x20 DUP6 ADD PUSH2 0xD6C JUMP JUMPDEST SWAP2 POP PUSH1 0x40 DUP5 ADD MLOAD PUSH4 0xFFFFFFFF DUP2 AND DUP2 EQ PUSH2 0xDC3 JUMPI PUSH0 DUP1 REVERT JUMPDEST DUP1 SWAP2 POP POP SWAP3 POP SWAP3 POP SWAP3 JUMP INVALID LOG2 PUSH5 0x6970667358 0x22 SLT KECCAK256 SWAP12 PC PUSH16 0x21AD703C2CF801EEB9369125393EBDB5 0xE3 AND 0xE7 0xAA CALLDATACOPY MLOAD 0xC4 PREVRANDAO 0xC7 0xC9 STOP 0xD8 0xAF PUSH5 0x736F6C6343 STOP ADDMOD XOR STOP CALLER "
		},
		"gasEstimates": {
			"creation": {
				"codeDepositCost": "717600",
				"executionCost": "infinite",
				"totalCost": "infinite"
			},
			"external": {
				"alreadyVoted(address)": "2574",
				"applicants()": "2415",
				"budsToken()": "infinite",
				"claim()": "infinite",
				"currentMonthRewardsLeft()": "2372",
				"getCurrentMonthRewardsLeft()": "infinite",
				"getLastResetTime()": "2370",
				"initialReward()": "2350",
				"isEligible(address)": "infinite",
				"isResetTime()": "2485",
				"isWithinClaimWindow()": "2575",
				"lastClaimTime(address)": "2527",
				"lastResetTimestamp()": "2394",
				"lpTokenAddress()": "2401",
				"marketingAddress()": "2381",
				"minLPValue()": "271",
				"numberOfApplicants()": "2324",
				"reduceCommission()": "infinite",
				"resetInterval()": "293",
				"timeSinceLastClaim()": "2465",
				"withdrawExcess(address,uint256)": "infinite"
			},
			"internal": {
				"calculateReward()": "infinite",
				"getUSDValueOfLPTokens(address)": "infinite",
				"reset()": "infinite"
			}
		},
		"methodIdentifiers": {
			"alreadyVoted(address)": "06d2ad40",
			"applicants()": "fdf5963a",
			"budsToken()": "7f581488",
			"claim()": "4e71d92d",
			"currentMonthRewardsLeft()": "b2fd0901",
			"getCurrentMonthRewardsLeft()": "4618af42",
			"getLastResetTime()": "39ad74cd",
			"initialReward()": "abee967c",
			"isEligible(address)": "66e305fd",
			"isResetTime()": "09c21f2d",
			"isWithinClaimWindow()": "823cc69d",
			"lastClaimTime(address)": "b77cf9c6",
			"lastResetTimestamp()": "b343a0df",
			"lpTokenAddress()": "f5ae497a",
			"marketingAddress()": "a5ece941",
			"minLPValue()": "f7e90d8f",
			"numberOfApplicants()": "cad7ca40",
			"reduceCommission()": "92f851c1",
			"resetInterval()": "fda7aff0",
			"timeSinceLastClaim()": "03e0a1e2",
			"withdrawExcess(address,uint256)": "6e90013d"
		}
	},
	"abi": [
		{
			"inputs": [
				{
					"internalType": "contract ERC20",
					"name": "_budsToken",
					"type": "address"
				},
				{
					"internalType": "address",
					"name": "_liquidityPool",
					"type": "address"
				},
				{
					"internalType": "address",
					"name": "_marketingAddress",
					"type": "address"
				}
			],
			"stateMutability": "nonpayable",
			"type": "constructor"
		},
		{
			"anonymous": false,
			"inputs": [
				{
					"indexed": true,
					"internalType": "address",
					"name": "user",
					"type": "address"
				},
				{
					"indexed": false,
					"internalType": "uint256",
					"name": "amount",
					"type": "uint256"
				}
			],
			"name": "Claim",
			"type": "event"
		},
		{
			"anonymous": false,
			"inputs": [],
			"name": "Reset",
			"type": "event"
		},
		{
			"inputs": [
				{
					"internalType": "address",
					"name": "",
					"type": "address"
				}
			],
			"name": "alreadyVoted",
			"outputs": [
				{
					"internalType": "bool",
					"name": "",
					"type": "bool"
				}
			],
			"stateMutability": "view",
			"type": "function"
		},
		{
			"inputs": [],
			"name": "applicants",
			"outputs": [
				{
					"internalType": "uint256",
					"name": "",
					"type": "uint256"
				}
			],
			"stateMutability": "view",
			"type": "function"
		},
		{
			"inputs": [],
			"name": "budsToken",
			"outputs": [
				{
					"internalType": "contract ERC20",
					"name": "",
					"type": "address"
				}
			],
			"stateMutability": "view",
			"type": "function"
		},
		{
			"inputs": [],
			"name": "claim",
			"outputs": [],
			"stateMutability": "nonpayable",
			"type": "function"
		},
		{
			"inputs": [],
			"name": "currentMonthRewardsLeft",
			"outputs": [
				{
					"internalType": "uint256",
					"name": "",
					"type": "uint256"
				}
			],
			"stateMutability": "view",
			"type": "function"
		},
		{
			"inputs": [],
			"name": "getCurrentMonthRewardsLeft",
			"outputs": [
				{
					"internalType": "uint256",
					"name": "",
					"type": "uint256"
				}
			],
			"stateMutability": "view",
			"type": "function"
		},
		{
			"inputs": [],
			"name": "getLastResetTime",
			"outputs": [
				{
					"internalType": "uint256",
					"name": "",
					"type": "uint256"
				}
			],
			"stateMutability": "view",
			"type": "function"
		},
		{
			"inputs": [],
			"name": "initialReward",
			"outputs": [
				{
					"internalType": "uint256",
					"name": "",
					"type": "uint256"
				}
			],
			"stateMutability": "view",
			"type": "function"
		},
		{
			"inputs": [
				{
					"internalType": "address",
					"name": "user",
					"type": "address"
				}
			],
			"name": "isEligible",
			"outputs": [
				{
					"internalType": "bool",
					"name": "",
					"type": "bool"
				}
			],
			"stateMutability": "view",
			"type": "function"
		},
		{
			"inputs": [],
			"name": "isResetTime",
			"outputs": [
				{
					"internalType": "bool",
					"name": "",
					"type": "bool"
				}
			],
			"stateMutability": "view",
			"type": "function"
		},
		{
			"inputs": [],
			"name": "isWithinClaimWindow",
			"outputs": [
				{
					"internalType": "bool",
					"name": "",
					"type": "bool"
				}
			],
			"stateMutability": "view",
			"type": "function"
		},
		{
			"inputs": [
				{
					"internalType": "address",
					"name": "",
					"type": "address"
				}
			],
			"name": "lastClaimTime",
			"outputs": [
				{
					"internalType": "uint256",
					"name": "",
					"type": "uint256"
				}
			],
			"stateMutability": "view",
			"type": "function"
		},
		{
			"inputs": [],
			"name": "lastResetTimestamp",
			"outputs": [
				{
					"internalType": "uint256",
					"name": "",
					"type": "uint256"
				}
			],
			"stateMutability": "view",
			"type": "function"
		},
		{
			"inputs": [],
			"name": "lpTokenAddress",
			"outputs": [
				{
					"internalType": "address",
					"name": "",
					"type": "address"
				}
			],
			"stateMutability": "view",
			"type": "function"
		},
		{
			"inputs": [],
			"name": "marketingAddress",
			"outputs": [
				{
					"internalType": "address",
					"name": "",
					"type": "address"
				}
			],
			"stateMutability": "view",
			"type": "function"
		},
		{
			"inputs": [],
			"name": "minLPValue",
			"outputs": [
				{
					"internalType": "uint256",
					"name": "",
					"type": "uint256"
				}
			],
			"stateMutability": "view",
			"type": "function"
		},
		{
			"inputs": [],
			"name": "numberOfApplicants",
			"outputs": [
				{
					"internalType": "uint256",
					"name": "",
					"type": "uint256"
				}
			],
			"stateMutability": "view",
			"type": "function"
		},
		{
			"inputs": [],
			"name": "reduceCommission",
			"outputs": [],
			"stateMutability": "nonpayable",
			"type": "function"
		},
		{
			"inputs": [],
			"name": "resetInterval",
			"outputs": [
				{
					"internalType": "uint256",
					"name": "",
					"type": "uint256"
				}
			],
			"stateMutability": "view",
			"type": "function"
		},
		{
			"inputs": [],
			"name": "timeSinceLastClaim",
			"outputs": [
				{
					"internalType": "uint256",
					"name": "",
					"type": "uint256"
				}
			],
			"stateMutability": "view",
			"type": "function"
		},
		{
			"inputs": [
				{
					"internalType": "address",
					"name": "token",
					"type": "address"
				},
				{
					"internalType": "uint256",
					"name": "amount",
					"type": "uint256"
				}
			],
			"name": "withdrawExcess",
			"outputs": [],
			"stateMutability": "nonpayable",
			"type": "function"
		}
	]
}