{
	"contracts/BUDS/SeedGrower.sol": {
		"Staking": {
			"abi": [
				{
					"inputs": [
						{
							"internalType": "address",
							"name": "_uniswapPool",
							"type": "address"
						},
						{
							"internalType": "address",
							"name": "_rewardToken",
							"type": "address"
						}
					],
					"stateMutability": "nonpayable",
					"type": "constructor"
				},
				{
					"anonymous": false,
					"inputs": [
						{
							"indexed": true,
							"internalType": "address",
							"name": "user",
							"type": "address"
						},
						{
							"indexed": false,
							"internalType": "uint256",
							"name": "amount",
							"type": "uint256"
						}
					],
					"name": "LockedLP",
					"type": "event"
				},
				{
					"anonymous": false,
					"inputs": [
						{
							"indexed": true,
							"internalType": "address",
							"name": "user",
							"type": "address"
						},
						{
							"indexed": false,
							"internalType": "uint256",
							"name": "amount",
							"type": "uint256"
						}
					],
					"name": "RewardHarvested",
					"type": "event"
				},
				{
					"anonymous": false,
					"inputs": [
						{
							"indexed": true,
							"internalType": "address",
							"name": "user",
							"type": "address"
						},
						{
							"indexed": false,
							"internalType": "uint256",
							"name": "amount",
							"type": "uint256"
						}
					],
					"name": "UnlockedLP",
					"type": "event"
				},
				{
					"inputs": [],
					"name": "MINIMUM_CLAIM_INTERVAL",
					"outputs": [
						{
							"internalType": "uint256",
							"name": "",
							"type": "uint256"
						}
					],
					"stateMutability": "view",
					"type": "function"
				},
				{
					"inputs": [],
					"name": "NINETY_DAYS",
					"outputs": [
						{
							"internalType": "uint256",
							"name": "",
							"type": "uint256"
						}
					],
					"stateMutability": "view",
					"type": "function"
				},
				{
					"inputs": [
						{
							"internalType": "address",
							"name": "",
							"type": "address"
						}
					],
					"name": "accumulatedRewards",
					"outputs": [
						{
							"internalType": "uint256",
							"name": "",
							"type": "uint256"
						}
					],
					"stateMutability": "view",
					"type": "function"
				},
				{
					"inputs": [
						{
							"internalType": "address",
							"name": "",
							"type": "address"
						}
					],
					"name": "alreadyVoted",
					"outputs": [
						{
							"internalType": "bool",
							"name": "",
							"type": "bool"
						}
					],
					"stateMutability": "view",
					"type": "function"
				},
				{
					"inputs": [
						{
							"internalType": "uint256",
							"name": "",
							"type": "uint256"
						}
					],
					"name": "annualRewards",
					"outputs": [
						{
							"internalType": "uint256",
							"name": "",
							"type": "uint256"
						}
					],
					"stateMutability": "view",
					"type": "function"
				},
				{
					"inputs": [],
					"name": "applicants",
					"outputs": [
						{
							"internalType": "uint256",
							"name": "",
							"type": "uint256"
						}
					],
					"stateMutability": "view",
					"type": "function"
				},
				{
					"inputs": [],
					"name": "currentDay",
					"outputs": [
						{
							"internalType": "uint256",
							"name": "",
							"type": "uint256"
						}
					],
					"stateMutability": "view",
					"type": "function"
				},
				{
					"inputs": [],
					"name": "currentMonth",
					"outputs": [
						{
							"internalType": "uint256",
							"name": "",
							"type": "uint256"
						}
					],
					"stateMutability": "view",
					"type": "function"
				},
				{
					"inputs": [],
					"name": "dailyLimit",
					"outputs": [
						{
							"internalType": "uint256",
							"name": "",
							"type": "uint256"
						}
					],
					"stateMutability": "view",
					"type": "function"
				},
				{
					"inputs": [],
					"name": "getCurrentMonth",
					"outputs": [
						{
							"internalType": "uint256",
							"name": "",
							"type": "uint256"
						}
					],
					"stateMutability": "view",
					"type": "function"
				},
				{
					"inputs": [
						{
							"internalType": "address",
							"name": "user",
							"type": "address"
						}
					],
					"name": "getUnclaimedRewards",
					"outputs": [
						{
							"internalType": "uint256",
							"name": "",
							"type": "uint256"
						}
					],
					"stateMutability": "view",
					"type": "function"
				},
				{
					"inputs": [],
					"name": "harvestRewards",
					"outputs": [],
					"stateMutability": "nonpayable",
					"type": "function"
				},
				{
					"inputs": [
						{
							"internalType": "address",
							"name": "",
							"type": "address"
						}
					],
					"name": "lastClaimTime",
					"outputs": [
						{
							"internalType": "uint256",
							"name": "",
							"type": "uint256"
						}
					],
					"stateMutability": "view",
					"type": "function"
				},
				{
					"inputs": [
						{
							"internalType": "address",
							"name": "",
							"type": "address"
						}
					],
					"name": "lockInfo",
					"outputs": [
						{
							"internalType": "uint256",
							"name": "amount",
							"type": "uint256"
						},
						{
							"internalType": "uint256",
							"name": "lockTime",
							"type": "uint256"
						}
					],
					"stateMutability": "view",
					"type": "function"
				},
				{
					"inputs": [
						{
							"internalType": "uint256",
							"name": "amount",
							"type": "uint256"
						}
					],
					"name": "lockLP",
					"outputs": [],
					"stateMutability": "nonpayable",
					"type": "function"
				},
				{
					"inputs": [],
					"name": "lpTokenAddress",
					"outputs": [
						{
							"internalType": "address",
							"name": "",
							"type": "address"
						}
					],
					"stateMutability": "view",
					"type": "function"
				},
				{
					"inputs": [],
					"name": "marketingWallet",
					"outputs": [
						{
							"internalType": "address",
							"name": "",
							"type": "address"
						}
					],
					"stateMutability": "view",
					"type": "function"
				},
				{
					"inputs": [],
					"name": "monthlyRewardLimit",
					"outputs": [
						{
							"internalType": "uint256",
							"name": "",
							"type": "uint256"
						}
					],
					"stateMutability": "view",
					"type": "function"
				},
				{
					"inputs": [],
					"name": "reduceCommission",
					"outputs": [],
					"stateMutability": "nonpayable",
					"type": "function"
				},
				{
					"inputs": [],
					"name": "rewardToken",
					"outputs": [
						{
							"internalType": "contract IERC20",
							"name": "",
							"type": "address"
						}
					],
					"stateMutability": "view",
					"type": "function"
				},
				{
					"inputs": [],
					"name": "rewardsDistributedToday",
					"outputs": [
						{
							"internalType": "uint256",
							"name": "",
							"type": "uint256"
						}
					],
					"stateMutability": "view",
					"type": "function"
				},
				{
					"inputs": [
						{
							"internalType": "address",
							"name": "_uniswapPool",
							"type": "address"
						}
					],
					"name": "setUniswapPool",
					"outputs": [],
					"stateMutability": "nonpayable",
					"type": "function"
				},
				{
					"inputs": [
						{
							"internalType": "address",
							"name": "",
							"type": "address"
						}
					],
					"name": "stakedTokens",
					"outputs": [
						{
							"internalType": "uint256",
							"name": "",
							"type": "uint256"
						}
					],
					"stateMutability": "view",
					"type": "function"
				},
				{
					"inputs": [
						{
							"internalType": "address",
							"name": "",
							"type": "address"
						}
					],
					"name": "stakingStartTime",
					"outputs": [
						{
							"internalType": "uint256",
							"name": "",
							"type": "uint256"
						}
					],
					"stateMutability": "view",
					"type": "function"
				},
				{
					"inputs": [],
					"name": "totalDistributedRewards",
					"outputs": [
						{
							"internalType": "uint256",
							"name": "",
							"type": "uint256"
						}
					],
					"stateMutability": "view",
					"type": "function"
				},
				{
					"inputs": [],
					"name": "unlockLP",
					"outputs": [],
					"stateMutability": "nonpayable",
					"type": "function"
				},
				{
					"inputs": [
						{
							"internalType": "address",
							"name": "token",
							"type": "address"
						},
						{
							"internalType": "uint256",
							"name": "amount",
							"type": "uint256"
						}
					],
					"name": "withdrawExcess",
					"outputs": [],
					"stateMutability": "nonpayable",
					"type": "function"
				}
			],
			"devdoc": {
				"kind": "dev",
				"methods": {},
				"version": 1
			},
			"evm": {
				"assembly": "    /* \"contracts/BUDS/SeedGrower.sol\":908:9898  contract Staking {... */\n  mstore(0x40, 0x80)\n    /* \"contracts/BUDS/SeedGrower.sol\":1720:1746  address owner = msg.sender */\n  0x07\n  dup1\n  sload\n    /* \"contracts/BUDS/SeedGrower.sol\":1736:1746  msg.sender */\n  caller\n  not(sub(shl(0xa0, 0x01), 0x01))\n    /* \"contracts/BUDS/SeedGrower.sol\":1720:1746  address owner = msg.sender */\n  swap2\n  dup3\n  and\n  dup2\n  or\n  swap1\n  swap3\n  sstore\n    /* \"contracts/BUDS/SeedGrower.sol\":1753:1791  address public marketingWallet = owner */\n  0x08\n  dup1\n  sload\n  swap1\n  swap2\n  and\n  swap1\n  swap2\n  or\n  swap1\n  sstore\n    /* \"contracts/BUDS/SeedGrower.sol\":2759:3601  constructor(address _uniswapPool, address _rewardToken) {... */\n  callvalue\n  dup1\n  iszero\n  tag_1\n  jumpi\n  0x00\n  dup1\n  revert\ntag_1:\n  pop\n  mload(0x40)\n  sub(codesize, bytecodeSize)\n  dup1\n  bytecodeSize\n  dup4\n  codecopy\n  dup2\n  add\n  0x40\n  dup2\n  swap1\n  mstore\n  tag_2\n  swap2\n  tag_3\n  jump\t// in\ntag_2:\n    /* \"contracts/BUDS/SeedGrower.sol\":2826:2840  lpTokenAddress */\n  0x05\n    /* \"contracts/BUDS/SeedGrower.sol\":2826:2855  lpTokenAddress = _uniswapPool */\n  dup1\n  sload\n  sub(shl(0xa0, 0x01), 0x01)\n  swap4\n  dup5\n  and\n  not(sub(shl(0xa0, 0x01), 0x01))\n  swap2\n  dup3\n  and\n  or\n  swap1\n  swap2\n  sstore\n    /* \"contracts/BUDS/SeedGrower.sol\":2866:2877  rewardToken */\n  0x06\n    /* \"contracts/BUDS/SeedGrower.sol\":2866:2900  rewardToken = IERC20(_rewardToken) */\n  dup1\n  sload\n  swap3\n  swap1\n  swap4\n  and\n  swap2\n  and\n  or\n  swap1\n  sstore\n    /* \"contracts/BUDS/SeedGrower.sol\":2911:2924  annualRewards */\n  0x12\n    /* \"contracts/BUDS/SeedGrower.sol\":2911:2928  annualRewards[54] */\n  0x20\n  mstore\n    /* \"contracts/BUDS/SeedGrower.sol\":2931:2947  1000000 * 10**18 */\n  0xd3c21bcecceda1000000\n    /* \"contracts/BUDS/SeedGrower.sol\":2911:2928  annualRewards[54] */\n  0x4270792c5242bb9af31a0ca014789585bac3a2bc36b4e20e1e1163e09d416afc\n    /* \"contracts/BUDS/SeedGrower.sol\":2911:2947  annualRewards[54] = 1000000 * 10**18 */\n  sstore\n    /* \"contracts/BUDS/SeedGrower.sol\":2996:3011  850000 * 10**18 */\n  0xb3fe97a2fafd2f400000\n    /* \"contracts/BUDS/SeedGrower.sol\":2976:2993  annualRewards[55] */\n  0xea116540bb6c5b7acceccd1764953a76c4fad8a217efbc5957292a6f6549f6bb\n    /* \"contracts/BUDS/SeedGrower.sol\":2976:3011  annualRewards[55] = 850000 * 10**18 */\n  sstore\n    /* \"contracts/BUDS/SeedGrower.sol\":3049:3064  475000 * 10**18 */\n  0x6495cd356e2412e00000\n    /* \"contracts/BUDS/SeedGrower.sol\":3029:3046  annualRewards[56] */\n  0x52d0aceea21727f3645b59ed2a8e2414ba98aec7326945136bbb6fbd1d1bee80\n    /* \"contracts/BUDS/SeedGrower.sol\":3029:3064  annualRewards[56] = 475000 * 10**18 */\n  sstore\n    /* \"contracts/BUDS/SeedGrower.sol\":3102:3117  275500 * 10**18 */\n  0x3a56e28a827115300000\n    /* \"contracts/BUDS/SeedGrower.sol\":3082:3099  annualRewards[57] */\n  0x9f59f72911ca8f47b3e19df7b8d808aa81d8edc8119614c7c316f6c84bb89c8b\n    /* \"contracts/BUDS/SeedGrower.sol\":3082:3117  annualRewards[57] = 275500 * 10**18 */\n  sstore\n    /* \"contracts/BUDS/SeedGrower.sol\":3155:3170  225000 * 10**18 */\n  0x2fa54641bae8aaa00000\n    /* \"contracts/BUDS/SeedGrower.sol\":3135:3152  annualRewards[58] */\n  0x5e6dc1ec65c205e4785800fc7cf7266df7ecc1251284c73df73cc438b1f93498\n    /* \"contracts/BUDS/SeedGrower.sol\":3135:3170  annualRewards[58] = 225000 * 10**18 */\n  sstore\n    /* \"contracts/BUDS/SeedGrower.sol\":3208:3222  75625 * 10**18 */\n  0x1003a3b3f593e4040000\n    /* \"contracts/BUDS/SeedGrower.sol\":3188:3205  annualRewards[59] */\n  0x5fe6cf215b4a13eaa2a7a4f22b2caee36bbae8f63be3ada50ba2209f503bdc76\n    /* \"contracts/BUDS/SeedGrower.sol\":3188:3222  annualRewards[59] = 75625 * 10**18 */\n  sstore\n    /* \"contracts/BUDS/SeedGrower.sol\":3260:3274  50000 * 10**18 */\n  0x0a968163f0a57b400000\n    /* \"contracts/BUDS/SeedGrower.sol\":3240:3257  annualRewards[60] */\n  0x1cc964778659cb526f0f4fe148ec03d3f93f444a969aac8d1602a8004b60f6f8\n    /* \"contracts/BUDS/SeedGrower.sol\":3240:3274  annualRewards[60] = 50000 * 10**18 */\n  sstore\n    /* \"contracts/BUDS/SeedGrower.sol\":3312:3326  45000 * 10**18 */\n  0x098774738bc822200000\n    /* \"contracts/BUDS/SeedGrower.sol\":3292:3309  annualRewards[61] */\n  0x77a856606c58f2afe74bc4d415a981c84b65392fcf7fefc382ded558bb92f464\n    /* \"contracts/BUDS/SeedGrower.sol\":3292:3326  annualRewards[61] = 45000 * 10**18 */\n  dup2\n  swap1\n  sstore\n    /* \"contracts/BUDS/SeedGrower.sol\":3344:3361  annualRewards[62] */\n  0xe916beb333cde8471a36b6e21a68b3ebdc7e0fe343cee63055523fb231ea1187\n    /* \"contracts/BUDS/SeedGrower.sol\":3344:3378  annualRewards[62] = 45000 * 10**18 */\n  dup2\n  swap1\n  sstore\n    /* \"contracts/BUDS/SeedGrower.sol\":3396:3413  annualRewards[63] */\n  0x9717e554f4f1c8f1445175ec6b77439740ea6e0a2d3809501f0e3f3949c19e28\n    /* \"contracts/BUDS/SeedGrower.sol\":3396:3430  annualRewards[63] = 45000 * 10**18 */\n  dup2\n  swap1\n  sstore\n    /* \"contracts/BUDS/SeedGrower.sol\":3448:3465  annualRewards[64] */\n  0x31c8277a0ccfffea1189152918c4cd07edee7f47b05bce3a4bae62597e6d602e\n    /* \"contracts/BUDS/SeedGrower.sol\":3448:3482  annualRewards[64] = 45000 * 10**18 */\n  dup2\n  swap1\n  sstore\n    /* \"contracts/BUDS/SeedGrower.sol\":3500:3517  annualRewards[65] */\n  0xf488cbb1c9f248560c55d6af8aff3d1b53d7743aee9b6e9d1423c01242306451\n    /* \"contracts/BUDS/SeedGrower.sol\":3500:3534  annualRewards[65] = 45000 * 10**18 */\n  sstore\n    /* \"contracts/BUDS/SeedGrower.sol\":3566:3568  66 */\n  0x42\n    /* \"contracts/BUDS/SeedGrower.sol\":2826:2840  lpTokenAddress */\n  0x00\n    /* \"contracts/BUDS/SeedGrower.sol\":3552:3569  annualRewards[66] */\n  mstore\n    /* \"contracts/BUDS/SeedGrower.sol\":3572:3586  44600 * 10**18 */\n  0x0971c556131295e00000\n    /* \"contracts/BUDS/SeedGrower.sol\":3552:3569  annualRewards[66] */\n  0xa6a9599000f4425e443918d34a69c9234ba73b27460468e6463868ac68d263b8\n    /* \"contracts/BUDS/SeedGrower.sol\":3552:3586  annualRewards[66] = 44600 * 10**18 */\n  sstore\n    /* \"contracts/BUDS/SeedGrower.sol\":908:9898  contract Staking {... */\n  jump(tag_8)\n    /* \"#utility.yul\":14:191   */\ntag_7:\n    /* \"#utility.yul\":93:106   */\n  dup1\n  mload\n  sub(shl(0xa0, 0x01), 0x01)\n    /* \"#utility.yul\":135:166   */\n  dup2\n  and\n    /* \"#utility.yul\":125:167   */\n  dup2\n  eq\n    /* \"#utility.yul\":115:185   */\n  tag_10\n  jumpi\n    /* \"#utility.yul\":181:182   */\n  0x00\n    /* \"#utility.yul\":178:179   */\n  dup1\n    /* \"#utility.yul\":171:183   */\n  revert\n    /* \"#utility.yul\":115:185   */\ntag_10:\n    /* \"#utility.yul\":14:191   */\n  swap2\n  swap1\n  pop\n  jump\t// out\n    /* \"#utility.yul\":196:489   */\ntag_3:\n    /* \"#utility.yul\":275:281   */\n  0x00\n    /* \"#utility.yul\":283:289   */\n  dup1\n    /* \"#utility.yul\":336:338   */\n  0x40\n    /* \"#utility.yul\":324:333   */\n  dup4\n    /* \"#utility.yul\":315:322   */\n  dup6\n    /* \"#utility.yul\":311:334   */\n  sub\n    /* \"#utility.yul\":307:339   */\n  slt\n    /* \"#utility.yul\":304:356   */\n  iszero\n  tag_12\n  jumpi\n    /* \"#utility.yul\":352:353   */\n  0x00\n    /* \"#utility.yul\":349:350   */\n  dup1\n    /* \"#utility.yul\":342:354   */\n  revert\n    /* \"#utility.yul\":304:356   */\ntag_12:\n    /* \"#utility.yul\":375:415   */\n  tag_13\n    /* \"#utility.yul\":405:414   */\n  dup4\n    /* \"#utility.yul\":375:415   */\n  tag_7\n  jump\t// in\ntag_13:\n    /* \"#utility.yul\":365:415   */\n  swap2\n  pop\n    /* \"#utility.yul\":434:483   */\n  tag_14\n    /* \"#utility.yul\":479:481   */\n  0x20\n    /* \"#utility.yul\":468:477   */\n  dup5\n    /* \"#utility.yul\":464:482   */\n  add\n    /* \"#utility.yul\":434:483   */\n  tag_7\n  jump\t// in\ntag_14:\n    /* \"#utility.yul\":424:483   */\n  swap1\n  pop\n    /* \"#utility.yul\":196:489   */\n  swap3\n  pop\n  swap3\n  swap1\n  pop\n  jump\t// out\ntag_8:\n    /* \"contracts/BUDS/SeedGrower.sol\":908:9898  contract Staking {... */\n  dataSize(sub_0)\n  dup1\n  dataOffset(sub_0)\n  0x00\n  codecopy\n  0x00\n  return\nstop\n\nsub_0: assembly {\n        /* \"contracts/BUDS/SeedGrower.sol\":908:9898  contract Staking {... */\n      mstore(0x40, 0x80)\n      callvalue\n      dup1\n      iszero\n      tag_1\n      jumpi\n      0x00\n      dup1\n      revert\n    tag_1:\n      pop\n      jumpi(tag_2, lt(calldatasize, 0x04))\n      shr(0xe0, calldataload(0x00))\n      dup1\n      0x8aca35a0\n      gt\n      tag_30\n      jumpi\n      dup1\n      0xb91f3f97\n      gt\n      tag_31\n      jumpi\n      dup1\n      0xe372c900\n      gt\n      tag_32\n      jumpi\n      dup1\n      0xe372c900\n      eq\n      tag_26\n      jumpi\n      dup1\n      0xf5ae497a\n      eq\n      tag_27\n      jumpi\n      dup1\n      0xf7c618c1\n      eq\n      tag_28\n      jumpi\n      dup1\n      0xfdf5963a\n      eq\n      tag_29\n      jumpi\n      0x00\n      dup1\n      revert\n    tag_32:\n      dup1\n      0xb91f3f97\n      eq\n      tag_23\n      jumpi\n      dup1\n      0xd1232730\n      eq\n      tag_24\n      jumpi\n      dup1\n      0xddd1b67e\n      eq\n      tag_25\n      jumpi\n      0x00\n      dup1\n      revert\n    tag_31:\n      dup1\n      0xa5b39cfb\n      gt\n      tag_33\n      jumpi\n      dup1\n      0xa5b39cfb\n      eq\n      tag_19\n      jumpi\n      dup1\n      0xa87df832\n      eq\n      tag_20\n      jumpi\n      dup1\n      0xb5a556d2\n      eq\n      tag_21\n      jumpi\n      dup1\n      0xb77cf9c6\n      eq\n      tag_22\n      jumpi\n      0x00\n      dup1\n      revert\n    tag_33:\n      dup1\n      0x8aca35a0\n      eq\n      tag_16\n      jumpi\n      dup1\n      0x8f90e902\n      eq\n      tag_17\n      jumpi\n      dup1\n      0x92f851c1\n      eq\n      tag_18\n      jumpi\n      0x00\n      dup1\n      revert\n    tag_30:\n      dup1\n      0x67eeba0c\n      gt\n      tag_34\n      jumpi\n      dup1\n      0x6e90013d\n      gt\n      tag_35\n      jumpi\n      dup1\n      0x6e90013d\n      eq\n      tag_12\n      jumpi\n      dup1\n      0x73f273fc\n      eq\n      tag_13\n      jumpi\n      dup1\n      0x75f0a874\n      eq\n      tag_14\n      jumpi\n      dup1\n      0x862a4d47\n      eq\n      tag_15\n      jumpi\n      0x00\n      dup1\n      revert\n    tag_35:\n      dup1\n      0x67eeba0c\n      eq\n      tag_9\n      jumpi\n      dup1\n      0x69a69e29\n      eq\n      tag_10\n      jumpi\n      dup1\n      0x6bd3b87c\n      eq\n      tag_11\n      jumpi\n      0x00\n      dup1\n      revert\n    tag_34:\n      dup1\n      0x06d2ad40\n      eq\n      tag_3\n      jumpi\n      dup1\n      0x2be11ae2\n      eq\n      tag_4\n      jumpi\n      dup1\n      0x40519a53\n      eq\n      tag_5\n      jumpi\n      dup1\n      0x443df8f5\n      eq\n      tag_6\n      jumpi\n      dup1\n      0x50f0a325\n      eq\n      tag_7\n      jumpi\n      dup1\n      0x5c9302c9\n      eq\n      tag_8\n      jumpi\n    tag_2:\n      0x00\n      dup1\n      revert\n        /* \"contracts/BUDS/SeedGrower.sol\":1238:1282  mapping(address => bool) public alreadyVoted */\n    tag_3:\n      tag_36\n      tag_37\n      calldatasize\n      0x04\n      tag_38\n      jump\t// in\n    tag_37:\n      mstore(0x20, 0x04)\n      0x00\n      swap1\n      dup2\n      mstore\n      0x40\n      swap1\n      keccak256\n      sload\n      0xff\n      and\n      dup2\n      jump\n    tag_36:\n      mload(0x40)\n        /* \"#utility.yul\":548:562   */\n      swap1\n      iszero\n        /* \"#utility.yul\":541:563   */\n      iszero\n        /* \"#utility.yul\":523:564   */\n      dup2\n      mstore\n        /* \"#utility.yul\":511:513   */\n      0x20\n        /* \"#utility.yul\":496:514   */\n      add\n        /* \"contracts/BUDS/SeedGrower.sol\":1238:1282  mapping(address => bool) public alreadyVoted */\n    tag_40:\n      mload(0x40)\n      dup1\n      swap2\n      sub\n      swap1\n      return\n        /* \"contracts/BUDS/SeedGrower.sol\":5788:8197  function harvestRewards() public {... */\n    tag_4:\n      tag_42\n      tag_43\n      jump\t// in\n    tag_42:\n      stop\n        /* \"contracts/BUDS/SeedGrower.sol\":3609:4316  function lockLP(uint256 amount) public {... */\n    tag_5:\n      tag_42\n      tag_45\n      calldatasize\n      0x04\n      tag_46\n      jump\t// in\n    tag_45:\n      tag_47\n      jump\t// in\n        /* \"contracts/BUDS/SeedGrower.sol\":2279:2327  mapping(uint256 => uint256) public annualRewards */\n    tag_6:\n      tag_48\n      tag_49\n      calldatasize\n      0x04\n      tag_46\n      jump\t// in\n    tag_49:\n      mstore(0x20, 0x12)\n      0x00\n      swap1\n      dup2\n      mstore\n      0x40\n      swap1\n      keccak256\n      sload\n      dup2\n      jump\n    tag_48:\n      mload(0x40)\n        /* \"#utility.yul\":906:931   */\n      swap1\n      dup2\n      mstore\n        /* \"#utility.yul\":894:896   */\n      0x20\n        /* \"#utility.yul\":879:897   */\n      add\n        /* \"contracts/BUDS/SeedGrower.sol\":2279:2327  mapping(uint256 => uint256) public annualRewards */\n      tag_40\n        /* \"#utility.yul\":760:937   */\n      jump\n        /* \"contracts/BUDS/SeedGrower.sol\":1377:1435  uint256 public constant MINIMUM_CLAIM_INTERVAL = 7 seconds */\n    tag_7:\n      tag_48\n        /* \"contracts/BUDS/SeedGrower.sol\":1426:1435  7 seconds */\n      0x07\n        /* \"contracts/BUDS/SeedGrower.sol\":1377:1435  uint256 public constant MINIMUM_CLAIM_INTERVAL = 7 seconds */\n      dup2\n      jump\n        /* \"contracts/BUDS/SeedGrower.sol\":2003:2028  uint256 public currentDay */\n    tag_8:\n      tag_48\n      sload(0x0e)\n      dup2\n      jump\n        /* \"contracts/BUDS/SeedGrower.sol\":2075:2100  uint256 public dailyLimit */\n    tag_9:\n      tag_48\n      sload(0x10)\n      dup2\n      jump\n        /* \"contracts/BUDS/SeedGrower.sol\":8205:9096  function getUnclaimedRewards(address user) external view returns (uint256) {... */\n    tag_10:\n      tag_48\n      tag_63\n      calldatasize\n      0x04\n      tag_38\n      jump\t// in\n    tag_63:\n      tag_64\n      jump\t// in\n        /* \"contracts/BUDS/SeedGrower.sol\":2706:2750  mapping(address => LockInfo) public lockInfo */\n    tag_11:\n      tag_66\n      tag_67\n      calldatasize\n      0x04\n      tag_38\n      jump\t// in\n    tag_67:\n      mstore(0x20, 0x13)\n      0x00\n      swap1\n      dup2\n      mstore\n      0x40\n      swap1\n      keccak256\n      dup1\n      sload\n      0x01\n      swap1\n      swap2\n      add\n      sload\n      dup3\n      jump\n    tag_66:\n      0x40\n      dup1\n      mload\n        /* \"#utility.yul\":1116:1141   */\n      swap3\n      dup4\n      mstore\n        /* \"#utility.yul\":1172:1174   */\n      0x20\n        /* \"#utility.yul\":1157:1175   */\n      dup4\n      add\n        /* \"#utility.yul\":1150:1184   */\n      swap2\n      swap1\n      swap2\n      mstore\n        /* \"#utility.yul\":1089:1107   */\n      add\n        /* \"contracts/BUDS/SeedGrower.sol\":2706:2750  mapping(address => LockInfo) public lockInfo */\n      tag_40\n        /* \"#utility.yul\":942:1190   */\n      jump\n        /* \"contracts/BUDS/SeedGrower.sol\":9192:9366  function withdrawExcess(address token, uint256 amount) external {... */\n    tag_12:\n      tag_42\n      tag_72\n      calldatasize\n      0x04\n      tag_73\n      jump\t// in\n    tag_72:\n      tag_74\n      jump\t// in\n        /* \"contracts/BUDS/SeedGrower.sol\":1065:1118  mapping(address => uint256) public accumulatedRewards */\n    tag_13:\n      tag_48\n      tag_76\n      calldatasize\n      0x04\n      tag_38\n      jump\t// in\n    tag_76:\n      mstore(0x20, 0x02)\n      0x00\n      swap1\n      dup2\n      mstore\n      0x40\n      swap1\n      keccak256\n      sload\n      dup2\n      jump\n        /* \"contracts/BUDS/SeedGrower.sol\":1753:1791  address public marketingWallet = owner */\n    tag_14:\n      sload(0x08)\n      tag_79\n      swap1\n      sub(shl(0xa0, 0x01), 0x01)\n      and\n      dup2\n      jump\n    tag_79:\n      mload(0x40)\n      sub(shl(0xa0, 0x01), 0x01)\n        /* \"#utility.yul\":1618:1650   */\n      swap1\n      swap2\n      and\n        /* \"#utility.yul\":1600:1651   */\n      dup2\n      mstore\n        /* \"#utility.yul\":1588:1590   */\n      0x20\n        /* \"#utility.yul\":1573:1591   */\n      add\n        /* \"contracts/BUDS/SeedGrower.sol\":1753:1791  address public marketingWallet = owner */\n      tag_40\n        /* \"#utility.yul\":1454:1657   */\n      jump\n        /* \"contracts/BUDS/SeedGrower.sol\":1969:1996  uint256 public currentMonth */\n    tag_15:\n      tag_48\n      sload(0x0d)\n      dup2\n      jump\n        /* \"contracts/BUDS/SeedGrower.sol\":2035:2068  uint256 public monthlyRewardLimit */\n    tag_16:\n      tag_48\n      sload(0x0f)\n      dup2\n      jump\n        /* \"contracts/BUDS/SeedGrower.sol\":9418:9575  function setUniswapPool(address _uniswapPool) external {... */\n    tag_17:\n      tag_42\n      tag_90\n      calldatasize\n      0x04\n      tag_38\n      jump\t// in\n    tag_90:\n      tag_91\n      jump\t// in\n        /* \"contracts/BUDS/SeedGrower.sol\":9587:9895  function reduceCommission() external {... */\n    tag_18:\n      tag_42\n      tag_93\n      jump\t// in\n        /* \"contracts/BUDS/SeedGrower.sol\":987:1034  mapping(address => uint256) public stakedTokens */\n    tag_19:\n      tag_48\n      tag_95\n      calldatasize\n      0x04\n      tag_38\n      jump\t// in\n    tag_95:\n      mstore(0x20, 0x01)\n      0x00\n      swap1\n      dup2\n      mstore\n      0x40\n      swap1\n      keccak256\n      sload\n      dup2\n      jump\n        /* \"contracts/BUDS/SeedGrower.sol\":1924:1962  uint256 public totalDistributedRewards */\n    tag_20:\n      tag_48\n      sload(0x0c)\n      dup2\n      jump\n        /* \"contracts/BUDS/SeedGrower.sol\":2107:2145  uint256 public rewardsDistributedToday */\n    tag_21:\n      tag_48\n      sload(0x11)\n      dup2\n      jump\n        /* \"contracts/BUDS/SeedGrower.sol\":932:980  mapping(address => uint256) public lastClaimTime */\n    tag_22:\n      tag_48\n      tag_105\n      calldatasize\n      0x04\n      tag_38\n      jump\t// in\n    tag_105:\n      0x00\n      0x20\n      dup2\n      swap1\n      mstore\n      swap1\n      dup2\n      mstore\n      0x40\n      swap1\n      keccak256\n      sload\n      dup2\n      jump\n        /* \"contracts/BUDS/SeedGrower.sol\":4324:4998  function unlockLP() public {... */\n    tag_23:\n      tag_42\n      tag_109\n      jump\t// in\n        /* \"contracts/BUDS/SeedGrower.sol\":1146:1197  mapping(address => uint256) public stakingStartTime */\n    tag_24:\n      tag_48\n      tag_111\n      calldatasize\n      0x04\n      tag_38\n      jump\t// in\n    tag_111:\n      mstore(0x20, 0x03)\n      0x00\n      swap1\n      dup2\n      mstore\n      0x40\n      swap1\n      keccak256\n      sload\n      dup2\n      jump\n        /* \"contracts/BUDS/SeedGrower.sol\":5636:5744  function getCurrentMonth() public view returns (uint256) {... */\n    tag_25:\n      tag_48\n      tag_115\n      jump\t// in\n        /* \"contracts/BUDS/SeedGrower.sol\":1540:1588  uint256 public constant NINETY_DAYS = 90 seconds */\n    tag_26:\n      tag_48\n        /* \"contracts/BUDS/SeedGrower.sol\":1578:1588  90 seconds */\n      0x5a\n        /* \"contracts/BUDS/SeedGrower.sol\":1540:1588  uint256 public constant NINETY_DAYS = 90 seconds */\n      dup2\n      jump\n        /* \"contracts/BUDS/SeedGrower.sol\":1619:1648  address public lpTokenAddress */\n    tag_27:\n      sload(0x05)\n      tag_79\n      swap1\n      sub(shl(0xa0, 0x01), 0x01)\n      and\n      dup2\n      jump\n        /* \"contracts/BUDS/SeedGrower.sol\":1655:1680  IERC20 public rewardToken */\n    tag_28:\n      sload(0x06)\n      tag_79\n      swap1\n      sub(shl(0xa0, 0x01), 0x01)\n      and\n      dup2\n      jump\n        /* \"contracts/BUDS/SeedGrower.sol\":1832:1857  uint256 public applicants */\n    tag_29:\n      tag_48\n      sload(0x0a)\n      dup2\n      jump\n        /* \"contracts/BUDS/SeedGrower.sol\":5788:8197  function harvestRewards() public {... */\n    tag_43:\n        /* \"contracts/BUDS/SeedGrower.sol\":5906:5916  msg.sender */\n      caller\n        /* \"contracts/BUDS/SeedGrower.sol\":5832:5858  uint256 timeSinceLastClaim */\n      0x00\n        /* \"contracts/BUDS/SeedGrower.sol\":5892:5917  lastClaimTime[msg.sender] */\n      swap1\n      dup2\n      mstore\n      0x20\n      dup2\n      swap1\n      mstore\n      0x40\n      dup2\n      keccak256\n      sload\n        /* \"contracts/BUDS/SeedGrower.sol\":5861:5917  block.timestamp -... */\n      tag_131\n      swap1\n        /* \"contracts/BUDS/SeedGrower.sol\":5861:5876  block.timestamp */\n      timestamp\n        /* \"contracts/BUDS/SeedGrower.sol\":5861:5917  block.timestamp -... */\n      tag_132\n      jump\t// in\n    tag_131:\n        /* \"contracts/BUDS/SeedGrower.sol\":6003:6013  msg.sender */\n      caller\n        /* \"contracts/BUDS/SeedGrower.sol\":5928:5952  uint256 timeSinceStaking */\n      0x00\n        /* \"contracts/BUDS/SeedGrower.sol\":5986:6014  stakingStartTime[msg.sender] */\n      swap1\n      dup2\n      mstore\n        /* \"contracts/BUDS/SeedGrower.sol\":5986:6002  stakingStartTime */\n      0x03\n        /* \"contracts/BUDS/SeedGrower.sol\":5986:6014  stakingStartTime[msg.sender] */\n      0x20\n      mstore\n      0x40\n      dup2\n      keccak256\n      sload\n        /* \"contracts/BUDS/SeedGrower.sol\":5832:5917  uint256 timeSinceLastClaim = block.timestamp -... */\n      swap2\n      swap3\n      pop\n        /* \"contracts/BUDS/SeedGrower.sol\":5928:5952  uint256 timeSinceStaking */\n      swap1\n        /* \"contracts/BUDS/SeedGrower.sol\":5955:6014  block.timestamp -... */\n      tag_133\n      swap1\n        /* \"contracts/BUDS/SeedGrower.sol\":5955:5970  block.timestamp */\n      timestamp\n        /* \"contracts/BUDS/SeedGrower.sol\":5955:6014  block.timestamp -... */\n      tag_132\n      jump\t// in\n    tag_133:\n        /* \"contracts/BUDS/SeedGrower.sol\":5928:6014  uint256 timeSinceStaking = block.timestamp -... */\n      swap1\n      pop\n        /* \"contracts/BUDS/SeedGrower.sol\":1426:1435  7 seconds */\n      0x07\n        /* \"contracts/BUDS/SeedGrower.sol\":6049:6067  timeSinceLastClaim */\n      dup3\n        /* \"contracts/BUDS/SeedGrower.sol\":6049:6093  timeSinceLastClaim >= MINIMUM_CLAIM_INTERVAL */\n      lt\n      iszero\n        /* \"contracts/BUDS/SeedGrower.sol\":6027:6161  require(... */\n      tag_134\n      jumpi\n      mload(0x40)\n      shl(0xe5, 0x461bcd)\n      dup2\n      mstore\n        /* \"#utility.yul\":2350:2352   */\n      0x20\n        /* \"contracts/BUDS/SeedGrower.sol\":6027:6161  require(... */\n      0x04\n      dup3\n      add\n        /* \"#utility.yul\":2332:2353   */\n      mstore\n        /* \"#utility.yul\":2389:2391   */\n      0x28\n        /* \"#utility.yul\":2369:2387   */\n      0x24\n      dup3\n      add\n        /* \"#utility.yul\":2362:2392   */\n      mstore\n        /* \"#utility.yul\":2428:2462   */\n      0x4d7573742077616974206174206c656173742037206461797320626574776565\n        /* \"#utility.yul\":2408:2426   */\n      0x44\n      dup3\n      add\n        /* \"#utility.yul\":2401:2463   */\n      mstore\n      shl(0xc0, 0x6e20636c61696d73)\n        /* \"#utility.yul\":2479:2497   */\n      0x64\n      dup3\n      add\n        /* \"#utility.yul\":2472:2510   */\n      mstore\n        /* \"#utility.yul\":2527:2546   */\n      0x84\n      add\n        /* \"contracts/BUDS/SeedGrower.sol\":6027:6161  require(... */\n    tag_135:\n      mload(0x40)\n      dup1\n      swap2\n      sub\n      swap1\n      revert\n    tag_134:\n        /* \"contracts/BUDS/SeedGrower.sol\":6195:6205  msg.sender */\n      caller\n        /* \"contracts/BUDS/SeedGrower.sol\":6209:6210  0 */\n      0x00\n        /* \"contracts/BUDS/SeedGrower.sol\":6182:6206  stakedTokens[msg.sender] */\n      swap1\n      dup2\n      mstore\n        /* \"contracts/BUDS/SeedGrower.sol\":6182:6194  stakedTokens */\n      0x01\n        /* \"contracts/BUDS/SeedGrower.sol\":6182:6206  stakedTokens[msg.sender] */\n      0x20\n      mstore\n      0x40\n      swap1\n      keccak256\n      sload\n        /* \"contracts/BUDS/SeedGrower.sol\":6174:6231  require(stakedTokens[msg.sender] > 0, \"No staked tokens\") */\n      tag_137\n      jumpi\n      mload(0x40)\n      shl(0xe5, 0x461bcd)\n      dup2\n      mstore\n        /* \"#utility.yul\":2759:2761   */\n      0x20\n        /* \"contracts/BUDS/SeedGrower.sol\":6174:6231  require(stakedTokens[msg.sender] > 0, \"No staked tokens\") */\n      0x04\n      dup3\n      add\n        /* \"#utility.yul\":2741:2762   */\n      mstore\n        /* \"#utility.yul\":2798:2800   */\n      0x10\n        /* \"#utility.yul\":2778:2796   */\n      0x24\n      dup3\n      add\n        /* \"#utility.yul\":2771:2801   */\n      mstore\n      shl(0x80, 0x4e6f207374616b656420746f6b656e73)\n        /* \"#utility.yul\":2817:2835   */\n      0x44\n      dup3\n      add\n        /* \"#utility.yul\":2810:2856   */\n      mstore\n        /* \"#utility.yul\":2873:2891   */\n      0x64\n      add\n        /* \"contracts/BUDS/SeedGrower.sol\":6174:6231  require(stakedTokens[msg.sender] > 0, \"No staked tokens\") */\n      tag_135\n        /* \"#utility.yul\":2557:2897   */\n      jump\n        /* \"contracts/BUDS/SeedGrower.sol\":6174:6231  require(stakedTokens[msg.sender] > 0, \"No staked tokens\") */\n    tag_137:\n        /* \"contracts/BUDS/SeedGrower.sol\":6315:6332  getCurrentMonth() */\n      tag_140\n        /* \"contracts/BUDS/SeedGrower.sol\":6315:6330  getCurrentMonth */\n      tag_115\n        /* \"contracts/BUDS/SeedGrower.sol\":6315:6332  getCurrentMonth() */\n      jump\t// in\n    tag_140:\n        /* \"contracts/BUDS/SeedGrower.sol\":6299:6311  currentMonth */\n      sload(0x0d)\n        /* \"contracts/BUDS/SeedGrower.sol\":6299:6332  currentMonth != getCurrentMonth() */\n      eq\n        /* \"contracts/BUDS/SeedGrower.sol\":6295:6477  if (currentMonth != getCurrentMonth()) {... */\n      tag_141\n      jumpi\n        /* \"contracts/BUDS/SeedGrower.sol\":6364:6381  getCurrentMonth() */\n      tag_142\n        /* \"contracts/BUDS/SeedGrower.sol\":6364:6379  getCurrentMonth */\n      tag_115\n        /* \"contracts/BUDS/SeedGrower.sol\":6364:6381  getCurrentMonth() */\n      jump\t// in\n    tag_142:\n        /* \"contracts/BUDS/SeedGrower.sol\":6349:6361  currentMonth */\n      0x0d\n        /* \"contracts/BUDS/SeedGrower.sol\":6349:6381  currentMonth = getCurrentMonth() */\n      sstore\n        /* \"contracts/BUDS/SeedGrower.sol\":6445:6447  12 */\n      0x0c\n        /* \"contracts/BUDS/SeedGrower.sol\":6418:6431  annualRewards */\n      0x12\n        /* \"contracts/BUDS/SeedGrower.sol\":6418:6442  annualRewards[yearNow()] */\n      0x00\n        /* \"contracts/BUDS/SeedGrower.sol\":6432:6441  yearNow() */\n      tag_143\n        /* \"contracts/BUDS/SeedGrower.sol\":6432:6439  yearNow */\n      tag_144\n        /* \"contracts/BUDS/SeedGrower.sol\":6432:6441  yearNow() */\n      jump\t// in\n    tag_143:\n        /* \"contracts/BUDS/SeedGrower.sol\":6418:6442  annualRewards[yearNow()] */\n      dup2\n      mstore\n      0x20\n      add\n      swap1\n      dup2\n      mstore\n      0x20\n      add\n      0x00\n      keccak256\n      sload\n        /* \"contracts/BUDS/SeedGrower.sol\":6418:6447  annualRewards[yearNow()] / 12 */\n      tag_145\n      swap2\n      swap1\n      tag_146\n      jump\t// in\n    tag_145:\n        /* \"contracts/BUDS/SeedGrower.sol\":6396:6414  monthlyRewardLimit */\n      0x0f\n        /* \"contracts/BUDS/SeedGrower.sol\":6396:6448  monthlyRewardLimit = (annualRewards[yearNow()] / 12) */\n      sstore\n        /* \"contracts/BUDS/SeedGrower.sol\":6295:6477  if (currentMonth != getCurrentMonth()) {... */\n    tag_141:\n        /* \"contracts/BUDS/SeedGrower.sol\":6519:6529  currentDay */\n      sload(0x0e)\n        /* \"contracts/BUDS/SeedGrower.sol\":6491:6515  block.timestamp / 1 days */\n      tag_147\n        /* \"contracts/BUDS/SeedGrower.sol\":6509:6515  1 days */\n      0x015180\n        /* \"contracts/BUDS/SeedGrower.sol\":6491:6506  block.timestamp */\n      timestamp\n        /* \"contracts/BUDS/SeedGrower.sol\":6491:6515  block.timestamp / 1 days */\n      tag_146\n      jump\t// in\n    tag_147:\n        /* \"contracts/BUDS/SeedGrower.sol\":6491:6529  block.timestamp / 1 days != currentDay */\n      eq\n        /* \"contracts/BUDS/SeedGrower.sol\":6487:6741  if (block.timestamp / 1 days != currentDay) {... */\n      tag_148\n      jumpi\n        /* \"contracts/BUDS/SeedGrower.sol\":6559:6583  block.timestamp / 1 days */\n      tag_149\n        /* \"contracts/BUDS/SeedGrower.sol\":6577:6583  1 days */\n      0x015180\n        /* \"contracts/BUDS/SeedGrower.sol\":6559:6574  block.timestamp */\n      timestamp\n        /* \"contracts/BUDS/SeedGrower.sol\":6559:6583  block.timestamp / 1 days */\n      tag_146\n      jump\t// in\n    tag_149:\n        /* \"contracts/BUDS/SeedGrower.sol\":6546:6556  currentDay */\n      0x0e\n        /* \"contracts/BUDS/SeedGrower.sol\":6546:6583  currentDay = block.timestamp / 1 days */\n      sstore\n        /* \"contracts/BUDS/SeedGrower.sol\":6643:6645  30 */\n      0x1e\n        /* \"contracts/BUDS/SeedGrower.sol\":6638:6640  12 */\n      0x0c\n        /* \"contracts/BUDS/SeedGrower.sol\":6611:6624  annualRewards */\n      0x12\n        /* \"contracts/BUDS/SeedGrower.sol\":6611:6635  annualRewards[yearNow()] */\n      0x00\n        /* \"contracts/BUDS/SeedGrower.sol\":6625:6634  yearNow() */\n      tag_150\n        /* \"contracts/BUDS/SeedGrower.sol\":6625:6632  yearNow */\n      tag_144\n        /* \"contracts/BUDS/SeedGrower.sol\":6625:6634  yearNow() */\n      jump\t// in\n    tag_150:\n        /* \"contracts/BUDS/SeedGrower.sol\":6611:6635  annualRewards[yearNow()] */\n      dup2\n      mstore\n      0x20\n      add\n      swap1\n      dup2\n      mstore\n      0x20\n      add\n      0x00\n      keccak256\n      sload\n        /* \"contracts/BUDS/SeedGrower.sol\":6611:6640  annualRewards[yearNow()] / 12 */\n      tag_151\n      swap2\n      swap1\n      tag_146\n      jump\t// in\n    tag_151:\n        /* \"contracts/BUDS/SeedGrower.sol\":6611:6645  annualRewards[yearNow()] / 12 / 30 */\n      tag_152\n      swap2\n      swap1\n      tag_146\n      jump\t// in\n    tag_152:\n        /* \"contracts/BUDS/SeedGrower.sol\":6598:6608  dailyLimit */\n      0x10\n        /* \"contracts/BUDS/SeedGrower.sol\":6598:6645  dailyLimit = annualRewards[yearNow()] / 12 / 30 */\n      sstore\n        /* \"contracts/BUDS/SeedGrower.sol\":6701:6702  0 */\n      0x00\n        /* \"contracts/BUDS/SeedGrower.sol\":6675:6698  rewardsDistributedToday */\n      0x11\n        /* \"contracts/BUDS/SeedGrower.sol\":6675:6702  rewardsDistributedToday = 0 */\n      sstore\n        /* \"contracts/BUDS/SeedGrower.sol\":6487:6741  if (block.timestamp / 1 days != currentDay) {... */\n    tag_148:\n        /* \"contracts/BUDS/SeedGrower.sol\":6769:6771  66 */\n      0x42\n        /* \"contracts/BUDS/SeedGrower.sol\":6757:6766  yearNow() */\n      tag_153\n        /* \"contracts/BUDS/SeedGrower.sol\":6757:6764  yearNow */\n      tag_144\n        /* \"contracts/BUDS/SeedGrower.sol\":6757:6766  yearNow() */\n      jump\t// in\n    tag_153:\n        /* \"contracts/BUDS/SeedGrower.sol\":6757:6771  yearNow() > 66 */\n      gt\n        /* \"contracts/BUDS/SeedGrower.sol\":6753:6841  if (yearNow() > 66) {... */\n      iszero\n      tag_154\n      jumpi\n        /* \"contracts/BUDS/SeedGrower.sol\":6815:6829  44600 * 10**18 */\n      0x0971c556131295e00000\n        /* \"contracts/BUDS/SeedGrower.sol\":6788:6801  annualRewards */\n      0x12\n        /* \"contracts/BUDS/SeedGrower.sol\":6788:6812  annualRewards[yearNow()] */\n      0x00\n        /* \"contracts/BUDS/SeedGrower.sol\":6802:6811  yearNow() */\n      tag_155\n        /* \"contracts/BUDS/SeedGrower.sol\":6802:6809  yearNow */\n      tag_144\n        /* \"contracts/BUDS/SeedGrower.sol\":6802:6811  yearNow() */\n      jump\t// in\n    tag_155:\n        /* \"contracts/BUDS/SeedGrower.sol\":6788:6812  annualRewards[yearNow()] */\n      dup2\n      mstore\n      0x20\n      dup2\n      add\n      swap2\n      swap1\n      swap2\n      mstore\n      0x40\n      add\n      0x00\n      keccak256\n        /* \"contracts/BUDS/SeedGrower.sol\":6788:6829  annualRewards[yearNow()] = 44600 * 10**18 */\n      sstore\n        /* \"contracts/BUDS/SeedGrower.sol\":6753:6841  if (yearNow() > 66) {... */\n    tag_154:\n        /* \"contracts/BUDS/SeedGrower.sol\":6963:6980  totalStakedTokens */\n      sload(0x09)\n        /* \"contracts/BUDS/SeedGrower.sol\":6914:6924  msg.sender */\n      caller\n        /* \"contracts/BUDS/SeedGrower.sol\":6851:6870  uint256 dailyReward */\n      0x00\n        /* \"contracts/BUDS/SeedGrower.sol\":6901:6925  stakedTokens[msg.sender] */\n      swap1\n      dup2\n      mstore\n        /* \"contracts/BUDS/SeedGrower.sol\":6901:6913  stakedTokens */\n      0x01\n        /* \"contracts/BUDS/SeedGrower.sol\":6901:6925  stakedTokens[msg.sender] */\n      0x20\n      mstore\n      0x40\n      dup2\n      keccak256\n      sload\n        /* \"contracts/BUDS/SeedGrower.sol\":6851:6870  uint256 dailyReward */\n      swap1\n      swap2\n        /* \"contracts/BUDS/SeedGrower.sol\":6983:6986  365 */\n      0x016d\n      swap2\n        /* \"contracts/BUDS/SeedGrower.sol\":6874:6887  annualRewards */\n      0x12\n        /* \"contracts/BUDS/SeedGrower.sol\":6851:6870  uint256 dailyReward */\n      dup5\n        /* \"contracts/BUDS/SeedGrower.sol\":6888:6897  yearNow() */\n      tag_156\n        /* \"contracts/BUDS/SeedGrower.sol\":6888:6895  yearNow */\n      tag_144\n        /* \"contracts/BUDS/SeedGrower.sol\":6888:6897  yearNow() */\n      jump\t// in\n    tag_156:\n        /* \"contracts/BUDS/SeedGrower.sol\":6874:6898  annualRewards[yearNow()] */\n      dup2\n      mstore\n      0x20\n      add\n      swap1\n      dup2\n      mstore\n      0x20\n      add\n      0x00\n      keccak256\n      sload\n        /* \"contracts/BUDS/SeedGrower.sol\":6874:6925  annualRewards[yearNow()] * stakedTokens[msg.sender] */\n      tag_157\n      swap2\n      swap1\n      tag_158\n      jump\t// in\n    tag_157:\n        /* \"contracts/BUDS/SeedGrower.sol\":6873:6980  (annualRewards[yearNow()] * stakedTokens[msg.sender]) ... */\n      tag_159\n      swap2\n      swap1\n      tag_146\n      jump\t// in\n    tag_159:\n        /* \"contracts/BUDS/SeedGrower.sol\":6873:6986  (annualRewards[yearNow()] * stakedTokens[msg.sender]) ... */\n      tag_160\n      swap2\n      swap1\n      tag_146\n      jump\t// in\n    tag_160:\n        /* \"contracts/BUDS/SeedGrower.sol\":6851:6986  uint256 dailyReward = (annualRewards[yearNow()] * stakedTokens[msg.sender]) ... */\n      swap1\n      pop\n        /* \"contracts/BUDS/SeedGrower.sol\":6997:7018  uint256 unclaimedDays */\n      0x00\n        /* \"contracts/BUDS/SeedGrower.sol\":7021:7138  min(... */\n      tag_161\n        /* \"contracts/BUDS/SeedGrower.sol\":7039:7082  timeSinceLastClaim / MINIMUM_CLAIM_INTERVAL */\n      tag_162\n        /* \"contracts/BUDS/SeedGrower.sol\":1426:1435  7 seconds */\n      0x07\n        /* \"contracts/BUDS/SeedGrower.sol\":7039:7057  timeSinceLastClaim */\n      dup7\n        /* \"contracts/BUDS/SeedGrower.sol\":7039:7082  timeSinceLastClaim / MINIMUM_CLAIM_INTERVAL */\n      tag_146\n      jump\t// in\n    tag_162:\n        /* \"contracts/BUDS/SeedGrower.sol\":7097:7127  timeSinceStaking / NINETY_DAYS */\n      tag_163\n        /* \"contracts/BUDS/SeedGrower.sol\":1578:1588  90 seconds */\n      0x5a\n        /* \"contracts/BUDS/SeedGrower.sol\":7097:7113  timeSinceStaking */\n      dup7\n        /* \"contracts/BUDS/SeedGrower.sol\":7097:7127  timeSinceStaking / NINETY_DAYS */\n      tag_146\n      jump\t// in\n    tag_163:\n        /* \"contracts/BUDS/SeedGrower.sol\":7021:7024  min */\n      tag_164\n        /* \"contracts/BUDS/SeedGrower.sol\":7021:7138  min(... */\n      jump\t// in\n    tag_161:\n        /* \"contracts/BUDS/SeedGrower.sol\":6997:7138  uint256 unclaimedDays = min(... */\n      swap1\n      pop\n        /* \"contracts/BUDS/SeedGrower.sol\":7149:7174  uint256 accumulatedReward */\n      0x00\n        /* \"contracts/BUDS/SeedGrower.sol\":7177:7204  dailyReward * unclaimedDays */\n      tag_165\n        /* \"contracts/BUDS/SeedGrower.sol\":6997:7138  uint256 unclaimedDays = min(... */\n      dup3\n        /* \"contracts/BUDS/SeedGrower.sol\":7177:7188  dailyReward */\n      dup5\n        /* \"contracts/BUDS/SeedGrower.sol\":7177:7204  dailyReward * unclaimedDays */\n      tag_158\n      jump\t// in\n    tag_165:\n        /* \"contracts/BUDS/SeedGrower.sol\":7234:7244  msg.sender */\n      caller\n        /* \"contracts/BUDS/SeedGrower.sol\":7215:7245  accumulatedRewards[msg.sender] */\n      0x00\n      swap1\n      dup2\n      mstore\n        /* \"contracts/BUDS/SeedGrower.sol\":7215:7233  accumulatedRewards */\n      0x02\n        /* \"contracts/BUDS/SeedGrower.sol\":7215:7245  accumulatedRewards[msg.sender] */\n      0x20\n      mstore\n      0x40\n      dup2\n      keccak256\n        /* \"contracts/BUDS/SeedGrower.sol\":7215:7265  accumulatedRewards[msg.sender] = accumulatedReward */\n      dup3\n      swap1\n      sstore\n        /* \"contracts/BUDS/SeedGrower.sol\":7319:7342  rewardsDistributedToday */\n      sload(0x11)\n        /* \"contracts/BUDS/SeedGrower.sol\":7306:7316  dailyLimit */\n      sload(0x10)\n        /* \"contracts/BUDS/SeedGrower.sol\":7149:7204  uint256 accumulatedReward = dailyReward * unclaimedDays */\n      swap3\n      swap4\n      pop\n        /* \"contracts/BUDS/SeedGrower.sol\":7215:7245  accumulatedRewards[msg.sender] */\n      swap1\n      swap2\n        /* \"contracts/BUDS/SeedGrower.sol\":7306:7342  dailyLimit - rewardsDistributedToday */\n      tag_166\n      swap2\n        /* \"contracts/BUDS/SeedGrower.sol\":7319:7342  rewardsDistributedToday */\n      swap1\n        /* \"contracts/BUDS/SeedGrower.sol\":7306:7342  dailyLimit - rewardsDistributedToday */\n      tag_132\n      jump\t// in\n    tag_166:\n        /* \"contracts/BUDS/SeedGrower.sol\":7276:7342  uint256 remainingDailyLimit = dailyLimit - rewardsDistributedToday */\n      swap1\n      pop\n        /* \"contracts/BUDS/SeedGrower.sol\":7353:7376  uint256 claimableAmount */\n      0x00\n        /* \"contracts/BUDS/SeedGrower.sol\":7379:7422  min(accumulatedReward, remainingDailyLimit) */\n      tag_167\n        /* \"contracts/BUDS/SeedGrower.sol\":7383:7400  accumulatedReward */\n      dup4\n        /* \"contracts/BUDS/SeedGrower.sol\":7402:7421  remainingDailyLimit */\n      dup4\n        /* \"contracts/BUDS/SeedGrower.sol\":7379:7382  min */\n      tag_164\n        /* \"contracts/BUDS/SeedGrower.sol\":7379:7422  min(accumulatedReward, remainingDailyLimit) */\n      jump\t// in\n    tag_167:\n        /* \"contracts/BUDS/SeedGrower.sol\":7524:7541  totalStakedTokens */\n      sload(0x09)\n        /* \"contracts/BUDS/SeedGrower.sol\":7496:7506  msg.sender */\n      caller\n        /* \"contracts/BUDS/SeedGrower.sol\":7483:7507  stakedTokens[msg.sender] */\n      0x00\n      swap1\n      dup2\n      mstore\n        /* \"contracts/BUDS/SeedGrower.sol\":7483:7495  stakedTokens */\n      0x01\n        /* \"contracts/BUDS/SeedGrower.sol\":7483:7507  stakedTokens[msg.sender] */\n      0x20\n      mstore\n      0x40\n      swap1\n      keccak256\n      sload\n        /* \"contracts/BUDS/SeedGrower.sol\":7353:7422  uint256 claimableAmount = min(accumulatedReward, remainingDailyLimit) */\n      swap2\n      swap3\n      pop\n        /* \"contracts/BUDS/SeedGrower.sol\":7524:7541  totalStakedTokens */\n      swap1\n        /* \"contracts/BUDS/SeedGrower.sol\":7465:7507  claimableAmount * stakedTokens[msg.sender] */\n      tag_168\n      swap1\n        /* \"contracts/BUDS/SeedGrower.sol\":7353:7422  uint256 claimableAmount = min(accumulatedReward, remainingDailyLimit) */\n      dup4\n        /* \"contracts/BUDS/SeedGrower.sol\":7465:7507  claimableAmount * stakedTokens[msg.sender] */\n      tag_158\n      jump\t// in\n    tag_168:\n        /* \"contracts/BUDS/SeedGrower.sol\":7464:7541  (claimableAmount * stakedTokens[msg.sender]) /... */\n      tag_169\n      swap2\n      swap1\n      tag_146\n      jump\t// in\n    tag_169:\n        /* \"contracts/BUDS/SeedGrower.sol\":7573:7583  msg.sender */\n      caller\n        /* \"contracts/BUDS/SeedGrower.sol\":7554:7584  accumulatedRewards[msg.sender] */\n      0x00\n      swap1\n      dup2\n      mstore\n        /* \"contracts/BUDS/SeedGrower.sol\":7554:7572  accumulatedRewards */\n      0x02\n        /* \"contracts/BUDS/SeedGrower.sol\":7554:7584  accumulatedRewards[msg.sender] */\n      0x20\n      mstore\n      0x40\n      dup2\n      keccak256\n        /* \"contracts/BUDS/SeedGrower.sol\":7554:7603  accumulatedRewards[msg.sender] -= claimableAmount */\n      dup1\n      sload\n        /* \"contracts/BUDS/SeedGrower.sol\":7433:7541  claimableAmount =... */\n      swap3\n      swap4\n      pop\n      dup4\n      swap3\n        /* \"contracts/BUDS/SeedGrower.sol\":7554:7584  accumulatedRewards[msg.sender] */\n      swap1\n      swap2\n      swap1\n        /* \"contracts/BUDS/SeedGrower.sol\":7554:7603  accumulatedRewards[msg.sender] -= claimableAmount */\n      tag_170\n      swap1\n        /* \"contracts/BUDS/SeedGrower.sol\":7433:7541  claimableAmount =... */\n      dup5\n      swap1\n        /* \"contracts/BUDS/SeedGrower.sol\":7554:7603  accumulatedRewards[msg.sender] -= claimableAmount */\n      tag_132\n      jump\t// in\n    tag_170:\n      swap3\n      pop\n      pop\n      dup2\n      swap1\n      sstore\n      pop\n        /* \"contracts/BUDS/SeedGrower.sol\":7641:7656  claimableAmount */\n      dup1\n        /* \"contracts/BUDS/SeedGrower.sol\":7614:7637  totalDistributedRewards */\n      0x0c\n      0x00\n        /* \"contracts/BUDS/SeedGrower.sol\":7614:7656  totalDistributedRewards += claimableAmount */\n      dup3\n      dup3\n      sload\n      tag_171\n      swap2\n      swap1\n      tag_172\n      jump\t// in\n    tag_171:\n      swap3\n      pop\n      pop\n      dup2\n      swap1\n      sstore\n      pop\n        /* \"contracts/BUDS/SeedGrower.sol\":7694:7709  claimableAmount */\n      dup1\n        /* \"contracts/BUDS/SeedGrower.sol\":7667:7690  rewardsDistributedToday */\n      0x11\n      0x00\n        /* \"contracts/BUDS/SeedGrower.sol\":7667:7709  rewardsDistributedToday += claimableAmount */\n      dup3\n      dup3\n      sload\n      tag_173\n      swap2\n      swap1\n      tag_172\n      jump\t// in\n    tag_173:\n      swap1\n      swap2\n      sstore\n      pop\n      pop\n        /* \"contracts/BUDS/SeedGrower.sol\":7730:7749  claimableAmount > 0 */\n      dup1\n        /* \"contracts/BUDS/SeedGrower.sol\":7722:7774  require(claimableAmount > 0, \"No claimable rewards\") */\n      tag_174\n      jumpi\n      mload(0x40)\n      shl(0xe5, 0x461bcd)\n      dup2\n      mstore\n        /* \"#utility.yul\":3629:3631   */\n      0x20\n        /* \"contracts/BUDS/SeedGrower.sol\":7722:7774  require(claimableAmount > 0, \"No claimable rewards\") */\n      0x04\n      dup3\n      add\n        /* \"#utility.yul\":3611:3632   */\n      mstore\n        /* \"#utility.yul\":3668:3670   */\n      0x14\n        /* \"#utility.yul\":3648:3666   */\n      0x24\n      dup3\n      add\n        /* \"#utility.yul\":3641:3671   */\n      mstore\n      shl(0x60, 0x4e6f20636c61696d61626c652072657761726473)\n        /* \"#utility.yul\":3687:3705   */\n      0x44\n      dup3\n      add\n        /* \"#utility.yul\":3680:3730   */\n      mstore\n        /* \"#utility.yul\":3747:3765   */\n      0x64\n      add\n        /* \"contracts/BUDS/SeedGrower.sol\":7722:7774  require(claimableAmount > 0, \"No claimable rewards\") */\n      tag_135\n        /* \"#utility.yul\":3427:3771   */\n      jump\n        /* \"contracts/BUDS/SeedGrower.sol\":7722:7774  require(claimableAmount > 0, \"No claimable rewards\") */\n    tag_174:\n        /* \"contracts/BUDS/SeedGrower.sol\":7785:7807  uint256 marketingShare */\n      0x00\n        /* \"contracts/BUDS/SeedGrower.sol\":7847:7852  10000 */\n      0x2710\n        /* \"contracts/BUDS/SeedGrower.sol\":7829:7843  marketingFee() */\n      tag_177\n        /* \"contracts/BUDS/SeedGrower.sol\":7829:7841  marketingFee */\n      tag_178\n        /* \"contracts/BUDS/SeedGrower.sol\":7829:7843  marketingFee() */\n      jump\t// in\n    tag_177:\n        /* \"contracts/BUDS/SeedGrower.sol\":7811:7843  claimableAmount * marketingFee() */\n      tag_179\n      swap1\n        /* \"contracts/BUDS/SeedGrower.sol\":7811:7826  claimableAmount */\n      dup5\n        /* \"contracts/BUDS/SeedGrower.sol\":7811:7843  claimableAmount * marketingFee() */\n      tag_158\n      jump\t// in\n    tag_179:\n        /* \"contracts/BUDS/SeedGrower.sol\":7810:7852  (claimableAmount * marketingFee()) / 10000 */\n      tag_180\n      swap2\n      swap1\n      tag_146\n      jump\t// in\n    tag_180:\n        /* \"contracts/BUDS/SeedGrower.sol\":7785:7852  uint256 marketingShare = (claimableAmount * marketingFee()) / 10000 */\n      swap1\n      pop\n        /* \"contracts/BUDS/SeedGrower.sol\":7863:7896  claimableAmount -= marketingShare */\n      tag_181\n        /* \"contracts/BUDS/SeedGrower.sol\":7785:7852  uint256 marketingShare = (claimableAmount * marketingFee()) / 10000 */\n      dup2\n        /* \"contracts/BUDS/SeedGrower.sol\":7863:7896  claimableAmount -= marketingShare */\n      dup4\n      tag_132\n      jump\t// in\n    tag_181:\n      swap2\n      pop\n        /* \"contracts/BUDS/SeedGrower.sol\":7911:7930  claimableAmount > 0 */\n      dup2\n      iszero\n        /* \"contracts/BUDS/SeedGrower.sol\":7907:8076  if (claimableAmount > 0) {... */\n      tag_182\n      jumpi\n        /* \"contracts/BUDS/SeedGrower.sol\":7947:7958  rewardToken */\n      sload(0x06)\n        /* \"contracts/BUDS/SeedGrower.sol\":7947:7996  rewardToken.transfer(msg.sender, claimableAmount) */\n      mload(0x40)\n      shl(0xe0, 0xa9059cbb)\n      dup2\n      mstore\n        /* \"contracts/BUDS/SeedGrower.sol\":7968:7978  msg.sender */\n      caller\n        /* \"contracts/BUDS/SeedGrower.sol\":7947:7996  rewardToken.transfer(msg.sender, claimableAmount) */\n      0x04\n      dup3\n      add\n        /* \"#utility.yul\":3950:4001   */\n      mstore\n        /* \"#utility.yul\":4017:4035   */\n      0x24\n      dup2\n      add\n        /* \"#utility.yul\":4010:4044   */\n      dup5\n      swap1\n      mstore\n      sub(shl(0xa0, 0x01), 0x01)\n        /* \"contracts/BUDS/SeedGrower.sol\":7947:7958  rewardToken */\n      swap1\n      swap2\n      and\n      swap1\n        /* \"contracts/BUDS/SeedGrower.sol\":7947:7967  rewardToken.transfer */\n      0xa9059cbb\n      swap1\n        /* \"#utility.yul\":3923:3941   */\n      0x44\n      add\n        /* \"contracts/BUDS/SeedGrower.sol\":7947:7996  rewardToken.transfer(msg.sender, claimableAmount) */\n      0x20\n      mload(0x40)\n      dup1\n      dup4\n      sub\n      dup2\n      0x00\n      dup8\n      gas\n      call\n      iszero\n      dup1\n      iszero\n      tag_186\n      jumpi\n      returndatasize\n      0x00\n      dup1\n      returndatacopy\n      revert(0x00, returndatasize)\n    tag_186:\n      pop\n      pop\n      pop\n      pop\n      mload(0x40)\n      returndatasize\n      not(0x1f)\n      0x1f\n      dup3\n      add\n      and\n      dup3\n      add\n      dup1\n      0x40\n      mstore\n      pop\n      dup2\n      add\n      swap1\n      tag_187\n      swap2\n      swap1\n      tag_188\n      jump\t// in\n    tag_187:\n      pop\n        /* \"contracts/BUDS/SeedGrower.sol\":8011:8022  rewardToken */\n      sload(0x06)\n        /* \"contracts/BUDS/SeedGrower.sol\":8032:8047  marketingWallet */\n      sload(0x08)\n        /* \"contracts/BUDS/SeedGrower.sol\":8011:8064  rewardToken.transfer(marketingWallet, marketingShare) */\n      mload(0x40)\n      shl(0xe0, 0xa9059cbb)\n      dup2\n      mstore\n      sub(shl(0xa0, 0x01), 0x01)\n        /* \"contracts/BUDS/SeedGrower.sol\":8032:8047  marketingWallet */\n      swap2\n      dup3\n      and\n        /* \"contracts/BUDS/SeedGrower.sol\":8011:8064  rewardToken.transfer(marketingWallet, marketingShare) */\n      0x04\n      dup3\n      add\n        /* \"#utility.yul\":3950:4001   */\n      mstore\n        /* \"#utility.yul\":4017:4035   */\n      0x24\n      dup2\n      add\n        /* \"#utility.yul\":4010:4044   */\n      dup5\n      swap1\n      mstore\n        /* \"contracts/BUDS/SeedGrower.sol\":8011:8022  rewardToken */\n      swap2\n      and\n      swap1\n        /* \"contracts/BUDS/SeedGrower.sol\":8011:8031  rewardToken.transfer */\n      0xa9059cbb\n      swap1\n        /* \"#utility.yul\":3923:3941   */\n      0x44\n      add\n        /* \"contracts/BUDS/SeedGrower.sol\":8011:8064  rewardToken.transfer(marketingWallet, marketingShare) */\n      0x20\n      mload(0x40)\n      dup1\n      dup4\n      sub\n      dup2\n      0x00\n      dup8\n      gas\n      call\n      iszero\n      dup1\n      iszero\n      tag_191\n      jumpi\n      returndatasize\n      0x00\n      dup1\n      returndatacopy\n      revert(0x00, returndatasize)\n    tag_191:\n      pop\n      pop\n      pop\n      pop\n      mload(0x40)\n      returndatasize\n      not(0x1f)\n      0x1f\n      dup3\n      add\n      and\n      dup3\n      add\n      dup1\n      0x40\n      mstore\n      pop\n      dup2\n      add\n      swap1\n      tag_192\n      swap2\n      swap1\n      tag_188\n      jump\t// in\n    tag_192:\n      pop\n        /* \"contracts/BUDS/SeedGrower.sol\":7907:8076  if (claimableAmount > 0) {... */\n    tag_182:\n        /* \"contracts/BUDS/SeedGrower.sol\":8100:8110  msg.sender */\n      caller\n        /* \"contracts/BUDS/SeedGrower.sol\":8086:8099  lastClaimTime */\n      0x00\n        /* \"contracts/BUDS/SeedGrower.sol\":8086:8111  lastClaimTime[msg.sender] */\n      dup2\n      dup2\n      mstore\n      0x20\n      dup2\n      dup2\n      mstore\n      0x40\n      swap2\n      dup3\n      swap1\n      keccak256\n        /* \"contracts/BUDS/SeedGrower.sol\":8114:8129  block.timestamp */\n      timestamp\n        /* \"contracts/BUDS/SeedGrower.sol\":8086:8129  lastClaimTime[msg.sender] = block.timestamp */\n      swap1\n      sstore\n        /* \"contracts/BUDS/SeedGrower.sol\":8145:8189  RewardHarvested(msg.sender, claimableAmount) */\n      swap1\n      mload\n        /* \"#utility.yul\":906:931   */\n      dup5\n      dup2\n      mstore\n        /* \"contracts/BUDS/SeedGrower.sol\":8145:8189  RewardHarvested(msg.sender, claimableAmount) */\n      0xa0703c548e4f3579a5b862677f6e9a97ac2d85326ddb959deb9b37a802253232\n      swap2\n        /* \"#utility.yul\":879:897   */\n      add\n        /* \"contracts/BUDS/SeedGrower.sol\":8145:8189  RewardHarvested(msg.sender, claimableAmount) */\n      mload(0x40)\n      dup1\n      swap2\n      sub\n      swap1\n      log2\n        /* \"contracts/BUDS/SeedGrower.sol\":5821:8197  {... */\n      pop\n      pop\n      pop\n      pop\n      pop\n      pop\n      pop\n      pop\n        /* \"contracts/BUDS/SeedGrower.sol\":5788:8197  function harvestRewards() public {... */\n      jump\t// out\n        /* \"contracts/BUDS/SeedGrower.sol\":3609:4316  function lockLP(uint256 amount) public {... */\n    tag_47:\n        /* \"contracts/BUDS/SeedGrower.sol\":3682:3696  lpTokenAddress */\n      sload(0x05)\n        /* \"contracts/BUDS/SeedGrower.sol\":3675:3719  IERC20(lpTokenAddress).balanceOf(msg.sender) */\n      mload(0x40)\n      shl(0xe0, 0x70a08231)\n      dup2\n      mstore\n        /* \"contracts/BUDS/SeedGrower.sol\":3708:3718  msg.sender */\n      caller\n        /* \"contracts/BUDS/SeedGrower.sol\":3675:3719  IERC20(lpTokenAddress).balanceOf(msg.sender) */\n      0x04\n      dup3\n      add\n        /* \"#utility.yul\":1600:1651   */\n      mstore\n        /* \"contracts/BUDS/SeedGrower.sol\":3722:3723  0 */\n      0x00\n      swap2\n      sub(shl(0xa0, 0x01), 0x01)\n        /* \"contracts/BUDS/SeedGrower.sol\":3682:3696  lpTokenAddress */\n      and\n      swap1\n        /* \"contracts/BUDS/SeedGrower.sol\":3675:3707  IERC20(lpTokenAddress).balanceOf */\n      0x70a08231\n      swap1\n        /* \"#utility.yul\":1573:1591   */\n      0x24\n      add\n        /* \"contracts/BUDS/SeedGrower.sol\":3675:3719  IERC20(lpTokenAddress).balanceOf(msg.sender) */\n      0x20\n      mload(0x40)\n      dup1\n      dup4\n      sub\n      dup2\n      dup7\n      gas\n      staticcall\n      iszero\n      dup1\n      iszero\n      tag_197\n      jumpi\n      returndatasize\n      0x00\n      dup1\n      returndatacopy\n      revert(0x00, returndatasize)\n    tag_197:\n      pop\n      pop\n      pop\n      pop\n      mload(0x40)\n      returndatasize\n      not(0x1f)\n      0x1f\n      dup3\n      add\n      and\n      dup3\n      add\n      dup1\n      0x40\n      mstore\n      pop\n      dup2\n      add\n      swap1\n      tag_198\n      swap2\n      swap1\n      tag_199\n      jump\t// in\n    tag_198:\n        /* \"contracts/BUDS/SeedGrower.sol\":3675:3723  IERC20(lpTokenAddress).balanceOf(msg.sender) > 0 */\n      gt\n        /* \"contracts/BUDS/SeedGrower.sol\":3667:3749  require(IERC20(lpTokenAddress).balanceOf(msg.sender) > 0, \"Pooled Amount is Zero\") */\n      tag_200\n      jumpi\n      mload(0x40)\n      shl(0xe5, 0x461bcd)\n      dup2\n      mstore\n        /* \"#utility.yul\":4728:4730   */\n      0x20\n        /* \"contracts/BUDS/SeedGrower.sol\":3667:3749  require(IERC20(lpTokenAddress).balanceOf(msg.sender) > 0, \"Pooled Amount is Zero\") */\n      0x04\n      dup3\n      add\n        /* \"#utility.yul\":4710:4731   */\n      mstore\n        /* \"#utility.yul\":4767:4769   */\n      0x15\n        /* \"#utility.yul\":4747:4765   */\n      0x24\n      dup3\n      add\n        /* \"#utility.yul\":4740:4770   */\n      mstore\n      shl(0x58, 0x506f6f6c656420416d6f756e74206973205a65726f)\n        /* \"#utility.yul\":4786:4804   */\n      0x44\n      dup3\n      add\n        /* \"#utility.yul\":4779:4830   */\n      mstore\n        /* \"#utility.yul\":4847:4865   */\n      0x64\n      add\n        /* \"contracts/BUDS/SeedGrower.sol\":3667:3749  require(IERC20(lpTokenAddress).balanceOf(msg.sender) > 0, \"Pooled Amount is Zero\") */\n      tag_135\n        /* \"#utility.yul\":4526:4871   */\n      jump\n        /* \"contracts/BUDS/SeedGrower.sol\":3667:3749  require(IERC20(lpTokenAddress).balanceOf(msg.sender) > 0, \"Pooled Amount is Zero\") */\n    tag_200:\n        /* \"contracts/BUDS/SeedGrower.sol\":3791:3805  lpTokenAddress */\n      sload(0x05)\n        /* \"contracts/BUDS/SeedGrower.sol\":3784:3920  IERC20(lpTokenAddress).transferFrom(... */\n      mload(0x40)\n      shl(0xe0, 0x23b872dd)\n      dup2\n      mstore\n        /* \"contracts/BUDS/SeedGrower.sol\":3838:3848  msg.sender */\n      caller\n        /* \"contracts/BUDS/SeedGrower.sol\":3784:3920  IERC20(lpTokenAddress).transferFrom(... */\n      0x04\n      dup3\n      add\n        /* \"#utility.yul\":5116:5150   */\n      mstore\n        /* \"contracts/BUDS/SeedGrower.sol\":3875:3879  this */\n      address\n        /* \"#utility.yul\":5166:5184   */\n      0x24\n      dup3\n      add\n        /* \"#utility.yul\":5159:5202   */\n      mstore\n        /* \"#utility.yul\":5218:5236   */\n      0x44\n      dup2\n      add\n        /* \"#utility.yul\":5211:5245   */\n      dup4\n      swap1\n      mstore\n      sub(shl(0xa0, 0x01), 0x01)\n        /* \"contracts/BUDS/SeedGrower.sol\":3791:3805  lpTokenAddress */\n      swap1\n      swap2\n      and\n      swap1\n        /* \"contracts/BUDS/SeedGrower.sol\":3784:3819  IERC20(lpTokenAddress).transferFrom */\n      0x23b872dd\n      swap1\n        /* \"#utility.yul\":5051:5069   */\n      0x64\n      add\n        /* \"contracts/BUDS/SeedGrower.sol\":3784:3920  IERC20(lpTokenAddress).transferFrom(... */\n      0x20\n      mload(0x40)\n      dup1\n      dup4\n      sub\n      dup2\n      0x00\n      dup8\n      gas\n      call\n      iszero\n      dup1\n      iszero\n      tag_206\n      jumpi\n      returndatasize\n      0x00\n      dup1\n      returndatacopy\n      revert(0x00, returndatasize)\n    tag_206:\n      pop\n      pop\n      pop\n      pop\n      mload(0x40)\n      returndatasize\n      not(0x1f)\n      0x1f\n      dup3\n      add\n      and\n      dup3\n      add\n      dup1\n      0x40\n      mstore\n      pop\n      dup2\n      add\n      swap1\n      tag_207\n      swap2\n      swap1\n      tag_188\n      jump\t// in\n    tag_207:\n        /* \"contracts/BUDS/SeedGrower.sol\":3762:3972  require(... */\n      tag_208\n      jumpi\n      mload(0x40)\n      shl(0xe5, 0x461bcd)\n      dup2\n      mstore\n        /* \"#utility.yul\":5458:5460   */\n      0x20\n        /* \"contracts/BUDS/SeedGrower.sol\":3762:3972  require(... */\n      0x04\n      dup3\n      add\n        /* \"#utility.yul\":5440:5461   */\n      mstore\n        /* \"#utility.yul\":5497:5499   */\n      0x18\n        /* \"#utility.yul\":5477:5495   */\n      0x24\n      dup3\n      add\n        /* \"#utility.yul\":5470:5500   */\n      mstore\n      shl(0x42, 0x1314081d1bdad95b881d1c985b9cd9995c8819985a5b1959)\n        /* \"#utility.yul\":5516:5534   */\n      0x44\n      dup3\n      add\n        /* \"#utility.yul\":5509:5563   */\n      mstore\n        /* \"#utility.yul\":5580:5598   */\n      0x64\n      add\n        /* \"contracts/BUDS/SeedGrower.sol\":3762:3972  require(... */\n      tag_135\n        /* \"#utility.yul\":5256:5604   */\n      jump\n        /* \"contracts/BUDS/SeedGrower.sol\":3762:3972  require(... */\n    tag_208:\n        /* \"contracts/BUDS/SeedGrower.sol\":3983:3999  uint256 lockTime */\n      0x00\n        /* \"contracts/BUDS/SeedGrower.sol\":4002:4031  block.timestamp + NINETY_DAYS */\n      tag_211\n        /* \"contracts/BUDS/SeedGrower.sol\":1578:1588  90 seconds */\n      0x5a\n        /* \"contracts/BUDS/SeedGrower.sol\":4002:4017  block.timestamp */\n      timestamp\n        /* \"contracts/BUDS/SeedGrower.sol\":4002:4031  block.timestamp + NINETY_DAYS */\n      tag_172\n      jump\t// in\n    tag_211:\n        /* \"contracts/BUDS/SeedGrower.sol\":4059:4069  msg.sender */\n      caller\n        /* \"contracts/BUDS/SeedGrower.sol\":4042:4070  stakingStartTime[msg.sender] */\n      0x00\n      dup2\n      dup2\n      mstore\n        /* \"contracts/BUDS/SeedGrower.sol\":4042:4058  stakingStartTime */\n      0x03\n        /* \"contracts/BUDS/SeedGrower.sol\":4042:4070  stakingStartTime[msg.sender] */\n      0x20\n      swap1\n      dup2\n      mstore\n      0x40\n      dup1\n      dup4\n      keccak256\n        /* \"contracts/BUDS/SeedGrower.sol\":4073:4088  block.timestamp */\n      timestamp\n        /* \"contracts/BUDS/SeedGrower.sol\":4042:4088  stakingStartTime[msg.sender] = block.timestamp */\n      swap1\n      sstore\n        /* \"contracts/BUDS/SeedGrower.sol\":4122:4148  LockInfo(amount, lockTime) */\n      dup1\n      mload\n      dup1\n      dup3\n      add\n      dup3\n      mstore\n      dup8\n      dup2\n      mstore\n      dup1\n      dup4\n      add\n      dup7\n      dup2\n      mstore\n        /* \"contracts/BUDS/SeedGrower.sol\":4099:4119  lockInfo[msg.sender] */\n      swap5\n      dup5\n      mstore\n        /* \"contracts/BUDS/SeedGrower.sol\":4099:4107  lockInfo */\n      0x13\n        /* \"contracts/BUDS/SeedGrower.sol\":4099:4119  lockInfo[msg.sender] */\n      swap1\n      swap3\n      mstore\n      dup3\n      keccak256\n        /* \"contracts/BUDS/SeedGrower.sol\":4099:4148  lockInfo[msg.sender] = LockInfo(amount, lockTime) */\n      swap1\n      mload\n      dup2\n      sstore\n      swap2\n      mload\n      0x01\n      swap1\n      swap3\n      add\n      swap2\n      swap1\n      swap2\n      sstore\n        /* \"contracts/BUDS/SeedGrower.sol\":4192:4209  totalStakedTokens */\n      0x09\n        /* \"contracts/BUDS/SeedGrower.sol\":4192:4219  totalStakedTokens += amount */\n      dup1\n      sload\n        /* \"contracts/BUDS/SeedGrower.sol\":3983:4031  uint256 lockTime = block.timestamp + NINETY_DAYS */\n      swap3\n      swap4\n      pop\n        /* \"contracts/BUDS/SeedGrower.sol\":4131:4137  amount */\n      dup5\n      swap3\n        /* \"contracts/BUDS/SeedGrower.sol\":4192:4209  totalStakedTokens */\n      swap1\n      swap2\n        /* \"contracts/BUDS/SeedGrower.sol\":4042:4070  stakingStartTime[msg.sender] */\n      swap1\n        /* \"contracts/BUDS/SeedGrower.sol\":4192:4219  totalStakedTokens += amount */\n      tag_212\n      swap1\n        /* \"contracts/BUDS/SeedGrower.sol\":4131:4137  amount */\n      dup5\n      swap1\n        /* \"contracts/BUDS/SeedGrower.sol\":4192:4219  totalStakedTokens += amount */\n      tag_172\n      jump\t// in\n    tag_212:\n      swap1\n      swap2\n      sstore\n      pop\n      pop\n        /* \"contracts/BUDS/SeedGrower.sol\":4243:4253  msg.sender */\n      caller\n        /* \"contracts/BUDS/SeedGrower.sol\":4230:4254  stakedTokens[msg.sender] */\n      0x00\n      swap1\n      dup2\n      mstore\n        /* \"contracts/BUDS/SeedGrower.sol\":4230:4242  stakedTokens */\n      0x01\n        /* \"contracts/BUDS/SeedGrower.sol\":4230:4254  stakedTokens[msg.sender] */\n      0x20\n      mstore\n      0x40\n      dup2\n      keccak256\n        /* \"contracts/BUDS/SeedGrower.sol\":4230:4264  stakedTokens[msg.sender] += amount */\n      dup1\n      sload\n        /* \"contracts/BUDS/SeedGrower.sol\":4258:4264  amount */\n      dup5\n      swap3\n        /* \"contracts/BUDS/SeedGrower.sol\":4230:4254  stakedTokens[msg.sender] */\n      swap1\n        /* \"contracts/BUDS/SeedGrower.sol\":4230:4264  stakedTokens[msg.sender] += amount */\n      tag_213\n      swap1\n        /* \"contracts/BUDS/SeedGrower.sol\":4258:4264  amount */\n      dup5\n      swap1\n        /* \"contracts/BUDS/SeedGrower.sol\":4230:4264  stakedTokens[msg.sender] += amount */\n      tag_172\n      jump\t// in\n    tag_213:\n      swap1\n      swap2\n      sstore\n      pop\n      pop\n        /* \"contracts/BUDS/SeedGrower.sol\":4280:4308  LockedLP(msg.sender, amount) */\n      mload(0x40)\n        /* \"#utility.yul\":906:931   */\n      dup3\n      dup2\n      mstore\n        /* \"contracts/BUDS/SeedGrower.sol\":4289:4299  msg.sender */\n      caller\n      swap1\n        /* \"contracts/BUDS/SeedGrower.sol\":4280:4308  LockedLP(msg.sender, amount) */\n      0xe1954443838ef603b0d4c78380e8ce8fa0cbd3126aafb585e9072cf90185fa58\n      swap1\n        /* \"#utility.yul\":894:896   */\n      0x20\n        /* \"#utility.yul\":879:897   */\n      add\n        /* \"contracts/BUDS/SeedGrower.sol\":4280:4308  LockedLP(msg.sender, amount) */\n      mload(0x40)\n      dup1\n      swap2\n      sub\n      swap1\n      log2\n        /* \"contracts/BUDS/SeedGrower.sol\":3648:4316  {... */\n      pop\n        /* \"contracts/BUDS/SeedGrower.sol\":3609:4316  function lockLP(uint256 amount) public {... */\n      pop\n      jump\t// out\n        /* \"contracts/BUDS/SeedGrower.sol\":8205:9096  function getUnclaimedRewards(address user) external view returns (uint256) {... */\n    tag_64:\n        /* \"contracts/BUDS/SeedGrower.sol\":8365:8375  msg.sender */\n      caller\n        /* \"contracts/BUDS/SeedGrower.sol\":8271:8278  uint256 */\n      0x00\n        /* \"contracts/BUDS/SeedGrower.sol\":8351:8376  lastClaimTime[msg.sender] */\n      swap1\n      dup2\n      mstore\n      0x20\n      dup2\n      swap1\n      mstore\n      0x40\n      dup2\n      keccak256\n      sload\n        /* \"contracts/BUDS/SeedGrower.sol\":8271:8278  uint256 */\n      dup2\n      swap1\n        /* \"contracts/BUDS/SeedGrower.sol\":8320:8376  block.timestamp -... */\n      tag_216\n      swap1\n        /* \"contracts/BUDS/SeedGrower.sol\":8320:8335  block.timestamp */\n      timestamp\n        /* \"contracts/BUDS/SeedGrower.sol\":8320:8376  block.timestamp -... */\n      tag_132\n      jump\t// in\n    tag_216:\n        /* \"contracts/BUDS/SeedGrower.sol\":8462:8472  msg.sender */\n      caller\n        /* \"contracts/BUDS/SeedGrower.sol\":8387:8411  uint256 timeSinceStaking */\n      0x00\n        /* \"contracts/BUDS/SeedGrower.sol\":8445:8473  stakingStartTime[msg.sender] */\n      swap1\n      dup2\n      mstore\n        /* \"contracts/BUDS/SeedGrower.sol\":8445:8461  stakingStartTime */\n      0x03\n        /* \"contracts/BUDS/SeedGrower.sol\":8445:8473  stakingStartTime[msg.sender] */\n      0x20\n      mstore\n      0x40\n      dup2\n      keccak256\n      sload\n        /* \"contracts/BUDS/SeedGrower.sol\":8291:8376  uint256 timeSinceLastClaim = block.timestamp -... */\n      swap2\n      swap3\n      pop\n        /* \"contracts/BUDS/SeedGrower.sol\":8387:8411  uint256 timeSinceStaking */\n      swap1\n        /* \"contracts/BUDS/SeedGrower.sol\":8414:8473  block.timestamp -... */\n      tag_217\n      swap1\n        /* \"contracts/BUDS/SeedGrower.sol\":8414:8429  block.timestamp */\n      timestamp\n        /* \"contracts/BUDS/SeedGrower.sol\":8414:8473  block.timestamp -... */\n      tag_132\n      jump\t// in\n    tag_217:\n        /* \"contracts/BUDS/SeedGrower.sol\":8387:8473  uint256 timeSinceStaking = block.timestamp -... */\n      swap1\n      pop\n        /* \"contracts/BUDS/SeedGrower.sol\":1426:1435  7 seconds */\n      0x07\n        /* \"contracts/BUDS/SeedGrower.sol\":8504:8522  timeSinceLastClaim */\n      dup3\n        /* \"contracts/BUDS/SeedGrower.sol\":8504:8547  timeSinceLastClaim < MINIMUM_CLAIM_INTERVAL */\n      lt\n        /* \"contracts/BUDS/SeedGrower.sol\":8504:8594  timeSinceLastClaim < MINIMUM_CLAIM_INTERVAL ||... */\n      dup1\n      tag_218\n      jumpi\n      pop\n        /* \"contracts/BUDS/SeedGrower.sol\":1578:1588  90 seconds */\n      0x5a\n        /* \"contracts/BUDS/SeedGrower.sol\":8564:8580  timeSinceStaking */\n      dup2\n        /* \"contracts/BUDS/SeedGrower.sol\":8564:8594  timeSinceStaking < NINETY_DAYS */\n      lt\n        /* \"contracts/BUDS/SeedGrower.sol\":8504:8594  timeSinceLastClaim < MINIMUM_CLAIM_INTERVAL ||... */\n    tag_218:\n        /* \"contracts/BUDS/SeedGrower.sol\":8486:8722  if (... */\n      iszero\n      tag_219\n      jumpi\n      pop\n        /* \"contracts/BUDS/SeedGrower.sol\":8709:8710  0 */\n      0x00\n      swap4\n        /* \"contracts/BUDS/SeedGrower.sol\":8205:9096  function getUnclaimedRewards(address user) external view returns (uint256) {... */\n      swap3\n      pop\n      pop\n      pop\n      jump\t// out\n        /* \"contracts/BUDS/SeedGrower.sol\":8486:8722  if (... */\n    tag_219:\n        /* \"contracts/BUDS/SeedGrower.sol\":8734:8755  uint256 unclaimedDays */\n      0x00\n        /* \"contracts/BUDS/SeedGrower.sol\":8758:8875  min(... */\n      tag_220\n        /* \"contracts/BUDS/SeedGrower.sol\":8776:8819  timeSinceLastClaim / MINIMUM_CLAIM_INTERVAL */\n      tag_221\n        /* \"contracts/BUDS/SeedGrower.sol\":1426:1435  7 seconds */\n      0x07\n        /* \"contracts/BUDS/SeedGrower.sol\":8776:8794  timeSinceLastClaim */\n      dup6\n        /* \"contracts/BUDS/SeedGrower.sol\":8776:8819  timeSinceLastClaim / MINIMUM_CLAIM_INTERVAL */\n      tag_146\n      jump\t// in\n    tag_221:\n        /* \"contracts/BUDS/SeedGrower.sol\":8834:8864  timeSinceStaking / NINETY_DAYS */\n      tag_163\n        /* \"contracts/BUDS/SeedGrower.sol\":1578:1588  90 seconds */\n      0x5a\n        /* \"contracts/BUDS/SeedGrower.sol\":8834:8850  timeSinceStaking */\n      dup6\n        /* \"contracts/BUDS/SeedGrower.sol\":8834:8864  timeSinceStaking / NINETY_DAYS */\n      tag_146\n      jump\t// in\n        /* \"contracts/BUDS/SeedGrower.sol\":8758:8875  min(... */\n    tag_220:\n        /* \"contracts/BUDS/SeedGrower.sol\":8967:8984  totalStakedTokens */\n      sload(0x09)\n      sub(shl(0xa0, 0x01), 0x01)\n        /* \"contracts/BUDS/SeedGrower.sol\":8946:8964  stakedTokens[user] */\n      dup8\n      and\n        /* \"contracts/BUDS/SeedGrower.sol\":8888:8907  uint256 dailyReward */\n      0x00\n        /* \"contracts/BUDS/SeedGrower.sol\":8946:8964  stakedTokens[user] */\n      swap1\n      dup2\n      mstore\n        /* \"contracts/BUDS/SeedGrower.sol\":8946:8958  stakedTokens */\n      0x01\n        /* \"contracts/BUDS/SeedGrower.sol\":8946:8964  stakedTokens[user] */\n      0x20\n      mstore\n      0x40\n      dup2\n      keccak256\n      sload\n        /* \"contracts/BUDS/SeedGrower.sol\":8734:8875  uint256 unclaimedDays = min(... */\n      swap3\n      swap4\n      pop\n        /* \"contracts/BUDS/SeedGrower.sol\":8888:8907  uint256 dailyReward */\n      swap2\n        /* \"contracts/BUDS/SeedGrower.sol\":8939:8942  365 */\n      0x016d\n        /* \"contracts/BUDS/SeedGrower.sol\":8912:8925  annualRewards */\n      0x12\n        /* \"contracts/BUDS/SeedGrower.sol\":8888:8907  uint256 dailyReward */\n      dup5\n        /* \"contracts/BUDS/SeedGrower.sol\":8926:8935  yearNow() */\n      tag_223\n        /* \"contracts/BUDS/SeedGrower.sol\":8926:8933  yearNow */\n      tag_144\n        /* \"contracts/BUDS/SeedGrower.sol\":8926:8935  yearNow() */\n      jump\t// in\n    tag_223:\n        /* \"contracts/BUDS/SeedGrower.sol\":8912:8936  annualRewards[yearNow()] */\n      dup2\n      mstore\n      0x20\n      add\n      swap1\n      dup2\n      mstore\n      0x20\n      add\n      0x00\n      keccak256\n      sload\n        /* \"contracts/BUDS/SeedGrower.sol\":8912:8942  annualRewards[yearNow()] / 365 */\n      tag_224\n      swap2\n      swap1\n      tag_146\n      jump\t// in\n    tag_224:\n        /* \"contracts/BUDS/SeedGrower.sol\":8911:8964  (annualRewards[yearNow()] / 365) * stakedTokens[user] */\n      tag_225\n      swap2\n      swap1\n      tag_158\n      jump\t// in\n    tag_225:\n        /* \"contracts/BUDS/SeedGrower.sol\":8911:8984  (annualRewards[yearNow()] / 365) * stakedTokens[user] / totalStakedTokens */\n      tag_226\n      swap2\n      swap1\n      tag_146\n      jump\t// in\n    tag_226:\n        /* \"contracts/BUDS/SeedGrower.sol\":8888:8984  uint256 dailyReward =  (annualRewards[yearNow()] / 365) * stakedTokens[user] / totalStakedTokens */\n      swap1\n      pop\n        /* \"contracts/BUDS/SeedGrower.sol\":8996:9021  uint256 accumulatedReward */\n      0x00\n        /* \"contracts/BUDS/SeedGrower.sol\":9024:9051  dailyReward * unclaimedDays */\n      tag_227\n        /* \"contracts/BUDS/SeedGrower.sol\":9038:9051  unclaimedDays */\n      dup4\n        /* \"contracts/BUDS/SeedGrower.sol\":8888:8984  uint256 dailyReward =  (annualRewards[yearNow()] / 365) * stakedTokens[user] / totalStakedTokens */\n      dup4\n        /* \"contracts/BUDS/SeedGrower.sol\":9024:9051  dailyReward * unclaimedDays */\n      tag_158\n      jump\t// in\n    tag_227:\n        /* \"contracts/BUDS/SeedGrower.sol\":8996:9051  uint256 accumulatedReward = dailyReward * unclaimedDays */\n      swap8\n        /* \"contracts/BUDS/SeedGrower.sol\":8205:9096  function getUnclaimedRewards(address user) external view returns (uint256) {... */\n      swap7\n      pop\n      pop\n      pop\n      pop\n      pop\n      pop\n      pop\n      jump\t// out\n        /* \"contracts/BUDS/SeedGrower.sol\":9192:9366  function withdrawExcess(address token, uint256 amount) external {... */\n    tag_74:\n        /* \"contracts/BUDS/SeedGrower.sol\":9289:9294  owner */\n      and(sub(shl(0xa0, 0x01), 0x01), sload(0x07))\n        /* \"contracts/BUDS/SeedGrower.sol\":9275:9285  msg.sender */\n      caller\n        /* \"contracts/BUDS/SeedGrower.sol\":9275:9294  msg.sender == owner */\n      eq\n        /* \"contracts/BUDS/SeedGrower.sol\":9267:9310  require(msg.sender == owner, \"not Allowed\") */\n      tag_229\n      jumpi\n      mload(0x40)\n      shl(0xe5, 0x461bcd)\n      dup2\n      mstore\n        /* \"#utility.yul\":5811:5813   */\n      0x20\n        /* \"contracts/BUDS/SeedGrower.sol\":9267:9310  require(msg.sender == owner, \"not Allowed\") */\n      0x04\n      dup3\n      add\n        /* \"#utility.yul\":5793:5814   */\n      mstore\n        /* \"#utility.yul\":5850:5852   */\n      0x0b\n        /* \"#utility.yul\":5830:5848   */\n      0x24\n      dup3\n      add\n        /* \"#utility.yul\":5823:5853   */\n      mstore\n      shl(0xaa, 0x1b9bdd08105b1b1bddd959)\n        /* \"#utility.yul\":5869:5887   */\n      0x44\n      dup3\n      add\n        /* \"#utility.yul\":5862:5903   */\n      mstore\n        /* \"#utility.yul\":5920:5938   */\n      0x64\n      add\n        /* \"contracts/BUDS/SeedGrower.sol\":9267:9310  require(msg.sender == owner, \"not Allowed\") */\n      tag_135\n        /* \"#utility.yul\":5609:5944   */\n      jump\n        /* \"contracts/BUDS/SeedGrower.sol\":9267:9310  require(msg.sender == owner, \"not Allowed\") */\n    tag_229:\n        /* \"contracts/BUDS/SeedGrower.sol\":9344:9349  owner */\n      sload(0x07)\n        /* \"contracts/BUDS/SeedGrower.sol\":9321:9358  IERC20(token).transfer(owner, amount) */\n      mload(0x40)\n      shl(0xe0, 0xa9059cbb)\n      dup2\n      mstore\n      sub(shl(0xa0, 0x01), 0x01)\n        /* \"contracts/BUDS/SeedGrower.sol\":9344:9349  owner */\n      swap2\n      dup3\n      and\n        /* \"contracts/BUDS/SeedGrower.sol\":9321:9358  IERC20(token).transfer(owner, amount) */\n      0x04\n      dup3\n      add\n        /* \"#utility.yul\":3950:4001   */\n      mstore\n        /* \"#utility.yul\":4017:4035   */\n      0x24\n      dup2\n      add\n        /* \"#utility.yul\":4010:4044   */\n      dup4\n      swap1\n      mstore\n        /* \"contracts/BUDS/SeedGrower.sol\":9321:9343  IERC20(token).transfer */\n      swap1\n      dup4\n      and\n      swap1\n      0xa9059cbb\n      swap1\n        /* \"#utility.yul\":3923:3941   */\n      0x44\n      add\n        /* \"contracts/BUDS/SeedGrower.sol\":9321:9358  IERC20(token).transfer(owner, amount) */\n      0x20\n      mload(0x40)\n      dup1\n      dup4\n      sub\n      dup2\n      0x00\n      dup8\n      gas\n      call\n      iszero\n      dup1\n      iszero\n      tag_234\n      jumpi\n      returndatasize\n      0x00\n      dup1\n      returndatacopy\n      revert(0x00, returndatasize)\n    tag_234:\n      pop\n      pop\n      pop\n      pop\n      mload(0x40)\n      returndatasize\n      not(0x1f)\n      0x1f\n      dup3\n      add\n      and\n      dup3\n      add\n      dup1\n      0x40\n      mstore\n      pop\n      dup2\n      add\n      swap1\n      tag_235\n      swap2\n      swap1\n      tag_188\n      jump\t// in\n    tag_235:\n      pop\n        /* \"contracts/BUDS/SeedGrower.sol\":9192:9366  function withdrawExcess(address token, uint256 amount) external {... */\n      pop\n      pop\n      jump\t// out\n        /* \"contracts/BUDS/SeedGrower.sol\":9418:9575  function setUniswapPool(address _uniswapPool) external {... */\n    tag_91:\n        /* \"contracts/BUDS/SeedGrower.sol\":9506:9511  owner */\n      and(sub(shl(0xa0, 0x01), 0x01), sload(0x07))\n        /* \"contracts/BUDS/SeedGrower.sol\":9492:9502  msg.sender */\n      caller\n        /* \"contracts/BUDS/SeedGrower.sol\":9492:9511  msg.sender == owner */\n      eq\n        /* \"contracts/BUDS/SeedGrower.sol\":9484:9527  require(msg.sender == owner, \"not Allowed\") */\n      tag_237\n      jumpi\n      mload(0x40)\n      shl(0xe5, 0x461bcd)\n      dup2\n      mstore\n        /* \"#utility.yul\":5811:5813   */\n      0x20\n        /* \"contracts/BUDS/SeedGrower.sol\":9484:9527  require(msg.sender == owner, \"not Allowed\") */\n      0x04\n      dup3\n      add\n        /* \"#utility.yul\":5793:5814   */\n      mstore\n        /* \"#utility.yul\":5850:5852   */\n      0x0b\n        /* \"#utility.yul\":5830:5848   */\n      0x24\n      dup3\n      add\n        /* \"#utility.yul\":5823:5853   */\n      mstore\n      shl(0xaa, 0x1b9bdd08105b1b1bddd959)\n        /* \"#utility.yul\":5869:5887   */\n      0x44\n      dup3\n      add\n        /* \"#utility.yul\":5862:5903   */\n      mstore\n        /* \"#utility.yul\":5920:5938   */\n      0x64\n      add\n        /* \"contracts/BUDS/SeedGrower.sol\":9484:9527  require(msg.sender == owner, \"not Allowed\") */\n      tag_135\n        /* \"#utility.yul\":5609:5944   */\n      jump\n        /* \"contracts/BUDS/SeedGrower.sol\":9484:9527  require(msg.sender == owner, \"not Allowed\") */\n    tag_237:\n        /* \"contracts/BUDS/SeedGrower.sol\":9538:9552  lpTokenAddress */\n      0x05\n        /* \"contracts/BUDS/SeedGrower.sol\":9538:9567  lpTokenAddress = _uniswapPool */\n      dup1\n      sload\n      not(sub(shl(0xa0, 0x01), 0x01))\n      and\n      sub(shl(0xa0, 0x01), 0x01)\n      swap3\n      swap1\n      swap3\n      and\n      swap2\n      swap1\n      swap2\n      or\n      swap1\n      sstore\n        /* \"contracts/BUDS/SeedGrower.sol\":9418:9575  function setUniswapPool(address _uniswapPool) external {... */\n      jump\t// out\n        /* \"contracts/BUDS/SeedGrower.sol\":9587:9895  function reduceCommission() external {... */\n    tag_93:\n        /* \"contracts/BUDS/SeedGrower.sol\":9643:9654  rewardToken */\n      sload(0x06)\n        /* \"contracts/BUDS/SeedGrower.sol\":9643:9676  rewardToken.balanceOf(msg.sender) */\n      mload(0x40)\n      shl(0xe0, 0x70a08231)\n      dup2\n      mstore\n        /* \"contracts/BUDS/SeedGrower.sol\":9665:9675  msg.sender */\n      caller\n        /* \"contracts/BUDS/SeedGrower.sol\":9643:9676  rewardToken.balanceOf(msg.sender) */\n      0x04\n      dup3\n      add\n        /* \"#utility.yul\":1600:1651   */\n      mstore\n        /* \"contracts/BUDS/SeedGrower.sol\":9679:9680  0 */\n      0x00\n      swap2\n      sub(shl(0xa0, 0x01), 0x01)\n        /* \"contracts/BUDS/SeedGrower.sol\":9643:9654  rewardToken */\n      and\n      swap1\n        /* \"contracts/BUDS/SeedGrower.sol\":9643:9664  rewardToken.balanceOf */\n      0x70a08231\n      swap1\n        /* \"#utility.yul\":1573:1591   */\n      0x24\n      add\n        /* \"contracts/BUDS/SeedGrower.sol\":9643:9676  rewardToken.balanceOf(msg.sender) */\n      0x20\n      mload(0x40)\n      dup1\n      dup4\n      sub\n      dup2\n      dup7\n      gas\n      staticcall\n      iszero\n      dup1\n      iszero\n      tag_242\n      jumpi\n      returndatasize\n      0x00\n      dup1\n      returndatacopy\n      revert(0x00, returndatasize)\n    tag_242:\n      pop\n      pop\n      pop\n      pop\n      mload(0x40)\n      returndatasize\n      not(0x1f)\n      0x1f\n      dup3\n      add\n      and\n      dup3\n      add\n      dup1\n      0x40\n      mstore\n      pop\n      dup2\n      add\n      swap1\n      tag_243\n      swap2\n      swap1\n      tag_199\n      jump\t// in\n    tag_243:\n        /* \"contracts/BUDS/SeedGrower.sol\":9643:9680  rewardToken.balanceOf(msg.sender) > 0 */\n      gt\n        /* \"contracts/BUDS/SeedGrower.sol\":9635:9698  require(rewardToken.balanceOf(msg.sender) > 0, \"Zero Holdings\") */\n      tag_244\n      jumpi\n      mload(0x40)\n      shl(0xe5, 0x461bcd)\n      dup2\n      mstore\n        /* \"#utility.yul\":6151:6153   */\n      0x20\n        /* \"contracts/BUDS/SeedGrower.sol\":9635:9698  require(rewardToken.balanceOf(msg.sender) > 0, \"Zero Holdings\") */\n      0x04\n      dup3\n      add\n        /* \"#utility.yul\":6133:6154   */\n      mstore\n        /* \"#utility.yul\":6190:6192   */\n      0x0d\n        /* \"#utility.yul\":6170:6188   */\n      0x24\n      dup3\n      add\n        /* \"#utility.yul\":6163:6193   */\n      mstore\n      shl(0x98, 0x5a65726f20486f6c64696e6773)\n        /* \"#utility.yul\":6209:6227   */\n      0x44\n      dup3\n      add\n        /* \"#utility.yul\":6202:6245   */\n      mstore\n        /* \"#utility.yul\":6262:6280   */\n      0x64\n      add\n        /* \"contracts/BUDS/SeedGrower.sol\":9635:9698  require(rewardToken.balanceOf(msg.sender) > 0, \"Zero Holdings\") */\n      tag_135\n        /* \"#utility.yul\":5949:6286   */\n      jump\n        /* \"contracts/BUDS/SeedGrower.sol\":9635:9698  require(rewardToken.balanceOf(msg.sender) > 0, \"Zero Holdings\") */\n    tag_244:\n        /* \"contracts/BUDS/SeedGrower.sol\":9745:9755  msg.sender */\n      caller\n        /* \"contracts/BUDS/SeedGrower.sol\":9732:9756  alreadyVoted[msg.sender] */\n      0x00\n      swap1\n      dup2\n      mstore\n        /* \"contracts/BUDS/SeedGrower.sol\":9732:9744  alreadyVoted */\n      0x04\n        /* \"contracts/BUDS/SeedGrower.sol\":9732:9756  alreadyVoted[msg.sender] */\n      0x20\n      mstore\n      0x40\n      swap1\n      keccak256\n      sload\n      0xff\n      and\n        /* \"contracts/BUDS/SeedGrower.sol\":9731:9756  !alreadyVoted[msg.sender] */\n      iszero\n        /* \"contracts/BUDS/SeedGrower.sol\":9709:9822  require(... */\n      tag_247\n      jumpi\n      mload(0x40)\n      shl(0xe5, 0x461bcd)\n      dup2\n      mstore\n        /* \"#utility.yul\":6493:6495   */\n      0x20\n        /* \"contracts/BUDS/SeedGrower.sol\":9709:9822  require(... */\n      0x04\n      dup3\n      add\n        /* \"#utility.yul\":6475:6496   */\n      mstore\n        /* \"#utility.yul\":6532:6534   */\n      0x26\n        /* \"#utility.yul\":6512:6530   */\n      0x24\n      dup3\n      add\n        /* \"#utility.yul\":6505:6535   */\n      mstore\n        /* \"#utility.yul\":6571:6605   */\n      0x596f75206861766520616c7265616479206170706c69656420666f7220726564\n        /* \"#utility.yul\":6551:6569   */\n      0x44\n      dup3\n      add\n        /* \"#utility.yul\":6544:6606   */\n      mstore\n      shl(0xd1, 0x3ab1ba34b7b7)\n        /* \"#utility.yul\":6622:6640   */\n      0x64\n      dup3\n      add\n        /* \"#utility.yul\":6615:6651   */\n      mstore\n        /* \"#utility.yul\":6668:6687   */\n      0x84\n      add\n        /* \"contracts/BUDS/SeedGrower.sol\":9709:9822  require(... */\n      tag_135\n        /* \"#utility.yul\":6291:6693   */\n      jump\n        /* \"contracts/BUDS/SeedGrower.sol\":9709:9822  require(... */\n    tag_247:\n        /* \"contracts/BUDS/SeedGrower.sol\":9833:9843  applicants */\n      0x0a\n        /* \"contracts/BUDS/SeedGrower.sol\":9833:9845  applicants++ */\n      dup1\n      sload\n      swap1\n        /* \"contracts/BUDS/SeedGrower.sol\":9833:9843  applicants */\n      0x00\n        /* \"contracts/BUDS/SeedGrower.sol\":9833:9845  applicants++ */\n      tag_250\n      dup4\n      tag_251\n      jump\t// in\n    tag_250:\n      swap1\n      swap2\n      sstore\n      pop\n      pop\n        /* \"contracts/BUDS/SeedGrower.sol\":9869:9879  msg.sender */\n      caller\n        /* \"contracts/BUDS/SeedGrower.sol\":9856:9880  alreadyVoted[msg.sender] */\n      0x00\n      swap1\n      dup2\n      mstore\n        /* \"contracts/BUDS/SeedGrower.sol\":9856:9868  alreadyVoted */\n      0x04\n        /* \"contracts/BUDS/SeedGrower.sol\":9856:9880  alreadyVoted[msg.sender] */\n      0x20\n      mstore\n      0x40\n      swap1\n      keccak256\n        /* \"contracts/BUDS/SeedGrower.sol\":9856:9887  alreadyVoted[msg.sender] = true */\n      dup1\n      sload\n      not(0xff)\n      and\n        /* \"contracts/BUDS/SeedGrower.sol\":9883:9887  true */\n      0x01\n        /* \"contracts/BUDS/SeedGrower.sol\":9856:9887  alreadyVoted[msg.sender] = true */\n      or\n      swap1\n      sstore\n        /* \"contracts/BUDS/SeedGrower.sol\":9587:9895  function reduceCommission() external {... */\n      jump\t// out\n        /* \"contracts/BUDS/SeedGrower.sol\":4324:4998  function unlockLP() public {... */\n    tag_109:\n        /* \"contracts/BUDS/SeedGrower.sol\":4402:4412  msg.sender */\n      caller\n        /* \"contracts/BUDS/SeedGrower.sol\":4385:4413  stakingStartTime[msg.sender] */\n      0x00\n      swap1\n      dup2\n      mstore\n        /* \"contracts/BUDS/SeedGrower.sol\":4385:4401  stakingStartTime */\n      0x03\n        /* \"contracts/BUDS/SeedGrower.sol\":4385:4413  stakingStartTime[msg.sender] */\n      0x20\n      mstore\n      0x40\n      swap1\n      keccak256\n      sload\n        /* \"contracts/BUDS/SeedGrower.sol\":4385:4427  stakingStartTime[msg.sender] + NINETY_DAYS */\n      tag_253\n      swap1\n        /* \"contracts/BUDS/SeedGrower.sol\":1578:1588  90 seconds */\n      0x5a\n      swap1\n        /* \"contracts/BUDS/SeedGrower.sol\":4385:4427  stakingStartTime[msg.sender] + NINETY_DAYS */\n      tag_172\n      jump\t// in\n    tag_253:\n        /* \"contracts/BUDS/SeedGrower.sol\":4366:4381  block.timestamp */\n      timestamp\n        /* \"contracts/BUDS/SeedGrower.sol\":4366:4427  block.timestamp >= stakingStartTime[msg.sender] + NINETY_DAYS */\n      lt\n      iszero\n        /* \"contracts/BUDS/SeedGrower.sol\":4358:4460  require(block.timestamp >= stakingStartTime[msg.sender] + NINETY_DAYS, \"Cannot unlock before 90 days\") */\n      tag_254\n      jumpi\n      mload(0x40)\n      shl(0xe5, 0x461bcd)\n      dup2\n      mstore\n        /* \"#utility.yul\":7040:7042   */\n      0x20\n        /* \"contracts/BUDS/SeedGrower.sol\":4358:4460  require(block.timestamp >= stakingStartTime[msg.sender] + NINETY_DAYS, \"Cannot unlock before 90 days\") */\n      0x04\n      dup3\n      add\n        /* \"#utility.yul\":7022:7043   */\n      mstore\n        /* \"#utility.yul\":7079:7081   */\n      0x1c\n        /* \"#utility.yul\":7059:7077   */\n      0x24\n      dup3\n      add\n        /* \"#utility.yul\":7052:7082   */\n      mstore\n        /* \"#utility.yul\":7118:7148   */\n      0x43616e6e6f7420756e6c6f636b206265666f7265203930206461797300000000\n        /* \"#utility.yul\":7098:7116   */\n      0x44\n      dup3\n      add\n        /* \"#utility.yul\":7091:7149   */\n      mstore\n        /* \"#utility.yul\":7166:7184   */\n      0x64\n      add\n        /* \"contracts/BUDS/SeedGrower.sol\":4358:4460  require(block.timestamp >= stakingStartTime[msg.sender] + NINETY_DAYS, \"Cannot unlock before 90 days\") */\n      tag_135\n        /* \"#utility.yul\":6838:7190   */\n      jump\n        /* \"contracts/BUDS/SeedGrower.sol\":4358:4460  require(block.timestamp >= stakingStartTime[msg.sender] + NINETY_DAYS, \"Cannot unlock before 90 days\") */\n    tag_254:\n        /* \"contracts/BUDS/SeedGrower.sol\":4501:4511  msg.sender */\n      caller\n        /* \"contracts/BUDS/SeedGrower.sol\":4469:4489  uint256 lockedAmount */\n      0x00\n        /* \"contracts/BUDS/SeedGrower.sol\":4492:4512  lockInfo[msg.sender] */\n      swap1\n      dup2\n      mstore\n        /* \"contracts/BUDS/SeedGrower.sol\":4492:4500  lockInfo */\n      0x13\n        /* \"contracts/BUDS/SeedGrower.sol\":4492:4512  lockInfo[msg.sender] */\n      0x20\n      mstore\n      0x40\n      swap1\n      keccak256\n        /* \"contracts/BUDS/SeedGrower.sol\":4492:4519  lockInfo[msg.sender].amount */\n      sload\n        /* \"contracts/BUDS/SeedGrower.sol\":4540:4556  lockedAmount > 0 */\n      dup1\n        /* \"contracts/BUDS/SeedGrower.sol\":4532:4577  require(lockedAmount > 0, \"No locked tokens\") */\n      tag_257\n      jumpi\n      mload(0x40)\n      shl(0xe5, 0x461bcd)\n      dup2\n      mstore\n        /* \"#utility.yul\":7397:7399   */\n      0x20\n        /* \"contracts/BUDS/SeedGrower.sol\":4532:4577  require(lockedAmount > 0, \"No locked tokens\") */\n      0x04\n      dup3\n      add\n        /* \"#utility.yul\":7379:7400   */\n      mstore\n        /* \"#utility.yul\":7436:7438   */\n      0x10\n        /* \"#utility.yul\":7416:7434   */\n      0x24\n      dup3\n      add\n        /* \"#utility.yul\":7409:7439   */\n      mstore\n      shl(0x80, 0x4e6f206c6f636b656420746f6b656e73)\n        /* \"#utility.yul\":7455:7473   */\n      0x44\n      dup3\n      add\n        /* \"#utility.yul\":7448:7494   */\n      mstore\n        /* \"#utility.yul\":7511:7529   */\n      0x64\n      add\n        /* \"contracts/BUDS/SeedGrower.sol\":4532:4577  require(lockedAmount > 0, \"No locked tokens\") */\n      tag_135\n        /* \"#utility.yul\":7195:7535   */\n      jump\n        /* \"contracts/BUDS/SeedGrower.sol\":4532:4577  require(lockedAmount > 0, \"No locked tokens\") */\n    tag_257:\n        /* \"contracts/BUDS/SeedGrower.sol\":4655:4669  lpTokenAddress */\n      sload(0x05)\n        /* \"contracts/BUDS/SeedGrower.sol\":4648:4742  IERC20(lpTokenAddress).transfer(... */\n      mload(0x40)\n      shl(0xe0, 0xa9059cbb)\n      dup2\n      mstore\n        /* \"contracts/BUDS/SeedGrower.sol\":4694:4704  msg.sender */\n      caller\n        /* \"contracts/BUDS/SeedGrower.sol\":4648:4742  IERC20(lpTokenAddress).transfer(... */\n      0x04\n      dup3\n      add\n        /* \"#utility.yul\":3950:4001   */\n      mstore\n        /* \"#utility.yul\":4017:4035   */\n      0x24\n      dup2\n      add\n        /* \"#utility.yul\":4010:4044   */\n      dup4\n      swap1\n      mstore\n      sub(shl(0xa0, 0x01), 0x01)\n        /* \"contracts/BUDS/SeedGrower.sol\":4655:4669  lpTokenAddress */\n      swap1\n      swap2\n      and\n      swap1\n        /* \"contracts/BUDS/SeedGrower.sol\":4648:4679  IERC20(lpTokenAddress).transfer */\n      0xa9059cbb\n      swap1\n        /* \"#utility.yul\":3923:3941   */\n      0x44\n      add\n        /* \"contracts/BUDS/SeedGrower.sol\":4648:4742  IERC20(lpTokenAddress).transfer(... */\n      0x20\n      mload(0x40)\n      dup1\n      dup4\n      sub\n      dup2\n      0x00\n      dup8\n      gas\n      call\n      iszero\n      dup1\n      iszero\n      tag_262\n      jumpi\n      returndatasize\n      0x00\n      dup1\n      returndatacopy\n      revert(0x00, returndatasize)\n    tag_262:\n      pop\n      pop\n      pop\n      pop\n      mload(0x40)\n      returndatasize\n      not(0x1f)\n      0x1f\n      dup3\n      add\n      and\n      dup3\n      add\n      dup1\n      0x40\n      mstore\n      pop\n      dup2\n      add\n      swap1\n      tag_263\n      swap2\n      swap1\n      tag_188\n      jump\t// in\n    tag_263:\n        /* \"contracts/BUDS/SeedGrower.sol\":4630:4786  require(... */\n      tag_264\n      jumpi\n      mload(0x40)\n      shl(0xe5, 0x461bcd)\n      dup2\n      mstore\n        /* \"#utility.yul\":5458:5460   */\n      0x20\n        /* \"contracts/BUDS/SeedGrower.sol\":4630:4786  require(... */\n      0x04\n      dup3\n      add\n        /* \"#utility.yul\":5440:5461   */\n      mstore\n        /* \"#utility.yul\":5497:5499   */\n      0x18\n        /* \"#utility.yul\":5477:5495   */\n      0x24\n      dup3\n      add\n        /* \"#utility.yul\":5470:5500   */\n      mstore\n      shl(0x42, 0x1314081d1bdad95b881d1c985b9cd9995c8819985a5b1959)\n        /* \"#utility.yul\":5516:5534   */\n      0x44\n      dup3\n      add\n        /* \"#utility.yul\":5509:5563   */\n      mstore\n        /* \"#utility.yul\":5580:5598   */\n      0x64\n      add\n        /* \"contracts/BUDS/SeedGrower.sol\":4630:4786  require(... */\n      tag_135\n        /* \"#utility.yul\":5256:5604   */\n      jump\n        /* \"contracts/BUDS/SeedGrower.sol\":4630:4786  require(... */\n    tag_264:\n        /* \"contracts/BUDS/SeedGrower.sol\":4851:4863  lockedAmount */\n      dup1\n        /* \"contracts/BUDS/SeedGrower.sol\":4830:4847  totalStakedTokens */\n      0x09\n      0x00\n        /* \"contracts/BUDS/SeedGrower.sol\":4830:4863  totalStakedTokens -= lockedAmount */\n      dup3\n      dup3\n      sload\n      tag_266\n      swap2\n      swap1\n      tag_132\n      jump\t// in\n    tag_266:\n      swap1\n      swap2\n      sstore\n      pop\n      pop\n        /* \"contracts/BUDS/SeedGrower.sol\":4883:4893  msg.sender */\n      caller\n        /* \"contracts/BUDS/SeedGrower.sol\":4870:4894  stakedTokens[msg.sender] */\n      0x00\n      swap1\n      dup2\n      mstore\n        /* \"contracts/BUDS/SeedGrower.sol\":4870:4882  stakedTokens */\n      0x01\n        /* \"contracts/BUDS/SeedGrower.sol\":4870:4894  stakedTokens[msg.sender] */\n      0x20\n      mstore\n      0x40\n      dup2\n      keccak256\n        /* \"contracts/BUDS/SeedGrower.sol\":4870:4910  stakedTokens[msg.sender] -= lockedAmount */\n      dup1\n      sload\n        /* \"contracts/BUDS/SeedGrower.sol\":4898:4910  lockedAmount */\n      dup4\n      swap3\n        /* \"contracts/BUDS/SeedGrower.sol\":4870:4894  stakedTokens[msg.sender] */\n      swap1\n        /* \"contracts/BUDS/SeedGrower.sol\":4870:4910  stakedTokens[msg.sender] -= lockedAmount */\n      tag_267\n      swap1\n        /* \"contracts/BUDS/SeedGrower.sol\":4898:4910  lockedAmount */\n      dup5\n      swap1\n        /* \"contracts/BUDS/SeedGrower.sol\":4870:4910  stakedTokens[msg.sender] -= lockedAmount */\n      tag_132\n      jump\t// in\n    tag_267:\n      swap1\n      swap2\n      sstore\n      pop\n      pop\n        /* \"contracts/BUDS/SeedGrower.sol\":4933:4943  msg.sender */\n      caller\n        /* \"contracts/BUDS/SeedGrower.sol\":4924:4944  lockInfo[msg.sender] */\n      0x00\n      dup2\n      dup2\n      mstore\n        /* \"contracts/BUDS/SeedGrower.sol\":4924:4932  lockInfo */\n      0x13\n        /* \"contracts/BUDS/SeedGrower.sol\":4924:4944  lockInfo[msg.sender] */\n      0x20\n      mstore\n      0x40\n      dup1\n      dup3\n      keccak256\n        /* \"contracts/BUDS/SeedGrower.sol\":4917:4944  delete lockInfo[msg.sender] */\n      dup3\n      dup2\n      sstore\n      0x01\n      add\n      swap2\n      swap1\n      swap2\n      sstore\n        /* \"contracts/BUDS/SeedGrower.sol\":4958:4994  UnlockedLP(msg.sender, lockedAmount) */\n      mload\n      0x580ec6003f06a23971f7ccdb029ae688764884d7361687066e352d1ff6024473\n      swap1\n      tag_268\n      swap1\n        /* \"contracts/BUDS/SeedGrower.sol\":4981:4993  lockedAmount */\n      dup5\n        /* \"#utility.yul\":906:931   */\n      dup2\n      mstore\n        /* \"#utility.yul\":894:896   */\n      0x20\n        /* \"#utility.yul\":879:897   */\n      add\n      swap1\n        /* \"#utility.yul\":760:937   */\n      jump\n        /* \"contracts/BUDS/SeedGrower.sol\":4958:4994  UnlockedLP(msg.sender, lockedAmount) */\n    tag_268:\n      mload(0x40)\n      dup1\n      swap2\n      sub\n      swap1\n      log2\n        /* \"contracts/BUDS/SeedGrower.sol\":4351:4998  {... */\n      pop\n        /* \"contracts/BUDS/SeedGrower.sol\":4324:4998  function unlockLP() public {... */\n      jump\t// out\n        /* \"contracts/BUDS/SeedGrower.sol\":5636:5744  function getCurrentMonth() public view returns (uint256) {... */\n    tag_115:\n        /* \"contracts/BUDS/SeedGrower.sol\":5684:5691  uint256 */\n      0x00\n        /* \"contracts/BUDS/SeedGrower.sol\":5711:5736  block.timestamp / 30 days */\n      tag_270\n        /* \"contracts/BUDS/SeedGrower.sol\":5729:5736  30 days */\n      0x278d00\n        /* \"contracts/BUDS/SeedGrower.sol\":5711:5726  block.timestamp */\n      timestamp\n        /* \"contracts/BUDS/SeedGrower.sol\":5711:5736  block.timestamp / 30 days */\n      tag_146\n      jump\t// in\n    tag_270:\n        /* \"contracts/BUDS/SeedGrower.sol\":5704:5736  return block.timestamp / 30 days */\n      swap1\n      pop\n        /* \"contracts/BUDS/SeedGrower.sol\":5636:5744  function getCurrentMonth() public view returns (uint256) {... */\n      swap1\n      jump\t// out\n        /* \"contracts/BUDS/SeedGrower.sol\":5122:5264  function yearNow() internal view returns (uint256) {... */\n    tag_144:\n        /* \"contracts/BUDS/SeedGrower.sol\":5164:5171  uint256 */\n      0x00\n        /* \"contracts/BUDS/SeedGrower.sol\":5191:5217  block.timestamp / 365 days */\n      tag_270\n        /* \"contracts/BUDS/SeedGrower.sol\":5209:5217  365 days */\n      0x01e13380\n        /* \"contracts/BUDS/SeedGrower.sol\":5191:5206  block.timestamp */\n      timestamp\n        /* \"contracts/BUDS/SeedGrower.sol\":5191:5217  block.timestamp / 365 days */\n      tag_146\n      jump\t// in\n        /* \"contracts/BUDS/SeedGrower.sol\":5008:5114  function min(uint256 a, uint256 b) internal pure returns (uint256) {... */\n    tag_164:\n        /* \"contracts/BUDS/SeedGrower.sol\":5066:5073  uint256 */\n      0x00\n        /* \"contracts/BUDS/SeedGrower.sol\":5097:5098  b */\n      dup2\n        /* \"contracts/BUDS/SeedGrower.sol\":5093:5094  a */\n      dup4\n        /* \"contracts/BUDS/SeedGrower.sol\":5093:5098  a < b */\n      lt\n        /* \"contracts/BUDS/SeedGrower.sol\":5093:5106  a < b ? a : b */\n      tag_274\n      jumpi\n        /* \"contracts/BUDS/SeedGrower.sol\":5105:5106  b */\n      dup2\n        /* \"contracts/BUDS/SeedGrower.sol\":5093:5106  a < b ? a : b */\n      jump(tag_275)\n    tag_274:\n        /* \"contracts/BUDS/SeedGrower.sol\":5101:5102  a */\n      dup3\n        /* \"contracts/BUDS/SeedGrower.sol\":5093:5106  a < b ? a : b */\n    tag_275:\n        /* \"contracts/BUDS/SeedGrower.sol\":5086:5106  return a < b ? a : b */\n      swap1\n      pop\n        /* \"contracts/BUDS/SeedGrower.sol\":5008:5114  function min(uint256 a, uint256 b) internal pure returns (uint256) {... */\n    tag_273:\n      swap3\n      swap2\n      pop\n      pop\n      jump\t// out\n        /* \"contracts/BUDS/SeedGrower.sol\":5272:5586  function marketingFee() internal returns (uint256) {... */\n    tag_178:\n        /* \"contracts/BUDS/SeedGrower.sol\":5314:5321  uint256 */\n      0x00\n        /* \"contracts/BUDS/SeedGrower.sol\":5352:5353  1 */\n      0x01\n        /* \"contracts/BUDS/SeedGrower.sol\":5338:5348  applicants */\n      sload(0x0a)\n        /* \"contracts/BUDS/SeedGrower.sol\":5338:5353  applicants >= 1 */\n      lt\n        /* \"contracts/BUDS/SeedGrower.sol\":5334:5556  if (applicants >= 1) {... */\n      tag_277\n      jumpi\n        /* \"contracts/BUDS/SeedGrower.sol\":5376:5378  50 */\n      0x32\n        /* \"contracts/BUDS/SeedGrower.sol\":5370:5373  fee */\n      0x0b\n        /* \"contracts/BUDS/SeedGrower.sol\":5370:5378  fee = 50 */\n      sstore\n        /* \"contracts/BUDS/SeedGrower.sol\":5334:5556  if (applicants >= 1) {... */\n      jump(tag_282)\n    tag_277:\n        /* \"contracts/BUDS/SeedGrower.sol\":5414:5415  2 */\n      0x02\n        /* \"contracts/BUDS/SeedGrower.sol\":5400:5410  applicants */\n      sload(0x0a)\n        /* \"contracts/BUDS/SeedGrower.sol\":5400:5415  applicants >= 2 */\n      lt\n        /* \"contracts/BUDS/SeedGrower.sol\":5396:5556  if (applicants >= 2) {... */\n      tag_279\n      jumpi\n        /* \"contracts/BUDS/SeedGrower.sol\":5438:5440  25 */\n      0x19\n        /* \"contracts/BUDS/SeedGrower.sol\":5432:5435  fee */\n      0x0b\n        /* \"contracts/BUDS/SeedGrower.sol\":5432:5440  fee = 25 */\n      sstore\n        /* \"contracts/BUDS/SeedGrower.sol\":5396:5556  if (applicants >= 2) {... */\n      jump(tag_282)\n    tag_279:\n        /* \"contracts/BUDS/SeedGrower.sol\":5476:5477  3 */\n      0x03\n        /* \"contracts/BUDS/SeedGrower.sol\":5462:5472  applicants */\n      sload(0x0a)\n        /* \"contracts/BUDS/SeedGrower.sol\":5462:5477  applicants >= 3 */\n      lt\n        /* \"contracts/BUDS/SeedGrower.sol\":5458:5556  if (applicants >= 3) {... */\n      tag_281\n      jumpi\n        /* \"contracts/BUDS/SeedGrower.sol\":5500:5502  12 */\n      0x0c\n        /* \"contracts/BUDS/SeedGrower.sol\":5494:5497  fee */\n      0x0b\n        /* \"contracts/BUDS/SeedGrower.sol\":5494:5502  fee = 12 */\n      sstore\n        /* \"contracts/BUDS/SeedGrower.sol\":5458:5556  if (applicants >= 3) {... */\n      jump(tag_282)\n    tag_281:\n        /* \"contracts/BUDS/SeedGrower.sol\":5541:5544  100 */\n      0x64\n        /* \"contracts/BUDS/SeedGrower.sol\":5535:5538  fee */\n      0x0b\n        /* \"contracts/BUDS/SeedGrower.sol\":5535:5544  fee = 100 */\n      sstore\n        /* \"contracts/BUDS/SeedGrower.sol\":5458:5556  if (applicants >= 3) {... */\n    tag_282:\n      pop\n        /* \"contracts/BUDS/SeedGrower.sol\":5575:5578  fee */\n      sload(0x0b)\n      swap1\n        /* \"contracts/BUDS/SeedGrower.sol\":5272:5586  function marketingFee() internal returns (uint256) {... */\n      jump\t// out\n        /* \"#utility.yul\":14:187   */\n    tag_283:\n        /* \"#utility.yul\":82:102   */\n      dup1\n      calldataload\n      sub(shl(0xa0, 0x01), 0x01)\n        /* \"#utility.yul\":131:162   */\n      dup2\n      and\n        /* \"#utility.yul\":121:163   */\n      dup2\n      eq\n        /* \"#utility.yul\":111:181   */\n      tag_287\n      jumpi\n        /* \"#utility.yul\":177:178   */\n      0x00\n        /* \"#utility.yul\":174:175   */\n      dup1\n        /* \"#utility.yul\":167:179   */\n      revert\n        /* \"#utility.yul\":111:181   */\n    tag_287:\n        /* \"#utility.yul\":14:187   */\n      swap2\n      swap1\n      pop\n      jump\t// out\n        /* \"#utility.yul\":192:378   */\n    tag_38:\n        /* \"#utility.yul\":251:257   */\n      0x00\n        /* \"#utility.yul\":304:306   */\n      0x20\n        /* \"#utility.yul\":292:301   */\n      dup3\n        /* \"#utility.yul\":283:290   */\n      dup5\n        /* \"#utility.yul\":279:302   */\n      sub\n        /* \"#utility.yul\":275:307   */\n      slt\n        /* \"#utility.yul\":272:324   */\n      iszero\n      tag_289\n      jumpi\n        /* \"#utility.yul\":320:321   */\n      0x00\n        /* \"#utility.yul\":317:318   */\n      dup1\n        /* \"#utility.yul\":310:322   */\n      revert\n        /* \"#utility.yul\":272:324   */\n    tag_289:\n        /* \"#utility.yul\":343:372   */\n      tag_275\n        /* \"#utility.yul\":362:371   */\n      dup3\n        /* \"#utility.yul\":343:372   */\n      tag_283\n      jump\t// in\n        /* \"#utility.yul\":575:755   */\n    tag_46:\n        /* \"#utility.yul\":634:640   */\n      0x00\n        /* \"#utility.yul\":687:689   */\n      0x20\n        /* \"#utility.yul\":675:684   */\n      dup3\n        /* \"#utility.yul\":666:673   */\n      dup5\n        /* \"#utility.yul\":662:685   */\n      sub\n        /* \"#utility.yul\":658:690   */\n      slt\n        /* \"#utility.yul\":655:707   */\n      iszero\n      tag_293\n      jumpi\n        /* \"#utility.yul\":703:704   */\n      0x00\n        /* \"#utility.yul\":700:701   */\n      dup1\n        /* \"#utility.yul\":693:705   */\n      revert\n        /* \"#utility.yul\":655:707   */\n    tag_293:\n      pop\n        /* \"#utility.yul\":726:749   */\n      calldataload\n      swap2\n        /* \"#utility.yul\":575:755   */\n      swap1\n      pop\n      jump\t// out\n        /* \"#utility.yul\":1195:1449   */\n    tag_73:\n        /* \"#utility.yul\":1263:1269   */\n      0x00\n        /* \"#utility.yul\":1271:1277   */\n      dup1\n        /* \"#utility.yul\":1324:1326   */\n      0x40\n        /* \"#utility.yul\":1312:1321   */\n      dup4\n        /* \"#utility.yul\":1303:1310   */\n      dup6\n        /* \"#utility.yul\":1299:1322   */\n      sub\n        /* \"#utility.yul\":1295:1327   */\n      slt\n        /* \"#utility.yul\":1292:1344   */\n      iszero\n      tag_297\n      jumpi\n        /* \"#utility.yul\":1340:1341   */\n      0x00\n        /* \"#utility.yul\":1337:1338   */\n      dup1\n        /* \"#utility.yul\":1330:1342   */\n      revert\n        /* \"#utility.yul\":1292:1344   */\n    tag_297:\n        /* \"#utility.yul\":1363:1392   */\n      tag_298\n        /* \"#utility.yul\":1382:1391   */\n      dup4\n        /* \"#utility.yul\":1363:1392   */\n      tag_283\n      jump\t// in\n    tag_298:\n        /* \"#utility.yul\":1353:1392   */\n      swap5\n        /* \"#utility.yul\":1439:1441   */\n      0x20\n        /* \"#utility.yul\":1424:1442   */\n      swap4\n      swap1\n      swap4\n      add\n        /* \"#utility.yul\":1411:1443   */\n      calldataload\n      swap4\n      pop\n      pop\n      pop\n        /* \"#utility.yul\":1195:1449   */\n      jump\t// out\n        /* \"#utility.yul\":1883:2010   */\n    tag_284:\n        /* \"#utility.yul\":1944:1954   */\n      0x4e487b71\n        /* \"#utility.yul\":1939:1942   */\n      0xe0\n        /* \"#utility.yul\":1935:1955   */\n      shl\n        /* \"#utility.yul\":1932:1933   */\n      0x00\n        /* \"#utility.yul\":1925:1956   */\n      mstore\n        /* \"#utility.yul\":1975:1979   */\n      0x11\n        /* \"#utility.yul\":1972:1973   */\n      0x04\n        /* \"#utility.yul\":1965:1980   */\n      mstore\n        /* \"#utility.yul\":1999:2003   */\n      0x24\n        /* \"#utility.yul\":1996:1997   */\n      0x00\n        /* \"#utility.yul\":1989:2004   */\n      revert\n        /* \"#utility.yul\":2015:2143   */\n    tag_132:\n        /* \"#utility.yul\":2082:2091   */\n      dup2\n      dup2\n      sub\n        /* \"#utility.yul\":2103:2114   */\n      dup2\n      dup2\n      gt\n        /* \"#utility.yul\":2100:2137   */\n      iszero\n      tag_273\n      jumpi\n        /* \"#utility.yul\":2117:2135   */\n      tag_273\n      tag_284\n      jump\t// in\n        /* \"#utility.yul\":2902:3119   */\n    tag_146:\n        /* \"#utility.yul\":2942:2943   */\n      0x00\n        /* \"#utility.yul\":2968:2969   */\n      dup3\n        /* \"#utility.yul\":2958:3090   */\n      tag_308\n      jumpi\n        /* \"#utility.yul\":3012:3022   */\n      0x4e487b71\n        /* \"#utility.yul\":3007:3010   */\n      0xe0\n        /* \"#utility.yul\":3003:3023   */\n      shl\n        /* \"#utility.yul\":3000:3001   */\n      0x00\n        /* \"#utility.yul\":2993:3024   */\n      mstore\n        /* \"#utility.yul\":3047:3051   */\n      0x12\n        /* \"#utility.yul\":3044:3045   */\n      0x04\n        /* \"#utility.yul\":3037:3052   */\n      mstore\n        /* \"#utility.yul\":3075:3079   */\n      0x24\n        /* \"#utility.yul\":3072:3073   */\n      0x00\n        /* \"#utility.yul\":3065:3080   */\n      revert\n        /* \"#utility.yul\":2958:3090   */\n    tag_308:\n      pop\n        /* \"#utility.yul\":3104:3113   */\n      div\n      swap1\n        /* \"#utility.yul\":2902:3119   */\n      jump\t// out\n        /* \"#utility.yul\":3124:3292   */\n    tag_158:\n        /* \"#utility.yul\":3197:3206   */\n      dup1\n      dup3\n      mul\n        /* \"#utility.yul\":3228:3237   */\n      dup2\n      iszero\n        /* \"#utility.yul\":3245:3260   */\n      dup3\n      dup3\n      div\n        /* \"#utility.yul\":3239:3261   */\n      dup5\n      eq\n        /* \"#utility.yul\":3225:3262   */\n      or\n        /* \"#utility.yul\":3215:3286   */\n      tag_273\n      jumpi\n        /* \"#utility.yul\":3266:3284   */\n      tag_273\n      tag_284\n      jump\t// in\n        /* \"#utility.yul\":3297:3422   */\n    tag_172:\n        /* \"#utility.yul\":3362:3371   */\n      dup1\n      dup3\n      add\n        /* \"#utility.yul\":3383:3393   */\n      dup1\n      dup3\n      gt\n        /* \"#utility.yul\":3380:3416   */\n      iszero\n      tag_273\n      jumpi\n        /* \"#utility.yul\":3396:3414   */\n      tag_273\n      tag_284\n      jump\t// in\n        /* \"#utility.yul\":4055:4332   */\n    tag_188:\n        /* \"#utility.yul\":4122:4128   */\n      0x00\n        /* \"#utility.yul\":4175:4177   */\n      0x20\n        /* \"#utility.yul\":4163:4172   */\n      dup3\n        /* \"#utility.yul\":4154:4161   */\n      dup5\n        /* \"#utility.yul\":4150:4173   */\n      sub\n        /* \"#utility.yul\":4146:4178   */\n      slt\n        /* \"#utility.yul\":4143:4195   */\n      iszero\n      tag_318\n      jumpi\n        /* \"#utility.yul\":4191:4192   */\n      0x00\n        /* \"#utility.yul\":4188:4189   */\n      dup1\n        /* \"#utility.yul\":4181:4193   */\n      revert\n        /* \"#utility.yul\":4143:4195   */\n    tag_318:\n        /* \"#utility.yul\":4223:4232   */\n      dup2\n        /* \"#utility.yul\":4217:4233   */\n      mload\n        /* \"#utility.yul\":4276:4281   */\n      dup1\n        /* \"#utility.yul\":4269:4282   */\n      iszero\n        /* \"#utility.yul\":4262:4283   */\n      iszero\n        /* \"#utility.yul\":4255:4260   */\n      dup2\n        /* \"#utility.yul\":4252:4284   */\n      eq\n        /* \"#utility.yul\":4242:4302   */\n      tag_319\n      jumpi\n        /* \"#utility.yul\":4298:4299   */\n      0x00\n        /* \"#utility.yul\":4295:4296   */\n      dup1\n        /* \"#utility.yul\":4288:4300   */\n      revert\n        /* \"#utility.yul\":4242:4302   */\n    tag_319:\n        /* \"#utility.yul\":4321:4326   */\n      swap4\n        /* \"#utility.yul\":4055:4332   */\n      swap3\n      pop\n      pop\n      pop\n      jump\t// out\n        /* \"#utility.yul\":4337:4521   */\n    tag_199:\n        /* \"#utility.yul\":4407:4413   */\n      0x00\n        /* \"#utility.yul\":4460:4462   */\n      0x20\n        /* \"#utility.yul\":4448:4457   */\n      dup3\n        /* \"#utility.yul\":4439:4446   */\n      dup5\n        /* \"#utility.yul\":4435:4458   */\n      sub\n        /* \"#utility.yul\":4431:4463   */\n      slt\n        /* \"#utility.yul\":4428:4480   */\n      iszero\n      tag_321\n      jumpi\n        /* \"#utility.yul\":4476:4477   */\n      0x00\n        /* \"#utility.yul\":4473:4474   */\n      dup1\n        /* \"#utility.yul\":4466:4478   */\n      revert\n        /* \"#utility.yul\":4428:4480   */\n    tag_321:\n      pop\n        /* \"#utility.yul\":4499:4515   */\n      mload\n      swap2\n        /* \"#utility.yul\":4337:4521   */\n      swap1\n      pop\n      jump\t// out\n        /* \"#utility.yul\":6698:6833   */\n    tag_251:\n        /* \"#utility.yul\":6737:6740   */\n      0x00\n        /* \"#utility.yul\":6758:6775   */\n      0x01\n      dup3\n      add\n        /* \"#utility.yul\":6755:6798   */\n      tag_330\n      jumpi\n        /* \"#utility.yul\":6778:6796   */\n      tag_330\n      tag_284\n      jump\t// in\n    tag_330:\n      pop\n        /* \"#utility.yul\":6825:6826   */\n      0x01\n        /* \"#utility.yul\":6814:6827   */\n      add\n      swap1\n        /* \"#utility.yul\":6698:6833   */\n      jump\t// out\n\n    auxdata: 0xa26469706673582212204a1659f81d2176e117d90b240af8efac8b9d431ed264d2ef24d3e94f3af3f55a64736f6c63430008190033\n}\n",
				"bytecode": {
					"linkReferences": {},
					"object": "608060405260078054336001600160a01b0319918216811790925560088054909116909117905534801561003257600080fd5b5060405161155a38038061155a833981016040819052610051916102cd565b600580546001600160a01b039384166001600160a01b03199182161790915560068054929093169116179055601260205269d3c21bcecceda10000007f4270792c5242bb9af31a0ca014789585bac3a2bc36b4e20e1e1163e09d416afc5569b3fe97a2fafd2f4000007fea116540bb6c5b7acceccd1764953a76c4fad8a217efbc5957292a6f6549f6bb55696495cd356e2412e000007f52d0aceea21727f3645b59ed2a8e2414ba98aec7326945136bbb6fbd1d1bee8055693a56e28a8271153000007f9f59f72911ca8f47b3e19df7b8d808aa81d8edc8119614c7c316f6c84bb89c8b55692fa54641bae8aaa000007f5e6dc1ec65c205e4785800fc7cf7266df7ecc1251284c73df73cc438b1f9349855691003a3b3f593e40400007f5fe6cf215b4a13eaa2a7a4f22b2caee36bbae8f63be3ada50ba2209f503bdc7655690a968163f0a57b4000007f1cc964778659cb526f0f4fe148ec03d3f93f444a969aac8d1602a8004b60f6f85569098774738bc8222000007f77a856606c58f2afe74bc4d415a981c84b65392fcf7fefc382ded558bb92f4648190557fe916beb333cde8471a36b6e21a68b3ebdc7e0fe343cee63055523fb231ea11878190557f9717e554f4f1c8f1445175ec6b77439740ea6e0a2d3809501f0e3f3949c19e288190557f31c8277a0ccfffea1189152918c4cd07edee7f47b05bce3a4bae62597e6d602e8190557ff488cbb1c9f248560c55d6af8aff3d1b53d7743aee9b6e9d1423c01242306451556042600052690971c556131295e000007fa6a9599000f4425e443918d34a69c9234ba73b27460468e6463868ac68d263b855610300565b80516001600160a01b03811681146102c857600080fd5b919050565b600080604083850312156102e057600080fd5b6102e9836102b1565b91506102f7602084016102b1565b90509250929050565b61124b8061030f6000396000f3fe608060405234801561001057600080fd5b50600436106101a95760003560e01c80638aca35a0116100f9578063b91f3f9711610097578063e372c90011610071578063e372c900146103a7578063f5ae497a146103af578063f7c618c1146103c2578063fdf5963a146103d557600080fd5b8063b91f3f9714610377578063d12327301461037f578063ddd1b67e1461039f57600080fd5b8063a5b39cfb116100d3578063a5b39cfb14610325578063a87df83214610345578063b5a556d21461034e578063b77cf9c61461035757600080fd5b80638aca35a0146103015780638f90e9021461030a57806392f851c11461031d57600080fd5b806367eeba0c116101665780636e90013d116101405780636e90013d1461029a57806373f273fc146102ad57806375f0a874146102cd578063862a4d47146102f857600080fd5b806367eeba0c1461024257806369a69e291461024b5780636bd3b87c1461025e57600080fd5b806306d2ad40146101ae5780632be11ae2146101e657806340519a53146101f0578063443df8f51461020357806350f0a325146102315780635c9302c914610239575b600080fd5b6101d16101bc3660046110e7565b60046020526000908152604090205460ff1681565b60405190151581526020015b60405180910390f35b6101ee6103de565b005b6101ee6101fe366004611102565b6108a2565b610223610211366004611102565b60126020526000908152604090205481565b6040519081526020016101dd565b610223600781565b610223600e5481565b61022360105481565b6102236102593660046110e7565b610ada565b61028561026c3660046110e7565b6013602052600090815260409020805460019091015482565b604080519283526020830191909152016101dd565b6101ee6102a836600461111b565b610bc3565b6102236102bb3660046110e7565b60026020526000908152604090205481565b6008546102e0906001600160a01b031681565b6040516001600160a01b0390911681526020016101dd565b610223600d5481565b610223600f5481565b6101ee6103183660046110e7565b610c87565b6101ee610cf1565b6102236103333660046110e7565b60016020526000908152604090205481565b610223600c5481565b61022360115481565b6102236103653660046110e7565b60006020819052908152604090205481565b6101ee610e3b565b61022361038d3660046110e7565b60036020526000908152604090205481565b610223611042565b610223605a81565b6005546102e0906001600160a01b031681565b6006546102e0906001600160a01b031681565b610223600a5481565b336000908152602081905260408120546103f8904261115b565b3360009081526003602052604081205491925090610416904261115b565b9050600782101561047f5760405162461bcd60e51b815260206004820152602860248201527f4d7573742077616974206174206c6561737420372064617973206265747765656044820152676e20636c61696d7360c01b60648201526084015b60405180910390fd5b336000908152600160205260409020546104ce5760405162461bcd60e51b815260206004820152601060248201526f4e6f207374616b656420746f6b656e7360801b6044820152606401610476565b6104d6611042565b600d5414610514576104e6611042565b600d55600c601260006104f7611056565b815260200190815260200160002054610510919061116e565b600f555b600e54610524620151804261116e565b1461057557610536620151804261116e565b600e55601e600c60126000610549611056565b815260200190815260200160002054610562919061116e565b61056c919061116e565b60105560006011555b604261057f611056565b11156105ae57690971c556131295e000006012600061059c611056565b81526020810191909152604001600020555b60095433600090815260016020526040812054909161016d916012846105d2611056565b8152602001908152602001600020546105eb9190611190565b6105f5919061116e565b6105ff919061116e565b9050600061062161061160078661116e565b61061c605a8661116e565b611066565b9050600061062f8284611190565b3360009081526002602052604081208290556011546010549293509091610656919061115b565b905060006106648383611066565b60095433600090815260016020526040902054919250906106859083611190565b61068f919061116e565b336000908152600260205260408120805492935083929091906106b390849061115b565b9250508190555080600c60008282546106cc91906111a7565b9250508190555080601160008282546106e591906111a7565b90915550508061072e5760405162461bcd60e51b81526020600482015260146024820152734e6f20636c61696d61626c65207265776172647360601b6044820152606401610476565b600061271061073b611080565b6107459084611190565b61074f919061116e565b905061075b818361115b565b915081156108545760065460405163a9059cbb60e01b8152336004820152602481018490526001600160a01b039091169063a9059cbb906044016020604051808303816000875af11580156107b4573d6000803e3d6000fd5b505050506040513d601f19601f820116820180604052508101906107d891906111ba565b5060065460085460405163a9059cbb60e01b81526001600160a01b0391821660048201526024810184905291169063a9059cbb906044016020604051808303816000875af115801561082e573d6000803e3d6000fd5b505050506040513d601f19601f8201168201806040525081019061085291906111ba565b505b336000818152602081815260409182902042905590518481527fa0703c548e4f3579a5b862677f6e9a97ac2d85326ddb959deb9b37a802253232910160405180910390a25050505050505050565b6005546040516370a0823160e01b81523360048201526000916001600160a01b0316906370a0823190602401602060405180830381865afa1580156108eb573d6000803e3d6000fd5b505050506040513d601f19601f8201168201806040525081019061090f91906111e3565b116109545760405162461bcd60e51b8152602060048201526015602482015274506f6f6c656420416d6f756e74206973205a65726f60581b6044820152606401610476565b6005546040516323b872dd60e01b8152336004820152306024820152604481018390526001600160a01b03909116906323b872dd906064016020604051808303816000875af11580156109ab573d6000803e3d6000fd5b505050506040513d601f19601f820116820180604052508101906109cf91906111ba565b610a165760405162461bcd60e51b81526020600482015260186024820152771314081d1bdad95b881d1c985b9cd9995c8819985a5b195960421b6044820152606401610476565b6000610a23605a426111a7565b3360008181526003602090815260408083204290558051808201825287815280830186815294845260139092528220905181559151600190920191909155600980549293508492909190610a789084906111a7565b90915550503360009081526001602052604081208054849290610a9c9084906111a7565b909155505060405182815233907fe1954443838ef603b0d4c78380e8ce8fa0cbd3126aafb585e9072cf90185fa589060200160405180910390a25050565b336000908152602081905260408120548190610af6904261115b565b3360009081526003602052604081205491925090610b14904261115b565b90506007821080610b255750605a81105b15610b34575060009392505050565b6000610b4f610b4460078561116e565b61061c605a8561116e565b6009546001600160a01b0387166000908152600160205260408120549293509161016d601284610b7d611056565b815260200190815260200160002054610b96919061116e565b610ba09190611190565b610baa919061116e565b90506000610bb88383611190565b979650505050505050565b6007546001600160a01b03163314610c0b5760405162461bcd60e51b815260206004820152600b60248201526a1b9bdd08105b1b1bddd95960aa1b6044820152606401610476565b60075460405163a9059cbb60e01b81526001600160a01b039182166004820152602481018390529083169063a9059cbb906044016020604051808303816000875af1158015610c5e573d6000803e3d6000fd5b505050506040513d601f19601f82011682018060405250810190610c8291906111ba565b505050565b6007546001600160a01b03163314610ccf5760405162461bcd60e51b815260206004820152600b60248201526a1b9bdd08105b1b1bddd95960aa1b6044820152606401610476565b600580546001600160a01b0319166001600160a01b0392909216919091179055565b6006546040516370a0823160e01b81523360048201526000916001600160a01b0316906370a0823190602401602060405180830381865afa158015610d3a573d6000803e3d6000fd5b505050506040513d601f19601f82011682018060405250810190610d5e91906111e3565b11610d9b5760405162461bcd60e51b815260206004820152600d60248201526c5a65726f20486f6c64696e677360981b6044820152606401610476565b3360009081526004602052604090205460ff1615610e0a5760405162461bcd60e51b815260206004820152602660248201527f596f75206861766520616c7265616479206170706c69656420666f72207265646044820152653ab1ba34b7b760d11b6064820152608401610476565b600a8054906000610e1a836111fc565b9091555050336000908152600460205260409020805460ff19166001179055565b33600090815260036020526040902054610e5790605a906111a7565b421015610ea65760405162461bcd60e51b815260206004820152601c60248201527f43616e6e6f7420756e6c6f636b206265666f72652039302064617973000000006044820152606401610476565b3360009081526013602052604090205480610ef65760405162461bcd60e51b815260206004820152601060248201526f4e6f206c6f636b656420746f6b656e7360801b6044820152606401610476565b60055460405163a9059cbb60e01b8152336004820152602481018390526001600160a01b039091169063a9059cbb906044016020604051808303816000875af1158015610f47573d6000803e3d6000fd5b505050506040513d601f19601f82011682018060405250810190610f6b91906111ba565b610fb25760405162461bcd60e51b81526020600482015260186024820152771314081d1bdad95b881d1c985b9cd9995c8819985a5b195960421b6044820152606401610476565b8060096000828254610fc4919061115b565b90915550503360009081526001602052604081208054839290610fe890849061115b565b90915550503360008181526013602052604080822082815560010191909155517f580ec6003f06a23971f7ccdb029ae688764884d7361687066e352d1ff6024473906110379084815260200190565b60405180910390a250565b600061105162278d004261116e565b905090565b60006110516301e133804261116e565b60008183106110755781611077565b825b90505b92915050565b60006001600a5410611096576032600b556110c4565b6002600a54106110aa576019600b556110c4565b6003600a54106110be57600c600b556110c4565b6064600b555b50600b5490565b80356001600160a01b03811681146110e257600080fd5b919050565b6000602082840312156110f957600080fd5b611077826110cb565b60006020828403121561111457600080fd5b5035919050565b6000806040838503121561112e57600080fd5b611137836110cb565b946020939093013593505050565b634e487b7160e01b600052601160045260246000fd5b8181038181111561107a5761107a611145565b60008261118b57634e487b7160e01b600052601260045260246000fd5b500490565b808202811582820484141761107a5761107a611145565b8082018082111561107a5761107a611145565b6000602082840312156111cc57600080fd5b815180151581146111dc57600080fd5b9392505050565b6000602082840312156111f557600080fd5b5051919050565b60006001820161120e5761120e611145565b506001019056fea26469706673582212204a1659f81d2176e117d90b240af8efac8b9d431ed264d2ef24d3e94f3af3f55a64736f6c63430008190033",
					"opcodes": "PUSH1 0x80 PUSH1 0x40 MSTORE PUSH1 0x7 DUP1 SLOAD CALLER PUSH1 0x1 PUSH1 0x1 PUSH1 0xA0 SHL SUB NOT SWAP2 DUP3 AND DUP2 OR SWAP1 SWAP3 SSTORE PUSH1 0x8 DUP1 SLOAD SWAP1 SWAP2 AND SWAP1 SWAP2 OR SWAP1 SSTORE CALLVALUE DUP1 ISZERO PUSH2 0x32 JUMPI PUSH1 0x0 DUP1 REVERT JUMPDEST POP PUSH1 0x40 MLOAD PUSH2 0x155A CODESIZE SUB DUP1 PUSH2 0x155A DUP4 CODECOPY DUP2 ADD PUSH1 0x40 DUP2 SWAP1 MSTORE PUSH2 0x51 SWAP2 PUSH2 0x2CD JUMP JUMPDEST PUSH1 0x5 DUP1 SLOAD PUSH1 0x1 PUSH1 0x1 PUSH1 0xA0 SHL SUB SWAP4 DUP5 AND PUSH1 0x1 PUSH1 0x1 PUSH1 0xA0 SHL SUB NOT SWAP2 DUP3 AND OR SWAP1 SWAP2 SSTORE PUSH1 0x6 DUP1 SLOAD SWAP3 SWAP1 SWAP4 AND SWAP2 AND OR SWAP1 SSTORE PUSH1 0x12 PUSH1 0x20 MSTORE PUSH10 0xD3C21BCECCEDA1000000 PUSH32 0x4270792C5242BB9AF31A0CA014789585BAC3A2BC36B4E20E1E1163E09D416AFC SSTORE PUSH10 0xB3FE97A2FAFD2F400000 PUSH32 0xEA116540BB6C5B7ACCECCD1764953A76C4FAD8A217EFBC5957292A6F6549F6BB SSTORE PUSH10 0x6495CD356E2412E00000 PUSH32 0x52D0ACEEA21727F3645B59ED2A8E2414BA98AEC7326945136BBB6FBD1D1BEE80 SSTORE PUSH10 0x3A56E28A827115300000 PUSH32 0x9F59F72911CA8F47B3E19DF7B8D808AA81D8EDC8119614C7C316F6C84BB89C8B SSTORE PUSH10 0x2FA54641BAE8AAA00000 PUSH32 0x5E6DC1EC65C205E4785800FC7CF7266DF7ECC1251284C73DF73CC438B1F93498 SSTORE PUSH10 0x1003A3B3F593E4040000 PUSH32 0x5FE6CF215B4A13EAA2A7A4F22B2CAEE36BBAE8F63BE3ADA50BA2209F503BDC76 SSTORE PUSH10 0xA968163F0A57B400000 PUSH32 0x1CC964778659CB526F0F4FE148EC03D3F93F444A969AAC8D1602A8004B60F6F8 SSTORE PUSH10 0x98774738BC822200000 PUSH32 0x77A856606C58F2AFE74BC4D415A981C84B65392FCF7FEFC382DED558BB92F464 DUP2 SWAP1 SSTORE PUSH32 0xE916BEB333CDE8471A36B6E21A68B3EBDC7E0FE343CEE63055523FB231EA1187 DUP2 SWAP1 SSTORE PUSH32 0x9717E554F4F1C8F1445175EC6B77439740EA6E0A2D3809501F0E3F3949C19E28 DUP2 SWAP1 SSTORE PUSH32 0x31C8277A0CCFFFEA1189152918C4CD07EDEE7F47B05BCE3A4BAE62597E6D602E DUP2 SWAP1 SSTORE PUSH32 0xF488CBB1C9F248560C55D6AF8AFF3D1B53D7743AEE9B6E9D1423C01242306451 SSTORE PUSH1 0x42 PUSH1 0x0 MSTORE PUSH10 0x971C556131295E00000 PUSH32 0xA6A9599000F4425E443918D34A69C9234BA73B27460468E6463868AC68D263B8 SSTORE PUSH2 0x300 JUMP JUMPDEST DUP1 MLOAD PUSH1 0x1 PUSH1 0x1 PUSH1 0xA0 SHL SUB DUP2 AND DUP2 EQ PUSH2 0x2C8 JUMPI PUSH1 0x0 DUP1 REVERT JUMPDEST SWAP2 SWAP1 POP JUMP JUMPDEST PUSH1 0x0 DUP1 PUSH1 0x40 DUP4 DUP6 SUB SLT ISZERO PUSH2 0x2E0 JUMPI PUSH1 0x0 DUP1 REVERT JUMPDEST PUSH2 0x2E9 DUP4 PUSH2 0x2B1 JUMP JUMPDEST SWAP2 POP PUSH2 0x2F7 PUSH1 0x20 DUP5 ADD PUSH2 0x2B1 JUMP JUMPDEST SWAP1 POP SWAP3 POP SWAP3 SWAP1 POP JUMP JUMPDEST PUSH2 0x124B DUP1 PUSH2 0x30F PUSH1 0x0 CODECOPY PUSH1 0x0 RETURN INVALID PUSH1 0x80 PUSH1 0x40 MSTORE CALLVALUE DUP1 ISZERO PUSH2 0x10 JUMPI PUSH1 0x0 DUP1 REVERT JUMPDEST POP PUSH1 0x4 CALLDATASIZE LT PUSH2 0x1A9 JUMPI PUSH1 0x0 CALLDATALOAD PUSH1 0xE0 SHR DUP1 PUSH4 0x8ACA35A0 GT PUSH2 0xF9 JUMPI DUP1 PUSH4 0xB91F3F97 GT PUSH2 0x97 JUMPI DUP1 PUSH4 0xE372C900 GT PUSH2 0x71 JUMPI DUP1 PUSH4 0xE372C900 EQ PUSH2 0x3A7 JUMPI DUP1 PUSH4 0xF5AE497A EQ PUSH2 0x3AF JUMPI DUP1 PUSH4 0xF7C618C1 EQ PUSH2 0x3C2 JUMPI DUP1 PUSH4 0xFDF5963A EQ PUSH2 0x3D5 JUMPI PUSH1 0x0 DUP1 REVERT JUMPDEST DUP1 PUSH4 0xB91F3F97 EQ PUSH2 0x377 JUMPI DUP1 PUSH4 0xD1232730 EQ PUSH2 0x37F JUMPI DUP1 PUSH4 0xDDD1B67E EQ PUSH2 0x39F JUMPI PUSH1 0x0 DUP1 REVERT JUMPDEST DUP1 PUSH4 0xA5B39CFB GT PUSH2 0xD3 JUMPI DUP1 PUSH4 0xA5B39CFB EQ PUSH2 0x325 JUMPI DUP1 PUSH4 0xA87DF832 EQ PUSH2 0x345 JUMPI DUP1 PUSH4 0xB5A556D2 EQ PUSH2 0x34E JUMPI DUP1 PUSH4 0xB77CF9C6 EQ PUSH2 0x357 JUMPI PUSH1 0x0 DUP1 REVERT JUMPDEST DUP1 PUSH4 0x8ACA35A0 EQ PUSH2 0x301 JUMPI DUP1 PUSH4 0x8F90E902 EQ PUSH2 0x30A JUMPI DUP1 PUSH4 0x92F851C1 EQ PUSH2 0x31D JUMPI PUSH1 0x0 DUP1 REVERT JUMPDEST DUP1 PUSH4 0x67EEBA0C GT PUSH2 0x166 JUMPI DUP1 PUSH4 0x6E90013D GT PUSH2 0x140 JUMPI DUP1 PUSH4 0x6E90013D EQ PUSH2 0x29A JUMPI DUP1 PUSH4 0x73F273FC EQ PUSH2 0x2AD JUMPI DUP1 PUSH4 0x75F0A874 EQ PUSH2 0x2CD JUMPI DUP1 PUSH4 0x862A4D47 EQ PUSH2 0x2F8 JUMPI PUSH1 0x0 DUP1 REVERT JUMPDEST DUP1 PUSH4 0x67EEBA0C EQ PUSH2 0x242 JUMPI DUP1 PUSH4 0x69A69E29 EQ PUSH2 0x24B JUMPI DUP1 PUSH4 0x6BD3B87C EQ PUSH2 0x25E JUMPI PUSH1 0x0 DUP1 REVERT JUMPDEST DUP1 PUSH4 0x6D2AD40 EQ PUSH2 0x1AE JUMPI DUP1 PUSH4 0x2BE11AE2 EQ PUSH2 0x1E6 JUMPI DUP1 PUSH4 0x40519A53 EQ PUSH2 0x1F0 JUMPI DUP1 PUSH4 0x443DF8F5 EQ PUSH2 0x203 JUMPI DUP1 PUSH4 0x50F0A325 EQ PUSH2 0x231 JUMPI DUP1 PUSH4 0x5C9302C9 EQ PUSH2 0x239 JUMPI JUMPDEST PUSH1 0x0 DUP1 REVERT JUMPDEST PUSH2 0x1D1 PUSH2 0x1BC CALLDATASIZE PUSH1 0x4 PUSH2 0x10E7 JUMP JUMPDEST PUSH1 0x4 PUSH1 0x20 MSTORE PUSH1 0x0 SWAP1 DUP2 MSTORE PUSH1 0x40 SWAP1 KECCAK256 SLOAD PUSH1 0xFF AND DUP2 JUMP JUMPDEST PUSH1 0x40 MLOAD SWAP1 ISZERO ISZERO DUP2 MSTORE PUSH1 0x20 ADD JUMPDEST PUSH1 0x40 MLOAD DUP1 SWAP2 SUB SWAP1 RETURN JUMPDEST PUSH2 0x1EE PUSH2 0x3DE JUMP JUMPDEST STOP JUMPDEST PUSH2 0x1EE PUSH2 0x1FE CALLDATASIZE PUSH1 0x4 PUSH2 0x1102 JUMP JUMPDEST PUSH2 0x8A2 JUMP JUMPDEST PUSH2 0x223 PUSH2 0x211 CALLDATASIZE PUSH1 0x4 PUSH2 0x1102 JUMP JUMPDEST PUSH1 0x12 PUSH1 0x20 MSTORE PUSH1 0x0 SWAP1 DUP2 MSTORE PUSH1 0x40 SWAP1 KECCAK256 SLOAD DUP2 JUMP JUMPDEST PUSH1 0x40 MLOAD SWAP1 DUP2 MSTORE PUSH1 0x20 ADD PUSH2 0x1DD JUMP JUMPDEST PUSH2 0x223 PUSH1 0x7 DUP2 JUMP JUMPDEST PUSH2 0x223 PUSH1 0xE SLOAD DUP2 JUMP JUMPDEST PUSH2 0x223 PUSH1 0x10 SLOAD DUP2 JUMP JUMPDEST PUSH2 0x223 PUSH2 0x259 CALLDATASIZE PUSH1 0x4 PUSH2 0x10E7 JUMP JUMPDEST PUSH2 0xADA JUMP JUMPDEST PUSH2 0x285 PUSH2 0x26C CALLDATASIZE PUSH1 0x4 PUSH2 0x10E7 JUMP JUMPDEST PUSH1 0x13 PUSH1 0x20 MSTORE PUSH1 0x0 SWAP1 DUP2 MSTORE PUSH1 0x40 SWAP1 KECCAK256 DUP1 SLOAD PUSH1 0x1 SWAP1 SWAP2 ADD SLOAD DUP3 JUMP JUMPDEST PUSH1 0x40 DUP1 MLOAD SWAP3 DUP4 MSTORE PUSH1 0x20 DUP4 ADD SWAP2 SWAP1 SWAP2 MSTORE ADD PUSH2 0x1DD JUMP JUMPDEST PUSH2 0x1EE PUSH2 0x2A8 CALLDATASIZE PUSH1 0x4 PUSH2 0x111B JUMP JUMPDEST PUSH2 0xBC3 JUMP JUMPDEST PUSH2 0x223 PUSH2 0x2BB CALLDATASIZE PUSH1 0x4 PUSH2 0x10E7 JUMP JUMPDEST PUSH1 0x2 PUSH1 0x20 MSTORE PUSH1 0x0 SWAP1 DUP2 MSTORE PUSH1 0x40 SWAP1 KECCAK256 SLOAD DUP2 JUMP JUMPDEST PUSH1 0x8 SLOAD PUSH2 0x2E0 SWAP1 PUSH1 0x1 PUSH1 0x1 PUSH1 0xA0 SHL SUB AND DUP2 JUMP JUMPDEST PUSH1 0x40 MLOAD PUSH1 0x1 PUSH1 0x1 PUSH1 0xA0 SHL SUB SWAP1 SWAP2 AND DUP2 MSTORE PUSH1 0x20 ADD PUSH2 0x1DD JUMP JUMPDEST PUSH2 0x223 PUSH1 0xD SLOAD DUP2 JUMP JUMPDEST PUSH2 0x223 PUSH1 0xF SLOAD DUP2 JUMP JUMPDEST PUSH2 0x1EE PUSH2 0x318 CALLDATASIZE PUSH1 0x4 PUSH2 0x10E7 JUMP JUMPDEST PUSH2 0xC87 JUMP JUMPDEST PUSH2 0x1EE PUSH2 0xCF1 JUMP JUMPDEST PUSH2 0x223 PUSH2 0x333 CALLDATASIZE PUSH1 0x4 PUSH2 0x10E7 JUMP JUMPDEST PUSH1 0x1 PUSH1 0x20 MSTORE PUSH1 0x0 SWAP1 DUP2 MSTORE PUSH1 0x40 SWAP1 KECCAK256 SLOAD DUP2 JUMP JUMPDEST PUSH2 0x223 PUSH1 0xC SLOAD DUP2 JUMP JUMPDEST PUSH2 0x223 PUSH1 0x11 SLOAD DUP2 JUMP JUMPDEST PUSH2 0x223 PUSH2 0x365 CALLDATASIZE PUSH1 0x4 PUSH2 0x10E7 JUMP JUMPDEST PUSH1 0x0 PUSH1 0x20 DUP2 SWAP1 MSTORE SWAP1 DUP2 MSTORE PUSH1 0x40 SWAP1 KECCAK256 SLOAD DUP2 JUMP JUMPDEST PUSH2 0x1EE PUSH2 0xE3B JUMP JUMPDEST PUSH2 0x223 PUSH2 0x38D CALLDATASIZE PUSH1 0x4 PUSH2 0x10E7 JUMP JUMPDEST PUSH1 0x3 PUSH1 0x20 MSTORE PUSH1 0x0 SWAP1 DUP2 MSTORE PUSH1 0x40 SWAP1 KECCAK256 SLOAD DUP2 JUMP JUMPDEST PUSH2 0x223 PUSH2 0x1042 JUMP JUMPDEST PUSH2 0x223 PUSH1 0x5A DUP2 JUMP JUMPDEST PUSH1 0x5 SLOAD PUSH2 0x2E0 SWAP1 PUSH1 0x1 PUSH1 0x1 PUSH1 0xA0 SHL SUB AND DUP2 JUMP JUMPDEST PUSH1 0x6 SLOAD PUSH2 0x2E0 SWAP1 PUSH1 0x1 PUSH1 0x1 PUSH1 0xA0 SHL SUB AND DUP2 JUMP JUMPDEST PUSH2 0x223 PUSH1 0xA SLOAD DUP2 JUMP JUMPDEST CALLER PUSH1 0x0 SWAP1 DUP2 MSTORE PUSH1 0x20 DUP2 SWAP1 MSTORE PUSH1 0x40 DUP2 KECCAK256 SLOAD PUSH2 0x3F8 SWAP1 TIMESTAMP PUSH2 0x115B JUMP JUMPDEST CALLER PUSH1 0x0 SWAP1 DUP2 MSTORE PUSH1 0x3 PUSH1 0x20 MSTORE PUSH1 0x40 DUP2 KECCAK256 SLOAD SWAP2 SWAP3 POP SWAP1 PUSH2 0x416 SWAP1 TIMESTAMP PUSH2 0x115B JUMP JUMPDEST SWAP1 POP PUSH1 0x7 DUP3 LT ISZERO PUSH2 0x47F JUMPI PUSH1 0x40 MLOAD PUSH3 0x461BCD PUSH1 0xE5 SHL DUP2 MSTORE PUSH1 0x20 PUSH1 0x4 DUP3 ADD MSTORE PUSH1 0x28 PUSH1 0x24 DUP3 ADD MSTORE PUSH32 0x4D7573742077616974206174206C656173742037206461797320626574776565 PUSH1 0x44 DUP3 ADD MSTORE PUSH8 0x6E20636C61696D73 PUSH1 0xC0 SHL PUSH1 0x64 DUP3 ADD MSTORE PUSH1 0x84 ADD JUMPDEST PUSH1 0x40 MLOAD DUP1 SWAP2 SUB SWAP1 REVERT JUMPDEST CALLER PUSH1 0x0 SWAP1 DUP2 MSTORE PUSH1 0x1 PUSH1 0x20 MSTORE PUSH1 0x40 SWAP1 KECCAK256 SLOAD PUSH2 0x4CE JUMPI PUSH1 0x40 MLOAD PUSH3 0x461BCD PUSH1 0xE5 SHL DUP2 MSTORE PUSH1 0x20 PUSH1 0x4 DUP3 ADD MSTORE PUSH1 0x10 PUSH1 0x24 DUP3 ADD MSTORE PUSH16 0x4E6F207374616B656420746F6B656E73 PUSH1 0x80 SHL PUSH1 0x44 DUP3 ADD MSTORE PUSH1 0x64 ADD PUSH2 0x476 JUMP JUMPDEST PUSH2 0x4D6 PUSH2 0x1042 JUMP JUMPDEST PUSH1 0xD SLOAD EQ PUSH2 0x514 JUMPI PUSH2 0x4E6 PUSH2 0x1042 JUMP JUMPDEST PUSH1 0xD SSTORE PUSH1 0xC PUSH1 0x12 PUSH1 0x0 PUSH2 0x4F7 PUSH2 0x1056 JUMP JUMPDEST DUP2 MSTORE PUSH1 0x20 ADD SWAP1 DUP2 MSTORE PUSH1 0x20 ADD PUSH1 0x0 KECCAK256 SLOAD PUSH2 0x510 SWAP2 SWAP1 PUSH2 0x116E JUMP JUMPDEST PUSH1 0xF SSTORE JUMPDEST PUSH1 0xE SLOAD PUSH2 0x524 PUSH3 0x15180 TIMESTAMP PUSH2 0x116E JUMP JUMPDEST EQ PUSH2 0x575 JUMPI PUSH2 0x536 PUSH3 0x15180 TIMESTAMP PUSH2 0x116E JUMP JUMPDEST PUSH1 0xE SSTORE PUSH1 0x1E PUSH1 0xC PUSH1 0x12 PUSH1 0x0 PUSH2 0x549 PUSH2 0x1056 JUMP JUMPDEST DUP2 MSTORE PUSH1 0x20 ADD SWAP1 DUP2 MSTORE PUSH1 0x20 ADD PUSH1 0x0 KECCAK256 SLOAD PUSH2 0x562 SWAP2 SWAP1 PUSH2 0x116E JUMP JUMPDEST PUSH2 0x56C SWAP2 SWAP1 PUSH2 0x116E JUMP JUMPDEST PUSH1 0x10 SSTORE PUSH1 0x0 PUSH1 0x11 SSTORE JUMPDEST PUSH1 0x42 PUSH2 0x57F PUSH2 0x1056 JUMP JUMPDEST GT ISZERO PUSH2 0x5AE JUMPI PUSH10 0x971C556131295E00000 PUSH1 0x12 PUSH1 0x0 PUSH2 0x59C PUSH2 0x1056 JUMP JUMPDEST DUP2 MSTORE PUSH1 0x20 DUP2 ADD SWAP2 SWAP1 SWAP2 MSTORE PUSH1 0x40 ADD PUSH1 0x0 KECCAK256 SSTORE JUMPDEST PUSH1 0x9 SLOAD CALLER PUSH1 0x0 SWAP1 DUP2 MSTORE PUSH1 0x1 PUSH1 0x20 MSTORE PUSH1 0x40 DUP2 KECCAK256 SLOAD SWAP1 SWAP2 PUSH2 0x16D SWAP2 PUSH1 0x12 DUP5 PUSH2 0x5D2 PUSH2 0x1056 JUMP JUMPDEST DUP2 MSTORE PUSH1 0x20 ADD SWAP1 DUP2 MSTORE PUSH1 0x20 ADD PUSH1 0x0 KECCAK256 SLOAD PUSH2 0x5EB SWAP2 SWAP1 PUSH2 0x1190 JUMP JUMPDEST PUSH2 0x5F5 SWAP2 SWAP1 PUSH2 0x116E JUMP JUMPDEST PUSH2 0x5FF SWAP2 SWAP1 PUSH2 0x116E JUMP JUMPDEST SWAP1 POP PUSH1 0x0 PUSH2 0x621 PUSH2 0x611 PUSH1 0x7 DUP7 PUSH2 0x116E JUMP JUMPDEST PUSH2 0x61C PUSH1 0x5A DUP7 PUSH2 0x116E JUMP JUMPDEST PUSH2 0x1066 JUMP JUMPDEST SWAP1 POP PUSH1 0x0 PUSH2 0x62F DUP3 DUP5 PUSH2 0x1190 JUMP JUMPDEST CALLER PUSH1 0x0 SWAP1 DUP2 MSTORE PUSH1 0x2 PUSH1 0x20 MSTORE PUSH1 0x40 DUP2 KECCAK256 DUP3 SWAP1 SSTORE PUSH1 0x11 SLOAD PUSH1 0x10 SLOAD SWAP3 SWAP4 POP SWAP1 SWAP2 PUSH2 0x656 SWAP2 SWAP1 PUSH2 0x115B JUMP JUMPDEST SWAP1 POP PUSH1 0x0 PUSH2 0x664 DUP4 DUP4 PUSH2 0x1066 JUMP JUMPDEST PUSH1 0x9 SLOAD CALLER PUSH1 0x0 SWAP1 DUP2 MSTORE PUSH1 0x1 PUSH1 0x20 MSTORE PUSH1 0x40 SWAP1 KECCAK256 SLOAD SWAP2 SWAP3 POP SWAP1 PUSH2 0x685 SWAP1 DUP4 PUSH2 0x1190 JUMP JUMPDEST PUSH2 0x68F SWAP2 SWAP1 PUSH2 0x116E JUMP JUMPDEST CALLER PUSH1 0x0 SWAP1 DUP2 MSTORE PUSH1 0x2 PUSH1 0x20 MSTORE PUSH1 0x40 DUP2 KECCAK256 DUP1 SLOAD SWAP3 SWAP4 POP DUP4 SWAP3 SWAP1 SWAP2 SWAP1 PUSH2 0x6B3 SWAP1 DUP5 SWAP1 PUSH2 0x115B JUMP JUMPDEST SWAP3 POP POP DUP2 SWAP1 SSTORE POP DUP1 PUSH1 0xC PUSH1 0x0 DUP3 DUP3 SLOAD PUSH2 0x6CC SWAP2 SWAP1 PUSH2 0x11A7 JUMP JUMPDEST SWAP3 POP POP DUP2 SWAP1 SSTORE POP DUP1 PUSH1 0x11 PUSH1 0x0 DUP3 DUP3 SLOAD PUSH2 0x6E5 SWAP2 SWAP1 PUSH2 0x11A7 JUMP JUMPDEST SWAP1 SWAP2 SSTORE POP POP DUP1 PUSH2 0x72E JUMPI PUSH1 0x40 MLOAD PUSH3 0x461BCD PUSH1 0xE5 SHL DUP2 MSTORE PUSH1 0x20 PUSH1 0x4 DUP3 ADD MSTORE PUSH1 0x14 PUSH1 0x24 DUP3 ADD MSTORE PUSH20 0x4E6F20636C61696D61626C652072657761726473 PUSH1 0x60 SHL PUSH1 0x44 DUP3 ADD MSTORE PUSH1 0x64 ADD PUSH2 0x476 JUMP JUMPDEST PUSH1 0x0 PUSH2 0x2710 PUSH2 0x73B PUSH2 0x1080 JUMP JUMPDEST PUSH2 0x745 SWAP1 DUP5 PUSH2 0x1190 JUMP JUMPDEST PUSH2 0x74F SWAP2 SWAP1 PUSH2 0x116E JUMP JUMPDEST SWAP1 POP PUSH2 0x75B DUP2 DUP4 PUSH2 0x115B JUMP JUMPDEST SWAP2 POP DUP2 ISZERO PUSH2 0x854 JUMPI PUSH1 0x6 SLOAD PUSH1 0x40 MLOAD PUSH4 0xA9059CBB PUSH1 0xE0 SHL DUP2 MSTORE CALLER PUSH1 0x4 DUP3 ADD MSTORE PUSH1 0x24 DUP2 ADD DUP5 SWAP1 MSTORE PUSH1 0x1 PUSH1 0x1 PUSH1 0xA0 SHL SUB SWAP1 SWAP2 AND SWAP1 PUSH4 0xA9059CBB SWAP1 PUSH1 0x44 ADD PUSH1 0x20 PUSH1 0x40 MLOAD DUP1 DUP4 SUB DUP2 PUSH1 0x0 DUP8 GAS CALL ISZERO DUP1 ISZERO PUSH2 0x7B4 JUMPI RETURNDATASIZE PUSH1 0x0 DUP1 RETURNDATACOPY RETURNDATASIZE PUSH1 0x0 REVERT JUMPDEST POP POP POP POP PUSH1 0x40 MLOAD RETURNDATASIZE PUSH1 0x1F NOT PUSH1 0x1F DUP3 ADD AND DUP3 ADD DUP1 PUSH1 0x40 MSTORE POP DUP2 ADD SWAP1 PUSH2 0x7D8 SWAP2 SWAP1 PUSH2 0x11BA JUMP JUMPDEST POP PUSH1 0x6 SLOAD PUSH1 0x8 SLOAD PUSH1 0x40 MLOAD PUSH4 0xA9059CBB PUSH1 0xE0 SHL DUP2 MSTORE PUSH1 0x1 PUSH1 0x1 PUSH1 0xA0 SHL SUB SWAP2 DUP3 AND PUSH1 0x4 DUP3 ADD MSTORE PUSH1 0x24 DUP2 ADD DUP5 SWAP1 MSTORE SWAP2 AND SWAP1 PUSH4 0xA9059CBB SWAP1 PUSH1 0x44 ADD PUSH1 0x20 PUSH1 0x40 MLOAD DUP1 DUP4 SUB DUP2 PUSH1 0x0 DUP8 GAS CALL ISZERO DUP1 ISZERO PUSH2 0x82E JUMPI RETURNDATASIZE PUSH1 0x0 DUP1 RETURNDATACOPY RETURNDATASIZE PUSH1 0x0 REVERT JUMPDEST POP POP POP POP PUSH1 0x40 MLOAD RETURNDATASIZE PUSH1 0x1F NOT PUSH1 0x1F DUP3 ADD AND DUP3 ADD DUP1 PUSH1 0x40 MSTORE POP DUP2 ADD SWAP1 PUSH2 0x852 SWAP2 SWAP1 PUSH2 0x11BA JUMP JUMPDEST POP JUMPDEST CALLER PUSH1 0x0 DUP2 DUP2 MSTORE PUSH1 0x20 DUP2 DUP2 MSTORE PUSH1 0x40 SWAP2 DUP3 SWAP1 KECCAK256 TIMESTAMP SWAP1 SSTORE SWAP1 MLOAD DUP5 DUP2 MSTORE PUSH32 0xA0703C548E4F3579A5B862677F6E9A97AC2D85326DDB959DEB9B37A802253232 SWAP2 ADD PUSH1 0x40 MLOAD DUP1 SWAP2 SUB SWAP1 LOG2 POP POP POP POP POP POP POP POP JUMP JUMPDEST PUSH1 0x5 SLOAD PUSH1 0x40 MLOAD PUSH4 0x70A08231 PUSH1 0xE0 SHL DUP2 MSTORE CALLER PUSH1 0x4 DUP3 ADD MSTORE PUSH1 0x0 SWAP2 PUSH1 0x1 PUSH1 0x1 PUSH1 0xA0 SHL SUB AND SWAP1 PUSH4 0x70A08231 SWAP1 PUSH1 0x24 ADD PUSH1 0x20 PUSH1 0x40 MLOAD DUP1 DUP4 SUB DUP2 DUP7 GAS STATICCALL ISZERO DUP1 ISZERO PUSH2 0x8EB JUMPI RETURNDATASIZE PUSH1 0x0 DUP1 RETURNDATACOPY RETURNDATASIZE PUSH1 0x0 REVERT JUMPDEST POP POP POP POP PUSH1 0x40 MLOAD RETURNDATASIZE PUSH1 0x1F NOT PUSH1 0x1F DUP3 ADD AND DUP3 ADD DUP1 PUSH1 0x40 MSTORE POP DUP2 ADD SWAP1 PUSH2 0x90F SWAP2 SWAP1 PUSH2 0x11E3 JUMP JUMPDEST GT PUSH2 0x954 JUMPI PUSH1 0x40 MLOAD PUSH3 0x461BCD PUSH1 0xE5 SHL DUP2 MSTORE PUSH1 0x20 PUSH1 0x4 DUP3 ADD MSTORE PUSH1 0x15 PUSH1 0x24 DUP3 ADD MSTORE PUSH21 0x506F6F6C656420416D6F756E74206973205A65726F PUSH1 0x58 SHL PUSH1 0x44 DUP3 ADD MSTORE PUSH1 0x64 ADD PUSH2 0x476 JUMP JUMPDEST PUSH1 0x5 SLOAD PUSH1 0x40 MLOAD PUSH4 0x23B872DD PUSH1 0xE0 SHL DUP2 MSTORE CALLER PUSH1 0x4 DUP3 ADD MSTORE ADDRESS PUSH1 0x24 DUP3 ADD MSTORE PUSH1 0x44 DUP2 ADD DUP4 SWAP1 MSTORE PUSH1 0x1 PUSH1 0x1 PUSH1 0xA0 SHL SUB SWAP1 SWAP2 AND SWAP1 PUSH4 0x23B872DD SWAP1 PUSH1 0x64 ADD PUSH1 0x20 PUSH1 0x40 MLOAD DUP1 DUP4 SUB DUP2 PUSH1 0x0 DUP8 GAS CALL ISZERO DUP1 ISZERO PUSH2 0x9AB JUMPI RETURNDATASIZE PUSH1 0x0 DUP1 RETURNDATACOPY RETURNDATASIZE PUSH1 0x0 REVERT JUMPDEST POP POP POP POP PUSH1 0x40 MLOAD RETURNDATASIZE PUSH1 0x1F NOT PUSH1 0x1F DUP3 ADD AND DUP3 ADD DUP1 PUSH1 0x40 MSTORE POP DUP2 ADD SWAP1 PUSH2 0x9CF SWAP2 SWAP1 PUSH2 0x11BA JUMP JUMPDEST PUSH2 0xA16 JUMPI PUSH1 0x40 MLOAD PUSH3 0x461BCD PUSH1 0xE5 SHL DUP2 MSTORE PUSH1 0x20 PUSH1 0x4 DUP3 ADD MSTORE PUSH1 0x18 PUSH1 0x24 DUP3 ADD MSTORE PUSH24 0x1314081D1BDAD95B881D1C985B9CD9995C8819985A5B1959 PUSH1 0x42 SHL PUSH1 0x44 DUP3 ADD MSTORE PUSH1 0x64 ADD PUSH2 0x476 JUMP JUMPDEST PUSH1 0x0 PUSH2 0xA23 PUSH1 0x5A TIMESTAMP PUSH2 0x11A7 JUMP JUMPDEST CALLER PUSH1 0x0 DUP2 DUP2 MSTORE PUSH1 0x3 PUSH1 0x20 SWAP1 DUP2 MSTORE PUSH1 0x40 DUP1 DUP4 KECCAK256 TIMESTAMP SWAP1 SSTORE DUP1 MLOAD DUP1 DUP3 ADD DUP3 MSTORE DUP8 DUP2 MSTORE DUP1 DUP4 ADD DUP7 DUP2 MSTORE SWAP5 DUP5 MSTORE PUSH1 0x13 SWAP1 SWAP3 MSTORE DUP3 KECCAK256 SWAP1 MLOAD DUP2 SSTORE SWAP2 MLOAD PUSH1 0x1 SWAP1 SWAP3 ADD SWAP2 SWAP1 SWAP2 SSTORE PUSH1 0x9 DUP1 SLOAD SWAP3 SWAP4 POP DUP5 SWAP3 SWAP1 SWAP2 SWAP1 PUSH2 0xA78 SWAP1 DUP5 SWAP1 PUSH2 0x11A7 JUMP JUMPDEST SWAP1 SWAP2 SSTORE POP POP CALLER PUSH1 0x0 SWAP1 DUP2 MSTORE PUSH1 0x1 PUSH1 0x20 MSTORE PUSH1 0x40 DUP2 KECCAK256 DUP1 SLOAD DUP5 SWAP3 SWAP1 PUSH2 0xA9C SWAP1 DUP5 SWAP1 PUSH2 0x11A7 JUMP JUMPDEST SWAP1 SWAP2 SSTORE POP POP PUSH1 0x40 MLOAD DUP3 DUP2 MSTORE CALLER SWAP1 PUSH32 0xE1954443838EF603B0D4C78380E8CE8FA0CBD3126AAFB585E9072CF90185FA58 SWAP1 PUSH1 0x20 ADD PUSH1 0x40 MLOAD DUP1 SWAP2 SUB SWAP1 LOG2 POP POP JUMP JUMPDEST CALLER PUSH1 0x0 SWAP1 DUP2 MSTORE PUSH1 0x20 DUP2 SWAP1 MSTORE PUSH1 0x40 DUP2 KECCAK256 SLOAD DUP2 SWAP1 PUSH2 0xAF6 SWAP1 TIMESTAMP PUSH2 0x115B JUMP JUMPDEST CALLER PUSH1 0x0 SWAP1 DUP2 MSTORE PUSH1 0x3 PUSH1 0x20 MSTORE PUSH1 0x40 DUP2 KECCAK256 SLOAD SWAP2 SWAP3 POP SWAP1 PUSH2 0xB14 SWAP1 TIMESTAMP PUSH2 0x115B JUMP JUMPDEST SWAP1 POP PUSH1 0x7 DUP3 LT DUP1 PUSH2 0xB25 JUMPI POP PUSH1 0x5A DUP2 LT JUMPDEST ISZERO PUSH2 0xB34 JUMPI POP PUSH1 0x0 SWAP4 SWAP3 POP POP POP JUMP JUMPDEST PUSH1 0x0 PUSH2 0xB4F PUSH2 0xB44 PUSH1 0x7 DUP6 PUSH2 0x116E JUMP JUMPDEST PUSH2 0x61C PUSH1 0x5A DUP6 PUSH2 0x116E JUMP JUMPDEST PUSH1 0x9 SLOAD PUSH1 0x1 PUSH1 0x1 PUSH1 0xA0 SHL SUB DUP8 AND PUSH1 0x0 SWAP1 DUP2 MSTORE PUSH1 0x1 PUSH1 0x20 MSTORE PUSH1 0x40 DUP2 KECCAK256 SLOAD SWAP3 SWAP4 POP SWAP2 PUSH2 0x16D PUSH1 0x12 DUP5 PUSH2 0xB7D PUSH2 0x1056 JUMP JUMPDEST DUP2 MSTORE PUSH1 0x20 ADD SWAP1 DUP2 MSTORE PUSH1 0x20 ADD PUSH1 0x0 KECCAK256 SLOAD PUSH2 0xB96 SWAP2 SWAP1 PUSH2 0x116E JUMP JUMPDEST PUSH2 0xBA0 SWAP2 SWAP1 PUSH2 0x1190 JUMP JUMPDEST PUSH2 0xBAA SWAP2 SWAP1 PUSH2 0x116E JUMP JUMPDEST SWAP1 POP PUSH1 0x0 PUSH2 0xBB8 DUP4 DUP4 PUSH2 0x1190 JUMP JUMPDEST SWAP8 SWAP7 POP POP POP POP POP POP POP JUMP JUMPDEST PUSH1 0x7 SLOAD PUSH1 0x1 PUSH1 0x1 PUSH1 0xA0 SHL SUB AND CALLER EQ PUSH2 0xC0B JUMPI PUSH1 0x40 MLOAD PUSH3 0x461BCD PUSH1 0xE5 SHL DUP2 MSTORE PUSH1 0x20 PUSH1 0x4 DUP3 ADD MSTORE PUSH1 0xB PUSH1 0x24 DUP3 ADD MSTORE PUSH11 0x1B9BDD08105B1B1BDDD959 PUSH1 0xAA SHL PUSH1 0x44 DUP3 ADD MSTORE PUSH1 0x64 ADD PUSH2 0x476 JUMP JUMPDEST PUSH1 0x7 SLOAD PUSH1 0x40 MLOAD PUSH4 0xA9059CBB PUSH1 0xE0 SHL DUP2 MSTORE PUSH1 0x1 PUSH1 0x1 PUSH1 0xA0 SHL SUB SWAP2 DUP3 AND PUSH1 0x4 DUP3 ADD MSTORE PUSH1 0x24 DUP2 ADD DUP4 SWAP1 MSTORE SWAP1 DUP4 AND SWAP1 PUSH4 0xA9059CBB SWAP1 PUSH1 0x44 ADD PUSH1 0x20 PUSH1 0x40 MLOAD DUP1 DUP4 SUB DUP2 PUSH1 0x0 DUP8 GAS CALL ISZERO DUP1 ISZERO PUSH2 0xC5E JUMPI RETURNDATASIZE PUSH1 0x0 DUP1 RETURNDATACOPY RETURNDATASIZE PUSH1 0x0 REVERT JUMPDEST POP POP POP POP PUSH1 0x40 MLOAD RETURNDATASIZE PUSH1 0x1F NOT PUSH1 0x1F DUP3 ADD AND DUP3 ADD DUP1 PUSH1 0x40 MSTORE POP DUP2 ADD SWAP1 PUSH2 0xC82 SWAP2 SWAP1 PUSH2 0x11BA JUMP JUMPDEST POP POP POP JUMP JUMPDEST PUSH1 0x7 SLOAD PUSH1 0x1 PUSH1 0x1 PUSH1 0xA0 SHL SUB AND CALLER EQ PUSH2 0xCCF JUMPI PUSH1 0x40 MLOAD PUSH3 0x461BCD PUSH1 0xE5 SHL DUP2 MSTORE PUSH1 0x20 PUSH1 0x4 DUP3 ADD MSTORE PUSH1 0xB PUSH1 0x24 DUP3 ADD MSTORE PUSH11 0x1B9BDD08105B1B1BDDD959 PUSH1 0xAA SHL PUSH1 0x44 DUP3 ADD MSTORE PUSH1 0x64 ADD PUSH2 0x476 JUMP JUMPDEST PUSH1 0x5 DUP1 SLOAD PUSH1 0x1 PUSH1 0x1 PUSH1 0xA0 SHL SUB NOT AND PUSH1 0x1 PUSH1 0x1 PUSH1 0xA0 SHL SUB SWAP3 SWAP1 SWAP3 AND SWAP2 SWAP1 SWAP2 OR SWAP1 SSTORE JUMP JUMPDEST PUSH1 0x6 SLOAD PUSH1 0x40 MLOAD PUSH4 0x70A08231 PUSH1 0xE0 SHL DUP2 MSTORE CALLER PUSH1 0x4 DUP3 ADD MSTORE PUSH1 0x0 SWAP2 PUSH1 0x1 PUSH1 0x1 PUSH1 0xA0 SHL SUB AND SWAP1 PUSH4 0x70A08231 SWAP1 PUSH1 0x24 ADD PUSH1 0x20 PUSH1 0x40 MLOAD DUP1 DUP4 SUB DUP2 DUP7 GAS STATICCALL ISZERO DUP1 ISZERO PUSH2 0xD3A JUMPI RETURNDATASIZE PUSH1 0x0 DUP1 RETURNDATACOPY RETURNDATASIZE PUSH1 0x0 REVERT JUMPDEST POP POP POP POP PUSH1 0x40 MLOAD RETURNDATASIZE PUSH1 0x1F NOT PUSH1 0x1F DUP3 ADD AND DUP3 ADD DUP1 PUSH1 0x40 MSTORE POP DUP2 ADD SWAP1 PUSH2 0xD5E SWAP2 SWAP1 PUSH2 0x11E3 JUMP JUMPDEST GT PUSH2 0xD9B JUMPI PUSH1 0x40 MLOAD PUSH3 0x461BCD PUSH1 0xE5 SHL DUP2 MSTORE PUSH1 0x20 PUSH1 0x4 DUP3 ADD MSTORE PUSH1 0xD PUSH1 0x24 DUP3 ADD MSTORE PUSH13 0x5A65726F20486F6C64696E6773 PUSH1 0x98 SHL PUSH1 0x44 DUP3 ADD MSTORE PUSH1 0x64 ADD PUSH2 0x476 JUMP JUMPDEST CALLER PUSH1 0x0 SWAP1 DUP2 MSTORE PUSH1 0x4 PUSH1 0x20 MSTORE PUSH1 0x40 SWAP1 KECCAK256 SLOAD PUSH1 0xFF AND ISZERO PUSH2 0xE0A JUMPI PUSH1 0x40 MLOAD PUSH3 0x461BCD PUSH1 0xE5 SHL DUP2 MSTORE PUSH1 0x20 PUSH1 0x4 DUP3 ADD MSTORE PUSH1 0x26 PUSH1 0x24 DUP3 ADD MSTORE PUSH32 0x596F75206861766520616C7265616479206170706C69656420666F7220726564 PUSH1 0x44 DUP3 ADD MSTORE PUSH6 0x3AB1BA34B7B7 PUSH1 0xD1 SHL PUSH1 0x64 DUP3 ADD MSTORE PUSH1 0x84 ADD PUSH2 0x476 JUMP JUMPDEST PUSH1 0xA DUP1 SLOAD SWAP1 PUSH1 0x0 PUSH2 0xE1A DUP4 PUSH2 0x11FC JUMP JUMPDEST SWAP1 SWAP2 SSTORE POP POP CALLER PUSH1 0x0 SWAP1 DUP2 MSTORE PUSH1 0x4 PUSH1 0x20 MSTORE PUSH1 0x40 SWAP1 KECCAK256 DUP1 SLOAD PUSH1 0xFF NOT AND PUSH1 0x1 OR SWAP1 SSTORE JUMP JUMPDEST CALLER PUSH1 0x0 SWAP1 DUP2 MSTORE PUSH1 0x3 PUSH1 0x20 MSTORE PUSH1 0x40 SWAP1 KECCAK256 SLOAD PUSH2 0xE57 SWAP1 PUSH1 0x5A SWAP1 PUSH2 0x11A7 JUMP JUMPDEST TIMESTAMP LT ISZERO PUSH2 0xEA6 JUMPI PUSH1 0x40 MLOAD PUSH3 0x461BCD PUSH1 0xE5 SHL DUP2 MSTORE PUSH1 0x20 PUSH1 0x4 DUP3 ADD MSTORE PUSH1 0x1C PUSH1 0x24 DUP3 ADD MSTORE PUSH32 0x43616E6E6F7420756E6C6F636B206265666F7265203930206461797300000000 PUSH1 0x44 DUP3 ADD MSTORE PUSH1 0x64 ADD PUSH2 0x476 JUMP JUMPDEST CALLER PUSH1 0x0 SWAP1 DUP2 MSTORE PUSH1 0x13 PUSH1 0x20 MSTORE PUSH1 0x40 SWAP1 KECCAK256 SLOAD DUP1 PUSH2 0xEF6 JUMPI PUSH1 0x40 MLOAD PUSH3 0x461BCD PUSH1 0xE5 SHL DUP2 MSTORE PUSH1 0x20 PUSH1 0x4 DUP3 ADD MSTORE PUSH1 0x10 PUSH1 0x24 DUP3 ADD MSTORE PUSH16 0x4E6F206C6F636B656420746F6B656E73 PUSH1 0x80 SHL PUSH1 0x44 DUP3 ADD MSTORE PUSH1 0x64 ADD PUSH2 0x476 JUMP JUMPDEST PUSH1 0x5 SLOAD PUSH1 0x40 MLOAD PUSH4 0xA9059CBB PUSH1 0xE0 SHL DUP2 MSTORE CALLER PUSH1 0x4 DUP3 ADD MSTORE PUSH1 0x24 DUP2 ADD DUP4 SWAP1 MSTORE PUSH1 0x1 PUSH1 0x1 PUSH1 0xA0 SHL SUB SWAP1 SWAP2 AND SWAP1 PUSH4 0xA9059CBB SWAP1 PUSH1 0x44 ADD PUSH1 0x20 PUSH1 0x40 MLOAD DUP1 DUP4 SUB DUP2 PUSH1 0x0 DUP8 GAS CALL ISZERO DUP1 ISZERO PUSH2 0xF47 JUMPI RETURNDATASIZE PUSH1 0x0 DUP1 RETURNDATACOPY RETURNDATASIZE PUSH1 0x0 REVERT JUMPDEST POP POP POP POP PUSH1 0x40 MLOAD RETURNDATASIZE PUSH1 0x1F NOT PUSH1 0x1F DUP3 ADD AND DUP3 ADD DUP1 PUSH1 0x40 MSTORE POP DUP2 ADD SWAP1 PUSH2 0xF6B SWAP2 SWAP1 PUSH2 0x11BA JUMP JUMPDEST PUSH2 0xFB2 JUMPI PUSH1 0x40 MLOAD PUSH3 0x461BCD PUSH1 0xE5 SHL DUP2 MSTORE PUSH1 0x20 PUSH1 0x4 DUP3 ADD MSTORE PUSH1 0x18 PUSH1 0x24 DUP3 ADD MSTORE PUSH24 0x1314081D1BDAD95B881D1C985B9CD9995C8819985A5B1959 PUSH1 0x42 SHL PUSH1 0x44 DUP3 ADD MSTORE PUSH1 0x64 ADD PUSH2 0x476 JUMP JUMPDEST DUP1 PUSH1 0x9 PUSH1 0x0 DUP3 DUP3 SLOAD PUSH2 0xFC4 SWAP2 SWAP1 PUSH2 0x115B JUMP JUMPDEST SWAP1 SWAP2 SSTORE POP POP CALLER PUSH1 0x0 SWAP1 DUP2 MSTORE PUSH1 0x1 PUSH1 0x20 MSTORE PUSH1 0x40 DUP2 KECCAK256 DUP1 SLOAD DUP4 SWAP3 SWAP1 PUSH2 0xFE8 SWAP1 DUP5 SWAP1 PUSH2 0x115B JUMP JUMPDEST SWAP1 SWAP2 SSTORE POP POP CALLER PUSH1 0x0 DUP2 DUP2 MSTORE PUSH1 0x13 PUSH1 0x20 MSTORE PUSH1 0x40 DUP1 DUP3 KECCAK256 DUP3 DUP2 SSTORE PUSH1 0x1 ADD SWAP2 SWAP1 SWAP2 SSTORE MLOAD PUSH32 0x580EC6003F06A23971F7CCDB029AE688764884D7361687066E352D1FF6024473 SWAP1 PUSH2 0x1037 SWAP1 DUP5 DUP2 MSTORE PUSH1 0x20 ADD SWAP1 JUMP JUMPDEST PUSH1 0x40 MLOAD DUP1 SWAP2 SUB SWAP1 LOG2 POP JUMP JUMPDEST PUSH1 0x0 PUSH2 0x1051 PUSH3 0x278D00 TIMESTAMP PUSH2 0x116E JUMP JUMPDEST SWAP1 POP SWAP1 JUMP JUMPDEST PUSH1 0x0 PUSH2 0x1051 PUSH4 0x1E13380 TIMESTAMP PUSH2 0x116E JUMP JUMPDEST PUSH1 0x0 DUP2 DUP4 LT PUSH2 0x1075 JUMPI DUP2 PUSH2 0x1077 JUMP JUMPDEST DUP3 JUMPDEST SWAP1 POP JUMPDEST SWAP3 SWAP2 POP POP JUMP JUMPDEST PUSH1 0x0 PUSH1 0x1 PUSH1 0xA SLOAD LT PUSH2 0x1096 JUMPI PUSH1 0x32 PUSH1 0xB SSTORE PUSH2 0x10C4 JUMP JUMPDEST PUSH1 0x2 PUSH1 0xA SLOAD LT PUSH2 0x10AA JUMPI PUSH1 0x19 PUSH1 0xB SSTORE PUSH2 0x10C4 JUMP JUMPDEST PUSH1 0x3 PUSH1 0xA SLOAD LT PUSH2 0x10BE JUMPI PUSH1 0xC PUSH1 0xB SSTORE PUSH2 0x10C4 JUMP JUMPDEST PUSH1 0x64 PUSH1 0xB SSTORE JUMPDEST POP PUSH1 0xB SLOAD SWAP1 JUMP JUMPDEST DUP1 CALLDATALOAD PUSH1 0x1 PUSH1 0x1 PUSH1 0xA0 SHL SUB DUP2 AND DUP2 EQ PUSH2 0x10E2 JUMPI PUSH1 0x0 DUP1 REVERT JUMPDEST SWAP2 SWAP1 POP JUMP JUMPDEST PUSH1 0x0 PUSH1 0x20 DUP3 DUP5 SUB SLT ISZERO PUSH2 0x10F9 JUMPI PUSH1 0x0 DUP1 REVERT JUMPDEST PUSH2 0x1077 DUP3 PUSH2 0x10CB JUMP JUMPDEST PUSH1 0x0 PUSH1 0x20 DUP3 DUP5 SUB SLT ISZERO PUSH2 0x1114 JUMPI PUSH1 0x0 DUP1 REVERT JUMPDEST POP CALLDATALOAD SWAP2 SWAP1 POP JUMP JUMPDEST PUSH1 0x0 DUP1 PUSH1 0x40 DUP4 DUP6 SUB SLT ISZERO PUSH2 0x112E JUMPI PUSH1 0x0 DUP1 REVERT JUMPDEST PUSH2 0x1137 DUP4 PUSH2 0x10CB JUMP JUMPDEST SWAP5 PUSH1 0x20 SWAP4 SWAP1 SWAP4 ADD CALLDATALOAD SWAP4 POP POP POP JUMP JUMPDEST PUSH4 0x4E487B71 PUSH1 0xE0 SHL PUSH1 0x0 MSTORE PUSH1 0x11 PUSH1 0x4 MSTORE PUSH1 0x24 PUSH1 0x0 REVERT JUMPDEST DUP2 DUP2 SUB DUP2 DUP2 GT ISZERO PUSH2 0x107A JUMPI PUSH2 0x107A PUSH2 0x1145 JUMP JUMPDEST PUSH1 0x0 DUP3 PUSH2 0x118B JUMPI PUSH4 0x4E487B71 PUSH1 0xE0 SHL PUSH1 0x0 MSTORE PUSH1 0x12 PUSH1 0x4 MSTORE PUSH1 0x24 PUSH1 0x0 REVERT JUMPDEST POP DIV SWAP1 JUMP JUMPDEST DUP1 DUP3 MUL DUP2 ISZERO DUP3 DUP3 DIV DUP5 EQ OR PUSH2 0x107A JUMPI PUSH2 0x107A PUSH2 0x1145 JUMP JUMPDEST DUP1 DUP3 ADD DUP1 DUP3 GT ISZERO PUSH2 0x107A JUMPI PUSH2 0x107A PUSH2 0x1145 JUMP JUMPDEST PUSH1 0x0 PUSH1 0x20 DUP3 DUP5 SUB SLT ISZERO PUSH2 0x11CC JUMPI PUSH1 0x0 DUP1 REVERT JUMPDEST DUP2 MLOAD DUP1 ISZERO ISZERO DUP2 EQ PUSH2 0x11DC JUMPI PUSH1 0x0 DUP1 REVERT JUMPDEST SWAP4 SWAP3 POP POP POP JUMP JUMPDEST PUSH1 0x0 PUSH1 0x20 DUP3 DUP5 SUB SLT ISZERO PUSH2 0x11F5 JUMPI PUSH1 0x0 DUP1 REVERT JUMPDEST POP MLOAD SWAP2 SWAP1 POP JUMP JUMPDEST PUSH1 0x0 PUSH1 0x1 DUP3 ADD PUSH2 0x120E JUMPI PUSH2 0x120E PUSH2 0x1145 JUMP JUMPDEST POP PUSH1 0x1 ADD SWAP1 JUMP INVALID LOG2 PUSH5 0x6970667358 0x22 SLT KECCAK256 BLOBBASEFEE AND MSIZE 0xF8 SAR 0x21 PUSH23 0xE117D90B240AF8EFAC8B9D431ED264D2EF24D3E94F3AF3 CREATE2 GAS PUSH5 0x736F6C6343 STOP ADDMOD NOT STOP CALLER "
				},
				"gasEstimates": {
					"creation": {
						"codeDepositCost": "936600",
						"executionCost": "infinite",
						"totalCost": "infinite"
					},
					"external": {
						"MINIMUM_CLAIM_INTERVAL()": "307",
						"NINETY_DAYS()": "239",
						"accumulatedRewards(address)": "1290",
						"alreadyVoted(address)": "1248",
						"annualRewards(uint256)": "1228",
						"applicants()": "1105",
						"currentDay()": "1129",
						"currentMonth()": "1106",
						"dailyLimit()": "1041",
						"getCurrentMonth()": "360",
						"getUnclaimedRewards(address)": "infinite",
						"harvestRewards()": "infinite",
						"lastClaimTime(address)": "1337",
						"lockInfo(address)": "2152",
						"lockLP(uint256)": "infinite",
						"lpTokenAddress()": "1103",
						"marketingWallet()": "1126",
						"monthlyRewardLimit()": "1041",
						"reduceCommission()": "infinite",
						"rewardToken()": "1125",
						"rewardsDistributedToday()": "1084",
						"setUniswapPool(address)": "22083",
						"stakedTokens(address)": "1268",
						"stakingStartTime(address)": "1290",
						"totalDistributedRewards()": "1062",
						"unlockLP()": "infinite",
						"withdrawExcess(address,uint256)": "infinite"
					},
					"internal": {
						"marketingFee()": "23306",
						"min(uint256,uint256)": "65",
						"yearNow()": "79"
					}
				},
				"methodIdentifiers": {
					"MINIMUM_CLAIM_INTERVAL()": "50f0a325",
					"NINETY_DAYS()": "e372c900",
					"accumulatedRewards(address)": "73f273fc",
					"alreadyVoted(address)": "06d2ad40",
					"annualRewards(uint256)": "443df8f5",
					"applicants()": "fdf5963a",
					"currentDay()": "5c9302c9",
					"currentMonth()": "862a4d47",
					"dailyLimit()": "67eeba0c",
					"getCurrentMonth()": "ddd1b67e",
					"getUnclaimedRewards(address)": "69a69e29",
					"harvestRewards()": "2be11ae2",
					"lastClaimTime(address)": "b77cf9c6",
					"lockInfo(address)": "6bd3b87c",
					"lockLP(uint256)": "40519a53",
					"lpTokenAddress()": "f5ae497a",
					"marketingWallet()": "75f0a874",
					"monthlyRewardLimit()": "8aca35a0",
					"reduceCommission()": "92f851c1",
					"rewardToken()": "f7c618c1",
					"rewardsDistributedToday()": "b5a556d2",
					"setUniswapPool(address)": "8f90e902",
					"stakedTokens(address)": "a5b39cfb",
					"stakingStartTime(address)": "d1232730",
					"totalDistributedRewards()": "a87df832",
					"unlockLP()": "b91f3f97",
					"withdrawExcess(address,uint256)": "6e90013d"
				}
			},
			"storageLayout": {
				"storage": [
					{
						"astId": 72,
						"contract": "contracts/BUDS/SeedGrower.sol:Staking",
						"label": "lastClaimTime",
						"offset": 0,
						"slot": "0",
						"type": "t_mapping(t_address,t_uint256)"
					},
					{
						"astId": 76,
						"contract": "contracts/BUDS/SeedGrower.sol:Staking",
						"label": "stakedTokens",
						"offset": 0,
						"slot": "1",
						"type": "t_mapping(t_address,t_uint256)"
					},
					{
						"astId": 80,
						"contract": "contracts/BUDS/SeedGrower.sol:Staking",
						"label": "accumulatedRewards",
						"offset": 0,
						"slot": "2",
						"type": "t_mapping(t_address,t_uint256)"
					},
					{
						"astId": 84,
						"contract": "contracts/BUDS/SeedGrower.sol:Staking",
						"label": "stakingStartTime",
						"offset": 0,
						"slot": "3",
						"type": "t_mapping(t_address,t_uint256)"
					},
					{
						"astId": 88,
						"contract": "contracts/BUDS/SeedGrower.sol:Staking",
						"label": "alreadyVoted",
						"offset": 0,
						"slot": "4",
						"type": "t_mapping(t_address,t_bool)"
					},
					{
						"astId": 96,
						"contract": "contracts/BUDS/SeedGrower.sol:Staking",
						"label": "lpTokenAddress",
						"offset": 0,
						"slot": "5",
						"type": "t_address"
					},
					{
						"astId": 99,
						"contract": "contracts/BUDS/SeedGrower.sol:Staking",
						"label": "rewardToken",
						"offset": 0,
						"slot": "6",
						"type": "t_contract(IERC20)68"
					},
					{
						"astId": 103,
						"contract": "contracts/BUDS/SeedGrower.sol:Staking",
						"label": "owner",
						"offset": 0,
						"slot": "7",
						"type": "t_address"
					},
					{
						"astId": 106,
						"contract": "contracts/BUDS/SeedGrower.sol:Staking",
						"label": "marketingWallet",
						"offset": 0,
						"slot": "8",
						"type": "t_address"
					},
					{
						"astId": 108,
						"contract": "contracts/BUDS/SeedGrower.sol:Staking",
						"label": "totalStakedTokens",
						"offset": 0,
						"slot": "9",
						"type": "t_uint256"
					},
					{
						"astId": 110,
						"contract": "contracts/BUDS/SeedGrower.sol:Staking",
						"label": "applicants",
						"offset": 0,
						"slot": "10",
						"type": "t_uint256"
					},
					{
						"astId": 112,
						"contract": "contracts/BUDS/SeedGrower.sol:Staking",
						"label": "fee",
						"offset": 0,
						"slot": "11",
						"type": "t_uint256"
					},
					{
						"astId": 114,
						"contract": "contracts/BUDS/SeedGrower.sol:Staking",
						"label": "totalDistributedRewards",
						"offset": 0,
						"slot": "12",
						"type": "t_uint256"
					},
					{
						"astId": 116,
						"contract": "contracts/BUDS/SeedGrower.sol:Staking",
						"label": "currentMonth",
						"offset": 0,
						"slot": "13",
						"type": "t_uint256"
					},
					{
						"astId": 118,
						"contract": "contracts/BUDS/SeedGrower.sol:Staking",
						"label": "currentDay",
						"offset": 0,
						"slot": "14",
						"type": "t_uint256"
					},
					{
						"astId": 120,
						"contract": "contracts/BUDS/SeedGrower.sol:Staking",
						"label": "monthlyRewardLimit",
						"offset": 0,
						"slot": "15",
						"type": "t_uint256"
					},
					{
						"astId": 122,
						"contract": "contracts/BUDS/SeedGrower.sol:Staking",
						"label": "dailyLimit",
						"offset": 0,
						"slot": "16",
						"type": "t_uint256"
					},
					{
						"astId": 124,
						"contract": "contracts/BUDS/SeedGrower.sol:Staking",
						"label": "rewardsDistributedToday",
						"offset": 0,
						"slot": "17",
						"type": "t_uint256"
					},
					{
						"astId": 133,
						"contract": "contracts/BUDS/SeedGrower.sol:Staking",
						"label": "annualRewards",
						"offset": 0,
						"slot": "18",
						"type": "t_mapping(t_uint256,t_uint256)"
					},
					{
						"astId": 168,
						"contract": "contracts/BUDS/SeedGrower.sol:Staking",
						"label": "lockInfo",
						"offset": 0,
						"slot": "19",
						"type": "t_mapping(t_address,t_struct(LockInfo)129_storage)"
					}
				],
				"types": {
					"t_address": {
						"encoding": "inplace",
						"label": "address",
						"numberOfBytes": "20"
					},
					"t_bool": {
						"encoding": "inplace",
						"label": "bool",
						"numberOfBytes": "1"
					},
					"t_contract(IERC20)68": {
						"encoding": "inplace",
						"label": "contract IERC20",
						"numberOfBytes": "20"
					},
					"t_mapping(t_address,t_bool)": {
						"encoding": "mapping",
						"key": "t_address",
						"label": "mapping(address => bool)",
						"numberOfBytes": "32",
						"value": "t_bool"
					},
					"t_mapping(t_address,t_struct(LockInfo)129_storage)": {
						"encoding": "mapping",
						"key": "t_address",
						"label": "mapping(address => struct Staking.LockInfo)",
						"numberOfBytes": "32",
						"value": "t_struct(LockInfo)129_storage"
					},
					"t_mapping(t_address,t_uint256)": {
						"encoding": "mapping",
						"key": "t_address",
						"label": "mapping(address => uint256)",
						"numberOfBytes": "32",
						"value": "t_uint256"
					},
					"t_mapping(t_uint256,t_uint256)": {
						"encoding": "mapping",
						"key": "t_uint256",
						"label": "mapping(uint256 => uint256)",
						"numberOfBytes": "32",
						"value": "t_uint256"
					},
					"t_struct(LockInfo)129_storage": {
						"encoding": "inplace",
						"label": "struct Staking.LockInfo",
						"members": [
							{
								"astId": 126,
								"contract": "contracts/BUDS/SeedGrower.sol:Staking",
								"label": "amount",
								"offset": 0,
								"slot": "0",
								"type": "t_uint256"
							},
							{
								"astId": 128,
								"contract": "contracts/BUDS/SeedGrower.sol:Staking",
								"label": "lockTime",
								"offset": 0,
								"slot": "1",
								"type": "t_uint256"
							}
						],
						"numberOfBytes": "64"
					},
					"t_uint256": {
						"encoding": "inplace",
						"label": "uint256",
						"numberOfBytes": "32"
					}
				}
			},
			"userdoc": {
				"kind": "user",
				"methods": {},
				"version": 1
			}
		}
	}
}