{
	"contracts/BUDS/Topping.sol": {
		"Toppings": {
			"abi": [
				{
					"inputs": [
						{
							"internalType": "contract IERC20",
							"name": "_budsToken",
							"type": "address"
						},
						{
							"internalType": "address",
							"name": "_liquidityPool",
							"type": "address"
						},
						{
							"internalType": "address",
							"name": "_marketingAddress",
							"type": "address"
						}
					],
					"stateMutability": "nonpayable",
					"type": "constructor"
				},
				{
					"anonymous": false,
					"inputs": [
						{
							"indexed": true,
							"internalType": "address",
							"name": "user",
							"type": "address"
						},
						{
							"indexed": false,
							"internalType": "uint256",
							"name": "amount",
							"type": "uint256"
						}
					],
					"name": "Claim",
					"type": "event"
				},
				{
					"anonymous": false,
					"inputs": [],
					"name": "Reset",
					"type": "event"
				},
				{
					"inputs": [
						{
							"internalType": "address",
							"name": "",
							"type": "address"
						}
					],
					"name": "alreadyVoted",
					"outputs": [
						{
							"internalType": "bool",
							"name": "",
							"type": "bool"
						}
					],
					"stateMutability": "view",
					"type": "function"
				},
				{
					"inputs": [],
					"name": "applicants",
					"outputs": [
						{
							"internalType": "uint256",
							"name": "",
							"type": "uint256"
						}
					],
					"stateMutability": "view",
					"type": "function"
				},
				{
					"inputs": [],
					"name": "budsToken",
					"outputs": [
						{
							"internalType": "contract IERC20",
							"name": "",
							"type": "address"
						}
					],
					"stateMutability": "view",
					"type": "function"
				},
				{
					"inputs": [],
					"name": "claim",
					"outputs": [],
					"stateMutability": "nonpayable",
					"type": "function"
				},
				{
					"inputs": [],
					"name": "currentMonthRewardsLeft",
					"outputs": [
						{
							"internalType": "uint256",
							"name": "",
							"type": "uint256"
						}
					],
					"stateMutability": "view",
					"type": "function"
				},
				{
					"inputs": [],
					"name": "getCurrentMonthRewardsLeft",
					"outputs": [
						{
							"internalType": "uint256",
							"name": "",
							"type": "uint256"
						}
					],
					"stateMutability": "view",
					"type": "function"
				},
				{
					"inputs": [],
					"name": "getLastResetTime",
					"outputs": [
						{
							"internalType": "uint256",
							"name": "",
							"type": "uint256"
						}
					],
					"stateMutability": "view",
					"type": "function"
				},
				{
					"inputs": [],
					"name": "initialReward",
					"outputs": [
						{
							"internalType": "uint256",
							"name": "",
							"type": "uint256"
						}
					],
					"stateMutability": "view",
					"type": "function"
				},
				{
					"inputs": [],
					"name": "isResetTime",
					"outputs": [
						{
							"internalType": "bool",
							"name": "",
							"type": "bool"
						}
					],
					"stateMutability": "view",
					"type": "function"
				},
				{
					"inputs": [],
					"name": "isWithinClaimWindow",
					"outputs": [
						{
							"internalType": "bool",
							"name": "",
							"type": "bool"
						}
					],
					"stateMutability": "view",
					"type": "function"
				},
				{
					"inputs": [
						{
							"internalType": "address",
							"name": "",
							"type": "address"
						}
					],
					"name": "lastClaimTime",
					"outputs": [
						{
							"internalType": "uint256",
							"name": "",
							"type": "uint256"
						}
					],
					"stateMutability": "view",
					"type": "function"
				},
				{
					"inputs": [],
					"name": "lastResetTimestamp",
					"outputs": [
						{
							"internalType": "uint256",
							"name": "",
							"type": "uint256"
						}
					],
					"stateMutability": "view",
					"type": "function"
				},
				{
					"inputs": [],
					"name": "lpTokenAddress",
					"outputs": [
						{
							"internalType": "address",
							"name": "",
							"type": "address"
						}
					],
					"stateMutability": "view",
					"type": "function"
				},
				{
					"inputs": [],
					"name": "marketingAddress",
					"outputs": [
						{
							"internalType": "address",
							"name": "",
							"type": "address"
						}
					],
					"stateMutability": "view",
					"type": "function"
				},
				{
					"inputs": [],
					"name": "minLPValue",
					"outputs": [
						{
							"internalType": "uint256",
							"name": "",
							"type": "uint256"
						}
					],
					"stateMutability": "view",
					"type": "function"
				},
				{
					"inputs": [],
					"name": "numberOfApplicants",
					"outputs": [
						{
							"internalType": "uint256",
							"name": "",
							"type": "uint256"
						}
					],
					"stateMutability": "view",
					"type": "function"
				},
				{
					"inputs": [],
					"name": "reduceCommission",
					"outputs": [],
					"stateMutability": "nonpayable",
					"type": "function"
				},
				{
					"inputs": [],
					"name": "resetInterval",
					"outputs": [
						{
							"internalType": "uint256",
							"name": "",
							"type": "uint256"
						}
					],
					"stateMutability": "view",
					"type": "function"
				},
				{
					"inputs": [],
					"name": "timeSinceLastClaim",
					"outputs": [
						{
							"internalType": "uint256",
							"name": "",
							"type": "uint256"
						}
					],
					"stateMutability": "view",
					"type": "function"
				},
				{
					"inputs": [
						{
							"internalType": "address",
							"name": "token",
							"type": "address"
						},
						{
							"internalType": "uint256",
							"name": "amount",
							"type": "uint256"
						}
					],
					"name": "withdrawExcess",
					"outputs": [],
					"stateMutability": "nonpayable",
					"type": "function"
				}
			],
			"devdoc": {
				"kind": "dev",
				"methods": {},
				"version": 1
			},
			"evm": {
				"assembly": "    /* \"contracts/BUDS/Topping.sol\":1137:5543  contract Toppings {... */\n  mstore(0x40, 0xa0)\n    /* \"contracts/BUDS/Topping.sol\":1666:1667  0 */\n  0x00\n    /* \"contracts/BUDS/Topping.sol\":1645:1667  uint256 claimCount = 0 */\n  0x04\n  sstore\n    /* \"contracts/BUDS/Topping.sol\":1956:1982  address owner = msg.sender */\n  0x09\n  dup1\n  sload\n  not(sub(shl(0xa0, 0x01), 0x01))\n  and\n    /* \"contracts/BUDS/Topping.sol\":1972:1982  msg.sender */\n  caller\n    /* \"contracts/BUDS/Topping.sol\":1956:1982  address owner = msg.sender */\n  or\n  swap1\n  sstore\n    /* \"contracts/BUDS/Topping.sol\":2028:2043  block.timestamp */\n  timestamp\n    /* \"contracts/BUDS/Topping.sol\":1991:2043  uint256 public lastResetTimestamp =  block.timestamp */\n  0x0a\n  sstore\n    /* \"contracts/BUDS/Topping.sol\":2180:2426  constructor(... */\n  callvalue\n  dup1\n  iszero\n  tag_1\n  jumpi\n  0x00\n  dup1\n  revert\ntag_1:\n  pop\n  mload(0x40)\n  sub(codesize, bytecodeSize)\n  dup1\n  bytecodeSize\n  dup4\n  codecopy\n  dup2\n  add\n  0x40\n  dup2\n  swap1\n  mstore\n  tag_2\n  swap2\n  tag_3\n  jump\t// in\ntag_2:\n  sub(shl(0xa0, 0x01), 0x01)\n    /* \"contracts/BUDS/Topping.sol\":2307:2329  budsToken = _budsToken */\n  swap3\n  dup4\n  and\n  0x80\n  mstore\n    /* \"contracts/BUDS/Topping.sol\":2340:2354  lpTokenAddress */\n  0x00\n    /* \"contracts/BUDS/Topping.sol\":2340:2371  lpTokenAddress = _liquidityPool */\n  dup1\n  sload\n  swap3\n  dup5\n  and\n  not(sub(shl(0xa0, 0x01), 0x01))\n  swap4\n  dup5\n  and\n  or\n  swap1\n  sstore\n    /* \"contracts/BUDS/Topping.sol\":2382:2398  marketingAddress */\n  0x08\n    /* \"contracts/BUDS/Topping.sol\":2382:2418  marketingAddress = _marketingAddress */\n  dup1\n  sload\n  swap2\n  swap1\n  swap4\n  and\n  swap2\n  and\n  or\n  swap1\n  sstore\n    /* \"contracts/BUDS/Topping.sol\":1137:5543  contract Toppings {... */\n  jump(tag_8)\n    /* \"#utility.yul\":14:153   */\ntag_7:\n  sub(shl(0xa0, 0x01), 0x01)\n    /* \"#utility.yul\":97:128   */\n  dup2\n  and\n    /* \"#utility.yul\":87:129   */\n  dup2\n  eq\n    /* \"#utility.yul\":77:147   */\n  tag_10\n  jumpi\n    /* \"#utility.yul\":143:144   */\n  0x00\n    /* \"#utility.yul\":140:141   */\n  dup1\n    /* \"#utility.yul\":133:145   */\n  revert\n    /* \"#utility.yul\":77:147   */\ntag_10:\n    /* \"#utility.yul\":14:153   */\n  pop\n  jump\t// out\n    /* \"#utility.yul\":158:714   */\ntag_3:\n    /* \"#utility.yul\":259:265   */\n  0x00\n    /* \"#utility.yul\":267:273   */\n  dup1\n    /* \"#utility.yul\":275:281   */\n  0x00\n    /* \"#utility.yul\":328:330   */\n  0x60\n    /* \"#utility.yul\":316:325   */\n  dup5\n    /* \"#utility.yul\":307:314   */\n  dup7\n    /* \"#utility.yul\":303:326   */\n  sub\n    /* \"#utility.yul\":299:331   */\n  slt\n    /* \"#utility.yul\":296:348   */\n  iszero\n  tag_12\n  jumpi\n    /* \"#utility.yul\":344:345   */\n  0x00\n    /* \"#utility.yul\":341:342   */\n  dup1\n    /* \"#utility.yul\":334:346   */\n  revert\n    /* \"#utility.yul\":296:348   */\ntag_12:\n    /* \"#utility.yul\":376:385   */\n  dup4\n    /* \"#utility.yul\":370:386   */\n  mload\n    /* \"#utility.yul\":395:434   */\n  tag_13\n    /* \"#utility.yul\":428:433   */\n  dup2\n    /* \"#utility.yul\":395:434   */\n  tag_7\n  jump\t// in\ntag_13:\n    /* \"#utility.yul\":503:505   */\n  0x20\n    /* \"#utility.yul\":488:506   */\n  dup6\n  add\n    /* \"#utility.yul\":482:507   */\n  mload\n    /* \"#utility.yul\":453:458   */\n  swap1\n  swap4\n  pop\n    /* \"#utility.yul\":516:557   */\n  tag_14\n    /* \"#utility.yul\":482:507   */\n  dup2\n    /* \"#utility.yul\":516:557   */\n  tag_7\n  jump\t// in\ntag_14:\n    /* \"#utility.yul\":628:630   */\n  0x40\n    /* \"#utility.yul\":613:631   */\n  dup6\n  add\n    /* \"#utility.yul\":607:632   */\n  mload\n    /* \"#utility.yul\":576:583   */\n  swap1\n  swap3\n  pop\n    /* \"#utility.yul\":641:682   */\n  tag_15\n    /* \"#utility.yul\":607:632   */\n  dup2\n    /* \"#utility.yul\":641:682   */\n  tag_7\n  jump\t// in\ntag_15:\n    /* \"#utility.yul\":701:708   */\n  dup1\n    /* \"#utility.yul\":691:708   */\n  swap2\n  pop\n  pop\n    /* \"#utility.yul\":158:714   */\n  swap3\n  pop\n  swap3\n  pop\n  swap3\n  jump\t// out\ntag_8:\n    /* \"contracts/BUDS/Topping.sol\":1137:5543  contract Toppings {... */\n  mload(0x80)\n  codecopy(0x00, dataOffset(sub_0), dataSize(sub_0))\n  0x00\n  assignImmutable(\"0xe2ecacab2e0418b841e7d0b206f5c40e0e0489353c5747dd1cc77d7f5a66829f\")\n  return(0x00, dataSize(sub_0))\nstop\n\nsub_0: assembly {\n        /* \"contracts/BUDS/Topping.sol\":1137:5543  contract Toppings {... */\n      mstore(0x40, 0x80)\n      callvalue\n      dup1\n      iszero\n      tag_1\n      jumpi\n      0x00\n      dup1\n      revert\n    tag_1:\n      pop\n      jumpi(tag_2, lt(calldatasize, 0x04))\n      shr(0xe0, calldataload(0x00))\n      dup1\n      0xa5ece941\n      gt\n      tag_23\n      jumpi\n      dup1\n      0xcad7ca40\n      gt\n      tag_24\n      jumpi\n      dup1\n      0xcad7ca40\n      eq\n      tag_18\n      jumpi\n      dup1\n      0xf5ae497a\n      eq\n      tag_19\n      jumpi\n      dup1\n      0xf7e90d8f\n      eq\n      tag_20\n      jumpi\n      dup1\n      0xfda7aff0\n      eq\n      tag_21\n      jumpi\n      dup1\n      0xfdf5963a\n      eq\n      tag_22\n      jumpi\n      0x00\n      dup1\n      revert\n    tag_24:\n      dup1\n      0xa5ece941\n      eq\n      tag_13\n      jumpi\n      dup1\n      0xabee967c\n      eq\n      tag_14\n      jumpi\n      dup1\n      0xb2fd0901\n      eq\n      tag_15\n      jumpi\n      dup1\n      0xb343a0df\n      eq\n      tag_16\n      jumpi\n      dup1\n      0xb77cf9c6\n      eq\n      tag_17\n      jumpi\n      0x00\n      dup1\n      revert\n    tag_23:\n      dup1\n      0x4e71d92d\n      gt\n      tag_25\n      jumpi\n      dup1\n      0x4e71d92d\n      eq\n      tag_8\n      jumpi\n      dup1\n      0x6e90013d\n      eq\n      tag_9\n      jumpi\n      dup1\n      0x7f581488\n      eq\n      tag_10\n      jumpi\n      dup1\n      0x823cc69d\n      eq\n      tag_11\n      jumpi\n      dup1\n      0x92f851c1\n      eq\n      tag_12\n      jumpi\n      0x00\n      dup1\n      revert\n    tag_25:\n      dup1\n      0x03e0a1e2\n      eq\n      tag_3\n      jumpi\n      dup1\n      0x06d2ad40\n      eq\n      tag_4\n      jumpi\n      dup1\n      0x09c21f2d\n      eq\n      tag_5\n      jumpi\n      dup1\n      0x39ad74cd\n      eq\n      tag_6\n      jumpi\n      dup1\n      0x4618af42\n      eq\n      tag_7\n      jumpi\n    tag_2:\n      0x00\n      dup1\n      revert\n        /* \"contracts/BUDS/Topping.sol\":3250:3379  function timeSinceLastClaim() public view returns (uint256) {... */\n    tag_3:\n      tag_26\n      tag_27\n      jump\t// in\n    tag_26:\n      mload(0x40)\n        /* \"#utility.yul\":160:185   */\n      swap1\n      dup2\n      mstore\n        /* \"#utility.yul\":148:150   */\n      0x20\n        /* \"#utility.yul\":133:151   */\n      add\n        /* \"contracts/BUDS/Topping.sol\":3250:3379  function timeSinceLastClaim() public view returns (uint256) {... */\n    tag_28:\n      mload(0x40)\n      dup1\n      swap2\n      sub\n      swap1\n      return\n        /* \"contracts/BUDS/Topping.sol\":1778:1822  mapping(address => bool) public alreadyVoted */\n    tag_4:\n      tag_30\n      tag_31\n      calldatasize\n      0x04\n      tag_32\n      jump\t// in\n    tag_31:\n      mstore(0x20, 0x06)\n      0x00\n      swap1\n      dup2\n      mstore\n      0x40\n      swap1\n      keccak256\n      sload\n      0xff\n      and\n      dup2\n      jump\n    tag_30:\n      mload(0x40)\n        /* \"#utility.yul\":730:744   */\n      swap1\n      iszero\n        /* \"#utility.yul\":723:745   */\n      iszero\n        /* \"#utility.yul\":705:746   */\n      dup2\n      mstore\n        /* \"#utility.yul\":693:695   */\n      0x20\n        /* \"#utility.yul\":678:696   */\n      add\n        /* \"contracts/BUDS/Topping.sol\":1778:1822  mapping(address => bool) public alreadyVoted */\n      tag_28\n        /* \"#utility.yul\":565:752   */\n      jump\n        /* \"contracts/BUDS/Topping.sol\":4183:4312  function isResetTime() public view returns (bool) {... */\n    tag_5:\n      tag_30\n      tag_37\n      jump\t// in\n        /* \"contracts/BUDS/Topping.sol\":4320:4464  function getLastResetTime() public view returns (uint256) {... */\n    tag_6:\n        /* \"contracts/BUDS/Topping.sol\":4396:4414  lastResetTimestamp */\n      sload(0x0a)\n        /* \"contracts/BUDS/Topping.sol\":4320:4464  function getLastResetTime() public view returns (uint256) {... */\n      jump(tag_26)\n        /* \"contracts/BUDS/Topping.sol\":2434:2566  function getCurrentMonthRewardsLeft() public view returns(uint256)... */\n    tag_7:\n      tag_26\n      tag_43\n      jump\t// in\n        /* \"contracts/BUDS/Topping.sol\":2574:3239  function claim() public {... */\n    tag_8:\n      tag_45\n      tag_46\n      jump\t// in\n    tag_45:\n      stop\n        /* \"contracts/BUDS/Topping.sol\":4933:5107  function withdrawExcess(address token, uint256 amount) external {... */\n    tag_9:\n      tag_45\n      tag_48\n      calldatasize\n      0x04\n      tag_49\n      jump\t// in\n    tag_48:\n      tag_50\n      jump\t// in\n        /* \"contracts/BUDS/Topping.sol\":1189:1222  IERC20 public immutable budsToken */\n    tag_10:\n      tag_51\n      immutable(\"0xe2ecacab2e0418b841e7d0b206f5c40e0e0489353c5747dd1cc77d7f5a66829f\")\n      dup2\n      jump\n    tag_51:\n      mload(0x40)\n      sub(shl(0xa0, 0x01), 0x01)\n        /* \"#utility.yul\":1193:1225   */\n      swap1\n      swap2\n      and\n        /* \"#utility.yul\":1175:1226   */\n      dup2\n      mstore\n        /* \"#utility.yul\":1163:1165   */\n      0x20\n        /* \"#utility.yul\":1148:1166   */\n      add\n        /* \"contracts/BUDS/Topping.sol\":1189:1222  IERC20 public immutable budsToken */\n      tag_28\n        /* \"#utility.yul\":1016:1232   */\n      jump\n        /* \"contracts/BUDS/Topping.sol\":4033:4175  function isWithinClaimWindow() public view returns (bool) {... */\n    tag_11:\n      tag_30\n      tag_56\n      jump\t// in\n        /* \"contracts/BUDS/Topping.sol\":5226:5538  function reduceCommission() public {... */\n    tag_12:\n      tag_45\n      tag_59\n      jump\t// in\n        /* \"contracts/BUDS/Topping.sol\":1918:1949  address public marketingAddress */\n    tag_13:\n      sload(0x08)\n      tag_51\n      swap1\n      sub(shl(0xa0, 0x01), 0x01)\n      and\n      dup2\n      jump\n        /* \"contracts/BUDS/Topping.sol\":1444:1472  uint256 public initialReward */\n    tag_14:\n      tag_26\n      sload(0x01)\n      dup2\n      jump\n        /* \"contracts/BUDS/Topping.sol\":1479:1517  uint256 public currentMonthRewardsLeft */\n    tag_15:\n      tag_26\n      sload(0x02)\n      dup2\n      jump\n        /* \"contracts/BUDS/Topping.sol\":1991:2043  uint256 public lastResetTimestamp =  block.timestamp */\n    tag_16:\n      tag_26\n      sload(0x0a)\n      dup2\n      jump\n        /* \"contracts/BUDS/Topping.sol\":1722:1771  mapping(address => uint256)  public lastClaimTime */\n    tag_17:\n      tag_26\n      tag_74\n      calldatasize\n      0x04\n      tag_32\n      jump\t// in\n    tag_74:\n      mstore(0x20, 0x05)\n      0x00\n      swap1\n      dup2\n      mstore\n      0x40\n      swap1\n      keccak256\n      sload\n      dup2\n      jump\n        /* \"contracts/BUDS/Topping.sol\":5117:5218  function numberOfApplicants() public view returns (uint256)... */\n    tag_18:\n        /* \"contracts/BUDS/Topping.sol\":5200:5210  applicants */\n      sload(0x07)\n        /* \"contracts/BUDS/Topping.sol\":5117:5218  function numberOfApplicants() public view returns (uint256)... */\n      jump(tag_26)\n        /* \"contracts/BUDS/Topping.sol\":1268:1297  address public lpTokenAddress */\n    tag_19:\n      sload(0x00)\n      tag_51\n      swap1\n      sub(shl(0xa0, 0x01), 0x01)\n      and\n      dup2\n      jump\n        /* \"contracts/BUDS/Topping.sol\":1347:1394  uint256 public constant minLPValue = 20 * 10**6 */\n    tag_20:\n      tag_26\n        /* \"contracts/BUDS/Topping.sol\":1384:1394  20 * 10**6 */\n      0x01312d00\n        /* \"contracts/BUDS/Topping.sol\":1347:1394  uint256 public constant minLPValue = 20 * 10**6 */\n      dup2\n      jump\n        /* \"contracts/BUDS/Topping.sol\":1548:1595  uint256 public constant resetInterval = 30 days */\n    tag_21:\n      tag_26\n        /* \"contracts/BUDS/Topping.sol\":1588:1595  30 days */\n      0x278d00\n        /* \"contracts/BUDS/Topping.sol\":1548:1595  uint256 public constant resetInterval = 30 days */\n      dup2\n      jump\n        /* \"contracts/BUDS/Topping.sol\":1829:1854  uint256 public applicants */\n    tag_22:\n      tag_26\n      sload(0x07)\n      dup2\n      jump\n        /* \"contracts/BUDS/Topping.sol\":3250:3379  function timeSinceLastClaim() public view returns (uint256) {... */\n    tag_27:\n        /* \"contracts/BUDS/Topping.sol\":3360:3370  msg.sender */\n      caller\n        /* \"contracts/BUDS/Topping.sol\":3301:3308  uint256 */\n      0x00\n        /* \"contracts/BUDS/Topping.sol\":3346:3371  lastClaimTime[msg.sender] */\n      swap1\n      dup2\n      mstore\n        /* \"contracts/BUDS/Topping.sol\":3346:3359  lastClaimTime */\n      0x05\n        /* \"contracts/BUDS/Topping.sol\":3346:3371  lastClaimTime[msg.sender] */\n      0x20\n      mstore\n      0x40\n      dup2\n      keccak256\n      sload\n        /* \"contracts/BUDS/Topping.sol\":3328:3371  block.timestamp - lastClaimTime[msg.sender] */\n      tag_93\n      swap1\n        /* \"contracts/BUDS/Topping.sol\":3328:3343  block.timestamp */\n      timestamp\n        /* \"contracts/BUDS/Topping.sol\":3328:3371  block.timestamp - lastClaimTime[msg.sender] */\n      tag_94\n      jump\t// in\n    tag_93:\n        /* \"contracts/BUDS/Topping.sol\":3321:3371  return block.timestamp - lastClaimTime[msg.sender] */\n      swap1\n      pop\n        /* \"contracts/BUDS/Topping.sol\":3250:3379  function timeSinceLastClaim() public view returns (uint256) {... */\n      swap1\n      jump\t// out\n        /* \"contracts/BUDS/Topping.sol\":4183:4312  function isResetTime() public view returns (bool) {... */\n    tag_37:\n        /* \"contracts/BUDS/Topping.sol\":4227:4231  bool */\n      0x00\n        /* \"contracts/BUDS/Topping.sol\":1588:1595  30 days */\n      0x278d00\n        /* \"contracts/BUDS/Topping.sol\":4269:4287  getLastResetTime() */\n      tag_96\n        /* \"contracts/BUDS/Topping.sol\":4396:4414  lastResetTimestamp */\n      sload(0x0a)\n      swap1\n        /* \"contracts/BUDS/Topping.sol\":4320:4464  function getLastResetTime() public view returns (uint256) {... */\n      jump\n        /* \"contracts/BUDS/Topping.sol\":4269:4287  getLastResetTime() */\n    tag_96:\n        /* \"contracts/BUDS/Topping.sol\":4251:4287  block.timestamp - getLastResetTime() */\n      tag_97\n      swap1\n        /* \"contracts/BUDS/Topping.sol\":4251:4266  block.timestamp */\n      timestamp\n        /* \"contracts/BUDS/Topping.sol\":4251:4287  block.timestamp - getLastResetTime() */\n      tag_94\n      jump\t// in\n    tag_97:\n        /* \"contracts/BUDS/Topping.sol\":4251:4304  block.timestamp - getLastResetTime() >= resetInterval */\n      lt\n      iszero\n        /* \"contracts/BUDS/Topping.sol\":4244:4304  return block.timestamp - getLastResetTime() >= resetInterval */\n      swap1\n      pop\n        /* \"contracts/BUDS/Topping.sol\":4183:4312  function isResetTime() public view returns (bool) {... */\n      swap1\n      jump\t// out\n        /* \"contracts/BUDS/Topping.sol\":2434:2566  function getCurrentMonthRewardsLeft() public view returns(uint256)... */\n    tag_43:\n        /* \"contracts/BUDS/Topping.sol\":2524:2558  budsToken.balanceOf(address(this)) */\n      mload(0x40)\n      shl(0xe0, 0x70a08231)\n      dup2\n      mstore\n        /* \"contracts/BUDS/Topping.sol\":2552:2556  this */\n      address\n        /* \"contracts/BUDS/Topping.sol\":2524:2558  budsToken.balanceOf(address(this)) */\n      0x04\n      dup3\n      add\n        /* \"#utility.yul\":1175:1226   */\n      mstore\n        /* \"contracts/BUDS/Topping.sol\":2492:2499  uint256 */\n      0x00\n      swap1\n        /* \"contracts/BUDS/Topping.sol\":2524:2533  budsToken */\n      immutable(\"0xe2ecacab2e0418b841e7d0b206f5c40e0e0489353c5747dd1cc77d7f5a66829f\")\n      sub(shl(0xa0, 0x01), 0x01)\n        /* \"contracts/BUDS/Topping.sol\":2524:2543  budsToken.balanceOf */\n      and\n      swap1\n      0x70a08231\n      swap1\n        /* \"#utility.yul\":1148:1166   */\n      0x24\n      add\n        /* \"contracts/BUDS/Topping.sol\":2524:2558  budsToken.balanceOf(address(this)) */\n      0x20\n      mload(0x40)\n      dup1\n      dup4\n      sub\n      dup2\n      dup7\n      gas\n      staticcall\n      iszero\n      dup1\n      iszero\n      tag_102\n      jumpi\n      returndatasize\n      0x00\n      dup1\n      returndatacopy\n      revert(0x00, returndatasize)\n    tag_102:\n      pop\n      pop\n      pop\n      pop\n      mload(0x40)\n      returndatasize\n      not(0x1f)\n      0x1f\n      dup3\n      add\n      and\n      dup3\n      add\n      dup1\n      0x40\n      mstore\n      pop\n      dup2\n      add\n      swap1\n      tag_93\n      swap2\n      swap1\n      tag_104\n      jump\t// in\n        /* \"contracts/BUDS/Topping.sol\":2574:3239  function claim() public {... */\n    tag_46:\n        /* \"contracts/BUDS/Topping.sol\":2664:2665  0 */\n      0x00\n        /* \"contracts/BUDS/Topping.sol\":2624:2638  lpTokenAddress */\n      dup1\n      sload\n        /* \"contracts/BUDS/Topping.sol\":2617:2661  IERC20(lpTokenAddress).balanceOf(msg.sender) */\n      mload(0x40)\n      shl(0xe0, 0x70a08231)\n      dup2\n      mstore\n        /* \"contracts/BUDS/Topping.sol\":2650:2660  msg.sender */\n      caller\n        /* \"contracts/BUDS/Topping.sol\":2617:2661  IERC20(lpTokenAddress).balanceOf(msg.sender) */\n      0x04\n      dup3\n      add\n        /* \"#utility.yul\":1175:1226   */\n      mstore\n      sub(shl(0xa0, 0x01), 0x01)\n        /* \"contracts/BUDS/Topping.sol\":2624:2638  lpTokenAddress */\n      swap1\n      swap2\n      and\n      swap1\n        /* \"contracts/BUDS/Topping.sol\":2617:2649  IERC20(lpTokenAddress).balanceOf */\n      0x70a08231\n      swap1\n        /* \"#utility.yul\":1148:1166   */\n      0x24\n      add\n        /* \"contracts/BUDS/Topping.sol\":2617:2661  IERC20(lpTokenAddress).balanceOf(msg.sender) */\n      0x20\n      mload(0x40)\n      dup1\n      dup4\n      sub\n      dup2\n      dup7\n      gas\n      staticcall\n      iszero\n      dup1\n      iszero\n      tag_108\n      jumpi\n      returndatasize\n      0x00\n      dup1\n      returndatacopy\n      revert(0x00, returndatasize)\n    tag_108:\n      pop\n      pop\n      pop\n      pop\n      mload(0x40)\n      returndatasize\n      not(0x1f)\n      0x1f\n      dup3\n      add\n      and\n      dup3\n      add\n      dup1\n      0x40\n      mstore\n      pop\n      dup2\n      add\n      swap1\n      tag_109\n      swap2\n      swap1\n      tag_104\n      jump\t// in\n    tag_109:\n        /* \"contracts/BUDS/Topping.sol\":2617:2665  IERC20(lpTokenAddress).balanceOf(msg.sender) > 0 */\n      gt\n        /* \"contracts/BUDS/Topping.sol\":2609:2691  require(IERC20(lpTokenAddress).balanceOf(msg.sender) > 0, \"Not eligible to claim\") */\n      tag_110\n      jumpi\n      mload(0x40)\n      shl(0xe5, 0x461bcd)\n      dup2\n      mstore\n        /* \"#utility.yul\":2101:2103   */\n      0x20\n        /* \"contracts/BUDS/Topping.sol\":2609:2691  require(IERC20(lpTokenAddress).balanceOf(msg.sender) > 0, \"Not eligible to claim\") */\n      0x04\n      dup3\n      add\n        /* \"#utility.yul\":2083:2104   */\n      mstore\n        /* \"#utility.yul\":2140:2142   */\n      0x15\n        /* \"#utility.yul\":2120:2138   */\n      0x24\n      dup3\n      add\n        /* \"#utility.yul\":2113:2143   */\n      mstore\n      shl(0x58, 0x4e6f7420656c696769626c6520746f20636c61696d)\n        /* \"#utility.yul\":2159:2177   */\n      0x44\n      dup3\n      add\n        /* \"#utility.yul\":2152:2203   */\n      mstore\n        /* \"#utility.yul\":2220:2238   */\n      0x64\n      add\n        /* \"contracts/BUDS/Topping.sol\":2609:2691  require(IERC20(lpTokenAddress).balanceOf(msg.sender) > 0, \"Not eligible to claim\") */\n    tag_111:\n      mload(0x40)\n      dup1\n      swap2\n      sub\n      swap1\n      revert\n    tag_110:\n        /* \"contracts/BUDS/Topping.sol\":2720:2741  isWithinClaimWindow() */\n      tag_113\n        /* \"contracts/BUDS/Topping.sol\":2720:2739  isWithinClaimWindow */\n      tag_56\n        /* \"contracts/BUDS/Topping.sol\":2720:2741  isWithinClaimWindow() */\n      jump\t// in\n    tag_113:\n        /* \"contracts/BUDS/Topping.sol\":2712:2775  require(isWithinClaimWindow(), \"Can only claim after 24 hours\") */\n      tag_114\n      jumpi\n      mload(0x40)\n      shl(0xe5, 0x461bcd)\n      dup2\n      mstore\n        /* \"#utility.yul\":2451:2453   */\n      0x20\n        /* \"contracts/BUDS/Topping.sol\":2712:2775  require(isWithinClaimWindow(), \"Can only claim after 24 hours\") */\n      0x04\n      dup3\n      add\n        /* \"#utility.yul\":2433:2454   */\n      mstore\n        /* \"#utility.yul\":2490:2492   */\n      0x1d\n        /* \"#utility.yul\":2470:2488   */\n      0x24\n      dup3\n      add\n        /* \"#utility.yul\":2463:2493   */\n      mstore\n        /* \"#utility.yul\":2529:2560   */\n      0x43616e206f6e6c7920636c61696d20616674657220323420686f757273000000\n        /* \"#utility.yul\":2509:2527   */\n      0x44\n      dup3\n      add\n        /* \"#utility.yul\":2502:2561   */\n      mstore\n        /* \"#utility.yul\":2578:2596   */\n      0x64\n      add\n        /* \"contracts/BUDS/Topping.sol\":2712:2775  require(isWithinClaimWindow(), \"Can only claim after 24 hours\") */\n      tag_111\n        /* \"#utility.yul\":2249:2602   */\n      jump\n        /* \"contracts/BUDS/Topping.sol\":2712:2775  require(isWithinClaimWindow(), \"Can only claim after 24 hours\") */\n    tag_114:\n        /* \"contracts/BUDS/Topping.sol\":2814:2848  budsToken.balanceOf(address(this)) */\n      mload(0x40)\n      shl(0xe0, 0x70a08231)\n      dup2\n      mstore\n        /* \"contracts/BUDS/Topping.sol\":2842:2846  this */\n      address\n        /* \"contracts/BUDS/Topping.sol\":2814:2848  budsToken.balanceOf(address(this)) */\n      0x04\n      dup3\n      add\n        /* \"#utility.yul\":1175:1226   */\n      mstore\n        /* \"contracts/BUDS/Topping.sol\":2814:2823  budsToken */\n      immutable(\"0xe2ecacab2e0418b841e7d0b206f5c40e0e0489353c5747dd1cc77d7f5a66829f\")\n      sub(shl(0xa0, 0x01), 0x01)\n        /* \"contracts/BUDS/Topping.sol\":2814:2833  budsToken.balanceOf */\n      and\n      swap1\n      0x70a08231\n      swap1\n        /* \"#utility.yul\":1148:1166   */\n      0x24\n      add\n        /* \"contracts/BUDS/Topping.sol\":2814:2848  budsToken.balanceOf(address(this)) */\n      0x20\n      mload(0x40)\n      dup1\n      dup4\n      sub\n      dup2\n      dup7\n      gas\n      staticcall\n      iszero\n      dup1\n      iszero\n      tag_119\n      jumpi\n      returndatasize\n      0x00\n      dup1\n      returndatacopy\n      revert(0x00, returndatasize)\n    tag_119:\n      pop\n      pop\n      pop\n      pop\n      mload(0x40)\n      returndatasize\n      not(0x1f)\n      0x1f\n      dup3\n      add\n      and\n      dup3\n      add\n      dup1\n      0x40\n      mstore\n      pop\n      dup2\n      add\n      swap1\n      tag_120\n      swap2\n      swap1\n      tag_104\n      jump\t// in\n    tag_120:\n        /* \"contracts/BUDS/Topping.sol\":2788:2811  currentMonthRewardsLeft */\n      0x02\n        /* \"contracts/BUDS/Topping.sol\":2788:2848  currentMonthRewardsLeft = budsToken.balanceOf(address(this)) */\n      sstore\n        /* \"contracts/BUDS/Topping.sol\":2859:2873  uint256 reward */\n      0x00\n        /* \"contracts/BUDS/Topping.sol\":2876:2893  calculateReward() */\n      tag_121\n        /* \"contracts/BUDS/Topping.sol\":2876:2891  calculateReward */\n      tag_122\n        /* \"contracts/BUDS/Topping.sol\":2876:2893  calculateReward() */\n      jump\t// in\n    tag_121:\n        /* \"contracts/BUDS/Topping.sol\":2918:2928  msg.sender */\n      caller\n        /* \"contracts/BUDS/Topping.sol\":2904:2929  lastClaimTime[msg.sender] */\n      0x00\n      swap1\n      dup2\n      mstore\n        /* \"contracts/BUDS/Topping.sol\":2904:2917  lastClaimTime */\n      0x05\n        /* \"contracts/BUDS/Topping.sol\":2904:2929  lastClaimTime[msg.sender] */\n      0x20\n      mstore\n      0x40\n      dup2\n      keccak256\n        /* \"contracts/BUDS/Topping.sol\":2932:2947  block.timestamp */\n      timestamp\n        /* \"contracts/BUDS/Topping.sol\":2904:2947  lastClaimTime[msg.sender] = block.timestamp */\n      swap1\n      sstore\n        /* \"contracts/BUDS/Topping.sol\":2958:2981  currentMonthRewardsLeft */\n      0x02\n        /* \"contracts/BUDS/Topping.sol\":2958:2991  currentMonthRewardsLeft -= reward */\n      dup1\n      sload\n        /* \"contracts/BUDS/Topping.sol\":2859:2893  uint256 reward = calculateReward() */\n      swap3\n      swap4\n      pop\n      dup4\n      swap3\n        /* \"contracts/BUDS/Topping.sol\":2958:2981  currentMonthRewardsLeft */\n      swap1\n      swap2\n        /* \"contracts/BUDS/Topping.sol\":2904:2929  lastClaimTime[msg.sender] */\n      swap1\n        /* \"contracts/BUDS/Topping.sol\":2958:2991  currentMonthRewardsLeft -= reward */\n      tag_123\n      swap1\n        /* \"contracts/BUDS/Topping.sol\":2859:2893  uint256 reward = calculateReward() */\n      dup5\n      swap1\n        /* \"contracts/BUDS/Topping.sol\":2958:2991  currentMonthRewardsLeft -= reward */\n      tag_94\n      jump\t// in\n    tag_123:\n      swap1\n      swap2\n      sstore\n      pop\n      pop\n        /* \"contracts/BUDS/Topping.sol\":3040:3086  IERC20(budsToken).transfer(msg.sender, reward) */\n      mload(0x40)\n      shl(0xe0, 0xa9059cbb)\n      dup2\n      mstore\n        /* \"contracts/BUDS/Topping.sol\":3067:3077  msg.sender */\n      caller\n        /* \"contracts/BUDS/Topping.sol\":3040:3086  IERC20(budsToken).transfer(msg.sender, reward) */\n      0x04\n      dup3\n      add\n        /* \"#utility.yul\":2781:2832   */\n      mstore\n        /* \"#utility.yul\":2848:2866   */\n      0x24\n      dup2\n      add\n        /* \"#utility.yul\":2841:2875   */\n      dup3\n      swap1\n      mstore\n        /* \"contracts/BUDS/Topping.sol\":3047:3056  budsToken */\n      immutable(\"0xe2ecacab2e0418b841e7d0b206f5c40e0e0489353c5747dd1cc77d7f5a66829f\")\n      sub(shl(0xa0, 0x01), 0x01)\n        /* \"contracts/BUDS/Topping.sol\":3040:3066  IERC20(budsToken).transfer */\n      and\n      swap1\n      0xa9059cbb\n      swap1\n        /* \"#utility.yul\":2754:2772   */\n      0x44\n      add\n        /* \"contracts/BUDS/Topping.sol\":3040:3086  IERC20(budsToken).transfer(msg.sender, reward) */\n      0x20\n      mload(0x40)\n      dup1\n      dup4\n      sub\n      dup2\n      0x00\n      dup8\n      gas\n      call\n      iszero\n      dup1\n      iszero\n      tag_127\n      jumpi\n      returndatasize\n      0x00\n      dup1\n      returndatacopy\n      revert(0x00, returndatasize)\n    tag_127:\n      pop\n      pop\n      pop\n      pop\n      mload(0x40)\n      returndatasize\n      not(0x1f)\n      0x1f\n      dup3\n      add\n      and\n      dup3\n      add\n      dup1\n      0x40\n      mstore\n      pop\n      dup2\n      add\n      swap1\n      tag_128\n      swap2\n      swap1\n      tag_129\n      jump\t// in\n    tag_128:\n      pop\n        /* \"contracts/BUDS/Topping.sol\":3104:3129  Claim(msg.sender, reward) */\n      mload(0x40)\n        /* \"#utility.yul\":160:185   */\n      dup2\n      dup2\n      mstore\n        /* \"contracts/BUDS/Topping.sol\":3110:3120  msg.sender */\n      caller\n      swap1\n        /* \"contracts/BUDS/Topping.sol\":3104:3129  Claim(msg.sender, reward) */\n      0x47cee97cb7acd717b3c0aa1435d004cd5b3c8c57d70dbceb4e4458bbd60e39d4\n      swap1\n        /* \"#utility.yul\":148:150   */\n      0x20\n        /* \"#utility.yul\":133:151   */\n      add\n        /* \"contracts/BUDS/Topping.sol\":3104:3129  Claim(msg.sender, reward) */\n      mload(0x40)\n      dup1\n      swap2\n      sub\n      swap1\n      log2\n        /* \"contracts/BUDS/Topping.sol\":3183:3196  isResetTime() */\n      tag_131\n        /* \"contracts/BUDS/Topping.sol\":3183:3194  isResetTime */\n      tag_37\n        /* \"contracts/BUDS/Topping.sol\":3183:3196  isResetTime() */\n      jump\t// in\n    tag_131:\n        /* \"contracts/BUDS/Topping.sol\":3179:3232  if (isResetTime()) {... */\n      iszero\n      tag_133\n      jumpi\n        /* \"contracts/BUDS/Topping.sol\":3213:3220  reset() */\n      tag_133\n        /* \"contracts/BUDS/Topping.sol\":3213:3218  reset */\n      tag_134\n        /* \"contracts/BUDS/Topping.sol\":3213:3220  reset() */\n      jump\t// in\n    tag_133:\n        /* \"contracts/BUDS/Topping.sol\":2598:3239  {... */\n      pop\n        /* \"contracts/BUDS/Topping.sol\":2574:3239  function claim() public {... */\n      jump\t// out\n        /* \"contracts/BUDS/Topping.sol\":4933:5107  function withdrawExcess(address token, uint256 amount) external {... */\n    tag_50:\n        /* \"contracts/BUDS/Topping.sol\":5030:5035  owner */\n      and(sub(shl(0xa0, 0x01), 0x01), sload(0x09))\n        /* \"contracts/BUDS/Topping.sol\":5016:5026  msg.sender */\n      caller\n        /* \"contracts/BUDS/Topping.sol\":5016:5035  msg.sender == owner */\n      eq\n        /* \"contracts/BUDS/Topping.sol\":5008:5051  require(msg.sender == owner, \"not Allowed\") */\n      tag_136\n      jumpi\n      mload(0x40)\n      shl(0xe5, 0x461bcd)\n      dup2\n      mstore\n        /* \"#utility.yul\":3370:3372   */\n      0x20\n        /* \"contracts/BUDS/Topping.sol\":5008:5051  require(msg.sender == owner, \"not Allowed\") */\n      0x04\n      dup3\n      add\n        /* \"#utility.yul\":3352:3373   */\n      mstore\n        /* \"#utility.yul\":3409:3411   */\n      0x0b\n        /* \"#utility.yul\":3389:3407   */\n      0x24\n      dup3\n      add\n        /* \"#utility.yul\":3382:3412   */\n      mstore\n      shl(0xaa, 0x1b9bdd08105b1b1bddd959)\n        /* \"#utility.yul\":3428:3446   */\n      0x44\n      dup3\n      add\n        /* \"#utility.yul\":3421:3462   */\n      mstore\n        /* \"#utility.yul\":3479:3497   */\n      0x64\n      add\n        /* \"contracts/BUDS/Topping.sol\":5008:5051  require(msg.sender == owner, \"not Allowed\") */\n      tag_111\n        /* \"#utility.yul\":3168:3503   */\n      jump\n        /* \"contracts/BUDS/Topping.sol\":5008:5051  require(msg.sender == owner, \"not Allowed\") */\n    tag_136:\n        /* \"contracts/BUDS/Topping.sol\":5085:5090  owner */\n      sload(0x09)\n        /* \"contracts/BUDS/Topping.sol\":5062:5099  IERC20(token).transfer(owner, amount) */\n      mload(0x40)\n      shl(0xe0, 0xa9059cbb)\n      dup2\n      mstore\n      sub(shl(0xa0, 0x01), 0x01)\n        /* \"contracts/BUDS/Topping.sol\":5085:5090  owner */\n      swap2\n      dup3\n      and\n        /* \"contracts/BUDS/Topping.sol\":5062:5099  IERC20(token).transfer(owner, amount) */\n      0x04\n      dup3\n      add\n        /* \"#utility.yul\":2781:2832   */\n      mstore\n        /* \"#utility.yul\":2848:2866   */\n      0x24\n      dup2\n      add\n        /* \"#utility.yul\":2841:2875   */\n      dup4\n      swap1\n      mstore\n        /* \"contracts/BUDS/Topping.sol\":5062:5084  IERC20(token).transfer */\n      swap1\n      dup4\n      and\n      swap1\n      0xa9059cbb\n      swap1\n        /* \"#utility.yul\":2754:2772   */\n      0x44\n      add\n        /* \"contracts/BUDS/Topping.sol\":5062:5099  IERC20(token).transfer(owner, amount) */\n      0x20\n      mload(0x40)\n      dup1\n      dup4\n      sub\n      dup2\n      0x00\n      dup8\n      gas\n      call\n      iszero\n      dup1\n      iszero\n      tag_141\n      jumpi\n      returndatasize\n      0x00\n      dup1\n      returndatacopy\n      revert(0x00, returndatasize)\n    tag_141:\n      pop\n      pop\n      pop\n      pop\n      mload(0x40)\n      returndatasize\n      not(0x1f)\n      0x1f\n      dup3\n      add\n      and\n      dup3\n      add\n      dup1\n      0x40\n      mstore\n      pop\n      dup2\n      add\n      swap1\n      tag_142\n      swap2\n      swap1\n      tag_129\n      jump\t// in\n    tag_142:\n      pop\n        /* \"contracts/BUDS/Topping.sol\":4933:5107  function withdrawExcess(address token, uint256 amount) external {... */\n      pop\n      pop\n      jump\t// out\n        /* \"contracts/BUDS/Topping.sol\":4033:4175  function isWithinClaimWindow() public view returns (bool) {... */\n    tag_56:\n        /* \"contracts/BUDS/Topping.sol\":4140:4150  msg.sender */\n      caller\n        /* \"contracts/BUDS/Topping.sol\":4085:4089  bool */\n      0x00\n        /* \"contracts/BUDS/Topping.sol\":4126:4151  lastClaimTime[msg.sender] */\n      swap1\n      dup2\n      mstore\n        /* \"contracts/BUDS/Topping.sol\":4126:4139  lastClaimTime */\n      0x05\n        /* \"contracts/BUDS/Topping.sol\":4126:4151  lastClaimTime[msg.sender] */\n      0x20\n      mstore\n      0x40\n      dup2\n      keccak256\n      sload\n        /* \"contracts/BUDS/Topping.sol\":4126:4159  lastClaimTime[msg.sender] + 86400 */\n      tag_144\n      swap1\n        /* \"contracts/BUDS/Topping.sol\":4154:4159  86400 */\n      0x015180\n        /* \"contracts/BUDS/Topping.sol\":4126:4159  lastClaimTime[msg.sender] + 86400 */\n      tag_145\n      jump\t// in\n    tag_144:\n        /* \"contracts/BUDS/Topping.sol\":4108:4123  block.timestamp */\n      timestamp\n        /* \"contracts/BUDS/Topping.sol\":4108:4159  block.timestamp > lastClaimTime[msg.sender] + 86400 */\n      gt\n        /* \"contracts/BUDS/Topping.sol\":4101:4159  return block.timestamp > lastClaimTime[msg.sender] + 86400 */\n      swap1\n      pop\n        /* \"contracts/BUDS/Topping.sol\":4033:4175  function isWithinClaimWindow() public view returns (bool) {... */\n      swap1\n      jump\t// out\n        /* \"contracts/BUDS/Topping.sol\":5226:5538  function reduceCommission() public {... */\n    tag_59:\n        /* \"contracts/BUDS/Topping.sol\":5280:5319  IERC20(budsToken).balanceOf(msg.sender) */\n      mload(0x40)\n      shl(0xe0, 0x70a08231)\n      dup2\n      mstore\n        /* \"contracts/BUDS/Topping.sol\":5308:5318  msg.sender */\n      caller\n        /* \"contracts/BUDS/Topping.sol\":5280:5319  IERC20(budsToken).balanceOf(msg.sender) */\n      0x04\n      dup3\n      add\n        /* \"#utility.yul\":1175:1226   */\n      mstore\n        /* \"contracts/BUDS/Topping.sol\":5322:5323  0 */\n      0x00\n      swap1\n        /* \"contracts/BUDS/Topping.sol\":5287:5296  budsToken */\n      immutable(\"0xe2ecacab2e0418b841e7d0b206f5c40e0e0489353c5747dd1cc77d7f5a66829f\")\n      sub(shl(0xa0, 0x01), 0x01)\n        /* \"contracts/BUDS/Topping.sol\":5280:5307  IERC20(budsToken).balanceOf */\n      and\n      swap1\n      0x70a08231\n      swap1\n        /* \"#utility.yul\":1148:1166   */\n      0x24\n      add\n        /* \"contracts/BUDS/Topping.sol\":5280:5319  IERC20(budsToken).balanceOf(msg.sender) */\n      0x20\n      mload(0x40)\n      dup1\n      dup4\n      sub\n      dup2\n      dup7\n      gas\n      staticcall\n      iszero\n      dup1\n      iszero\n      tag_149\n      jumpi\n      returndatasize\n      0x00\n      dup1\n      returndatacopy\n      revert(0x00, returndatasize)\n    tag_149:\n      pop\n      pop\n      pop\n      pop\n      mload(0x40)\n      returndatasize\n      not(0x1f)\n      0x1f\n      dup3\n      add\n      and\n      dup3\n      add\n      dup1\n      0x40\n      mstore\n      pop\n      dup2\n      add\n      swap1\n      tag_150\n      swap2\n      swap1\n      tag_104\n      jump\t// in\n    tag_150:\n        /* \"contracts/BUDS/Topping.sol\":5280:5323  IERC20(budsToken).balanceOf(msg.sender) > 0 */\n      gt\n        /* \"contracts/BUDS/Topping.sol\":5272:5341  require(IERC20(budsToken).balanceOf(msg.sender) > 0, \"Zero Holdings\") */\n      tag_151\n      jumpi\n      mload(0x40)\n      shl(0xe5, 0x461bcd)\n      dup2\n      mstore\n        /* \"#utility.yul\":3840:3842   */\n      0x20\n        /* \"contracts/BUDS/Topping.sol\":5272:5341  require(IERC20(budsToken).balanceOf(msg.sender) > 0, \"Zero Holdings\") */\n      0x04\n      dup3\n      add\n        /* \"#utility.yul\":3822:3843   */\n      mstore\n        /* \"#utility.yul\":3879:3881   */\n      0x0d\n        /* \"#utility.yul\":3859:3877   */\n      0x24\n      dup3\n      add\n        /* \"#utility.yul\":3852:3882   */\n      mstore\n      shl(0x98, 0x5a65726f20486f6c64696e6773)\n        /* \"#utility.yul\":3898:3916   */\n      0x44\n      dup3\n      add\n        /* \"#utility.yul\":3891:3934   */\n      mstore\n        /* \"#utility.yul\":3951:3969   */\n      0x64\n      add\n        /* \"contracts/BUDS/Topping.sol\":5272:5341  require(IERC20(budsToken).balanceOf(msg.sender) > 0, \"Zero Holdings\") */\n      tag_111\n        /* \"#utility.yul\":3638:3975   */\n      jump\n        /* \"contracts/BUDS/Topping.sol\":5272:5341  require(IERC20(budsToken).balanceOf(msg.sender) > 0, \"Zero Holdings\") */\n    tag_151:\n        /* \"contracts/BUDS/Topping.sol\":5388:5398  msg.sender */\n      caller\n        /* \"contracts/BUDS/Topping.sol\":5375:5399  alreadyVoted[msg.sender] */\n      0x00\n      swap1\n      dup2\n      mstore\n        /* \"contracts/BUDS/Topping.sol\":5375:5387  alreadyVoted */\n      0x06\n        /* \"contracts/BUDS/Topping.sol\":5375:5399  alreadyVoted[msg.sender] */\n      0x20\n      mstore\n      0x40\n      swap1\n      keccak256\n      sload\n      0xff\n      and\n        /* \"contracts/BUDS/Topping.sol\":5374:5399  !alreadyVoted[msg.sender] */\n      iszero\n        /* \"contracts/BUDS/Topping.sol\":5352:5465  require(... */\n      tag_154\n      jumpi\n      mload(0x40)\n      shl(0xe5, 0x461bcd)\n      dup2\n      mstore\n        /* \"#utility.yul\":4182:4184   */\n      0x20\n        /* \"contracts/BUDS/Topping.sol\":5352:5465  require(... */\n      0x04\n      dup3\n      add\n        /* \"#utility.yul\":4164:4185   */\n      mstore\n        /* \"#utility.yul\":4221:4223   */\n      0x26\n        /* \"#utility.yul\":4201:4219   */\n      0x24\n      dup3\n      add\n        /* \"#utility.yul\":4194:4224   */\n      mstore\n        /* \"#utility.yul\":4260:4294   */\n      0x596f75206861766520616c7265616479206170706c69656420666f7220726564\n        /* \"#utility.yul\":4240:4258   */\n      0x44\n      dup3\n      add\n        /* \"#utility.yul\":4233:4295   */\n      mstore\n      shl(0xd1, 0x3ab1ba34b7b7)\n        /* \"#utility.yul\":4311:4329   */\n      0x64\n      dup3\n      add\n        /* \"#utility.yul\":4304:4340   */\n      mstore\n        /* \"#utility.yul\":4357:4376   */\n      0x84\n      add\n        /* \"contracts/BUDS/Topping.sol\":5352:5465  require(... */\n      tag_111\n        /* \"#utility.yul\":3980:4382   */\n      jump\n        /* \"contracts/BUDS/Topping.sol\":5352:5465  require(... */\n    tag_154:\n        /* \"contracts/BUDS/Topping.sol\":5476:5486  applicants */\n      0x07\n        /* \"contracts/BUDS/Topping.sol\":5476:5488  applicants++ */\n      dup1\n      sload\n      swap1\n        /* \"contracts/BUDS/Topping.sol\":5476:5486  applicants */\n      0x00\n        /* \"contracts/BUDS/Topping.sol\":5476:5488  applicants++ */\n      tag_157\n      dup4\n      tag_158\n      jump\t// in\n    tag_157:\n      swap1\n      swap2\n      sstore\n      pop\n      pop\n        /* \"contracts/BUDS/Topping.sol\":5512:5522  msg.sender */\n      caller\n        /* \"contracts/BUDS/Topping.sol\":5499:5523  alreadyVoted[msg.sender] */\n      0x00\n      swap1\n      dup2\n      mstore\n        /* \"contracts/BUDS/Topping.sol\":5499:5511  alreadyVoted */\n      0x06\n        /* \"contracts/BUDS/Topping.sol\":5499:5523  alreadyVoted[msg.sender] */\n      0x20\n      mstore\n      0x40\n      swap1\n      keccak256\n        /* \"contracts/BUDS/Topping.sol\":5499:5530  alreadyVoted[msg.sender] = true */\n      dup1\n      sload\n      not(0xff)\n      and\n        /* \"contracts/BUDS/Topping.sol\":5526:5530  true */\n      0x01\n        /* \"contracts/BUDS/Topping.sol\":5499:5530  alreadyVoted[msg.sender] = true */\n      or\n      swap1\n      sstore\n        /* \"contracts/BUDS/Topping.sol\":5226:5538  function reduceCommission() public {... */\n      jump\t// out\n        /* \"contracts/BUDS/Topping.sol\":3388:4025  function calculateReward() internal returns (uint256) {... */\n    tag_122:\n        /* \"contracts/BUDS/Topping.sol\":3433:3440  uint256 */\n      0x00\n        /* \"contracts/BUDS/Topping.sol\":3456:3466  claimCount */\n      sload(0x04)\n        /* \"contracts/BUDS/Topping.sol\":3470:3471  0 */\n      0x00\n        /* \"contracts/BUDS/Topping.sol\":3456:3471  claimCount == 0 */\n      sub\n        /* \"contracts/BUDS/Topping.sol\":3453:3809  if(claimCount == 0){... */\n      tag_172\n      jumpi\n        /* \"contracts/BUDS/Topping.sol\":3508:3515  1000000 */\n      0x0f4240\n        /* \"contracts/BUDS/Topping.sol\":3485:3505  numberOfApplicants() */\n      tag_162\n        /* \"contracts/BUDS/Topping.sol\":5200:5210  applicants */\n      sload(0x07)\n      swap1\n        /* \"contracts/BUDS/Topping.sol\":5117:5218  function numberOfApplicants() public view returns (uint256)... */\n      jump\n        /* \"contracts/BUDS/Topping.sol\":3485:3505  numberOfApplicants() */\n    tag_162:\n        /* \"contracts/BUDS/Topping.sol\":3485:3515  numberOfApplicants() < 1000000 */\n      lt\n        /* \"contracts/BUDS/Topping.sol\":3482:3791  if(numberOfApplicants() < 1000000){initialReward = 5000 * 10**18;}... */\n      iszero\n      tag_163\n      jumpi\n        /* \"contracts/BUDS/Topping.sol\":3533:3546  5000 * 10**18 */\n      0x010f0cf064dd59200000\n        /* \"contracts/BUDS/Topping.sol\":3517:3530  initialReward */\n      0x01\n        /* \"contracts/BUDS/Topping.sol\":3517:3546  initialReward = 5000 * 10**18 */\n      sstore\n        /* \"contracts/BUDS/Topping.sol\":3482:3791  if(numberOfApplicants() < 1000000){initialReward = 5000 * 10**18;}... */\n      jump(tag_172)\n    tag_163:\n        /* \"contracts/BUDS/Topping.sol\":3589:3596  1000000 */\n      0x0f4240\n        /* \"contracts/BUDS/Topping.sol\":3565:3585  numberOfApplicants() */\n      tag_165\n        /* \"contracts/BUDS/Topping.sol\":5200:5210  applicants */\n      sload(0x07)\n      swap1\n        /* \"contracts/BUDS/Topping.sol\":5117:5218  function numberOfApplicants() public view returns (uint256)... */\n      jump\n        /* \"contracts/BUDS/Topping.sol\":3565:3585  numberOfApplicants() */\n    tag_165:\n        /* \"contracts/BUDS/Topping.sol\":3565:3596  numberOfApplicants() >= 1000000 */\n      lt\n        /* \"contracts/BUDS/Topping.sol\":3562:3791  if(numberOfApplicants() >= 1000000){initialReward = 2500 * 10**18;}... */\n      tag_166\n      jumpi\n        /* \"contracts/BUDS/Topping.sol\":3614:3627  2500 * 10**18 */\n      0x878678326eac900000\n        /* \"contracts/BUDS/Topping.sol\":3598:3611  initialReward */\n      0x01\n        /* \"contracts/BUDS/Topping.sol\":3598:3627  initialReward = 2500 * 10**18 */\n      sstore\n        /* \"contracts/BUDS/Topping.sol\":3562:3791  if(numberOfApplicants() >= 1000000){initialReward = 2500 * 10**18;}... */\n      jump(tag_172)\n    tag_166:\n        /* \"contracts/BUDS/Topping.sol\":3670:3677  5000000 */\n      0x4c4b40\n        /* \"contracts/BUDS/Topping.sol\":3646:3666  numberOfApplicants() */\n      tag_168\n        /* \"contracts/BUDS/Topping.sol\":5200:5210  applicants */\n      sload(0x07)\n      swap1\n        /* \"contracts/BUDS/Topping.sol\":5117:5218  function numberOfApplicants() public view returns (uint256)... */\n      jump\n        /* \"contracts/BUDS/Topping.sol\":3646:3666  numberOfApplicants() */\n    tag_168:\n        /* \"contracts/BUDS/Topping.sol\":3646:3677  numberOfApplicants() >= 5000000 */\n      lt\n        /* \"contracts/BUDS/Topping.sol\":3643:3791  if(numberOfApplicants() >= 5000000){initialReward = 1250 * 10**18;}... */\n      tag_169\n      jumpi\n        /* \"contracts/BUDS/Topping.sol\":3695:3708  1250 * 10**18 */\n      0x43c33c193756480000\n        /* \"contracts/BUDS/Topping.sol\":3679:3692  initialReward */\n      0x01\n        /* \"contracts/BUDS/Topping.sol\":3679:3708  initialReward = 1250 * 10**18 */\n      sstore\n        /* \"contracts/BUDS/Topping.sol\":3643:3791  if(numberOfApplicants() >= 5000000){initialReward = 1250 * 10**18;}... */\n      jump(tag_172)\n    tag_169:\n        /* \"contracts/BUDS/Topping.sol\":3751:3759  15000000 */\n      0xe4e1c0\n        /* \"contracts/BUDS/Topping.sol\":3727:3747  numberOfApplicants() */\n      tag_171\n        /* \"contracts/BUDS/Topping.sol\":5200:5210  applicants */\n      sload(0x07)\n      swap1\n        /* \"contracts/BUDS/Topping.sol\":5117:5218  function numberOfApplicants() public view returns (uint256)... */\n      jump\n        /* \"contracts/BUDS/Topping.sol\":3727:3747  numberOfApplicants() */\n    tag_171:\n        /* \"contracts/BUDS/Topping.sol\":3727:3759  numberOfApplicants() >= 15000000 */\n      lt\n        /* \"contracts/BUDS/Topping.sol\":3724:3791  if(numberOfApplicants() >= 15000000){initialReward = 750 * 10**18;} */\n      tag_172\n      jumpi\n        /* \"contracts/BUDS/Topping.sol\":3777:3789  750 * 10**18 */\n      0x28a857425466f80000\n        /* \"contracts/BUDS/Topping.sol\":3761:3774  initialReward */\n      0x01\n        /* \"contracts/BUDS/Topping.sol\":3761:3789  initialReward = 750 * 10**18 */\n      sstore\n        /* \"contracts/BUDS/Topping.sol\":3724:3791  if(numberOfApplicants() >= 15000000){initialReward = 750 * 10**18;} */\n    tag_172:\n        /* \"contracts/BUDS/Topping.sol\":3828:3847  uint256 claimAmount */\n      0x00\n        /* \"contracts/BUDS/Topping.sol\":3893:3896  100 */\n      0x64\n        /* \"contracts/BUDS/Topping.sol\":3874:3887  claimDiscount */\n      sload(0x03)\n        /* \"contracts/BUDS/Topping.sol\":3868:3871  100 */\n      0x64\n        /* \"contracts/BUDS/Topping.sol\":3868:3887  100 - claimDiscount */\n      tag_173\n      swap2\n      swap1\n      tag_94\n      jump\t// in\n    tag_173:\n        /* \"contracts/BUDS/Topping.sol\":3851:3864  initialReward */\n      sload(0x01)\n        /* \"contracts/BUDS/Topping.sol\":3851:3888  initialReward * (100 - claimDiscount) */\n      tag_174\n      swap2\n      swap1\n      tag_175\n      jump\t// in\n    tag_174:\n        /* \"contracts/BUDS/Topping.sol\":3850:3897  (initialReward * (100 - claimDiscount)) / (100) */\n      tag_176\n      swap2\n      swap1\n      tag_177\n      jump\t// in\n    tag_176:\n        /* \"contracts/BUDS/Topping.sol\":3908:3921  initialReward */\n      0x01\n        /* \"contracts/BUDS/Topping.sol\":3908:3935  initialReward = claimAmount */\n      dup2\n      swap1\n      sstore\n        /* \"contracts/BUDS/Topping.sol\":3962:3964  10 */\n      0x0a\n        /* \"contracts/BUDS/Topping.sol\":3946:3959  claimDiscount */\n      0x03\n        /* \"contracts/BUDS/Topping.sol\":3946:3964  claimDiscount = 10 */\n      sstore\n        /* \"contracts/BUDS/Topping.sol\":3976:3986  claimCount */\n      0x04\n        /* \"contracts/BUDS/Topping.sol\":3976:3988  claimCount++ */\n      dup1\n      sload\n        /* \"contracts/BUDS/Topping.sol\":3828:3897  uint256 claimAmount = (initialReward * (100 - claimDiscount)) / (100) */\n      swap2\n      swap3\n      pop\n      0x00\n        /* \"contracts/BUDS/Topping.sol\":3976:3988  claimCount++ */\n      tag_178\n      dup4\n      tag_158\n      jump\t// in\n    tag_178:\n      swap1\n      swap2\n      sstore\n      pop\n        /* \"contracts/BUDS/Topping.sol\":4006:4017  claimAmount */\n      swap1\n      swap3\n        /* \"contracts/BUDS/Topping.sol\":3388:4025  function calculateReward() internal returns (uint256) {... */\n      swap2\n      pop\n      pop\n      jump\t// out\n        /* \"contracts/BUDS/Topping.sol\":4472:4836  function reset() internal {... */\n    tag_134:\n        /* \"contracts/BUDS/Topping.sol\":4590:4632  IERC20(budsToken).balanceOf(address(this)) */\n      mload(0x40)\n      shl(0xe0, 0x70a08231)\n      dup2\n      mstore\n        /* \"contracts/BUDS/Topping.sol\":4626:4630  this */\n      address\n        /* \"contracts/BUDS/Topping.sol\":4590:4632  IERC20(budsToken).balanceOf(address(this)) */\n      0x04\n      dup3\n      add\n        /* \"#utility.yul\":1175:1226   */\n      mstore\n        /* \"contracts/BUDS/Topping.sol\":4564:4587  uint256 remainingTokens */\n      0x00\n      swap1\n        /* \"contracts/BUDS/Topping.sol\":4597:4606  budsToken */\n      immutable(\"0xe2ecacab2e0418b841e7d0b206f5c40e0e0489353c5747dd1cc77d7f5a66829f\")\n      sub(shl(0xa0, 0x01), 0x01)\n        /* \"contracts/BUDS/Topping.sol\":4590:4617  IERC20(budsToken).balanceOf */\n      and\n      swap1\n      0x70a08231\n      swap1\n        /* \"#utility.yul\":1148:1166   */\n      0x24\n      add\n        /* \"contracts/BUDS/Topping.sol\":4590:4632  IERC20(budsToken).balanceOf(address(this)) */\n      0x20\n      mload(0x40)\n      dup1\n      dup4\n      sub\n      dup2\n      dup7\n      gas\n      staticcall\n      iszero\n      dup1\n      iszero\n      tag_182\n      jumpi\n      returndatasize\n      0x00\n      dup1\n      returndatacopy\n      revert(0x00, returndatasize)\n    tag_182:\n      pop\n      pop\n      pop\n      pop\n      mload(0x40)\n      returndatasize\n      not(0x1f)\n      0x1f\n      dup3\n      add\n      and\n      dup3\n      add\n      dup1\n      0x40\n      mstore\n      pop\n      dup2\n      add\n      swap1\n      tag_183\n      swap2\n      swap1\n      tag_104\n      jump\t// in\n    tag_183:\n        /* \"contracts/BUDS/Topping.sol\":4670:4686  marketingAddress */\n      sload(0x08)\n        /* \"contracts/BUDS/Topping.sol\":4643:4704  IERC20(budsToken).transfer(marketingAddress, remainingTokens) */\n      mload(0x40)\n      shl(0xe0, 0xa9059cbb)\n      dup2\n      mstore\n      sub(shl(0xa0, 0x01), 0x01)\n        /* \"contracts/BUDS/Topping.sol\":4670:4686  marketingAddress */\n      swap2\n      dup3\n      and\n        /* \"contracts/BUDS/Topping.sol\":4643:4704  IERC20(budsToken).transfer(marketingAddress, remainingTokens) */\n      0x04\n      dup3\n      add\n        /* \"#utility.yul\":2781:2832   */\n      mstore\n        /* \"#utility.yul\":2848:2866   */\n      0x24\n      dup2\n      add\n        /* \"#utility.yul\":2841:2875   */\n      dup4\n      swap1\n      mstore\n        /* \"contracts/BUDS/Topping.sol\":4564:4632  uint256 remainingTokens = IERC20(budsToken).balanceOf(address(this)) */\n      swap2\n      swap3\n      pop\n        /* \"contracts/BUDS/Topping.sol\":4650:4659  budsToken */\n      immutable(\"0xe2ecacab2e0418b841e7d0b206f5c40e0e0489353c5747dd1cc77d7f5a66829f\")\n        /* \"contracts/BUDS/Topping.sol\":4643:4669  IERC20(budsToken).transfer */\n      and\n      swap1\n      0xa9059cbb\n      swap1\n        /* \"#utility.yul\":2754:2772   */\n      0x44\n      add\n        /* \"contracts/BUDS/Topping.sol\":4643:4704  IERC20(budsToken).transfer(marketingAddress, remainingTokens) */\n      0x20\n      mload(0x40)\n      dup1\n      dup4\n      sub\n      dup2\n      0x00\n      dup8\n      gas\n      call\n      iszero\n      dup1\n      iszero\n      tag_186\n      jumpi\n      returndatasize\n      0x00\n      dup1\n      returndatacopy\n      revert(0x00, returndatasize)\n    tag_186:\n      pop\n      pop\n      pop\n      pop\n      mload(0x40)\n      returndatasize\n      not(0x1f)\n      0x1f\n      dup3\n      add\n      and\n      dup3\n      add\n      dup1\n      0x40\n      mstore\n      pop\n      dup2\n      add\n      swap1\n      tag_187\n      swap2\n      swap1\n      tag_129\n      jump\t// in\n    tag_187:\n      pop\n        /* \"contracts/BUDS/Topping.sol\":4736:4751  block.timestamp */\n      timestamp\n        /* \"contracts/BUDS/Topping.sol\":4715:4733  lastResetTimestamp */\n      0x0a\n        /* \"contracts/BUDS/Topping.sol\":4715:4751  lastResetTimestamp = block.timestamp */\n      sstore\n        /* \"contracts/BUDS/Topping.sol\":4778:4779  0 */\n      0x00\n        /* \"contracts/BUDS/Topping.sol\":4762:4775  claimDiscount */\n      0x03\n        /* \"contracts/BUDS/Topping.sol\":4762:4779  claimDiscount = 0 */\n      dup2\n      swap1\n      sstore\n        /* \"contracts/BUDS/Topping.sol\":4790:4800  claimCount */\n      0x04\n        /* \"contracts/BUDS/Topping.sol\":4790:4804  claimCount = 0 */\n      dup2\n      swap1\n      sstore\n        /* \"contracts/BUDS/Topping.sol\":4820:4827  Reset() */\n      mload(0x40)\n      0x6423db340205c829eeb91151b1c5d1dc6d7a2b8708b1621494e89ba90c87081e\n      swap2\n        /* \"contracts/BUDS/Topping.sol\":4778:4779  0 */\n      swap1\n        /* \"contracts/BUDS/Topping.sol\":4820:4827  Reset() */\n      log1\n        /* \"contracts/BUDS/Topping.sol\":4498:4836  {... */\n      pop\n        /* \"contracts/BUDS/Topping.sol\":4472:4836  function reset() internal {... */\n      jump\t// out\n        /* \"#utility.yul\":196:369   */\n    tag_188:\n        /* \"#utility.yul\":264:284   */\n      dup1\n      calldataload\n      sub(shl(0xa0, 0x01), 0x01)\n        /* \"#utility.yul\":313:344   */\n      dup2\n      and\n        /* \"#utility.yul\":303:345   */\n      dup2\n      eq\n        /* \"#utility.yul\":293:363   */\n      tag_193\n      jumpi\n        /* \"#utility.yul\":359:360   */\n      0x00\n        /* \"#utility.yul\":356:357   */\n      dup1\n        /* \"#utility.yul\":349:361   */\n      revert\n        /* \"#utility.yul\":293:363   */\n    tag_193:\n        /* \"#utility.yul\":196:369   */\n      swap2\n      swap1\n      pop\n      jump\t// out\n        /* \"#utility.yul\":374:560   */\n    tag_32:\n        /* \"#utility.yul\":433:439   */\n      0x00\n        /* \"#utility.yul\":486:488   */\n      0x20\n        /* \"#utility.yul\":474:483   */\n      dup3\n        /* \"#utility.yul\":465:472   */\n      dup5\n        /* \"#utility.yul\":461:484   */\n      sub\n        /* \"#utility.yul\":457:489   */\n      slt\n        /* \"#utility.yul\":454:506   */\n      iszero\n      tag_195\n      jumpi\n        /* \"#utility.yul\":502:503   */\n      0x00\n        /* \"#utility.yul\":499:500   */\n      dup1\n        /* \"#utility.yul\":492:504   */\n      revert\n        /* \"#utility.yul\":454:506   */\n    tag_195:\n        /* \"#utility.yul\":525:554   */\n      tag_196\n        /* \"#utility.yul\":544:553   */\n      dup3\n        /* \"#utility.yul\":525:554   */\n      tag_188\n      jump\t// in\n    tag_196:\n        /* \"#utility.yul\":515:554   */\n      swap4\n        /* \"#utility.yul\":374:560   */\n      swap3\n      pop\n      pop\n      pop\n      jump\t// out\n        /* \"#utility.yul\":757:1011   */\n    tag_49:\n        /* \"#utility.yul\":825:831   */\n      0x00\n        /* \"#utility.yul\":833:839   */\n      dup1\n        /* \"#utility.yul\":886:888   */\n      0x40\n        /* \"#utility.yul\":874:883   */\n      dup4\n        /* \"#utility.yul\":865:872   */\n      dup6\n        /* \"#utility.yul\":861:884   */\n      sub\n        /* \"#utility.yul\":857:889   */\n      slt\n        /* \"#utility.yul\":854:906   */\n      iszero\n      tag_199\n      jumpi\n        /* \"#utility.yul\":902:903   */\n      0x00\n        /* \"#utility.yul\":899:900   */\n      dup1\n        /* \"#utility.yul\":892:904   */\n      revert\n        /* \"#utility.yul\":854:906   */\n    tag_199:\n        /* \"#utility.yul\":925:954   */\n      tag_200\n        /* \"#utility.yul\":944:953   */\n      dup4\n        /* \"#utility.yul\":925:954   */\n      tag_188\n      jump\t// in\n    tag_200:\n        /* \"#utility.yul\":915:954   */\n      swap5\n        /* \"#utility.yul\":1001:1003   */\n      0x20\n        /* \"#utility.yul\":986:1004   */\n      swap4\n      swap1\n      swap4\n      add\n        /* \"#utility.yul\":973:1005   */\n      calldataload\n      swap4\n      pop\n      pop\n      pop\n        /* \"#utility.yul\":757:1011   */\n      jump\t// out\n        /* \"#utility.yul\":1445:1572   */\n    tag_189:\n        /* \"#utility.yul\":1506:1516   */\n      0x4e487b71\n        /* \"#utility.yul\":1501:1504   */\n      0xe0\n        /* \"#utility.yul\":1497:1517   */\n      shl\n        /* \"#utility.yul\":1494:1495   */\n      0x00\n        /* \"#utility.yul\":1487:1518   */\n      mstore\n        /* \"#utility.yul\":1537:1541   */\n      0x11\n        /* \"#utility.yul\":1534:1535   */\n      0x04\n        /* \"#utility.yul\":1527:1542   */\n      mstore\n        /* \"#utility.yul\":1561:1565   */\n      0x24\n        /* \"#utility.yul\":1558:1559   */\n      0x00\n        /* \"#utility.yul\":1551:1566   */\n      revert\n        /* \"#utility.yul\":1577:1705   */\n    tag_94:\n        /* \"#utility.yul\":1644:1653   */\n      dup2\n      dup2\n      sub\n        /* \"#utility.yul\":1665:1676   */\n      dup2\n      dup2\n      gt\n        /* \"#utility.yul\":1662:1699   */\n      iszero\n      tag_206\n      jumpi\n        /* \"#utility.yul\":1679:1697   */\n      tag_206\n      tag_189\n      jump\t// in\n    tag_206:\n        /* \"#utility.yul\":1577:1705   */\n      swap3\n      swap2\n      pop\n      pop\n      jump\t// out\n        /* \"#utility.yul\":1710:1894   */\n    tag_104:\n        /* \"#utility.yul\":1780:1786   */\n      0x00\n        /* \"#utility.yul\":1833:1835   */\n      0x20\n        /* \"#utility.yul\":1821:1830   */\n      dup3\n        /* \"#utility.yul\":1812:1819   */\n      dup5\n        /* \"#utility.yul\":1808:1831   */\n      sub\n        /* \"#utility.yul\":1804:1836   */\n      slt\n        /* \"#utility.yul\":1801:1853   */\n      iszero\n      tag_208\n      jumpi\n        /* \"#utility.yul\":1849:1850   */\n      0x00\n        /* \"#utility.yul\":1846:1847   */\n      dup1\n        /* \"#utility.yul\":1839:1851   */\n      revert\n        /* \"#utility.yul\":1801:1853   */\n    tag_208:\n      pop\n        /* \"#utility.yul\":1872:1888   */\n      mload\n      swap2\n        /* \"#utility.yul\":1710:1894   */\n      swap1\n      pop\n      jump\t// out\n        /* \"#utility.yul\":2886:3163   */\n    tag_129:\n        /* \"#utility.yul\":2953:2959   */\n      0x00\n        /* \"#utility.yul\":3006:3008   */\n      0x20\n        /* \"#utility.yul\":2994:3003   */\n      dup3\n        /* \"#utility.yul\":2985:2992   */\n      dup5\n        /* \"#utility.yul\":2981:3004   */\n      sub\n        /* \"#utility.yul\":2977:3009   */\n      slt\n        /* \"#utility.yul\":2974:3026   */\n      iszero\n      tag_213\n      jumpi\n        /* \"#utility.yul\":3022:3023   */\n      0x00\n        /* \"#utility.yul\":3019:3020   */\n      dup1\n        /* \"#utility.yul\":3012:3024   */\n      revert\n        /* \"#utility.yul\":2974:3026   */\n    tag_213:\n        /* \"#utility.yul\":3054:3063   */\n      dup2\n        /* \"#utility.yul\":3048:3064   */\n      mload\n        /* \"#utility.yul\":3107:3112   */\n      dup1\n        /* \"#utility.yul\":3100:3113   */\n      iszero\n        /* \"#utility.yul\":3093:3114   */\n      iszero\n        /* \"#utility.yul\":3086:3091   */\n      dup2\n        /* \"#utility.yul\":3083:3115   */\n      eq\n        /* \"#utility.yul\":3073:3133   */\n      tag_196\n      jumpi\n        /* \"#utility.yul\":3129:3130   */\n      0x00\n        /* \"#utility.yul\":3126:3127   */\n      dup1\n        /* \"#utility.yul\":3119:3131   */\n      revert\n        /* \"#utility.yul\":3508:3633   */\n    tag_145:\n        /* \"#utility.yul\":3573:3582   */\n      dup1\n      dup3\n      add\n        /* \"#utility.yul\":3594:3604   */\n      dup1\n      dup3\n      gt\n        /* \"#utility.yul\":3591:3627   */\n      iszero\n      tag_206\n      jumpi\n        /* \"#utility.yul\":3607:3625   */\n      tag_206\n      tag_189\n      jump\t// in\n        /* \"#utility.yul\":4387:4522   */\n    tag_158:\n        /* \"#utility.yul\":4426:4429   */\n      0x00\n        /* \"#utility.yul\":4447:4464   */\n      0x01\n      dup3\n      add\n        /* \"#utility.yul\":4444:4487   */\n      tag_223\n      jumpi\n        /* \"#utility.yul\":4467:4485   */\n      tag_223\n      tag_189\n      jump\t// in\n    tag_223:\n      pop\n        /* \"#utility.yul\":4514:4515   */\n      0x01\n        /* \"#utility.yul\":4503:4516   */\n      add\n      swap1\n        /* \"#utility.yul\":4387:4522   */\n      jump\t// out\n        /* \"#utility.yul\":4527:4695   */\n    tag_175:\n        /* \"#utility.yul\":4600:4609   */\n      dup1\n      dup3\n      mul\n        /* \"#utility.yul\":4631:4640   */\n      dup2\n      iszero\n        /* \"#utility.yul\":4648:4663   */\n      dup3\n      dup3\n      div\n        /* \"#utility.yul\":4642:4664   */\n      dup5\n      eq\n        /* \"#utility.yul\":4628:4665   */\n      or\n        /* \"#utility.yul\":4618:4689   */\n      tag_206\n      jumpi\n        /* \"#utility.yul\":4669:4687   */\n      tag_206\n      tag_189\n      jump\t// in\n        /* \"#utility.yul\":4700:4917   */\n    tag_177:\n        /* \"#utility.yul\":4740:4741   */\n      0x00\n        /* \"#utility.yul\":4766:4767   */\n      dup3\n        /* \"#utility.yul\":4756:4888   */\n      tag_228\n      jumpi\n        /* \"#utility.yul\":4810:4820   */\n      0x4e487b71\n        /* \"#utility.yul\":4805:4808   */\n      0xe0\n        /* \"#utility.yul\":4801:4821   */\n      shl\n        /* \"#utility.yul\":4798:4799   */\n      0x00\n        /* \"#utility.yul\":4791:4822   */\n      mstore\n        /* \"#utility.yul\":4845:4849   */\n      0x12\n        /* \"#utility.yul\":4842:4843   */\n      0x04\n        /* \"#utility.yul\":4835:4850   */\n      mstore\n        /* \"#utility.yul\":4873:4877   */\n      0x24\n        /* \"#utility.yul\":4870:4871   */\n      0x00\n        /* \"#utility.yul\":4863:4878   */\n      revert\n        /* \"#utility.yul\":4756:4888   */\n    tag_228:\n      pop\n        /* \"#utility.yul\":4902:4911   */\n      div\n      swap1\n        /* \"#utility.yul\":4700:4917   */\n      jump\t// out\n\n    auxdata: 0xa264697066735822122017a7a2625961dc4b9b225fe0a71e1ed32aa8f7d98bdd1f00d5496d8b5d6f95a864736f6c63430008190033\n}\n",
				"bytecode": {
					"linkReferences": {},
					"object": "60a06040526000600455600980546001600160a01b0319163317905542600a5534801561002b57600080fd5b50604051610d32380380610d3283398101604081905261004a91610098565b6001600160a01b03928316608052600080549284166001600160a01b0319938416179055600880549190931691161790556100e5565b6001600160a01b038116811461009557600080fd5b50565b6000806000606084860312156100ad57600080fd5b83516100b881610080565b60208501519093506100c981610080565b60408501519092506100da81610080565b809150509250925092565b608051610c0861012a600039600081816101b9015281816102e1015281816104740152818161053e015281816107010152818161095401526109f30152610c086000f3fe608060405234801561001057600080fd5b506004361061012c5760003560e01c8063a5ece941116100ad578063cad7ca4011610071578063cad7ca4014610251578063f5ae497a14610259578063f7e90d8f1461026c578063fda7aff014610277578063fdf5963a1461028157600080fd5b8063a5ece94114610203578063abee967c14610216578063b2fd09011461021f578063b343a0df14610228578063b77cf9c61461023157600080fd5b80634e71d92d116100f45780634e71d92d146101975780636e90013d146101a15780637f581488146101b4578063823cc69d146101f357806392f851c1146101fb57600080fd5b806303e0a1e21461013157806306d2ad401461014c57806309c21f2d1461017f57806339ad74cd146101875780634618af421461018f575b600080fd5b61013961028a565b6040519081526020015b60405180910390f35b61016f61015a366004610ab7565b60066020526000908152604090205460ff1681565b6040519015158152602001610143565b61016f6102a9565b600a54610139565b6101396102c9565b61019f610354565b005b61019f6101af366004610ad9565b610601565b6101db7f000000000000000000000000000000000000000000000000000000000000000081565b6040516001600160a01b039091168152602001610143565b61016f6106c5565b61019f6106e9565b6008546101db906001600160a01b031681565b61013960015481565b61013960025481565b610139600a5481565b61013961023f366004610ab7565b60056020526000908152604090205481565b600754610139565b6000546101db906001600160a01b031681565b6101396301312d0081565b61013962278d0081565b61013960075481565b336000908152600560205260408120546102a49042610b19565b905090565b600062278d006102b8600a5490565b6102c29042610b19565b1015905090565b6040516370a0823160e01b81523060048201526000907f00000000000000000000000000000000000000000000000000000000000000006001600160a01b0316906370a0823190602401602060405180830381865afa158015610330573d6000803e3d6000fd5b505050506040513d601f19601f820116820180604052508101906102a49190610b32565b600080546040516370a0823160e01b81523360048201526001600160a01b03909116906370a0823190602401602060405180830381865afa15801561039d573d6000803e3d6000fd5b505050506040513d601f19601f820116820180604052508101906103c19190610b32565b1161040b5760405162461bcd60e51b81526020600482015260156024820152744e6f7420656c696769626c6520746f20636c61696d60581b60448201526064015b60405180910390fd5b6104136106c5565b61045f5760405162461bcd60e51b815260206004820152601d60248201527f43616e206f6e6c7920636c61696d20616674657220323420686f7572730000006044820152606401610402565b6040516370a0823160e01b81523060048201527f00000000000000000000000000000000000000000000000000000000000000006001600160a01b0316906370a0823190602401602060405180830381865afa1580156104c3573d6000803e3d6000fd5b505050506040513d601f19601f820116820180604052508101906104e79190610b32565b60025560006104f4610851565b33600090815260056020526040812042905560028054929350839290919061051d908490610b19565b909155505060405163a9059cbb60e01b8152336004820152602481018290527f00000000000000000000000000000000000000000000000000000000000000006001600160a01b03169063a9059cbb906044016020604051808303816000875af115801561058f573d6000803e3d6000fd5b505050506040513d601f19601f820116820180604052508101906105b39190610b4b565b5060405181815233907f47cee97cb7acd717b3c0aa1435d004cd5b3c8c57d70dbceb4e4458bbd60e39d49060200160405180910390a26105f16102a9565b156105fe576105fe61093c565b50565b6009546001600160a01b031633146106495760405162461bcd60e51b815260206004820152600b60248201526a1b9bdd08105b1b1bddd95960aa1b6044820152606401610402565b60095460405163a9059cbb60e01b81526001600160a01b039182166004820152602481018390529083169063a9059cbb906044016020604051808303816000875af115801561069c573d6000803e3d6000fd5b505050506040513d601f19601f820116820180604052508101906106c09190610b4b565b505050565b336000908152600560205260408120546106e29062015180610b6d565b4211905090565b6040516370a0823160e01b81523360048201526000907f00000000000000000000000000000000000000000000000000000000000000006001600160a01b0316906370a0823190602401602060405180830381865afa158015610750573d6000803e3d6000fd5b505050506040513d601f19601f820116820180604052508101906107749190610b32565b116107b15760405162461bcd60e51b815260206004820152600d60248201526c5a65726f20486f6c64696e677360981b6044820152606401610402565b3360009081526006602052604090205460ff16156108205760405162461bcd60e51b815260206004820152602660248201527f596f75206861766520616c7265616479206170706c69656420666f72207265646044820152653ab1ba34b7b760d11b6064820152608401610402565b6007805490600061083083610b80565b9091555050336000908152600660205260409020805460ff19166001179055565b60006004546000036108eb57620f424061086a60075490565b10156108835769010f0cf064dd592000006001556108eb565b620f424061089060075490565b106108a75768878678326eac9000006001556108eb565b624c4b406108b460075490565b106108cb576843c33c1937564800006001556108eb565b62e4e1c06108d860075490565b106108eb576828a857425466f800006001555b6000606460035460646108fe9190610b19565b60015461090b9190610b99565b6109159190610bb0565b6001819055600a60035560048054919250600061093183610b80565b909155509092915050565b6040516370a0823160e01b81523060048201526000907f00000000000000000000000000000000000000000000000000000000000000006001600160a01b0316906370a0823190602401602060405180830381865afa1580156109a3573d6000803e3d6000fd5b505050506040513d601f19601f820116820180604052508101906109c79190610b32565b60085460405163a9059cbb60e01b81526001600160a01b039182166004820152602481018390529192507f0000000000000000000000000000000000000000000000000000000000000000169063a9059cbb906044016020604051808303816000875af1158015610a3c573d6000803e3d6000fd5b505050506040513d601f19601f82011682018060405250810190610a609190610b4b565b5042600a556000600381905560048190556040517f6423db340205c829eeb91151b1c5d1dc6d7a2b8708b1621494e89ba90c87081e9190a150565b80356001600160a01b0381168114610ab257600080fd5b919050565b600060208284031215610ac957600080fd5b610ad282610a9b565b9392505050565b60008060408385031215610aec57600080fd5b610af583610a9b565b946020939093013593505050565b634e487b7160e01b600052601160045260246000fd5b81810381811115610b2c57610b2c610b03565b92915050565b600060208284031215610b4457600080fd5b5051919050565b600060208284031215610b5d57600080fd5b81518015158114610ad257600080fd5b80820180821115610b2c57610b2c610b03565b600060018201610b9257610b92610b03565b5060010190565b8082028115828204841417610b2c57610b2c610b03565b600082610bcd57634e487b7160e01b600052601260045260246000fd5b50049056fea264697066735822122017a7a2625961dc4b9b225fe0a71e1ed32aa8f7d98bdd1f00d5496d8b5d6f95a864736f6c63430008190033",
					"opcodes": "PUSH1 0xA0 PUSH1 0x40 MSTORE PUSH1 0x0 PUSH1 0x4 SSTORE PUSH1 0x9 DUP1 SLOAD PUSH1 0x1 PUSH1 0x1 PUSH1 0xA0 SHL SUB NOT AND CALLER OR SWAP1 SSTORE TIMESTAMP PUSH1 0xA SSTORE CALLVALUE DUP1 ISZERO PUSH2 0x2B JUMPI PUSH1 0x0 DUP1 REVERT JUMPDEST POP PUSH1 0x40 MLOAD PUSH2 0xD32 CODESIZE SUB DUP1 PUSH2 0xD32 DUP4 CODECOPY DUP2 ADD PUSH1 0x40 DUP2 SWAP1 MSTORE PUSH2 0x4A SWAP2 PUSH2 0x98 JUMP JUMPDEST PUSH1 0x1 PUSH1 0x1 PUSH1 0xA0 SHL SUB SWAP3 DUP4 AND PUSH1 0x80 MSTORE PUSH1 0x0 DUP1 SLOAD SWAP3 DUP5 AND PUSH1 0x1 PUSH1 0x1 PUSH1 0xA0 SHL SUB NOT SWAP4 DUP5 AND OR SWAP1 SSTORE PUSH1 0x8 DUP1 SLOAD SWAP2 SWAP1 SWAP4 AND SWAP2 AND OR SWAP1 SSTORE PUSH2 0xE5 JUMP JUMPDEST PUSH1 0x1 PUSH1 0x1 PUSH1 0xA0 SHL SUB DUP2 AND DUP2 EQ PUSH2 0x95 JUMPI PUSH1 0x0 DUP1 REVERT JUMPDEST POP JUMP JUMPDEST PUSH1 0x0 DUP1 PUSH1 0x0 PUSH1 0x60 DUP5 DUP7 SUB SLT ISZERO PUSH2 0xAD JUMPI PUSH1 0x0 DUP1 REVERT JUMPDEST DUP4 MLOAD PUSH2 0xB8 DUP2 PUSH2 0x80 JUMP JUMPDEST PUSH1 0x20 DUP6 ADD MLOAD SWAP1 SWAP4 POP PUSH2 0xC9 DUP2 PUSH2 0x80 JUMP JUMPDEST PUSH1 0x40 DUP6 ADD MLOAD SWAP1 SWAP3 POP PUSH2 0xDA DUP2 PUSH2 0x80 JUMP JUMPDEST DUP1 SWAP2 POP POP SWAP3 POP SWAP3 POP SWAP3 JUMP JUMPDEST PUSH1 0x80 MLOAD PUSH2 0xC08 PUSH2 0x12A PUSH1 0x0 CODECOPY PUSH1 0x0 DUP2 DUP2 PUSH2 0x1B9 ADD MSTORE DUP2 DUP2 PUSH2 0x2E1 ADD MSTORE DUP2 DUP2 PUSH2 0x474 ADD MSTORE DUP2 DUP2 PUSH2 0x53E ADD MSTORE DUP2 DUP2 PUSH2 0x701 ADD MSTORE DUP2 DUP2 PUSH2 0x954 ADD MSTORE PUSH2 0x9F3 ADD MSTORE PUSH2 0xC08 PUSH1 0x0 RETURN INVALID PUSH1 0x80 PUSH1 0x40 MSTORE CALLVALUE DUP1 ISZERO PUSH2 0x10 JUMPI PUSH1 0x0 DUP1 REVERT JUMPDEST POP PUSH1 0x4 CALLDATASIZE LT PUSH2 0x12C JUMPI PUSH1 0x0 CALLDATALOAD PUSH1 0xE0 SHR DUP1 PUSH4 0xA5ECE941 GT PUSH2 0xAD JUMPI DUP1 PUSH4 0xCAD7CA40 GT PUSH2 0x71 JUMPI DUP1 PUSH4 0xCAD7CA40 EQ PUSH2 0x251 JUMPI DUP1 PUSH4 0xF5AE497A EQ PUSH2 0x259 JUMPI DUP1 PUSH4 0xF7E90D8F EQ PUSH2 0x26C JUMPI DUP1 PUSH4 0xFDA7AFF0 EQ PUSH2 0x277 JUMPI DUP1 PUSH4 0xFDF5963A EQ PUSH2 0x281 JUMPI PUSH1 0x0 DUP1 REVERT JUMPDEST DUP1 PUSH4 0xA5ECE941 EQ PUSH2 0x203 JUMPI DUP1 PUSH4 0xABEE967C EQ PUSH2 0x216 JUMPI DUP1 PUSH4 0xB2FD0901 EQ PUSH2 0x21F JUMPI DUP1 PUSH4 0xB343A0DF EQ PUSH2 0x228 JUMPI DUP1 PUSH4 0xB77CF9C6 EQ PUSH2 0x231 JUMPI PUSH1 0x0 DUP1 REVERT JUMPDEST DUP1 PUSH4 0x4E71D92D GT PUSH2 0xF4 JUMPI DUP1 PUSH4 0x4E71D92D EQ PUSH2 0x197 JUMPI DUP1 PUSH4 0x6E90013D EQ PUSH2 0x1A1 JUMPI DUP1 PUSH4 0x7F581488 EQ PUSH2 0x1B4 JUMPI DUP1 PUSH4 0x823CC69D EQ PUSH2 0x1F3 JUMPI DUP1 PUSH4 0x92F851C1 EQ PUSH2 0x1FB JUMPI PUSH1 0x0 DUP1 REVERT JUMPDEST DUP1 PUSH4 0x3E0A1E2 EQ PUSH2 0x131 JUMPI DUP1 PUSH4 0x6D2AD40 EQ PUSH2 0x14C JUMPI DUP1 PUSH4 0x9C21F2D EQ PUSH2 0x17F JUMPI DUP1 PUSH4 0x39AD74CD EQ PUSH2 0x187 JUMPI DUP1 PUSH4 0x4618AF42 EQ PUSH2 0x18F JUMPI JUMPDEST PUSH1 0x0 DUP1 REVERT JUMPDEST PUSH2 0x139 PUSH2 0x28A JUMP JUMPDEST PUSH1 0x40 MLOAD SWAP1 DUP2 MSTORE PUSH1 0x20 ADD JUMPDEST PUSH1 0x40 MLOAD DUP1 SWAP2 SUB SWAP1 RETURN JUMPDEST PUSH2 0x16F PUSH2 0x15A CALLDATASIZE PUSH1 0x4 PUSH2 0xAB7 JUMP JUMPDEST PUSH1 0x6 PUSH1 0x20 MSTORE PUSH1 0x0 SWAP1 DUP2 MSTORE PUSH1 0x40 SWAP1 KECCAK256 SLOAD PUSH1 0xFF AND DUP2 JUMP JUMPDEST PUSH1 0x40 MLOAD SWAP1 ISZERO ISZERO DUP2 MSTORE PUSH1 0x20 ADD PUSH2 0x143 JUMP JUMPDEST PUSH2 0x16F PUSH2 0x2A9 JUMP JUMPDEST PUSH1 0xA SLOAD PUSH2 0x139 JUMP JUMPDEST PUSH2 0x139 PUSH2 0x2C9 JUMP JUMPDEST PUSH2 0x19F PUSH2 0x354 JUMP JUMPDEST STOP JUMPDEST PUSH2 0x19F PUSH2 0x1AF CALLDATASIZE PUSH1 0x4 PUSH2 0xAD9 JUMP JUMPDEST PUSH2 0x601 JUMP JUMPDEST PUSH2 0x1DB PUSH32 0x0 DUP2 JUMP JUMPDEST PUSH1 0x40 MLOAD PUSH1 0x1 PUSH1 0x1 PUSH1 0xA0 SHL SUB SWAP1 SWAP2 AND DUP2 MSTORE PUSH1 0x20 ADD PUSH2 0x143 JUMP JUMPDEST PUSH2 0x16F PUSH2 0x6C5 JUMP JUMPDEST PUSH2 0x19F PUSH2 0x6E9 JUMP JUMPDEST PUSH1 0x8 SLOAD PUSH2 0x1DB SWAP1 PUSH1 0x1 PUSH1 0x1 PUSH1 0xA0 SHL SUB AND DUP2 JUMP JUMPDEST PUSH2 0x139 PUSH1 0x1 SLOAD DUP2 JUMP JUMPDEST PUSH2 0x139 PUSH1 0x2 SLOAD DUP2 JUMP JUMPDEST PUSH2 0x139 PUSH1 0xA SLOAD DUP2 JUMP JUMPDEST PUSH2 0x139 PUSH2 0x23F CALLDATASIZE PUSH1 0x4 PUSH2 0xAB7 JUMP JUMPDEST PUSH1 0x5 PUSH1 0x20 MSTORE PUSH1 0x0 SWAP1 DUP2 MSTORE PUSH1 0x40 SWAP1 KECCAK256 SLOAD DUP2 JUMP JUMPDEST PUSH1 0x7 SLOAD PUSH2 0x139 JUMP JUMPDEST PUSH1 0x0 SLOAD PUSH2 0x1DB SWAP1 PUSH1 0x1 PUSH1 0x1 PUSH1 0xA0 SHL SUB AND DUP2 JUMP JUMPDEST PUSH2 0x139 PUSH4 0x1312D00 DUP2 JUMP JUMPDEST PUSH2 0x139 PUSH3 0x278D00 DUP2 JUMP JUMPDEST PUSH2 0x139 PUSH1 0x7 SLOAD DUP2 JUMP JUMPDEST CALLER PUSH1 0x0 SWAP1 DUP2 MSTORE PUSH1 0x5 PUSH1 0x20 MSTORE PUSH1 0x40 DUP2 KECCAK256 SLOAD PUSH2 0x2A4 SWAP1 TIMESTAMP PUSH2 0xB19 JUMP JUMPDEST SWAP1 POP SWAP1 JUMP JUMPDEST PUSH1 0x0 PUSH3 0x278D00 PUSH2 0x2B8 PUSH1 0xA SLOAD SWAP1 JUMP JUMPDEST PUSH2 0x2C2 SWAP1 TIMESTAMP PUSH2 0xB19 JUMP JUMPDEST LT ISZERO SWAP1 POP SWAP1 JUMP JUMPDEST PUSH1 0x40 MLOAD PUSH4 0x70A08231 PUSH1 0xE0 SHL DUP2 MSTORE ADDRESS PUSH1 0x4 DUP3 ADD MSTORE PUSH1 0x0 SWAP1 PUSH32 0x0 PUSH1 0x1 PUSH1 0x1 PUSH1 0xA0 SHL SUB AND SWAP1 PUSH4 0x70A08231 SWAP1 PUSH1 0x24 ADD PUSH1 0x20 PUSH1 0x40 MLOAD DUP1 DUP4 SUB DUP2 DUP7 GAS STATICCALL ISZERO DUP1 ISZERO PUSH2 0x330 JUMPI RETURNDATASIZE PUSH1 0x0 DUP1 RETURNDATACOPY RETURNDATASIZE PUSH1 0x0 REVERT JUMPDEST POP POP POP POP PUSH1 0x40 MLOAD RETURNDATASIZE PUSH1 0x1F NOT PUSH1 0x1F DUP3 ADD AND DUP3 ADD DUP1 PUSH1 0x40 MSTORE POP DUP2 ADD SWAP1 PUSH2 0x2A4 SWAP2 SWAP1 PUSH2 0xB32 JUMP JUMPDEST PUSH1 0x0 DUP1 SLOAD PUSH1 0x40 MLOAD PUSH4 0x70A08231 PUSH1 0xE0 SHL DUP2 MSTORE CALLER PUSH1 0x4 DUP3 ADD MSTORE PUSH1 0x1 PUSH1 0x1 PUSH1 0xA0 SHL SUB SWAP1 SWAP2 AND SWAP1 PUSH4 0x70A08231 SWAP1 PUSH1 0x24 ADD PUSH1 0x20 PUSH1 0x40 MLOAD DUP1 DUP4 SUB DUP2 DUP7 GAS STATICCALL ISZERO DUP1 ISZERO PUSH2 0x39D JUMPI RETURNDATASIZE PUSH1 0x0 DUP1 RETURNDATACOPY RETURNDATASIZE PUSH1 0x0 REVERT JUMPDEST POP POP POP POP PUSH1 0x40 MLOAD RETURNDATASIZE PUSH1 0x1F NOT PUSH1 0x1F DUP3 ADD AND DUP3 ADD DUP1 PUSH1 0x40 MSTORE POP DUP2 ADD SWAP1 PUSH2 0x3C1 SWAP2 SWAP1 PUSH2 0xB32 JUMP JUMPDEST GT PUSH2 0x40B JUMPI PUSH1 0x40 MLOAD PUSH3 0x461BCD PUSH1 0xE5 SHL DUP2 MSTORE PUSH1 0x20 PUSH1 0x4 DUP3 ADD MSTORE PUSH1 0x15 PUSH1 0x24 DUP3 ADD MSTORE PUSH21 0x4E6F7420656C696769626C6520746F20636C61696D PUSH1 0x58 SHL PUSH1 0x44 DUP3 ADD MSTORE PUSH1 0x64 ADD JUMPDEST PUSH1 0x40 MLOAD DUP1 SWAP2 SUB SWAP1 REVERT JUMPDEST PUSH2 0x413 PUSH2 0x6C5 JUMP JUMPDEST PUSH2 0x45F JUMPI PUSH1 0x40 MLOAD PUSH3 0x461BCD PUSH1 0xE5 SHL DUP2 MSTORE PUSH1 0x20 PUSH1 0x4 DUP3 ADD MSTORE PUSH1 0x1D PUSH1 0x24 DUP3 ADD MSTORE PUSH32 0x43616E206F6E6C7920636C61696D20616674657220323420686F757273000000 PUSH1 0x44 DUP3 ADD MSTORE PUSH1 0x64 ADD PUSH2 0x402 JUMP JUMPDEST PUSH1 0x40 MLOAD PUSH4 0x70A08231 PUSH1 0xE0 SHL DUP2 MSTORE ADDRESS PUSH1 0x4 DUP3 ADD MSTORE PUSH32 0x0 PUSH1 0x1 PUSH1 0x1 PUSH1 0xA0 SHL SUB AND SWAP1 PUSH4 0x70A08231 SWAP1 PUSH1 0x24 ADD PUSH1 0x20 PUSH1 0x40 MLOAD DUP1 DUP4 SUB DUP2 DUP7 GAS STATICCALL ISZERO DUP1 ISZERO PUSH2 0x4C3 JUMPI RETURNDATASIZE PUSH1 0x0 DUP1 RETURNDATACOPY RETURNDATASIZE PUSH1 0x0 REVERT JUMPDEST POP POP POP POP PUSH1 0x40 MLOAD RETURNDATASIZE PUSH1 0x1F NOT PUSH1 0x1F DUP3 ADD AND DUP3 ADD DUP1 PUSH1 0x40 MSTORE POP DUP2 ADD SWAP1 PUSH2 0x4E7 SWAP2 SWAP1 PUSH2 0xB32 JUMP JUMPDEST PUSH1 0x2 SSTORE PUSH1 0x0 PUSH2 0x4F4 PUSH2 0x851 JUMP JUMPDEST CALLER PUSH1 0x0 SWAP1 DUP2 MSTORE PUSH1 0x5 PUSH1 0x20 MSTORE PUSH1 0x40 DUP2 KECCAK256 TIMESTAMP SWAP1 SSTORE PUSH1 0x2 DUP1 SLOAD SWAP3 SWAP4 POP DUP4 SWAP3 SWAP1 SWAP2 SWAP1 PUSH2 0x51D SWAP1 DUP5 SWAP1 PUSH2 0xB19 JUMP JUMPDEST SWAP1 SWAP2 SSTORE POP POP PUSH1 0x40 MLOAD PUSH4 0xA9059CBB PUSH1 0xE0 SHL DUP2 MSTORE CALLER PUSH1 0x4 DUP3 ADD MSTORE PUSH1 0x24 DUP2 ADD DUP3 SWAP1 MSTORE PUSH32 0x0 PUSH1 0x1 PUSH1 0x1 PUSH1 0xA0 SHL SUB AND SWAP1 PUSH4 0xA9059CBB SWAP1 PUSH1 0x44 ADD PUSH1 0x20 PUSH1 0x40 MLOAD DUP1 DUP4 SUB DUP2 PUSH1 0x0 DUP8 GAS CALL ISZERO DUP1 ISZERO PUSH2 0x58F JUMPI RETURNDATASIZE PUSH1 0x0 DUP1 RETURNDATACOPY RETURNDATASIZE PUSH1 0x0 REVERT JUMPDEST POP POP POP POP PUSH1 0x40 MLOAD RETURNDATASIZE PUSH1 0x1F NOT PUSH1 0x1F DUP3 ADD AND DUP3 ADD DUP1 PUSH1 0x40 MSTORE POP DUP2 ADD SWAP1 PUSH2 0x5B3 SWAP2 SWAP1 PUSH2 0xB4B JUMP JUMPDEST POP PUSH1 0x40 MLOAD DUP2 DUP2 MSTORE CALLER SWAP1 PUSH32 0x47CEE97CB7ACD717B3C0AA1435D004CD5B3C8C57D70DBCEB4E4458BBD60E39D4 SWAP1 PUSH1 0x20 ADD PUSH1 0x40 MLOAD DUP1 SWAP2 SUB SWAP1 LOG2 PUSH2 0x5F1 PUSH2 0x2A9 JUMP JUMPDEST ISZERO PUSH2 0x5FE JUMPI PUSH2 0x5FE PUSH2 0x93C JUMP JUMPDEST POP JUMP JUMPDEST PUSH1 0x9 SLOAD PUSH1 0x1 PUSH1 0x1 PUSH1 0xA0 SHL SUB AND CALLER EQ PUSH2 0x649 JUMPI PUSH1 0x40 MLOAD PUSH3 0x461BCD PUSH1 0xE5 SHL DUP2 MSTORE PUSH1 0x20 PUSH1 0x4 DUP3 ADD MSTORE PUSH1 0xB PUSH1 0x24 DUP3 ADD MSTORE PUSH11 0x1B9BDD08105B1B1BDDD959 PUSH1 0xAA SHL PUSH1 0x44 DUP3 ADD MSTORE PUSH1 0x64 ADD PUSH2 0x402 JUMP JUMPDEST PUSH1 0x9 SLOAD PUSH1 0x40 MLOAD PUSH4 0xA9059CBB PUSH1 0xE0 SHL DUP2 MSTORE PUSH1 0x1 PUSH1 0x1 PUSH1 0xA0 SHL SUB SWAP2 DUP3 AND PUSH1 0x4 DUP3 ADD MSTORE PUSH1 0x24 DUP2 ADD DUP4 SWAP1 MSTORE SWAP1 DUP4 AND SWAP1 PUSH4 0xA9059CBB SWAP1 PUSH1 0x44 ADD PUSH1 0x20 PUSH1 0x40 MLOAD DUP1 DUP4 SUB DUP2 PUSH1 0x0 DUP8 GAS CALL ISZERO DUP1 ISZERO PUSH2 0x69C JUMPI RETURNDATASIZE PUSH1 0x0 DUP1 RETURNDATACOPY RETURNDATASIZE PUSH1 0x0 REVERT JUMPDEST POP POP POP POP PUSH1 0x40 MLOAD RETURNDATASIZE PUSH1 0x1F NOT PUSH1 0x1F DUP3 ADD AND DUP3 ADD DUP1 PUSH1 0x40 MSTORE POP DUP2 ADD SWAP1 PUSH2 0x6C0 SWAP2 SWAP1 PUSH2 0xB4B JUMP JUMPDEST POP POP POP JUMP JUMPDEST CALLER PUSH1 0x0 SWAP1 DUP2 MSTORE PUSH1 0x5 PUSH1 0x20 MSTORE PUSH1 0x40 DUP2 KECCAK256 SLOAD PUSH2 0x6E2 SWAP1 PUSH3 0x15180 PUSH2 0xB6D JUMP JUMPDEST TIMESTAMP GT SWAP1 POP SWAP1 JUMP JUMPDEST PUSH1 0x40 MLOAD PUSH4 0x70A08231 PUSH1 0xE0 SHL DUP2 MSTORE CALLER PUSH1 0x4 DUP3 ADD MSTORE PUSH1 0x0 SWAP1 PUSH32 0x0 PUSH1 0x1 PUSH1 0x1 PUSH1 0xA0 SHL SUB AND SWAP1 PUSH4 0x70A08231 SWAP1 PUSH1 0x24 ADD PUSH1 0x20 PUSH1 0x40 MLOAD DUP1 DUP4 SUB DUP2 DUP7 GAS STATICCALL ISZERO DUP1 ISZERO PUSH2 0x750 JUMPI RETURNDATASIZE PUSH1 0x0 DUP1 RETURNDATACOPY RETURNDATASIZE PUSH1 0x0 REVERT JUMPDEST POP POP POP POP PUSH1 0x40 MLOAD RETURNDATASIZE PUSH1 0x1F NOT PUSH1 0x1F DUP3 ADD AND DUP3 ADD DUP1 PUSH1 0x40 MSTORE POP DUP2 ADD SWAP1 PUSH2 0x774 SWAP2 SWAP1 PUSH2 0xB32 JUMP JUMPDEST GT PUSH2 0x7B1 JUMPI PUSH1 0x40 MLOAD PUSH3 0x461BCD PUSH1 0xE5 SHL DUP2 MSTORE PUSH1 0x20 PUSH1 0x4 DUP3 ADD MSTORE PUSH1 0xD PUSH1 0x24 DUP3 ADD MSTORE PUSH13 0x5A65726F20486F6C64696E6773 PUSH1 0x98 SHL PUSH1 0x44 DUP3 ADD MSTORE PUSH1 0x64 ADD PUSH2 0x402 JUMP JUMPDEST CALLER PUSH1 0x0 SWAP1 DUP2 MSTORE PUSH1 0x6 PUSH1 0x20 MSTORE PUSH1 0x40 SWAP1 KECCAK256 SLOAD PUSH1 0xFF AND ISZERO PUSH2 0x820 JUMPI PUSH1 0x40 MLOAD PUSH3 0x461BCD PUSH1 0xE5 SHL DUP2 MSTORE PUSH1 0x20 PUSH1 0x4 DUP3 ADD MSTORE PUSH1 0x26 PUSH1 0x24 DUP3 ADD MSTORE PUSH32 0x596F75206861766520616C7265616479206170706C69656420666F7220726564 PUSH1 0x44 DUP3 ADD MSTORE PUSH6 0x3AB1BA34B7B7 PUSH1 0xD1 SHL PUSH1 0x64 DUP3 ADD MSTORE PUSH1 0x84 ADD PUSH2 0x402 JUMP JUMPDEST PUSH1 0x7 DUP1 SLOAD SWAP1 PUSH1 0x0 PUSH2 0x830 DUP4 PUSH2 0xB80 JUMP JUMPDEST SWAP1 SWAP2 SSTORE POP POP CALLER PUSH1 0x0 SWAP1 DUP2 MSTORE PUSH1 0x6 PUSH1 0x20 MSTORE PUSH1 0x40 SWAP1 KECCAK256 DUP1 SLOAD PUSH1 0xFF NOT AND PUSH1 0x1 OR SWAP1 SSTORE JUMP JUMPDEST PUSH1 0x0 PUSH1 0x4 SLOAD PUSH1 0x0 SUB PUSH2 0x8EB JUMPI PUSH3 0xF4240 PUSH2 0x86A PUSH1 0x7 SLOAD SWAP1 JUMP JUMPDEST LT ISZERO PUSH2 0x883 JUMPI PUSH10 0x10F0CF064DD59200000 PUSH1 0x1 SSTORE PUSH2 0x8EB JUMP JUMPDEST PUSH3 0xF4240 PUSH2 0x890 PUSH1 0x7 SLOAD SWAP1 JUMP JUMPDEST LT PUSH2 0x8A7 JUMPI PUSH9 0x878678326EAC900000 PUSH1 0x1 SSTORE PUSH2 0x8EB JUMP JUMPDEST PUSH3 0x4C4B40 PUSH2 0x8B4 PUSH1 0x7 SLOAD SWAP1 JUMP JUMPDEST LT PUSH2 0x8CB JUMPI PUSH9 0x43C33C193756480000 PUSH1 0x1 SSTORE PUSH2 0x8EB JUMP JUMPDEST PUSH3 0xE4E1C0 PUSH2 0x8D8 PUSH1 0x7 SLOAD SWAP1 JUMP JUMPDEST LT PUSH2 0x8EB JUMPI PUSH9 0x28A857425466F80000 PUSH1 0x1 SSTORE JUMPDEST PUSH1 0x0 PUSH1 0x64 PUSH1 0x3 SLOAD PUSH1 0x64 PUSH2 0x8FE SWAP2 SWAP1 PUSH2 0xB19 JUMP JUMPDEST PUSH1 0x1 SLOAD PUSH2 0x90B SWAP2 SWAP1 PUSH2 0xB99 JUMP JUMPDEST PUSH2 0x915 SWAP2 SWAP1 PUSH2 0xBB0 JUMP JUMPDEST PUSH1 0x1 DUP2 SWAP1 SSTORE PUSH1 0xA PUSH1 0x3 SSTORE PUSH1 0x4 DUP1 SLOAD SWAP2 SWAP3 POP PUSH1 0x0 PUSH2 0x931 DUP4 PUSH2 0xB80 JUMP JUMPDEST SWAP1 SWAP2 SSTORE POP SWAP1 SWAP3 SWAP2 POP POP JUMP JUMPDEST PUSH1 0x40 MLOAD PUSH4 0x70A08231 PUSH1 0xE0 SHL DUP2 MSTORE ADDRESS PUSH1 0x4 DUP3 ADD MSTORE PUSH1 0x0 SWAP1 PUSH32 0x0 PUSH1 0x1 PUSH1 0x1 PUSH1 0xA0 SHL SUB AND SWAP1 PUSH4 0x70A08231 SWAP1 PUSH1 0x24 ADD PUSH1 0x20 PUSH1 0x40 MLOAD DUP1 DUP4 SUB DUP2 DUP7 GAS STATICCALL ISZERO DUP1 ISZERO PUSH2 0x9A3 JUMPI RETURNDATASIZE PUSH1 0x0 DUP1 RETURNDATACOPY RETURNDATASIZE PUSH1 0x0 REVERT JUMPDEST POP POP POP POP PUSH1 0x40 MLOAD RETURNDATASIZE PUSH1 0x1F NOT PUSH1 0x1F DUP3 ADD AND DUP3 ADD DUP1 PUSH1 0x40 MSTORE POP DUP2 ADD SWAP1 PUSH2 0x9C7 SWAP2 SWAP1 PUSH2 0xB32 JUMP JUMPDEST PUSH1 0x8 SLOAD PUSH1 0x40 MLOAD PUSH4 0xA9059CBB PUSH1 0xE0 SHL DUP2 MSTORE PUSH1 0x1 PUSH1 0x1 PUSH1 0xA0 SHL SUB SWAP2 DUP3 AND PUSH1 0x4 DUP3 ADD MSTORE PUSH1 0x24 DUP2 ADD DUP4 SWAP1 MSTORE SWAP2 SWAP3 POP PUSH32 0x0 AND SWAP1 PUSH4 0xA9059CBB SWAP1 PUSH1 0x44 ADD PUSH1 0x20 PUSH1 0x40 MLOAD DUP1 DUP4 SUB DUP2 PUSH1 0x0 DUP8 GAS CALL ISZERO DUP1 ISZERO PUSH2 0xA3C JUMPI RETURNDATASIZE PUSH1 0x0 DUP1 RETURNDATACOPY RETURNDATASIZE PUSH1 0x0 REVERT JUMPDEST POP POP POP POP PUSH1 0x40 MLOAD RETURNDATASIZE PUSH1 0x1F NOT PUSH1 0x1F DUP3 ADD AND DUP3 ADD DUP1 PUSH1 0x40 MSTORE POP DUP2 ADD SWAP1 PUSH2 0xA60 SWAP2 SWAP1 PUSH2 0xB4B JUMP JUMPDEST POP TIMESTAMP PUSH1 0xA SSTORE PUSH1 0x0 PUSH1 0x3 DUP2 SWAP1 SSTORE PUSH1 0x4 DUP2 SWAP1 SSTORE PUSH1 0x40 MLOAD PUSH32 0x6423DB340205C829EEB91151B1C5D1DC6D7A2B8708B1621494E89BA90C87081E SWAP2 SWAP1 LOG1 POP JUMP JUMPDEST DUP1 CALLDATALOAD PUSH1 0x1 PUSH1 0x1 PUSH1 0xA0 SHL SUB DUP2 AND DUP2 EQ PUSH2 0xAB2 JUMPI PUSH1 0x0 DUP1 REVERT JUMPDEST SWAP2 SWAP1 POP JUMP JUMPDEST PUSH1 0x0 PUSH1 0x20 DUP3 DUP5 SUB SLT ISZERO PUSH2 0xAC9 JUMPI PUSH1 0x0 DUP1 REVERT JUMPDEST PUSH2 0xAD2 DUP3 PUSH2 0xA9B JUMP JUMPDEST SWAP4 SWAP3 POP POP POP JUMP JUMPDEST PUSH1 0x0 DUP1 PUSH1 0x40 DUP4 DUP6 SUB SLT ISZERO PUSH2 0xAEC JUMPI PUSH1 0x0 DUP1 REVERT JUMPDEST PUSH2 0xAF5 DUP4 PUSH2 0xA9B JUMP JUMPDEST SWAP5 PUSH1 0x20 SWAP4 SWAP1 SWAP4 ADD CALLDATALOAD SWAP4 POP POP POP JUMP JUMPDEST PUSH4 0x4E487B71 PUSH1 0xE0 SHL PUSH1 0x0 MSTORE PUSH1 0x11 PUSH1 0x4 MSTORE PUSH1 0x24 PUSH1 0x0 REVERT JUMPDEST DUP2 DUP2 SUB DUP2 DUP2 GT ISZERO PUSH2 0xB2C JUMPI PUSH2 0xB2C PUSH2 0xB03 JUMP JUMPDEST SWAP3 SWAP2 POP POP JUMP JUMPDEST PUSH1 0x0 PUSH1 0x20 DUP3 DUP5 SUB SLT ISZERO PUSH2 0xB44 JUMPI PUSH1 0x0 DUP1 REVERT JUMPDEST POP MLOAD SWAP2 SWAP1 POP JUMP JUMPDEST PUSH1 0x0 PUSH1 0x20 DUP3 DUP5 SUB SLT ISZERO PUSH2 0xB5D JUMPI PUSH1 0x0 DUP1 REVERT JUMPDEST DUP2 MLOAD DUP1 ISZERO ISZERO DUP2 EQ PUSH2 0xAD2 JUMPI PUSH1 0x0 DUP1 REVERT JUMPDEST DUP1 DUP3 ADD DUP1 DUP3 GT ISZERO PUSH2 0xB2C JUMPI PUSH2 0xB2C PUSH2 0xB03 JUMP JUMPDEST PUSH1 0x0 PUSH1 0x1 DUP3 ADD PUSH2 0xB92 JUMPI PUSH2 0xB92 PUSH2 0xB03 JUMP JUMPDEST POP PUSH1 0x1 ADD SWAP1 JUMP JUMPDEST DUP1 DUP3 MUL DUP2 ISZERO DUP3 DUP3 DIV DUP5 EQ OR PUSH2 0xB2C JUMPI PUSH2 0xB2C PUSH2 0xB03 JUMP JUMPDEST PUSH1 0x0 DUP3 PUSH2 0xBCD JUMPI PUSH4 0x4E487B71 PUSH1 0xE0 SHL PUSH1 0x0 MSTORE PUSH1 0x12 PUSH1 0x4 MSTORE PUSH1 0x24 PUSH1 0x0 REVERT JUMPDEST POP DIV SWAP1 JUMP INVALID LOG2 PUSH5 0x6970667358 0x22 SLT KECCAK256 OR 0xA7 LOG2 PUSH3 0x5961DC 0x4B SWAP12 0x22 PUSH0 0xE0 0xA7 0x1E 0x1E 0xD3 0x2A 0xA8 0xF7 0xD9 DUP12 0xDD 0x1F STOP 0xD5 BLOBHASH PUSH14 0x8B5D6F95A864736F6C6343000819 STOP CALLER "
				},
				"gasEstimates": {
					"creation": {
						"codeDepositCost": "616000",
						"executionCost": "infinite",
						"totalCost": "infinite"
					},
					"external": {
						"alreadyVoted(address)": "1277",
						"applicants()": "1094",
						"budsToken()": "infinite",
						"claim()": "infinite",
						"currentMonthRewardsLeft()": "1051",
						"getCurrentMonthRewardsLeft()": "infinite",
						"getLastResetTime()": "1071",
						"initialReward()": "1029",
						"isResetTime()": "1187",
						"isWithinClaimWindow()": "1255",
						"lastClaimTime(address)": "1319",
						"lastResetTimestamp()": "1073",
						"lpTokenAddress()": "1081",
						"marketingAddress()": "1060",
						"minLPValue()": "250",
						"numberOfApplicants()": "1003",
						"reduceCommission()": "infinite",
						"resetInterval()": "272",
						"timeSinceLastClaim()": "1167",
						"withdrawExcess(address,uint256)": "infinite"
					},
					"internal": {
						"calculateReward()": "infinite",
						"reset()": "infinite"
					}
				},
				"methodIdentifiers": {
					"alreadyVoted(address)": "06d2ad40",
					"applicants()": "fdf5963a",
					"budsToken()": "7f581488",
					"claim()": "4e71d92d",
					"currentMonthRewardsLeft()": "b2fd0901",
					"getCurrentMonthRewardsLeft()": "4618af42",
					"getLastResetTime()": "39ad74cd",
					"initialReward()": "abee967c",
					"isResetTime()": "09c21f2d",
					"isWithinClaimWindow()": "823cc69d",
					"lastClaimTime(address)": "b77cf9c6",
					"lastResetTimestamp()": "b343a0df",
					"lpTokenAddress()": "f5ae497a",
					"marketingAddress()": "a5ece941",
					"minLPValue()": "f7e90d8f",
					"numberOfApplicants()": "cad7ca40",
					"reduceCommission()": "92f851c1",
					"resetInterval()": "fda7aff0",
					"timeSinceLastClaim()": "03e0a1e2",
					"withdrawExcess(address,uint256)": "6e90013d"
				}
			},
			"storageLayout": {
				"storage": [
					{
						"astId": 83,
						"contract": "contracts/BUDS/Topping.sol:Toppings",
						"label": "lpTokenAddress",
						"offset": 0,
						"slot": "0",
						"type": "t_address"
					},
					{
						"astId": 92,
						"contract": "contracts/BUDS/Topping.sol:Toppings",
						"label": "initialReward",
						"offset": 0,
						"slot": "1",
						"type": "t_uint256"
					},
					{
						"astId": 94,
						"contract": "contracts/BUDS/Topping.sol:Toppings",
						"label": "currentMonthRewardsLeft",
						"offset": 0,
						"slot": "2",
						"type": "t_uint256"
					},
					{
						"astId": 99,
						"contract": "contracts/BUDS/Topping.sol:Toppings",
						"label": "claimDiscount",
						"offset": 0,
						"slot": "3",
						"type": "t_uint256"
					},
					{
						"astId": 102,
						"contract": "contracts/BUDS/Topping.sol:Toppings",
						"label": "claimCount",
						"offset": 0,
						"slot": "4",
						"type": "t_uint256"
					},
					{
						"astId": 106,
						"contract": "contracts/BUDS/Topping.sol:Toppings",
						"label": "lastClaimTime",
						"offset": 0,
						"slot": "5",
						"type": "t_mapping(t_address,t_uint256)"
					},
					{
						"astId": 110,
						"contract": "contracts/BUDS/Topping.sol:Toppings",
						"label": "alreadyVoted",
						"offset": 0,
						"slot": "6",
						"type": "t_mapping(t_address,t_bool)"
					},
					{
						"astId": 112,
						"contract": "contracts/BUDS/Topping.sol:Toppings",
						"label": "applicants",
						"offset": 0,
						"slot": "7",
						"type": "t_uint256"
					},
					{
						"astId": 114,
						"contract": "contracts/BUDS/Topping.sol:Toppings",
						"label": "marketingAddress",
						"offset": 0,
						"slot": "8",
						"type": "t_address"
					},
					{
						"astId": 118,
						"contract": "contracts/BUDS/Topping.sol:Toppings",
						"label": "owner",
						"offset": 0,
						"slot": "9",
						"type": "t_address"
					},
					{
						"astId": 122,
						"contract": "contracts/BUDS/Topping.sol:Toppings",
						"label": "lastResetTimestamp",
						"offset": 0,
						"slot": "10",
						"type": "t_uint256"
					}
				],
				"types": {
					"t_address": {
						"encoding": "inplace",
						"label": "address",
						"numberOfBytes": "20"
					},
					"t_bool": {
						"encoding": "inplace",
						"label": "bool",
						"numberOfBytes": "1"
					},
					"t_mapping(t_address,t_bool)": {
						"encoding": "mapping",
						"key": "t_address",
						"label": "mapping(address => bool)",
						"numberOfBytes": "32",
						"value": "t_bool"
					},
					"t_mapping(t_address,t_uint256)": {
						"encoding": "mapping",
						"key": "t_address",
						"label": "mapping(address => uint256)",
						"numberOfBytes": "32",
						"value": "t_uint256"
					},
					"t_uint256": {
						"encoding": "inplace",
						"label": "uint256",
						"numberOfBytes": "32"
					}
				}
			},
			"userdoc": {
				"kind": "user",
				"methods": {},
				"version": 1
			}
		}
	}
}