{
	"contracts/BUDS/BUDS.sol": {
		"DBI": {
			"abi": [
				{
					"inputs": [
						{
							"internalType": "address",
							"name": "initialOwner",
							"type": "address"
						}
					],
					"stateMutability": "nonpayable",
					"type": "constructor"
				},
				{
					"inputs": [
						{
							"internalType": "address",
							"name": "spender",
							"type": "address"
						},
						{
							"internalType": "uint256",
							"name": "allowance",
							"type": "uint256"
						},
						{
							"internalType": "uint256",
							"name": "needed",
							"type": "uint256"
						}
					],
					"name": "ERC20InsufficientAllowance",
					"type": "error"
				},
				{
					"inputs": [
						{
							"internalType": "address",
							"name": "sender",
							"type": "address"
						},
						{
							"internalType": "uint256",
							"name": "balance",
							"type": "uint256"
						},
						{
							"internalType": "uint256",
							"name": "needed",
							"type": "uint256"
						}
					],
					"name": "ERC20InsufficientBalance",
					"type": "error"
				},
				{
					"inputs": [
						{
							"internalType": "address",
							"name": "approver",
							"type": "address"
						}
					],
					"name": "ERC20InvalidApprover",
					"type": "error"
				},
				{
					"inputs": [
						{
							"internalType": "address",
							"name": "receiver",
							"type": "address"
						}
					],
					"name": "ERC20InvalidReceiver",
					"type": "error"
				},
				{
					"inputs": [
						{
							"internalType": "address",
							"name": "sender",
							"type": "address"
						}
					],
					"name": "ERC20InvalidSender",
					"type": "error"
				},
				{
					"inputs": [
						{
							"internalType": "address",
							"name": "spender",
							"type": "address"
						}
					],
					"name": "ERC20InvalidSpender",
					"type": "error"
				},
				{
					"inputs": [
						{
							"internalType": "address",
							"name": "owner",
							"type": "address"
						}
					],
					"name": "OwnableInvalidOwner",
					"type": "error"
				},
				{
					"inputs": [
						{
							"internalType": "address",
							"name": "account",
							"type": "address"
						}
					],
					"name": "OwnableUnauthorizedAccount",
					"type": "error"
				},
				{
					"anonymous": false,
					"inputs": [
						{
							"indexed": true,
							"internalType": "address",
							"name": "owner",
							"type": "address"
						},
						{
							"indexed": true,
							"internalType": "address",
							"name": "spender",
							"type": "address"
						},
						{
							"indexed": false,
							"internalType": "uint256",
							"name": "value",
							"type": "uint256"
						}
					],
					"name": "Approval",
					"type": "event"
				},
				{
					"anonymous": false,
					"inputs": [
						{
							"indexed": true,
							"internalType": "address",
							"name": "previousOwner",
							"type": "address"
						},
						{
							"indexed": true,
							"internalType": "address",
							"name": "newOwner",
							"type": "address"
						}
					],
					"name": "OwnershipTransferred",
					"type": "event"
				},
				{
					"anonymous": false,
					"inputs": [
						{
							"indexed": true,
							"internalType": "address",
							"name": "from",
							"type": "address"
						},
						{
							"indexed": true,
							"internalType": "address",
							"name": "to",
							"type": "address"
						},
						{
							"indexed": false,
							"internalType": "uint256",
							"name": "value",
							"type": "uint256"
						}
					],
					"name": "Transfer",
					"type": "event"
				},
				{
					"inputs": [
						{
							"internalType": "address",
							"name": "",
							"type": "address"
						}
					],
					"name": "aidroppedTime",
					"outputs": [
						{
							"internalType": "uint256",
							"name": "",
							"type": "uint256"
						}
					],
					"stateMutability": "view",
					"type": "function"
				},
				{
					"inputs": [
						{
							"internalType": "address[]",
							"name": "recipients",
							"type": "address[]"
						},
						{
							"internalType": "uint256[]",
							"name": "amounts",
							"type": "uint256[]"
						}
					],
					"name": "airdrop",
					"outputs": [],
					"stateMutability": "nonpayable",
					"type": "function"
				},
				{
					"inputs": [
						{
							"internalType": "address",
							"name": "",
							"type": "address"
						}
					],
					"name": "airdropParticipant",
					"outputs": [
						{
							"internalType": "bool",
							"name": "",
							"type": "bool"
						}
					],
					"stateMutability": "view",
					"type": "function"
				},
				{
					"inputs": [
						{
							"internalType": "address",
							"name": "owner",
							"type": "address"
						},
						{
							"internalType": "address",
							"name": "spender",
							"type": "address"
						}
					],
					"name": "allowance",
					"outputs": [
						{
							"internalType": "uint256",
							"name": "",
							"type": "uint256"
						}
					],
					"stateMutability": "view",
					"type": "function"
				},
				{
					"inputs": [
						{
							"internalType": "address",
							"name": "spender",
							"type": "address"
						},
						{
							"internalType": "uint256",
							"name": "value",
							"type": "uint256"
						}
					],
					"name": "approve",
					"outputs": [
						{
							"internalType": "bool",
							"name": "",
							"type": "bool"
						}
					],
					"stateMutability": "nonpayable",
					"type": "function"
				},
				{
					"inputs": [
						{
							"internalType": "address",
							"name": "account",
							"type": "address"
						}
					],
					"name": "balanceOf",
					"outputs": [
						{
							"internalType": "uint256",
							"name": "",
							"type": "uint256"
						}
					],
					"stateMutability": "view",
					"type": "function"
				},
				{
					"inputs": [],
					"name": "decimals",
					"outputs": [
						{
							"internalType": "uint8",
							"name": "",
							"type": "uint8"
						}
					],
					"stateMutability": "view",
					"type": "function"
				},
				{
					"inputs": [],
					"name": "name",
					"outputs": [
						{
							"internalType": "string",
							"name": "",
							"type": "string"
						}
					],
					"stateMutability": "view",
					"type": "function"
				},
				{
					"inputs": [],
					"name": "owner",
					"outputs": [
						{
							"internalType": "address",
							"name": "",
							"type": "address"
						}
					],
					"stateMutability": "view",
					"type": "function"
				},
				{
					"inputs": [
						{
							"internalType": "address",
							"name": "_address",
							"type": "address"
						}
					],
					"name": "removeStuckToken",
					"outputs": [],
					"stateMutability": "nonpayable",
					"type": "function"
				},
				{
					"inputs": [],
					"name": "renounceOwnership",
					"outputs": [],
					"stateMutability": "nonpayable",
					"type": "function"
				},
				{
					"inputs": [],
					"name": "symbol",
					"outputs": [
						{
							"internalType": "string",
							"name": "",
							"type": "string"
						}
					],
					"stateMutability": "view",
					"type": "function"
				},
				{
					"inputs": [],
					"name": "totalSupply",
					"outputs": [
						{
							"internalType": "uint256",
							"name": "",
							"type": "uint256"
						}
					],
					"stateMutability": "view",
					"type": "function"
				},
				{
					"inputs": [
						{
							"internalType": "address",
							"name": "to",
							"type": "address"
						},
						{
							"internalType": "uint256",
							"name": "value",
							"type": "uint256"
						}
					],
					"name": "transfer",
					"outputs": [
						{
							"internalType": "bool",
							"name": "",
							"type": "bool"
						}
					],
					"stateMutability": "nonpayable",
					"type": "function"
				},
				{
					"inputs": [
						{
							"internalType": "address",
							"name": "from",
							"type": "address"
						},
						{
							"internalType": "address",
							"name": "to",
							"type": "address"
						},
						{
							"internalType": "uint256",
							"name": "value",
							"type": "uint256"
						}
					],
					"name": "transferFrom",
					"outputs": [
						{
							"internalType": "bool",
							"name": "",
							"type": "bool"
						}
					],
					"stateMutability": "nonpayable",
					"type": "function"
				},
				{
					"inputs": [
						{
							"internalType": "address",
							"name": "newOwner",
							"type": "address"
						}
					],
					"name": "transferOwnership",
					"outputs": [],
					"stateMutability": "nonpayable",
					"type": "function"
				},
				{
					"inputs": [],
					"name": "withdrawStuckETH",
					"outputs": [],
					"stateMutability": "nonpayable",
					"type": "function"
				}
			],
			"devdoc": {
				"kind": "dev",
				"methods": {},
				"version": 1
			},
			"evm": {
				"assembly": "    /* \"contracts/BUDS/BUDS.sol\":8833:9520  contract DBI is ERC20, Ownable {... */\n  mstore(0x40, 0x80)\n    /* \"contracts/BUDS/BUDS.sol\":8878:9047  constructor(address initialOwner)... */\n  callvalue\n  dup1\n  iszero\n  tag_1\n  jumpi\n  0x00\n  dup1\n  revert\ntag_1:\n  pop\n  mload(0x40)\n  sub(codesize, bytecodeSize)\n  dup1\n  bytecodeSize\n  dup4\n  codecopy\n  dup2\n  add\n  0x40\n  dup2\n  swap1\n  mstore\n  tag_2\n  swap2\n  tag_3\n  jump\t// in\ntag_2:\n    /* \"contracts/BUDS/BUDS.sol\":3567:3713  constructor(string memory name_, string memory symbol_) {... */\n  0x40\n  dup1\n  mload\n  dup1\n  dup3\n  add\n  dup3\n  mstore\n  0x03\n  dup1\n  dup3\n  mstore\n  shl(0xe8, 0x444249)\n  0x20\n  dup1\n  dup5\n  add\n  dup3\n  swap1\n  mstore\n  dup5\n  mload\n  dup1\n  dup7\n  add\n  swap1\n  swap6\n  mstore\n  swap2\n  dup5\n  mstore\n  swap1\n  dup4\n  add\n  mstore\n    /* \"contracts/BUDS/BUDS.sol\":8958:8970  initialOwner */\n  dup3\n  swap2\n    /* \"contracts/BUDS/BUDS.sol\":3634:3639  _name */\n  0x05\n    /* \"contracts/BUDS/BUDS.sol\":3634:3647  _name = name_ */\n  tag_8\n    /* \"contracts/BUDS/BUDS.sol\":3567:3713  constructor(string memory name_, string memory symbol_) {... */\n  dup4\n    /* \"contracts/BUDS/BUDS.sol\":3634:3639  _name */\n  dup3\n    /* \"contracts/BUDS/BUDS.sol\":3634:3647  _name = name_ */\n  tag_9\n  jump\t// in\ntag_8:\n  pop\n    /* \"contracts/BUDS/BUDS.sol\":3658:3665  _symbol */\n  0x06\n    /* \"contracts/BUDS/BUDS.sol\":3658:3675  _symbol = symbol_ */\n  tag_10\n    /* \"contracts/BUDS/BUDS.sol\":3668:3675  symbol_ */\n  dup3\n    /* \"contracts/BUDS/BUDS.sol\":3658:3665  _symbol */\n  dup3\n    /* \"contracts/BUDS/BUDS.sol\":3658:3675  _symbol = symbol_ */\n  tag_9\n  jump\t// in\ntag_10:\n  pop\n  pop\n    /* \"contracts/BUDS/BUDS.sol\":3686:3692  _owner */\n  0x07\n    /* \"contracts/BUDS/BUDS.sol\":3686:3705  _owner = msg.sender */\n  dup1\n  sload\n  not(sub(shl(0xa0, 0x01), 0x01))\n  and\n    /* \"contracts/BUDS/BUDS.sol\":3695:3705  msg.sender */\n  caller\n    /* \"contracts/BUDS/BUDS.sol\":3686:3705  _owner = msg.sender */\n  or\n  swap1\n  sstore\n  pop\n  sub(shl(0xa0, 0x01), 0x01)\n    /* \"contracts/BUDS/BUDS.sol\":1155:1181  initialOwner == address(0) */\n  dup2\n  and\n    /* \"contracts/BUDS/BUDS.sol\":1151:1248  if (initialOwner == address(0)) {... */\n  tag_12\n  jumpi\n    /* \"contracts/BUDS/BUDS.sol\":1205:1236  OwnableInvalidOwner(address(0)) */\n  mload(0x40)\n  shl(0xe0, 0x1e4fbdf7)\n  dup2\n  mstore\n    /* \"contracts/BUDS/BUDS.sol\":1233:1234  0 */\n  0x00\n    /* \"contracts/BUDS/BUDS.sol\":1205:1236  OwnableInvalidOwner(address(0)) */\n  0x04\n  dup3\n  add\n    /* \"#utility.yul\":3167:3218   */\n  mstore\n    /* \"#utility.yul\":3140:3158   */\n  0x24\n  add\n    /* \"contracts/BUDS/BUDS.sol\":1205:1236  OwnableInvalidOwner(address(0)) */\ntag_13:\n  mload(0x40)\n  dup1\n  swap2\n  sub\n  swap1\n  revert\n    /* \"contracts/BUDS/BUDS.sol\":1151:1248  if (initialOwner == address(0)) {... */\ntag_12:\n    /* \"contracts/BUDS/BUDS.sol\":1258:1290  _transferOwnership(initialOwner) */\n  tag_15\n    /* \"contracts/BUDS/BUDS.sol\":1277:1289  initialOwner */\n  dup2\n    /* \"contracts/BUDS/BUDS.sol\":1258:1276  _transferOwnership */\n  tag_16\n    /* \"contracts/BUDS/BUDS.sol\":1258:1290  _transferOwnership(initialOwner) */\n  jump\t// in\ntag_15:\n  pop\n    /* \"contracts/BUDS/BUDS.sol\":8988:9039  _mint(msg.sender, 2024000000000 * 10 ** decimals()) */\n  tag_18\n    /* \"contracts/BUDS/BUDS.sol\":8994:9004  msg.sender */\n  caller\n    /* \"contracts/BUDS/BUDS.sol\":9022:9038  10 ** decimals() */\n  tag_21\n    /* \"contracts/BUDS/BUDS.sol\":4002:4004  18 */\n  0x12\n    /* \"contracts/BUDS/BUDS.sol\":9022:9024  10 */\n  0x0a\n    /* \"contracts/BUDS/BUDS.sol\":9022:9038  10 ** decimals() */\n  tag_22\n  jump\t// in\ntag_21:\n    /* \"contracts/BUDS/BUDS.sol\":9006:9038  2024000000000 * 10 ** decimals() */\n  tag_23\n  swap1\n    /* \"contracts/BUDS/BUDS.sol\":9006:9019  2024000000000 */\n  0x01d73fcd1000\n    /* \"contracts/BUDS/BUDS.sol\":9006:9038  2024000000000 * 10 ** decimals() */\n  tag_24\n  jump\t// in\ntag_23:\n    /* \"contracts/BUDS/BUDS.sol\":8988:8993  _mint */\n  tag_25\n    /* \"contracts/BUDS/BUDS.sol\":8988:9039  _mint(msg.sender, 2024000000000 * 10 ** decimals()) */\n  jump\t// in\ntag_18:\n    /* \"contracts/BUDS/BUDS.sol\":8878:9047  constructor(address initialOwner)... */\n  pop\n    /* \"contracts/BUDS/BUDS.sol\":8833:9520  contract DBI is ERC20, Ownable {... */\n  jump(tag_54)\n    /* \"contracts/BUDS/BUDS.sol\":1987:2178  function _transferOwnership(address newOwner) internal virtual {... */\ntag_16:\n    /* \"contracts/BUDS/BUDS.sol\":2080:2086  _owner */\n  0x08\n  dup1\n  sload\n  sub(shl(0xa0, 0x01), 0x01)\n    /* \"contracts/BUDS/BUDS.sol\":2097:2114  _owner = newOwner */\n  dup4\n  dup2\n  and\n  not(sub(shl(0xa0, 0x01), 0x01))\n  dup4\n  and\n  dup2\n  or\n  swap1\n  swap4\n  sstore\n    /* \"contracts/BUDS/BUDS.sol\":2130:2170  OwnershipTransferred(oldOwner, newOwner) */\n  mload(0x40)\n    /* \"contracts/BUDS/BUDS.sol\":2080:2086  _owner */\n  swap2\n  and\n  swap2\n    /* \"contracts/BUDS/BUDS.sol\":2097:2114  _owner = newOwner */\n  swap1\n    /* \"contracts/BUDS/BUDS.sol\":2080:2086  _owner */\n  dup3\n  swap1\n    /* \"contracts/BUDS/BUDS.sol\":2130:2170  OwnershipTransferred(oldOwner, newOwner) */\n  0x8be0079c531659141344cd1fd0a4f28419497f9722a3daafe3b4186f6b6457e0\n  swap1\n    /* \"contracts/BUDS/BUDS.sol\":2061:2077  address oldOwner */\n  0x00\n  swap1\n    /* \"contracts/BUDS/BUDS.sol\":2130:2170  OwnershipTransferred(oldOwner, newOwner) */\n  log3\n    /* \"contracts/BUDS/BUDS.sol\":2050:2178  {... */\n  pop\n    /* \"contracts/BUDS/BUDS.sol\":1987:2178  function _transferOwnership(address newOwner) internal virtual {... */\n  pop\n  jump\t// out\n    /* \"contracts/BUDS/BUDS.sol\":6810:7023  function _mint(address account, uint256 value) internal {... */\ntag_25:\n  sub(shl(0xa0, 0x01), 0x01)\n    /* \"contracts/BUDS/BUDS.sol\":6881:6902  account == address(0) */\n  dup3\n  and\n    /* \"contracts/BUDS/BUDS.sol\":6877:6970  if (account == address(0)) {... */\n  tag_30\n  jumpi\n    /* \"contracts/BUDS/BUDS.sol\":6926:6958  ERC20InvalidReceiver(address(0)) */\n  mload(0x40)\n  shl(0xe0, 0xec442f05)\n  dup2\n  mstore\n    /* \"contracts/BUDS/BUDS.sol\":6955:6956  0 */\n  0x00\n    /* \"contracts/BUDS/BUDS.sol\":6926:6958  ERC20InvalidReceiver(address(0)) */\n  0x04\n  dup3\n  add\n    /* \"#utility.yul\":3167:3218   */\n  mstore\n    /* \"#utility.yul\":3140:3158   */\n  0x24\n  add\n    /* \"contracts/BUDS/BUDS.sol\":6926:6958  ERC20InvalidReceiver(address(0)) */\n  tag_13\n    /* \"#utility.yul\":3021:3224   */\n  jump\n    /* \"contracts/BUDS/BUDS.sol\":6877:6970  if (account == address(0)) {... */\ntag_30:\n    /* \"contracts/BUDS/BUDS.sol\":6980:7015  _update(address(0), account, value) */\n  tag_32\n    /* \"contracts/BUDS/BUDS.sol\":6996:6997  0 */\n  0x00\n    /* \"contracts/BUDS/BUDS.sol\":7000:7007  account */\n  dup4\n    /* \"contracts/BUDS/BUDS.sol\":7009:7014  value */\n  dup4\n    /* \"contracts/BUDS/BUDS.sol\":6980:6987  _update */\n  tag_33\n    /* \"contracts/BUDS/BUDS.sol\":6980:7015  _update(address(0), account, value) */\n  jump\t// in\ntag_32:\n    /* \"contracts/BUDS/BUDS.sol\":6810:7023  function _mint(address account, uint256 value) internal {... */\n  pop\n  pop\n  jump\t// out\n    /* \"contracts/BUDS/BUDS.sol\":5665:6800  function _update(address from, address to, uint256 value) internal virtual {... */\ntag_33:\n  sub(shl(0xa0, 0x01), 0x01)\n    /* \"contracts/BUDS/BUDS.sol\":5755:5773  from == address(0) */\n  dup4\n  and\n    /* \"contracts/BUDS/BUDS.sol\":5751:6303  if (from == address(0)) {... */\n  tag_35\n  jumpi\n    /* \"contracts/BUDS/BUDS.sol\":5909:5914  value */\n  dup1\n    /* \"contracts/BUDS/BUDS.sol\":5893:5905  _totalSupply */\n  0x04\n  0x00\n    /* \"contracts/BUDS/BUDS.sol\":5893:5914  _totalSupply += value */\n  dup3\n  dup3\n  sload\n  tag_36\n  swap2\n  swap1\n  tag_37\n  jump\t// in\ntag_36:\n  swap1\n  swap2\n  sstore\n  pop\n    /* \"contracts/BUDS/BUDS.sol\":5751:6303  if (from == address(0)) {... */\n  tag_38\n  swap1\n  pop\n  jump\ntag_35:\n  sub(shl(0xa0, 0x01), 0x01)\n    /* \"contracts/BUDS/BUDS.sol\":5969:5984  _balances[from] */\n  dup4\n  and\n    /* \"contracts/BUDS/BUDS.sol\":5947:5966  uint256 fromBalance */\n  0x00\n    /* \"contracts/BUDS/BUDS.sol\":5969:5984  _balances[from] */\n  swap1\n  dup2\n  mstore\n  0x20\n  dup2\n  swap1\n  mstore\n  0x40\n  swap1\n  keccak256\n  sload\n    /* \"contracts/BUDS/BUDS.sol\":6003:6022  fromBalance < value */\n  dup2\n  dup2\n  lt\n    /* \"contracts/BUDS/BUDS.sol\":5999:6116  if (fromBalance < value) {... */\n  iszero\n  tag_39\n  jumpi\n    /* \"contracts/BUDS/BUDS.sol\":6050:6100  ERC20InsufficientBalance(from, fromBalance, value) */\n  mload(0x40)\n  shl(0xe2, 0x391434e3)\n  dup2\n  mstore\n  sub(shl(0xa0, 0x01), 0x01)\n    /* \"#utility.yul\":5261:5293   */\n  dup6\n  and\n    /* \"contracts/BUDS/BUDS.sol\":6050:6100  ERC20InsufficientBalance(from, fromBalance, value) */\n  0x04\n  dup3\n  add\n    /* \"#utility.yul\":5243:5294   */\n  mstore\n    /* \"#utility.yul\":5310:5328   */\n  0x24\n  dup2\n  add\n    /* \"#utility.yul\":5303:5337   */\n  dup3\n  swap1\n  mstore\n    /* \"#utility.yul\":5353:5371   */\n  0x44\n  dup2\n  add\n    /* \"#utility.yul\":5346:5380   */\n  dup4\n  swap1\n  mstore\n    /* \"#utility.yul\":5216:5234   */\n  0x64\n  add\n    /* \"contracts/BUDS/BUDS.sol\":6050:6100  ERC20InsufficientBalance(from, fromBalance, value) */\n  tag_13\n    /* \"#utility.yul\":5041:5386   */\n  jump\n    /* \"contracts/BUDS/BUDS.sol\":5999:6116  if (fromBalance < value) {... */\ntag_39:\n  sub(shl(0xa0, 0x01), 0x01)\n    /* \"contracts/BUDS/BUDS.sol\":6239:6254  _balances[from] */\n  dup5\n  and\n    /* \"contracts/BUDS/BUDS.sol\":6239:6248  _balances */\n  0x00\n    /* \"contracts/BUDS/BUDS.sol\":6239:6254  _balances[from] */\n  swap1\n  dup2\n  mstore\n  0x20\n  dup2\n  swap1\n  mstore\n  0x40\n  swap1\n  keccak256\n    /* \"contracts/BUDS/BUDS.sol\":6257:6276  fromBalance - value */\n  swap1\n  dup3\n  swap1\n  sub\n    /* \"contracts/BUDS/BUDS.sol\":6239:6276  _balances[from] = fromBalance - value */\n  swap1\n  sstore\n    /* \"contracts/BUDS/BUDS.sol\":5751:6303  if (from == address(0)) {... */\ntag_38:\n  sub(shl(0xa0, 0x01), 0x01)\n    /* \"contracts/BUDS/BUDS.sol\":6319:6335  to == address(0) */\n  dup3\n  and\n    /* \"contracts/BUDS/BUDS.sol\":6315:6750  if (to == address(0)) {... */\n  tag_42\n  jumpi\n    /* \"contracts/BUDS/BUDS.sol\":6485:6497  _totalSupply */\n  0x04\n    /* \"contracts/BUDS/BUDS.sol\":6485:6506  _totalSupply -= value */\n  dup1\n  sload\n  dup3\n  swap1\n  sub\n  swap1\n  sstore\n    /* \"contracts/BUDS/BUDS.sol\":6315:6750  if (to == address(0)) {... */\n  jump(tag_43)\ntag_42:\n  sub(shl(0xa0, 0x01), 0x01)\n    /* \"contracts/BUDS/BUDS.sol\":6701:6714  _balances[to] */\n  dup3\n  and\n    /* \"contracts/BUDS/BUDS.sol\":6701:6710  _balances */\n  0x00\n    /* \"contracts/BUDS/BUDS.sol\":6701:6714  _balances[to] */\n  swap1\n  dup2\n  mstore\n  0x20\n  dup2\n  swap1\n  mstore\n  0x40\n  swap1\n  keccak256\n    /* \"contracts/BUDS/BUDS.sol\":6701:6723  _balances[to] += value */\n  dup1\n  sload\n  dup3\n  add\n  swap1\n  sstore\n    /* \"contracts/BUDS/BUDS.sol\":6315:6750  if (to == address(0)) {... */\ntag_43:\n    /* \"contracts/BUDS/BUDS.sol\":6782:6784  to */\n  dup2\n  sub(shl(0xa0, 0x01), 0x01)\n    /* \"contracts/BUDS/BUDS.sol\":6767:6792  Transfer(from, to, value) */\n  and\n    /* \"contracts/BUDS/BUDS.sol\":6776:6780  from */\n  dup4\n  sub(shl(0xa0, 0x01), 0x01)\n    /* \"contracts/BUDS/BUDS.sol\":6767:6792  Transfer(from, to, value) */\n  and\n  0xddf252ad1be2c89b69c2b068fc378daa952ba7f163c4a11628f55a4df523b3ef\n    /* \"contracts/BUDS/BUDS.sol\":6786:6791  value */\n  dup4\n    /* \"contracts/BUDS/BUDS.sol\":6767:6792  Transfer(from, to, value) */\n  mload(0x40)\n  tag_44\n  swap2\n    /* \"#utility.yul\":5537:5562   */\n  dup2\n  mstore\n    /* \"#utility.yul\":5525:5527   */\n  0x20\n    /* \"#utility.yul\":5510:5528   */\n  add\n  swap1\n    /* \"#utility.yul\":5391:5568   */\n  jump\n    /* \"contracts/BUDS/BUDS.sol\":6767:6792  Transfer(from, to, value) */\ntag_44:\n  mload(0x40)\n  dup1\n  swap2\n  sub\n  swap1\n  log3\n    /* \"contracts/BUDS/BUDS.sol\":5665:6800  function _update(address from, address to, uint256 value) internal virtual {... */\n  pop\n  pop\n  pop\n  jump\t// out\n    /* \"#utility.yul\":14:304   */\ntag_3:\n    /* \"#utility.yul\":84:90   */\n  0x00\n    /* \"#utility.yul\":137:139   */\n  0x20\n    /* \"#utility.yul\":125:134   */\n  dup3\n    /* \"#utility.yul\":116:123   */\n  dup5\n    /* \"#utility.yul\":112:135   */\n  sub\n    /* \"#utility.yul\":108:140   */\n  slt\n    /* \"#utility.yul\":105:157   */\n  iszero\n  tag_56\n  jumpi\n    /* \"#utility.yul\":153:154   */\n  0x00\n    /* \"#utility.yul\":150:151   */\n  dup1\n    /* \"#utility.yul\":143:155   */\n  revert\n    /* \"#utility.yul\":105:157   */\ntag_56:\n    /* \"#utility.yul\":179:195   */\n  dup2\n  mload\n  sub(shl(0xa0, 0x01), 0x01)\n    /* \"#utility.yul\":224:255   */\n  dup2\n  and\n    /* \"#utility.yul\":214:256   */\n  dup2\n  eq\n    /* \"#utility.yul\":204:274   */\n  tag_57\n  jumpi\n    /* \"#utility.yul\":270:271   */\n  0x00\n    /* \"#utility.yul\":267:268   */\n  dup1\n    /* \"#utility.yul\":260:272   */\n  revert\n    /* \"#utility.yul\":204:274   */\ntag_57:\n    /* \"#utility.yul\":293:298   */\n  swap4\n    /* \"#utility.yul\":14:304   */\n  swap3\n  pop\n  pop\n  pop\n  jump\t// out\n    /* \"#utility.yul\":309:436   */\ntag_46:\n    /* \"#utility.yul\":370:380   */\n  0x4e487b71\n    /* \"#utility.yul\":365:368   */\n  0xe0\n    /* \"#utility.yul\":361:381   */\n  shl\n    /* \"#utility.yul\":358:359   */\n  0x00\n    /* \"#utility.yul\":351:382   */\n  mstore\n    /* \"#utility.yul\":401:405   */\n  0x41\n    /* \"#utility.yul\":398:399   */\n  0x04\n    /* \"#utility.yul\":391:406   */\n  mstore\n    /* \"#utility.yul\":425:429   */\n  0x24\n    /* \"#utility.yul\":422:423   */\n  0x00\n    /* \"#utility.yul\":415:430   */\n  revert\n    /* \"#utility.yul\":441:821   */\ntag_47:\n    /* \"#utility.yul\":520:521   */\n  0x01\n    /* \"#utility.yul\":516:528   */\n  dup2\n  dup2\n  shr\n  swap1\n    /* \"#utility.yul\":563:575   */\n  dup3\n  and\n  dup1\n    /* \"#utility.yul\":584:645   */\n  tag_60\n  jumpi\n    /* \"#utility.yul\":638:642   */\n  0x7f\n    /* \"#utility.yul\":630:636   */\n  dup3\n    /* \"#utility.yul\":626:643   */\n  and\n    /* \"#utility.yul\":616:643   */\n  swap2\n  pop\n    /* \"#utility.yul\":584:645   */\ntag_60:\n    /* \"#utility.yul\":691:693   */\n  0x20\n    /* \"#utility.yul\":683:689   */\n  dup3\n    /* \"#utility.yul\":680:694   */\n  lt\n    /* \"#utility.yul\":660:678   */\n  dup2\n    /* \"#utility.yul\":657:695   */\n  sub\n    /* \"#utility.yul\":654:815   */\n  tag_61\n  jumpi\n    /* \"#utility.yul\":737:747   */\n  0x4e487b71\n    /* \"#utility.yul\":732:735   */\n  0xe0\n    /* \"#utility.yul\":728:748   */\n  shl\n    /* \"#utility.yul\":725:726   */\n  0x00\n    /* \"#utility.yul\":718:749   */\n  mstore\n    /* \"#utility.yul\":772:776   */\n  0x22\n    /* \"#utility.yul\":769:770   */\n  0x04\n    /* \"#utility.yul\":762:777   */\n  mstore\n    /* \"#utility.yul\":800:804   */\n  0x24\n    /* \"#utility.yul\":797:798   */\n  0x00\n    /* \"#utility.yul\":790:805   */\n  revert\n    /* \"#utility.yul\":654:815   */\ntag_61:\n  pop\n    /* \"#utility.yul\":441:821   */\n  swap2\n  swap1\n  pop\n  jump\t// out\n    /* \"#utility.yul\":952:1495   */\ntag_49:\n    /* \"#utility.yul\":1054:1056   */\n  0x1f\n    /* \"#utility.yul\":1049:1052   */\n  dup3\n    /* \"#utility.yul\":1046:1057   */\n  gt\n    /* \"#utility.yul\":1043:1489   */\n  iszero\n  tag_64\n  jumpi\n    /* \"#utility.yul\":1090:1091   */\n  0x00\n    /* \"#utility.yul\":1114:1119   */\n  dup2\n    /* \"#utility.yul\":1111:1112   */\n  0x00\n    /* \"#utility.yul\":1104:1120   */\n  mstore\n    /* \"#utility.yul\":1158:1162   */\n  0x20\n    /* \"#utility.yul\":1155:1156   */\n  0x00\n    /* \"#utility.yul\":1145:1163   */\n  keccak256\n    /* \"#utility.yul\":1228:1230   */\n  0x1f\n    /* \"#utility.yul\":1216:1226   */\n  dup6\n    /* \"#utility.yul\":1212:1231   */\n  add\n    /* \"#utility.yul\":1209:1210   */\n  0x05\n    /* \"#utility.yul\":1205:1232   */\n  shr\n    /* \"#utility.yul\":1199:1203   */\n  dup2\n    /* \"#utility.yul\":1195:1233   */\n  add\n    /* \"#utility.yul\":1264:1268   */\n  0x20\n    /* \"#utility.yul\":1252:1262   */\n  dup7\n    /* \"#utility.yul\":1249:1269   */\n  lt\n    /* \"#utility.yul\":1246:1293   */\n  iszero\n  tag_65\n  jumpi\n  pop\n    /* \"#utility.yul\":1287:1291   */\n  dup1\n    /* \"#utility.yul\":1246:1293   */\ntag_65:\n    /* \"#utility.yul\":1342:1344   */\n  0x1f\n    /* \"#utility.yul\":1337:1340   */\n  dup6\n    /* \"#utility.yul\":1333:1345   */\n  add\n    /* \"#utility.yul\":1330:1331   */\n  0x05\n    /* \"#utility.yul\":1326:1346   */\n  shr\n    /* \"#utility.yul\":1320:1324   */\n  dup3\n    /* \"#utility.yul\":1316:1347   */\n  add\n    /* \"#utility.yul\":1306:1347   */\n  swap2\n  pop\n    /* \"#utility.yul\":1397:1479   */\ntag_66:\n    /* \"#utility.yul\":1415:1417   */\n  dup2\n    /* \"#utility.yul\":1408:1413   */\n  dup2\n    /* \"#utility.yul\":1405:1418   */\n  lt\n    /* \"#utility.yul\":1397:1479   */\n  iszero\n  tag_68\n  jumpi\n    /* \"#utility.yul\":1460:1477   */\n  dup3\n  dup2\n  sstore\n    /* \"#utility.yul\":1441:1442   */\n  0x01\n    /* \"#utility.yul\":1430:1443   */\n  add\n    /* \"#utility.yul\":1397:1479   */\n  jump(tag_66)\ntag_68:\n    /* \"#utility.yul\":1401:1404   */\n  pop\n  pop\n  pop\n    /* \"#utility.yul\":1043:1489   */\ntag_64:\n    /* \"#utility.yul\":952:1495   */\n  pop\n  pop\n  pop\n  jump\t// out\n    /* \"#utility.yul\":1671:3016   */\ntag_9:\n    /* \"#utility.yul\":1791:1801   */\n  dup2\n  mload\n  sub(shl(0x40, 0x01), 0x01)\n    /* \"#utility.yul\":1813:1843   */\n  dup2\n  gt\n    /* \"#utility.yul\":1810:1866   */\n  iszero\n  tag_72\n  jumpi\n    /* \"#utility.yul\":1846:1864   */\n  tag_72\n  tag_46\n  jump\t// in\ntag_72:\n    /* \"#utility.yul\":1875:1972   */\n  tag_73\n    /* \"#utility.yul\":1965:1971   */\n  dup2\n    /* \"#utility.yul\":1925:1963   */\n  tag_74\n    /* \"#utility.yul\":1957:1961   */\n  dup5\n    /* \"#utility.yul\":1951:1962   */\n  sload\n    /* \"#utility.yul\":1925:1963   */\n  tag_47\n  jump\t// in\ntag_74:\n    /* \"#utility.yul\":1919:1923   */\n  dup5\n    /* \"#utility.yul\":1875:1972   */\n  tag_49\n  jump\t// in\ntag_73:\n    /* \"#utility.yul\":2027:2031   */\n  0x20\n  dup1\n    /* \"#utility.yul\":2084:2086   */\n  0x1f\n    /* \"#utility.yul\":2073:2087   */\n  dup4\n  gt\n    /* \"#utility.yul\":2101:2102   */\n  0x01\n    /* \"#utility.yul\":2096:2759   */\n  dup2\n  eq\n  tag_76\n  jumpi\n    /* \"#utility.yul\":2803:2804   */\n  0x00\n    /* \"#utility.yul\":2820:2826   */\n  dup5\n    /* \"#utility.yul\":2817:2906   */\n  iszero\n  tag_77\n  jumpi\n  pop\n    /* \"#utility.yul\":2872:2891   */\n  dup6\n  dup4\n  add\n    /* \"#utility.yul\":2866:2892   */\n  mload\n    /* \"#utility.yul\":2817:2906   */\ntag_77:\n  not(0x00)\n    /* \"#utility.yul\":1628:1629   */\n  0x03\n    /* \"#utility.yul\":1624:1635   */\n  dup7\n  swap1\n  shl\n    /* \"#utility.yul\":1620:1644   */\n  shr\n    /* \"#utility.yul\":1616:1645   */\n  not\n    /* \"#utility.yul\":1606:1646   */\n  and\n    /* \"#utility.yul\":1652:1653   */\n  0x01\n    /* \"#utility.yul\":1648:1659   */\n  dup6\n  swap1\n  shl\n    /* \"#utility.yul\":1603:1660   */\n  or\n    /* \"#utility.yul\":2919:3000   */\n  dup6\n  sstore\n    /* \"#utility.yul\":2066:3010   */\n  jump(tag_68)\n    /* \"#utility.yul\":2096:2759   */\ntag_76:\n    /* \"#utility.yul\":899:900   */\n  0x00\n    /* \"#utility.yul\":892:906   */\n  dup6\n  dup2\n  mstore\n    /* \"#utility.yul\":936:940   */\n  0x20\n    /* \"#utility.yul\":923:941   */\n  dup2\n  keccak256\n  not(0x1f)\n    /* \"#utility.yul\":2132:2152   */\n  dup7\n  and\n  swap2\n    /* \"#utility.yul\":2250:2486   */\ntag_80:\n    /* \"#utility.yul\":2264:2271   */\n  dup3\n    /* \"#utility.yul\":2261:2262   */\n  dup2\n    /* \"#utility.yul\":2258:2272   */\n  lt\n    /* \"#utility.yul\":2250:2486   */\n  iszero\n  tag_82\n  jumpi\n    /* \"#utility.yul\":2353:2372   */\n  dup9\n  dup7\n  add\n    /* \"#utility.yul\":2347:2373   */\n  mload\n    /* \"#utility.yul\":2332:2374   */\n  dup3\n  sstore\n    /* \"#utility.yul\":2445:2472   */\n  swap5\n  dup5\n  add\n  swap5\n    /* \"#utility.yul\":2413:2414   */\n  0x01\n    /* \"#utility.yul\":2401:2415   */\n  swap1\n  swap2\n  add\n  swap1\n    /* \"#utility.yul\":2280:2299   */\n  dup5\n  add\n    /* \"#utility.yul\":2250:2486   */\n  jump(tag_80)\ntag_82:\n    /* \"#utility.yul\":2254:2257   */\n  pop\n    /* \"#utility.yul\":2514:2520   */\n  dup6\n    /* \"#utility.yul\":2505:2512   */\n  dup3\n    /* \"#utility.yul\":2502:2521   */\n  lt\n    /* \"#utility.yul\":2499:2700   */\n  iszero\n  tag_83\n  jumpi\n    /* \"#utility.yul\":2575:2594   */\n  dup8\n  dup6\n  add\n    /* \"#utility.yul\":2569:2595   */\n  mload\n  not(0x00)\n    /* \"#utility.yul\":2658:2659   */\n  0x03\n    /* \"#utility.yul\":2654:2668   */\n  dup9\n  swap1\n  shl\n    /* \"#utility.yul\":2670:2673   */\n  0xf8\n    /* \"#utility.yul\":2650:2674   */\n  and\n    /* \"#utility.yul\":2646:2683   */\n  shr\n    /* \"#utility.yul\":2642:2684   */\n  not\n    /* \"#utility.yul\":2627:2685   */\n  and\n    /* \"#utility.yul\":2612:2686   */\n  dup2\n  sstore\n    /* \"#utility.yul\":2499:2700   */\ntag_83:\n  pop\n  pop\n  pop\n  pop\n  pop\n    /* \"#utility.yul\":2746:2747   */\n  0x01\n    /* \"#utility.yul\":2730:2744   */\n  swap1\n  dup2\n  shl\n    /* \"#utility.yul\":2726:2748   */\n  add\n    /* \"#utility.yul\":2713:2749   */\n  swap1\n  sstore\n  pop\n    /* \"#utility.yul\":1671:3016   */\n  jump\t// out\n    /* \"#utility.yul\":3229:3356   */\ntag_51:\n    /* \"#utility.yul\":3290:3300   */\n  0x4e487b71\n    /* \"#utility.yul\":3285:3288   */\n  0xe0\n    /* \"#utility.yul\":3281:3301   */\n  shl\n    /* \"#utility.yul\":3278:3279   */\n  0x00\n    /* \"#utility.yul\":3271:3302   */\n  mstore\n    /* \"#utility.yul\":3321:3325   */\n  0x11\n    /* \"#utility.yul\":3318:3319   */\n  0x04\n    /* \"#utility.yul\":3311:3326   */\n  mstore\n    /* \"#utility.yul\":3345:3349   */\n  0x24\n    /* \"#utility.yul\":3342:3343   */\n  0x00\n    /* \"#utility.yul\":3335:3350   */\n  revert\n    /* \"#utility.yul\":3361:3777   */\ntag_52:\n    /* \"#utility.yul\":3450:3451   */\n  0x01\n    /* \"#utility.yul\":3487:3492   */\n  dup2\n    /* \"#utility.yul\":3450:3451   */\n  dup2\n    /* \"#utility.yul\":3501:3771   */\ntag_87:\n    /* \"#utility.yul\":3522:3529   */\n  dup1\n    /* \"#utility.yul\":3512:3520   */\n  dup6\n    /* \"#utility.yul\":3509:3530   */\n  gt\n    /* \"#utility.yul\":3501:3771   */\n  iszero\n  tag_89\n  jumpi\n    /* \"#utility.yul\":3581:3585   */\n  dup2\n    /* \"#utility.yul\":3577:3578   */\n  0x00\n    /* \"#utility.yul\":3573:3579   */\n  not\n    /* \"#utility.yul\":3569:3586   */\n  div\n    /* \"#utility.yul\":3563:3567   */\n  dup3\n    /* \"#utility.yul\":3560:3587   */\n  gt\n    /* \"#utility.yul\":3557:3610   */\n  iszero\n  tag_91\n  jumpi\n    /* \"#utility.yul\":3590:3608   */\n  tag_91\n  tag_51\n  jump\t// in\ntag_91:\n    /* \"#utility.yul\":3640:3647   */\n  dup1\n    /* \"#utility.yul\":3630:3638   */\n  dup6\n    /* \"#utility.yul\":3626:3648   */\n  and\n    /* \"#utility.yul\":3623:3678   */\n  iszero\n  tag_92\n  jumpi\n    /* \"#utility.yul\":3660:3676   */\n  swap2\n  dup2\n  mul\n  swap2\n    /* \"#utility.yul\":3623:3678   */\ntag_92:\n    /* \"#utility.yul\":3739:3761   */\n  swap4\n  dup5\n  shr\n  swap4\n    /* \"#utility.yul\":3699:3714   */\n  swap1\n  dup1\n  mul\n  swap1\n    /* \"#utility.yul\":3501:3771   */\n  jump(tag_87)\ntag_89:\n    /* \"#utility.yul\":3505:3508   */\n  pop\n    /* \"#utility.yul\":3361:3777   */\n  swap3\n  pop\n  swap3\n  swap1\n  pop\n  jump\t// out\n    /* \"#utility.yul\":3782:4588   */\ntag_53:\n    /* \"#utility.yul\":3831:3836   */\n  0x00\n    /* \"#utility.yul\":3861:3869   */\n  dup3\n    /* \"#utility.yul\":3851:3931   */\n  tag_94\n  jumpi\n  pop\n    /* \"#utility.yul\":3902:3903   */\n  0x01\n    /* \"#utility.yul\":3916:3921   */\n  jump(tag_93)\n    /* \"#utility.yul\":3851:3931   */\ntag_94:\n    /* \"#utility.yul\":3950:3954   */\n  dup2\n    /* \"#utility.yul\":3940:4016   */\n  tag_95\n  jumpi\n  pop\n    /* \"#utility.yul\":3987:3988   */\n  0x00\n    /* \"#utility.yul\":4001:4006   */\n  jump(tag_93)\n    /* \"#utility.yul\":3940:4016   */\ntag_95:\n    /* \"#utility.yul\":4032:4036   */\n  dup2\n    /* \"#utility.yul\":4050:4051   */\n  0x01\n    /* \"#utility.yul\":4045:4104   */\n  dup2\n  eq\n  tag_97\n  jumpi\n    /* \"#utility.yul\":4118:4119   */\n  0x02\n    /* \"#utility.yul\":4113:4243   */\n  dup2\n  eq\n  tag_98\n  jumpi\n    /* \"#utility.yul\":4025:4243   */\n  jump(tag_96)\n    /* \"#utility.yul\":4045:4104   */\ntag_97:\n    /* \"#utility.yul\":4075:4076   */\n  0x01\n    /* \"#utility.yul\":4066:4076   */\n  swap2\n  pop\n    /* \"#utility.yul\":4089:4094   */\n  pop\n  jump(tag_93)\n    /* \"#utility.yul\":4113:4243   */\ntag_98:\n    /* \"#utility.yul\":4150:4153   */\n  0xff\n    /* \"#utility.yul\":4140:4148   */\n  dup5\n    /* \"#utility.yul\":4137:4154   */\n  gt\n    /* \"#utility.yul\":4134:4177   */\n  iszero\n  tag_100\n  jumpi\n    /* \"#utility.yul\":4157:4175   */\n  tag_100\n  tag_51\n  jump\t// in\ntag_100:\n  pop\n  pop\n    /* \"#utility.yul\":4213:4214   */\n  0x01\n    /* \"#utility.yul\":4199:4215   */\n  dup3\n  shl\n    /* \"#utility.yul\":4228:4233   */\n  jump(tag_93)\n    /* \"#utility.yul\":4025:4243   */\ntag_96:\n  pop\n    /* \"#utility.yul\":4327:4329   */\n  0x20\n    /* \"#utility.yul\":4317:4325   */\n  dup4\n    /* \"#utility.yul\":4314:4330   */\n  lt\n    /* \"#utility.yul\":4308:4311   */\n  0x0133\n    /* \"#utility.yul\":4302:4306   */\n  dup4\n    /* \"#utility.yul\":4299:4312   */\n  lt\n    /* \"#utility.yul\":4295:4331   */\n  and\n    /* \"#utility.yul\":4289:4291   */\n  0x4e\n    /* \"#utility.yul\":4279:4287   */\n  dup5\n    /* \"#utility.yul\":4276:4292   */\n  lt\n    /* \"#utility.yul\":4271:4273   */\n  0x0b\n    /* \"#utility.yul\":4265:4269   */\n  dup5\n    /* \"#utility.yul\":4262:4274   */\n  lt\n    /* \"#utility.yul\":4258:4293   */\n  and\n    /* \"#utility.yul\":4255:4332   */\n  or\n    /* \"#utility.yul\":4252:4411   */\n  iszero\n  tag_101\n  jumpi\n  pop\n    /* \"#utility.yul\":4364:4383   */\n  dup2\n  dup2\n  exp\n    /* \"#utility.yul\":4396:4401   */\n  jump(tag_93)\n    /* \"#utility.yul\":4252:4411   */\ntag_101:\n    /* \"#utility.yul\":4443:4477   */\n  tag_102\n    /* \"#utility.yul\":4468:4476   */\n  dup4\n    /* \"#utility.yul\":4462:4466   */\n  dup4\n    /* \"#utility.yul\":4443:4477   */\n  tag_52\n  jump\t// in\ntag_102:\n    /* \"#utility.yul\":4513:4519   */\n  dup1\n    /* \"#utility.yul\":4509:4510   */\n  0x00\n    /* \"#utility.yul\":4505:4511   */\n  not\n    /* \"#utility.yul\":4501:4520   */\n  div\n    /* \"#utility.yul\":4492:4499   */\n  dup3\n    /* \"#utility.yul\":4489:4521   */\n  gt\n    /* \"#utility.yul\":4486:4544   */\n  iszero\n  tag_104\n  jumpi\n    /* \"#utility.yul\":4524:4542   */\n  tag_104\n  tag_51\n  jump\t// in\ntag_104:\n    /* \"#utility.yul\":4562:4582   */\n  mul\n  swap1\n  pop\n    /* \"#utility.yul\":3782:4588   */\ntag_93:\n  swap3\n  swap2\n  pop\n  pop\n  jump\t// out\n    /* \"#utility.yul\":4593:4733   */\ntag_22:\n    /* \"#utility.yul\":4651:4656   */\n  0x00\n    /* \"#utility.yul\":4680:4727   */\n  tag_57\n    /* \"#utility.yul\":4721:4725   */\n  0xff\n    /* \"#utility.yul\":4711:4719   */\n  dup5\n    /* \"#utility.yul\":4707:4726   */\n  and\n    /* \"#utility.yul\":4701:4705   */\n  dup4\n    /* \"#utility.yul\":4680:4727   */\n  tag_53\n  jump\t// in\n    /* \"#utility.yul\":4738:4906   */\ntag_24:\n    /* \"#utility.yul\":4811:4820   */\n  dup1\n  dup3\n  mul\n    /* \"#utility.yul\":4842:4851   */\n  dup2\n  iszero\n    /* \"#utility.yul\":4859:4874   */\n  dup3\n  dup3\n  div\n    /* \"#utility.yul\":4853:4875   */\n  dup5\n  eq\n    /* \"#utility.yul\":4839:4876   */\n  or\n    /* \"#utility.yul\":4829:4900   */\n  tag_93\n  jumpi\n    /* \"#utility.yul\":4880:4898   */\n  tag_93\n  tag_51\n  jump\t// in\n    /* \"#utility.yul\":4911:5036   */\ntag_37:\n    /* \"#utility.yul\":4976:4985   */\n  dup1\n  dup3\n  add\n    /* \"#utility.yul\":4997:5007   */\n  dup1\n  dup3\n  gt\n    /* \"#utility.yul\":4994:5030   */\n  iszero\n  tag_93\n  jumpi\n    /* \"#utility.yul\":5010:5028   */\n  tag_93\n  tag_51\n  jump\t// in\n    /* \"#utility.yul\":5391:5568   */\ntag_54:\n    /* \"contracts/BUDS/BUDS.sol\":8833:9520  contract DBI is ERC20, Ownable {... */\n  dataSize(sub_0)\n  dup1\n  dataOffset(sub_0)\n  0x00\n  codecopy\n  0x00\n  return\nstop\n\nsub_0: assembly {\n        /* \"contracts/BUDS/BUDS.sol\":8833:9520  contract DBI is ERC20, Ownable {... */\n      mstore(0x40, 0x80)\n      callvalue\n      dup1\n      iszero\n      tag_1\n      jumpi\n      0x00\n      dup1\n      revert\n    tag_1:\n      pop\n      jumpi(tag_2, lt(calldatasize, 0x04))\n      shr(0xe0, calldataload(0x00))\n      dup1\n      0x715018a6\n      gt\n      tag_20\n      jumpi\n      dup1\n      0xa9059cbb\n      gt\n      tag_21\n      jumpi\n      dup1\n      0xa9059cbb\n      eq\n      tag_15\n      jumpi\n      dup1\n      0xdd62ed3e\n      eq\n      tag_16\n      jumpi\n      dup1\n      0xe083e922\n      eq\n      tag_17\n      jumpi\n      dup1\n      0xf2fde38b\n      eq\n      tag_18\n      jumpi\n      dup1\n      0xf5648a4f\n      eq\n      tag_19\n      jumpi\n      0x00\n      dup1\n      revert\n    tag_21:\n      dup1\n      0x715018a6\n      eq\n      tag_11\n      jumpi\n      dup1\n      0x8da5cb5b\n      eq\n      tag_12\n      jumpi\n      dup1\n      0x95d89b41\n      eq\n      tag_13\n      jumpi\n      dup1\n      0x9b9f7c84\n      eq\n      tag_14\n      jumpi\n      0x00\n      dup1\n      revert\n    tag_20:\n      dup1\n      0x23b872dd\n      gt\n      tag_22\n      jumpi\n      dup1\n      0x23b872dd\n      eq\n      tag_7\n      jumpi\n      dup1\n      0x313ce567\n      eq\n      tag_8\n      jumpi\n      dup1\n      0x67243482\n      eq\n      tag_9\n      jumpi\n      dup1\n      0x70a08231\n      eq\n      tag_10\n      jumpi\n      0x00\n      dup1\n      revert\n    tag_22:\n      dup1\n      0x0650655c\n      eq\n      tag_3\n      jumpi\n      dup1\n      0x06fdde03\n      eq\n      tag_4\n      jumpi\n      dup1\n      0x095ea7b3\n      eq\n      tag_5\n      jumpi\n      dup1\n      0x18160ddd\n      eq\n      tag_6\n      jumpi\n    tag_2:\n      0x00\n      dup1\n      revert\n        /* \"contracts/BUDS/BUDS.sol\":3322:3373  mapping (address => bool) public airdropParticipant */\n    tag_3:\n      tag_23\n      tag_24\n      calldatasize\n      0x04\n      tag_25\n      jump\t// in\n    tag_24:\n      mstore(0x20, 0x02)\n      0x00\n      swap1\n      dup2\n      mstore\n      0x40\n      swap1\n      keccak256\n      sload\n      0xff\n      and\n      dup2\n      jump\n    tag_23:\n      mload(0x40)\n        /* \"#utility.yul\":548:562   */\n      swap1\n      iszero\n        /* \"#utility.yul\":541:563   */\n      iszero\n        /* \"#utility.yul\":523:564   */\n      dup2\n      mstore\n        /* \"#utility.yul\":511:513   */\n      0x20\n        /* \"#utility.yul\":496:514   */\n      add\n        /* \"contracts/BUDS/BUDS.sol\":3322:3373  mapping (address => bool) public airdropParticipant */\n    tag_27:\n      mload(0x40)\n      dup1\n      swap2\n      sub\n      swap1\n      return\n        /* \"contracts/BUDS/BUDS.sol\":3726:3817  function name() public view virtual returns (string memory) {... */\n    tag_4:\n      tag_29\n      tag_30\n      jump\t// in\n    tag_29:\n      mload(0x40)\n      tag_27\n      swap2\n      swap1\n      tag_32\n      jump\t// in\n        /* \"contracts/BUDS/BUDS.sol\":4593:4783  function approve(address spender, uint256 value) public virtual returns (bool) {... */\n    tag_5:\n      tag_23\n      tag_34\n      calldatasize\n      0x04\n      tag_35\n      jump\t// in\n    tag_34:\n      tag_36\n      jump\t// in\n        /* \"contracts/BUDS/BUDS.sol\":4020:4119  function totalSupply() public view virtual returns (uint256) {... */\n    tag_6:\n        /* \"contracts/BUDS/BUDS.sol\":4099:4111  _totalSupply */\n      sload(0x04)\n        /* \"contracts/BUDS/BUDS.sol\":4020:4119  function totalSupply() public view virtual returns (uint256) {... */\n    tag_38:\n      mload(0x40)\n        /* \"#utility.yul\":1533:1558   */\n      swap1\n      dup2\n      mstore\n        /* \"#utility.yul\":1521:1523   */\n      0x20\n        /* \"#utility.yul\":1506:1524   */\n      add\n        /* \"contracts/BUDS/BUDS.sol\":4020:4119  function totalSupply() public view virtual returns (uint256) {... */\n      tag_27\n        /* \"#utility.yul\":1387:1564   */\n      jump\n        /* \"contracts/BUDS/BUDS.sol\":4791:5040  function transferFrom(address from, address to, uint256 value) public virtual returns (bool) {... */\n    tag_7:\n      tag_23\n      tag_43\n      calldatasize\n      0x04\n      tag_44\n      jump\t// in\n    tag_43:\n      tag_45\n      jump\t// in\n        /* \"contracts/BUDS/BUDS.sol\":3928:4012  function decimals() public view virtual returns (uint8) {... */\n    tag_8:\n      mload(0x40)\n        /* \"contracts/BUDS/BUDS.sol\":4002:4004  18 */\n      0x12\n        /* \"#utility.yul\":2044:2080   */\n      dup2\n      mstore\n        /* \"#utility.yul\":2032:2034   */\n      0x20\n        /* \"#utility.yul\":2017:2035   */\n      add\n        /* \"contracts/BUDS/BUDS.sol\":3928:4012  function decimals() public view virtual returns (uint8) {... */\n      tag_27\n        /* \"#utility.yul\":1902:2086   */\n      jump\n        /* \"contracts/BUDS/BUDS.sol\":8335:8818  function airdrop(address[] memory recipients, uint256[] memory amounts) public {... */\n    tag_9:\n      tag_51\n      tag_52\n      calldatasize\n      0x04\n      tag_53\n      jump\t// in\n    tag_52:\n      tag_54\n      jump\t// in\n    tag_51:\n      stop\n        /* \"contracts/BUDS/BUDS.sol\":4127:4245  function balanceOf(address account) public view virtual returns (uint256) {... */\n    tag_10:\n      tag_38\n      tag_56\n      calldatasize\n      0x04\n      tag_25\n      jump\t// in\n    tag_56:\n      sub(shl(0xa0, 0x01), 0x01)\n        /* \"contracts/BUDS/BUDS.sol\":4219:4237  _balances[account] */\n      and\n        /* \"contracts/BUDS/BUDS.sol\":4192:4199  uint256 */\n      0x00\n        /* \"contracts/BUDS/BUDS.sol\":4219:4237  _balances[account] */\n      swap1\n      dup2\n      mstore\n      0x20\n      dup2\n      swap1\n      mstore\n      0x40\n      swap1\n      keccak256\n      sload\n      swap1\n        /* \"contracts/BUDS/BUDS.sol\":4127:4245  function balanceOf(address account) public view virtual returns (uint256) {... */\n      jump\n        /* \"contracts/BUDS/BUDS.sol\":1648:1751  function renounceOwnership() public virtual onlyOwner {... */\n    tag_11:\n      tag_51\n      tag_60\n      jump\t// in\n        /* \"contracts/BUDS/BUDS.sol\":1379:1466  function owner() public view virtual returns (address) {... */\n    tag_12:\n        /* \"contracts/BUDS/BUDS.sol\":1452:1458  _owner */\n      sload(0x08)\n        /* \"contracts/BUDS/BUDS.sol\":1379:1466  function owner() public view virtual returns (address) {... */\n      mload(0x40)\n      sub(shl(0xa0, 0x01), 0x01)\n        /* \"contracts/BUDS/BUDS.sol\":1452:1458  _owner */\n      swap1\n      swap2\n      and\n        /* \"#utility.yul\":4661:4712   */\n      dup2\n      mstore\n        /* \"#utility.yul\":4649:4651   */\n      0x20\n        /* \"#utility.yul\":4634:4652   */\n      add\n        /* \"contracts/BUDS/BUDS.sol\":1379:1466  function owner() public view virtual returns (address) {... */\n      tag_27\n        /* \"#utility.yul\":4515:4718   */\n      jump\n        /* \"contracts/BUDS/BUDS.sol\":3825:3920  function symbol() public view virtual returns (string memory) {... */\n    tag_13:\n      tag_29\n      tag_66\n      jump\t// in\n        /* \"contracts/BUDS/BUDS.sol\":3380:3429  mapping (address => uint256) public aidroppedTime */\n    tag_14:\n      tag_38\n      tag_69\n      calldatasize\n      0x04\n      tag_25\n      jump\t// in\n    tag_69:\n      mstore(0x20, 0x03)\n      0x00\n      swap1\n      dup2\n      mstore\n      0x40\n      swap1\n      keccak256\n      sload\n      dup2\n      jump\n        /* \"contracts/BUDS/BUDS.sol\":4253:4435  function transfer(address to, uint256 value) public virtual returns (bool) {... */\n    tag_15:\n      tag_23\n      tag_73\n      calldatasize\n      0x04\n      tag_35\n      jump\t// in\n    tag_73:\n      tag_74\n      jump\t// in\n        /* \"contracts/BUDS/BUDS.sol\":4443:4585  function allowance(address owner, address spender) public view virtual returns (uint256) {... */\n    tag_16:\n      tag_38\n      tag_77\n      calldatasize\n      0x04\n      tag_78\n      jump\t// in\n    tag_77:\n      sub(shl(0xa0, 0x01), 0x01)\n        /* \"contracts/BUDS/BUDS.sol\":4550:4568  _allowances[owner] */\n      swap2\n      dup3\n      and\n        /* \"contracts/BUDS/BUDS.sol\":4523:4530  uint256 */\n      0x00\n        /* \"contracts/BUDS/BUDS.sol\":4550:4568  _allowances[owner] */\n      swap1\n      dup2\n      mstore\n        /* \"contracts/BUDS/BUDS.sol\":4550:4561  _allowances */\n      0x01\n        /* \"contracts/BUDS/BUDS.sol\":4550:4568  _allowances[owner] */\n      0x20\n      swap1\n      dup2\n      mstore\n      0x40\n      dup1\n      dup4\n      keccak256\n        /* \"contracts/BUDS/BUDS.sol\":4550:4577  _allowances[owner][spender] */\n      swap4\n      swap1\n      swap5\n      and\n      dup3\n      mstore\n      swap2\n      swap1\n      swap2\n      mstore\n      keccak256\n      sload\n      swap1\n        /* \"contracts/BUDS/BUDS.sol\":4443:4585  function allowance(address owner, address spender) public view virtual returns (uint256) {... */\n      jump\n        /* \"contracts/BUDS/BUDS.sol\":9258:9504  function removeStuckToken(address _address) external onlyOwner {... */\n    tag_17:\n      tag_51\n      tag_82\n      calldatasize\n      0x04\n      tag_25\n      jump\t// in\n    tag_82:\n      tag_83\n      jump\t// in\n        /* \"contracts/BUDS/BUDS.sol\":1759:1979  function transferOwnership(address newOwner) public virtual onlyOwner {... */\n    tag_18:\n      tag_51\n      tag_85\n      calldatasize\n      0x04\n      tag_25\n      jump\t// in\n    tag_85:\n      tag_86\n      jump\t// in\n        /* \"contracts/BUDS/BUDS.sol\":9056:9250  function withdrawStuckETH() external onlyOwner{... */\n    tag_19:\n      tag_51\n      tag_88\n      jump\t// in\n        /* \"contracts/BUDS/BUDS.sol\":3726:3817  function name() public view virtual returns (string memory) {... */\n    tag_30:\n        /* \"contracts/BUDS/BUDS.sol\":3771:3784  string memory */\n      0x60\n        /* \"contracts/BUDS/BUDS.sol\":3804:3809  _name */\n      0x05\n        /* \"contracts/BUDS/BUDS.sol\":3797:3809  return _name */\n      dup1\n      sload\n      tag_90\n      swap1\n      tag_91\n      jump\t// in\n    tag_90:\n      dup1\n      0x1f\n      add\n      0x20\n      dup1\n      swap2\n      div\n      mul\n      0x20\n      add\n      mload(0x40)\n      swap1\n      dup2\n      add\n      0x40\n      mstore\n      dup1\n      swap3\n      swap2\n      swap1\n      dup2\n      dup2\n      mstore\n      0x20\n      add\n      dup3\n      dup1\n      sload\n      tag_92\n      swap1\n      tag_91\n      jump\t// in\n    tag_92:\n      dup1\n      iszero\n      tag_93\n      jumpi\n      dup1\n      0x1f\n      lt\n      tag_94\n      jumpi\n      0x0100\n      dup1\n      dup4\n      sload\n      div\n      mul\n      dup4\n      mstore\n      swap2\n      0x20\n      add\n      swap2\n      jump(tag_93)\n    tag_94:\n      dup3\n      add\n      swap2\n      swap1\n      0x00\n      mstore\n      keccak256(0x00, 0x20)\n      swap1\n    tag_95:\n      dup2\n      sload\n      dup2\n      mstore\n      swap1\n      0x01\n      add\n      swap1\n      0x20\n      add\n      dup1\n      dup4\n      gt\n      tag_95\n      jumpi\n      dup3\n      swap1\n      sub\n      0x1f\n      and\n      dup3\n      add\n      swap2\n    tag_93:\n      pop\n      pop\n      pop\n      pop\n      pop\n      swap1\n      pop\n        /* \"contracts/BUDS/BUDS.sol\":3726:3817  function name() public view virtual returns (string memory) {... */\n      swap1\n      jump\t// out\n        /* \"contracts/BUDS/BUDS.sol\":4593:4783  function approve(address spender, uint256 value) public virtual returns (bool) {... */\n    tag_36:\n        /* \"contracts/BUDS/BUDS.sol\":4666:4670  bool */\n      0x00\n        /* \"contracts/BUDS/BUDS.sol\":593:603  msg.sender */\n      caller\n        /* \"contracts/BUDS/BUDS.sol\":4722:4753  _approve(owner, spender, value) */\n      tag_99\n        /* \"contracts/BUDS/BUDS.sol\":593:603  msg.sender */\n      dup2\n        /* \"contracts/BUDS/BUDS.sol\":4738:4745  spender */\n      dup6\n        /* \"contracts/BUDS/BUDS.sol\":4747:4752  value */\n      dup6\n        /* \"contracts/BUDS/BUDS.sol\":4722:4730  _approve */\n      tag_100\n        /* \"contracts/BUDS/BUDS.sol\":4722:4753  _approve(owner, spender, value) */\n      jump\t// in\n    tag_99:\n        /* \"contracts/BUDS/BUDS.sol\":4771:4775  true */\n      0x01\n        /* \"contracts/BUDS/BUDS.sol\":4764:4775  return true */\n      swap2\n      pop\n      pop\n        /* \"contracts/BUDS/BUDS.sol\":4593:4783  function approve(address spender, uint256 value) public virtual returns (bool) {... */\n    tag_96:\n      swap3\n      swap2\n      pop\n      pop\n      jump\t// out\n        /* \"contracts/BUDS/BUDS.sol\":4791:5040  function transferFrom(address from, address to, uint256 value) public virtual returns (bool) {... */\n    tag_45:\n        /* \"contracts/BUDS/BUDS.sol\":4878:4882  bool */\n      0x00\n        /* \"contracts/BUDS/BUDS.sol\":593:603  msg.sender */\n      caller\n        /* \"contracts/BUDS/BUDS.sol\":4936:4973  _spendAllowance(from, spender, value) */\n      tag_104\n        /* \"contracts/BUDS/BUDS.sol\":4952:4956  from */\n      dup6\n        /* \"contracts/BUDS/BUDS.sol\":593:603  msg.sender */\n      dup3\n        /* \"contracts/BUDS/BUDS.sol\":4967:4972  value */\n      dup6\n        /* \"contracts/BUDS/BUDS.sol\":4936:4951  _spendAllowance */\n      tag_105\n        /* \"contracts/BUDS/BUDS.sol\":4936:4973  _spendAllowance(from, spender, value) */\n      jump\t// in\n    tag_104:\n        /* \"contracts/BUDS/BUDS.sol\":4984:5010  _transfer(from, to, value) */\n      tag_106\n        /* \"contracts/BUDS/BUDS.sol\":4994:4998  from */\n      dup6\n        /* \"contracts/BUDS/BUDS.sol\":5000:5002  to */\n      dup6\n        /* \"contracts/BUDS/BUDS.sol\":5004:5009  value */\n      dup6\n        /* \"contracts/BUDS/BUDS.sol\":4984:4993  _transfer */\n      tag_107\n        /* \"contracts/BUDS/BUDS.sol\":4984:5010  _transfer(from, to, value) */\n      jump\t// in\n    tag_106:\n      pop\n        /* \"contracts/BUDS/BUDS.sol\":5028:5032  true */\n      0x01\n      swap5\n        /* \"contracts/BUDS/BUDS.sol\":4791:5040  function transferFrom(address from, address to, uint256 value) public virtual returns (bool) {... */\n      swap4\n      pop\n      pop\n      pop\n      pop\n      jump\t// out\n        /* \"contracts/BUDS/BUDS.sol\":8335:8818  function airdrop(address[] memory recipients, uint256[] memory amounts) public {... */\n    tag_54:\n        /* \"contracts/BUDS/BUDS.sol\":8454:8461  amounts */\n      dup1\n        /* \"contracts/BUDS/BUDS.sol\":8454:8468  amounts.length */\n      mload\n        /* \"contracts/BUDS/BUDS.sol\":8433:8443  recipients */\n      dup3\n        /* \"contracts/BUDS/BUDS.sol\":8433:8450  recipients.length */\n      mload\n        /* \"contracts/BUDS/BUDS.sol\":8433:8468  recipients.length == amounts.length */\n      eq\n        /* \"contracts/BUDS/BUDS.sol\":8425:8495  require(recipients.length == amounts.length, \"Arrays length mismatch\") */\n      tag_110\n      jumpi\n      mload(0x40)\n      shl(0xe5, 0x461bcd)\n      dup2\n      mstore\n        /* \"#utility.yul\":5575:5577   */\n      0x20\n        /* \"contracts/BUDS/BUDS.sol\":8425:8495  require(recipients.length == amounts.length, \"Arrays length mismatch\") */\n      0x04\n      dup3\n      add\n        /* \"#utility.yul\":5557:5578   */\n      mstore\n        /* \"#utility.yul\":5614:5616   */\n      0x16\n        /* \"#utility.yul\":5594:5612   */\n      0x24\n      dup3\n      add\n        /* \"#utility.yul\":5587:5617   */\n      mstore\n      shl(0x53, 0x082e4e4c2f2e640d8cadccee8d040dad2e6dac2e8c6d)\n        /* \"#utility.yul\":5633:5651   */\n      0x44\n      dup3\n      add\n        /* \"#utility.yul\":5626:5678   */\n      mstore\n        /* \"#utility.yul\":5695:5713   */\n      0x64\n      add\n        /* \"contracts/BUDS/BUDS.sol\":8425:8495  require(recipients.length == amounts.length, \"Arrays length mismatch\") */\n    tag_111:\n      mload(0x40)\n      dup1\n      swap2\n      sub\n      swap1\n      revert\n    tag_110:\n        /* \"contracts/BUDS/BUDS.sol\":8528:8534  _owner */\n      and(sub(shl(0xa0, 0x01), 0x01), sload(0x07))\n        /* \"contracts/BUDS/BUDS.sol\":8514:8524  msg.sender */\n      caller\n        /* \"contracts/BUDS/BUDS.sol\":8514:8534  msg.sender == _owner */\n      eq\n        /* \"contracts/BUDS/BUDS.sol\":8506:8551  require(msg.sender == _owner, \"Not an Owner\") */\n      tag_113\n      jumpi\n      mload(0x40)\n      shl(0xe5, 0x461bcd)\n      dup2\n      mstore\n        /* \"#utility.yul\":5926:5928   */\n      0x20\n        /* \"contracts/BUDS/BUDS.sol\":8506:8551  require(msg.sender == _owner, \"Not an Owner\") */\n      0x04\n      dup3\n      add\n        /* \"#utility.yul\":5908:5929   */\n      mstore\n        /* \"#utility.yul\":5965:5967   */\n      0x0c\n        /* \"#utility.yul\":5945:5963   */\n      0x24\n      dup3\n      add\n        /* \"#utility.yul\":5938:5968   */\n      mstore\n      shl(0xa1, 0x2737ba1030b71027bbb732b9)\n        /* \"#utility.yul\":5984:6002   */\n      0x44\n      dup3\n      add\n        /* \"#utility.yul\":5977:6019   */\n      mstore\n        /* \"#utility.yul\":6036:6054   */\n      0x64\n      add\n        /* \"contracts/BUDS/BUDS.sol\":8506:8551  require(msg.sender == _owner, \"Not an Owner\") */\n      tag_111\n        /* \"#utility.yul\":5724:6060   */\n      jump\n        /* \"contracts/BUDS/BUDS.sol\":8506:8551  require(msg.sender == _owner, \"Not an Owner\") */\n    tag_113:\n        /* \"contracts/BUDS/BUDS.sol\":8577:8586  uint256 i */\n      0x00\n        /* \"contracts/BUDS/BUDS.sol\":8572:8811  for (uint256 i = 0; i < recipients.length; i++) {... */\n    tag_116:\n        /* \"contracts/BUDS/BUDS.sol\":8596:8606  recipients */\n      dup3\n        /* \"contracts/BUDS/BUDS.sol\":8596:8613  recipients.length */\n      mload\n        /* \"contracts/BUDS/BUDS.sol\":8592:8593  i */\n      dup2\n        /* \"contracts/BUDS/BUDS.sol\":8592:8613  i < recipients.length */\n      lt\n        /* \"contracts/BUDS/BUDS.sol\":8572:8811  for (uint256 i = 0; i < recipients.length; i++) {... */\n      iszero\n      tag_117\n      jumpi\n        /* \"contracts/BUDS/BUDS.sol\":8635:8683  _transfer(msg.sender, recipients[i], amounts[i]) */\n      tag_119\n        /* \"contracts/BUDS/BUDS.sol\":8645:8655  msg.sender */\n      caller\n        /* \"contracts/BUDS/BUDS.sol\":8657:8667  recipients */\n      dup5\n        /* \"contracts/BUDS/BUDS.sol\":8668:8669  i */\n      dup4\n        /* \"contracts/BUDS/BUDS.sol\":8657:8670  recipients[i] */\n      dup2\n      mload\n      dup2\n      lt\n      tag_121\n      jumpi\n      tag_121\n      tag_122\n      jump\t// in\n    tag_121:\n      0x20\n      mul\n      0x20\n      add\n      add\n      mload\n        /* \"contracts/BUDS/BUDS.sol\":8672:8679  amounts */\n      dup5\n        /* \"contracts/BUDS/BUDS.sol\":8680:8681  i */\n      dup5\n        /* \"contracts/BUDS/BUDS.sol\":8672:8682  amounts[i] */\n      dup2\n      mload\n      dup2\n      lt\n      tag_124\n      jumpi\n      tag_124\n      tag_122\n      jump\t// in\n    tag_124:\n      0x20\n      mul\n      0x20\n      add\n      add\n      mload\n        /* \"contracts/BUDS/BUDS.sol\":8635:8644  _transfer */\n      tag_107\n        /* \"contracts/BUDS/BUDS.sol\":8635:8683  _transfer(msg.sender, recipients[i], amounts[i]) */\n      jump\t// in\n    tag_119:\n        /* \"contracts/BUDS/BUDS.sol\":8734:8738  true */\n      0x01\n        /* \"contracts/BUDS/BUDS.sol\":8698:8716  airdropParticipant */\n      0x02\n        /* \"contracts/BUDS/BUDS.sol\":8698:8731  airdropParticipant[recipients[i]] */\n      0x00\n        /* \"contracts/BUDS/BUDS.sol\":8717:8727  recipients */\n      dup6\n        /* \"contracts/BUDS/BUDS.sol\":8728:8729  i */\n      dup5\n        /* \"contracts/BUDS/BUDS.sol\":8717:8730  recipients[i] */\n      dup2\n      mload\n      dup2\n      lt\n      tag_126\n      jumpi\n      tag_126\n      tag_122\n      jump\t// in\n    tag_126:\n      0x20\n      mul\n      0x20\n      add\n      add\n      mload\n      sub(shl(0xa0, 0x01), 0x01)\n        /* \"contracts/BUDS/BUDS.sol\":8698:8731  airdropParticipant[recipients[i]] */\n      and\n      sub(shl(0xa0, 0x01), 0x01)\n      and\n      dup2\n      mstore\n      0x20\n      add\n      swap1\n      dup2\n      mstore\n      0x20\n      add\n      0x00\n      keccak256\n      0x00\n        /* \"contracts/BUDS/BUDS.sol\":8698:8738  airdropParticipant[recipients[i]] = true */\n      0x0100\n      exp\n      dup2\n      sload\n      dup2\n      0xff\n      mul\n      not\n      and\n      swap1\n      dup4\n      iszero\n      iszero\n      mul\n      or\n      swap1\n      sstore\n      pop\n        /* \"contracts/BUDS/BUDS.sol\":8784:8799  block.timestamp */\n      timestamp\n        /* \"contracts/BUDS/BUDS.sol\":8753:8766  aidroppedTime */\n      0x03\n        /* \"contracts/BUDS/BUDS.sol\":8753:8781  aidroppedTime[recipients[i]] */\n      0x00\n        /* \"contracts/BUDS/BUDS.sol\":8767:8777  recipients */\n      dup6\n        /* \"contracts/BUDS/BUDS.sol\":8778:8779  i */\n      dup5\n        /* \"contracts/BUDS/BUDS.sol\":8767:8780  recipients[i] */\n      dup2\n      mload\n      dup2\n      lt\n      tag_128\n      jumpi\n      tag_128\n      tag_122\n      jump\t// in\n    tag_128:\n      0x20\n      swap1\n      dup2\n      mul\n      swap2\n      swap1\n      swap2\n      add\n      dup2\n      add\n      mload\n      sub(shl(0xa0, 0x01), 0x01)\n        /* \"contracts/BUDS/BUDS.sol\":8753:8781  aidroppedTime[recipients[i]] */\n      and\n      dup3\n      mstore\n      dup2\n      add\n      swap2\n      swap1\n      swap2\n      mstore\n      0x40\n      add\n      0x00\n      keccak256\n        /* \"contracts/BUDS/BUDS.sol\":8753:8799  aidroppedTime[recipients[i]] = block.timestamp */\n      sstore\n        /* \"contracts/BUDS/BUDS.sol\":8615:8618  i++ */\n      0x01\n      add\n        /* \"contracts/BUDS/BUDS.sol\":8572:8811  for (uint256 i = 0; i < recipients.length; i++) {... */\n      jump(tag_116)\n    tag_117:\n      pop\n        /* \"contracts/BUDS/BUDS.sol\":8335:8818  function airdrop(address[] memory recipients, uint256[] memory amounts) public {... */\n      pop\n      pop\n      jump\t// out\n        /* \"contracts/BUDS/BUDS.sol\":1648:1751  function renounceOwnership() public virtual onlyOwner {... */\n    tag_60:\n        /* \"contracts/BUDS/BUDS.sol\":1338:1351  _checkOwner() */\n      tag_131\n        /* \"contracts/BUDS/BUDS.sol\":1338:1349  _checkOwner */\n      tag_132\n        /* \"contracts/BUDS/BUDS.sol\":1338:1351  _checkOwner() */\n      jump\t// in\n    tag_131:\n        /* \"contracts/BUDS/BUDS.sol\":1713:1743  _transferOwnership(address(0)) */\n      tag_134\n        /* \"contracts/BUDS/BUDS.sol\":1740:1741  0 */\n      0x00\n        /* \"contracts/BUDS/BUDS.sol\":1713:1731  _transferOwnership */\n      tag_135\n        /* \"contracts/BUDS/BUDS.sol\":1713:1743  _transferOwnership(address(0)) */\n      jump\t// in\n    tag_134:\n        /* \"contracts/BUDS/BUDS.sol\":1648:1751  function renounceOwnership() public virtual onlyOwner {... */\n      jump\t// out\n        /* \"contracts/BUDS/BUDS.sol\":3825:3920  function symbol() public view virtual returns (string memory) {... */\n    tag_66:\n        /* \"contracts/BUDS/BUDS.sol\":3872:3885  string memory */\n      0x60\n        /* \"contracts/BUDS/BUDS.sol\":3905:3912  _symbol */\n      0x06\n        /* \"contracts/BUDS/BUDS.sol\":3898:3912  return _symbol */\n      dup1\n      sload\n      tag_90\n      swap1\n      tag_91\n      jump\t// in\n        /* \"contracts/BUDS/BUDS.sol\":4253:4435  function transfer(address to, uint256 value) public virtual returns (bool) {... */\n    tag_74:\n        /* \"contracts/BUDS/BUDS.sol\":4322:4326  bool */\n      0x00\n        /* \"contracts/BUDS/BUDS.sol\":593:603  msg.sender */\n      caller\n        /* \"contracts/BUDS/BUDS.sol\":4378:4405  _transfer(owner, to, value) */\n      tag_99\n        /* \"contracts/BUDS/BUDS.sol\":593:603  msg.sender */\n      dup2\n        /* \"contracts/BUDS/BUDS.sol\":4395:4397  to */\n      dup6\n        /* \"contracts/BUDS/BUDS.sol\":4399:4404  value */\n      dup6\n        /* \"contracts/BUDS/BUDS.sol\":4378:4387  _transfer */\n      tag_107\n        /* \"contracts/BUDS/BUDS.sol\":4378:4405  _transfer(owner, to, value) */\n      jump\t// in\n        /* \"contracts/BUDS/BUDS.sol\":9258:9504  function removeStuckToken(address _address) external onlyOwner {... */\n    tag_83:\n        /* \"contracts/BUDS/BUDS.sol\":1338:1351  _checkOwner() */\n      tag_148\n        /* \"contracts/BUDS/BUDS.sol\":1338:1349  _checkOwner */\n      tag_132\n        /* \"contracts/BUDS/BUDS.sol\":1338:1351  _checkOwner() */\n      jump\t// in\n    tag_148:\n        /* \"contracts/BUDS/BUDS.sol\":9340:9381  IERC20(_address).balanceOf(address(this)) */\n      mload(0x40)\n      shl(0xe0, 0x70a08231)\n      dup2\n      mstore\n        /* \"contracts/BUDS/BUDS.sol\":9375:9379  this */\n      address\n        /* \"contracts/BUDS/BUDS.sol\":9340:9381  IERC20(_address).balanceOf(address(this)) */\n      0x04\n      dup3\n      add\n        /* \"#utility.yul\":4661:4712   */\n      mstore\n        /* \"contracts/BUDS/BUDS.sol\":9384:9385  0 */\n      0x00\n      swap1\n      sub(shl(0xa0, 0x01), 0x01)\n        /* \"contracts/BUDS/BUDS.sol\":9340:9366  IERC20(_address).balanceOf */\n      dup4\n      and\n      swap1\n      0x70a08231\n      swap1\n        /* \"#utility.yul\":4634:4652   */\n      0x24\n      add\n        /* \"contracts/BUDS/BUDS.sol\":9340:9381  IERC20(_address).balanceOf(address(this)) */\n      0x20\n      mload(0x40)\n      dup1\n      dup4\n      sub\n      dup2\n      dup7\n      gas\n      staticcall\n      iszero\n      dup1\n      iszero\n      tag_152\n      jumpi\n      returndatasize\n      0x00\n      dup1\n      returndatacopy\n      revert(0x00, returndatasize)\n    tag_152:\n      pop\n      pop\n      pop\n      pop\n      mload(0x40)\n      returndatasize\n      not(0x1f)\n      0x1f\n      dup3\n      add\n      and\n      dup3\n      add\n      dup1\n      0x40\n      mstore\n      pop\n      dup2\n      add\n      swap1\n      tag_153\n      swap2\n      swap1\n      tag_154\n      jump\t// in\n    tag_153:\n        /* \"contracts/BUDS/BUDS.sol\":9340:9385  IERC20(_address).balanceOf(address(this)) > 0 */\n      gt\n        /* \"contracts/BUDS/BUDS.sol\":9332:9406  require(IERC20(_address).balanceOf(address(this)) > 0, \"Can't withdraw 0\") */\n      tag_155\n      jumpi\n      mload(0x40)\n      shl(0xe5, 0x461bcd)\n      dup2\n      mstore\n        /* \"#utility.yul\":6588:6590   */\n      0x20\n        /* \"contracts/BUDS/BUDS.sol\":9332:9406  require(IERC20(_address).balanceOf(address(this)) > 0, \"Can't withdraw 0\") */\n      0x04\n      dup3\n      add\n        /* \"#utility.yul\":6570:6591   */\n      mstore\n        /* \"#utility.yul\":6627:6629   */\n      0x10\n        /* \"#utility.yul\":6607:6625   */\n      0x24\n      dup3\n      add\n        /* \"#utility.yul\":6600:6630   */\n      mstore\n      shl(0x84, 0x043616e2774207769746864726177203)\n        /* \"#utility.yul\":6646:6664   */\n      0x44\n      dup3\n      add\n        /* \"#utility.yul\":6639:6685   */\n      mstore\n        /* \"#utility.yul\":6702:6720   */\n      0x64\n      add\n        /* \"contracts/BUDS/BUDS.sol\":9332:9406  require(IERC20(_address).balanceOf(address(this)) > 0, \"Can't withdraw 0\") */\n      tag_111\n        /* \"#utility.yul\":6386:6726   */\n      jump\n        /* \"contracts/BUDS/BUDS.sol\":9332:9406  require(IERC20(_address).balanceOf(address(this)) > 0, \"Can't withdraw 0\") */\n    tag_155:\n        /* \"contracts/BUDS/BUDS.sol\":9426:9434  _address */\n      dup1\n      sub(shl(0xa0, 0x01), 0x01)\n        /* \"contracts/BUDS/BUDS.sol\":9419:9444  IERC20(_address).transfer */\n      and\n      0xa9059cbb\n        /* \"contracts/BUDS/BUDS.sol\":9445:9452  owner() */\n      tag_158\n        /* \"contracts/BUDS/BUDS.sol\":1452:1458  _owner */\n      and(sub(shl(0xa0, 0x01), 0x01), sload(0x08))\n      swap1\n        /* \"contracts/BUDS/BUDS.sol\":1379:1466  function owner() public view virtual returns (address) {... */\n      jump\n        /* \"contracts/BUDS/BUDS.sol\":9445:9452  owner() */\n    tag_158:\n        /* \"contracts/BUDS/BUDS.sol\":9454:9495  IERC20(_address).balanceOf(address(this)) */\n      mload(0x40)\n      shl(0xe0, 0x70a08231)\n      dup2\n      mstore\n        /* \"contracts/BUDS/BUDS.sol\":9489:9493  this */\n      address\n        /* \"contracts/BUDS/BUDS.sol\":9454:9495  IERC20(_address).balanceOf(address(this)) */\n      0x04\n      dup3\n      add\n        /* \"#utility.yul\":4661:4712   */\n      mstore\n      sub(shl(0xa0, 0x01), 0x01)\n        /* \"contracts/BUDS/BUDS.sol\":9454:9480  IERC20(_address).balanceOf */\n      dup6\n      and\n      swap1\n      0x70a08231\n      swap1\n        /* \"#utility.yul\":4634:4652   */\n      0x24\n      add\n        /* \"contracts/BUDS/BUDS.sol\":9454:9495  IERC20(_address).balanceOf(address(this)) */\n      0x20\n      mload(0x40)\n      dup1\n      dup4\n      sub\n      dup2\n      dup7\n      gas\n      staticcall\n      iszero\n      dup1\n      iszero\n      tag_161\n      jumpi\n      returndatasize\n      0x00\n      dup1\n      returndatacopy\n      revert(0x00, returndatasize)\n    tag_161:\n      pop\n      pop\n      pop\n      pop\n      mload(0x40)\n      returndatasize\n      not(0x1f)\n      0x1f\n      dup3\n      add\n      and\n      dup3\n      add\n      dup1\n      0x40\n      mstore\n      pop\n      dup2\n      add\n      swap1\n      tag_162\n      swap2\n      swap1\n      tag_154\n      jump\t// in\n    tag_162:\n        /* \"contracts/BUDS/BUDS.sol\":9419:9496  IERC20(_address).transfer(owner(), IERC20(_address).balanceOf(address(this))) */\n      mload(0x40)\n      not(sub(shl(0xe0, 0x01), 0x01))\n      0xe0\n      dup6\n      swap1\n      shl\n      and\n      dup2\n      mstore\n      sub(shl(0xa0, 0x01), 0x01)\n        /* \"#utility.yul\":6923:6955   */\n      swap1\n      swap3\n      and\n        /* \"contracts/BUDS/BUDS.sol\":9419:9496  IERC20(_address).transfer(owner(), IERC20(_address).balanceOf(address(this))) */\n      0x04\n      dup4\n      add\n        /* \"#utility.yul\":6905:6956   */\n      mstore\n        /* \"#utility.yul\":6972:6990   */\n      0x24\n      dup3\n      add\n        /* \"#utility.yul\":6965:6999   */\n      mstore\n        /* \"#utility.yul\":6878:6896   */\n      0x44\n      add\n        /* \"contracts/BUDS/BUDS.sol\":9419:9496  IERC20(_address).transfer(owner(), IERC20(_address).balanceOf(address(this))) */\n      0x20\n      mload(0x40)\n      dup1\n      dup4\n      sub\n      dup2\n      0x00\n      dup8\n      gas\n      call\n      iszero\n      dup1\n      iszero\n      tag_166\n      jumpi\n      returndatasize\n      0x00\n      dup1\n      returndatacopy\n      revert(0x00, returndatasize)\n    tag_166:\n      pop\n      pop\n      pop\n      pop\n      mload(0x40)\n      returndatasize\n      not(0x1f)\n      0x1f\n      dup3\n      add\n      and\n      dup3\n      add\n      dup1\n      0x40\n      mstore\n      pop\n      dup2\n      add\n      swap1\n      tag_167\n      swap2\n      swap1\n      tag_168\n      jump\t// in\n    tag_167:\n      pop\n        /* \"contracts/BUDS/BUDS.sol\":9258:9504  function removeStuckToken(address _address) external onlyOwner {... */\n      pop\n      jump\t// out\n        /* \"contracts/BUDS/BUDS.sol\":1759:1979  function transferOwnership(address newOwner) public virtual onlyOwner {... */\n    tag_86:\n        /* \"contracts/BUDS/BUDS.sol\":1338:1351  _checkOwner() */\n      tag_170\n        /* \"contracts/BUDS/BUDS.sol\":1338:1349  _checkOwner */\n      tag_132\n        /* \"contracts/BUDS/BUDS.sol\":1338:1351  _checkOwner() */\n      jump\t// in\n    tag_170:\n      sub(shl(0xa0, 0x01), 0x01)\n        /* \"contracts/BUDS/BUDS.sol\":1844:1866  newOwner == address(0) */\n      dup2\n      and\n        /* \"contracts/BUDS/BUDS.sol\":1840:1933  if (newOwner == address(0)) {... */\n      tag_172\n      jumpi\n        /* \"contracts/BUDS/BUDS.sol\":1890:1921  OwnableInvalidOwner(address(0)) */\n      mload(0x40)\n      shl(0xe0, 0x1e4fbdf7)\n      dup2\n      mstore\n        /* \"contracts/BUDS/BUDS.sol\":1918:1919  0 */\n      0x00\n        /* \"contracts/BUDS/BUDS.sol\":1890:1921  OwnableInvalidOwner(address(0)) */\n      0x04\n      dup3\n      add\n        /* \"#utility.yul\":4661:4712   */\n      mstore\n        /* \"#utility.yul\":4634:4652   */\n      0x24\n      add\n        /* \"contracts/BUDS/BUDS.sol\":1890:1921  OwnableInvalidOwner(address(0)) */\n      tag_111\n        /* \"#utility.yul\":4515:4718   */\n      jump\n        /* \"contracts/BUDS/BUDS.sol\":1840:1933  if (newOwner == address(0)) {... */\n    tag_172:\n        /* \"contracts/BUDS/BUDS.sol\":1943:1971  _transferOwnership(newOwner) */\n      tag_174\n        /* \"contracts/BUDS/BUDS.sol\":1962:1970  newOwner */\n      dup2\n        /* \"contracts/BUDS/BUDS.sol\":1943:1961  _transferOwnership */\n      tag_135\n        /* \"contracts/BUDS/BUDS.sol\":1943:1971  _transferOwnership(newOwner) */\n      jump\t// in\n    tag_174:\n        /* \"contracts/BUDS/BUDS.sol\":1759:1979  function transferOwnership(address newOwner) public virtual onlyOwner {... */\n      pop\n      jump\t// out\n        /* \"contracts/BUDS/BUDS.sol\":9056:9250  function withdrawStuckETH() external onlyOwner{... */\n    tag_88:\n        /* \"contracts/BUDS/BUDS.sol\":1338:1351  _checkOwner() */\n      tag_176\n        /* \"contracts/BUDS/BUDS.sol\":1338:1349  _checkOwner */\n      tag_132\n        /* \"contracts/BUDS/BUDS.sol\":1338:1351  _checkOwner() */\n      jump\t// in\n    tag_176:\n        /* \"contracts/BUDS/BUDS.sol\":9146:9147  0 */\n      0x00\n        /* \"contracts/BUDS/BUDS.sol\":9122:9143  address(this).balance */\n      selfbalance\n        /* \"contracts/BUDS/BUDS.sol\":9122:9147  address(this).balance > 0 */\n      gt\n        /* \"contracts/BUDS/BUDS.sol\":9113:9183  require (address(this).balance > 0, \"Can't withdraw negative or zero\") */\n      tag_178\n      jumpi\n      mload(0x40)\n      shl(0xe5, 0x461bcd)\n      dup2\n      mstore\n        /* \"#utility.yul\":7494:7496   */\n      0x20\n        /* \"contracts/BUDS/BUDS.sol\":9113:9183  require (address(this).balance > 0, \"Can't withdraw negative or zero\") */\n      0x04\n      dup3\n      add\n        /* \"#utility.yul\":7476:7497   */\n      mstore\n        /* \"#utility.yul\":7533:7535   */\n      0x1f\n        /* \"#utility.yul\":7513:7531   */\n      0x24\n      dup3\n      add\n        /* \"#utility.yul\":7506:7536   */\n      mstore\n        /* \"#utility.yul\":7572:7605   */\n      0x43616e2774207769746864726177206e65676174697665206f72207a65726f00\n        /* \"#utility.yul\":7552:7570   */\n      0x44\n      dup3\n      add\n        /* \"#utility.yul\":7545:7606   */\n      mstore\n        /* \"#utility.yul\":7623:7641   */\n      0x64\n      add\n        /* \"contracts/BUDS/BUDS.sol\":9113:9183  require (address(this).balance > 0, \"Can't withdraw negative or zero\") */\n      tag_111\n        /* \"#utility.yul\":7292:7647   */\n      jump\n        /* \"contracts/BUDS/BUDS.sol\":9113:9183  require (address(this).balance > 0, \"Can't withdraw negative or zero\") */\n    tag_178:\n        /* \"contracts/BUDS/BUDS.sol\":1452:1458  _owner */\n      sload(0x08)\n        /* \"contracts/BUDS/BUDS.sol\":9194:9242  payable(owner()).transfer(address(this).balance) */\n      mload(0x40)\n      sub(shl(0xa0, 0x01), 0x01)\n        /* \"contracts/BUDS/BUDS.sol\":1452:1458  _owner */\n      swap1\n      swap2\n      and\n      swap1\n        /* \"contracts/BUDS/BUDS.sol\":9220:9241  address(this).balance */\n      selfbalance\n        /* \"contracts/BUDS/BUDS.sol\":9194:9242  payable(owner()).transfer(address(this).balance) */\n      dup1\n      iszero\n      0x08fc\n      mul\n      swap2\n      0x00\n      dup2\n      dup2\n      dup2\n        /* \"contracts/BUDS/BUDS.sol\":9220:9241  address(this).balance */\n      dup6\n        /* \"contracts/BUDS/BUDS.sol\":1452:1458  _owner */\n      dup9\n        /* \"contracts/BUDS/BUDS.sol\":9194:9242  payable(owner()).transfer(address(this).balance) */\n      dup9\n      call\n      swap4\n      pop\n      pop\n      pop\n      pop\n      iszero\n      dup1\n      iszero\n      tag_174\n      jumpi\n      returndatasize\n      0x00\n      dup1\n      returndatacopy\n      revert(0x00, returndatasize)\n        /* \"contracts/BUDS/BUDS.sol\":7250:7380  function _approve(address owner, address spender, uint256 value) internal {... */\n    tag_100:\n        /* \"contracts/BUDS/BUDS.sol\":7335:7372  _approve(owner, spender, value, true) */\n      tag_117\n        /* \"contracts/BUDS/BUDS.sol\":7344:7349  owner */\n      dup4\n        /* \"contracts/BUDS/BUDS.sol\":7351:7358  spender */\n      dup4\n        /* \"contracts/BUDS/BUDS.sol\":7360:7365  value */\n      dup4\n        /* \"contracts/BUDS/BUDS.sol\":7367:7371  true */\n      0x01\n        /* \"contracts/BUDS/BUDS.sol\":7335:7343  _approve */\n      tag_187\n        /* \"contracts/BUDS/BUDS.sol\":7335:7372  _approve(owner, spender, value, true) */\n      jump\t// in\n        /* \"contracts/BUDS/BUDS.sol\":7839:8326  function _spendAllowance(address owner, address spender, uint256 value) internal virtual {... */\n    tag_105:\n      sub(shl(0xa0, 0x01), 0x01)\n        /* \"contracts/BUDS/BUDS.sol\":4550:4568  _allowances[owner] */\n      dup4\n      dup2\n      and\n        /* \"contracts/BUDS/BUDS.sol\":7939:7963  uint256 currentAllowance */\n      0x00\n        /* \"contracts/BUDS/BUDS.sol\":4550:4568  _allowances[owner] */\n      swap1\n      dup2\n      mstore\n        /* \"contracts/BUDS/BUDS.sol\":4550:4561  _allowances */\n      0x01\n        /* \"contracts/BUDS/BUDS.sol\":4550:4568  _allowances[owner] */\n      0x20\n      swap1\n      dup2\n      mstore\n      0x40\n      dup1\n      dup4\n      keccak256\n        /* \"contracts/BUDS/BUDS.sol\":4550:4577  _allowances[owner][spender] */\n      swap4\n      dup7\n      and\n      dup4\n      mstore\n      swap3\n      swap1\n      mstore\n      keccak256\n      sload\n      not(0x00)\n        /* \"contracts/BUDS/BUDS.sol\":8006:8043  currentAllowance != type(uint256).max */\n      dup2\n      eq\n        /* \"contracts/BUDS/BUDS.sol\":8002:8319  if (currentAllowance != type(uint256).max) {... */\n      tag_194\n      jumpi\n        /* \"contracts/BUDS/BUDS.sol\":8083:8088  value */\n      dup2\n        /* \"contracts/BUDS/BUDS.sol\":8064:8080  currentAllowance */\n      dup2\n        /* \"contracts/BUDS/BUDS.sol\":8064:8088  currentAllowance < value */\n      lt\n        /* \"contracts/BUDS/BUDS.sol\":8060:8192  if (currentAllowance < value) {... */\n      iszero\n      tag_191\n      jumpi\n        /* \"contracts/BUDS/BUDS.sol\":8116:8176  ERC20InsufficientAllowance(spender, currentAllowance, value) */\n      mload(0x40)\n      shl(0xe1, 0x7dc7a0d9)\n      dup2\n      mstore\n      sub(shl(0xa0, 0x01), 0x01)\n        /* \"#utility.yul\":7872:7904   */\n      dup5\n      and\n        /* \"contracts/BUDS/BUDS.sol\":8116:8176  ERC20InsufficientAllowance(spender, currentAllowance, value) */\n      0x04\n      dup3\n      add\n        /* \"#utility.yul\":7854:7905   */\n      mstore\n        /* \"#utility.yul\":7921:7939   */\n      0x24\n      dup2\n      add\n        /* \"#utility.yul\":7914:7948   */\n      dup3\n      swap1\n      mstore\n        /* \"#utility.yul\":7964:7982   */\n      0x44\n      dup2\n      add\n        /* \"#utility.yul\":7957:7991   */\n      dup4\n      swap1\n      mstore\n        /* \"#utility.yul\":7827:7845   */\n      0x64\n      add\n        /* \"contracts/BUDS/BUDS.sol\":8116:8176  ERC20InsufficientAllowance(spender, currentAllowance, value) */\n      tag_111\n        /* \"#utility.yul\":7652:7997   */\n      jump\n        /* \"contracts/BUDS/BUDS.sol\":8060:8192  if (currentAllowance < value) {... */\n    tag_191:\n        /* \"contracts/BUDS/BUDS.sol\":8235:8292  _approve(owner, spender, currentAllowance - value, false) */\n      tag_194\n        /* \"contracts/BUDS/BUDS.sol\":8244:8249  owner */\n      dup5\n        /* \"contracts/BUDS/BUDS.sol\":8251:8258  spender */\n      dup5\n        /* \"contracts/BUDS/BUDS.sol\":8279:8284  value */\n      dup5\n        /* \"contracts/BUDS/BUDS.sol\":8260:8276  currentAllowance */\n      dup5\n        /* \"contracts/BUDS/BUDS.sol\":8260:8284  currentAllowance - value */\n      sub\n        /* \"contracts/BUDS/BUDS.sol\":8286:8291  false */\n      0x00\n        /* \"contracts/BUDS/BUDS.sol\":8235:8243  _approve */\n      tag_187\n        /* \"contracts/BUDS/BUDS.sol\":8235:8292  _approve(owner, spender, currentAllowance - value, false) */\n      jump\t// in\n    tag_194:\n        /* \"contracts/BUDS/BUDS.sol\":7928:8326  {... */\n      pop\n        /* \"contracts/BUDS/BUDS.sol\":7839:8326  function _spendAllowance(address owner, address spender, uint256 value) internal virtual {... */\n      pop\n      pop\n      pop\n      jump\t// out\n        /* \"contracts/BUDS/BUDS.sol\":5052:5657  function _transfer(address from, address to, uint256 value) internal {... */\n    tag_107:\n      sub(shl(0xa0, 0x01), 0x01)\n        /* \"contracts/BUDS/BUDS.sol\":5136:5154  from == address(0) */\n      dup4\n      and\n        /* \"contracts/BUDS/BUDS.sol\":5132:5220  if (from == address(0)) {... */\n      tag_196\n      jumpi\n        /* \"contracts/BUDS/BUDS.sol\":5178:5208  ERC20InvalidSender(address(0)) */\n      mload(0x40)\n      shl(0xe1, 0x4b637e8f)\n      dup2\n      mstore\n        /* \"contracts/BUDS/BUDS.sol\":5205:5206  0 */\n      0x00\n        /* \"contracts/BUDS/BUDS.sol\":5178:5208  ERC20InvalidSender(address(0)) */\n      0x04\n      dup3\n      add\n        /* \"#utility.yul\":4661:4712   */\n      mstore\n        /* \"#utility.yul\":4634:4652   */\n      0x24\n      add\n        /* \"contracts/BUDS/BUDS.sol\":5178:5208  ERC20InvalidSender(address(0)) */\n      tag_111\n        /* \"#utility.yul\":4515:4718   */\n      jump\n        /* \"contracts/BUDS/BUDS.sol\":5132:5220  if (from == address(0)) {... */\n    tag_196:\n      sub(shl(0xa0, 0x01), 0x01)\n        /* \"contracts/BUDS/BUDS.sol\":5234:5250  to == address(0) */\n      dup3\n      and\n        /* \"contracts/BUDS/BUDS.sol\":5230:5318  if (to == address(0)) {... */\n      tag_198\n      jumpi\n        /* \"contracts/BUDS/BUDS.sol\":5274:5306  ERC20InvalidReceiver(address(0)) */\n      mload(0x40)\n      shl(0xe0, 0xec442f05)\n      dup2\n      mstore\n        /* \"contracts/BUDS/BUDS.sol\":5303:5304  0 */\n      0x00\n        /* \"contracts/BUDS/BUDS.sol\":5274:5306  ERC20InvalidReceiver(address(0)) */\n      0x04\n      dup3\n      add\n        /* \"#utility.yul\":4661:4712   */\n      mstore\n        /* \"#utility.yul\":4634:4652   */\n      0x24\n      add\n        /* \"contracts/BUDS/BUDS.sol\":5274:5306  ERC20InvalidReceiver(address(0)) */\n      tag_111\n        /* \"#utility.yul\":4515:4718   */\n      jump\n        /* \"contracts/BUDS/BUDS.sol\":5230:5318  if (to == address(0)) {... */\n    tag_198:\n      sub(shl(0xa0, 0x01), 0x01)\n        /* \"contracts/BUDS/BUDS.sol\":5333:5357  airdropParticipant[from] */\n      dup4\n      and\n      0x00\n      swap1\n      dup2\n      mstore\n        /* \"contracts/BUDS/BUDS.sol\":5333:5351  airdropParticipant */\n      0x02\n        /* \"contracts/BUDS/BUDS.sol\":5333:5357  airdropParticipant[from] */\n      0x20\n      mstore\n      0x40\n      swap1\n      keccak256\n      sload\n      0xff\n      and\n        /* \"contracts/BUDS/BUDS.sol\":5330:5615  if(airdropParticipant[from])... */\n      iszero\n      tag_203\n      jumpi\n      sub(shl(0xa0, 0x01), 0x01)\n        /* \"contracts/BUDS/BUDS.sol\":5531:5550  aidroppedTime[from] */\n      dup4\n      and\n      0x00\n      swap1\n      dup2\n      mstore\n        /* \"contracts/BUDS/BUDS.sol\":5531:5544  aidroppedTime */\n      0x03\n        /* \"contracts/BUDS/BUDS.sol\":5531:5550  aidroppedTime[from] */\n      0x20\n      mstore\n      0x40\n      swap1\n      keccak256\n      sload\n        /* \"contracts/BUDS/BUDS.sol\":5531:5556  aidroppedTime[from] + 240 */\n      tag_201\n      swap1\n        /* \"contracts/BUDS/BUDS.sol\":5553:5556  240 */\n      0xf0\n        /* \"contracts/BUDS/BUDS.sol\":5531:5556  aidroppedTime[from] + 240 */\n      tag_202\n      jump\t// in\n    tag_201:\n        /* \"contracts/BUDS/BUDS.sol\":5512:5527  block.timestamp */\n      timestamp\n        /* \"contracts/BUDS/BUDS.sol\":5512:5556  block.timestamp >= aidroppedTime[from] + 240 */\n      lt\n      iszero\n        /* \"contracts/BUDS/BUDS.sol\":5504:5603  require(block.timestamp >= aidroppedTime[from] + 240, \"Airdropped tokens are locked till 240 days\") */\n      tag_203\n      jumpi\n      mload(0x40)\n      shl(0xe5, 0x461bcd)\n      dup2\n      mstore\n        /* \"#utility.yul\":8431:8433   */\n      0x20\n        /* \"contracts/BUDS/BUDS.sol\":5504:5603  require(block.timestamp >= aidroppedTime[from] + 240, \"Airdropped tokens are locked till 240 days\") */\n      0x04\n      dup3\n      add\n        /* \"#utility.yul\":8413:8434   */\n      mstore\n        /* \"#utility.yul\":8470:8472   */\n      0x2a\n        /* \"#utility.yul\":8450:8468   */\n      0x24\n      dup3\n      add\n        /* \"#utility.yul\":8443:8473   */\n      mstore\n        /* \"#utility.yul\":8509:8543   */\n      0x41697264726f7070656420746f6b656e7320617265206c6f636b65642074696c\n        /* \"#utility.yul\":8489:8507   */\n      0x44\n      dup3\n      add\n        /* \"#utility.yul\":8482:8544   */\n      mstore\n      shl(0xb0, 0x6c203234302064617973)\n        /* \"#utility.yul\":8560:8578   */\n      0x64\n      dup3\n      add\n        /* \"#utility.yul\":8553:8593   */\n      mstore\n        /* \"#utility.yul\":8610:8629   */\n      0x84\n      add\n        /* \"contracts/BUDS/BUDS.sol\":5504:5603  require(block.timestamp >= aidroppedTime[from] + 240, \"Airdropped tokens are locked till 240 days\") */\n      tag_111\n        /* \"#utility.yul\":8229:8635   */\n      jump\n        /* \"contracts/BUDS/BUDS.sol\":5504:5603  require(block.timestamp >= aidroppedTime[from] + 240, \"Airdropped tokens are locked till 240 days\") */\n    tag_203:\n        /* \"contracts/BUDS/BUDS.sol\":5625:5649  _update(from, to, value) */\n      tag_117\n        /* \"contracts/BUDS/BUDS.sol\":5633:5637  from */\n      dup4\n        /* \"contracts/BUDS/BUDS.sol\":5639:5641  to */\n      dup4\n        /* \"contracts/BUDS/BUDS.sol\":5643:5648  value */\n      dup4\n        /* \"contracts/BUDS/BUDS.sol\":5625:5632  _update */\n      tag_207\n        /* \"contracts/BUDS/BUDS.sol\":5625:5649  _update(from, to, value) */\n      jump\t// in\n        /* \"contracts/BUDS/BUDS.sol\":1474:1640  function _checkOwner() internal view virtual {... */\n    tag_132:\n        /* \"contracts/BUDS/BUDS.sol\":1452:1458  _owner */\n      and(sub(shl(0xa0, 0x01), 0x01), sload(0x08))\n        /* \"contracts/BUDS/BUDS.sol\":593:603  msg.sender */\n      caller\n        /* \"contracts/BUDS/BUDS.sol\":1534:1557  owner() != _msgSender() */\n      eq\n        /* \"contracts/BUDS/BUDS.sol\":1530:1633  if (owner() != _msgSender()) {... */\n      tag_134\n      jumpi\n        /* \"contracts/BUDS/BUDS.sol\":1581:1621  OwnableUnauthorizedAccount(_msgSender()) */\n      mload(0x40)\n      shl(0xe0, 0x118cdaa7)\n      dup2\n      mstore\n        /* \"contracts/BUDS/BUDS.sol\":593:603  msg.sender */\n      caller\n        /* \"contracts/BUDS/BUDS.sol\":1581:1621  OwnableUnauthorizedAccount(_msgSender()) */\n      0x04\n      dup3\n      add\n        /* \"#utility.yul\":4661:4712   */\n      mstore\n        /* \"#utility.yul\":4634:4652   */\n      0x24\n      add\n        /* \"contracts/BUDS/BUDS.sol\":1581:1621  OwnableUnauthorizedAccount(_msgSender()) */\n      tag_111\n        /* \"#utility.yul\":4515:4718   */\n      jump\n        /* \"contracts/BUDS/BUDS.sol\":1987:2178  function _transferOwnership(address newOwner) internal virtual {... */\n    tag_135:\n        /* \"contracts/BUDS/BUDS.sol\":2080:2086  _owner */\n      0x08\n      dup1\n      sload\n      sub(shl(0xa0, 0x01), 0x01)\n        /* \"contracts/BUDS/BUDS.sol\":2097:2114  _owner = newOwner */\n      dup4\n      dup2\n      and\n      not(sub(shl(0xa0, 0x01), 0x01))\n      dup4\n      and\n      dup2\n      or\n      swap1\n      swap4\n      sstore\n        /* \"contracts/BUDS/BUDS.sol\":2130:2170  OwnershipTransferred(oldOwner, newOwner) */\n      mload(0x40)\n        /* \"contracts/BUDS/BUDS.sol\":2080:2086  _owner */\n      swap2\n      and\n      swap2\n        /* \"contracts/BUDS/BUDS.sol\":2097:2114  _owner = newOwner */\n      swap1\n        /* \"contracts/BUDS/BUDS.sol\":2080:2086  _owner */\n      dup3\n      swap1\n        /* \"contracts/BUDS/BUDS.sol\":2130:2170  OwnershipTransferred(oldOwner, newOwner) */\n      0x8be0079c531659141344cd1fd0a4f28419497f9722a3daafe3b4186f6b6457e0\n      swap1\n        /* \"contracts/BUDS/BUDS.sol\":2061:2077  address oldOwner */\n      0x00\n      swap1\n        /* \"contracts/BUDS/BUDS.sol\":2130:2170  OwnershipTransferred(oldOwner, newOwner) */\n      log3\n        /* \"contracts/BUDS/BUDS.sol\":2050:2178  {... */\n      pop\n        /* \"contracts/BUDS/BUDS.sol\":1987:2178  function _transferOwnership(address newOwner) internal virtual {... */\n      pop\n      jump\t// out\n        /* \"contracts/BUDS/BUDS.sol\":7388:7831  function _approve(address owner, address spender, uint256 value, bool emitEvent) internal virtual {... */\n    tag_187:\n      sub(shl(0xa0, 0x01), 0x01)\n        /* \"contracts/BUDS/BUDS.sol\":7501:7520  owner == address(0) */\n      dup5\n      and\n        /* \"contracts/BUDS/BUDS.sol\":7497:7588  if (owner == address(0)) {... */\n      tag_216\n      jumpi\n        /* \"contracts/BUDS/BUDS.sol\":7544:7576  ERC20InvalidApprover(address(0)) */\n      mload(0x40)\n      shl(0xe0, 0xe602df05)\n      dup2\n      mstore\n        /* \"contracts/BUDS/BUDS.sol\":7573:7574  0 */\n      0x00\n        /* \"contracts/BUDS/BUDS.sol\":7544:7576  ERC20InvalidApprover(address(0)) */\n      0x04\n      dup3\n      add\n        /* \"#utility.yul\":4661:4712   */\n      mstore\n        /* \"#utility.yul\":4634:4652   */\n      0x24\n      add\n        /* \"contracts/BUDS/BUDS.sol\":7544:7576  ERC20InvalidApprover(address(0)) */\n      tag_111\n        /* \"#utility.yul\":4515:4718   */\n      jump\n        /* \"contracts/BUDS/BUDS.sol\":7497:7588  if (owner == address(0)) {... */\n    tag_216:\n      sub(shl(0xa0, 0x01), 0x01)\n        /* \"contracts/BUDS/BUDS.sol\":7602:7623  spender == address(0) */\n      dup4\n      and\n        /* \"contracts/BUDS/BUDS.sol\":7598:7690  if (spender == address(0)) {... */\n      tag_218\n      jumpi\n        /* \"contracts/BUDS/BUDS.sol\":7647:7678  ERC20InvalidSpender(address(0)) */\n      mload(0x40)\n      shl(0xe1, 0x4a1406b1)\n      dup2\n      mstore\n        /* \"contracts/BUDS/BUDS.sol\":7675:7676  0 */\n      0x00\n        /* \"contracts/BUDS/BUDS.sol\":7647:7678  ERC20InvalidSpender(address(0)) */\n      0x04\n      dup3\n      add\n        /* \"#utility.yul\":4661:4712   */\n      mstore\n        /* \"#utility.yul\":4634:4652   */\n      0x24\n      add\n        /* \"contracts/BUDS/BUDS.sol\":7647:7678  ERC20InvalidSpender(address(0)) */\n      tag_111\n        /* \"#utility.yul\":4515:4718   */\n      jump\n        /* \"contracts/BUDS/BUDS.sol\":7598:7690  if (spender == address(0)) {... */\n    tag_218:\n      sub(shl(0xa0, 0x01), 0x01)\n        /* \"contracts/BUDS/BUDS.sol\":7700:7718  _allowances[owner] */\n      dup1\n      dup6\n      and\n      0x00\n      swap1\n      dup2\n      mstore\n        /* \"contracts/BUDS/BUDS.sol\":7700:7711  _allowances */\n      0x01\n        /* \"contracts/BUDS/BUDS.sol\":7700:7718  _allowances[owner] */\n      0x20\n      swap1\n      dup2\n      mstore\n      0x40\n      dup1\n      dup4\n      keccak256\n        /* \"contracts/BUDS/BUDS.sol\":7700:7727  _allowances[owner][spender] */\n      swap4\n      dup8\n      and\n      dup4\n      mstore\n      swap3\n      swap1\n      mstore\n      keccak256\n        /* \"contracts/BUDS/BUDS.sol\":7700:7735  _allowances[owner][spender] = value */\n      dup3\n      swap1\n      sstore\n        /* \"contracts/BUDS/BUDS.sol\":7746:7824  if (emitEvent) {... */\n      dup1\n      iszero\n      tag_194\n      jumpi\n        /* \"contracts/BUDS/BUDS.sol\":7797:7804  spender */\n      dup3\n      sub(shl(0xa0, 0x01), 0x01)\n        /* \"contracts/BUDS/BUDS.sol\":7781:7812  Approval(owner, spender, value) */\n      and\n        /* \"contracts/BUDS/BUDS.sol\":7790:7795  owner */\n      dup5\n      sub(shl(0xa0, 0x01), 0x01)\n        /* \"contracts/BUDS/BUDS.sol\":7781:7812  Approval(owner, spender, value) */\n      and\n      0x8c5be1e5ebec7d5bd14f71427d1e84f3dd0314c0f7b2291e5b200ac8c7c3b925\n        /* \"contracts/BUDS/BUDS.sol\":7806:7811  value */\n      dup5\n        /* \"contracts/BUDS/BUDS.sol\":7781:7812  Approval(owner, spender, value) */\n      mload(0x40)\n      tag_221\n      swap2\n        /* \"#utility.yul\":1533:1558   */\n      dup2\n      mstore\n        /* \"#utility.yul\":1521:1523   */\n      0x20\n        /* \"#utility.yul\":1506:1524   */\n      add\n      swap1\n        /* \"#utility.yul\":1387:1564   */\n      jump\n        /* \"contracts/BUDS/BUDS.sol\":7781:7812  Approval(owner, spender, value) */\n    tag_221:\n      mload(0x40)\n      dup1\n      swap2\n      sub\n      swap1\n      log3\n        /* \"contracts/BUDS/BUDS.sol\":7388:7831  function _approve(address owner, address spender, uint256 value, bool emitEvent) internal virtual {... */\n      pop\n      pop\n      pop\n      pop\n      jump\t// out\n        /* \"contracts/BUDS/BUDS.sol\":5665:6800  function _update(address from, address to, uint256 value) internal virtual {... */\n    tag_207:\n      sub(shl(0xa0, 0x01), 0x01)\n        /* \"contracts/BUDS/BUDS.sol\":5755:5773  from == address(0) */\n      dup4\n      and\n        /* \"contracts/BUDS/BUDS.sol\":5751:6303  if (from == address(0)) {... */\n      tag_223\n      jumpi\n        /* \"contracts/BUDS/BUDS.sol\":5909:5914  value */\n      dup1\n        /* \"contracts/BUDS/BUDS.sol\":5893:5905  _totalSupply */\n      0x04\n      0x00\n        /* \"contracts/BUDS/BUDS.sol\":5893:5914  _totalSupply += value */\n      dup3\n      dup3\n      sload\n      tag_224\n      swap2\n      swap1\n      tag_202\n      jump\t// in\n    tag_224:\n      swap1\n      swap2\n      sstore\n      pop\n        /* \"contracts/BUDS/BUDS.sol\":5751:6303  if (from == address(0)) {... */\n      tag_225\n      swap1\n      pop\n      jump\n    tag_223:\n      sub(shl(0xa0, 0x01), 0x01)\n        /* \"contracts/BUDS/BUDS.sol\":5969:5984  _balances[from] */\n      dup4\n      and\n        /* \"contracts/BUDS/BUDS.sol\":5947:5966  uint256 fromBalance */\n      0x00\n        /* \"contracts/BUDS/BUDS.sol\":5969:5984  _balances[from] */\n      swap1\n      dup2\n      mstore\n      0x20\n      dup2\n      swap1\n      mstore\n      0x40\n      swap1\n      keccak256\n      sload\n        /* \"contracts/BUDS/BUDS.sol\":6003:6022  fromBalance < value */\n      dup2\n      dup2\n      lt\n        /* \"contracts/BUDS/BUDS.sol\":5999:6116  if (fromBalance < value) {... */\n      iszero\n      tag_226\n      jumpi\n        /* \"contracts/BUDS/BUDS.sol\":6050:6100  ERC20InsufficientBalance(from, fromBalance, value) */\n      mload(0x40)\n      shl(0xe2, 0x391434e3)\n      dup2\n      mstore\n      sub(shl(0xa0, 0x01), 0x01)\n        /* \"#utility.yul\":7872:7904   */\n      dup6\n      and\n        /* \"contracts/BUDS/BUDS.sol\":6050:6100  ERC20InsufficientBalance(from, fromBalance, value) */\n      0x04\n      dup3\n      add\n        /* \"#utility.yul\":7854:7905   */\n      mstore\n        /* \"#utility.yul\":7921:7939   */\n      0x24\n      dup2\n      add\n        /* \"#utility.yul\":7914:7948   */\n      dup3\n      swap1\n      mstore\n        /* \"#utility.yul\":7964:7982   */\n      0x44\n      dup2\n      add\n        /* \"#utility.yul\":7957:7991   */\n      dup4\n      swap1\n      mstore\n        /* \"#utility.yul\":7827:7845   */\n      0x64\n      add\n        /* \"contracts/BUDS/BUDS.sol\":6050:6100  ERC20InsufficientBalance(from, fromBalance, value) */\n      tag_111\n        /* \"#utility.yul\":7652:7997   */\n      jump\n        /* \"contracts/BUDS/BUDS.sol\":5999:6116  if (fromBalance < value) {... */\n    tag_226:\n      sub(shl(0xa0, 0x01), 0x01)\n        /* \"contracts/BUDS/BUDS.sol\":6239:6254  _balances[from] */\n      dup5\n      and\n        /* \"contracts/BUDS/BUDS.sol\":6239:6248  _balances */\n      0x00\n        /* \"contracts/BUDS/BUDS.sol\":6239:6254  _balances[from] */\n      swap1\n      dup2\n      mstore\n      0x20\n      dup2\n      swap1\n      mstore\n      0x40\n      swap1\n      keccak256\n        /* \"contracts/BUDS/BUDS.sol\":6257:6276  fromBalance - value */\n      swap1\n      dup3\n      swap1\n      sub\n        /* \"contracts/BUDS/BUDS.sol\":6239:6276  _balances[from] = fromBalance - value */\n      swap1\n      sstore\n        /* \"contracts/BUDS/BUDS.sol\":5751:6303  if (from == address(0)) {... */\n    tag_225:\n      sub(shl(0xa0, 0x01), 0x01)\n        /* \"contracts/BUDS/BUDS.sol\":6319:6335  to == address(0) */\n      dup3\n      and\n        /* \"contracts/BUDS/BUDS.sol\":6315:6750  if (to == address(0)) {... */\n      tag_228\n      jumpi\n        /* \"contracts/BUDS/BUDS.sol\":6485:6497  _totalSupply */\n      0x04\n        /* \"contracts/BUDS/BUDS.sol\":6485:6506  _totalSupply -= value */\n      dup1\n      sload\n      dup3\n      swap1\n      sub\n      swap1\n      sstore\n        /* \"contracts/BUDS/BUDS.sol\":6315:6750  if (to == address(0)) {... */\n      jump(tag_229)\n    tag_228:\n      sub(shl(0xa0, 0x01), 0x01)\n        /* \"contracts/BUDS/BUDS.sol\":6701:6714  _balances[to] */\n      dup3\n      and\n        /* \"contracts/BUDS/BUDS.sol\":6701:6710  _balances */\n      0x00\n        /* \"contracts/BUDS/BUDS.sol\":6701:6714  _balances[to] */\n      swap1\n      dup2\n      mstore\n      0x20\n      dup2\n      swap1\n      mstore\n      0x40\n      swap1\n      keccak256\n        /* \"contracts/BUDS/BUDS.sol\":6701:6723  _balances[to] += value */\n      dup1\n      sload\n      dup3\n      add\n      swap1\n      sstore\n        /* \"contracts/BUDS/BUDS.sol\":6315:6750  if (to == address(0)) {... */\n    tag_229:\n        /* \"contracts/BUDS/BUDS.sol\":6782:6784  to */\n      dup2\n      sub(shl(0xa0, 0x01), 0x01)\n        /* \"contracts/BUDS/BUDS.sol\":6767:6792  Transfer(from, to, value) */\n      and\n        /* \"contracts/BUDS/BUDS.sol\":6776:6780  from */\n      dup4\n      sub(shl(0xa0, 0x01), 0x01)\n        /* \"contracts/BUDS/BUDS.sol\":6767:6792  Transfer(from, to, value) */\n      and\n      0xddf252ad1be2c89b69c2b068fc378daa952ba7f163c4a11628f55a4df523b3ef\n        /* \"contracts/BUDS/BUDS.sol\":6786:6791  value */\n      dup4\n        /* \"contracts/BUDS/BUDS.sol\":6767:6792  Transfer(from, to, value) */\n      mload(0x40)\n      tag_230\n      swap2\n        /* \"#utility.yul\":1533:1558   */\n      dup2\n      mstore\n        /* \"#utility.yul\":1521:1523   */\n      0x20\n        /* \"#utility.yul\":1506:1524   */\n      add\n      swap1\n        /* \"#utility.yul\":1387:1564   */\n      jump\n        /* \"contracts/BUDS/BUDS.sol\":6767:6792  Transfer(from, to, value) */\n    tag_230:\n      mload(0x40)\n      dup1\n      swap2\n      sub\n      swap1\n      log3\n        /* \"contracts/BUDS/BUDS.sol\":5665:6800  function _update(address from, address to, uint256 value) internal virtual {... */\n      pop\n      pop\n      pop\n      jump\t// out\n        /* \"#utility.yul\":14:187   */\n    tag_231:\n        /* \"#utility.yul\":82:102   */\n      dup1\n      calldataload\n      sub(shl(0xa0, 0x01), 0x01)\n        /* \"#utility.yul\":131:162   */\n      dup2\n      and\n        /* \"#utility.yul\":121:163   */\n      dup2\n      eq\n        /* \"#utility.yul\":111:181   */\n      tag_238\n      jumpi\n        /* \"#utility.yul\":177:178   */\n      0x00\n        /* \"#utility.yul\":174:175   */\n      dup1\n        /* \"#utility.yul\":167:179   */\n      revert\n        /* \"#utility.yul\":111:181   */\n    tag_238:\n        /* \"#utility.yul\":14:187   */\n      swap2\n      swap1\n      pop\n      jump\t// out\n        /* \"#utility.yul\":192:378   */\n    tag_25:\n        /* \"#utility.yul\":251:257   */\n      0x00\n        /* \"#utility.yul\":304:306   */\n      0x20\n        /* \"#utility.yul\":292:301   */\n      dup3\n        /* \"#utility.yul\":283:290   */\n      dup5\n        /* \"#utility.yul\":279:302   */\n      sub\n        /* \"#utility.yul\":275:307   */\n      slt\n        /* \"#utility.yul\":272:324   */\n      iszero\n      tag_240\n      jumpi\n        /* \"#utility.yul\":320:321   */\n      0x00\n        /* \"#utility.yul\":317:318   */\n      dup1\n        /* \"#utility.yul\":310:322   */\n      revert\n        /* \"#utility.yul\":272:324   */\n    tag_240:\n        /* \"#utility.yul\":343:372   */\n      tag_241\n        /* \"#utility.yul\":362:371   */\n      dup3\n        /* \"#utility.yul\":343:372   */\n      tag_231\n      jump\t// in\n    tag_241:\n        /* \"#utility.yul\":333:372   */\n      swap4\n        /* \"#utility.yul\":192:378   */\n      swap3\n      pop\n      pop\n      pop\n      jump\t// out\n        /* \"#utility.yul\":575:1123   */\n    tag_32:\n        /* \"#utility.yul\":687:691   */\n      0x00\n        /* \"#utility.yul\":716:718   */\n      0x20\n        /* \"#utility.yul\":745:747   */\n      dup1\n        /* \"#utility.yul\":734:743   */\n      dup4\n        /* \"#utility.yul\":727:748   */\n      mstore\n        /* \"#utility.yul\":777:783   */\n      dup4\n        /* \"#utility.yul\":771:784   */\n      mload\n        /* \"#utility.yul\":820:826   */\n      dup1\n        /* \"#utility.yul\":815:817   */\n      0x20\n        /* \"#utility.yul\":804:813   */\n      dup6\n        /* \"#utility.yul\":800:818   */\n      add\n        /* \"#utility.yul\":793:827   */\n      mstore\n        /* \"#utility.yul\":845:846   */\n      0x00\n        /* \"#utility.yul\":855:995   */\n    tag_244:\n        /* \"#utility.yul\":869:875   */\n      dup2\n        /* \"#utility.yul\":866:867   */\n      dup2\n        /* \"#utility.yul\":863:876   */\n      lt\n        /* \"#utility.yul\":855:995   */\n      iszero\n      tag_246\n      jumpi\n        /* \"#utility.yul\":964:978   */\n      dup6\n      dup2\n      add\n        /* \"#utility.yul\":960:983   */\n      dup4\n      add\n        /* \"#utility.yul\":954:984   */\n      mload\n        /* \"#utility.yul\":930:947   */\n      dup6\n      dup3\n      add\n        /* \"#utility.yul\":949:951   */\n      0x40\n        /* \"#utility.yul\":926:952   */\n      add\n        /* \"#utility.yul\":919:985   */\n      mstore\n        /* \"#utility.yul\":884:894   */\n      dup3\n      add\n        /* \"#utility.yul\":855:995   */\n      jump(tag_244)\n    tag_246:\n        /* \"#utility.yul\":859:862   */\n      pop\n        /* \"#utility.yul\":1044:1045   */\n      0x00\n        /* \"#utility.yul\":1039:1041   */\n      0x40\n        /* \"#utility.yul\":1030:1036   */\n      dup3\n        /* \"#utility.yul\":1019:1028   */\n      dup7\n        /* \"#utility.yul\":1015:1037   */\n      add\n        /* \"#utility.yul\":1011:1042   */\n      add\n        /* \"#utility.yul\":1004:1046   */\n      mstore\n        /* \"#utility.yul\":1114:1116   */\n      0x40\n        /* \"#utility.yul\":1107:1109   */\n      0x1f\n        /* \"#utility.yul\":1103:1110   */\n      not\n        /* \"#utility.yul\":1098:1100   */\n      0x1f\n        /* \"#utility.yul\":1090:1096   */\n      dup4\n        /* \"#utility.yul\":1086:1101   */\n      add\n        /* \"#utility.yul\":1082:1111   */\n      and\n        /* \"#utility.yul\":1071:1080   */\n      dup6\n        /* \"#utility.yul\":1067:1112   */\n      add\n        /* \"#utility.yul\":1063:1117   */\n      add\n        /* \"#utility.yul\":1055:1117   */\n      swap3\n      pop\n      pop\n      pop\n        /* \"#utility.yul\":575:1123   */\n      swap3\n      swap2\n      pop\n      pop\n      jump\t// out\n        /* \"#utility.yul\":1128:1382   */\n    tag_35:\n        /* \"#utility.yul\":1196:1202   */\n      0x00\n        /* \"#utility.yul\":1204:1210   */\n      dup1\n        /* \"#utility.yul\":1257:1259   */\n      0x40\n        /* \"#utility.yul\":1245:1254   */\n      dup4\n        /* \"#utility.yul\":1236:1243   */\n      dup6\n        /* \"#utility.yul\":1232:1255   */\n      sub\n        /* \"#utility.yul\":1228:1260   */\n      slt\n        /* \"#utility.yul\":1225:1277   */\n      iszero\n      tag_248\n      jumpi\n        /* \"#utility.yul\":1273:1274   */\n      0x00\n        /* \"#utility.yul\":1270:1271   */\n      dup1\n        /* \"#utility.yul\":1263:1275   */\n      revert\n        /* \"#utility.yul\":1225:1277   */\n    tag_248:\n        /* \"#utility.yul\":1296:1325   */\n      tag_249\n        /* \"#utility.yul\":1315:1324   */\n      dup4\n        /* \"#utility.yul\":1296:1325   */\n      tag_231\n      jump\t// in\n    tag_249:\n        /* \"#utility.yul\":1286:1325   */\n      swap5\n        /* \"#utility.yul\":1372:1374   */\n      0x20\n        /* \"#utility.yul\":1357:1375   */\n      swap4\n      swap1\n      swap4\n      add\n        /* \"#utility.yul\":1344:1376   */\n      calldataload\n      swap4\n      pop\n      pop\n      pop\n        /* \"#utility.yul\":1128:1382   */\n      jump\t// out\n        /* \"#utility.yul\":1569:1897   */\n    tag_44:\n        /* \"#utility.yul\":1646:1652   */\n      0x00\n        /* \"#utility.yul\":1654:1660   */\n      dup1\n        /* \"#utility.yul\":1662:1668   */\n      0x00\n        /* \"#utility.yul\":1715:1717   */\n      0x60\n        /* \"#utility.yul\":1703:1712   */\n      dup5\n        /* \"#utility.yul\":1694:1701   */\n      dup7\n        /* \"#utility.yul\":1690:1713   */\n      sub\n        /* \"#utility.yul\":1686:1718   */\n      slt\n        /* \"#utility.yul\":1683:1735   */\n      iszero\n      tag_252\n      jumpi\n        /* \"#utility.yul\":1731:1732   */\n      0x00\n        /* \"#utility.yul\":1728:1729   */\n      dup1\n        /* \"#utility.yul\":1721:1733   */\n      revert\n        /* \"#utility.yul\":1683:1735   */\n    tag_252:\n        /* \"#utility.yul\":1754:1783   */\n      tag_253\n        /* \"#utility.yul\":1773:1782   */\n      dup5\n        /* \"#utility.yul\":1754:1783   */\n      tag_231\n      jump\t// in\n    tag_253:\n        /* \"#utility.yul\":1744:1783   */\n      swap3\n      pop\n        /* \"#utility.yul\":1802:1840   */\n      tag_254\n        /* \"#utility.yul\":1836:1838   */\n      0x20\n        /* \"#utility.yul\":1825:1834   */\n      dup6\n        /* \"#utility.yul\":1821:1839   */\n      add\n        /* \"#utility.yul\":1802:1840   */\n      tag_231\n      jump\t// in\n    tag_254:\n        /* \"#utility.yul\":1792:1840   */\n      swap2\n      pop\n        /* \"#utility.yul\":1887:1889   */\n      0x40\n        /* \"#utility.yul\":1876:1885   */\n      dup5\n        /* \"#utility.yul\":1872:1890   */\n      add\n        /* \"#utility.yul\":1859:1891   */\n      calldataload\n        /* \"#utility.yul\":1849:1891   */\n      swap1\n      pop\n        /* \"#utility.yul\":1569:1897   */\n      swap3\n      pop\n      swap3\n      pop\n      swap3\n      jump\t// out\n        /* \"#utility.yul\":2091:2218   */\n    tag_232:\n        /* \"#utility.yul\":2152:2162   */\n      0x4e487b71\n        /* \"#utility.yul\":2147:2150   */\n      0xe0\n        /* \"#utility.yul\":2143:2163   */\n      shl\n        /* \"#utility.yul\":2140:2141   */\n      0x00\n        /* \"#utility.yul\":2133:2164   */\n      mstore\n        /* \"#utility.yul\":2183:2187   */\n      0x41\n        /* \"#utility.yul\":2180:2181   */\n      0x04\n        /* \"#utility.yul\":2173:2188   */\n      mstore\n        /* \"#utility.yul\":2207:2211   */\n      0x24\n        /* \"#utility.yul\":2204:2205   */\n      0x00\n        /* \"#utility.yul\":2197:2212   */\n      revert\n        /* \"#utility.yul\":2223:2498   */\n    tag_233:\n        /* \"#utility.yul\":2294:2296   */\n      0x40\n        /* \"#utility.yul\":2288:2297   */\n      mload\n        /* \"#utility.yul\":2359:2361   */\n      0x1f\n        /* \"#utility.yul\":2340:2353   */\n      dup3\n      add\n      not(0x1f)\n        /* \"#utility.yul\":2336:2363   */\n      and\n        /* \"#utility.yul\":2324:2364   */\n      dup2\n      add\n        /* \"#utility.yul\":2394:2412   */\n      0xffffffffffffffff\n        /* \"#utility.yul\":2379:2413   */\n      dup2\n      gt\n        /* \"#utility.yul\":2415:2437   */\n      dup3\n      dup3\n      lt\n        /* \"#utility.yul\":2376:2438   */\n      or\n        /* \"#utility.yul\":2373:2461   */\n      iszero\n      tag_259\n      jumpi\n        /* \"#utility.yul\":2441:2459   */\n      tag_259\n      tag_232\n      jump\t// in\n    tag_259:\n        /* \"#utility.yul\":2477:2479   */\n      0x40\n        /* \"#utility.yul\":2470:2492   */\n      mstore\n        /* \"#utility.yul\":2223:2498   */\n      swap2\n      swap1\n      pop\n      jump\t// out\n        /* \"#utility.yul\":2503:2686   */\n    tag_234:\n        /* \"#utility.yul\":2563:2567   */\n      0x00\n        /* \"#utility.yul\":2596:2614   */\n      0xffffffffffffffff\n        /* \"#utility.yul\":2588:2594   */\n      dup3\n        /* \"#utility.yul\":2585:2615   */\n      gt\n        /* \"#utility.yul\":2582:2638   */\n      iszero\n      tag_262\n      jumpi\n        /* \"#utility.yul\":2618:2636   */\n      tag_262\n      tag_232\n      jump\t// in\n    tag_262:\n      pop\n        /* \"#utility.yul\":2663:2664   */\n      0x05\n        /* \"#utility.yul\":2659:2673   */\n      shl\n        /* \"#utility.yul\":2675:2679   */\n      0x20\n        /* \"#utility.yul\":2655:2680   */\n      add\n      swap1\n        /* \"#utility.yul\":2503:2686   */\n      jump\t// out\n        /* \"#utility.yul\":2691:3359   */\n    tag_235:\n        /* \"#utility.yul\":2745:2750   */\n      0x00\n        /* \"#utility.yul\":2798:2801   */\n      dup3\n        /* \"#utility.yul\":2791:2795   */\n      0x1f\n        /* \"#utility.yul\":2783:2789   */\n      dup4\n        /* \"#utility.yul\":2779:2796   */\n      add\n        /* \"#utility.yul\":2775:2802   */\n      slt\n        /* \"#utility.yul\":2765:2820   */\n      tag_264\n      jumpi\n        /* \"#utility.yul\":2816:2817   */\n      0x00\n        /* \"#utility.yul\":2813:2814   */\n      dup1\n        /* \"#utility.yul\":2806:2818   */\n      revert\n        /* \"#utility.yul\":2765:2820   */\n    tag_264:\n        /* \"#utility.yul\":2852:2858   */\n      dup2\n        /* \"#utility.yul\":2839:2859   */\n      calldataload\n        /* \"#utility.yul\":2878:2882   */\n      0x20\n        /* \"#utility.yul\":2902:2962   */\n      tag_265\n        /* \"#utility.yul\":2918:2961   */\n      tag_266\n        /* \"#utility.yul\":2958:2960   */\n      dup4\n        /* \"#utility.yul\":2918:2961   */\n      tag_234\n      jump\t// in\n    tag_266:\n        /* \"#utility.yul\":2902:2962   */\n      tag_233\n      jump\t// in\n    tag_265:\n        /* \"#utility.yul\":2984:2987   */\n      dup1\n        /* \"#utility.yul\":3008:3010   */\n      dup4\n        /* \"#utility.yul\":3003:3006   */\n      dup3\n        /* \"#utility.yul\":2996:3011   */\n      mstore\n        /* \"#utility.yul\":3036:3040   */\n      0x20\n        /* \"#utility.yul\":3031:3034   */\n      dup3\n        /* \"#utility.yul\":3027:3041   */\n      add\n        /* \"#utility.yul\":3020:3041   */\n      swap2\n      pop\n        /* \"#utility.yul\":3093:3097   */\n      0x20\n        /* \"#utility.yul\":3087:3089   */\n      dup5\n        /* \"#utility.yul\":3084:3085   */\n      0x05\n        /* \"#utility.yul\":3080:3090   */\n      shl\n        /* \"#utility.yul\":3072:3078   */\n      dup8\n        /* \"#utility.yul\":3068:3091   */\n      add\n        /* \"#utility.yul\":3064:3098   */\n      add\n        /* \"#utility.yul\":3050:3098   */\n      swap4\n      pop\n        /* \"#utility.yul\":3121:3124   */\n      dup7\n        /* \"#utility.yul\":3113:3119   */\n      dup5\n        /* \"#utility.yul\":3110:3125   */\n      gt\n        /* \"#utility.yul\":3107:3142   */\n      iszero\n      tag_267\n      jumpi\n        /* \"#utility.yul\":3138:3139   */\n      0x00\n        /* \"#utility.yul\":3135:3136   */\n      dup1\n        /* \"#utility.yul\":3128:3140   */\n      revert\n        /* \"#utility.yul\":3107:3142   */\n    tag_267:\n        /* \"#utility.yul\":3174:3178   */\n      0x20\n        /* \"#utility.yul\":3166:3172   */\n      dup7\n        /* \"#utility.yul\":3162:3179   */\n      add\n        /* \"#utility.yul\":3188:3330   */\n    tag_268:\n        /* \"#utility.yul\":3204:3210   */\n      dup5\n        /* \"#utility.yul\":3199:3202   */\n      dup2\n        /* \"#utility.yul\":3196:3211   */\n      lt\n        /* \"#utility.yul\":3188:3330   */\n      iszero\n      tag_270\n      jumpi\n        /* \"#utility.yul\":3270:3287   */\n      dup1\n      calldataload\n        /* \"#utility.yul\":3258:3288   */\n      dup4\n      mstore\n        /* \"#utility.yul\":3308:3320   */\n      swap2\n      dup4\n      add\n      swap2\n        /* \"#utility.yul\":3221:3233   */\n      dup4\n      add\n        /* \"#utility.yul\":3188:3330   */\n      jump(tag_268)\n    tag_270:\n      pop\n        /* \"#utility.yul\":3348:3353   */\n      swap7\n        /* \"#utility.yul\":2691:3359   */\n      swap6\n      pop\n      pop\n      pop\n      pop\n      pop\n      pop\n      jump\t// out\n        /* \"#utility.yul\":3364:4510   */\n    tag_53:\n        /* \"#utility.yul\":3482:3488   */\n      0x00\n        /* \"#utility.yul\":3490:3496   */\n      dup1\n        /* \"#utility.yul\":3543:3545   */\n      0x40\n        /* \"#utility.yul\":3531:3540   */\n      dup4\n        /* \"#utility.yul\":3522:3529   */\n      dup6\n        /* \"#utility.yul\":3518:3541   */\n      sub\n        /* \"#utility.yul\":3514:3546   */\n      slt\n        /* \"#utility.yul\":3511:3563   */\n      iszero\n      tag_272\n      jumpi\n        /* \"#utility.yul\":3559:3560   */\n      0x00\n        /* \"#utility.yul\":3556:3557   */\n      dup1\n        /* \"#utility.yul\":3549:3561   */\n      revert\n        /* \"#utility.yul\":3511:3563   */\n    tag_272:\n        /* \"#utility.yul\":3599:3608   */\n      dup3\n        /* \"#utility.yul\":3586:3609   */\n      calldataload\n        /* \"#utility.yul\":3628:3646   */\n      0xffffffffffffffff\n        /* \"#utility.yul\":3669:3671   */\n      dup1\n        /* \"#utility.yul\":3661:3667   */\n      dup3\n        /* \"#utility.yul\":3658:3672   */\n      gt\n        /* \"#utility.yul\":3655:3689   */\n      iszero\n      tag_273\n      jumpi\n        /* \"#utility.yul\":3685:3686   */\n      0x00\n        /* \"#utility.yul\":3682:3683   */\n      dup1\n        /* \"#utility.yul\":3675:3687   */\n      revert\n        /* \"#utility.yul\":3655:3689   */\n    tag_273:\n        /* \"#utility.yul\":3723:3729   */\n      dup2\n        /* \"#utility.yul\":3712:3721   */\n      dup6\n        /* \"#utility.yul\":3708:3730   */\n      add\n        /* \"#utility.yul\":3698:3730   */\n      swap2\n      pop\n        /* \"#utility.yul\":3768:3775   */\n      dup6\n        /* \"#utility.yul\":3761:3765   */\n      0x1f\n        /* \"#utility.yul\":3757:3759   */\n      dup4\n        /* \"#utility.yul\":3753:3766   */\n      add\n        /* \"#utility.yul\":3749:3776   */\n      slt\n        /* \"#utility.yul\":3739:3794   */\n      tag_274\n      jumpi\n        /* \"#utility.yul\":3790:3791   */\n      0x00\n        /* \"#utility.yul\":3787:3788   */\n      dup1\n        /* \"#utility.yul\":3780:3792   */\n      revert\n        /* \"#utility.yul\":3739:3794   */\n    tag_274:\n        /* \"#utility.yul\":3826:3828   */\n      dup2\n        /* \"#utility.yul\":3813:3829   */\n      calldataload\n        /* \"#utility.yul\":3848:3852   */\n      0x20\n        /* \"#utility.yul\":3872:3932   */\n      tag_275\n        /* \"#utility.yul\":3888:3931   */\n      tag_266\n        /* \"#utility.yul\":3928:3930   */\n      dup4\n        /* \"#utility.yul\":3888:3931   */\n      tag_234\n      jump\t// in\n        /* \"#utility.yul\":3872:3932   */\n    tag_275:\n        /* \"#utility.yul\":3966:3981   */\n      dup3\n      dup2\n      mstore\n        /* \"#utility.yul\":4048:4049   */\n      0x05\n        /* \"#utility.yul\":4044:4054   */\n      swap3\n      swap1\n      swap3\n      shl\n        /* \"#utility.yul\":4036:4055   */\n      dup5\n      add\n        /* \"#utility.yul\":4032:4060   */\n      dup2\n      add\n      swap2\n        /* \"#utility.yul\":3997:4009   */\n      dup2\n      dup2\n      add\n      swap1\n        /* \"#utility.yul\":4072:4091   */\n      dup10\n      dup5\n      gt\n        /* \"#utility.yul\":4069:4108   */\n      iszero\n      tag_277\n      jumpi\n        /* \"#utility.yul\":4104:4105   */\n      0x00\n        /* \"#utility.yul\":4101:4102   */\n      dup1\n        /* \"#utility.yul\":4094:4106   */\n      revert\n        /* \"#utility.yul\":4069:4108   */\n    tag_277:\n        /* \"#utility.yul\":4128:4139   */\n      swap5\n      dup3\n      add\n      swap5\n        /* \"#utility.yul\":4148:4296   */\n    tag_278:\n        /* \"#utility.yul\":4164:4170   */\n      dup4\n        /* \"#utility.yul\":4159:4162   */\n      dup7\n        /* \"#utility.yul\":4156:4171   */\n      lt\n        /* \"#utility.yul\":4148:4296   */\n      iszero\n      tag_280\n      jumpi\n        /* \"#utility.yul\":4230:4253   */\n      tag_281\n        /* \"#utility.yul\":4249:4252   */\n      dup7\n        /* \"#utility.yul\":4230:4253   */\n      tag_231\n      jump\t// in\n    tag_281:\n        /* \"#utility.yul\":4218:4254   */\n      dup3\n      mstore\n        /* \"#utility.yul\":4181:4193   */\n      swap5\n      dup3\n      add\n      swap5\n        /* \"#utility.yul\":4274:4286   */\n      swap1\n      dup3\n      add\n      swap1\n        /* \"#utility.yul\":4148:4296   */\n      jump(tag_278)\n    tag_280:\n        /* \"#utility.yul\":4315:4320   */\n      swap7\n      pop\n      pop\n        /* \"#utility.yul\":4358:4376   */\n      dup7\n      add\n        /* \"#utility.yul\":4345:4377   */\n      calldataload\n      swap3\n      pop\n      pop\n        /* \"#utility.yul\":4389:4405   */\n      dup1\n      dup3\n      gt\n        /* \"#utility.yul\":4386:4422   */\n      iszero\n      tag_282\n      jumpi\n        /* \"#utility.yul\":4418:4419   */\n      0x00\n        /* \"#utility.yul\":4415:4416   */\n      dup1\n        /* \"#utility.yul\":4408:4420   */\n      revert\n        /* \"#utility.yul\":4386:4422   */\n    tag_282:\n      pop\n        /* \"#utility.yul\":4441:4504   */\n      tag_283\n        /* \"#utility.yul\":4496:4503   */\n      dup6\n        /* \"#utility.yul\":4485:4493   */\n      dup3\n        /* \"#utility.yul\":4474:4483   */\n      dup7\n        /* \"#utility.yul\":4470:4494   */\n      add\n        /* \"#utility.yul\":4441:4504   */\n      tag_235\n      jump\t// in\n    tag_283:\n        /* \"#utility.yul\":4431:4504   */\n      swap2\n      pop\n      pop\n        /* \"#utility.yul\":3364:4510   */\n      swap3\n      pop\n      swap3\n      swap1\n      pop\n      jump\t// out\n        /* \"#utility.yul\":4723:4983   */\n    tag_78:\n        /* \"#utility.yul\":4791:4797   */\n      0x00\n        /* \"#utility.yul\":4799:4805   */\n      dup1\n        /* \"#utility.yul\":4852:4854   */\n      0x40\n        /* \"#utility.yul\":4840:4849   */\n      dup4\n        /* \"#utility.yul\":4831:4838   */\n      dup6\n        /* \"#utility.yul\":4827:4850   */\n      sub\n        /* \"#utility.yul\":4823:4855   */\n      slt\n        /* \"#utility.yul\":4820:4872   */\n      iszero\n      tag_286\n      jumpi\n        /* \"#utility.yul\":4868:4869   */\n      0x00\n        /* \"#utility.yul\":4865:4866   */\n      dup1\n        /* \"#utility.yul\":4858:4870   */\n      revert\n        /* \"#utility.yul\":4820:4872   */\n    tag_286:\n        /* \"#utility.yul\":4891:4920   */\n      tag_287\n        /* \"#utility.yul\":4910:4919   */\n      dup4\n        /* \"#utility.yul\":4891:4920   */\n      tag_231\n      jump\t// in\n    tag_287:\n        /* \"#utility.yul\":4881:4920   */\n      swap2\n      pop\n        /* \"#utility.yul\":4939:4977   */\n      tag_288\n        /* \"#utility.yul\":4973:4975   */\n      0x20\n        /* \"#utility.yul\":4962:4971   */\n      dup5\n        /* \"#utility.yul\":4958:4976   */\n      add\n        /* \"#utility.yul\":4939:4977   */\n      tag_231\n      jump\t// in\n    tag_288:\n        /* \"#utility.yul\":4929:4977   */\n      swap1\n      pop\n        /* \"#utility.yul\":4723:4983   */\n      swap3\n      pop\n      swap3\n      swap1\n      pop\n      jump\t// out\n        /* \"#utility.yul\":4988:5368   */\n    tag_91:\n        /* \"#utility.yul\":5067:5068   */\n      0x01\n        /* \"#utility.yul\":5063:5075   */\n      dup2\n      dup2\n      shr\n      swap1\n        /* \"#utility.yul\":5110:5122   */\n      dup3\n      and\n      dup1\n        /* \"#utility.yul\":5131:5192   */\n      tag_290\n      jumpi\n        /* \"#utility.yul\":5185:5189   */\n      0x7f\n        /* \"#utility.yul\":5177:5183   */\n      dup3\n        /* \"#utility.yul\":5173:5190   */\n      and\n        /* \"#utility.yul\":5163:5190   */\n      swap2\n      pop\n        /* \"#utility.yul\":5131:5192   */\n    tag_290:\n        /* \"#utility.yul\":5238:5240   */\n      0x20\n        /* \"#utility.yul\":5230:5236   */\n      dup3\n        /* \"#utility.yul\":5227:5241   */\n      lt\n        /* \"#utility.yul\":5207:5225   */\n      dup2\n        /* \"#utility.yul\":5204:5242   */\n      sub\n        /* \"#utility.yul\":5201:5362   */\n      tag_291\n      jumpi\n        /* \"#utility.yul\":5284:5294   */\n      0x4e487b71\n        /* \"#utility.yul\":5279:5282   */\n      0xe0\n        /* \"#utility.yul\":5275:5295   */\n      shl\n        /* \"#utility.yul\":5272:5273   */\n      0x00\n        /* \"#utility.yul\":5265:5296   */\n      mstore\n        /* \"#utility.yul\":5319:5323   */\n      0x22\n        /* \"#utility.yul\":5316:5317   */\n      0x04\n        /* \"#utility.yul\":5309:5324   */\n      mstore\n        /* \"#utility.yul\":5347:5351   */\n      0x24\n        /* \"#utility.yul\":5344:5345   */\n      0x00\n        /* \"#utility.yul\":5337:5352   */\n      revert\n        /* \"#utility.yul\":5201:5362   */\n    tag_291:\n      pop\n        /* \"#utility.yul\":4988:5368   */\n      swap2\n      swap1\n      pop\n      jump\t// out\n        /* \"#utility.yul\":6065:6192   */\n    tag_122:\n        /* \"#utility.yul\":6126:6136   */\n      0x4e487b71\n        /* \"#utility.yul\":6121:6124   */\n      0xe0\n        /* \"#utility.yul\":6117:6137   */\n      shl\n        /* \"#utility.yul\":6114:6115   */\n      0x00\n        /* \"#utility.yul\":6107:6138   */\n      mstore\n        /* \"#utility.yul\":6157:6161   */\n      0x32\n        /* \"#utility.yul\":6154:6155   */\n      0x04\n        /* \"#utility.yul\":6147:6162   */\n      mstore\n        /* \"#utility.yul\":6181:6185   */\n      0x24\n        /* \"#utility.yul\":6178:6179   */\n      0x00\n        /* \"#utility.yul\":6171:6186   */\n      revert\n        /* \"#utility.yul\":6197:6381   */\n    tag_154:\n        /* \"#utility.yul\":6267:6273   */\n      0x00\n        /* \"#utility.yul\":6320:6322   */\n      0x20\n        /* \"#utility.yul\":6308:6317   */\n      dup3\n        /* \"#utility.yul\":6299:6306   */\n      dup5\n        /* \"#utility.yul\":6295:6318   */\n      sub\n        /* \"#utility.yul\":6291:6323   */\n      slt\n        /* \"#utility.yul\":6288:6340   */\n      iszero\n      tag_296\n      jumpi\n        /* \"#utility.yul\":6336:6337   */\n      0x00\n        /* \"#utility.yul\":6333:6334   */\n      dup1\n        /* \"#utility.yul\":6326:6338   */\n      revert\n        /* \"#utility.yul\":6288:6340   */\n    tag_296:\n      pop\n        /* \"#utility.yul\":6359:6375   */\n      mload\n      swap2\n        /* \"#utility.yul\":6197:6381   */\n      swap1\n      pop\n      jump\t// out\n        /* \"#utility.yul\":7010:7287   */\n    tag_168:\n        /* \"#utility.yul\":7077:7083   */\n      0x00\n        /* \"#utility.yul\":7130:7132   */\n      0x20\n        /* \"#utility.yul\":7118:7127   */\n      dup3\n        /* \"#utility.yul\":7109:7116   */\n      dup5\n        /* \"#utility.yul\":7105:7128   */\n      sub\n        /* \"#utility.yul\":7101:7133   */\n      slt\n        /* \"#utility.yul\":7098:7150   */\n      iszero\n      tag_300\n      jumpi\n        /* \"#utility.yul\":7146:7147   */\n      0x00\n        /* \"#utility.yul\":7143:7144   */\n      dup1\n        /* \"#utility.yul\":7136:7148   */\n      revert\n        /* \"#utility.yul\":7098:7150   */\n    tag_300:\n        /* \"#utility.yul\":7178:7187   */\n      dup2\n        /* \"#utility.yul\":7172:7188   */\n      mload\n        /* \"#utility.yul\":7231:7236   */\n      dup1\n        /* \"#utility.yul\":7224:7237   */\n      iszero\n        /* \"#utility.yul\":7217:7238   */\n      iszero\n        /* \"#utility.yul\":7210:7215   */\n      dup2\n        /* \"#utility.yul\":7207:7239   */\n      eq\n        /* \"#utility.yul\":7197:7257   */\n      tag_241\n      jumpi\n        /* \"#utility.yul\":7253:7254   */\n      0x00\n        /* \"#utility.yul\":7250:7251   */\n      dup1\n        /* \"#utility.yul\":7243:7255   */\n      revert\n        /* \"#utility.yul\":8002:8224   */\n    tag_202:\n        /* \"#utility.yul\":8067:8076   */\n      dup1\n      dup3\n      add\n        /* \"#utility.yul\":8088:8098   */\n      dup1\n      dup3\n      gt\n        /* \"#utility.yul\":8085:8218   */\n      iszero\n      tag_96\n      jumpi\n        /* \"#utility.yul\":8140:8150   */\n      0x4e487b71\n        /* \"#utility.yul\":8135:8138   */\n      0xe0\n        /* \"#utility.yul\":8131:8151   */\n      shl\n        /* \"#utility.yul\":8128:8129   */\n      0x00\n        /* \"#utility.yul\":8121:8152   */\n      mstore\n        /* \"#utility.yul\":8175:8179   */\n      0x11\n        /* \"#utility.yul\":8172:8173   */\n      0x04\n        /* \"#utility.yul\":8165:8180   */\n      mstore\n        /* \"#utility.yul\":8203:8207   */\n      0x24\n        /* \"#utility.yul\":8200:8201   */\n      0x00\n        /* \"#utility.yul\":8193:8208   */\n      revert\n\n    auxdata: 0xa2646970667358221220745bfd9fb58da14a36f7c42528c5a92492ad8cb7a8eb31434c1020ceed8fb64764736f6c63430008190033\n}\n",
				"bytecode": {
					"linkReferences": {},
					"object": "608060405234801561001057600080fd5b506040516114d03803806114d083398101604081905261002f916102a5565b60408051808201825260038082526244424960e81b6020808401829052845180860190955291845290830152829160056100698382610376565b5060066100768282610376565b5050600780546001600160a01b03191633179055506001600160a01b0381166100ba57604051631e4fbdf760e01b8152600060048201526024015b60405180910390fd5b6100c3816100ef565b506100e9336100d46012600a610531565b6100e4906501d73fcd1000610540565b610141565b5061056a565b600880546001600160a01b038381166001600160a01b0319831681179093556040519116919082907f8be0079c531659141344cd1fd0a4f28419497f9722a3daafe3b4186f6b6457e090600090a35050565b6001600160a01b03821661016b5760405163ec442f0560e01b8152600060048201526024016100b1565b6101776000838361017b565b5050565b6001600160a01b0383166101a657806004600082825461019b9190610557565b909155506102189050565b6001600160a01b038316600090815260208190526040902054818110156101f95760405163391434e360e21b81526001600160a01b038516600482015260248101829052604481018390526064016100b1565b6001600160a01b03841660009081526020819052604090209082900390555b6001600160a01b03821661023457600480548290039055610253565b6001600160a01b03821660009081526020819052604090208054820190555b816001600160a01b0316836001600160a01b03167fddf252ad1be2c89b69c2b068fc378daa952ba7f163c4a11628f55a4df523b3ef8360405161029891815260200190565b60405180910390a3505050565b6000602082840312156102b757600080fd5b81516001600160a01b03811681146102ce57600080fd5b9392505050565b634e487b7160e01b600052604160045260246000fd5b600181811c908216806102ff57607f821691505b60208210810361031f57634e487b7160e01b600052602260045260246000fd5b50919050565b601f821115610371576000816000526020600020601f850160051c8101602086101561034e5750805b601f850160051c820191505b8181101561036d5782815560010161035a565b5050505b505050565b81516001600160401b0381111561038f5761038f6102d5565b6103a38161039d84546102eb565b84610325565b602080601f8311600181146103d857600084156103c05750858301515b600019600386901b1c1916600185901b17855561036d565b600085815260208120601f198616915b82811015610407578886015182559484019460019091019084016103e8565b50858210156104255787850151600019600388901b60f8161c191681555b5050505050600190811b01905550565b634e487b7160e01b600052601160045260246000fd5b600181815b8085111561048657816000190482111561046c5761046c610435565b8085161561047957918102915b93841c9390800290610450565b509250929050565b60008261049d5750600161052b565b816104aa5750600061052b565b81600181146104c057600281146104ca576104e6565b600191505061052b565b60ff8411156104db576104db610435565b50506001821b61052b565b5060208310610133831016604e8410600b8410161715610509575081810a61052b565b610513838361044b565b806000190482111561052757610527610435565b0290505b92915050565b60006102ce60ff84168361048e565b808202811582820484141761052b5761052b610435565b8082018082111561052b5761052b610435565b610f57806105796000396000f3fe608060405234801561001057600080fd5b506004361061010b5760003560e01c8063715018a6116100a2578063a9059cbb11610071578063a9059cbb1461022d578063dd62ed3e14610240578063e083e92214610279578063f2fde38b1461028c578063f5648a4f1461029f57600080fd5b8063715018a6146101e25780638da5cb5b146101ea57806395d89b41146102055780639b9f7c841461020d57600080fd5b806323b872dd116100de57806323b872dd14610182578063313ce5671461019557806367243482146101a457806370a08231146101b957600080fd5b80630650655c1461011057806306fdde0314610148578063095ea7b31461015d57806318160ddd14610170575b600080fd5b61013361011e366004610bd1565b60026020526000908152604090205460ff1681565b60405190151581526020015b60405180910390f35b6101506102a7565b60405161013f9190610bf3565b61013361016b366004610c42565b610339565b6004545b60405190815260200161013f565b610133610190366004610c6c565b610353565b6040516012815260200161013f565b6101b76101b2366004610d82565b610377565b005b6101746101c7366004610bd1565b6001600160a01b031660009081526020819052604090205490565b6101b76104f7565b6008546040516001600160a01b03909116815260200161013f565b61015061050b565b61017461021b366004610bd1565b60036020526000908152604090205481565b61013361023b366004610c42565b61051a565b61017461024e366004610e42565b6001600160a01b03918216600090815260016020908152604080832093909416825291909152205490565b6101b7610287366004610bd1565b610528565b6101b761029a366004610bd1565b6106d7565b6101b7610715565b6060600580546102b690610e75565b80601f01602080910402602001604051908101604052809291908181526020018280546102e290610e75565b801561032f5780601f106103045761010080835404028352916020019161032f565b820191906000526020600020905b81548152906001019060200180831161031257829003601f168201915b5050505050905090565b6000336103478185856107a6565b60019150505b92915050565b6000336103618582856107b3565b61036c858585610831565b506001949350505050565b80518251146103c65760405162461bcd60e51b8152602060048201526016602482015275082e4e4c2f2e640d8cadccee8d040dad2e6dac2e8c6d60531b60448201526064015b60405180910390fd5b6007546001600160a01b0316331461040f5760405162461bcd60e51b815260206004820152600c60248201526b2737ba1030b71027bbb732b960a11b60448201526064016103bd565b60005b82518110156104f2576104583384838151811061043157610431610eaf565b602002602001015184848151811061044b5761044b610eaf565b6020026020010151610831565b60016002600085848151811061047057610470610eaf565b60200260200101516001600160a01b03166001600160a01b0316815260200190815260200160002060006101000a81548160ff02191690831515021790555042600360008584815181106104c6576104c6610eaf565b6020908102919091018101516001600160a01b0316825281019190915260400160002055600101610412565b505050565b6104ff610937565b6105096000610964565b565b6060600680546102b690610e75565b600033610347818585610831565b610530610937565b6040516370a0823160e01b81523060048201526000906001600160a01b038316906370a0823190602401602060405180830381865afa158015610577573d6000803e3d6000fd5b505050506040513d601f19601f8201168201806040525081019061059b9190610ec5565b116105db5760405162461bcd60e51b815260206004820152601060248201526f043616e277420776974686472617720360841b60448201526064016103bd565b806001600160a01b031663a9059cbb6105fc6008546001600160a01b031690565b6040516370a0823160e01b81523060048201526001600160a01b038516906370a0823190602401602060405180830381865afa158015610640573d6000803e3d6000fd5b505050506040513d601f19601f820116820180604052508101906106649190610ec5565b6040516001600160e01b031960e085901b1681526001600160a01b03909216600483015260248201526044016020604051808303816000875af11580156106af573d6000803e3d6000fd5b505050506040513d601f19601f820116820180604052508101906106d39190610ede565b5050565b6106df610937565b6001600160a01b03811661070957604051631e4fbdf760e01b8152600060048201526024016103bd565b61071281610964565b50565b61071d610937565b6000471161076d5760405162461bcd60e51b815260206004820152601f60248201527f43616e2774207769746864726177206e65676174697665206f72207a65726f0060448201526064016103bd565b6008546040516001600160a01b03909116904780156108fc02916000818181858888f19350505050158015610712573d6000803e3d6000fd5b6104f283838360016109b6565b6001600160a01b03838116600090815260016020908152604080832093861683529290522054600019811461082b578181101561081c57604051637dc7a0d960e11b81526001600160a01b038416600482015260248101829052604481018390526064016103bd565b61082b848484840360006109b6565b50505050565b6001600160a01b03831661085b57604051634b637e8f60e11b8152600060048201526024016103bd565b6001600160a01b0382166108855760405163ec442f0560e01b8152600060048201526024016103bd565b6001600160a01b03831660009081526002602052604090205460ff161561092c576001600160a01b0383166000908152600360205260409020546108ca9060f0610f00565b42101561092c5760405162461bcd60e51b815260206004820152602a60248201527f41697264726f7070656420746f6b656e7320617265206c6f636b65642074696c6044820152696c20323430206461797360b01b60648201526084016103bd565b6104f2838383610a8b565b6008546001600160a01b031633146105095760405163118cdaa760e01b81523360048201526024016103bd565b600880546001600160a01b038381166001600160a01b0319831681179093556040519116919082907f8be0079c531659141344cd1fd0a4f28419497f9722a3daafe3b4186f6b6457e090600090a35050565b6001600160a01b0384166109e05760405163e602df0560e01b8152600060048201526024016103bd565b6001600160a01b038316610a0a57604051634a1406b160e11b8152600060048201526024016103bd565b6001600160a01b038085166000908152600160209081526040808320938716835292905220829055801561082b57826001600160a01b0316846001600160a01b03167f8c5be1e5ebec7d5bd14f71427d1e84f3dd0314c0f7b2291e5b200ac8c7c3b92584604051610a7d91815260200190565b60405180910390a350505050565b6001600160a01b038316610ab6578060046000828254610aab9190610f00565b90915550610b289050565b6001600160a01b03831660009081526020819052604090205481811015610b095760405163391434e360e21b81526001600160a01b038516600482015260248101829052604481018390526064016103bd565b6001600160a01b03841660009081526020819052604090209082900390555b6001600160a01b038216610b4457600480548290039055610b63565b6001600160a01b03821660009081526020819052604090208054820190555b816001600160a01b0316836001600160a01b03167fddf252ad1be2c89b69c2b068fc378daa952ba7f163c4a11628f55a4df523b3ef83604051610ba891815260200190565b60405180910390a3505050565b80356001600160a01b0381168114610bcc57600080fd5b919050565b600060208284031215610be357600080fd5b610bec82610bb5565b9392505050565b60006020808352835180602085015260005b81811015610c2157858101830151858201604001528201610c05565b506000604082860101526040601f19601f8301168501019250505092915050565b60008060408385031215610c5557600080fd5b610c5e83610bb5565b946020939093013593505050565b600080600060608486031215610c8157600080fd5b610c8a84610bb5565b9250610c9860208501610bb5565b9150604084013590509250925092565b634e487b7160e01b600052604160045260246000fd5b604051601f8201601f1916810167ffffffffffffffff81118282101715610ce757610ce7610ca8565b604052919050565b600067ffffffffffffffff821115610d0957610d09610ca8565b5060051b60200190565b600082601f830112610d2457600080fd5b81356020610d39610d3483610cef565b610cbe565b8083825260208201915060208460051b870101935086841115610d5b57600080fd5b602086015b84811015610d775780358352918301918301610d60565b509695505050505050565b60008060408385031215610d9557600080fd5b823567ffffffffffffffff80821115610dad57600080fd5b818501915085601f830112610dc157600080fd5b81356020610dd1610d3483610cef565b82815260059290921b84018101918181019089841115610df057600080fd5b948201945b83861015610e1557610e0686610bb5565b82529482019490820190610df5565b96505086013592505080821115610e2b57600080fd5b50610e3885828601610d13565b9150509250929050565b60008060408385031215610e5557600080fd5b610e5e83610bb5565b9150610e6c60208401610bb5565b90509250929050565b600181811c90821680610e8957607f821691505b602082108103610ea957634e487b7160e01b600052602260045260246000fd5b50919050565b634e487b7160e01b600052603260045260246000fd5b600060208284031215610ed757600080fd5b5051919050565b600060208284031215610ef057600080fd5b81518015158114610bec57600080fd5b8082018082111561034d57634e487b7160e01b600052601160045260246000fdfea2646970667358221220745bfd9fb58da14a36f7c42528c5a92492ad8cb7a8eb31434c1020ceed8fb64764736f6c63430008190033",
					"opcodes": "PUSH1 0x80 PUSH1 0x40 MSTORE CALLVALUE DUP1 ISZERO PUSH2 0x10 JUMPI PUSH1 0x0 DUP1 REVERT JUMPDEST POP PUSH1 0x40 MLOAD PUSH2 0x14D0 CODESIZE SUB DUP1 PUSH2 0x14D0 DUP4 CODECOPY DUP2 ADD PUSH1 0x40 DUP2 SWAP1 MSTORE PUSH2 0x2F SWAP2 PUSH2 0x2A5 JUMP JUMPDEST PUSH1 0x40 DUP1 MLOAD DUP1 DUP3 ADD DUP3 MSTORE PUSH1 0x3 DUP1 DUP3 MSTORE PUSH3 0x444249 PUSH1 0xE8 SHL PUSH1 0x20 DUP1 DUP5 ADD DUP3 SWAP1 MSTORE DUP5 MLOAD DUP1 DUP7 ADD SWAP1 SWAP6 MSTORE SWAP2 DUP5 MSTORE SWAP1 DUP4 ADD MSTORE DUP3 SWAP2 PUSH1 0x5 PUSH2 0x69 DUP4 DUP3 PUSH2 0x376 JUMP JUMPDEST POP PUSH1 0x6 PUSH2 0x76 DUP3 DUP3 PUSH2 0x376 JUMP JUMPDEST POP POP PUSH1 0x7 DUP1 SLOAD PUSH1 0x1 PUSH1 0x1 PUSH1 0xA0 SHL SUB NOT AND CALLER OR SWAP1 SSTORE POP PUSH1 0x1 PUSH1 0x1 PUSH1 0xA0 SHL SUB DUP2 AND PUSH2 0xBA JUMPI PUSH1 0x40 MLOAD PUSH4 0x1E4FBDF7 PUSH1 0xE0 SHL DUP2 MSTORE PUSH1 0x0 PUSH1 0x4 DUP3 ADD MSTORE PUSH1 0x24 ADD JUMPDEST PUSH1 0x40 MLOAD DUP1 SWAP2 SUB SWAP1 REVERT JUMPDEST PUSH2 0xC3 DUP2 PUSH2 0xEF JUMP JUMPDEST POP PUSH2 0xE9 CALLER PUSH2 0xD4 PUSH1 0x12 PUSH1 0xA PUSH2 0x531 JUMP JUMPDEST PUSH2 0xE4 SWAP1 PUSH6 0x1D73FCD1000 PUSH2 0x540 JUMP JUMPDEST PUSH2 0x141 JUMP JUMPDEST POP PUSH2 0x56A JUMP JUMPDEST PUSH1 0x8 DUP1 SLOAD PUSH1 0x1 PUSH1 0x1 PUSH1 0xA0 SHL SUB DUP4 DUP2 AND PUSH1 0x1 PUSH1 0x1 PUSH1 0xA0 SHL SUB NOT DUP4 AND DUP2 OR SWAP1 SWAP4 SSTORE PUSH1 0x40 MLOAD SWAP2 AND SWAP2 SWAP1 DUP3 SWAP1 PUSH32 0x8BE0079C531659141344CD1FD0A4F28419497F9722A3DAAFE3B4186F6B6457E0 SWAP1 PUSH1 0x0 SWAP1 LOG3 POP POP JUMP JUMPDEST PUSH1 0x1 PUSH1 0x1 PUSH1 0xA0 SHL SUB DUP3 AND PUSH2 0x16B JUMPI PUSH1 0x40 MLOAD PUSH4 0xEC442F05 PUSH1 0xE0 SHL DUP2 MSTORE PUSH1 0x0 PUSH1 0x4 DUP3 ADD MSTORE PUSH1 0x24 ADD PUSH2 0xB1 JUMP JUMPDEST PUSH2 0x177 PUSH1 0x0 DUP4 DUP4 PUSH2 0x17B JUMP JUMPDEST POP POP JUMP JUMPDEST PUSH1 0x1 PUSH1 0x1 PUSH1 0xA0 SHL SUB DUP4 AND PUSH2 0x1A6 JUMPI DUP1 PUSH1 0x4 PUSH1 0x0 DUP3 DUP3 SLOAD PUSH2 0x19B SWAP2 SWAP1 PUSH2 0x557 JUMP JUMPDEST SWAP1 SWAP2 SSTORE POP PUSH2 0x218 SWAP1 POP JUMP JUMPDEST PUSH1 0x1 PUSH1 0x1 PUSH1 0xA0 SHL SUB DUP4 AND PUSH1 0x0 SWAP1 DUP2 MSTORE PUSH1 0x20 DUP2 SWAP1 MSTORE PUSH1 0x40 SWAP1 KECCAK256 SLOAD DUP2 DUP2 LT ISZERO PUSH2 0x1F9 JUMPI PUSH1 0x40 MLOAD PUSH4 0x391434E3 PUSH1 0xE2 SHL DUP2 MSTORE PUSH1 0x1 PUSH1 0x1 PUSH1 0xA0 SHL SUB DUP6 AND PUSH1 0x4 DUP3 ADD MSTORE PUSH1 0x24 DUP2 ADD DUP3 SWAP1 MSTORE PUSH1 0x44 DUP2 ADD DUP4 SWAP1 MSTORE PUSH1 0x64 ADD PUSH2 0xB1 JUMP JUMPDEST PUSH1 0x1 PUSH1 0x1 PUSH1 0xA0 SHL SUB DUP5 AND PUSH1 0x0 SWAP1 DUP2 MSTORE PUSH1 0x20 DUP2 SWAP1 MSTORE PUSH1 0x40 SWAP1 KECCAK256 SWAP1 DUP3 SWAP1 SUB SWAP1 SSTORE JUMPDEST PUSH1 0x1 PUSH1 0x1 PUSH1 0xA0 SHL SUB DUP3 AND PUSH2 0x234 JUMPI PUSH1 0x4 DUP1 SLOAD DUP3 SWAP1 SUB SWAP1 SSTORE PUSH2 0x253 JUMP JUMPDEST PUSH1 0x1 PUSH1 0x1 PUSH1 0xA0 SHL SUB DUP3 AND PUSH1 0x0 SWAP1 DUP2 MSTORE PUSH1 0x20 DUP2 SWAP1 MSTORE PUSH1 0x40 SWAP1 KECCAK256 DUP1 SLOAD DUP3 ADD SWAP1 SSTORE JUMPDEST DUP2 PUSH1 0x1 PUSH1 0x1 PUSH1 0xA0 SHL SUB AND DUP4 PUSH1 0x1 PUSH1 0x1 PUSH1 0xA0 SHL SUB AND PUSH32 0xDDF252AD1BE2C89B69C2B068FC378DAA952BA7F163C4A11628F55A4DF523B3EF DUP4 PUSH1 0x40 MLOAD PUSH2 0x298 SWAP2 DUP2 MSTORE PUSH1 0x20 ADD SWAP1 JUMP JUMPDEST PUSH1 0x40 MLOAD DUP1 SWAP2 SUB SWAP1 LOG3 POP POP POP JUMP JUMPDEST PUSH1 0x0 PUSH1 0x20 DUP3 DUP5 SUB SLT ISZERO PUSH2 0x2B7 JUMPI PUSH1 0x0 DUP1 REVERT JUMPDEST DUP2 MLOAD PUSH1 0x1 PUSH1 0x1 PUSH1 0xA0 SHL SUB DUP2 AND DUP2 EQ PUSH2 0x2CE JUMPI PUSH1 0x0 DUP1 REVERT JUMPDEST SWAP4 SWAP3 POP POP POP JUMP JUMPDEST PUSH4 0x4E487B71 PUSH1 0xE0 SHL PUSH1 0x0 MSTORE PUSH1 0x41 PUSH1 0x4 MSTORE PUSH1 0x24 PUSH1 0x0 REVERT JUMPDEST PUSH1 0x1 DUP2 DUP2 SHR SWAP1 DUP3 AND DUP1 PUSH2 0x2FF JUMPI PUSH1 0x7F DUP3 AND SWAP2 POP JUMPDEST PUSH1 0x20 DUP3 LT DUP2 SUB PUSH2 0x31F JUMPI PUSH4 0x4E487B71 PUSH1 0xE0 SHL PUSH1 0x0 MSTORE PUSH1 0x22 PUSH1 0x4 MSTORE PUSH1 0x24 PUSH1 0x0 REVERT JUMPDEST POP SWAP2 SWAP1 POP JUMP JUMPDEST PUSH1 0x1F DUP3 GT ISZERO PUSH2 0x371 JUMPI PUSH1 0x0 DUP2 PUSH1 0x0 MSTORE PUSH1 0x20 PUSH1 0x0 KECCAK256 PUSH1 0x1F DUP6 ADD PUSH1 0x5 SHR DUP2 ADD PUSH1 0x20 DUP7 LT ISZERO PUSH2 0x34E JUMPI POP DUP1 JUMPDEST PUSH1 0x1F DUP6 ADD PUSH1 0x5 SHR DUP3 ADD SWAP2 POP JUMPDEST DUP2 DUP2 LT ISZERO PUSH2 0x36D JUMPI DUP3 DUP2 SSTORE PUSH1 0x1 ADD PUSH2 0x35A JUMP JUMPDEST POP POP POP JUMPDEST POP POP POP JUMP JUMPDEST DUP2 MLOAD PUSH1 0x1 PUSH1 0x1 PUSH1 0x40 SHL SUB DUP2 GT ISZERO PUSH2 0x38F JUMPI PUSH2 0x38F PUSH2 0x2D5 JUMP JUMPDEST PUSH2 0x3A3 DUP2 PUSH2 0x39D DUP5 SLOAD PUSH2 0x2EB JUMP JUMPDEST DUP5 PUSH2 0x325 JUMP JUMPDEST PUSH1 0x20 DUP1 PUSH1 0x1F DUP4 GT PUSH1 0x1 DUP2 EQ PUSH2 0x3D8 JUMPI PUSH1 0x0 DUP5 ISZERO PUSH2 0x3C0 JUMPI POP DUP6 DUP4 ADD MLOAD JUMPDEST PUSH1 0x0 NOT PUSH1 0x3 DUP7 SWAP1 SHL SHR NOT AND PUSH1 0x1 DUP6 SWAP1 SHL OR DUP6 SSTORE PUSH2 0x36D JUMP JUMPDEST PUSH1 0x0 DUP6 DUP2 MSTORE PUSH1 0x20 DUP2 KECCAK256 PUSH1 0x1F NOT DUP7 AND SWAP2 JUMPDEST DUP3 DUP2 LT ISZERO PUSH2 0x407 JUMPI DUP9 DUP7 ADD MLOAD DUP3 SSTORE SWAP5 DUP5 ADD SWAP5 PUSH1 0x1 SWAP1 SWAP2 ADD SWAP1 DUP5 ADD PUSH2 0x3E8 JUMP JUMPDEST POP DUP6 DUP3 LT ISZERO PUSH2 0x425 JUMPI DUP8 DUP6 ADD MLOAD PUSH1 0x0 NOT PUSH1 0x3 DUP9 SWAP1 SHL PUSH1 0xF8 AND SHR NOT AND DUP2 SSTORE JUMPDEST POP POP POP POP POP PUSH1 0x1 SWAP1 DUP2 SHL ADD SWAP1 SSTORE POP JUMP JUMPDEST PUSH4 0x4E487B71 PUSH1 0xE0 SHL PUSH1 0x0 MSTORE PUSH1 0x11 PUSH1 0x4 MSTORE PUSH1 0x24 PUSH1 0x0 REVERT JUMPDEST PUSH1 0x1 DUP2 DUP2 JUMPDEST DUP1 DUP6 GT ISZERO PUSH2 0x486 JUMPI DUP2 PUSH1 0x0 NOT DIV DUP3 GT ISZERO PUSH2 0x46C JUMPI PUSH2 0x46C PUSH2 0x435 JUMP JUMPDEST DUP1 DUP6 AND ISZERO PUSH2 0x479 JUMPI SWAP2 DUP2 MUL SWAP2 JUMPDEST SWAP4 DUP5 SHR SWAP4 SWAP1 DUP1 MUL SWAP1 PUSH2 0x450 JUMP JUMPDEST POP SWAP3 POP SWAP3 SWAP1 POP JUMP JUMPDEST PUSH1 0x0 DUP3 PUSH2 0x49D JUMPI POP PUSH1 0x1 PUSH2 0x52B JUMP JUMPDEST DUP2 PUSH2 0x4AA JUMPI POP PUSH1 0x0 PUSH2 0x52B JUMP JUMPDEST DUP2 PUSH1 0x1 DUP2 EQ PUSH2 0x4C0 JUMPI PUSH1 0x2 DUP2 EQ PUSH2 0x4CA JUMPI PUSH2 0x4E6 JUMP JUMPDEST PUSH1 0x1 SWAP2 POP POP PUSH2 0x52B JUMP JUMPDEST PUSH1 0xFF DUP5 GT ISZERO PUSH2 0x4DB JUMPI PUSH2 0x4DB PUSH2 0x435 JUMP JUMPDEST POP POP PUSH1 0x1 DUP3 SHL PUSH2 0x52B JUMP JUMPDEST POP PUSH1 0x20 DUP4 LT PUSH2 0x133 DUP4 LT AND PUSH1 0x4E DUP5 LT PUSH1 0xB DUP5 LT AND OR ISZERO PUSH2 0x509 JUMPI POP DUP2 DUP2 EXP PUSH2 0x52B JUMP JUMPDEST PUSH2 0x513 DUP4 DUP4 PUSH2 0x44B JUMP JUMPDEST DUP1 PUSH1 0x0 NOT DIV DUP3 GT ISZERO PUSH2 0x527 JUMPI PUSH2 0x527 PUSH2 0x435 JUMP JUMPDEST MUL SWAP1 POP JUMPDEST SWAP3 SWAP2 POP POP JUMP JUMPDEST PUSH1 0x0 PUSH2 0x2CE PUSH1 0xFF DUP5 AND DUP4 PUSH2 0x48E JUMP JUMPDEST DUP1 DUP3 MUL DUP2 ISZERO DUP3 DUP3 DIV DUP5 EQ OR PUSH2 0x52B JUMPI PUSH2 0x52B PUSH2 0x435 JUMP JUMPDEST DUP1 DUP3 ADD DUP1 DUP3 GT ISZERO PUSH2 0x52B JUMPI PUSH2 0x52B PUSH2 0x435 JUMP JUMPDEST PUSH2 0xF57 DUP1 PUSH2 0x579 PUSH1 0x0 CODECOPY PUSH1 0x0 RETURN INVALID PUSH1 0x80 PUSH1 0x40 MSTORE CALLVALUE DUP1 ISZERO PUSH2 0x10 JUMPI PUSH1 0x0 DUP1 REVERT JUMPDEST POP PUSH1 0x4 CALLDATASIZE LT PUSH2 0x10B JUMPI PUSH1 0x0 CALLDATALOAD PUSH1 0xE0 SHR DUP1 PUSH4 0x715018A6 GT PUSH2 0xA2 JUMPI DUP1 PUSH4 0xA9059CBB GT PUSH2 0x71 JUMPI DUP1 PUSH4 0xA9059CBB EQ PUSH2 0x22D JUMPI DUP1 PUSH4 0xDD62ED3E EQ PUSH2 0x240 JUMPI DUP1 PUSH4 0xE083E922 EQ PUSH2 0x279 JUMPI DUP1 PUSH4 0xF2FDE38B EQ PUSH2 0x28C JUMPI DUP1 PUSH4 0xF5648A4F EQ PUSH2 0x29F JUMPI PUSH1 0x0 DUP1 REVERT JUMPDEST DUP1 PUSH4 0x715018A6 EQ PUSH2 0x1E2 JUMPI DUP1 PUSH4 0x8DA5CB5B EQ PUSH2 0x1EA JUMPI DUP1 PUSH4 0x95D89B41 EQ PUSH2 0x205 JUMPI DUP1 PUSH4 0x9B9F7C84 EQ PUSH2 0x20D JUMPI PUSH1 0x0 DUP1 REVERT JUMPDEST DUP1 PUSH4 0x23B872DD GT PUSH2 0xDE JUMPI DUP1 PUSH4 0x23B872DD EQ PUSH2 0x182 JUMPI DUP1 PUSH4 0x313CE567 EQ PUSH2 0x195 JUMPI DUP1 PUSH4 0x67243482 EQ PUSH2 0x1A4 JUMPI DUP1 PUSH4 0x70A08231 EQ PUSH2 0x1B9 JUMPI PUSH1 0x0 DUP1 REVERT JUMPDEST DUP1 PUSH4 0x650655C EQ PUSH2 0x110 JUMPI DUP1 PUSH4 0x6FDDE03 EQ PUSH2 0x148 JUMPI DUP1 PUSH4 0x95EA7B3 EQ PUSH2 0x15D JUMPI DUP1 PUSH4 0x18160DDD EQ PUSH2 0x170 JUMPI JUMPDEST PUSH1 0x0 DUP1 REVERT JUMPDEST PUSH2 0x133 PUSH2 0x11E CALLDATASIZE PUSH1 0x4 PUSH2 0xBD1 JUMP JUMPDEST PUSH1 0x2 PUSH1 0x20 MSTORE PUSH1 0x0 SWAP1 DUP2 MSTORE PUSH1 0x40 SWAP1 KECCAK256 SLOAD PUSH1 0xFF AND DUP2 JUMP JUMPDEST PUSH1 0x40 MLOAD SWAP1 ISZERO ISZERO DUP2 MSTORE PUSH1 0x20 ADD JUMPDEST PUSH1 0x40 MLOAD DUP1 SWAP2 SUB SWAP1 RETURN JUMPDEST PUSH2 0x150 PUSH2 0x2A7 JUMP JUMPDEST PUSH1 0x40 MLOAD PUSH2 0x13F SWAP2 SWAP1 PUSH2 0xBF3 JUMP JUMPDEST PUSH2 0x133 PUSH2 0x16B CALLDATASIZE PUSH1 0x4 PUSH2 0xC42 JUMP JUMPDEST PUSH2 0x339 JUMP JUMPDEST PUSH1 0x4 SLOAD JUMPDEST PUSH1 0x40 MLOAD SWAP1 DUP2 MSTORE PUSH1 0x20 ADD PUSH2 0x13F JUMP JUMPDEST PUSH2 0x133 PUSH2 0x190 CALLDATASIZE PUSH1 0x4 PUSH2 0xC6C JUMP JUMPDEST PUSH2 0x353 JUMP JUMPDEST PUSH1 0x40 MLOAD PUSH1 0x12 DUP2 MSTORE PUSH1 0x20 ADD PUSH2 0x13F JUMP JUMPDEST PUSH2 0x1B7 PUSH2 0x1B2 CALLDATASIZE PUSH1 0x4 PUSH2 0xD82 JUMP JUMPDEST PUSH2 0x377 JUMP JUMPDEST STOP JUMPDEST PUSH2 0x174 PUSH2 0x1C7 CALLDATASIZE PUSH1 0x4 PUSH2 0xBD1 JUMP JUMPDEST PUSH1 0x1 PUSH1 0x1 PUSH1 0xA0 SHL SUB AND PUSH1 0x0 SWAP1 DUP2 MSTORE PUSH1 0x20 DUP2 SWAP1 MSTORE PUSH1 0x40 SWAP1 KECCAK256 SLOAD SWAP1 JUMP JUMPDEST PUSH2 0x1B7 PUSH2 0x4F7 JUMP JUMPDEST PUSH1 0x8 SLOAD PUSH1 0x40 MLOAD PUSH1 0x1 PUSH1 0x1 PUSH1 0xA0 SHL SUB SWAP1 SWAP2 AND DUP2 MSTORE PUSH1 0x20 ADD PUSH2 0x13F JUMP JUMPDEST PUSH2 0x150 PUSH2 0x50B JUMP JUMPDEST PUSH2 0x174 PUSH2 0x21B CALLDATASIZE PUSH1 0x4 PUSH2 0xBD1 JUMP JUMPDEST PUSH1 0x3 PUSH1 0x20 MSTORE PUSH1 0x0 SWAP1 DUP2 MSTORE PUSH1 0x40 SWAP1 KECCAK256 SLOAD DUP2 JUMP JUMPDEST PUSH2 0x133 PUSH2 0x23B CALLDATASIZE PUSH1 0x4 PUSH2 0xC42 JUMP JUMPDEST PUSH2 0x51A JUMP JUMPDEST PUSH2 0x174 PUSH2 0x24E CALLDATASIZE PUSH1 0x4 PUSH2 0xE42 JUMP JUMPDEST PUSH1 0x1 PUSH1 0x1 PUSH1 0xA0 SHL SUB SWAP2 DUP3 AND PUSH1 0x0 SWAP1 DUP2 MSTORE PUSH1 0x1 PUSH1 0x20 SWAP1 DUP2 MSTORE PUSH1 0x40 DUP1 DUP4 KECCAK256 SWAP4 SWAP1 SWAP5 AND DUP3 MSTORE SWAP2 SWAP1 SWAP2 MSTORE KECCAK256 SLOAD SWAP1 JUMP JUMPDEST PUSH2 0x1B7 PUSH2 0x287 CALLDATASIZE PUSH1 0x4 PUSH2 0xBD1 JUMP JUMPDEST PUSH2 0x528 JUMP JUMPDEST PUSH2 0x1B7 PUSH2 0x29A CALLDATASIZE PUSH1 0x4 PUSH2 0xBD1 JUMP JUMPDEST PUSH2 0x6D7 JUMP JUMPDEST PUSH2 0x1B7 PUSH2 0x715 JUMP JUMPDEST PUSH1 0x60 PUSH1 0x5 DUP1 SLOAD PUSH2 0x2B6 SWAP1 PUSH2 0xE75 JUMP JUMPDEST DUP1 PUSH1 0x1F ADD PUSH1 0x20 DUP1 SWAP2 DIV MUL PUSH1 0x20 ADD PUSH1 0x40 MLOAD SWAP1 DUP2 ADD PUSH1 0x40 MSTORE DUP1 SWAP3 SWAP2 SWAP1 DUP2 DUP2 MSTORE PUSH1 0x20 ADD DUP3 DUP1 SLOAD PUSH2 0x2E2 SWAP1 PUSH2 0xE75 JUMP JUMPDEST DUP1 ISZERO PUSH2 0x32F JUMPI DUP1 PUSH1 0x1F LT PUSH2 0x304 JUMPI PUSH2 0x100 DUP1 DUP4 SLOAD DIV MUL DUP4 MSTORE SWAP2 PUSH1 0x20 ADD SWAP2 PUSH2 0x32F JUMP JUMPDEST DUP3 ADD SWAP2 SWAP1 PUSH1 0x0 MSTORE PUSH1 0x20 PUSH1 0x0 KECCAK256 SWAP1 JUMPDEST DUP2 SLOAD DUP2 MSTORE SWAP1 PUSH1 0x1 ADD SWAP1 PUSH1 0x20 ADD DUP1 DUP4 GT PUSH2 0x312 JUMPI DUP3 SWAP1 SUB PUSH1 0x1F AND DUP3 ADD SWAP2 JUMPDEST POP POP POP POP POP SWAP1 POP SWAP1 JUMP JUMPDEST PUSH1 0x0 CALLER PUSH2 0x347 DUP2 DUP6 DUP6 PUSH2 0x7A6 JUMP JUMPDEST PUSH1 0x1 SWAP2 POP POP JUMPDEST SWAP3 SWAP2 POP POP JUMP JUMPDEST PUSH1 0x0 CALLER PUSH2 0x361 DUP6 DUP3 DUP6 PUSH2 0x7B3 JUMP JUMPDEST PUSH2 0x36C DUP6 DUP6 DUP6 PUSH2 0x831 JUMP JUMPDEST POP PUSH1 0x1 SWAP5 SWAP4 POP POP POP POP JUMP JUMPDEST DUP1 MLOAD DUP3 MLOAD EQ PUSH2 0x3C6 JUMPI PUSH1 0x40 MLOAD PUSH3 0x461BCD PUSH1 0xE5 SHL DUP2 MSTORE PUSH1 0x20 PUSH1 0x4 DUP3 ADD MSTORE PUSH1 0x16 PUSH1 0x24 DUP3 ADD MSTORE PUSH22 0x82E4E4C2F2E640D8CADCCEE8D040DAD2E6DAC2E8C6D PUSH1 0x53 SHL PUSH1 0x44 DUP3 ADD MSTORE PUSH1 0x64 ADD JUMPDEST PUSH1 0x40 MLOAD DUP1 SWAP2 SUB SWAP1 REVERT JUMPDEST PUSH1 0x7 SLOAD PUSH1 0x1 PUSH1 0x1 PUSH1 0xA0 SHL SUB AND CALLER EQ PUSH2 0x40F JUMPI PUSH1 0x40 MLOAD PUSH3 0x461BCD PUSH1 0xE5 SHL DUP2 MSTORE PUSH1 0x20 PUSH1 0x4 DUP3 ADD MSTORE PUSH1 0xC PUSH1 0x24 DUP3 ADD MSTORE PUSH12 0x2737BA1030B71027BBB732B9 PUSH1 0xA1 SHL PUSH1 0x44 DUP3 ADD MSTORE PUSH1 0x64 ADD PUSH2 0x3BD JUMP JUMPDEST PUSH1 0x0 JUMPDEST DUP3 MLOAD DUP2 LT ISZERO PUSH2 0x4F2 JUMPI PUSH2 0x458 CALLER DUP5 DUP4 DUP2 MLOAD DUP2 LT PUSH2 0x431 JUMPI PUSH2 0x431 PUSH2 0xEAF JUMP JUMPDEST PUSH1 0x20 MUL PUSH1 0x20 ADD ADD MLOAD DUP5 DUP5 DUP2 MLOAD DUP2 LT PUSH2 0x44B JUMPI PUSH2 0x44B PUSH2 0xEAF JUMP JUMPDEST PUSH1 0x20 MUL PUSH1 0x20 ADD ADD MLOAD PUSH2 0x831 JUMP JUMPDEST PUSH1 0x1 PUSH1 0x2 PUSH1 0x0 DUP6 DUP5 DUP2 MLOAD DUP2 LT PUSH2 0x470 JUMPI PUSH2 0x470 PUSH2 0xEAF JUMP JUMPDEST PUSH1 0x20 MUL PUSH1 0x20 ADD ADD MLOAD PUSH1 0x1 PUSH1 0x1 PUSH1 0xA0 SHL SUB AND PUSH1 0x1 PUSH1 0x1 PUSH1 0xA0 SHL SUB AND DUP2 MSTORE PUSH1 0x20 ADD SWAP1 DUP2 MSTORE PUSH1 0x20 ADD PUSH1 0x0 KECCAK256 PUSH1 0x0 PUSH2 0x100 EXP DUP2 SLOAD DUP2 PUSH1 0xFF MUL NOT AND SWAP1 DUP4 ISZERO ISZERO MUL OR SWAP1 SSTORE POP TIMESTAMP PUSH1 0x3 PUSH1 0x0 DUP6 DUP5 DUP2 MLOAD DUP2 LT PUSH2 0x4C6 JUMPI PUSH2 0x4C6 PUSH2 0xEAF JUMP JUMPDEST PUSH1 0x20 SWAP1 DUP2 MUL SWAP2 SWAP1 SWAP2 ADD DUP2 ADD MLOAD PUSH1 0x1 PUSH1 0x1 PUSH1 0xA0 SHL SUB AND DUP3 MSTORE DUP2 ADD SWAP2 SWAP1 SWAP2 MSTORE PUSH1 0x40 ADD PUSH1 0x0 KECCAK256 SSTORE PUSH1 0x1 ADD PUSH2 0x412 JUMP JUMPDEST POP POP POP JUMP JUMPDEST PUSH2 0x4FF PUSH2 0x937 JUMP JUMPDEST PUSH2 0x509 PUSH1 0x0 PUSH2 0x964 JUMP JUMPDEST JUMP JUMPDEST PUSH1 0x60 PUSH1 0x6 DUP1 SLOAD PUSH2 0x2B6 SWAP1 PUSH2 0xE75 JUMP JUMPDEST PUSH1 0x0 CALLER PUSH2 0x347 DUP2 DUP6 DUP6 PUSH2 0x831 JUMP JUMPDEST PUSH2 0x530 PUSH2 0x937 JUMP JUMPDEST PUSH1 0x40 MLOAD PUSH4 0x70A08231 PUSH1 0xE0 SHL DUP2 MSTORE ADDRESS PUSH1 0x4 DUP3 ADD MSTORE PUSH1 0x0 SWAP1 PUSH1 0x1 PUSH1 0x1 PUSH1 0xA0 SHL SUB DUP4 AND SWAP1 PUSH4 0x70A08231 SWAP1 PUSH1 0x24 ADD PUSH1 0x20 PUSH1 0x40 MLOAD DUP1 DUP4 SUB DUP2 DUP7 GAS STATICCALL ISZERO DUP1 ISZERO PUSH2 0x577 JUMPI RETURNDATASIZE PUSH1 0x0 DUP1 RETURNDATACOPY RETURNDATASIZE PUSH1 0x0 REVERT JUMPDEST POP POP POP POP PUSH1 0x40 MLOAD RETURNDATASIZE PUSH1 0x1F NOT PUSH1 0x1F DUP3 ADD AND DUP3 ADD DUP1 PUSH1 0x40 MSTORE POP DUP2 ADD SWAP1 PUSH2 0x59B SWAP2 SWAP1 PUSH2 0xEC5 JUMP JUMPDEST GT PUSH2 0x5DB JUMPI PUSH1 0x40 MLOAD PUSH3 0x461BCD PUSH1 0xE5 SHL DUP2 MSTORE PUSH1 0x20 PUSH1 0x4 DUP3 ADD MSTORE PUSH1 0x10 PUSH1 0x24 DUP3 ADD MSTORE PUSH16 0x43616E2774207769746864726177203 PUSH1 0x84 SHL PUSH1 0x44 DUP3 ADD MSTORE PUSH1 0x64 ADD PUSH2 0x3BD JUMP JUMPDEST DUP1 PUSH1 0x1 PUSH1 0x1 PUSH1 0xA0 SHL SUB AND PUSH4 0xA9059CBB PUSH2 0x5FC PUSH1 0x8 SLOAD PUSH1 0x1 PUSH1 0x1 PUSH1 0xA0 SHL SUB AND SWAP1 JUMP JUMPDEST PUSH1 0x40 MLOAD PUSH4 0x70A08231 PUSH1 0xE0 SHL DUP2 MSTORE ADDRESS PUSH1 0x4 DUP3 ADD MSTORE PUSH1 0x1 PUSH1 0x1 PUSH1 0xA0 SHL SUB DUP6 AND SWAP1 PUSH4 0x70A08231 SWAP1 PUSH1 0x24 ADD PUSH1 0x20 PUSH1 0x40 MLOAD DUP1 DUP4 SUB DUP2 DUP7 GAS STATICCALL ISZERO DUP1 ISZERO PUSH2 0x640 JUMPI RETURNDATASIZE PUSH1 0x0 DUP1 RETURNDATACOPY RETURNDATASIZE PUSH1 0x0 REVERT JUMPDEST POP POP POP POP PUSH1 0x40 MLOAD RETURNDATASIZE PUSH1 0x1F NOT PUSH1 0x1F DUP3 ADD AND DUP3 ADD DUP1 PUSH1 0x40 MSTORE POP DUP2 ADD SWAP1 PUSH2 0x664 SWAP2 SWAP1 PUSH2 0xEC5 JUMP JUMPDEST PUSH1 0x40 MLOAD PUSH1 0x1 PUSH1 0x1 PUSH1 0xE0 SHL SUB NOT PUSH1 0xE0 DUP6 SWAP1 SHL AND DUP2 MSTORE PUSH1 0x1 PUSH1 0x1 PUSH1 0xA0 SHL SUB SWAP1 SWAP3 AND PUSH1 0x4 DUP4 ADD MSTORE PUSH1 0x24 DUP3 ADD MSTORE PUSH1 0x44 ADD PUSH1 0x20 PUSH1 0x40 MLOAD DUP1 DUP4 SUB DUP2 PUSH1 0x0 DUP8 GAS CALL ISZERO DUP1 ISZERO PUSH2 0x6AF JUMPI RETURNDATASIZE PUSH1 0x0 DUP1 RETURNDATACOPY RETURNDATASIZE PUSH1 0x0 REVERT JUMPDEST POP POP POP POP PUSH1 0x40 MLOAD RETURNDATASIZE PUSH1 0x1F NOT PUSH1 0x1F DUP3 ADD AND DUP3 ADD DUP1 PUSH1 0x40 MSTORE POP DUP2 ADD SWAP1 PUSH2 0x6D3 SWAP2 SWAP1 PUSH2 0xEDE JUMP JUMPDEST POP POP JUMP JUMPDEST PUSH2 0x6DF PUSH2 0x937 JUMP JUMPDEST PUSH1 0x1 PUSH1 0x1 PUSH1 0xA0 SHL SUB DUP2 AND PUSH2 0x709 JUMPI PUSH1 0x40 MLOAD PUSH4 0x1E4FBDF7 PUSH1 0xE0 SHL DUP2 MSTORE PUSH1 0x0 PUSH1 0x4 DUP3 ADD MSTORE PUSH1 0x24 ADD PUSH2 0x3BD JUMP JUMPDEST PUSH2 0x712 DUP2 PUSH2 0x964 JUMP JUMPDEST POP JUMP JUMPDEST PUSH2 0x71D PUSH2 0x937 JUMP JUMPDEST PUSH1 0x0 SELFBALANCE GT PUSH2 0x76D JUMPI PUSH1 0x40 MLOAD PUSH3 0x461BCD PUSH1 0xE5 SHL DUP2 MSTORE PUSH1 0x20 PUSH1 0x4 DUP3 ADD MSTORE PUSH1 0x1F PUSH1 0x24 DUP3 ADD MSTORE PUSH32 0x43616E2774207769746864726177206E65676174697665206F72207A65726F00 PUSH1 0x44 DUP3 ADD MSTORE PUSH1 0x64 ADD PUSH2 0x3BD JUMP JUMPDEST PUSH1 0x8 SLOAD PUSH1 0x40 MLOAD PUSH1 0x1 PUSH1 0x1 PUSH1 0xA0 SHL SUB SWAP1 SWAP2 AND SWAP1 SELFBALANCE DUP1 ISZERO PUSH2 0x8FC MUL SWAP2 PUSH1 0x0 DUP2 DUP2 DUP2 DUP6 DUP9 DUP9 CALL SWAP4 POP POP POP POP ISZERO DUP1 ISZERO PUSH2 0x712 JUMPI RETURNDATASIZE PUSH1 0x0 DUP1 RETURNDATACOPY RETURNDATASIZE PUSH1 0x0 REVERT JUMPDEST PUSH2 0x4F2 DUP4 DUP4 DUP4 PUSH1 0x1 PUSH2 0x9B6 JUMP JUMPDEST PUSH1 0x1 PUSH1 0x1 PUSH1 0xA0 SHL SUB DUP4 DUP2 AND PUSH1 0x0 SWAP1 DUP2 MSTORE PUSH1 0x1 PUSH1 0x20 SWAP1 DUP2 MSTORE PUSH1 0x40 DUP1 DUP4 KECCAK256 SWAP4 DUP7 AND DUP4 MSTORE SWAP3 SWAP1 MSTORE KECCAK256 SLOAD PUSH1 0x0 NOT DUP2 EQ PUSH2 0x82B JUMPI DUP2 DUP2 LT ISZERO PUSH2 0x81C JUMPI PUSH1 0x40 MLOAD PUSH4 0x7DC7A0D9 PUSH1 0xE1 SHL DUP2 MSTORE PUSH1 0x1 PUSH1 0x1 PUSH1 0xA0 SHL SUB DUP5 AND PUSH1 0x4 DUP3 ADD MSTORE PUSH1 0x24 DUP2 ADD DUP3 SWAP1 MSTORE PUSH1 0x44 DUP2 ADD DUP4 SWAP1 MSTORE PUSH1 0x64 ADD PUSH2 0x3BD JUMP JUMPDEST PUSH2 0x82B DUP5 DUP5 DUP5 DUP5 SUB PUSH1 0x0 PUSH2 0x9B6 JUMP JUMPDEST POP POP POP POP JUMP JUMPDEST PUSH1 0x1 PUSH1 0x1 PUSH1 0xA0 SHL SUB DUP4 AND PUSH2 0x85B JUMPI PUSH1 0x40 MLOAD PUSH4 0x4B637E8F PUSH1 0xE1 SHL DUP2 MSTORE PUSH1 0x0 PUSH1 0x4 DUP3 ADD MSTORE PUSH1 0x24 ADD PUSH2 0x3BD JUMP JUMPDEST PUSH1 0x1 PUSH1 0x1 PUSH1 0xA0 SHL SUB DUP3 AND PUSH2 0x885 JUMPI PUSH1 0x40 MLOAD PUSH4 0xEC442F05 PUSH1 0xE0 SHL DUP2 MSTORE PUSH1 0x0 PUSH1 0x4 DUP3 ADD MSTORE PUSH1 0x24 ADD PUSH2 0x3BD JUMP JUMPDEST PUSH1 0x1 PUSH1 0x1 PUSH1 0xA0 SHL SUB DUP4 AND PUSH1 0x0 SWAP1 DUP2 MSTORE PUSH1 0x2 PUSH1 0x20 MSTORE PUSH1 0x40 SWAP1 KECCAK256 SLOAD PUSH1 0xFF AND ISZERO PUSH2 0x92C JUMPI PUSH1 0x1 PUSH1 0x1 PUSH1 0xA0 SHL SUB DUP4 AND PUSH1 0x0 SWAP1 DUP2 MSTORE PUSH1 0x3 PUSH1 0x20 MSTORE PUSH1 0x40 SWAP1 KECCAK256 SLOAD PUSH2 0x8CA SWAP1 PUSH1 0xF0 PUSH2 0xF00 JUMP JUMPDEST TIMESTAMP LT ISZERO PUSH2 0x92C JUMPI PUSH1 0x40 MLOAD PUSH3 0x461BCD PUSH1 0xE5 SHL DUP2 MSTORE PUSH1 0x20 PUSH1 0x4 DUP3 ADD MSTORE PUSH1 0x2A PUSH1 0x24 DUP3 ADD MSTORE PUSH32 0x41697264726F7070656420746F6B656E7320617265206C6F636B65642074696C PUSH1 0x44 DUP3 ADD MSTORE PUSH10 0x6C203234302064617973 PUSH1 0xB0 SHL PUSH1 0x64 DUP3 ADD MSTORE PUSH1 0x84 ADD PUSH2 0x3BD JUMP JUMPDEST PUSH2 0x4F2 DUP4 DUP4 DUP4 PUSH2 0xA8B JUMP JUMPDEST PUSH1 0x8 SLOAD PUSH1 0x1 PUSH1 0x1 PUSH1 0xA0 SHL SUB AND CALLER EQ PUSH2 0x509 JUMPI PUSH1 0x40 MLOAD PUSH4 0x118CDAA7 PUSH1 0xE0 SHL DUP2 MSTORE CALLER PUSH1 0x4 DUP3 ADD MSTORE PUSH1 0x24 ADD PUSH2 0x3BD JUMP JUMPDEST PUSH1 0x8 DUP1 SLOAD PUSH1 0x1 PUSH1 0x1 PUSH1 0xA0 SHL SUB DUP4 DUP2 AND PUSH1 0x1 PUSH1 0x1 PUSH1 0xA0 SHL SUB NOT DUP4 AND DUP2 OR SWAP1 SWAP4 SSTORE PUSH1 0x40 MLOAD SWAP2 AND SWAP2 SWAP1 DUP3 SWAP1 PUSH32 0x8BE0079C531659141344CD1FD0A4F28419497F9722A3DAAFE3B4186F6B6457E0 SWAP1 PUSH1 0x0 SWAP1 LOG3 POP POP JUMP JUMPDEST PUSH1 0x1 PUSH1 0x1 PUSH1 0xA0 SHL SUB DUP5 AND PUSH2 0x9E0 JUMPI PUSH1 0x40 MLOAD PUSH4 0xE602DF05 PUSH1 0xE0 SHL DUP2 MSTORE PUSH1 0x0 PUSH1 0x4 DUP3 ADD MSTORE PUSH1 0x24 ADD PUSH2 0x3BD JUMP JUMPDEST PUSH1 0x1 PUSH1 0x1 PUSH1 0xA0 SHL SUB DUP4 AND PUSH2 0xA0A JUMPI PUSH1 0x40 MLOAD PUSH4 0x4A1406B1 PUSH1 0xE1 SHL DUP2 MSTORE PUSH1 0x0 PUSH1 0x4 DUP3 ADD MSTORE PUSH1 0x24 ADD PUSH2 0x3BD JUMP JUMPDEST PUSH1 0x1 PUSH1 0x1 PUSH1 0xA0 SHL SUB DUP1 DUP6 AND PUSH1 0x0 SWAP1 DUP2 MSTORE PUSH1 0x1 PUSH1 0x20 SWAP1 DUP2 MSTORE PUSH1 0x40 DUP1 DUP4 KECCAK256 SWAP4 DUP8 AND DUP4 MSTORE SWAP3 SWAP1 MSTORE KECCAK256 DUP3 SWAP1 SSTORE DUP1 ISZERO PUSH2 0x82B JUMPI DUP3 PUSH1 0x1 PUSH1 0x1 PUSH1 0xA0 SHL SUB AND DUP5 PUSH1 0x1 PUSH1 0x1 PUSH1 0xA0 SHL SUB AND PUSH32 0x8C5BE1E5EBEC7D5BD14F71427D1E84F3DD0314C0F7B2291E5B200AC8C7C3B925 DUP5 PUSH1 0x40 MLOAD PUSH2 0xA7D SWAP2 DUP2 MSTORE PUSH1 0x20 ADD SWAP1 JUMP JUMPDEST PUSH1 0x40 MLOAD DUP1 SWAP2 SUB SWAP1 LOG3 POP POP POP POP JUMP JUMPDEST PUSH1 0x1 PUSH1 0x1 PUSH1 0xA0 SHL SUB DUP4 AND PUSH2 0xAB6 JUMPI DUP1 PUSH1 0x4 PUSH1 0x0 DUP3 DUP3 SLOAD PUSH2 0xAAB SWAP2 SWAP1 PUSH2 0xF00 JUMP JUMPDEST SWAP1 SWAP2 SSTORE POP PUSH2 0xB28 SWAP1 POP JUMP JUMPDEST PUSH1 0x1 PUSH1 0x1 PUSH1 0xA0 SHL SUB DUP4 AND PUSH1 0x0 SWAP1 DUP2 MSTORE PUSH1 0x20 DUP2 SWAP1 MSTORE PUSH1 0x40 SWAP1 KECCAK256 SLOAD DUP2 DUP2 LT ISZERO PUSH2 0xB09 JUMPI PUSH1 0x40 MLOAD PUSH4 0x391434E3 PUSH1 0xE2 SHL DUP2 MSTORE PUSH1 0x1 PUSH1 0x1 PUSH1 0xA0 SHL SUB DUP6 AND PUSH1 0x4 DUP3 ADD MSTORE PUSH1 0x24 DUP2 ADD DUP3 SWAP1 MSTORE PUSH1 0x44 DUP2 ADD DUP4 SWAP1 MSTORE PUSH1 0x64 ADD PUSH2 0x3BD JUMP JUMPDEST PUSH1 0x1 PUSH1 0x1 PUSH1 0xA0 SHL SUB DUP5 AND PUSH1 0x0 SWAP1 DUP2 MSTORE PUSH1 0x20 DUP2 SWAP1 MSTORE PUSH1 0x40 SWAP1 KECCAK256 SWAP1 DUP3 SWAP1 SUB SWAP1 SSTORE JUMPDEST PUSH1 0x1 PUSH1 0x1 PUSH1 0xA0 SHL SUB DUP3 AND PUSH2 0xB44 JUMPI PUSH1 0x4 DUP1 SLOAD DUP3 SWAP1 SUB SWAP1 SSTORE PUSH2 0xB63 JUMP JUMPDEST PUSH1 0x1 PUSH1 0x1 PUSH1 0xA0 SHL SUB DUP3 AND PUSH1 0x0 SWAP1 DUP2 MSTORE PUSH1 0x20 DUP2 SWAP1 MSTORE PUSH1 0x40 SWAP1 KECCAK256 DUP1 SLOAD DUP3 ADD SWAP1 SSTORE JUMPDEST DUP2 PUSH1 0x1 PUSH1 0x1 PUSH1 0xA0 SHL SUB AND DUP4 PUSH1 0x1 PUSH1 0x1 PUSH1 0xA0 SHL SUB AND PUSH32 0xDDF252AD1BE2C89B69C2B068FC378DAA952BA7F163C4A11628F55A4DF523B3EF DUP4 PUSH1 0x40 MLOAD PUSH2 0xBA8 SWAP2 DUP2 MSTORE PUSH1 0x20 ADD SWAP1 JUMP JUMPDEST PUSH1 0x40 MLOAD DUP1 SWAP2 SUB SWAP1 LOG3 POP POP POP JUMP JUMPDEST DUP1 CALLDATALOAD PUSH1 0x1 PUSH1 0x1 PUSH1 0xA0 SHL SUB DUP2 AND DUP2 EQ PUSH2 0xBCC JUMPI PUSH1 0x0 DUP1 REVERT JUMPDEST SWAP2 SWAP1 POP JUMP JUMPDEST PUSH1 0x0 PUSH1 0x20 DUP3 DUP5 SUB SLT ISZERO PUSH2 0xBE3 JUMPI PUSH1 0x0 DUP1 REVERT JUMPDEST PUSH2 0xBEC DUP3 PUSH2 0xBB5 JUMP JUMPDEST SWAP4 SWAP3 POP POP POP JUMP JUMPDEST PUSH1 0x0 PUSH1 0x20 DUP1 DUP4 MSTORE DUP4 MLOAD DUP1 PUSH1 0x20 DUP6 ADD MSTORE PUSH1 0x0 JUMPDEST DUP2 DUP2 LT ISZERO PUSH2 0xC21 JUMPI DUP6 DUP2 ADD DUP4 ADD MLOAD DUP6 DUP3 ADD PUSH1 0x40 ADD MSTORE DUP3 ADD PUSH2 0xC05 JUMP JUMPDEST POP PUSH1 0x0 PUSH1 0x40 DUP3 DUP7 ADD ADD MSTORE PUSH1 0x40 PUSH1 0x1F NOT PUSH1 0x1F DUP4 ADD AND DUP6 ADD ADD SWAP3 POP POP POP SWAP3 SWAP2 POP POP JUMP JUMPDEST PUSH1 0x0 DUP1 PUSH1 0x40 DUP4 DUP6 SUB SLT ISZERO PUSH2 0xC55 JUMPI PUSH1 0x0 DUP1 REVERT JUMPDEST PUSH2 0xC5E DUP4 PUSH2 0xBB5 JUMP JUMPDEST SWAP5 PUSH1 0x20 SWAP4 SWAP1 SWAP4 ADD CALLDATALOAD SWAP4 POP POP POP JUMP JUMPDEST PUSH1 0x0 DUP1 PUSH1 0x0 PUSH1 0x60 DUP5 DUP7 SUB SLT ISZERO PUSH2 0xC81 JUMPI PUSH1 0x0 DUP1 REVERT JUMPDEST PUSH2 0xC8A DUP5 PUSH2 0xBB5 JUMP JUMPDEST SWAP3 POP PUSH2 0xC98 PUSH1 0x20 DUP6 ADD PUSH2 0xBB5 JUMP JUMPDEST SWAP2 POP PUSH1 0x40 DUP5 ADD CALLDATALOAD SWAP1 POP SWAP3 POP SWAP3 POP SWAP3 JUMP JUMPDEST PUSH4 0x4E487B71 PUSH1 0xE0 SHL PUSH1 0x0 MSTORE PUSH1 0x41 PUSH1 0x4 MSTORE PUSH1 0x24 PUSH1 0x0 REVERT JUMPDEST PUSH1 0x40 MLOAD PUSH1 0x1F DUP3 ADD PUSH1 0x1F NOT AND DUP2 ADD PUSH8 0xFFFFFFFFFFFFFFFF DUP2 GT DUP3 DUP3 LT OR ISZERO PUSH2 0xCE7 JUMPI PUSH2 0xCE7 PUSH2 0xCA8 JUMP JUMPDEST PUSH1 0x40 MSTORE SWAP2 SWAP1 POP JUMP JUMPDEST PUSH1 0x0 PUSH8 0xFFFFFFFFFFFFFFFF DUP3 GT ISZERO PUSH2 0xD09 JUMPI PUSH2 0xD09 PUSH2 0xCA8 JUMP JUMPDEST POP PUSH1 0x5 SHL PUSH1 0x20 ADD SWAP1 JUMP JUMPDEST PUSH1 0x0 DUP3 PUSH1 0x1F DUP4 ADD SLT PUSH2 0xD24 JUMPI PUSH1 0x0 DUP1 REVERT JUMPDEST DUP2 CALLDATALOAD PUSH1 0x20 PUSH2 0xD39 PUSH2 0xD34 DUP4 PUSH2 0xCEF JUMP JUMPDEST PUSH2 0xCBE JUMP JUMPDEST DUP1 DUP4 DUP3 MSTORE PUSH1 0x20 DUP3 ADD SWAP2 POP PUSH1 0x20 DUP5 PUSH1 0x5 SHL DUP8 ADD ADD SWAP4 POP DUP7 DUP5 GT ISZERO PUSH2 0xD5B JUMPI PUSH1 0x0 DUP1 REVERT JUMPDEST PUSH1 0x20 DUP7 ADD JUMPDEST DUP5 DUP2 LT ISZERO PUSH2 0xD77 JUMPI DUP1 CALLDATALOAD DUP4 MSTORE SWAP2 DUP4 ADD SWAP2 DUP4 ADD PUSH2 0xD60 JUMP JUMPDEST POP SWAP7 SWAP6 POP POP POP POP POP POP JUMP JUMPDEST PUSH1 0x0 DUP1 PUSH1 0x40 DUP4 DUP6 SUB SLT ISZERO PUSH2 0xD95 JUMPI PUSH1 0x0 DUP1 REVERT JUMPDEST DUP3 CALLDATALOAD PUSH8 0xFFFFFFFFFFFFFFFF DUP1 DUP3 GT ISZERO PUSH2 0xDAD JUMPI PUSH1 0x0 DUP1 REVERT JUMPDEST DUP2 DUP6 ADD SWAP2 POP DUP6 PUSH1 0x1F DUP4 ADD SLT PUSH2 0xDC1 JUMPI PUSH1 0x0 DUP1 REVERT JUMPDEST DUP2 CALLDATALOAD PUSH1 0x20 PUSH2 0xDD1 PUSH2 0xD34 DUP4 PUSH2 0xCEF JUMP JUMPDEST DUP3 DUP2 MSTORE PUSH1 0x5 SWAP3 SWAP1 SWAP3 SHL DUP5 ADD DUP2 ADD SWAP2 DUP2 DUP2 ADD SWAP1 DUP10 DUP5 GT ISZERO PUSH2 0xDF0 JUMPI PUSH1 0x0 DUP1 REVERT JUMPDEST SWAP5 DUP3 ADD SWAP5 JUMPDEST DUP4 DUP7 LT ISZERO PUSH2 0xE15 JUMPI PUSH2 0xE06 DUP7 PUSH2 0xBB5 JUMP JUMPDEST DUP3 MSTORE SWAP5 DUP3 ADD SWAP5 SWAP1 DUP3 ADD SWAP1 PUSH2 0xDF5 JUMP JUMPDEST SWAP7 POP POP DUP7 ADD CALLDATALOAD SWAP3 POP POP DUP1 DUP3 GT ISZERO PUSH2 0xE2B JUMPI PUSH1 0x0 DUP1 REVERT JUMPDEST POP PUSH2 0xE38 DUP6 DUP3 DUP7 ADD PUSH2 0xD13 JUMP JUMPDEST SWAP2 POP POP SWAP3 POP SWAP3 SWAP1 POP JUMP JUMPDEST PUSH1 0x0 DUP1 PUSH1 0x40 DUP4 DUP6 SUB SLT ISZERO PUSH2 0xE55 JUMPI PUSH1 0x0 DUP1 REVERT JUMPDEST PUSH2 0xE5E DUP4 PUSH2 0xBB5 JUMP JUMPDEST SWAP2 POP PUSH2 0xE6C PUSH1 0x20 DUP5 ADD PUSH2 0xBB5 JUMP JUMPDEST SWAP1 POP SWAP3 POP SWAP3 SWAP1 POP JUMP JUMPDEST PUSH1 0x1 DUP2 DUP2 SHR SWAP1 DUP3 AND DUP1 PUSH2 0xE89 JUMPI PUSH1 0x7F DUP3 AND SWAP2 POP JUMPDEST PUSH1 0x20 DUP3 LT DUP2 SUB PUSH2 0xEA9 JUMPI PUSH4 0x4E487B71 PUSH1 0xE0 SHL PUSH1 0x0 MSTORE PUSH1 0x22 PUSH1 0x4 MSTORE PUSH1 0x24 PUSH1 0x0 REVERT JUMPDEST POP SWAP2 SWAP1 POP JUMP JUMPDEST PUSH4 0x4E487B71 PUSH1 0xE0 SHL PUSH1 0x0 MSTORE PUSH1 0x32 PUSH1 0x4 MSTORE PUSH1 0x24 PUSH1 0x0 REVERT JUMPDEST PUSH1 0x0 PUSH1 0x20 DUP3 DUP5 SUB SLT ISZERO PUSH2 0xED7 JUMPI PUSH1 0x0 DUP1 REVERT JUMPDEST POP MLOAD SWAP2 SWAP1 POP JUMP JUMPDEST PUSH1 0x0 PUSH1 0x20 DUP3 DUP5 SUB SLT ISZERO PUSH2 0xEF0 JUMPI PUSH1 0x0 DUP1 REVERT JUMPDEST DUP2 MLOAD DUP1 ISZERO ISZERO DUP2 EQ PUSH2 0xBEC JUMPI PUSH1 0x0 DUP1 REVERT JUMPDEST DUP1 DUP3 ADD DUP1 DUP3 GT ISZERO PUSH2 0x34D JUMPI PUSH4 0x4E487B71 PUSH1 0xE0 SHL PUSH1 0x0 MSTORE PUSH1 0x11 PUSH1 0x4 MSTORE PUSH1 0x24 PUSH1 0x0 REVERT INVALID LOG2 PUSH5 0x6970667358 0x22 SLT KECCAK256 PUSH21 0x5BFD9FB58DA14A36F7C42528C5A92492AD8CB7A8EB BALANCE NUMBER 0x4C LT KECCAK256 0xCE 0xED DUP16 0xB6 SELFBALANCE PUSH5 0x736F6C6343 STOP ADDMOD NOT STOP CALLER "
				},
				"gasEstimates": {
					"creation": {
						"codeDepositCost": "785400",
						"executionCost": "infinite",
						"totalCost": "infinite"
					},
					"external": {
						"aidroppedTime(address)": "1308",
						"airdrop(address[],uint256[])": "infinite",
						"airdropParticipant(address)": "1244",
						"allowance(address,address)": "infinite",
						"approve(address,uint256)": "22673",
						"balanceOf(address)": "1329",
						"decimals()": "222",
						"name()": "infinite",
						"owner()": "1046",
						"removeStuckToken(address)": "infinite",
						"renounceOwnership()": "infinite",
						"symbol()": "infinite",
						"totalSupply()": "1071",
						"transfer(address,uint256)": "infinite",
						"transferFrom(address,address,uint256)": "infinite",
						"transferOwnership(address)": "23724",
						"withdrawStuckETH()": "infinite"
					}
				},
				"methodIdentifiers": {
					"aidroppedTime(address)": "9b9f7c84",
					"airdrop(address[],uint256[])": "67243482",
					"airdropParticipant(address)": "0650655c",
					"allowance(address,address)": "dd62ed3e",
					"approve(address,uint256)": "095ea7b3",
					"balanceOf(address)": "70a08231",
					"decimals()": "313ce567",
					"name()": "06fdde03",
					"owner()": "8da5cb5b",
					"removeStuckToken(address)": "e083e922",
					"renounceOwnership()": "715018a6",
					"symbol()": "95d89b41",
					"totalSupply()": "18160ddd",
					"transfer(address,uint256)": "a9059cbb",
					"transferFrom(address,address,uint256)": "23b872dd",
					"transferOwnership(address)": "f2fde38b",
					"withdrawStuckETH()": "f5648a4f"
				}
			},
			"storageLayout": {
				"storage": [
					{
						"astId": 292,
						"contract": "contracts/BUDS/BUDS.sol:DBI",
						"label": "_balances",
						"offset": 0,
						"slot": "0",
						"type": "t_mapping(t_address,t_uint256)"
					},
					{
						"astId": 298,
						"contract": "contracts/BUDS/BUDS.sol:DBI",
						"label": "_allowances",
						"offset": 0,
						"slot": "1",
						"type": "t_mapping(t_address,t_mapping(t_address,t_uint256))"
					},
					{
						"astId": 302,
						"contract": "contracts/BUDS/BUDS.sol:DBI",
						"label": "airdropParticipant",
						"offset": 0,
						"slot": "2",
						"type": "t_mapping(t_address,t_bool)"
					},
					{
						"astId": 306,
						"contract": "contracts/BUDS/BUDS.sol:DBI",
						"label": "aidroppedTime",
						"offset": 0,
						"slot": "3",
						"type": "t_mapping(t_address,t_uint256)"
					},
					{
						"astId": 308,
						"contract": "contracts/BUDS/BUDS.sol:DBI",
						"label": "_totalSupply",
						"offset": 0,
						"slot": "4",
						"type": "t_uint256"
					},
					{
						"astId": 310,
						"contract": "contracts/BUDS/BUDS.sol:DBI",
						"label": "_name",
						"offset": 0,
						"slot": "5",
						"type": "t_string_storage"
					},
					{
						"astId": 312,
						"contract": "contracts/BUDS/BUDS.sol:DBI",
						"label": "_symbol",
						"offset": 0,
						"slot": "6",
						"type": "t_string_storage"
					},
					{
						"astId": 314,
						"contract": "contracts/BUDS/BUDS.sol:DBI",
						"label": "_owner",
						"offset": 0,
						"slot": "7",
						"type": "t_address"
					},
					{
						"astId": 65,
						"contract": "contracts/BUDS/BUDS.sol:DBI",
						"label": "_owner",
						"offset": 0,
						"slot": "8",
						"type": "t_address"
					}
				],
				"types": {
					"t_address": {
						"encoding": "inplace",
						"label": "address",
						"numberOfBytes": "20"
					},
					"t_bool": {
						"encoding": "inplace",
						"label": "bool",
						"numberOfBytes": "1"
					},
					"t_mapping(t_address,t_bool)": {
						"encoding": "mapping",
						"key": "t_address",
						"label": "mapping(address => bool)",
						"numberOfBytes": "32",
						"value": "t_bool"
					},
					"t_mapping(t_address,t_mapping(t_address,t_uint256))": {
						"encoding": "mapping",
						"key": "t_address",
						"label": "mapping(address => mapping(address => uint256))",
						"numberOfBytes": "32",
						"value": "t_mapping(t_address,t_uint256)"
					},
					"t_mapping(t_address,t_uint256)": {
						"encoding": "mapping",
						"key": "t_address",
						"label": "mapping(address => uint256)",
						"numberOfBytes": "32",
						"value": "t_uint256"
					},
					"t_string_storage": {
						"encoding": "bytes",
						"label": "string",
						"numberOfBytes": "32"
					},
					"t_uint256": {
						"encoding": "inplace",
						"label": "uint256",
						"numberOfBytes": "32"
					}
				}
			},
			"userdoc": {
				"kind": "user",
				"methods": {},
				"version": 1
			}
		}
	}
}